{
  "_format": "hh-sol-artifact-1",
  "contractName": "UpdateMultipleSoulConfigProposal",
  "sourceName": "contracts/DAO/Proposals/UpdateMultipleSoulConfigProposal.sol",
  "abi": [
    {
      "inputs": [
        {
          "internalType": "address",
          "name": "dao",
          "type": "address"
        },
        {
          "internalType": "string",
          "name": "_description",
          "type": "string"
        },
        {
          "internalType": "address",
          "name": "_limbo",
          "type": "address"
        },
        {
          "internalType": "address",
          "name": "_ammHelper",
          "type": "address"
        },
        {
          "internalType": "address",
          "name": "morgothTokenApprover",
          "type": "address"
        }
      ],
      "stateMutability": "nonpayable",
      "type": "constructor"
    },
    {
      "inputs": [],
      "name": "ExecutionFailed",
      "type": "error"
    },
    {
      "inputs": [
        {
          "internalType": "address",
          "name": "dao",
          "type": "address"
        },
        {
          "internalType": "address",
          "name": "factory",
          "type": "address"
        }
      ],
      "name": "OnlyFactoryOrDAO",
      "type": "error"
    },
    {
      "inputs": [
        {
          "internalType": "address",
          "name": "proposal",
          "type": "address"
        }
      ],
      "name": "ProposalLocked",
      "type": "error"
    },
    {
      "inputs": [
        {
          "internalType": "address",
          "name": "token",
          "type": "address"
        }
      ],
      "name": "TokenNotApproved",
      "type": "error"
    },
    {
      "inputs": [],
      "name": "description",
      "outputs": [
        {
          "internalType": "string",
          "name": "",
          "type": "string"
        }
      ],
      "stateMutability": "view",
      "type": "function"
    },
    {
      "inputs": [],
      "name": "lockDown",
      "outputs": [],
      "stateMutability": "nonpayable",
      "type": "function"
    },
    {
      "inputs": [],
      "name": "locked",
      "outputs": [
        {
          "internalType": "bool",
          "name": "",
          "type": "bool"
        }
      ],
      "stateMutability": "view",
      "type": "function"
    },
    {
      "inputs": [],
      "name": "orchestrateExecute",
      "outputs": [],
      "stateMutability": "nonpayable",
      "type": "function"
    },
    {
      "inputs": [
        {
          "internalType": "address",
          "name": "token",
          "type": "address"
        },
        {
          "internalType": "uint256",
          "name": "crossingThreshold",
          "type": "uint256"
        },
        {
          "internalType": "uint256",
          "name": "soulType",
          "type": "uint256"
        },
        {
          "internalType": "uint256",
          "name": "state",
          "type": "uint256"
        },
        {
          "internalType": "uint256",
          "name": "index",
          "type": "uint256"
        },
        {
          "internalType": "uint256",
          "name": "targetAPY",
          "type": "uint256"
        },
        {
          "internalType": "uint256",
          "name": "daiThreshold",
          "type": "uint256"
        }
      ],
      "name": "parameterize",
      "outputs": [],
      "stateMutability": "nonpayable",
      "type": "function"
    },
    {
      "inputs": [
        {
          "internalType": "bool",
          "name": "_locked",
          "type": "bool"
        }
      ],
      "name": "setLocked",
      "outputs": [],
      "stateMutability": "nonpayable",
      "type": "function"
    }
  ],
  "bytecode": "0x60a06040523480156200001157600080fd5b506040516200148138038062001481833981810160405281019062000037919062000408565b84848173ffffffffffffffffffffffffffffffffffffffff1660808173ffffffffffffffffffffffffffffffffffffffff168152505080600090805190602001906200008592919062000156565b50505082600360006101000a81548173ffffffffffffffffffffffffffffffffffffffff021916908373ffffffffffffffffffffffffffffffffffffffff16021790555081600460006101000a81548173ffffffffffffffffffffffffffffffffffffffff021916908373ffffffffffffffffffffffffffffffffffffffff16021790555080600560006101000a81548173ffffffffffffffffffffffffffffffffffffffff021916908373ffffffffffffffffffffffffffffffffffffffff160217905550505050505062000513565b8280546200016490620004de565b90600052602060002090601f016020900481019282620001885760008555620001d4565b82601f10620001a357805160ff1916838001178555620001d4565b82800160010185558215620001d4579182015b82811115620001d3578251825591602001919060010190620001b6565b5b509050620001e39190620001e7565b5090565b5b8082111562000202576000816000905550600101620001e8565b5090565b6000604051905090565b600080fd5b600080fd5b600073ffffffffffffffffffffffffffffffffffffffff82169050919050565b600062000247826200021a565b9050919050565b62000259816200023a565b81146200026557600080fd5b50565b60008151905062000279816200024e565b92915050565b600080fd5b600080fd5b6000601f19601f8301169050919050565b7f4e487b7100000000000000000000000000000000000000000000000000000000600052604160045260246000fd5b620002d48262000289565b810181811067ffffffffffffffff82111715620002f657620002f56200029a565b5b80604052505050565b60006200030b62000206565b9050620003198282620002c9565b919050565b600067ffffffffffffffff8211156200033c576200033b6200029a565b5b620003478262000289565b9050602081019050919050565b60005b838110156200037457808201518184015260208101905062000357565b8381111562000384576000848401525b50505050565b6000620003a16200039b846200031e565b620002ff565b905082815260208101848484011115620003c057620003bf62000284565b5b620003cd84828562000354565b509392505050565b600082601f830112620003ed57620003ec6200027f565b5b8151620003ff8482602086016200038a565b91505092915050565b600080600080600060a0868803121562000427576200042662000210565b5b6000620004378882890162000268565b955050602086015167ffffffffffffffff8111156200045b576200045a62000215565b5b6200046988828901620003d5565b94505060406200047c8882890162000268565b93505060606200048f8882890162000268565b9250506080620004a28882890162000268565b9150509295509295909350565b7f4e487b7100000000000000000000000000000000000000000000000000000000600052602260045260246000fd5b60006002820490506001821680620004f757607f821691505b6020821081036200050d576200050c620004af565b5b50919050565b608051610f3e620005436000396000818160f30152818161011801528181610278015261029d0152610f3e6000f3fe608060405234801561001057600080fd5b50600436106100625760003560e01c8063211e28b6146100675780633e7f6c641461008357806364e64cd21461008d5780637284e416146100975780639a49e156146100b5578063cf309012146100d1575b600080fd5b610081600480360381019061007c91906109e2565b6100ef565b005b61008b610274565b005b61009561041c565b005b61009f61048a565b6040516100ac9190610aa8565b60405180910390f35b6100cf60048036038101906100ca9190610b5e565b610518565b005b6100d9610705565b6040516100e69190610c0f565b60405180910390f35b60007f0000000000000000000000000000000000000000000000000000000000000000905060007f000000000000000000000000000000000000000000000000000000000000000073ffffffffffffffffffffffffffffffffffffffff166301e179dc6040518163ffffffff1660e01b8152600401606060405180830381865afa158015610181573d6000803e3d6000fd5b505050506040513d601f19601f820116820180604052508101906101a59190610c54565b925050508173ffffffffffffffffffffffffffffffffffffffff163373ffffffffffffffffffffffffffffffffffffffff161415801561021157508073ffffffffffffffffffffffffffffffffffffffff163373ffffffffffffffffffffffffffffffffffffffff1614155b156102555781816040517ff8b7c0c300000000000000000000000000000000000000000000000000000000815260040161024c929190610cb6565b60405180910390fd5b82600160006101000a81548160ff021916908315150217905550505050565b60007f0000000000000000000000000000000000000000000000000000000000000000905060007f000000000000000000000000000000000000000000000000000000000000000073ffffffffffffffffffffffffffffffffffffffff166301e179dc6040518163ffffffff1660e01b8152600401606060405180830381865afa158015610306573d6000803e3d6000fd5b505050506040513d601f19601f8201168201806040525081019061032a9190610c54565b925050508173ffffffffffffffffffffffffffffffffffffffff163373ffffffffffffffffffffffffffffffffffffffff161415801561039657508073ffffffffffffffffffffffffffffffffffffffff163373ffffffffffffffffffffffffffffffffffffffff1614155b156103da5781816040517ff8b7c0c30000000000000000000000000000000000000000000000000000000081526004016103d1929190610cb6565b60405180910390fd5b6103e2610718565b610418576040517facfdb44400000000000000000000000000000000000000000000000000000000815260040160405180910390fd5b5050565b600160009054906101000a900460ff161561046e57306040517fefaa447e0000000000000000000000000000000000000000000000000000000081526004016104659190610cdf565b60405180910390fd5b60018060006101000a81548160ff021916908315150217905550565b6000805461049790610d29565b80601f01602080910402602001604051908101604052809291908181526020018280546104c390610d29565b80156105105780601f106104e557610100808354040283529160200191610510565b820191906000526020600020905b8154815290600101906020018083116104f357829003601f168201915b505050505081565b600560009054906101000a900473ffffffffffffffffffffffffffffffffffffffff1673ffffffffffffffffffffffffffffffffffffffff1663d8b964e6886040518263ffffffff1660e01b81526004016105739190610cdf565b602060405180830381865afa158015610590573d6000803e3d6000fd5b505050506040513d601f19601f820116820180604052508101906105b49190610d6f565b1580156105c15750600285105b1561060357866040517f87921f5a0000000000000000000000000000000000000000000000000000000081526004016105fa9190610cdf565b60405180910390fd5b60026040518060e001604052808973ffffffffffffffffffffffffffffffffffffffff16815260200188815260200187815260200186815260200185815260200184815260200183815250908060018154018082558091505060019003906000526020600020906007020160009091909190915060008201518160000160006101000a81548173ffffffffffffffffffffffffffffffffffffffff021916908373ffffffffffffffffffffffffffffffffffffffff1602179055506020820151816001015560408201518160020155606082015181600301556080820151816004015560a0820151816005015560c08201518160060155505050505050505050565b600160009054906101000a900460ff1681565b600080600090505b60028054905081101561099d576000600460009054906101000a900473ffffffffffffffffffffffffffffffffffffffff1673ffffffffffffffffffffffffffffffffffffffff1663421e5b486002848154811061078157610780610d9c565b5b906000526020600020906007020160050154600285815481106107a7576107a6610d9c565b5b9060005260206000209060070201600601546040518363ffffffff1660e01b81526004016107d6929190610dda565b602060405180830381865afa1580156107f3573d6000803e3d6000fd5b505050506040513d601f19601f820116820180604052508101906108179190610e03565b9050600360009054906101000a900473ffffffffffffffffffffffffffffffffffffffff1673ffffffffffffffffffffffffffffffffffffffff1663d4a4bdee6002848154811061086b5761086a610d9c565b5b906000526020600020906007020160000160009054906101000a900473ffffffffffffffffffffffffffffffffffffffff16600285815481106108b1576108b0610d9c565b5b906000526020600020906007020160010154600286815481106108d7576108d6610d9c565b5b906000526020600020906007020160020154600287815481106108fd576108fc610d9c565b5b9060005260206000209060070201600301546002888154811061092357610922610d9c565b5b906000526020600020906007020160040154876040518763ffffffff1660e01b815260040161095796959493929190610e30565b600060405180830381600087803b15801561097157600080fd5b505af1158015610985573d6000803e3d6000fd5b5050505050808061099590610ec0565b915050610720565b506001905090565b600080fd5b60008115159050919050565b6109bf816109aa565b81146109ca57600080fd5b50565b6000813590506109dc816109b6565b92915050565b6000602082840312156109f8576109f76109a5565b5b6000610a06848285016109cd565b91505092915050565b600081519050919050565b600082825260208201905092915050565b60005b83811015610a49578082015181840152602081019050610a2e565b83811115610a58576000848401525b50505050565b6000601f19601f8301169050919050565b6000610a7a82610a0f565b610a848185610a1a565b9350610a94818560208601610a2b565b610a9d81610a5e565b840191505092915050565b60006020820190508181036000830152610ac28184610a6f565b905092915050565b600073ffffffffffffffffffffffffffffffffffffffff82169050919050565b6000610af582610aca565b9050919050565b610b0581610aea565b8114610b1057600080fd5b50565b600081359050610b2281610afc565b92915050565b6000819050919050565b610b3b81610b28565b8114610b4657600080fd5b50565b600081359050610b5881610b32565b92915050565b600080600080600080600060e0888a031215610b7d57610b7c6109a5565b5b6000610b8b8a828b01610b13565b9750506020610b9c8a828b01610b49565b9650506040610bad8a828b01610b49565b9550506060610bbe8a828b01610b49565b9450506080610bcf8a828b01610b49565b93505060a0610be08a828b01610b49565b92505060c0610bf18a828b01610b49565b91505092959891949750929550565b610c09816109aa565b82525050565b6000602082019050610c246000830184610c00565b92915050565b600081519050610c3981610b32565b92915050565b600081519050610c4e81610afc565b92915050565b600080600060608486031215610c6d57610c6c6109a5565b5b6000610c7b86828701610c2a565b9350506020610c8c86828701610c2a565b9250506040610c9d86828701610c3f565b9150509250925092565b610cb081610aea565b82525050565b6000604082019050610ccb6000830185610ca7565b610cd86020830184610ca7565b9392505050565b6000602082019050610cf46000830184610ca7565b92915050565b7f4e487b7100000000000000000000000000000000000000000000000000000000600052602260045260246000fd5b60006002820490506001821680610d4157607f821691505b602082108103610d5457610d53610cfa565b5b50919050565b600081519050610d69816109b6565b92915050565b600060208284031215610d8557610d846109a5565b5b6000610d9384828501610d5a565b91505092915050565b7f4e487b7100000000000000000000000000000000000000000000000000000000600052603260045260246000fd5b610dd481610b28565b82525050565b6000604082019050610def6000830185610dcb565b610dfc6020830184610dcb565b9392505050565b600060208284031215610e1957610e186109a5565b5b6000610e2784828501610c2a565b91505092915050565b600060c082019050610e456000830189610ca7565b610e526020830188610dcb565b610e5f6040830187610dcb565b610e6c6060830186610dcb565b610e796080830185610dcb565b610e8660a0830184610dcb565b979650505050505050565b7f4e487b7100000000000000000000000000000000000000000000000000000000600052601160045260246000fd5b6000610ecb82610b28565b91507fffffffffffffffffffffffffffffffffffffffffffffffffffffffffffffffff8203610efd57610efc610e91565b5b60018201905091905056fea2646970667358221220d45cd615cf0193836e6973b0d27efbe4a552d3fb224ba9474c502c33c59684f364736f6c634300080d0033",
  "linkReferences": {},
  "deployedLinkReferences": {}
}