{
  "_format": "hh-sol-artifact-1",
  "contractName": "ToggleFlashGovernanceProposal",
  "sourceName": "contracts/DAO/Proposals/ToggleFlashGovernanceProposal.sol",
  "abi": [
    {
      "inputs": [
        {
          "internalType": "address",
          "name": "dao",
          "type": "address"
        },
        {
          "internalType": "string",
          "name": "_description",
          "type": "string"
        }
      ],
      "stateMutability": "nonpayable",
      "type": "constructor"
    },
    {
      "inputs": [],
      "name": "ExecutionFailed",
      "type": "error"
    },
    {
      "inputs": [
        {
          "internalType": "address",
          "name": "dao",
          "type": "address"
        },
        {
          "internalType": "address",
          "name": "factory",
          "type": "address"
        }
      ],
      "name": "OnlyFactoryOrDAO",
      "type": "error"
    },
    {
      "inputs": [
        {
          "internalType": "address",
          "name": "proposal",
          "type": "address"
        }
      ],
      "name": "ProposalLocked",
      "type": "error"
    },
    {
      "inputs": [],
      "name": "description",
      "outputs": [
        {
          "internalType": "string",
          "name": "",
          "type": "string"
        }
      ],
      "stateMutability": "view",
      "type": "function"
    },
    {
      "inputs": [],
      "name": "locked",
      "outputs": [
        {
          "internalType": "bool",
          "name": "",
          "type": "bool"
        }
      ],
      "stateMutability": "view",
      "type": "function"
    },
    {
      "inputs": [],
      "name": "orchestrateExecute",
      "outputs": [],
      "stateMutability": "nonpayable",
      "type": "function"
    },
    {
      "inputs": [
        {
          "internalType": "address[]",
          "name": "governed",
          "type": "address[]"
        },
        {
          "internalType": "bool[]",
          "name": "areGoverned",
          "type": "bool[]"
        }
      ],
      "name": "parameterize",
      "outputs": [],
      "stateMutability": "nonpayable",
      "type": "function"
    },
    {
      "inputs": [
        {
          "internalType": "bool",
          "name": "_locked",
          "type": "bool"
        }
      ],
      "name": "setLocked",
      "outputs": [],
      "stateMutability": "nonpayable",
      "type": "function"
    }
  ],
  "bytecode": "0x60a06040523480156200001157600080fd5b5060405162001f4638038062001f46833981810160405281019062000037919062000342565b81818173ffffffffffffffffffffffffffffffffffffffff1660808173ffffffffffffffffffffffffffffffffffffffff168152505080600090805190602001906200008592919062000090565b50505050506200040c565b8280546200009e90620003d7565b90600052602060002090601f016020900481019282620000c257600085556200010e565b82601f10620000dd57805160ff19168380011785556200010e565b828001600101855582156200010e579182015b828111156200010d578251825591602001919060010190620000f0565b5b5090506200011d919062000121565b5090565b5b808211156200013c57600081600090555060010162000122565b5090565b6000604051905090565b600080fd5b600080fd5b600073ffffffffffffffffffffffffffffffffffffffff82169050919050565b6000620001818262000154565b9050919050565b620001938162000174565b81146200019f57600080fd5b50565b600081519050620001b38162000188565b92915050565b600080fd5b600080fd5b6000601f19601f8301169050919050565b7f4e487b7100000000000000000000000000000000000000000000000000000000600052604160045260246000fd5b6200020e82620001c3565b810181811067ffffffffffffffff8211171562000230576200022f620001d4565b5b80604052505050565b60006200024562000140565b905062000253828262000203565b919050565b600067ffffffffffffffff821115620002765762000275620001d4565b5b6200028182620001c3565b9050602081019050919050565b60005b83811015620002ae57808201518184015260208101905062000291565b83811115620002be576000848401525b50505050565b6000620002db620002d58462000258565b62000239565b905082815260208101848484011115620002fa57620002f9620001be565b5b620003078482856200028e565b509392505050565b600082601f830112620003275762000326620001b9565b5b815162000339848260208601620002c4565b91505092915050565b600080604083850312156200035c576200035b6200014a565b5b60006200036c85828601620001a2565b925050602083015167ffffffffffffffff81111562000390576200038f6200014f565b5b6200039e858286016200030f565b9150509250929050565b7f4e487b7100000000000000000000000000000000000000000000000000000000600052602260045260246000fd5b60006002820490506001821680620003f057607f821691505b602082108103620004065762000405620003a8565b5b50919050565b608051611b03620004436000396000818160de01528181610103015281816102630152818161028801526105480152611b036000f3fe608060405234801561001057600080fd5b50600436106100575760003560e01c8063211e28b61461005c5780633e7f6c64146100785780637284e41614610082578063cf309012146100a0578063dcbc539c146100be575b600080fd5b610076600480360381019061007191906107f7565b6100da565b005b61008061025f565b005b61008a610407565b60405161009791906108bd565b60405180910390f35b6100a8610495565b6040516100b591906108ee565b60405180910390f35b6100d860048036038101906100d391906109c4565b6104a8565b005b60007f0000000000000000000000000000000000000000000000000000000000000000905060007f000000000000000000000000000000000000000000000000000000000000000073ffffffffffffffffffffffffffffffffffffffff166301e179dc6040518163ffffffff1660e01b8152600401606060405180830381865afa15801561016c573d6000803e3d6000fd5b505050506040513d601f19601f820116820180604052508101906101909190610ad9565b925050508173ffffffffffffffffffffffffffffffffffffffff163373ffffffffffffffffffffffffffffffffffffffff16141580156101fc57508073ffffffffffffffffffffffffffffffffffffffff163373ffffffffffffffffffffffffffffffffffffffff1614155b156102405781816040517ff8b7c0c3000000000000000000000000000000000000000000000000000000008152600401610237929190610b3b565b60405180910390fd5b82600160006101000a81548160ff021916908315150217905550505050565b60007f0000000000000000000000000000000000000000000000000000000000000000905060007f000000000000000000000000000000000000000000000000000000000000000073ffffffffffffffffffffffffffffffffffffffff166301e179dc6040518163ffffffff1660e01b8152600401606060405180830381865afa1580156102f1573d6000803e3d6000fd5b505050506040513d601f19601f820116820180604052508101906103159190610ad9565b925050508173ffffffffffffffffffffffffffffffffffffffff163373ffffffffffffffffffffffffffffffffffffffff161415801561038157508073ffffffffffffffffffffffffffffffffffffffff163373ffffffffffffffffffffffffffffffffffffffff1614155b156103c55781816040517ff8b7c0c30000000000000000000000000000000000000000000000000000000081526004016103bc929190610b3b565b60405180910390fd5b6103cd610544565b610403576040517facfdb44400000000000000000000000000000000000000000000000000000000815260040160405180910390fd5b5050565b6000805461041490610b93565b80601f016020809104026020016040519081016040528092919081815260200182805461044090610b93565b801561048d5780601f106104625761010080835404028352916020019161048d565b820191906000526020600020905b81548152906001019060200180831161047057829003601f168201915b505050505081565b600160009054906101000a900460ff1681565b600160009054906101000a900460ff16156104fa57306040517fefaa447e0000000000000000000000000000000000000000000000000000000081526004016104f19190610bc4565b60405180910390fd5b81816002600101919061050e929190610650565b508383600260000191906105239291906106f8565b5060018060006101000a81548160ff02191690831515021790555050505050565b60007f000000000000000000000000000000000000000000000000000000000000000073ffffffffffffffffffffffffffffffffffffffff16632317beae6040518163ffffffff1660e01b8152600401602060405180830381865afa1580156105b1573d6000803e3d6000fd5b505050506040513d601f19601f820116820180604052508101906105d59190610bdf565b73ffffffffffffffffffffffffffffffffffffffff16638de51e8c600260000160026001016040518363ffffffff1660e01b8152600401610617929190611a96565b600060405180830381600087803b15801561063157600080fd5b505af1158015610645573d6000803e3d6000fd5b505050506001905090565b82805482825590600052602060002090601f016020900481019282156106e75791602002820160005b838211156106b8578335151583826101000a81548160ff0219169083151502179055509260200192600101602081600001049283019260010302610679565b80156106e55782816101000a81549060ff02191690556001016020816000010492830192600103026106b8565b505b5090506106f49190610798565b5090565b828054828255906000526020600020908101928215610787579160200282015b8281111561078657823573ffffffffffffffffffffffffffffffffffffffff168260006101000a81548173ffffffffffffffffffffffffffffffffffffffff021916908373ffffffffffffffffffffffffffffffffffffffff16021790555091602001919060010190610718565b5b5090506107949190610798565b5090565b5b808211156107b1576000816000905550600101610799565b5090565b600080fd5b600080fd5b60008115159050919050565b6107d4816107bf565b81146107df57600080fd5b50565b6000813590506107f1816107cb565b92915050565b60006020828403121561080d5761080c6107b5565b5b600061081b848285016107e2565b91505092915050565b600081519050919050565b600082825260208201905092915050565b60005b8381101561085e578082015181840152602081019050610843565b8381111561086d576000848401525b50505050565b6000601f19601f8301169050919050565b600061088f82610824565b610899818561082f565b93506108a9818560208601610840565b6108b281610873565b840191505092915050565b600060208201905081810360008301526108d78184610884565b905092915050565b6108e8816107bf565b82525050565b600060208201905061090360008301846108df565b92915050565b600080fd5b600080fd5b600080fd5b60008083601f84011261092e5761092d610909565b5b8235905067ffffffffffffffff81111561094b5761094a61090e565b5b60208301915083602082028301111561096757610966610913565b5b9250929050565b60008083601f84011261098457610983610909565b5b8235905067ffffffffffffffff8111156109a1576109a061090e565b5b6020830191508360208202830111156109bd576109bc610913565b5b9250929050565b600080600080604085870312156109de576109dd6107b5565b5b600085013567ffffffffffffffff8111156109fc576109fb6107ba565b5b610a0887828801610918565b9450945050602085013567ffffffffffffffff811115610a2b57610a2a6107ba565b5b610a378782880161096e565b925092505092959194509250565b6000819050919050565b610a5881610a45565b8114610a6357600080fd5b50565b600081519050610a7581610a4f565b92915050565b600073ffffffffffffffffffffffffffffffffffffffff82169050919050565b6000610aa682610a7b565b9050919050565b610ab681610a9b565b8114610ac157600080fd5b50565b600081519050610ad381610aad565b92915050565b600080600060608486031215610af257610af16107b5565b5b6000610b0086828701610a66565b9350506020610b1186828701610a66565b9250506040610b2286828701610ac4565b9150509250925092565b610b3581610a9b565b82525050565b6000604082019050610b506000830185610b2c565b610b5d6020830184610b2c565b9392505050565b7f4e487b7100000000000000000000000000000000000000000000000000000000600052602260045260246000fd5b60006002820490506001821680610bab57607f821691505b602082108103610bbe57610bbd610b64565b5b50919050565b6000602082019050610bd96000830184610b2c565b92915050565b600060208284031215610bf557610bf46107b5565b5b6000610c0384828501610ac4565b91505092915050565b600081549050919050565b600082825260208201905092915050565b60008190508160005260206000209050919050565b610c4681610a9b565b82525050565b6000610c588383610c3d565b60208301905092915050565b60008160001c9050919050565b600073ffffffffffffffffffffffffffffffffffffffff82169050919050565b6000610ca4610c9f83610c64565b610c71565b9050919050565b6000610cb78254610c91565b9050919050565b6000600182019050919050565b6000610cd682610c0c565b610ce08185610c17565b9350610ceb83610c28565b8060005b83811015610d2357610d0082610cab565b610d0a8882610c4c565b9750610d1583610cbe565b925050600181019050610cef565b5085935050505092915050565b600081549050919050565b600082825260208201905092915050565b60008190508160005260206000209050919050565b610d6a816107bf565b82525050565b600060ff82169050919050565b6000610d90610d8b83610c64565b610d70565b9050919050565b60008160081c9050919050565b6000610db7610db283610d97565b610d70565b9050919050565b60008160101c9050919050565b6000610dde610dd983610dbe565b610d70565b9050919050565b60008160181c9050919050565b6000610e05610e0083610de5565b610d70565b9050919050565b60008160201c9050919050565b6000610e2c610e2783610e0c565b610d70565b9050919050565b60008160281c9050919050565b6000610e53610e4e83610e33565b610d70565b9050919050565b60008160301c9050919050565b6000610e7a610e7583610e5a565b610d70565b9050919050565b60008160381c9050919050565b6000610ea1610e9c83610e81565b610d70565b9050919050565b60008160401c9050919050565b6000610ec8610ec383610ea8565b610d70565b9050919050565b60008160481c9050919050565b6000610eef610eea83610ecf565b610d70565b9050919050565b60008160501c9050919050565b6000610f16610f1183610ef6565b610d70565b9050919050565b60008160581c9050919050565b6000610f3d610f3883610f1d565b610d70565b9050919050565b60008160601c9050919050565b6000610f64610f5f83610f44565b610d70565b9050919050565b60008160681c9050919050565b6000610f8b610f8683610f6b565b610d70565b9050919050565b60008160701c9050919050565b6000610fb2610fad83610f92565b610d70565b9050919050565b60008160781c9050919050565b6000610fd9610fd483610fb9565b610d70565b9050919050565b60008160801c9050919050565b6000611000610ffb83610fe0565b610d70565b9050919050565b60008160881c9050919050565b600061102761102283611007565b610d70565b9050919050565b60008160901c9050919050565b600061104e6110498361102e565b610d70565b9050919050565b60008160981c9050919050565b600061107561107083611055565b610d70565b9050919050565b60008160a01c9050919050565b600061109c6110978361107c565b610d70565b9050919050565b60008160a81c9050919050565b60006110c36110be836110a3565b610d70565b9050919050565b60008160b01c9050919050565b60006110ea6110e5836110ca565b610d70565b9050919050565b60008160b81c9050919050565b600061111161110c836110f1565b610d70565b9050919050565b60008160c01c9050919050565b600061113861113383611118565b610d70565b9050919050565b60008160c81c9050919050565b600061115f61115a8361113f565b610d70565b9050919050565b60008160d01c9050919050565b600061118661118183611166565b610d70565b9050919050565b60008160d81c9050919050565b60006111ad6111a88361118d565b610d70565b9050919050565b60008160e01c9050919050565b60006111d46111cf836111b4565b610d70565b9050919050565b60008160e81c9050919050565b60006111fb6111f6836111db565b610d70565b9050919050565b60008160f01c9050919050565b600061122261121d83611202565b610d70565b9050919050565b60008160f81c9050919050565b600061124961124483611229565b610d70565b9050919050565b600061125b82610d30565b6112658185610d3b565b93508361127184610d4c565b600060011561159e575b8360016020038201101561159d57815461129d8861129883610d7d565b610d61565b6020880197506112b5886112b083610da4565b610d61565b6020880197506112cd886112c883610dcb565b610d61565b6020880197506112e5886112e083610df2565b610d61565b6020880197506112fd886112f883610e19565b610d61565b6020880197506113158861131083610e40565b610d61565b60208801975061132d8861132883610e67565b610d61565b6020880197506113458861134083610e8e565b610d61565b60208801975061135d8861135883610eb5565b610d61565b6020880197506113758861137083610edc565b610d61565b60208801975061138d8861138883610f03565b610d61565b6020880197506113a5886113a083610f2a565b610d61565b6020880197506113bd886113b883610f51565b610d61565b6020880197506113d5886113d083610f78565b610d61565b6020880197506113ed886113e883610f9f565b610d61565b6020880197506114058861140083610fc6565b610d61565b60208801975061141d8861141883610fed565b610d61565b6020880197506114358861143083611014565b610d61565b60208801975061144d886114488361103b565b610d61565b6020880197506114658861146083611062565b610d61565b60208801975061147d8861147883611089565b610d61565b60208801975061149588611490836110b0565b610d61565b6020880197506114ad886114a8836110d7565b610d61565b6020880197506114c5886114c0836110fe565b610d61565b6020880197506114dd886114d883611125565b610d61565b6020880197506114f5886114f08361114c565b610d61565b60208801975061150d8861150883611173565b610d61565b602088019750611525886115208361119a565b610d61565b60208801975061153d88611538836111c1565b610d61565b60208801975061155588611550836111e8565b610d61565b60208801975061156d886115688361120f565b610d61565b6020880197506115858861158083611236565b610d61565b6020880197506001830192505060208101905061127b565b5b600115611a89578154848210156115ce576115c1886115bc83610d7d565b610d61565b6020880197506001820191505b848210156115f5576115e8886115e383610da4565b610d61565b6020880197506001820191505b8482101561161c5761160f8861160a83610dcb565b610d61565b6020880197506001820191505b84821015611643576116368861163183610df2565b610d61565b6020880197506001820191505b8482101561166a5761165d8861165883610e19565b610d61565b6020880197506001820191505b84821015611691576116848861167f83610e40565b610d61565b6020880197506001820191505b848210156116b8576116ab886116a683610e67565b610d61565b6020880197506001820191505b848210156116df576116d2886116cd83610e8e565b610d61565b6020880197506001820191505b84821015611706576116f9886116f483610eb5565b610d61565b6020880197506001820191505b8482101561172d576117208861171b83610edc565b610d61565b6020880197506001820191505b84821015611754576117478861174283610f03565b610d61565b6020880197506001820191505b8482101561177b5761176e8861176983610f2a565b610d61565b6020880197506001820191505b848210156117a2576117958861179083610f51565b610d61565b6020880197506001820191505b848210156117c9576117bc886117b783610f78565b610d61565b6020880197506001820191505b848210156117f0576117e3886117de83610f9f565b610d61565b6020880197506001820191505b848210156118175761180a8861180583610fc6565b610d61565b6020880197506001820191505b8482101561183e576118318861182c83610fed565b610d61565b6020880197506001820191505b84821015611865576118588861185383611014565b610d61565b6020880197506001820191505b8482101561188c5761187f8861187a8361103b565b610d61565b6020880197506001820191505b848210156118b3576118a6886118a183611062565b610d61565b6020880197506001820191505b848210156118da576118cd886118c883611089565b610d61565b6020880197506001820191505b84821015611901576118f4886118ef836110b0565b610d61565b6020880197506001820191505b848210156119285761191b88611916836110d7565b610d61565b6020880197506001820191505b8482101561194f576119428861193d836110fe565b610d61565b6020880197506001820191505b84821015611976576119698861196483611125565b610d61565b6020880197506001820191505b8482101561199d576119908861198b8361114c565b610d61565b6020880197506001820191505b848210156119c4576119b7886119b283611173565b610d61565b6020880197506001820191505b848210156119eb576119de886119d98361119a565b610d61565b6020880197506001820191505b84821015611a1257611a0588611a00836111c1565b610d61565b6020880197506001820191505b84821015611a3957611a2c88611a27836111e8565b610d61565b6020880197506001820191505b84821015611a6057611a5388611a4e8361120f565b610d61565b6020880197506001820191505b84821015611a8757611a7a88611a7583611236565b610d61565b6020880197506001820191505b505b8694505050505092915050565b60006040820190508181036000830152611ab08185610ccb565b90508181036020830152611ac48184611250565b9050939250505056fea2646970667358221220ffe132aefad0fc6a00a5b1ea44d31e8d4f72717edd837291adc2047490efb17564736f6c634300080d0033",
  "linkReferences": {},
  "deployedLinkReferences": {}
}