{
    "contractName": "LimboDAO",
    "abi": [
        {
            "anonymous": false,
            "inputs": [
                {
                    "indexed": true,
                    "internalType": "address",
                    "name": "previousOwner",
                    "type": "address"
                },
                {
                    "indexed": true,
                    "internalType": "address",
                    "name": "newOwner",
                    "type": "address"
                }
            ],
            "name": "OwnershipTransferred",
            "type": "event"
        },
        {
            "anonymous": false,
            "inputs": [
                {
                    "indexed": false,
                    "internalType": "address",
                    "name": "asset",
                    "type": "address"
                },
                {
                    "indexed": false,
                    "internalType": "bool",
                    "name": "appoved",
                    "type": "bool"
                }
            ],
            "name": "assetApproval",
            "type": "event"
        },
        {
            "anonymous": false,
            "inputs": [
                {
                    "indexed": false,
                    "internalType": "address",
                    "name": "burner",
                    "type": "address"
                },
                {
                    "indexed": false,
                    "internalType": "address",
                    "name": "asset",
                    "type": "address"
                },
                {
                    "indexed": false,
                    "internalType": "uint256",
                    "name": "fateCreated",
                    "type": "uint256"
                }
            ],
            "name": "assetBurnt",
            "type": "event"
        },
        {
            "anonymous": false,
            "inputs": [
                {
                    "indexed": false,
                    "internalType": "address",
                    "name": "newOwner",
                    "type": "address"
                }
            ],
            "name": "daoKilled",
            "type": "event"
        },
        {
            "anonymous": false,
            "inputs": [
                {
                    "indexed": false,
                    "internalType": "address",
                    "name": "proposal",
                    "type": "address"
                },
                {
                    "indexed": false,
                    "internalType": "bool",
                    "name": "approved",
                    "type": "bool"
                }
            ],
            "name": "proposalExecuted",
            "type": "event"
        },
        {
            "anonymous": false,
            "inputs": [
                {
                    "indexed": false,
                    "internalType": "address",
                    "name": "proposal",
                    "type": "address"
                },
                {
                    "indexed": false,
                    "internalType": "address",
                    "name": "proposer",
                    "type": "address"
                }
            ],
            "name": "proposalLodged",
            "type": "event"
        },
        {
            "anonymous": false,
            "inputs": [
                {
                    "indexed": false,
                    "internalType": "address",
                    "name": "voter",
                    "type": "address"
                },
                {
                    "indexed": false,
                    "internalType": "address",
                    "name": "proposal",
                    "type": "address"
                },
                {
                    "indexed": false,
                    "internalType": "int256",
                    "name": "fateCast",
                    "type": "int256"
                }
            ],
            "name": "voteCast",
            "type": "event"
        },
        {
            "inputs": [
                {
                    "internalType": "address",
                    "name": "minter",
                    "type": "address"
                },
                {
                    "internalType": "bool",
                    "name": "enabled",
                    "type": "bool"
                }
            ],
            "name": "approveFlanMintingPower",
            "outputs": [],
            "stateMutability": "nonpayable",
            "type": "function"
        },
        {
            "inputs": [
                {
                    "internalType": "address",
                    "name": "",
                    "type": "address"
                }
            ],
            "name": "assetApproved",
            "outputs": [
                {
                    "internalType": "bool",
                    "name": "",
                    "type": "bool"
                }
            ],
            "stateMutability": "view",
            "type": "function"
        },
        {
            "inputs": [
                {
                    "internalType": "address",
                    "name": "asset",
                    "type": "address"
                },
                {
                    "internalType": "uint256",
                    "name": "amount",
                    "type": "uint256"
                }
            ],
            "name": "burnAsset",
            "outputs": [],
            "stateMutability": "nonpayable",
            "type": "function"
        },
        {
            "inputs": [
                {
                    "internalType": "uint256",
                    "name": "fate",
                    "type": "uint256"
                }
            ],
            "name": "convertFateToFlan",
            "outputs": [
                {
                    "internalType": "uint256",
                    "name": "flan",
                    "type": "uint256"
                }
            ],
            "stateMutability": "nonpayable",
            "type": "function"
        },
        {
            "inputs": [],
            "name": "currentProposalState",
            "outputs": [
                {
                    "internalType": "int256",
                    "name": "fate",
                    "type": "int256"
                },
                {
                    "internalType": "enum ProposalDecision",
                    "name": "decision",
                    "type": "uint8"
                },
                {
                    "internalType": "address",
                    "name": "proposer",
                    "type": "address"
                },
                {
                    "internalType": "uint256",
                    "name": "start",
                    "type": "uint256"
                },
                {
                    "internalType": "contract Proposal",
                    "name": "proposal",
                    "type": "address"
                }
            ],
            "stateMutability": "view",
            "type": "function"
        },
        {
            "inputs": [],
            "name": "domainConfig",
            "outputs": [
                {
                    "internalType": "address",
                    "name": "limbo",
                    "type": "address"
                },
                {
                    "internalType": "address",
                    "name": "flan",
                    "type": "address"
                },
                {
                    "internalType": "address",
                    "name": "eye",
                    "type": "address"
                },
                {
                    "internalType": "address",
                    "name": "fate",
                    "type": "address"
                },
                {
                    "internalType": "bool",
                    "name": "live",
                    "type": "bool"
                },
                {
                    "internalType": "address",
                    "name": "flashGoverner",
                    "type": "address"
                },
                {
                    "internalType": "address",
                    "name": "sushiFactory",
                    "type": "address"
                },
                {
                    "internalType": "address",
                    "name": "uniFactory",
                    "type": "address"
                }
            ],
            "stateMutability": "view",
            "type": "function"
        },
        {
            "inputs": [],
            "name": "executeCurrentProposal",
            "outputs": [],
            "stateMutability": "nonpayable",
            "type": "function"
        },
        {
            "inputs": [
                {
                    "internalType": "address",
                    "name": "",
                    "type": "address"
                }
            ],
            "name": "fateGrowthStrategy",
            "outputs": [
                {
                    "internalType": "enum FateGrowthStrategy",
                    "name": "",
                    "type": "uint8"
                }
            ],
            "stateMutability": "view",
            "type": "function"
        },
        {
            "inputs": [
                {
                    "internalType": "address",
                    "name": "",
                    "type": "address"
                }
            ],
            "name": "fateState",
            "outputs": [
                {
                    "internalType": "uint256",
                    "name": "fatePerDay",
                    "type": "uint256"
                },
                {
                    "internalType": "uint256",
                    "name": "fateBalance",
                    "type": "uint256"
                },
                {
                    "internalType": "uint256",
                    "name": "lastDamnAdjustment",
                    "type": "uint256"
                }
            ],
            "stateMutability": "view",
            "type": "function"
        },
        {
            "inputs": [],
            "name": "fateToFlan",
            "outputs": [
                {
                    "internalType": "uint256",
                    "name": "",
                    "type": "uint256"
                }
            ],
            "stateMutability": "view",
            "type": "function"
        },
        {
            "inputs": [],
            "name": "getFlashGoverner",
            "outputs": [
                {
                    "internalType": "address",
                    "name": "",
                    "type": "address"
                }
            ],
            "stateMutability": "view",
            "type": "function"
        },
        {
            "inputs": [
                {
                    "internalType": "address",
                    "name": "user",
                    "type": "address"
                }
            ],
            "name": "incrementFateFor",
            "outputs": [],
            "stateMutability": "nonpayable",
            "type": "function"
        },
        {
            "inputs": [
                {
                    "internalType": "address",
                    "name": "newOwner",
                    "type": "address"
                }
            ],
            "name": "killDAO",
            "outputs": [],
            "stateMutability": "nonpayable",
            "type": "function"
        },
        {
            "inputs": [],
            "name": "makeLive",
            "outputs": [],
            "stateMutability": "nonpayable",
            "type": "function"
        },
        {
            "inputs": [
                {
                    "internalType": "address",
                    "name": "proposal",
                    "type": "address"
                },
                {
                    "internalType": "address",
                    "name": "proposer",
                    "type": "address"
                }
            ],
            "name": "makeProposal",
            "outputs": [],
            "stateMutability": "nonpayable",
            "type": "function"
        },
        {
            "inputs": [],
            "name": "owner",
            "outputs": [
                {
                    "internalType": "address",
                    "name": "",
                    "type": "address"
                }
            ],
            "stateMutability": "view",
            "type": "function"
        },
        {
            "inputs": [],
            "name": "previousProposalState",
            "outputs": [
                {
                    "internalType": "int256",
                    "name": "fate",
                    "type": "int256"
                },
                {
                    "internalType": "enum ProposalDecision",
                    "name": "decision",
                    "type": "uint8"
                },
                {
                    "internalType": "address",
                    "name": "proposer",
                    "type": "address"
                },
                {
                    "internalType": "uint256",
                    "name": "start",
                    "type": "uint256"
                },
                {
                    "internalType": "contract Proposal",
                    "name": "proposal",
                    "type": "address"
                }
            ],
            "stateMutability": "view",
            "type": "function"
        },
        {
            "inputs": [],
            "name": "proposalConfig",
            "outputs": [
                {
                    "internalType": "uint256",
                    "name": "votingDuration",
                    "type": "uint256"
                },
                {
                    "internalType": "uint256",
                    "name": "requiredFateStake",
                    "type": "uint256"
                },
                {
                    "internalType": "address",
                    "name": "proposalFactory",
                    "type": "address"
                }
            ],
            "stateMutability": "view",
            "type": "function"
        },
        {
            "inputs": [],
            "name": "renounceOwnership",
            "outputs": [],
            "stateMutability": "nonpayable",
            "type": "function"
        },
        {
            "inputs": [
                {
                    "internalType": "address",
                    "name": "limbo",
                    "type": "address"
                },
                {
                    "internalType": "address",
                    "name": "flan",
                    "type": "address"
                },
                {
                    "internalType": "address",
                    "name": "eye",
                    "type": "address"
                },
                {
                    "internalType": "address",
                    "name": "proposalFactory",
                    "type": "address"
                },
                {
                    "internalType": "address",
                    "name": "sushiFactory",
                    "type": "address"
                },
                {
                    "internalType": "address",
                    "name": "uniFactory",
                    "type": "address"
                },
                {
                    "internalType": "address",
                    "name": "flashGoverner",
                    "type": "address"
                },
                {
                    "internalType": "uint256",
                    "name": "precisionOrderOfMagnitude",
                    "type": "uint256"
                },
                {
                    "internalType": "address[]",
                    "name": "sushiLPs",
                    "type": "address[]"
                },
                {
                    "internalType": "address[]",
                    "name": "uniLPs",
                    "type": "address[]"
                }
            ],
            "name": "seed",
            "outputs": [],
            "stateMutability": "nonpayable",
            "type": "function"
        },
        {
            "inputs": [
                {
                    "internalType": "address",
                    "name": "asset",
                    "type": "address"
                },
                {
                    "internalType": "bool",
                    "name": "approved",
                    "type": "bool"
                }
            ],
            "name": "setApprovedAsset",
            "outputs": [],
            "stateMutability": "nonpayable",
            "type": "function"
        },
        {
            "inputs": [
                {
                    "internalType": "uint256",
                    "name": "finalAssetBalance",
                    "type": "uint256"
                },
                {
                    "internalType": "uint256",
                    "name": "finalEYEBalance",
                    "type": "uint256"
                },
                {
                    "internalType": "uint256",
                    "name": "rootEYE",
                    "type": "uint256"
                },
                {
                    "internalType": "address",
                    "name": "asset",
                    "type": "address"
                }
            ],
            "name": "setEYEBasedAssetStake",
            "outputs": [],
            "stateMutability": "nonpayable",
            "type": "function"
        },
        {
            "inputs": [
                {
                    "internalType": "uint256",
                    "name": "rate",
                    "type": "uint256"
                }
            ],
            "name": "setFateToFlan",
            "outputs": [],
            "stateMutability": "nonpayable",
            "type": "function"
        },
        {
            "inputs": [
                {
                    "internalType": "uint256",
                    "name": "votingDuration",
                    "type": "uint256"
                },
                {
                    "internalType": "uint256",
                    "name": "requiredFateStake",
                    "type": "uint256"
                },
                {
                    "internalType": "address",
                    "name": "proposalFactory",
                    "type": "address"
                }
            ],
            "name": "setProposalConfig",
            "outputs": [],
            "stateMutability": "nonpayable",
            "type": "function"
        },
        {
            "inputs": [
                {
                    "internalType": "address",
                    "name": "",
                    "type": "address"
                },
                {
                    "internalType": "address",
                    "name": "",
                    "type": "address"
                }
            ],
            "name": "stakedUserAssetWeight",
            "outputs": [
                {
                    "internalType": "uint256",
                    "name": "fateWeight",
                    "type": "uint256"
                },
                {
                    "internalType": "uint256",
                    "name": "balance",
                    "type": "uint256"
                }
            ],
            "stateMutability": "view",
            "type": "function"
        },
        {
            "inputs": [
                {
                    "internalType": "address",
                    "name": "proposal",
                    "type": "address"
                }
            ],
            "name": "successfulProposal",
            "outputs": [
                {
                    "internalType": "bool",
                    "name": "",
                    "type": "bool"
                }
            ],
            "stateMutability": "view",
            "type": "function"
        },
        {
            "inputs": [],
            "name": "timeRemainingOnProposal",
            "outputs": [
                {
                    "internalType": "uint256",
                    "name": "",
                    "type": "uint256"
                }
            ],
            "stateMutability": "view",
            "type": "function"
        },
        {
            "inputs": [
                {
                    "internalType": "address",
                    "name": "newOwner",
                    "type": "address"
                }
            ],
            "name": "transferOwnership",
            "outputs": [],
            "stateMutability": "nonpayable",
            "type": "function"
        },
        {
            "inputs": [
                {
                    "internalType": "address",
                    "name": "thing",
                    "type": "address"
                },
                {
                    "internalType": "address",
                    "name": "destination",
                    "type": "address"
                }
            ],
            "name": "transferOwnershipOfThing",
            "outputs": [],
            "stateMutability": "nonpayable",
            "type": "function"
        },
        {
            "inputs": [
                {
                    "internalType": "address",
                    "name": "proposal",
                    "type": "address"
                },
                {
                    "internalType": "int256",
                    "name": "fate",
                    "type": "int256"
                }
            ],
            "name": "vote",
            "outputs": [],
            "stateMutability": "nonpayable",
            "type": "function"
        }
    ],
    "bytecode": "6080604052633b9aca0060015534801561001857600080fd5b5061002233610027565b610077565b600080546001600160a01b038381166001600160a01b0319831681178455604051919092169283917f8be0079c531659141344cd1fd0a4f28419497f9722a3daafe3b4186f6b6457e09190a35050565b612eca80620000876000396000f3fe608060405234801561001057600080fd5b50600436106101da5760003560e01c806390e7760e11610104578063bc7e7d51116100a2578063f2fde38b11610071578063f2fde38b14610540578063f4b9a23814610553578063f63b057714610566578063f68884001461059257600080fd5b8063bc7e7d511461046e578063e397f31a14610481578063e8d9735f14610494578063e90668721461052d57600080fd5b8063ace522c3116100de578063ace522c314610429578063b0dfaa7a14610440578063b143893b14610453578063b7ebc23b1461045b57600080fd5b806390e7760e146103db57806394e7bfa0146103e3578063abbe718a1461041657600080fd5b80632ed4c8721161017c57806364c5ce861161014b57806364c5ce86146103725780636e49c8b2146103af578063715018a6146103c25780638da5cb5b146103ca57600080fd5b80632ed4c872146102d257806338c5afd5146102e557806339a8e3c2146102f85780635e068d701461034257600080fd5b80630e67e45c116101b85780630e67e45c146102745780631fdca146146102875780632317beae1461029a5780632b57bb80146102bf57600080fd5b806301e179dc146101df57806302495fd0146102235780630d56575d1461026a575b600080fd5b600954600a54600b546101fa9291906001600160a01b031683565b6040805193845260208401929092526001600160a01b0316908201526060015b60405180910390f35b61025561023136600461286d565b600f6020908152600092835260408084209091529082529020805460019091015482565b6040805192835260208301919091520161021a565b6102726105a5565b005b610272610282366004612a62565b610754565b610272610295366004612986565b610d20565b6006546001600160a01b03165b6040516001600160a01b03909116815260200161021a565b6102726102cd366004612a2a565b610df3565b6102726102e036600461282e565b610e42565b6102726102f33660046129fa565b610fa0565b61032761030636600461282e565b600e6020526000908152604090208054600182015460029092015490919083565b6040805193845260208401929092529082015260600161021a565b61036561035036600461282e565b600c6020526000908152604090205460ff1681565b60405161021a9190612aa2565b60105460115460125460135461039e939260ff8116926101009091046001600160a01b03908116921685565b60405161021a959493929190612ab5565b6102726103bd366004612986565b610fca565b610272611069565b6000546001600160a01b03166102a7565b61027261109d565b6104066103f136600461282e565b600d6020526000908152604090205460ff1681565b604051901515815260200161021a565b61027261042436600461286d565b611254565b61043260185481565b60405190815260200161021a565b61027261044e3660046129b3565b6112a7565b610432611576565b61040661046936600461282e565b611624565b61027261047c36600461286d565b61166d565b61043261048f3660046129fa565b61198f565b6002546003546004546005546006546007546008546104db966001600160a01b039081169681169581169481811694600160a01b90910460ff169390821692908216911688565b604080516001600160a01b03998a16815297891660208901529588169587019590955292861660608601529015156080850152841660a0840152831660c083015290911660e08201526101000161021a565b61027261053b3660046128a5565b611aca565b61027261054e36600461282e565b61213b565b6102726105613660046129b3565b6121d3565b60145460155460165460175461039e939260ff8116926101009091046001600160a01b03908116921685565b6102726105a036600461282e565b612608565b6105ae33612608565b6013546001600160a01b031615610752576012546000906105cf9042612ddb565b60095490915081108015906106085750600060115460ff16600281111561060657634e487b7160e01b600052602160045260246000fd5b145b1561075057601054600012156106c4576011805460ff1916600117905560135460408051630f9fdb1960e21b815290516001600160a01b0390921691633e7f6c649160048082019260009290919082900301818387803b15801561066b57600080fd5b505af115801561067f573d6000803e3d6000fd5b5050600a5460115461010090046001600160a01b03166000908152600e6020526040812060010180549294509250906106b9908490612bd7565b909155506106d29050565b6011805460ff191660021790555b6013547f7745d71a4be808e4c2ce16eabb0c47208c72a57fde3d997ba8847e4bf554276d906001600160a01b0316600160115460ff16600281111561072757634e487b7160e01b600052602160045260246000fd5b604080516001600160a01b039094168452911460208301520160405180910390a161075061266c565b505b565b600554600160a01b900460ff166107865760405162461bcd60e51b815260040161077d90612b5f565b60405180910390fd5b61078f33612608565b6001600160a01b0381166000908152600d602052604090205460ff166107f15760405162461bcd60e51b8152602060048201526017602482015276131a5b589bd11053ce881a5b1b1959d85b08185cdcd95d604a1b604482015260640161077d565b6001600160a01b0381166000908152600c6020526040812054339160ff9091169061081c8580612d7d565b9050600061082b866001612bd7565b610836876001612bd7565b6108409190612d7d565b905086821115801561085157508681115b61089d5760405162461bcd60e51b815260206004820152601e60248201527f4c696d626f44414f3a205374616b652045594520696e76617269616e742e0000604482015260640161077d565b6001600160a01b038085166000818152600f60209081526040808320948a1683529381528382208054938352600e90915292812080549091906108e1908490612ddb565b90915550506001808201549085600281111561090d57634e487b7160e01b600052602160045260246000fd5b14156109b957888a146109625760405162461bcd60e51b815260206004820181905260248201527f4c696d626f44414f3a207374616b696e672065796520696e76617269616e742e604482015260640161077d565b6004546001600160a01b0388811691161461097c57600080fd5b878255600182018a90556001600160a01b0386166000908152600e6020526040812080548a92906109ae908490612bd7565b90915550610c849050565b60028560028111156109db57634e487b7160e01b600052602160045260246000fd5b1415610c22576109ec886002612d7d565b8083556001600160a01b0387166000908152600e602052604081208054909190610a17908490612bd7565b9091555050600480546040516370a0823160e01b81526001600160a01b038a811693820193909352600092909116906370a082319060240160206040518083038186803b158015610a6757600080fd5b505afa158015610a7b573d6000803e3d6000fd5b505050506040513d601f19601f82011682018060405250810190610a9f9190612a12565b905060008111610ae45760405162461bcd60e51b815260206004820152601060248201526f4c696d626f44414f3a204e6f2045594560801b604482015260640161077d565b6000886001600160a01b03166318160ddd6040518163ffffffff1660e01b815260040160206040518083038186803b158015610b1f57600080fd5b505afa158015610b33573d6000803e3d6000fd5b505050506040513d601f19601f82011682018060405250810190610b579190612a12565b9050600081610b6e670de0b6b3a764000085612d7d565b610b789190612bef565b90506000600154670de0b6b3a7640000610b929190612d7d565b610b9c8f84612d7d565b610ba69190612bef565b90506001548d610bb69190612bef565b9c50808d14610c125760405162461bcd60e51b815260206004820152602260248201527f4c696d626f44414f3a207374616b6520696e76617269616e7420636865636b20604482015261191760f11b606482015260840161077d565b50505050600182018a9055610c84565b60405162461bcd60e51b815260206004820152603160248201527f4c696d626f44414f3a2061737365742067726f777468207374726174656779206044820152703737ba1030b1b1b7bab73a32b2103337b960791b606482015260840161077d565b6000610c90828c612d9c565b604051636e2817ed60e11b81526001600160a01b038a81166004830152891660248201523060448201526064810182905290915073__$07760222752b007d3bf4723d2c1c375056$__9063dc502fda9060840160006040518083038186803b158015610cfb57600080fd5b505af4158015610d0f573d6000803e3d6000fd5b505050505050505050505050505050565b610d2933611624565b610d455760405162461bcd60e51b815260040161077d90612af3565b600554600160a01b900460ff16610d6e5760405162461bcd60e51b815260040161077d90612b5f565b6003546001600160a01b031663785a47f88383610d8c576000610d90565b6000195b6040516001600160e01b031960e085901b1681526001600160a01b03909216600483015260248201526044015b600060405180830381600087803b158015610dd757600080fd5b505af1158015610deb573d6000803e3d6000fd5b505050505050565b610dfc33611624565b610e185760405162461bcd60e51b815260040161077d90612af3565b600992909255600a55600b80546001600160a01b0319166001600160a01b03909216919091179055565b6000546001600160a01b03163314610e6c5760405162461bcd60e51b815260040161077d90612b2a565b600554600160a01b900460ff16610e955760405162461bcd60e51b815260040161077d90612b5f565b6005805460ff60a01b191690556003546040516339cea45360e21b81526001600160a01b0383811660048301529091169063e73a914c90602401600060405180830381600087803b158015610ee957600080fd5b505af1158015610efd573d6000803e3d6000fd5b50506002546040516339cea45360e21b81526001600160a01b038581166004830152909116925063e73a914c9150602401600060405180830381600087803b158015610f4857600080fd5b505af1158015610f5c573d6000803e3d6000fd5b50506040516001600160a01b03841681527f027d12de79f28202b419561536dd7fb6cd28918aadc661bb4adcf06d6d8f6f939250602001905060405180910390a150565b610fa933611624565b610fc55760405162461bcd60e51b815260040161077d90612af3565b601855565b610fd333611624565b610fef5760405162461bcd60e51b815260040161077d90612af3565b6001600160a01b0382166000818152600d60209081526040808320805460ff19908116871515908117909255600c84529382902080549094166002179093558051938452908301919091527f2747e4eb130851ff5a5701cde7440cb02654eba2623bee18804ed959289a0d70910160405180910390a15050565b6000546001600160a01b031633146110935760405162461bcd60e51b815260040161077d90612b2a565b6107526000612729565b6000546001600160a01b031633146110c75760405162461bcd60e51b815260040161077d90612b2a565b60025460408051634c7d5e9d60e11b8152905130926001600160a01b0316916398fabd3a916004808301926020929190829003018186803b15801561110b57600080fd5b505afa15801561111f573d6000803e3d6000fd5b505050506040513d601f19601f820116820180604052508101906111439190612851565b6001600160a01b03161480156111db575060035460408051634c7d5e9d60e11b8152905130926001600160a01b0316916398fabd3a916004808301926020929190829003018186803b15801561119857600080fd5b505afa1580156111ac573d6000803e3d6000fd5b505050506040513d601f19601f820116820180604052508101906111d09190612851565b6001600160a01b0316145b61123f5760405162461bcd60e51b815260206004820152602f60248201527f4c696d626f44414f3a207472616e73666572206f776e657273686970206f662060448201526e3634b6b1379030b73210333630b71760891b606482015260840161077d565b6005805460ff60a01b1916600160a01b179055565b61125d33611624565b6112795760405162461bcd60e51b815260040161077d90612af3565b60405163f2fde38b60e01b81526001600160a01b03828116600483015283169063f2fde38b90602401610dbd565b6112b033612608565b600554600160a01b900460ff166112d95760405162461bcd60e51b815260040161077d90612b5f565b6013546001600160a01b0383811691161461135c5760405162461bcd60e51b815260206004820152603960248201527f4c696d626f44414f3a207374617465642070726f706f73616c20646f6573206e60448201527f6f74206d617463682063757272656e742070726f706f73616c00000000000000606482015260840161077d565b600060115460ff16600281111561138357634e487b7160e01b600052602160045260246000fd5b146113dc5760405162461bcd60e51b815260206004820152602360248201527f4c696d626f44414f3a20766f74696e67206f6e2070726f706f73616c20636c6f6044820152621cd95960ea1b606482015260840161077d565b6009546113ec90610e1090612ddb565b6012546113f99042612ddb565b11156114c0576010546009546012546114129042612ddb565b11156114795760405162461bcd60e51b815260206004820152603060248201527f4c696d626f44414f3a20766f74696e6720666f722063757272656e742070726f60448201526f3837b9b0b6103430b99032b73232b21760811b606482015260840161077d565b60006114858284612cfa565b1280156114a6575060008261149a8382612b96565b6114a49190612cfa565b135b156114be576012546114ba90611c20612bd7565b6012555b505b60008082136114d7576114d282612e0d565b6114d9565b815b336000908152600e60205260409020600101549091506114fa908290612ddb565b336000908152600e602052604081206001019190915560108054849290611522908490612b96565b9091555050604080513381526001600160a01b03851660208201529081018390527f7f0a0c719a420e0a26f3bd9036dbbded84aa10be7ab78b8cbd099d971d6a3d2a906060015b60405180910390a1505050565b60008060115460ff16600281111561159e57634e487b7160e01b600052602160045260246000fd5b146115eb5760405162461bcd60e51b815260206004820152601c60248201527f4c696d626f44414f3a2070726f706f73616c2066696e69736865642e00000000604482015260640161077d565b6012546000906115fb9042612ddb565b60095490915081111561161057600091505090565b60095461161e908290612ddb565b91505090565b6000600160115460ff16600281111561164d57634e487b7160e01b600052602160045260246000fd5b14801561166757506013546001600160a01b038381169116145b92915050565b61167633612608565b6013546001600160a01b03161561181a576012546000906116979042612ddb565b60095490915081108015906116d05750600060115460ff1660028111156116ce57634e487b7160e01b600052602160045260246000fd5b145b15611818576010546000121561178c576011805460ff1916600117905560135460408051630f9fdb1960e21b815290516001600160a01b0390921691633e7f6c649160048082019260009290919082900301818387803b15801561173357600080fd5b505af1158015611747573d6000803e3d6000fd5b5050600a5460115461010090046001600160a01b03166000908152600e602052604081206001018054929450925090611781908490612bd7565b9091555061179a9050565b6011805460ff191660021790555b6013547f7745d71a4be808e4c2ce16eabb0c47208c72a57fde3d997ba8847e4bf554276d906001600160a01b0316600160115460ff1660028111156117ef57634e487b7160e01b600052602160045260246000fd5b604080516001600160a01b039094168452911460208301520160405180910390a161181861266c565b505b600b5433906001600160a01b031681146118765760405162461bcd60e51b815260206004820152601f60248201527f4c696d626f44414f3a206f6e6c792050726f706f73616c20466163746f727900604482015260640161077d565b6013546001600160a01b0316156118cf5760405162461bcd60e51b815260206004820152601a60248201527f4c696d626f44414f3a206163746976652070726f706f73616c2e000000000000604482015260640161077d565b600a546118dd906002612d7d565b6001600160a01b0383166000908152600e60205260409020600101546119039190612ddb565b6001600160a01b038381166000818152600e6020908152604080832060010195909555601380546001600160a01b0319169489169485179055601180546010939093556001600160a81b03199092166101008402179091554260125583519283528201527f25f50ff38793d9d44e17734a0756ed6bb8fd3b64971089d65913470f2c33dde19101611569565b600080601854116119f65760405162461bcd60e51b815260206004820152602b60248201527f4c696d626f44414f3a204661746520636f6e76657273696f6e20746f20466c6160448201526a37103234b9b0b13632b21760a91b606482015260840161077d565b336000908152600e602052604081206001018054849290611a18908490612ddb565b9091555050601854670de0b6b3a764000090611a35908490612d7d565b611a3f9190612bef565b6003546040516340c10f1960e01b8152336004820152602481018390529192506001600160a01b0316906340c10f1990604401602060405180830381600087803b158015611a8c57600080fd5b505af1158015611aa0573d6000803e3d6000fd5b505050506040513d601f19601f82011682018060405250810190611ac491906129de565b50919050565b6000546001600160a01b03163314611af45760405162461bcd60e51b815260040161077d90612b2a565b600280546001600160a01b03199081166001600160a01b038d8116919091179092556003805482168c84161790556004805482168b84169081179091556008805483168985161790556007805483168a8516179055600680549092169287169290921790556000908152600d60209081526040808320805460ff199081166001908117909255600c9093529220805490911690911790556202a300600955611ba5670de0b6b3a764000060df612d7d565b600a908155600b80546001600160a01b0319166001600160a01b038a16179055611bd0908490612c52565b60015560005b8251811015611e8057866001600160a01b0316838281518110611c0957634e487b7160e01b600052603260045260246000fd5b60200260200101516001600160a01b031663c45a01556040518163ffffffff1660e01b815260040160206040518083038186803b158015611c4957600080fd5b505afa158015611c5d573d6000803e3d6000fd5b505050506040513d601f19601f82011682018060405250810190611c819190612851565b6001600160a01b031614611cd75760405162461bcd60e51b815260206004820152601a60248201527f4c696d626f44414f3a20696e76616c6964205375736869204c50000000000000604482015260640161077d565b6103e8896001600160a01b03166370a08231858481518110611d0957634e487b7160e01b600052603260045260246000fd5b60200260200101516040518263ffffffff1660e01b8152600401611d3c91906001600160a01b0391909116815260200190565b60206040518083038186803b158015611d5457600080fd5b505afa158015611d68573d6000803e3d6000fd5b505050506040513d601f19601f82011682018060405250810190611d8c9190612a12565b1115611df8576001600d6000858481518110611db857634e487b7160e01b600052603260045260246000fd5b60200260200101516001600160a01b03166001600160a01b0316815260200190815260200160002060006101000a81548160ff0219169083151502179055505b6002600c6000858481518110611e1e57634e487b7160e01b600052603260045260246000fd5b6020908102919091018101516001600160a01b03168252810191909152604001600020805460ff19166001836002811115611e6957634e487b7160e01b600052602160045260246000fd5b021790555080611e7881612df2565b915050611bd6565b5060005b815181101561212e57856001600160a01b0316828281518110611eb757634e487b7160e01b600052603260045260246000fd5b60200260200101516001600160a01b031663c45a01556040518163ffffffff1660e01b815260040160206040518083038186803b158015611ef757600080fd5b505afa158015611f0b573d6000803e3d6000fd5b505050506040513d601f19601f82011682018060405250810190611f2f9190612851565b6001600160a01b031614611f855760405162461bcd60e51b815260206004820152601a60248201527f4c696d626f44414f3a20696e76616c6964205375736869204c50000000000000604482015260640161077d565b6103e8896001600160a01b03166370a08231848481518110611fb757634e487b7160e01b600052603260045260246000fd5b60200260200101516040518263ffffffff1660e01b8152600401611fea91906001600160a01b0391909116815260200190565b60206040518083038186803b15801561200257600080fd5b505afa158015612016573d6000803e3d6000fd5b505050506040513d601f19601f8201168201806040525081019061203a9190612a12565b11156120a6576001600d600084848151811061206657634e487b7160e01b600052603260045260246000fd5b60200260200101516001600160a01b03166001600160a01b0316815260200190815260200160002060006101000a81548160ff0219169083151502179055505b6002600c60008484815181106120cc57634e487b7160e01b600052603260045260246000fd5b6020908102919091018101516001600160a01b03168252810191909152604001600020805460ff1916600183600281111561211757634e487b7160e01b600052602160045260246000fd5b02179055508061212681612df2565b915050611e84565b5050505050505050505050565b6000546001600160a01b031633146121655760405162461bcd60e51b815260040161077d90612b2a565b6001600160a01b0381166121ca5760405162461bcd60e51b815260206004820152602660248201527f4f776e61626c653a206e6577206f776e657220697320746865207a65726f206160448201526564647265737360d01b606482015260840161077d565b61075081612729565b600554600160a01b900460ff166121fc5760405162461bcd60e51b815260040161077d90612b5f565b61220533612608565b6001600160a01b0382166000908152600d602052604090205460ff166122675760405162461bcd60e51b8152602060048201526017602482015276131a5b589bd11053ce881a5b1b1959d85b08185cdcd95d604a1b604482015260640161077d565b6000336040516323b872dd60e01b81526001600160a01b03808316600483015230602483015260448201859052919250908416906323b872dd90606401602060405180830381600087803b1580156122be57600080fd5b505af11580156122d2573d6000803e3d6000fd5b505050506040513d601f19601f820116820180604052508101906122f691906129de565b6123425760405162461bcd60e51b815260206004820152601860248201527f4c696d626f44414f3a207472616e736665724661696c65640000000000000000604482015260640161077d565b336000908152600e60205260409020600101546004546001600160a01b03858116911614156124025761237683600a612d7d565b60048054604051630852cd8d60e31b81529293506001600160a01b0316916342966c68916123aa9187910190815260200190565b602060405180830381600087803b1580156123c457600080fd5b505af11580156123d8573d6000803e3d6000fd5b505050506040513d601f19601f820116820180604052508101906123fc91906129de565b50612593565b600480546040516370a0823160e01b81526001600160a01b0387811693820193909352600092909116906370a082319060240160206040518083038186803b15801561244d57600080fd5b505afa158015612461573d6000803e3d6000fd5b505050506040513d601f19601f820116820180604052508101906124859190612a12565b9050600081116124ca5760405162461bcd60e51b815260206004820152601060248201526f4c696d626f44414f3a204e6f2045594560801b604482015260640161077d565b6000856001600160a01b03166318160ddd6040518163ffffffff1660e01b815260040160206040518083038186803b15801561250557600080fd5b505afa158015612519573d6000803e3d6000fd5b505050506040513d601f19601f8201168201806040525081019061253d9190612a12565b9050600081612554670de0b6b3a764000085612d7d565b61255e9190612bef565b90506000670de0b6b3a76400006125758884612d7d565b61257f9190612bef565b905061258c816014612d7d565b9450505050505b336000908152600e6020526040812060010180548392906125b5908490612bd7565b9091555050604080513381526001600160a01b038616602082015280820183905290517f53586334466ae8ecce002fdc0bc6fb81a5d0eb4f82a7ab70b4fc8d459964b0469181900360600190a150505050565b6001600160a01b0381166000908152600e60205260409020600281015462015180906126349042612ddb565b82546126409190612d7d565b61264a9190612bef565b81600101600082825461265d9190612bd7565b90915550504260029091015550565b6010805460149081556011546015805460ff9092169160ff191660018360028111156126a857634e487b7160e01b600052602160045260246000fd5b02179055506001828101549082018054610100600160a81b031916610100928390046001600160a01b0390811690930217905560028084015490830155600392830154929091018054929091166001600160a01b031992831617905560138054909116905560006010819055601180546001600160a81b0319169055601255565b600080546001600160a01b038381166001600160a01b0319831681178455604051919092169283917f8be0079c531659141344cd1fd0a4f28419497f9722a3daafe3b4186f6b6457e09190a35050565b803561278481612e71565b919050565b600082601f830112612799578081fd5b8135602067ffffffffffffffff808311156127b6576127b6612e3d565b8260051b604051601f19603f830116810181811084821117156127db576127db612e3d565b604052848152838101925086840182880185018910156127f9578687fd5b8692505b858310156128225761280e81612779565b8452928401926001929092019184016127fd565b50979650505050505050565b60006020828403121561283f578081fd5b813561284a81612e71565b9392505050565b600060208284031215612862578081fd5b815161284a81612e71565b6000806040838503121561287f578081fd5b823561288a81612e71565b9150602083013561289a81612e71565b809150509250929050565b6000806000806000806000806000806101408b8d0312156128c4578586fd5b6128cd8b612779565b99506128db60208c01612779565b98506128e960408c01612779565b97506128f760608c01612779565b965061290560808c01612779565b955061291360a08c01612779565b945061292160c08c01612779565b935060e08b013592506101008b013567ffffffffffffffff80821115612945578384fd5b6129518e838f01612789565b93506101208d0135915080821115612967578283fd5b506129748d828e01612789565b9150509295989b9194979a5092959850565b60008060408385031215612998578182fd5b82356129a381612e71565b9150602083013561289a81612e86565b600080604083850312156129c5578182fd5b82356129d081612e71565b946020939093013593505050565b6000602082840312156129ef578081fd5b815161284a81612e86565b600060208284031215612a0b578081fd5b5035919050565b600060208284031215612a23578081fd5b5051919050565b600080600060608486031215612a3e578283fd5b83359250602084013591506040840135612a5781612e71565b809150509250925092565b60008060008060808587031215612a77578384fd5b8435935060208501359250604085013591506060850135612a9781612e71565b939692955090935050565b60208101612aaf83612e53565b91905290565b85815260a08101612ac586612e53565b60208201959095526001600160a01b0393841660408201526060810192909252909116608090910152919050565b6020808252601a908201527f4c696d626f44414f3a20617070726f76652070726f706f73616c000000000000604082015260600190565b6020808252818101527f4f776e61626c653a2063616c6c6572206973206e6f7420746865206f776e6572604082015260600190565b6020808252601a908201527f4c696d626f44414f3a2044414f206973206e6f74206c6976652e000000000000604082015260600190565b600080821280156001600160ff1b0384900385131615612bb857612bb8612e27565b600160ff1b8390038412811615612bd157612bd1612e27565b50500190565b60008219821115612bea57612bea612e27565b500190565b600082612c0a57634e487b7160e01b81526012600452602481fd5b500490565b600181815b80851115612c4a578160001904821115612c3057612c30612e27565b80851615612c3d57918102915b93841c9390800290612c14565b509250929050565b600061284a8383600082612c6857506001611667565b81612c7557506000611667565b8160018114612c8b5760028114612c9557612cb1565b6001915050611667565b60ff841115612ca657612ca6612e27565b50506001821b611667565b5060208310610133831016604e8410600b8410161715612cd4575081810a611667565b612cde8383612c0f565b8060001904821115612cf257612cf2612e27565b029392505050565b60006001600160ff1b0381841382841380821686840486111615612d2057612d20612e27565b600160ff1b84871282811687830589121615612d3e57612d3e612e27565b858712925087820587128484161615612d5957612d59612e27565b87850587128184161615612d6f57612d6f612e27565b505050929093029392505050565b6000816000190483118215151615612d9757612d97612e27565b500290565b60008083128015600160ff1b850184121615612dba57612dba612e27565b6001600160ff1b0384018313811615612dd557612dd5612e27565b50500390565b600082821015612ded57612ded612e27565b500390565b6000600019821415612e0657612e06612e27565b5060010190565b6000600160ff1b821415612e2357612e23612e27565b0390565b634e487b7160e01b600052601160045260246000fd5b634e487b7160e01b600052604160045260246000fd5b6003811061075057634e487b7160e01b600052602160045260246000fd5b6001600160a01b038116811461075057600080fd5b801515811461075057600080fdfea264697066735822122098df338d38da3d2fb29b610c2628ed506268ff91bd8e6d1d6109148c90f522b264736f6c63430008040033",
    "sourcePath": "/home/justin/weidai ecosystem/limbo/contracts/DAO/LimboDAO.sol",
    "compiler": {
        "name": "solc",
        "version": "0.8.4+commit.c7e474f2"
    },
    "functionHashes": {
        "approveFlanMintingPower(address,bool)": "1fdca146",
        "assetApproved(address)": "94e7bfa0",
        "burnAsset(address,uint256)": "f4b9a238",
        "convertFateToFlan(uint256)": "e397f31a",
        "currentProposalState()": "64c5ce86",
        "domainConfig()": "e8d9735f",
        "executeCurrentProposal()": "0d56575d",
        "fateGrowthStrategy(address)": "5e068d70",
        "fateState(address)": "39a8e3c2",
        "fateToFlan()": "ace522c3",
        "getFlashGoverner()": "2317beae",
        "incrementFateFor(address)": "f6888400",
        "killDAO(address)": "2ed4c872",
        "makeLive()": "90e7760e",
        "makeProposal(address,address)": "bc7e7d51",
        "owner()": "8da5cb5b",
        "previousProposalState()": "f63b0577",
        "proposalConfig()": "01e179dc",
        "renounceOwnership()": "715018a6",
        "seed(address,address,address,address,address,address,address,uint256,address[],address[])": "e9066872",
        "setApprovedAsset(address,bool)": "6e49c8b2",
        "setEYEBasedAssetStake(uint256,uint256,uint256,address)": "0e67e45c",
        "setFateToFlan(uint256)": "38c5afd5",
        "setProposalConfig(uint256,uint256,address)": "2b57bb80",
        "stakedUserAssetWeight(address,address)": "02495fd0",
        "successfulProposal(address)": "b7ebc23b",
        "timeRemainingOnProposal()": "b143893b",
        "transferOwnership(address)": "f2fde38b",
        "transferOwnershipOfThing(address,address)": "abbe718a",
        "vote(address,int256)": "b0dfaa7a"
    },
    "gasEstimates": {
        "creation": {
            "codeDepositCost": "2395600",
            "executionCost": "45022",
            "totalCost": "2440622"
        },
        "external": {
            "approveFlanMintingPower(address,bool)": "infinite",
            "assetApproved(address)": "1294",
            "burnAsset(address,uint256)": "infinite",
            "convertFateToFlan(uint256)": "infinite",
            "currentProposalState()": "3719",
            "domainConfig()": "6213",
            "executeCurrentProposal()": "infinite",
            "fateGrowthStrategy(address)": "infinite",
            "fateState(address)": "2979",
            "fateToFlan()": "1040",
            "getFlashGoverner()": "1110",
            "incrementFateFor(address)": "43247",
            "killDAO(address)": "infinite",
            "makeLive()": "infinite",
            "makeProposal(address,address)": "infinite",
            "owner()": "1142",
            "previousProposalState()": "3762",
            "proposalConfig()": "2724",
            "renounceOwnership()": "23503",
            "seed(address,address,address,address,address,address,address,uint256,address[],address[])": "infinite",
            "setApprovedAsset(address,bool)": "infinite",
            "setEYEBasedAssetStake(uint256,uint256,uint256,address)": "infinite",
            "setFateToFlan(uint256)": "22044",
            "setProposalConfig(uint256,uint256,address)": "63093",
            "stakedUserAssetWeight(address,address)": "infinite",
            "successfulProposal(address)": "2183",
            "timeRemainingOnProposal()": "infinite",
            "transferOwnership(address)": "infinite",
            "transferOwnershipOfThing(address,address)": "infinite",
            "vote(address,int256)": "infinite"
        },
        "internal": {
            "_seed(address,address,address,address,address,address)": "infinite",
            "nextProposal()": "158361"
        }
    }
}