{
  "_format": "hh-sol-artifact-1",
  "contractName": "Limbo",
  "sourceName": "contracts/Limbo.sol",
  "abi": [
    {
      "inputs": [
        {
          "internalType": "address",
          "name": "flan",
          "type": "address"
        },
        {
          "internalType": "address",
          "name": "limboDAO",
          "type": "address"
        }
      ],
      "stateMutability": "nonpayable",
      "type": "constructor"
    },
    {
      "inputs": [
        {
          "internalType": "address",
          "name": "configurationLord",
          "type": "address"
        },
        {
          "internalType": "address",
          "name": "msg_sender",
          "type": "address"
        }
      ],
      "name": "AccessDenied",
      "type": "error"
    },
    {
      "inputs": [
        {
          "internalType": "address",
          "name": "expectedDAO",
          "type": "address"
        },
        {
          "internalType": "address",
          "name": "actualDAO",
          "type": "address"
        }
      ],
      "name": "BackrunDetected",
      "type": "error"
    },
    {
      "inputs": [
        {
          "internalType": "address",
          "name": "token",
          "type": "address"
        },
        {
          "internalType": "uint256",
          "name": "index",
          "type": "uint256"
        }
      ],
      "name": "BonusClaimed",
      "type": "error"
    },
    {
      "inputs": [
        {
          "internalType": "int256",
          "name": "accFlanPerTeraToken",
          "type": "int256"
        },
        {
          "internalType": "int256",
          "name": "bonusDelta",
          "type": "int256"
        }
      ],
      "name": "CrossingBonusInvariant",
      "type": "error"
    },
    {
      "inputs": [
        {
          "internalType": "address",
          "name": "token",
          "type": "address"
        },
        {
          "internalType": "uint256",
          "name": "amount",
          "type": "uint256"
        },
        {
          "internalType": "uint256",
          "name": "staked",
          "type": "uint256"
        }
      ],
      "name": "ExcessiveWithdrawalRequest",
      "type": "error"
    },
    {
      "inputs": [
        {
          "internalType": "address",
          "name": "token",
          "type": "address"
        },
        {
          "internalType": "uint256",
          "name": "index",
          "type": "uint256"
        },
        {
          "internalType": "uint256",
          "name": "staked",
          "type": "uint256"
        },
        {
          "internalType": "int256",
          "name": "finalFlanPerTeraToken",
          "type": "int256"
        }
      ],
      "name": "FlanBonusMustBePositive",
      "type": "error"
    },
    {
      "inputs": [
        {
          "internalType": "bool",
          "name": "configured",
          "type": "bool"
        },
        {
          "internalType": "address",
          "name": "proposal",
          "type": "address"
        }
      ],
      "name": "GovernanceActionFailed",
      "type": "error"
    },
    {
      "inputs": [
        {
          "internalType": "uint256",
          "name": "balance",
          "type": "uint256"
        },
        {
          "internalType": "uint256",
          "name": "value",
          "type": "uint256"
        }
      ],
      "name": "InsufficinetFunds",
      "type": "error"
    },
    {
      "inputs": [
        {
          "internalType": "address",
          "name": "token",
          "type": "address"
        }
      ],
      "name": "InvalidSoul",
      "type": "error"
    },
    {
      "inputs": [
        {
          "internalType": "address",
          "name": "token",
          "type": "address"
        },
        {
          "internalType": "uint256",
          "name": "state",
          "type": "uint256"
        }
      ],
      "name": "InvalidSoulState",
      "type": "error"
    },
    {
      "inputs": [
        {
          "internalType": "address",
          "name": "token",
          "type": "address"
        },
        {
          "internalType": "uint256",
          "name": "actualType",
          "type": "uint256"
        },
        {
          "internalType": "uint256",
          "name": "expectedType",
          "type": "uint256"
        }
      ],
      "name": "InvalidSoulType",
      "type": "error"
    },
    {
      "inputs": [
        {
          "internalType": "address",
          "name": "token",
          "type": "address"
        },
        {
          "internalType": "uint256",
          "name": "index",
          "type": "uint256"
        },
        {
          "internalType": "uint256",
          "name": "migrationDelay",
          "type": "uint256"
        }
      ],
      "name": "MigrationCoolDownActive",
      "type": "error"
    },
    {
      "inputs": [
        {
          "internalType": "address",
          "name": "EOA",
          "type": "address"
        }
      ],
      "name": "NotAContract",
      "type": "error"
    },
    {
      "inputs": [],
      "name": "OperationFailure",
      "type": "error"
    },
    {
      "inputs": [],
      "name": "ProtocolDisabled",
      "type": "error"
    },
    {
      "inputs": [
        {
          "internalType": "address",
          "name": "token",
          "type": "address"
        }
      ],
      "name": "TokenAccountedFor",
      "type": "error"
    },
    {
      "anonymous": false,
      "inputs": [
        {
          "indexed": true,
          "internalType": "address",
          "name": "token",
          "type": "address"
        },
        {
          "indexed": false,
          "internalType": "uint256",
          "name": "index",
          "type": "uint256"
        },
        {
          "indexed": true,
          "internalType": "address",
          "name": "recipient",
          "type": "address"
        },
        {
          "indexed": false,
          "internalType": "uint256",
          "name": "bonus",
          "type": "uint256"
        }
      ],
      "name": "BonusPaid",
      "type": "event"
    },
    {
      "anonymous": false,
      "inputs": [
        {
          "indexed": true,
          "internalType": "address",
          "name": "staker",
          "type": "address"
        },
        {
          "indexed": true,
          "internalType": "address",
          "name": "soul",
          "type": "address"
        },
        {
          "indexed": false,
          "internalType": "uint256",
          "name": "index",
          "type": "uint256"
        },
        {
          "indexed": false,
          "internalType": "uint256",
          "name": "amount",
          "type": "uint256"
        }
      ],
      "name": "ClaimedReward",
      "type": "event"
    },
    {
      "anonymous": false,
      "inputs": [
        {
          "indexed": true,
          "internalType": "address",
          "name": "soul",
          "type": "address"
        },
        {
          "indexed": false,
          "internalType": "uint256",
          "name": "fps",
          "type": "uint256"
        }
      ],
      "name": "SoulUpdated",
      "type": "event"
    },
    {
      "anonymous": false,
      "inputs": [
        {
          "indexed": true,
          "internalType": "address",
          "name": "staker",
          "type": "address"
        },
        {
          "indexed": true,
          "internalType": "address",
          "name": "soul",
          "type": "address"
        },
        {
          "indexed": false,
          "internalType": "uint256",
          "name": "amount",
          "type": "uint256"
        }
      ],
      "name": "Staked",
      "type": "event"
    },
    {
      "anonymous": false,
      "inputs": [
        {
          "indexed": true,
          "internalType": "address",
          "name": "token",
          "type": "address"
        },
        {
          "indexed": false,
          "internalType": "uint256",
          "name": "amount",
          "type": "uint256"
        },
        {
          "indexed": false,
          "internalType": "uint256",
          "name": "scxfln_LP_minted",
          "type": "uint256"
        }
      ],
      "name": "TokenListed",
      "type": "event"
    },
    {
      "anonymous": false,
      "inputs": [
        {
          "indexed": true,
          "internalType": "address",
          "name": "staker",
          "type": "address"
        },
        {
          "indexed": true,
          "internalType": "address",
          "name": "soul",
          "type": "address"
        },
        {
          "indexed": false,
          "internalType": "uint256",
          "name": "amount",
          "type": "uint256"
        }
      ],
      "name": "Unstaked",
      "type": "event"
    },
    {
      "inputs": [],
      "name": "DAO",
      "outputs": [
        {
          "internalType": "address",
          "name": "",
          "type": "address"
        }
      ],
      "stateMutability": "view",
      "type": "function"
    },
    {
      "inputs": [
        {
          "internalType": "address",
          "name": "token",
          "type": "address"
        },
        {
          "internalType": "uint256",
          "name": "initialCrossingBonus",
          "type": "uint256"
        },
        {
          "internalType": "int256",
          "name": "crossingBonusDelta",
          "type": "int256"
        },
        {
          "internalType": "uint256",
          "name": "fps",
          "type": "uint256"
        }
      ],
      "name": "adjustSoul",
      "outputs": [],
      "stateMutability": "nonpayable",
      "type": "function"
    },
    {
      "inputs": [
        {
          "internalType": "address",
          "name": "soul",
          "type": "address"
        },
        {
          "internalType": "address",
          "name": "unstaker",
          "type": "address"
        },
        {
          "internalType": "uint256",
          "name": "amount",
          "type": "uint256"
        }
      ],
      "name": "approveUnstake",
      "outputs": [],
      "stateMutability": "nonpayable",
      "type": "function"
    },
    {
      "inputs": [
        {
          "internalType": "address",
          "name": "token",
          "type": "address"
        },
        {
          "internalType": "uint256",
          "name": "desiredAPY",
          "type": "uint256"
        },
        {
          "internalType": "uint256",
          "name": "daiThreshold",
          "type": "uint256"
        }
      ],
      "name": "attemptToTargetAPY",
      "outputs": [],
      "stateMutability": "nonpayable",
      "type": "function"
    },
    {
      "inputs": [
        {
          "internalType": "address",
          "name": "token",
          "type": "address"
        },
        {
          "internalType": "uint256",
          "name": "index",
          "type": "uint256"
        }
      ],
      "name": "claimBonus",
      "outputs": [],
      "stateMutability": "nonpayable",
      "type": "function"
    },
    {
      "inputs": [
        {
          "internalType": "address",
          "name": "token",
          "type": "address"
        },
        {
          "internalType": "uint256",
          "name": "index",
          "type": "uint256"
        }
      ],
      "name": "claimReward",
      "outputs": [],
      "stateMutability": "nonpayable",
      "type": "function"
    },
    {
      "inputs": [
        {
          "internalType": "address",
          "name": "token",
          "type": "address"
        }
      ],
      "name": "claimSecondaryRewards",
      "outputs": [],
      "stateMutability": "nonpayable",
      "type": "function"
    },
    {
      "inputs": [
        {
          "internalType": "address",
          "name": "behodler",
          "type": "address"
        },
        {
          "internalType": "address",
          "name": "angband",
          "type": "address"
        },
        {
          "internalType": "address",
          "name": "ammHelper",
          "type": "address"
        },
        {
          "internalType": "address",
          "name": "morgothPower",
          "type": "address"
        },
        {
          "internalType": "uint256",
          "name": "migrationInvocationReward",
          "type": "uint256"
        },
        {
          "internalType": "uint256",
          "name": "crossingMigrationDelay",
          "type": "uint256"
        }
      ],
      "name": "configureCrossingConfig",
      "outputs": [],
      "stateMutability": "nonpayable",
      "type": "function"
    },
    {
      "inputs": [
        {
          "internalType": "address",
          "name": "token",
          "type": "address"
        },
        {
          "internalType": "uint256",
          "name": "initialCrossingBonus",
          "type": "uint256"
        },
        {
          "internalType": "int256",
          "name": "crossingBonusDelta",
          "type": "int256"
        },
        {
          "internalType": "bool",
          "name": "burnable",
          "type": "bool"
        },
        {
          "internalType": "uint256",
          "name": "crossingThreshold",
          "type": "uint256"
        }
      ],
      "name": "configureCrossingParameters",
      "outputs": [],
      "stateMutability": "nonpayable",
      "type": "function"
    },
    {
      "inputs": [
        {
          "internalType": "address",
          "name": "token",
          "type": "address"
        },
        {
          "internalType": "uint256",
          "name": "crossingThreshold",
          "type": "uint256"
        },
        {
          "internalType": "uint256",
          "name": "soulType",
          "type": "uint256"
        },
        {
          "internalType": "uint256",
          "name": "state",
          "type": "uint256"
        },
        {
          "internalType": "uint256",
          "name": "index",
          "type": "uint256"
        },
        {
          "internalType": "uint256",
          "name": "fps",
          "type": "uint256"
        }
      ],
      "name": "configureSoul",
      "outputs": [],
      "stateMutability": "nonpayable",
      "type": "function"
    },
    {
      "inputs": [],
      "name": "configured",
      "outputs": [
        {
          "internalType": "bool",
          "name": "",
          "type": "bool"
        }
      ],
      "stateMutability": "view",
      "type": "function"
    },
    {
      "inputs": [],
      "name": "crossingConfig",
      "outputs": [
        {
          "internalType": "address",
          "name": "behodler",
          "type": "address"
        },
        {
          "internalType": "uint256",
          "name": "SCX_fee",
          "type": "uint256"
        },
        {
          "internalType": "uint256",
          "name": "migrationInvocationReward",
          "type": "uint256"
        },
        {
          "internalType": "uint256",
          "name": "crossingMigrationDelay",
          "type": "uint256"
        },
        {
          "internalType": "address",
          "name": "morgothPower",
          "type": "address"
        },
        {
          "internalType": "address",
          "name": "angband",
          "type": "address"
        },
        {
          "internalType": "address",
          "name": "ammHelper",
          "type": "address"
        }
      ],
      "stateMutability": "view",
      "type": "function"
    },
    {
      "inputs": [],
      "name": "disableProtocol",
      "outputs": [],
      "stateMutability": "nonpayable",
      "type": "function"
    },
    {
      "inputs": [],
      "name": "enableProtocol",
      "outputs": [],
      "stateMutability": "nonpayable",
      "type": "function"
    },
    {
      "inputs": [
        {
          "internalType": "address",
          "name": "expectedDAO",
          "type": "address"
        }
      ],
      "name": "endConfiguration",
      "outputs": [],
      "stateMutability": "nonpayable",
      "type": "function"
    },
    {
      "inputs": [],
      "name": "governer",
      "outputs": [
        {
          "internalType": "contract FlashGovernanceArbiterLike",
          "name": "",
          "type": "address"
        }
      ],
      "stateMutability": "view",
      "type": "function"
    },
    {
      "inputs": [
        {
          "internalType": "address",
          "name": "",
          "type": "address"
        }
      ],
      "name": "latestIndex",
      "outputs": [
        {
          "internalType": "uint256",
          "name": "",
          "type": "uint256"
        }
      ],
      "stateMutability": "view",
      "type": "function"
    },
    {
      "inputs": [
        {
          "internalType": "address",
          "name": "token",
          "type": "address"
        }
      ],
      "name": "migrate",
      "outputs": [],
      "stateMutability": "nonpayable",
      "type": "function"
    },
    {
      "inputs": [
        {
          "internalType": "address",
          "name": "dao",
          "type": "address"
        }
      ],
      "name": "setDAO",
      "outputs": [],
      "stateMutability": "nonpayable",
      "type": "function"
    },
    {
      "inputs": [
        {
          "internalType": "address",
          "name": "",
          "type": "address"
        },
        {
          "internalType": "uint256",
          "name": "",
          "type": "uint256"
        }
      ],
      "name": "souls",
      "outputs": [
        {
          "internalType": "uint256",
          "name": "lastRewardTimestamp",
          "type": "uint256"
        },
        {
          "internalType": "uint256",
          "name": "accumulatedFlanPerShare",
          "type": "uint256"
        },
        {
          "internalType": "uint256",
          "name": "crossingThreshold",
          "type": "uint256"
        },
        {
          "internalType": "enum SoulType",
          "name": "soulType",
          "type": "uint8"
        },
        {
          "internalType": "enum SoulState",
          "name": "state",
          "type": "uint8"
        },
        {
          "internalType": "uint256",
          "name": "flanPerSecond",
          "type": "uint256"
        }
      ],
      "stateMutability": "view",
      "type": "function"
    },
    {
      "inputs": [
        {
          "internalType": "address",
          "name": "token",
          "type": "address"
        },
        {
          "internalType": "uint256",
          "name": "amount",
          "type": "uint256"
        }
      ],
      "name": "stake",
      "outputs": [],
      "stateMutability": "nonpayable",
      "type": "function"
    },
    {
      "inputs": [
        {
          "internalType": "address",
          "name": "token",
          "type": "address"
        },
        {
          "internalType": "uint256",
          "name": "amount",
          "type": "uint256"
        },
        {
          "internalType": "address",
          "name": "recipient",
          "type": "address"
        }
      ],
      "name": "stakeFor",
      "outputs": [],
      "stateMutability": "nonpayable",
      "type": "function"
    },
    {
      "inputs": [],
      "name": "temporaryConfigurationLord",
      "outputs": [
        {
          "internalType": "address",
          "name": "",
          "type": "address"
        }
      ],
      "stateMutability": "view",
      "type": "function"
    },
    {
      "inputs": [
        {
          "internalType": "address",
          "name": "",
          "type": "address"
        },
        {
          "internalType": "uint256",
          "name": "",
          "type": "uint256"
        }
      ],
      "name": "tokenCrossingParameters",
      "outputs": [
        {
          "internalType": "uint256",
          "name": "stakingBeginsTimestamp",
          "type": "uint256"
        },
        {
          "internalType": "uint256",
          "name": "stakingEndsTimestamp",
          "type": "uint256"
        },
        {
          "internalType": "int256",
          "name": "crossingBonusDelta",
          "type": "int256"
        },
        {
          "internalType": "uint256",
          "name": "initialCrossingBonus",
          "type": "uint256"
        },
        {
          "internalType": "bool",
          "name": "burnable",
          "type": "bool"
        }
      ],
      "stateMutability": "view",
      "type": "function"
    },
    {
      "inputs": [
        {
          "internalType": "address",
          "name": "token",
          "type": "address"
        },
        {
          "internalType": "uint256",
          "name": "amount",
          "type": "uint256"
        }
      ],
      "name": "unstake",
      "outputs": [],
      "stateMutability": "nonpayable",
      "type": "function"
    },
    {
      "inputs": [
        {
          "internalType": "address",
          "name": "",
          "type": "address"
        },
        {
          "internalType": "address",
          "name": "",
          "type": "address"
        },
        {
          "internalType": "address",
          "name": "",
          "type": "address"
        }
      ],
      "name": "unstakeApproval",
      "outputs": [
        {
          "internalType": "uint256",
          "name": "",
          "type": "uint256"
        }
      ],
      "stateMutability": "view",
      "type": "function"
    },
    {
      "inputs": [
        {
          "internalType": "address",
          "name": "token",
          "type": "address"
        },
        {
          "internalType": "uint256",
          "name": "amount",
          "type": "uint256"
        },
        {
          "internalType": "address",
          "name": "holder",
          "type": "address"
        }
      ],
      "name": "unstakeFor",
      "outputs": [],
      "stateMutability": "nonpayable",
      "type": "function"
    },
    {
      "inputs": [
        {
          "internalType": "address",
          "name": "token",
          "type": "address"
        }
      ],
      "name": "updateSoul",
      "outputs": [],
      "stateMutability": "nonpayable",
      "type": "function"
    },
    {
      "inputs": [
        {
          "internalType": "address",
          "name": "",
          "type": "address"
        },
        {
          "internalType": "address",
          "name": "",
          "type": "address"
        },
        {
          "internalType": "uint256",
          "name": "",
          "type": "uint256"
        }
      ],
      "name": "userInfo",
      "outputs": [
        {
          "internalType": "uint256",
          "name": "stakedAmount",
          "type": "uint256"
        },
        {
          "internalType": "uint256",
          "name": "rewardDebt",
          "type": "uint256"
        },
        {
          "internalType": "bool",
          "name": "bonusPaid",
          "type": "bool"
        }
      ],
      "stateMutability": "view",
      "type": "function"
    }
  ],
  "bytecode": "0x60a06040526001600260146101000a81548160ff0219169083151502179055503480156200002c57600080fd5b506040516200575e3803806200575e83398181016040528101906200005291906200033c565b806200006481620000e260201b60201c565b33600160006101000a81548173ffffffffffffffffffffffffffffffffffffffff021916908373ffffffffffffffffffffffffffffffffffffffff160217905550508173ffffffffffffffffffffffffffffffffffffffff1660808173ffffffffffffffffffffffffffffffffffffffff16815250505050620003c1565b600073ffffffffffffffffffffffffffffffffffffffff16600260009054906101000a900473ffffffffffffffffffffffffffffffffffffffff1673ffffffffffffffffffffffffffffffffffffffff1614158015620001905750600260009054906101000a900473ffffffffffffffffffffffffffffffffffffffff1673ffffffffffffffffffffffffffffffffffffffff163373ffffffffffffffffffffffffffffffffffffffff1614155b8015620001a95750620001a86200027a60201b60201c565b5b156200021257600160009054906101000a900473ffffffffffffffffffffffffffffffffffffffff16336040517fc21bbf9d0000000000000000000000000000000000000000000000000000000081526004016200020992919062000394565b60405180910390fd5b80600260006101000a81548173ffffffffffffffffffffffffffffffffffffffff021916908373ffffffffffffffffffffffffffffffffffffffff1602179055506000806101000a81549073ffffffffffffffffffffffffffffffffffffffff021916905550565b60008073ffffffffffffffffffffffffffffffffffffffff16600160009054906101000a900473ffffffffffffffffffffffffffffffffffffffff1673ffffffffffffffffffffffffffffffffffffffff1614905090565b600080fd5b600073ffffffffffffffffffffffffffffffffffffffff82169050919050565b60006200030482620002d7565b9050919050565b6200031681620002f7565b81146200032257600080fd5b50565b60008151905062000336816200030b565b92915050565b60008060408385031215620003565762000355620002d2565b5b6000620003668582860162000325565b9250506020620003798582860162000325565b9150509250929050565b6200038e81620002f7565b82525050565b6000604082019050620003ab600083018562000383565b620003ba602083018462000383565b9392505050565b60805161536c620003f26000396000818161091c01528181611f2201528181612d9501526135b6015261536c6000f3fe608060405234801561001057600080fd5b50600436106101cf5760003560e01c80638772a23a11610104578063ade07314116100a2578063d4a4bdee11610071578063d4a4bdee146104fb578063dd77a47514610517578063e73a914c14610535578063ebaf154914610551576101cf565b8063ade0731414610472578063c12cbe861461048e578063c2a672e0146104c3578063ce5494bb146104df576101cf565b806398fabd3a116100de57806398fabd3a14610400578063995dd3861461041e5780639b8f04b71461043a578063adc9772e14610456576101cf565b80638772a23a146103aa5780638e4a0d19146103c857806391084d6b146103e4576101cf565b80633091dde1116101715780634eaa7eb21161014b5780634eaa7eb2146103445780636314736c146103605780636d0e99711461037c5780637358a76414610386576101cf565b80633091dde1146102da5780633f56f75f146102f8578063477b734514610328576101cf565b806315a13a3f116101ad57806315a13a3f1461023c578063174e31c41461026e5780631db969dd1461028a57806325c2c389146102a6576101cf565b8063026800d0146101d4578063057e9b96146101f05780630fa8beb314610220575b600080fd5b6101ee60048036038101906101e99190614044565b61055b565b005b61020a60048036038101906102059190614097565b61056c565b60405161021791906140d3565b60405180910390f35b61023a600480360381019061023591906140ee565b610584565b005b6102566004803603810190610251919061412e565b610a76565b6040516102659392919061419c565b60405180910390f35b610288600480360381019061028391906140ee565b610ac7565b005b6102a4600480360381019061029f9190614097565b610d75565b005b6102c060048036038101906102bb91906140ee565b610f95565b6040516102d19594939291906141ec565b60405180910390f35b6102e2610fe5565b6040516102ef919061429e565b60405180910390f35b610312600480360381019061030d91906142b9565b611009565b60405161031f91906140d3565b60405180910390f35b610342600480360381019061033d919061412e565b61103b565b005b61035e60048036038101906103599190614097565b6110fe565b005b61037a60048036038101906103759190614097565b6112af565b005b6103846112ca565b005b61038e6112f3565b6040516103a1979695949392919061431b565b60405180910390f35b6103b26113a3565b6040516103bf919061438a565b60405180910390f35b6103e260048036038101906103dd91906143a5565b6113fb565b005b6103fe60048036038101906103f99190614450565b6115f3565b005b610408611724565b60405161041591906144cb565b60405180910390f35b610438600480360381019061043391906144e6565b61174a565b005b610454600480360381019061044f9190614044565b6119f7565b005b610470600480360381019061046b91906140ee565b611a4e565b005b61048c6004803603810190610487919061454d565b611aa4565b005b6104a860048036038101906104a391906140ee565b611beb565b6040516104ba96959493929190614699565b60405180910390f35b6104dd60048036038101906104d891906140ee565b611c4e565b005b6104f960048036038101906104f49190614097565b611ca4565b005b610515600480360381019061051091906146fa565b611ffe565b005b61051f6123eb565b60405161052c91906144cb565b60405180910390f35b61054f600480360381019061054a9190614097565b612411565b005b61055961259c565b005b610567838333846125c2565b505050565b600b6020528060005260406000206000915090505481565b600260149054906101000a900460ff166105ca576040517f931b485800000000000000000000000000000000000000000000000000000000815260040160405180910390fd5b6000600a60008473ffffffffffffffffffffffffffffffffffffffff1673ffffffffffffffffffffffffffffffffffffffff168152602001908152602001600020600083815260200190815260200160002090506000600d60008573ffffffffffffffffffffffffffffffffffffffff1673ffffffffffffffffffffffffffffffffffffffff16815260200190815260200160002060008481526020019081526020016000209050600380811115610685576106846145da565b5b8260030160019054906101000a900460ff1660038111156106a9576106a86145da565b5b141580156106ed5750600260038111156106c6576106c56145da565b5b8260030160019054906101000a900460ff1660038111156106ea576106e96145da565b5b14155b1561075457838260030160019054906101000a900460ff166003811115610717576107166145da565b5b6040517fee164d6200000000000000000000000000000000000000000000000000000000815260040161074b929190614787565b60405180910390fd5b6000600c60008673ffffffffffffffffffffffffffffffffffffffff1673ffffffffffffffffffffffffffffffffffffffff16815260200190815260200160002060003373ffffffffffffffffffffffffffffffffffffffff1673ffffffffffffffffffffffffffffffffffffffff168152602001908152602001600020600085815260200190815260200160002090508060020160009054906101000a900460ff161561083b5784846040517f4e69fdc4000000000000000000000000000000000000000000000000000000008152600401610832929190614787565b60405180910390fd5b60018160020160006101000a81548160ff02191690831515021790555060008260000154836001015461086e91906147df565b836002015461087d9190614813565b905060008360020154826108919190614813565b12156108da578083600201546040517f98bb45540000000000000000000000000000000000000000000000000000000081526004016108d192919061492a565b60405180910390fd5b60008184600301546108ec9190614953565b90506000808213156109be5764e8d4a5100082856000015461090e9190614813565b6109189190614a16565b90507f000000000000000000000000000000000000000000000000000000000000000073ffffffffffffffffffffffffffffffffffffffff166340c10f1933836040518363ffffffff1660e01b8152600401610975929190614787565b6020604051808303816000875af1158015610994573d6000803e3d6000fd5b505050506040513d601f19601f820116820180604052508101906109b89190614a5c565b50610a05565b87878560000154846040517f4445b4620000000000000000000000000000000000000000000000000000000081526004016109fc9493929190614a89565b60405180910390fd5b3373ffffffffffffffffffffffffffffffffffffffff168873ffffffffffffffffffffffffffffffffffffffff167f2e6a1e085447ae0bd3bb86ec4d6cdf0c9ebb5f8acb821852a2db9bf6bce1904e8984604051610a64929190614ace565b60405180910390a35050505050505050565b600c60205282600052604060002060205281600052604060002060205280600052604060002060009250925050508060000154908060010154908060020160009054906101000a900460ff16905083565b600260149054906101000a900460ff16610b0d576040517f931b485800000000000000000000000000000000000000000000000000000000815260040160405180910390fd5b6000600a60008473ffffffffffffffffffffffffffffffffffffffff1673ffffffffffffffffffffffffffffffffffffffff16815260200190815260200160002060008381526020019081526020016000209050610b6b8382612b16565b6000600c60008573ffffffffffffffffffffffffffffffffffffffff1673ffffffffffffffffffffffffffffffffffffffff16815260200190815260200160002060003373ffffffffffffffffffffffffffffffffffffffff1673ffffffffffffffffffffffffffffffffffffffff168152602001908152602001600020600084815260200190815260200160002090506000610ceb8260405180606001604052908160008201548152602001600182015481526020016002820160009054906101000a900460ff161515151581525050846040518060c00160405290816000820154815260200160018201548152602001600282015481526020016003820160009054906101000a900460ff166002811115610c8b57610c8a6145da565b5b6002811115610c9d57610c9c6145da565b5b81526020016003820160019054906101000a900460ff166003811115610cc657610cc56145da565b5b6003811115610cd857610cd76145da565b5b8152602001600482015481525050612d56565b90506000811115610d6e57610d063382856001015485612d93565b8473ffffffffffffffffffffffffffffffffffffffff163373ffffffffffffffffffffffffffffffffffffffff167fd3208fd5300db64b97bc442f47ade72b7ebcd9272aaecdcc04c777bb762861b98684604051610d65929190614ace565b60405180910390a35b5050505050565b6000610d8082612e60565b60030160019054906101000a900460ff16905060006003811115610da757610da66145da565b5b816003811115610dba57610db96145da565b5b14158015610dec5750600380811115610dd657610dd56145da565b5b816003811115610de957610de86145da565b5b14155b15610e2e57816040517f2b701e04000000000000000000000000000000000000000000000000000000008152600401610e2591906144cb565b60405180910390fd5b60008273ffffffffffffffffffffffffffffffffffffffff166370a08231306040518263ffffffff1660e01b8152600401610e6991906144cb565b602060405180830381865afa158015610e86573d6000803e3d6000fd5b505050506040513d601f19601f82011682018060405250810190610eaa9190614b0c565b9050610efc600360060160009054906101000a900473ffffffffffffffffffffffffffffffffffffffff16828573ffffffffffffffffffffffffffffffffffffffff16612ef89092919063ffffffff16565b600360060160009054906101000a900473ffffffffffffffffffffffffffffffffffffffff1673ffffffffffffffffffffffffffffffffffffffff16638b8de7158483336040518463ffffffff1660e01b8152600401610f5e93929190614b39565b600060405180830381600087803b158015610f7857600080fd5b505af1158015610f8c573d6000803e3d6000fd5b50505050505050565b600d602052816000526040600020602052806000526040600020600091509150508060000154908060010154908060020154908060030154908060040160009054906101000a900460ff16905085565b60008054906101000a900473ffffffffffffffffffffffffffffffffffffffff1681565b600e60205282600052604060002060205281600052604060002060205280600052604060002060009250925050505481565b80600e60008573ffffffffffffffffffffffffffffffffffffffff1673ffffffffffffffffffffffffffffffffffffffff16815260200190815260200160002060003373ffffffffffffffffffffffffffffffffffffffff1673ffffffffffffffffffffffffffffffffffffffff16815260200190815260200160002060008473ffffffffffffffffffffffffffffffffffffffff1673ffffffffffffffffffffffffffffffffffffffff16815260200190815260200160002081905550505050565b600160009054906101000a900473ffffffffffffffffffffffffffffffffffffffff1673ffffffffffffffffffffffffffffffffffffffff163373ffffffffffffffffffffffffffffffffffffffff16146111b457600160009054906101000a900473ffffffffffffffffffffffffffffffffffffffff16336040517fc21bbf9d0000000000000000000000000000000000000000000000000000000081526004016111ab929190614b70565b60405180910390fd5b600260009054906101000a900473ffffffffffffffffffffffffffffffffffffffff1673ffffffffffffffffffffffffffffffffffffffff168173ffffffffffffffffffffffffffffffffffffffff161461126a5780600260009054906101000a900473ffffffffffffffffffffffffffffffffffffffff166040517f3f0e2133000000000000000000000000000000000000000000000000000000008152600401611261929190614b70565b60405180910390fd5b6000600160006101000a81548173ffffffffffffffffffffffffffffffffffffffff021916908373ffffffffffffffffffffffffffffffffffffffff16021790555050565b60006112ba82612e60565b90506112c68282612b16565b5050565b60016112d581612f7e565b6000600260146101000a81548160ff02191690831515021790555050565b60038060000160009054906101000a900473ffffffffffffffffffffffffffffffffffffffff16908060010154908060020154908060030154908060040160009054906101000a900473ffffffffffffffffffffffffffffffffffffffff16908060050160009054906101000a900473ffffffffffffffffffffffffffffffffffffffff16908060060160009054906101000a900473ffffffffffffffffffffffffffffffffffffffff16905087565b60008073ffffffffffffffffffffffffffffffffffffffff16600160009054906101000a900473ffffffffffffffffffffffffffffffffffffffff1673ffffffffffffffffffffffffffffffffffffffff1614905090565b600061140681612f7e565b600061141185612e60565b905060016002811115611427576114266145da565b5b8160030160009054906101000a900460ff16600281111561144b5761144a6145da565b5b146114c757848160030160009054906101000a900460ff166002811115611475576114746145da565b5b60016002811115611489576114886145da565b5b6040517f881315bb0000000000000000000000000000000000000000000000000000000081526004016114be93929190614b99565b60405180910390fd5b6000600360060160009054906101000a900473ffffffffffffffffffffffffffffffffffffffff1673ffffffffffffffffffffffffffffffffffffffff1663421e5b4886866040518363ffffffff1660e01b8152600401611529929190614ace565b602060405180830381865afa158015611546573d6000803e3d6000fd5b505050506040513d601f19601f8201168201806040525081019061156a9190614b0c565b90506115746131e3565b73ffffffffffffffffffffffffffffffffffffffff16634739a2ba8360040154836040518363ffffffff1660e01b81526004016115b2929190614ace565b60006040518083038186803b1580156115ca57600080fd5b505afa1580156115de573d6000803e3d6000fd5b50505050808260040181905550505050505050565b60006115fe81612f7e565b6000600d60008873ffffffffffffffffffffffffffffffffffffffff1673ffffffffffffffffffffffffffffffffffffffff1681526020019081526020016000206000600b60008a73ffffffffffffffffffffffffffffffffffffffff1673ffffffffffffffffffffffffffffffffffffffff1681526020019081526020016000205481526020019081526020016000209050600061169c88612e60565b90508173__$2c466dad8fece1fcf22cff368d182be371$__63eabf117b90916116c36131e3565b848b8b8b8b6040518863ffffffff1660e01b81526004016116ea9796959493929190614c1a565b60006040518083038186803b15801561170257600080fd5b505af4158015611716573d6000803e3d6000fd5b505050505050505050505050565b600260009054906101000a900473ffffffffffffffffffffffffffffffffffffffff1681565b600061175581612f7e565b600061176086612e60565b905061176a6131e3565b73ffffffffffffffffffffffffffffffffffffffff16634739a2ba8260040154856040518363ffffffff1660e01b81526004016117a8929190614ace565b60006040518083038186803b1580156117c057600080fd5b505afa1580156117d4573d6000803e3d6000fd5b505050508281600401819055506000600d60008873ffffffffffffffffffffffffffffffffffffffff1673ffffffffffffffffffffffffffffffffffffffff1681526020019081526020016000206000600b60008a73ffffffffffffffffffffffffffffffffffffffff1673ffffffffffffffffffffffffffffffffffffffff168152602001908152602001600020548152602001908152602001600020905061187c6131e3565b73ffffffffffffffffffffffffffffffffffffffff16634739a2ba8260030154886040518363ffffffff1660e01b81526004016118ba929190614ace565b60006040518083038186803b1580156118d257600080fd5b505afa1580156118e6573d6000803e3d6000fd5b505050506118f26131e3565b73ffffffffffffffffffffffffffffffffffffffff16634739a2ba6000836002015412611923578260020154611954565b7fffffffffffffffffffffffffffffffffffffffffffffffffffffffffffffffff83600201546119539190614813565b5b60008812611962578761198f565b7fffffffffffffffffffffffffffffffffffffffffffffffffffffffffffffffff8861198e9190614813565b5b6040518363ffffffff1660e01b81526004016119ac929190614ace565b60006040518083038186803b1580156119c457600080fd5b505afa1580156119d8573d6000803e3d6000fd5b5050505085816003018190555084816002018190555050505050505050565b600260149054906101000a900460ff16611a3d576040517f931b485800000000000000000000000000000000000000000000000000000000815260040160405180910390fd5b611a498383338461332f565b505050565b600260149054906101000a900460ff16611a94576040517f931b485800000000000000000000000000000000000000000000000000000000815260040160405180910390fd5b611aa08282333361332f565b5050565b611aad336138c9565b670de0b6b3a764000082611ac19190614c89565b60036002018190555085600360000160006101000a81548173ffffffffffffffffffffffffffffffffffffffff021916908373ffffffffffffffffffffffffffffffffffffffff16021790555080600380018190555084600360050160006101000a81548173ffffffffffffffffffffffffffffffffffffffff021916908373ffffffffffffffffffffffffffffffffffffffff16021790555083600360060160006101000a81548173ffffffffffffffffffffffffffffffffffffffff021916908373ffffffffffffffffffffffffffffffffffffffff16021790555082600360040160006101000a81548173ffffffffffffffffffffffffffffffffffffffff021916908373ffffffffffffffffffffffffffffffffffffffff160217905550505050505050565b600a602052816000526040600020602052806000526040600020600091509150508060000154908060010154908060020154908060030160009054906101000a900460ff16908060030160019054906101000a900460ff16908060040154905086565b600260149054906101000a900460ff16611c94576040517f931b485800000000000000000000000000000000000000000000000000000000815260040160405180910390fd5b611ca0828233336125c2565b5050565b600260149054906101000a900460ff16611cea576040517f931b485800000000000000000000000000000000000000000000000000000000815260040160405180910390fd5b806003800154600d60008373ffffffffffffffffffffffffffffffffffffffff1673ffffffffffffffffffffffffffffffffffffffff1681526020019081526020016000206000600b60008573ffffffffffffffffffffffffffffffffffffffff1673ffffffffffffffffffffffffffffffffffffffff1681526020019081526020016000205481526020019081526020016000206001015442611d8e91906147df565b1015611e185780600b60008373ffffffffffffffffffffffffffffffffffffffff1673ffffffffffffffffffffffffffffffffffffffff1681526020019081526020016000205460038001546040517f8d4f5c4a000000000000000000000000000000000000000000000000000000008152600401611e0f93929190614b99565b60405180910390fd5b6000611e2383612e60565b9050611e338184600160026139c4565b6000808473ffffffffffffffffffffffffffffffffffffffff1673__$b104b1c07e3a5deb7e0a41fec4e7a5229d$__63326f3e639091600360040160009054906101000a900473ffffffffffffffffffffffffffffffffffffffff16600d60008a73ffffffffffffffffffffffffffffffffffffffff1673ffffffffffffffffffffffffffffffffffffffff1681526020019081526020016000206000600b60008c73ffffffffffffffffffffffffffffffffffffffff1673ffffffffffffffffffffffffffffffffffffffff16815260200190815260200160002054815260200190815260200160002060037f0000000000000000000000000000000000000000000000000000000000000000896040518763ffffffff1660e01b8152600401611f6396959493929190614fa4565b6040805180830381865af4158015611f7f573d6000803e3d6000fd5b505050506040513d601f19601f82011682018060405250810190611fa39190615008565b915091508473ffffffffffffffffffffffffffffffffffffffff167f5dc96537cbae524775a674b6a810d9a1ba04a9e279f172d156b352151394677a8383604051611fef929190614ace565b60405180910390a25050505050565b61200733613b0b565b600b60008773ffffffffffffffffffffffffffffffffffffffff1673ffffffffffffffffffffffffffffffffffffffff16815260200190815260200160002054821161209257600b60008773ffffffffffffffffffffffffffffffffffffffff1673ffffffffffffffffffffffffffffffffffffffff168152602001908152602001600020546120df565b6001600b60008873ffffffffffffffffffffffffffffffffffffffff1673ffffffffffffffffffffffffffffffffffffffff168152602001908152602001600020546120de9190615048565b5b600b60008873ffffffffffffffffffffffffffffffffffffffff1673ffffffffffffffffffffffffffffffffffffffff16815260200190815260200160002081905550600061212d87612e60565b90506000806003811115612144576121436145da565b5b8260030160019054906101000a900460ff166003811115612168576121676145da565b5b141580156121ac575060006003811115612185576121846145da565b5b856003811115612198576121976145da565b5b60038111156121aa576121a96145da565b5b145b90508173__$238d303093cb72ee6c89903e9289b96445$__63902160d99091898989886040518663ffffffff1660e01b81526004016121ef95949392919061509e565b60006040518083038186803b15801561220757600080fd5b505af415801561221b573d6000803e3d6000fd5b5050505060016003811115612233576122326145da565b5b856003811115612246576122456145da565b5b6003811115612258576122576145da565b5b036122f55742600d60008a73ffffffffffffffffffffffffffffffffffffffff1673ffffffffffffffffffffffffffffffffffffffff1681526020019081526020016000206000600b60008c73ffffffffffffffffffffffffffffffffffffffff1673ffffffffffffffffffffffffffffffffffffffff168152602001908152602001600020548152602001908152602001600020600001819055505b80156123935742600d60008a73ffffffffffffffffffffffffffffffffffffffff1673ffffffffffffffffffffffffffffffffffffffff1681526020019081526020016000206000600b60008c73ffffffffffffffffffffffffffffffffffffffff1673ffffffffffffffffffffffffffffffffffffffff168152602001908152602001600020548152602001908152602001600020600101819055505b8773ffffffffffffffffffffffffffffffffffffffff167fd34a348d268737f5e75afa7c7fc24fc2f9f735a327855f1470134f75ead7d6c9846040516123d991906140d3565b60405180910390a25050505050505050565b600160009054906101000a900473ffffffffffffffffffffffffffffffffffffffff1681565b600073ffffffffffffffffffffffffffffffffffffffff16600260009054906101000a900473ffffffffffffffffffffffffffffffffffffffff1673ffffffffffffffffffffffffffffffffffffffff16141580156124be5750600260009054906101000a900473ffffffffffffffffffffffffffffffffffffffff1673ffffffffffffffffffffffffffffffffffffffff163373ffffffffffffffffffffffffffffffffffffffff1614155b80156124ce57506124cd6113a3565b5b1561253457600160009054906101000a900473ffffffffffffffffffffffffffffffffffffffff16336040517fc21bbf9d00000000000000000000000000000000000000000000000000000000815260040161252b929190614b70565b60405180910390fd5b80600260006101000a81548173ffffffffffffffffffffffffffffffffffffffff021916908373ffffffffffffffffffffffffffffffffffffffff1602179055506000806101000a81549073ffffffffffffffffffffffffffffffffffffffff021916905550565b6125a5336138c9565b6001600260146101000a81548160ff021916908315150217905550565b8073ffffffffffffffffffffffffffffffffffffffff168273ffffffffffffffffffffffffffffffffffffffff16146126c65782600e60008673ffffffffffffffffffffffffffffffffffffffff1673ffffffffffffffffffffffffffffffffffffffff16815260200190815260200160002060008373ffffffffffffffffffffffffffffffffffffffff1673ffffffffffffffffffffffffffffffffffffffff16815260200190815260200160002060008473ffffffffffffffffffffffffffffffffffffffff1673ffffffffffffffffffffffffffffffffffffffff16815260200190815260200160002060008282546126be91906147df565b925050819055505b60006126d185612e60565b9050600060038111156126e7576126e66145da565b5b8160030160019054906101000a900460ff16600381111561270b5761270a6145da565b5b1415801561274f575060016003811115612728576127276145da565b5b8160030160019054906101000a900460ff16600381111561274c5761274b6145da565b5b14155b156127b657848160030160019054906101000a900460ff166003811115612779576127786145da565b5b6040517fee164d620000000000000000000000000000000000000000000000000000000081526004016127ad929190614787565b60405180910390fd5b6127c08582612b16565b6000600b60008773ffffffffffffffffffffffffffffffffffffffff1673ffffffffffffffffffffffffffffffffffffffff1681526020019081526020016000205490506000600c60008873ffffffffffffffffffffffffffffffffffffffff1673ffffffffffffffffffffffffffffffffffffffff16815260200190815260200160002060008573ffffffffffffffffffffffffffffffffffffffff1673ffffffffffffffffffffffffffffffffffffffff1681526020019081526020016000206000838152602001908152602001600020905085816000015410156128e657868682600001546040517f56a7796a0000000000000000000000000000000000000000000000000000000081526004016128dd93929190614b99565b60405180910390fd5b60006129d58260405180606001604052908160008201548152602001600182015481526020016002820160009054906101000a900460ff161515151581525050856040518060c00160405290816000820154815260200160018201548152602001600282015481526020016003820160009054906101000a900460ff166002811115612975576129746145da565b5b6002811115612987576129866145da565b5b81526020016003820160019054906101000a900460ff1660038111156129b0576129af6145da565b5b60038111156129c2576129c16145da565b5b8152602001600482015481525050612d56565b90506000811180156129e75750600087115b15612b0c578682600001546129fc91906147df565b8260000181905550612a2f86888a73ffffffffffffffffffffffffffffffffffffffff16612ef89092919063ffffffff16565b612a3f8682866001015485612d93565b8773ffffffffffffffffffffffffffffffffffffffff168673ffffffffffffffffffffffffffffffffffffffff167fd3208fd5300db64b97bc442f47ade72b7ebcd9272aaecdcc04c777bb762861b98584604051612a9e929190614ace565b60405180910390a38773ffffffffffffffffffffffffffffffffffffffff168673ffffffffffffffffffffffffffffffffffffffff167fd8654fcc8cf5b36d30b3f5e4688fc78118e6d68de60b9994e09902268b57c3e389604051612b0391906140d3565b60405180910390a35b5050505050505050565b60006002811115612b2a57612b296145da565b5b8160030160009054906101000a900460ff166002811115612b4e57612b4d6145da565b5b03612b9057816040517f3dc34651000000000000000000000000000000000000000000000000000000008152600401612b8791906144cb565b60405180910390fd5b600042905060016003811115612ba957612ba86145da565b5b8260030160019054906101000a900460ff166003811115612bcd57612bcc6145da565b5b14612c6857600d60008473ffffffffffffffffffffffffffffffffffffffff1673ffffffffffffffffffffffffffffffffffffffff1681526020019081526020016000206000600b60008673ffffffffffffffffffffffffffffffffffffffff1673ffffffffffffffffffffffffffffffffffffffff1681526020019081526020016000205481526020019081526020016000206001015490505b60008373ffffffffffffffffffffffffffffffffffffffff166370a08231306040518263ffffffff1660e01b8152600401612ca391906144cb565b602060405180830381865afa158015612cc0573d6000803e3d6000fd5b505050506040513d601f19601f82011682018060405250810190612ce49190614b0c565b90506000811115612d475760008360040154846000015484612d0691906147df565b612d109190614c89565b90508164e8d4a5100082612d249190614c89565b612d2e9190614a16565b8460010154612d3d9190615048565b8460010181905550505b81836000018190555050505050565b6000826020015164e8d4a5100083602001518560000151612d779190614c89565b612d819190614a16565b612d8b91906147df565b905092915050565b7f000000000000000000000000000000000000000000000000000000000000000073ffffffffffffffffffffffffffffffffffffffff166340c10f1985856040518363ffffffff1660e01b8152600401612dee929190614787565b6020604051808303816000875af1158015612e0d573d6000803e3d6000fd5b505050506040513d601f19601f82011682018060405250810190612e319190614a5c565b5064e8d4a51000828260000154612e489190614c89565b612e529190614a16565b816001018190555050505050565b6000600a60008373ffffffffffffffffffffffffffffffffffffffff1673ffffffffffffffffffffffffffffffffffffffff1681526020019081526020016000206000600b60008573ffffffffffffffffffffffffffffffffffffffff1673ffffffffffffffffffffffffffffffffffffffff1681526020019081526020016000205481526020019081526020016000209050919050565b612f798363a9059cbb60e01b8484604051602401612f17929190614787565b604051602081830303815290604052907bffffffffffffffffffffffffffffffffffffffffffffffffffffffff19166020820180517bffffffffffffffffffffffffffffffffffffffffffffffffffffffff8381831617835250505050613ca8565b505050565b6000600260009054906101000a900473ffffffffffffffffffffffffffffffffffffffff1673ffffffffffffffffffffffffffffffffffffffff1663b7ebc23b336040518263ffffffff1660e01b8152600401612fdb91906144cb565b602060405180830381865afa158015612ff8573d6000803e3d6000fd5b505050506040513d601f19601f8201168201806040525081019061301c9190614a5c565b905080156130b55760008054906101000a900473ffffffffffffffffffffffffffffffffffffffff1673ffffffffffffffffffffffffffffffffffffffff1663ad64d6cb60006040518263ffffffff1660e01b815260040161307e919061438a565b600060405180830381600087803b15801561309857600080fd5b505af11580156130ac573d6000803e3d6000fd5b505050506131df565b6130bd6113a3565b156131de5760008054906101000a900473ffffffffffffffffffffffffffffffffffffffff1673ffffffffffffffffffffffffffffffffffffffff1663ad64d6cb60016040518263ffffffff1660e01b815260040161311c919061438a565b600060405180830381600087803b15801561313657600080fd5b505af115801561314a573d6000803e3d6000fd5b5050505060008054906101000a900473ffffffffffffffffffffffffffffffffffffffff1673ffffffffffffffffffffffffffffffffffffffff166398f112413330856040518463ffffffff1660e01b81526004016131ab939291906150f1565b600060405180830381600087803b1580156131c557600080fd5b505af11580156131d9573d6000803e3d6000fd5b505050505b5b5050565b60008073ffffffffffffffffffffffffffffffffffffffff1660008054906101000a900473ffffffffffffffffffffffffffffffffffffffff1673ffffffffffffffffffffffffffffffffffffffff160361330957600260009054906101000a900473ffffffffffffffffffffffffffffffffffffffff1673ffffffffffffffffffffffffffffffffffffffff16632317beae6040518163ffffffff1660e01b8152600401602060405180830381865afa1580156132a5573d6000803e3d6000fd5b505050506040513d601f19601f820116820180604052508101906132c9919061513d565b6000806101000a81548173ffffffffffffffffffffffffffffffffffffffff021916908373ffffffffffffffffffffffffffffffffffffffff1602179055505b60008054906101000a900473ffffffffffffffffffffffffffffffffffffffff16905090565b600061333a85612e60565b9050600160038111156133505761334f6145da565b5b8160030160019054906101000a900460ff166003811115613374576133736145da565b5b146133db57848160030160019054906101000a900460ff16600381111561339e5761339d6145da565b5b6040517fee164d620000000000000000000000000000000000000000000000000000000081526004016133d2929190614787565b60405180910390fd5b6133e58582612b16565b6000600b60008773ffffffffffffffffffffffffffffffffffffffff1673ffffffffffffffffffffffffffffffffffffffff1681526020019081526020016000205490506000600c60008873ffffffffffffffffffffffffffffffffffffffff1673ffffffffffffffffffffffffffffffffffffffff16815260200190815260200160002060008573ffffffffffffffffffffffffffffffffffffffff1673ffffffffffffffffffffffffffffffffffffffff1681526020019081526020016000206000838152602001908152602001600020905060006135a98260405180606001604052908160008201548152602001600182015481526020016002820160009054906101000a900460ff161515151581525050856040518060c00160405290816000820154815260200160018201548152602001600282015481526020016003820160009054906101000a900460ff166002811115613549576135486145da565b5b600281111561355b5761355a6145da565b5b81526020016003820160019054906101000a900460ff166003811115613584576135836145da565b5b6003811115613596576135956145da565b5b8152602001600482015481525050612d56565b90506000811115613654577f000000000000000000000000000000000000000000000000000000000000000073ffffffffffffffffffffffffffffffffffffffff166340c10f1986836040518363ffffffff1660e01b815260040161360f929190614787565b6020604051808303816000875af115801561362e573d6000803e3d6000fd5b505050506040513d601f19601f820116820180604052508101906136529190614a5c565b505b6136818630898b73ffffffffffffffffffffffffffffffffffffffff16613d66909392919063ffffffff16565b60008873ffffffffffffffffffffffffffffffffffffffff166370a08231306040518263ffffffff1660e01b81526004016136bc91906144cb565b602060405180830381865afa1580156136d9573d6000803e3d6000fd5b505050506040513d601f19601f820116820180604052508101906136fd9190614b0c565b905087836000015461370f9190615048565b83600001819055506001600281111561372b5761372a6145da565b5b8560030160009054906101000a900460ff16600281111561374f5761374e6145da565b5b14801561375f5750846002015481115b156138295760028560030160016101000a81548160ff0219169083600381111561378c5761378b6145da565b5b021790555042600d60008b73ffffffffffffffffffffffffffffffffffffffff1673ffffffffffffffffffffffffffffffffffffffff1681526020019081526020016000206000600b60008d73ffffffffffffffffffffffffffffffffffffffff1673ffffffffffffffffffffffffffffffffffffffff168152602001908152602001600020548152602001908152602001600020600101819055505b64e8d4a51000856001015484600001546138439190614c89565b61384d9190614a16565b83600101819055508873ffffffffffffffffffffffffffffffffffffffff168673ffffffffffffffffffffffffffffffffffffffff167f5dac0c1b1112564a045ba943c9d50270893e8e826c49be8e7073adc713ab7bd785600001546040516138b691906140d3565b60405180910390a3505050505050505050565b6138d16113a3565b80156139765750600260009054906101000a900473ffffffffffffffffffffffffffffffffffffffff1673ffffffffffffffffffffffffffffffffffffffff1663b7ebc23b826040518263ffffffff1660e01b815260040161393391906144cb565b602060405180830381865afa158015613950573d6000803e3d6000fd5b505050506040513d601f19601f820116820180604052508101906139749190614a5c565b155b156139c1576139836113a3565b816040517f64218e390000000000000000000000000000000000000000000000000000000081526004016139b892919061516a565b60405180910390fd5b50565b600160028111156139d8576139d76145da565b5b8460030160009054906101000a900460ff1660028111156139fc576139fb6145da565b5b14613a7757828460030160009054906101000a900460ff166002811115613a2657613a256145da565b5b836002811115613a3957613a386145da565b5b6040517f881315bb000000000000000000000000000000000000000000000000000000008152600401613a6e93929190614b99565b60405180910390fd5b60026003811115613a8b57613a8a6145da565b5b8460030160019054906101000a900460ff166003811115613aaf57613aae6145da565b5b14613b055782816003811115613ac857613ac76145da565b5b6040517fee164d62000000000000000000000000000000000000000000000000000000008152600401613afc929190614787565b60405180910390fd5b50505050565b6000600260009054906101000a900473ffffffffffffffffffffffffffffffffffffffff1673ffffffffffffffffffffffffffffffffffffffff166301e179dc6040518163ffffffff1660e01b8152600401606060405180830381865afa158015613b7a573d6000803e3d6000fd5b505050506040513d601f19601f82011682018060405250810190613b9e9190615193565b92505050613baa6113a3565b8015613c5057508073ffffffffffffffffffffffffffffffffffffffff166331de34696040518163ffffffff1660e01b8152600401602060405180830381865afa158015613bfc573d6000803e3d6000fd5b505050506040513d601f19601f82011682018060405250810190613c20919061513d565b73ffffffffffffffffffffffffffffffffffffffff168273ffffffffffffffffffffffffffffffffffffffff1614155b15613c9b57613c5d6113a3565b826040517f64218e39000000000000000000000000000000000000000000000000000000008152600401613c9292919061516a565b60405180910390fd5b613ca4826138c9565b5050565b6000613d0a826040518060400160405280602081526020017f5361666545524332303a206c6f772d6c6576656c2063616c6c206661696c65648152508573ffffffffffffffffffffffffffffffffffffffff16613def9092919063ffffffff16565b9050600081511115613d615780806020019051810190613d2a9190614a5c565b613d60576040517fa479450200000000000000000000000000000000000000000000000000000000815260040160405180910390fd5b5b505050565b613de9846323b872dd60e01b858585604051602401613d87939291906151e6565b604051602081830303815290604052907bffffffffffffffffffffffffffffffffffffffffffffffffffffffff19166020820180517bffffffffffffffffffffffffffffffffffffffffffffffffffffffff8381831617835250505050613ca8565b50505050565b6060613dfe8484600085613e07565b90509392505050565b606082471015613e505747836040517f02de226f000000000000000000000000000000000000000000000000000000008152600401613e47929190614ace565b60405180910390fd5b613e5985613f21565b613e9a57846040517f8a8b41ec000000000000000000000000000000000000000000000000000000008152600401613e9191906144cb565b60405180910390fd5b6000808673ffffffffffffffffffffffffffffffffffffffff168587604051613ec39190615297565b60006040518083038185875af1925050503d8060008114613f00576040519150601f19603f3d011682016040523d82523d6000602084013e613f05565b606091505b5091509150613f15828286613f44565b92505050949350505050565b6000808273ffffffffffffffffffffffffffffffffffffffff163b119050919050565b60608315613f5457829050613fa4565b600083511115613f675782518084602001fd5b816040517f08c379a0000000000000000000000000000000000000000000000000000000008152600401613f9b9190615314565b60405180910390fd5b9392505050565b600080fd5b600073ffffffffffffffffffffffffffffffffffffffff82169050919050565b6000613fdb82613fb0565b9050919050565b613feb81613fd0565b8114613ff657600080fd5b50565b60008135905061400881613fe2565b92915050565b6000819050919050565b6140218161400e565b811461402c57600080fd5b50565b60008135905061403e81614018565b92915050565b60008060006060848603121561405d5761405c613fab565b5b600061406b86828701613ff9565b935050602061407c8682870161402f565b925050604061408d86828701613ff9565b9150509250925092565b6000602082840312156140ad576140ac613fab565b5b60006140bb84828501613ff9565b91505092915050565b6140cd8161400e565b82525050565b60006020820190506140e860008301846140c4565b92915050565b6000806040838503121561410557614104613fab565b5b600061411385828601613ff9565b92505060206141248582860161402f565b9150509250929050565b60008060006060848603121561414757614146613fab565b5b600061415586828701613ff9565b935050602061416686828701613ff9565b92505060406141778682870161402f565b9150509250925092565b60008115159050919050565b61419681614181565b82525050565b60006060820190506141b160008301866140c4565b6141be60208301856140c4565b6141cb604083018461418d565b949350505050565b6000819050919050565b6141e6816141d3565b82525050565b600060a08201905061420160008301886140c4565b61420e60208301876140c4565b61421b60408301866141dd565b61422860608301856140c4565b614235608083018461418d565b9695505050505050565b6000819050919050565b600061426461425f61425a84613fb0565b61423f565b613fb0565b9050919050565b600061427682614249565b9050919050565b60006142888261426b565b9050919050565b6142988161427d565b82525050565b60006020820190506142b3600083018461428f565b92915050565b6000806000606084860312156142d2576142d1613fab565b5b60006142e086828701613ff9565b93505060206142f186828701613ff9565b925050604061430286828701613ff9565b9150509250925092565b61431581613fd0565b82525050565b600060e082019050614330600083018a61430c565b61433d60208301896140c4565b61434a60408301886140c4565b61435760608301876140c4565b614364608083018661430c565b61437160a083018561430c565b61437e60c083018461430c565b98975050505050505050565b600060208201905061439f600083018461418d565b92915050565b6000806000606084860312156143be576143bd613fab565b5b60006143cc86828701613ff9565b93505060206143dd8682870161402f565b92505060406143ee8682870161402f565b9150509250925092565b614401816141d3565b811461440c57600080fd5b50565b60008135905061441e816143f8565b92915050565b61442d81614181565b811461443857600080fd5b50565b60008135905061444a81614424565b92915050565b600080600080600060a0868803121561446c5761446b613fab565b5b600061447a88828901613ff9565b955050602061448b8882890161402f565b945050604061449c8882890161440f565b93505060606144ad8882890161443b565b92505060806144be8882890161402f565b9150509295509295909350565b60006020820190506144e0600083018461430c565b92915050565b60008060008060808587031215614500576144ff613fab565b5b600061450e87828801613ff9565b945050602061451f8782880161402f565b93505060406145308782880161440f565b92505060606145418782880161402f565b91505092959194509250565b60008060008060008060c0878903121561456a57614569613fab565b5b600061457889828a01613ff9565b965050602061458989828a01613ff9565b955050604061459a89828a01613ff9565b94505060606145ab89828a01613ff9565b93505060806145bc89828a0161402f565b92505060a06145cd89828a0161402f565b9150509295509295509295565b7f4e487b7100000000000000000000000000000000000000000000000000000000600052602160045260246000fd5b6003811061461a576146196145da565b5b50565b600081905061462b82614609565b919050565b600061463b8261461d565b9050919050565b61464b81614630565b82525050565b60048110614662576146616145da565b5b50565b600081905061467382614651565b919050565b600061468382614665565b9050919050565b61469381614678565b82525050565b600060c0820190506146ae60008301896140c4565b6146bb60208301886140c4565b6146c860408301876140c4565b6146d56060830186614642565b6146e2608083018561468a565b6146ef60a08301846140c4565b979650505050505050565b60008060008060008060c0878903121561471757614716613fab565b5b600061472589828a01613ff9565b965050602061473689828a0161402f565b955050604061474789828a0161402f565b945050606061475889828a0161402f565b935050608061476989828a0161402f565b92505060a061477a89828a0161402f565b9150509295509295509295565b600060408201905061479c600083018561430c565b6147a960208301846140c4565b9392505050565b7f4e487b7100000000000000000000000000000000000000000000000000000000600052601160045260246000fd5b60006147ea8261400e565b91506147f58361400e565b925082821015614808576148076147b0565b5b828203905092915050565b600061481e826141d3565b9150614829836141d3565b9250827f7fffffffffffffffffffffffffffffffffffffffffffffffffffffffffffffff0482116000841360008413161615614868576148676147b0565b5b817f800000000000000000000000000000000000000000000000000000000000000005831260008412600084131616156148a5576148a46147b0565b5b827f800000000000000000000000000000000000000000000000000000000000000005821260008413600084121616156148e2576148e16147b0565b5b827f7fffffffffffffffffffffffffffffffffffffffffffffffffffffffffffffff058212600084126000841216161561491f5761491e6147b0565b5b828202905092915050565b600060408201905061493f60008301856141dd565b61494c60208301846141dd565b9392505050565b600061495e826141d3565b9150614969836141d3565b9250817f7fffffffffffffffffffffffffffffffffffffffffffffffffffffffffffffff038313600083121516156149a4576149a36147b0565b5b817f80000000000000000000000000000000000000000000000000000000000000000383126000831216156149dc576149db6147b0565b5b828201905092915050565b7f4e487b7100000000000000000000000000000000000000000000000000000000600052601260045260246000fd5b6000614a218261400e565b9150614a2c8361400e565b925082614a3c57614a3b6149e7565b5b828204905092915050565b600081519050614a5681614424565b92915050565b600060208284031215614a7257614a71613fab565b5b6000614a8084828501614a47565b91505092915050565b6000608082019050614a9e600083018761430c565b614aab60208301866140c4565b614ab860408301856140c4565b614ac560608301846141dd565b95945050505050565b6000604082019050614ae360008301856140c4565b614af060208301846140c4565b9392505050565b600081519050614b0681614018565b92915050565b600060208284031215614b2257614b21613fab565b5b6000614b3084828501614af7565b91505092915050565b6000606082019050614b4e600083018661430c565b614b5b60208301856140c4565b614b68604083018461430c565b949350505050565b6000604082019050614b85600083018561430c565b614b92602083018461430c565b9392505050565b6000606082019050614bae600083018661430c565b614bbb60208301856140c4565b614bc860408301846140c4565b949350505050565b8082525050565b614be08161427d565b82525050565b8082525050565b614bf68161400e565b82525050565b614c05816141d3565b82525050565b614c1481614181565b82525050565b600060e082019050614c2f600083018a614bd0565b614c3c6020830189614bd7565b614c496040830188614be6565b614c566060830187614bed565b614c636080830186614bfc565b614c7060a0830185614c0b565b614c7d60c0830184614bed565b98975050505050505050565b6000614c948261400e565b9150614c9f8361400e565b9250817fffffffffffffffffffffffffffffffffffffffffffffffffffffffffffffffff0483118215151615614cd857614cd76147b0565b5b828202905092915050565b614cec81613fd0565b82525050565b6000614cfd8261426b565b9050919050565b614d0d81614cf2565b82525050565b60008160001c9050919050565b6000819050919050565b6000614d3d614d3883614d13565b614d20565b9050919050565b614d4d8161400e565b82525050565b6000819050919050565b6000614d70614d6b83614d13565b614d53565b9050919050565b614d80816141d3565b82525050565b600060ff82169050919050565b6000614da6614da183614d13565b614d86565b9050919050565b614db681614181565b82525050565b60a082016000808301549050614dd181614d2a565b614dde6000860182614d44565b5060018301549050614def81614d2a565b614dfc6020860182614d44565b5060028301549050614e0d81614d5d565b614e1a6040860182614d77565b5060038301549050614e2b81614d2a565b614e386060860182614d44565b5060048301549050614e4981614d93565b614e566080860182614dad565b5050505050565b600073ffffffffffffffffffffffffffffffffffffffff82169050919050565b6000614e90614e8b83614d13565b614e5d565b9050919050565b614ea081613fd0565b82525050565b60e082016000808301549050614ebb81614e7d565b614ec86000860182614e97565b5060018301549050614ed981614d2a565b614ee66020860182614d44565b5060028301549050614ef781614d2a565b614f046040860182614d44565b5060038301549050614f1581614d2a565b614f226060860182614d44565b5060048301549050614f3381614e7d565b614f406080860182614e97565b5060058301549050614f5181614e7d565b614f5e60a0860182614e97565b5060068301549050614f6f81614e7d565b614f7c60c0860182614e97565b5050505050565b6000614f8e8261426b565b9050919050565b614f9e81614f83565b82525050565b600061020082019050614fba6000830189614ce3565b614fc76020830188614d04565b614fd46040830187614dbc565b614fe160e0830186614ea6565b614fef6101c0830185614f95565b614ffd6101e0830184614be6565b979650505050505050565b6000806040838503121561501f5761501e613fab565b5b600061502d85828601614af7565b925050602061503e85828601614af7565b9150509250929050565b60006150538261400e565b915061505e8361400e565b9250827fffffffffffffffffffffffffffffffffffffffffffffffffffffffffffffffff03821115615093576150926147b0565b5b828201905092915050565b600060a0820190506150b36000830188614be6565b6150c06020830187614bed565b6150cd6040830186614bed565b6150da6060830185614bed565b6150e76080830184614bed565b9695505050505050565b6000606082019050615106600083018661430c565b615113602083018561430c565b615120604083018461418d565b949350505050565b60008151905061513781613fe2565b92915050565b60006020828403121561515357615152613fab565b5b600061516184828501615128565b91505092915050565b600060408201905061517f600083018561418d565b61518c602083018461430c565b9392505050565b6000806000606084860312156151ac576151ab613fab565b5b60006151ba86828701614af7565b93505060206151cb86828701614af7565b92505060406151dc86828701615128565b9150509250925092565b60006060820190506151fb600083018661430c565b615208602083018561430c565b61521560408301846140c4565b949350505050565b600081519050919050565b600081905092915050565b60005b83811015615251578082015181840152602081019050615236565b83811115615260576000848401525b50505050565b60006152718261521d565b61527b8185615228565b935061528b818560208601615233565b80840191505092915050565b60006152a38284615266565b915081905092915050565b600081519050919050565b600082825260208201905092915050565b6000601f19601f8301169050919050565b60006152e6826152ae565b6152f081856152b9565b9350615300818560208601615233565b615309816152ca565b840191505092915050565b6000602082019050818103600083015261532e81846152db565b90509291505056fea26469706673582212204518336e84dad6d267386ffc6c3b016eff1c8778cfd2306625fd623f24b924f764736f6c634300080d0033",
  "linkReferences": {
    "contracts/Limbo.sol": {
      "CrossingLib": [
        {
          "length": 20,
          "start": 6803
        }
      ],
      "MigrationLib": [
        {
          "length": 20,
          "start": 8769
        }
      ],
      "SoulLib": [
        {
          "length": 20,
          "start": 9635
        }
      ]
    }
  },
  "deployedLinkReferences": {
    "contracts/Limbo.sol": {
      "CrossingLib": [
        {
          "length": 20,
          "start": 5793
        }
      ],
      "MigrationLib": [
        {
          "length": 20,
          "start": 7759
        }
      ],
      "SoulLib": [
        {
          "length": 20,
          "start": 8625
        }
      ]
    }
  }
}