{
  "_format": "hh-sol-artifact-1",
  "contractName": "Limbo",
  "sourceName": "contracts/Limbo.sol",
  "abi": [
    {
      "inputs": [
        {
          "internalType": "address",
          "name": "flan",
          "type": "address"
        },
        {
          "internalType": "address",
          "name": "limboDAO",
          "type": "address"
        }
      ],
      "stateMutability": "nonpayable",
      "type": "constructor"
    },
    {
      "inputs": [
        {
          "internalType": "address",
          "name": "configurationLord",
          "type": "address"
        },
        {
          "internalType": "address",
          "name": "msg_sender",
          "type": "address"
        }
      ],
      "name": "AccessDenied",
      "type": "error"
    },
    {
      "inputs": [
        {
          "internalType": "address",
          "name": "expectedDAO",
          "type": "address"
        },
        {
          "internalType": "address",
          "name": "actualDAO",
          "type": "address"
        }
      ],
      "name": "BackrunDetected",
      "type": "error"
    },
    {
      "inputs": [
        {
          "internalType": "address",
          "name": "token",
          "type": "address"
        },
        {
          "internalType": "uint256",
          "name": "index",
          "type": "uint256"
        }
      ],
      "name": "BonusClaimed",
      "type": "error"
    },
    {
      "inputs": [
        {
          "internalType": "int256",
          "name": "accFlanPerTeraToken",
          "type": "int256"
        },
        {
          "internalType": "int256",
          "name": "bonusDelta",
          "type": "int256"
        }
      ],
      "name": "CrossingBonusInvariant",
      "type": "error"
    },
    {
      "inputs": [
        {
          "internalType": "address",
          "name": "token",
          "type": "address"
        },
        {
          "internalType": "uint256",
          "name": "amount",
          "type": "uint256"
        },
        {
          "internalType": "uint256",
          "name": "staked",
          "type": "uint256"
        }
      ],
      "name": "ExcessiveWithdrawalRequest",
      "type": "error"
    },
    {
      "inputs": [
        {
          "internalType": "address",
          "name": "token",
          "type": "address"
        },
        {
          "internalType": "uint256",
          "name": "index",
          "type": "uint256"
        },
        {
          "internalType": "uint256",
          "name": "staked",
          "type": "uint256"
        },
        {
          "internalType": "int256",
          "name": "finalFlanPerTeraToken",
          "type": "int256"
        }
      ],
      "name": "FlanBonusMustBePositive",
      "type": "error"
    },
    {
      "inputs": [
        {
          "internalType": "bool",
          "name": "configured",
          "type": "bool"
        },
        {
          "internalType": "address",
          "name": "proposal",
          "type": "address"
        }
      ],
      "name": "GovernanceActionFailed",
      "type": "error"
    },
    {
      "inputs": [
        {
          "internalType": "uint256",
          "name": "balance",
          "type": "uint256"
        },
        {
          "internalType": "uint256",
          "name": "value",
          "type": "uint256"
        }
      ],
      "name": "InsufficinetFunds",
      "type": "error"
    },
    {
      "inputs": [
        {
          "internalType": "address",
          "name": "token",
          "type": "address"
        }
      ],
      "name": "InvalidSoul",
      "type": "error"
    },
    {
      "inputs": [
        {
          "internalType": "address",
          "name": "token",
          "type": "address"
        },
        {
          "internalType": "uint256",
          "name": "state",
          "type": "uint256"
        }
      ],
      "name": "InvalidSoulState",
      "type": "error"
    },
    {
      "inputs": [
        {
          "internalType": "address",
          "name": "token",
          "type": "address"
        },
        {
          "internalType": "uint256",
          "name": "actualType",
          "type": "uint256"
        },
        {
          "internalType": "uint256",
          "name": "expectedType",
          "type": "uint256"
        }
      ],
      "name": "InvalidSoulType",
      "type": "error"
    },
    {
      "inputs": [
        {
          "internalType": "address",
          "name": "token",
          "type": "address"
        },
        {
          "internalType": "uint256",
          "name": "index",
          "type": "uint256"
        },
        {
          "internalType": "uint256",
          "name": "migrationDelay",
          "type": "uint256"
        }
      ],
      "name": "MigrationCoolDownActive",
      "type": "error"
    },
    {
      "inputs": [
        {
          "internalType": "address",
          "name": "EOA",
          "type": "address"
        }
      ],
      "name": "NotAContract",
      "type": "error"
    },
    {
      "inputs": [],
      "name": "OperationFailure",
      "type": "error"
    },
    {
      "inputs": [],
      "name": "ProtocolDisabled",
      "type": "error"
    },
    {
      "inputs": [
        {
          "internalType": "address",
          "name": "token",
          "type": "address"
        }
      ],
      "name": "TokenAccountedFor",
      "type": "error"
    },
    {
      "anonymous": false,
      "inputs": [
        {
          "indexed": true,
          "internalType": "address",
          "name": "token",
          "type": "address"
        },
        {
          "indexed": false,
          "internalType": "uint256",
          "name": "index",
          "type": "uint256"
        },
        {
          "indexed": true,
          "internalType": "address",
          "name": "recipient",
          "type": "address"
        },
        {
          "indexed": false,
          "internalType": "uint256",
          "name": "bonus",
          "type": "uint256"
        }
      ],
      "name": "BonusPaid",
      "type": "event"
    },
    {
      "anonymous": false,
      "inputs": [
        {
          "indexed": true,
          "internalType": "address",
          "name": "staker",
          "type": "address"
        },
        {
          "indexed": true,
          "internalType": "address",
          "name": "soul",
          "type": "address"
        },
        {
          "indexed": false,
          "internalType": "uint256",
          "name": "index",
          "type": "uint256"
        },
        {
          "indexed": false,
          "internalType": "uint256",
          "name": "amount",
          "type": "uint256"
        }
      ],
      "name": "ClaimedReward",
      "type": "event"
    },
    {
      "anonymous": false,
      "inputs": [
        {
          "indexed": true,
          "internalType": "address",
          "name": "soul",
          "type": "address"
        },
        {
          "indexed": false,
          "internalType": "uint256",
          "name": "fps",
          "type": "uint256"
        }
      ],
      "name": "SoulUpdated",
      "type": "event"
    },
    {
      "anonymous": false,
      "inputs": [
        {
          "indexed": true,
          "internalType": "address",
          "name": "staker",
          "type": "address"
        },
        {
          "indexed": true,
          "internalType": "address",
          "name": "soul",
          "type": "address"
        },
        {
          "indexed": false,
          "internalType": "uint256",
          "name": "amount",
          "type": "uint256"
        }
      ],
      "name": "Staked",
      "type": "event"
    },
    {
      "anonymous": false,
      "inputs": [
        {
          "indexed": true,
          "internalType": "address",
          "name": "token",
          "type": "address"
        },
        {
          "indexed": false,
          "internalType": "uint256",
          "name": "amount",
          "type": "uint256"
        },
        {
          "indexed": false,
          "internalType": "uint256",
          "name": "scxfln_LP_minted",
          "type": "uint256"
        }
      ],
      "name": "TokenListed",
      "type": "event"
    },
    {
      "anonymous": false,
      "inputs": [
        {
          "indexed": true,
          "internalType": "address",
          "name": "staker",
          "type": "address"
        },
        {
          "indexed": true,
          "internalType": "address",
          "name": "soul",
          "type": "address"
        },
        {
          "indexed": false,
          "internalType": "uint256",
          "name": "amount",
          "type": "uint256"
        }
      ],
      "name": "Unstaked",
      "type": "event"
    },
    {
      "inputs": [],
      "name": "DAO",
      "outputs": [
        {
          "internalType": "address",
          "name": "",
          "type": "address"
        }
      ],
      "stateMutability": "view",
      "type": "function"
    },
    {
      "inputs": [
        {
          "internalType": "address",
          "name": "token",
          "type": "address"
        },
        {
          "internalType": "uint256",
          "name": "initialCrossingBonus",
          "type": "uint256"
        },
        {
          "internalType": "int256",
          "name": "crossingBonusDelta",
          "type": "int256"
        },
        {
          "internalType": "uint256",
          "name": "fps",
          "type": "uint256"
        }
      ],
      "name": "adjustSoul",
      "outputs": [],
      "stateMutability": "nonpayable",
      "type": "function"
    },
    {
      "inputs": [
        {
          "internalType": "address",
          "name": "soul",
          "type": "address"
        },
        {
          "internalType": "address",
          "name": "unstaker",
          "type": "address"
        },
        {
          "internalType": "uint256",
          "name": "amount",
          "type": "uint256"
        }
      ],
      "name": "approveUnstake",
      "outputs": [],
      "stateMutability": "nonpayable",
      "type": "function"
    },
    {
      "inputs": [
        {
          "internalType": "address",
          "name": "token",
          "type": "address"
        },
        {
          "internalType": "uint256",
          "name": "desiredAPY",
          "type": "uint256"
        },
        {
          "internalType": "uint256",
          "name": "daiThreshold",
          "type": "uint256"
        }
      ],
      "name": "attemptToTargetAPY",
      "outputs": [],
      "stateMutability": "nonpayable",
      "type": "function"
    },
    {
      "inputs": [
        {
          "internalType": "address",
          "name": "token",
          "type": "address"
        },
        {
          "internalType": "uint256",
          "name": "index",
          "type": "uint256"
        }
      ],
      "name": "claimBonus",
      "outputs": [],
      "stateMutability": "nonpayable",
      "type": "function"
    },
    {
      "inputs": [
        {
          "internalType": "address",
          "name": "token",
          "type": "address"
        },
        {
          "internalType": "uint256",
          "name": "index",
          "type": "uint256"
        }
      ],
      "name": "claimReward",
      "outputs": [],
      "stateMutability": "nonpayable",
      "type": "function"
    },
    {
      "inputs": [
        {
          "internalType": "address",
          "name": "token",
          "type": "address"
        }
      ],
      "name": "claimSecondaryRewards",
      "outputs": [],
      "stateMutability": "nonpayable",
      "type": "function"
    },
    {
      "inputs": [
        {
          "internalType": "address",
          "name": "behodler",
          "type": "address"
        },
        {
          "internalType": "address",
          "name": "angband",
          "type": "address"
        },
        {
          "internalType": "address",
          "name": "ammHelper",
          "type": "address"
        },
        {
          "internalType": "address",
          "name": "morgothPower",
          "type": "address"
        },
        {
          "internalType": "uint256",
          "name": "migrationInvocationReward",
          "type": "uint256"
        },
        {
          "internalType": "uint256",
          "name": "crossingMigrationDelay",
          "type": "uint256"
        }
      ],
      "name": "configureCrossingConfig",
      "outputs": [],
      "stateMutability": "nonpayable",
      "type": "function"
    },
    {
      "inputs": [
        {
          "internalType": "address",
          "name": "token",
          "type": "address"
        },
        {
          "internalType": "uint256",
          "name": "initialCrossingBonus",
          "type": "uint256"
        },
        {
          "internalType": "int256",
          "name": "crossingBonusDelta",
          "type": "int256"
        },
        {
          "internalType": "bool",
          "name": "burnable",
          "type": "bool"
        },
        {
          "internalType": "uint256",
          "name": "crossingThreshold",
          "type": "uint256"
        }
      ],
      "name": "configureCrossingParameters",
      "outputs": [],
      "stateMutability": "nonpayable",
      "type": "function"
    },
    {
      "inputs": [
        {
          "internalType": "address",
          "name": "token",
          "type": "address"
        },
        {
          "internalType": "uint256",
          "name": "crossingThreshold",
          "type": "uint256"
        },
        {
          "internalType": "uint256",
          "name": "soulType",
          "type": "uint256"
        },
        {
          "internalType": "uint256",
          "name": "state",
          "type": "uint256"
        },
        {
          "internalType": "uint256",
          "name": "index",
          "type": "uint256"
        },
        {
          "internalType": "uint256",
          "name": "fps",
          "type": "uint256"
        }
      ],
      "name": "configureSoul",
      "outputs": [],
      "stateMutability": "nonpayable",
      "type": "function"
    },
    {
      "inputs": [],
      "name": "configured",
      "outputs": [
        {
          "internalType": "bool",
          "name": "",
          "type": "bool"
        }
      ],
      "stateMutability": "view",
      "type": "function"
    },
    {
      "inputs": [],
      "name": "crossingConfig",
      "outputs": [
        {
          "internalType": "address",
          "name": "behodler",
          "type": "address"
        },
        {
          "internalType": "uint256",
          "name": "SCX_fee",
          "type": "uint256"
        },
        {
          "internalType": "uint256",
          "name": "migrationInvocationReward",
          "type": "uint256"
        },
        {
          "internalType": "uint256",
          "name": "crossingMigrationDelay",
          "type": "uint256"
        },
        {
          "internalType": "address",
          "name": "morgothPower",
          "type": "address"
        },
        {
          "internalType": "address",
          "name": "angband",
          "type": "address"
        },
        {
          "internalType": "address",
          "name": "ammHelper",
          "type": "address"
        }
      ],
      "stateMutability": "view",
      "type": "function"
    },
    {
      "inputs": [],
      "name": "disableProtocol",
      "outputs": [],
      "stateMutability": "nonpayable",
      "type": "function"
    },
    {
      "inputs": [],
      "name": "enableProtocol",
      "outputs": [],
      "stateMutability": "nonpayable",
      "type": "function"
    },
    {
      "inputs": [
        {
          "internalType": "address",
          "name": "expectedDAO",
          "type": "address"
        }
      ],
      "name": "endConfiguration",
      "outputs": [],
      "stateMutability": "nonpayable",
      "type": "function"
    },
    {
      "inputs": [],
      "name": "governer",
      "outputs": [
        {
          "internalType": "contract FlashGovernanceArbiterLike",
          "name": "",
          "type": "address"
        }
      ],
      "stateMutability": "view",
      "type": "function"
    },
    {
      "inputs": [
        {
          "internalType": "address",
          "name": "",
          "type": "address"
        }
      ],
      "name": "latestIndex",
      "outputs": [
        {
          "internalType": "uint256",
          "name": "",
          "type": "uint256"
        }
      ],
      "stateMutability": "view",
      "type": "function"
    },
    {
      "inputs": [
        {
          "internalType": "address",
          "name": "token",
          "type": "address"
        }
      ],
      "name": "migrate",
      "outputs": [],
      "stateMutability": "nonpayable",
      "type": "function"
    },
    {
      "inputs": [
        {
          "internalType": "address",
          "name": "dao",
          "type": "address"
        }
      ],
      "name": "setDAO",
      "outputs": [],
      "stateMutability": "nonpayable",
      "type": "function"
    },
    {
      "inputs": [
        {
          "internalType": "address",
          "name": "",
          "type": "address"
        },
        {
          "internalType": "uint256",
          "name": "",
          "type": "uint256"
        }
      ],
      "name": "souls",
      "outputs": [
        {
          "internalType": "uint256",
          "name": "lastRewardTimestamp",
          "type": "uint256"
        },
        {
          "internalType": "uint256",
          "name": "accumulatedFlanPerShare",
          "type": "uint256"
        },
        {
          "internalType": "uint256",
          "name": "crossingThreshold",
          "type": "uint256"
        },
        {
          "internalType": "enum SoulType",
          "name": "soulType",
          "type": "uint8"
        },
        {
          "internalType": "enum SoulState",
          "name": "state",
          "type": "uint8"
        },
        {
          "internalType": "uint256",
          "name": "flanPerSecond",
          "type": "uint256"
        }
      ],
      "stateMutability": "view",
      "type": "function"
    },
    {
      "inputs": [
        {
          "internalType": "address",
          "name": "token",
          "type": "address"
        },
        {
          "internalType": "uint256",
          "name": "amount",
          "type": "uint256"
        }
      ],
      "name": "stake",
      "outputs": [],
      "stateMutability": "nonpayable",
      "type": "function"
    },
    {
      "inputs": [
        {
          "internalType": "address",
          "name": "token",
          "type": "address"
        },
        {
          "internalType": "uint256",
          "name": "amount",
          "type": "uint256"
        },
        {
          "internalType": "address",
          "name": "recipient",
          "type": "address"
        }
      ],
      "name": "stakeFor",
      "outputs": [],
      "stateMutability": "nonpayable",
      "type": "function"
    },
    {
      "inputs": [],
      "name": "temporaryConfigurationLord",
      "outputs": [
        {
          "internalType": "address",
          "name": "",
          "type": "address"
        }
      ],
      "stateMutability": "view",
      "type": "function"
    },
    {
      "inputs": [
        {
          "internalType": "address",
          "name": "",
          "type": "address"
        },
        {
          "internalType": "uint256",
          "name": "",
          "type": "uint256"
        }
      ],
      "name": "tokenCrossingParameters",
      "outputs": [
        {
          "internalType": "uint256",
          "name": "stakingBeginsTimestamp",
          "type": "uint256"
        },
        {
          "internalType": "uint256",
          "name": "stakingEndsTimestamp",
          "type": "uint256"
        },
        {
          "internalType": "int256",
          "name": "crossingBonusDelta",
          "type": "int256"
        },
        {
          "internalType": "uint256",
          "name": "initialCrossingBonus",
          "type": "uint256"
        },
        {
          "internalType": "bool",
          "name": "burnable",
          "type": "bool"
        }
      ],
      "stateMutability": "view",
      "type": "function"
    },
    {
      "inputs": [
        {
          "internalType": "address",
          "name": "token",
          "type": "address"
        },
        {
          "internalType": "uint256",
          "name": "amount",
          "type": "uint256"
        }
      ],
      "name": "unstake",
      "outputs": [],
      "stateMutability": "nonpayable",
      "type": "function"
    },
    {
      "inputs": [
        {
          "internalType": "address",
          "name": "",
          "type": "address"
        },
        {
          "internalType": "address",
          "name": "",
          "type": "address"
        },
        {
          "internalType": "address",
          "name": "",
          "type": "address"
        }
      ],
      "name": "unstakeApproval",
      "outputs": [
        {
          "internalType": "uint256",
          "name": "",
          "type": "uint256"
        }
      ],
      "stateMutability": "view",
      "type": "function"
    },
    {
      "inputs": [
        {
          "internalType": "address",
          "name": "token",
          "type": "address"
        },
        {
          "internalType": "uint256",
          "name": "amount",
          "type": "uint256"
        },
        {
          "internalType": "address",
          "name": "holder",
          "type": "address"
        }
      ],
      "name": "unstakeFor",
      "outputs": [],
      "stateMutability": "nonpayable",
      "type": "function"
    },
    {
      "inputs": [
        {
          "internalType": "address",
          "name": "token",
          "type": "address"
        }
      ],
      "name": "updateSoul",
      "outputs": [],
      "stateMutability": "nonpayable",
      "type": "function"
    },
    {
      "inputs": [
        {
          "internalType": "address",
          "name": "",
          "type": "address"
        },
        {
          "internalType": "address",
          "name": "",
          "type": "address"
        },
        {
          "internalType": "uint256",
          "name": "",
          "type": "uint256"
        }
      ],
      "name": "userInfo",
      "outputs": [
        {
          "internalType": "uint256",
          "name": "stakedAmount",
          "type": "uint256"
        },
        {
          "internalType": "uint256",
          "name": "rewardDebt",
          "type": "uint256"
        },
        {
          "internalType": "bool",
          "name": "bonusPaid",
          "type": "bool"
        }
      ],
      "stateMutability": "view",
      "type": "function"
    }
  ],
  "bytecode": "0x60a06040526001600260146101000a81548160ff0219169083151502179055503480156200002c57600080fd5b506040516200575a3803806200575a83398181016040528101906200005291906200033c565b806200006481620000e260201b60201c565b33600160006101000a81548173ffffffffffffffffffffffffffffffffffffffff021916908373ffffffffffffffffffffffffffffffffffffffff160217905550508173ffffffffffffffffffffffffffffffffffffffff1660808173ffffffffffffffffffffffffffffffffffffffff16815250505050620003c1565b600073ffffffffffffffffffffffffffffffffffffffff16600260009054906101000a900473ffffffffffffffffffffffffffffffffffffffff1673ffffffffffffffffffffffffffffffffffffffff1614158015620001905750600260009054906101000a900473ffffffffffffffffffffffffffffffffffffffff1673ffffffffffffffffffffffffffffffffffffffff163373ffffffffffffffffffffffffffffffffffffffff1614155b8015620001a95750620001a86200027a60201b60201c565b5b156200021257600160009054906101000a900473ffffffffffffffffffffffffffffffffffffffff16336040517fc21bbf9d0000000000000000000000000000000000000000000000000000000081526004016200020992919062000394565b60405180910390fd5b80600260006101000a81548173ffffffffffffffffffffffffffffffffffffffff021916908373ffffffffffffffffffffffffffffffffffffffff1602179055506000806101000a81549073ffffffffffffffffffffffffffffffffffffffff021916905550565b60008073ffffffffffffffffffffffffffffffffffffffff16600160009054906101000a900473ffffffffffffffffffffffffffffffffffffffff1673ffffffffffffffffffffffffffffffffffffffff1614905090565b600080fd5b600073ffffffffffffffffffffffffffffffffffffffff82169050919050565b60006200030482620002d7565b9050919050565b6200031681620002f7565b81146200032257600080fd5b50565b60008151905062000336816200030b565b92915050565b60008060408385031215620003565762000355620002d2565b5b6000620003668582860162000325565b9250506020620003798582860162000325565b9150509250929050565b6200038e81620002f7565b82525050565b6000604082019050620003ab600083018562000383565b620003ba602083018462000383565b9392505050565b608051615368620003f26000396000818161091c0152818161206601528181612ed801526136f901526153686000f3fe608060405234801561001057600080fd5b50600436106101cf5760003560e01c80638772a23a11610104578063ade07314116100a2578063d4a4bdee11610071578063d4a4bdee146104fb578063dd77a47514610517578063e73a914c14610535578063ebaf154914610551576101cf565b8063ade0731414610472578063c12cbe861461048e578063c2a672e0146104c3578063ce5494bb146104df576101cf565b806398fabd3a116100de57806398fabd3a14610400578063995dd3861461041e5780639b8f04b71461043a578063adc9772e14610456576101cf565b80638772a23a146103aa5780638e4a0d19146103c857806391084d6b146103e4576101cf565b80633091dde1116101715780634eaa7eb21161014b5780634eaa7eb2146103445780636314736c146103605780636d0e99711461037c5780637358a76414610386576101cf565b80633091dde1146102da5780633f56f75f146102f8578063477b734514610328576101cf565b806315a13a3f116101ad57806315a13a3f1461023c578063174e31c41461026e5780631db969dd1461028a57806325c2c389146102a6576101cf565b8063026800d0146101d4578063057e9b96146101f05780630fa8beb314610220575b600080fd5b6101ee60048036038101906101e99190614040565b61055b565b005b61020a60048036038101906102059190614093565b61056c565b60405161021791906140cf565b60405180910390f35b61023a600480360381019061023591906140ea565b610584565b005b6102566004803603810190610251919061412a565b610a76565b60405161026593929190614198565b60405180910390f35b610288600480360381019061028391906140ea565b610ac7565b005b6102a4600480360381019061029f9190614093565b610d75565b005b6102c060048036038101906102bb91906140ea565b610f95565b6040516102d19594939291906141e8565b60405180910390f35b6102e2610fe5565b6040516102ef919061429a565b60405180910390f35b610312600480360381019061030d91906142b5565b611009565b60405161031f91906140cf565b60405180910390f35b610342600480360381019061033d919061412a565b61103b565b005b61035e60048036038101906103599190614093565b6110fe565b005b61037a60048036038101906103759190614093565b6112af565b005b6103846112ca565b005b61038e6112f3565b6040516103a19796959493929190614317565b60405180910390f35b6103b26113a3565b6040516103bf9190614386565b60405180910390f35b6103e260048036038101906103dd91906143a1565b6113fb565b005b6103fe60048036038101906103f9919061444c565b6115f3565b005b610408611724565b60405161041591906144c7565b60405180910390f35b610438600480360381019061043391906144e2565b61174a565b005b610454600480360381019061044f9190614040565b6119f7565b005b610470600480360381019061046b91906140ea565b611a4e565b005b61048c60048036038101906104879190614549565b611aa4565b005b6104a860048036038101906104a391906140ea565b611beb565b6040516104ba96959493929190614695565b60405180910390f35b6104dd60048036038101906104d891906140ea565b611c4e565b005b6104f960048036038101906104f49190614093565b611ca4565b005b610515600480360381019061051091906146f6565b612141565b005b61051f61252e565b60405161052c91906144c7565b60405180910390f35b61054f600480360381019061054a9190614093565b612554565b005b6105596126df565b005b61056783833384612705565b505050565b600b6020528060005260406000206000915090505481565b600260149054906101000a900460ff166105ca576040517f931b485800000000000000000000000000000000000000000000000000000000815260040160405180910390fd5b6000600a60008473ffffffffffffffffffffffffffffffffffffffff1673ffffffffffffffffffffffffffffffffffffffff168152602001908152602001600020600083815260200190815260200160002090506000600d60008573ffffffffffffffffffffffffffffffffffffffff1673ffffffffffffffffffffffffffffffffffffffff16815260200190815260200160002060008481526020019081526020016000209050600380811115610685576106846145d6565b5b8260030160019054906101000a900460ff1660038111156106a9576106a86145d6565b5b141580156106ed5750600260038111156106c6576106c56145d6565b5b8260030160019054906101000a900460ff1660038111156106ea576106e96145d6565b5b14155b1561075457838260030160019054906101000a900460ff166003811115610717576107166145d6565b5b6040517fee164d6200000000000000000000000000000000000000000000000000000000815260040161074b929190614783565b60405180910390fd5b6000600c60008673ffffffffffffffffffffffffffffffffffffffff1673ffffffffffffffffffffffffffffffffffffffff16815260200190815260200160002060003373ffffffffffffffffffffffffffffffffffffffff1673ffffffffffffffffffffffffffffffffffffffff168152602001908152602001600020600085815260200190815260200160002090508060020160009054906101000a900460ff161561083b5784846040517f4e69fdc4000000000000000000000000000000000000000000000000000000008152600401610832929190614783565b60405180910390fd5b60018160020160006101000a81548160ff02191690831515021790555060008260000154836001015461086e91906147db565b836002015461087d919061480f565b90506000836002015482610891919061480f565b12156108da578083600201546040517f98bb45540000000000000000000000000000000000000000000000000000000081526004016108d1929190614926565b60405180910390fd5b60008184600301546108ec919061494f565b90506000808213156109be5764e8d4a5100082856000015461090e919061480f565b6109189190614a12565b90507f000000000000000000000000000000000000000000000000000000000000000073ffffffffffffffffffffffffffffffffffffffff166340c10f1933836040518363ffffffff1660e01b8152600401610975929190614783565b6020604051808303816000875af1158015610994573d6000803e3d6000fd5b505050506040513d601f19601f820116820180604052508101906109b89190614a58565b50610a05565b87878560000154846040517f4445b4620000000000000000000000000000000000000000000000000000000081526004016109fc9493929190614a85565b60405180910390fd5b3373ffffffffffffffffffffffffffffffffffffffff168873ffffffffffffffffffffffffffffffffffffffff167f2e6a1e085447ae0bd3bb86ec4d6cdf0c9ebb5f8acb821852a2db9bf6bce1904e8984604051610a64929190614aca565b60405180910390a35050505050505050565b600c60205282600052604060002060205281600052604060002060205280600052604060002060009250925050508060000154908060010154908060020160009054906101000a900460ff16905083565b600260149054906101000a900460ff16610b0d576040517f931b485800000000000000000000000000000000000000000000000000000000815260040160405180910390fd5b6000600a60008473ffffffffffffffffffffffffffffffffffffffff1673ffffffffffffffffffffffffffffffffffffffff16815260200190815260200160002060008381526020019081526020016000209050610b6b8382612c59565b6000600c60008573ffffffffffffffffffffffffffffffffffffffff1673ffffffffffffffffffffffffffffffffffffffff16815260200190815260200160002060003373ffffffffffffffffffffffffffffffffffffffff1673ffffffffffffffffffffffffffffffffffffffff168152602001908152602001600020600084815260200190815260200160002090506000610ceb8260405180606001604052908160008201548152602001600182015481526020016002820160009054906101000a900460ff161515151581525050846040518060c00160405290816000820154815260200160018201548152602001600282015481526020016003820160009054906101000a900460ff166002811115610c8b57610c8a6145d6565b5b6002811115610c9d57610c9c6145d6565b5b81526020016003820160019054906101000a900460ff166003811115610cc657610cc56145d6565b5b6003811115610cd857610cd76145d6565b5b8152602001600482015481525050612e99565b90506000811115610d6e57610d063382856001015485612ed6565b8473ffffffffffffffffffffffffffffffffffffffff163373ffffffffffffffffffffffffffffffffffffffff167fd3208fd5300db64b97bc442f47ade72b7ebcd9272aaecdcc04c777bb762861b98684604051610d65929190614aca565b60405180910390a35b5050505050565b6000610d8082612fa3565b60030160019054906101000a900460ff16905060006003811115610da757610da66145d6565b5b816003811115610dba57610db96145d6565b5b14158015610dec5750600380811115610dd657610dd56145d6565b5b816003811115610de957610de86145d6565b5b14155b15610e2e57816040517f2b701e04000000000000000000000000000000000000000000000000000000008152600401610e2591906144c7565b60405180910390fd5b60008273ffffffffffffffffffffffffffffffffffffffff166370a08231306040518263ffffffff1660e01b8152600401610e6991906144c7565b602060405180830381865afa158015610e86573d6000803e3d6000fd5b505050506040513d601f19601f82011682018060405250810190610eaa9190614b08565b9050610efc600360060160009054906101000a900473ffffffffffffffffffffffffffffffffffffffff16828573ffffffffffffffffffffffffffffffffffffffff1661303b9092919063ffffffff16565b600360060160009054906101000a900473ffffffffffffffffffffffffffffffffffffffff1673ffffffffffffffffffffffffffffffffffffffff16638b8de7158483336040518463ffffffff1660e01b8152600401610f5e93929190614b35565b600060405180830381600087803b158015610f7857600080fd5b505af1158015610f8c573d6000803e3d6000fd5b50505050505050565b600d602052816000526040600020602052806000526040600020600091509150508060000154908060010154908060020154908060030154908060040160009054906101000a900460ff16905085565b60008054906101000a900473ffffffffffffffffffffffffffffffffffffffff1681565b600e60205282600052604060002060205281600052604060002060205280600052604060002060009250925050505481565b80600e60008573ffffffffffffffffffffffffffffffffffffffff1673ffffffffffffffffffffffffffffffffffffffff16815260200190815260200160002060003373ffffffffffffffffffffffffffffffffffffffff1673ffffffffffffffffffffffffffffffffffffffff16815260200190815260200160002060008473ffffffffffffffffffffffffffffffffffffffff1673ffffffffffffffffffffffffffffffffffffffff16815260200190815260200160002081905550505050565b600160009054906101000a900473ffffffffffffffffffffffffffffffffffffffff1673ffffffffffffffffffffffffffffffffffffffff163373ffffffffffffffffffffffffffffffffffffffff16146111b457600160009054906101000a900473ffffffffffffffffffffffffffffffffffffffff16336040517fc21bbf9d0000000000000000000000000000000000000000000000000000000081526004016111ab929190614b6c565b60405180910390fd5b600260009054906101000a900473ffffffffffffffffffffffffffffffffffffffff1673ffffffffffffffffffffffffffffffffffffffff168173ffffffffffffffffffffffffffffffffffffffff161461126a5780600260009054906101000a900473ffffffffffffffffffffffffffffffffffffffff166040517f3f0e2133000000000000000000000000000000000000000000000000000000008152600401611261929190614b6c565b60405180910390fd5b6000600160006101000a81548173ffffffffffffffffffffffffffffffffffffffff021916908373ffffffffffffffffffffffffffffffffffffffff16021790555050565b60006112ba82612fa3565b90506112c68282612c59565b5050565b60016112d5816130c1565b6000600260146101000a81548160ff02191690831515021790555050565b60038060000160009054906101000a900473ffffffffffffffffffffffffffffffffffffffff16908060010154908060020154908060030154908060040160009054906101000a900473ffffffffffffffffffffffffffffffffffffffff16908060050160009054906101000a900473ffffffffffffffffffffffffffffffffffffffff16908060060160009054906101000a900473ffffffffffffffffffffffffffffffffffffffff16905087565b60008073ffffffffffffffffffffffffffffffffffffffff16600160009054906101000a900473ffffffffffffffffffffffffffffffffffffffff1673ffffffffffffffffffffffffffffffffffffffff1614905090565b6000611406816130c1565b600061141185612fa3565b905060016002811115611427576114266145d6565b5b8160030160009054906101000a900460ff16600281111561144b5761144a6145d6565b5b146114c757848160030160009054906101000a900460ff166002811115611475576114746145d6565b5b60016002811115611489576114886145d6565b5b6040517f881315bb0000000000000000000000000000000000000000000000000000000081526004016114be93929190614b95565b60405180910390fd5b6000600360060160009054906101000a900473ffffffffffffffffffffffffffffffffffffffff1673ffffffffffffffffffffffffffffffffffffffff1663421e5b4886866040518363ffffffff1660e01b8152600401611529929190614aca565b602060405180830381865afa158015611546573d6000803e3d6000fd5b505050506040513d601f19601f8201168201806040525081019061156a9190614b08565b9050611574613326565b73ffffffffffffffffffffffffffffffffffffffff16634739a2ba8360040154836040518363ffffffff1660e01b81526004016115b2929190614aca565b60006040518083038186803b1580156115ca57600080fd5b505afa1580156115de573d6000803e3d6000fd5b50505050808260040181905550505050505050565b60006115fe816130c1565b6000600d60008873ffffffffffffffffffffffffffffffffffffffff1673ffffffffffffffffffffffffffffffffffffffff1681526020019081526020016000206000600b60008a73ffffffffffffffffffffffffffffffffffffffff1673ffffffffffffffffffffffffffffffffffffffff1681526020019081526020016000205481526020019081526020016000209050600061169c88612fa3565b90508173__$2c466dad8fece1fcf22cff368d182be371$__63eabf117b90916116c3613326565b848b8b8b8b6040518863ffffffff1660e01b81526004016116ea9796959493929190614c16565b60006040518083038186803b15801561170257600080fd5b505af4158015611716573d6000803e3d6000fd5b505050505050505050505050565b600260009054906101000a900473ffffffffffffffffffffffffffffffffffffffff1681565b6000611755816130c1565b600061176086612fa3565b905061176a613326565b73ffffffffffffffffffffffffffffffffffffffff16634739a2ba8260040154856040518363ffffffff1660e01b81526004016117a8929190614aca565b60006040518083038186803b1580156117c057600080fd5b505afa1580156117d4573d6000803e3d6000fd5b505050508281600401819055506000600d60008873ffffffffffffffffffffffffffffffffffffffff1673ffffffffffffffffffffffffffffffffffffffff1681526020019081526020016000206000600b60008a73ffffffffffffffffffffffffffffffffffffffff1673ffffffffffffffffffffffffffffffffffffffff168152602001908152602001600020548152602001908152602001600020905061187c613326565b73ffffffffffffffffffffffffffffffffffffffff16634739a2ba8260030154886040518363ffffffff1660e01b81526004016118ba929190614aca565b60006040518083038186803b1580156118d257600080fd5b505afa1580156118e6573d6000803e3d6000fd5b505050506118f2613326565b73ffffffffffffffffffffffffffffffffffffffff16634739a2ba6000836002015412611923578260020154611954565b7fffffffffffffffffffffffffffffffffffffffffffffffffffffffffffffffff8360020154611953919061480f565b5b60008812611962578761198f565b7fffffffffffffffffffffffffffffffffffffffffffffffffffffffffffffffff8861198e919061480f565b5b6040518363ffffffff1660e01b81526004016119ac929190614aca565b60006040518083038186803b1580156119c457600080fd5b505afa1580156119d8573d6000803e3d6000fd5b5050505085816003018190555084816002018190555050505050505050565b600260149054906101000a900460ff16611a3d576040517f931b485800000000000000000000000000000000000000000000000000000000815260040160405180910390fd5b611a4983833384613472565b505050565b600260149054906101000a900460ff16611a94576040517f931b485800000000000000000000000000000000000000000000000000000000815260040160405180910390fd5b611aa082823333613472565b5050565b611aad33613a0c565b670de0b6b3a764000082611ac19190614c85565b60036002018190555085600360000160006101000a81548173ffffffffffffffffffffffffffffffffffffffff021916908373ffffffffffffffffffffffffffffffffffffffff16021790555080600380018190555084600360050160006101000a81548173ffffffffffffffffffffffffffffffffffffffff021916908373ffffffffffffffffffffffffffffffffffffffff16021790555083600360060160006101000a81548173ffffffffffffffffffffffffffffffffffffffff021916908373ffffffffffffffffffffffffffffffffffffffff16021790555082600360040160006101000a81548173ffffffffffffffffffffffffffffffffffffffff021916908373ffffffffffffffffffffffffffffffffffffffff160217905550505050505050565b600a602052816000526040600020602052806000526040600020600091509150508060000154908060010154908060020154908060030160009054906101000a900460ff16908060030160019054906101000a900460ff16908060040154905086565b600260149054906101000a900460ff16611c94576040517f931b485800000000000000000000000000000000000000000000000000000000815260040160405180910390fd5b611ca082823333612705565b5050565b600260149054906101000a900460ff16611cea576040517f931b485800000000000000000000000000000000000000000000000000000000815260040160405180910390fd5b6000611cf582612fa3565b905060016002811115611d0b57611d0a6145d6565b5b8160030160009054906101000a900460ff166002811115611d2f57611d2e6145d6565b5b14611dab57818160030160009054906101000a900460ff166002811115611d5957611d586145d6565b5b60016002811115611d6d57611d6c6145d6565b5b6040517f881315bb000000000000000000000000000000000000000000000000000000008152600401611da293929190614b95565b60405180910390fd5b60026003811115611dbf57611dbe6145d6565b5b8160030160019054906101000a900460ff166003811115611de357611de26145d6565b5b14611e4a57818160030160019054906101000a900460ff166003811115611e0d57611e0c6145d6565b5b6040517fee164d62000000000000000000000000000000000000000000000000000000008152600401611e41929190614783565b60405180910390fd5b6003800154600d60008473ffffffffffffffffffffffffffffffffffffffff1673ffffffffffffffffffffffffffffffffffffffff1681526020019081526020016000206000600b60008673ffffffffffffffffffffffffffffffffffffffff1673ffffffffffffffffffffffffffffffffffffffff1681526020019081526020016000205481526020019081526020016000206001015442611eed91906147db565b1015611f775781600b60008473ffffffffffffffffffffffffffffffffffffffff1673ffffffffffffffffffffffffffffffffffffffff1681526020019081526020016000205460038001546040517f8d4f5c4a000000000000000000000000000000000000000000000000000000008152600401611f6e93929190614b95565b60405180910390fd5b6000808373ffffffffffffffffffffffffffffffffffffffff1673__$b104b1c07e3a5deb7e0a41fec4e7a5229d$__63326f3e639091600360040160009054906101000a900473ffffffffffffffffffffffffffffffffffffffff16600d60008973ffffffffffffffffffffffffffffffffffffffff1673ffffffffffffffffffffffffffffffffffffffff1681526020019081526020016000206000600b60008b73ffffffffffffffffffffffffffffffffffffffff1673ffffffffffffffffffffffffffffffffffffffff16815260200190815260200160002054815260200190815260200160002060037f0000000000000000000000000000000000000000000000000000000000000000896040518763ffffffff1660e01b81526004016120a796959493929190614fa0565b6040805180830381865af41580156120c3573d6000803e3d6000fd5b505050506040513d601f19601f820116820180604052508101906120e79190615004565b915091508373ffffffffffffffffffffffffffffffffffffffff167f5dc96537cbae524775a674b6a810d9a1ba04a9e279f172d156b352151394677a8383604051612133929190614aca565b60405180910390a250505050565b61214a33613b07565b600b60008773ffffffffffffffffffffffffffffffffffffffff1673ffffffffffffffffffffffffffffffffffffffff1681526020019081526020016000205482116121d557600b60008773ffffffffffffffffffffffffffffffffffffffff1673ffffffffffffffffffffffffffffffffffffffff16815260200190815260200160002054612222565b6001600b60008873ffffffffffffffffffffffffffffffffffffffff1673ffffffffffffffffffffffffffffffffffffffff168152602001908152602001600020546122219190615044565b5b600b60008873ffffffffffffffffffffffffffffffffffffffff1673ffffffffffffffffffffffffffffffffffffffff16815260200190815260200160002081905550600061227087612fa3565b90506000806003811115612287576122866145d6565b5b8260030160019054906101000a900460ff1660038111156122ab576122aa6145d6565b5b141580156122ef5750600060038111156122c8576122c76145d6565b5b8560038111156122db576122da6145d6565b5b60038111156122ed576122ec6145d6565b5b145b90508173__$238d303093cb72ee6c89903e9289b96445$__63902160d99091898989886040518663ffffffff1660e01b815260040161233295949392919061509a565b60006040518083038186803b15801561234a57600080fd5b505af415801561235e573d6000803e3d6000fd5b5050505060016003811115612376576123756145d6565b5b856003811115612389576123886145d6565b5b600381111561239b5761239a6145d6565b5b036124385742600d60008a73ffffffffffffffffffffffffffffffffffffffff1673ffffffffffffffffffffffffffffffffffffffff1681526020019081526020016000206000600b60008c73ffffffffffffffffffffffffffffffffffffffff1673ffffffffffffffffffffffffffffffffffffffff168152602001908152602001600020548152602001908152602001600020600001819055505b80156124d65742600d60008a73ffffffffffffffffffffffffffffffffffffffff1673ffffffffffffffffffffffffffffffffffffffff1681526020019081526020016000206000600b60008c73ffffffffffffffffffffffffffffffffffffffff1673ffffffffffffffffffffffffffffffffffffffff168152602001908152602001600020548152602001908152602001600020600101819055505b8773ffffffffffffffffffffffffffffffffffffffff167fd34a348d268737f5e75afa7c7fc24fc2f9f735a327855f1470134f75ead7d6c98460405161251c91906140cf565b60405180910390a25050505050505050565b600160009054906101000a900473ffffffffffffffffffffffffffffffffffffffff1681565b600073ffffffffffffffffffffffffffffffffffffffff16600260009054906101000a900473ffffffffffffffffffffffffffffffffffffffff1673ffffffffffffffffffffffffffffffffffffffff16141580156126015750600260009054906101000a900473ffffffffffffffffffffffffffffffffffffffff1673ffffffffffffffffffffffffffffffffffffffff163373ffffffffffffffffffffffffffffffffffffffff1614155b801561261157506126106113a3565b5b1561267757600160009054906101000a900473ffffffffffffffffffffffffffffffffffffffff16336040517fc21bbf9d00000000000000000000000000000000000000000000000000000000815260040161266e929190614b6c565b60405180910390fd5b80600260006101000a81548173ffffffffffffffffffffffffffffffffffffffff021916908373ffffffffffffffffffffffffffffffffffffffff1602179055506000806101000a81549073ffffffffffffffffffffffffffffffffffffffff021916905550565b6126e833613a0c565b6001600260146101000a81548160ff021916908315150217905550565b8073ffffffffffffffffffffffffffffffffffffffff168273ffffffffffffffffffffffffffffffffffffffff16146128095782600e60008673ffffffffffffffffffffffffffffffffffffffff1673ffffffffffffffffffffffffffffffffffffffff16815260200190815260200160002060008373ffffffffffffffffffffffffffffffffffffffff1673ffffffffffffffffffffffffffffffffffffffff16815260200190815260200160002060008473ffffffffffffffffffffffffffffffffffffffff1673ffffffffffffffffffffffffffffffffffffffff168152602001908152602001600020600082825461280191906147db565b925050819055505b600061281485612fa3565b90506000600381111561282a576128296145d6565b5b8160030160019054906101000a900460ff16600381111561284e5761284d6145d6565b5b1415801561289257506001600381111561286b5761286a6145d6565b5b8160030160019054906101000a900460ff16600381111561288f5761288e6145d6565b5b14155b156128f957848160030160019054906101000a900460ff1660038111156128bc576128bb6145d6565b5b6040517fee164d620000000000000000000000000000000000000000000000000000000081526004016128f0929190614783565b60405180910390fd5b6129038582612c59565b6000600b60008773ffffffffffffffffffffffffffffffffffffffff1673ffffffffffffffffffffffffffffffffffffffff1681526020019081526020016000205490506000600c60008873ffffffffffffffffffffffffffffffffffffffff1673ffffffffffffffffffffffffffffffffffffffff16815260200190815260200160002060008573ffffffffffffffffffffffffffffffffffffffff1673ffffffffffffffffffffffffffffffffffffffff168152602001908152602001600020600083815260200190815260200160002090508581600001541015612a2957868682600001546040517f56a7796a000000000000000000000000000000000000000000000000000000008152600401612a2093929190614b95565b60405180910390fd5b6000612b188260405180606001604052908160008201548152602001600182015481526020016002820160009054906101000a900460ff161515151581525050856040518060c00160405290816000820154815260200160018201548152602001600282015481526020016003820160009054906101000a900460ff166002811115612ab857612ab76145d6565b5b6002811115612aca57612ac96145d6565b5b81526020016003820160019054906101000a900460ff166003811115612af357612af26145d6565b5b6003811115612b0557612b046145d6565b5b8152602001600482015481525050612e99565b9050600081118015612b2a5750600087115b15612c4f57868260000154612b3f91906147db565b8260000181905550612b7286888a73ffffffffffffffffffffffffffffffffffffffff1661303b9092919063ffffffff16565b612b828682866001015485612ed6565b8773ffffffffffffffffffffffffffffffffffffffff168673ffffffffffffffffffffffffffffffffffffffff167fd3208fd5300db64b97bc442f47ade72b7ebcd9272aaecdcc04c777bb762861b98584604051612be1929190614aca565b60405180910390a38773ffffffffffffffffffffffffffffffffffffffff168673ffffffffffffffffffffffffffffffffffffffff167fd8654fcc8cf5b36d30b3f5e4688fc78118e6d68de60b9994e09902268b57c3e389604051612c4691906140cf565b60405180910390a35b5050505050505050565b60006002811115612c6d57612c6c6145d6565b5b8160030160009054906101000a900460ff166002811115612c9157612c906145d6565b5b03612cd357816040517f3dc34651000000000000000000000000000000000000000000000000000000008152600401612cca91906144c7565b60405180910390fd5b600042905060016003811115612cec57612ceb6145d6565b5b8260030160019054906101000a900460ff166003811115612d1057612d0f6145d6565b5b14612dab57600d60008473ffffffffffffffffffffffffffffffffffffffff1673ffffffffffffffffffffffffffffffffffffffff1681526020019081526020016000206000600b60008673ffffffffffffffffffffffffffffffffffffffff1673ffffffffffffffffffffffffffffffffffffffff1681526020019081526020016000205481526020019081526020016000206001015490505b60008373ffffffffffffffffffffffffffffffffffffffff166370a08231306040518263ffffffff1660e01b8152600401612de691906144c7565b602060405180830381865afa158015612e03573d6000803e3d6000fd5b505050506040513d601f19601f82011682018060405250810190612e279190614b08565b90506000811115612e8a5760008360040154846000015484612e4991906147db565b612e539190614c85565b90508164e8d4a5100082612e679190614c85565b612e719190614a12565b8460010154612e809190615044565b8460010181905550505b81836000018190555050505050565b6000826020015164e8d4a5100083602001518560000151612eba9190614c85565b612ec49190614a12565b612ece91906147db565b905092915050565b7f000000000000000000000000000000000000000000000000000000000000000073ffffffffffffffffffffffffffffffffffffffff166340c10f1985856040518363ffffffff1660e01b8152600401612f31929190614783565b6020604051808303816000875af1158015612f50573d6000803e3d6000fd5b505050506040513d601f19601f82011682018060405250810190612f749190614a58565b5064e8d4a51000828260000154612f8b9190614c85565b612f959190614a12565b816001018190555050505050565b6000600a60008373ffffffffffffffffffffffffffffffffffffffff1673ffffffffffffffffffffffffffffffffffffffff1681526020019081526020016000206000600b60008573ffffffffffffffffffffffffffffffffffffffff1673ffffffffffffffffffffffffffffffffffffffff1681526020019081526020016000205481526020019081526020016000209050919050565b6130bc8363a9059cbb60e01b848460405160240161305a929190614783565b604051602081830303815290604052907bffffffffffffffffffffffffffffffffffffffffffffffffffffffff19166020820180517bffffffffffffffffffffffffffffffffffffffffffffffffffffffff8381831617835250505050613ca4565b505050565b6000600260009054906101000a900473ffffffffffffffffffffffffffffffffffffffff1673ffffffffffffffffffffffffffffffffffffffff1663b7ebc23b336040518263ffffffff1660e01b815260040161311e91906144c7565b602060405180830381865afa15801561313b573d6000803e3d6000fd5b505050506040513d601f19601f8201168201806040525081019061315f9190614a58565b905080156131f85760008054906101000a900473ffffffffffffffffffffffffffffffffffffffff1673ffffffffffffffffffffffffffffffffffffffff1663ad64d6cb60006040518263ffffffff1660e01b81526004016131c19190614386565b600060405180830381600087803b1580156131db57600080fd5b505af11580156131ef573d6000803e3d6000fd5b50505050613322565b6132006113a3565b156133215760008054906101000a900473ffffffffffffffffffffffffffffffffffffffff1673ffffffffffffffffffffffffffffffffffffffff1663ad64d6cb60016040518263ffffffff1660e01b815260040161325f9190614386565b600060405180830381600087803b15801561327957600080fd5b505af115801561328d573d6000803e3d6000fd5b5050505060008054906101000a900473ffffffffffffffffffffffffffffffffffffffff1673ffffffffffffffffffffffffffffffffffffffff166398f112413330856040518463ffffffff1660e01b81526004016132ee939291906150ed565b600060405180830381600087803b15801561330857600080fd5b505af115801561331c573d6000803e3d6000fd5b505050505b5b5050565b60008073ffffffffffffffffffffffffffffffffffffffff1660008054906101000a900473ffffffffffffffffffffffffffffffffffffffff1673ffffffffffffffffffffffffffffffffffffffff160361344c57600260009054906101000a900473ffffffffffffffffffffffffffffffffffffffff1673ffffffffffffffffffffffffffffffffffffffff16632317beae6040518163ffffffff1660e01b8152600401602060405180830381865afa1580156133e8573d6000803e3d6000fd5b505050506040513d601f19601f8201168201806040525081019061340c9190615139565b6000806101000a81548173ffffffffffffffffffffffffffffffffffffffff021916908373ffffffffffffffffffffffffffffffffffffffff1602179055505b60008054906101000a900473ffffffffffffffffffffffffffffffffffffffff16905090565b600061347d85612fa3565b905060016003811115613493576134926145d6565b5b8160030160019054906101000a900460ff1660038111156134b7576134b66145d6565b5b1461351e57848160030160019054906101000a900460ff1660038111156134e1576134e06145d6565b5b6040517fee164d62000000000000000000000000000000000000000000000000000000008152600401613515929190614783565b60405180910390fd5b6135288582612c59565b6000600b60008773ffffffffffffffffffffffffffffffffffffffff1673ffffffffffffffffffffffffffffffffffffffff1681526020019081526020016000205490506000600c60008873ffffffffffffffffffffffffffffffffffffffff1673ffffffffffffffffffffffffffffffffffffffff16815260200190815260200160002060008573ffffffffffffffffffffffffffffffffffffffff1673ffffffffffffffffffffffffffffffffffffffff1681526020019081526020016000206000838152602001908152602001600020905060006136ec8260405180606001604052908160008201548152602001600182015481526020016002820160009054906101000a900460ff161515151581525050856040518060c00160405290816000820154815260200160018201548152602001600282015481526020016003820160009054906101000a900460ff16600281111561368c5761368b6145d6565b5b600281111561369e5761369d6145d6565b5b81526020016003820160019054906101000a900460ff1660038111156136c7576136c66145d6565b5b60038111156136d9576136d86145d6565b5b8152602001600482015481525050612e99565b90506000811115613797577f000000000000000000000000000000000000000000000000000000000000000073ffffffffffffffffffffffffffffffffffffffff166340c10f1986836040518363ffffffff1660e01b8152600401613752929190614783565b6020604051808303816000875af1158015613771573d6000803e3d6000fd5b505050506040513d601f19601f820116820180604052508101906137959190614a58565b505b6137c48630898b73ffffffffffffffffffffffffffffffffffffffff16613d62909392919063ffffffff16565b60008873ffffffffffffffffffffffffffffffffffffffff166370a08231306040518263ffffffff1660e01b81526004016137ff91906144c7565b602060405180830381865afa15801561381c573d6000803e3d6000fd5b505050506040513d601f19601f820116820180604052508101906138409190614b08565b90508783600001546138529190615044565b83600001819055506001600281111561386e5761386d6145d6565b5b8560030160009054906101000a900460ff166002811115613892576138916145d6565b5b1480156138a25750846002015481115b1561396c5760028560030160016101000a81548160ff021916908360038111156138cf576138ce6145d6565b5b021790555042600d60008b73ffffffffffffffffffffffffffffffffffffffff1673ffffffffffffffffffffffffffffffffffffffff1681526020019081526020016000206000600b60008d73ffffffffffffffffffffffffffffffffffffffff1673ffffffffffffffffffffffffffffffffffffffff168152602001908152602001600020548152602001908152602001600020600101819055505b64e8d4a51000856001015484600001546139869190614c85565b6139909190614a12565b83600101819055508873ffffffffffffffffffffffffffffffffffffffff168673ffffffffffffffffffffffffffffffffffffffff167f5dac0c1b1112564a045ba943c9d50270893e8e826c49be8e7073adc713ab7bd785600001546040516139f991906140cf565b60405180910390a3505050505050505050565b613a146113a3565b8015613ab95750600260009054906101000a900473ffffffffffffffffffffffffffffffffffffffff1673ffffffffffffffffffffffffffffffffffffffff1663b7ebc23b826040518263ffffffff1660e01b8152600401613a7691906144c7565b602060405180830381865afa158015613a93573d6000803e3d6000fd5b505050506040513d601f19601f82011682018060405250810190613ab79190614a58565b155b15613b0457613ac66113a3565b816040517f64218e39000000000000000000000000000000000000000000000000000000008152600401613afb929190615166565b60405180910390fd5b50565b6000600260009054906101000a900473ffffffffffffffffffffffffffffffffffffffff1673ffffffffffffffffffffffffffffffffffffffff166301e179dc6040518163ffffffff1660e01b8152600401606060405180830381865afa158015613b76573d6000803e3d6000fd5b505050506040513d601f19601f82011682018060405250810190613b9a919061518f565b92505050613ba66113a3565b8015613c4c57508073ffffffffffffffffffffffffffffffffffffffff166331de34696040518163ffffffff1660e01b8152600401602060405180830381865afa158015613bf8573d6000803e3d6000fd5b505050506040513d601f19601f82011682018060405250810190613c1c9190615139565b73ffffffffffffffffffffffffffffffffffffffff168273ffffffffffffffffffffffffffffffffffffffff1614155b15613c9757613c596113a3565b826040517f64218e39000000000000000000000000000000000000000000000000000000008152600401613c8e929190615166565b60405180910390fd5b613ca082613a0c565b5050565b6000613d06826040518060400160405280602081526020017f5361666545524332303a206c6f772d6c6576656c2063616c6c206661696c65648152508573ffffffffffffffffffffffffffffffffffffffff16613deb9092919063ffffffff16565b9050600081511115613d5d5780806020019051810190613d269190614a58565b613d5c576040517fa479450200000000000000000000000000000000000000000000000000000000815260040160405180910390fd5b5b505050565b613de5846323b872dd60e01b858585604051602401613d83939291906151e2565b604051602081830303815290604052907bffffffffffffffffffffffffffffffffffffffffffffffffffffffff19166020820180517bffffffffffffffffffffffffffffffffffffffffffffffffffffffff8381831617835250505050613ca4565b50505050565b6060613dfa8484600085613e03565b90509392505050565b606082471015613e4c5747836040517f02de226f000000000000000000000000000000000000000000000000000000008152600401613e43929190614aca565b60405180910390fd5b613e5585613f1d565b613e9657846040517f8a8b41ec000000000000000000000000000000000000000000000000000000008152600401613e8d91906144c7565b60405180910390fd5b6000808673ffffffffffffffffffffffffffffffffffffffff168587604051613ebf9190615293565b60006040518083038185875af1925050503d8060008114613efc576040519150601f19603f3d011682016040523d82523d6000602084013e613f01565b606091505b5091509150613f11828286613f40565b92505050949350505050565b6000808273ffffffffffffffffffffffffffffffffffffffff163b119050919050565b60608315613f5057829050613fa0565b600083511115613f635782518084602001fd5b816040517f08c379a0000000000000000000000000000000000000000000000000000000008152600401613f979190615310565b60405180910390fd5b9392505050565b600080fd5b600073ffffffffffffffffffffffffffffffffffffffff82169050919050565b6000613fd782613fac565b9050919050565b613fe781613fcc565b8114613ff257600080fd5b50565b60008135905061400481613fde565b92915050565b6000819050919050565b61401d8161400a565b811461402857600080fd5b50565b60008135905061403a81614014565b92915050565b60008060006060848603121561405957614058613fa7565b5b600061406786828701613ff5565b93505060206140788682870161402b565b925050604061408986828701613ff5565b9150509250925092565b6000602082840312156140a9576140a8613fa7565b5b60006140b784828501613ff5565b91505092915050565b6140c98161400a565b82525050565b60006020820190506140e460008301846140c0565b92915050565b6000806040838503121561410157614100613fa7565b5b600061410f85828601613ff5565b92505060206141208582860161402b565b9150509250929050565b60008060006060848603121561414357614142613fa7565b5b600061415186828701613ff5565b935050602061416286828701613ff5565b92505060406141738682870161402b565b9150509250925092565b60008115159050919050565b6141928161417d565b82525050565b60006060820190506141ad60008301866140c0565b6141ba60208301856140c0565b6141c76040830184614189565b949350505050565b6000819050919050565b6141e2816141cf565b82525050565b600060a0820190506141fd60008301886140c0565b61420a60208301876140c0565b61421760408301866141d9565b61422460608301856140c0565b6142316080830184614189565b9695505050505050565b6000819050919050565b600061426061425b61425684613fac565b61423b565b613fac565b9050919050565b600061427282614245565b9050919050565b600061428482614267565b9050919050565b61429481614279565b82525050565b60006020820190506142af600083018461428b565b92915050565b6000806000606084860312156142ce576142cd613fa7565b5b60006142dc86828701613ff5565b93505060206142ed86828701613ff5565b92505060406142fe86828701613ff5565b9150509250925092565b61431181613fcc565b82525050565b600060e08201905061432c600083018a614308565b61433960208301896140c0565b61434660408301886140c0565b61435360608301876140c0565b6143606080830186614308565b61436d60a0830185614308565b61437a60c0830184614308565b98975050505050505050565b600060208201905061439b6000830184614189565b92915050565b6000806000606084860312156143ba576143b9613fa7565b5b60006143c886828701613ff5565b93505060206143d98682870161402b565b92505060406143ea8682870161402b565b9150509250925092565b6143fd816141cf565b811461440857600080fd5b50565b60008135905061441a816143f4565b92915050565b6144298161417d565b811461443457600080fd5b50565b60008135905061444681614420565b92915050565b600080600080600060a0868803121561446857614467613fa7565b5b600061447688828901613ff5565b95505060206144878882890161402b565b94505060406144988882890161440b565b93505060606144a988828901614437565b92505060806144ba8882890161402b565b9150509295509295909350565b60006020820190506144dc6000830184614308565b92915050565b600080600080608085870312156144fc576144fb613fa7565b5b600061450a87828801613ff5565b945050602061451b8782880161402b565b935050604061452c8782880161440b565b925050606061453d8782880161402b565b91505092959194509250565b60008060008060008060c0878903121561456657614565613fa7565b5b600061457489828a01613ff5565b965050602061458589828a01613ff5565b955050604061459689828a01613ff5565b94505060606145a789828a01613ff5565b93505060806145b889828a0161402b565b92505060a06145c989828a0161402b565b9150509295509295509295565b7f4e487b7100000000000000000000000000000000000000000000000000000000600052602160045260246000fd5b60038110614616576146156145d6565b5b50565b600081905061462782614605565b919050565b600061463782614619565b9050919050565b6146478161462c565b82525050565b6004811061465e5761465d6145d6565b5b50565b600081905061466f8261464d565b919050565b600061467f82614661565b9050919050565b61468f81614674565b82525050565b600060c0820190506146aa60008301896140c0565b6146b760208301886140c0565b6146c460408301876140c0565b6146d1606083018661463e565b6146de6080830185614686565b6146eb60a08301846140c0565b979650505050505050565b60008060008060008060c0878903121561471357614712613fa7565b5b600061472189828a01613ff5565b965050602061473289828a0161402b565b955050604061474389828a0161402b565b945050606061475489828a0161402b565b935050608061476589828a0161402b565b92505060a061477689828a0161402b565b9150509295509295509295565b60006040820190506147986000830185614308565b6147a560208301846140c0565b9392505050565b7f4e487b7100000000000000000000000000000000000000000000000000000000600052601160045260246000fd5b60006147e68261400a565b91506147f18361400a565b925082821015614804576148036147ac565b5b828203905092915050565b600061481a826141cf565b9150614825836141cf565b9250827f7fffffffffffffffffffffffffffffffffffffffffffffffffffffffffffffff0482116000841360008413161615614864576148636147ac565b5b817f800000000000000000000000000000000000000000000000000000000000000005831260008412600084131616156148a1576148a06147ac565b5b827f800000000000000000000000000000000000000000000000000000000000000005821260008413600084121616156148de576148dd6147ac565b5b827f7fffffffffffffffffffffffffffffffffffffffffffffffffffffffffffffff058212600084126000841216161561491b5761491a6147ac565b5b828202905092915050565b600060408201905061493b60008301856141d9565b61494860208301846141d9565b9392505050565b600061495a826141cf565b9150614965836141cf565b9250817f7fffffffffffffffffffffffffffffffffffffffffffffffffffffffffffffff038313600083121516156149a05761499f6147ac565b5b817f80000000000000000000000000000000000000000000000000000000000000000383126000831216156149d8576149d76147ac565b5b828201905092915050565b7f4e487b7100000000000000000000000000000000000000000000000000000000600052601260045260246000fd5b6000614a1d8261400a565b9150614a288361400a565b925082614a3857614a376149e3565b5b828204905092915050565b600081519050614a5281614420565b92915050565b600060208284031215614a6e57614a6d613fa7565b5b6000614a7c84828501614a43565b91505092915050565b6000608082019050614a9a6000830187614308565b614aa760208301866140c0565b614ab460408301856140c0565b614ac160608301846141d9565b95945050505050565b6000604082019050614adf60008301856140c0565b614aec60208301846140c0565b9392505050565b600081519050614b0281614014565b92915050565b600060208284031215614b1e57614b1d613fa7565b5b6000614b2c84828501614af3565b91505092915050565b6000606082019050614b4a6000830186614308565b614b5760208301856140c0565b614b646040830184614308565b949350505050565b6000604082019050614b816000830185614308565b614b8e6020830184614308565b9392505050565b6000606082019050614baa6000830186614308565b614bb760208301856140c0565b614bc460408301846140c0565b949350505050565b8082525050565b614bdc81614279565b82525050565b8082525050565b614bf28161400a565b82525050565b614c01816141cf565b82525050565b614c108161417d565b82525050565b600060e082019050614c2b600083018a614bcc565b614c386020830189614bd3565b614c456040830188614be2565b614c526060830187614be9565b614c5f6080830186614bf8565b614c6c60a0830185614c07565b614c7960c0830184614be9565b98975050505050505050565b6000614c908261400a565b9150614c9b8361400a565b9250817fffffffffffffffffffffffffffffffffffffffffffffffffffffffffffffffff0483118215151615614cd457614cd36147ac565b5b828202905092915050565b614ce881613fcc565b82525050565b6000614cf982614267565b9050919050565b614d0981614cee565b82525050565b60008160001c9050919050565b6000819050919050565b6000614d39614d3483614d0f565b614d1c565b9050919050565b614d498161400a565b82525050565b6000819050919050565b6000614d6c614d6783614d0f565b614d4f565b9050919050565b614d7c816141cf565b82525050565b600060ff82169050919050565b6000614da2614d9d83614d0f565b614d82565b9050919050565b614db28161417d565b82525050565b60a082016000808301549050614dcd81614d26565b614dda6000860182614d40565b5060018301549050614deb81614d26565b614df86020860182614d40565b5060028301549050614e0981614d59565b614e166040860182614d73565b5060038301549050614e2781614d26565b614e346060860182614d40565b5060048301549050614e4581614d8f565b614e526080860182614da9565b5050505050565b600073ffffffffffffffffffffffffffffffffffffffff82169050919050565b6000614e8c614e8783614d0f565b614e59565b9050919050565b614e9c81613fcc565b82525050565b60e082016000808301549050614eb781614e79565b614ec46000860182614e93565b5060018301549050614ed581614d26565b614ee26020860182614d40565b5060028301549050614ef381614d26565b614f006040860182614d40565b5060038301549050614f1181614d26565b614f1e6060860182614d40565b5060048301549050614f2f81614e79565b614f3c6080860182614e93565b5060058301549050614f4d81614e79565b614f5a60a0860182614e93565b5060068301549050614f6b81614e79565b614f7860c0860182614e93565b5050505050565b6000614f8a82614267565b9050919050565b614f9a81614f7f565b82525050565b600061020082019050614fb66000830189614cdf565b614fc36020830188614d00565b614fd06040830187614db8565b614fdd60e0830186614ea2565b614feb6101c0830185614f91565b614ff96101e0830184614be2565b979650505050505050565b6000806040838503121561501b5761501a613fa7565b5b600061502985828601614af3565b925050602061503a85828601614af3565b9150509250929050565b600061504f8261400a565b915061505a8361400a565b9250827fffffffffffffffffffffffffffffffffffffffffffffffffffffffffffffffff0382111561508f5761508e6147ac565b5b828201905092915050565b600060a0820190506150af6000830188614be2565b6150bc6020830187614be9565b6150c96040830186614be9565b6150d66060830185614be9565b6150e36080830184614be9565b9695505050505050565b60006060820190506151026000830186614308565b61510f6020830185614308565b61511c6040830184614189565b949350505050565b60008151905061513381613fde565b92915050565b60006020828403121561514f5761514e613fa7565b5b600061515d84828501615124565b91505092915050565b600060408201905061517b6000830185614189565b6151886020830184614308565b9392505050565b6000806000606084860312156151a8576151a7613fa7565b5b60006151b686828701614af3565b93505060206151c786828701614af3565b92505060406151d886828701615124565b9150509250925092565b60006060820190506151f76000830186614308565b6152046020830185614308565b61521160408301846140c0565b949350505050565b600081519050919050565b600081905092915050565b60005b8381101561524d578082015181840152602081019050615232565b8381111561525c576000848401525b50505050565b600061526d82615219565b6152778185615224565b935061528781856020860161522f565b80840191505092915050565b600061529f8284615262565b915081905092915050565b600081519050919050565b600082825260208201905092915050565b6000601f19601f8301169050919050565b60006152e2826152aa565b6152ec81856152b5565b93506152fc81856020860161522f565b615305816152c6565b840191505092915050565b6000602082019050818103600083015261532a81846152d7565b90509291505056fea2646970667358221220fc9e8023d9b2bd32cae70c5c8816deca6fe0efb999cbcc6abf61fc22b4b1989b64736f6c634300080d0033",
  "linkReferences": {
    "contracts/Limbo.sol": {
      "CrossingLib": [
        {
          "length": 20,
          "start": 6803
        }
      ],
      "MigrationLib": [
        {
          "length": 20,
          "start": 9093
        }
      ],
      "SoulLib": [
        {
          "length": 20,
          "start": 9958
        }
      ]
    }
  },
  "deployedLinkReferences": {
    "contracts/Limbo.sol": {
      "CrossingLib": [
        {
          "length": 20,
          "start": 5793
        }
      ],
      "MigrationLib": [
        {
          "length": 20,
          "start": 8083
        }
      ],
      "SoulLib": [
        {
          "length": 20,
          "start": 8948
        }
      ]
    }
  }
}