{
  "_format": "hh-sol-artifact-1",
  "contractName": "Limbo",
  "sourceName": "contracts/Limbo.sol",
  "abi": [
    {
      "inputs": [
        {
          "internalType": "address",
          "name": "flan",
          "type": "address"
        },
        {
          "internalType": "address",
          "name": "limboDAO",
          "type": "address"
        }
      ],
      "stateMutability": "nonpayable",
      "type": "constructor"
    },
    {
      "inputs": [
        {
          "internalType": "address",
          "name": "configurationLord",
          "type": "address"
        },
        {
          "internalType": "address",
          "name": "msg_sender",
          "type": "address"
        }
      ],
      "name": "AccessDenied",
      "type": "error"
    },
    {
      "inputs": [
        {
          "internalType": "address",
          "name": "expectedDAO",
          "type": "address"
        },
        {
          "internalType": "address",
          "name": "actualDAO",
          "type": "address"
        }
      ],
      "name": "BackrunDetected",
      "type": "error"
    },
    {
      "inputs": [
        {
          "internalType": "address",
          "name": "token",
          "type": "address"
        },
        {
          "internalType": "uint256",
          "name": "index",
          "type": "uint256"
        }
      ],
      "name": "BonusClaimed",
      "type": "error"
    },
    {
      "inputs": [
        {
          "internalType": "int256",
          "name": "accFlanPerTeraToken",
          "type": "int256"
        },
        {
          "internalType": "int256",
          "name": "bonusDelta",
          "type": "int256"
        }
      ],
      "name": "CrossingBonusInvariant",
      "type": "error"
    },
    {
      "inputs": [
        {
          "internalType": "address",
          "name": "token",
          "type": "address"
        },
        {
          "internalType": "uint256",
          "name": "amount",
          "type": "uint256"
        },
        {
          "internalType": "uint256",
          "name": "staked",
          "type": "uint256"
        }
      ],
      "name": "ExcessiveWithdrawalRequest",
      "type": "error"
    },
    {
      "inputs": [
        {
          "internalType": "address",
          "name": "token",
          "type": "address"
        },
        {
          "internalType": "uint256",
          "name": "index",
          "type": "uint256"
        },
        {
          "internalType": "uint256",
          "name": "staked",
          "type": "uint256"
        },
        {
          "internalType": "int256",
          "name": "finalFlanPerTeraToken",
          "type": "int256"
        }
      ],
      "name": "FlanBonusMustBePositive",
      "type": "error"
    },
    {
      "inputs": [
        {
          "internalType": "bool",
          "name": "configured",
          "type": "bool"
        },
        {
          "internalType": "address",
          "name": "proposal",
          "type": "address"
        }
      ],
      "name": "GovernanceActionFailed",
      "type": "error"
    },
    {
      "inputs": [
        {
          "internalType": "uint256",
          "name": "balance",
          "type": "uint256"
        },
        {
          "internalType": "uint256",
          "name": "value",
          "type": "uint256"
        }
      ],
      "name": "InsufficinetFunds",
      "type": "error"
    },
    {
      "inputs": [
        {
          "internalType": "address",
          "name": "token",
          "type": "address"
        }
      ],
      "name": "InvalidSoul",
      "type": "error"
    },
    {
      "inputs": [
        {
          "internalType": "address",
          "name": "token",
          "type": "address"
        },
        {
          "internalType": "uint256",
          "name": "state",
          "type": "uint256"
        }
      ],
      "name": "InvalidSoulState",
      "type": "error"
    },
    {
      "inputs": [
        {
          "internalType": "address",
          "name": "token",
          "type": "address"
        },
        {
          "internalType": "uint256",
          "name": "actualType",
          "type": "uint256"
        },
        {
          "internalType": "uint256",
          "name": "expectedType",
          "type": "uint256"
        }
      ],
      "name": "InvalidSoulType",
      "type": "error"
    },
    {
      "inputs": [
        {
          "internalType": "address",
          "name": "token",
          "type": "address"
        },
        {
          "internalType": "uint256",
          "name": "index",
          "type": "uint256"
        },
        {
          "internalType": "uint256",
          "name": "migrationDelay",
          "type": "uint256"
        }
      ],
      "name": "MigrationCoolDownActive",
      "type": "error"
    },
    {
      "inputs": [
        {
          "internalType": "address",
          "name": "EOA",
          "type": "address"
        }
      ],
      "name": "NotAContract",
      "type": "error"
    },
    {
      "inputs": [],
      "name": "OperationFailure",
      "type": "error"
    },
    {
      "inputs": [],
      "name": "ProtocolDisabled",
      "type": "error"
    },
    {
      "inputs": [
        {
          "internalType": "address",
          "name": "token",
          "type": "address"
        }
      ],
      "name": "TokenAccountedFor",
      "type": "error"
    },
    {
      "anonymous": false,
      "inputs": [
        {
          "indexed": true,
          "internalType": "address",
          "name": "token",
          "type": "address"
        },
        {
          "indexed": false,
          "internalType": "uint256",
          "name": "index",
          "type": "uint256"
        },
        {
          "indexed": true,
          "internalType": "address",
          "name": "recipient",
          "type": "address"
        },
        {
          "indexed": false,
          "internalType": "uint256",
          "name": "bonus",
          "type": "uint256"
        }
      ],
      "name": "BonusPaid",
      "type": "event"
    },
    {
      "anonymous": false,
      "inputs": [
        {
          "indexed": true,
          "internalType": "address",
          "name": "staker",
          "type": "address"
        },
        {
          "indexed": true,
          "internalType": "address",
          "name": "soul",
          "type": "address"
        },
        {
          "indexed": false,
          "internalType": "uint256",
          "name": "index",
          "type": "uint256"
        },
        {
          "indexed": false,
          "internalType": "uint256",
          "name": "amount",
          "type": "uint256"
        }
      ],
      "name": "ClaimedReward",
      "type": "event"
    },
    {
      "anonymous": false,
      "inputs": [
        {
          "indexed": true,
          "internalType": "address",
          "name": "soul",
          "type": "address"
        },
        {
          "indexed": false,
          "internalType": "uint256",
          "name": "fps",
          "type": "uint256"
        }
      ],
      "name": "SoulUpdated",
      "type": "event"
    },
    {
      "anonymous": false,
      "inputs": [
        {
          "indexed": true,
          "internalType": "address",
          "name": "staker",
          "type": "address"
        },
        {
          "indexed": true,
          "internalType": "address",
          "name": "soul",
          "type": "address"
        },
        {
          "indexed": false,
          "internalType": "uint256",
          "name": "amount",
          "type": "uint256"
        }
      ],
      "name": "Staked",
      "type": "event"
    },
    {
      "anonymous": false,
      "inputs": [
        {
          "indexed": true,
          "internalType": "address",
          "name": "token",
          "type": "address"
        },
        {
          "indexed": false,
          "internalType": "uint256",
          "name": "amount",
          "type": "uint256"
        },
        {
          "indexed": false,
          "internalType": "uint256",
          "name": "scxfln_LP_minted",
          "type": "uint256"
        }
      ],
      "name": "TokenListed",
      "type": "event"
    },
    {
      "anonymous": false,
      "inputs": [
        {
          "indexed": true,
          "internalType": "address",
          "name": "staker",
          "type": "address"
        },
        {
          "indexed": true,
          "internalType": "address",
          "name": "soul",
          "type": "address"
        },
        {
          "indexed": false,
          "internalType": "uint256",
          "name": "amount",
          "type": "uint256"
        }
      ],
      "name": "Unstaked",
      "type": "event"
    },
    {
      "inputs": [],
      "name": "DAO",
      "outputs": [
        {
          "internalType": "address",
          "name": "",
          "type": "address"
        }
      ],
      "stateMutability": "view",
      "type": "function"
    },
    {
      "inputs": [
        {
          "internalType": "address",
          "name": "token",
          "type": "address"
        },
        {
          "internalType": "uint256",
          "name": "initialCrossingBonus",
          "type": "uint256"
        },
        {
          "internalType": "int256",
          "name": "crossingBonusDelta",
          "type": "int256"
        },
        {
          "internalType": "uint256",
          "name": "fps",
          "type": "uint256"
        }
      ],
      "name": "adjustSoul",
      "outputs": [],
      "stateMutability": "nonpayable",
      "type": "function"
    },
    {
      "inputs": [
        {
          "internalType": "address",
          "name": "soul",
          "type": "address"
        },
        {
          "internalType": "address",
          "name": "unstaker",
          "type": "address"
        },
        {
          "internalType": "uint256",
          "name": "amount",
          "type": "uint256"
        }
      ],
      "name": "approveUnstake",
      "outputs": [],
      "stateMutability": "nonpayable",
      "type": "function"
    },
    {
      "inputs": [
        {
          "internalType": "address",
          "name": "token",
          "type": "address"
        },
        {
          "internalType": "uint256",
          "name": "desiredAPY",
          "type": "uint256"
        },
        {
          "internalType": "uint256",
          "name": "daiThreshold",
          "type": "uint256"
        }
      ],
      "name": "attemptToTargetAPY",
      "outputs": [],
      "stateMutability": "nonpayable",
      "type": "function"
    },
    {
      "inputs": [
        {
          "internalType": "address",
          "name": "token",
          "type": "address"
        },
        {
          "internalType": "uint256",
          "name": "index",
          "type": "uint256"
        }
      ],
      "name": "claimBonus",
      "outputs": [],
      "stateMutability": "nonpayable",
      "type": "function"
    },
    {
      "inputs": [
        {
          "internalType": "address",
          "name": "token",
          "type": "address"
        },
        {
          "internalType": "uint256",
          "name": "index",
          "type": "uint256"
        }
      ],
      "name": "claimReward",
      "outputs": [],
      "stateMutability": "nonpayable",
      "type": "function"
    },
    {
      "inputs": [
        {
          "internalType": "address",
          "name": "token",
          "type": "address"
        }
      ],
      "name": "claimSecondaryRewards",
      "outputs": [],
      "stateMutability": "nonpayable",
      "type": "function"
    },
    {
      "inputs": [
        {
          "internalType": "address",
          "name": "behodler",
          "type": "address"
        },
        {
          "internalType": "address",
          "name": "angband",
          "type": "address"
        },
        {
          "internalType": "address",
          "name": "ammHelper",
          "type": "address"
        },
        {
          "internalType": "address",
          "name": "morgothPower",
          "type": "address"
        },
        {
          "internalType": "uint256",
          "name": "migrationInvocationReward",
          "type": "uint256"
        },
        {
          "internalType": "uint256",
          "name": "crossingMigrationDelay",
          "type": "uint256"
        }
      ],
      "name": "configureCrossingConfig",
      "outputs": [],
      "stateMutability": "nonpayable",
      "type": "function"
    },
    {
      "inputs": [
        {
          "internalType": "address",
          "name": "token",
          "type": "address"
        },
        {
          "internalType": "uint256",
          "name": "initialCrossingBonus",
          "type": "uint256"
        },
        {
          "internalType": "int256",
          "name": "crossingBonusDelta",
          "type": "int256"
        },
        {
          "internalType": "bool",
          "name": "burnable",
          "type": "bool"
        },
        {
          "internalType": "uint256",
          "name": "crossingThreshold",
          "type": "uint256"
        }
      ],
      "name": "configureCrossingParameters",
      "outputs": [],
      "stateMutability": "nonpayable",
      "type": "function"
    },
    {
      "inputs": [
        {
          "internalType": "address",
          "name": "token",
          "type": "address"
        },
        {
          "internalType": "uint256",
          "name": "crossingThreshold",
          "type": "uint256"
        },
        {
          "internalType": "uint256",
          "name": "soulType",
          "type": "uint256"
        },
        {
          "internalType": "uint256",
          "name": "state",
          "type": "uint256"
        },
        {
          "internalType": "uint256",
          "name": "index",
          "type": "uint256"
        },
        {
          "internalType": "uint256",
          "name": "fps",
          "type": "uint256"
        }
      ],
      "name": "configureSoul",
      "outputs": [],
      "stateMutability": "nonpayable",
      "type": "function"
    },
    {
      "inputs": [],
      "name": "configured",
      "outputs": [
        {
          "internalType": "bool",
          "name": "",
          "type": "bool"
        }
      ],
      "stateMutability": "view",
      "type": "function"
    },
    {
      "inputs": [],
      "name": "crossingConfig",
      "outputs": [
        {
          "internalType": "address",
          "name": "behodler",
          "type": "address"
        },
        {
          "internalType": "uint256",
          "name": "SCX_fee",
          "type": "uint256"
        },
        {
          "internalType": "uint256",
          "name": "migrationInvocationReward",
          "type": "uint256"
        },
        {
          "internalType": "uint256",
          "name": "crossingMigrationDelay",
          "type": "uint256"
        },
        {
          "internalType": "address",
          "name": "morgothPower",
          "type": "address"
        },
        {
          "internalType": "address",
          "name": "angband",
          "type": "address"
        },
        {
          "internalType": "address",
          "name": "ammHelper",
          "type": "address"
        }
      ],
      "stateMutability": "view",
      "type": "function"
    },
    {
      "inputs": [],
      "name": "disableProtocol",
      "outputs": [],
      "stateMutability": "nonpayable",
      "type": "function"
    },
    {
      "inputs": [],
      "name": "enableProtocol",
      "outputs": [],
      "stateMutability": "nonpayable",
      "type": "function"
    },
    {
      "inputs": [
        {
          "internalType": "address",
          "name": "expectedDAO",
          "type": "address"
        }
      ],
      "name": "endConfiguration",
      "outputs": [],
      "stateMutability": "nonpayable",
      "type": "function"
    },
    {
      "inputs": [],
      "name": "governer",
      "outputs": [
        {
          "internalType": "contract FlashGovernanceArbiterLike",
          "name": "",
          "type": "address"
        }
      ],
      "stateMutability": "view",
      "type": "function"
    },
    {
      "inputs": [
        {
          "internalType": "address",
          "name": "",
          "type": "address"
        }
      ],
      "name": "latestIndex",
      "outputs": [
        {
          "internalType": "uint256",
          "name": "",
          "type": "uint256"
        }
      ],
      "stateMutability": "view",
      "type": "function"
    },
    {
      "inputs": [
        {
          "internalType": "address",
          "name": "token",
          "type": "address"
        }
      ],
      "name": "migrate",
      "outputs": [],
      "stateMutability": "nonpayable",
      "type": "function"
    },
    {
      "inputs": [
        {
          "internalType": "address",
          "name": "dao",
          "type": "address"
        }
      ],
      "name": "setDAO",
      "outputs": [],
      "stateMutability": "nonpayable",
      "type": "function"
    },
    {
      "inputs": [
        {
          "internalType": "address",
          "name": "",
          "type": "address"
        },
        {
          "internalType": "uint256",
          "name": "",
          "type": "uint256"
        }
      ],
      "name": "souls",
      "outputs": [
        {
          "internalType": "uint256",
          "name": "lastRewardTimestamp",
          "type": "uint256"
        },
        {
          "internalType": "uint256",
          "name": "accumulatedFlanPerShare",
          "type": "uint256"
        },
        {
          "internalType": "uint256",
          "name": "crossingThreshold",
          "type": "uint256"
        },
        {
          "internalType": "enum SoulType",
          "name": "soulType",
          "type": "uint8"
        },
        {
          "internalType": "enum SoulState",
          "name": "state",
          "type": "uint8"
        },
        {
          "internalType": "uint256",
          "name": "flanPerSecond",
          "type": "uint256"
        }
      ],
      "stateMutability": "view",
      "type": "function"
    },
    {
      "inputs": [
        {
          "internalType": "address",
          "name": "token",
          "type": "address"
        },
        {
          "internalType": "uint256",
          "name": "amount",
          "type": "uint256"
        }
      ],
      "name": "stake",
      "outputs": [],
      "stateMutability": "nonpayable",
      "type": "function"
    },
    {
      "inputs": [],
      "name": "temporaryConfigurationLord",
      "outputs": [
        {
          "internalType": "address",
          "name": "",
          "type": "address"
        }
      ],
      "stateMutability": "view",
      "type": "function"
    },
    {
      "inputs": [
        {
          "internalType": "address",
          "name": "",
          "type": "address"
        },
        {
          "internalType": "uint256",
          "name": "",
          "type": "uint256"
        }
      ],
      "name": "tokenCrossingParameters",
      "outputs": [
        {
          "internalType": "uint256",
          "name": "stakingBeginsTimestamp",
          "type": "uint256"
        },
        {
          "internalType": "uint256",
          "name": "stakingEndsTimestamp",
          "type": "uint256"
        },
        {
          "internalType": "int256",
          "name": "crossingBonusDelta",
          "type": "int256"
        },
        {
          "internalType": "uint256",
          "name": "initialCrossingBonus",
          "type": "uint256"
        },
        {
          "internalType": "bool",
          "name": "burnable",
          "type": "bool"
        }
      ],
      "stateMutability": "view",
      "type": "function"
    },
    {
      "inputs": [
        {
          "internalType": "address",
          "name": "token",
          "type": "address"
        },
        {
          "internalType": "uint256",
          "name": "amount",
          "type": "uint256"
        }
      ],
      "name": "unstake",
      "outputs": [],
      "stateMutability": "nonpayable",
      "type": "function"
    },
    {
      "inputs": [
        {
          "internalType": "address",
          "name": "",
          "type": "address"
        },
        {
          "internalType": "address",
          "name": "",
          "type": "address"
        },
        {
          "internalType": "address",
          "name": "",
          "type": "address"
        }
      ],
      "name": "unstakeApproval",
      "outputs": [
        {
          "internalType": "uint256",
          "name": "",
          "type": "uint256"
        }
      ],
      "stateMutability": "view",
      "type": "function"
    },
    {
      "inputs": [
        {
          "internalType": "address",
          "name": "token",
          "type": "address"
        },
        {
          "internalType": "uint256",
          "name": "amount",
          "type": "uint256"
        },
        {
          "internalType": "address",
          "name": "holder",
          "type": "address"
        }
      ],
      "name": "unstakeFor",
      "outputs": [],
      "stateMutability": "nonpayable",
      "type": "function"
    },
    {
      "inputs": [
        {
          "internalType": "address",
          "name": "token",
          "type": "address"
        }
      ],
      "name": "updateSoul",
      "outputs": [],
      "stateMutability": "nonpayable",
      "type": "function"
    },
    {
      "inputs": [
        {
          "internalType": "address",
          "name": "",
          "type": "address"
        },
        {
          "internalType": "address",
          "name": "",
          "type": "address"
        },
        {
          "internalType": "uint256",
          "name": "",
          "type": "uint256"
        }
      ],
      "name": "userInfo",
      "outputs": [
        {
          "internalType": "uint256",
          "name": "stakedAmount",
          "type": "uint256"
        },
        {
          "internalType": "uint256",
          "name": "rewardDebt",
          "type": "uint256"
        },
        {
          "internalType": "bool",
          "name": "bonusPaid",
          "type": "bool"
        }
      ],
      "stateMutability": "view",
      "type": "function"
    }
  ],
  "bytecode": "0x60a06040526001600260146101000a81548160ff0219169083151502179055503480156200002c57600080fd5b50604051620057543803806200575483398181016040528101906200005291906200033c565b806200006481620000e260201b60201c565b33600160006101000a81548173ffffffffffffffffffffffffffffffffffffffff021916908373ffffffffffffffffffffffffffffffffffffffff160217905550508173ffffffffffffffffffffffffffffffffffffffff1660808173ffffffffffffffffffffffffffffffffffffffff16815250505050620003c1565b600073ffffffffffffffffffffffffffffffffffffffff16600260009054906101000a900473ffffffffffffffffffffffffffffffffffffffff1673ffffffffffffffffffffffffffffffffffffffff1614158015620001905750600260009054906101000a900473ffffffffffffffffffffffffffffffffffffffff1673ffffffffffffffffffffffffffffffffffffffff163373ffffffffffffffffffffffffffffffffffffffff1614155b8015620001a95750620001a86200027a60201b60201c565b5b156200021257600160009054906101000a900473ffffffffffffffffffffffffffffffffffffffff16336040517fc21bbf9d0000000000000000000000000000000000000000000000000000000081526004016200020992919062000394565b60405180910390fd5b80600260006101000a81548173ffffffffffffffffffffffffffffffffffffffff021916908373ffffffffffffffffffffffffffffffffffffffff1602179055506000806101000a81549073ffffffffffffffffffffffffffffffffffffffff021916905550565b60008073ffffffffffffffffffffffffffffffffffffffff16600160009054906101000a900473ffffffffffffffffffffffffffffffffffffffff1673ffffffffffffffffffffffffffffffffffffffff1614905090565b600080fd5b600073ffffffffffffffffffffffffffffffffffffffff82169050919050565b60006200030482620002d7565b9050919050565b6200031681620002f7565b81146200032257600080fd5b50565b60008151905062000336816200030b565b92915050565b60008060408385031215620003565762000355620002d2565b5b6000620003668582860162000325565b9250506020620003798582860162000325565b9150509250929050565b6200038e81620002f7565b82525050565b6000604082019050620003ab600083018562000383565b620003ba602083018462000383565b9392505050565b608051615362620003f2600039600081816108f501528181611c9d015281816125fa015261346c01526153626000f3fe608060405234801561001057600080fd5b50600436106101c45760003560e01c80638772a23a116100f9578063c12cbe8611610097578063d4a4bdee11610071578063d4a4bdee146104d4578063dd77a475146104f0578063e73a914c1461050e578063ebaf15491461052a576101c4565b8063c12cbe8614610467578063c2a672e01461049c578063ce5494bb146104b8576101c4565b806398fabd3a116100d357806398fabd3a146103f5578063995dd38614610413578063adc9772e1461042f578063ade073141461044b576101c4565b80638772a23a1461039f5780638e4a0d19146103bd57806391084d6b146103d9576101c4565b80633091dde1116101665780634eaa7eb2116101405780634eaa7eb2146103395780636314736c146103555780636d0e9971146103715780637358a7641461037b576101c4565b80633091dde1146102cf5780633f56f75f146102ed578063477b73451461031d576101c4565b806315a13a3f116101a257806315a13a3f14610231578063174e31c4146102635780631db969dd1461027f57806325c2c3891461029b576101c4565b8063026800d0146101c9578063057e9b96146101e55780630fa8beb314610215575b600080fd5b6101e360048036038101906101de919061403a565b610534565b005b6101ff60048036038101906101fa919061408d565b610545565b60405161020c91906140c9565b60405180910390f35b61022f600480360381019061022a91906140e4565b61055d565b005b61024b60048036038101906102469190614124565b610a4f565b60405161025a93929190614192565b60405180910390f35b61027d600480360381019061027891906140e4565b610aa0565b005b6102996004803603810190610294919061408d565b610d4e565b005b6102b560048036038101906102b091906140e4565b610f6e565b6040516102c69594939291906141e2565b60405180910390f35b6102d7610fbe565b6040516102e49190614294565b60405180910390f35b610307600480360381019061030291906142af565b610fe2565b60405161031491906140c9565b60405180910390f35b61033760048036038101906103329190614124565b611014565b005b610353600480360381019061034e919061408d565b6110d7565b005b61036f600480360381019061036a919061408d565b611288565b005b6103796112a3565b005b6103836112cc565b6040516103969796959493929190614311565b60405180910390f35b6103a761137c565b6040516103b49190614380565b60405180910390f35b6103d760048036038101906103d2919061439b565b6113d4565b005b6103f360048036038101906103ee9190614446565b6115cc565b005b6103fd6116fd565b60405161040a91906144c1565b60405180910390f35b61042d600480360381019061042891906144dc565b611723565b005b610449600480360381019061044491906140e4565b6119d0565b005b61046560048036038101906104609190614543565b612038565b005b610481600480360381019061047c91906140e4565b61217f565b6040516104939695949392919061468f565b60405180910390f35b6104b660048036038101906104b191906140e4565b6121e2565b005b6104d260048036038101906104cd919061408d565b612238565b005b6104ee60048036038101906104e991906146f0565b6126d5565b005b6104f8612ac2565b60405161050591906144c1565b60405180910390f35b6105286004803603810190610523919061408d565b612ae8565b005b610532612c73565b005b61054083833384612c99565b505050565b600b6020528060005260406000206000915090505481565b600260149054906101000a900460ff166105a3576040517f931b485800000000000000000000000000000000000000000000000000000000815260040160405180910390fd5b6000600a60008473ffffffffffffffffffffffffffffffffffffffff1673ffffffffffffffffffffffffffffffffffffffff168152602001908152602001600020600083815260200190815260200160002090506000600d60008573ffffffffffffffffffffffffffffffffffffffff1673ffffffffffffffffffffffffffffffffffffffff1681526020019081526020016000206000848152602001908152602001600020905060038081111561065e5761065d6145d0565b5b8260030160019054906101000a900460ff166003811115610682576106816145d0565b5b141580156106c657506002600381111561069f5761069e6145d0565b5b8260030160019054906101000a900460ff1660038111156106c3576106c26145d0565b5b14155b1561072d57838260030160019054906101000a900460ff1660038111156106f0576106ef6145d0565b5b6040517fee164d6200000000000000000000000000000000000000000000000000000000815260040161072492919061477d565b60405180910390fd5b6000600c60008673ffffffffffffffffffffffffffffffffffffffff1673ffffffffffffffffffffffffffffffffffffffff16815260200190815260200160002060003373ffffffffffffffffffffffffffffffffffffffff1673ffffffffffffffffffffffffffffffffffffffff168152602001908152602001600020600085815260200190815260200160002090508060020160009054906101000a900460ff16156108145784846040517f4e69fdc400000000000000000000000000000000000000000000000000000000815260040161080b92919061477d565b60405180910390fd5b60018160020160006101000a81548160ff02191690831515021790555060008260000154836001015461084791906147d5565b83600201546108569190614809565b9050600083600201548261086a9190614809565b12156108b3578083600201546040517f98bb45540000000000000000000000000000000000000000000000000000000081526004016108aa929190614920565b60405180910390fd5b60008184600301546108c59190614949565b90506000808213156109975764e8d4a510008285600001546108e79190614809565b6108f19190614a0c565b90507f000000000000000000000000000000000000000000000000000000000000000073ffffffffffffffffffffffffffffffffffffffff166340c10f1933836040518363ffffffff1660e01b815260040161094e92919061477d565b6020604051808303816000875af115801561096d573d6000803e3d6000fd5b505050506040513d601f19601f820116820180604052508101906109919190614a52565b506109de565b87878560000154846040517f4445b4620000000000000000000000000000000000000000000000000000000081526004016109d59493929190614a7f565b60405180910390fd5b3373ffffffffffffffffffffffffffffffffffffffff168873ffffffffffffffffffffffffffffffffffffffff167f2e6a1e085447ae0bd3bb86ec4d6cdf0c9ebb5f8acb821852a2db9bf6bce1904e8984604051610a3d929190614ac4565b60405180910390a35050505050505050565b600c60205282600052604060002060205281600052604060002060205280600052604060002060009250925050508060000154908060010154908060020160009054906101000a900460ff16905083565b600260149054906101000a900460ff16610ae6576040517f931b485800000000000000000000000000000000000000000000000000000000815260040160405180910390fd5b6000600a60008473ffffffffffffffffffffffffffffffffffffffff1673ffffffffffffffffffffffffffffffffffffffff16815260200190815260200160002060008381526020019081526020016000209050610b4483826131ed565b6000600c60008573ffffffffffffffffffffffffffffffffffffffff1673ffffffffffffffffffffffffffffffffffffffff16815260200190815260200160002060003373ffffffffffffffffffffffffffffffffffffffff1673ffffffffffffffffffffffffffffffffffffffff168152602001908152602001600020600084815260200190815260200160002090506000610cc48260405180606001604052908160008201548152602001600182015481526020016002820160009054906101000a900460ff161515151581525050846040518060c00160405290816000820154815260200160018201548152602001600282015481526020016003820160009054906101000a900460ff166002811115610c6457610c636145d0565b5b6002811115610c7657610c756145d0565b5b81526020016003820160019054906101000a900460ff166003811115610c9f57610c9e6145d0565b5b6003811115610cb157610cb06145d0565b5b815260200160048201548152505061342d565b90506000811115610d4757610cdf338285600101548561346a565b8473ffffffffffffffffffffffffffffffffffffffff163373ffffffffffffffffffffffffffffffffffffffff167fd3208fd5300db64b97bc442f47ade72b7ebcd9272aaecdcc04c777bb762861b98684604051610d3e929190614ac4565b60405180910390a35b5050505050565b6000610d5982613537565b60030160019054906101000a900460ff16905060006003811115610d8057610d7f6145d0565b5b816003811115610d9357610d926145d0565b5b14158015610dc55750600380811115610daf57610dae6145d0565b5b816003811115610dc257610dc16145d0565b5b14155b15610e0757816040517f2b701e04000000000000000000000000000000000000000000000000000000008152600401610dfe91906144c1565b60405180910390fd5b60008273ffffffffffffffffffffffffffffffffffffffff166370a08231306040518263ffffffff1660e01b8152600401610e4291906144c1565b602060405180830381865afa158015610e5f573d6000803e3d6000fd5b505050506040513d601f19601f82011682018060405250810190610e839190614b02565b9050610ed5600360060160009054906101000a900473ffffffffffffffffffffffffffffffffffffffff16828573ffffffffffffffffffffffffffffffffffffffff166135cf9092919063ffffffff16565b600360060160009054906101000a900473ffffffffffffffffffffffffffffffffffffffff1673ffffffffffffffffffffffffffffffffffffffff16638b8de7158483336040518463ffffffff1660e01b8152600401610f3793929190614b2f565b600060405180830381600087803b158015610f5157600080fd5b505af1158015610f65573d6000803e3d6000fd5b50505050505050565b600d602052816000526040600020602052806000526040600020600091509150508060000154908060010154908060020154908060030154908060040160009054906101000a900460ff16905085565b60008054906101000a900473ffffffffffffffffffffffffffffffffffffffff1681565b600e60205282600052604060002060205281600052604060002060205280600052604060002060009250925050505481565b80600e60008573ffffffffffffffffffffffffffffffffffffffff1673ffffffffffffffffffffffffffffffffffffffff16815260200190815260200160002060003373ffffffffffffffffffffffffffffffffffffffff1673ffffffffffffffffffffffffffffffffffffffff16815260200190815260200160002060008473ffffffffffffffffffffffffffffffffffffffff1673ffffffffffffffffffffffffffffffffffffffff16815260200190815260200160002081905550505050565b600160009054906101000a900473ffffffffffffffffffffffffffffffffffffffff1673ffffffffffffffffffffffffffffffffffffffff163373ffffffffffffffffffffffffffffffffffffffff161461118d57600160009054906101000a900473ffffffffffffffffffffffffffffffffffffffff16336040517fc21bbf9d000000000000000000000000000000000000000000000000000000008152600401611184929190614b66565b60405180910390fd5b600260009054906101000a900473ffffffffffffffffffffffffffffffffffffffff1673ffffffffffffffffffffffffffffffffffffffff168173ffffffffffffffffffffffffffffffffffffffff16146112435780600260009054906101000a900473ffffffffffffffffffffffffffffffffffffffff166040517f3f0e213300000000000000000000000000000000000000000000000000000000815260040161123a929190614b66565b60405180910390fd5b6000600160006101000a81548173ffffffffffffffffffffffffffffffffffffffff021916908373ffffffffffffffffffffffffffffffffffffffff16021790555050565b600061129382613537565b905061129f82826131ed565b5050565b60016112ae81613655565b6000600260146101000a81548160ff02191690831515021790555050565b60038060000160009054906101000a900473ffffffffffffffffffffffffffffffffffffffff16908060010154908060020154908060030154908060040160009054906101000a900473ffffffffffffffffffffffffffffffffffffffff16908060050160009054906101000a900473ffffffffffffffffffffffffffffffffffffffff16908060060160009054906101000a900473ffffffffffffffffffffffffffffffffffffffff16905087565b60008073ffffffffffffffffffffffffffffffffffffffff16600160009054906101000a900473ffffffffffffffffffffffffffffffffffffffff1673ffffffffffffffffffffffffffffffffffffffff1614905090565b60006113df81613655565b60006113ea85613537565b905060016002811115611400576113ff6145d0565b5b8160030160009054906101000a900460ff166002811115611424576114236145d0565b5b146114a057848160030160009054906101000a900460ff16600281111561144e5761144d6145d0565b5b60016002811115611462576114616145d0565b5b6040517f881315bb00000000000000000000000000000000000000000000000000000000815260040161149793929190614b8f565b60405180910390fd5b6000600360060160009054906101000a900473ffffffffffffffffffffffffffffffffffffffff1673ffffffffffffffffffffffffffffffffffffffff1663421e5b4886866040518363ffffffff1660e01b8152600401611502929190614ac4565b602060405180830381865afa15801561151f573d6000803e3d6000fd5b505050506040513d601f19601f820116820180604052508101906115439190614b02565b905061154d6138ba565b73ffffffffffffffffffffffffffffffffffffffff16634739a2ba8360040154836040518363ffffffff1660e01b815260040161158b929190614ac4565b60006040518083038186803b1580156115a357600080fd5b505afa1580156115b7573d6000803e3d6000fd5b50505050808260040181905550505050505050565b60006115d781613655565b6000600d60008873ffffffffffffffffffffffffffffffffffffffff1673ffffffffffffffffffffffffffffffffffffffff1681526020019081526020016000206000600b60008a73ffffffffffffffffffffffffffffffffffffffff1673ffffffffffffffffffffffffffffffffffffffff1681526020019081526020016000205481526020019081526020016000209050600061167588613537565b90508173__$2c466dad8fece1fcf22cff368d182be371$__63eabf117b909161169c6138ba565b848b8b8b8b6040518863ffffffff1660e01b81526004016116c39796959493929190614c10565b60006040518083038186803b1580156116db57600080fd5b505af41580156116ef573d6000803e3d6000fd5b505050505050505050505050565b600260009054906101000a900473ffffffffffffffffffffffffffffffffffffffff1681565b600061172e81613655565b600061173986613537565b90506117436138ba565b73ffffffffffffffffffffffffffffffffffffffff16634739a2ba8260040154856040518363ffffffff1660e01b8152600401611781929190614ac4565b60006040518083038186803b15801561179957600080fd5b505afa1580156117ad573d6000803e3d6000fd5b505050508281600401819055506000600d60008873ffffffffffffffffffffffffffffffffffffffff1673ffffffffffffffffffffffffffffffffffffffff1681526020019081526020016000206000600b60008a73ffffffffffffffffffffffffffffffffffffffff1673ffffffffffffffffffffffffffffffffffffffff16815260200190815260200160002054815260200190815260200160002090506118556138ba565b73ffffffffffffffffffffffffffffffffffffffff16634739a2ba8260030154886040518363ffffffff1660e01b8152600401611893929190614ac4565b60006040518083038186803b1580156118ab57600080fd5b505afa1580156118bf573d6000803e3d6000fd5b505050506118cb6138ba565b73ffffffffffffffffffffffffffffffffffffffff16634739a2ba60008360020154126118fc57826002015461192d565b7fffffffffffffffffffffffffffffffffffffffffffffffffffffffffffffffff836002015461192c9190614809565b5b6000881261193b5787611968565b7fffffffffffffffffffffffffffffffffffffffffffffffffffffffffffffffff886119679190614809565b5b6040518363ffffffff1660e01b8152600401611985929190614ac4565b60006040518083038186803b15801561199d57600080fd5b505afa1580156119b1573d6000803e3d6000fd5b5050505085816003018190555084816002018190555050505050505050565b600260149054906101000a900460ff16611a16576040517f931b485800000000000000000000000000000000000000000000000000000000815260040160405180910390fd5b6000611a2183613537565b905060016003811115611a3757611a366145d0565b5b8160030160019054906101000a900460ff166003811115611a5b57611a5a6145d0565b5b14611ac257828160030160019054906101000a900460ff166003811115611a8557611a846145d0565b5b6040517fee164d62000000000000000000000000000000000000000000000000000000008152600401611ab992919061477d565b60405180910390fd5b611acc83826131ed565b6000600b60008573ffffffffffffffffffffffffffffffffffffffff1673ffffffffffffffffffffffffffffffffffffffff1681526020019081526020016000205490506000600c60008673ffffffffffffffffffffffffffffffffffffffff1673ffffffffffffffffffffffffffffffffffffffff16815260200190815260200160002060003373ffffffffffffffffffffffffffffffffffffffff1673ffffffffffffffffffffffffffffffffffffffff168152602001908152602001600020600083815260200190815260200160002090506000611c908260405180606001604052908160008201548152602001600182015481526020016002820160009054906101000a900460ff161515151581525050856040518060c00160405290816000820154815260200160018201548152602001600282015481526020016003820160009054906101000a900460ff166002811115611c3057611c2f6145d0565b5b6002811115611c4257611c416145d0565b5b81526020016003820160019054906101000a900460ff166003811115611c6b57611c6a6145d0565b5b6003811115611c7d57611c7c6145d0565b5b815260200160048201548152505061342d565b90506000811115611d3b577f000000000000000000000000000000000000000000000000000000000000000073ffffffffffffffffffffffffffffffffffffffff166340c10f1933836040518363ffffffff1660e01b8152600401611cf692919061477d565b6020604051808303816000875af1158015611d15573d6000803e3d6000fd5b505050506040513d601f19601f82011682018060405250810190611d399190614a52565b505b60008673ffffffffffffffffffffffffffffffffffffffff166370a08231306040518263ffffffff1660e01b8152600401611d7691906144c1565b602060405180830381865afa158015611d93573d6000803e3d6000fd5b505050506040513d601f19601f82011682018060405250810190611db79190614b02565b9050611de63330888a73ffffffffffffffffffffffffffffffffffffffff16613a06909392919063ffffffff16565b60008773ffffffffffffffffffffffffffffffffffffffff166370a08231306040518263ffffffff1660e01b8152600401611e2191906144c1565b602060405180830381865afa158015611e3e573d6000803e3d6000fd5b505050506040513d601f19601f82011682018060405250810190611e629190614b02565b905081818560000154611e759190614c7f565b611e7f91906147d5565b846000018190555060016002811115611e9b57611e9a6145d0565b5b8660030160009054906101000a900460ff166002811115611ebf57611ebe6145d0565b5b148015611ecf5750856002015481115b15611f995760028660030160016101000a81548160ff02191690836003811115611efc57611efb6145d0565b5b021790555042600d60008a73ffffffffffffffffffffffffffffffffffffffff1673ffffffffffffffffffffffffffffffffffffffff1681526020019081526020016000206000600b60008c73ffffffffffffffffffffffffffffffffffffffff1673ffffffffffffffffffffffffffffffffffffffff168152602001908152602001600020548152602001908152602001600020600101819055505b64e8d4a5100086600101548560000154611fb39190614cd5565b611fbd9190614a0c565b84600101819055508773ffffffffffffffffffffffffffffffffffffffff163373ffffffffffffffffffffffffffffffffffffffff167f5dac0c1b1112564a045ba943c9d50270893e8e826c49be8e7073adc713ab7bd7866000015460405161202691906140c9565b60405180910390a35050505050505050565b61204133613a8f565b670de0b6b3a7640000826120559190614cd5565b60036002018190555085600360000160006101000a81548173ffffffffffffffffffffffffffffffffffffffff021916908373ffffffffffffffffffffffffffffffffffffffff16021790555080600380018190555084600360050160006101000a81548173ffffffffffffffffffffffffffffffffffffffff021916908373ffffffffffffffffffffffffffffffffffffffff16021790555083600360060160006101000a81548173ffffffffffffffffffffffffffffffffffffffff021916908373ffffffffffffffffffffffffffffffffffffffff16021790555082600360040160006101000a81548173ffffffffffffffffffffffffffffffffffffffff021916908373ffffffffffffffffffffffffffffffffffffffff160217905550505050505050565b600a602052816000526040600020602052806000526040600020600091509150508060000154908060010154908060020154908060030160009054906101000a900460ff16908060030160019054906101000a900460ff16908060040154905086565b600260149054906101000a900460ff16612228576040517f931b485800000000000000000000000000000000000000000000000000000000815260040160405180910390fd5b61223482823333612c99565b5050565b600260149054906101000a900460ff1661227e576040517f931b485800000000000000000000000000000000000000000000000000000000815260040160405180910390fd5b600061228982613537565b90506001600281111561229f5761229e6145d0565b5b8160030160009054906101000a900460ff1660028111156122c3576122c26145d0565b5b1461233f57818160030160009054906101000a900460ff1660028111156122ed576122ec6145d0565b5b60016002811115612301576123006145d0565b5b6040517f881315bb00000000000000000000000000000000000000000000000000000000815260040161233693929190614b8f565b60405180910390fd5b60026003811115612353576123526145d0565b5b8160030160019054906101000a900460ff166003811115612377576123766145d0565b5b146123de57818160030160019054906101000a900460ff1660038111156123a1576123a06145d0565b5b6040517fee164d620000000000000000000000000000000000000000000000000000000081526004016123d592919061477d565b60405180910390fd5b6003800154600d60008473ffffffffffffffffffffffffffffffffffffffff1673ffffffffffffffffffffffffffffffffffffffff1681526020019081526020016000206000600b60008673ffffffffffffffffffffffffffffffffffffffff1673ffffffffffffffffffffffffffffffffffffffff168152602001908152602001600020548152602001908152602001600020600101544261248191906147d5565b101561250b5781600b60008473ffffffffffffffffffffffffffffffffffffffff1673ffffffffffffffffffffffffffffffffffffffff1681526020019081526020016000205460038001546040517f8d4f5c4a00000000000000000000000000000000000000000000000000000000815260040161250293929190614b8f565b60405180910390fd5b6000808373ffffffffffffffffffffffffffffffffffffffff1673__$b104b1c07e3a5deb7e0a41fec4e7a5229d$__63326f3e639091600360040160009054906101000a900473ffffffffffffffffffffffffffffffffffffffff16600d60008973ffffffffffffffffffffffffffffffffffffffff1673ffffffffffffffffffffffffffffffffffffffff1681526020019081526020016000206000600b60008b73ffffffffffffffffffffffffffffffffffffffff1673ffffffffffffffffffffffffffffffffffffffff16815260200190815260200160002054815260200190815260200160002060037f0000000000000000000000000000000000000000000000000000000000000000896040518763ffffffff1660e01b815260040161263b96959493929190614ff0565b6040805180830381865af4158015612657573d6000803e3d6000fd5b505050506040513d601f19601f8201168201806040525081019061267b9190615054565b915091508373ffffffffffffffffffffffffffffffffffffffff167f5dc96537cbae524775a674b6a810d9a1ba04a9e279f172d156b352151394677a83836040516126c7929190614ac4565b60405180910390a250505050565b6126de33613b8a565b600b60008773ffffffffffffffffffffffffffffffffffffffff1673ffffffffffffffffffffffffffffffffffffffff16815260200190815260200160002054821161276957600b60008773ffffffffffffffffffffffffffffffffffffffff1673ffffffffffffffffffffffffffffffffffffffff168152602001908152602001600020546127b6565b6001600b60008873ffffffffffffffffffffffffffffffffffffffff1673ffffffffffffffffffffffffffffffffffffffff168152602001908152602001600020546127b59190614c7f565b5b600b60008873ffffffffffffffffffffffffffffffffffffffff1673ffffffffffffffffffffffffffffffffffffffff16815260200190815260200160002081905550600061280487613537565b9050600080600381111561281b5761281a6145d0565b5b8260030160019054906101000a900460ff16600381111561283f5761283e6145d0565b5b1415801561288357506000600381111561285c5761285b6145d0565b5b85600381111561286f5761286e6145d0565b5b6003811115612881576128806145d0565b5b145b90508173__$238d303093cb72ee6c89903e9289b96445$__63902160d99091898989886040518663ffffffff1660e01b81526004016128c6959493929190615094565b60006040518083038186803b1580156128de57600080fd5b505af41580156128f2573d6000803e3d6000fd5b505050506001600381111561290a576129096145d0565b5b85600381111561291d5761291c6145d0565b5b600381111561292f5761292e6145d0565b5b036129cc5742600d60008a73ffffffffffffffffffffffffffffffffffffffff1673ffffffffffffffffffffffffffffffffffffffff1681526020019081526020016000206000600b60008c73ffffffffffffffffffffffffffffffffffffffff1673ffffffffffffffffffffffffffffffffffffffff168152602001908152602001600020548152602001908152602001600020600001819055505b8015612a6a5742600d60008a73ffffffffffffffffffffffffffffffffffffffff1673ffffffffffffffffffffffffffffffffffffffff1681526020019081526020016000206000600b60008c73ffffffffffffffffffffffffffffffffffffffff1673ffffffffffffffffffffffffffffffffffffffff168152602001908152602001600020548152602001908152602001600020600101819055505b8773ffffffffffffffffffffffffffffffffffffffff167fd34a348d268737f5e75afa7c7fc24fc2f9f735a327855f1470134f75ead7d6c984604051612ab091906140c9565b60405180910390a25050505050505050565b600160009054906101000a900473ffffffffffffffffffffffffffffffffffffffff1681565b600073ffffffffffffffffffffffffffffffffffffffff16600260009054906101000a900473ffffffffffffffffffffffffffffffffffffffff1673ffffffffffffffffffffffffffffffffffffffff1614158015612b955750600260009054906101000a900473ffffffffffffffffffffffffffffffffffffffff1673ffffffffffffffffffffffffffffffffffffffff163373ffffffffffffffffffffffffffffffffffffffff1614155b8015612ba55750612ba461137c565b5b15612c0b57600160009054906101000a900473ffffffffffffffffffffffffffffffffffffffff16336040517fc21bbf9d000000000000000000000000000000000000000000000000000000008152600401612c02929190614b66565b60405180910390fd5b80600260006101000a81548173ffffffffffffffffffffffffffffffffffffffff021916908373ffffffffffffffffffffffffffffffffffffffff1602179055506000806101000a81549073ffffffffffffffffffffffffffffffffffffffff021916905550565b612c7c33613a8f565b6001600260146101000a81548160ff021916908315150217905550565b8073ffffffffffffffffffffffffffffffffffffffff168273ffffffffffffffffffffffffffffffffffffffff1614612d9d5782600e60008673ffffffffffffffffffffffffffffffffffffffff1673ffffffffffffffffffffffffffffffffffffffff16815260200190815260200160002060008373ffffffffffffffffffffffffffffffffffffffff1673ffffffffffffffffffffffffffffffffffffffff16815260200190815260200160002060008473ffffffffffffffffffffffffffffffffffffffff1673ffffffffffffffffffffffffffffffffffffffff1681526020019081526020016000206000828254612d9591906147d5565b925050819055505b6000612da885613537565b905060006003811115612dbe57612dbd6145d0565b5b8160030160019054906101000a900460ff166003811115612de257612de16145d0565b5b14158015612e26575060016003811115612dff57612dfe6145d0565b5b8160030160019054906101000a900460ff166003811115612e2357612e226145d0565b5b14155b15612e8d57848160030160019054906101000a900460ff166003811115612e5057612e4f6145d0565b5b6040517fee164d62000000000000000000000000000000000000000000000000000000008152600401612e8492919061477d565b60405180910390fd5b612e9785826131ed565b6000600b60008773ffffffffffffffffffffffffffffffffffffffff1673ffffffffffffffffffffffffffffffffffffffff1681526020019081526020016000205490506000600c60008873ffffffffffffffffffffffffffffffffffffffff1673ffffffffffffffffffffffffffffffffffffffff16815260200190815260200160002060008573ffffffffffffffffffffffffffffffffffffffff1673ffffffffffffffffffffffffffffffffffffffff168152602001908152602001600020600083815260200190815260200160002090508581600001541015612fbd57868682600001546040517f56a7796a000000000000000000000000000000000000000000000000000000008152600401612fb493929190614b8f565b60405180910390fd5b60006130ac8260405180606001604052908160008201548152602001600182015481526020016002820160009054906101000a900460ff161515151581525050856040518060c00160405290816000820154815260200160018201548152602001600282015481526020016003820160009054906101000a900460ff16600281111561304c5761304b6145d0565b5b600281111561305e5761305d6145d0565b5b81526020016003820160019054906101000a900460ff166003811115613087576130866145d0565b5b6003811115613099576130986145d0565b5b815260200160048201548152505061342d565b90506000811180156130be5750600087115b156131e3578682600001546130d391906147d5565b826000018190555061310686888a73ffffffffffffffffffffffffffffffffffffffff166135cf9092919063ffffffff16565b613116868286600101548561346a565b8773ffffffffffffffffffffffffffffffffffffffff168673ffffffffffffffffffffffffffffffffffffffff167fd3208fd5300db64b97bc442f47ade72b7ebcd9272aaecdcc04c777bb762861b98584604051613175929190614ac4565b60405180910390a38773ffffffffffffffffffffffffffffffffffffffff168673ffffffffffffffffffffffffffffffffffffffff167fd8654fcc8cf5b36d30b3f5e4688fc78118e6d68de60b9994e09902268b57c3e3896040516131da91906140c9565b60405180910390a35b5050505050505050565b60006002811115613201576132006145d0565b5b8160030160009054906101000a900460ff166002811115613225576132246145d0565b5b0361326757816040517f3dc3465100000000000000000000000000000000000000000000000000000000815260040161325e91906144c1565b60405180910390fd5b6000429050600160038111156132805761327f6145d0565b5b8260030160019054906101000a900460ff1660038111156132a4576132a36145d0565b5b1461333f57600d60008473ffffffffffffffffffffffffffffffffffffffff1673ffffffffffffffffffffffffffffffffffffffff1681526020019081526020016000206000600b60008673ffffffffffffffffffffffffffffffffffffffff1673ffffffffffffffffffffffffffffffffffffffff1681526020019081526020016000205481526020019081526020016000206001015490505b60008373ffffffffffffffffffffffffffffffffffffffff166370a08231306040518263ffffffff1660e01b815260040161337a91906144c1565b602060405180830381865afa158015613397573d6000803e3d6000fd5b505050506040513d601f19601f820116820180604052508101906133bb9190614b02565b9050600081111561341e57600083600401548460000154846133dd91906147d5565b6133e79190614cd5565b90508164e8d4a51000826133fb9190614cd5565b6134059190614a0c565b84600101546134149190614c7f565b8460010181905550505b81836000018190555050505050565b6000826020015164e8d4a510008360200151856000015161344e9190614cd5565b6134589190614a0c565b61346291906147d5565b905092915050565b7f000000000000000000000000000000000000000000000000000000000000000073ffffffffffffffffffffffffffffffffffffffff166340c10f1985856040518363ffffffff1660e01b81526004016134c592919061477d565b6020604051808303816000875af11580156134e4573d6000803e3d6000fd5b505050506040513d601f19601f820116820180604052508101906135089190614a52565b5064e8d4a5100082826000015461351f9190614cd5565b6135299190614a0c565b816001018190555050505050565b6000600a60008373ffffffffffffffffffffffffffffffffffffffff1673ffffffffffffffffffffffffffffffffffffffff1681526020019081526020016000206000600b60008573ffffffffffffffffffffffffffffffffffffffff1673ffffffffffffffffffffffffffffffffffffffff1681526020019081526020016000205481526020019081526020016000209050919050565b6136508363a9059cbb60e01b84846040516024016135ee92919061477d565b604051602081830303815290604052907bffffffffffffffffffffffffffffffffffffffffffffffffffffffff19166020820180517bffffffffffffffffffffffffffffffffffffffffffffffffffffffff8381831617835250505050613d27565b505050565b6000600260009054906101000a900473ffffffffffffffffffffffffffffffffffffffff1673ffffffffffffffffffffffffffffffffffffffff1663b7ebc23b336040518263ffffffff1660e01b81526004016136b291906144c1565b602060405180830381865afa1580156136cf573d6000803e3d6000fd5b505050506040513d601f19601f820116820180604052508101906136f39190614a52565b9050801561378c5760008054906101000a900473ffffffffffffffffffffffffffffffffffffffff1673ffffffffffffffffffffffffffffffffffffffff1663ad64d6cb60006040518263ffffffff1660e01b81526004016137559190614380565b600060405180830381600087803b15801561376f57600080fd5b505af1158015613783573d6000803e3d6000fd5b505050506138b6565b61379461137c565b156138b55760008054906101000a900473ffffffffffffffffffffffffffffffffffffffff1673ffffffffffffffffffffffffffffffffffffffff1663ad64d6cb60016040518263ffffffff1660e01b81526004016137f39190614380565b600060405180830381600087803b15801561380d57600080fd5b505af1158015613821573d6000803e3d6000fd5b5050505060008054906101000a900473ffffffffffffffffffffffffffffffffffffffff1673ffffffffffffffffffffffffffffffffffffffff166398f112413330856040518463ffffffff1660e01b8152600401613882939291906150e7565b600060405180830381600087803b15801561389c57600080fd5b505af11580156138b0573d6000803e3d6000fd5b505050505b5b5050565b60008073ffffffffffffffffffffffffffffffffffffffff1660008054906101000a900473ffffffffffffffffffffffffffffffffffffffff1673ffffffffffffffffffffffffffffffffffffffff16036139e057600260009054906101000a900473ffffffffffffffffffffffffffffffffffffffff1673ffffffffffffffffffffffffffffffffffffffff16632317beae6040518163ffffffff1660e01b8152600401602060405180830381865afa15801561397c573d6000803e3d6000fd5b505050506040513d601f19601f820116820180604052508101906139a09190615133565b6000806101000a81548173ffffffffffffffffffffffffffffffffffffffff021916908373ffffffffffffffffffffffffffffffffffffffff1602179055505b60008054906101000a900473ffffffffffffffffffffffffffffffffffffffff16905090565b613a89846323b872dd60e01b858585604051602401613a2793929190615160565b604051602081830303815290604052907bffffffffffffffffffffffffffffffffffffffffffffffffffffffff19166020820180517bffffffffffffffffffffffffffffffffffffffffffffffffffffffff8381831617835250505050613d27565b50505050565b613a9761137c565b8015613b3c5750600260009054906101000a900473ffffffffffffffffffffffffffffffffffffffff1673ffffffffffffffffffffffffffffffffffffffff1663b7ebc23b826040518263ffffffff1660e01b8152600401613af991906144c1565b602060405180830381865afa158015613b16573d6000803e3d6000fd5b505050506040513d601f19601f82011682018060405250810190613b3a9190614a52565b155b15613b8757613b4961137c565b816040517f64218e39000000000000000000000000000000000000000000000000000000008152600401613b7e929190615197565b60405180910390fd5b50565b6000600260009054906101000a900473ffffffffffffffffffffffffffffffffffffffff1673ffffffffffffffffffffffffffffffffffffffff166301e179dc6040518163ffffffff1660e01b8152600401606060405180830381865afa158015613bf9573d6000803e3d6000fd5b505050506040513d601f19601f82011682018060405250810190613c1d91906151c0565b92505050613c2961137c565b8015613ccf57508073ffffffffffffffffffffffffffffffffffffffff166331de34696040518163ffffffff1660e01b8152600401602060405180830381865afa158015613c7b573d6000803e3d6000fd5b505050506040513d601f19601f82011682018060405250810190613c9f9190615133565b73ffffffffffffffffffffffffffffffffffffffff168273ffffffffffffffffffffffffffffffffffffffff1614155b15613d1a57613cdc61137c565b826040517f64218e39000000000000000000000000000000000000000000000000000000008152600401613d11929190615197565b60405180910390fd5b613d2382613a8f565b5050565b6000613d89826040518060400160405280602081526020017f5361666545524332303a206c6f772d6c6576656c2063616c6c206661696c65648152508573ffffffffffffffffffffffffffffffffffffffff16613de59092919063ffffffff16565b9050600081511115613de05780806020019051810190613da99190614a52565b613ddf576040517fa479450200000000000000000000000000000000000000000000000000000000815260040160405180910390fd5b5b505050565b6060613df48484600085613dfd565b90509392505050565b606082471015613e465747836040517f02de226f000000000000000000000000000000000000000000000000000000008152600401613e3d929190614ac4565b60405180910390fd5b613e4f85613f17565b613e9057846040517f8a8b41ec000000000000000000000000000000000000000000000000000000008152600401613e8791906144c1565b60405180910390fd5b6000808673ffffffffffffffffffffffffffffffffffffffff168587604051613eb9919061528d565b60006040518083038185875af1925050503d8060008114613ef6576040519150601f19603f3d011682016040523d82523d6000602084013e613efb565b606091505b5091509150613f0b828286613f3a565b92505050949350505050565b6000808273ffffffffffffffffffffffffffffffffffffffff163b119050919050565b60608315613f4a57829050613f9a565b600083511115613f5d5782518084602001fd5b816040517f08c379a0000000000000000000000000000000000000000000000000000000008152600401613f91919061530a565b60405180910390fd5b9392505050565b600080fd5b600073ffffffffffffffffffffffffffffffffffffffff82169050919050565b6000613fd182613fa6565b9050919050565b613fe181613fc6565b8114613fec57600080fd5b50565b600081359050613ffe81613fd8565b92915050565b6000819050919050565b61401781614004565b811461402257600080fd5b50565b6000813590506140348161400e565b92915050565b60008060006060848603121561405357614052613fa1565b5b600061406186828701613fef565b935050602061407286828701614025565b925050604061408386828701613fef565b9150509250925092565b6000602082840312156140a3576140a2613fa1565b5b60006140b184828501613fef565b91505092915050565b6140c381614004565b82525050565b60006020820190506140de60008301846140ba565b92915050565b600080604083850312156140fb576140fa613fa1565b5b600061410985828601613fef565b925050602061411a85828601614025565b9150509250929050565b60008060006060848603121561413d5761413c613fa1565b5b600061414b86828701613fef565b935050602061415c86828701613fef565b925050604061416d86828701614025565b9150509250925092565b60008115159050919050565b61418c81614177565b82525050565b60006060820190506141a760008301866140ba565b6141b460208301856140ba565b6141c16040830184614183565b949350505050565b6000819050919050565b6141dc816141c9565b82525050565b600060a0820190506141f760008301886140ba565b61420460208301876140ba565b61421160408301866141d3565b61421e60608301856140ba565b61422b6080830184614183565b9695505050505050565b6000819050919050565b600061425a61425561425084613fa6565b614235565b613fa6565b9050919050565b600061426c8261423f565b9050919050565b600061427e82614261565b9050919050565b61428e81614273565b82525050565b60006020820190506142a96000830184614285565b92915050565b6000806000606084860312156142c8576142c7613fa1565b5b60006142d686828701613fef565b93505060206142e786828701613fef565b92505060406142f886828701613fef565b9150509250925092565b61430b81613fc6565b82525050565b600060e082019050614326600083018a614302565b61433360208301896140ba565b61434060408301886140ba565b61434d60608301876140ba565b61435a6080830186614302565b61436760a0830185614302565b61437460c0830184614302565b98975050505050505050565b60006020820190506143956000830184614183565b92915050565b6000806000606084860312156143b4576143b3613fa1565b5b60006143c286828701613fef565b93505060206143d386828701614025565b92505060406143e486828701614025565b9150509250925092565b6143f7816141c9565b811461440257600080fd5b50565b600081359050614414816143ee565b92915050565b61442381614177565b811461442e57600080fd5b50565b6000813590506144408161441a565b92915050565b600080600080600060a0868803121561446257614461613fa1565b5b600061447088828901613fef565b955050602061448188828901614025565b945050604061449288828901614405565b93505060606144a388828901614431565b92505060806144b488828901614025565b9150509295509295909350565b60006020820190506144d66000830184614302565b92915050565b600080600080608085870312156144f6576144f5613fa1565b5b600061450487828801613fef565b945050602061451587828801614025565b935050604061452687828801614405565b925050606061453787828801614025565b91505092959194509250565b60008060008060008060c087890312156145605761455f613fa1565b5b600061456e89828a01613fef565b965050602061457f89828a01613fef565b955050604061459089828a01613fef565b94505060606145a189828a01613fef565b93505060806145b289828a01614025565b92505060a06145c389828a01614025565b9150509295509295509295565b7f4e487b7100000000000000000000000000000000000000000000000000000000600052602160045260246000fd5b600381106146105761460f6145d0565b5b50565b6000819050614621826145ff565b919050565b600061463182614613565b9050919050565b61464181614626565b82525050565b60048110614658576146576145d0565b5b50565b600081905061466982614647565b919050565b60006146798261465b565b9050919050565b6146898161466e565b82525050565b600060c0820190506146a460008301896140ba565b6146b160208301886140ba565b6146be60408301876140ba565b6146cb6060830186614638565b6146d86080830185614680565b6146e560a08301846140ba565b979650505050505050565b60008060008060008060c0878903121561470d5761470c613fa1565b5b600061471b89828a01613fef565b965050602061472c89828a01614025565b955050604061473d89828a01614025565b945050606061474e89828a01614025565b935050608061475f89828a01614025565b92505060a061477089828a01614025565b9150509295509295509295565b60006040820190506147926000830185614302565b61479f60208301846140ba565b9392505050565b7f4e487b7100000000000000000000000000000000000000000000000000000000600052601160045260246000fd5b60006147e082614004565b91506147eb83614004565b9250828210156147fe576147fd6147a6565b5b828203905092915050565b6000614814826141c9565b915061481f836141c9565b9250827f7fffffffffffffffffffffffffffffffffffffffffffffffffffffffffffffff048211600084136000841316161561485e5761485d6147a6565b5b817f8000000000000000000000000000000000000000000000000000000000000000058312600084126000841316161561489b5761489a6147a6565b5b827f800000000000000000000000000000000000000000000000000000000000000005821260008413600084121616156148d8576148d76147a6565b5b827f7fffffffffffffffffffffffffffffffffffffffffffffffffffffffffffffff0582126000841260008412161615614915576149146147a6565b5b828202905092915050565b600060408201905061493560008301856141d3565b61494260208301846141d3565b9392505050565b6000614954826141c9565b915061495f836141c9565b9250817f7fffffffffffffffffffffffffffffffffffffffffffffffffffffffffffffff0383136000831215161561499a576149996147a6565b5b817f80000000000000000000000000000000000000000000000000000000000000000383126000831216156149d2576149d16147a6565b5b828201905092915050565b7f4e487b7100000000000000000000000000000000000000000000000000000000600052601260045260246000fd5b6000614a1782614004565b9150614a2283614004565b925082614a3257614a316149dd565b5b828204905092915050565b600081519050614a4c8161441a565b92915050565b600060208284031215614a6857614a67613fa1565b5b6000614a7684828501614a3d565b91505092915050565b6000608082019050614a946000830187614302565b614aa160208301866140ba565b614aae60408301856140ba565b614abb60608301846141d3565b95945050505050565b6000604082019050614ad960008301856140ba565b614ae660208301846140ba565b9392505050565b600081519050614afc8161400e565b92915050565b600060208284031215614b1857614b17613fa1565b5b6000614b2684828501614aed565b91505092915050565b6000606082019050614b446000830186614302565b614b5160208301856140ba565b614b5e6040830184614302565b949350505050565b6000604082019050614b7b6000830185614302565b614b886020830184614302565b9392505050565b6000606082019050614ba46000830186614302565b614bb160208301856140ba565b614bbe60408301846140ba565b949350505050565b8082525050565b614bd681614273565b82525050565b8082525050565b614bec81614004565b82525050565b614bfb816141c9565b82525050565b614c0a81614177565b82525050565b600060e082019050614c25600083018a614bc6565b614c326020830189614bcd565b614c3f6040830188614bdc565b614c4c6060830187614be3565b614c596080830186614bf2565b614c6660a0830185614c01565b614c7360c0830184614be3565b98975050505050505050565b6000614c8a82614004565b9150614c9583614004565b9250827fffffffffffffffffffffffffffffffffffffffffffffffffffffffffffffffff03821115614cca57614cc96147a6565b5b828201905092915050565b6000614ce082614004565b9150614ceb83614004565b9250817fffffffffffffffffffffffffffffffffffffffffffffffffffffffffffffffff0483118215151615614d2457614d236147a6565b5b828202905092915050565b614d3881613fc6565b82525050565b6000614d4982614261565b9050919050565b614d5981614d3e565b82525050565b60008160001c9050919050565b6000819050919050565b6000614d89614d8483614d5f565b614d6c565b9050919050565b614d9981614004565b82525050565b6000819050919050565b6000614dbc614db783614d5f565b614d9f565b9050919050565b614dcc816141c9565b82525050565b600060ff82169050919050565b6000614df2614ded83614d5f565b614dd2565b9050919050565b614e0281614177565b82525050565b60a082016000808301549050614e1d81614d76565b614e2a6000860182614d90565b5060018301549050614e3b81614d76565b614e486020860182614d90565b5060028301549050614e5981614da9565b614e666040860182614dc3565b5060038301549050614e7781614d76565b614e846060860182614d90565b5060048301549050614e9581614ddf565b614ea26080860182614df9565b5050505050565b600073ffffffffffffffffffffffffffffffffffffffff82169050919050565b6000614edc614ed783614d5f565b614ea9565b9050919050565b614eec81613fc6565b82525050565b60e082016000808301549050614f0781614ec9565b614f146000860182614ee3565b5060018301549050614f2581614d76565b614f326020860182614d90565b5060028301549050614f4381614d76565b614f506040860182614d90565b5060038301549050614f6181614d76565b614f6e6060860182614d90565b5060048301549050614f7f81614ec9565b614f8c6080860182614ee3565b5060058301549050614f9d81614ec9565b614faa60a0860182614ee3565b5060068301549050614fbb81614ec9565b614fc860c0860182614ee3565b5050505050565b6000614fda82614261565b9050919050565b614fea81614fcf565b82525050565b6000610200820190506150066000830189614d2f565b6150136020830188614d50565b6150206040830187614e08565b61502d60e0830186614ef2565b61503b6101c0830185614fe1565b6150496101e0830184614bdc565b979650505050505050565b6000806040838503121561506b5761506a613fa1565b5b600061507985828601614aed565b925050602061508a85828601614aed565b9150509250929050565b600060a0820190506150a96000830188614bdc565b6150b66020830187614be3565b6150c36040830186614be3565b6150d06060830185614be3565b6150dd6080830184614be3565b9695505050505050565b60006060820190506150fc6000830186614302565b6151096020830185614302565b6151166040830184614183565b949350505050565b60008151905061512d81613fd8565b92915050565b60006020828403121561514957615148613fa1565b5b60006151578482850161511e565b91505092915050565b60006060820190506151756000830186614302565b6151826020830185614302565b61518f60408301846140ba565b949350505050565b60006040820190506151ac6000830185614183565b6151b96020830184614302565b9392505050565b6000806000606084860312156151d9576151d8613fa1565b5b60006151e786828701614aed565b93505060206151f886828701614aed565b92505060406152098682870161511e565b9150509250925092565b600081519050919050565b600081905092915050565b60005b8381101561524757808201518184015260208101905061522c565b83811115615256576000848401525b50505050565b600061526782615213565b615271818561521e565b9350615281818560208601615229565b80840191505092915050565b6000615299828461525c565b915081905092915050565b600081519050919050565b600082825260208201905092915050565b6000601f19601f8301169050919050565b60006152dc826152a4565b6152e681856152af565b93506152f6818560208601615229565b6152ff816152c0565b840191505092915050565b6000602082019050818103600083015261532481846152d1565b90509291505056fea26469706673582212203163a918b5c2f31dc22ebe6ec792f70329c16e840576fcafe795afd9a7c8d01c64736f6c634300080d0033",
  "linkReferences": {
    "contracts/Limbo.sol": {
      "CrossingLib": [
        {
          "length": 20,
          "start": 6764
        }
      ],
      "MigrationLib": [
        {
          "length": 20,
          "start": 10521
        }
      ],
      "SoulLib": [
        {
          "length": 20,
          "start": 11386
        }
      ]
    }
  },
  "deployedLinkReferences": {
    "contracts/Limbo.sol": {
      "CrossingLib": [
        {
          "length": 20,
          "start": 5754
        }
      ],
      "MigrationLib": [
        {
          "length": 20,
          "start": 9511
        }
      ],
      "SoulLib": [
        {
          "length": 20,
          "start": 10376
        }
      ]
    }
  }
}