{
  "_format": "hh-sol-artifact-1",
  "contractName": "VanillaProxy",
  "sourceName": "contracts/testing/VanillaProxy.sol",
  "abi": [
    {
      "inputs": [
        {
          "internalType": "address",
          "name": "_baseToken",
          "type": "address"
        },
        {
          "internalType": "string",
          "name": "name_",
          "type": "string"
        },
        {
          "internalType": "string",
          "name": "symbol_",
          "type": "string"
        },
        {
          "internalType": "address",
          "name": "registry",
          "type": "address"
        }
      ],
      "stateMutability": "nonpayable",
      "type": "constructor"
    },
    {
      "inputs": [
        {
          "internalType": "uint256",
          "name": "allowance",
          "type": "uint256"
        },
        {
          "internalType": "uint256",
          "name": "amount",
          "type": "uint256"
        }
      ],
      "name": "AllowanceExceeded",
      "type": "error"
    },
    {
      "inputs": [
        {
          "internalType": "uint256",
          "name": "allowance",
          "type": "uint256"
        },
        {
          "internalType": "uint256",
          "name": "subtraction",
          "type": "uint256"
        }
      ],
      "name": "AllowanceUnderflow",
      "type": "error"
    },
    {
      "inputs": [
        {
          "internalType": "uint256",
          "name": "accountBalance",
          "type": "uint256"
        },
        {
          "internalType": "uint256",
          "name": "amount",
          "type": "uint256"
        }
      ],
      "name": "BurnUnderflow",
      "type": "error"
    },
    {
      "inputs": [
        {
          "internalType": "uint256",
          "name": "balance",
          "type": "uint256"
        },
        {
          "internalType": "uint256",
          "name": "value",
          "type": "uint256"
        }
      ],
      "name": "InsufficinetFunds",
      "type": "error"
    },
    {
      "inputs": [
        {
          "internalType": "address",
          "name": "EOA",
          "type": "address"
        }
      ],
      "name": "NotAContract",
      "type": "error"
    },
    {
      "inputs": [
        {
          "internalType": "address",
          "name": "sender",
          "type": "address"
        },
        {
          "internalType": "address",
          "name": "proxy",
          "type": "address"
        }
      ],
      "name": "OnlyProxy",
      "type": "error"
    },
    {
      "inputs": [],
      "name": "OperationFailure",
      "type": "error"
    },
    {
      "inputs": [
        {
          "internalType": "uint256",
          "name": "senderBalance",
          "type": "uint256"
        },
        {
          "internalType": "uint256",
          "name": "fee",
          "type": "uint256"
        },
        {
          "internalType": "uint256",
          "name": "amount",
          "type": "uint256"
        }
      ],
      "name": "TransferUnderflow",
      "type": "error"
    },
    {
      "anonymous": false,
      "inputs": [
        {
          "indexed": true,
          "internalType": "address",
          "name": "owner",
          "type": "address"
        },
        {
          "indexed": true,
          "internalType": "address",
          "name": "spender",
          "type": "address"
        },
        {
          "indexed": false,
          "internalType": "uint256",
          "name": "value",
          "type": "uint256"
        }
      ],
      "name": "Approval",
      "type": "event"
    },
    {
      "anonymous": false,
      "inputs": [
        {
          "indexed": true,
          "internalType": "address",
          "name": "from",
          "type": "address"
        },
        {
          "indexed": true,
          "internalType": "address",
          "name": "to",
          "type": "address"
        },
        {
          "indexed": false,
          "internalType": "uint256",
          "name": "value",
          "type": "uint256"
        }
      ],
      "name": "Transfer",
      "type": "event"
    },
    {
      "inputs": [],
      "name": "IS_PROXY",
      "outputs": [
        {
          "internalType": "bool",
          "name": "",
          "type": "bool"
        }
      ],
      "stateMutability": "view",
      "type": "function"
    },
    {
      "inputs": [
        {
          "internalType": "address",
          "name": "owner",
          "type": "address"
        },
        {
          "internalType": "address",
          "name": "spender",
          "type": "address"
        }
      ],
      "name": "allowance",
      "outputs": [
        {
          "internalType": "uint256",
          "name": "",
          "type": "uint256"
        }
      ],
      "stateMutability": "view",
      "type": "function"
    },
    {
      "inputs": [
        {
          "internalType": "address",
          "name": "spender",
          "type": "address"
        },
        {
          "internalType": "uint256",
          "name": "amount",
          "type": "uint256"
        }
      ],
      "name": "approve",
      "outputs": [
        {
          "internalType": "bool",
          "name": "",
          "type": "bool"
        }
      ],
      "stateMutability": "nonpayable",
      "type": "function"
    },
    {
      "inputs": [
        {
          "internalType": "address",
          "name": "account",
          "type": "address"
        }
      ],
      "name": "balanceOf",
      "outputs": [
        {
          "internalType": "uint256",
          "name": "",
          "type": "uint256"
        }
      ],
      "stateMutability": "view",
      "type": "function"
    },
    {
      "inputs": [],
      "name": "baseToken",
      "outputs": [
        {
          "internalType": "address",
          "name": "",
          "type": "address"
        }
      ],
      "stateMutability": "view",
      "type": "function"
    },
    {
      "inputs": [],
      "name": "decimals",
      "outputs": [
        {
          "internalType": "uint8",
          "name": "",
          "type": "uint8"
        }
      ],
      "stateMutability": "view",
      "type": "function"
    },
    {
      "inputs": [
        {
          "internalType": "address",
          "name": "spender",
          "type": "address"
        },
        {
          "internalType": "uint256",
          "name": "subtractedValue",
          "type": "uint256"
        }
      ],
      "name": "decreaseAllowance",
      "outputs": [
        {
          "internalType": "bool",
          "name": "",
          "type": "bool"
        }
      ],
      "stateMutability": "nonpayable",
      "type": "function"
    },
    {
      "inputs": [
        {
          "internalType": "address",
          "name": "spender",
          "type": "address"
        },
        {
          "internalType": "uint256",
          "name": "addedValue",
          "type": "uint256"
        }
      ],
      "name": "increaseAllowance",
      "outputs": [
        {
          "internalType": "bool",
          "name": "",
          "type": "bool"
        }
      ],
      "stateMutability": "nonpayable",
      "type": "function"
    },
    {
      "inputs": [],
      "name": "initialRedeemRate",
      "outputs": [
        {
          "internalType": "uint256",
          "name": "",
          "type": "uint256"
        }
      ],
      "stateMutability": "view",
      "type": "function"
    },
    {
      "inputs": [
        {
          "internalType": "address",
          "name": "newProxy",
          "type": "address"
        }
      ],
      "name": "migrateBaseReserveToNewProxy",
      "outputs": [],
      "stateMutability": "nonpayable",
      "type": "function"
    },
    {
      "inputs": [
        {
          "internalType": "address",
          "name": "proxyRecipient",
          "type": "address"
        },
        {
          "internalType": "address",
          "name": "baseSource",
          "type": "address"
        },
        {
          "internalType": "uint256",
          "name": "amount",
          "type": "uint256"
        }
      ],
      "name": "mint",
      "outputs": [
        {
          "internalType": "uint256",
          "name": "",
          "type": "uint256"
        }
      ],
      "stateMutability": "nonpayable",
      "type": "function"
    },
    {
      "inputs": [],
      "name": "name",
      "outputs": [
        {
          "internalType": "string",
          "name": "",
          "type": "string"
        }
      ],
      "stateMutability": "view",
      "type": "function"
    },
    {
      "inputs": [],
      "name": "proxyRegistry",
      "outputs": [
        {
          "internalType": "address",
          "name": "",
          "type": "address"
        }
      ],
      "stateMutability": "view",
      "type": "function"
    },
    {
      "inputs": [
        {
          "internalType": "address",
          "name": "proxySource",
          "type": "address"
        },
        {
          "internalType": "address",
          "name": "baseRecipient",
          "type": "address"
        },
        {
          "internalType": "uint256",
          "name": "amount",
          "type": "uint256"
        }
      ],
      "name": "redeem",
      "outputs": [
        {
          "internalType": "uint256",
          "name": "baseAmount",
          "type": "uint256"
        }
      ],
      "stateMutability": "nonpayable",
      "type": "function"
    },
    {
      "inputs": [],
      "name": "redeemRate",
      "outputs": [
        {
          "internalType": "uint256",
          "name": "",
          "type": "uint256"
        }
      ],
      "stateMutability": "view",
      "type": "function"
    },
    {
      "inputs": [
        {
          "internalType": "address",
          "name": "recipient",
          "type": "address"
        },
        {
          "internalType": "uint256",
          "name": "amount",
          "type": "uint256"
        }
      ],
      "name": "redeemSelf",
      "outputs": [
        {
          "internalType": "uint256",
          "name": "",
          "type": "uint256"
        }
      ],
      "stateMutability": "nonpayable",
      "type": "function"
    },
    {
      "inputs": [
        {
          "internalType": "uint256",
          "name": "_R_amp",
          "type": "uint256"
        }
      ],
      "name": "setRAmpFinney",
      "outputs": [],
      "stateMutability": "nonpayable",
      "type": "function"
    },
    {
      "inputs": [],
      "name": "symbol",
      "outputs": [
        {
          "internalType": "string",
          "name": "",
          "type": "string"
        }
      ],
      "stateMutability": "view",
      "type": "function"
    },
    {
      "inputs": [],
      "name": "totalSupply",
      "outputs": [
        {
          "internalType": "uint256",
          "name": "",
          "type": "uint256"
        }
      ],
      "stateMutability": "view",
      "type": "function"
    },
    {
      "inputs": [
        {
          "internalType": "address",
          "name": "recipient",
          "type": "address"
        },
        {
          "internalType": "uint256",
          "name": "amount",
          "type": "uint256"
        }
      ],
      "name": "transfer",
      "outputs": [
        {
          "internalType": "bool",
          "name": "",
          "type": "bool"
        }
      ],
      "stateMutability": "nonpayable",
      "type": "function"
    },
    {
      "inputs": [
        {
          "internalType": "address",
          "name": "sender",
          "type": "address"
        },
        {
          "internalType": "address",
          "name": "recipient",
          "type": "address"
        },
        {
          "internalType": "uint256",
          "name": "amount",
          "type": "uint256"
        }
      ],
      "name": "transferFrom",
      "outputs": [
        {
          "internalType": "bool",
          "name": "",
          "type": "bool"
        }
      ],
      "stateMutability": "nonpayable",
      "type": "function"
    },
    {
      "inputs": [],
      "name": "withdrawReserve",
      "outputs": [],
      "stateMutability": "nonpayable",
      "type": "function"
    }
  ],
  "bytecode": "0x60e06040523480156200001157600080fd5b5060405162002669380380620026698339818101604052810190620000379190620003ba565b83838383670de0b6b3a7640000838381600390805190602001906200005e92919062000108565b5080600490805190602001906200007792919062000108565b5050508473ffffffffffffffffffffffffffffffffffffffff1660a08173ffffffffffffffffffffffffffffffffffffffff16815250508173ffffffffffffffffffffffffffffffffffffffff1660808173ffffffffffffffffffffffffffffffffffffffff16815250508060c081815250505050505050670de0b6b3a764000060058190555050505050620004ce565b828054620001169062000499565b90600052602060002090601f0160209004810192826200013a576000855562000186565b82601f106200015557805160ff191683800117855562000186565b8280016001018555821562000186579182015b828111156200018557825182559160200191906001019062000168565b5b50905062000195919062000199565b5090565b5b80821115620001b45760008160009055506001016200019a565b5090565b6000604051905090565b600080fd5b600080fd5b600073ffffffffffffffffffffffffffffffffffffffff82169050919050565b6000620001f982620001cc565b9050919050565b6200020b81620001ec565b81146200021757600080fd5b50565b6000815190506200022b8162000200565b92915050565b600080fd5b600080fd5b6000601f19601f8301169050919050565b7f4e487b7100000000000000000000000000000000000000000000000000000000600052604160045260246000fd5b62000286826200023b565b810181811067ffffffffffffffff82111715620002a857620002a76200024c565b5b80604052505050565b6000620002bd620001b8565b9050620002cb82826200027b565b919050565b600067ffffffffffffffff821115620002ee57620002ed6200024c565b5b620002f9826200023b565b9050602081019050919050565b60005b838110156200032657808201518184015260208101905062000309565b8381111562000336576000848401525b50505050565b6000620003536200034d84620002d0565b620002b1565b90508281526020810184848401111562000372576200037162000236565b5b6200037f84828562000306565b509392505050565b600082601f8301126200039f576200039e62000231565b5b8151620003b18482602086016200033c565b91505092915050565b60008060008060808587031215620003d757620003d6620001c2565b5b6000620003e7878288016200021a565b945050602085015167ffffffffffffffff8111156200040b576200040a620001c7565b5b620004198782880162000387565b935050604085015167ffffffffffffffff8111156200043d576200043c620001c7565b5b6200044b8782880162000387565b92505060606200045e878288016200021a565b91505092959194509250565b7f4e487b7100000000000000000000000000000000000000000000000000000000600052602260045260246000fd5b60006002820490506001821680620004b257607f821691505b602082108103620004c857620004c76200046a565b5b50919050565b60805160a05160c0516120f462000575600039600081816105dc0152818161060d015281816106610152818161093a01528181611387015261155c0152600081816105250152818161069f01528181610b9e01528181610c3801528181610ca401528181610e1c015281816113c90152818161146b01526114b5015260008181610ae801528181610b3c01528181610c8001528181610d680152610dbc01526120f46000f3fe608060405234801561001057600080fd5b50600436106101425760003560e01c80637376dd79116100b8578063b50cbd9f1161007c578063b50cbd9f146103a1578063c55dae63146103bf578063c6c3bbe6146103dd578063dd62ed3e1461040d578063ed3b379b1461043d578063fbed2d721461045957610142565b80637376dd79146102fb57806395d89b4114610319578063a457c2d714610337578063a9059cbb14610367578063ace1fab11461039757610142565b806323b872dd1161010a57806323b872dd14610201578063313ce56714610231578063395093511461024f5780633e6a300b1461027f5780636fe27aba1461029b57806370a08231146102cb57610142565b806306fdde0314610147578063095ea7b3146101655780630adcdbaa146101955780630e6dfcd5146101b357806318160ddd146101e3575b600080fd5b61014f610477565b60405161015c9190611a1b565b60405180910390f35b61017f600480360381019061017a9190611ad6565b610509565b60405161018c9190611b31565b60405180910390f35b61019d610520565b6040516101aa9190611b5b565b60405180910390f35b6101cd60048036038101906101c89190611b76565b610648565b6040516101da9190611b5b565b60405180910390f35b6101eb6106eb565b6040516101f89190611b5b565b60405180910390f35b61021b60048036038101906102169190611b76565b6106f5565b6040516102289190611b31565b60405180910390f35b610239610818565b6040516102469190611be5565b60405180910390f35b61026960048036038101906102649190611ad6565b610821565b6040516102769190611b31565b60405180910390f35b61029960048036038101906102949190611c00565b6108bf565b005b6102b560048036038101906102b09190611ad6565b6108db565b6040516102c29190611b5b565b60405180910390f35b6102e560048036038101906102e09190611c2d565b6108f0565b6040516102f29190611b5b565b60405180910390f35b610303610938565b6040516103109190611b5b565b60405180910390f35b61032161095c565b60405161032e9190611a1b565b60405180910390f35b610351600480360381019061034c9190611ad6565b6109ee565b60405161035e9190611b31565b60405180910390f35b610381600480360381019061037c9190611ad6565b610acf565b60405161038e9190611b31565b60405180910390f35b61039f610ae6565b005b6103a9610c7e565b6040516103b69190611c69565b60405180910390f35b6103c7610ca2565b6040516103d49190611c69565b60405180910390f35b6103f760048036038101906103f29190611b76565b610cc6565b6040516104049190611b5b565b60405180910390f35b61042760048036038101906104229190611c84565b610cdf565b6040516104349190611b5b565b60405180910390f35b61045760048036038101906104529190611c2d565b610d66565b005b610461610f39565b60405161046e9190611b31565b60405180910390f35b60606003805461048690611cf3565b80601f01602080910402602001604051908101604052809291908181526020018280546104b290611cf3565b80156104ff5780601f106104d4576101008083540402835291602001916104ff565b820191906000526020600020905b8154815290600101906020018083116104e257829003601f168201915b5050505050905090565b6000610516338484610f3e565b6001905092915050565b6000807f000000000000000000000000000000000000000000000000000000000000000073ffffffffffffffffffffffffffffffffffffffff166370a08231306040518263ffffffff1660e01b815260040161057c9190611c69565b602060405180830381865afa158015610599573d6000803e3d6000fd5b505050506040513d601f19601f820116820180604052508101906105bd9190611d39565b905060006105c96106eb565b14806105d55750600081145b15610603577f0000000000000000000000000000000000000000000000000000000000000000915050610645565b61060b6106eb565b7f0000000000000000000000000000000000000000000000000000000000000000826106379190611d95565b6106419190611e1e565b9150505b90565b600080610653610520565b905061065f8584611029565b7f0000000000000000000000000000000000000000000000000000000000000000818461068c9190611d95565b6106969190611e1e565b91506106e384837f000000000000000000000000000000000000000000000000000000000000000073ffffffffffffffffffffffffffffffffffffffff166111739092919063ffffffff16565b509392505050565b6000600254905090565b60006107028484846111f9565b6000600160008673ffffffffffffffffffffffffffffffffffffffff1673ffffffffffffffffffffffffffffffffffffffff16815260200190815260200160002060003373ffffffffffffffffffffffffffffffffffffffff1673ffffffffffffffffffffffffffffffffffffffff1681526020019081526020016000205490507fffffffffffffffffffffffffffffffffffffffffffffffffffffffffffffffff81141580156107b257508083115b156107f65780836040517fa92482560000000000000000000000000000000000000000000000000000000081526004016107ed929190611e4f565b60405180910390fd5b61080c853385846108079190611e78565b610f3e565b60019150509392505050565b60006012905090565b60006108b5338484600160003373ffffffffffffffffffffffffffffffffffffffff1673ffffffffffffffffffffffffffffffffffffffff16815260200190815260200160002060008873ffffffffffffffffffffffffffffffffffffffff1673ffffffffffffffffffffffffffffffffffffffff168152602001908152602001600020546108b09190611eac565b610f3e565b6001905092915050565b66038d7ea4c68000816108d29190611d95565b60058190555050565b60006108e8338484610648565b905092915050565b60008060008373ffffffffffffffffffffffffffffffffffffffff1673ffffffffffffffffffffffffffffffffffffffff168152602001908152602001600020549050919050565b7f000000000000000000000000000000000000000000000000000000000000000081565b60606004805461096b90611cf3565b80601f016020809104026020016040519081016040528092919081815260200182805461099790611cf3565b80156109e45780601f106109b9576101008083540402835291602001916109e4565b820191906000526020600020905b8154815290600101906020018083116109c757829003601f168201915b5050505050905090565b600080600160003373ffffffffffffffffffffffffffffffffffffffff1673ffffffffffffffffffffffffffffffffffffffff16815260200190815260200160002060008573ffffffffffffffffffffffffffffffffffffffff1673ffffffffffffffffffffffffffffffffffffffff16815260200190815260200160002054905082811015610ab75780836040517fda2d822c000000000000000000000000000000000000000000000000000000008152600401610aae929190611e4f565b60405180910390fd5b610ac43385858403610f3e565b600191505092915050565b6000610adc3384846111f9565b6001905092915050565b7f000000000000000000000000000000000000000000000000000000000000000073ffffffffffffffffffffffffffffffffffffffff163373ffffffffffffffffffffffffffffffffffffffff1614610b9857337f00000000000000000000000000000000000000000000000000000000000000006040517fd214286f000000000000000000000000000000000000000000000000000000008152600401610b8f929190611f02565b60405180910390fd5b610c7c337f000000000000000000000000000000000000000000000000000000000000000073ffffffffffffffffffffffffffffffffffffffff166370a08231306040518263ffffffff1660e01b8152600401610bf59190611c69565b602060405180830381865afa158015610c12573d6000803e3d6000fd5b505050506040513d601f19601f82011682018060405250810190610c369190611d39565b7f000000000000000000000000000000000000000000000000000000000000000073ffffffffffffffffffffffffffffffffffffffff166111739092919063ffffffff16565b565b7f000000000000000000000000000000000000000000000000000000000000000081565b7f000000000000000000000000000000000000000000000000000000000000000081565b6000610cd6600554858585611382565b90509392505050565b6000600160008473ffffffffffffffffffffffffffffffffffffffff1673ffffffffffffffffffffffffffffffffffffffff16815260200190815260200160002060008373ffffffffffffffffffffffffffffffffffffffff1673ffffffffffffffffffffffffffffffffffffffff16815260200190815260200160002054905092915050565b7f000000000000000000000000000000000000000000000000000000000000000073ffffffffffffffffffffffffffffffffffffffff163373ffffffffffffffffffffffffffffffffffffffff1614610e1857337f00000000000000000000000000000000000000000000000000000000000000006040517fd214286f000000000000000000000000000000000000000000000000000000008152600401610e0f929190611f02565b60405180910390fd5b60007f000000000000000000000000000000000000000000000000000000000000000090508073ffffffffffffffffffffffffffffffffffffffff1663a9059cbb838373ffffffffffffffffffffffffffffffffffffffff166370a08231306040518263ffffffff1660e01b8152600401610e939190611c69565b602060405180830381865afa158015610eb0573d6000803e3d6000fd5b505050506040513d601f19601f82011682018060405250810190610ed49190611d39565b6040518363ffffffff1660e01b8152600401610ef1929190611f2b565b6020604051808303816000875af1158015610f10573d6000803e3d6000fd5b505050506040513d601f19601f82011682018060405250810190610f349190611f80565b505050565b600181565b80600160008573ffffffffffffffffffffffffffffffffffffffff1673ffffffffffffffffffffffffffffffffffffffff16815260200190815260200160002060008473ffffffffffffffffffffffffffffffffffffffff1673ffffffffffffffffffffffffffffffffffffffff168152602001908152602001600020819055508173ffffffffffffffffffffffffffffffffffffffff168373ffffffffffffffffffffffffffffffffffffffff167f8c5be1e5ebec7d5bd14f71427d1e84f3dd0314c0f7b2291e5b200ac8c7c3b9258360405161101c9190611b5b565b60405180910390a3505050565b60008060008473ffffffffffffffffffffffffffffffffffffffff1673ffffffffffffffffffffffffffffffffffffffff168152602001908152602001600020549050818110156110b35780826040517f0a37dd410000000000000000000000000000000000000000000000000000000081526004016110aa929190611e4f565b60405180910390fd5b8181036000808573ffffffffffffffffffffffffffffffffffffffff1673ffffffffffffffffffffffffffffffffffffffff1681526020019081526020016000208190555081600260008282540392505081905550600073ffffffffffffffffffffffffffffffffffffffff168373ffffffffffffffffffffffffffffffffffffffff167fddf252ad1be2c89b69c2b068fc378daa952ba7f163c4a11628f55a4df523b3ef846040516111669190611b5b565b60405180910390a3505050565b6111f48363a9059cbb60e01b8484604051602401611192929190611f2b565b604051602081830303815290604052907bffffffffffffffffffffffffffffffffffffffffffffffffffffffff19166020820180517bffffffffffffffffffffffffffffffffffffffffffffffffffffffff83818316178352505050506115a7565b505050565b60008060008573ffffffffffffffffffffffffffffffffffffffff1673ffffffffffffffffffffffffffffffffffffffff1681526020019081526020016000205490508181101561128657806000836040517f57b9c4a400000000000000000000000000000000000000000000000000000000815260040161127d93929190611ff2565b60405180910390fd5b8181036000808673ffffffffffffffffffffffffffffffffffffffff1673ffffffffffffffffffffffffffffffffffffffff16815260200190815260200160002081905550816000808573ffffffffffffffffffffffffffffffffffffffff1673ffffffffffffffffffffffffffffffffffffffff168152602001908152602001600020600082825401925050819055508273ffffffffffffffffffffffffffffffffffffffff168473ffffffffffffffffffffffffffffffffffffffff167fddf252ad1be2c89b69c2b068fc378daa952ba7f163c4a11628f55a4df523b3ef846040516113749190611b5b565b60405180910390a350505050565b6000807f0000000000000000000000000000000000000000000000000000000000000000866113af610520565b6113b99190611d95565b6113c39190611e1e565b905060007f000000000000000000000000000000000000000000000000000000000000000073ffffffffffffffffffffffffffffffffffffffff166370a08231306040518263ffffffff1660e01b81526004016114209190611c69565b602060405180830381865afa15801561143d573d6000803e3d6000fd5b505050506040513d601f19601f820116820180604052508101906114619190611d39565b90506114b08530867f000000000000000000000000000000000000000000000000000000000000000073ffffffffffffffffffffffffffffffffffffffff16611665909392919063ffffffff16565b6000817f000000000000000000000000000000000000000000000000000000000000000073ffffffffffffffffffffffffffffffffffffffff166370a08231306040518263ffffffff1660e01b815260040161150c9190611c69565b602060405180830381865afa158015611529573d6000803e3d6000fd5b505050506040513d601f19601f8201168201806040525081019061154d9190611d39565b6115579190611e78565b9050827f0000000000000000000000000000000000000000000000000000000000000000826115869190611d95565b6115909190611e1e565b935061159c87856116ee565b505050949350505050565b6000611609826040518060400160405280602081526020017f5361666545524332303a206c6f772d6c6576656c2063616c6c206661696c65648152508573ffffffffffffffffffffffffffffffffffffffff166117c69092919063ffffffff16565b905060008151111561166057808060200190518101906116299190611f80565b61165f576040517fa479450200000000000000000000000000000000000000000000000000000000815260040160405180910390fd5b5b505050565b6116e8846323b872dd60e01b85858560405160240161168693929190612029565b604051602081830303815290604052907bffffffffffffffffffffffffffffffffffffffffffffffffffffffff19166020820180517bffffffffffffffffffffffffffffffffffffffffffffffffffffffff83818316178352505050506115a7565b50505050565b80600260008282546117009190611eac565b92505081905550806000808473ffffffffffffffffffffffffffffffffffffffff1673ffffffffffffffffffffffffffffffffffffffff16815260200190815260200160002060008282546117559190611eac565b925050819055508173ffffffffffffffffffffffffffffffffffffffff16600073ffffffffffffffffffffffffffffffffffffffff167fddf252ad1be2c89b69c2b068fc378daa952ba7f163c4a11628f55a4df523b3ef836040516117ba9190611b5b565b60405180910390a35050565b60606117d584846000856117de565b90509392505050565b6060824710156118275747836040517f02de226f00000000000000000000000000000000000000000000000000000000815260040161181e929190611e4f565b60405180910390fd5b611830856118f8565b61187157846040517f8a8b41ec0000000000000000000000000000000000000000000000000000000081526004016118689190611c69565b60405180910390fd5b6000808673ffffffffffffffffffffffffffffffffffffffff16858760405161189a91906120a7565b60006040518083038185875af1925050503d80600081146118d7576040519150601f19603f3d011682016040523d82523d6000602084013e6118dc565b606091505b50915091506118ec82828661191b565b92505050949350505050565b6000808273ffffffffffffffffffffffffffffffffffffffff163b119050919050565b6060831561192b5782905061197b565b60008351111561193e5782518084602001fd5b816040517f08c379a00000000000000000000000000000000000000000000000000000000081526004016119729190611a1b565b60405180910390fd5b9392505050565b600081519050919050565b600082825260208201905092915050565b60005b838110156119bc5780820151818401526020810190506119a1565b838111156119cb576000848401525b50505050565b6000601f19601f8301169050919050565b60006119ed82611982565b6119f7818561198d565b9350611a0781856020860161199e565b611a10816119d1565b840191505092915050565b60006020820190508181036000830152611a3581846119e2565b905092915050565b600080fd5b600073ffffffffffffffffffffffffffffffffffffffff82169050919050565b6000611a6d82611a42565b9050919050565b611a7d81611a62565b8114611a8857600080fd5b50565b600081359050611a9a81611a74565b92915050565b6000819050919050565b611ab381611aa0565b8114611abe57600080fd5b50565b600081359050611ad081611aaa565b92915050565b60008060408385031215611aed57611aec611a3d565b5b6000611afb85828601611a8b565b9250506020611b0c85828601611ac1565b9150509250929050565b60008115159050919050565b611b2b81611b16565b82525050565b6000602082019050611b466000830184611b22565b92915050565b611b5581611aa0565b82525050565b6000602082019050611b706000830184611b4c565b92915050565b600080600060608486031215611b8f57611b8e611a3d565b5b6000611b9d86828701611a8b565b9350506020611bae86828701611a8b565b9250506040611bbf86828701611ac1565b9150509250925092565b600060ff82169050919050565b611bdf81611bc9565b82525050565b6000602082019050611bfa6000830184611bd6565b92915050565b600060208284031215611c1657611c15611a3d565b5b6000611c2484828501611ac1565b91505092915050565b600060208284031215611c4357611c42611a3d565b5b6000611c5184828501611a8b565b91505092915050565b611c6381611a62565b82525050565b6000602082019050611c7e6000830184611c5a565b92915050565b60008060408385031215611c9b57611c9a611a3d565b5b6000611ca985828601611a8b565b9250506020611cba85828601611a8b565b9150509250929050565b7f4e487b7100000000000000000000000000000000000000000000000000000000600052602260045260246000fd5b60006002820490506001821680611d0b57607f821691505b602082108103611d1e57611d1d611cc4565b5b50919050565b600081519050611d3381611aaa565b92915050565b600060208284031215611d4f57611d4e611a3d565b5b6000611d5d84828501611d24565b91505092915050565b7f4e487b7100000000000000000000000000000000000000000000000000000000600052601160045260246000fd5b6000611da082611aa0565b9150611dab83611aa0565b9250817fffffffffffffffffffffffffffffffffffffffffffffffffffffffffffffffff0483118215151615611de457611de3611d66565b5b828202905092915050565b7f4e487b7100000000000000000000000000000000000000000000000000000000600052601260045260246000fd5b6000611e2982611aa0565b9150611e3483611aa0565b925082611e4457611e43611def565b5b828204905092915050565b6000604082019050611e646000830185611b4c565b611e716020830184611b4c565b9392505050565b6000611e8382611aa0565b9150611e8e83611aa0565b925082821015611ea157611ea0611d66565b5b828203905092915050565b6000611eb782611aa0565b9150611ec283611aa0565b9250827fffffffffffffffffffffffffffffffffffffffffffffffffffffffffffffffff03821115611ef757611ef6611d66565b5b828201905092915050565b6000604082019050611f176000830185611c5a565b611f246020830184611c5a565b9392505050565b6000604082019050611f406000830185611c5a565b611f4d6020830184611b4c565b9392505050565b611f5d81611b16565b8114611f6857600080fd5b50565b600081519050611f7a81611f54565b92915050565b600060208284031215611f9657611f95611a3d565b5b6000611fa484828501611f6b565b91505092915050565b6000819050919050565b6000819050919050565b6000611fdc611fd7611fd284611fad565b611fb7565b611aa0565b9050919050565b611fec81611fc1565b82525050565b60006060820190506120076000830186611b4c565b6120146020830185611fe3565b6120216040830184611b4c565b949350505050565b600060608201905061203e6000830186611c5a565b61204b6020830185611c5a565b6120586040830184611b4c565b949350505050565b600081519050919050565b600081905092915050565b600061208182612060565b61208b818561206b565b935061209b81856020860161199e565b80840191505092915050565b60006120b38284612076565b91508190509291505056fea2646970667358221220ba87c9be92db73579ec075d1c89b72e3e1246b764bd6b64d7468630bb6c0f3fa64736f6c634300080d0033",
  "linkReferences": {},
  "deployedLinkReferences": {}
}