{
  "_format": "hh-sol-artifact-1",
  "contractName": "VanillaProxy",
  "sourceName": "contracts/testing/VanillaProxy.sol",
  "abi": [
    {
      "inputs": [
        {
          "internalType": "address",
          "name": "_baseToken",
          "type": "address"
        },
        {
          "internalType": "string",
          "name": "name_",
          "type": "string"
        },
        {
          "internalType": "string",
          "name": "symbol_",
          "type": "string"
        },
        {
          "internalType": "address",
          "name": "registry",
          "type": "address"
        }
      ],
      "stateMutability": "nonpayable",
      "type": "constructor"
    },
    {
      "inputs": [
        {
          "internalType": "uint256",
          "name": "allowance",
          "type": "uint256"
        },
        {
          "internalType": "uint256",
          "name": "amount",
          "type": "uint256"
        }
      ],
      "name": "AllowanceExceeded",
      "type": "error"
    },
    {
      "inputs": [
        {
          "internalType": "uint256",
          "name": "allowance",
          "type": "uint256"
        },
        {
          "internalType": "uint256",
          "name": "subtraction",
          "type": "uint256"
        }
      ],
      "name": "AllowanceUnderflow",
      "type": "error"
    },
    {
      "inputs": [
        {
          "internalType": "uint256",
          "name": "accountBalance",
          "type": "uint256"
        },
        {
          "internalType": "uint256",
          "name": "amount",
          "type": "uint256"
        }
      ],
      "name": "BurnUnderflow",
      "type": "error"
    },
    {
      "inputs": [
        {
          "internalType": "uint256",
          "name": "balance",
          "type": "uint256"
        },
        {
          "internalType": "uint256",
          "name": "value",
          "type": "uint256"
        }
      ],
      "name": "InsufficinetFunds",
      "type": "error"
    },
    {
      "inputs": [
        {
          "internalType": "address",
          "name": "EOA",
          "type": "address"
        }
      ],
      "name": "NotAContract",
      "type": "error"
    },
    {
      "inputs": [
        {
          "internalType": "address",
          "name": "sender",
          "type": "address"
        },
        {
          "internalType": "address",
          "name": "proxy",
          "type": "address"
        }
      ],
      "name": "OnlyProxy",
      "type": "error"
    },
    {
      "inputs": [],
      "name": "OperationFailure",
      "type": "error"
    },
    {
      "inputs": [
        {
          "internalType": "uint256",
          "name": "senderBalance",
          "type": "uint256"
        },
        {
          "internalType": "uint256",
          "name": "fee",
          "type": "uint256"
        },
        {
          "internalType": "uint256",
          "name": "amount",
          "type": "uint256"
        }
      ],
      "name": "TransferUnderflow",
      "type": "error"
    },
    {
      "anonymous": false,
      "inputs": [
        {
          "indexed": true,
          "internalType": "address",
          "name": "owner",
          "type": "address"
        },
        {
          "indexed": true,
          "internalType": "address",
          "name": "spender",
          "type": "address"
        },
        {
          "indexed": false,
          "internalType": "uint256",
          "name": "value",
          "type": "uint256"
        }
      ],
      "name": "Approval",
      "type": "event"
    },
    {
      "anonymous": false,
      "inputs": [
        {
          "indexed": true,
          "internalType": "address",
          "name": "from",
          "type": "address"
        },
        {
          "indexed": true,
          "internalType": "address",
          "name": "to",
          "type": "address"
        },
        {
          "indexed": false,
          "internalType": "uint256",
          "name": "value",
          "type": "uint256"
        }
      ],
      "name": "Transfer",
      "type": "event"
    },
    {
      "inputs": [],
      "name": "IS_PROXY",
      "outputs": [
        {
          "internalType": "bool",
          "name": "",
          "type": "bool"
        }
      ],
      "stateMutability": "view",
      "type": "function"
    },
    {
      "inputs": [
        {
          "internalType": "address",
          "name": "owner",
          "type": "address"
        },
        {
          "internalType": "address",
          "name": "spender",
          "type": "address"
        }
      ],
      "name": "allowance",
      "outputs": [
        {
          "internalType": "uint256",
          "name": "",
          "type": "uint256"
        }
      ],
      "stateMutability": "view",
      "type": "function"
    },
    {
      "inputs": [
        {
          "internalType": "address",
          "name": "spender",
          "type": "address"
        },
        {
          "internalType": "uint256",
          "name": "amount",
          "type": "uint256"
        }
      ],
      "name": "approve",
      "outputs": [
        {
          "internalType": "bool",
          "name": "",
          "type": "bool"
        }
      ],
      "stateMutability": "nonpayable",
      "type": "function"
    },
    {
      "inputs": [
        {
          "internalType": "address",
          "name": "account",
          "type": "address"
        }
      ],
      "name": "balanceOf",
      "outputs": [
        {
          "internalType": "uint256",
          "name": "",
          "type": "uint256"
        }
      ],
      "stateMutability": "view",
      "type": "function"
    },
    {
      "inputs": [],
      "name": "baseToken",
      "outputs": [
        {
          "internalType": "address",
          "name": "",
          "type": "address"
        }
      ],
      "stateMutability": "view",
      "type": "function"
    },
    {
      "inputs": [],
      "name": "decimals",
      "outputs": [
        {
          "internalType": "uint8",
          "name": "",
          "type": "uint8"
        }
      ],
      "stateMutability": "view",
      "type": "function"
    },
    {
      "inputs": [
        {
          "internalType": "address",
          "name": "spender",
          "type": "address"
        },
        {
          "internalType": "uint256",
          "name": "subtractedValue",
          "type": "uint256"
        }
      ],
      "name": "decreaseAllowance",
      "outputs": [
        {
          "internalType": "bool",
          "name": "",
          "type": "bool"
        }
      ],
      "stateMutability": "nonpayable",
      "type": "function"
    },
    {
      "inputs": [
        {
          "internalType": "address",
          "name": "spender",
          "type": "address"
        },
        {
          "internalType": "uint256",
          "name": "addedValue",
          "type": "uint256"
        }
      ],
      "name": "increaseAllowance",
      "outputs": [
        {
          "internalType": "bool",
          "name": "",
          "type": "bool"
        }
      ],
      "stateMutability": "nonpayable",
      "type": "function"
    },
    {
      "inputs": [],
      "name": "initialRedeemRate",
      "outputs": [
        {
          "internalType": "uint256",
          "name": "",
          "type": "uint256"
        }
      ],
      "stateMutability": "view",
      "type": "function"
    },
    {
      "inputs": [
        {
          "internalType": "address",
          "name": "newProxy",
          "type": "address"
        }
      ],
      "name": "migrateBaseReserveToNewProxy",
      "outputs": [],
      "stateMutability": "nonpayable",
      "type": "function"
    },
    {
      "inputs": [
        {
          "internalType": "address",
          "name": "proxyRecipient",
          "type": "address"
        },
        {
          "internalType": "address",
          "name": "baseSource",
          "type": "address"
        },
        {
          "internalType": "uint256",
          "name": "amount",
          "type": "uint256"
        }
      ],
      "name": "mint",
      "outputs": [
        {
          "internalType": "uint256",
          "name": "proxy",
          "type": "uint256"
        }
      ],
      "stateMutability": "nonpayable",
      "type": "function"
    },
    {
      "inputs": [
        {
          "internalType": "address",
          "name": "proxyRecipient",
          "type": "address"
        },
        {
          "internalType": "address",
          "name": "baseSource",
          "type": "address"
        },
        {
          "internalType": "uint256",
          "name": "amount",
          "type": "uint256"
        }
      ],
      "name": "mintCustom",
      "outputs": [
        {
          "internalType": "uint256",
          "name": "",
          "type": "uint256"
        }
      ],
      "stateMutability": "nonpayable",
      "type": "function"
    },
    {
      "inputs": [],
      "name": "name",
      "outputs": [
        {
          "internalType": "string",
          "name": "",
          "type": "string"
        }
      ],
      "stateMutability": "view",
      "type": "function"
    },
    {
      "inputs": [],
      "name": "proxyRegistry",
      "outputs": [
        {
          "internalType": "address",
          "name": "",
          "type": "address"
        }
      ],
      "stateMutability": "view",
      "type": "function"
    },
    {
      "inputs": [
        {
          "internalType": "address",
          "name": "proxySource",
          "type": "address"
        },
        {
          "internalType": "address",
          "name": "baseRecipient",
          "type": "address"
        },
        {
          "internalType": "uint256",
          "name": "amount",
          "type": "uint256"
        }
      ],
      "name": "redeem",
      "outputs": [
        {
          "internalType": "uint256",
          "name": "baseAmount",
          "type": "uint256"
        }
      ],
      "stateMutability": "nonpayable",
      "type": "function"
    },
    {
      "inputs": [],
      "name": "redeemRate",
      "outputs": [
        {
          "internalType": "uint256",
          "name": "",
          "type": "uint256"
        }
      ],
      "stateMutability": "view",
      "type": "function"
    },
    {
      "inputs": [
        {
          "internalType": "address",
          "name": "recipient",
          "type": "address"
        },
        {
          "internalType": "uint256",
          "name": "amount",
          "type": "uint256"
        }
      ],
      "name": "redeemSelf",
      "outputs": [
        {
          "internalType": "uint256",
          "name": "",
          "type": "uint256"
        }
      ],
      "stateMutability": "nonpayable",
      "type": "function"
    },
    {
      "inputs": [
        {
          "internalType": "uint256",
          "name": "_R_amp",
          "type": "uint256"
        }
      ],
      "name": "setRAmpFinney",
      "outputs": [],
      "stateMutability": "nonpayable",
      "type": "function"
    },
    {
      "inputs": [],
      "name": "symbol",
      "outputs": [
        {
          "internalType": "string",
          "name": "",
          "type": "string"
        }
      ],
      "stateMutability": "view",
      "type": "function"
    },
    {
      "inputs": [],
      "name": "totalSupply",
      "outputs": [
        {
          "internalType": "uint256",
          "name": "",
          "type": "uint256"
        }
      ],
      "stateMutability": "view",
      "type": "function"
    },
    {
      "inputs": [
        {
          "internalType": "address",
          "name": "recipient",
          "type": "address"
        },
        {
          "internalType": "uint256",
          "name": "amount",
          "type": "uint256"
        }
      ],
      "name": "transfer",
      "outputs": [
        {
          "internalType": "bool",
          "name": "",
          "type": "bool"
        }
      ],
      "stateMutability": "nonpayable",
      "type": "function"
    },
    {
      "inputs": [
        {
          "internalType": "address",
          "name": "sender",
          "type": "address"
        },
        {
          "internalType": "address",
          "name": "recipient",
          "type": "address"
        },
        {
          "internalType": "uint256",
          "name": "amount",
          "type": "uint256"
        }
      ],
      "name": "transferFrom",
      "outputs": [
        {
          "internalType": "bool",
          "name": "",
          "type": "bool"
        }
      ],
      "stateMutability": "nonpayable",
      "type": "function"
    },
    {
      "inputs": [],
      "name": "withdrawReserve",
      "outputs": [],
      "stateMutability": "nonpayable",
      "type": "function"
    }
  ],
  "bytecode": "0x60e06040523480156200001157600080fd5b50604051620028ae380380620028ae8339818101604052810190620000379190620003ba565b83838383670de0b6b3a7640000838381600390805190602001906200005e92919062000108565b5080600490805190602001906200007792919062000108565b5050508473ffffffffffffffffffffffffffffffffffffffff1660a08173ffffffffffffffffffffffffffffffffffffffff16815250508173ffffffffffffffffffffffffffffffffffffffff1660808173ffffffffffffffffffffffffffffffffffffffff16815250508060c081815250505050505050670de0b6b3a764000060058190555050505050620004ce565b828054620001169062000499565b90600052602060002090601f0160209004810192826200013a576000855562000186565b82601f106200015557805160ff191683800117855562000186565b8280016001018555821562000186579182015b828111156200018557825182559160200191906001019062000168565b5b50905062000195919062000199565b5090565b5b80821115620001b45760008160009055506001016200019a565b5090565b6000604051905090565b600080fd5b600080fd5b600073ffffffffffffffffffffffffffffffffffffffff82169050919050565b6000620001f982620001cc565b9050919050565b6200020b81620001ec565b81146200021757600080fd5b50565b6000815190506200022b8162000200565b92915050565b600080fd5b600080fd5b6000601f19601f8301169050919050565b7f4e487b7100000000000000000000000000000000000000000000000000000000600052604160045260246000fd5b62000286826200023b565b810181811067ffffffffffffffff82111715620002a857620002a76200024c565b5b80604052505050565b6000620002bd620001b8565b9050620002cb82826200027b565b919050565b600067ffffffffffffffff821115620002ee57620002ed6200024c565b5b620002f9826200023b565b9050602081019050919050565b60005b838110156200032657808201518184015260208101905062000309565b8381111562000336576000848401525b50505050565b6000620003536200034d84620002d0565b620002b1565b90508281526020810184848401111562000372576200037162000236565b5b6200037f84828562000306565b509392505050565b600082601f8301126200039f576200039e62000231565b5b8151620003b18482602086016200033c565b91505092915050565b60008060008060808587031215620003d757620003d6620001c2565b5b6000620003e7878288016200021a565b945050602085015167ffffffffffffffff8111156200040b576200040a620001c7565b5b620004198782880162000387565b935050604085015167ffffffffffffffff8111156200043d576200043c620001c7565b5b6200044b8782880162000387565b92505060606200045e878288016200021a565b91505092959194509250565b7f4e487b7100000000000000000000000000000000000000000000000000000000600052602260045260246000fd5b60006002820490506001821680620004b257607f821691505b602082108103620004c857620004c76200046a565b5b50919050565b60805160a05160c05161231d6200059160003960008181610617015281816106480152818161069c0152818161097501528181610ea50152818161171101526118e6015260008181610560015281816106da01528181610bd901528181610c7301528181610cdf01528181610d1201528181610db401528181610dfe0152818161104501528181611753015281816117f5015261183f015260008181610b2301528181610b7701528181610cbb01528181610f910152610fe5015261231d6000f3fe608060405234801561001057600080fd5b506004361061014d5760003560e01c80637376dd79116100c3578063c55dae631161007c578063c55dae63146103ca578063c6c3bbe6146103e8578063dd62ed3e14610418578063ec89f10814610448578063ed3b379b14610478578063fbed2d72146104945761014d565b80637376dd791461030657806395d89b4114610324578063a457c2d714610342578063a9059cbb14610372578063ace1fab1146103a2578063b50cbd9f146103ac5761014d565b806323b872dd1161011557806323b872dd1461020c578063313ce5671461023c578063395093511461025a5780633e6a300b1461028a5780636fe27aba146102a657806370a08231146102d65761014d565b806306fdde0314610152578063095ea7b3146101705780630adcdbaa146101a05780630e6dfcd5146101be57806318160ddd146101ee575b600080fd5b61015a6104b2565b6040516101679190611c44565b60405180910390f35b61018a60048036038101906101859190611cff565b610544565b6040516101979190611d5a565b60405180910390f35b6101a861055b565b6040516101b59190611d84565b60405180910390f35b6101d860048036038101906101d39190611d9f565b610683565b6040516101e59190611d84565b60405180910390f35b6101f6610726565b6040516102039190611d84565b60405180910390f35b61022660048036038101906102219190611d9f565b610730565b6040516102339190611d5a565b60405180910390f35b610244610853565b6040516102519190611e0e565b60405180910390f35b610274600480360381019061026f9190611cff565b61085c565b6040516102819190611d5a565b60405180910390f35b6102a4600480360381019061029f9190611e29565b6108fa565b005b6102c060048036038101906102bb9190611cff565b610916565b6040516102cd9190611d84565b60405180910390f35b6102f060048036038101906102eb9190611e56565b61092b565b6040516102fd9190611d84565b60405180910390f35b61030e610973565b60405161031b9190611d84565b60405180910390f35b61032c610997565b6040516103399190611c44565b60405180910390f35b61035c60048036038101906103579190611cff565b610a29565b6040516103699190611d5a565b60405180910390f35b61038c60048036038101906103879190611cff565b610b0a565b6040516103999190611d5a565b60405180910390f35b6103aa610b21565b005b6103b4610cb9565b6040516103c19190611e92565b60405180910390f35b6103d2610cdd565b6040516103df9190611e92565b60405180910390f35b61040260048036038101906103fd9190611d9f565b610d01565b60405161040f9190611d84565b60405180910390f35b610432600480360381019061042d9190611ead565b610eef565b60405161043f9190611d84565b60405180910390f35b610462600480360381019061045d9190611d9f565b610f76565b60405161046f9190611d84565b60405180910390f35b610492600480360381019061048d9190611e56565b610f8f565b005b61049c611162565b6040516104a99190611d5a565b60405180910390f35b6060600380546104c190611f1c565b80601f01602080910402602001604051908101604052809291908181526020018280546104ed90611f1c565b801561053a5780601f1061050f5761010080835404028352916020019161053a565b820191906000526020600020905b81548152906001019060200180831161051d57829003601f168201915b5050505050905090565b6000610551338484611167565b6001905092915050565b6000807f000000000000000000000000000000000000000000000000000000000000000073ffffffffffffffffffffffffffffffffffffffff166370a08231306040518263ffffffff1660e01b81526004016105b79190611e92565b602060405180830381865afa1580156105d4573d6000803e3d6000fd5b505050506040513d601f19601f820116820180604052508101906105f89190611f62565b90506000610604610726565b14806106105750600081145b1561063e577f0000000000000000000000000000000000000000000000000000000000000000915050610680565b610646610726565b7f0000000000000000000000000000000000000000000000000000000000000000826106729190611fbe565b61067c9190612047565b9150505b90565b60008061068e61055b565b905061069a8584611252565b7f000000000000000000000000000000000000000000000000000000000000000081846106c79190611fbe565b6106d19190612047565b915061071e84837f000000000000000000000000000000000000000000000000000000000000000073ffffffffffffffffffffffffffffffffffffffff1661139c9092919063ffffffff16565b509392505050565b6000600254905090565b600061073d848484611422565b6000600160008673ffffffffffffffffffffffffffffffffffffffff1673ffffffffffffffffffffffffffffffffffffffff16815260200190815260200160002060003373ffffffffffffffffffffffffffffffffffffffff1673ffffffffffffffffffffffffffffffffffffffff1681526020019081526020016000205490507fffffffffffffffffffffffffffffffffffffffffffffffffffffffffffffffff81141580156107ed57508083115b156108315780836040517fa9248256000000000000000000000000000000000000000000000000000000008152600401610828929190612078565b60405180910390fd5b6108478533858461084291906120a1565b611167565b60019150509392505050565b60006012905090565b60006108f0338484600160003373ffffffffffffffffffffffffffffffffffffffff1673ffffffffffffffffffffffffffffffffffffffff16815260200190815260200160002060008873ffffffffffffffffffffffffffffffffffffffff1673ffffffffffffffffffffffffffffffffffffffff168152602001908152602001600020546108eb91906120d5565b611167565b6001905092915050565b66038d7ea4c680008161090d9190611fbe565b60058190555050565b6000610923338484610683565b905092915050565b60008060008373ffffffffffffffffffffffffffffffffffffffff1673ffffffffffffffffffffffffffffffffffffffff168152602001908152602001600020549050919050565b7f000000000000000000000000000000000000000000000000000000000000000081565b6060600480546109a690611f1c565b80601f01602080910402602001604051908101604052809291908181526020018280546109d290611f1c565b8015610a1f5780601f106109f457610100808354040283529160200191610a1f565b820191906000526020600020905b815481529060010190602001808311610a0257829003601f168201915b5050505050905090565b600080600160003373ffffffffffffffffffffffffffffffffffffffff1673ffffffffffffffffffffffffffffffffffffffff16815260200190815260200160002060008573ffffffffffffffffffffffffffffffffffffffff1673ffffffffffffffffffffffffffffffffffffffff16815260200190815260200160002054905082811015610af25780836040517fda2d822c000000000000000000000000000000000000000000000000000000008152600401610ae9929190612078565b60405180910390fd5b610aff3385858403611167565b600191505092915050565b6000610b17338484611422565b6001905092915050565b7f000000000000000000000000000000000000000000000000000000000000000073ffffffffffffffffffffffffffffffffffffffff163373ffffffffffffffffffffffffffffffffffffffff1614610bd357337f00000000000000000000000000000000000000000000000000000000000000006040517fd214286f000000000000000000000000000000000000000000000000000000008152600401610bca92919061212b565b60405180910390fd5b610cb7337f000000000000000000000000000000000000000000000000000000000000000073ffffffffffffffffffffffffffffffffffffffff166370a08231306040518263ffffffff1660e01b8152600401610c309190611e92565b602060405180830381865afa158015610c4d573d6000803e3d6000fd5b505050506040513d601f19601f82011682018060405250810190610c719190611f62565b7f000000000000000000000000000000000000000000000000000000000000000073ffffffffffffffffffffffffffffffffffffffff1661139c9092919063ffffffff16565b565b7f000000000000000000000000000000000000000000000000000000000000000081565b7f000000000000000000000000000000000000000000000000000000000000000081565b600080610d0c61055b565b905060007f000000000000000000000000000000000000000000000000000000000000000073ffffffffffffffffffffffffffffffffffffffff166370a08231306040518263ffffffff1660e01b8152600401610d699190611e92565b602060405180830381865afa158015610d86573d6000803e3d6000fd5b505050506040513d601f19601f82011682018060405250810190610daa9190611f62565b9050610df98530867f000000000000000000000000000000000000000000000000000000000000000073ffffffffffffffffffffffffffffffffffffffff166115ab909392919063ffffffff16565b6000817f000000000000000000000000000000000000000000000000000000000000000073ffffffffffffffffffffffffffffffffffffffff166370a08231306040518263ffffffff1660e01b8152600401610e559190611e92565b602060405180830381865afa158015610e72573d6000803e3d6000fd5b505050506040513d601f19601f82011682018060405250810190610e969190611f62565b610ea091906120a1565b9050827f000000000000000000000000000000000000000000000000000000000000000082610ecf9190611fbe565b610ed99190612047565b9350610ee58785611634565b5050509392505050565b6000600160008473ffffffffffffffffffffffffffffffffffffffff1673ffffffffffffffffffffffffffffffffffffffff16815260200190815260200160002060008373ffffffffffffffffffffffffffffffffffffffff1673ffffffffffffffffffffffffffffffffffffffff16815260200190815260200160002054905092915050565b6000610f8660055485858561170c565b90509392505050565b7f000000000000000000000000000000000000000000000000000000000000000073ffffffffffffffffffffffffffffffffffffffff163373ffffffffffffffffffffffffffffffffffffffff161461104157337f00000000000000000000000000000000000000000000000000000000000000006040517fd214286f00000000000000000000000000000000000000000000000000000000815260040161103892919061212b565b60405180910390fd5b60007f000000000000000000000000000000000000000000000000000000000000000090508073ffffffffffffffffffffffffffffffffffffffff1663a9059cbb838373ffffffffffffffffffffffffffffffffffffffff166370a08231306040518263ffffffff1660e01b81526004016110bc9190611e92565b602060405180830381865afa1580156110d9573d6000803e3d6000fd5b505050506040513d601f19601f820116820180604052508101906110fd9190611f62565b6040518363ffffffff1660e01b815260040161111a929190612154565b6020604051808303816000875af1158015611139573d6000803e3d6000fd5b505050506040513d601f19601f8201168201806040525081019061115d91906121a9565b505050565b600181565b80600160008573ffffffffffffffffffffffffffffffffffffffff1673ffffffffffffffffffffffffffffffffffffffff16815260200190815260200160002060008473ffffffffffffffffffffffffffffffffffffffff1673ffffffffffffffffffffffffffffffffffffffff168152602001908152602001600020819055508173ffffffffffffffffffffffffffffffffffffffff168373ffffffffffffffffffffffffffffffffffffffff167f8c5be1e5ebec7d5bd14f71427d1e84f3dd0314c0f7b2291e5b200ac8c7c3b925836040516112459190611d84565b60405180910390a3505050565b60008060008473ffffffffffffffffffffffffffffffffffffffff1673ffffffffffffffffffffffffffffffffffffffff168152602001908152602001600020549050818110156112dc5780826040517f0a37dd410000000000000000000000000000000000000000000000000000000081526004016112d3929190612078565b60405180910390fd5b8181036000808573ffffffffffffffffffffffffffffffffffffffff1673ffffffffffffffffffffffffffffffffffffffff1681526020019081526020016000208190555081600260008282540392505081905550600073ffffffffffffffffffffffffffffffffffffffff168373ffffffffffffffffffffffffffffffffffffffff167fddf252ad1be2c89b69c2b068fc378daa952ba7f163c4a11628f55a4df523b3ef8460405161138f9190611d84565b60405180910390a3505050565b61141d8363a9059cbb60e01b84846040516024016113bb929190612154565b604051602081830303815290604052907bffffffffffffffffffffffffffffffffffffffffffffffffffffffff19166020820180517bffffffffffffffffffffffffffffffffffffffffffffffffffffffff8381831617835250505050611931565b505050565b60008060008573ffffffffffffffffffffffffffffffffffffffff1673ffffffffffffffffffffffffffffffffffffffff168152602001908152602001600020549050818110156114af57806000836040517f57b9c4a40000000000000000000000000000000000000000000000000000000081526004016114a69392919061221b565b60405180910390fd5b8181036000808673ffffffffffffffffffffffffffffffffffffffff1673ffffffffffffffffffffffffffffffffffffffff16815260200190815260200160002081905550816000808573ffffffffffffffffffffffffffffffffffffffff1673ffffffffffffffffffffffffffffffffffffffff168152602001908152602001600020600082825401925050819055508273ffffffffffffffffffffffffffffffffffffffff168473ffffffffffffffffffffffffffffffffffffffff167fddf252ad1be2c89b69c2b068fc378daa952ba7f163c4a11628f55a4df523b3ef8460405161159d9190611d84565b60405180910390a350505050565b61162e846323b872dd60e01b8585856040516024016115cc93929190612252565b604051602081830303815290604052907bffffffffffffffffffffffffffffffffffffffffffffffffffffffff19166020820180517bffffffffffffffffffffffffffffffffffffffffffffffffffffffff8381831617835250505050611931565b50505050565b806002600082825461164691906120d5565b92505081905550806000808473ffffffffffffffffffffffffffffffffffffffff1673ffffffffffffffffffffffffffffffffffffffff168152602001908152602001600020600082825461169b91906120d5565b925050819055508173ffffffffffffffffffffffffffffffffffffffff16600073ffffffffffffffffffffffffffffffffffffffff167fddf252ad1be2c89b69c2b068fc378daa952ba7f163c4a11628f55a4df523b3ef836040516117009190611d84565b60405180910390a35050565b6000807f00000000000000000000000000000000000000000000000000000000000000008661173961055b565b6117439190611fbe565b61174d9190612047565b905060007f000000000000000000000000000000000000000000000000000000000000000073ffffffffffffffffffffffffffffffffffffffff166370a08231306040518263ffffffff1660e01b81526004016117aa9190611e92565b602060405180830381865afa1580156117c7573d6000803e3d6000fd5b505050506040513d601f19601f820116820180604052508101906117eb9190611f62565b905061183a8530867f000000000000000000000000000000000000000000000000000000000000000073ffffffffffffffffffffffffffffffffffffffff166115ab909392919063ffffffff16565b6000817f000000000000000000000000000000000000000000000000000000000000000073ffffffffffffffffffffffffffffffffffffffff166370a08231306040518263ffffffff1660e01b81526004016118969190611e92565b602060405180830381865afa1580156118b3573d6000803e3d6000fd5b505050506040513d601f19601f820116820180604052508101906118d79190611f62565b6118e191906120a1565b9050827f0000000000000000000000000000000000000000000000000000000000000000826119109190611fbe565b61191a9190612047565b93506119268785611634565b505050949350505050565b6000611993826040518060400160405280602081526020017f5361666545524332303a206c6f772d6c6576656c2063616c6c206661696c65648152508573ffffffffffffffffffffffffffffffffffffffff166119ef9092919063ffffffff16565b90506000815111156119ea57808060200190518101906119b391906121a9565b6119e9576040517fa479450200000000000000000000000000000000000000000000000000000000815260040160405180910390fd5b5b505050565b60606119fe8484600085611a07565b90509392505050565b606082471015611a505747836040517f02de226f000000000000000000000000000000000000000000000000000000008152600401611a47929190612078565b60405180910390fd5b611a5985611b21565b611a9a57846040517f8a8b41ec000000000000000000000000000000000000000000000000000000008152600401611a919190611e92565b60405180910390fd5b6000808673ffffffffffffffffffffffffffffffffffffffff168587604051611ac391906122d0565b60006040518083038185875af1925050503d8060008114611b00576040519150601f19603f3d011682016040523d82523d6000602084013e611b05565b606091505b5091509150611b15828286611b44565b92505050949350505050565b6000808273ffffffffffffffffffffffffffffffffffffffff163b119050919050565b60608315611b5457829050611ba4565b600083511115611b675782518084602001fd5b816040517f08c379a0000000000000000000000000000000000000000000000000000000008152600401611b9b9190611c44565b60405180910390fd5b9392505050565b600081519050919050565b600082825260208201905092915050565b60005b83811015611be5578082015181840152602081019050611bca565b83811115611bf4576000848401525b50505050565b6000601f19601f8301169050919050565b6000611c1682611bab565b611c208185611bb6565b9350611c30818560208601611bc7565b611c3981611bfa565b840191505092915050565b60006020820190508181036000830152611c5e8184611c0b565b905092915050565b600080fd5b600073ffffffffffffffffffffffffffffffffffffffff82169050919050565b6000611c9682611c6b565b9050919050565b611ca681611c8b565b8114611cb157600080fd5b50565b600081359050611cc381611c9d565b92915050565b6000819050919050565b611cdc81611cc9565b8114611ce757600080fd5b50565b600081359050611cf981611cd3565b92915050565b60008060408385031215611d1657611d15611c66565b5b6000611d2485828601611cb4565b9250506020611d3585828601611cea565b9150509250929050565b60008115159050919050565b611d5481611d3f565b82525050565b6000602082019050611d6f6000830184611d4b565b92915050565b611d7e81611cc9565b82525050565b6000602082019050611d996000830184611d75565b92915050565b600080600060608486031215611db857611db7611c66565b5b6000611dc686828701611cb4565b9350506020611dd786828701611cb4565b9250506040611de886828701611cea565b9150509250925092565b600060ff82169050919050565b611e0881611df2565b82525050565b6000602082019050611e236000830184611dff565b92915050565b600060208284031215611e3f57611e3e611c66565b5b6000611e4d84828501611cea565b91505092915050565b600060208284031215611e6c57611e6b611c66565b5b6000611e7a84828501611cb4565b91505092915050565b611e8c81611c8b565b82525050565b6000602082019050611ea76000830184611e83565b92915050565b60008060408385031215611ec457611ec3611c66565b5b6000611ed285828601611cb4565b9250506020611ee385828601611cb4565b9150509250929050565b7f4e487b7100000000000000000000000000000000000000000000000000000000600052602260045260246000fd5b60006002820490506001821680611f3457607f821691505b602082108103611f4757611f46611eed565b5b50919050565b600081519050611f5c81611cd3565b92915050565b600060208284031215611f7857611f77611c66565b5b6000611f8684828501611f4d565b91505092915050565b7f4e487b7100000000000000000000000000000000000000000000000000000000600052601160045260246000fd5b6000611fc982611cc9565b9150611fd483611cc9565b9250817fffffffffffffffffffffffffffffffffffffffffffffffffffffffffffffffff048311821515161561200d5761200c611f8f565b5b828202905092915050565b7f4e487b7100000000000000000000000000000000000000000000000000000000600052601260045260246000fd5b600061205282611cc9565b915061205d83611cc9565b92508261206d5761206c612018565b5b828204905092915050565b600060408201905061208d6000830185611d75565b61209a6020830184611d75565b9392505050565b60006120ac82611cc9565b91506120b783611cc9565b9250828210156120ca576120c9611f8f565b5b828203905092915050565b60006120e082611cc9565b91506120eb83611cc9565b9250827fffffffffffffffffffffffffffffffffffffffffffffffffffffffffffffffff038211156121205761211f611f8f565b5b828201905092915050565b60006040820190506121406000830185611e83565b61214d6020830184611e83565b9392505050565b60006040820190506121696000830185611e83565b6121766020830184611d75565b9392505050565b61218681611d3f565b811461219157600080fd5b50565b6000815190506121a38161217d565b92915050565b6000602082840312156121bf576121be611c66565b5b60006121cd84828501612194565b91505092915050565b6000819050919050565b6000819050919050565b60006122056122006121fb846121d6565b6121e0565b611cc9565b9050919050565b612215816121ea565b82525050565b60006060820190506122306000830186611d75565b61223d602083018561220c565b61224a6040830184611d75565b949350505050565b60006060820190506122676000830186611e83565b6122746020830185611e83565b6122816040830184611d75565b949350505050565b600081519050919050565b600081905092915050565b60006122aa82612289565b6122b48185612294565b93506122c4818560208601611bc7565b80840191505092915050565b60006122dc828461229f565b91508190509291505056fea264697066735822122075a6fb4dafe135ad012b5c0518f88bd6aecc972587b1daee4c196e6c8e4ad36464736f6c634300080d0033",
  "linkReferences": {},
  "deployedLinkReferences": {}
}