{
  "_format": "hh-sol-artifact-1",
  "contractName": "VanillaProxy",
  "sourceName": "contracts/testing/VanillaProxy.sol",
  "abi": [
    {
      "inputs": [
        {
          "internalType": "address",
          "name": "_baseToken",
          "type": "address"
        },
        {
          "internalType": "string",
          "name": "name_",
          "type": "string"
        },
        {
          "internalType": "string",
          "name": "symbol_",
          "type": "string"
        },
        {
          "internalType": "address",
          "name": "registry",
          "type": "address"
        }
      ],
      "stateMutability": "nonpayable",
      "type": "constructor"
    },
    {
      "inputs": [
        {
          "internalType": "uint256",
          "name": "allowance",
          "type": "uint256"
        },
        {
          "internalType": "uint256",
          "name": "amount",
          "type": "uint256"
        }
      ],
      "name": "AllowanceExceeded",
      "type": "error"
    },
    {
      "inputs": [
        {
          "internalType": "uint256",
          "name": "allowance",
          "type": "uint256"
        },
        {
          "internalType": "uint256",
          "name": "subtraction",
          "type": "uint256"
        }
      ],
      "name": "AllowanceUnderflow",
      "type": "error"
    },
    {
      "inputs": [
        {
          "internalType": "uint256",
          "name": "accountBalance",
          "type": "uint256"
        },
        {
          "internalType": "uint256",
          "name": "amount",
          "type": "uint256"
        }
      ],
      "name": "BurnUnderflow",
      "type": "error"
    },
    {
      "inputs": [
        {
          "internalType": "uint256",
          "name": "balance",
          "type": "uint256"
        },
        {
          "internalType": "uint256",
          "name": "value",
          "type": "uint256"
        }
      ],
      "name": "InsufficinetFunds",
      "type": "error"
    },
    {
      "inputs": [
        {
          "internalType": "address",
          "name": "EOA",
          "type": "address"
        }
      ],
      "name": "NotAContract",
      "type": "error"
    },
    {
      "inputs": [
        {
          "internalType": "address",
          "name": "sender",
          "type": "address"
        },
        {
          "internalType": "address",
          "name": "proxy",
          "type": "address"
        }
      ],
      "name": "OnlyProxy",
      "type": "error"
    },
    {
      "inputs": [],
      "name": "OperationFailure",
      "type": "error"
    },
    {
      "inputs": [
        {
          "internalType": "uint256",
          "name": "senderBalance",
          "type": "uint256"
        },
        {
          "internalType": "uint256",
          "name": "fee",
          "type": "uint256"
        },
        {
          "internalType": "uint256",
          "name": "amount",
          "type": "uint256"
        }
      ],
      "name": "TransferUnderflow",
      "type": "error"
    },
    {
      "anonymous": false,
      "inputs": [
        {
          "indexed": true,
          "internalType": "address",
          "name": "owner",
          "type": "address"
        },
        {
          "indexed": true,
          "internalType": "address",
          "name": "spender",
          "type": "address"
        },
        {
          "indexed": false,
          "internalType": "uint256",
          "name": "value",
          "type": "uint256"
        }
      ],
      "name": "Approval",
      "type": "event"
    },
    {
      "anonymous": false,
      "inputs": [
        {
          "indexed": true,
          "internalType": "address",
          "name": "from",
          "type": "address"
        },
        {
          "indexed": true,
          "internalType": "address",
          "name": "to",
          "type": "address"
        },
        {
          "indexed": false,
          "internalType": "uint256",
          "name": "value",
          "type": "uint256"
        }
      ],
      "name": "Transfer",
      "type": "event"
    },
    {
      "inputs": [
        {
          "internalType": "address",
          "name": "owner",
          "type": "address"
        },
        {
          "internalType": "address",
          "name": "spender",
          "type": "address"
        }
      ],
      "name": "allowance",
      "outputs": [
        {
          "internalType": "uint256",
          "name": "",
          "type": "uint256"
        }
      ],
      "stateMutability": "view",
      "type": "function"
    },
    {
      "inputs": [
        {
          "internalType": "address",
          "name": "spender",
          "type": "address"
        },
        {
          "internalType": "uint256",
          "name": "amount",
          "type": "uint256"
        }
      ],
      "name": "approve",
      "outputs": [
        {
          "internalType": "bool",
          "name": "",
          "type": "bool"
        }
      ],
      "stateMutability": "nonpayable",
      "type": "function"
    },
    {
      "inputs": [
        {
          "internalType": "address",
          "name": "account",
          "type": "address"
        }
      ],
      "name": "balanceOf",
      "outputs": [
        {
          "internalType": "uint256",
          "name": "",
          "type": "uint256"
        }
      ],
      "stateMutability": "view",
      "type": "function"
    },
    {
      "inputs": [],
      "name": "baseToken",
      "outputs": [
        {
          "internalType": "address",
          "name": "",
          "type": "address"
        }
      ],
      "stateMutability": "view",
      "type": "function"
    },
    {
      "inputs": [],
      "name": "decimals",
      "outputs": [
        {
          "internalType": "uint8",
          "name": "",
          "type": "uint8"
        }
      ],
      "stateMutability": "view",
      "type": "function"
    },
    {
      "inputs": [
        {
          "internalType": "address",
          "name": "spender",
          "type": "address"
        },
        {
          "internalType": "uint256",
          "name": "subtractedValue",
          "type": "uint256"
        }
      ],
      "name": "decreaseAllowance",
      "outputs": [
        {
          "internalType": "bool",
          "name": "",
          "type": "bool"
        }
      ],
      "stateMutability": "nonpayable",
      "type": "function"
    },
    {
      "inputs": [
        {
          "internalType": "address",
          "name": "spender",
          "type": "address"
        },
        {
          "internalType": "uint256",
          "name": "addedValue",
          "type": "uint256"
        }
      ],
      "name": "increaseAllowance",
      "outputs": [
        {
          "internalType": "bool",
          "name": "",
          "type": "bool"
        }
      ],
      "stateMutability": "nonpayable",
      "type": "function"
    },
    {
      "inputs": [
        {
          "internalType": "address",
          "name": "newProxy",
          "type": "address"
        }
      ],
      "name": "migrateBaseReserveToNewProxy",
      "outputs": [],
      "stateMutability": "nonpayable",
      "type": "function"
    },
    {
      "inputs": [
        {
          "internalType": "address",
          "name": "proxyRecipient",
          "type": "address"
        },
        {
          "internalType": "address",
          "name": "baseSource",
          "type": "address"
        },
        {
          "internalType": "uint256",
          "name": "amount",
          "type": "uint256"
        }
      ],
      "name": "mint",
      "outputs": [
        {
          "internalType": "uint256",
          "name": "",
          "type": "uint256"
        }
      ],
      "stateMutability": "nonpayable",
      "type": "function"
    },
    {
      "inputs": [],
      "name": "name",
      "outputs": [
        {
          "internalType": "string",
          "name": "",
          "type": "string"
        }
      ],
      "stateMutability": "view",
      "type": "function"
    },
    {
      "inputs": [],
      "name": "proxyRegistry",
      "outputs": [
        {
          "internalType": "address",
          "name": "",
          "type": "address"
        }
      ],
      "stateMutability": "view",
      "type": "function"
    },
    {
      "inputs": [
        {
          "internalType": "address",
          "name": "proxySource",
          "type": "address"
        },
        {
          "internalType": "address",
          "name": "baseRecipient",
          "type": "address"
        },
        {
          "internalType": "uint256",
          "name": "amount",
          "type": "uint256"
        }
      ],
      "name": "redeem",
      "outputs": [
        {
          "internalType": "uint256",
          "name": "baseAmount",
          "type": "uint256"
        }
      ],
      "stateMutability": "nonpayable",
      "type": "function"
    },
    {
      "inputs": [],
      "name": "redeemRate",
      "outputs": [
        {
          "internalType": "uint256",
          "name": "",
          "type": "uint256"
        }
      ],
      "stateMutability": "view",
      "type": "function"
    },
    {
      "inputs": [
        {
          "internalType": "address",
          "name": "recipient",
          "type": "address"
        },
        {
          "internalType": "uint256",
          "name": "amount",
          "type": "uint256"
        }
      ],
      "name": "redeemSelf",
      "outputs": [
        {
          "internalType": "uint256",
          "name": "",
          "type": "uint256"
        }
      ],
      "stateMutability": "nonpayable",
      "type": "function"
    },
    {
      "inputs": [
        {
          "internalType": "uint256",
          "name": "_R_amp",
          "type": "uint256"
        }
      ],
      "name": "setRAmpFinney",
      "outputs": [],
      "stateMutability": "nonpayable",
      "type": "function"
    },
    {
      "inputs": [],
      "name": "symbol",
      "outputs": [
        {
          "internalType": "string",
          "name": "",
          "type": "string"
        }
      ],
      "stateMutability": "view",
      "type": "function"
    },
    {
      "inputs": [],
      "name": "totalSupply",
      "outputs": [
        {
          "internalType": "uint256",
          "name": "",
          "type": "uint256"
        }
      ],
      "stateMutability": "view",
      "type": "function"
    },
    {
      "inputs": [
        {
          "internalType": "address",
          "name": "recipient",
          "type": "address"
        },
        {
          "internalType": "uint256",
          "name": "amount",
          "type": "uint256"
        }
      ],
      "name": "transfer",
      "outputs": [
        {
          "internalType": "bool",
          "name": "",
          "type": "bool"
        }
      ],
      "stateMutability": "nonpayable",
      "type": "function"
    },
    {
      "inputs": [
        {
          "internalType": "address",
          "name": "sender",
          "type": "address"
        },
        {
          "internalType": "address",
          "name": "recipient",
          "type": "address"
        },
        {
          "internalType": "uint256",
          "name": "amount",
          "type": "uint256"
        }
      ],
      "name": "transferFrom",
      "outputs": [
        {
          "internalType": "bool",
          "name": "",
          "type": "bool"
        }
      ],
      "stateMutability": "nonpayable",
      "type": "function"
    }
  ],
  "bytecode": "0x60c06040523480156200001157600080fd5b506040516200236e3803806200236e8339818101604052810190620000379190620003a8565b838383838282816003908051906020019062000055929190620000f6565b5080600490805190602001906200006e929190620000f6565b5050508373ffffffffffffffffffffffffffffffffffffffff1660a08173ffffffffffffffffffffffffffffffffffffffff16815250508073ffffffffffffffffffffffffffffffffffffffff1660808173ffffffffffffffffffffffffffffffffffffffff168152505050505050670de0b6b3a764000060058190555050505050620004bc565b828054620001049062000487565b90600052602060002090601f01602090048101928262000128576000855562000174565b82601f106200014357805160ff191683800117855562000174565b8280016001018555821562000174579182015b828111156200017357825182559160200191906001019062000156565b5b50905062000183919062000187565b5090565b5b80821115620001a257600081600090555060010162000188565b5090565b6000604051905090565b600080fd5b600080fd5b600073ffffffffffffffffffffffffffffffffffffffff82169050919050565b6000620001e782620001ba565b9050919050565b620001f981620001da565b81146200020557600080fd5b50565b6000815190506200021981620001ee565b92915050565b600080fd5b600080fd5b6000601f19601f8301169050919050565b7f4e487b7100000000000000000000000000000000000000000000000000000000600052604160045260246000fd5b620002748262000229565b810181811067ffffffffffffffff821117156200029657620002956200023a565b5b80604052505050565b6000620002ab620001a6565b9050620002b9828262000269565b919050565b600067ffffffffffffffff821115620002dc57620002db6200023a565b5b620002e78262000229565b9050602081019050919050565b60005b8381101562000314578082015181840152602081019050620002f7565b8381111562000324576000848401525b50505050565b6000620003416200033b84620002be565b6200029f565b90508281526020810184848401111562000360576200035f62000224565b5b6200036d848285620002f4565b509392505050565b600082601f8301126200038d576200038c6200021f565b5b81516200039f8482602086016200032a565b91505092915050565b60008060008060808587031215620003c557620003c4620001b0565b5b6000620003d58782880162000208565b945050602085015167ffffffffffffffff811115620003f957620003f8620001b5565b5b620004078782880162000375565b935050604085015167ffffffffffffffff8111156200042b576200042a620001b5565b5b620004398782880162000375565b92505060606200044c8782880162000208565b91505092959194509250565b7f4e487b7100000000000000000000000000000000000000000000000000000000600052602260045260246000fd5b60006002820490506001821680620004a057607f821691505b602082108103620004b657620004b562000458565b5b50919050565b60805160a051611e546200051a600039600081816104be015281816105f001528181610a3901528181610bb101528181611141015281816111e3015261122d015260008181610a1501528181610afd0152610b510152611e546000f3fe608060405234801561001057600080fd5b50600436106101215760003560e01c80636fe27aba116100ad578063b50cbd9f11610071578063b50cbd9f14610358578063c55dae6314610376578063c6c3bbe614610394578063dd62ed3e146103c4578063ed3b379b146103f457610121565b80636fe27aba1461027a57806370a08231146102aa57806395d89b41146102da578063a457c2d7146102f8578063a9059cbb1461032857610121565b806318160ddd116100f457806318160ddd146101c257806323b872dd146101e0578063313ce56714610210578063395093511461022e5780633e6a300b1461025e57610121565b806306fdde0314610126578063095ea7b3146101445780630adcdbaa146101745780630e6dfcd514610192575b600080fd5b61012e610410565b60405161013b919061177b565b60405180910390f35b61015e60048036038101906101599190611836565b6104a2565b60405161016b9190611891565b60405180910390f35b61017c6104b9565b60405161018991906118bb565b60405180910390f35b6101ac60048036038101906101a791906118d6565b6105b1565b6040516101b991906118bb565b60405180910390f35b6101ca61063c565b6040516101d791906118bb565b60405180910390f35b6101fa60048036038101906101f591906118d6565b610646565b6040516102079190611891565b60405180910390f35b610218610769565b6040516102259190611945565b60405180910390f35b61024860048036038101906102439190611836565b610772565b6040516102559190611891565b60405180910390f35b61027860048036038101906102739190611960565b610810565b005b610294600480360381019061028f9190611836565b61082c565b6040516102a191906118bb565b60405180910390f35b6102c460048036038101906102bf919061198d565b610841565b6040516102d191906118bb565b60405180910390f35b6102e2610889565b6040516102ef919061177b565b60405180910390f35b610312600480360381019061030d9190611836565b61091b565b60405161031f9190611891565b60405180910390f35b610342600480360381019061033d9190611836565b6109fc565b60405161034f9190611891565b60405180910390f35b610360610a13565b60405161036d91906119c9565b60405180910390f35b61037e610a37565b60405161038b91906119c9565b60405180910390f35b6103ae60048036038101906103a991906118d6565b610a5b565b6040516103bb91906118bb565b60405180910390f35b6103de60048036038101906103d991906119e4565b610a74565b6040516103eb91906118bb565b60405180910390f35b61040e6004803603810190610409919061198d565b610afb565b005b60606003805461041f90611a53565b80601f016020809104026020016040519081016040528092919081815260200182805461044b90611a53565b80156104985780601f1061046d57610100808354040283529160200191610498565b820191906000526020600020905b81548152906001019060200180831161047b57829003601f168201915b5050505050905090565b60006104af338484610cce565b6001905092915050565b6000807f000000000000000000000000000000000000000000000000000000000000000073ffffffffffffffffffffffffffffffffffffffff166370a08231306040518263ffffffff1660e01b815260040161051591906119c9565b602060405180830381865afa158015610532573d6000803e3d6000fd5b505050506040513d601f19601f820116820180604052508101906105569190611a99565b9050600061056261063c565b148061056e5750600081145b1561058457670de0b6b3a76400009150506105ae565b61058c61063c565b670de0b6b3a7640000826105a09190611af5565b6105aa9190611b7e565b9150505b90565b6000806105bc6104b9565b90506105c88584610db9565b670de0b6b3a764000081846105dd9190611af5565b6105e79190611b7e565b915061063484837f000000000000000000000000000000000000000000000000000000000000000073ffffffffffffffffffffffffffffffffffffffff16610f039092919063ffffffff16565b509392505050565b6000600254905090565b6000610653848484610f89565b6000600160008673ffffffffffffffffffffffffffffffffffffffff1673ffffffffffffffffffffffffffffffffffffffff16815260200190815260200160002060003373ffffffffffffffffffffffffffffffffffffffff1673ffffffffffffffffffffffffffffffffffffffff1681526020019081526020016000205490507fffffffffffffffffffffffffffffffffffffffffffffffffffffffffffffffff811415801561070357508083115b156107475780836040517fa924825600000000000000000000000000000000000000000000000000000000815260040161073e929190611baf565b60405180910390fd5b61075d853385846107589190611bd8565b610cce565b60019150509392505050565b60006012905090565b6000610806338484600160003373ffffffffffffffffffffffffffffffffffffffff1673ffffffffffffffffffffffffffffffffffffffff16815260200190815260200160002060008873ffffffffffffffffffffffffffffffffffffffff1673ffffffffffffffffffffffffffffffffffffffff168152602001908152602001600020546108019190611c0c565b610cce565b6001905092915050565b66038d7ea4c68000816108239190611af5565b60058190555050565b60006108393384846105b1565b905092915050565b60008060008373ffffffffffffffffffffffffffffffffffffffff1673ffffffffffffffffffffffffffffffffffffffff168152602001908152602001600020549050919050565b60606004805461089890611a53565b80601f01602080910402602001604051908101604052809291908181526020018280546108c490611a53565b80156109115780601f106108e657610100808354040283529160200191610911565b820191906000526020600020905b8154815290600101906020018083116108f457829003601f168201915b5050505050905090565b600080600160003373ffffffffffffffffffffffffffffffffffffffff1673ffffffffffffffffffffffffffffffffffffffff16815260200190815260200160002060008573ffffffffffffffffffffffffffffffffffffffff1673ffffffffffffffffffffffffffffffffffffffff168152602001908152602001600020549050828110156109e45780836040517fda2d822c0000000000000000000000000000000000000000000000000000000081526004016109db929190611baf565b60405180910390fd5b6109f13385858403610cce565b600191505092915050565b6000610a09338484610f89565b6001905092915050565b7f000000000000000000000000000000000000000000000000000000000000000081565b7f000000000000000000000000000000000000000000000000000000000000000081565b6000610a6b600554858585611112565b90509392505050565b6000600160008473ffffffffffffffffffffffffffffffffffffffff1673ffffffffffffffffffffffffffffffffffffffff16815260200190815260200160002060008373ffffffffffffffffffffffffffffffffffffffff1673ffffffffffffffffffffffffffffffffffffffff16815260200190815260200160002054905092915050565b7f000000000000000000000000000000000000000000000000000000000000000073ffffffffffffffffffffffffffffffffffffffff163373ffffffffffffffffffffffffffffffffffffffff1614610bad57337f00000000000000000000000000000000000000000000000000000000000000006040517fd214286f000000000000000000000000000000000000000000000000000000008152600401610ba4929190611c62565b60405180910390fd5b60007f000000000000000000000000000000000000000000000000000000000000000090508073ffffffffffffffffffffffffffffffffffffffff1663a9059cbb838373ffffffffffffffffffffffffffffffffffffffff166370a08231306040518263ffffffff1660e01b8152600401610c2891906119c9565b602060405180830381865afa158015610c45573d6000803e3d6000fd5b505050506040513d601f19601f82011682018060405250810190610c699190611a99565b6040518363ffffffff1660e01b8152600401610c86929190611c8b565b6020604051808303816000875af1158015610ca5573d6000803e3d6000fd5b505050506040513d601f19601f82011682018060405250810190610cc99190611ce0565b505050565b80600160008573ffffffffffffffffffffffffffffffffffffffff1673ffffffffffffffffffffffffffffffffffffffff16815260200190815260200160002060008473ffffffffffffffffffffffffffffffffffffffff1673ffffffffffffffffffffffffffffffffffffffff168152602001908152602001600020819055508173ffffffffffffffffffffffffffffffffffffffff168373ffffffffffffffffffffffffffffffffffffffff167f8c5be1e5ebec7d5bd14f71427d1e84f3dd0314c0f7b2291e5b200ac8c7c3b92583604051610dac91906118bb565b60405180910390a3505050565b60008060008473ffffffffffffffffffffffffffffffffffffffff1673ffffffffffffffffffffffffffffffffffffffff16815260200190815260200160002054905081811015610e435780826040517f0a37dd41000000000000000000000000000000000000000000000000000000008152600401610e3a929190611baf565b60405180910390fd5b8181036000808573ffffffffffffffffffffffffffffffffffffffff1673ffffffffffffffffffffffffffffffffffffffff1681526020019081526020016000208190555081600260008282540392505081905550600073ffffffffffffffffffffffffffffffffffffffff168373ffffffffffffffffffffffffffffffffffffffff167fddf252ad1be2c89b69c2b068fc378daa952ba7f163c4a11628f55a4df523b3ef84604051610ef691906118bb565b60405180910390a3505050565b610f848363a9059cbb60e01b8484604051602401610f22929190611c8b565b604051602081830303815290604052907bffffffffffffffffffffffffffffffffffffffffffffffffffffffff19166020820180517bffffffffffffffffffffffffffffffffffffffffffffffffffffffff8381831617835250505050611307565b505050565b60008060008573ffffffffffffffffffffffffffffffffffffffff1673ffffffffffffffffffffffffffffffffffffffff1681526020019081526020016000205490508181101561101657806000836040517f57b9c4a400000000000000000000000000000000000000000000000000000000815260040161100d93929190611d52565b60405180910390fd5b8181036000808673ffffffffffffffffffffffffffffffffffffffff1673ffffffffffffffffffffffffffffffffffffffff16815260200190815260200160002081905550816000808573ffffffffffffffffffffffffffffffffffffffff1673ffffffffffffffffffffffffffffffffffffffff168152602001908152602001600020600082825401925050819055508273ffffffffffffffffffffffffffffffffffffffff168473ffffffffffffffffffffffffffffffffffffffff167fddf252ad1be2c89b69c2b068fc378daa952ba7f163c4a11628f55a4df523b3ef8460405161110491906118bb565b60405180910390a350505050565b600080670de0b6b3a7640000866111276104b9565b6111319190611af5565b61113b9190611b7e565b905060007f000000000000000000000000000000000000000000000000000000000000000073ffffffffffffffffffffffffffffffffffffffff166370a08231306040518263ffffffff1660e01b815260040161119891906119c9565b602060405180830381865afa1580156111b5573d6000803e3d6000fd5b505050506040513d601f19601f820116820180604052508101906111d99190611a99565b90506112288530867f000000000000000000000000000000000000000000000000000000000000000073ffffffffffffffffffffffffffffffffffffffff166113c5909392919063ffffffff16565b6000817f000000000000000000000000000000000000000000000000000000000000000073ffffffffffffffffffffffffffffffffffffffff166370a08231306040518263ffffffff1660e01b815260040161128491906119c9565b602060405180830381865afa1580156112a1573d6000803e3d6000fd5b505050506040513d601f19601f820116820180604052508101906112c59190611a99565b6112cf9190611bd8565b905082670de0b6b3a7640000826112e69190611af5565b6112f09190611b7e565b93506112fc878561144e565b505050949350505050565b6000611369826040518060400160405280602081526020017f5361666545524332303a206c6f772d6c6576656c2063616c6c206661696c65648152508573ffffffffffffffffffffffffffffffffffffffff166115269092919063ffffffff16565b90506000815111156113c057808060200190518101906113899190611ce0565b6113bf576040517fa479450200000000000000000000000000000000000000000000000000000000815260040160405180910390fd5b5b505050565b611448846323b872dd60e01b8585856040516024016113e693929190611d89565b604051602081830303815290604052907bffffffffffffffffffffffffffffffffffffffffffffffffffffffff19166020820180517bffffffffffffffffffffffffffffffffffffffffffffffffffffffff8381831617835250505050611307565b50505050565b80600260008282546114609190611c0c565b92505081905550806000808473ffffffffffffffffffffffffffffffffffffffff1673ffffffffffffffffffffffffffffffffffffffff16815260200190815260200160002060008282546114b59190611c0c565b925050819055508173ffffffffffffffffffffffffffffffffffffffff16600073ffffffffffffffffffffffffffffffffffffffff167fddf252ad1be2c89b69c2b068fc378daa952ba7f163c4a11628f55a4df523b3ef8360405161151a91906118bb565b60405180910390a35050565b6060611535848460008561153e565b90509392505050565b6060824710156115875747836040517f02de226f00000000000000000000000000000000000000000000000000000000815260040161157e929190611baf565b60405180910390fd5b61159085611658565b6115d157846040517f8a8b41ec0000000000000000000000000000000000000000000000000000000081526004016115c891906119c9565b60405180910390fd5b6000808673ffffffffffffffffffffffffffffffffffffffff1685876040516115fa9190611e07565b60006040518083038185875af1925050503d8060008114611637576040519150601f19603f3d011682016040523d82523d6000602084013e61163c565b606091505b509150915061164c82828661167b565b92505050949350505050565b6000808273ffffffffffffffffffffffffffffffffffffffff163b119050919050565b6060831561168b578290506116db565b60008351111561169e5782518084602001fd5b816040517f08c379a00000000000000000000000000000000000000000000000000000000081526004016116d2919061177b565b60405180910390fd5b9392505050565b600081519050919050565b600082825260208201905092915050565b60005b8381101561171c578082015181840152602081019050611701565b8381111561172b576000848401525b50505050565b6000601f19601f8301169050919050565b600061174d826116e2565b61175781856116ed565b93506117678185602086016116fe565b61177081611731565b840191505092915050565b600060208201905081810360008301526117958184611742565b905092915050565b600080fd5b600073ffffffffffffffffffffffffffffffffffffffff82169050919050565b60006117cd826117a2565b9050919050565b6117dd816117c2565b81146117e857600080fd5b50565b6000813590506117fa816117d4565b92915050565b6000819050919050565b61181381611800565b811461181e57600080fd5b50565b6000813590506118308161180a565b92915050565b6000806040838503121561184d5761184c61179d565b5b600061185b858286016117eb565b925050602061186c85828601611821565b9150509250929050565b60008115159050919050565b61188b81611876565b82525050565b60006020820190506118a66000830184611882565b92915050565b6118b581611800565b82525050565b60006020820190506118d060008301846118ac565b92915050565b6000806000606084860312156118ef576118ee61179d565b5b60006118fd868287016117eb565b935050602061190e868287016117eb565b925050604061191f86828701611821565b9150509250925092565b600060ff82169050919050565b61193f81611929565b82525050565b600060208201905061195a6000830184611936565b92915050565b6000602082840312156119765761197561179d565b5b600061198484828501611821565b91505092915050565b6000602082840312156119a3576119a261179d565b5b60006119b1848285016117eb565b91505092915050565b6119c3816117c2565b82525050565b60006020820190506119de60008301846119ba565b92915050565b600080604083850312156119fb576119fa61179d565b5b6000611a09858286016117eb565b9250506020611a1a858286016117eb565b9150509250929050565b7f4e487b7100000000000000000000000000000000000000000000000000000000600052602260045260246000fd5b60006002820490506001821680611a6b57607f821691505b602082108103611a7e57611a7d611a24565b5b50919050565b600081519050611a938161180a565b92915050565b600060208284031215611aaf57611aae61179d565b5b6000611abd84828501611a84565b91505092915050565b7f4e487b7100000000000000000000000000000000000000000000000000000000600052601160045260246000fd5b6000611b0082611800565b9150611b0b83611800565b9250817fffffffffffffffffffffffffffffffffffffffffffffffffffffffffffffffff0483118215151615611b4457611b43611ac6565b5b828202905092915050565b7f4e487b7100000000000000000000000000000000000000000000000000000000600052601260045260246000fd5b6000611b8982611800565b9150611b9483611800565b925082611ba457611ba3611b4f565b5b828204905092915050565b6000604082019050611bc460008301856118ac565b611bd160208301846118ac565b9392505050565b6000611be382611800565b9150611bee83611800565b925082821015611c0157611c00611ac6565b5b828203905092915050565b6000611c1782611800565b9150611c2283611800565b9250827fffffffffffffffffffffffffffffffffffffffffffffffffffffffffffffffff03821115611c5757611c56611ac6565b5b828201905092915050565b6000604082019050611c7760008301856119ba565b611c8460208301846119ba565b9392505050565b6000604082019050611ca060008301856119ba565b611cad60208301846118ac565b9392505050565b611cbd81611876565b8114611cc857600080fd5b50565b600081519050611cda81611cb4565b92915050565b600060208284031215611cf657611cf561179d565b5b6000611d0484828501611ccb565b91505092915050565b6000819050919050565b6000819050919050565b6000611d3c611d37611d3284611d0d565b611d17565b611800565b9050919050565b611d4c81611d21565b82525050565b6000606082019050611d6760008301866118ac565b611d746020830185611d43565b611d8160408301846118ac565b949350505050565b6000606082019050611d9e60008301866119ba565b611dab60208301856119ba565b611db860408301846118ac565b949350505050565b600081519050919050565b600081905092915050565b6000611de182611dc0565b611deb8185611dcb565b9350611dfb8185602086016116fe565b80840191505092915050565b6000611e138284611dd6565b91508190509291505056fea264697066735822122013ebd67367d37ae4af082a25f10bd13e97a472a832ab09d0a10ad29ba4dbd65564736f6c634300080d0033",
  "linkReferences": {},
  "deployedLinkReferences": {}
}