{
  "_format": "hh-sol-artifact-1",
  "contractName": "VanillaProxy",
  "sourceName": "contracts/testing/VanillaProxy.sol",
  "abi": [
    {
      "inputs": [
        {
          "internalType": "address",
          "name": "_baseToken",
          "type": "address"
        },
        {
          "internalType": "string",
          "name": "name_",
          "type": "string"
        },
        {
          "internalType": "string",
          "name": "symbol_",
          "type": "string"
        },
        {
          "internalType": "address",
          "name": "registry",
          "type": "address"
        }
      ],
      "stateMutability": "nonpayable",
      "type": "constructor"
    },
    {
      "inputs": [
        {
          "internalType": "uint256",
          "name": "allowance",
          "type": "uint256"
        },
        {
          "internalType": "uint256",
          "name": "amount",
          "type": "uint256"
        }
      ],
      "name": "AllowanceExceeded",
      "type": "error"
    },
    {
      "inputs": [
        {
          "internalType": "uint256",
          "name": "allowance",
          "type": "uint256"
        },
        {
          "internalType": "uint256",
          "name": "subtraction",
          "type": "uint256"
        }
      ],
      "name": "AllowanceUnderflow",
      "type": "error"
    },
    {
      "inputs": [
        {
          "internalType": "uint256",
          "name": "accountBalance",
          "type": "uint256"
        },
        {
          "internalType": "uint256",
          "name": "amount",
          "type": "uint256"
        }
      ],
      "name": "BurnUnderflow",
      "type": "error"
    },
    {
      "inputs": [
        {
          "internalType": "uint256",
          "name": "balance",
          "type": "uint256"
        },
        {
          "internalType": "uint256",
          "name": "value",
          "type": "uint256"
        }
      ],
      "name": "InsufficinetFunds",
      "type": "error"
    },
    {
      "inputs": [
        {
          "internalType": "address",
          "name": "EOA",
          "type": "address"
        }
      ],
      "name": "NotAContract",
      "type": "error"
    },
    {
      "inputs": [
        {
          "internalType": "address",
          "name": "sender",
          "type": "address"
        },
        {
          "internalType": "address",
          "name": "proxy",
          "type": "address"
        }
      ],
      "name": "OnlyProxy",
      "type": "error"
    },
    {
      "inputs": [],
      "name": "OperationFailure",
      "type": "error"
    },
    {
      "inputs": [
        {
          "internalType": "uint256",
          "name": "senderBalance",
          "type": "uint256"
        },
        {
          "internalType": "uint256",
          "name": "fee",
          "type": "uint256"
        },
        {
          "internalType": "uint256",
          "name": "amount",
          "type": "uint256"
        }
      ],
      "name": "TransferUnderflow",
      "type": "error"
    },
    {
      "anonymous": false,
      "inputs": [
        {
          "indexed": true,
          "internalType": "address",
          "name": "owner",
          "type": "address"
        },
        {
          "indexed": true,
          "internalType": "address",
          "name": "spender",
          "type": "address"
        },
        {
          "indexed": false,
          "internalType": "uint256",
          "name": "value",
          "type": "uint256"
        }
      ],
      "name": "Approval",
      "type": "event"
    },
    {
      "anonymous": false,
      "inputs": [
        {
          "indexed": true,
          "internalType": "address",
          "name": "from",
          "type": "address"
        },
        {
          "indexed": true,
          "internalType": "address",
          "name": "to",
          "type": "address"
        },
        {
          "indexed": false,
          "internalType": "uint256",
          "name": "value",
          "type": "uint256"
        }
      ],
      "name": "Transfer",
      "type": "event"
    },
    {
      "inputs": [
        {
          "internalType": "address",
          "name": "owner",
          "type": "address"
        },
        {
          "internalType": "address",
          "name": "spender",
          "type": "address"
        }
      ],
      "name": "allowance",
      "outputs": [
        {
          "internalType": "uint256",
          "name": "",
          "type": "uint256"
        }
      ],
      "stateMutability": "view",
      "type": "function"
    },
    {
      "inputs": [
        {
          "internalType": "address",
          "name": "spender",
          "type": "address"
        },
        {
          "internalType": "uint256",
          "name": "amount",
          "type": "uint256"
        }
      ],
      "name": "approve",
      "outputs": [
        {
          "internalType": "bool",
          "name": "",
          "type": "bool"
        }
      ],
      "stateMutability": "nonpayable",
      "type": "function"
    },
    {
      "inputs": [
        {
          "internalType": "address",
          "name": "account",
          "type": "address"
        }
      ],
      "name": "balanceOf",
      "outputs": [
        {
          "internalType": "uint256",
          "name": "",
          "type": "uint256"
        }
      ],
      "stateMutability": "view",
      "type": "function"
    },
    {
      "inputs": [],
      "name": "baseToken",
      "outputs": [
        {
          "internalType": "address",
          "name": "",
          "type": "address"
        }
      ],
      "stateMutability": "view",
      "type": "function"
    },
    {
      "inputs": [],
      "name": "decimals",
      "outputs": [
        {
          "internalType": "uint8",
          "name": "",
          "type": "uint8"
        }
      ],
      "stateMutability": "view",
      "type": "function"
    },
    {
      "inputs": [
        {
          "internalType": "address",
          "name": "spender",
          "type": "address"
        },
        {
          "internalType": "uint256",
          "name": "subtractedValue",
          "type": "uint256"
        }
      ],
      "name": "decreaseAllowance",
      "outputs": [
        {
          "internalType": "bool",
          "name": "",
          "type": "bool"
        }
      ],
      "stateMutability": "nonpayable",
      "type": "function"
    },
    {
      "inputs": [
        {
          "internalType": "address",
          "name": "spender",
          "type": "address"
        },
        {
          "internalType": "uint256",
          "name": "addedValue",
          "type": "uint256"
        }
      ],
      "name": "increaseAllowance",
      "outputs": [
        {
          "internalType": "bool",
          "name": "",
          "type": "bool"
        }
      ],
      "stateMutability": "nonpayable",
      "type": "function"
    },
    {
      "inputs": [],
      "name": "initialRedeemRate",
      "outputs": [
        {
          "internalType": "uint256",
          "name": "",
          "type": "uint256"
        }
      ],
      "stateMutability": "view",
      "type": "function"
    },
    {
      "inputs": [
        {
          "internalType": "address",
          "name": "newProxy",
          "type": "address"
        }
      ],
      "name": "migrateBaseReserveToNewProxy",
      "outputs": [],
      "stateMutability": "nonpayable",
      "type": "function"
    },
    {
      "inputs": [
        {
          "internalType": "address",
          "name": "proxyRecipient",
          "type": "address"
        },
        {
          "internalType": "address",
          "name": "baseSource",
          "type": "address"
        },
        {
          "internalType": "uint256",
          "name": "amount",
          "type": "uint256"
        }
      ],
      "name": "mint",
      "outputs": [
        {
          "internalType": "uint256",
          "name": "",
          "type": "uint256"
        }
      ],
      "stateMutability": "nonpayable",
      "type": "function"
    },
    {
      "inputs": [],
      "name": "name",
      "outputs": [
        {
          "internalType": "string",
          "name": "",
          "type": "string"
        }
      ],
      "stateMutability": "view",
      "type": "function"
    },
    {
      "inputs": [],
      "name": "proxyRegistry",
      "outputs": [
        {
          "internalType": "address",
          "name": "",
          "type": "address"
        }
      ],
      "stateMutability": "view",
      "type": "function"
    },
    {
      "inputs": [
        {
          "internalType": "address",
          "name": "proxySource",
          "type": "address"
        },
        {
          "internalType": "address",
          "name": "baseRecipient",
          "type": "address"
        },
        {
          "internalType": "uint256",
          "name": "amount",
          "type": "uint256"
        }
      ],
      "name": "redeem",
      "outputs": [
        {
          "internalType": "uint256",
          "name": "baseAmount",
          "type": "uint256"
        }
      ],
      "stateMutability": "nonpayable",
      "type": "function"
    },
    {
      "inputs": [],
      "name": "redeemRate",
      "outputs": [
        {
          "internalType": "uint256",
          "name": "",
          "type": "uint256"
        }
      ],
      "stateMutability": "view",
      "type": "function"
    },
    {
      "inputs": [
        {
          "internalType": "address",
          "name": "recipient",
          "type": "address"
        },
        {
          "internalType": "uint256",
          "name": "amount",
          "type": "uint256"
        }
      ],
      "name": "redeemSelf",
      "outputs": [
        {
          "internalType": "uint256",
          "name": "",
          "type": "uint256"
        }
      ],
      "stateMutability": "nonpayable",
      "type": "function"
    },
    {
      "inputs": [
        {
          "internalType": "uint256",
          "name": "_R_amp",
          "type": "uint256"
        }
      ],
      "name": "setRAmpFinney",
      "outputs": [],
      "stateMutability": "nonpayable",
      "type": "function"
    },
    {
      "inputs": [],
      "name": "symbol",
      "outputs": [
        {
          "internalType": "string",
          "name": "",
          "type": "string"
        }
      ],
      "stateMutability": "view",
      "type": "function"
    },
    {
      "inputs": [],
      "name": "totalSupply",
      "outputs": [
        {
          "internalType": "uint256",
          "name": "",
          "type": "uint256"
        }
      ],
      "stateMutability": "view",
      "type": "function"
    },
    {
      "inputs": [
        {
          "internalType": "address",
          "name": "recipient",
          "type": "address"
        },
        {
          "internalType": "uint256",
          "name": "amount",
          "type": "uint256"
        }
      ],
      "name": "transfer",
      "outputs": [
        {
          "internalType": "bool",
          "name": "",
          "type": "bool"
        }
      ],
      "stateMutability": "nonpayable",
      "type": "function"
    },
    {
      "inputs": [
        {
          "internalType": "address",
          "name": "sender",
          "type": "address"
        },
        {
          "internalType": "address",
          "name": "recipient",
          "type": "address"
        },
        {
          "internalType": "uint256",
          "name": "amount",
          "type": "uint256"
        }
      ],
      "name": "transferFrom",
      "outputs": [
        {
          "internalType": "bool",
          "name": "",
          "type": "bool"
        }
      ],
      "stateMutability": "nonpayable",
      "type": "function"
    }
  ],
  "bytecode": "0x60e06040523480156200001157600080fd5b5060405162002472380380620024728339818101604052810190620000379190620003ba565b83838383670de0b6b3a7640000838381600390805190602001906200005e92919062000108565b5080600490805190602001906200007792919062000108565b5050508473ffffffffffffffffffffffffffffffffffffffff1660a08173ffffffffffffffffffffffffffffffffffffffff16815250508173ffffffffffffffffffffffffffffffffffffffff1660808173ffffffffffffffffffffffffffffffffffffffff16815250508060c081815250505050505050670de0b6b3a764000060058190555050505050620004ce565b828054620001169062000499565b90600052602060002090601f0160209004810192826200013a576000855562000186565b82601f106200015557805160ff191683800117855562000186565b8280016001018555821562000186579182015b828111156200018557825182559160200191906001019062000168565b5b50905062000195919062000199565b5090565b5b80821115620001b45760008160009055506001016200019a565b5090565b6000604051905090565b600080fd5b600080fd5b600073ffffffffffffffffffffffffffffffffffffffff82169050919050565b6000620001f982620001cc565b9050919050565b6200020b81620001ec565b81146200021757600080fd5b50565b6000815190506200022b8162000200565b92915050565b600080fd5b600080fd5b6000601f19601f8301169050919050565b7f4e487b7100000000000000000000000000000000000000000000000000000000600052604160045260246000fd5b62000286826200023b565b810181811067ffffffffffffffff82111715620002a857620002a76200024c565b5b80604052505050565b6000620002bd620001b8565b9050620002cb82826200027b565b919050565b600067ffffffffffffffff821115620002ee57620002ed6200024c565b5b620002f9826200023b565b9050602081019050919050565b60005b838110156200032657808201518184015260208101905062000309565b8381111562000336576000848401525b50505050565b6000620003536200034d84620002d0565b620002b1565b90508281526020810184848401111562000372576200037162000236565b5b6200037f84828562000306565b509392505050565b600082601f8301126200039f576200039e62000231565b5b8151620003b18482602086016200033c565b91505092915050565b60008060008060808587031215620003d757620003d6620001c2565b5b6000620003e7878288016200021a565b945050602085015167ffffffffffffffff8111156200040b576200040a620001c7565b5b620004198782880162000387565b935050604085015167ffffffffffffffff8111156200043d576200043c620001c7565b5b6200044b8782880162000387565b92505060606200045e878288016200021a565b91505092959194509250565b7f4e487b7100000000000000000000000000000000000000000000000000000000600052602260045260246000fd5b60006002820490506001821680620004b257607f821691505b602082108103620004c857620004c76200046a565b5b50919050565b60805160a05160c051611f19620005596000396000818161059e015281816105cf01528181610623015281816108fc015281816111ac01526113810152600081816104e70152818161066101528181610ace01528181610c46015281816111ee0152818161129001526112da015260008181610aaa01528181610b920152610be60152611f196000f3fe608060405234801561001057600080fd5b506004361061012c5760003560e01c806370a08231116100ad578063b50cbd9f11610071578063b50cbd9f14610381578063c55dae631461039f578063c6c3bbe6146103bd578063dd62ed3e146103ed578063ed3b379b1461041d5761012c565b806370a08231146102b55780637376dd79146102e557806395d89b4114610303578063a457c2d714610321578063a9059cbb146103515761012c565b806323b872dd116100f457806323b872dd146101eb578063313ce5671461021b57806339509351146102395780633e6a300b146102695780636fe27aba146102855761012c565b806306fdde0314610131578063095ea7b31461014f5780630adcdbaa1461017f5780630e6dfcd51461019d57806318160ddd146101cd575b600080fd5b610139610439565b6040516101469190611840565b60405180910390f35b610169600480360381019061016491906118fb565b6104cb565b6040516101769190611956565b60405180910390f35b6101876104e2565b6040516101949190611980565b60405180910390f35b6101b760048036038101906101b2919061199b565b61060a565b6040516101c49190611980565b60405180910390f35b6101d56106ad565b6040516101e29190611980565b60405180910390f35b6102056004803603810190610200919061199b565b6106b7565b6040516102129190611956565b60405180910390f35b6102236107da565b6040516102309190611a0a565b60405180910390f35b610253600480360381019061024e91906118fb565b6107e3565b6040516102609190611956565b60405180910390f35b610283600480360381019061027e9190611a25565b610881565b005b61029f600480360381019061029a91906118fb565b61089d565b6040516102ac9190611980565b60405180910390f35b6102cf60048036038101906102ca9190611a52565b6108b2565b6040516102dc9190611980565b60405180910390f35b6102ed6108fa565b6040516102fa9190611980565b60405180910390f35b61030b61091e565b6040516103189190611840565b60405180910390f35b61033b600480360381019061033691906118fb565b6109b0565b6040516103489190611956565b60405180910390f35b61036b600480360381019061036691906118fb565b610a91565b6040516103789190611956565b60405180910390f35b610389610aa8565b6040516103969190611a8e565b60405180910390f35b6103a7610acc565b6040516103b49190611a8e565b60405180910390f35b6103d760048036038101906103d2919061199b565b610af0565b6040516103e49190611980565b60405180910390f35b61040760048036038101906104029190611aa9565b610b09565b6040516104149190611980565b60405180910390f35b61043760048036038101906104329190611a52565b610b90565b005b60606003805461044890611b18565b80601f016020809104026020016040519081016040528092919081815260200182805461047490611b18565b80156104c15780601f10610496576101008083540402835291602001916104c1565b820191906000526020600020905b8154815290600101906020018083116104a457829003601f168201915b5050505050905090565b60006104d8338484610d63565b6001905092915050565b6000807f000000000000000000000000000000000000000000000000000000000000000073ffffffffffffffffffffffffffffffffffffffff166370a08231306040518263ffffffff1660e01b815260040161053e9190611a8e565b602060405180830381865afa15801561055b573d6000803e3d6000fd5b505050506040513d601f19601f8201168201806040525081019061057f9190611b5e565b9050600061058b6106ad565b14806105975750600081145b156105c5577f0000000000000000000000000000000000000000000000000000000000000000915050610607565b6105cd6106ad565b7f0000000000000000000000000000000000000000000000000000000000000000826105f99190611bba565b6106039190611c43565b9150505b90565b6000806106156104e2565b90506106218584610e4e565b7f0000000000000000000000000000000000000000000000000000000000000000818461064e9190611bba565b6106589190611c43565b91506106a584837f000000000000000000000000000000000000000000000000000000000000000073ffffffffffffffffffffffffffffffffffffffff16610f989092919063ffffffff16565b509392505050565b6000600254905090565b60006106c484848461101e565b6000600160008673ffffffffffffffffffffffffffffffffffffffff1673ffffffffffffffffffffffffffffffffffffffff16815260200190815260200160002060003373ffffffffffffffffffffffffffffffffffffffff1673ffffffffffffffffffffffffffffffffffffffff1681526020019081526020016000205490507fffffffffffffffffffffffffffffffffffffffffffffffffffffffffffffffff811415801561077457508083115b156107b85780836040517fa92482560000000000000000000000000000000000000000000000000000000081526004016107af929190611c74565b60405180910390fd5b6107ce853385846107c99190611c9d565b610d63565b60019150509392505050565b60006012905090565b6000610877338484600160003373ffffffffffffffffffffffffffffffffffffffff1673ffffffffffffffffffffffffffffffffffffffff16815260200190815260200160002060008873ffffffffffffffffffffffffffffffffffffffff1673ffffffffffffffffffffffffffffffffffffffff168152602001908152602001600020546108729190611cd1565b610d63565b6001905092915050565b66038d7ea4c68000816108949190611bba565b60058190555050565b60006108aa33848461060a565b905092915050565b60008060008373ffffffffffffffffffffffffffffffffffffffff1673ffffffffffffffffffffffffffffffffffffffff168152602001908152602001600020549050919050565b7f000000000000000000000000000000000000000000000000000000000000000081565b60606004805461092d90611b18565b80601f016020809104026020016040519081016040528092919081815260200182805461095990611b18565b80156109a65780601f1061097b576101008083540402835291602001916109a6565b820191906000526020600020905b81548152906001019060200180831161098957829003601f168201915b5050505050905090565b600080600160003373ffffffffffffffffffffffffffffffffffffffff1673ffffffffffffffffffffffffffffffffffffffff16815260200190815260200160002060008573ffffffffffffffffffffffffffffffffffffffff1673ffffffffffffffffffffffffffffffffffffffff16815260200190815260200160002054905082811015610a795780836040517fda2d822c000000000000000000000000000000000000000000000000000000008152600401610a70929190611c74565b60405180910390fd5b610a863385858403610d63565b600191505092915050565b6000610a9e33848461101e565b6001905092915050565b7f000000000000000000000000000000000000000000000000000000000000000081565b7f000000000000000000000000000000000000000000000000000000000000000081565b6000610b006005548585856111a7565b90509392505050565b6000600160008473ffffffffffffffffffffffffffffffffffffffff1673ffffffffffffffffffffffffffffffffffffffff16815260200190815260200160002060008373ffffffffffffffffffffffffffffffffffffffff1673ffffffffffffffffffffffffffffffffffffffff16815260200190815260200160002054905092915050565b7f000000000000000000000000000000000000000000000000000000000000000073ffffffffffffffffffffffffffffffffffffffff163373ffffffffffffffffffffffffffffffffffffffff1614610c4257337f00000000000000000000000000000000000000000000000000000000000000006040517fd214286f000000000000000000000000000000000000000000000000000000008152600401610c39929190611d27565b60405180910390fd5b60007f000000000000000000000000000000000000000000000000000000000000000090508073ffffffffffffffffffffffffffffffffffffffff1663a9059cbb838373ffffffffffffffffffffffffffffffffffffffff166370a08231306040518263ffffffff1660e01b8152600401610cbd9190611a8e565b602060405180830381865afa158015610cda573d6000803e3d6000fd5b505050506040513d601f19601f82011682018060405250810190610cfe9190611b5e565b6040518363ffffffff1660e01b8152600401610d1b929190611d50565b6020604051808303816000875af1158015610d3a573d6000803e3d6000fd5b505050506040513d601f19601f82011682018060405250810190610d5e9190611da5565b505050565b80600160008573ffffffffffffffffffffffffffffffffffffffff1673ffffffffffffffffffffffffffffffffffffffff16815260200190815260200160002060008473ffffffffffffffffffffffffffffffffffffffff1673ffffffffffffffffffffffffffffffffffffffff168152602001908152602001600020819055508173ffffffffffffffffffffffffffffffffffffffff168373ffffffffffffffffffffffffffffffffffffffff167f8c5be1e5ebec7d5bd14f71427d1e84f3dd0314c0f7b2291e5b200ac8c7c3b92583604051610e419190611980565b60405180910390a3505050565b60008060008473ffffffffffffffffffffffffffffffffffffffff1673ffffffffffffffffffffffffffffffffffffffff16815260200190815260200160002054905081811015610ed85780826040517f0a37dd41000000000000000000000000000000000000000000000000000000008152600401610ecf929190611c74565b60405180910390fd5b8181036000808573ffffffffffffffffffffffffffffffffffffffff1673ffffffffffffffffffffffffffffffffffffffff1681526020019081526020016000208190555081600260008282540392505081905550600073ffffffffffffffffffffffffffffffffffffffff168373ffffffffffffffffffffffffffffffffffffffff167fddf252ad1be2c89b69c2b068fc378daa952ba7f163c4a11628f55a4df523b3ef84604051610f8b9190611980565b60405180910390a3505050565b6110198363a9059cbb60e01b8484604051602401610fb7929190611d50565b604051602081830303815290604052907bffffffffffffffffffffffffffffffffffffffffffffffffffffffff19166020820180517bffffffffffffffffffffffffffffffffffffffffffffffffffffffff83818316178352505050506113cc565b505050565b60008060008573ffffffffffffffffffffffffffffffffffffffff1673ffffffffffffffffffffffffffffffffffffffff168152602001908152602001600020549050818110156110ab57806000836040517f57b9c4a40000000000000000000000000000000000000000000000000000000081526004016110a293929190611e17565b60405180910390fd5b8181036000808673ffffffffffffffffffffffffffffffffffffffff1673ffffffffffffffffffffffffffffffffffffffff16815260200190815260200160002081905550816000808573ffffffffffffffffffffffffffffffffffffffff1673ffffffffffffffffffffffffffffffffffffffff168152602001908152602001600020600082825401925050819055508273ffffffffffffffffffffffffffffffffffffffff168473ffffffffffffffffffffffffffffffffffffffff167fddf252ad1be2c89b69c2b068fc378daa952ba7f163c4a11628f55a4df523b3ef846040516111999190611980565b60405180910390a350505050565b6000807f0000000000000000000000000000000000000000000000000000000000000000866111d46104e2565b6111de9190611bba565b6111e89190611c43565b905060007f000000000000000000000000000000000000000000000000000000000000000073ffffffffffffffffffffffffffffffffffffffff166370a08231306040518263ffffffff1660e01b81526004016112459190611a8e565b602060405180830381865afa158015611262573d6000803e3d6000fd5b505050506040513d601f19601f820116820180604052508101906112869190611b5e565b90506112d58530867f000000000000000000000000000000000000000000000000000000000000000073ffffffffffffffffffffffffffffffffffffffff1661148a909392919063ffffffff16565b6000817f000000000000000000000000000000000000000000000000000000000000000073ffffffffffffffffffffffffffffffffffffffff166370a08231306040518263ffffffff1660e01b81526004016113319190611a8e565b602060405180830381865afa15801561134e573d6000803e3d6000fd5b505050506040513d601f19601f820116820180604052508101906113729190611b5e565b61137c9190611c9d565b9050827f0000000000000000000000000000000000000000000000000000000000000000826113ab9190611bba565b6113b59190611c43565b93506113c18785611513565b505050949350505050565b600061142e826040518060400160405280602081526020017f5361666545524332303a206c6f772d6c6576656c2063616c6c206661696c65648152508573ffffffffffffffffffffffffffffffffffffffff166115eb9092919063ffffffff16565b9050600081511115611485578080602001905181019061144e9190611da5565b611484576040517fa479450200000000000000000000000000000000000000000000000000000000815260040160405180910390fd5b5b505050565b61150d846323b872dd60e01b8585856040516024016114ab93929190611e4e565b604051602081830303815290604052907bffffffffffffffffffffffffffffffffffffffffffffffffffffffff19166020820180517bffffffffffffffffffffffffffffffffffffffffffffffffffffffff83818316178352505050506113cc565b50505050565b80600260008282546115259190611cd1565b92505081905550806000808473ffffffffffffffffffffffffffffffffffffffff1673ffffffffffffffffffffffffffffffffffffffff168152602001908152602001600020600082825461157a9190611cd1565b925050819055508173ffffffffffffffffffffffffffffffffffffffff16600073ffffffffffffffffffffffffffffffffffffffff167fddf252ad1be2c89b69c2b068fc378daa952ba7f163c4a11628f55a4df523b3ef836040516115df9190611980565b60405180910390a35050565b60606115fa8484600085611603565b90509392505050565b60608247101561164c5747836040517f02de226f000000000000000000000000000000000000000000000000000000008152600401611643929190611c74565b60405180910390fd5b6116558561171d565b61169657846040517f8a8b41ec00000000000000000000000000000000000000000000000000000000815260040161168d9190611a8e565b60405180910390fd5b6000808673ffffffffffffffffffffffffffffffffffffffff1685876040516116bf9190611ecc565b60006040518083038185875af1925050503d80600081146116fc576040519150601f19603f3d011682016040523d82523d6000602084013e611701565b606091505b5091509150611711828286611740565b92505050949350505050565b6000808273ffffffffffffffffffffffffffffffffffffffff163b119050919050565b60608315611750578290506117a0565b6000835111156117635782518084602001fd5b816040517f08c379a00000000000000000000000000000000000000000000000000000000081526004016117979190611840565b60405180910390fd5b9392505050565b600081519050919050565b600082825260208201905092915050565b60005b838110156117e15780820151818401526020810190506117c6565b838111156117f0576000848401525b50505050565b6000601f19601f8301169050919050565b6000611812826117a7565b61181c81856117b2565b935061182c8185602086016117c3565b611835816117f6565b840191505092915050565b6000602082019050818103600083015261185a8184611807565b905092915050565b600080fd5b600073ffffffffffffffffffffffffffffffffffffffff82169050919050565b600061189282611867565b9050919050565b6118a281611887565b81146118ad57600080fd5b50565b6000813590506118bf81611899565b92915050565b6000819050919050565b6118d8816118c5565b81146118e357600080fd5b50565b6000813590506118f5816118cf565b92915050565b6000806040838503121561191257611911611862565b5b6000611920858286016118b0565b9250506020611931858286016118e6565b9150509250929050565b60008115159050919050565b6119508161193b565b82525050565b600060208201905061196b6000830184611947565b92915050565b61197a816118c5565b82525050565b60006020820190506119956000830184611971565b92915050565b6000806000606084860312156119b4576119b3611862565b5b60006119c2868287016118b0565b93505060206119d3868287016118b0565b92505060406119e4868287016118e6565b9150509250925092565b600060ff82169050919050565b611a04816119ee565b82525050565b6000602082019050611a1f60008301846119fb565b92915050565b600060208284031215611a3b57611a3a611862565b5b6000611a49848285016118e6565b91505092915050565b600060208284031215611a6857611a67611862565b5b6000611a76848285016118b0565b91505092915050565b611a8881611887565b82525050565b6000602082019050611aa36000830184611a7f565b92915050565b60008060408385031215611ac057611abf611862565b5b6000611ace858286016118b0565b9250506020611adf858286016118b0565b9150509250929050565b7f4e487b7100000000000000000000000000000000000000000000000000000000600052602260045260246000fd5b60006002820490506001821680611b3057607f821691505b602082108103611b4357611b42611ae9565b5b50919050565b600081519050611b58816118cf565b92915050565b600060208284031215611b7457611b73611862565b5b6000611b8284828501611b49565b91505092915050565b7f4e487b7100000000000000000000000000000000000000000000000000000000600052601160045260246000fd5b6000611bc5826118c5565b9150611bd0836118c5565b9250817fffffffffffffffffffffffffffffffffffffffffffffffffffffffffffffffff0483118215151615611c0957611c08611b8b565b5b828202905092915050565b7f4e487b7100000000000000000000000000000000000000000000000000000000600052601260045260246000fd5b6000611c4e826118c5565b9150611c59836118c5565b925082611c6957611c68611c14565b5b828204905092915050565b6000604082019050611c896000830185611971565b611c966020830184611971565b9392505050565b6000611ca8826118c5565b9150611cb3836118c5565b925082821015611cc657611cc5611b8b565b5b828203905092915050565b6000611cdc826118c5565b9150611ce7836118c5565b9250827fffffffffffffffffffffffffffffffffffffffffffffffffffffffffffffffff03821115611d1c57611d1b611b8b565b5b828201905092915050565b6000604082019050611d3c6000830185611a7f565b611d496020830184611a7f565b9392505050565b6000604082019050611d656000830185611a7f565b611d726020830184611971565b9392505050565b611d828161193b565b8114611d8d57600080fd5b50565b600081519050611d9f81611d79565b92915050565b600060208284031215611dbb57611dba611862565b5b6000611dc984828501611d90565b91505092915050565b6000819050919050565b6000819050919050565b6000611e01611dfc611df784611dd2565b611ddc565b6118c5565b9050919050565b611e1181611de6565b82525050565b6000606082019050611e2c6000830186611971565b611e396020830185611e08565b611e466040830184611971565b949350505050565b6000606082019050611e636000830186611a7f565b611e706020830185611a7f565b611e7d6040830184611971565b949350505050565b600081519050919050565b600081905092915050565b6000611ea682611e85565b611eb08185611e90565b9350611ec08185602086016117c3565b80840191505092915050565b6000611ed88284611e9b565b91508190509291505056fea2646970667358221220f596c324f23bbc0215ba0bfd525b9ae5e54a085edd2aad193f6ede7ed90e11d564736f6c634300080d0033",
  "linkReferences": {},
  "deployedLinkReferences": {}
}