{
  "_format": "hh-sol-artifact-1",
  "contractName": "PyroWeth10Proxy",
  "sourceName": "contracts/periphery/BehodlerLite/PyroWethProxy.sol",
  "abi": [
    {
      "inputs": [
        {
          "internalType": "address",
          "name": "pyroWeth",
          "type": "address"
        }
      ],
      "stateMutability": "nonpayable",
      "type": "constructor"
    },
    {
      "anonymous": false,
      "inputs": [
        {
          "indexed": true,
          "internalType": "address",
          "name": "previousOwner",
          "type": "address"
        },
        {
          "indexed": true,
          "internalType": "address",
          "name": "newOwner",
          "type": "address"
        }
      ],
      "name": "OwnershipTransferred",
      "type": "event"
    },
    {
      "inputs": [
        {
          "internalType": "address",
          "name": "holder",
          "type": "address"
        }
      ],
      "name": "balanceOf",
      "outputs": [
        {
          "internalType": "uint256",
          "name": "",
          "type": "uint256"
        }
      ],
      "stateMutability": "view",
      "type": "function"
    },
    {
      "inputs": [],
      "name": "baseToken",
      "outputs": [
        {
          "internalType": "address",
          "name": "",
          "type": "address"
        }
      ],
      "stateMutability": "view",
      "type": "function"
    },
    {
      "inputs": [
        {
          "internalType": "uint256",
          "name": "baseTokenAmount",
          "type": "uint256"
        }
      ],
      "name": "calculateMintedPyroWeth",
      "outputs": [
        {
          "internalType": "uint256",
          "name": "",
          "type": "uint256"
        }
      ],
      "stateMutability": "view",
      "type": "function"
    },
    {
      "inputs": [
        {
          "internalType": "uint256",
          "name": "pyroTokenAmount",
          "type": "uint256"
        }
      ],
      "name": "calculateRedeemedWeth",
      "outputs": [
        {
          "internalType": "uint256",
          "name": "",
          "type": "uint256"
        }
      ],
      "stateMutability": "view",
      "type": "function"
    },
    {
      "inputs": [
        {
          "internalType": "uint256",
          "name": "baseTokenAmount",
          "type": "uint256"
        }
      ],
      "name": "mint",
      "outputs": [
        {
          "internalType": "uint256",
          "name": "",
          "type": "uint256"
        }
      ],
      "stateMutability": "payable",
      "type": "function"
    },
    {
      "inputs": [],
      "name": "owner",
      "outputs": [
        {
          "internalType": "address",
          "name": "",
          "type": "address"
        }
      ],
      "stateMutability": "view",
      "type": "function"
    },
    {
      "inputs": [
        {
          "internalType": "uint256",
          "name": "pyroTokenAmount",
          "type": "uint256"
        }
      ],
      "name": "redeem",
      "outputs": [
        {
          "internalType": "uint256",
          "name": "",
          "type": "uint256"
        }
      ],
      "stateMutability": "nonpayable",
      "type": "function"
    },
    {
      "inputs": [],
      "name": "redeemRate",
      "outputs": [
        {
          "internalType": "uint256",
          "name": "",
          "type": "uint256"
        }
      ],
      "stateMutability": "view",
      "type": "function"
    },
    {
      "inputs": [],
      "name": "renounceOwnership",
      "outputs": [],
      "stateMutability": "nonpayable",
      "type": "function"
    },
    {
      "inputs": [
        {
          "internalType": "address",
          "name": "newOwner",
          "type": "address"
        }
      ],
      "name": "transferOwnership",
      "outputs": [],
      "stateMutability": "nonpayable",
      "type": "function"
    },
    {
      "inputs": [],
      "name": "weth10",
      "outputs": [
        {
          "internalType": "contract IWETH10",
          "name": "",
          "type": "address"
        }
      ],
      "stateMutability": "view",
      "type": "function"
    }
  ],
  "bytecode": "0x608060405260018060146101000a81548160ff0219169083151502179055503480156200002b57600080fd5b5060405162001d2a38038062001d2a833981810160405281019062000051919062000343565b336000806101000a81548173ffffffffffffffffffffffffffffffffffffffff021916908373ffffffffffffffffffffffffffffffffffffffff1602179055503373ffffffffffffffffffffffffffffffffffffffff16600073ffffffffffffffffffffffffffffffffffffffff167f8be0079c531659141344cd1fd0a4f28419497f9722a3daafe3b4186f6b6457e060405160405180910390a380600260006101000a81548173ffffffffffffffffffffffffffffffffffffffff021916908373ffffffffffffffffffffffffffffffffffffffff16021790555060008173ffffffffffffffffffffffffffffffffffffffff166379502c556040518163ffffffff1660e01b81526004016080604051808303816000875af11580156200017d573d6000803e3d6000fd5b505050506040513d601f19601f82011682018060405250810190620001a39190620003b2565b505091505080600160006101000a81548173ffffffffffffffffffffffffffffffffffffffff021916908373ffffffffffffffffffffffffffffffffffffffff160217905550600160009054906101000a900473ffffffffffffffffffffffffffffffffffffffff1673ffffffffffffffffffffffffffffffffffffffff1663095ea7b3600260009054906101000a900473ffffffffffffffffffffffffffffffffffffffff167fffffffffffffffffffffffffffffffffffffffffffffffffffffffffffffffff6040518363ffffffff1660e01b81526004016200028a92919062000450565b6020604051808303816000875af1158015620002aa573d6000803e3d6000fd5b505050506040513d601f19601f82011682018060405250810190620002d091906200047d565b505050620004af565b600080fd5b600073ffffffffffffffffffffffffffffffffffffffff82169050919050565b60006200030b82620002de565b9050919050565b6200031d81620002fe565b81146200032957600080fd5b50565b6000815190506200033d8162000312565b92915050565b6000602082840312156200035c576200035b620002d9565b5b60006200036c848285016200032c565b91505092915050565b60008115159050919050565b6200038c8162000375565b81146200039857600080fd5b50565b600081519050620003ac8162000381565b92915050565b60008060008060808587031215620003cf57620003ce620002d9565b5b6000620003df878288016200032c565b9450506020620003f2878288016200032c565b935050604062000405878288016200032c565b925050606062000418878288016200039b565b91505092959194509250565b6200042f81620002fe565b82525050565b6000819050919050565b6200044a8162000435565b82525050565b600060408201905062000467600083018562000424565b6200047660208301846200043f565b9392505050565b600060208284031215620004965762000495620002d9565b5b6000620004a6848285016200039b565b91505092915050565b61186b80620004bf6000396000f3fe60806040526004361061009c5760003560e01c80638da5cb5b116100645780638da5cb5b14610188578063a0712d68146101b3578063b47e740f146101e3578063c55dae6314610220578063db006a751461024b578063f2fde38b146102885761009c565b80630adcdbaa146100a15780632b2cdf00146100cc578063700bc71f146100f757806370a0823114610134578063715018a614610171575b600080fd5b3480156100ad57600080fd5b506100b66102b1565b6040516100c39190611212565b60405180910390f35b3480156100d857600080fd5b506100e1610349565b6040516100ee91906112ac565b60405180910390f35b34801561010357600080fd5b5061011e600480360381019061011991906112f8565b61036f565b60405161012b9190611212565b60405180910390f35b34801561014057600080fd5b5061015b60048036038101906101569190611363565b61044c565b6040516101689190611212565b60405180910390f35b34801561017d57600080fd5b506101866104f1565b005b34801561019457600080fd5b5061019d61063d565b6040516101aa919061139f565b60405180910390f35b6101cd60048036038101906101c891906112f8565b610666565b6040516101da9190611212565b60405180910390f35b3480156101ef57600080fd5b5061020a600480360381019061020591906112f8565b610a61565b6040516102179190611212565b60405180910390f35b34801561022c57600080fd5b50610235610c78565b604051610242919061139f565b60405180910390f35b34801561025757600080fd5b50610272600480360381019061026d91906112f8565b610c9e565b60405161027f9190611212565b60405180910390f35b34801561029457600080fd5b506102af60048036038101906102aa9190611363565b61103f565b005b6000600260009054906101000a900473ffffffffffffffffffffffffffffffffffffffff1673ffffffffffffffffffffffffffffffffffffffff16630adcdbaa6040518163ffffffff1660e01b8152600401602060405180830381865afa158015610320573d6000803e3d6000fd5b505050506040513d601f19601f8201168201806040525081019061034491906113cf565b905090565b600160009054906101000a900473ffffffffffffffffffffffffffffffffffffffff1681565b600080600260009054906101000a900473ffffffffffffffffffffffffffffffffffffffff1673ffffffffffffffffffffffffffffffffffffffff16630adcdbaa6040518163ffffffff1660e01b8152600401602060405180830381865afa1580156103df573d6000803e3d6000fd5b505050506040513d601f19601f8201168201806040525081019061040391906113cf565b9050600081670de0b6b3a76400008561041c919061142b565b61042691906114b4565b90506103e86103e782610439919061142b565b61044391906114b4565b92505050919050565b6000600260009054906101000a900473ffffffffffffffffffffffffffffffffffffffff1673ffffffffffffffffffffffffffffffffffffffff166370a08231836040518263ffffffff1660e01b81526004016104a9919061139f565b602060405180830381865afa1580156104c6573d6000803e3d6000fd5b505050506040513d601f19601f820116820180604052508101906104ea91906113cf565b9050919050565b3373ffffffffffffffffffffffffffffffffffffffff1660008054906101000a900473ffffffffffffffffffffffffffffffffffffffff1673ffffffffffffffffffffffffffffffffffffffff161461057f576040517f08c379a000000000000000000000000000000000000000000000000000000000815260040161057690611542565b60405180910390fd5b600073ffffffffffffffffffffffffffffffffffffffff1660008054906101000a900473ffffffffffffffffffffffffffffffffffffffff1673ffffffffffffffffffffffffffffffffffffffff167f8be0079c531659141344cd1fd0a4f28419497f9722a3daafe3b4186f6b6457e060405160405180910390a360008060006101000a81548173ffffffffffffffffffffffffffffffffffffffff021916908373ffffffffffffffffffffffffffffffffffffffff160217905550565b60008060009054906101000a900473ffffffffffffffffffffffffffffffffffffffff16905090565b6000600160149054906101000a900460ff166106b7576040517f08c379a00000000000000000000000000000000000000000000000000000000081526004016106ae906115d4565b60405180910390fd5b6000600160146101000a81548160ff02191690831515021790555081341480156106e15750600082115b610720576040517f08c379a000000000000000000000000000000000000000000000000000000000815260040161071790611640565b60405180910390fd5b600160009054906101000a900473ffffffffffffffffffffffffffffffffffffffff1673ffffffffffffffffffffffffffffffffffffffff1663d0e30db0346040518263ffffffff1660e01b81526004016000604051808303818588803b15801561078a57600080fd5b505af115801561079e573d6000803e3d6000fd5b50505050506000600160009054906101000a900473ffffffffffffffffffffffffffffffffffffffff1673ffffffffffffffffffffffffffffffffffffffff166370a08231306040518263ffffffff1660e01b8152600401610800919061139f565b602060405180830381865afa15801561081d573d6000803e3d6000fd5b505050506040513d601f19601f8201168201806040525081019061084191906113cf565b9050600260009054906101000a900473ffffffffffffffffffffffffffffffffffffffff1673ffffffffffffffffffffffffffffffffffffffff1663a0712d68826040518263ffffffff1660e01b815260040161089e9190611212565b6020604051808303816000875af11580156108bd573d6000803e3d6000fd5b505050506040513d601f19601f820116820180604052508101906108e191906113cf565b506000600260009054906101000a900473ffffffffffffffffffffffffffffffffffffffff1673ffffffffffffffffffffffffffffffffffffffff166370a08231306040518263ffffffff1660e01b815260040161093f919061139f565b602060405180830381865afa15801561095c573d6000803e3d6000fd5b505050506040513d601f19601f8201168201806040525081019061098091906113cf565b9050600260009054906101000a900473ffffffffffffffffffffffffffffffffffffffff1673ffffffffffffffffffffffffffffffffffffffff1663a9059cbb33836040518363ffffffff1660e01b81526004016109df929190611660565b6020604051808303816000875af11580156109fe573d6000803e3d6000fd5b505050506040513d601f19601f82011682018060405250810190610a2291906116c1565b506103e86103e782610a34919061142b565b610a3e91906114b4565b9250505060018060146101000a81548160ff021916908315150217905550919050565b6000806103e8600184610a74919061142b565b610a7e91906114b4565b600260009054906101000a900473ffffffffffffffffffffffffffffffffffffffff1673ffffffffffffffffffffffffffffffffffffffff166318160ddd6040518163ffffffff1660e01b8152600401602060405180830381865afa158015610aeb573d6000803e3d6000fd5b505050506040513d601f19601f82011682018060405250810190610b0f91906113cf565b610b1991906116ee565b90506000600160009054906101000a900473ffffffffffffffffffffffffffffffffffffffff1673ffffffffffffffffffffffffffffffffffffffff166370a08231600260009054906101000a900473ffffffffffffffffffffffffffffffffffffffff166040518263ffffffff1660e01b8152600401610b9a919061139f565b602060405180830381865afa158015610bb7573d6000803e3d6000fd5b505050506040513d601f19601f82011682018060405250810190610bdb91906113cf565b9050600082670de0b6b3a764000083610bf4919061142b565b610bfe91906114b4565b905060006103e86103e787610c13919061142b565b610c1d91906114b4565b905060006064600283610c30919061142b565b610c3a91906114b4565b905060008183610c4a91906116ee565b9050670de0b6b3a76400008482610c61919061142b565b610c6b91906114b4565b9650505050505050919050565b600260009054906101000a900473ffffffffffffffffffffffffffffffffffffffff1681565b6000600160149054906101000a900460ff16610cef576040517f08c379a0000000000000000000000000000000000000000000000000000000008152600401610ce6906115d4565b60405180910390fd5b6000600160146101000a81548160ff021916908315150217905550600260009054906101000a900473ffffffffffffffffffffffffffffffffffffffff1673ffffffffffffffffffffffffffffffffffffffff166323b872dd3330856040518463ffffffff1660e01b8152600401610d6993929190611722565b6020604051808303816000875af1158015610d88573d6000803e3d6000fd5b505050506040513d601f19601f82011682018060405250810190610dac91906116c1565b506000600260009054906101000a900473ffffffffffffffffffffffffffffffffffffffff1673ffffffffffffffffffffffffffffffffffffffff166370a08231306040518263ffffffff1660e01b8152600401610e0a919061139f565b602060405180830381865afa158015610e27573d6000803e3d6000fd5b505050506040513d601f19601f82011682018060405250810190610e4b91906113cf565b9050600260009054906101000a900473ffffffffffffffffffffffffffffffffffffffff1673ffffffffffffffffffffffffffffffffffffffff1663db006a75826040518263ffffffff1660e01b8152600401610ea89190611212565b6020604051808303816000875af1158015610ec7573d6000803e3d6000fd5b505050506040513d601f19601f82011682018060405250810190610eeb91906113cf565b506000600160009054906101000a900473ffffffffffffffffffffffffffffffffffffffff1673ffffffffffffffffffffffffffffffffffffffff166370a08231306040518263ffffffff1660e01b8152600401610f49919061139f565b602060405180830381865afa158015610f66573d6000803e3d6000fd5b505050506040513d601f19601f82011682018060405250810190610f8a91906113cf565b9050600160009054906101000a900473ffffffffffffffffffffffffffffffffffffffff1673ffffffffffffffffffffffffffffffffffffffff1663205c287833836040518363ffffffff1660e01b8152600401610fe992919061177a565b600060405180830381600087803b15801561100357600080fd5b505af1158015611017573d6000803e3d6000fd5b50505050809250505060018060146101000a81548160ff021916908315150217905550919050565b3373ffffffffffffffffffffffffffffffffffffffff1660008054906101000a900473ffffffffffffffffffffffffffffffffffffffff1673ffffffffffffffffffffffffffffffffffffffff16146110cd576040517f08c379a00000000000000000000000000000000000000000000000000000000081526004016110c490611542565b60405180910390fd5b600073ffffffffffffffffffffffffffffffffffffffff168173ffffffffffffffffffffffffffffffffffffffff160361113c576040517f08c379a000000000000000000000000000000000000000000000000000000000815260040161113390611815565b60405180910390fd5b8073ffffffffffffffffffffffffffffffffffffffff1660008054906101000a900473ffffffffffffffffffffffffffffffffffffffff1673ffffffffffffffffffffffffffffffffffffffff167f8be0079c531659141344cd1fd0a4f28419497f9722a3daafe3b4186f6b6457e060405160405180910390a3806000806101000a81548173ffffffffffffffffffffffffffffffffffffffff021916908373ffffffffffffffffffffffffffffffffffffffff16021790555050565b6000819050919050565b61120c816111f9565b82525050565b60006020820190506112276000830184611203565b92915050565b600073ffffffffffffffffffffffffffffffffffffffff82169050919050565b6000819050919050565b600061127261126d6112688461122d565b61124d565b61122d565b9050919050565b600061128482611257565b9050919050565b600061129682611279565b9050919050565b6112a68161128b565b82525050565b60006020820190506112c1600083018461129d565b92915050565b600080fd5b6112d5816111f9565b81146112e057600080fd5b50565b6000813590506112f2816112cc565b92915050565b60006020828403121561130e5761130d6112c7565b5b600061131c848285016112e3565b91505092915050565b60006113308261122d565b9050919050565b61134081611325565b811461134b57600080fd5b50565b60008135905061135d81611337565b92915050565b600060208284031215611379576113786112c7565b5b60006113878482850161134e565b91505092915050565b61139981611325565b82525050565b60006020820190506113b46000830184611390565b92915050565b6000815190506113c9816112cc565b92915050565b6000602082840312156113e5576113e46112c7565b5b60006113f3848285016113ba565b91505092915050565b7f4e487b7100000000000000000000000000000000000000000000000000000000600052601160045260246000fd5b6000611436826111f9565b9150611441836111f9565b9250817fffffffffffffffffffffffffffffffffffffffffffffffffffffffffffffffff048311821515161561147a576114796113fc565b5b828202905092915050565b7f4e487b7100000000000000000000000000000000000000000000000000000000600052601260045260246000fd5b60006114bf826111f9565b91506114ca836111f9565b9250826114da576114d9611485565b5b828204905092915050565b600082825260208201905092915050565b7f4f776e61626c653a2063616c6c6572206973206e6f7420746865206f776e6572600082015250565b600061152c6020836114e5565b9150611537826114f6565b602082019050919050565b6000602082019050818103600083015261155b8161151f565b9050919050565b7f5079726f50726f78793a207265656e7472616e6379206775617264206163746960008201527f7665000000000000000000000000000000000000000000000000000000000000602082015250565b60006115be6022836114e5565b91506115c982611562565b604082019050919050565b600060208201905081810360008301526115ed816115b1565b9050919050565b7f5079726f5765746850726f78793a20616d6f756e7420696e76617269616e7400600082015250565b600061162a601f836114e5565b9150611635826115f4565b602082019050919050565b600060208201905081810360008301526116598161161d565b9050919050565b60006040820190506116756000830185611390565b6116826020830184611203565b9392505050565b60008115159050919050565b61169e81611689565b81146116a957600080fd5b50565b6000815190506116bb81611695565b92915050565b6000602082840312156116d7576116d66112c7565b5b60006116e5848285016116ac565b91505092915050565b60006116f9826111f9565b9150611704836111f9565b925082821015611717576117166113fc565b5b828203905092915050565b60006060820190506117376000830186611390565b6117446020830185611390565b6117516040830184611203565b949350505050565b60006117648261122d565b9050919050565b61177481611759565b82525050565b600060408201905061178f600083018561176b565b61179c6020830184611203565b9392505050565b7f4f776e61626c653a206e6577206f776e657220697320746865207a65726f206160008201527f6464726573730000000000000000000000000000000000000000000000000000602082015250565b60006117ff6026836114e5565b915061180a826117a3565b604082019050919050565b6000602082019050818103600083015261182e816117f2565b905091905056fea2646970667358221220352e6d942bc0152d7491eb70453b0779b5f17e72b81cb9267bb4eb983efd424164736f6c634300080d0033",
  "linkReferences": {},
  "deployedLinkReferences": {}
}