{
  "_format": "hh-sol-artifact-1",
  "contractName": "WETH10",
  "sourceName": "contracts/periphery/BehodlerLite/PyroWethProxy.sol",
  "abi": [
    {
      "anonymous": false,
      "inputs": [
        {
          "indexed": true,
          "internalType": "address",
          "name": "owner",
          "type": "address"
        },
        {
          "indexed": true,
          "internalType": "address",
          "name": "spender",
          "type": "address"
        },
        {
          "indexed": false,
          "internalType": "uint256",
          "name": "value",
          "type": "uint256"
        }
      ],
      "name": "Approval",
      "type": "event"
    },
    {
      "anonymous": false,
      "inputs": [
        {
          "indexed": true,
          "internalType": "address",
          "name": "from",
          "type": "address"
        },
        {
          "indexed": true,
          "internalType": "address",
          "name": "to",
          "type": "address"
        },
        {
          "indexed": false,
          "internalType": "uint256",
          "name": "value",
          "type": "uint256"
        }
      ],
      "name": "Transfer",
      "type": "event"
    },
    {
      "inputs": [],
      "name": "CALLBACK_SUCCESS",
      "outputs": [
        {
          "internalType": "bytes32",
          "name": "",
          "type": "bytes32"
        }
      ],
      "stateMutability": "view",
      "type": "function"
    },
    {
      "inputs": [],
      "name": "PERMIT_TYPEHASH",
      "outputs": [
        {
          "internalType": "bytes32",
          "name": "",
          "type": "bytes32"
        }
      ],
      "stateMutability": "view",
      "type": "function"
    },
    {
      "inputs": [
        {
          "internalType": "address",
          "name": "",
          "type": "address"
        },
        {
          "internalType": "address",
          "name": "",
          "type": "address"
        }
      ],
      "name": "allowance",
      "outputs": [
        {
          "internalType": "uint256",
          "name": "",
          "type": "uint256"
        }
      ],
      "stateMutability": "view",
      "type": "function"
    },
    {
      "inputs": [
        {
          "internalType": "address",
          "name": "spender",
          "type": "address"
        },
        {
          "internalType": "uint256",
          "name": "value",
          "type": "uint256"
        }
      ],
      "name": "approve",
      "outputs": [
        {
          "internalType": "bool",
          "name": "",
          "type": "bool"
        }
      ],
      "stateMutability": "nonpayable",
      "type": "function"
    },
    {
      "inputs": [
        {
          "internalType": "address",
          "name": "spender",
          "type": "address"
        },
        {
          "internalType": "uint256",
          "name": "value",
          "type": "uint256"
        },
        {
          "internalType": "bytes",
          "name": "data",
          "type": "bytes"
        }
      ],
      "name": "approveAndCall",
      "outputs": [
        {
          "internalType": "bool",
          "name": "",
          "type": "bool"
        }
      ],
      "stateMutability": "nonpayable",
      "type": "function"
    },
    {
      "inputs": [
        {
          "internalType": "address",
          "name": "",
          "type": "address"
        }
      ],
      "name": "balanceOf",
      "outputs": [
        {
          "internalType": "uint256",
          "name": "",
          "type": "uint256"
        }
      ],
      "stateMutability": "view",
      "type": "function"
    },
    {
      "inputs": [],
      "name": "decimals",
      "outputs": [
        {
          "internalType": "uint8",
          "name": "",
          "type": "uint8"
        }
      ],
      "stateMutability": "view",
      "type": "function"
    },
    {
      "inputs": [],
      "name": "deposit",
      "outputs": [],
      "stateMutability": "payable",
      "type": "function"
    },
    {
      "inputs": [
        {
          "internalType": "address",
          "name": "to",
          "type": "address"
        }
      ],
      "name": "depositTo",
      "outputs": [],
      "stateMutability": "payable",
      "type": "function"
    },
    {
      "inputs": [
        {
          "internalType": "address",
          "name": "to",
          "type": "address"
        },
        {
          "internalType": "bytes",
          "name": "data",
          "type": "bytes"
        }
      ],
      "name": "depositToAndCall",
      "outputs": [
        {
          "internalType": "bool",
          "name": "success",
          "type": "bool"
        }
      ],
      "stateMutability": "payable",
      "type": "function"
    },
    {
      "inputs": [
        {
          "internalType": "address",
          "name": "token",
          "type": "address"
        },
        {
          "internalType": "uint256",
          "name": "",
          "type": "uint256"
        }
      ],
      "name": "flashFee",
      "outputs": [
        {
          "internalType": "uint256",
          "name": "",
          "type": "uint256"
        }
      ],
      "stateMutability": "view",
      "type": "function"
    },
    {
      "inputs": [
        {
          "internalType": "contract IERC3156FlashBorrower",
          "name": "receiver",
          "type": "address"
        },
        {
          "internalType": "address",
          "name": "token",
          "type": "address"
        },
        {
          "internalType": "uint256",
          "name": "value",
          "type": "uint256"
        },
        {
          "internalType": "bytes",
          "name": "data",
          "type": "bytes"
        }
      ],
      "name": "flashLoan",
      "outputs": [
        {
          "internalType": "bool",
          "name": "",
          "type": "bool"
        }
      ],
      "stateMutability": "nonpayable",
      "type": "function"
    },
    {
      "inputs": [],
      "name": "flashMinted",
      "outputs": [
        {
          "internalType": "uint256",
          "name": "",
          "type": "uint256"
        }
      ],
      "stateMutability": "view",
      "type": "function"
    },
    {
      "inputs": [
        {
          "internalType": "address",
          "name": "token",
          "type": "address"
        }
      ],
      "name": "maxFlashLoan",
      "outputs": [
        {
          "internalType": "uint256",
          "name": "",
          "type": "uint256"
        }
      ],
      "stateMutability": "view",
      "type": "function"
    },
    {
      "inputs": [],
      "name": "name",
      "outputs": [
        {
          "internalType": "string",
          "name": "",
          "type": "string"
        }
      ],
      "stateMutability": "view",
      "type": "function"
    },
    {
      "inputs": [
        {
          "internalType": "address",
          "name": "",
          "type": "address"
        }
      ],
      "name": "nonces",
      "outputs": [
        {
          "internalType": "uint256",
          "name": "",
          "type": "uint256"
        }
      ],
      "stateMutability": "view",
      "type": "function"
    },
    {
      "inputs": [
        {
          "internalType": "address",
          "name": "owner",
          "type": "address"
        },
        {
          "internalType": "address",
          "name": "spender",
          "type": "address"
        },
        {
          "internalType": "uint256",
          "name": "value",
          "type": "uint256"
        },
        {
          "internalType": "uint256",
          "name": "deadline",
          "type": "uint256"
        },
        {
          "internalType": "uint8",
          "name": "v",
          "type": "uint8"
        },
        {
          "internalType": "bytes32",
          "name": "r",
          "type": "bytes32"
        },
        {
          "internalType": "bytes32",
          "name": "s",
          "type": "bytes32"
        }
      ],
      "name": "permit",
      "outputs": [],
      "stateMutability": "nonpayable",
      "type": "function"
    },
    {
      "inputs": [],
      "name": "symbol",
      "outputs": [
        {
          "internalType": "string",
          "name": "",
          "type": "string"
        }
      ],
      "stateMutability": "view",
      "type": "function"
    },
    {
      "inputs": [],
      "name": "totalSupply",
      "outputs": [
        {
          "internalType": "uint256",
          "name": "",
          "type": "uint256"
        }
      ],
      "stateMutability": "view",
      "type": "function"
    },
    {
      "inputs": [
        {
          "internalType": "address",
          "name": "to",
          "type": "address"
        },
        {
          "internalType": "uint256",
          "name": "value",
          "type": "uint256"
        }
      ],
      "name": "transfer",
      "outputs": [
        {
          "internalType": "bool",
          "name": "",
          "type": "bool"
        }
      ],
      "stateMutability": "nonpayable",
      "type": "function"
    },
    {
      "inputs": [
        {
          "internalType": "address",
          "name": "to",
          "type": "address"
        },
        {
          "internalType": "uint256",
          "name": "value",
          "type": "uint256"
        },
        {
          "internalType": "bytes",
          "name": "data",
          "type": "bytes"
        }
      ],
      "name": "transferAndCall",
      "outputs": [
        {
          "internalType": "bool",
          "name": "",
          "type": "bool"
        }
      ],
      "stateMutability": "nonpayable",
      "type": "function"
    },
    {
      "inputs": [
        {
          "internalType": "address",
          "name": "from",
          "type": "address"
        },
        {
          "internalType": "address",
          "name": "to",
          "type": "address"
        },
        {
          "internalType": "uint256",
          "name": "value",
          "type": "uint256"
        }
      ],
      "name": "transferFrom",
      "outputs": [
        {
          "internalType": "bool",
          "name": "",
          "type": "bool"
        }
      ],
      "stateMutability": "nonpayable",
      "type": "function"
    },
    {
      "inputs": [
        {
          "internalType": "uint256",
          "name": "value",
          "type": "uint256"
        }
      ],
      "name": "withdraw",
      "outputs": [],
      "stateMutability": "nonpayable",
      "type": "function"
    },
    {
      "inputs": [
        {
          "internalType": "address",
          "name": "from",
          "type": "address"
        },
        {
          "internalType": "address payable",
          "name": "to",
          "type": "address"
        },
        {
          "internalType": "uint256",
          "name": "value",
          "type": "uint256"
        }
      ],
      "name": "withdrawFrom",
      "outputs": [],
      "stateMutability": "nonpayable",
      "type": "function"
    },
    {
      "inputs": [
        {
          "internalType": "address payable",
          "name": "to",
          "type": "address"
        },
        {
          "internalType": "uint256",
          "name": "value",
          "type": "uint256"
        }
      ],
      "name": "withdrawTo",
      "outputs": [],
      "stateMutability": "nonpayable",
      "type": "function"
    },
    {
      "stateMutability": "payable",
      "type": "receive"
    }
  ],
  "bytecode": "0x60c06040527f439148f0bbc682ca079e46d6e2c2f0c1e3b820f1a291b069d8882abf8cf18dd96080908152507f6e71edae12b1b97f4d1f60370fef10105fa2faae0126114a169c64845d6126c960a09081525034801561005e57600080fd5b5060805160a051613ee9610092600039600081816111e60152612a5d0152600081816118340152611e360152613ee96000f3fe60806040526004361061016a5760003560e01c806370a08231116100d1578063a9059cbb1161008a578063d0e30db011610064578063d0e30db01461064a578063d505accf14610654578063d9d98ce41461067d578063dd62ed3e146106ba5761022c565b8063a9059cbb146105b4578063b760faf9146105f1578063cae9ca511461060d5761022c565b806370a08231146104905780637ecebe00146104cd5780638237e5381461050a5780638b28d32f146105355780639555a9421461056057806395d89b41146105895761022c565b806330adf81f1161012357806330adf81f14610353578063313ce5671461037e5780634000aea0146103a95780635cffe9de146103e65780635ddb7d7e14610423578063613255ab146104535761022c565b806306fdde0314610231578063095ea7b31461025c57806318160ddd14610299578063205c2878146102c457806323b872dd146102ed5780632e1a7d4d1461032a5761022c565b3661022c57346000803373ffffffffffffffffffffffffffffffffffffffff1673ffffffffffffffffffffffffffffffffffffffff16815260200190815260200160002060008282546101bd9190612df4565b925050819055503373ffffffffffffffffffffffffffffffffffffffff16600073ffffffffffffffffffffffffffffffffffffffff167fddf252ad1be2c89b69c2b068fc378daa952ba7f163c4a11628f55a4df523b3ef346040516102229190612e59565b60405180910390a3005b600080fd5b34801561023d57600080fd5b506102466106f7565b6040516102539190612f0d565b60405180910390f35b34801561026857600080fd5b50610283600480360381019061027e9190612fc3565b610730565b604051610290919061301e565b60405180910390f35b3480156102a557600080fd5b506102ae610822565b6040516102bb9190612e59565b60405180910390f35b3480156102d057600080fd5b506102eb60048036038101906102e69190613077565b610837565b005b3480156102f957600080fd5b50610314600480360381019061030f91906130b7565b610a23565b604051610321919061301e565b60405180910390f35b34801561033657600080fd5b50610351600480360381019061034c919061310a565b610ff9565b005b34801561035f57600080fd5b506103686111e4565b6040516103759190613150565b60405180910390f35b34801561038a57600080fd5b50610393611208565b6040516103a09190613187565b60405180910390f35b3480156103b557600080fd5b506103d060048036038101906103cb9190613207565b61120d565b6040516103dd919061301e565b60405180910390f35b3480156103f257600080fd5b5061040d600480360381019061040891906132b9565b61164b565b60405161041a919061301e565b60405180910390f35b61043d60048036038101906104389190613341565b611c5a565b60405161044a919061301e565b60405180910390f35b34801561045f57600080fd5b5061047a600480360381019061047591906133a1565b611da2565b6040516104879190612e59565b60405180910390f35b34801561049c57600080fd5b506104b760048036038101906104b291906133a1565b611e04565b6040516104c49190612e59565b60405180910390f35b3480156104d957600080fd5b506104f460048036038101906104ef91906133a1565b611e1c565b6040516105019190612e59565b60405180910390f35b34801561051657600080fd5b5061051f611e34565b60405161052c9190613150565b60405180910390f35b34801561054157600080fd5b5061054a611e58565b6040516105579190612e59565b60405180910390f35b34801561056c57600080fd5b50610587600480360381019061058291906133ce565b611e5e565b005b34801561059557600080fd5b5061059e612263565b6040516105ab9190612f0d565b60405180910390f35b3480156105c057600080fd5b506105db60048036038101906105d69190612fc3565b61229c565b6040516105e8919061301e565b60405180910390f35b61060b600480360381019061060691906133a1565b612658565b005b34801561061957600080fd5b50610634600480360381019061062f9190613207565b612716565b604051610641919061301e565b60405180910390f35b610652612889565b005b34801561066057600080fd5b5061067b60048036038101906106769190613479565b612946565b005b34801561068957600080fd5b506106a4600480360381019061069f9190612fc3565b612d1c565b6040516106b19190612e59565b60405180910390f35b3480156106c657600080fd5b506106e160048036038101906106dc919061351b565b612d96565b6040516106ee9190612e59565b60405180910390f35b6040518060400160405280600681526020017f574554483130000000000000000000000000000000000000000000000000000081525081565b600081600260003373ffffffffffffffffffffffffffffffffffffffff1673ffffffffffffffffffffffffffffffffffffffff16815260200190815260200160002060008573ffffffffffffffffffffffffffffffffffffffff1673ffffffffffffffffffffffffffffffffffffffff168152602001908152602001600020819055508273ffffffffffffffffffffffffffffffffffffffff163373ffffffffffffffffffffffffffffffffffffffff167f8c5be1e5ebec7d5bd14f71427d1e84f3dd0314c0f7b2291e5b200ac8c7c3b925846040516108109190612e59565b60405180910390a36001905092915050565b6000600354476108329190612df4565b905090565b60008060003373ffffffffffffffffffffffffffffffffffffffff1673ffffffffffffffffffffffffffffffffffffffff168152602001908152602001600020549050818110156108bd576040517f08c379a00000000000000000000000000000000000000000000000000000000081526004016108b4906135cd565b60405180910390fd5b81816108c991906135ed565b6000803373ffffffffffffffffffffffffffffffffffffffff1673ffffffffffffffffffffffffffffffffffffffff16815260200190815260200160002081905550600073ffffffffffffffffffffffffffffffffffffffff163373ffffffffffffffffffffffffffffffffffffffff167fddf252ad1be2c89b69c2b068fc378daa952ba7f163c4a11628f55a4df523b3ef846040516109699190612e59565b60405180910390a360008373ffffffffffffffffffffffffffffffffffffffff168360405161099790613652565b60006040518083038185875af1925050503d80600081146109d4576040519150601f19603f3d011682016040523d82523d6000602084013e6109d9565b606091505b5050905080610a1d576040517f08c379a0000000000000000000000000000000000000000000000000000000008152600401610a14906136b3565b60405180910390fd5b50505050565b60003373ffffffffffffffffffffffffffffffffffffffff168473ffffffffffffffffffffffffffffffffffffffff1614610c3d576000600260008673ffffffffffffffffffffffffffffffffffffffff1673ffffffffffffffffffffffffffffffffffffffff16815260200190815260200160002060003373ffffffffffffffffffffffffffffffffffffffff1673ffffffffffffffffffffffffffffffffffffffff1681526020019081526020016000205490507fffffffffffffffffffffffffffffffffffffffffffffffffffffffffffffffff8114610c3b5782811015610b43576040517f08c379a0000000000000000000000000000000000000000000000000000000008152600401610b3a9061371f565b60405180910390fd5b60008382610b5191906135ed565b905080600260008873ffffffffffffffffffffffffffffffffffffffff1673ffffffffffffffffffffffffffffffffffffffff16815260200190815260200160002060003373ffffffffffffffffffffffffffffffffffffffff1673ffffffffffffffffffffffffffffffffffffffff168152602001908152602001600020819055503373ffffffffffffffffffffffffffffffffffffffff168673ffffffffffffffffffffffffffffffffffffffff167f8c5be1e5ebec7d5bd14f71427d1e84f3dd0314c0f7b2291e5b200ac8c7c3b92583604051610c319190612e59565b60405180910390a3505b505b600073ffffffffffffffffffffffffffffffffffffffff168373ffffffffffffffffffffffffffffffffffffffff1614610e055760008060008673ffffffffffffffffffffffffffffffffffffffff1673ffffffffffffffffffffffffffffffffffffffff16815260200190815260200160002054905082811015610cf7576040517f08c379a0000000000000000000000000000000000000000000000000000000008152600401610cee906137b1565b60405180910390fd5b8281610d0391906135ed565b6000808773ffffffffffffffffffffffffffffffffffffffff1673ffffffffffffffffffffffffffffffffffffffff16815260200190815260200160002081905550826000808673ffffffffffffffffffffffffffffffffffffffff1673ffffffffffffffffffffffffffffffffffffffff1681526020019081526020016000206000828254610d939190612df4565b925050819055508373ffffffffffffffffffffffffffffffffffffffff168573ffffffffffffffffffffffffffffffffffffffff167fddf252ad1be2c89b69c2b068fc378daa952ba7f163c4a11628f55a4df523b3ef85604051610df79190612e59565b60405180910390a350610fee565b60008060008673ffffffffffffffffffffffffffffffffffffffff1673ffffffffffffffffffffffffffffffffffffffff16815260200190815260200160002054905082811015610e8b576040517f08c379a0000000000000000000000000000000000000000000000000000000008152600401610e82906135cd565b60405180910390fd5b8281610e9791906135ed565b6000808773ffffffffffffffffffffffffffffffffffffffff1673ffffffffffffffffffffffffffffffffffffffff16815260200190815260200160002081905550600073ffffffffffffffffffffffffffffffffffffffff168573ffffffffffffffffffffffffffffffffffffffff167fddf252ad1be2c89b69c2b068fc378daa952ba7f163c4a11628f55a4df523b3ef85604051610f379190612e59565b60405180910390a360003373ffffffffffffffffffffffffffffffffffffffff1684604051610f6590613652565b60006040518083038185875af1925050503d8060008114610fa2576040519150601f19603f3d011682016040523d82523d6000602084013e610fa7565b606091505b5050905080610feb576040517f08c379a0000000000000000000000000000000000000000000000000000000008152600401610fe2906136b3565b60405180910390fd5b50505b600190509392505050565b60008060003373ffffffffffffffffffffffffffffffffffffffff1673ffffffffffffffffffffffffffffffffffffffff1681526020019081526020016000205490508181101561107f576040517f08c379a0000000000000000000000000000000000000000000000000000000008152600401611076906135cd565b60405180910390fd5b818161108b91906135ed565b6000803373ffffffffffffffffffffffffffffffffffffffff1673ffffffffffffffffffffffffffffffffffffffff16815260200190815260200160002081905550600073ffffffffffffffffffffffffffffffffffffffff163373ffffffffffffffffffffffffffffffffffffffff167fddf252ad1be2c89b69c2b068fc378daa952ba7f163c4a11628f55a4df523b3ef8460405161112b9190612e59565b60405180910390a360003373ffffffffffffffffffffffffffffffffffffffff168360405161115990613652565b60006040518083038185875af1925050503d8060008114611196576040519150601f19603f3d011682016040523d82523d6000602084013e61119b565b606091505b50509050806111df576040517f08c379a00000000000000000000000000000000000000000000000000000000081526004016111d6906136b3565b60405180910390fd5b505050565b7f000000000000000000000000000000000000000000000000000000000000000081565b601281565b60008073ffffffffffffffffffffffffffffffffffffffff168573ffffffffffffffffffffffffffffffffffffffff16146113d65760008060003373ffffffffffffffffffffffffffffffffffffffff1673ffffffffffffffffffffffffffffffffffffffff168152602001908152602001600020549050848110156112c8576040517f08c379a00000000000000000000000000000000000000000000000000000000081526004016112bf906137b1565b60405180910390fd5b84816112d491906135ed565b6000803373ffffffffffffffffffffffffffffffffffffffff1673ffffffffffffffffffffffffffffffffffffffff16815260200190815260200160002081905550846000808873ffffffffffffffffffffffffffffffffffffffff1673ffffffffffffffffffffffffffffffffffffffff16815260200190815260200160002060008282546113649190612df4565b925050819055508573ffffffffffffffffffffffffffffffffffffffff163373ffffffffffffffffffffffffffffffffffffffff167fddf252ad1be2c89b69c2b068fc378daa952ba7f163c4a11628f55a4df523b3ef876040516113c89190612e59565b60405180910390a3506115bf565b60008060003373ffffffffffffffffffffffffffffffffffffffff1673ffffffffffffffffffffffffffffffffffffffff1681526020019081526020016000205490508481101561145c576040517f08c379a0000000000000000000000000000000000000000000000000000000008152600401611453906135cd565b60405180910390fd5b848161146891906135ed565b6000803373ffffffffffffffffffffffffffffffffffffffff1673ffffffffffffffffffffffffffffffffffffffff16815260200190815260200160002081905550600073ffffffffffffffffffffffffffffffffffffffff163373ffffffffffffffffffffffffffffffffffffffff167fddf252ad1be2c89b69c2b068fc378daa952ba7f163c4a11628f55a4df523b3ef876040516115089190612e59565b60405180910390a360003373ffffffffffffffffffffffffffffffffffffffff168660405161153690613652565b60006040518083038185875af1925050503d8060008114611573576040519150601f19603f3d011682016040523d82523d6000602084013e611578565b606091505b50509050806115bc576040517f08c379a00000000000000000000000000000000000000000000000000000000081526004016115b3906136b3565b60405180910390fd5b50505b8473ffffffffffffffffffffffffffffffffffffffff1663a4c0ed36338686866040518563ffffffff1660e01b81526004016115fe949392919061382d565b6020604051808303816000875af115801561161d573d6000803e3d6000fd5b505050506040513d601f19601f820116820180604052508101906116419190613899565b9050949350505050565b60003073ffffffffffffffffffffffffffffffffffffffff168573ffffffffffffffffffffffffffffffffffffffff16146116bb576040517f08c379a00000000000000000000000000000000000000000000000000000000081526004016116b290613912565b60405180910390fd5b6dffffffffffffffffffffffffffff801684111561170e576040517f08c379a0000000000000000000000000000000000000000000000000000000008152600401611705906139a4565b60405180910390fd5b8360035461171c9190612df4565b6003819055506dffffffffffffffffffffffffffff80166003541115611777576040517f08c379a000000000000000000000000000000000000000000000000000000000815260040161176e90613a10565b60405180910390fd5b836000808873ffffffffffffffffffffffffffffffffffffffff1673ffffffffffffffffffffffffffffffffffffffff16815260200190815260200160002060008282546117c59190612df4565b925050819055508573ffffffffffffffffffffffffffffffffffffffff16600073ffffffffffffffffffffffffffffffffffffffff167fddf252ad1be2c89b69c2b068fc378daa952ba7f163c4a11628f55a4df523b3ef8660405161182a9190612e59565b60405180910390a37f00000000000000000000000000000000000000000000000000000000000000008673ffffffffffffffffffffffffffffffffffffffff166323e30c8b333088600089896040518763ffffffff1660e01b815260040161189796959493929190613a75565b6020604051808303816000875af11580156118b6573d6000803e3d6000fd5b505050506040513d601f19601f820116820180604052508101906118da9190613ae6565b1461191a576040517f08c379a000000000000000000000000000000000000000000000000000000000815260040161191190613b5f565b60405180910390fd5b6000600260008873ffffffffffffffffffffffffffffffffffffffff1673ffffffffffffffffffffffffffffffffffffffff16815260200190815260200160002060003073ffffffffffffffffffffffffffffffffffffffff1673ffffffffffffffffffffffffffffffffffffffff1681526020019081526020016000205490507fffffffffffffffffffffffffffffffffffffffffffffffffffffffffffffffff8114611afd5784811015611a05576040517f08c379a00000000000000000000000000000000000000000000000000000000081526004016119fc9061371f565b60405180910390fd5b60008582611a1391906135ed565b905080600260008a73ffffffffffffffffffffffffffffffffffffffff1673ffffffffffffffffffffffffffffffffffffffff16815260200190815260200160002060003073ffffffffffffffffffffffffffffffffffffffff1673ffffffffffffffffffffffffffffffffffffffff168152602001908152602001600020819055503073ffffffffffffffffffffffffffffffffffffffff168873ffffffffffffffffffffffffffffffffffffffff167f8c5be1e5ebec7d5bd14f71427d1e84f3dd0314c0f7b2291e5b200ac8c7c3b92583604051611af39190612e59565b60405180910390a3505b60008060008973ffffffffffffffffffffffffffffffffffffffff1673ffffffffffffffffffffffffffffffffffffffff16815260200190815260200160002054905085811015611b83576040517f08c379a0000000000000000000000000000000000000000000000000000000008152600401611b7a906135cd565b60405180910390fd5b8581611b8f91906135ed565b6000808a73ffffffffffffffffffffffffffffffffffffffff1673ffffffffffffffffffffffffffffffffffffffff16815260200190815260200160002081905550600073ffffffffffffffffffffffffffffffffffffffff168873ffffffffffffffffffffffffffffffffffffffff167fddf252ad1be2c89b69c2b068fc378daa952ba7f163c4a11628f55a4df523b3ef88604051611c2f9190612e59565b60405180910390a385600354611c4591906135ed565b60038190555060019250505095945050505050565b6000346000808673ffffffffffffffffffffffffffffffffffffffff1673ffffffffffffffffffffffffffffffffffffffff1681526020019081526020016000206000828254611caa9190612df4565b925050819055508373ffffffffffffffffffffffffffffffffffffffff16600073ffffffffffffffffffffffffffffffffffffffff167fddf252ad1be2c89b69c2b068fc378daa952ba7f163c4a11628f55a4df523b3ef34604051611d0f9190612e59565b60405180910390a38373ffffffffffffffffffffffffffffffffffffffff1663a4c0ed36333486866040518563ffffffff1660e01b8152600401611d56949392919061382d565b6020604051808303816000875af1158015611d75573d6000803e3d6000fd5b505050506040513d601f19601f82011682018060405250810190611d999190613899565b90509392505050565b60003073ffffffffffffffffffffffffffffffffffffffff168273ffffffffffffffffffffffffffffffffffffffff1614611dde576000611dfd565b6003546dffffffffffffffffffffffffffff8016611dfc91906135ed565b5b9050919050565b60006020528060005260406000206000915090505481565b60016020528060005260406000206000915090505481565b7f000000000000000000000000000000000000000000000000000000000000000081565b60035481565b3373ffffffffffffffffffffffffffffffffffffffff168373ffffffffffffffffffffffffffffffffffffffff1614612076576000600260008573ffffffffffffffffffffffffffffffffffffffff1673ffffffffffffffffffffffffffffffffffffffff16815260200190815260200160002060003373ffffffffffffffffffffffffffffffffffffffff1673ffffffffffffffffffffffffffffffffffffffff1681526020019081526020016000205490507fffffffffffffffffffffffffffffffffffffffffffffffffffffffffffffffff81146120745781811015611f7c576040517f08c379a0000000000000000000000000000000000000000000000000000000008152600401611f739061371f565b60405180910390fd5b60008282611f8a91906135ed565b905080600260008773ffffffffffffffffffffffffffffffffffffffff1673ffffffffffffffffffffffffffffffffffffffff16815260200190815260200160002060003373ffffffffffffffffffffffffffffffffffffffff1673ffffffffffffffffffffffffffffffffffffffff168152602001908152602001600020819055503373ffffffffffffffffffffffffffffffffffffffff168573ffffffffffffffffffffffffffffffffffffffff167f8c5be1e5ebec7d5bd14f71427d1e84f3dd0314c0f7b2291e5b200ac8c7c3b9258360405161206a9190612e59565b60405180910390a3505b505b60008060008573ffffffffffffffffffffffffffffffffffffffff1673ffffffffffffffffffffffffffffffffffffffff168152602001908152602001600020549050818110156120fc576040517f08c379a00000000000000000000000000000000000000000000000000000000081526004016120f3906135cd565b60405180910390fd5b818161210891906135ed565b6000808673ffffffffffffffffffffffffffffffffffffffff1673ffffffffffffffffffffffffffffffffffffffff16815260200190815260200160002081905550600073ffffffffffffffffffffffffffffffffffffffff168473ffffffffffffffffffffffffffffffffffffffff167fddf252ad1be2c89b69c2b068fc378daa952ba7f163c4a11628f55a4df523b3ef846040516121a89190612e59565b60405180910390a360008373ffffffffffffffffffffffffffffffffffffffff16836040516121d690613652565b60006040518083038185875af1925050503d8060008114612213576040519150601f19603f3d011682016040523d82523d6000602084013e612218565b606091505b505090508061225c576040517f08c379a000000000000000000000000000000000000000000000000000000000815260040161225390613bcb565b60405180910390fd5b5050505050565b6040518060400160405280600681526020017f574554483130000000000000000000000000000000000000000000000000000081525081565b60008073ffffffffffffffffffffffffffffffffffffffff168373ffffffffffffffffffffffffffffffffffffffff16146124655760008060003373ffffffffffffffffffffffffffffffffffffffff1673ffffffffffffffffffffffffffffffffffffffff16815260200190815260200160002054905082811015612357576040517f08c379a000000000000000000000000000000000000000000000000000000000815260040161234e906137b1565b60405180910390fd5b828161236391906135ed565b6000803373ffffffffffffffffffffffffffffffffffffffff1673ffffffffffffffffffffffffffffffffffffffff16815260200190815260200160002081905550826000808673ffffffffffffffffffffffffffffffffffffffff1673ffffffffffffffffffffffffffffffffffffffff16815260200190815260200160002060008282546123f39190612df4565b925050819055508373ffffffffffffffffffffffffffffffffffffffff163373ffffffffffffffffffffffffffffffffffffffff167fddf252ad1be2c89b69c2b068fc378daa952ba7f163c4a11628f55a4df523b3ef856040516124579190612e59565b60405180910390a35061264e565b60008060003373ffffffffffffffffffffffffffffffffffffffff1673ffffffffffffffffffffffffffffffffffffffff168152602001908152602001600020549050828110156124eb576040517f08c379a00000000000000000000000000000000000000000000000000000000081526004016124e2906135cd565b60405180910390fd5b82816124f791906135ed565b6000803373ffffffffffffffffffffffffffffffffffffffff1673ffffffffffffffffffffffffffffffffffffffff16815260200190815260200160002081905550600073ffffffffffffffffffffffffffffffffffffffff163373ffffffffffffffffffffffffffffffffffffffff167fddf252ad1be2c89b69c2b068fc378daa952ba7f163c4a11628f55a4df523b3ef856040516125979190612e59565b60405180910390a360003373ffffffffffffffffffffffffffffffffffffffff16846040516125c590613652565b60006040518083038185875af1925050503d8060008114612602576040519150601f19603f3d011682016040523d82523d6000602084013e612607565b606091505b505090508061264b576040517f08c379a0000000000000000000000000000000000000000000000000000000008152600401612642906136b3565b60405180910390fd5b50505b6001905092915050565b346000808373ffffffffffffffffffffffffffffffffffffffff1673ffffffffffffffffffffffffffffffffffffffff16815260200190815260200160002060008282546126a69190612df4565b925050819055508073ffffffffffffffffffffffffffffffffffffffff16600073ffffffffffffffffffffffffffffffffffffffff167fddf252ad1be2c89b69c2b068fc378daa952ba7f163c4a11628f55a4df523b3ef3460405161270b9190612e59565b60405180910390a350565b600083600260003373ffffffffffffffffffffffffffffffffffffffff1673ffffffffffffffffffffffffffffffffffffffff16815260200190815260200160002060008773ffffffffffffffffffffffffffffffffffffffff1673ffffffffffffffffffffffffffffffffffffffff168152602001908152602001600020819055508473ffffffffffffffffffffffffffffffffffffffff163373ffffffffffffffffffffffffffffffffffffffff167f8c5be1e5ebec7d5bd14f71427d1e84f3dd0314c0f7b2291e5b200ac8c7c3b925866040516127f69190612e59565b60405180910390a38473ffffffffffffffffffffffffffffffffffffffff1662ba451f338686866040518563ffffffff1660e01b815260040161283c949392919061382d565b6020604051808303816000875af115801561285b573d6000803e3d6000fd5b505050506040513d601f19601f8201168201806040525081019061287f9190613899565b9050949350505050565b346000803373ffffffffffffffffffffffffffffffffffffffff1673ffffffffffffffffffffffffffffffffffffffff16815260200190815260200160002060008282546128d79190612df4565b925050819055503373ffffffffffffffffffffffffffffffffffffffff16600073ffffffffffffffffffffffffffffffffffffffff167fddf252ad1be2c89b69c2b068fc378daa952ba7f163c4a11628f55a4df523b3ef3460405161293c9190612e59565b60405180910390a3565b83421115612989576040517f08c379a000000000000000000000000000000000000000000000000000000000815260040161298090613c37565b60405180910390fd5b600046905060007f8b73c3c69bb8fe3d512ecc4cf759cc79239f7b179b0ffacaa9a75d522b39400f6040518060400160405280600681526020017f5745544831300000000000000000000000000000000000000000000000000000815250805190602001206040518060400160405280600181526020017f3100000000000000000000000000000000000000000000000000000000000000815250805190602001208430604051602001612a41959493929190613c57565b60405160208183030381529060405280519060200120905060007f00000000000000000000000000000000000000000000000000000000000000008a8a8a600160008f73ffffffffffffffffffffffffffffffffffffffff1673ffffffffffffffffffffffffffffffffffffffff1681526020019081526020016000206000815480929190612acf90613caa565b919050558b604051602001612ae996959493929190613cf2565b60405160208183030381529060405280519060200120905060008282604051602001612b16929190613dcb565b604051602081830303815290604052805190602001209050600060018289898960405160008152602001604052604051612b539493929190613e02565b6020604051602081039080840390855afa158015612b75573d6000803e3d6000fd5b505050602060405103519050600073ffffffffffffffffffffffffffffffffffffffff168173ffffffffffffffffffffffffffffffffffffffff1614158015612be957508b73ffffffffffffffffffffffffffffffffffffffff168173ffffffffffffffffffffffffffffffffffffffff16145b612c28576040517f08c379a0000000000000000000000000000000000000000000000000000000008152600401612c1f90613e93565b60405180910390fd5b89600260008e73ffffffffffffffffffffffffffffffffffffffff1673ffffffffffffffffffffffffffffffffffffffff16815260200190815260200160002060008d73ffffffffffffffffffffffffffffffffffffffff1673ffffffffffffffffffffffffffffffffffffffff168152602001908152602001600020819055508a73ffffffffffffffffffffffffffffffffffffffff168c73ffffffffffffffffffffffffffffffffffffffff167f8c5be1e5ebec7d5bd14f71427d1e84f3dd0314c0f7b2291e5b200ac8c7c3b9258c604051612d069190612e59565b60405180910390a3505050505050505050505050565b60003073ffffffffffffffffffffffffffffffffffffffff168373ffffffffffffffffffffffffffffffffffffffff1614612d8c576040517f08c379a0000000000000000000000000000000000000000000000000000000008152600401612d8390613912565b60405180910390fd5b6000905092915050565b6002602052816000526040600020602052806000526040600020600091509150505481565b6000819050919050565b7f4e487b7100000000000000000000000000000000000000000000000000000000600052601160045260246000fd5b6000612dff82612dbb565b9150612e0a83612dbb565b9250827fffffffffffffffffffffffffffffffffffffffffffffffffffffffffffffffff03821115612e3f57612e3e612dc5565b5b828201905092915050565b612e5381612dbb565b82525050565b6000602082019050612e6e6000830184612e4a565b92915050565b600081519050919050565b600082825260208201905092915050565b60005b83811015612eae578082015181840152602081019050612e93565b83811115612ebd576000848401525b50505050565b6000601f19601f8301169050919050565b6000612edf82612e74565b612ee98185612e7f565b9350612ef9818560208601612e90565b612f0281612ec3565b840191505092915050565b60006020820190508181036000830152612f278184612ed4565b905092915050565b600080fd5b600080fd5b600073ffffffffffffffffffffffffffffffffffffffff82169050919050565b6000612f6482612f39565b9050919050565b612f7481612f59565b8114612f7f57600080fd5b50565b600081359050612f9181612f6b565b92915050565b612fa081612dbb565b8114612fab57600080fd5b50565b600081359050612fbd81612f97565b92915050565b60008060408385031215612fda57612fd9612f2f565b5b6000612fe885828601612f82565b9250506020612ff985828601612fae565b9150509250929050565b60008115159050919050565b61301881613003565b82525050565b6000602082019050613033600083018461300f565b92915050565b600061304482612f39565b9050919050565b61305481613039565b811461305f57600080fd5b50565b6000813590506130718161304b565b92915050565b6000806040838503121561308e5761308d612f2f565b5b600061309c85828601613062565b92505060206130ad85828601612fae565b9150509250929050565b6000806000606084860312156130d0576130cf612f2f565b5b60006130de86828701612f82565b93505060206130ef86828701612f82565b925050604061310086828701612fae565b9150509250925092565b6000602082840312156131205761311f612f2f565b5b600061312e84828501612fae565b91505092915050565b6000819050919050565b61314a81613137565b82525050565b60006020820190506131656000830184613141565b92915050565b600060ff82169050919050565b6131818161316b565b82525050565b600060208201905061319c6000830184613178565b92915050565b600080fd5b600080fd5b600080fd5b60008083601f8401126131c7576131c66131a2565b5b8235905067ffffffffffffffff8111156131e4576131e36131a7565b5b602083019150836001820283011115613200576131ff6131ac565b5b9250929050565b6000806000806060858703121561322157613220612f2f565b5b600061322f87828801612f82565b945050602061324087828801612fae565b935050604085013567ffffffffffffffff81111561326157613260612f34565b5b61326d878288016131b1565b925092505092959194509250565b600061328682612f59565b9050919050565b6132968161327b565b81146132a157600080fd5b50565b6000813590506132b38161328d565b92915050565b6000806000806000608086880312156132d5576132d4612f2f565b5b60006132e3888289016132a4565b95505060206132f488828901612f82565b945050604061330588828901612fae565b935050606086013567ffffffffffffffff81111561332657613325612f34565b5b613332888289016131b1565b92509250509295509295909350565b60008060006040848603121561335a57613359612f2f565b5b600061336886828701612f82565b935050602084013567ffffffffffffffff81111561338957613388612f34565b5b613395868287016131b1565b92509250509250925092565b6000602082840312156133b7576133b6612f2f565b5b60006133c584828501612f82565b91505092915050565b6000806000606084860312156133e7576133e6612f2f565b5b60006133f586828701612f82565b935050602061340686828701613062565b925050604061341786828701612fae565b9150509250925092565b61342a8161316b565b811461343557600080fd5b50565b60008135905061344781613421565b92915050565b61345681613137565b811461346157600080fd5b50565b6000813590506134738161344d565b92915050565b600080600080600080600060e0888a03121561349857613497612f2f565b5b60006134a68a828b01612f82565b97505060206134b78a828b01612f82565b96505060406134c88a828b01612fae565b95505060606134d98a828b01612fae565b94505060806134ea8a828b01613438565b93505060a06134fb8a828b01613464565b92505060c061350c8a828b01613464565b91505092959891949750929550565b6000806040838503121561353257613531612f2f565b5b600061354085828601612f82565b925050602061355185828601612f82565b9150509250929050565b7f574554483a206275726e20616d6f756e7420657863656564732062616c616e6360008201527f6500000000000000000000000000000000000000000000000000000000000000602082015250565b60006135b7602183612e7f565b91506135c28261355b565b604082019050919050565b600060208201905081810360008301526135e6816135aa565b9050919050565b60006135f882612dbb565b915061360383612dbb565b92508282101561361657613615612dc5565b5b828203905092915050565b600081905092915050565b50565b600061363c600083613621565b91506136478261362c565b600082019050919050565b600061365d8261362f565b9150819050919050565b7f574554483a20455448207472616e73666572206661696c656400000000000000600082015250565b600061369d601983612e7f565b91506136a882613667565b602082019050919050565b600060208201905081810360008301526136cc81613690565b9050919050565b7f574554483a2072657175657374206578636565647320616c6c6f77616e636500600082015250565b6000613709601f83612e7f565b9150613714826136d3565b602082019050919050565b60006020820190508181036000830152613738816136fc565b9050919050565b7f574554483a207472616e7366657220616d6f756e74206578636565647320626160008201527f6c616e6365000000000000000000000000000000000000000000000000000000602082015250565b600061379b602583612e7f565b91506137a68261373f565b604082019050919050565b600060208201905081810360008301526137ca8161378e565b9050919050565b6137da81612f59565b82525050565b600082825260208201905092915050565b82818337600083830152505050565b600061380c83856137e0565b93506138198385846137f1565b61382283612ec3565b840190509392505050565b600060608201905061384260008301876137d1565b61384f6020830186612e4a565b8181036040830152613862818486613800565b905095945050505050565b61387681613003565b811461388157600080fd5b50565b6000815190506138938161386d565b92915050565b6000602082840312156138af576138ae612f2f565b5b60006138bd84828501613884565b91505092915050565b7f574554483a20666c617368206d696e74206f6e6c792057455448313000000000600082015250565b60006138fc601c83612e7f565b9150613907826138c6565b602082019050919050565b6000602082019050818103600083015261392b816138ef565b9050919050565b7f574554483a20696e646976696475616c206c6f616e206c696d6974206578636560008201527f6564656400000000000000000000000000000000000000000000000000000000602082015250565b600061398e602483612e7f565b915061399982613932565b604082019050919050565b600060208201905081810360008301526139bd81613981565b9050919050565b7f574554483a20746f74616c206c6f616e206c696d697420657863656564656400600082015250565b60006139fa601f83612e7f565b9150613a05826139c4565b602082019050919050565b60006020820190508181036000830152613a29816139ed565b9050919050565b6000819050919050565b6000819050919050565b6000613a5f613a5a613a5584613a30565b613a3a565b612dbb565b9050919050565b613a6f81613a44565b82525050565b600060a082019050613a8a60008301896137d1565b613a9760208301886137d1565b613aa46040830187612e4a565b613ab16060830186613a66565b8181036080830152613ac4818486613800565b9050979650505050505050565b600081519050613ae08161344d565b92915050565b600060208284031215613afc57613afb612f2f565b5b6000613b0a84828501613ad1565b91505092915050565b7f574554483a20666c617368206c6f616e206661696c6564000000000000000000600082015250565b6000613b49601783612e7f565b9150613b5482613b13565b602082019050919050565b60006020820190508181036000830152613b7881613b3c565b9050919050565b7f574554483a204574686572207472616e73666572206661696c65640000000000600082015250565b6000613bb5601b83612e7f565b9150613bc082613b7f565b602082019050919050565b60006020820190508181036000830152613be481613ba8565b9050919050565b7f574554483a2045787069726564207065726d6974000000000000000000000000600082015250565b6000613c21601483612e7f565b9150613c2c82613beb565b602082019050919050565b60006020820190508181036000830152613c5081613c14565b9050919050565b600060a082019050613c6c6000830188613141565b613c796020830187613141565b613c866040830186613141565b613c936060830185612e4a565b613ca060808301846137d1565b9695505050505050565b6000613cb582612dbb565b91507fffffffffffffffffffffffffffffffffffffffffffffffffffffffffffffffff8203613ce757613ce6612dc5565b5b600182019050919050565b600060c082019050613d076000830189613141565b613d1460208301886137d1565b613d2160408301876137d1565b613d2e6060830186612e4a565b613d3b6080830185612e4a565b613d4860a0830184612e4a565b979650505050505050565b600081905092915050565b7f1901000000000000000000000000000000000000000000000000000000000000600082015250565b6000613d94600283613d53565b9150613d9f82613d5e565b600282019050919050565b6000819050919050565b613dc5613dc082613137565b613daa565b82525050565b6000613dd682613d87565b9150613de28285613db4565b602082019150613df28284613db4565b6020820191508190509392505050565b6000608082019050613e176000830187613141565b613e246020830186613178565b613e316040830185613141565b613e3e6060830184613141565b95945050505050565b7f574554483a20696e76616c6964207065726d6974000000000000000000000000600082015250565b6000613e7d601483612e7f565b9150613e8882613e47565b602082019050919050565b60006020820190508181036000830152613eac81613e70565b905091905056fea26469706673582212207abe709a7a7b1eeccb5001c2c7352f7222768cc921b3d0719aab1ccb3c230cfd64736f6c634300080d0033",
  "linkReferences": {},
  "deployedLinkReferences": {}
}