{
  "_format": "hh-sol-artifact-1",
  "contractName": "UpdateProposalConfigProposal",
  "sourceName": "contracts/DAO/Proposals/UpdateProposalConfigProposal.sol",
  "abi": [
    {
      "inputs": [
        {
          "internalType": "address",
          "name": "dao",
          "type": "address"
        },
        {
          "internalType": "string",
          "name": "_description",
          "type": "string"
        }
      ],
      "stateMutability": "nonpayable",
      "type": "constructor"
    },
    {
      "inputs": [],
      "name": "ExecutionFailed",
      "type": "error"
    },
    {
      "inputs": [
        {
          "internalType": "address",
          "name": "dao",
          "type": "address"
        },
        {
          "internalType": "address",
          "name": "factory",
          "type": "address"
        }
      ],
      "name": "OnlyFactoryOrDAO",
      "type": "error"
    },
    {
      "inputs": [
        {
          "internalType": "address",
          "name": "proposal",
          "type": "address"
        }
      ],
      "name": "ProposalLocked",
      "type": "error"
    },
    {
      "inputs": [],
      "name": "description",
      "outputs": [
        {
          "internalType": "string",
          "name": "",
          "type": "string"
        }
      ],
      "stateMutability": "view",
      "type": "function"
    },
    {
      "inputs": [],
      "name": "locked",
      "outputs": [
        {
          "internalType": "bool",
          "name": "",
          "type": "bool"
        }
      ],
      "stateMutability": "view",
      "type": "function"
    },
    {
      "inputs": [],
      "name": "orchestrateExecute",
      "outputs": [],
      "stateMutability": "nonpayable",
      "type": "function"
    },
    {
      "inputs": [
        {
          "internalType": "uint256",
          "name": "votingDuration",
          "type": "uint256"
        },
        {
          "internalType": "uint256",
          "name": "requiredFateStake",
          "type": "uint256"
        },
        {
          "internalType": "address",
          "name": "proposalFactory",
          "type": "address"
        }
      ],
      "name": "parameterize",
      "outputs": [],
      "stateMutability": "nonpayable",
      "type": "function"
    },
    {
      "inputs": [],
      "name": "params",
      "outputs": [
        {
          "internalType": "uint256",
          "name": "votingDuration",
          "type": "uint256"
        },
        {
          "internalType": "uint256",
          "name": "requiredFateStake",
          "type": "uint256"
        },
        {
          "internalType": "address",
          "name": "proposalFactory",
          "type": "address"
        }
      ],
      "stateMutability": "view",
      "type": "function"
    },
    {
      "inputs": [
        {
          "internalType": "bool",
          "name": "_locked",
          "type": "bool"
        }
      ],
      "name": "setLocked",
      "outputs": [],
      "stateMutability": "nonpayable",
      "type": "function"
    }
  ],
  "bytecode": "0x60a06040523480156200001157600080fd5b5060405162000ebf38038062000ebf833981810160405281019062000037919062000342565b81818173ffffffffffffffffffffffffffffffffffffffff1660808173ffffffffffffffffffffffffffffffffffffffff168152505080600090805190602001906200008592919062000090565b50505050506200040c565b8280546200009e90620003d7565b90600052602060002090601f016020900481019282620000c257600085556200010e565b82601f10620000dd57805160ff19168380011785556200010e565b828001600101855582156200010e579182015b828111156200010d578251825591602001919060010190620000f0565b5b5090506200011d919062000121565b5090565b5b808211156200013c57600081600090555060010162000122565b5090565b6000604051905090565b600080fd5b600080fd5b600073ffffffffffffffffffffffffffffffffffffffff82169050919050565b6000620001818262000154565b9050919050565b620001938162000174565b81146200019f57600080fd5b50565b600081519050620001b38162000188565b92915050565b600080fd5b600080fd5b6000601f19601f8301169050919050565b7f4e487b7100000000000000000000000000000000000000000000000000000000600052604160045260246000fd5b6200020e82620001c3565b810181811067ffffffffffffffff8211171562000230576200022f620001d4565b5b80604052505050565b60006200024562000140565b905062000253828262000203565b919050565b600067ffffffffffffffff821115620002765762000275620001d4565b5b6200028182620001c3565b9050602081019050919050565b60005b83811015620002ae57808201518184015260208101905062000291565b83811115620002be576000848401525b50505050565b6000620002db620002d58462000258565b62000239565b905082815260208101848484011115620002fa57620002f9620001be565b5b620003078482856200028e565b509392505050565b600082601f830112620003275762000326620001b9565b5b815162000339848260208601620002c4565b91505092915050565b600080604083850312156200035c576200035b6200014a565b5b60006200036c85828601620001a2565b925050602083015167ffffffffffffffff81111562000390576200038f6200014f565b5b6200039e858286016200030f565b9150509250929050565b7f4e487b7100000000000000000000000000000000000000000000000000000000600052602260045260246000fd5b60006002820490506001821680620003f057607f821691505b602082108103620004065762000405620003a8565b5b50919050565b608051610a7b62000444600039600081816101090152818161012e015281816103560152818161037b01526105d70152610a7b6000f3fe608060405234801561001057600080fd5b50600436106100625760003560e01c8063211e28b6146100675780633bfcc238146100835780633e7f6c641461009f5780637284e416146100a9578063cf309012146100c7578063cff0ab96146100e5575b600080fd5b610081600480360381019061007c91906106d6565b610105565b005b61009d60048036038101906100989190610797565b61028a565b005b6100a7610352565b005b6100b16104fa565b6040516100be9190610883565b60405180910390f35b6100cf610588565b6040516100dc91906108b4565b60405180910390f35b6100ed61059b565b6040516100fc939291906108ed565b60405180910390f35b60007f0000000000000000000000000000000000000000000000000000000000000000905060007f000000000000000000000000000000000000000000000000000000000000000073ffffffffffffffffffffffffffffffffffffffff166301e179dc6040518163ffffffff1660e01b8152600401606060405180830381865afa158015610197573d6000803e3d6000fd5b505050506040513d601f19601f820116820180604052508101906101bb919061094e565b925050508173ffffffffffffffffffffffffffffffffffffffff163373ffffffffffffffffffffffffffffffffffffffff161415801561022757508073ffffffffffffffffffffffffffffffffffffffff163373ffffffffffffffffffffffffffffffffffffffff1614155b1561026b5781816040517ff8b7c0c30000000000000000000000000000000000000000000000000000000081526004016102629291906109a1565b60405180910390fd5b82600160006101000a81548160ff021916908315150217905550505050565b600160009054906101000a900460ff16156102dc57306040517fefaa447e0000000000000000000000000000000000000000000000000000000081526004016102d391906109ca565b60405180910390fd5b806002800160006101000a81548173ffffffffffffffffffffffffffffffffffffffff021916908373ffffffffffffffffffffffffffffffffffffffff160217905550816002600101819055508260026000018190555060018060006101000a81548160ff021916908315150217905550505050565b60007f0000000000000000000000000000000000000000000000000000000000000000905060007f000000000000000000000000000000000000000000000000000000000000000073ffffffffffffffffffffffffffffffffffffffff166301e179dc6040518163ffffffff1660e01b8152600401606060405180830381865afa1580156103e4573d6000803e3d6000fd5b505050506040513d601f19601f82011682018060405250810190610408919061094e565b925050508173ffffffffffffffffffffffffffffffffffffffff163373ffffffffffffffffffffffffffffffffffffffff161415801561047457508073ffffffffffffffffffffffffffffffffffffffff163373ffffffffffffffffffffffffffffffffffffffff1614155b156104b85781816040517ff8b7c0c30000000000000000000000000000000000000000000000000000000081526004016104af9291906109a1565b60405180910390fd5b6104c06105d3565b6104f6576040517facfdb44400000000000000000000000000000000000000000000000000000000815260040160405180910390fd5b5050565b6000805461050790610a14565b80601f016020809104026020016040519081016040528092919081815260200182805461053390610a14565b80156105805780601f1061055557610100808354040283529160200191610580565b820191906000526020600020905b81548152906001019060200180831161056357829003601f168201915b505050505081565b600160009054906101000a900460ff1681565b60028060000154908060010154908060020160009054906101000a900473ffffffffffffffffffffffffffffffffffffffff16905083565b60007f000000000000000000000000000000000000000000000000000000000000000073ffffffffffffffffffffffffffffffffffffffff16632b57bb806002600001546002600101546002800160009054906101000a900473ffffffffffffffffffffffffffffffffffffffff166040518463ffffffff1660e01b8152600401610660939291906108ed565b600060405180830381600087803b15801561067a57600080fd5b505af115801561068e573d6000803e3d6000fd5b505050506001905090565b600080fd5b60008115159050919050565b6106b38161069e565b81146106be57600080fd5b50565b6000813590506106d0816106aa565b92915050565b6000602082840312156106ec576106eb610699565b5b60006106fa848285016106c1565b91505092915050565b6000819050919050565b61071681610703565b811461072157600080fd5b50565b6000813590506107338161070d565b92915050565b600073ffffffffffffffffffffffffffffffffffffffff82169050919050565b600061076482610739565b9050919050565b61077481610759565b811461077f57600080fd5b50565b6000813590506107918161076b565b92915050565b6000806000606084860312156107b0576107af610699565b5b60006107be86828701610724565b93505060206107cf86828701610724565b92505060406107e086828701610782565b9150509250925092565b600081519050919050565b600082825260208201905092915050565b60005b83811015610824578082015181840152602081019050610809565b83811115610833576000848401525b50505050565b6000601f19601f8301169050919050565b6000610855826107ea565b61085f81856107f5565b935061086f818560208601610806565b61087881610839565b840191505092915050565b6000602082019050818103600083015261089d818461084a565b905092915050565b6108ae8161069e565b82525050565b60006020820190506108c960008301846108a5565b92915050565b6108d881610703565b82525050565b6108e781610759565b82525050565b600060608201905061090260008301866108cf565b61090f60208301856108cf565b61091c60408301846108de565b949350505050565b6000815190506109338161070d565b92915050565b6000815190506109488161076b565b92915050565b60008060006060848603121561096757610966610699565b5b600061097586828701610924565b935050602061098686828701610924565b925050604061099786828701610939565b9150509250925092565b60006040820190506109b660008301856108de565b6109c360208301846108de565b9392505050565b60006020820190506109df60008301846108de565b92915050565b7f4e487b7100000000000000000000000000000000000000000000000000000000600052602260045260246000fd5b60006002820490506001821680610a2c57607f821691505b602082108103610a3f57610a3e6109e5565b5b5091905056fea2646970667358221220884279cfdab6374fbe5bceb7fc663a616f3f9d9de1a5c2f77b8c5605035c483564736f6c634300080d0033",
  "linkReferences": {},
  "deployedLinkReferences": {}
}