{
  "_format": "hh-sol-artifact-1",
  "contractName": "TokenProxyBase",
  "sourceName": "contracts/TokenProxies/TokenProxyBase.sol",
  "abi": [
    {
      "inputs": [
        {
          "internalType": "address",
          "name": "_baseToken",
          "type": "address"
        },
        {
          "internalType": "string",
          "name": "name_",
          "type": "string"
        },
        {
          "internalType": "string",
          "name": "symbol_",
          "type": "string"
        },
        {
          "internalType": "address",
          "name": "registry",
          "type": "address"
        },
        {
          "internalType": "uint256",
          "name": "_initialRedeemRate",
          "type": "uint256"
        }
      ],
      "stateMutability": "nonpayable",
      "type": "constructor"
    },
    {
      "inputs": [
        {
          "internalType": "uint256",
          "name": "allowance",
          "type": "uint256"
        },
        {
          "internalType": "uint256",
          "name": "amount",
          "type": "uint256"
        }
      ],
      "name": "AllowanceExceeded",
      "type": "error"
    },
    {
      "inputs": [
        {
          "internalType": "uint256",
          "name": "allowance",
          "type": "uint256"
        },
        {
          "internalType": "uint256",
          "name": "subtraction",
          "type": "uint256"
        }
      ],
      "name": "AllowanceUnderflow",
      "type": "error"
    },
    {
      "inputs": [
        {
          "internalType": "uint256",
          "name": "accountBalance",
          "type": "uint256"
        },
        {
          "internalType": "uint256",
          "name": "amount",
          "type": "uint256"
        }
      ],
      "name": "BurnUnderflow",
      "type": "error"
    },
    {
      "inputs": [
        {
          "internalType": "uint256",
          "name": "balance",
          "type": "uint256"
        },
        {
          "internalType": "uint256",
          "name": "value",
          "type": "uint256"
        }
      ],
      "name": "InsufficinetFunds",
      "type": "error"
    },
    {
      "inputs": [
        {
          "internalType": "address",
          "name": "EOA",
          "type": "address"
        }
      ],
      "name": "NotAContract",
      "type": "error"
    },
    {
      "inputs": [
        {
          "internalType": "address",
          "name": "sender",
          "type": "address"
        },
        {
          "internalType": "address",
          "name": "proxy",
          "type": "address"
        }
      ],
      "name": "OnlyProxy",
      "type": "error"
    },
    {
      "inputs": [],
      "name": "OperationFailure",
      "type": "error"
    },
    {
      "inputs": [
        {
          "internalType": "uint256",
          "name": "senderBalance",
          "type": "uint256"
        },
        {
          "internalType": "uint256",
          "name": "fee",
          "type": "uint256"
        },
        {
          "internalType": "uint256",
          "name": "amount",
          "type": "uint256"
        }
      ],
      "name": "TransferUnderflow",
      "type": "error"
    },
    {
      "anonymous": false,
      "inputs": [
        {
          "indexed": true,
          "internalType": "address",
          "name": "owner",
          "type": "address"
        },
        {
          "indexed": true,
          "internalType": "address",
          "name": "spender",
          "type": "address"
        },
        {
          "indexed": false,
          "internalType": "uint256",
          "name": "value",
          "type": "uint256"
        }
      ],
      "name": "Approval",
      "type": "event"
    },
    {
      "anonymous": false,
      "inputs": [
        {
          "indexed": true,
          "internalType": "address",
          "name": "from",
          "type": "address"
        },
        {
          "indexed": true,
          "internalType": "address",
          "name": "to",
          "type": "address"
        },
        {
          "indexed": false,
          "internalType": "uint256",
          "name": "value",
          "type": "uint256"
        }
      ],
      "name": "Transfer",
      "type": "event"
    },
    {
      "inputs": [],
      "name": "IS_PROXY",
      "outputs": [
        {
          "internalType": "bool",
          "name": "",
          "type": "bool"
        }
      ],
      "stateMutability": "view",
      "type": "function"
    },
    {
      "inputs": [
        {
          "internalType": "address",
          "name": "owner",
          "type": "address"
        },
        {
          "internalType": "address",
          "name": "spender",
          "type": "address"
        }
      ],
      "name": "allowance",
      "outputs": [
        {
          "internalType": "uint256",
          "name": "",
          "type": "uint256"
        }
      ],
      "stateMutability": "view",
      "type": "function"
    },
    {
      "inputs": [
        {
          "internalType": "address",
          "name": "spender",
          "type": "address"
        },
        {
          "internalType": "uint256",
          "name": "amount",
          "type": "uint256"
        }
      ],
      "name": "approve",
      "outputs": [
        {
          "internalType": "bool",
          "name": "",
          "type": "bool"
        }
      ],
      "stateMutability": "nonpayable",
      "type": "function"
    },
    {
      "inputs": [
        {
          "internalType": "address",
          "name": "account",
          "type": "address"
        }
      ],
      "name": "balanceOf",
      "outputs": [
        {
          "internalType": "uint256",
          "name": "",
          "type": "uint256"
        }
      ],
      "stateMutability": "view",
      "type": "function"
    },
    {
      "inputs": [],
      "name": "baseToken",
      "outputs": [
        {
          "internalType": "address",
          "name": "",
          "type": "address"
        }
      ],
      "stateMutability": "view",
      "type": "function"
    },
    {
      "inputs": [],
      "name": "decimals",
      "outputs": [
        {
          "internalType": "uint8",
          "name": "",
          "type": "uint8"
        }
      ],
      "stateMutability": "view",
      "type": "function"
    },
    {
      "inputs": [
        {
          "internalType": "address",
          "name": "spender",
          "type": "address"
        },
        {
          "internalType": "uint256",
          "name": "subtractedValue",
          "type": "uint256"
        }
      ],
      "name": "decreaseAllowance",
      "outputs": [
        {
          "internalType": "bool",
          "name": "",
          "type": "bool"
        }
      ],
      "stateMutability": "nonpayable",
      "type": "function"
    },
    {
      "inputs": [
        {
          "internalType": "address",
          "name": "spender",
          "type": "address"
        },
        {
          "internalType": "uint256",
          "name": "addedValue",
          "type": "uint256"
        }
      ],
      "name": "increaseAllowance",
      "outputs": [
        {
          "internalType": "bool",
          "name": "",
          "type": "bool"
        }
      ],
      "stateMutability": "nonpayable",
      "type": "function"
    },
    {
      "inputs": [],
      "name": "initialRedeemRate",
      "outputs": [
        {
          "internalType": "uint256",
          "name": "",
          "type": "uint256"
        }
      ],
      "stateMutability": "view",
      "type": "function"
    },
    {
      "inputs": [
        {
          "internalType": "address",
          "name": "newProxy",
          "type": "address"
        }
      ],
      "name": "migrateBaseReserveToNewProxy",
      "outputs": [],
      "stateMutability": "nonpayable",
      "type": "function"
    },
    {
      "inputs": [
        {
          "internalType": "address",
          "name": "proxyRecipient",
          "type": "address"
        },
        {
          "internalType": "address",
          "name": "baseSource",
          "type": "address"
        },
        {
          "internalType": "uint256",
          "name": "amount",
          "type": "uint256"
        }
      ],
      "name": "mint",
      "outputs": [
        {
          "internalType": "uint256",
          "name": "proxy",
          "type": "uint256"
        }
      ],
      "stateMutability": "nonpayable",
      "type": "function"
    },
    {
      "inputs": [],
      "name": "name",
      "outputs": [
        {
          "internalType": "string",
          "name": "",
          "type": "string"
        }
      ],
      "stateMutability": "view",
      "type": "function"
    },
    {
      "inputs": [],
      "name": "proxyRegistry",
      "outputs": [
        {
          "internalType": "address",
          "name": "",
          "type": "address"
        }
      ],
      "stateMutability": "view",
      "type": "function"
    },
    {
      "inputs": [
        {
          "internalType": "address",
          "name": "proxySource",
          "type": "address"
        },
        {
          "internalType": "address",
          "name": "baseRecipient",
          "type": "address"
        },
        {
          "internalType": "uint256",
          "name": "amount",
          "type": "uint256"
        }
      ],
      "name": "redeem",
      "outputs": [
        {
          "internalType": "uint256",
          "name": "baseAmount",
          "type": "uint256"
        }
      ],
      "stateMutability": "nonpayable",
      "type": "function"
    },
    {
      "inputs": [],
      "name": "redeemRate",
      "outputs": [
        {
          "internalType": "uint256",
          "name": "",
          "type": "uint256"
        }
      ],
      "stateMutability": "view",
      "type": "function"
    },
    {
      "inputs": [],
      "name": "symbol",
      "outputs": [
        {
          "internalType": "string",
          "name": "",
          "type": "string"
        }
      ],
      "stateMutability": "view",
      "type": "function"
    },
    {
      "inputs": [],
      "name": "totalSupply",
      "outputs": [
        {
          "internalType": "uint256",
          "name": "",
          "type": "uint256"
        }
      ],
      "stateMutability": "view",
      "type": "function"
    },
    {
      "inputs": [
        {
          "internalType": "address",
          "name": "recipient",
          "type": "address"
        },
        {
          "internalType": "uint256",
          "name": "amount",
          "type": "uint256"
        }
      ],
      "name": "transfer",
      "outputs": [
        {
          "internalType": "bool",
          "name": "",
          "type": "bool"
        }
      ],
      "stateMutability": "nonpayable",
      "type": "function"
    },
    {
      "inputs": [
        {
          "internalType": "address",
          "name": "sender",
          "type": "address"
        },
        {
          "internalType": "address",
          "name": "recipient",
          "type": "address"
        },
        {
          "internalType": "uint256",
          "name": "amount",
          "type": "uint256"
        }
      ],
      "name": "transferFrom",
      "outputs": [
        {
          "internalType": "bool",
          "name": "",
          "type": "bool"
        }
      ],
      "stateMutability": "nonpayable",
      "type": "function"
    },
    {
      "inputs": [],
      "name": "withdrawReserve",
      "outputs": [],
      "stateMutability": "nonpayable",
      "type": "function"
    }
  ],
  "bytecode": "0x60e06040523480156200001157600080fd5b5060405162002583380380620025838339818101604052810190620000379190620003d5565b8383816003908051906020019062000051929190620000e8565b5080600490805190602001906200006a929190620000e8565b5050508473ffffffffffffffffffffffffffffffffffffffff1660a08173ffffffffffffffffffffffffffffffffffffffff16815250508173ffffffffffffffffffffffffffffffffffffffff1660808173ffffffffffffffffffffffffffffffffffffffff16815250508060c081815250505050505050620004ff565b828054620000f690620004ca565b90600052602060002090601f0160209004810192826200011a576000855562000166565b82601f106200013557805160ff191683800117855562000166565b8280016001018555821562000166579182015b828111156200016557825182559160200191906001019062000148565b5b50905062000175919062000179565b5090565b5b80821115620001945760008160009055506001016200017a565b5090565b6000604051905090565b600080fd5b600080fd5b600073ffffffffffffffffffffffffffffffffffffffff82169050919050565b6000620001d982620001ac565b9050919050565b620001eb81620001cc565b8114620001f757600080fd5b50565b6000815190506200020b81620001e0565b92915050565b600080fd5b600080fd5b6000601f19601f8301169050919050565b7f4e487b7100000000000000000000000000000000000000000000000000000000600052604160045260246000fd5b62000266826200021b565b810181811067ffffffffffffffff821117156200028857620002876200022c565b5b80604052505050565b60006200029d62000198565b9050620002ab82826200025b565b919050565b600067ffffffffffffffff821115620002ce57620002cd6200022c565b5b620002d9826200021b565b9050602081019050919050565b60005b8381101562000306578082015181840152602081019050620002e9565b8381111562000316576000848401525b50505050565b6000620003336200032d84620002b0565b62000291565b90508281526020810184848401111562000352576200035162000216565b5b6200035f848285620002e6565b509392505050565b600082601f8301126200037f576200037e62000211565b5b8151620003918482602086016200031c565b91505092915050565b6000819050919050565b620003af816200039a565b8114620003bb57600080fd5b50565b600081519050620003cf81620003a4565b92915050565b600080600080600060a08688031215620003f457620003f3620001a2565b5b60006200040488828901620001fa565b955050602086015167ffffffffffffffff811115620004285762000427620001a7565b5b620004368882890162000367565b945050604086015167ffffffffffffffff8111156200045a5762000459620001a7565b5b620004688882890162000367565b93505060606200047b88828901620001fa565b92505060806200048e88828901620003be565b9150509295509295909350565b7f4e487b7100000000000000000000000000000000000000000000000000000000600052602260045260246000fd5b60006002820490506001821680620004e357607f821691505b602082108103620004f957620004f86200049b565b5b50919050565b60805160a05160c051611fe46200059f6000396000818161057a015281816105ab015281816105ff015281816108a70152610dd70152600081816104c30152818161063d01528181610b0b01528181610ba501528181610c1101528181610c4401528181610ce601528181610d300152610f5e015260008181610a5501528181610aa901528181610bed01528181610eaa0152610efe0152611fe46000f3fe608060405234801561001057600080fd5b506004361061012c5760003560e01c806395d89b41116100ad578063c55dae6311610071578063c55dae631461035d578063c6c3bbe61461037b578063dd62ed3e146103ab578063ed3b379b146103db578063fbed2d72146103f75761012c565b806395d89b41146102b7578063a457c2d7146102d5578063a9059cbb14610305578063ace1fab114610335578063b50cbd9f1461033f5761012c565b806323b872dd116100f457806323b872dd146101eb578063313ce5671461021b578063395093511461023957806370a08231146102695780637376dd79146102995761012c565b806306fdde0314610131578063095ea7b31461014f5780630adcdbaa1461017f5780630e6dfcd51461019d57806318160ddd146101cd575b600080fd5b610139610415565b6040516101469190611938565b60405180910390f35b610169600480360381019061016491906119f3565b6104a7565b6040516101769190611a4e565b60405180910390f35b6101876104be565b6040516101949190611a78565b60405180910390f35b6101b760048036038101906101b29190611a93565b6105e6565b6040516101c49190611a78565b60405180910390f35b6101d5610689565b6040516101e29190611a78565b60405180910390f35b61020560048036038101906102009190611a93565b610693565b6040516102129190611a4e565b60405180910390f35b6102236107b6565b6040516102309190611b02565b60405180910390f35b610253600480360381019061024e91906119f3565b6107bf565b6040516102609190611a4e565b60405180910390f35b610283600480360381019061027e9190611b1d565b61085d565b6040516102909190611a78565b60405180910390f35b6102a16108a5565b6040516102ae9190611a78565b60405180910390f35b6102bf6108c9565b6040516102cc9190611938565b60405180910390f35b6102ef60048036038101906102ea91906119f3565b61095b565b6040516102fc9190611a4e565b60405180910390f35b61031f600480360381019061031a91906119f3565b610a3c565b60405161032c9190611a4e565b60405180910390f35b61033d610a53565b005b610347610beb565b6040516103549190611b59565b60405180910390f35b610365610c0f565b6040516103729190611b59565b60405180910390f35b61039560048036038101906103909190611a93565b610c33565b6040516103a29190611a78565b60405180910390f35b6103c560048036038101906103c09190611b74565b610e21565b6040516103d29190611a78565b60405180910390f35b6103f560048036038101906103f09190611b1d565b610ea8565b005b6103ff61107b565b60405161040c9190611a4e565b60405180910390f35b60606003805461042490611be3565b80601f016020809104026020016040519081016040528092919081815260200182805461045090611be3565b801561049d5780601f106104725761010080835404028352916020019161049d565b820191906000526020600020905b81548152906001019060200180831161048057829003601f168201915b5050505050905090565b60006104b4338484611080565b6001905092915050565b6000807f000000000000000000000000000000000000000000000000000000000000000073ffffffffffffffffffffffffffffffffffffffff166370a08231306040518263ffffffff1660e01b815260040161051a9190611b59565b602060405180830381865afa158015610537573d6000803e3d6000fd5b505050506040513d601f19601f8201168201806040525081019061055b9190611c29565b90506000610567610689565b14806105735750600081145b156105a1577f00000000000000000000000000000000000000000000000000000000000000009150506105e3565b6105a9610689565b7f0000000000000000000000000000000000000000000000000000000000000000826105d59190611c85565b6105df9190611d0e565b9150505b90565b6000806105f16104be565b90506105fd858461116b565b7f0000000000000000000000000000000000000000000000000000000000000000818461062a9190611c85565b6106349190611d0e565b915061068184837f000000000000000000000000000000000000000000000000000000000000000073ffffffffffffffffffffffffffffffffffffffff166112b59092919063ffffffff16565b509392505050565b6000600254905090565b60006106a084848461133b565b6000600160008673ffffffffffffffffffffffffffffffffffffffff1673ffffffffffffffffffffffffffffffffffffffff16815260200190815260200160002060003373ffffffffffffffffffffffffffffffffffffffff1673ffffffffffffffffffffffffffffffffffffffff1681526020019081526020016000205490507fffffffffffffffffffffffffffffffffffffffffffffffffffffffffffffffff811415801561075057508083115b156107945780836040517fa924825600000000000000000000000000000000000000000000000000000000815260040161078b929190611d3f565b60405180910390fd5b6107aa853385846107a59190611d68565b611080565b60019150509392505050565b60006012905090565b6000610853338484600160003373ffffffffffffffffffffffffffffffffffffffff1673ffffffffffffffffffffffffffffffffffffffff16815260200190815260200160002060008873ffffffffffffffffffffffffffffffffffffffff1673ffffffffffffffffffffffffffffffffffffffff1681526020019081526020016000205461084e9190611d9c565b611080565b6001905092915050565b60008060008373ffffffffffffffffffffffffffffffffffffffff1673ffffffffffffffffffffffffffffffffffffffff168152602001908152602001600020549050919050565b7f000000000000000000000000000000000000000000000000000000000000000081565b6060600480546108d890611be3565b80601f016020809104026020016040519081016040528092919081815260200182805461090490611be3565b80156109515780601f1061092657610100808354040283529160200191610951565b820191906000526020600020905b81548152906001019060200180831161093457829003601f168201915b5050505050905090565b600080600160003373ffffffffffffffffffffffffffffffffffffffff1673ffffffffffffffffffffffffffffffffffffffff16815260200190815260200160002060008573ffffffffffffffffffffffffffffffffffffffff1673ffffffffffffffffffffffffffffffffffffffff16815260200190815260200160002054905082811015610a245780836040517fda2d822c000000000000000000000000000000000000000000000000000000008152600401610a1b929190611d3f565b60405180910390fd5b610a313385858403611080565b600191505092915050565b6000610a4933848461133b565b6001905092915050565b7f000000000000000000000000000000000000000000000000000000000000000073ffffffffffffffffffffffffffffffffffffffff163373ffffffffffffffffffffffffffffffffffffffff1614610b0557337f00000000000000000000000000000000000000000000000000000000000000006040517fd214286f000000000000000000000000000000000000000000000000000000008152600401610afc929190611df2565b60405180910390fd5b610be9337f000000000000000000000000000000000000000000000000000000000000000073ffffffffffffffffffffffffffffffffffffffff166370a08231306040518263ffffffff1660e01b8152600401610b629190611b59565b602060405180830381865afa158015610b7f573d6000803e3d6000fd5b505050506040513d601f19601f82011682018060405250810190610ba39190611c29565b7f000000000000000000000000000000000000000000000000000000000000000073ffffffffffffffffffffffffffffffffffffffff166112b59092919063ffffffff16565b565b7f000000000000000000000000000000000000000000000000000000000000000081565b7f000000000000000000000000000000000000000000000000000000000000000081565b600080610c3e6104be565b905060007f000000000000000000000000000000000000000000000000000000000000000073ffffffffffffffffffffffffffffffffffffffff166370a08231306040518263ffffffff1660e01b8152600401610c9b9190611b59565b602060405180830381865afa158015610cb8573d6000803e3d6000fd5b505050506040513d601f19601f82011682018060405250810190610cdc9190611c29565b9050610d2b8530867f000000000000000000000000000000000000000000000000000000000000000073ffffffffffffffffffffffffffffffffffffffff166114c4909392919063ffffffff16565b6000817f000000000000000000000000000000000000000000000000000000000000000073ffffffffffffffffffffffffffffffffffffffff166370a08231306040518263ffffffff1660e01b8152600401610d879190611b59565b602060405180830381865afa158015610da4573d6000803e3d6000fd5b505050506040513d601f19601f82011682018060405250810190610dc89190611c29565b610dd29190611d68565b9050827f000000000000000000000000000000000000000000000000000000000000000082610e019190611c85565b610e0b9190611d0e565b9350610e17878561154d565b5050509392505050565b6000600160008473ffffffffffffffffffffffffffffffffffffffff1673ffffffffffffffffffffffffffffffffffffffff16815260200190815260200160002060008373ffffffffffffffffffffffffffffffffffffffff1673ffffffffffffffffffffffffffffffffffffffff16815260200190815260200160002054905092915050565b7f000000000000000000000000000000000000000000000000000000000000000073ffffffffffffffffffffffffffffffffffffffff163373ffffffffffffffffffffffffffffffffffffffff1614610f5a57337f00000000000000000000000000000000000000000000000000000000000000006040517fd214286f000000000000000000000000000000000000000000000000000000008152600401610f51929190611df2565b60405180910390fd5b60007f000000000000000000000000000000000000000000000000000000000000000090508073ffffffffffffffffffffffffffffffffffffffff1663a9059cbb838373ffffffffffffffffffffffffffffffffffffffff166370a08231306040518263ffffffff1660e01b8152600401610fd59190611b59565b602060405180830381865afa158015610ff2573d6000803e3d6000fd5b505050506040513d601f19601f820116820180604052508101906110169190611c29565b6040518363ffffffff1660e01b8152600401611033929190611e1b565b6020604051808303816000875af1158015611052573d6000803e3d6000fd5b505050506040513d601f19601f820116820180604052508101906110769190611e70565b505050565b600181565b80600160008573ffffffffffffffffffffffffffffffffffffffff1673ffffffffffffffffffffffffffffffffffffffff16815260200190815260200160002060008473ffffffffffffffffffffffffffffffffffffffff1673ffffffffffffffffffffffffffffffffffffffff168152602001908152602001600020819055508173ffffffffffffffffffffffffffffffffffffffff168373ffffffffffffffffffffffffffffffffffffffff167f8c5be1e5ebec7d5bd14f71427d1e84f3dd0314c0f7b2291e5b200ac8c7c3b9258360405161115e9190611a78565b60405180910390a3505050565b60008060008473ffffffffffffffffffffffffffffffffffffffff1673ffffffffffffffffffffffffffffffffffffffff168152602001908152602001600020549050818110156111f55780826040517f0a37dd410000000000000000000000000000000000000000000000000000000081526004016111ec929190611d3f565b60405180910390fd5b8181036000808573ffffffffffffffffffffffffffffffffffffffff1673ffffffffffffffffffffffffffffffffffffffff1681526020019081526020016000208190555081600260008282540392505081905550600073ffffffffffffffffffffffffffffffffffffffff168373ffffffffffffffffffffffffffffffffffffffff167fddf252ad1be2c89b69c2b068fc378daa952ba7f163c4a11628f55a4df523b3ef846040516112a89190611a78565b60405180910390a3505050565b6113368363a9059cbb60e01b84846040516024016112d4929190611e1b565b604051602081830303815290604052907bffffffffffffffffffffffffffffffffffffffffffffffffffffffff19166020820180517bffffffffffffffffffffffffffffffffffffffffffffffffffffffff8381831617835250505050611625565b505050565b60008060008573ffffffffffffffffffffffffffffffffffffffff1673ffffffffffffffffffffffffffffffffffffffff168152602001908152602001600020549050818110156113c857806000836040517f57b9c4a40000000000000000000000000000000000000000000000000000000081526004016113bf93929190611ee2565b60405180910390fd5b8181036000808673ffffffffffffffffffffffffffffffffffffffff1673ffffffffffffffffffffffffffffffffffffffff16815260200190815260200160002081905550816000808573ffffffffffffffffffffffffffffffffffffffff1673ffffffffffffffffffffffffffffffffffffffff168152602001908152602001600020600082825401925050819055508273ffffffffffffffffffffffffffffffffffffffff168473ffffffffffffffffffffffffffffffffffffffff167fddf252ad1be2c89b69c2b068fc378daa952ba7f163c4a11628f55a4df523b3ef846040516114b69190611a78565b60405180910390a350505050565b611547846323b872dd60e01b8585856040516024016114e593929190611f19565b604051602081830303815290604052907bffffffffffffffffffffffffffffffffffffffffffffffffffffffff19166020820180517bffffffffffffffffffffffffffffffffffffffffffffffffffffffff8381831617835250505050611625565b50505050565b806002600082825461155f9190611d9c565b92505081905550806000808473ffffffffffffffffffffffffffffffffffffffff1673ffffffffffffffffffffffffffffffffffffffff16815260200190815260200160002060008282546115b49190611d9c565b925050819055508173ffffffffffffffffffffffffffffffffffffffff16600073ffffffffffffffffffffffffffffffffffffffff167fddf252ad1be2c89b69c2b068fc378daa952ba7f163c4a11628f55a4df523b3ef836040516116199190611a78565b60405180910390a35050565b6000611687826040518060400160405280602081526020017f5361666545524332303a206c6f772d6c6576656c2063616c6c206661696c65648152508573ffffffffffffffffffffffffffffffffffffffff166116e39092919063ffffffff16565b90506000815111156116de57808060200190518101906116a79190611e70565b6116dd576040517fa479450200000000000000000000000000000000000000000000000000000000815260040160405180910390fd5b5b505050565b60606116f284846000856116fb565b90509392505050565b6060824710156117445747836040517f02de226f00000000000000000000000000000000000000000000000000000000815260040161173b929190611d3f565b60405180910390fd5b61174d85611815565b61178e57846040517f8a8b41ec0000000000000000000000000000000000000000000000000000000081526004016117859190611b59565b60405180910390fd5b6000808673ffffffffffffffffffffffffffffffffffffffff1685876040516117b79190611f97565b60006040518083038185875af1925050503d80600081146117f4576040519150601f19603f3d011682016040523d82523d6000602084013e6117f9565b606091505b5091509150611809828286611838565b92505050949350505050565b6000808273ffffffffffffffffffffffffffffffffffffffff163b119050919050565b6060831561184857829050611898565b60008351111561185b5782518084602001fd5b816040517f08c379a000000000000000000000000000000000000000000000000000000000815260040161188f9190611938565b60405180910390fd5b9392505050565b600081519050919050565b600082825260208201905092915050565b60005b838110156118d95780820151818401526020810190506118be565b838111156118e8576000848401525b50505050565b6000601f19601f8301169050919050565b600061190a8261189f565b61191481856118aa565b93506119248185602086016118bb565b61192d816118ee565b840191505092915050565b6000602082019050818103600083015261195281846118ff565b905092915050565b600080fd5b600073ffffffffffffffffffffffffffffffffffffffff82169050919050565b600061198a8261195f565b9050919050565b61199a8161197f565b81146119a557600080fd5b50565b6000813590506119b781611991565b92915050565b6000819050919050565b6119d0816119bd565b81146119db57600080fd5b50565b6000813590506119ed816119c7565b92915050565b60008060408385031215611a0a57611a0961195a565b5b6000611a18858286016119a8565b9250506020611a29858286016119de565b9150509250929050565b60008115159050919050565b611a4881611a33565b82525050565b6000602082019050611a636000830184611a3f565b92915050565b611a72816119bd565b82525050565b6000602082019050611a8d6000830184611a69565b92915050565b600080600060608486031215611aac57611aab61195a565b5b6000611aba868287016119a8565b9350506020611acb868287016119a8565b9250506040611adc868287016119de565b9150509250925092565b600060ff82169050919050565b611afc81611ae6565b82525050565b6000602082019050611b176000830184611af3565b92915050565b600060208284031215611b3357611b3261195a565b5b6000611b41848285016119a8565b91505092915050565b611b538161197f565b82525050565b6000602082019050611b6e6000830184611b4a565b92915050565b60008060408385031215611b8b57611b8a61195a565b5b6000611b99858286016119a8565b9250506020611baa858286016119a8565b9150509250929050565b7f4e487b7100000000000000000000000000000000000000000000000000000000600052602260045260246000fd5b60006002820490506001821680611bfb57607f821691505b602082108103611c0e57611c0d611bb4565b5b50919050565b600081519050611c23816119c7565b92915050565b600060208284031215611c3f57611c3e61195a565b5b6000611c4d84828501611c14565b91505092915050565b7f4e487b7100000000000000000000000000000000000000000000000000000000600052601160045260246000fd5b6000611c90826119bd565b9150611c9b836119bd565b9250817fffffffffffffffffffffffffffffffffffffffffffffffffffffffffffffffff0483118215151615611cd457611cd3611c56565b5b828202905092915050565b7f4e487b7100000000000000000000000000000000000000000000000000000000600052601260045260246000fd5b6000611d19826119bd565b9150611d24836119bd565b925082611d3457611d33611cdf565b5b828204905092915050565b6000604082019050611d546000830185611a69565b611d616020830184611a69565b9392505050565b6000611d73826119bd565b9150611d7e836119bd565b925082821015611d9157611d90611c56565b5b828203905092915050565b6000611da7826119bd565b9150611db2836119bd565b9250827fffffffffffffffffffffffffffffffffffffffffffffffffffffffffffffffff03821115611de757611de6611c56565b5b828201905092915050565b6000604082019050611e076000830185611b4a565b611e146020830184611b4a565b9392505050565b6000604082019050611e306000830185611b4a565b611e3d6020830184611a69565b9392505050565b611e4d81611a33565b8114611e5857600080fd5b50565b600081519050611e6a81611e44565b92915050565b600060208284031215611e8657611e8561195a565b5b6000611e9484828501611e5b565b91505092915050565b6000819050919050565b6000819050919050565b6000611ecc611ec7611ec284611e9d565b611ea7565b6119bd565b9050919050565b611edc81611eb1565b82525050565b6000606082019050611ef76000830186611a69565b611f046020830185611ed3565b611f116040830184611a69565b949350505050565b6000606082019050611f2e6000830186611b4a565b611f3b6020830185611b4a565b611f486040830184611a69565b949350505050565b600081519050919050565b600081905092915050565b6000611f7182611f50565b611f7b8185611f5b565b9350611f8b8185602086016118bb565b80840191505092915050565b6000611fa38284611f66565b91508190509291505056fea26469706673582212207d9133545f2a04c319233355cadb209d1a8a16237dad31078ce5878f8484d6f164736f6c634300080d0033",
  "linkReferences": {},
  "deployedLinkReferences": {}
}