{
  "_format": "hh-sol-artifact-1",
  "contractName": "TokenProxyBase",
  "sourceName": "contracts/TokenProxies/TokenProxyBase.sol",
  "abi": [
    {
      "inputs": [
        {
          "internalType": "address",
          "name": "_baseToken",
          "type": "address"
        },
        {
          "internalType": "string",
          "name": "name_",
          "type": "string"
        },
        {
          "internalType": "string",
          "name": "symbol_",
          "type": "string"
        },
        {
          "internalType": "address",
          "name": "registry",
          "type": "address"
        }
      ],
      "stateMutability": "nonpayable",
      "type": "constructor"
    },
    {
      "inputs": [
        {
          "internalType": "uint256",
          "name": "allowance",
          "type": "uint256"
        },
        {
          "internalType": "uint256",
          "name": "amount",
          "type": "uint256"
        }
      ],
      "name": "AllowanceExceeded",
      "type": "error"
    },
    {
      "inputs": [
        {
          "internalType": "uint256",
          "name": "allowance",
          "type": "uint256"
        },
        {
          "internalType": "uint256",
          "name": "subtraction",
          "type": "uint256"
        }
      ],
      "name": "AllowanceUnderflow",
      "type": "error"
    },
    {
      "inputs": [
        {
          "internalType": "uint256",
          "name": "accountBalance",
          "type": "uint256"
        },
        {
          "internalType": "uint256",
          "name": "amount",
          "type": "uint256"
        }
      ],
      "name": "BurnUnderflow",
      "type": "error"
    },
    {
      "inputs": [
        {
          "internalType": "uint256",
          "name": "balance",
          "type": "uint256"
        },
        {
          "internalType": "uint256",
          "name": "value",
          "type": "uint256"
        }
      ],
      "name": "InsufficinetFunds",
      "type": "error"
    },
    {
      "inputs": [
        {
          "internalType": "address",
          "name": "EOA",
          "type": "address"
        }
      ],
      "name": "NotAContract",
      "type": "error"
    },
    {
      "inputs": [
        {
          "internalType": "address",
          "name": "sender",
          "type": "address"
        },
        {
          "internalType": "address",
          "name": "proxy",
          "type": "address"
        }
      ],
      "name": "OnlyProxy",
      "type": "error"
    },
    {
      "inputs": [],
      "name": "OperationFailure",
      "type": "error"
    },
    {
      "inputs": [
        {
          "internalType": "uint256",
          "name": "senderBalance",
          "type": "uint256"
        },
        {
          "internalType": "uint256",
          "name": "fee",
          "type": "uint256"
        },
        {
          "internalType": "uint256",
          "name": "amount",
          "type": "uint256"
        }
      ],
      "name": "TransferUnderflow",
      "type": "error"
    },
    {
      "anonymous": false,
      "inputs": [
        {
          "indexed": true,
          "internalType": "address",
          "name": "owner",
          "type": "address"
        },
        {
          "indexed": true,
          "internalType": "address",
          "name": "spender",
          "type": "address"
        },
        {
          "indexed": false,
          "internalType": "uint256",
          "name": "value",
          "type": "uint256"
        }
      ],
      "name": "Approval",
      "type": "event"
    },
    {
      "anonymous": false,
      "inputs": [
        {
          "indexed": true,
          "internalType": "address",
          "name": "from",
          "type": "address"
        },
        {
          "indexed": true,
          "internalType": "address",
          "name": "to",
          "type": "address"
        },
        {
          "indexed": false,
          "internalType": "uint256",
          "name": "value",
          "type": "uint256"
        }
      ],
      "name": "Transfer",
      "type": "event"
    },
    {
      "inputs": [
        {
          "internalType": "address",
          "name": "owner",
          "type": "address"
        },
        {
          "internalType": "address",
          "name": "spender",
          "type": "address"
        }
      ],
      "name": "allowance",
      "outputs": [
        {
          "internalType": "uint256",
          "name": "",
          "type": "uint256"
        }
      ],
      "stateMutability": "view",
      "type": "function"
    },
    {
      "inputs": [
        {
          "internalType": "address",
          "name": "spender",
          "type": "address"
        },
        {
          "internalType": "uint256",
          "name": "amount",
          "type": "uint256"
        }
      ],
      "name": "approve",
      "outputs": [
        {
          "internalType": "bool",
          "name": "",
          "type": "bool"
        }
      ],
      "stateMutability": "nonpayable",
      "type": "function"
    },
    {
      "inputs": [
        {
          "internalType": "address",
          "name": "account",
          "type": "address"
        }
      ],
      "name": "balanceOf",
      "outputs": [
        {
          "internalType": "uint256",
          "name": "",
          "type": "uint256"
        }
      ],
      "stateMutability": "view",
      "type": "function"
    },
    {
      "inputs": [],
      "name": "baseToken",
      "outputs": [
        {
          "internalType": "address",
          "name": "",
          "type": "address"
        }
      ],
      "stateMutability": "view",
      "type": "function"
    },
    {
      "inputs": [],
      "name": "decimals",
      "outputs": [
        {
          "internalType": "uint8",
          "name": "",
          "type": "uint8"
        }
      ],
      "stateMutability": "view",
      "type": "function"
    },
    {
      "inputs": [
        {
          "internalType": "address",
          "name": "spender",
          "type": "address"
        },
        {
          "internalType": "uint256",
          "name": "subtractedValue",
          "type": "uint256"
        }
      ],
      "name": "decreaseAllowance",
      "outputs": [
        {
          "internalType": "bool",
          "name": "",
          "type": "bool"
        }
      ],
      "stateMutability": "nonpayable",
      "type": "function"
    },
    {
      "inputs": [
        {
          "internalType": "address",
          "name": "spender",
          "type": "address"
        },
        {
          "internalType": "uint256",
          "name": "addedValue",
          "type": "uint256"
        }
      ],
      "name": "increaseAllowance",
      "outputs": [
        {
          "internalType": "bool",
          "name": "",
          "type": "bool"
        }
      ],
      "stateMutability": "nonpayable",
      "type": "function"
    },
    {
      "inputs": [
        {
          "internalType": "address",
          "name": "newProxy",
          "type": "address"
        }
      ],
      "name": "migrateBaseReserveToNewProxy",
      "outputs": [],
      "stateMutability": "nonpayable",
      "type": "function"
    },
    {
      "inputs": [],
      "name": "name",
      "outputs": [
        {
          "internalType": "string",
          "name": "",
          "type": "string"
        }
      ],
      "stateMutability": "view",
      "type": "function"
    },
    {
      "inputs": [],
      "name": "proxyRegistry",
      "outputs": [
        {
          "internalType": "address",
          "name": "",
          "type": "address"
        }
      ],
      "stateMutability": "view",
      "type": "function"
    },
    {
      "inputs": [
        {
          "internalType": "address",
          "name": "proxySource",
          "type": "address"
        },
        {
          "internalType": "address",
          "name": "baseRecipient",
          "type": "address"
        },
        {
          "internalType": "uint256",
          "name": "amount",
          "type": "uint256"
        }
      ],
      "name": "redeem",
      "outputs": [
        {
          "internalType": "uint256",
          "name": "baseAmount",
          "type": "uint256"
        }
      ],
      "stateMutability": "nonpayable",
      "type": "function"
    },
    {
      "inputs": [],
      "name": "redeemRate",
      "outputs": [
        {
          "internalType": "uint256",
          "name": "",
          "type": "uint256"
        }
      ],
      "stateMutability": "view",
      "type": "function"
    },
    {
      "inputs": [],
      "name": "symbol",
      "outputs": [
        {
          "internalType": "string",
          "name": "",
          "type": "string"
        }
      ],
      "stateMutability": "view",
      "type": "function"
    },
    {
      "inputs": [],
      "name": "totalSupply",
      "outputs": [
        {
          "internalType": "uint256",
          "name": "",
          "type": "uint256"
        }
      ],
      "stateMutability": "view",
      "type": "function"
    },
    {
      "inputs": [
        {
          "internalType": "address",
          "name": "recipient",
          "type": "address"
        },
        {
          "internalType": "uint256",
          "name": "amount",
          "type": "uint256"
        }
      ],
      "name": "transfer",
      "outputs": [
        {
          "internalType": "bool",
          "name": "",
          "type": "bool"
        }
      ],
      "stateMutability": "nonpayable",
      "type": "function"
    },
    {
      "inputs": [
        {
          "internalType": "address",
          "name": "sender",
          "type": "address"
        },
        {
          "internalType": "address",
          "name": "recipient",
          "type": "address"
        },
        {
          "internalType": "uint256",
          "name": "amount",
          "type": "uint256"
        }
      ],
      "name": "transferFrom",
      "outputs": [
        {
          "internalType": "bool",
          "name": "",
          "type": "bool"
        }
      ],
      "stateMutability": "nonpayable",
      "type": "function"
    }
  ],
  "bytecode": "0x60c06040523480156200001157600080fd5b5060405162001ea138038062001ea1833981810160405281019062000037919062000391565b8282816003908051906020019062000051929190620000df565b5080600490805190602001906200006a929190620000df565b5050508373ffffffffffffffffffffffffffffffffffffffff1660a08173ffffffffffffffffffffffffffffffffffffffff16815250508073ffffffffffffffffffffffffffffffffffffffff1660808173ffffffffffffffffffffffffffffffffffffffff168152505050505050620004a5565b828054620000ed9062000470565b90600052602060002090601f0160209004810192826200011157600085556200015d565b82601f106200012c57805160ff19168380011785556200015d565b828001600101855582156200015d579182015b828111156200015c5782518255916020019190600101906200013f565b5b5090506200016c919062000170565b5090565b5b808211156200018b57600081600090555060010162000171565b5090565b6000604051905090565b600080fd5b600080fd5b600073ffffffffffffffffffffffffffffffffffffffff82169050919050565b6000620001d082620001a3565b9050919050565b620001e281620001c3565b8114620001ee57600080fd5b50565b6000815190506200020281620001d7565b92915050565b600080fd5b600080fd5b6000601f19601f8301169050919050565b7f4e487b7100000000000000000000000000000000000000000000000000000000600052604160045260246000fd5b6200025d8262000212565b810181811067ffffffffffffffff821117156200027f576200027e62000223565b5b80604052505050565b6000620002946200018f565b9050620002a2828262000252565b919050565b600067ffffffffffffffff821115620002c557620002c462000223565b5b620002d08262000212565b9050602081019050919050565b60005b83811015620002fd578082015181840152602081019050620002e0565b838111156200030d576000848401525b50505050565b60006200032a6200032484620002a7565b62000288565b9050828152602081018484840111156200034957620003486200020d565b5b62000356848285620002dd565b509392505050565b600082601f83011262000376576200037562000208565b5b81516200038884826020860162000313565b91505092915050565b60008060008060808587031215620003ae57620003ad62000199565b5b6000620003be87828801620001f1565b945050602085015167ffffffffffffffff811115620003e257620003e16200019e565b5b620003f0878288016200035e565b935050604085015167ffffffffffffffff8111156200041457620004136200019e565b5b62000422878288016200035e565b92505060606200043587828801620001f1565b91505092959194509250565b7f4e487b7100000000000000000000000000000000000000000000000000000000600052602260045260246000fd5b600060028204905060018216806200048957607f821691505b6020821081036200049f576200049e62000441565b5b50919050565b60805160a0516119b3620004ee60003960008181610421015281816105530152818161096b0152610aca01526000818161094701528181610a160152610a6a01526119b36000f3fe608060405234801561001057600080fd5b50600436106101005760003560e01c806370a0823111610097578063b50cbd9f11610066578063b50cbd9f146102eb578063c55dae6314610309578063dd62ed3e14610327578063ed3b379b1461035757610100565b806370a082311461023d57806395d89b411461026d578063a457c2d71461028b578063a9059cbb146102bb57610100565b806318160ddd116100d357806318160ddd146101a157806323b872dd146101bf578063313ce567146101ef578063395093511461020d57610100565b806306fdde0314610105578063095ea7b3146101235780630adcdbaa146101535780630e6dfcd514610171575b600080fd5b61010d610373565b60405161011a919061133e565b60405180910390f35b61013d600480360381019061013891906113f9565b610405565b60405161014a9190611454565b60405180910390f35b61015b61041c565b604051610168919061147e565b60405180910390f35b61018b60048036038101906101869190611499565b610514565b604051610198919061147e565b60405180910390f35b6101a961059f565b6040516101b6919061147e565b60405180910390f35b6101d960048036038101906101d49190611499565b6105a9565b6040516101e69190611454565b60405180910390f35b6101f76106cc565b6040516102049190611508565b60405180910390f35b610227600480360381019061022291906113f9565b6106d5565b6040516102349190611454565b60405180910390f35b61025760048036038101906102529190611523565b610773565b604051610264919061147e565b60405180910390f35b6102756107bb565b604051610282919061133e565b60405180910390f35b6102a560048036038101906102a091906113f9565b61084d565b6040516102b29190611454565b60405180910390f35b6102d560048036038101906102d091906113f9565b61092e565b6040516102e29190611454565b60405180910390f35b6102f3610945565b604051610300919061155f565b60405180910390f35b610311610969565b60405161031e919061155f565b60405180910390f35b610341600480360381019061033c919061157a565b61098d565b60405161034e919061147e565b60405180910390f35b610371600480360381019061036c9190611523565b610a14565b005b606060038054610382906115e9565b80601f01602080910402602001604051908101604052809291908181526020018280546103ae906115e9565b80156103fb5780601f106103d0576101008083540402835291602001916103fb565b820191906000526020600020905b8154815290600101906020018083116103de57829003601f168201915b5050505050905090565b6000610412338484610be7565b6001905092915050565b6000807f000000000000000000000000000000000000000000000000000000000000000073ffffffffffffffffffffffffffffffffffffffff166370a08231306040518263ffffffff1660e01b8152600401610478919061155f565b602060405180830381865afa158015610495573d6000803e3d6000fd5b505050506040513d601f19601f820116820180604052508101906104b9919061162f565b905060006104c561059f565b14806104d15750600081145b156104e757670de0b6b3a7640000915050610511565b6104ef61059f565b670de0b6b3a764000082610503919061168b565b61050d9190611714565b9150505b90565b60008061051f61041c565b905061052b8584610cd2565b670de0b6b3a76400008184610540919061168b565b61054a9190611714565b915061059784837f000000000000000000000000000000000000000000000000000000000000000073ffffffffffffffffffffffffffffffffffffffff16610e1c9092919063ffffffff16565b509392505050565b6000600254905090565b60006105b6848484610ea2565b6000600160008673ffffffffffffffffffffffffffffffffffffffff1673ffffffffffffffffffffffffffffffffffffffff16815260200190815260200160002060003373ffffffffffffffffffffffffffffffffffffffff1673ffffffffffffffffffffffffffffffffffffffff1681526020019081526020016000205490507fffffffffffffffffffffffffffffffffffffffffffffffffffffffffffffffff811415801561066657508083115b156106aa5780836040517fa92482560000000000000000000000000000000000000000000000000000000081526004016106a1929190611745565b60405180910390fd5b6106c0853385846106bb919061176e565b610be7565b60019150509392505050565b60006012905090565b6000610769338484600160003373ffffffffffffffffffffffffffffffffffffffff1673ffffffffffffffffffffffffffffffffffffffff16815260200190815260200160002060008873ffffffffffffffffffffffffffffffffffffffff1673ffffffffffffffffffffffffffffffffffffffff1681526020019081526020016000205461076491906117a2565b610be7565b6001905092915050565b60008060008373ffffffffffffffffffffffffffffffffffffffff1673ffffffffffffffffffffffffffffffffffffffff168152602001908152602001600020549050919050565b6060600480546107ca906115e9565b80601f01602080910402602001604051908101604052809291908181526020018280546107f6906115e9565b80156108435780601f1061081857610100808354040283529160200191610843565b820191906000526020600020905b81548152906001019060200180831161082657829003601f168201915b5050505050905090565b600080600160003373ffffffffffffffffffffffffffffffffffffffff1673ffffffffffffffffffffffffffffffffffffffff16815260200190815260200160002060008573ffffffffffffffffffffffffffffffffffffffff1673ffffffffffffffffffffffffffffffffffffffff168152602001908152602001600020549050828110156109165780836040517fda2d822c00000000000000000000000000000000000000000000000000000000815260040161090d929190611745565b60405180910390fd5b6109233385858403610be7565b600191505092915050565b600061093b338484610ea2565b6001905092915050565b7f000000000000000000000000000000000000000000000000000000000000000081565b7f000000000000000000000000000000000000000000000000000000000000000081565b6000600160008473ffffffffffffffffffffffffffffffffffffffff1673ffffffffffffffffffffffffffffffffffffffff16815260200190815260200160002060008373ffffffffffffffffffffffffffffffffffffffff1673ffffffffffffffffffffffffffffffffffffffff16815260200190815260200160002054905092915050565b7f000000000000000000000000000000000000000000000000000000000000000073ffffffffffffffffffffffffffffffffffffffff163373ffffffffffffffffffffffffffffffffffffffff1614610ac657337f00000000000000000000000000000000000000000000000000000000000000006040517fd214286f000000000000000000000000000000000000000000000000000000008152600401610abd9291906117f8565b60405180910390fd5b60007f000000000000000000000000000000000000000000000000000000000000000090508073ffffffffffffffffffffffffffffffffffffffff1663a9059cbb838373ffffffffffffffffffffffffffffffffffffffff166370a08231306040518263ffffffff1660e01b8152600401610b41919061155f565b602060405180830381865afa158015610b5e573d6000803e3d6000fd5b505050506040513d601f19601f82011682018060405250810190610b82919061162f565b6040518363ffffffff1660e01b8152600401610b9f929190611821565b6020604051808303816000875af1158015610bbe573d6000803e3d6000fd5b505050506040513d601f19601f82011682018060405250810190610be29190611876565b505050565b80600160008573ffffffffffffffffffffffffffffffffffffffff1673ffffffffffffffffffffffffffffffffffffffff16815260200190815260200160002060008473ffffffffffffffffffffffffffffffffffffffff1673ffffffffffffffffffffffffffffffffffffffff168152602001908152602001600020819055508173ffffffffffffffffffffffffffffffffffffffff168373ffffffffffffffffffffffffffffffffffffffff167f8c5be1e5ebec7d5bd14f71427d1e84f3dd0314c0f7b2291e5b200ac8c7c3b92583604051610cc5919061147e565b60405180910390a3505050565b60008060008473ffffffffffffffffffffffffffffffffffffffff1673ffffffffffffffffffffffffffffffffffffffff16815260200190815260200160002054905081811015610d5c5780826040517f0a37dd41000000000000000000000000000000000000000000000000000000008152600401610d53929190611745565b60405180910390fd5b8181036000808573ffffffffffffffffffffffffffffffffffffffff1673ffffffffffffffffffffffffffffffffffffffff1681526020019081526020016000208190555081600260008282540392505081905550600073ffffffffffffffffffffffffffffffffffffffff168373ffffffffffffffffffffffffffffffffffffffff167fddf252ad1be2c89b69c2b068fc378daa952ba7f163c4a11628f55a4df523b3ef84604051610e0f919061147e565b60405180910390a3505050565b610e9d8363a9059cbb60e01b8484604051602401610e3b929190611821565b604051602081830303815290604052907bffffffffffffffffffffffffffffffffffffffffffffffffffffffff19166020820180517bffffffffffffffffffffffffffffffffffffffffffffffffffffffff838183161783525050505061102b565b505050565b60008060008573ffffffffffffffffffffffffffffffffffffffff1673ffffffffffffffffffffffffffffffffffffffff16815260200190815260200160002054905081811015610f2f57806000836040517f57b9c4a4000000000000000000000000000000000000000000000000000000008152600401610f26939291906118e8565b60405180910390fd5b8181036000808673ffffffffffffffffffffffffffffffffffffffff1673ffffffffffffffffffffffffffffffffffffffff16815260200190815260200160002081905550816000808573ffffffffffffffffffffffffffffffffffffffff1673ffffffffffffffffffffffffffffffffffffffff168152602001908152602001600020600082825401925050819055508273ffffffffffffffffffffffffffffffffffffffff168473ffffffffffffffffffffffffffffffffffffffff167fddf252ad1be2c89b69c2b068fc378daa952ba7f163c4a11628f55a4df523b3ef8460405161101d919061147e565b60405180910390a350505050565b600061108d826040518060400160405280602081526020017f5361666545524332303a206c6f772d6c6576656c2063616c6c206661696c65648152508573ffffffffffffffffffffffffffffffffffffffff166110e99092919063ffffffff16565b90506000815111156110e457808060200190518101906110ad9190611876565b6110e3576040517fa479450200000000000000000000000000000000000000000000000000000000815260040160405180910390fd5b5b505050565b60606110f88484600085611101565b90509392505050565b60608247101561114a5747836040517f02de226f000000000000000000000000000000000000000000000000000000008152600401611141929190611745565b60405180910390fd5b6111538561121b565b61119457846040517f8a8b41ec00000000000000000000000000000000000000000000000000000000815260040161118b919061155f565b60405180910390fd5b6000808673ffffffffffffffffffffffffffffffffffffffff1685876040516111bd9190611966565b60006040518083038185875af1925050503d80600081146111fa576040519150601f19603f3d011682016040523d82523d6000602084013e6111ff565b606091505b509150915061120f82828661123e565b92505050949350505050565b6000808273ffffffffffffffffffffffffffffffffffffffff163b119050919050565b6060831561124e5782905061129e565b6000835111156112615782518084602001fd5b816040517f08c379a0000000000000000000000000000000000000000000000000000000008152600401611295919061133e565b60405180910390fd5b9392505050565b600081519050919050565b600082825260208201905092915050565b60005b838110156112df5780820151818401526020810190506112c4565b838111156112ee576000848401525b50505050565b6000601f19601f8301169050919050565b6000611310826112a5565b61131a81856112b0565b935061132a8185602086016112c1565b611333816112f4565b840191505092915050565b600060208201905081810360008301526113588184611305565b905092915050565b600080fd5b600073ffffffffffffffffffffffffffffffffffffffff82169050919050565b600061139082611365565b9050919050565b6113a081611385565b81146113ab57600080fd5b50565b6000813590506113bd81611397565b92915050565b6000819050919050565b6113d6816113c3565b81146113e157600080fd5b50565b6000813590506113f3816113cd565b92915050565b600080604083850312156114105761140f611360565b5b600061141e858286016113ae565b925050602061142f858286016113e4565b9150509250929050565b60008115159050919050565b61144e81611439565b82525050565b60006020820190506114696000830184611445565b92915050565b611478816113c3565b82525050565b6000602082019050611493600083018461146f565b92915050565b6000806000606084860312156114b2576114b1611360565b5b60006114c0868287016113ae565b93505060206114d1868287016113ae565b92505060406114e2868287016113e4565b9150509250925092565b600060ff82169050919050565b611502816114ec565b82525050565b600060208201905061151d60008301846114f9565b92915050565b60006020828403121561153957611538611360565b5b6000611547848285016113ae565b91505092915050565b61155981611385565b82525050565b60006020820190506115746000830184611550565b92915050565b6000806040838503121561159157611590611360565b5b600061159f858286016113ae565b92505060206115b0858286016113ae565b9150509250929050565b7f4e487b7100000000000000000000000000000000000000000000000000000000600052602260045260246000fd5b6000600282049050600182168061160157607f821691505b602082108103611614576116136115ba565b5b50919050565b600081519050611629816113cd565b92915050565b60006020828403121561164557611644611360565b5b60006116538482850161161a565b91505092915050565b7f4e487b7100000000000000000000000000000000000000000000000000000000600052601160045260246000fd5b6000611696826113c3565b91506116a1836113c3565b9250817fffffffffffffffffffffffffffffffffffffffffffffffffffffffffffffffff04831182151516156116da576116d961165c565b5b828202905092915050565b7f4e487b7100000000000000000000000000000000000000000000000000000000600052601260045260246000fd5b600061171f826113c3565b915061172a836113c3565b92508261173a576117396116e5565b5b828204905092915050565b600060408201905061175a600083018561146f565b611767602083018461146f565b9392505050565b6000611779826113c3565b9150611784836113c3565b9250828210156117975761179661165c565b5b828203905092915050565b60006117ad826113c3565b91506117b8836113c3565b9250827fffffffffffffffffffffffffffffffffffffffffffffffffffffffffffffffff038211156117ed576117ec61165c565b5b828201905092915050565b600060408201905061180d6000830185611550565b61181a6020830184611550565b9392505050565b60006040820190506118366000830185611550565b611843602083018461146f565b9392505050565b61185381611439565b811461185e57600080fd5b50565b6000815190506118708161184a565b92915050565b60006020828403121561188c5761188b611360565b5b600061189a84828501611861565b91505092915050565b6000819050919050565b6000819050919050565b60006118d26118cd6118c8846118a3565b6118ad565b6113c3565b9050919050565b6118e2816118b7565b82525050565b60006060820190506118fd600083018661146f565b61190a60208301856118d9565b611917604083018461146f565b949350505050565b600081519050919050565b600081905092915050565b60006119408261191f565b61194a818561192a565b935061195a8185602086016112c1565b80840191505092915050565b60006119728284611935565b91508190509291505056fea264697066735822122076ec17455f5072ec2885524472199ee51b65e377fd81e9a439bada64b91d992764736f6c634300080d0033",
  "linkReferences": {},
  "deployedLinkReferences": {}
}