{
  "_format": "hh-sol-artifact-1",
  "contractName": "TokenProxyBase",
  "sourceName": "contracts/TokenProxies/TokenProxyBase.sol",
  "abi": [
    {
      "inputs": [
        {
          "internalType": "address",
          "name": "_baseToken",
          "type": "address"
        },
        {
          "internalType": "string",
          "name": "name_",
          "type": "string"
        },
        {
          "internalType": "string",
          "name": "symbol_",
          "type": "string"
        },
        {
          "internalType": "address",
          "name": "registry",
          "type": "address"
        },
        {
          "internalType": "uint256",
          "name": "_initialRedeemRate",
          "type": "uint256"
        }
      ],
      "stateMutability": "nonpayable",
      "type": "constructor"
    },
    {
      "inputs": [
        {
          "internalType": "uint256",
          "name": "allowance",
          "type": "uint256"
        },
        {
          "internalType": "uint256",
          "name": "amount",
          "type": "uint256"
        }
      ],
      "name": "AllowanceExceeded",
      "type": "error"
    },
    {
      "inputs": [
        {
          "internalType": "uint256",
          "name": "allowance",
          "type": "uint256"
        },
        {
          "internalType": "uint256",
          "name": "subtraction",
          "type": "uint256"
        }
      ],
      "name": "AllowanceUnderflow",
      "type": "error"
    },
    {
      "inputs": [
        {
          "internalType": "uint256",
          "name": "accountBalance",
          "type": "uint256"
        },
        {
          "internalType": "uint256",
          "name": "amount",
          "type": "uint256"
        }
      ],
      "name": "BurnUnderflow",
      "type": "error"
    },
    {
      "inputs": [
        {
          "internalType": "uint256",
          "name": "balance",
          "type": "uint256"
        },
        {
          "internalType": "uint256",
          "name": "value",
          "type": "uint256"
        }
      ],
      "name": "InsufficinetFunds",
      "type": "error"
    },
    {
      "inputs": [
        {
          "internalType": "address",
          "name": "EOA",
          "type": "address"
        }
      ],
      "name": "NotAContract",
      "type": "error"
    },
    {
      "inputs": [
        {
          "internalType": "address",
          "name": "sender",
          "type": "address"
        },
        {
          "internalType": "address",
          "name": "proxy",
          "type": "address"
        }
      ],
      "name": "OnlyProxy",
      "type": "error"
    },
    {
      "inputs": [],
      "name": "OperationFailure",
      "type": "error"
    },
    {
      "inputs": [
        {
          "internalType": "uint256",
          "name": "senderBalance",
          "type": "uint256"
        },
        {
          "internalType": "uint256",
          "name": "fee",
          "type": "uint256"
        },
        {
          "internalType": "uint256",
          "name": "amount",
          "type": "uint256"
        }
      ],
      "name": "TransferUnderflow",
      "type": "error"
    },
    {
      "anonymous": false,
      "inputs": [
        {
          "indexed": true,
          "internalType": "address",
          "name": "owner",
          "type": "address"
        },
        {
          "indexed": true,
          "internalType": "address",
          "name": "spender",
          "type": "address"
        },
        {
          "indexed": false,
          "internalType": "uint256",
          "name": "value",
          "type": "uint256"
        }
      ],
      "name": "Approval",
      "type": "event"
    },
    {
      "anonymous": false,
      "inputs": [
        {
          "indexed": true,
          "internalType": "address",
          "name": "from",
          "type": "address"
        },
        {
          "indexed": true,
          "internalType": "address",
          "name": "to",
          "type": "address"
        },
        {
          "indexed": false,
          "internalType": "uint256",
          "name": "value",
          "type": "uint256"
        }
      ],
      "name": "Transfer",
      "type": "event"
    },
    {
      "inputs": [],
      "name": "IS_PROXY",
      "outputs": [
        {
          "internalType": "bool",
          "name": "",
          "type": "bool"
        }
      ],
      "stateMutability": "view",
      "type": "function"
    },
    {
      "inputs": [
        {
          "internalType": "address",
          "name": "owner",
          "type": "address"
        },
        {
          "internalType": "address",
          "name": "spender",
          "type": "address"
        }
      ],
      "name": "allowance",
      "outputs": [
        {
          "internalType": "uint256",
          "name": "",
          "type": "uint256"
        }
      ],
      "stateMutability": "view",
      "type": "function"
    },
    {
      "inputs": [
        {
          "internalType": "address",
          "name": "spender",
          "type": "address"
        },
        {
          "internalType": "uint256",
          "name": "amount",
          "type": "uint256"
        }
      ],
      "name": "approve",
      "outputs": [
        {
          "internalType": "bool",
          "name": "",
          "type": "bool"
        }
      ],
      "stateMutability": "nonpayable",
      "type": "function"
    },
    {
      "inputs": [
        {
          "internalType": "address",
          "name": "account",
          "type": "address"
        }
      ],
      "name": "balanceOf",
      "outputs": [
        {
          "internalType": "uint256",
          "name": "",
          "type": "uint256"
        }
      ],
      "stateMutability": "view",
      "type": "function"
    },
    {
      "inputs": [],
      "name": "baseToken",
      "outputs": [
        {
          "internalType": "address",
          "name": "",
          "type": "address"
        }
      ],
      "stateMutability": "view",
      "type": "function"
    },
    {
      "inputs": [],
      "name": "decimals",
      "outputs": [
        {
          "internalType": "uint8",
          "name": "",
          "type": "uint8"
        }
      ],
      "stateMutability": "view",
      "type": "function"
    },
    {
      "inputs": [
        {
          "internalType": "address",
          "name": "spender",
          "type": "address"
        },
        {
          "internalType": "uint256",
          "name": "subtractedValue",
          "type": "uint256"
        }
      ],
      "name": "decreaseAllowance",
      "outputs": [
        {
          "internalType": "bool",
          "name": "",
          "type": "bool"
        }
      ],
      "stateMutability": "nonpayable",
      "type": "function"
    },
    {
      "inputs": [
        {
          "internalType": "address",
          "name": "spender",
          "type": "address"
        },
        {
          "internalType": "uint256",
          "name": "addedValue",
          "type": "uint256"
        }
      ],
      "name": "increaseAllowance",
      "outputs": [
        {
          "internalType": "bool",
          "name": "",
          "type": "bool"
        }
      ],
      "stateMutability": "nonpayable",
      "type": "function"
    },
    {
      "inputs": [],
      "name": "initialRedeemRate",
      "outputs": [
        {
          "internalType": "uint256",
          "name": "",
          "type": "uint256"
        }
      ],
      "stateMutability": "view",
      "type": "function"
    },
    {
      "inputs": [
        {
          "internalType": "address",
          "name": "newProxy",
          "type": "address"
        }
      ],
      "name": "migrateBaseReserveToNewProxy",
      "outputs": [],
      "stateMutability": "nonpayable",
      "type": "function"
    },
    {
      "inputs": [],
      "name": "name",
      "outputs": [
        {
          "internalType": "string",
          "name": "",
          "type": "string"
        }
      ],
      "stateMutability": "view",
      "type": "function"
    },
    {
      "inputs": [],
      "name": "proxyRegistry",
      "outputs": [
        {
          "internalType": "address",
          "name": "",
          "type": "address"
        }
      ],
      "stateMutability": "view",
      "type": "function"
    },
    {
      "inputs": [
        {
          "internalType": "address",
          "name": "proxySource",
          "type": "address"
        },
        {
          "internalType": "address",
          "name": "baseRecipient",
          "type": "address"
        },
        {
          "internalType": "uint256",
          "name": "amount",
          "type": "uint256"
        }
      ],
      "name": "redeem",
      "outputs": [
        {
          "internalType": "uint256",
          "name": "baseAmount",
          "type": "uint256"
        }
      ],
      "stateMutability": "nonpayable",
      "type": "function"
    },
    {
      "inputs": [],
      "name": "redeemRate",
      "outputs": [
        {
          "internalType": "uint256",
          "name": "",
          "type": "uint256"
        }
      ],
      "stateMutability": "view",
      "type": "function"
    },
    {
      "inputs": [],
      "name": "symbol",
      "outputs": [
        {
          "internalType": "string",
          "name": "",
          "type": "string"
        }
      ],
      "stateMutability": "view",
      "type": "function"
    },
    {
      "inputs": [],
      "name": "totalSupply",
      "outputs": [
        {
          "internalType": "uint256",
          "name": "",
          "type": "uint256"
        }
      ],
      "stateMutability": "view",
      "type": "function"
    },
    {
      "inputs": [
        {
          "internalType": "address",
          "name": "recipient",
          "type": "address"
        },
        {
          "internalType": "uint256",
          "name": "amount",
          "type": "uint256"
        }
      ],
      "name": "transfer",
      "outputs": [
        {
          "internalType": "bool",
          "name": "",
          "type": "bool"
        }
      ],
      "stateMutability": "nonpayable",
      "type": "function"
    },
    {
      "inputs": [
        {
          "internalType": "address",
          "name": "sender",
          "type": "address"
        },
        {
          "internalType": "address",
          "name": "recipient",
          "type": "address"
        },
        {
          "internalType": "uint256",
          "name": "amount",
          "type": "uint256"
        }
      ],
      "name": "transferFrom",
      "outputs": [
        {
          "internalType": "bool",
          "name": "",
          "type": "bool"
        }
      ],
      "stateMutability": "nonpayable",
      "type": "function"
    },
    {
      "inputs": [],
      "name": "withdrawReserve",
      "outputs": [],
      "stateMutability": "nonpayable",
      "type": "function"
    }
  ],
  "bytecode": "0x60e06040523480156200001157600080fd5b50604051620021a6380380620021a68339818101604052810190620000379190620003d5565b8383816003908051906020019062000051929190620000e8565b5080600490805190602001906200006a929190620000e8565b5050508473ffffffffffffffffffffffffffffffffffffffff1660a08173ffffffffffffffffffffffffffffffffffffffff16815250508173ffffffffffffffffffffffffffffffffffffffff1660808173ffffffffffffffffffffffffffffffffffffffff16815250508060c081815250505050505050620004ff565b828054620000f690620004ca565b90600052602060002090601f0160209004810192826200011a576000855562000166565b82601f106200013557805160ff191683800117855562000166565b8280016001018555821562000166579182015b828111156200016557825182559160200191906001019062000148565b5b50905062000175919062000179565b5090565b5b80821115620001945760008160009055506001016200017a565b5090565b6000604051905090565b600080fd5b600080fd5b600073ffffffffffffffffffffffffffffffffffffffff82169050919050565b6000620001d982620001ac565b9050919050565b620001eb81620001cc565b8114620001f757600080fd5b50565b6000815190506200020b81620001e0565b92915050565b600080fd5b600080fd5b6000601f19601f8301169050919050565b7f4e487b7100000000000000000000000000000000000000000000000000000000600052604160045260246000fd5b62000266826200021b565b810181811067ffffffffffffffff821117156200028857620002876200022c565b5b80604052505050565b60006200029d62000198565b9050620002ab82826200025b565b919050565b600067ffffffffffffffff821115620002ce57620002cd6200022c565b5b620002d9826200021b565b9050602081019050919050565b60005b8381101562000306578082015181840152602081019050620002e9565b8381111562000316576000848401525b50505050565b6000620003336200032d84620002b0565b62000291565b90508281526020810184848401111562000352576200035162000216565b5b6200035f848285620002e6565b509392505050565b600082601f8301126200037f576200037e62000211565b5b8151620003918482602086016200031c565b91505092915050565b6000819050919050565b620003af816200039a565b8114620003bb57600080fd5b50565b600081519050620003cf81620003a4565b92915050565b600080600080600060a08688031215620003f457620003f3620001a2565b5b60006200040488828901620001fa565b955050602086015167ffffffffffffffff811115620004285762000427620001a7565b5b620004368882890162000367565b945050604086015167ffffffffffffffff8111156200045a5762000459620001a7565b5b620004688882890162000367565b93505060606200047b88828901620001fa565b92505060806200048e88828901620003be565b9150509295509295909350565b7f4e487b7100000000000000000000000000000000000000000000000000000000600052602260045260246000fd5b60006002820490506001821680620004e357607f821691505b602082108103620004f957620004f86200049b565b5b50919050565b60805160a05160c051611c23620005836000396000818161053f01528181610570015281816105c4015261086c0152600081816104880152818161060201528181610ad001528181610b6a01528181610bd60152610d35015260008181610a1a01528181610a6e01528181610bb201528181610c810152610cd50152611c236000f3fe608060405234801561001057600080fd5b50600436106101215760003560e01c80637376dd79116100ad578063b50cbd9f11610071578063b50cbd9f14610334578063c55dae6314610352578063dd62ed3e14610370578063ed3b379b146103a0578063fbed2d72146103bc57610121565b80637376dd791461028e57806395d89b41146102ac578063a457c2d7146102ca578063a9059cbb146102fa578063ace1fab11461032a57610121565b806318160ddd116100f457806318160ddd146101c257806323b872dd146101e0578063313ce56714610210578063395093511461022e57806370a082311461025e57610121565b806306fdde0314610126578063095ea7b3146101445780630adcdbaa146101745780630e6dfcd514610192575b600080fd5b61012e6103da565b60405161013b91906115ae565b60405180910390f35b61015e60048036038101906101599190611669565b61046c565b60405161016b91906116c4565b60405180910390f35b61017c610483565b60405161018991906116ee565b60405180910390f35b6101ac60048036038101906101a79190611709565b6105ab565b6040516101b991906116ee565b60405180910390f35b6101ca61064e565b6040516101d791906116ee565b60405180910390f35b6101fa60048036038101906101f59190611709565b610658565b60405161020791906116c4565b60405180910390f35b61021861077b565b6040516102259190611778565b60405180910390f35b61024860048036038101906102439190611669565b610784565b60405161025591906116c4565b60405180910390f35b61027860048036038101906102739190611793565b610822565b60405161028591906116ee565b60405180910390f35b61029661086a565b6040516102a391906116ee565b60405180910390f35b6102b461088e565b6040516102c191906115ae565b60405180910390f35b6102e460048036038101906102df9190611669565b610920565b6040516102f191906116c4565b60405180910390f35b610314600480360381019061030f9190611669565b610a01565b60405161032191906116c4565b60405180910390f35b610332610a18565b005b61033c610bb0565b60405161034991906117cf565b60405180910390f35b61035a610bd4565b60405161036791906117cf565b60405180910390f35b61038a600480360381019061038591906117ea565b610bf8565b60405161039791906116ee565b60405180910390f35b6103ba60048036038101906103b59190611793565b610c7f565b005b6103c4610e52565b6040516103d191906116c4565b60405180910390f35b6060600380546103e990611859565b80601f016020809104026020016040519081016040528092919081815260200182805461041590611859565b80156104625780601f1061043757610100808354040283529160200191610462565b820191906000526020600020905b81548152906001019060200180831161044557829003601f168201915b5050505050905090565b6000610479338484610e57565b6001905092915050565b6000807f000000000000000000000000000000000000000000000000000000000000000073ffffffffffffffffffffffffffffffffffffffff166370a08231306040518263ffffffff1660e01b81526004016104df91906117cf565b602060405180830381865afa1580156104fc573d6000803e3d6000fd5b505050506040513d601f19601f82011682018060405250810190610520919061189f565b9050600061052c61064e565b14806105385750600081145b15610566577f00000000000000000000000000000000000000000000000000000000000000009150506105a8565b61056e61064e565b7f00000000000000000000000000000000000000000000000000000000000000008261059a91906118fb565b6105a49190611984565b9150505b90565b6000806105b6610483565b90506105c28584610f42565b7f000000000000000000000000000000000000000000000000000000000000000081846105ef91906118fb565b6105f99190611984565b915061064684837f000000000000000000000000000000000000000000000000000000000000000073ffffffffffffffffffffffffffffffffffffffff1661108c9092919063ffffffff16565b509392505050565b6000600254905090565b6000610665848484611112565b6000600160008673ffffffffffffffffffffffffffffffffffffffff1673ffffffffffffffffffffffffffffffffffffffff16815260200190815260200160002060003373ffffffffffffffffffffffffffffffffffffffff1673ffffffffffffffffffffffffffffffffffffffff1681526020019081526020016000205490507fffffffffffffffffffffffffffffffffffffffffffffffffffffffffffffffff811415801561071557508083115b156107595780836040517fa92482560000000000000000000000000000000000000000000000000000000081526004016107509291906119b5565b60405180910390fd5b61076f8533858461076a91906119de565b610e57565b60019150509392505050565b60006012905090565b6000610818338484600160003373ffffffffffffffffffffffffffffffffffffffff1673ffffffffffffffffffffffffffffffffffffffff16815260200190815260200160002060008873ffffffffffffffffffffffffffffffffffffffff1673ffffffffffffffffffffffffffffffffffffffff168152602001908152602001600020546108139190611a12565b610e57565b6001905092915050565b60008060008373ffffffffffffffffffffffffffffffffffffffff1673ffffffffffffffffffffffffffffffffffffffff168152602001908152602001600020549050919050565b7f000000000000000000000000000000000000000000000000000000000000000081565b60606004805461089d90611859565b80601f01602080910402602001604051908101604052809291908181526020018280546108c990611859565b80156109165780601f106108eb57610100808354040283529160200191610916565b820191906000526020600020905b8154815290600101906020018083116108f957829003601f168201915b5050505050905090565b600080600160003373ffffffffffffffffffffffffffffffffffffffff1673ffffffffffffffffffffffffffffffffffffffff16815260200190815260200160002060008573ffffffffffffffffffffffffffffffffffffffff1673ffffffffffffffffffffffffffffffffffffffff168152602001908152602001600020549050828110156109e95780836040517fda2d822c0000000000000000000000000000000000000000000000000000000081526004016109e09291906119b5565b60405180910390fd5b6109f63385858403610e57565b600191505092915050565b6000610a0e338484611112565b6001905092915050565b7f000000000000000000000000000000000000000000000000000000000000000073ffffffffffffffffffffffffffffffffffffffff163373ffffffffffffffffffffffffffffffffffffffff1614610aca57337f00000000000000000000000000000000000000000000000000000000000000006040517fd214286f000000000000000000000000000000000000000000000000000000008152600401610ac1929190611a68565b60405180910390fd5b610bae337f000000000000000000000000000000000000000000000000000000000000000073ffffffffffffffffffffffffffffffffffffffff166370a08231306040518263ffffffff1660e01b8152600401610b2791906117cf565b602060405180830381865afa158015610b44573d6000803e3d6000fd5b505050506040513d601f19601f82011682018060405250810190610b68919061189f565b7f000000000000000000000000000000000000000000000000000000000000000073ffffffffffffffffffffffffffffffffffffffff1661108c9092919063ffffffff16565b565b7f000000000000000000000000000000000000000000000000000000000000000081565b7f000000000000000000000000000000000000000000000000000000000000000081565b6000600160008473ffffffffffffffffffffffffffffffffffffffff1673ffffffffffffffffffffffffffffffffffffffff16815260200190815260200160002060008373ffffffffffffffffffffffffffffffffffffffff1673ffffffffffffffffffffffffffffffffffffffff16815260200190815260200160002054905092915050565b7f000000000000000000000000000000000000000000000000000000000000000073ffffffffffffffffffffffffffffffffffffffff163373ffffffffffffffffffffffffffffffffffffffff1614610d3157337f00000000000000000000000000000000000000000000000000000000000000006040517fd214286f000000000000000000000000000000000000000000000000000000008152600401610d28929190611a68565b60405180910390fd5b60007f000000000000000000000000000000000000000000000000000000000000000090508073ffffffffffffffffffffffffffffffffffffffff1663a9059cbb838373ffffffffffffffffffffffffffffffffffffffff166370a08231306040518263ffffffff1660e01b8152600401610dac91906117cf565b602060405180830381865afa158015610dc9573d6000803e3d6000fd5b505050506040513d601f19601f82011682018060405250810190610ded919061189f565b6040518363ffffffff1660e01b8152600401610e0a929190611a91565b6020604051808303816000875af1158015610e29573d6000803e3d6000fd5b505050506040513d601f19601f82011682018060405250810190610e4d9190611ae6565b505050565b600181565b80600160008573ffffffffffffffffffffffffffffffffffffffff1673ffffffffffffffffffffffffffffffffffffffff16815260200190815260200160002060008473ffffffffffffffffffffffffffffffffffffffff1673ffffffffffffffffffffffffffffffffffffffff168152602001908152602001600020819055508173ffffffffffffffffffffffffffffffffffffffff168373ffffffffffffffffffffffffffffffffffffffff167f8c5be1e5ebec7d5bd14f71427d1e84f3dd0314c0f7b2291e5b200ac8c7c3b92583604051610f3591906116ee565b60405180910390a3505050565b60008060008473ffffffffffffffffffffffffffffffffffffffff1673ffffffffffffffffffffffffffffffffffffffff16815260200190815260200160002054905081811015610fcc5780826040517f0a37dd41000000000000000000000000000000000000000000000000000000008152600401610fc39291906119b5565b60405180910390fd5b8181036000808573ffffffffffffffffffffffffffffffffffffffff1673ffffffffffffffffffffffffffffffffffffffff1681526020019081526020016000208190555081600260008282540392505081905550600073ffffffffffffffffffffffffffffffffffffffff168373ffffffffffffffffffffffffffffffffffffffff167fddf252ad1be2c89b69c2b068fc378daa952ba7f163c4a11628f55a4df523b3ef8460405161107f91906116ee565b60405180910390a3505050565b61110d8363a9059cbb60e01b84846040516024016110ab929190611a91565b604051602081830303815290604052907bffffffffffffffffffffffffffffffffffffffffffffffffffffffff19166020820180517bffffffffffffffffffffffffffffffffffffffffffffffffffffffff838183161783525050505061129b565b505050565b60008060008573ffffffffffffffffffffffffffffffffffffffff1673ffffffffffffffffffffffffffffffffffffffff1681526020019081526020016000205490508181101561119f57806000836040517f57b9c4a400000000000000000000000000000000000000000000000000000000815260040161119693929190611b58565b60405180910390fd5b8181036000808673ffffffffffffffffffffffffffffffffffffffff1673ffffffffffffffffffffffffffffffffffffffff16815260200190815260200160002081905550816000808573ffffffffffffffffffffffffffffffffffffffff1673ffffffffffffffffffffffffffffffffffffffff168152602001908152602001600020600082825401925050819055508273ffffffffffffffffffffffffffffffffffffffff168473ffffffffffffffffffffffffffffffffffffffff167fddf252ad1be2c89b69c2b068fc378daa952ba7f163c4a11628f55a4df523b3ef8460405161128d91906116ee565b60405180910390a350505050565b60006112fd826040518060400160405280602081526020017f5361666545524332303a206c6f772d6c6576656c2063616c6c206661696c65648152508573ffffffffffffffffffffffffffffffffffffffff166113599092919063ffffffff16565b9050600081511115611354578080602001905181019061131d9190611ae6565b611353576040517fa479450200000000000000000000000000000000000000000000000000000000815260040160405180910390fd5b5b505050565b60606113688484600085611371565b90509392505050565b6060824710156113ba5747836040517f02de226f0000000000000000000000000000000000000000000000000000000081526004016113b19291906119b5565b60405180910390fd5b6113c38561148b565b61140457846040517f8a8b41ec0000000000000000000000000000000000000000000000000000000081526004016113fb91906117cf565b60405180910390fd5b6000808673ffffffffffffffffffffffffffffffffffffffff16858760405161142d9190611bd6565b60006040518083038185875af1925050503d806000811461146a576040519150601f19603f3d011682016040523d82523d6000602084013e61146f565b606091505b509150915061147f8282866114ae565b92505050949350505050565b6000808273ffffffffffffffffffffffffffffffffffffffff163b119050919050565b606083156114be5782905061150e565b6000835111156114d15782518084602001fd5b816040517f08c379a000000000000000000000000000000000000000000000000000000000815260040161150591906115ae565b60405180910390fd5b9392505050565b600081519050919050565b600082825260208201905092915050565b60005b8381101561154f578082015181840152602081019050611534565b8381111561155e576000848401525b50505050565b6000601f19601f8301169050919050565b600061158082611515565b61158a8185611520565b935061159a818560208601611531565b6115a381611564565b840191505092915050565b600060208201905081810360008301526115c88184611575565b905092915050565b600080fd5b600073ffffffffffffffffffffffffffffffffffffffff82169050919050565b6000611600826115d5565b9050919050565b611610816115f5565b811461161b57600080fd5b50565b60008135905061162d81611607565b92915050565b6000819050919050565b61164681611633565b811461165157600080fd5b50565b6000813590506116638161163d565b92915050565b600080604083850312156116805761167f6115d0565b5b600061168e8582860161161e565b925050602061169f85828601611654565b9150509250929050565b60008115159050919050565b6116be816116a9565b82525050565b60006020820190506116d960008301846116b5565b92915050565b6116e881611633565b82525050565b600060208201905061170360008301846116df565b92915050565b600080600060608486031215611722576117216115d0565b5b60006117308682870161161e565b93505060206117418682870161161e565b925050604061175286828701611654565b9150509250925092565b600060ff82169050919050565b6117728161175c565b82525050565b600060208201905061178d6000830184611769565b92915050565b6000602082840312156117a9576117a86115d0565b5b60006117b78482850161161e565b91505092915050565b6117c9816115f5565b82525050565b60006020820190506117e460008301846117c0565b92915050565b60008060408385031215611801576118006115d0565b5b600061180f8582860161161e565b92505060206118208582860161161e565b9150509250929050565b7f4e487b7100000000000000000000000000000000000000000000000000000000600052602260045260246000fd5b6000600282049050600182168061187157607f821691505b6020821081036118845761188361182a565b5b50919050565b6000815190506118998161163d565b92915050565b6000602082840312156118b5576118b46115d0565b5b60006118c38482850161188a565b91505092915050565b7f4e487b7100000000000000000000000000000000000000000000000000000000600052601160045260246000fd5b600061190682611633565b915061191183611633565b9250817fffffffffffffffffffffffffffffffffffffffffffffffffffffffffffffffff048311821515161561194a576119496118cc565b5b828202905092915050565b7f4e487b7100000000000000000000000000000000000000000000000000000000600052601260045260246000fd5b600061198f82611633565b915061199a83611633565b9250826119aa576119a9611955565b5b828204905092915050565b60006040820190506119ca60008301856116df565b6119d760208301846116df565b9392505050565b60006119e982611633565b91506119f483611633565b925082821015611a0757611a066118cc565b5b828203905092915050565b6000611a1d82611633565b9150611a2883611633565b9250827fffffffffffffffffffffffffffffffffffffffffffffffffffffffffffffffff03821115611a5d57611a5c6118cc565b5b828201905092915050565b6000604082019050611a7d60008301856117c0565b611a8a60208301846117c0565b9392505050565b6000604082019050611aa660008301856117c0565b611ab360208301846116df565b9392505050565b611ac3816116a9565b8114611ace57600080fd5b50565b600081519050611ae081611aba565b92915050565b600060208284031215611afc57611afb6115d0565b5b6000611b0a84828501611ad1565b91505092915050565b6000819050919050565b6000819050919050565b6000611b42611b3d611b3884611b13565b611b1d565b611633565b9050919050565b611b5281611b27565b82525050565b6000606082019050611b6d60008301866116df565b611b7a6020830185611b49565b611b8760408301846116df565b949350505050565b600081519050919050565b600081905092915050565b6000611bb082611b8f565b611bba8185611b9a565b9350611bca818560208601611531565b80840191505092915050565b6000611be28284611ba5565b91508190509291505056fea264697066735822122012e1ad30a7a68330a266b842e2461bf06ad6619d4b197e5f2917dd0b16a92f1564736f6c634300080d0033",
  "linkReferences": {},
  "deployedLinkReferences": {}
}