{
  "_format": "hh-sol-artifact-1",
  "contractName": "TokenProxyBase",
  "sourceName": "contracts/TokenProxies/TokenProxyBase.sol",
  "abi": [
    {
      "inputs": [
        {
          "internalType": "address",
          "name": "_baseToken",
          "type": "address"
        },
        {
          "internalType": "string",
          "name": "name_",
          "type": "string"
        },
        {
          "internalType": "string",
          "name": "symbol_",
          "type": "string"
        },
        {
          "internalType": "address",
          "name": "registry",
          "type": "address"
        },
        {
          "internalType": "uint256",
          "name": "_initialRedeemRate",
          "type": "uint256"
        }
      ],
      "stateMutability": "nonpayable",
      "type": "constructor"
    },
    {
      "inputs": [
        {
          "internalType": "uint256",
          "name": "allowance",
          "type": "uint256"
        },
        {
          "internalType": "uint256",
          "name": "amount",
          "type": "uint256"
        }
      ],
      "name": "AllowanceExceeded",
      "type": "error"
    },
    {
      "inputs": [
        {
          "internalType": "uint256",
          "name": "allowance",
          "type": "uint256"
        },
        {
          "internalType": "uint256",
          "name": "subtraction",
          "type": "uint256"
        }
      ],
      "name": "AllowanceUnderflow",
      "type": "error"
    },
    {
      "inputs": [
        {
          "internalType": "uint256",
          "name": "accountBalance",
          "type": "uint256"
        },
        {
          "internalType": "uint256",
          "name": "amount",
          "type": "uint256"
        }
      ],
      "name": "BurnUnderflow",
      "type": "error"
    },
    {
      "inputs": [
        {
          "internalType": "uint256",
          "name": "balance",
          "type": "uint256"
        },
        {
          "internalType": "uint256",
          "name": "value",
          "type": "uint256"
        }
      ],
      "name": "InsufficinetFunds",
      "type": "error"
    },
    {
      "inputs": [
        {
          "internalType": "address",
          "name": "EOA",
          "type": "address"
        }
      ],
      "name": "NotAContract",
      "type": "error"
    },
    {
      "inputs": [
        {
          "internalType": "address",
          "name": "sender",
          "type": "address"
        },
        {
          "internalType": "address",
          "name": "proxy",
          "type": "address"
        }
      ],
      "name": "OnlyProxy",
      "type": "error"
    },
    {
      "inputs": [],
      "name": "OperationFailure",
      "type": "error"
    },
    {
      "inputs": [
        {
          "internalType": "uint256",
          "name": "senderBalance",
          "type": "uint256"
        },
        {
          "internalType": "uint256",
          "name": "fee",
          "type": "uint256"
        },
        {
          "internalType": "uint256",
          "name": "amount",
          "type": "uint256"
        }
      ],
      "name": "TransferUnderflow",
      "type": "error"
    },
    {
      "anonymous": false,
      "inputs": [
        {
          "indexed": true,
          "internalType": "address",
          "name": "owner",
          "type": "address"
        },
        {
          "indexed": true,
          "internalType": "address",
          "name": "spender",
          "type": "address"
        },
        {
          "indexed": false,
          "internalType": "uint256",
          "name": "value",
          "type": "uint256"
        }
      ],
      "name": "Approval",
      "type": "event"
    },
    {
      "anonymous": false,
      "inputs": [
        {
          "indexed": true,
          "internalType": "address",
          "name": "from",
          "type": "address"
        },
        {
          "indexed": true,
          "internalType": "address",
          "name": "to",
          "type": "address"
        },
        {
          "indexed": false,
          "internalType": "uint256",
          "name": "value",
          "type": "uint256"
        }
      ],
      "name": "Transfer",
      "type": "event"
    },
    {
      "inputs": [
        {
          "internalType": "address",
          "name": "owner",
          "type": "address"
        },
        {
          "internalType": "address",
          "name": "spender",
          "type": "address"
        }
      ],
      "name": "allowance",
      "outputs": [
        {
          "internalType": "uint256",
          "name": "",
          "type": "uint256"
        }
      ],
      "stateMutability": "view",
      "type": "function"
    },
    {
      "inputs": [
        {
          "internalType": "address",
          "name": "spender",
          "type": "address"
        },
        {
          "internalType": "uint256",
          "name": "amount",
          "type": "uint256"
        }
      ],
      "name": "approve",
      "outputs": [
        {
          "internalType": "bool",
          "name": "",
          "type": "bool"
        }
      ],
      "stateMutability": "nonpayable",
      "type": "function"
    },
    {
      "inputs": [
        {
          "internalType": "address",
          "name": "account",
          "type": "address"
        }
      ],
      "name": "balanceOf",
      "outputs": [
        {
          "internalType": "uint256",
          "name": "",
          "type": "uint256"
        }
      ],
      "stateMutability": "view",
      "type": "function"
    },
    {
      "inputs": [],
      "name": "baseToken",
      "outputs": [
        {
          "internalType": "address",
          "name": "",
          "type": "address"
        }
      ],
      "stateMutability": "view",
      "type": "function"
    },
    {
      "inputs": [],
      "name": "decimals",
      "outputs": [
        {
          "internalType": "uint8",
          "name": "",
          "type": "uint8"
        }
      ],
      "stateMutability": "view",
      "type": "function"
    },
    {
      "inputs": [
        {
          "internalType": "address",
          "name": "spender",
          "type": "address"
        },
        {
          "internalType": "uint256",
          "name": "subtractedValue",
          "type": "uint256"
        }
      ],
      "name": "decreaseAllowance",
      "outputs": [
        {
          "internalType": "bool",
          "name": "",
          "type": "bool"
        }
      ],
      "stateMutability": "nonpayable",
      "type": "function"
    },
    {
      "inputs": [
        {
          "internalType": "address",
          "name": "spender",
          "type": "address"
        },
        {
          "internalType": "uint256",
          "name": "addedValue",
          "type": "uint256"
        }
      ],
      "name": "increaseAllowance",
      "outputs": [
        {
          "internalType": "bool",
          "name": "",
          "type": "bool"
        }
      ],
      "stateMutability": "nonpayable",
      "type": "function"
    },
    {
      "inputs": [],
      "name": "initialRedeemRate",
      "outputs": [
        {
          "internalType": "uint256",
          "name": "",
          "type": "uint256"
        }
      ],
      "stateMutability": "view",
      "type": "function"
    },
    {
      "inputs": [
        {
          "internalType": "address",
          "name": "newProxy",
          "type": "address"
        }
      ],
      "name": "migrateBaseReserveToNewProxy",
      "outputs": [],
      "stateMutability": "nonpayable",
      "type": "function"
    },
    {
      "inputs": [],
      "name": "name",
      "outputs": [
        {
          "internalType": "string",
          "name": "",
          "type": "string"
        }
      ],
      "stateMutability": "view",
      "type": "function"
    },
    {
      "inputs": [],
      "name": "proxyRegistry",
      "outputs": [
        {
          "internalType": "address",
          "name": "",
          "type": "address"
        }
      ],
      "stateMutability": "view",
      "type": "function"
    },
    {
      "inputs": [
        {
          "internalType": "address",
          "name": "proxySource",
          "type": "address"
        },
        {
          "internalType": "address",
          "name": "baseRecipient",
          "type": "address"
        },
        {
          "internalType": "uint256",
          "name": "amount",
          "type": "uint256"
        }
      ],
      "name": "redeem",
      "outputs": [
        {
          "internalType": "uint256",
          "name": "baseAmount",
          "type": "uint256"
        }
      ],
      "stateMutability": "nonpayable",
      "type": "function"
    },
    {
      "inputs": [],
      "name": "redeemRate",
      "outputs": [
        {
          "internalType": "uint256",
          "name": "",
          "type": "uint256"
        }
      ],
      "stateMutability": "view",
      "type": "function"
    },
    {
      "inputs": [],
      "name": "symbol",
      "outputs": [
        {
          "internalType": "string",
          "name": "",
          "type": "string"
        }
      ],
      "stateMutability": "view",
      "type": "function"
    },
    {
      "inputs": [],
      "name": "totalSupply",
      "outputs": [
        {
          "internalType": "uint256",
          "name": "",
          "type": "uint256"
        }
      ],
      "stateMutability": "view",
      "type": "function"
    },
    {
      "inputs": [
        {
          "internalType": "address",
          "name": "recipient",
          "type": "address"
        },
        {
          "internalType": "uint256",
          "name": "amount",
          "type": "uint256"
        }
      ],
      "name": "transfer",
      "outputs": [
        {
          "internalType": "bool",
          "name": "",
          "type": "bool"
        }
      ],
      "stateMutability": "nonpayable",
      "type": "function"
    },
    {
      "inputs": [
        {
          "internalType": "address",
          "name": "sender",
          "type": "address"
        },
        {
          "internalType": "address",
          "name": "recipient",
          "type": "address"
        },
        {
          "internalType": "uint256",
          "name": "amount",
          "type": "uint256"
        }
      ],
      "name": "transferFrom",
      "outputs": [
        {
          "internalType": "bool",
          "name": "",
          "type": "bool"
        }
      ],
      "stateMutability": "nonpayable",
      "type": "function"
    }
  ],
  "bytecode": "0x60e06040523480156200001157600080fd5b5060405162001faf38038062001faf8339818101604052810190620000379190620003d5565b8383816003908051906020019062000051929190620000e8565b5080600490805190602001906200006a929190620000e8565b5050508473ffffffffffffffffffffffffffffffffffffffff1660a08173ffffffffffffffffffffffffffffffffffffffff16815250508173ffffffffffffffffffffffffffffffffffffffff1660808173ffffffffffffffffffffffffffffffffffffffff16815250508060c081815250505050505050620004ff565b828054620000f690620004ca565b90600052602060002090601f0160209004810192826200011a576000855562000166565b82601f106200013557805160ff191683800117855562000166565b8280016001018555821562000166579182015b828111156200016557825182559160200191906001019062000148565b5b50905062000175919062000179565b5090565b5b80821115620001945760008160009055506001016200017a565b5090565b6000604051905090565b600080fd5b600080fd5b600073ffffffffffffffffffffffffffffffffffffffff82169050919050565b6000620001d982620001ac565b9050919050565b620001eb81620001cc565b8114620001f757600080fd5b50565b6000815190506200020b81620001e0565b92915050565b600080fd5b600080fd5b6000601f19601f8301169050919050565b7f4e487b7100000000000000000000000000000000000000000000000000000000600052604160045260246000fd5b62000266826200021b565b810181811067ffffffffffffffff821117156200028857620002876200022c565b5b80604052505050565b60006200029d62000198565b9050620002ab82826200025b565b919050565b600067ffffffffffffffff821115620002ce57620002cd6200022c565b5b620002d9826200021b565b9050602081019050919050565b60005b8381101562000306578082015181840152602081019050620002e9565b8381111562000316576000848401525b50505050565b6000620003336200032d84620002b0565b62000291565b90508281526020810184848401111562000352576200035162000216565b5b6200035f848285620002e6565b509392505050565b600082601f8301126200037f576200037e62000211565b5b8151620003918482602086016200031c565b91505092915050565b6000819050919050565b620003af816200039a565b8114620003bb57600080fd5b50565b600081519050620003cf81620003a4565b92915050565b600080600080600060a08688031215620003f457620003f3620001a2565b5b60006200040488828901620001fa565b955050602086015167ffffffffffffffff811115620004285762000427620001a7565b5b620004368882890162000367565b945050604086015167ffffffffffffffff8111156200045a5762000459620001a7565b5b620004688882890162000367565b93505060606200047b88828901620001fa565b92505060806200048e88828901620003be565b9150509295509295909350565b7f4e487b7100000000000000000000000000000000000000000000000000000000600052602260045260246000fd5b60006002820490506001821680620004e357607f821691505b602082108103620004f957620004f86200049b565b5b50919050565b60805160a05160c051611a4862000567600039600081816105010152818161053201528181610586015261082e01526000818161044a015281816105c401528181610a000152610b5f0152600081816109dc01528181610aab0152610aff0152611a486000f3fe608060405234801561001057600080fd5b506004361061010b5760003560e01c806370a08231116100a2578063a9059cbb11610071578063a9059cbb146102e4578063b50cbd9f14610314578063c55dae6314610332578063dd62ed3e14610350578063ed3b379b146103805761010b565b806370a08231146102485780637376dd791461027857806395d89b4114610296578063a457c2d7146102b45761010b565b806318160ddd116100de57806318160ddd146101ac57806323b872dd146101ca578063313ce567146101fa57806339509351146102185761010b565b806306fdde0314610110578063095ea7b31461012e5780630adcdbaa1461015e5780630e6dfcd51461017c575b600080fd5b61011861039c565b60405161012591906113d3565b60405180910390f35b6101486004803603810190610143919061148e565b61042e565b60405161015591906114e9565b60405180910390f35b610166610445565b6040516101739190611513565b60405180910390f35b6101966004803603810190610191919061152e565b61056d565b6040516101a39190611513565b60405180910390f35b6101b4610610565b6040516101c19190611513565b60405180910390f35b6101e460048036038101906101df919061152e565b61061a565b6040516101f191906114e9565b60405180910390f35b61020261073d565b60405161020f919061159d565b60405180910390f35b610232600480360381019061022d919061148e565b610746565b60405161023f91906114e9565b60405180910390f35b610262600480360381019061025d91906115b8565b6107e4565b60405161026f9190611513565b60405180910390f35b61028061082c565b60405161028d9190611513565b60405180910390f35b61029e610850565b6040516102ab91906113d3565b60405180910390f35b6102ce60048036038101906102c9919061148e565b6108e2565b6040516102db91906114e9565b60405180910390f35b6102fe60048036038101906102f9919061148e565b6109c3565b60405161030b91906114e9565b60405180910390f35b61031c6109da565b60405161032991906115f4565b60405180910390f35b61033a6109fe565b60405161034791906115f4565b60405180910390f35b61036a6004803603810190610365919061160f565b610a22565b6040516103779190611513565b60405180910390f35b61039a600480360381019061039591906115b8565b610aa9565b005b6060600380546103ab9061167e565b80601f01602080910402602001604051908101604052809291908181526020018280546103d79061167e565b80156104245780601f106103f957610100808354040283529160200191610424565b820191906000526020600020905b81548152906001019060200180831161040757829003601f168201915b5050505050905090565b600061043b338484610c7c565b6001905092915050565b6000807f000000000000000000000000000000000000000000000000000000000000000073ffffffffffffffffffffffffffffffffffffffff166370a08231306040518263ffffffff1660e01b81526004016104a191906115f4565b602060405180830381865afa1580156104be573d6000803e3d6000fd5b505050506040513d601f19601f820116820180604052508101906104e291906116c4565b905060006104ee610610565b14806104fa5750600081145b15610528577f000000000000000000000000000000000000000000000000000000000000000091505061056a565b610530610610565b7f00000000000000000000000000000000000000000000000000000000000000008261055c9190611720565b61056691906117a9565b9150505b90565b600080610578610445565b90506105848584610d67565b7f000000000000000000000000000000000000000000000000000000000000000081846105b19190611720565b6105bb91906117a9565b915061060884837f000000000000000000000000000000000000000000000000000000000000000073ffffffffffffffffffffffffffffffffffffffff16610eb19092919063ffffffff16565b509392505050565b6000600254905090565b6000610627848484610f37565b6000600160008673ffffffffffffffffffffffffffffffffffffffff1673ffffffffffffffffffffffffffffffffffffffff16815260200190815260200160002060003373ffffffffffffffffffffffffffffffffffffffff1673ffffffffffffffffffffffffffffffffffffffff1681526020019081526020016000205490507fffffffffffffffffffffffffffffffffffffffffffffffffffffffffffffffff81141580156106d757508083115b1561071b5780836040517fa92482560000000000000000000000000000000000000000000000000000000081526004016107129291906117da565b60405180910390fd5b6107318533858461072c9190611803565b610c7c565b60019150509392505050565b60006012905090565b60006107da338484600160003373ffffffffffffffffffffffffffffffffffffffff1673ffffffffffffffffffffffffffffffffffffffff16815260200190815260200160002060008873ffffffffffffffffffffffffffffffffffffffff1673ffffffffffffffffffffffffffffffffffffffff168152602001908152602001600020546107d59190611837565b610c7c565b6001905092915050565b60008060008373ffffffffffffffffffffffffffffffffffffffff1673ffffffffffffffffffffffffffffffffffffffff168152602001908152602001600020549050919050565b7f000000000000000000000000000000000000000000000000000000000000000081565b60606004805461085f9061167e565b80601f016020809104026020016040519081016040528092919081815260200182805461088b9061167e565b80156108d85780601f106108ad576101008083540402835291602001916108d8565b820191906000526020600020905b8154815290600101906020018083116108bb57829003601f168201915b5050505050905090565b600080600160003373ffffffffffffffffffffffffffffffffffffffff1673ffffffffffffffffffffffffffffffffffffffff16815260200190815260200160002060008573ffffffffffffffffffffffffffffffffffffffff1673ffffffffffffffffffffffffffffffffffffffff168152602001908152602001600020549050828110156109ab5780836040517fda2d822c0000000000000000000000000000000000000000000000000000000081526004016109a29291906117da565b60405180910390fd5b6109b83385858403610c7c565b600191505092915050565b60006109d0338484610f37565b6001905092915050565b7f000000000000000000000000000000000000000000000000000000000000000081565b7f000000000000000000000000000000000000000000000000000000000000000081565b6000600160008473ffffffffffffffffffffffffffffffffffffffff1673ffffffffffffffffffffffffffffffffffffffff16815260200190815260200160002060008373ffffffffffffffffffffffffffffffffffffffff1673ffffffffffffffffffffffffffffffffffffffff16815260200190815260200160002054905092915050565b7f000000000000000000000000000000000000000000000000000000000000000073ffffffffffffffffffffffffffffffffffffffff163373ffffffffffffffffffffffffffffffffffffffff1614610b5b57337f00000000000000000000000000000000000000000000000000000000000000006040517fd214286f000000000000000000000000000000000000000000000000000000008152600401610b5292919061188d565b60405180910390fd5b60007f000000000000000000000000000000000000000000000000000000000000000090508073ffffffffffffffffffffffffffffffffffffffff1663a9059cbb838373ffffffffffffffffffffffffffffffffffffffff166370a08231306040518263ffffffff1660e01b8152600401610bd691906115f4565b602060405180830381865afa158015610bf3573d6000803e3d6000fd5b505050506040513d601f19601f82011682018060405250810190610c1791906116c4565b6040518363ffffffff1660e01b8152600401610c349291906118b6565b6020604051808303816000875af1158015610c53573d6000803e3d6000fd5b505050506040513d601f19601f82011682018060405250810190610c77919061190b565b505050565b80600160008573ffffffffffffffffffffffffffffffffffffffff1673ffffffffffffffffffffffffffffffffffffffff16815260200190815260200160002060008473ffffffffffffffffffffffffffffffffffffffff1673ffffffffffffffffffffffffffffffffffffffff168152602001908152602001600020819055508173ffffffffffffffffffffffffffffffffffffffff168373ffffffffffffffffffffffffffffffffffffffff167f8c5be1e5ebec7d5bd14f71427d1e84f3dd0314c0f7b2291e5b200ac8c7c3b92583604051610d5a9190611513565b60405180910390a3505050565b60008060008473ffffffffffffffffffffffffffffffffffffffff1673ffffffffffffffffffffffffffffffffffffffff16815260200190815260200160002054905081811015610df15780826040517f0a37dd41000000000000000000000000000000000000000000000000000000008152600401610de89291906117da565b60405180910390fd5b8181036000808573ffffffffffffffffffffffffffffffffffffffff1673ffffffffffffffffffffffffffffffffffffffff1681526020019081526020016000208190555081600260008282540392505081905550600073ffffffffffffffffffffffffffffffffffffffff168373ffffffffffffffffffffffffffffffffffffffff167fddf252ad1be2c89b69c2b068fc378daa952ba7f163c4a11628f55a4df523b3ef84604051610ea49190611513565b60405180910390a3505050565b610f328363a9059cbb60e01b8484604051602401610ed09291906118b6565b604051602081830303815290604052907bffffffffffffffffffffffffffffffffffffffffffffffffffffffff19166020820180517bffffffffffffffffffffffffffffffffffffffffffffffffffffffff83818316178352505050506110c0565b505050565b60008060008573ffffffffffffffffffffffffffffffffffffffff1673ffffffffffffffffffffffffffffffffffffffff16815260200190815260200160002054905081811015610fc457806000836040517f57b9c4a4000000000000000000000000000000000000000000000000000000008152600401610fbb9392919061197d565b60405180910390fd5b8181036000808673ffffffffffffffffffffffffffffffffffffffff1673ffffffffffffffffffffffffffffffffffffffff16815260200190815260200160002081905550816000808573ffffffffffffffffffffffffffffffffffffffff1673ffffffffffffffffffffffffffffffffffffffff168152602001908152602001600020600082825401925050819055508273ffffffffffffffffffffffffffffffffffffffff168473ffffffffffffffffffffffffffffffffffffffff167fddf252ad1be2c89b69c2b068fc378daa952ba7f163c4a11628f55a4df523b3ef846040516110b29190611513565b60405180910390a350505050565b6000611122826040518060400160405280602081526020017f5361666545524332303a206c6f772d6c6576656c2063616c6c206661696c65648152508573ffffffffffffffffffffffffffffffffffffffff1661117e9092919063ffffffff16565b90506000815111156111795780806020019051810190611142919061190b565b611178576040517fa479450200000000000000000000000000000000000000000000000000000000815260040160405180910390fd5b5b505050565b606061118d8484600085611196565b90509392505050565b6060824710156111df5747836040517f02de226f0000000000000000000000000000000000000000000000000000000081526004016111d69291906117da565b60405180910390fd5b6111e8856112b0565b61122957846040517f8a8b41ec00000000000000000000000000000000000000000000000000000000815260040161122091906115f4565b60405180910390fd5b6000808673ffffffffffffffffffffffffffffffffffffffff16858760405161125291906119fb565b60006040518083038185875af1925050503d806000811461128f576040519150601f19603f3d011682016040523d82523d6000602084013e611294565b606091505b50915091506112a48282866112d3565b92505050949350505050565b6000808273ffffffffffffffffffffffffffffffffffffffff163b119050919050565b606083156112e357829050611333565b6000835111156112f65782518084602001fd5b816040517f08c379a000000000000000000000000000000000000000000000000000000000815260040161132a91906113d3565b60405180910390fd5b9392505050565b600081519050919050565b600082825260208201905092915050565b60005b83811015611374578082015181840152602081019050611359565b83811115611383576000848401525b50505050565b6000601f19601f8301169050919050565b60006113a58261133a565b6113af8185611345565b93506113bf818560208601611356565b6113c881611389565b840191505092915050565b600060208201905081810360008301526113ed818461139a565b905092915050565b600080fd5b600073ffffffffffffffffffffffffffffffffffffffff82169050919050565b6000611425826113fa565b9050919050565b6114358161141a565b811461144057600080fd5b50565b6000813590506114528161142c565b92915050565b6000819050919050565b61146b81611458565b811461147657600080fd5b50565b60008135905061148881611462565b92915050565b600080604083850312156114a5576114a46113f5565b5b60006114b385828601611443565b92505060206114c485828601611479565b9150509250929050565b60008115159050919050565b6114e3816114ce565b82525050565b60006020820190506114fe60008301846114da565b92915050565b61150d81611458565b82525050565b60006020820190506115286000830184611504565b92915050565b600080600060608486031215611547576115466113f5565b5b600061155586828701611443565b935050602061156686828701611443565b925050604061157786828701611479565b9150509250925092565b600060ff82169050919050565b61159781611581565b82525050565b60006020820190506115b2600083018461158e565b92915050565b6000602082840312156115ce576115cd6113f5565b5b60006115dc84828501611443565b91505092915050565b6115ee8161141a565b82525050565b600060208201905061160960008301846115e5565b92915050565b60008060408385031215611626576116256113f5565b5b600061163485828601611443565b925050602061164585828601611443565b9150509250929050565b7f4e487b7100000000000000000000000000000000000000000000000000000000600052602260045260246000fd5b6000600282049050600182168061169657607f821691505b6020821081036116a9576116a861164f565b5b50919050565b6000815190506116be81611462565b92915050565b6000602082840312156116da576116d96113f5565b5b60006116e8848285016116af565b91505092915050565b7f4e487b7100000000000000000000000000000000000000000000000000000000600052601160045260246000fd5b600061172b82611458565b915061173683611458565b9250817fffffffffffffffffffffffffffffffffffffffffffffffffffffffffffffffff048311821515161561176f5761176e6116f1565b5b828202905092915050565b7f4e487b7100000000000000000000000000000000000000000000000000000000600052601260045260246000fd5b60006117b482611458565b91506117bf83611458565b9250826117cf576117ce61177a565b5b828204905092915050565b60006040820190506117ef6000830185611504565b6117fc6020830184611504565b9392505050565b600061180e82611458565b915061181983611458565b92508282101561182c5761182b6116f1565b5b828203905092915050565b600061184282611458565b915061184d83611458565b9250827fffffffffffffffffffffffffffffffffffffffffffffffffffffffffffffffff03821115611882576118816116f1565b5b828201905092915050565b60006040820190506118a260008301856115e5565b6118af60208301846115e5565b9392505050565b60006040820190506118cb60008301856115e5565b6118d86020830184611504565b9392505050565b6118e8816114ce565b81146118f357600080fd5b50565b600081519050611905816118df565b92915050565b600060208284031215611921576119206113f5565b5b600061192f848285016118f6565b91505092915050565b6000819050919050565b6000819050919050565b600061196761196261195d84611938565b611942565b611458565b9050919050565b6119778161194c565b82525050565b60006060820190506119926000830186611504565b61199f602083018561196e565b6119ac6040830184611504565b949350505050565b600081519050919050565b600081905092915050565b60006119d5826119b4565b6119df81856119bf565b93506119ef818560208601611356565b80840191505092915050565b6000611a0782846119ca565b91508190509291505056fea264697066735822122074700a4e5ff42544e20b408f10a8de54d66356256a9d7f35b8ba212f983a39bb64736f6c634300080d0033",
  "linkReferences": {},
  "deployedLinkReferences": {}
}