{
  "_format": "hh-sol-artifact-1",
  "contractName": "ProposalFactory",
  "sourceName": "contracts/DAO/ProposalFactory.sol",
  "abi": [
    {
      "inputs": [
        {
          "internalType": "address",
          "name": "_dao",
          "type": "address"
        },
        {
          "internalType": "address",
          "name": "whitelistingProposal",
          "type": "address"
        },
        {
          "internalType": "address",
          "name": "_soulUpdateProposal",
          "type": "address"
        }
      ],
      "stateMutability": "nonpayable",
      "type": "constructor"
    },
    {
      "inputs": [
        {
          "internalType": "address",
          "name": "configurationLord",
          "type": "address"
        },
        {
          "internalType": "address",
          "name": "msg_sender",
          "type": "address"
        }
      ],
      "name": "AccessDenied",
      "type": "error"
    },
    {
      "inputs": [
        {
          "internalType": "address",
          "name": "expectedDAO",
          "type": "address"
        },
        {
          "internalType": "address",
          "name": "actualDAO",
          "type": "address"
        }
      ],
      "name": "BackrunDetected",
      "type": "error"
    },
    {
      "inputs": [
        {
          "internalType": "bool",
          "name": "configured",
          "type": "bool"
        },
        {
          "internalType": "address",
          "name": "proposal",
          "type": "address"
        }
      ],
      "name": "GovernanceActionFailed",
      "type": "error"
    },
    {
      "inputs": [
        {
          "internalType": "address",
          "name": "caller",
          "type": "address"
        },
        {
          "internalType": "address",
          "name": "owner",
          "type": "address"
        }
      ],
      "name": "OnlyOwner",
      "type": "error"
    },
    {
      "inputs": [
        {
          "internalType": "address",
          "name": "proposal",
          "type": "address"
        }
      ],
      "name": "ProposalNotLocked",
      "type": "error"
    },
    {
      "inputs": [],
      "name": "TransferToZeroAddress",
      "type": "error"
    },
    {
      "anonymous": false,
      "inputs": [
        {
          "indexed": true,
          "internalType": "address",
          "name": "proposal",
          "type": "address"
        },
        {
          "indexed": false,
          "internalType": "string",
          "name": "status",
          "type": "string"
        }
      ],
      "name": "LodgingStatus",
      "type": "event"
    },
    {
      "anonymous": false,
      "inputs": [
        {
          "indexed": true,
          "internalType": "address",
          "name": "previousOwner",
          "type": "address"
        },
        {
          "indexed": true,
          "internalType": "address",
          "name": "newOwner",
          "type": "address"
        }
      ],
      "name": "OwnershipTransferred",
      "type": "event"
    },
    {
      "inputs": [],
      "name": "DAO",
      "outputs": [
        {
          "internalType": "address",
          "name": "",
          "type": "address"
        }
      ],
      "stateMutability": "view",
      "type": "function"
    },
    {
      "inputs": [
        {
          "internalType": "address",
          "name": "newProposal",
          "type": "address"
        }
      ],
      "name": "changeSoulUpdateProposal",
      "outputs": [],
      "stateMutability": "nonpayable",
      "type": "function"
    },
    {
      "inputs": [],
      "name": "configured",
      "outputs": [
        {
          "internalType": "bool",
          "name": "",
          "type": "bool"
        }
      ],
      "stateMutability": "view",
      "type": "function"
    },
    {
      "inputs": [
        {
          "internalType": "address",
          "name": "expectedDAO",
          "type": "address"
        }
      ],
      "name": "endConfiguration",
      "outputs": [],
      "stateMutability": "nonpayable",
      "type": "function"
    },
    {
      "inputs": [],
      "name": "governer",
      "outputs": [
        {
          "internalType": "contract FlashGovernanceArbiterLike",
          "name": "",
          "type": "address"
        }
      ],
      "stateMutability": "view",
      "type": "function"
    },
    {
      "inputs": [
        {
          "internalType": "address",
          "name": "proposal",
          "type": "address"
        }
      ],
      "name": "lodgeProposal",
      "outputs": [],
      "stateMutability": "nonpayable",
      "type": "function"
    },
    {
      "inputs": [],
      "name": "owner",
      "outputs": [
        {
          "internalType": "address",
          "name": "",
          "type": "address"
        }
      ],
      "stateMutability": "view",
      "type": "function"
    },
    {
      "inputs": [
        {
          "internalType": "address",
          "name": "dao",
          "type": "address"
        }
      ],
      "name": "setDAO",
      "outputs": [],
      "stateMutability": "nonpayable",
      "type": "function"
    },
    {
      "inputs": [],
      "name": "soulUpdateProposal",
      "outputs": [
        {
          "internalType": "address",
          "name": "",
          "type": "address"
        }
      ],
      "stateMutability": "view",
      "type": "function"
    },
    {
      "inputs": [],
      "name": "temporaryConfigurationLord",
      "outputs": [
        {
          "internalType": "address",
          "name": "",
          "type": "address"
        }
      ],
      "stateMutability": "view",
      "type": "function"
    },
    {
      "inputs": [
        {
          "internalType": "address",
          "name": "proposal",
          "type": "address"
        }
      ],
      "name": "toggleWhitelistProposal",
      "outputs": [],
      "stateMutability": "nonpayable",
      "type": "function"
    },
    {
      "inputs": [
        {
          "internalType": "address",
          "name": "newOwner",
          "type": "address"
        }
      ],
      "name": "transferOwnership",
      "outputs": [],
      "stateMutability": "nonpayable",
      "type": "function"
    },
    {
      "inputs": [
        {
          "internalType": "address",
          "name": "",
          "type": "address"
        }
      ],
      "name": "whitelistedProposalContracts",
      "outputs": [
        {
          "internalType": "bool",
          "name": "",
          "type": "bool"
        }
      ],
      "stateMutability": "view",
      "type": "function"
    }
  ],
  "bytecode": "0x60806040523480156200001157600080fd5b5060405162001691380380620016918339818101604052810190620000379190620004b6565b8262000049816200019660201b60201c565b33600160006101000a81548173ffffffffffffffffffffffffffffffffffffffff021916908373ffffffffffffffffffffffffffffffffffffffff160217905550506200009c336200032e60201b60201c565b6001600460008473ffffffffffffffffffffffffffffffffffffffff1673ffffffffffffffffffffffffffffffffffffffff16815260200190815260200160002060006101000a81548160ff0219169083151502179055506001600460008373ffffffffffffffffffffffffffffffffffffffff1673ffffffffffffffffffffffffffffffffffffffff16815260200190815260200160002060006101000a81548160ff02191690831515021790555080600560006101000a81548173ffffffffffffffffffffffffffffffffffffffff021916908373ffffffffffffffffffffffffffffffffffffffff16021790555050505062000550565b600073ffffffffffffffffffffffffffffffffffffffff16600260009054906101000a900473ffffffffffffffffffffffffffffffffffffffff1673ffffffffffffffffffffffffffffffffffffffff1614158015620002445750600260009054906101000a900473ffffffffffffffffffffffffffffffffffffffff1673ffffffffffffffffffffffffffffffffffffffff163373ffffffffffffffffffffffffffffffffffffffff1614155b80156200025d57506200025c620003f460201b60201c565b5b15620002c657600160009054906101000a900473ffffffffffffffffffffffffffffffffffffffff16336040517fc21bbf9d000000000000000000000000000000000000000000000000000000008152600401620002bd92919062000523565b60405180910390fd5b80600260006101000a81548173ffffffffffffffffffffffffffffffffffffffff021916908373ffffffffffffffffffffffffffffffffffffffff1602179055506000806101000a81549073ffffffffffffffffffffffffffffffffffffffff021916905550565b6000600360009054906101000a900473ffffffffffffffffffffffffffffffffffffffff16905081600360006101000a81548173ffffffffffffffffffffffffffffffffffffffff021916908373ffffffffffffffffffffffffffffffffffffffff1602179055508173ffffffffffffffffffffffffffffffffffffffff168173ffffffffffffffffffffffffffffffffffffffff167f8be0079c531659141344cd1fd0a4f28419497f9722a3daafe3b4186f6b6457e060405160405180910390a35050565b60008073ffffffffffffffffffffffffffffffffffffffff16600160009054906101000a900473ffffffffffffffffffffffffffffffffffffffff1673ffffffffffffffffffffffffffffffffffffffff1614905090565b600080fd5b600073ffffffffffffffffffffffffffffffffffffffff82169050919050565b60006200047e8262000451565b9050919050565b620004908162000471565b81146200049c57600080fd5b50565b600081519050620004b08162000485565b92915050565b600080600060608486031215620004d257620004d16200044c565b5b6000620004e2868287016200049f565b9350506020620004f5868287016200049f565b925050604062000508868287016200049f565b9150509250925092565b6200051d8162000471565b82525050565b60006040820190506200053a600083018562000512565b62000549602083018462000512565b9392505050565b61113180620005606000396000f3fe608060405234801561001057600080fd5b50600436106100cf5760003560e01c80638da5cb5b1161008c578063dd77a47511610066578063dd77a475146101ee578063e5f6f7fd1461020c578063e73a914c14610228578063f2fde38b14610244576100cf565b80638da5cb5b1461019657806398fabd3a146101b4578063c371cd8f146101d2576100cf565b80633091dde1146100d457806331de3469146100f25780634bdc4e33146101105780634eaa7eb2146101405780636ac353b11461015c5780638772a23a14610178575b600080fd5b6100dc610260565b6040516100e99190610e4c565b60405180910390f35b6100fa610284565b6040516101079190610e88565b60405180910390f35b61012a60048036038101906101259190610ed4565b6102aa565b6040516101379190610f1c565b60405180910390f35b61015a60048036038101906101559190610ed4565b6102ca565b005b61017660048036038101906101719190610ed4565b61047b565b005b61018061053f565b60405161018d9190610f1c565b60405180910390f35b61019e610597565b6040516101ab9190610e88565b60405180910390f35b6101bc6105c1565b6040516101c99190610e88565b60405180910390f35b6101ec60048036038101906101e79190610ed4565b6105e7565b005b6101f6610988565b6040516102039190610e88565b60405180910390f35b61022660048036038101906102219190610ed4565b6109ae565b005b610242600480360381019061023d9190610ed4565b610a5e565b005b61025e60048036038101906102599190610ed4565b610be9565b005b60008054906101000a900473ffffffffffffffffffffffffffffffffffffffff1681565b600560009054906101000a900473ffffffffffffffffffffffffffffffffffffffff1681565b60046020528060005260406000206000915054906101000a900460ff1681565b600160009054906101000a900473ffffffffffffffffffffffffffffffffffffffff1673ffffffffffffffffffffffffffffffffffffffff163373ffffffffffffffffffffffffffffffffffffffff161461038057600160009054906101000a900473ffffffffffffffffffffffffffffffffffffffff16336040517fc21bbf9d000000000000000000000000000000000000000000000000000000008152600401610377929190610f37565b60405180910390fd5b600260009054906101000a900473ffffffffffffffffffffffffffffffffffffffff1673ffffffffffffffffffffffffffffffffffffffff168173ffffffffffffffffffffffffffffffffffffffff16146104365780600260009054906101000a900473ffffffffffffffffffffffffffffffffffffffff166040517f3f0e213300000000000000000000000000000000000000000000000000000000815260040161042d929190610f37565b60405180910390fd5b6000600160006101000a81548173ffffffffffffffffffffffffffffffffffffffff021916908373ffffffffffffffffffffffffffffffffffffffff16021790555050565b3373ffffffffffffffffffffffffffffffffffffffff1661049a610597565b73ffffffffffffffffffffffffffffffffffffffff16146104fb57336104be610597565b6040517fa3ee740f0000000000000000000000000000000000000000000000000000000081526004016104f2929190610f37565b60405180910390fd5b80600560006101000a81548173ffffffffffffffffffffffffffffffffffffffff021916908373ffffffffffffffffffffffffffffffffffffffff16021790555050565b60008073ffffffffffffffffffffffffffffffffffffffff16600160009054906101000a900473ffffffffffffffffffffffffffffffffffffffff1673ffffffffffffffffffffffffffffffffffffffff1614905090565b6000600360009054906101000a900473ffffffffffffffffffffffffffffffffffffffff16905090565b600260009054906101000a900473ffffffffffffffffffffffffffffffffffffffff1681565b60006040518060400160405280600781526020017f535543434553530000000000000000000000000000000000000000000000000081525090506000600460008473ffffffffffffffffffffffffffffffffffffffff1673ffffffffffffffffffffffffffffffffffffffff16815260200190815260200160002060009054906101000a900460ff1615610886578273ffffffffffffffffffffffffffffffffffffffff1663cf3090126040518163ffffffff1660e01b8152600401602060405180830381865afa1580156106c0573d6000803e3d6000fd5b505050506040513d601f19601f820116820180604052508101906106e49190610f8c565b61072557826040517f66f57d0c00000000000000000000000000000000000000000000000000000000815260040161071c9190610e88565b60405180910390fd5b600260009054906101000a900473ffffffffffffffffffffffffffffffffffffffff1673ffffffffffffffffffffffffffffffffffffffff168333604051602401610771929190610f37565b6040516020818303038152906040527fbc7e7d51000000000000000000000000000000000000000000000000000000007bffffffffffffffffffffffffffffffffffffffffffffffffffffffff19166020820180517bffffffffffffffffffffffffffffffffffffffffffffffffffffffff83818316178352505050506040516107fb9190611033565b6000604051808303816000865af19150503d8060008114610838576040519150601f19603f3d011682016040523d82523d6000602084013e61083d565b606091505b50508091505080610881576040518060400160405280600681526020017f4641494c4544000000000000000000000000000000000000000000000000000081525091505b6108c3565b6040518060400160405280600f81526020017f4e4f545f57484954454c495354454400000000000000000000000000000000008152509150600090505b80610935578273ffffffffffffffffffffffffffffffffffffffff1663211e28b660006040518263ffffffff1660e01b81526004016109029190610f1c565b600060405180830381600087803b15801561091c57600080fd5b505af1158015610930573d6000803e3d6000fd5b505050505b8273ffffffffffffffffffffffffffffffffffffffff167f844ef51988e709e9005cfb0cc69cc469ef76ed127790582c8561ba9458340d108360405161097b91906110b0565b60405180910390a2505050565b600160009054906101000a900473ffffffffffffffffffffffffffffffffffffffff1681565b6109b733610cd2565b600460008273ffffffffffffffffffffffffffffffffffffffff1673ffffffffffffffffffffffffffffffffffffffff16815260200190815260200160002060009054906101000a900460ff1615600460008373ffffffffffffffffffffffffffffffffffffffff1673ffffffffffffffffffffffffffffffffffffffff16815260200190815260200160002060006101000a81548160ff02191690831515021790555050565b600073ffffffffffffffffffffffffffffffffffffffff16600260009054906101000a900473ffffffffffffffffffffffffffffffffffffffff1673ffffffffffffffffffffffffffffffffffffffff1614158015610b0b5750600260009054906101000a900473ffffffffffffffffffffffffffffffffffffffff1673ffffffffffffffffffffffffffffffffffffffff163373ffffffffffffffffffffffffffffffffffffffff1614155b8015610b1b5750610b1a61053f565b5b15610b8157600160009054906101000a900473ffffffffffffffffffffffffffffffffffffffff16336040517fc21bbf9d000000000000000000000000000000000000000000000000000000008152600401610b78929190610f37565b60405180910390fd5b80600260006101000a81548173ffffffffffffffffffffffffffffffffffffffff021916908373ffffffffffffffffffffffffffffffffffffffff1602179055506000806101000a81549073ffffffffffffffffffffffffffffffffffffffff021916905550565b3373ffffffffffffffffffffffffffffffffffffffff16610c08610597565b73ffffffffffffffffffffffffffffffffffffffff1614610c695733610c2c610597565b6040517fa3ee740f000000000000000000000000000000000000000000000000000000008152600401610c60929190610f37565b60405180910390fd5b600073ffffffffffffffffffffffffffffffffffffffff168173ffffffffffffffffffffffffffffffffffffffff1603610ccf576040517fea553b3400000000000000000000000000000000000000000000000000000000815260040160405180910390fd5b50565b610cda61053f565b8015610d7f5750600260009054906101000a900473ffffffffffffffffffffffffffffffffffffffff1673ffffffffffffffffffffffffffffffffffffffff1663b7ebc23b826040518263ffffffff1660e01b8152600401610d3c9190610e88565b602060405180830381865afa158015610d59573d6000803e3d6000fd5b505050506040513d601f19601f82011682018060405250810190610d7d9190610f8c565b155b15610dca57610d8c61053f565b816040517f64218e39000000000000000000000000000000000000000000000000000000008152600401610dc19291906110d2565b60405180910390fd5b50565b600073ffffffffffffffffffffffffffffffffffffffff82169050919050565b6000819050919050565b6000610e12610e0d610e0884610dcd565b610ded565b610dcd565b9050919050565b6000610e2482610df7565b9050919050565b6000610e3682610e19565b9050919050565b610e4681610e2b565b82525050565b6000602082019050610e616000830184610e3d565b92915050565b6000610e7282610dcd565b9050919050565b610e8281610e67565b82525050565b6000602082019050610e9d6000830184610e79565b92915050565b600080fd5b610eb181610e67565b8114610ebc57600080fd5b50565b600081359050610ece81610ea8565b92915050565b600060208284031215610eea57610ee9610ea3565b5b6000610ef884828501610ebf565b91505092915050565b60008115159050919050565b610f1681610f01565b82525050565b6000602082019050610f316000830184610f0d565b92915050565b6000604082019050610f4c6000830185610e79565b610f596020830184610e79565b9392505050565b610f6981610f01565b8114610f7457600080fd5b50565b600081519050610f8681610f60565b92915050565b600060208284031215610fa257610fa1610ea3565b5b6000610fb084828501610f77565b91505092915050565b600081519050919050565b600081905092915050565b60005b83811015610fed578082015181840152602081019050610fd2565b83811115610ffc576000848401525b50505050565b600061100d82610fb9565b6110178185610fc4565b9350611027818560208601610fcf565b80840191505092915050565b600061103f8284611002565b915081905092915050565b600081519050919050565b600082825260208201905092915050565b6000601f19601f8301169050919050565b60006110828261104a565b61108c8185611055565b935061109c818560208601610fcf565b6110a581611066565b840191505092915050565b600060208201905081810360008301526110ca8184611077565b905092915050565b60006040820190506110e76000830185610f0d565b6110f46020830184610e79565b939250505056fea264697066735822122000e63e2780d69ecdcd6fdd82769f109cd98b427a29044ac18fc5bddaaf41572464736f6c634300080d0033",
  "linkReferences": {},
  "deployedLinkReferences": {}
}