{
  "_format": "hh-sol-artifact-1",
  "contractName": "LimboProxy",
  "sourceName": "contracts/TokenProxies/LimboProxy.sol",
  "abi": [
    {
      "inputs": [
        {
          "internalType": "address",
          "name": "_baseToken",
          "type": "address"
        },
        {
          "internalType": "string",
          "name": "name_",
          "type": "string"
        },
        {
          "internalType": "string",
          "name": "symbol_",
          "type": "string"
        },
        {
          "internalType": "address",
          "name": "registry",
          "type": "address"
        },
        {
          "internalType": "address",
          "name": "_limbo",
          "type": "address"
        },
        {
          "internalType": "address",
          "name": "_flan",
          "type": "address"
        },
        {
          "internalType": "uint256",
          "name": "initialRedeemRate",
          "type": "uint256"
        }
      ],
      "stateMutability": "nonpayable",
      "type": "constructor"
    },
    {
      "inputs": [
        {
          "internalType": "uint256",
          "name": "allowance",
          "type": "uint256"
        },
        {
          "internalType": "uint256",
          "name": "amount",
          "type": "uint256"
        }
      ],
      "name": "AllowanceExceeded",
      "type": "error"
    },
    {
      "inputs": [
        {
          "internalType": "uint256",
          "name": "allowance",
          "type": "uint256"
        },
        {
          "internalType": "uint256",
          "name": "subtraction",
          "type": "uint256"
        }
      ],
      "name": "AllowanceUnderflow",
      "type": "error"
    },
    {
      "inputs": [
        {
          "internalType": "address",
          "name": "token",
          "type": "address"
        },
        {
          "internalType": "address",
          "name": "spender",
          "type": "address"
        },
        {
          "internalType": "uint256",
          "name": "amount",
          "type": "uint256"
        }
      ],
      "name": "ApproveToNonZero",
      "type": "error"
    },
    {
      "inputs": [
        {
          "internalType": "uint256",
          "name": "accountBalance",
          "type": "uint256"
        },
        {
          "internalType": "uint256",
          "name": "amount",
          "type": "uint256"
        }
      ],
      "name": "BurnUnderflow",
      "type": "error"
    },
    {
      "inputs": [
        {
          "internalType": "uint256",
          "name": "balance",
          "type": "uint256"
        },
        {
          "internalType": "uint256",
          "name": "value",
          "type": "uint256"
        }
      ],
      "name": "InsufficinetFunds",
      "type": "error"
    },
    {
      "inputs": [
        {
          "internalType": "address",
          "name": "EOA",
          "type": "address"
        }
      ],
      "name": "NotAContract",
      "type": "error"
    },
    {
      "inputs": [
        {
          "internalType": "address",
          "name": "sender",
          "type": "address"
        },
        {
          "internalType": "address",
          "name": "proxy",
          "type": "address"
        }
      ],
      "name": "OnlyProxy",
      "type": "error"
    },
    {
      "inputs": [],
      "name": "OperationFailure",
      "type": "error"
    },
    {
      "inputs": [
        {
          "internalType": "uint256",
          "name": "senderBalance",
          "type": "uint256"
        },
        {
          "internalType": "uint256",
          "name": "fee",
          "type": "uint256"
        },
        {
          "internalType": "uint256",
          "name": "amount",
          "type": "uint256"
        }
      ],
      "name": "TransferUnderflow",
      "type": "error"
    },
    {
      "anonymous": false,
      "inputs": [
        {
          "indexed": true,
          "internalType": "address",
          "name": "owner",
          "type": "address"
        },
        {
          "indexed": true,
          "internalType": "address",
          "name": "spender",
          "type": "address"
        },
        {
          "indexed": false,
          "internalType": "uint256",
          "name": "value",
          "type": "uint256"
        }
      ],
      "name": "Approval",
      "type": "event"
    },
    {
      "anonymous": false,
      "inputs": [
        {
          "indexed": true,
          "internalType": "address",
          "name": "from",
          "type": "address"
        },
        {
          "indexed": true,
          "internalType": "address",
          "name": "to",
          "type": "address"
        },
        {
          "indexed": false,
          "internalType": "uint256",
          "name": "value",
          "type": "uint256"
        }
      ],
      "name": "Transfer",
      "type": "event"
    },
    {
      "inputs": [],
      "name": "IS_PROXY",
      "outputs": [
        {
          "internalType": "bool",
          "name": "",
          "type": "bool"
        }
      ],
      "stateMutability": "view",
      "type": "function"
    },
    {
      "inputs": [
        {
          "internalType": "address",
          "name": "owner",
          "type": "address"
        },
        {
          "internalType": "address",
          "name": "spender",
          "type": "address"
        }
      ],
      "name": "allowance",
      "outputs": [
        {
          "internalType": "uint256",
          "name": "",
          "type": "uint256"
        }
      ],
      "stateMutability": "view",
      "type": "function"
    },
    {
      "inputs": [
        {
          "internalType": "address",
          "name": "spender",
          "type": "address"
        },
        {
          "internalType": "uint256",
          "name": "amount",
          "type": "uint256"
        }
      ],
      "name": "approve",
      "outputs": [
        {
          "internalType": "bool",
          "name": "",
          "type": "bool"
        }
      ],
      "stateMutability": "nonpayable",
      "type": "function"
    },
    {
      "inputs": [],
      "name": "approveLimbo",
      "outputs": [],
      "stateMutability": "nonpayable",
      "type": "function"
    },
    {
      "inputs": [
        {
          "internalType": "address",
          "name": "account",
          "type": "address"
        }
      ],
      "name": "balanceOf",
      "outputs": [
        {
          "internalType": "uint256",
          "name": "",
          "type": "uint256"
        }
      ],
      "stateMutability": "view",
      "type": "function"
    },
    {
      "inputs": [],
      "name": "baseToken",
      "outputs": [
        {
          "internalType": "address",
          "name": "",
          "type": "address"
        }
      ],
      "stateMutability": "view",
      "type": "function"
    },
    {
      "inputs": [],
      "name": "decimals",
      "outputs": [
        {
          "internalType": "uint8",
          "name": "",
          "type": "uint8"
        }
      ],
      "stateMutability": "view",
      "type": "function"
    },
    {
      "inputs": [
        {
          "internalType": "address",
          "name": "spender",
          "type": "address"
        },
        {
          "internalType": "uint256",
          "name": "subtractedValue",
          "type": "uint256"
        }
      ],
      "name": "decreaseAllowance",
      "outputs": [
        {
          "internalType": "bool",
          "name": "",
          "type": "bool"
        }
      ],
      "stateMutability": "nonpayable",
      "type": "function"
    },
    {
      "inputs": [
        {
          "internalType": "address",
          "name": "spender",
          "type": "address"
        },
        {
          "internalType": "uint256",
          "name": "addedValue",
          "type": "uint256"
        }
      ],
      "name": "increaseAllowance",
      "outputs": [
        {
          "internalType": "bool",
          "name": "",
          "type": "bool"
        }
      ],
      "stateMutability": "nonpayable",
      "type": "function"
    },
    {
      "inputs": [],
      "name": "initialRedeemRate",
      "outputs": [
        {
          "internalType": "uint256",
          "name": "",
          "type": "uint256"
        }
      ],
      "stateMutability": "view",
      "type": "function"
    },
    {
      "inputs": [
        {
          "internalType": "address",
          "name": "newProxy",
          "type": "address"
        }
      ],
      "name": "migrateBaseReserveToNewProxy",
      "outputs": [],
      "stateMutability": "nonpayable",
      "type": "function"
    },
    {
      "inputs": [],
      "name": "name",
      "outputs": [
        {
          "internalType": "string",
          "name": "",
          "type": "string"
        }
      ],
      "stateMutability": "view",
      "type": "function"
    },
    {
      "inputs": [],
      "name": "proxyRegistry",
      "outputs": [
        {
          "internalType": "address",
          "name": "",
          "type": "address"
        }
      ],
      "stateMutability": "view",
      "type": "function"
    },
    {
      "inputs": [
        {
          "internalType": "address",
          "name": "proxySource",
          "type": "address"
        },
        {
          "internalType": "address",
          "name": "baseRecipient",
          "type": "address"
        },
        {
          "internalType": "uint256",
          "name": "amount",
          "type": "uint256"
        }
      ],
      "name": "redeem",
      "outputs": [
        {
          "internalType": "uint256",
          "name": "baseAmount",
          "type": "uint256"
        }
      ],
      "stateMutability": "nonpayable",
      "type": "function"
    },
    {
      "inputs": [],
      "name": "redeemRate",
      "outputs": [
        {
          "internalType": "uint256",
          "name": "",
          "type": "uint256"
        }
      ],
      "stateMutability": "view",
      "type": "function"
    },
    {
      "inputs": [
        {
          "internalType": "uint256",
          "name": "amount",
          "type": "uint256"
        }
      ],
      "name": "stake",
      "outputs": [],
      "stateMutability": "nonpayable",
      "type": "function"
    },
    {
      "inputs": [],
      "name": "symbol",
      "outputs": [
        {
          "internalType": "string",
          "name": "",
          "type": "string"
        }
      ],
      "stateMutability": "view",
      "type": "function"
    },
    {
      "inputs": [],
      "name": "totalSupply",
      "outputs": [
        {
          "internalType": "uint256",
          "name": "",
          "type": "uint256"
        }
      ],
      "stateMutability": "view",
      "type": "function"
    },
    {
      "inputs": [
        {
          "internalType": "address",
          "name": "recipient",
          "type": "address"
        },
        {
          "internalType": "uint256",
          "name": "amount",
          "type": "uint256"
        }
      ],
      "name": "transfer",
      "outputs": [
        {
          "internalType": "bool",
          "name": "",
          "type": "bool"
        }
      ],
      "stateMutability": "nonpayable",
      "type": "function"
    },
    {
      "inputs": [
        {
          "internalType": "address",
          "name": "sender",
          "type": "address"
        },
        {
          "internalType": "address",
          "name": "recipient",
          "type": "address"
        },
        {
          "internalType": "uint256",
          "name": "amount",
          "type": "uint256"
        }
      ],
      "name": "transferFrom",
      "outputs": [
        {
          "internalType": "bool",
          "name": "",
          "type": "bool"
        }
      ],
      "stateMutability": "nonpayable",
      "type": "function"
    },
    {
      "inputs": [
        {
          "internalType": "uint256",
          "name": "amount",
          "type": "uint256"
        }
      ],
      "name": "unstake",
      "outputs": [],
      "stateMutability": "nonpayable",
      "type": "function"
    },
    {
      "inputs": [],
      "name": "withdrawReserve",
      "outputs": [],
      "stateMutability": "nonpayable",
      "type": "function"
    }
  ],
  "bytecode": "0x60e06040523480156200001157600080fd5b5060405162002b2038038062002b20833981810160405281019062000037919062000463565b8686868684838381600390805190602001906200005692919062000176565b5080600490805190602001906200006f92919062000176565b5050508473ffffffffffffffffffffffffffffffffffffffff1660a08173ffffffffffffffffffffffffffffffffffffffff16815250508173ffffffffffffffffffffffffffffffffffffffff1660808173ffffffffffffffffffffffffffffffffffffffff16815250508060c08181525050505050505082600560006101000a81548173ffffffffffffffffffffffffffffffffffffffff021916908373ffffffffffffffffffffffffffffffffffffffff16021790555081600660006101000a81548173ffffffffffffffffffffffffffffffffffffffff021916908373ffffffffffffffffffffffffffffffffffffffff16021790555050505050505050620005b8565b828054620001849062000583565b90600052602060002090601f016020900481019282620001a85760008555620001f4565b82601f10620001c357805160ff1916838001178555620001f4565b82800160010185558215620001f4579182015b82811115620001f3578251825591602001919060010190620001d6565b5b50905062000203919062000207565b5090565b5b808211156200022257600081600090555060010162000208565b5090565b6000604051905090565b600080fd5b600080fd5b600073ffffffffffffffffffffffffffffffffffffffff82169050919050565b600062000267826200023a565b9050919050565b62000279816200025a565b81146200028557600080fd5b50565b60008151905062000299816200026e565b92915050565b600080fd5b600080fd5b6000601f19601f8301169050919050565b7f4e487b7100000000000000000000000000000000000000000000000000000000600052604160045260246000fd5b620002f482620002a9565b810181811067ffffffffffffffff82111715620003165762000315620002ba565b5b80604052505050565b60006200032b62000226565b9050620003398282620002e9565b919050565b600067ffffffffffffffff8211156200035c576200035b620002ba565b5b6200036782620002a9565b9050602081019050919050565b60005b838110156200039457808201518184015260208101905062000377565b83811115620003a4576000848401525b50505050565b6000620003c1620003bb846200033e565b6200031f565b905082815260208101848484011115620003e057620003df620002a4565b5b620003ed84828562000374565b509392505050565b600082601f8301126200040d576200040c6200029f565b5b81516200041f848260208601620003aa565b91505092915050565b6000819050919050565b6200043d8162000428565b81146200044957600080fd5b50565b6000815190506200045d8162000432565b92915050565b600080600080600080600060e0888a03121562000485576200048462000230565b5b6000620004958a828b0162000288565b975050602088015167ffffffffffffffff811115620004b957620004b862000235565b5b620004c78a828b01620003f5565b965050604088015167ffffffffffffffff811115620004eb57620004ea62000235565b5b620004f98a828b01620003f5565b95505060606200050c8a828b0162000288565b94505060806200051f8a828b0162000288565b93505060a0620005328a828b0162000288565b92505060c0620005458a828b016200044c565b91505092959891949750929550565b7f4e487b7100000000000000000000000000000000000000000000000000000000600052602260045260246000fd5b600060028204905060018216806200059c57607f821691505b602082108103620005b257620005b162000554565b5b50919050565b60805160a05160c0516124ba62000666600039600081816105a2015281816105d30152818161062701528181610a5701528181610bf3015281816115bf01526117940152600081816104eb0152818161066501528181610d8001528181610e1a01528181610e8601528181610fe501528181611601015281816116a301526116ed015260008181610cca01528181610d1e01528181610e6201528181610f310152610f8501526124ba6000f3fe608060405234801561001057600080fd5b50600436106101425760003560e01c806395d89b41116100b8578063b50cbd9f1161007c578063b50cbd9f1461038d578063c55dae63146103ab578063dd62ed3e146103c9578063ed3b379b146103f9578063f8f1197e14610415578063fbed2d721461041f57610142565b806395d89b41146102e9578063a457c2d714610307578063a694fc3a14610337578063a9059cbb14610353578063ace1fab11461038357610142565b806323b872dd1161010a57806323b872dd146102015780632e17de7814610231578063313ce5671461024d578063395093511461026b57806370a082311461029b5780637376dd79146102cb57610142565b806306fdde0314610147578063095ea7b3146101655780630adcdbaa146101955780630e6dfcd5146101b357806318160ddd146101e3575b600080fd5b61014f61043d565b60405161015c9190611daa565b60405180910390f35b61017f600480360381019061017a9190611e65565b6104cf565b60405161018c9190611ec0565b60405180910390f35b61019d6104e6565b6040516101aa9190611eea565b60405180910390f35b6101cd60048036038101906101c89190611f05565b61060e565b6040516101da9190611eea565b60405180910390f35b6101eb6106b1565b6040516101f89190611eea565b60405180910390f35b61021b60048036038101906102169190611f05565b6106bb565b6040516102289190611ec0565b60405180910390f35b61024b60048036038101906102469190611f58565b6107de565b005b610255610966565b6040516102629190611fa1565b60405180910390f35b61028560048036038101906102809190611e65565b61096f565b6040516102929190611ec0565b60405180910390f35b6102b560048036038101906102b09190611fbc565b610a0d565b6040516102c29190611eea565b60405180910390f35b6102d3610a55565b6040516102e09190611eea565b60405180910390f35b6102f1610a79565b6040516102fe9190611daa565b60405180910390f35b610321600480360381019061031c9190611e65565b610b0b565b60405161032e9190611ec0565b60405180910390f35b610351600480360381019061034c9190611f58565b610bec565b005b61036d60048036038101906103689190611e65565b610cb1565b60405161037a9190611ec0565b60405180910390f35b61038b610cc8565b005b610395610e60565b6040516103a29190611ff8565b60405180910390f35b6103b3610e84565b6040516103c09190611ff8565b60405180910390f35b6103e360048036038101906103de9190612013565b610ea8565b6040516103f09190611eea565b60405180910390f35b610413600480360381019061040e9190611fbc565b610f2f565b005b61041d611102565b005b610427611171565b6040516104349190611ec0565b60405180910390f35b60606003805461044c90612082565b80601f016020809104026020016040519081016040528092919081815260200182805461047890612082565b80156104c55780601f1061049a576101008083540402835291602001916104c5565b820191906000526020600020905b8154815290600101906020018083116104a857829003601f168201915b5050505050905090565b60006104dc338484611176565b6001905092915050565b6000807f000000000000000000000000000000000000000000000000000000000000000073ffffffffffffffffffffffffffffffffffffffff166370a08231306040518263ffffffff1660e01b81526004016105429190611ff8565b602060405180830381865afa15801561055f573d6000803e3d6000fd5b505050506040513d601f19601f8201168201806040525081019061058391906120c8565b9050600061058f6106b1565b148061059b5750600081145b156105c9577f000000000000000000000000000000000000000000000000000000000000000091505061060b565b6105d16106b1565b7f0000000000000000000000000000000000000000000000000000000000000000826105fd9190612124565b61060791906121ad565b9150505b90565b6000806106196104e6565b90506106258584611261565b7f000000000000000000000000000000000000000000000000000000000000000081846106529190612124565b61065c91906121ad565b91506106a984837f000000000000000000000000000000000000000000000000000000000000000073ffffffffffffffffffffffffffffffffffffffff166113ab9092919063ffffffff16565b509392505050565b6000600254905090565b60006106c8848484611431565b6000600160008673ffffffffffffffffffffffffffffffffffffffff1673ffffffffffffffffffffffffffffffffffffffff16815260200190815260200160002060003373ffffffffffffffffffffffffffffffffffffffff1673ffffffffffffffffffffffffffffffffffffffff1681526020019081526020016000205490507fffffffffffffffffffffffffffffffffffffffffffffffffffffffffffffffff811415801561077857508083115b156107bc5780836040517fa92482560000000000000000000000000000000000000000000000000000000081526004016107b39291906121de565b60405180910390fd5b6107d2853385846107cd9190612207565b611176565b60019150509392505050565b600560009054906101000a900473ffffffffffffffffffffffffffffffffffffffff1673ffffffffffffffffffffffffffffffffffffffff1663026800d03083336040518463ffffffff1660e01b815260040161083d9392919061223b565b600060405180830381600087803b15801561085757600080fd5b505af115801561086b573d6000803e3d6000fd5b5050505061087a30338361060e565b5061096333600660009054906101000a900473ffffffffffffffffffffffffffffffffffffffff1673ffffffffffffffffffffffffffffffffffffffff166370a08231306040518263ffffffff1660e01b81526004016108da9190611ff8565b602060405180830381865afa1580156108f7573d6000803e3d6000fd5b505050506040513d601f19601f8201168201806040525081019061091b91906120c8565b600660009054906101000a900473ffffffffffffffffffffffffffffffffffffffff1673ffffffffffffffffffffffffffffffffffffffff166113ab9092919063ffffffff16565b50565b60006012905090565b6000610a03338484600160003373ffffffffffffffffffffffffffffffffffffffff1673ffffffffffffffffffffffffffffffffffffffff16815260200190815260200160002060008873ffffffffffffffffffffffffffffffffffffffff1673ffffffffffffffffffffffffffffffffffffffff168152602001908152602001600020546109fe9190612272565b611176565b6001905092915050565b60008060008373ffffffffffffffffffffffffffffffffffffffff1673ffffffffffffffffffffffffffffffffffffffff168152602001908152602001600020549050919050565b7f000000000000000000000000000000000000000000000000000000000000000081565b606060048054610a8890612082565b80601f0160208091040260200160405190810160405280929190818152602001828054610ab490612082565b8015610b015780601f10610ad657610100808354040283529160200191610b01565b820191906000526020600020905b815481529060010190602001808311610ae457829003601f168201915b5050505050905090565b600080600160003373ffffffffffffffffffffffffffffffffffffffff1673ffffffffffffffffffffffffffffffffffffffff16815260200190815260200160002060008573ffffffffffffffffffffffffffffffffffffffff1673ffffffffffffffffffffffffffffffffffffffff16815260200190815260200160002054905082811015610bd45780836040517fda2d822c000000000000000000000000000000000000000000000000000000008152600401610bcb9291906121de565b60405180910390fd5b610be13385858403611176565b600191505092915050565b6000610c1a7f00000000000000000000000000000000000000000000000000000000000000003033856115ba565b9050600560009054906101000a900473ffffffffffffffffffffffffffffffffffffffff1673ffffffffffffffffffffffffffffffffffffffff16639b8f04b73083336040518463ffffffff1660e01b8152600401610c7b9392919061223b565b600060405180830381600087803b158015610c9557600080fd5b505af1158015610ca9573d6000803e3d6000fd5b505050505050565b6000610cbe338484611431565b6001905092915050565b7f000000000000000000000000000000000000000000000000000000000000000073ffffffffffffffffffffffffffffffffffffffff163373ffffffffffffffffffffffffffffffffffffffff1614610d7a57337f00000000000000000000000000000000000000000000000000000000000000006040517fd214286f000000000000000000000000000000000000000000000000000000008152600401610d719291906122c8565b60405180910390fd5b610e5e337f000000000000000000000000000000000000000000000000000000000000000073ffffffffffffffffffffffffffffffffffffffff166370a08231306040518263ffffffff1660e01b8152600401610dd79190611ff8565b602060405180830381865afa158015610df4573d6000803e3d6000fd5b505050506040513d601f19601f82011682018060405250810190610e1891906120c8565b7f000000000000000000000000000000000000000000000000000000000000000073ffffffffffffffffffffffffffffffffffffffff166113ab9092919063ffffffff16565b565b7f000000000000000000000000000000000000000000000000000000000000000081565b7f000000000000000000000000000000000000000000000000000000000000000081565b6000600160008473ffffffffffffffffffffffffffffffffffffffff1673ffffffffffffffffffffffffffffffffffffffff16815260200190815260200160002060008373ffffffffffffffffffffffffffffffffffffffff1673ffffffffffffffffffffffffffffffffffffffff16815260200190815260200160002054905092915050565b7f000000000000000000000000000000000000000000000000000000000000000073ffffffffffffffffffffffffffffffffffffffff163373ffffffffffffffffffffffffffffffffffffffff1614610fe157337f00000000000000000000000000000000000000000000000000000000000000006040517fd214286f000000000000000000000000000000000000000000000000000000008152600401610fd89291906122c8565b60405180910390fd5b60007f000000000000000000000000000000000000000000000000000000000000000090508073ffffffffffffffffffffffffffffffffffffffff1663a9059cbb838373ffffffffffffffffffffffffffffffffffffffff166370a08231306040518263ffffffff1660e01b815260040161105c9190611ff8565b602060405180830381865afa158015611079573d6000803e3d6000fd5b505050506040513d601f19601f8201168201806040525081019061109d91906120c8565b6040518363ffffffff1660e01b81526004016110ba9291906122f1565b6020604051808303816000875af11580156110d9573d6000803e3d6000fd5b505050506040513d601f19601f820116820180604052508101906110fd9190612346565b505050565b61116f600560009054906101000a900473ffffffffffffffffffffffffffffffffffffffff167fffffffffffffffffffffffffffffffffffffffffffffffffffffffffffffffff3073ffffffffffffffffffffffffffffffffffffffff166117df9092919063ffffffff16565b565b600181565b80600160008573ffffffffffffffffffffffffffffffffffffffff1673ffffffffffffffffffffffffffffffffffffffff16815260200190815260200160002060008473ffffffffffffffffffffffffffffffffffffffff1673ffffffffffffffffffffffffffffffffffffffff168152602001908152602001600020819055508173ffffffffffffffffffffffffffffffffffffffff168373ffffffffffffffffffffffffffffffffffffffff167f8c5be1e5ebec7d5bd14f71427d1e84f3dd0314c0f7b2291e5b200ac8c7c3b925836040516112549190611eea565b60405180910390a3505050565b60008060008473ffffffffffffffffffffffffffffffffffffffff1673ffffffffffffffffffffffffffffffffffffffff168152602001908152602001600020549050818110156112eb5780826040517f0a37dd410000000000000000000000000000000000000000000000000000000081526004016112e29291906121de565b60405180910390fd5b8181036000808573ffffffffffffffffffffffffffffffffffffffff1673ffffffffffffffffffffffffffffffffffffffff1681526020019081526020016000208190555081600260008282540392505081905550600073ffffffffffffffffffffffffffffffffffffffff168373ffffffffffffffffffffffffffffffffffffffff167fddf252ad1be2c89b69c2b068fc378daa952ba7f163c4a11628f55a4df523b3ef8460405161139e9190611eea565b60405180910390a3505050565b61142c8363a9059cbb60e01b84846040516024016113ca9291906122f1565b604051602081830303815290604052907bffffffffffffffffffffffffffffffffffffffffffffffffffffffff19166020820180517bffffffffffffffffffffffffffffffffffffffffffffffffffffffff8381831617835250505050611936565b505050565b60008060008573ffffffffffffffffffffffffffffffffffffffff1673ffffffffffffffffffffffffffffffffffffffff168152602001908152602001600020549050818110156114be57806000836040517f57b9c4a40000000000000000000000000000000000000000000000000000000081526004016114b5939291906123b8565b60405180910390fd5b8181036000808673ffffffffffffffffffffffffffffffffffffffff1673ffffffffffffffffffffffffffffffffffffffff16815260200190815260200160002081905550816000808573ffffffffffffffffffffffffffffffffffffffff1673ffffffffffffffffffffffffffffffffffffffff168152602001908152602001600020600082825401925050819055508273ffffffffffffffffffffffffffffffffffffffff168473ffffffffffffffffffffffffffffffffffffffff167fddf252ad1be2c89b69c2b068fc378daa952ba7f163c4a11628f55a4df523b3ef846040516115ac9190611eea565b60405180910390a350505050565b6000807f0000000000000000000000000000000000000000000000000000000000000000866115e76104e6565b6115f19190612124565b6115fb91906121ad565b905060007f000000000000000000000000000000000000000000000000000000000000000073ffffffffffffffffffffffffffffffffffffffff166370a08231306040518263ffffffff1660e01b81526004016116589190611ff8565b602060405180830381865afa158015611675573d6000803e3d6000fd5b505050506040513d601f19601f8201168201806040525081019061169991906120c8565b90506116e88530867f000000000000000000000000000000000000000000000000000000000000000073ffffffffffffffffffffffffffffffffffffffff166119f4909392919063ffffffff16565b6000817f000000000000000000000000000000000000000000000000000000000000000073ffffffffffffffffffffffffffffffffffffffff166370a08231306040518263ffffffff1660e01b81526004016117449190611ff8565b602060405180830381865afa158015611761573d6000803e3d6000fd5b505050506040513d601f19601f8201168201806040525081019061178591906120c8565b61178f9190612207565b9050827f0000000000000000000000000000000000000000000000000000000000000000826117be9190612124565b6117c891906121ad565b93506117d48785611a7d565b505050949350505050565b60008111801561186a575060008373ffffffffffffffffffffffffffffffffffffffff1663dd62ed3e30856040518363ffffffff1660e01b81526004016118279291906122c8565b602060405180830381865afa158015611844573d6000803e3d6000fd5b505050506040513d601f19601f8201168201806040525081019061186891906120c8565b115b156118b0578282826040517fc1a76f6c0000000000000000000000000000000000000000000000000000000081526004016118a7939291906123ef565b60405180910390fd5b6119318363095ea7b360e01b84846040516024016118cf9291906122f1565b604051602081830303815290604052907bffffffffffffffffffffffffffffffffffffffffffffffffffffffff19166020820180517bffffffffffffffffffffffffffffffffffffffffffffffffffffffff8381831617835250505050611936565b505050565b6000611998826040518060400160405280602081526020017f5361666545524332303a206c6f772d6c6576656c2063616c6c206661696c65648152508573ffffffffffffffffffffffffffffffffffffffff16611b559092919063ffffffff16565b90506000815111156119ef57808060200190518101906119b89190612346565b6119ee576040517fa479450200000000000000000000000000000000000000000000000000000000815260040160405180910390fd5b5b505050565b611a77846323b872dd60e01b858585604051602401611a15939291906123ef565b604051602081830303815290604052907bffffffffffffffffffffffffffffffffffffffffffffffffffffffff19166020820180517bffffffffffffffffffffffffffffffffffffffffffffffffffffffff8381831617835250505050611936565b50505050565b8060026000828254611a8f9190612272565b92505081905550806000808473ffffffffffffffffffffffffffffffffffffffff1673ffffffffffffffffffffffffffffffffffffffff1681526020019081526020016000206000828254611ae49190612272565b925050819055508173ffffffffffffffffffffffffffffffffffffffff16600073ffffffffffffffffffffffffffffffffffffffff167fddf252ad1be2c89b69c2b068fc378daa952ba7f163c4a11628f55a4df523b3ef83604051611b499190611eea565b60405180910390a35050565b6060611b648484600085611b6d565b90509392505050565b606082471015611bb65747836040517f02de226f000000000000000000000000000000000000000000000000000000008152600401611bad9291906121de565b60405180910390fd5b611bbf85611c87565b611c0057846040517f8a8b41ec000000000000000000000000000000000000000000000000000000008152600401611bf79190611ff8565b60405180910390fd5b6000808673ffffffffffffffffffffffffffffffffffffffff168587604051611c29919061246d565b60006040518083038185875af1925050503d8060008114611c66576040519150601f19603f3d011682016040523d82523d6000602084013e611c6b565b606091505b5091509150611c7b828286611caa565b92505050949350505050565b6000808273ffffffffffffffffffffffffffffffffffffffff163b119050919050565b60608315611cba57829050611d0a565b600083511115611ccd5782518084602001fd5b816040517f08c379a0000000000000000000000000000000000000000000000000000000008152600401611d019190611daa565b60405180910390fd5b9392505050565b600081519050919050565b600082825260208201905092915050565b60005b83811015611d4b578082015181840152602081019050611d30565b83811115611d5a576000848401525b50505050565b6000601f19601f8301169050919050565b6000611d7c82611d11565b611d868185611d1c565b9350611d96818560208601611d2d565b611d9f81611d60565b840191505092915050565b60006020820190508181036000830152611dc48184611d71565b905092915050565b600080fd5b600073ffffffffffffffffffffffffffffffffffffffff82169050919050565b6000611dfc82611dd1565b9050919050565b611e0c81611df1565b8114611e1757600080fd5b50565b600081359050611e2981611e03565b92915050565b6000819050919050565b611e4281611e2f565b8114611e4d57600080fd5b50565b600081359050611e5f81611e39565b92915050565b60008060408385031215611e7c57611e7b611dcc565b5b6000611e8a85828601611e1a565b9250506020611e9b85828601611e50565b9150509250929050565b60008115159050919050565b611eba81611ea5565b82525050565b6000602082019050611ed56000830184611eb1565b92915050565b611ee481611e2f565b82525050565b6000602082019050611eff6000830184611edb565b92915050565b600080600060608486031215611f1e57611f1d611dcc565b5b6000611f2c86828701611e1a565b9350506020611f3d86828701611e1a565b9250506040611f4e86828701611e50565b9150509250925092565b600060208284031215611f6e57611f6d611dcc565b5b6000611f7c84828501611e50565b91505092915050565b600060ff82169050919050565b611f9b81611f85565b82525050565b6000602082019050611fb66000830184611f92565b92915050565b600060208284031215611fd257611fd1611dcc565b5b6000611fe084828501611e1a565b91505092915050565b611ff281611df1565b82525050565b600060208201905061200d6000830184611fe9565b92915050565b6000806040838503121561202a57612029611dcc565b5b600061203885828601611e1a565b925050602061204985828601611e1a565b9150509250929050565b7f4e487b7100000000000000000000000000000000000000000000000000000000600052602260045260246000fd5b6000600282049050600182168061209a57607f821691505b6020821081036120ad576120ac612053565b5b50919050565b6000815190506120c281611e39565b92915050565b6000602082840312156120de576120dd611dcc565b5b60006120ec848285016120b3565b91505092915050565b7f4e487b7100000000000000000000000000000000000000000000000000000000600052601160045260246000fd5b600061212f82611e2f565b915061213a83611e2f565b9250817fffffffffffffffffffffffffffffffffffffffffffffffffffffffffffffffff0483118215151615612173576121726120f5565b5b828202905092915050565b7f4e487b7100000000000000000000000000000000000000000000000000000000600052601260045260246000fd5b60006121b882611e2f565b91506121c383611e2f565b9250826121d3576121d261217e565b5b828204905092915050565b60006040820190506121f36000830185611edb565b6122006020830184611edb565b9392505050565b600061221282611e2f565b915061221d83611e2f565b9250828210156122305761222f6120f5565b5b828203905092915050565b60006060820190506122506000830186611fe9565b61225d6020830185611edb565b61226a6040830184611fe9565b949350505050565b600061227d82611e2f565b915061228883611e2f565b9250827fffffffffffffffffffffffffffffffffffffffffffffffffffffffffffffffff038211156122bd576122bc6120f5565b5b828201905092915050565b60006040820190506122dd6000830185611fe9565b6122ea6020830184611fe9565b9392505050565b60006040820190506123066000830185611fe9565b6123136020830184611edb565b9392505050565b61232381611ea5565b811461232e57600080fd5b50565b6000815190506123408161231a565b92915050565b60006020828403121561235c5761235b611dcc565b5b600061236a84828501612331565b91505092915050565b6000819050919050565b6000819050919050565b60006123a261239d61239884612373565b61237d565b611e2f565b9050919050565b6123b281612387565b82525050565b60006060820190506123cd6000830186611edb565b6123da60208301856123a9565b6123e76040830184611edb565b949350505050565b60006060820190506124046000830186611fe9565b6124116020830185611fe9565b61241e6040830184611edb565b949350505050565b600081519050919050565b600081905092915050565b600061244782612426565b6124518185612431565b9350612461818560208601611d2d565b80840191505092915050565b6000612479828461243c565b91508190509291505056fea2646970667358221220c94f4c7855783fff6ea2f1d61552c1889b441bb166cf00dd555d0fa27d8a45d064736f6c634300080d0033",
  "linkReferences": {},
  "deployedLinkReferences": {}
}