{
  "_format": "hh-sol-artifact-1",
  "contractName": "LimboProxy",
  "sourceName": "contracts/TokenProxies/LimboProxy.sol",
  "abi": [
    {
      "inputs": [
        {
          "internalType": "address",
          "name": "_baseToken",
          "type": "address"
        },
        {
          "internalType": "string",
          "name": "name_",
          "type": "string"
        },
        {
          "internalType": "string",
          "name": "symbol_",
          "type": "string"
        },
        {
          "internalType": "address",
          "name": "registry",
          "type": "address"
        },
        {
          "internalType": "address",
          "name": "_limbo",
          "type": "address"
        }
      ],
      "stateMutability": "nonpayable",
      "type": "constructor"
    },
    {
      "inputs": [
        {
          "internalType": "uint256",
          "name": "allowance",
          "type": "uint256"
        },
        {
          "internalType": "uint256",
          "name": "amount",
          "type": "uint256"
        }
      ],
      "name": "AllowanceExceeded",
      "type": "error"
    },
    {
      "inputs": [
        {
          "internalType": "uint256",
          "name": "allowance",
          "type": "uint256"
        },
        {
          "internalType": "uint256",
          "name": "subtraction",
          "type": "uint256"
        }
      ],
      "name": "AllowanceUnderflow",
      "type": "error"
    },
    {
      "inputs": [
        {
          "internalType": "address",
          "name": "token",
          "type": "address"
        },
        {
          "internalType": "address",
          "name": "spender",
          "type": "address"
        },
        {
          "internalType": "uint256",
          "name": "amount",
          "type": "uint256"
        }
      ],
      "name": "ApproveToNonZero",
      "type": "error"
    },
    {
      "inputs": [
        {
          "internalType": "uint256",
          "name": "accountBalance",
          "type": "uint256"
        },
        {
          "internalType": "uint256",
          "name": "amount",
          "type": "uint256"
        }
      ],
      "name": "BurnUnderflow",
      "type": "error"
    },
    {
      "inputs": [
        {
          "internalType": "uint256",
          "name": "balance",
          "type": "uint256"
        },
        {
          "internalType": "uint256",
          "name": "value",
          "type": "uint256"
        }
      ],
      "name": "InsufficinetFunds",
      "type": "error"
    },
    {
      "inputs": [
        {
          "internalType": "address",
          "name": "EOA",
          "type": "address"
        }
      ],
      "name": "NotAContract",
      "type": "error"
    },
    {
      "inputs": [
        {
          "internalType": "address",
          "name": "sender",
          "type": "address"
        },
        {
          "internalType": "address",
          "name": "proxy",
          "type": "address"
        }
      ],
      "name": "OnlyProxy",
      "type": "error"
    },
    {
      "inputs": [],
      "name": "OperationFailure",
      "type": "error"
    },
    {
      "inputs": [
        {
          "internalType": "uint256",
          "name": "senderBalance",
          "type": "uint256"
        },
        {
          "internalType": "uint256",
          "name": "fee",
          "type": "uint256"
        },
        {
          "internalType": "uint256",
          "name": "amount",
          "type": "uint256"
        }
      ],
      "name": "TransferUnderflow",
      "type": "error"
    },
    {
      "anonymous": false,
      "inputs": [
        {
          "indexed": true,
          "internalType": "address",
          "name": "owner",
          "type": "address"
        },
        {
          "indexed": true,
          "internalType": "address",
          "name": "spender",
          "type": "address"
        },
        {
          "indexed": false,
          "internalType": "uint256",
          "name": "value",
          "type": "uint256"
        }
      ],
      "name": "Approval",
      "type": "event"
    },
    {
      "anonymous": false,
      "inputs": [
        {
          "indexed": true,
          "internalType": "address",
          "name": "from",
          "type": "address"
        },
        {
          "indexed": true,
          "internalType": "address",
          "name": "to",
          "type": "address"
        },
        {
          "indexed": false,
          "internalType": "uint256",
          "name": "value",
          "type": "uint256"
        }
      ],
      "name": "Transfer",
      "type": "event"
    },
    {
      "inputs": [
        {
          "internalType": "address",
          "name": "owner",
          "type": "address"
        },
        {
          "internalType": "address",
          "name": "spender",
          "type": "address"
        }
      ],
      "name": "allowance",
      "outputs": [
        {
          "internalType": "uint256",
          "name": "",
          "type": "uint256"
        }
      ],
      "stateMutability": "view",
      "type": "function"
    },
    {
      "inputs": [
        {
          "internalType": "address",
          "name": "spender",
          "type": "address"
        },
        {
          "internalType": "uint256",
          "name": "amount",
          "type": "uint256"
        }
      ],
      "name": "approve",
      "outputs": [
        {
          "internalType": "bool",
          "name": "",
          "type": "bool"
        }
      ],
      "stateMutability": "nonpayable",
      "type": "function"
    },
    {
      "inputs": [],
      "name": "approveLimbo",
      "outputs": [],
      "stateMutability": "nonpayable",
      "type": "function"
    },
    {
      "inputs": [
        {
          "internalType": "address",
          "name": "account",
          "type": "address"
        }
      ],
      "name": "balanceOf",
      "outputs": [
        {
          "internalType": "uint256",
          "name": "",
          "type": "uint256"
        }
      ],
      "stateMutability": "view",
      "type": "function"
    },
    {
      "inputs": [],
      "name": "baseToken",
      "outputs": [
        {
          "internalType": "address",
          "name": "",
          "type": "address"
        }
      ],
      "stateMutability": "view",
      "type": "function"
    },
    {
      "inputs": [],
      "name": "decimals",
      "outputs": [
        {
          "internalType": "uint8",
          "name": "",
          "type": "uint8"
        }
      ],
      "stateMutability": "view",
      "type": "function"
    },
    {
      "inputs": [
        {
          "internalType": "address",
          "name": "spender",
          "type": "address"
        },
        {
          "internalType": "uint256",
          "name": "subtractedValue",
          "type": "uint256"
        }
      ],
      "name": "decreaseAllowance",
      "outputs": [
        {
          "internalType": "bool",
          "name": "",
          "type": "bool"
        }
      ],
      "stateMutability": "nonpayable",
      "type": "function"
    },
    {
      "inputs": [
        {
          "internalType": "address",
          "name": "spender",
          "type": "address"
        },
        {
          "internalType": "uint256",
          "name": "addedValue",
          "type": "uint256"
        }
      ],
      "name": "increaseAllowance",
      "outputs": [
        {
          "internalType": "bool",
          "name": "",
          "type": "bool"
        }
      ],
      "stateMutability": "nonpayable",
      "type": "function"
    },
    {
      "inputs": [
        {
          "internalType": "address",
          "name": "newProxy",
          "type": "address"
        }
      ],
      "name": "migrateBaseReserveToNewProxy",
      "outputs": [],
      "stateMutability": "nonpayable",
      "type": "function"
    },
    {
      "inputs": [],
      "name": "name",
      "outputs": [
        {
          "internalType": "string",
          "name": "",
          "type": "string"
        }
      ],
      "stateMutability": "view",
      "type": "function"
    },
    {
      "inputs": [],
      "name": "proxyRegistry",
      "outputs": [
        {
          "internalType": "address",
          "name": "",
          "type": "address"
        }
      ],
      "stateMutability": "view",
      "type": "function"
    },
    {
      "inputs": [
        {
          "internalType": "address",
          "name": "proxySource",
          "type": "address"
        },
        {
          "internalType": "address",
          "name": "baseRecipient",
          "type": "address"
        },
        {
          "internalType": "uint256",
          "name": "amount",
          "type": "uint256"
        }
      ],
      "name": "redeem",
      "outputs": [
        {
          "internalType": "uint256",
          "name": "baseAmount",
          "type": "uint256"
        }
      ],
      "stateMutability": "nonpayable",
      "type": "function"
    },
    {
      "inputs": [],
      "name": "redeemRate",
      "outputs": [
        {
          "internalType": "uint256",
          "name": "",
          "type": "uint256"
        }
      ],
      "stateMutability": "view",
      "type": "function"
    },
    {
      "inputs": [
        {
          "internalType": "uint256",
          "name": "amount",
          "type": "uint256"
        }
      ],
      "name": "stake",
      "outputs": [],
      "stateMutability": "nonpayable",
      "type": "function"
    },
    {
      "inputs": [],
      "name": "symbol",
      "outputs": [
        {
          "internalType": "string",
          "name": "",
          "type": "string"
        }
      ],
      "stateMutability": "view",
      "type": "function"
    },
    {
      "inputs": [],
      "name": "totalSupply",
      "outputs": [
        {
          "internalType": "uint256",
          "name": "",
          "type": "uint256"
        }
      ],
      "stateMutability": "view",
      "type": "function"
    },
    {
      "inputs": [
        {
          "internalType": "address",
          "name": "recipient",
          "type": "address"
        },
        {
          "internalType": "uint256",
          "name": "amount",
          "type": "uint256"
        }
      ],
      "name": "transfer",
      "outputs": [
        {
          "internalType": "bool",
          "name": "",
          "type": "bool"
        }
      ],
      "stateMutability": "nonpayable",
      "type": "function"
    },
    {
      "inputs": [
        {
          "internalType": "address",
          "name": "sender",
          "type": "address"
        },
        {
          "internalType": "address",
          "name": "recipient",
          "type": "address"
        },
        {
          "internalType": "uint256",
          "name": "amount",
          "type": "uint256"
        }
      ],
      "name": "transferFrom",
      "outputs": [
        {
          "internalType": "bool",
          "name": "",
          "type": "bool"
        }
      ],
      "stateMutability": "nonpayable",
      "type": "function"
    },
    {
      "inputs": [
        {
          "internalType": "uint256",
          "name": "amount",
          "type": "uint256"
        }
      ],
      "name": "unstake",
      "outputs": [],
      "stateMutability": "nonpayable",
      "type": "function"
    }
  ],
  "bytecode": "0x60c06040523480156200001157600080fd5b506040516200267d3803806200267d8339818101604052810190620000379190620003db565b84848484828281600390805190602001906200005592919062000129565b5080600490805190602001906200006e92919062000129565b5050508373ffffffffffffffffffffffffffffffffffffffff1660a08173ffffffffffffffffffffffffffffffffffffffff16815250508073ffffffffffffffffffffffffffffffffffffffff1660808173ffffffffffffffffffffffffffffffffffffffff16815250505050505080600560006101000a81548173ffffffffffffffffffffffffffffffffffffffff021916908373ffffffffffffffffffffffffffffffffffffffff160217905550505050505062000505565b8280546200013790620004d0565b90600052602060002090601f0160209004810192826200015b5760008555620001a7565b82601f106200017657805160ff1916838001178555620001a7565b82800160010185558215620001a7579182015b82811115620001a657825182559160200191906001019062000189565b5b509050620001b69190620001ba565b5090565b5b80821115620001d5576000816000905550600101620001bb565b5090565b6000604051905090565b600080fd5b600080fd5b600073ffffffffffffffffffffffffffffffffffffffff82169050919050565b60006200021a82620001ed565b9050919050565b6200022c816200020d565b81146200023857600080fd5b50565b6000815190506200024c8162000221565b92915050565b600080fd5b600080fd5b6000601f19601f8301169050919050565b7f4e487b7100000000000000000000000000000000000000000000000000000000600052604160045260246000fd5b620002a7826200025c565b810181811067ffffffffffffffff82111715620002c957620002c86200026d565b5b80604052505050565b6000620002de620001d9565b9050620002ec82826200029c565b919050565b600067ffffffffffffffff8211156200030f576200030e6200026d565b5b6200031a826200025c565b9050602081019050919050565b60005b83811015620003475780820151818401526020810190506200032a565b8381111562000357576000848401525b50505050565b6000620003746200036e84620002f1565b620002d2565b90508281526020810184848401111562000393576200039262000257565b5b620003a084828562000327565b509392505050565b600082601f830112620003c057620003bf62000252565b5b8151620003d28482602086016200035d565b91505092915050565b600080600080600060a08688031215620003fa57620003f9620001e3565b5b60006200040a888289016200023b565b955050602086015167ffffffffffffffff8111156200042e576200042d620001e8565b5b6200043c88828901620003a8565b945050604086015167ffffffffffffffff81111562000460576200045f620001e8565b5b6200046e88828901620003a8565b935050606062000481888289016200023b565b925050608062000494888289016200023b565b9150509295509295909350565b7f4e487b7100000000000000000000000000000000000000000000000000000000600052602260045260246000fd5b60006002820490506001821680620004e957607f821691505b602082108103620004ff57620004fe620004a1565b5b50919050565b60805160a05161211a6200056360003960008181610484015281816105b601528181610b1b01528181610c7a015281816112790152818161131b0152611365015260008181610af701528181610bc60152610c1a015261211a6000f3fe608060405234801561001057600080fd5b50600436106101215760003560e01c806370a08231116100ad578063b50cbd9f11610071578063b50cbd9f14610344578063c55dae6314610362578063dd62ed3e14610380578063ed3b379b146103b0578063f8f1197e146103cc57610121565b806370a082311461027a57806395d89b41146102aa578063a457c2d7146102c8578063a694fc3a146102f8578063a9059cbb1461031457610121565b806318160ddd116100f457806318160ddd146101c257806323b872dd146101e05780632e17de7814610210578063313ce5671461022c578063395093511461024a57610121565b806306fdde0314610126578063095ea7b3146101445780630adcdbaa146101745780630e6dfcd514610192575b600080fd5b61012e6103d6565b60405161013b9190611a0a565b60405180910390f35b61015e60048036038101906101599190611ac5565b610468565b60405161016b9190611b20565b60405180910390f35b61017c61047f565b6040516101899190611b4a565b60405180910390f35b6101ac60048036038101906101a79190611b65565b610577565b6040516101b99190611b4a565b60405180910390f35b6101ca610602565b6040516101d79190611b4a565b60405180910390f35b6101fa60048036038101906101f59190611b65565b61060c565b6040516102079190611b20565b60405180910390f35b61022a60048036038101906102259190611bb8565b61072f565b005b6102346107cf565b6040516102419190611c01565b60405180910390f35b610264600480360381019061025f9190611ac5565b6107d8565b6040516102719190611b20565b60405180910390f35b610294600480360381019061028f9190611c1c565b610876565b6040516102a19190611b4a565b60405180910390f35b6102b26108be565b6040516102bf9190611a0a565b60405180910390f35b6102e260048036038101906102dd9190611ac5565b610950565b6040516102ef9190611b20565b60405180910390f35b610312600480360381019061030d9190611bb8565b610a31565b005b61032e60048036038101906103299190611ac5565b610ade565b60405161033b9190611b20565b60405180910390f35b61034c610af5565b6040516103599190611c58565b60405180910390f35b61036a610b19565b6040516103779190611c58565b60405180910390f35b61039a60048036038101906103959190611c73565b610b3d565b6040516103a79190611b4a565b60405180910390f35b6103ca60048036038101906103c59190611c1c565b610bc4565b005b6103d4610d97565b005b6060600380546103e590611ce2565b80601f016020809104026020016040519081016040528092919081815260200182805461041190611ce2565b801561045e5780601f106104335761010080835404028352916020019161045e565b820191906000526020600020905b81548152906001019060200180831161044157829003601f168201915b5050505050905090565b6000610475338484610e06565b6001905092915050565b6000807f000000000000000000000000000000000000000000000000000000000000000073ffffffffffffffffffffffffffffffffffffffff166370a08231306040518263ffffffff1660e01b81526004016104db9190611c58565b602060405180830381865afa1580156104f8573d6000803e3d6000fd5b505050506040513d601f19601f8201168201806040525081019061051c9190611d28565b90506000610528610602565b14806105345750600081145b1561054a57670de0b6b3a7640000915050610574565b610552610602565b670de0b6b3a7640000826105669190611d84565b6105709190611e0d565b9150505b90565b60008061058261047f565b905061058e8584610ef1565b670de0b6b3a764000081846105a39190611d84565b6105ad9190611e0d565b91506105fa84837f000000000000000000000000000000000000000000000000000000000000000073ffffffffffffffffffffffffffffffffffffffff1661103b9092919063ffffffff16565b509392505050565b6000600254905090565b60006106198484846110c1565b6000600160008673ffffffffffffffffffffffffffffffffffffffff1673ffffffffffffffffffffffffffffffffffffffff16815260200190815260200160002060003373ffffffffffffffffffffffffffffffffffffffff1673ffffffffffffffffffffffffffffffffffffffff1681526020019081526020016000205490507fffffffffffffffffffffffffffffffffffffffffffffffffffffffffffffffff81141580156106c957508083115b1561070d5780836040517fa9248256000000000000000000000000000000000000000000000000000000008152600401610704929190611e3e565b60405180910390fd5b6107238533858461071e9190611e67565b610e06565b60019150509392505050565b600560009054906101000a900473ffffffffffffffffffffffffffffffffffffffff1673ffffffffffffffffffffffffffffffffffffffff1663026800d03083336040518463ffffffff1660e01b815260040161078e93929190611e9b565b600060405180830381600087803b1580156107a857600080fd5b505af11580156107bc573d6000803e3d6000fd5b505050506107cb303383610577565b5050565b60006012905090565b600061086c338484600160003373ffffffffffffffffffffffffffffffffffffffff1673ffffffffffffffffffffffffffffffffffffffff16815260200190815260200160002060008873ffffffffffffffffffffffffffffffffffffffff1673ffffffffffffffffffffffffffffffffffffffff168152602001908152602001600020546108679190611ed2565b610e06565b6001905092915050565b60008060008373ffffffffffffffffffffffffffffffffffffffff1673ffffffffffffffffffffffffffffffffffffffff168152602001908152602001600020549050919050565b6060600480546108cd90611ce2565b80601f01602080910402602001604051908101604052809291908181526020018280546108f990611ce2565b80156109465780601f1061091b57610100808354040283529160200191610946565b820191906000526020600020905b81548152906001019060200180831161092957829003601f168201915b5050505050905090565b600080600160003373ffffffffffffffffffffffffffffffffffffffff1673ffffffffffffffffffffffffffffffffffffffff16815260200190815260200160002060008573ffffffffffffffffffffffffffffffffffffffff1673ffffffffffffffffffffffffffffffffffffffff16815260200190815260200160002054905082811015610a195780836040517fda2d822c000000000000000000000000000000000000000000000000000000008152600401610a10929190611e3e565b60405180910390fd5b610a263385858403610e06565b600191505092915050565b6000610a47670de0b6b3a764000030338561124a565b9050600560009054906101000a900473ffffffffffffffffffffffffffffffffffffffff1673ffffffffffffffffffffffffffffffffffffffff16639b8f04b73083336040518463ffffffff1660e01b8152600401610aa893929190611e9b565b600060405180830381600087803b158015610ac257600080fd5b505af1158015610ad6573d6000803e3d6000fd5b505050505050565b6000610aeb3384846110c1565b6001905092915050565b7f000000000000000000000000000000000000000000000000000000000000000081565b7f000000000000000000000000000000000000000000000000000000000000000081565b6000600160008473ffffffffffffffffffffffffffffffffffffffff1673ffffffffffffffffffffffffffffffffffffffff16815260200190815260200160002060008373ffffffffffffffffffffffffffffffffffffffff1673ffffffffffffffffffffffffffffffffffffffff16815260200190815260200160002054905092915050565b7f000000000000000000000000000000000000000000000000000000000000000073ffffffffffffffffffffffffffffffffffffffff163373ffffffffffffffffffffffffffffffffffffffff1614610c7657337f00000000000000000000000000000000000000000000000000000000000000006040517fd214286f000000000000000000000000000000000000000000000000000000008152600401610c6d929190611f28565b60405180910390fd5b60007f000000000000000000000000000000000000000000000000000000000000000090508073ffffffffffffffffffffffffffffffffffffffff1663a9059cbb838373ffffffffffffffffffffffffffffffffffffffff166370a08231306040518263ffffffff1660e01b8152600401610cf19190611c58565b602060405180830381865afa158015610d0e573d6000803e3d6000fd5b505050506040513d601f19601f82011682018060405250810190610d329190611d28565b6040518363ffffffff1660e01b8152600401610d4f929190611f51565b6020604051808303816000875af1158015610d6e573d6000803e3d6000fd5b505050506040513d601f19601f82011682018060405250810190610d929190611fa6565b505050565b610e04600560009054906101000a900473ffffffffffffffffffffffffffffffffffffffff167fffffffffffffffffffffffffffffffffffffffffffffffffffffffffffffffff3073ffffffffffffffffffffffffffffffffffffffff1661143f9092919063ffffffff16565b565b80600160008573ffffffffffffffffffffffffffffffffffffffff1673ffffffffffffffffffffffffffffffffffffffff16815260200190815260200160002060008473ffffffffffffffffffffffffffffffffffffffff1673ffffffffffffffffffffffffffffffffffffffff168152602001908152602001600020819055508173ffffffffffffffffffffffffffffffffffffffff168373ffffffffffffffffffffffffffffffffffffffff167f8c5be1e5ebec7d5bd14f71427d1e84f3dd0314c0f7b2291e5b200ac8c7c3b92583604051610ee49190611b4a565b60405180910390a3505050565b60008060008473ffffffffffffffffffffffffffffffffffffffff1673ffffffffffffffffffffffffffffffffffffffff16815260200190815260200160002054905081811015610f7b5780826040517f0a37dd41000000000000000000000000000000000000000000000000000000008152600401610f72929190611e3e565b60405180910390fd5b8181036000808573ffffffffffffffffffffffffffffffffffffffff1673ffffffffffffffffffffffffffffffffffffffff1681526020019081526020016000208190555081600260008282540392505081905550600073ffffffffffffffffffffffffffffffffffffffff168373ffffffffffffffffffffffffffffffffffffffff167fddf252ad1be2c89b69c2b068fc378daa952ba7f163c4a11628f55a4df523b3ef8460405161102e9190611b4a565b60405180910390a3505050565b6110bc8363a9059cbb60e01b848460405160240161105a929190611f51565b604051602081830303815290604052907bffffffffffffffffffffffffffffffffffffffffffffffffffffffff19166020820180517bffffffffffffffffffffffffffffffffffffffffffffffffffffffff8381831617835250505050611596565b505050565b60008060008573ffffffffffffffffffffffffffffffffffffffff1673ffffffffffffffffffffffffffffffffffffffff1681526020019081526020016000205490508181101561114e57806000836040517f57b9c4a400000000000000000000000000000000000000000000000000000000815260040161114593929190612018565b60405180910390fd5b8181036000808673ffffffffffffffffffffffffffffffffffffffff1673ffffffffffffffffffffffffffffffffffffffff16815260200190815260200160002081905550816000808573ffffffffffffffffffffffffffffffffffffffff1673ffffffffffffffffffffffffffffffffffffffff168152602001908152602001600020600082825401925050819055508273ffffffffffffffffffffffffffffffffffffffff168473ffffffffffffffffffffffffffffffffffffffff167fddf252ad1be2c89b69c2b068fc378daa952ba7f163c4a11628f55a4df523b3ef8460405161123c9190611b4a565b60405180910390a350505050565b600080670de0b6b3a76400008661125f61047f565b6112699190611d84565b6112739190611e0d565b905060007f000000000000000000000000000000000000000000000000000000000000000073ffffffffffffffffffffffffffffffffffffffff166370a08231306040518263ffffffff1660e01b81526004016112d09190611c58565b602060405180830381865afa1580156112ed573d6000803e3d6000fd5b505050506040513d601f19601f820116820180604052508101906113119190611d28565b90506113608530867f000000000000000000000000000000000000000000000000000000000000000073ffffffffffffffffffffffffffffffffffffffff16611654909392919063ffffffff16565b6000817f000000000000000000000000000000000000000000000000000000000000000073ffffffffffffffffffffffffffffffffffffffff166370a08231306040518263ffffffff1660e01b81526004016113bc9190611c58565b602060405180830381865afa1580156113d9573d6000803e3d6000fd5b505050506040513d601f19601f820116820180604052508101906113fd9190611d28565b6114079190611e67565b905082670de0b6b3a76400008261141e9190611d84565b6114289190611e0d565b935061143487856116dd565b505050949350505050565b6000811180156114ca575060008373ffffffffffffffffffffffffffffffffffffffff1663dd62ed3e30856040518363ffffffff1660e01b8152600401611487929190611f28565b602060405180830381865afa1580156114a4573d6000803e3d6000fd5b505050506040513d601f19601f820116820180604052508101906114c89190611d28565b115b15611510578282826040517fc1a76f6c0000000000000000000000000000000000000000000000000000000081526004016115079392919061204f565b60405180910390fd5b6115918363095ea7b360e01b848460405160240161152f929190611f51565b604051602081830303815290604052907bffffffffffffffffffffffffffffffffffffffffffffffffffffffff19166020820180517bffffffffffffffffffffffffffffffffffffffffffffffffffffffff8381831617835250505050611596565b505050565b60006115f8826040518060400160405280602081526020017f5361666545524332303a206c6f772d6c6576656c2063616c6c206661696c65648152508573ffffffffffffffffffffffffffffffffffffffff166117b59092919063ffffffff16565b905060008151111561164f57808060200190518101906116189190611fa6565b61164e576040517fa479450200000000000000000000000000000000000000000000000000000000815260040160405180910390fd5b5b505050565b6116d7846323b872dd60e01b8585856040516024016116759392919061204f565b604051602081830303815290604052907bffffffffffffffffffffffffffffffffffffffffffffffffffffffff19166020820180517bffffffffffffffffffffffffffffffffffffffffffffffffffffffff8381831617835250505050611596565b50505050565b80600260008282546116ef9190611ed2565b92505081905550806000808473ffffffffffffffffffffffffffffffffffffffff1673ffffffffffffffffffffffffffffffffffffffff16815260200190815260200160002060008282546117449190611ed2565b925050819055508173ffffffffffffffffffffffffffffffffffffffff16600073ffffffffffffffffffffffffffffffffffffffff167fddf252ad1be2c89b69c2b068fc378daa952ba7f163c4a11628f55a4df523b3ef836040516117a99190611b4a565b60405180910390a35050565b60606117c484846000856117cd565b90509392505050565b6060824710156118165747836040517f02de226f00000000000000000000000000000000000000000000000000000000815260040161180d929190611e3e565b60405180910390fd5b61181f856118e7565b61186057846040517f8a8b41ec0000000000000000000000000000000000000000000000000000000081526004016118579190611c58565b60405180910390fd5b6000808673ffffffffffffffffffffffffffffffffffffffff16858760405161188991906120cd565b60006040518083038185875af1925050503d80600081146118c6576040519150601f19603f3d011682016040523d82523d6000602084013e6118cb565b606091505b50915091506118db82828661190a565b92505050949350505050565b6000808273ffffffffffffffffffffffffffffffffffffffff163b119050919050565b6060831561191a5782905061196a565b60008351111561192d5782518084602001fd5b816040517f08c379a00000000000000000000000000000000000000000000000000000000081526004016119619190611a0a565b60405180910390fd5b9392505050565b600081519050919050565b600082825260208201905092915050565b60005b838110156119ab578082015181840152602081019050611990565b838111156119ba576000848401525b50505050565b6000601f19601f8301169050919050565b60006119dc82611971565b6119e6818561197c565b93506119f681856020860161198d565b6119ff816119c0565b840191505092915050565b60006020820190508181036000830152611a2481846119d1565b905092915050565b600080fd5b600073ffffffffffffffffffffffffffffffffffffffff82169050919050565b6000611a5c82611a31565b9050919050565b611a6c81611a51565b8114611a7757600080fd5b50565b600081359050611a8981611a63565b92915050565b6000819050919050565b611aa281611a8f565b8114611aad57600080fd5b50565b600081359050611abf81611a99565b92915050565b60008060408385031215611adc57611adb611a2c565b5b6000611aea85828601611a7a565b9250506020611afb85828601611ab0565b9150509250929050565b60008115159050919050565b611b1a81611b05565b82525050565b6000602082019050611b356000830184611b11565b92915050565b611b4481611a8f565b82525050565b6000602082019050611b5f6000830184611b3b565b92915050565b600080600060608486031215611b7e57611b7d611a2c565b5b6000611b8c86828701611a7a565b9350506020611b9d86828701611a7a565b9250506040611bae86828701611ab0565b9150509250925092565b600060208284031215611bce57611bcd611a2c565b5b6000611bdc84828501611ab0565b91505092915050565b600060ff82169050919050565b611bfb81611be5565b82525050565b6000602082019050611c166000830184611bf2565b92915050565b600060208284031215611c3257611c31611a2c565b5b6000611c4084828501611a7a565b91505092915050565b611c5281611a51565b82525050565b6000602082019050611c6d6000830184611c49565b92915050565b60008060408385031215611c8a57611c89611a2c565b5b6000611c9885828601611a7a565b9250506020611ca985828601611a7a565b9150509250929050565b7f4e487b7100000000000000000000000000000000000000000000000000000000600052602260045260246000fd5b60006002820490506001821680611cfa57607f821691505b602082108103611d0d57611d0c611cb3565b5b50919050565b600081519050611d2281611a99565b92915050565b600060208284031215611d3e57611d3d611a2c565b5b6000611d4c84828501611d13565b91505092915050565b7f4e487b7100000000000000000000000000000000000000000000000000000000600052601160045260246000fd5b6000611d8f82611a8f565b9150611d9a83611a8f565b9250817fffffffffffffffffffffffffffffffffffffffffffffffffffffffffffffffff0483118215151615611dd357611dd2611d55565b5b828202905092915050565b7f4e487b7100000000000000000000000000000000000000000000000000000000600052601260045260246000fd5b6000611e1882611a8f565b9150611e2383611a8f565b925082611e3357611e32611dde565b5b828204905092915050565b6000604082019050611e536000830185611b3b565b611e606020830184611b3b565b9392505050565b6000611e7282611a8f565b9150611e7d83611a8f565b925082821015611e9057611e8f611d55565b5b828203905092915050565b6000606082019050611eb06000830186611c49565b611ebd6020830185611b3b565b611eca6040830184611c49565b949350505050565b6000611edd82611a8f565b9150611ee883611a8f565b9250827fffffffffffffffffffffffffffffffffffffffffffffffffffffffffffffffff03821115611f1d57611f1c611d55565b5b828201905092915050565b6000604082019050611f3d6000830185611c49565b611f4a6020830184611c49565b9392505050565b6000604082019050611f666000830185611c49565b611f736020830184611b3b565b9392505050565b611f8381611b05565b8114611f8e57600080fd5b50565b600081519050611fa081611f7a565b92915050565b600060208284031215611fbc57611fbb611a2c565b5b6000611fca84828501611f91565b91505092915050565b6000819050919050565b6000819050919050565b6000612002611ffd611ff884611fd3565b611fdd565b611a8f565b9050919050565b61201281611fe7565b82525050565b600060608201905061202d6000830186611b3b565b61203a6020830185612009565b6120476040830184611b3b565b949350505050565b60006060820190506120646000830186611c49565b6120716020830185611c49565b61207e6040830184611b3b565b949350505050565b600081519050919050565b600081905092915050565b60006120a782612086565b6120b18185612091565b93506120c181856020860161198d565b80840191505092915050565b60006120d9828461209c565b91508190509291505056fea2646970667358221220feabcb62cf244d3bfac23b1564957b5814f35a83769c58a5798081540806089464736f6c634300080d0033",
  "linkReferences": {},
  "deployedLinkReferences": {}
}