{
  "_format": "hh-sol-artifact-1",
  "contractName": "LimboProxy",
  "sourceName": "contracts/TokenProxies/LimboProxy.sol",
  "abi": [
    {
      "inputs": [
        {
          "internalType": "address",
          "name": "_baseToken",
          "type": "address"
        },
        {
          "internalType": "string",
          "name": "name_",
          "type": "string"
        },
        {
          "internalType": "string",
          "name": "symbol_",
          "type": "string"
        },
        {
          "internalType": "address",
          "name": "registry",
          "type": "address"
        },
        {
          "internalType": "address",
          "name": "_limbo",
          "type": "address"
        },
        {
          "internalType": "address",
          "name": "_flan",
          "type": "address"
        },
        {
          "internalType": "uint256",
          "name": "initialRedeemRate",
          "type": "uint256"
        }
      ],
      "stateMutability": "nonpayable",
      "type": "constructor"
    },
    {
      "inputs": [
        {
          "internalType": "uint256",
          "name": "allowance",
          "type": "uint256"
        },
        {
          "internalType": "uint256",
          "name": "amount",
          "type": "uint256"
        }
      ],
      "name": "AllowanceExceeded",
      "type": "error"
    },
    {
      "inputs": [
        {
          "internalType": "uint256",
          "name": "allowance",
          "type": "uint256"
        },
        {
          "internalType": "uint256",
          "name": "subtraction",
          "type": "uint256"
        }
      ],
      "name": "AllowanceUnderflow",
      "type": "error"
    },
    {
      "inputs": [
        {
          "internalType": "address",
          "name": "token",
          "type": "address"
        },
        {
          "internalType": "address",
          "name": "spender",
          "type": "address"
        },
        {
          "internalType": "uint256",
          "name": "amount",
          "type": "uint256"
        }
      ],
      "name": "ApproveToNonZero",
      "type": "error"
    },
    {
      "inputs": [
        {
          "internalType": "uint256",
          "name": "accountBalance",
          "type": "uint256"
        },
        {
          "internalType": "uint256",
          "name": "amount",
          "type": "uint256"
        }
      ],
      "name": "BurnUnderflow",
      "type": "error"
    },
    {
      "inputs": [
        {
          "internalType": "uint256",
          "name": "balance",
          "type": "uint256"
        },
        {
          "internalType": "uint256",
          "name": "value",
          "type": "uint256"
        }
      ],
      "name": "InsufficinetFunds",
      "type": "error"
    },
    {
      "inputs": [
        {
          "internalType": "address",
          "name": "EOA",
          "type": "address"
        }
      ],
      "name": "NotAContract",
      "type": "error"
    },
    {
      "inputs": [
        {
          "internalType": "address",
          "name": "sender",
          "type": "address"
        },
        {
          "internalType": "address",
          "name": "proxy",
          "type": "address"
        }
      ],
      "name": "OnlyProxy",
      "type": "error"
    },
    {
      "inputs": [],
      "name": "OperationFailure",
      "type": "error"
    },
    {
      "inputs": [
        {
          "internalType": "uint256",
          "name": "senderBalance",
          "type": "uint256"
        },
        {
          "internalType": "uint256",
          "name": "fee",
          "type": "uint256"
        },
        {
          "internalType": "uint256",
          "name": "amount",
          "type": "uint256"
        }
      ],
      "name": "TransferUnderflow",
      "type": "error"
    },
    {
      "anonymous": false,
      "inputs": [
        {
          "indexed": true,
          "internalType": "address",
          "name": "owner",
          "type": "address"
        },
        {
          "indexed": true,
          "internalType": "address",
          "name": "spender",
          "type": "address"
        },
        {
          "indexed": false,
          "internalType": "uint256",
          "name": "value",
          "type": "uint256"
        }
      ],
      "name": "Approval",
      "type": "event"
    },
    {
      "anonymous": false,
      "inputs": [
        {
          "indexed": true,
          "internalType": "address",
          "name": "from",
          "type": "address"
        },
        {
          "indexed": true,
          "internalType": "address",
          "name": "to",
          "type": "address"
        },
        {
          "indexed": false,
          "internalType": "uint256",
          "name": "value",
          "type": "uint256"
        }
      ],
      "name": "Transfer",
      "type": "event"
    },
    {
      "inputs": [
        {
          "internalType": "address",
          "name": "owner",
          "type": "address"
        },
        {
          "internalType": "address",
          "name": "spender",
          "type": "address"
        }
      ],
      "name": "allowance",
      "outputs": [
        {
          "internalType": "uint256",
          "name": "",
          "type": "uint256"
        }
      ],
      "stateMutability": "view",
      "type": "function"
    },
    {
      "inputs": [
        {
          "internalType": "address",
          "name": "spender",
          "type": "address"
        },
        {
          "internalType": "uint256",
          "name": "amount",
          "type": "uint256"
        }
      ],
      "name": "approve",
      "outputs": [
        {
          "internalType": "bool",
          "name": "",
          "type": "bool"
        }
      ],
      "stateMutability": "nonpayable",
      "type": "function"
    },
    {
      "inputs": [],
      "name": "approveLimbo",
      "outputs": [],
      "stateMutability": "nonpayable",
      "type": "function"
    },
    {
      "inputs": [
        {
          "internalType": "address",
          "name": "account",
          "type": "address"
        }
      ],
      "name": "balanceOf",
      "outputs": [
        {
          "internalType": "uint256",
          "name": "",
          "type": "uint256"
        }
      ],
      "stateMutability": "view",
      "type": "function"
    },
    {
      "inputs": [],
      "name": "baseToken",
      "outputs": [
        {
          "internalType": "address",
          "name": "",
          "type": "address"
        }
      ],
      "stateMutability": "view",
      "type": "function"
    },
    {
      "inputs": [],
      "name": "decimals",
      "outputs": [
        {
          "internalType": "uint8",
          "name": "",
          "type": "uint8"
        }
      ],
      "stateMutability": "view",
      "type": "function"
    },
    {
      "inputs": [
        {
          "internalType": "address",
          "name": "spender",
          "type": "address"
        },
        {
          "internalType": "uint256",
          "name": "subtractedValue",
          "type": "uint256"
        }
      ],
      "name": "decreaseAllowance",
      "outputs": [
        {
          "internalType": "bool",
          "name": "",
          "type": "bool"
        }
      ],
      "stateMutability": "nonpayable",
      "type": "function"
    },
    {
      "inputs": [
        {
          "internalType": "address",
          "name": "spender",
          "type": "address"
        },
        {
          "internalType": "uint256",
          "name": "addedValue",
          "type": "uint256"
        }
      ],
      "name": "increaseAllowance",
      "outputs": [
        {
          "internalType": "bool",
          "name": "",
          "type": "bool"
        }
      ],
      "stateMutability": "nonpayable",
      "type": "function"
    },
    {
      "inputs": [],
      "name": "initialRedeemRate",
      "outputs": [
        {
          "internalType": "uint256",
          "name": "",
          "type": "uint256"
        }
      ],
      "stateMutability": "view",
      "type": "function"
    },
    {
      "inputs": [
        {
          "internalType": "address",
          "name": "newProxy",
          "type": "address"
        }
      ],
      "name": "migrateBaseReserveToNewProxy",
      "outputs": [],
      "stateMutability": "nonpayable",
      "type": "function"
    },
    {
      "inputs": [],
      "name": "name",
      "outputs": [
        {
          "internalType": "string",
          "name": "",
          "type": "string"
        }
      ],
      "stateMutability": "view",
      "type": "function"
    },
    {
      "inputs": [],
      "name": "proxyRegistry",
      "outputs": [
        {
          "internalType": "address",
          "name": "",
          "type": "address"
        }
      ],
      "stateMutability": "view",
      "type": "function"
    },
    {
      "inputs": [
        {
          "internalType": "address",
          "name": "proxySource",
          "type": "address"
        },
        {
          "internalType": "address",
          "name": "baseRecipient",
          "type": "address"
        },
        {
          "internalType": "uint256",
          "name": "amount",
          "type": "uint256"
        }
      ],
      "name": "redeem",
      "outputs": [
        {
          "internalType": "uint256",
          "name": "baseAmount",
          "type": "uint256"
        }
      ],
      "stateMutability": "nonpayable",
      "type": "function"
    },
    {
      "inputs": [],
      "name": "redeemRate",
      "outputs": [
        {
          "internalType": "uint256",
          "name": "",
          "type": "uint256"
        }
      ],
      "stateMutability": "view",
      "type": "function"
    },
    {
      "inputs": [
        {
          "internalType": "uint256",
          "name": "amount",
          "type": "uint256"
        }
      ],
      "name": "stake",
      "outputs": [],
      "stateMutability": "nonpayable",
      "type": "function"
    },
    {
      "inputs": [],
      "name": "symbol",
      "outputs": [
        {
          "internalType": "string",
          "name": "",
          "type": "string"
        }
      ],
      "stateMutability": "view",
      "type": "function"
    },
    {
      "inputs": [],
      "name": "totalSupply",
      "outputs": [
        {
          "internalType": "uint256",
          "name": "",
          "type": "uint256"
        }
      ],
      "stateMutability": "view",
      "type": "function"
    },
    {
      "inputs": [
        {
          "internalType": "address",
          "name": "recipient",
          "type": "address"
        },
        {
          "internalType": "uint256",
          "name": "amount",
          "type": "uint256"
        }
      ],
      "name": "transfer",
      "outputs": [
        {
          "internalType": "bool",
          "name": "",
          "type": "bool"
        }
      ],
      "stateMutability": "nonpayable",
      "type": "function"
    },
    {
      "inputs": [
        {
          "internalType": "address",
          "name": "sender",
          "type": "address"
        },
        {
          "internalType": "address",
          "name": "recipient",
          "type": "address"
        },
        {
          "internalType": "uint256",
          "name": "amount",
          "type": "uint256"
        }
      ],
      "name": "transferFrom",
      "outputs": [
        {
          "internalType": "bool",
          "name": "",
          "type": "bool"
        }
      ],
      "stateMutability": "nonpayable",
      "type": "function"
    },
    {
      "inputs": [
        {
          "internalType": "uint256",
          "name": "amount",
          "type": "uint256"
        }
      ],
      "name": "unstake",
      "outputs": [],
      "stateMutability": "nonpayable",
      "type": "function"
    }
  ],
  "bytecode": "0x60e06040523480156200001157600080fd5b506040516200292938038062002929833981810160405281019062000037919062000463565b8686868684838381600390805190602001906200005692919062000176565b5080600490805190602001906200006f92919062000176565b5050508473ffffffffffffffffffffffffffffffffffffffff1660a08173ffffffffffffffffffffffffffffffffffffffff16815250508173ffffffffffffffffffffffffffffffffffffffff1660808173ffffffffffffffffffffffffffffffffffffffff16815250508060c08181525050505050505082600560006101000a81548173ffffffffffffffffffffffffffffffffffffffff021916908373ffffffffffffffffffffffffffffffffffffffff16021790555081600660006101000a81548173ffffffffffffffffffffffffffffffffffffffff021916908373ffffffffffffffffffffffffffffffffffffffff16021790555050505050505050620005b8565b828054620001849062000583565b90600052602060002090601f016020900481019282620001a85760008555620001f4565b82601f10620001c357805160ff1916838001178555620001f4565b82800160010185558215620001f4579182015b82811115620001f3578251825591602001919060010190620001d6565b5b50905062000203919062000207565b5090565b5b808211156200022257600081600090555060010162000208565b5090565b6000604051905090565b600080fd5b600080fd5b600073ffffffffffffffffffffffffffffffffffffffff82169050919050565b600062000267826200023a565b9050919050565b62000279816200025a565b81146200028557600080fd5b50565b60008151905062000299816200026e565b92915050565b600080fd5b600080fd5b6000601f19601f8301169050919050565b7f4e487b7100000000000000000000000000000000000000000000000000000000600052604160045260246000fd5b620002f482620002a9565b810181811067ffffffffffffffff82111715620003165762000315620002ba565b5b80604052505050565b60006200032b62000226565b9050620003398282620002e9565b919050565b600067ffffffffffffffff8211156200035c576200035b620002ba565b5b6200036782620002a9565b9050602081019050919050565b60005b838110156200039457808201518184015260208101905062000377565b83811115620003a4576000848401525b50505050565b6000620003c1620003bb846200033e565b6200031f565b905082815260208101848484011115620003e057620003df620002a4565b5b620003ed84828562000374565b509392505050565b600082601f8301126200040d576200040c6200029f565b5b81516200041f848260208601620003aa565b91505092915050565b6000819050919050565b6200043d8162000428565b81146200044957600080fd5b50565b6000815190506200045d8162000432565b92915050565b600080600080600080600060e0888a03121562000485576200048462000230565b5b6000620004958a828b0162000288565b975050602088015167ffffffffffffffff811115620004b957620004b862000235565b5b620004c78a828b01620003f5565b965050604088015167ffffffffffffffff811115620004eb57620004ea62000235565b5b620004f98a828b01620003f5565b95505060606200050c8a828b0162000288565b94505060806200051f8a828b0162000288565b93505060a0620005328a828b0162000288565b92505060c0620005458a828b016200044c565b91505092959891949750929550565b7f4e487b7100000000000000000000000000000000000000000000000000000000600052602260045260246000fd5b600060028204905060018216806200059c57607f821691505b602082108103620005b257620005b162000554565b5b50919050565b60805160a05160c0516122df6200064a6000396000818161056401528181610595015281816105e901528181610a1901528181610bb5015281816113e401526115b90152600081816104ad0152818161062701528181610cb001528181610e0f01528181611426015281816114c80152611512015260008181610c8c01528181610d5b0152610daf01526122df6000f3fe608060405234801561001057600080fd5b506004361061012c5760003560e01c80637376dd79116100ad578063b50cbd9f11610071578063b50cbd9f1461036d578063c55dae631461038b578063dd62ed3e146103a9578063ed3b379b146103d9578063f8f1197e146103f55761012c565b80637376dd79146102b557806395d89b41146102d3578063a457c2d7146102f1578063a694fc3a14610321578063a9059cbb1461033d5761012c565b806323b872dd116100f457806323b872dd146101eb5780632e17de781461021b578063313ce56714610237578063395093511461025557806370a08231146102855761012c565b806306fdde0314610131578063095ea7b31461014f5780630adcdbaa1461017f5780630e6dfcd51461019d57806318160ddd146101cd575b600080fd5b6101396103ff565b6040516101469190611bcf565b60405180910390f35b61016960048036038101906101649190611c8a565b610491565b6040516101769190611ce5565b60405180910390f35b6101876104a8565b6040516101949190611d0f565b60405180910390f35b6101b760048036038101906101b29190611d2a565b6105d0565b6040516101c49190611d0f565b60405180910390f35b6101d5610673565b6040516101e29190611d0f565b60405180910390f35b61020560048036038101906102009190611d2a565b61067d565b6040516102129190611ce5565b60405180910390f35b61023560048036038101906102309190611d7d565b6107a0565b005b61023f610928565b60405161024c9190611dc6565b60405180910390f35b61026f600480360381019061026a9190611c8a565b610931565b60405161027c9190611ce5565b60405180910390f35b61029f600480360381019061029a9190611de1565b6109cf565b6040516102ac9190611d0f565b60405180910390f35b6102bd610a17565b6040516102ca9190611d0f565b60405180910390f35b6102db610a3b565b6040516102e89190611bcf565b60405180910390f35b61030b60048036038101906103069190611c8a565b610acd565b6040516103189190611ce5565b60405180910390f35b61033b60048036038101906103369190611d7d565b610bae565b005b61035760048036038101906103529190611c8a565b610c73565b6040516103649190611ce5565b60405180910390f35b610375610c8a565b6040516103829190611e1d565b60405180910390f35b610393610cae565b6040516103a09190611e1d565b60405180910390f35b6103c360048036038101906103be9190611e38565b610cd2565b6040516103d09190611d0f565b60405180910390f35b6103f360048036038101906103ee9190611de1565b610d59565b005b6103fd610f2c565b005b60606003805461040e90611ea7565b80601f016020809104026020016040519081016040528092919081815260200182805461043a90611ea7565b80156104875780601f1061045c57610100808354040283529160200191610487565b820191906000526020600020905b81548152906001019060200180831161046a57829003601f168201915b5050505050905090565b600061049e338484610f9b565b6001905092915050565b6000807f000000000000000000000000000000000000000000000000000000000000000073ffffffffffffffffffffffffffffffffffffffff166370a08231306040518263ffffffff1660e01b81526004016105049190611e1d565b602060405180830381865afa158015610521573d6000803e3d6000fd5b505050506040513d601f19601f820116820180604052508101906105459190611eed565b90506000610551610673565b148061055d5750600081145b1561058b577f00000000000000000000000000000000000000000000000000000000000000009150506105cd565b610593610673565b7f0000000000000000000000000000000000000000000000000000000000000000826105bf9190611f49565b6105c99190611fd2565b9150505b90565b6000806105db6104a8565b90506105e78584611086565b7f000000000000000000000000000000000000000000000000000000000000000081846106149190611f49565b61061e9190611fd2565b915061066b84837f000000000000000000000000000000000000000000000000000000000000000073ffffffffffffffffffffffffffffffffffffffff166111d09092919063ffffffff16565b509392505050565b6000600254905090565b600061068a848484611256565b6000600160008673ffffffffffffffffffffffffffffffffffffffff1673ffffffffffffffffffffffffffffffffffffffff16815260200190815260200160002060003373ffffffffffffffffffffffffffffffffffffffff1673ffffffffffffffffffffffffffffffffffffffff1681526020019081526020016000205490507fffffffffffffffffffffffffffffffffffffffffffffffffffffffffffffffff811415801561073a57508083115b1561077e5780836040517fa9248256000000000000000000000000000000000000000000000000000000008152600401610775929190612003565b60405180910390fd5b6107948533858461078f919061202c565b610f9b565b60019150509392505050565b600560009054906101000a900473ffffffffffffffffffffffffffffffffffffffff1673ffffffffffffffffffffffffffffffffffffffff1663026800d03083336040518463ffffffff1660e01b81526004016107ff93929190612060565b600060405180830381600087803b15801561081957600080fd5b505af115801561082d573d6000803e3d6000fd5b5050505061083c3033836105d0565b5061092533600660009054906101000a900473ffffffffffffffffffffffffffffffffffffffff1673ffffffffffffffffffffffffffffffffffffffff166370a08231306040518263ffffffff1660e01b815260040161089c9190611e1d565b602060405180830381865afa1580156108b9573d6000803e3d6000fd5b505050506040513d601f19601f820116820180604052508101906108dd9190611eed565b600660009054906101000a900473ffffffffffffffffffffffffffffffffffffffff1673ffffffffffffffffffffffffffffffffffffffff166111d09092919063ffffffff16565b50565b60006012905090565b60006109c5338484600160003373ffffffffffffffffffffffffffffffffffffffff1673ffffffffffffffffffffffffffffffffffffffff16815260200190815260200160002060008873ffffffffffffffffffffffffffffffffffffffff1673ffffffffffffffffffffffffffffffffffffffff168152602001908152602001600020546109c09190612097565b610f9b565b6001905092915050565b60008060008373ffffffffffffffffffffffffffffffffffffffff1673ffffffffffffffffffffffffffffffffffffffff168152602001908152602001600020549050919050565b7f000000000000000000000000000000000000000000000000000000000000000081565b606060048054610a4a90611ea7565b80601f0160208091040260200160405190810160405280929190818152602001828054610a7690611ea7565b8015610ac35780601f10610a9857610100808354040283529160200191610ac3565b820191906000526020600020905b815481529060010190602001808311610aa657829003601f168201915b5050505050905090565b600080600160003373ffffffffffffffffffffffffffffffffffffffff1673ffffffffffffffffffffffffffffffffffffffff16815260200190815260200160002060008573ffffffffffffffffffffffffffffffffffffffff1673ffffffffffffffffffffffffffffffffffffffff16815260200190815260200160002054905082811015610b965780836040517fda2d822c000000000000000000000000000000000000000000000000000000008152600401610b8d929190612003565b60405180910390fd5b610ba33385858403610f9b565b600191505092915050565b6000610bdc7f00000000000000000000000000000000000000000000000000000000000000003033856113df565b9050600560009054906101000a900473ffffffffffffffffffffffffffffffffffffffff1673ffffffffffffffffffffffffffffffffffffffff16639b8f04b73083336040518463ffffffff1660e01b8152600401610c3d93929190612060565b600060405180830381600087803b158015610c5757600080fd5b505af1158015610c6b573d6000803e3d6000fd5b505050505050565b6000610c80338484611256565b6001905092915050565b7f000000000000000000000000000000000000000000000000000000000000000081565b7f000000000000000000000000000000000000000000000000000000000000000081565b6000600160008473ffffffffffffffffffffffffffffffffffffffff1673ffffffffffffffffffffffffffffffffffffffff16815260200190815260200160002060008373ffffffffffffffffffffffffffffffffffffffff1673ffffffffffffffffffffffffffffffffffffffff16815260200190815260200160002054905092915050565b7f000000000000000000000000000000000000000000000000000000000000000073ffffffffffffffffffffffffffffffffffffffff163373ffffffffffffffffffffffffffffffffffffffff1614610e0b57337f00000000000000000000000000000000000000000000000000000000000000006040517fd214286f000000000000000000000000000000000000000000000000000000008152600401610e029291906120ed565b60405180910390fd5b60007f000000000000000000000000000000000000000000000000000000000000000090508073ffffffffffffffffffffffffffffffffffffffff1663a9059cbb838373ffffffffffffffffffffffffffffffffffffffff166370a08231306040518263ffffffff1660e01b8152600401610e869190611e1d565b602060405180830381865afa158015610ea3573d6000803e3d6000fd5b505050506040513d601f19601f82011682018060405250810190610ec79190611eed565b6040518363ffffffff1660e01b8152600401610ee4929190612116565b6020604051808303816000875af1158015610f03573d6000803e3d6000fd5b505050506040513d601f19601f82011682018060405250810190610f27919061216b565b505050565b610f99600560009054906101000a900473ffffffffffffffffffffffffffffffffffffffff167fffffffffffffffffffffffffffffffffffffffffffffffffffffffffffffffff3073ffffffffffffffffffffffffffffffffffffffff166116049092919063ffffffff16565b565b80600160008573ffffffffffffffffffffffffffffffffffffffff1673ffffffffffffffffffffffffffffffffffffffff16815260200190815260200160002060008473ffffffffffffffffffffffffffffffffffffffff1673ffffffffffffffffffffffffffffffffffffffff168152602001908152602001600020819055508173ffffffffffffffffffffffffffffffffffffffff168373ffffffffffffffffffffffffffffffffffffffff167f8c5be1e5ebec7d5bd14f71427d1e84f3dd0314c0f7b2291e5b200ac8c7c3b925836040516110799190611d0f565b60405180910390a3505050565b60008060008473ffffffffffffffffffffffffffffffffffffffff1673ffffffffffffffffffffffffffffffffffffffff168152602001908152602001600020549050818110156111105780826040517f0a37dd41000000000000000000000000000000000000000000000000000000008152600401611107929190612003565b60405180910390fd5b8181036000808573ffffffffffffffffffffffffffffffffffffffff1673ffffffffffffffffffffffffffffffffffffffff1681526020019081526020016000208190555081600260008282540392505081905550600073ffffffffffffffffffffffffffffffffffffffff168373ffffffffffffffffffffffffffffffffffffffff167fddf252ad1be2c89b69c2b068fc378daa952ba7f163c4a11628f55a4df523b3ef846040516111c39190611d0f565b60405180910390a3505050565b6112518363a9059cbb60e01b84846040516024016111ef929190612116565b604051602081830303815290604052907bffffffffffffffffffffffffffffffffffffffffffffffffffffffff19166020820180517bffffffffffffffffffffffffffffffffffffffffffffffffffffffff838183161783525050505061175b565b505050565b60008060008573ffffffffffffffffffffffffffffffffffffffff1673ffffffffffffffffffffffffffffffffffffffff168152602001908152602001600020549050818110156112e357806000836040517f57b9c4a40000000000000000000000000000000000000000000000000000000081526004016112da939291906121dd565b60405180910390fd5b8181036000808673ffffffffffffffffffffffffffffffffffffffff1673ffffffffffffffffffffffffffffffffffffffff16815260200190815260200160002081905550816000808573ffffffffffffffffffffffffffffffffffffffff1673ffffffffffffffffffffffffffffffffffffffff168152602001908152602001600020600082825401925050819055508273ffffffffffffffffffffffffffffffffffffffff168473ffffffffffffffffffffffffffffffffffffffff167fddf252ad1be2c89b69c2b068fc378daa952ba7f163c4a11628f55a4df523b3ef846040516113d19190611d0f565b60405180910390a350505050565b6000807f00000000000000000000000000000000000000000000000000000000000000008661140c6104a8565b6114169190611f49565b6114209190611fd2565b905060007f000000000000000000000000000000000000000000000000000000000000000073ffffffffffffffffffffffffffffffffffffffff166370a08231306040518263ffffffff1660e01b815260040161147d9190611e1d565b602060405180830381865afa15801561149a573d6000803e3d6000fd5b505050506040513d601f19601f820116820180604052508101906114be9190611eed565b905061150d8530867f000000000000000000000000000000000000000000000000000000000000000073ffffffffffffffffffffffffffffffffffffffff16611819909392919063ffffffff16565b6000817f000000000000000000000000000000000000000000000000000000000000000073ffffffffffffffffffffffffffffffffffffffff166370a08231306040518263ffffffff1660e01b81526004016115699190611e1d565b602060405180830381865afa158015611586573d6000803e3d6000fd5b505050506040513d601f19601f820116820180604052508101906115aa9190611eed565b6115b4919061202c565b9050827f0000000000000000000000000000000000000000000000000000000000000000826115e39190611f49565b6115ed9190611fd2565b93506115f987856118a2565b505050949350505050565b60008111801561168f575060008373ffffffffffffffffffffffffffffffffffffffff1663dd62ed3e30856040518363ffffffff1660e01b815260040161164c9291906120ed565b602060405180830381865afa158015611669573d6000803e3d6000fd5b505050506040513d601f19601f8201168201806040525081019061168d9190611eed565b115b156116d5578282826040517fc1a76f6c0000000000000000000000000000000000000000000000000000000081526004016116cc93929190612214565b60405180910390fd5b6117568363095ea7b360e01b84846040516024016116f4929190612116565b604051602081830303815290604052907bffffffffffffffffffffffffffffffffffffffffffffffffffffffff19166020820180517bffffffffffffffffffffffffffffffffffffffffffffffffffffffff838183161783525050505061175b565b505050565b60006117bd826040518060400160405280602081526020017f5361666545524332303a206c6f772d6c6576656c2063616c6c206661696c65648152508573ffffffffffffffffffffffffffffffffffffffff1661197a9092919063ffffffff16565b905060008151111561181457808060200190518101906117dd919061216b565b611813576040517fa479450200000000000000000000000000000000000000000000000000000000815260040160405180910390fd5b5b505050565b61189c846323b872dd60e01b85858560405160240161183a93929190612214565b604051602081830303815290604052907bffffffffffffffffffffffffffffffffffffffffffffffffffffffff19166020820180517bffffffffffffffffffffffffffffffffffffffffffffffffffffffff838183161783525050505061175b565b50505050565b80600260008282546118b49190612097565b92505081905550806000808473ffffffffffffffffffffffffffffffffffffffff1673ffffffffffffffffffffffffffffffffffffffff16815260200190815260200160002060008282546119099190612097565b925050819055508173ffffffffffffffffffffffffffffffffffffffff16600073ffffffffffffffffffffffffffffffffffffffff167fddf252ad1be2c89b69c2b068fc378daa952ba7f163c4a11628f55a4df523b3ef8360405161196e9190611d0f565b60405180910390a35050565b60606119898484600085611992565b90509392505050565b6060824710156119db5747836040517f02de226f0000000000000000000000000000000000000000000000000000000081526004016119d2929190612003565b60405180910390fd5b6119e485611aac565b611a2557846040517f8a8b41ec000000000000000000000000000000000000000000000000000000008152600401611a1c9190611e1d565b60405180910390fd5b6000808673ffffffffffffffffffffffffffffffffffffffff168587604051611a4e9190612292565b60006040518083038185875af1925050503d8060008114611a8b576040519150601f19603f3d011682016040523d82523d6000602084013e611a90565b606091505b5091509150611aa0828286611acf565b92505050949350505050565b6000808273ffffffffffffffffffffffffffffffffffffffff163b119050919050565b60608315611adf57829050611b2f565b600083511115611af25782518084602001fd5b816040517f08c379a0000000000000000000000000000000000000000000000000000000008152600401611b269190611bcf565b60405180910390fd5b9392505050565b600081519050919050565b600082825260208201905092915050565b60005b83811015611b70578082015181840152602081019050611b55565b83811115611b7f576000848401525b50505050565b6000601f19601f8301169050919050565b6000611ba182611b36565b611bab8185611b41565b9350611bbb818560208601611b52565b611bc481611b85565b840191505092915050565b60006020820190508181036000830152611be98184611b96565b905092915050565b600080fd5b600073ffffffffffffffffffffffffffffffffffffffff82169050919050565b6000611c2182611bf6565b9050919050565b611c3181611c16565b8114611c3c57600080fd5b50565b600081359050611c4e81611c28565b92915050565b6000819050919050565b611c6781611c54565b8114611c7257600080fd5b50565b600081359050611c8481611c5e565b92915050565b60008060408385031215611ca157611ca0611bf1565b5b6000611caf85828601611c3f565b9250506020611cc085828601611c75565b9150509250929050565b60008115159050919050565b611cdf81611cca565b82525050565b6000602082019050611cfa6000830184611cd6565b92915050565b611d0981611c54565b82525050565b6000602082019050611d246000830184611d00565b92915050565b600080600060608486031215611d4357611d42611bf1565b5b6000611d5186828701611c3f565b9350506020611d6286828701611c3f565b9250506040611d7386828701611c75565b9150509250925092565b600060208284031215611d9357611d92611bf1565b5b6000611da184828501611c75565b91505092915050565b600060ff82169050919050565b611dc081611daa565b82525050565b6000602082019050611ddb6000830184611db7565b92915050565b600060208284031215611df757611df6611bf1565b5b6000611e0584828501611c3f565b91505092915050565b611e1781611c16565b82525050565b6000602082019050611e326000830184611e0e565b92915050565b60008060408385031215611e4f57611e4e611bf1565b5b6000611e5d85828601611c3f565b9250506020611e6e85828601611c3f565b9150509250929050565b7f4e487b7100000000000000000000000000000000000000000000000000000000600052602260045260246000fd5b60006002820490506001821680611ebf57607f821691505b602082108103611ed257611ed1611e78565b5b50919050565b600081519050611ee781611c5e565b92915050565b600060208284031215611f0357611f02611bf1565b5b6000611f1184828501611ed8565b91505092915050565b7f4e487b7100000000000000000000000000000000000000000000000000000000600052601160045260246000fd5b6000611f5482611c54565b9150611f5f83611c54565b9250817fffffffffffffffffffffffffffffffffffffffffffffffffffffffffffffffff0483118215151615611f9857611f97611f1a565b5b828202905092915050565b7f4e487b7100000000000000000000000000000000000000000000000000000000600052601260045260246000fd5b6000611fdd82611c54565b9150611fe883611c54565b925082611ff857611ff7611fa3565b5b828204905092915050565b60006040820190506120186000830185611d00565b6120256020830184611d00565b9392505050565b600061203782611c54565b915061204283611c54565b92508282101561205557612054611f1a565b5b828203905092915050565b60006060820190506120756000830186611e0e565b6120826020830185611d00565b61208f6040830184611e0e565b949350505050565b60006120a282611c54565b91506120ad83611c54565b9250827fffffffffffffffffffffffffffffffffffffffffffffffffffffffffffffffff038211156120e2576120e1611f1a565b5b828201905092915050565b60006040820190506121026000830185611e0e565b61210f6020830184611e0e565b9392505050565b600060408201905061212b6000830185611e0e565b6121386020830184611d00565b9392505050565b61214881611cca565b811461215357600080fd5b50565b6000815190506121658161213f565b92915050565b60006020828403121561218157612180611bf1565b5b600061218f84828501612156565b91505092915050565b6000819050919050565b6000819050919050565b60006121c76121c26121bd84612198565b6121a2565b611c54565b9050919050565b6121d7816121ac565b82525050565b60006060820190506121f26000830186611d00565b6121ff60208301856121ce565b61220c6040830184611d00565b949350505050565b60006060820190506122296000830186611e0e565b6122366020830185611e0e565b6122436040830184611d00565b949350505050565b600081519050919050565b600081905092915050565b600061226c8261224b565b6122768185612256565b9350612286818560208601611b52565b80840191505092915050565b600061229e8284612261565b91508190509291505056fea26469706673582212203be4b60f7265b2c738b40ecbc619552254774669bbfd9f46fc354ff81787306a64736f6c634300080d0033",
  "linkReferences": {},
  "deployedLinkReferences": {}
}