{
  "_format": "hh-sol-artifact-1",
  "contractName": "LimboProxy",
  "sourceName": "contracts/TokenProxies/LimboProxy.sol",
  "abi": [
    {
      "inputs": [
        {
          "internalType": "address",
          "name": "_baseToken",
          "type": "address"
        },
        {
          "internalType": "string",
          "name": "name_",
          "type": "string"
        },
        {
          "internalType": "string",
          "name": "symbol_",
          "type": "string"
        },
        {
          "internalType": "address",
          "name": "registry",
          "type": "address"
        }
      ],
      "stateMutability": "nonpayable",
      "type": "constructor"
    },
    {
      "inputs": [
        {
          "internalType": "uint256",
          "name": "allowance",
          "type": "uint256"
        },
        {
          "internalType": "uint256",
          "name": "amount",
          "type": "uint256"
        }
      ],
      "name": "AllowanceExceeded",
      "type": "error"
    },
    {
      "inputs": [
        {
          "internalType": "uint256",
          "name": "allowance",
          "type": "uint256"
        },
        {
          "internalType": "uint256",
          "name": "subtraction",
          "type": "uint256"
        }
      ],
      "name": "AllowanceUnderflow",
      "type": "error"
    },
    {
      "inputs": [
        {
          "internalType": "uint256",
          "name": "accountBalance",
          "type": "uint256"
        },
        {
          "internalType": "uint256",
          "name": "amount",
          "type": "uint256"
        }
      ],
      "name": "BurnUnderflow",
      "type": "error"
    },
    {
      "inputs": [
        {
          "internalType": "uint256",
          "name": "balance",
          "type": "uint256"
        },
        {
          "internalType": "uint256",
          "name": "value",
          "type": "uint256"
        }
      ],
      "name": "InsufficinetFunds",
      "type": "error"
    },
    {
      "inputs": [
        {
          "internalType": "address",
          "name": "EOA",
          "type": "address"
        }
      ],
      "name": "NotAContract",
      "type": "error"
    },
    {
      "inputs": [
        {
          "internalType": "address",
          "name": "sender",
          "type": "address"
        },
        {
          "internalType": "address",
          "name": "proxy",
          "type": "address"
        }
      ],
      "name": "OnlyProxy",
      "type": "error"
    },
    {
      "inputs": [],
      "name": "OperationFailure",
      "type": "error"
    },
    {
      "inputs": [
        {
          "internalType": "uint256",
          "name": "senderBalance",
          "type": "uint256"
        },
        {
          "internalType": "uint256",
          "name": "fee",
          "type": "uint256"
        },
        {
          "internalType": "uint256",
          "name": "amount",
          "type": "uint256"
        }
      ],
      "name": "TransferUnderflow",
      "type": "error"
    },
    {
      "anonymous": false,
      "inputs": [
        {
          "indexed": true,
          "internalType": "address",
          "name": "owner",
          "type": "address"
        },
        {
          "indexed": true,
          "internalType": "address",
          "name": "spender",
          "type": "address"
        },
        {
          "indexed": false,
          "internalType": "uint256",
          "name": "value",
          "type": "uint256"
        }
      ],
      "name": "Approval",
      "type": "event"
    },
    {
      "anonymous": false,
      "inputs": [
        {
          "indexed": true,
          "internalType": "address",
          "name": "from",
          "type": "address"
        },
        {
          "indexed": true,
          "internalType": "address",
          "name": "to",
          "type": "address"
        },
        {
          "indexed": false,
          "internalType": "uint256",
          "name": "value",
          "type": "uint256"
        }
      ],
      "name": "Transfer",
      "type": "event"
    },
    {
      "inputs": [
        {
          "internalType": "address",
          "name": "owner",
          "type": "address"
        },
        {
          "internalType": "address",
          "name": "spender",
          "type": "address"
        }
      ],
      "name": "allowance",
      "outputs": [
        {
          "internalType": "uint256",
          "name": "",
          "type": "uint256"
        }
      ],
      "stateMutability": "view",
      "type": "function"
    },
    {
      "inputs": [
        {
          "internalType": "address",
          "name": "spender",
          "type": "address"
        },
        {
          "internalType": "uint256",
          "name": "amount",
          "type": "uint256"
        }
      ],
      "name": "approve",
      "outputs": [
        {
          "internalType": "bool",
          "name": "",
          "type": "bool"
        }
      ],
      "stateMutability": "nonpayable",
      "type": "function"
    },
    {
      "inputs": [
        {
          "internalType": "address",
          "name": "account",
          "type": "address"
        }
      ],
      "name": "balanceOf",
      "outputs": [
        {
          "internalType": "uint256",
          "name": "",
          "type": "uint256"
        }
      ],
      "stateMutability": "view",
      "type": "function"
    },
    {
      "inputs": [],
      "name": "baseToken",
      "outputs": [
        {
          "internalType": "address",
          "name": "",
          "type": "address"
        }
      ],
      "stateMutability": "view",
      "type": "function"
    },
    {
      "inputs": [],
      "name": "decimals",
      "outputs": [
        {
          "internalType": "uint8",
          "name": "",
          "type": "uint8"
        }
      ],
      "stateMutability": "view",
      "type": "function"
    },
    {
      "inputs": [
        {
          "internalType": "address",
          "name": "spender",
          "type": "address"
        },
        {
          "internalType": "uint256",
          "name": "subtractedValue",
          "type": "uint256"
        }
      ],
      "name": "decreaseAllowance",
      "outputs": [
        {
          "internalType": "bool",
          "name": "",
          "type": "bool"
        }
      ],
      "stateMutability": "nonpayable",
      "type": "function"
    },
    {
      "inputs": [
        {
          "internalType": "address",
          "name": "spender",
          "type": "address"
        },
        {
          "internalType": "uint256",
          "name": "addedValue",
          "type": "uint256"
        }
      ],
      "name": "increaseAllowance",
      "outputs": [
        {
          "internalType": "bool",
          "name": "",
          "type": "bool"
        }
      ],
      "stateMutability": "nonpayable",
      "type": "function"
    },
    {
      "inputs": [
        {
          "internalType": "address",
          "name": "newProxy",
          "type": "address"
        }
      ],
      "name": "migrateBaseReserveToNewProxy",
      "outputs": [],
      "stateMutability": "nonpayable",
      "type": "function"
    },
    {
      "inputs": [],
      "name": "name",
      "outputs": [
        {
          "internalType": "string",
          "name": "",
          "type": "string"
        }
      ],
      "stateMutability": "view",
      "type": "function"
    },
    {
      "inputs": [],
      "name": "proxyRegistry",
      "outputs": [
        {
          "internalType": "address",
          "name": "",
          "type": "address"
        }
      ],
      "stateMutability": "view",
      "type": "function"
    },
    {
      "inputs": [
        {
          "internalType": "address",
          "name": "proxySource",
          "type": "address"
        },
        {
          "internalType": "address",
          "name": "baseRecipient",
          "type": "address"
        },
        {
          "internalType": "uint256",
          "name": "amount",
          "type": "uint256"
        }
      ],
      "name": "redeem",
      "outputs": [
        {
          "internalType": "uint256",
          "name": "baseAmount",
          "type": "uint256"
        }
      ],
      "stateMutability": "nonpayable",
      "type": "function"
    },
    {
      "inputs": [],
      "name": "redeemRate",
      "outputs": [
        {
          "internalType": "uint256",
          "name": "",
          "type": "uint256"
        }
      ],
      "stateMutability": "view",
      "type": "function"
    },
    {
      "inputs": [],
      "name": "stake",
      "outputs": [],
      "stateMutability": "nonpayable",
      "type": "function"
    },
    {
      "inputs": [],
      "name": "symbol",
      "outputs": [
        {
          "internalType": "string",
          "name": "",
          "type": "string"
        }
      ],
      "stateMutability": "view",
      "type": "function"
    },
    {
      "inputs": [],
      "name": "totalSupply",
      "outputs": [
        {
          "internalType": "uint256",
          "name": "",
          "type": "uint256"
        }
      ],
      "stateMutability": "view",
      "type": "function"
    },
    {
      "inputs": [
        {
          "internalType": "address",
          "name": "recipient",
          "type": "address"
        },
        {
          "internalType": "uint256",
          "name": "amount",
          "type": "uint256"
        }
      ],
      "name": "transfer",
      "outputs": [
        {
          "internalType": "bool",
          "name": "",
          "type": "bool"
        }
      ],
      "stateMutability": "nonpayable",
      "type": "function"
    },
    {
      "inputs": [
        {
          "internalType": "address",
          "name": "sender",
          "type": "address"
        },
        {
          "internalType": "address",
          "name": "recipient",
          "type": "address"
        },
        {
          "internalType": "uint256",
          "name": "amount",
          "type": "uint256"
        }
      ],
      "name": "transferFrom",
      "outputs": [
        {
          "internalType": "bool",
          "name": "",
          "type": "bool"
        }
      ],
      "stateMutability": "nonpayable",
      "type": "function"
    },
    {
      "inputs": [],
      "name": "unstake",
      "outputs": [],
      "stateMutability": "nonpayable",
      "type": "function"
    }
  ],
  "bytecode": "0x60c06040523480156200001157600080fd5b5060405162001ed738038062001ed7833981810160405281019062000037919062000399565b838383838282816003908051906020019062000055929190620000e7565b5080600490805190602001906200006e929190620000e7565b5050508373ffffffffffffffffffffffffffffffffffffffff1660a08173ffffffffffffffffffffffffffffffffffffffff16815250508073ffffffffffffffffffffffffffffffffffffffff1660808173ffffffffffffffffffffffffffffffffffffffff16815250505050505050505050620004ad565b828054620000f59062000478565b90600052602060002090601f01602090048101928262000119576000855562000165565b82601f106200013457805160ff191683800117855562000165565b8280016001018555821562000165579182015b828111156200016457825182559160200191906001019062000147565b5b50905062000174919062000178565b5090565b5b808211156200019357600081600090555060010162000179565b5090565b6000604051905090565b600080fd5b600080fd5b600073ffffffffffffffffffffffffffffffffffffffff82169050919050565b6000620001d882620001ab565b9050919050565b620001ea81620001cb565b8114620001f657600080fd5b50565b6000815190506200020a81620001df565b92915050565b600080fd5b600080fd5b6000601f19601f8301169050919050565b7f4e487b7100000000000000000000000000000000000000000000000000000000600052604160045260246000fd5b62000265826200021a565b810181811067ffffffffffffffff821117156200028757620002866200022b565b5b80604052505050565b60006200029c62000197565b9050620002aa82826200025a565b919050565b600067ffffffffffffffff821115620002cd57620002cc6200022b565b5b620002d8826200021a565b9050602081019050919050565b60005b8381101562000305578082015181840152602081019050620002e8565b8381111562000315576000848401525b50505050565b6000620003326200032c84620002af565b62000290565b90508281526020810184848401111562000351576200035062000215565b5b6200035e848285620002e5565b509392505050565b600082601f8301126200037e576200037d62000210565b5b8151620003908482602086016200031b565b91505092915050565b60008060008060808587031215620003b657620003b5620001a1565b5b6000620003c687828801620001f9565b945050602085015167ffffffffffffffff811115620003ea57620003e9620001a6565b5b620003f88782880162000366565b935050604085015167ffffffffffffffff8111156200041c576200041b620001a6565b5b6200042a8782880162000366565b92505060606200043d87828801620001f9565b91505092959194509250565b7f4e487b7100000000000000000000000000000000000000000000000000000000600052602260045260246000fd5b600060028204905060018216806200049157607f821691505b602082108103620004a757620004a662000449565b5b50919050565b60805160a0516119e1620004f66000396000818161044b0152818161057d015281816109990152610af801526000818161097501528181610a440152610a9801526119e16000f3fe608060405234801561001057600080fd5b50600436106101165760003560e01c80633a4b66f1116100a2578063a9059cbb11610071578063a9059cbb146102e5578063b50cbd9f14610315578063c55dae6314610333578063dd62ed3e14610351578063ed3b379b1461038157610116565b80633a4b66f11461025d57806370a082311461026757806395d89b4114610297578063a457c2d7146102b557610116565b806318160ddd116100e957806318160ddd146101b757806323b872dd146101d55780632def662014610205578063313ce5671461020f578063395093511461022d57610116565b806306fdde031461011b578063095ea7b3146101395780630adcdbaa146101695780630e6dfcd514610187575b600080fd5b61012361039d565b604051610130919061136c565b60405180910390f35b610153600480360381019061014e9190611427565b61042f565b6040516101609190611482565b60405180910390f35b610171610446565b60405161017e91906114ac565b60405180910390f35b6101a1600480360381019061019c91906114c7565b61053e565b6040516101ae91906114ac565b60405180910390f35b6101bf6105c9565b6040516101cc91906114ac565b60405180910390f35b6101ef60048036038101906101ea91906114c7565b6105d3565b6040516101fc9190611482565b60405180910390f35b61020d6106f6565b005b6102176106f8565b6040516102249190611536565b60405180910390f35b61024760048036038101906102429190611427565b610701565b6040516102549190611482565b60405180910390f35b61026561079f565b005b610281600480360381019061027c9190611551565b6107a1565b60405161028e91906114ac565b60405180910390f35b61029f6107e9565b6040516102ac919061136c565b60405180910390f35b6102cf60048036038101906102ca9190611427565b61087b565b6040516102dc9190611482565b60405180910390f35b6102ff60048036038101906102fa9190611427565b61095c565b60405161030c9190611482565b60405180910390f35b61031d610973565b60405161032a919061158d565b60405180910390f35b61033b610997565b604051610348919061158d565b60405180910390f35b61036b600480360381019061036691906115a8565b6109bb565b60405161037891906114ac565b60405180910390f35b61039b60048036038101906103969190611551565b610a42565b005b6060600380546103ac90611617565b80601f01602080910402602001604051908101604052809291908181526020018280546103d890611617565b80156104255780601f106103fa57610100808354040283529160200191610425565b820191906000526020600020905b81548152906001019060200180831161040857829003601f168201915b5050505050905090565b600061043c338484610c15565b6001905092915050565b6000807f000000000000000000000000000000000000000000000000000000000000000073ffffffffffffffffffffffffffffffffffffffff166370a08231306040518263ffffffff1660e01b81526004016104a2919061158d565b602060405180830381865afa1580156104bf573d6000803e3d6000fd5b505050506040513d601f19601f820116820180604052508101906104e3919061165d565b905060006104ef6105c9565b14806104fb5750600081145b1561051157670de0b6b3a764000091505061053b565b6105196105c9565b670de0b6b3a76400008261052d91906116b9565b6105379190611742565b9150505b90565b600080610549610446565b90506105558584610d00565b670de0b6b3a7640000818461056a91906116b9565b6105749190611742565b91506105c184837f000000000000000000000000000000000000000000000000000000000000000073ffffffffffffffffffffffffffffffffffffffff16610e4a9092919063ffffffff16565b509392505050565b6000600254905090565b60006105e0848484610ed0565b6000600160008673ffffffffffffffffffffffffffffffffffffffff1673ffffffffffffffffffffffffffffffffffffffff16815260200190815260200160002060003373ffffffffffffffffffffffffffffffffffffffff1673ffffffffffffffffffffffffffffffffffffffff1681526020019081526020016000205490507fffffffffffffffffffffffffffffffffffffffffffffffffffffffffffffffff811415801561069057508083115b156106d45780836040517fa92482560000000000000000000000000000000000000000000000000000000081526004016106cb929190611773565b60405180910390fd5b6106ea853385846106e5919061179c565b610c15565b60019150509392505050565b565b60006012905090565b6000610795338484600160003373ffffffffffffffffffffffffffffffffffffffff1673ffffffffffffffffffffffffffffffffffffffff16815260200190815260200160002060008873ffffffffffffffffffffffffffffffffffffffff1673ffffffffffffffffffffffffffffffffffffffff1681526020019081526020016000205461079091906117d0565b610c15565b6001905092915050565b565b60008060008373ffffffffffffffffffffffffffffffffffffffff1673ffffffffffffffffffffffffffffffffffffffff168152602001908152602001600020549050919050565b6060600480546107f890611617565b80601f016020809104026020016040519081016040528092919081815260200182805461082490611617565b80156108715780601f1061084657610100808354040283529160200191610871565b820191906000526020600020905b81548152906001019060200180831161085457829003601f168201915b5050505050905090565b600080600160003373ffffffffffffffffffffffffffffffffffffffff1673ffffffffffffffffffffffffffffffffffffffff16815260200190815260200160002060008573ffffffffffffffffffffffffffffffffffffffff1673ffffffffffffffffffffffffffffffffffffffff168152602001908152602001600020549050828110156109445780836040517fda2d822c00000000000000000000000000000000000000000000000000000000815260040161093b929190611773565b60405180910390fd5b6109513385858403610c15565b600191505092915050565b6000610969338484610ed0565b6001905092915050565b7f000000000000000000000000000000000000000000000000000000000000000081565b7f000000000000000000000000000000000000000000000000000000000000000081565b6000600160008473ffffffffffffffffffffffffffffffffffffffff1673ffffffffffffffffffffffffffffffffffffffff16815260200190815260200160002060008373ffffffffffffffffffffffffffffffffffffffff1673ffffffffffffffffffffffffffffffffffffffff16815260200190815260200160002054905092915050565b7f000000000000000000000000000000000000000000000000000000000000000073ffffffffffffffffffffffffffffffffffffffff163373ffffffffffffffffffffffffffffffffffffffff1614610af457337f00000000000000000000000000000000000000000000000000000000000000006040517fd214286f000000000000000000000000000000000000000000000000000000008152600401610aeb929190611826565b60405180910390fd5b60007f000000000000000000000000000000000000000000000000000000000000000090508073ffffffffffffffffffffffffffffffffffffffff1663a9059cbb838373ffffffffffffffffffffffffffffffffffffffff166370a08231306040518263ffffffff1660e01b8152600401610b6f919061158d565b602060405180830381865afa158015610b8c573d6000803e3d6000fd5b505050506040513d601f19601f82011682018060405250810190610bb0919061165d565b6040518363ffffffff1660e01b8152600401610bcd92919061184f565b6020604051808303816000875af1158015610bec573d6000803e3d6000fd5b505050506040513d601f19601f82011682018060405250810190610c1091906118a4565b505050565b80600160008573ffffffffffffffffffffffffffffffffffffffff1673ffffffffffffffffffffffffffffffffffffffff16815260200190815260200160002060008473ffffffffffffffffffffffffffffffffffffffff1673ffffffffffffffffffffffffffffffffffffffff168152602001908152602001600020819055508173ffffffffffffffffffffffffffffffffffffffff168373ffffffffffffffffffffffffffffffffffffffff167f8c5be1e5ebec7d5bd14f71427d1e84f3dd0314c0f7b2291e5b200ac8c7c3b92583604051610cf391906114ac565b60405180910390a3505050565b60008060008473ffffffffffffffffffffffffffffffffffffffff1673ffffffffffffffffffffffffffffffffffffffff16815260200190815260200160002054905081811015610d8a5780826040517f0a37dd41000000000000000000000000000000000000000000000000000000008152600401610d81929190611773565b60405180910390fd5b8181036000808573ffffffffffffffffffffffffffffffffffffffff1673ffffffffffffffffffffffffffffffffffffffff1681526020019081526020016000208190555081600260008282540392505081905550600073ffffffffffffffffffffffffffffffffffffffff168373ffffffffffffffffffffffffffffffffffffffff167fddf252ad1be2c89b69c2b068fc378daa952ba7f163c4a11628f55a4df523b3ef84604051610e3d91906114ac565b60405180910390a3505050565b610ecb8363a9059cbb60e01b8484604051602401610e6992919061184f565b604051602081830303815290604052907bffffffffffffffffffffffffffffffffffffffffffffffffffffffff19166020820180517bffffffffffffffffffffffffffffffffffffffffffffffffffffffff8381831617835250505050611059565b505050565b60008060008573ffffffffffffffffffffffffffffffffffffffff1673ffffffffffffffffffffffffffffffffffffffff16815260200190815260200160002054905081811015610f5d57806000836040517f57b9c4a4000000000000000000000000000000000000000000000000000000008152600401610f5493929190611916565b60405180910390fd5b8181036000808673ffffffffffffffffffffffffffffffffffffffff1673ffffffffffffffffffffffffffffffffffffffff16815260200190815260200160002081905550816000808573ffffffffffffffffffffffffffffffffffffffff1673ffffffffffffffffffffffffffffffffffffffff168152602001908152602001600020600082825401925050819055508273ffffffffffffffffffffffffffffffffffffffff168473ffffffffffffffffffffffffffffffffffffffff167fddf252ad1be2c89b69c2b068fc378daa952ba7f163c4a11628f55a4df523b3ef8460405161104b91906114ac565b60405180910390a350505050565b60006110bb826040518060400160405280602081526020017f5361666545524332303a206c6f772d6c6576656c2063616c6c206661696c65648152508573ffffffffffffffffffffffffffffffffffffffff166111179092919063ffffffff16565b905060008151111561111257808060200190518101906110db91906118a4565b611111576040517fa479450200000000000000000000000000000000000000000000000000000000815260040160405180910390fd5b5b505050565b6060611126848460008561112f565b90509392505050565b6060824710156111785747836040517f02de226f00000000000000000000000000000000000000000000000000000000815260040161116f929190611773565b60405180910390fd5b61118185611249565b6111c257846040517f8a8b41ec0000000000000000000000000000000000000000000000000000000081526004016111b9919061158d565b60405180910390fd5b6000808673ffffffffffffffffffffffffffffffffffffffff1685876040516111eb9190611994565b60006040518083038185875af1925050503d8060008114611228576040519150601f19603f3d011682016040523d82523d6000602084013e61122d565b606091505b509150915061123d82828661126c565b92505050949350505050565b6000808273ffffffffffffffffffffffffffffffffffffffff163b119050919050565b6060831561127c578290506112cc565b60008351111561128f5782518084602001fd5b816040517f08c379a00000000000000000000000000000000000000000000000000000000081526004016112c3919061136c565b60405180910390fd5b9392505050565b600081519050919050565b600082825260208201905092915050565b60005b8381101561130d5780820151818401526020810190506112f2565b8381111561131c576000848401525b50505050565b6000601f19601f8301169050919050565b600061133e826112d3565b61134881856112de565b93506113588185602086016112ef565b61136181611322565b840191505092915050565b600060208201905081810360008301526113868184611333565b905092915050565b600080fd5b600073ffffffffffffffffffffffffffffffffffffffff82169050919050565b60006113be82611393565b9050919050565b6113ce816113b3565b81146113d957600080fd5b50565b6000813590506113eb816113c5565b92915050565b6000819050919050565b611404816113f1565b811461140f57600080fd5b50565b600081359050611421816113fb565b92915050565b6000806040838503121561143e5761143d61138e565b5b600061144c858286016113dc565b925050602061145d85828601611412565b9150509250929050565b60008115159050919050565b61147c81611467565b82525050565b60006020820190506114976000830184611473565b92915050565b6114a6816113f1565b82525050565b60006020820190506114c1600083018461149d565b92915050565b6000806000606084860312156114e0576114df61138e565b5b60006114ee868287016113dc565b93505060206114ff868287016113dc565b925050604061151086828701611412565b9150509250925092565b600060ff82169050919050565b6115308161151a565b82525050565b600060208201905061154b6000830184611527565b92915050565b6000602082840312156115675761156661138e565b5b6000611575848285016113dc565b91505092915050565b611587816113b3565b82525050565b60006020820190506115a2600083018461157e565b92915050565b600080604083850312156115bf576115be61138e565b5b60006115cd858286016113dc565b92505060206115de858286016113dc565b9150509250929050565b7f4e487b7100000000000000000000000000000000000000000000000000000000600052602260045260246000fd5b6000600282049050600182168061162f57607f821691505b602082108103611642576116416115e8565b5b50919050565b600081519050611657816113fb565b92915050565b6000602082840312156116735761167261138e565b5b600061168184828501611648565b91505092915050565b7f4e487b7100000000000000000000000000000000000000000000000000000000600052601160045260246000fd5b60006116c4826113f1565b91506116cf836113f1565b9250817fffffffffffffffffffffffffffffffffffffffffffffffffffffffffffffffff04831182151516156117085761170761168a565b5b828202905092915050565b7f4e487b7100000000000000000000000000000000000000000000000000000000600052601260045260246000fd5b600061174d826113f1565b9150611758836113f1565b92508261176857611767611713565b5b828204905092915050565b6000604082019050611788600083018561149d565b611795602083018461149d565b9392505050565b60006117a7826113f1565b91506117b2836113f1565b9250828210156117c5576117c461168a565b5b828203905092915050565b60006117db826113f1565b91506117e6836113f1565b9250827fffffffffffffffffffffffffffffffffffffffffffffffffffffffffffffffff0382111561181b5761181a61168a565b5b828201905092915050565b600060408201905061183b600083018561157e565b611848602083018461157e565b9392505050565b6000604082019050611864600083018561157e565b611871602083018461149d565b9392505050565b61188181611467565b811461188c57600080fd5b50565b60008151905061189e81611878565b92915050565b6000602082840312156118ba576118b961138e565b5b60006118c88482850161188f565b91505092915050565b6000819050919050565b6000819050919050565b60006119006118fb6118f6846118d1565b6118db565b6113f1565b9050919050565b611910816118e5565b82525050565b600060608201905061192b600083018661149d565b6119386020830185611907565b611945604083018461149d565b949350505050565b600081519050919050565b600081905092915050565b600061196e8261194d565b6119788185611958565b93506119888185602086016112ef565b80840191505092915050565b60006119a08284611963565b91508190509291505056fea26469706673582212205eca184529aa97936eb390de6dcc850da7cf26cb5f497c7eebad6a5737ef8e4364736f6c634300080d0033",
  "linkReferences": {},
  "deployedLinkReferences": {}
}