{
  "_format": "hh-sol-artifact-1",
  "contractName": "LimboProxy",
  "sourceName": "contracts/TokenProxies/LimboProxy.sol",
  "abi": [
    {
      "inputs": [
        {
          "internalType": "address",
          "name": "_baseToken",
          "type": "address"
        },
        {
          "internalType": "string",
          "name": "name_",
          "type": "string"
        },
        {
          "internalType": "string",
          "name": "symbol_",
          "type": "string"
        },
        {
          "internalType": "address",
          "name": "registry",
          "type": "address"
        },
        {
          "internalType": "address",
          "name": "_limbo",
          "type": "address"
        }
      ],
      "stateMutability": "nonpayable",
      "type": "constructor"
    },
    {
      "inputs": [
        {
          "internalType": "uint256",
          "name": "allowance",
          "type": "uint256"
        },
        {
          "internalType": "uint256",
          "name": "amount",
          "type": "uint256"
        }
      ],
      "name": "AllowanceExceeded",
      "type": "error"
    },
    {
      "inputs": [
        {
          "internalType": "uint256",
          "name": "allowance",
          "type": "uint256"
        },
        {
          "internalType": "uint256",
          "name": "subtraction",
          "type": "uint256"
        }
      ],
      "name": "AllowanceUnderflow",
      "type": "error"
    },
    {
      "inputs": [
        {
          "internalType": "address",
          "name": "token",
          "type": "address"
        },
        {
          "internalType": "address",
          "name": "spender",
          "type": "address"
        },
        {
          "internalType": "uint256",
          "name": "amount",
          "type": "uint256"
        }
      ],
      "name": "ApproveToNonZero",
      "type": "error"
    },
    {
      "inputs": [
        {
          "internalType": "uint256",
          "name": "accountBalance",
          "type": "uint256"
        },
        {
          "internalType": "uint256",
          "name": "amount",
          "type": "uint256"
        }
      ],
      "name": "BurnUnderflow",
      "type": "error"
    },
    {
      "inputs": [
        {
          "internalType": "uint256",
          "name": "balance",
          "type": "uint256"
        },
        {
          "internalType": "uint256",
          "name": "value",
          "type": "uint256"
        }
      ],
      "name": "InsufficinetFunds",
      "type": "error"
    },
    {
      "inputs": [
        {
          "internalType": "address",
          "name": "EOA",
          "type": "address"
        }
      ],
      "name": "NotAContract",
      "type": "error"
    },
    {
      "inputs": [
        {
          "internalType": "address",
          "name": "sender",
          "type": "address"
        },
        {
          "internalType": "address",
          "name": "proxy",
          "type": "address"
        }
      ],
      "name": "OnlyProxy",
      "type": "error"
    },
    {
      "inputs": [],
      "name": "OperationFailure",
      "type": "error"
    },
    {
      "inputs": [
        {
          "internalType": "uint256",
          "name": "senderBalance",
          "type": "uint256"
        },
        {
          "internalType": "uint256",
          "name": "fee",
          "type": "uint256"
        },
        {
          "internalType": "uint256",
          "name": "amount",
          "type": "uint256"
        }
      ],
      "name": "TransferUnderflow",
      "type": "error"
    },
    {
      "anonymous": false,
      "inputs": [
        {
          "indexed": true,
          "internalType": "address",
          "name": "owner",
          "type": "address"
        },
        {
          "indexed": true,
          "internalType": "address",
          "name": "spender",
          "type": "address"
        },
        {
          "indexed": false,
          "internalType": "uint256",
          "name": "value",
          "type": "uint256"
        }
      ],
      "name": "Approval",
      "type": "event"
    },
    {
      "anonymous": false,
      "inputs": [
        {
          "indexed": true,
          "internalType": "address",
          "name": "from",
          "type": "address"
        },
        {
          "indexed": true,
          "internalType": "address",
          "name": "to",
          "type": "address"
        },
        {
          "indexed": false,
          "internalType": "uint256",
          "name": "value",
          "type": "uint256"
        }
      ],
      "name": "Transfer",
      "type": "event"
    },
    {
      "inputs": [
        {
          "internalType": "address",
          "name": "owner",
          "type": "address"
        },
        {
          "internalType": "address",
          "name": "spender",
          "type": "address"
        }
      ],
      "name": "allowance",
      "outputs": [
        {
          "internalType": "uint256",
          "name": "",
          "type": "uint256"
        }
      ],
      "stateMutability": "view",
      "type": "function"
    },
    {
      "inputs": [
        {
          "internalType": "address",
          "name": "spender",
          "type": "address"
        },
        {
          "internalType": "uint256",
          "name": "amount",
          "type": "uint256"
        }
      ],
      "name": "approve",
      "outputs": [
        {
          "internalType": "bool",
          "name": "",
          "type": "bool"
        }
      ],
      "stateMutability": "nonpayable",
      "type": "function"
    },
    {
      "inputs": [],
      "name": "approveLimbo",
      "outputs": [],
      "stateMutability": "nonpayable",
      "type": "function"
    },
    {
      "inputs": [
        {
          "internalType": "address",
          "name": "account",
          "type": "address"
        }
      ],
      "name": "balanceOf",
      "outputs": [
        {
          "internalType": "uint256",
          "name": "",
          "type": "uint256"
        }
      ],
      "stateMutability": "view",
      "type": "function"
    },
    {
      "inputs": [],
      "name": "baseToken",
      "outputs": [
        {
          "internalType": "address",
          "name": "",
          "type": "address"
        }
      ],
      "stateMutability": "view",
      "type": "function"
    },
    {
      "inputs": [],
      "name": "decimals",
      "outputs": [
        {
          "internalType": "uint8",
          "name": "",
          "type": "uint8"
        }
      ],
      "stateMutability": "view",
      "type": "function"
    },
    {
      "inputs": [
        {
          "internalType": "address",
          "name": "spender",
          "type": "address"
        },
        {
          "internalType": "uint256",
          "name": "subtractedValue",
          "type": "uint256"
        }
      ],
      "name": "decreaseAllowance",
      "outputs": [
        {
          "internalType": "bool",
          "name": "",
          "type": "bool"
        }
      ],
      "stateMutability": "nonpayable",
      "type": "function"
    },
    {
      "inputs": [
        {
          "internalType": "address",
          "name": "spender",
          "type": "address"
        },
        {
          "internalType": "uint256",
          "name": "addedValue",
          "type": "uint256"
        }
      ],
      "name": "increaseAllowance",
      "outputs": [
        {
          "internalType": "bool",
          "name": "",
          "type": "bool"
        }
      ],
      "stateMutability": "nonpayable",
      "type": "function"
    },
    {
      "inputs": [
        {
          "internalType": "address",
          "name": "newProxy",
          "type": "address"
        }
      ],
      "name": "migrateBaseReserveToNewProxy",
      "outputs": [],
      "stateMutability": "nonpayable",
      "type": "function"
    },
    {
      "inputs": [],
      "name": "name",
      "outputs": [
        {
          "internalType": "string",
          "name": "",
          "type": "string"
        }
      ],
      "stateMutability": "view",
      "type": "function"
    },
    {
      "inputs": [],
      "name": "proxyRegistry",
      "outputs": [
        {
          "internalType": "address",
          "name": "",
          "type": "address"
        }
      ],
      "stateMutability": "view",
      "type": "function"
    },
    {
      "inputs": [
        {
          "internalType": "address",
          "name": "proxySource",
          "type": "address"
        },
        {
          "internalType": "address",
          "name": "baseRecipient",
          "type": "address"
        },
        {
          "internalType": "uint256",
          "name": "amount",
          "type": "uint256"
        }
      ],
      "name": "redeem",
      "outputs": [
        {
          "internalType": "uint256",
          "name": "baseAmount",
          "type": "uint256"
        }
      ],
      "stateMutability": "nonpayable",
      "type": "function"
    },
    {
      "inputs": [],
      "name": "redeemRate",
      "outputs": [
        {
          "internalType": "uint256",
          "name": "",
          "type": "uint256"
        }
      ],
      "stateMutability": "view",
      "type": "function"
    },
    {
      "inputs": [
        {
          "internalType": "uint256",
          "name": "amount",
          "type": "uint256"
        }
      ],
      "name": "stake",
      "outputs": [],
      "stateMutability": "nonpayable",
      "type": "function"
    },
    {
      "inputs": [],
      "name": "symbol",
      "outputs": [
        {
          "internalType": "string",
          "name": "",
          "type": "string"
        }
      ],
      "stateMutability": "view",
      "type": "function"
    },
    {
      "inputs": [],
      "name": "totalSupply",
      "outputs": [
        {
          "internalType": "uint256",
          "name": "",
          "type": "uint256"
        }
      ],
      "stateMutability": "view",
      "type": "function"
    },
    {
      "inputs": [
        {
          "internalType": "address",
          "name": "recipient",
          "type": "address"
        },
        {
          "internalType": "uint256",
          "name": "amount",
          "type": "uint256"
        }
      ],
      "name": "transfer",
      "outputs": [
        {
          "internalType": "bool",
          "name": "",
          "type": "bool"
        }
      ],
      "stateMutability": "nonpayable",
      "type": "function"
    },
    {
      "inputs": [
        {
          "internalType": "address",
          "name": "sender",
          "type": "address"
        },
        {
          "internalType": "address",
          "name": "recipient",
          "type": "address"
        },
        {
          "internalType": "uint256",
          "name": "amount",
          "type": "uint256"
        }
      ],
      "name": "transferFrom",
      "outputs": [
        {
          "internalType": "bool",
          "name": "",
          "type": "bool"
        }
      ],
      "stateMutability": "nonpayable",
      "type": "function"
    },
    {
      "inputs": [
        {
          "internalType": "address",
          "name": "token",
          "type": "address"
        },
        {
          "internalType": "uint256",
          "name": "amount",
          "type": "uint256"
        }
      ],
      "name": "unstake",
      "outputs": [],
      "stateMutability": "nonpayable",
      "type": "function"
    }
  ],
  "bytecode": "0x60c06040523480156200001157600080fd5b506040516200267e3803806200267e8339818101604052810190620000379190620003db565b84848484828281600390805190602001906200005592919062000129565b5080600490805190602001906200006e92919062000129565b5050508373ffffffffffffffffffffffffffffffffffffffff1660a08173ffffffffffffffffffffffffffffffffffffffff16815250508073ffffffffffffffffffffffffffffffffffffffff1660808173ffffffffffffffffffffffffffffffffffffffff16815250505050505080600560006101000a81548173ffffffffffffffffffffffffffffffffffffffff021916908373ffffffffffffffffffffffffffffffffffffffff160217905550505050505062000505565b8280546200013790620004d0565b90600052602060002090601f0160209004810192826200015b5760008555620001a7565b82601f106200017657805160ff1916838001178555620001a7565b82800160010185558215620001a7579182015b82811115620001a657825182559160200191906001019062000189565b5b509050620001b69190620001ba565b5090565b5b80821115620001d5576000816000905550600101620001bb565b5090565b6000604051905090565b600080fd5b600080fd5b600073ffffffffffffffffffffffffffffffffffffffff82169050919050565b60006200021a82620001ed565b9050919050565b6200022c816200020d565b81146200023857600080fd5b50565b6000815190506200024c8162000221565b92915050565b600080fd5b600080fd5b6000601f19601f8301169050919050565b7f4e487b7100000000000000000000000000000000000000000000000000000000600052604160045260246000fd5b620002a7826200025c565b810181811067ffffffffffffffff82111715620002c957620002c86200026d565b5b80604052505050565b6000620002de620001d9565b9050620002ec82826200029c565b919050565b600067ffffffffffffffff8211156200030f576200030e6200026d565b5b6200031a826200025c565b9050602081019050919050565b60005b83811015620003475780820151818401526020810190506200032a565b8381111562000357576000848401525b50505050565b6000620003746200036e84620002f1565b620002d2565b90508281526020810184848401111562000393576200039262000257565b5b620003a084828562000327565b509392505050565b600082601f830112620003c057620003bf62000252565b5b8151620003d28482602086016200035d565b91505092915050565b600080600080600060a08688031215620003fa57620003f9620001e3565b5b60006200040a888289016200023b565b955050602086015167ffffffffffffffff8111156200042e576200042d620001e8565b5b6200043c88828901620003a8565b945050604086015167ffffffffffffffff81111562000460576200045f620001e8565b5b6200046e88828901620003a8565b935050606062000481888289016200023b565b925050608062000494888289016200023b565b9150509295509295909350565b7f4e487b7100000000000000000000000000000000000000000000000000000000600052602260045260246000fd5b60006002820490506001821680620004e957607f821691505b602082108103620004ff57620004fe620004a1565b5b50919050565b60805160a05161211b6200056360003960008181610484015281816105b601528181610b1c01528181610c7b0152818161127a0152818161131c0152611366015260008181610a5701528181610bc70152610c1b015261211b6000f3fe608060405234801561001057600080fd5b50600436106101215760003560e01c806395d89b41116100ad578063c2a672e011610071578063c2a672e014610346578063c55dae6314610362578063dd62ed3e14610380578063ed3b379b146103b0578063f8f1197e146103cc57610121565b806395d89b411461028e578063a457c2d7146102ac578063a694fc3a146102dc578063a9059cbb146102f8578063b50cbd9f1461032857610121565b806318160ddd116100f457806318160ddd146101c257806323b872dd146101e0578063313ce56714610210578063395093511461022e57806370a082311461025e57610121565b806306fdde0314610126578063095ea7b3146101445780630adcdbaa146101745780630e6dfcd514610192575b600080fd5b61012e6103d6565b60405161013b9190611a0b565b60405180910390f35b61015e60048036038101906101599190611ac6565b610468565b60405161016b9190611b21565b60405180910390f35b61017c61047f565b6040516101899190611b4b565b60405180910390f35b6101ac60048036038101906101a79190611b66565b610577565b6040516101b99190611b4b565b60405180910390f35b6101ca610602565b6040516101d79190611b4b565b60405180910390f35b6101fa60048036038101906101f59190611b66565b61060c565b6040516102079190611b21565b60405180910390f35b61021861072f565b6040516102259190611bd5565b60405180910390f35b61024860048036038101906102439190611ac6565b610738565b6040516102559190611b21565b60405180910390f35b61027860048036038101906102739190611bf0565b6107d6565b6040516102859190611b4b565b60405180910390f35b61029661081e565b6040516102a39190611a0b565b60405180910390f35b6102c660048036038101906102c19190611ac6565b6108b0565b6040516102d39190611b21565b60405180910390f35b6102f660048036038101906102f19190611c1d565b610991565b005b610312600480360381019061030d9190611ac6565b610a3e565b60405161031f9190611b21565b60405180910390f35b610330610a55565b60405161033d9190611c59565b60405180910390f35b610360600480360381019061035b9190611ac6565b610a79565b005b61036a610b1a565b6040516103779190611c59565b60405180910390f35b61039a60048036038101906103959190611c74565b610b3e565b6040516103a79190611b4b565b60405180910390f35b6103ca60048036038101906103c59190611bf0565b610bc5565b005b6103d4610d98565b005b6060600380546103e590611ce3565b80601f016020809104026020016040519081016040528092919081815260200182805461041190611ce3565b801561045e5780601f106104335761010080835404028352916020019161045e565b820191906000526020600020905b81548152906001019060200180831161044157829003601f168201915b5050505050905090565b6000610475338484610e07565b6001905092915050565b6000807f000000000000000000000000000000000000000000000000000000000000000073ffffffffffffffffffffffffffffffffffffffff166370a08231306040518263ffffffff1660e01b81526004016104db9190611c59565b602060405180830381865afa1580156104f8573d6000803e3d6000fd5b505050506040513d601f19601f8201168201806040525081019061051c9190611d29565b90506000610528610602565b14806105345750600081145b1561054a57670de0b6b3a7640000915050610574565b610552610602565b670de0b6b3a7640000826105669190611d85565b6105709190611e0e565b9150505b90565b60008061058261047f565b905061058e8584610ef2565b670de0b6b3a764000081846105a39190611d85565b6105ad9190611e0e565b91506105fa84837f000000000000000000000000000000000000000000000000000000000000000073ffffffffffffffffffffffffffffffffffffffff1661103c9092919063ffffffff16565b509392505050565b6000600254905090565b60006106198484846110c2565b6000600160008673ffffffffffffffffffffffffffffffffffffffff1673ffffffffffffffffffffffffffffffffffffffff16815260200190815260200160002060003373ffffffffffffffffffffffffffffffffffffffff1673ffffffffffffffffffffffffffffffffffffffff1681526020019081526020016000205490507fffffffffffffffffffffffffffffffffffffffffffffffffffffffffffffffff81141580156106c957508083115b1561070d5780836040517fa9248256000000000000000000000000000000000000000000000000000000008152600401610704929190611e3f565b60405180910390fd5b6107238533858461071e9190611e68565b610e07565b60019150509392505050565b60006012905090565b60006107cc338484600160003373ffffffffffffffffffffffffffffffffffffffff1673ffffffffffffffffffffffffffffffffffffffff16815260200190815260200160002060008873ffffffffffffffffffffffffffffffffffffffff1673ffffffffffffffffffffffffffffffffffffffff168152602001908152602001600020546107c79190611e9c565b610e07565b6001905092915050565b60008060008373ffffffffffffffffffffffffffffffffffffffff1673ffffffffffffffffffffffffffffffffffffffff168152602001908152602001600020549050919050565b60606004805461082d90611ce3565b80601f016020809104026020016040519081016040528092919081815260200182805461085990611ce3565b80156108a65780601f1061087b576101008083540402835291602001916108a6565b820191906000526020600020905b81548152906001019060200180831161088957829003601f168201915b5050505050905090565b600080600160003373ffffffffffffffffffffffffffffffffffffffff1673ffffffffffffffffffffffffffffffffffffffff16815260200190815260200160002060008573ffffffffffffffffffffffffffffffffffffffff1673ffffffffffffffffffffffffffffffffffffffff168152602001908152602001600020549050828110156109795780836040517fda2d822c000000000000000000000000000000000000000000000000000000008152600401610970929190611e3f565b60405180910390fd5b6109863385858403610e07565b600191505092915050565b60006109a7670de0b6b3a764000030338561124b565b9050600560009054906101000a900473ffffffffffffffffffffffffffffffffffffffff1673ffffffffffffffffffffffffffffffffffffffff16639b8f04b73083336040518463ffffffff1660e01b8152600401610a0893929190611ef2565b600060405180830381600087803b158015610a2257600080fd5b505af1158015610a36573d6000803e3d6000fd5b505050505050565b6000610a4b3384846110c2565b6001905092915050565b7f000000000000000000000000000000000000000000000000000000000000000081565b600560009054906101000a900473ffffffffffffffffffffffffffffffffffffffff1673ffffffffffffffffffffffffffffffffffffffff1663026800d08383336040518463ffffffff1660e01b8152600401610ad893929190611ef2565b600060405180830381600087803b158015610af257600080fd5b505af1158015610b06573d6000803e3d6000fd5b50505050610b15303383610577565b505050565b7f000000000000000000000000000000000000000000000000000000000000000081565b6000600160008473ffffffffffffffffffffffffffffffffffffffff1673ffffffffffffffffffffffffffffffffffffffff16815260200190815260200160002060008373ffffffffffffffffffffffffffffffffffffffff1673ffffffffffffffffffffffffffffffffffffffff16815260200190815260200160002054905092915050565b7f000000000000000000000000000000000000000000000000000000000000000073ffffffffffffffffffffffffffffffffffffffff163373ffffffffffffffffffffffffffffffffffffffff1614610c7757337f00000000000000000000000000000000000000000000000000000000000000006040517fd214286f000000000000000000000000000000000000000000000000000000008152600401610c6e929190611f29565b60405180910390fd5b60007f000000000000000000000000000000000000000000000000000000000000000090508073ffffffffffffffffffffffffffffffffffffffff1663a9059cbb838373ffffffffffffffffffffffffffffffffffffffff166370a08231306040518263ffffffff1660e01b8152600401610cf29190611c59565b602060405180830381865afa158015610d0f573d6000803e3d6000fd5b505050506040513d601f19601f82011682018060405250810190610d339190611d29565b6040518363ffffffff1660e01b8152600401610d50929190611f52565b6020604051808303816000875af1158015610d6f573d6000803e3d6000fd5b505050506040513d601f19601f82011682018060405250810190610d939190611fa7565b505050565b610e05600560009054906101000a900473ffffffffffffffffffffffffffffffffffffffff167fffffffffffffffffffffffffffffffffffffffffffffffffffffffffffffffff3073ffffffffffffffffffffffffffffffffffffffff166114409092919063ffffffff16565b565b80600160008573ffffffffffffffffffffffffffffffffffffffff1673ffffffffffffffffffffffffffffffffffffffff16815260200190815260200160002060008473ffffffffffffffffffffffffffffffffffffffff1673ffffffffffffffffffffffffffffffffffffffff168152602001908152602001600020819055508173ffffffffffffffffffffffffffffffffffffffff168373ffffffffffffffffffffffffffffffffffffffff167f8c5be1e5ebec7d5bd14f71427d1e84f3dd0314c0f7b2291e5b200ac8c7c3b92583604051610ee59190611b4b565b60405180910390a3505050565b60008060008473ffffffffffffffffffffffffffffffffffffffff1673ffffffffffffffffffffffffffffffffffffffff16815260200190815260200160002054905081811015610f7c5780826040517f0a37dd41000000000000000000000000000000000000000000000000000000008152600401610f73929190611e3f565b60405180910390fd5b8181036000808573ffffffffffffffffffffffffffffffffffffffff1673ffffffffffffffffffffffffffffffffffffffff1681526020019081526020016000208190555081600260008282540392505081905550600073ffffffffffffffffffffffffffffffffffffffff168373ffffffffffffffffffffffffffffffffffffffff167fddf252ad1be2c89b69c2b068fc378daa952ba7f163c4a11628f55a4df523b3ef8460405161102f9190611b4b565b60405180910390a3505050565b6110bd8363a9059cbb60e01b848460405160240161105b929190611f52565b604051602081830303815290604052907bffffffffffffffffffffffffffffffffffffffffffffffffffffffff19166020820180517bffffffffffffffffffffffffffffffffffffffffffffffffffffffff8381831617835250505050611597565b505050565b60008060008573ffffffffffffffffffffffffffffffffffffffff1673ffffffffffffffffffffffffffffffffffffffff1681526020019081526020016000205490508181101561114f57806000836040517f57b9c4a400000000000000000000000000000000000000000000000000000000815260040161114693929190612019565b60405180910390fd5b8181036000808673ffffffffffffffffffffffffffffffffffffffff1673ffffffffffffffffffffffffffffffffffffffff16815260200190815260200160002081905550816000808573ffffffffffffffffffffffffffffffffffffffff1673ffffffffffffffffffffffffffffffffffffffff168152602001908152602001600020600082825401925050819055508273ffffffffffffffffffffffffffffffffffffffff168473ffffffffffffffffffffffffffffffffffffffff167fddf252ad1be2c89b69c2b068fc378daa952ba7f163c4a11628f55a4df523b3ef8460405161123d9190611b4b565b60405180910390a350505050565b600080670de0b6b3a76400008661126061047f565b61126a9190611d85565b6112749190611e0e565b905060007f000000000000000000000000000000000000000000000000000000000000000073ffffffffffffffffffffffffffffffffffffffff166370a08231306040518263ffffffff1660e01b81526004016112d19190611c59565b602060405180830381865afa1580156112ee573d6000803e3d6000fd5b505050506040513d601f19601f820116820180604052508101906113129190611d29565b90506113618530867f000000000000000000000000000000000000000000000000000000000000000073ffffffffffffffffffffffffffffffffffffffff16611655909392919063ffffffff16565b6000817f000000000000000000000000000000000000000000000000000000000000000073ffffffffffffffffffffffffffffffffffffffff166370a08231306040518263ffffffff1660e01b81526004016113bd9190611c59565b602060405180830381865afa1580156113da573d6000803e3d6000fd5b505050506040513d601f19601f820116820180604052508101906113fe9190611d29565b6114089190611e68565b905082670de0b6b3a76400008261141f9190611d85565b6114299190611e0e565b935061143587856116de565b505050949350505050565b6000811180156114cb575060008373ffffffffffffffffffffffffffffffffffffffff1663dd62ed3e30856040518363ffffffff1660e01b8152600401611488929190611f29565b602060405180830381865afa1580156114a5573d6000803e3d6000fd5b505050506040513d601f19601f820116820180604052508101906114c99190611d29565b115b15611511578282826040517fc1a76f6c00000000000000000000000000000000000000000000000000000000815260040161150893929190612050565b60405180910390fd5b6115928363095ea7b360e01b8484604051602401611530929190611f52565b604051602081830303815290604052907bffffffffffffffffffffffffffffffffffffffffffffffffffffffff19166020820180517bffffffffffffffffffffffffffffffffffffffffffffffffffffffff8381831617835250505050611597565b505050565b60006115f9826040518060400160405280602081526020017f5361666545524332303a206c6f772d6c6576656c2063616c6c206661696c65648152508573ffffffffffffffffffffffffffffffffffffffff166117b69092919063ffffffff16565b905060008151111561165057808060200190518101906116199190611fa7565b61164f576040517fa479450200000000000000000000000000000000000000000000000000000000815260040160405180910390fd5b5b505050565b6116d8846323b872dd60e01b85858560405160240161167693929190612050565b604051602081830303815290604052907bffffffffffffffffffffffffffffffffffffffffffffffffffffffff19166020820180517bffffffffffffffffffffffffffffffffffffffffffffffffffffffff8381831617835250505050611597565b50505050565b80600260008282546116f09190611e9c565b92505081905550806000808473ffffffffffffffffffffffffffffffffffffffff1673ffffffffffffffffffffffffffffffffffffffff16815260200190815260200160002060008282546117459190611e9c565b925050819055508173ffffffffffffffffffffffffffffffffffffffff16600073ffffffffffffffffffffffffffffffffffffffff167fddf252ad1be2c89b69c2b068fc378daa952ba7f163c4a11628f55a4df523b3ef836040516117aa9190611b4b565b60405180910390a35050565b60606117c584846000856117ce565b90509392505050565b6060824710156118175747836040517f02de226f00000000000000000000000000000000000000000000000000000000815260040161180e929190611e3f565b60405180910390fd5b611820856118e8565b61186157846040517f8a8b41ec0000000000000000000000000000000000000000000000000000000081526004016118589190611c59565b60405180910390fd5b6000808673ffffffffffffffffffffffffffffffffffffffff16858760405161188a91906120ce565b60006040518083038185875af1925050503d80600081146118c7576040519150601f19603f3d011682016040523d82523d6000602084013e6118cc565b606091505b50915091506118dc82828661190b565b92505050949350505050565b6000808273ffffffffffffffffffffffffffffffffffffffff163b119050919050565b6060831561191b5782905061196b565b60008351111561192e5782518084602001fd5b816040517f08c379a00000000000000000000000000000000000000000000000000000000081526004016119629190611a0b565b60405180910390fd5b9392505050565b600081519050919050565b600082825260208201905092915050565b60005b838110156119ac578082015181840152602081019050611991565b838111156119bb576000848401525b50505050565b6000601f19601f8301169050919050565b60006119dd82611972565b6119e7818561197d565b93506119f781856020860161198e565b611a00816119c1565b840191505092915050565b60006020820190508181036000830152611a2581846119d2565b905092915050565b600080fd5b600073ffffffffffffffffffffffffffffffffffffffff82169050919050565b6000611a5d82611a32565b9050919050565b611a6d81611a52565b8114611a7857600080fd5b50565b600081359050611a8a81611a64565b92915050565b6000819050919050565b611aa381611a90565b8114611aae57600080fd5b50565b600081359050611ac081611a9a565b92915050565b60008060408385031215611add57611adc611a2d565b5b6000611aeb85828601611a7b565b9250506020611afc85828601611ab1565b9150509250929050565b60008115159050919050565b611b1b81611b06565b82525050565b6000602082019050611b366000830184611b12565b92915050565b611b4581611a90565b82525050565b6000602082019050611b606000830184611b3c565b92915050565b600080600060608486031215611b7f57611b7e611a2d565b5b6000611b8d86828701611a7b565b9350506020611b9e86828701611a7b565b9250506040611baf86828701611ab1565b9150509250925092565b600060ff82169050919050565b611bcf81611bb9565b82525050565b6000602082019050611bea6000830184611bc6565b92915050565b600060208284031215611c0657611c05611a2d565b5b6000611c1484828501611a7b565b91505092915050565b600060208284031215611c3357611c32611a2d565b5b6000611c4184828501611ab1565b91505092915050565b611c5381611a52565b82525050565b6000602082019050611c6e6000830184611c4a565b92915050565b60008060408385031215611c8b57611c8a611a2d565b5b6000611c9985828601611a7b565b9250506020611caa85828601611a7b565b9150509250929050565b7f4e487b7100000000000000000000000000000000000000000000000000000000600052602260045260246000fd5b60006002820490506001821680611cfb57607f821691505b602082108103611d0e57611d0d611cb4565b5b50919050565b600081519050611d2381611a9a565b92915050565b600060208284031215611d3f57611d3e611a2d565b5b6000611d4d84828501611d14565b91505092915050565b7f4e487b7100000000000000000000000000000000000000000000000000000000600052601160045260246000fd5b6000611d9082611a90565b9150611d9b83611a90565b9250817fffffffffffffffffffffffffffffffffffffffffffffffffffffffffffffffff0483118215151615611dd457611dd3611d56565b5b828202905092915050565b7f4e487b7100000000000000000000000000000000000000000000000000000000600052601260045260246000fd5b6000611e1982611a90565b9150611e2483611a90565b925082611e3457611e33611ddf565b5b828204905092915050565b6000604082019050611e546000830185611b3c565b611e616020830184611b3c565b9392505050565b6000611e7382611a90565b9150611e7e83611a90565b925082821015611e9157611e90611d56565b5b828203905092915050565b6000611ea782611a90565b9150611eb283611a90565b9250827fffffffffffffffffffffffffffffffffffffffffffffffffffffffffffffffff03821115611ee757611ee6611d56565b5b828201905092915050565b6000606082019050611f076000830186611c4a565b611f146020830185611b3c565b611f216040830184611c4a565b949350505050565b6000604082019050611f3e6000830185611c4a565b611f4b6020830184611c4a565b9392505050565b6000604082019050611f676000830185611c4a565b611f746020830184611b3c565b9392505050565b611f8481611b06565b8114611f8f57600080fd5b50565b600081519050611fa181611f7b565b92915050565b600060208284031215611fbd57611fbc611a2d565b5b6000611fcb84828501611f92565b91505092915050565b6000819050919050565b6000819050919050565b6000612003611ffe611ff984611fd4565b611fde565b611a90565b9050919050565b61201381611fe8565b82525050565b600060608201905061202e6000830186611b3c565b61203b602083018561200a565b6120486040830184611b3c565b949350505050565b60006060820190506120656000830186611c4a565b6120726020830185611c4a565b61207f6040830184611b3c565b949350505050565b600081519050919050565b600081905092915050565b60006120a882612087565b6120b28185612092565b93506120c281856020860161198e565b80840191505092915050565b60006120da828461209d565b91508190509291505056fea26469706673582212201553e35a40fb5ec0a53ffa81aa24388fda901e4f1e92b26f5be65a51294e4d6c64736f6c634300080d0033",
  "linkReferences": {},
  "deployedLinkReferences": {}
}