{
  "_format": "hh-sol-artifact-1",
  "contractName": "LimboProxy",
  "sourceName": "contracts/TokenProxies/LimboProxy.sol",
  "abi": [
    {
      "inputs": [
        {
          "internalType": "address",
          "name": "_baseToken",
          "type": "address"
        },
        {
          "internalType": "string",
          "name": "name_",
          "type": "string"
        },
        {
          "internalType": "string",
          "name": "symbol_",
          "type": "string"
        },
        {
          "internalType": "address",
          "name": "registry",
          "type": "address"
        },
        {
          "internalType": "address",
          "name": "_limbo",
          "type": "address"
        },
        {
          "internalType": "address",
          "name": "_flan",
          "type": "address"
        },
        {
          "internalType": "uint256",
          "name": "initialRedeemRate",
          "type": "uint256"
        }
      ],
      "stateMutability": "nonpayable",
      "type": "constructor"
    },
    {
      "inputs": [
        {
          "internalType": "uint256",
          "name": "allowance",
          "type": "uint256"
        },
        {
          "internalType": "uint256",
          "name": "amount",
          "type": "uint256"
        }
      ],
      "name": "AllowanceExceeded",
      "type": "error"
    },
    {
      "inputs": [
        {
          "internalType": "uint256",
          "name": "allowance",
          "type": "uint256"
        },
        {
          "internalType": "uint256",
          "name": "subtraction",
          "type": "uint256"
        }
      ],
      "name": "AllowanceUnderflow",
      "type": "error"
    },
    {
      "inputs": [
        {
          "internalType": "address",
          "name": "token",
          "type": "address"
        },
        {
          "internalType": "address",
          "name": "spender",
          "type": "address"
        },
        {
          "internalType": "uint256",
          "name": "amount",
          "type": "uint256"
        }
      ],
      "name": "ApproveToNonZero",
      "type": "error"
    },
    {
      "inputs": [
        {
          "internalType": "uint256",
          "name": "accountBalance",
          "type": "uint256"
        },
        {
          "internalType": "uint256",
          "name": "amount",
          "type": "uint256"
        }
      ],
      "name": "BurnUnderflow",
      "type": "error"
    },
    {
      "inputs": [
        {
          "internalType": "uint256",
          "name": "balance",
          "type": "uint256"
        },
        {
          "internalType": "uint256",
          "name": "value",
          "type": "uint256"
        }
      ],
      "name": "InsufficinetFunds",
      "type": "error"
    },
    {
      "inputs": [
        {
          "internalType": "address",
          "name": "EOA",
          "type": "address"
        }
      ],
      "name": "NotAContract",
      "type": "error"
    },
    {
      "inputs": [
        {
          "internalType": "address",
          "name": "sender",
          "type": "address"
        },
        {
          "internalType": "address",
          "name": "proxy",
          "type": "address"
        }
      ],
      "name": "OnlyProxy",
      "type": "error"
    },
    {
      "inputs": [],
      "name": "OperationFailure",
      "type": "error"
    },
    {
      "inputs": [
        {
          "internalType": "uint256",
          "name": "senderBalance",
          "type": "uint256"
        },
        {
          "internalType": "uint256",
          "name": "fee",
          "type": "uint256"
        },
        {
          "internalType": "uint256",
          "name": "amount",
          "type": "uint256"
        }
      ],
      "name": "TransferUnderflow",
      "type": "error"
    },
    {
      "anonymous": false,
      "inputs": [
        {
          "indexed": true,
          "internalType": "address",
          "name": "owner",
          "type": "address"
        },
        {
          "indexed": true,
          "internalType": "address",
          "name": "spender",
          "type": "address"
        },
        {
          "indexed": false,
          "internalType": "uint256",
          "name": "value",
          "type": "uint256"
        }
      ],
      "name": "Approval",
      "type": "event"
    },
    {
      "anonymous": false,
      "inputs": [
        {
          "indexed": true,
          "internalType": "address",
          "name": "from",
          "type": "address"
        },
        {
          "indexed": true,
          "internalType": "address",
          "name": "to",
          "type": "address"
        },
        {
          "indexed": false,
          "internalType": "uint256",
          "name": "value",
          "type": "uint256"
        }
      ],
      "name": "Transfer",
      "type": "event"
    },
    {
      "inputs": [],
      "name": "IS_PROXY",
      "outputs": [
        {
          "internalType": "bool",
          "name": "",
          "type": "bool"
        }
      ],
      "stateMutability": "view",
      "type": "function"
    },
    {
      "inputs": [
        {
          "internalType": "address",
          "name": "owner",
          "type": "address"
        },
        {
          "internalType": "address",
          "name": "spender",
          "type": "address"
        }
      ],
      "name": "allowance",
      "outputs": [
        {
          "internalType": "uint256",
          "name": "",
          "type": "uint256"
        }
      ],
      "stateMutability": "view",
      "type": "function"
    },
    {
      "inputs": [
        {
          "internalType": "address",
          "name": "spender",
          "type": "address"
        },
        {
          "internalType": "uint256",
          "name": "amount",
          "type": "uint256"
        }
      ],
      "name": "approve",
      "outputs": [
        {
          "internalType": "bool",
          "name": "",
          "type": "bool"
        }
      ],
      "stateMutability": "nonpayable",
      "type": "function"
    },
    {
      "inputs": [],
      "name": "approveLimbo",
      "outputs": [],
      "stateMutability": "nonpayable",
      "type": "function"
    },
    {
      "inputs": [
        {
          "internalType": "address",
          "name": "account",
          "type": "address"
        }
      ],
      "name": "balanceOf",
      "outputs": [
        {
          "internalType": "uint256",
          "name": "",
          "type": "uint256"
        }
      ],
      "stateMutability": "view",
      "type": "function"
    },
    {
      "inputs": [],
      "name": "baseToken",
      "outputs": [
        {
          "internalType": "address",
          "name": "",
          "type": "address"
        }
      ],
      "stateMutability": "view",
      "type": "function"
    },
    {
      "inputs": [],
      "name": "decimals",
      "outputs": [
        {
          "internalType": "uint8",
          "name": "",
          "type": "uint8"
        }
      ],
      "stateMutability": "view",
      "type": "function"
    },
    {
      "inputs": [
        {
          "internalType": "address",
          "name": "spender",
          "type": "address"
        },
        {
          "internalType": "uint256",
          "name": "subtractedValue",
          "type": "uint256"
        }
      ],
      "name": "decreaseAllowance",
      "outputs": [
        {
          "internalType": "bool",
          "name": "",
          "type": "bool"
        }
      ],
      "stateMutability": "nonpayable",
      "type": "function"
    },
    {
      "inputs": [
        {
          "internalType": "address",
          "name": "spender",
          "type": "address"
        },
        {
          "internalType": "uint256",
          "name": "addedValue",
          "type": "uint256"
        }
      ],
      "name": "increaseAllowance",
      "outputs": [
        {
          "internalType": "bool",
          "name": "",
          "type": "bool"
        }
      ],
      "stateMutability": "nonpayable",
      "type": "function"
    },
    {
      "inputs": [],
      "name": "initialRedeemRate",
      "outputs": [
        {
          "internalType": "uint256",
          "name": "",
          "type": "uint256"
        }
      ],
      "stateMutability": "view",
      "type": "function"
    },
    {
      "inputs": [
        {
          "internalType": "address",
          "name": "newProxy",
          "type": "address"
        }
      ],
      "name": "migrateBaseReserveToNewProxy",
      "outputs": [],
      "stateMutability": "nonpayable",
      "type": "function"
    },
    {
      "inputs": [
        {
          "internalType": "address",
          "name": "proxyRecipient",
          "type": "address"
        },
        {
          "internalType": "address",
          "name": "baseSource",
          "type": "address"
        },
        {
          "internalType": "uint256",
          "name": "amount",
          "type": "uint256"
        }
      ],
      "name": "mint",
      "outputs": [
        {
          "internalType": "uint256",
          "name": "proxy",
          "type": "uint256"
        }
      ],
      "stateMutability": "nonpayable",
      "type": "function"
    },
    {
      "inputs": [],
      "name": "name",
      "outputs": [
        {
          "internalType": "string",
          "name": "",
          "type": "string"
        }
      ],
      "stateMutability": "view",
      "type": "function"
    },
    {
      "inputs": [],
      "name": "proxyRegistry",
      "outputs": [
        {
          "internalType": "address",
          "name": "",
          "type": "address"
        }
      ],
      "stateMutability": "view",
      "type": "function"
    },
    {
      "inputs": [
        {
          "internalType": "address",
          "name": "proxySource",
          "type": "address"
        },
        {
          "internalType": "address",
          "name": "baseRecipient",
          "type": "address"
        },
        {
          "internalType": "uint256",
          "name": "amount",
          "type": "uint256"
        }
      ],
      "name": "redeem",
      "outputs": [
        {
          "internalType": "uint256",
          "name": "baseAmount",
          "type": "uint256"
        }
      ],
      "stateMutability": "nonpayable",
      "type": "function"
    },
    {
      "inputs": [],
      "name": "redeemRate",
      "outputs": [
        {
          "internalType": "uint256",
          "name": "",
          "type": "uint256"
        }
      ],
      "stateMutability": "view",
      "type": "function"
    },
    {
      "inputs": [
        {
          "internalType": "uint256",
          "name": "amount",
          "type": "uint256"
        }
      ],
      "name": "stake",
      "outputs": [],
      "stateMutability": "nonpayable",
      "type": "function"
    },
    {
      "inputs": [],
      "name": "symbol",
      "outputs": [
        {
          "internalType": "string",
          "name": "",
          "type": "string"
        }
      ],
      "stateMutability": "view",
      "type": "function"
    },
    {
      "inputs": [],
      "name": "totalSupply",
      "outputs": [
        {
          "internalType": "uint256",
          "name": "",
          "type": "uint256"
        }
      ],
      "stateMutability": "view",
      "type": "function"
    },
    {
      "inputs": [
        {
          "internalType": "address",
          "name": "recipient",
          "type": "address"
        },
        {
          "internalType": "uint256",
          "name": "amount",
          "type": "uint256"
        }
      ],
      "name": "transfer",
      "outputs": [
        {
          "internalType": "bool",
          "name": "",
          "type": "bool"
        }
      ],
      "stateMutability": "nonpayable",
      "type": "function"
    },
    {
      "inputs": [
        {
          "internalType": "address",
          "name": "sender",
          "type": "address"
        },
        {
          "internalType": "address",
          "name": "recipient",
          "type": "address"
        },
        {
          "internalType": "uint256",
          "name": "amount",
          "type": "uint256"
        }
      ],
      "name": "transferFrom",
      "outputs": [
        {
          "internalType": "bool",
          "name": "",
          "type": "bool"
        }
      ],
      "stateMutability": "nonpayable",
      "type": "function"
    },
    {
      "inputs": [
        {
          "internalType": "uint256",
          "name": "amount",
          "type": "uint256"
        }
      ],
      "name": "unstake",
      "outputs": [],
      "stateMutability": "nonpayable",
      "type": "function"
    },
    {
      "inputs": [],
      "name": "withdrawReserve",
      "outputs": [],
      "stateMutability": "nonpayable",
      "type": "function"
    }
  ],
  "bytecode": "0x60e06040523480156200001157600080fd5b5060405162002d6538038062002d65833981810160405281019062000037919062000463565b8686868684838381600390805190602001906200005692919062000176565b5080600490805190602001906200006f92919062000176565b5050508473ffffffffffffffffffffffffffffffffffffffff1660a08173ffffffffffffffffffffffffffffffffffffffff16815250508173ffffffffffffffffffffffffffffffffffffffff1660808173ffffffffffffffffffffffffffffffffffffffff16815250508060c08181525050505050505082600560006101000a81548173ffffffffffffffffffffffffffffffffffffffff021916908373ffffffffffffffffffffffffffffffffffffffff16021790555081600660006101000a81548173ffffffffffffffffffffffffffffffffffffffff021916908373ffffffffffffffffffffffffffffffffffffffff16021790555050505050505050620005b8565b828054620001849062000583565b90600052602060002090601f016020900481019282620001a85760008555620001f4565b82601f10620001c357805160ff1916838001178555620001f4565b82800160010185558215620001f4579182015b82811115620001f3578251825591602001919060010190620001d6565b5b50905062000203919062000207565b5090565b5b808211156200022257600081600090555060010162000208565b5090565b6000604051905090565b600080fd5b600080fd5b600073ffffffffffffffffffffffffffffffffffffffff82169050919050565b600062000267826200023a565b9050919050565b62000279816200025a565b81146200028557600080fd5b50565b60008151905062000299816200026e565b92915050565b600080fd5b600080fd5b6000601f19601f8301169050919050565b7f4e487b7100000000000000000000000000000000000000000000000000000000600052604160045260246000fd5b620002f482620002a9565b810181811067ffffffffffffffff82111715620003165762000315620002ba565b5b80604052505050565b60006200032b62000226565b9050620003398282620002e9565b919050565b600067ffffffffffffffff8211156200035c576200035b620002ba565b5b6200036782620002a9565b9050602081019050919050565b60005b838110156200039457808201518184015260208101905062000377565b83811115620003a4576000848401525b50505050565b6000620003c1620003bb846200033e565b6200031f565b905082815260208101848484011115620003e057620003df620002a4565b5b620003ed84828562000374565b509392505050565b600082601f8301126200040d576200040c6200029f565b5b81516200041f848260208601620003aa565b91505092915050565b6000819050919050565b6200043d8162000428565b81146200044957600080fd5b50565b6000815190506200045d8162000432565b92915050565b600080600080600080600060e0888a03121562000485576200048462000230565b5b6000620004958a828b0162000288565b975050602088015167ffffffffffffffff811115620004b957620004b862000235565b5b620004c78a828b01620003f5565b965050604088015167ffffffffffffffff811115620004eb57620004ea62000235565b5b620004f98a828b01620003f5565b95505060606200050c8a828b0162000288565b94505060806200051f8a828b0162000288565b93505060a0620005328a828b0162000288565b92505060c0620005458a828b016200044c565b91505092959891949750929550565b7f4e487b7100000000000000000000000000000000000000000000000000000000600052602260045260246000fd5b600060028204905060018216806200059c57607f821691505b602082108103620005b257620005b162000554565b5b50919050565b60805160a05160c0516126e362000682600039600081816105dd0152818161060e0152818161066201528181610a9201528181610c2e01528181611087015281816117e801526119bd015260008181610526015281816106a001528181610dbb01528181610e5501528181610ec101528181610ef401528181610f9601528181610fe00152818161120e0152818161182a015281816118cc0152611916015260008181610d0501528181610d5901528181610e9d0152818161115a01526111ae01526126e36000f3fe608060405234801561001057600080fd5b506004361061014d5760003560e01c806395d89b41116100c3578063c55dae631161007c578063c55dae63146103b6578063c6c3bbe6146103d4578063dd62ed3e14610404578063ed3b379b14610434578063f8f1197e14610450578063fbed2d721461045a5761014d565b806395d89b41146102f4578063a457c2d714610312578063a694fc3a14610342578063a9059cbb1461035e578063ace1fab11461038e578063b50cbd9f146103985761014d565b806323b872dd1161011557806323b872dd1461020c5780632e17de781461023c578063313ce56714610258578063395093511461027657806370a08231146102a65780637376dd79146102d65761014d565b806306fdde0314610152578063095ea7b3146101705780630adcdbaa146101a05780630e6dfcd5146101be57806318160ddd146101ee575b600080fd5b61015a610478565b6040516101679190611fd3565b60405180910390f35b61018a6004803603810190610185919061208e565b61050a565b60405161019791906120e9565b60405180910390f35b6101a8610521565b6040516101b59190612113565b60405180910390f35b6101d860048036038101906101d3919061212e565b610649565b6040516101e59190612113565b60405180910390f35b6101f66106ec565b6040516102039190612113565b60405180910390f35b6102266004803603810190610221919061212e565b6106f6565b60405161023391906120e9565b60405180910390f35b61025660048036038101906102519190612181565b610819565b005b6102606109a1565b60405161026d91906121ca565b60405180910390f35b610290600480360381019061028b919061208e565b6109aa565b60405161029d91906120e9565b60405180910390f35b6102c060048036038101906102bb91906121e5565b610a48565b6040516102cd9190612113565b60405180910390f35b6102de610a90565b6040516102eb9190612113565b60405180910390f35b6102fc610ab4565b6040516103099190611fd3565b60405180910390f35b61032c6004803603810190610327919061208e565b610b46565b60405161033991906120e9565b60405180910390f35b61035c60048036038101906103579190612181565b610c27565b005b6103786004803603810190610373919061208e565b610cec565b60405161038591906120e9565b60405180910390f35b610396610d03565b005b6103a0610e9b565b6040516103ad9190612221565b60405180910390f35b6103be610ebf565b6040516103cb9190612221565b60405180910390f35b6103ee60048036038101906103e9919061212e565b610ee3565b6040516103fb9190612113565b60405180910390f35b61041e6004803603810190610419919061223c565b6110d1565b60405161042b9190612113565b60405180910390f35b61044e600480360381019061044991906121e5565b611158565b005b61045861132b565b005b61046261139a565b60405161046f91906120e9565b60405180910390f35b606060038054610487906122ab565b80601f01602080910402602001604051908101604052809291908181526020018280546104b3906122ab565b80156105005780601f106104d557610100808354040283529160200191610500565b820191906000526020600020905b8154815290600101906020018083116104e357829003601f168201915b5050505050905090565b600061051733848461139f565b6001905092915050565b6000807f000000000000000000000000000000000000000000000000000000000000000073ffffffffffffffffffffffffffffffffffffffff166370a08231306040518263ffffffff1660e01b815260040161057d9190612221565b602060405180830381865afa15801561059a573d6000803e3d6000fd5b505050506040513d601f19601f820116820180604052508101906105be91906122f1565b905060006105ca6106ec565b14806105d65750600081145b15610604577f0000000000000000000000000000000000000000000000000000000000000000915050610646565b61060c6106ec565b7f000000000000000000000000000000000000000000000000000000000000000082610638919061234d565b61064291906123d6565b9150505b90565b600080610654610521565b9050610660858461148a565b7f0000000000000000000000000000000000000000000000000000000000000000818461068d919061234d565b61069791906123d6565b91506106e484837f000000000000000000000000000000000000000000000000000000000000000073ffffffffffffffffffffffffffffffffffffffff166115d49092919063ffffffff16565b509392505050565b6000600254905090565b600061070384848461165a565b6000600160008673ffffffffffffffffffffffffffffffffffffffff1673ffffffffffffffffffffffffffffffffffffffff16815260200190815260200160002060003373ffffffffffffffffffffffffffffffffffffffff1673ffffffffffffffffffffffffffffffffffffffff1681526020019081526020016000205490507fffffffffffffffffffffffffffffffffffffffffffffffffffffffffffffffff81141580156107b357508083115b156107f75780836040517fa92482560000000000000000000000000000000000000000000000000000000081526004016107ee929190612407565b60405180910390fd5b61080d853385846108089190612430565b61139f565b60019150509392505050565b600560009054906101000a900473ffffffffffffffffffffffffffffffffffffffff1673ffffffffffffffffffffffffffffffffffffffff1663026800d03083336040518463ffffffff1660e01b815260040161087893929190612464565b600060405180830381600087803b15801561089257600080fd5b505af11580156108a6573d6000803e3d6000fd5b505050506108b5303383610649565b5061099e33600660009054906101000a900473ffffffffffffffffffffffffffffffffffffffff1673ffffffffffffffffffffffffffffffffffffffff166370a08231306040518263ffffffff1660e01b81526004016109159190612221565b602060405180830381865afa158015610932573d6000803e3d6000fd5b505050506040513d601f19601f8201168201806040525081019061095691906122f1565b600660009054906101000a900473ffffffffffffffffffffffffffffffffffffffff1673ffffffffffffffffffffffffffffffffffffffff166115d49092919063ffffffff16565b50565b60006012905090565b6000610a3e338484600160003373ffffffffffffffffffffffffffffffffffffffff1673ffffffffffffffffffffffffffffffffffffffff16815260200190815260200160002060008873ffffffffffffffffffffffffffffffffffffffff1673ffffffffffffffffffffffffffffffffffffffff16815260200190815260200160002054610a39919061249b565b61139f565b6001905092915050565b60008060008373ffffffffffffffffffffffffffffffffffffffff1673ffffffffffffffffffffffffffffffffffffffff168152602001908152602001600020549050919050565b7f000000000000000000000000000000000000000000000000000000000000000081565b606060048054610ac3906122ab565b80601f0160208091040260200160405190810160405280929190818152602001828054610aef906122ab565b8015610b3c5780601f10610b1157610100808354040283529160200191610b3c565b820191906000526020600020905b815481529060010190602001808311610b1f57829003601f168201915b5050505050905090565b600080600160003373ffffffffffffffffffffffffffffffffffffffff1673ffffffffffffffffffffffffffffffffffffffff16815260200190815260200160002060008573ffffffffffffffffffffffffffffffffffffffff1673ffffffffffffffffffffffffffffffffffffffff16815260200190815260200160002054905082811015610c0f5780836040517fda2d822c000000000000000000000000000000000000000000000000000000008152600401610c06929190612407565b60405180910390fd5b610c1c338585840361139f565b600191505092915050565b6000610c557f00000000000000000000000000000000000000000000000000000000000000003033856117e3565b9050600560009054906101000a900473ffffffffffffffffffffffffffffffffffffffff1673ffffffffffffffffffffffffffffffffffffffff16639b8f04b73083336040518463ffffffff1660e01b8152600401610cb693929190612464565b600060405180830381600087803b158015610cd057600080fd5b505af1158015610ce4573d6000803e3d6000fd5b505050505050565b6000610cf933848461165a565b6001905092915050565b7f000000000000000000000000000000000000000000000000000000000000000073ffffffffffffffffffffffffffffffffffffffff163373ffffffffffffffffffffffffffffffffffffffff1614610db557337f00000000000000000000000000000000000000000000000000000000000000006040517fd214286f000000000000000000000000000000000000000000000000000000008152600401610dac9291906124f1565b60405180910390fd5b610e99337f000000000000000000000000000000000000000000000000000000000000000073ffffffffffffffffffffffffffffffffffffffff166370a08231306040518263ffffffff1660e01b8152600401610e129190612221565b602060405180830381865afa158015610e2f573d6000803e3d6000fd5b505050506040513d601f19601f82011682018060405250810190610e5391906122f1565b7f000000000000000000000000000000000000000000000000000000000000000073ffffffffffffffffffffffffffffffffffffffff166115d49092919063ffffffff16565b565b7f000000000000000000000000000000000000000000000000000000000000000081565b7f000000000000000000000000000000000000000000000000000000000000000081565b600080610eee610521565b905060007f000000000000000000000000000000000000000000000000000000000000000073ffffffffffffffffffffffffffffffffffffffff166370a08231306040518263ffffffff1660e01b8152600401610f4b9190612221565b602060405180830381865afa158015610f68573d6000803e3d6000fd5b505050506040513d601f19601f82011682018060405250810190610f8c91906122f1565b9050610fdb8530867f000000000000000000000000000000000000000000000000000000000000000073ffffffffffffffffffffffffffffffffffffffff16611a08909392919063ffffffff16565b6000817f000000000000000000000000000000000000000000000000000000000000000073ffffffffffffffffffffffffffffffffffffffff166370a08231306040518263ffffffff1660e01b81526004016110379190612221565b602060405180830381865afa158015611054573d6000803e3d6000fd5b505050506040513d601f19601f8201168201806040525081019061107891906122f1565b6110829190612430565b9050827f0000000000000000000000000000000000000000000000000000000000000000826110b1919061234d565b6110bb91906123d6565b93506110c78785611a91565b5050509392505050565b6000600160008473ffffffffffffffffffffffffffffffffffffffff1673ffffffffffffffffffffffffffffffffffffffff16815260200190815260200160002060008373ffffffffffffffffffffffffffffffffffffffff1673ffffffffffffffffffffffffffffffffffffffff16815260200190815260200160002054905092915050565b7f000000000000000000000000000000000000000000000000000000000000000073ffffffffffffffffffffffffffffffffffffffff163373ffffffffffffffffffffffffffffffffffffffff161461120a57337f00000000000000000000000000000000000000000000000000000000000000006040517fd214286f0000000000000000000000000000000000000000000000000000000081526004016112019291906124f1565b60405180910390fd5b60007f000000000000000000000000000000000000000000000000000000000000000090508073ffffffffffffffffffffffffffffffffffffffff1663a9059cbb838373ffffffffffffffffffffffffffffffffffffffff166370a08231306040518263ffffffff1660e01b81526004016112859190612221565b602060405180830381865afa1580156112a2573d6000803e3d6000fd5b505050506040513d601f19601f820116820180604052508101906112c691906122f1565b6040518363ffffffff1660e01b81526004016112e392919061251a565b6020604051808303816000875af1158015611302573d6000803e3d6000fd5b505050506040513d601f19601f82011682018060405250810190611326919061256f565b505050565b611398600560009054906101000a900473ffffffffffffffffffffffffffffffffffffffff167fffffffffffffffffffffffffffffffffffffffffffffffffffffffffffffffff3073ffffffffffffffffffffffffffffffffffffffff16611b699092919063ffffffff16565b565b600181565b80600160008573ffffffffffffffffffffffffffffffffffffffff1673ffffffffffffffffffffffffffffffffffffffff16815260200190815260200160002060008473ffffffffffffffffffffffffffffffffffffffff1673ffffffffffffffffffffffffffffffffffffffff168152602001908152602001600020819055508173ffffffffffffffffffffffffffffffffffffffff168373ffffffffffffffffffffffffffffffffffffffff167f8c5be1e5ebec7d5bd14f71427d1e84f3dd0314c0f7b2291e5b200ac8c7c3b9258360405161147d9190612113565b60405180910390a3505050565b60008060008473ffffffffffffffffffffffffffffffffffffffff1673ffffffffffffffffffffffffffffffffffffffff168152602001908152602001600020549050818110156115145780826040517f0a37dd4100000000000000000000000000000000000000000000000000000000815260040161150b929190612407565b60405180910390fd5b8181036000808573ffffffffffffffffffffffffffffffffffffffff1673ffffffffffffffffffffffffffffffffffffffff1681526020019081526020016000208190555081600260008282540392505081905550600073ffffffffffffffffffffffffffffffffffffffff168373ffffffffffffffffffffffffffffffffffffffff167fddf252ad1be2c89b69c2b068fc378daa952ba7f163c4a11628f55a4df523b3ef846040516115c79190612113565b60405180910390a3505050565b6116558363a9059cbb60e01b84846040516024016115f392919061251a565b604051602081830303815290604052907bffffffffffffffffffffffffffffffffffffffffffffffffffffffff19166020820180517bffffffffffffffffffffffffffffffffffffffffffffffffffffffff8381831617835250505050611cc0565b505050565b60008060008573ffffffffffffffffffffffffffffffffffffffff1673ffffffffffffffffffffffffffffffffffffffff168152602001908152602001600020549050818110156116e757806000836040517f57b9c4a40000000000000000000000000000000000000000000000000000000081526004016116de939291906125e1565b60405180910390fd5b8181036000808673ffffffffffffffffffffffffffffffffffffffff1673ffffffffffffffffffffffffffffffffffffffff16815260200190815260200160002081905550816000808573ffffffffffffffffffffffffffffffffffffffff1673ffffffffffffffffffffffffffffffffffffffff168152602001908152602001600020600082825401925050819055508273ffffffffffffffffffffffffffffffffffffffff168473ffffffffffffffffffffffffffffffffffffffff167fddf252ad1be2c89b69c2b068fc378daa952ba7f163c4a11628f55a4df523b3ef846040516117d59190612113565b60405180910390a350505050565b6000807f000000000000000000000000000000000000000000000000000000000000000086611810610521565b61181a919061234d565b61182491906123d6565b905060007f000000000000000000000000000000000000000000000000000000000000000073ffffffffffffffffffffffffffffffffffffffff166370a08231306040518263ffffffff1660e01b81526004016118819190612221565b602060405180830381865afa15801561189e573d6000803e3d6000fd5b505050506040513d601f19601f820116820180604052508101906118c291906122f1565b90506119118530867f000000000000000000000000000000000000000000000000000000000000000073ffffffffffffffffffffffffffffffffffffffff16611a08909392919063ffffffff16565b6000817f000000000000000000000000000000000000000000000000000000000000000073ffffffffffffffffffffffffffffffffffffffff166370a08231306040518263ffffffff1660e01b815260040161196d9190612221565b602060405180830381865afa15801561198a573d6000803e3d6000fd5b505050506040513d601f19601f820116820180604052508101906119ae91906122f1565b6119b89190612430565b9050827f0000000000000000000000000000000000000000000000000000000000000000826119e7919061234d565b6119f191906123d6565b93506119fd8785611a91565b505050949350505050565b611a8b846323b872dd60e01b858585604051602401611a2993929190612618565b604051602081830303815290604052907bffffffffffffffffffffffffffffffffffffffffffffffffffffffff19166020820180517bffffffffffffffffffffffffffffffffffffffffffffffffffffffff8381831617835250505050611cc0565b50505050565b8060026000828254611aa3919061249b565b92505081905550806000808473ffffffffffffffffffffffffffffffffffffffff1673ffffffffffffffffffffffffffffffffffffffff1681526020019081526020016000206000828254611af8919061249b565b925050819055508173ffffffffffffffffffffffffffffffffffffffff16600073ffffffffffffffffffffffffffffffffffffffff167fddf252ad1be2c89b69c2b068fc378daa952ba7f163c4a11628f55a4df523b3ef83604051611b5d9190612113565b60405180910390a35050565b600081118015611bf4575060008373ffffffffffffffffffffffffffffffffffffffff1663dd62ed3e30856040518363ffffffff1660e01b8152600401611bb19291906124f1565b602060405180830381865afa158015611bce573d6000803e3d6000fd5b505050506040513d601f19601f82011682018060405250810190611bf291906122f1565b115b15611c3a578282826040517fc1a76f6c000000000000000000000000000000000000000000000000000000008152600401611c3193929190612618565b60405180910390fd5b611cbb8363095ea7b360e01b8484604051602401611c5992919061251a565b604051602081830303815290604052907bffffffffffffffffffffffffffffffffffffffffffffffffffffffff19166020820180517bffffffffffffffffffffffffffffffffffffffffffffffffffffffff8381831617835250505050611cc0565b505050565b6000611d22826040518060400160405280602081526020017f5361666545524332303a206c6f772d6c6576656c2063616c6c206661696c65648152508573ffffffffffffffffffffffffffffffffffffffff16611d7e9092919063ffffffff16565b9050600081511115611d795780806020019051810190611d42919061256f565b611d78576040517fa479450200000000000000000000000000000000000000000000000000000000815260040160405180910390fd5b5b505050565b6060611d8d8484600085611d96565b90509392505050565b606082471015611ddf5747836040517f02de226f000000000000000000000000000000000000000000000000000000008152600401611dd6929190612407565b60405180910390fd5b611de885611eb0565b611e2957846040517f8a8b41ec000000000000000000000000000000000000000000000000000000008152600401611e209190612221565b60405180910390fd5b6000808673ffffffffffffffffffffffffffffffffffffffff168587604051611e529190612696565b60006040518083038185875af1925050503d8060008114611e8f576040519150601f19603f3d011682016040523d82523d6000602084013e611e94565b606091505b5091509150611ea4828286611ed3565b92505050949350505050565b6000808273ffffffffffffffffffffffffffffffffffffffff163b119050919050565b60608315611ee357829050611f33565b600083511115611ef65782518084602001fd5b816040517f08c379a0000000000000000000000000000000000000000000000000000000008152600401611f2a9190611fd3565b60405180910390fd5b9392505050565b600081519050919050565b600082825260208201905092915050565b60005b83811015611f74578082015181840152602081019050611f59565b83811115611f83576000848401525b50505050565b6000601f19601f8301169050919050565b6000611fa582611f3a565b611faf8185611f45565b9350611fbf818560208601611f56565b611fc881611f89565b840191505092915050565b60006020820190508181036000830152611fed8184611f9a565b905092915050565b600080fd5b600073ffffffffffffffffffffffffffffffffffffffff82169050919050565b600061202582611ffa565b9050919050565b6120358161201a565b811461204057600080fd5b50565b6000813590506120528161202c565b92915050565b6000819050919050565b61206b81612058565b811461207657600080fd5b50565b60008135905061208881612062565b92915050565b600080604083850312156120a5576120a4611ff5565b5b60006120b385828601612043565b92505060206120c485828601612079565b9150509250929050565b60008115159050919050565b6120e3816120ce565b82525050565b60006020820190506120fe60008301846120da565b92915050565b61210d81612058565b82525050565b60006020820190506121286000830184612104565b92915050565b60008060006060848603121561214757612146611ff5565b5b600061215586828701612043565b935050602061216686828701612043565b925050604061217786828701612079565b9150509250925092565b60006020828403121561219757612196611ff5565b5b60006121a584828501612079565b91505092915050565b600060ff82169050919050565b6121c4816121ae565b82525050565b60006020820190506121df60008301846121bb565b92915050565b6000602082840312156121fb576121fa611ff5565b5b600061220984828501612043565b91505092915050565b61221b8161201a565b82525050565b60006020820190506122366000830184612212565b92915050565b6000806040838503121561225357612252611ff5565b5b600061226185828601612043565b925050602061227285828601612043565b9150509250929050565b7f4e487b7100000000000000000000000000000000000000000000000000000000600052602260045260246000fd5b600060028204905060018216806122c357607f821691505b6020821081036122d6576122d561227c565b5b50919050565b6000815190506122eb81612062565b92915050565b60006020828403121561230757612306611ff5565b5b6000612315848285016122dc565b91505092915050565b7f4e487b7100000000000000000000000000000000000000000000000000000000600052601160045260246000fd5b600061235882612058565b915061236383612058565b9250817fffffffffffffffffffffffffffffffffffffffffffffffffffffffffffffffff048311821515161561239c5761239b61231e565b5b828202905092915050565b7f4e487b7100000000000000000000000000000000000000000000000000000000600052601260045260246000fd5b60006123e182612058565b91506123ec83612058565b9250826123fc576123fb6123a7565b5b828204905092915050565b600060408201905061241c6000830185612104565b6124296020830184612104565b9392505050565b600061243b82612058565b915061244683612058565b9250828210156124595761245861231e565b5b828203905092915050565b60006060820190506124796000830186612212565b6124866020830185612104565b6124936040830184612212565b949350505050565b60006124a682612058565b91506124b183612058565b9250827fffffffffffffffffffffffffffffffffffffffffffffffffffffffffffffffff038211156124e6576124e561231e565b5b828201905092915050565b60006040820190506125066000830185612212565b6125136020830184612212565b9392505050565b600060408201905061252f6000830185612212565b61253c6020830184612104565b9392505050565b61254c816120ce565b811461255757600080fd5b50565b60008151905061256981612543565b92915050565b60006020828403121561258557612584611ff5565b5b60006125938482850161255a565b91505092915050565b6000819050919050565b6000819050919050565b60006125cb6125c66125c18461259c565b6125a6565b612058565b9050919050565b6125db816125b0565b82525050565b60006060820190506125f66000830186612104565b61260360208301856125d2565b6126106040830184612104565b949350505050565b600060608201905061262d6000830186612212565b61263a6020830185612212565b6126476040830184612104565b949350505050565b600081519050919050565b600081905092915050565b60006126708261264f565b61267a818561265a565b935061268a818560208601611f56565b80840191505092915050565b60006126a28284612665565b91508190509291505056fea264697066735822122073bcf9b11da8b0b0e70afe9b89c9fd6b40a91181f40bfe9d577bc51cd090a76264736f6c634300080d0033",
  "linkReferences": {},
  "deployedLinkReferences": {}
}