{
  "_format": "hh-sol-artifact-1",
  "contractName": "AddressBalanceCheck",
  "sourceName": "contracts/periphery/BehodlerLite/BehodlerLite.sol",
  "abi": [
    {
      "inputs": [
        {
          "internalType": "address",
          "name": "token",
          "type": "address"
        },
        {
          "internalType": "uint256",
          "name": "factor",
          "type": "uint256"
        }
      ],
      "name": "shiftedBalance",
      "outputs": [
        {
          "internalType": "uint256",
          "name": "",
          "type": "uint256"
        }
      ],
      "stateMutability": "view",
      "type": "function"
    },
    {
      "inputs": [
        {
          "internalType": "address",
          "name": "token",
          "type": "address"
        }
      ],
      "name": "tokenBalance",
      "outputs": [
        {
          "internalType": "uint256",
          "name": "",
          "type": "uint256"
        }
      ],
      "stateMutability": "view",
      "type": "function"
    }
  ],
  "bytecode": "0x610682610053600b82828239805160001a607314610046577f4e487b7100000000000000000000000000000000000000000000000000000000600052600060045260246000fd5b30600052607381538281f3fe73000000000000000000000000000000000000000030146080604052600436106100565760003560e01c8063078d3b791461005b5780637fed018f14610084578063e4652f49146100b4578063eedc966a146100dd575b600080fd5b81801561006757600080fd5b50610082600480360381019061007d91906103c2565b61010d565b005b61009e60048036038101906100999190610415565b610191565b6040516100ab9190610464565b60405180910390f35b8180156100c057600080fd5b506100db60048036038101906100d691906103c2565b610220565b005b6100f760048036038101906100f2919061047f565b6102a6565b6040516101049190610464565b60405180910390f35b8273ffffffffffffffffffffffffffffffffffffffff1663a9059cbb83836040518363ffffffff1660e01b81526004016101489291906104ca565b6020604051808303816000875af1158015610167573d6000803e3d6000fd5b505050506040513d601f19601f8201168201806040525081019061018b919061052b565b50505050565b6000818373ffffffffffffffffffffffffffffffffffffffff166370a08231306040518263ffffffff1660e01b81526004016101cd9190610558565b602060405180830381865afa1580156101ea573d6000803e3d6000fd5b505050506040513d601f19601f8201168201806040525081019061020e9190610588565b61021891906105e4565b905092915050565b8273ffffffffffffffffffffffffffffffffffffffff166323b872dd8330846040518463ffffffff1660e01b815260040161025d93929190610615565b6020604051808303816000875af115801561027c573d6000803e3d6000fd5b505050506040513d601f19601f820116820180604052508101906102a0919061052b565b50505050565b60008173ffffffffffffffffffffffffffffffffffffffff166370a08231306040518263ffffffff1660e01b81526004016102e19190610558565b602060405180830381865afa1580156102fe573d6000803e3d6000fd5b505050506040513d601f19601f820116820180604052508101906103229190610588565b9050919050565b600080fd5b600073ffffffffffffffffffffffffffffffffffffffff82169050919050565b60006103598261032e565b9050919050565b6103698161034e565b811461037457600080fd5b50565b60008135905061038681610360565b92915050565b6000819050919050565b61039f8161038c565b81146103aa57600080fd5b50565b6000813590506103bc81610396565b92915050565b6000806000606084860312156103db576103da610329565b5b60006103e986828701610377565b93505060206103fa86828701610377565b925050604061040b868287016103ad565b9150509250925092565b6000806040838503121561042c5761042b610329565b5b600061043a85828601610377565b925050602061044b858286016103ad565b9150509250929050565b61045e8161038c565b82525050565b60006020820190506104796000830184610455565b92915050565b60006020828403121561049557610494610329565b5b60006104a384828501610377565b91505092915050565b6104b58161034e565b82525050565b6104c48161038c565b82525050565b60006040820190506104df60008301856104ac565b6104ec60208301846104bb565b9392505050565b60008115159050919050565b610508816104f3565b811461051357600080fd5b50565b600081519050610525816104ff565b92915050565b60006020828403121561054157610540610329565b5b600061054f84828501610516565b91505092915050565b600060208201905061056d60008301846104ac565b92915050565b60008151905061058281610396565b92915050565b60006020828403121561059e5761059d610329565b5b60006105ac84828501610573565b91505092915050565b7f4e487b7100000000000000000000000000000000000000000000000000000000600052601260045260246000fd5b60006105ef8261038c565b91506105fa8361038c565b92508261060a576106096105b5565b5b828204905092915050565b600060608201905061062a60008301866104ac565b61063760208301856104ac565b61064460408301846104bb565b94935050505056fea264697066735822122038e0ad9d99ef3639758dbd30ea6674d507180253c928efacb4bc28a9246b918664736f6c634300080d0033",
  "linkReferences": {},
  "deployedLinkReferences": {}
}