{
  "_format": "hh-sol-artifact-1",
  "contractName": "BehodlerLite",
  "sourceName": "contracts/periphery/BehodlerLite/BehodlerLite.sol",
  "abi": [
    {
      "inputs": [],
      "stateMutability": "nonpayable",
      "type": "constructor"
    },
    {
      "anonymous": false,
      "inputs": [
        {
          "indexed": true,
          "internalType": "address",
          "name": "owner",
          "type": "address"
        },
        {
          "indexed": true,
          "internalType": "address",
          "name": "spender",
          "type": "address"
        },
        {
          "indexed": false,
          "internalType": "uint256",
          "name": "value",
          "type": "uint256"
        }
      ],
      "name": "Approval",
      "type": "event"
    },
    {
      "anonymous": false,
      "inputs": [
        {
          "indexed": false,
          "internalType": "uint256",
          "name": "value",
          "type": "uint256"
        }
      ],
      "name": "Burn",
      "type": "event"
    },
    {
      "anonymous": false,
      "inputs": [
        {
          "indexed": false,
          "internalType": "address",
          "name": "sender",
          "type": "address"
        },
        {
          "indexed": false,
          "internalType": "address",
          "name": "recipient",
          "type": "address"
        },
        {
          "indexed": false,
          "internalType": "uint256",
          "name": "value",
          "type": "uint256"
        }
      ],
      "name": "Mint",
      "type": "event"
    },
    {
      "anonymous": false,
      "inputs": [
        {
          "indexed": true,
          "internalType": "address",
          "name": "from",
          "type": "address"
        },
        {
          "indexed": true,
          "internalType": "address",
          "name": "to",
          "type": "address"
        },
        {
          "indexed": false,
          "internalType": "uint256",
          "name": "value",
          "type": "uint256"
        }
      ],
      "name": "Transfer",
      "type": "event"
    },
    {
      "inputs": [],
      "name": "MIN_LIQUIDITY",
      "outputs": [
        {
          "internalType": "uint256",
          "name": "",
          "type": "uint256"
        }
      ],
      "stateMutability": "view",
      "type": "function"
    },
    {
      "inputs": [
        {
          "internalType": "address",
          "name": "inputToken",
          "type": "address"
        },
        {
          "internalType": "uint256",
          "name": "amount",
          "type": "uint256"
        }
      ],
      "name": "addLiquidity",
      "outputs": [
        {
          "internalType": "uint256",
          "name": "deltaSCX",
          "type": "uint256"
        }
      ],
      "stateMutability": "payable",
      "type": "function"
    },
    {
      "inputs": [
        {
          "internalType": "address",
          "name": "owner",
          "type": "address"
        },
        {
          "internalType": "address",
          "name": "spender",
          "type": "address"
        }
      ],
      "name": "allowance",
      "outputs": [
        {
          "internalType": "uint256",
          "name": "",
          "type": "uint256"
        }
      ],
      "stateMutability": "view",
      "type": "function"
    },
    {
      "inputs": [
        {
          "internalType": "address",
          "name": "spender",
          "type": "address"
        },
        {
          "internalType": "uint256",
          "name": "amount",
          "type": "uint256"
        }
      ],
      "name": "approve",
      "outputs": [
        {
          "internalType": "bool",
          "name": "",
          "type": "bool"
        }
      ],
      "stateMutability": "nonpayable",
      "type": "function"
    },
    {
      "inputs": [
        {
          "internalType": "address",
          "name": "account",
          "type": "address"
        }
      ],
      "name": "balanceOf",
      "outputs": [
        {
          "internalType": "uint256",
          "name": "",
          "type": "uint256"
        }
      ],
      "stateMutability": "view",
      "type": "function"
    },
    {
      "inputs": [
        {
          "internalType": "uint256",
          "name": "value",
          "type": "uint256"
        }
      ],
      "name": "burn",
      "outputs": [
        {
          "internalType": "bool",
          "name": "",
          "type": "bool"
        }
      ],
      "stateMutability": "nonpayable",
      "type": "function"
    },
    {
      "inputs": [],
      "name": "config",
      "outputs": [
        {
          "internalType": "uint256",
          "name": "transferFee",
          "type": "uint256"
        },
        {
          "internalType": "uint256",
          "name": "burnFee",
          "type": "uint256"
        },
        {
          "internalType": "address",
          "name": "feeDestination",
          "type": "address"
        }
      ],
      "stateMutability": "view",
      "type": "function"
    },
    {
      "inputs": [
        {
          "internalType": "uint256",
          "name": "transferFee",
          "type": "uint256"
        },
        {
          "internalType": "uint256",
          "name": "burnFee",
          "type": "uint256"
        },
        {
          "internalType": "address",
          "name": "feeDestination",
          "type": "address"
        }
      ],
      "name": "configureScarcity",
      "outputs": [],
      "stateMutability": "nonpayable",
      "type": "function"
    },
    {
      "inputs": [],
      "name": "decimals",
      "outputs": [
        {
          "internalType": "uint8",
          "name": "",
          "type": "uint8"
        }
      ],
      "stateMutability": "pure",
      "type": "function"
    },
    {
      "inputs": [
        {
          "internalType": "address",
          "name": "token",
          "type": "address"
        }
      ],
      "name": "dumpTokens",
      "outputs": [],
      "stateMutability": "nonpayable",
      "type": "function"
    },
    {
      "inputs": [],
      "name": "getConfiguration",
      "outputs": [
        {
          "internalType": "uint256",
          "name": "",
          "type": "uint256"
        },
        {
          "internalType": "uint256",
          "name": "",
          "type": "uint256"
        },
        {
          "internalType": "address",
          "name": "",
          "type": "address"
        }
      ],
      "stateMutability": "view",
      "type": "function"
    },
    {
      "inputs": [
        {
          "internalType": "address",
          "name": "recipient",
          "type": "address"
        },
        {
          "internalType": "uint256",
          "name": "value",
          "type": "uint256"
        }
      ],
      "name": "mint",
      "outputs": [],
      "stateMutability": "nonpayable",
      "type": "function"
    },
    {
      "inputs": [],
      "name": "name",
      "outputs": [
        {
          "internalType": "string",
          "name": "",
          "type": "string"
        }
      ],
      "stateMutability": "pure",
      "type": "function"
    },
    {
      "inputs": [
        {
          "internalType": "address",
          "name": "l",
          "type": "address"
        }
      ],
      "name": "setLachesis",
      "outputs": [],
      "stateMutability": "nonpayable",
      "type": "function"
    },
    {
      "inputs": [
        {
          "internalType": "address",
          "name": "newReceiver",
          "type": "address"
        }
      ],
      "name": "setReceiver",
      "outputs": [],
      "stateMutability": "nonpayable",
      "type": "function"
    },
    {
      "inputs": [
        {
          "internalType": "uint8",
          "name": "swapPrecisionFactor",
          "type": "uint8"
        },
        {
          "internalType": "uint8",
          "name": "maxLiquidityExit",
          "type": "uint8"
        }
      ],
      "name": "setSafetParameters",
      "outputs": [],
      "stateMutability": "nonpayable",
      "type": "function"
    },
    {
      "inputs": [
        {
          "internalType": "address",
          "name": "token",
          "type": "address"
        },
        {
          "internalType": "bool",
          "name": "burnable",
          "type": "bool"
        }
      ],
      "name": "setTokenBurnable",
      "outputs": [],
      "stateMutability": "nonpayable",
      "type": "function"
    },
    {
      "inputs": [
        {
          "internalType": "address",
          "name": "token",
          "type": "address"
        },
        {
          "internalType": "bool",
          "name": "valid",
          "type": "bool"
        },
        {
          "internalType": "bool",
          "name": "burnable",
          "type": "bool"
        }
      ],
      "name": "setValidToken",
      "outputs": [],
      "stateMutability": "nonpayable",
      "type": "function"
    },
    {
      "inputs": [
        {
          "internalType": "address",
          "name": "inputToken",
          "type": "address"
        },
        {
          "internalType": "address",
          "name": "outputToken",
          "type": "address"
        },
        {
          "internalType": "uint256",
          "name": "inputAmount",
          "type": "uint256"
        },
        {
          "internalType": "uint256",
          "name": "outputAmount",
          "type": "uint256"
        }
      ],
      "name": "swap",
      "outputs": [
        {
          "internalType": "bool",
          "name": "success",
          "type": "bool"
        }
      ],
      "stateMutability": "payable",
      "type": "function"
    },
    {
      "inputs": [],
      "name": "symbol",
      "outputs": [
        {
          "internalType": "string",
          "name": "",
          "type": "string"
        }
      ],
      "stateMutability": "pure",
      "type": "function"
    },
    {
      "inputs": [
        {
          "internalType": "address",
          "name": "",
          "type": "address"
        }
      ],
      "name": "tokenBurnable",
      "outputs": [
        {
          "internalType": "bool",
          "name": "",
          "type": "bool"
        }
      ],
      "stateMutability": "view",
      "type": "function"
    },
    {
      "inputs": [],
      "name": "totalSupply",
      "outputs": [
        {
          "internalType": "uint256",
          "name": "",
          "type": "uint256"
        }
      ],
      "stateMutability": "view",
      "type": "function"
    },
    {
      "inputs": [
        {
          "internalType": "address",
          "name": "recipient",
          "type": "address"
        },
        {
          "internalType": "uint256",
          "name": "amount",
          "type": "uint256"
        }
      ],
      "name": "transfer",
      "outputs": [
        {
          "internalType": "bool",
          "name": "",
          "type": "bool"
        }
      ],
      "stateMutability": "nonpayable",
      "type": "function"
    },
    {
      "inputs": [
        {
          "internalType": "address",
          "name": "sender",
          "type": "address"
        },
        {
          "internalType": "address",
          "name": "recipient",
          "type": "address"
        },
        {
          "internalType": "uint256",
          "name": "amount",
          "type": "uint256"
        }
      ],
      "name": "transferFrom",
      "outputs": [
        {
          "internalType": "bool",
          "name": "",
          "type": "bool"
        }
      ],
      "stateMutability": "nonpayable",
      "type": "function"
    },
    {
      "inputs": [
        {
          "internalType": "address",
          "name": "",
          "type": "address"
        }
      ],
      "name": "whiteListUsers",
      "outputs": [
        {
          "internalType": "bool",
          "name": "",
          "type": "bool"
        }
      ],
      "stateMutability": "view",
      "type": "function"
    },
    {
      "inputs": [
        {
          "internalType": "address",
          "name": "outputToken",
          "type": "address"
        },
        {
          "internalType": "uint256",
          "name": "tokensToRelease",
          "type": "uint256"
        }
      ],
      "name": "withdrawLiquidity",
      "outputs": [
        {
          "internalType": "uint256",
          "name": "deltaSCX",
          "type": "uint256"
        }
      ],
      "stateMutability": "payable",
      "type": "function"
    },
    {
      "inputs": [
        {
          "internalType": "address",
          "name": "outputToken",
          "type": "address"
        },
        {
          "internalType": "uint256",
          "name": "tokensToRelease",
          "type": "uint256"
        },
        {
          "internalType": "uint256",
          "name": "scx",
          "type": "uint256"
        },
        {
          "internalType": "uint256",
          "name": "passes",
          "type": "uint256"
        }
      ],
      "name": "withdrawLiquidityFindSCX",
      "outputs": [
        {
          "internalType": "uint256",
          "name": "",
          "type": "uint256"
        }
      ],
      "stateMutability": "view",
      "type": "function"
    }
  ],
  "bytecode": "0x60806040523480156200001157600080fd5b50604051620000209062000103565b604051809103906000f0801580156200003d573d6000803e3d6000fd5b50600760006101000a81548173ffffffffffffffffffffffffffffffffffffffff021916908373ffffffffffffffffffffffffffffffffffffffff160217905550601e600960000160006101000a81548160ff021916908360ff160217905550605a600960000160016101000a81548160ff021916908360ff16021790555033600a60006101000a81548173ffffffffffffffffffffffffffffffffffffffff021916908373ffffffffffffffffffffffffffffffffffffffff16021790555062000110565b605c80620036e583390190565b6135c580620001206000396000f3fe60806040526004361061019b5760003560e01c80636bd50cef116100ec578063a9059cbb1161008a578063e22bcf8411610064578063e22bcf841461060f578063e2fc9d001461064c578063ee148e0914610675578063fe0291561461069e5761019b565b8063a9059cbb1461056c578063aa5caa50146105a9578063dd62ed3e146105d25761019b565b806372c3fdd9116100c657806372c3fdd91461049a57806379502c55146104d757806395d89b4114610504578063a451a2c11461052f5761019b565b80636bd50cef1461040757806370a0823114610434578063718da7ee146104715761019b565b806323b872dd1161015957806340c10f191161013357806340c10f191461034857806342966c681461037157806356688700146103ae578063572861bc146103de5761019b565b806323b872dd146102b757806331369b69146102f4578063313ce5671461031d5761019b565b80627ed4fe146101a057806306d47de9146101c957806306fdde03146101f9578063095ea7b31461022457806318160ddd1461026157806321b77d631461028c575b600080fd5b3480156101ac57600080fd5b506101c760048036038101906101c29190612771565b6106ce565b005b6101e360048036038101906101de91906127c4565b61074e565b6040516101f09190612813565b60405180910390f35b34801561020557600080fd5b5061020e610ae2565b60405161021b91906128c7565b60405180910390f35b34801561023057600080fd5b5061024b600480360381019061024691906127c4565b610b1f565b6040516102589190612904565b60405180910390f35b34801561026d57600080fd5b50610276610b36565b6040516102839190612813565b60405180910390f35b34801561029857600080fd5b506102a1610b40565b6040516102ae9190612813565b60405180910390f35b3480156102c357600080fd5b506102de60048036038101906102d9919061291f565b610b49565b6040516102eb9190612904565b60405180910390f35b34801561030057600080fd5b5061031b60048036038101906103169190612972565b610bf3565b005b34801561032957600080fd5b50610332610d84565b60405161033f91906129bb565b60405180910390f35b34801561035457600080fd5b5061036f600480360381019061036a91906127c4565b610d8d565b005b34801561037d57600080fd5b50610398600480360381019061039391906129d6565b610e6c565b6040516103a59190612904565b60405180910390f35b6103c860048036038101906103c391906127c4565b610e81565b6040516103d59190612813565b60405180910390f35b3480156103ea57600080fd5b5061040560048036038101906104009190612a2f565b611160565b005b34801561041357600080fd5b5061041c6111a0565b60405161042b93929190612a7e565b60405180910390f35b34801561044057600080fd5b5061045b60048036038101906104569190612972565b6111e2565b6040516104689190612813565b60405180910390f35b34801561047d57600080fd5b5061049860048036038101906104939190612972565b61122a565b005b3480156104a657600080fd5b506104c160048036038101906104bc9190612ab5565b61126e565b6040516104ce9190612813565b60405180910390f35b3480156104e357600080fd5b506104ec6114a1565b6040516104fb93929190612a7e565b60405180910390f35b34801561051057600080fd5b506105196114d9565b60405161052691906128c7565b60405180910390f35b34801561053b57600080fd5b5061055660048036038101906105519190612972565b611516565b6040516105639190612904565b60405180910390f35b34801561057857600080fd5b50610593600480360381019061058e91906127c4565b611536565b6040516105a09190612904565b60405180910390f35b3480156105b557600080fd5b506105d060048036038101906105cb9190612b48565b61154d565b005b3480156105de57600080fd5b506105f960048036038101906105f49190612b88565b6115a8565b6040516106069190612813565b60405180910390f35b34801561061b57600080fd5b5061063660048036038101906106319190612972565b61162f565b6040516106439190612904565b60405180910390f35b34801561065857600080fd5b50610673600480360381019061066e9190612bc8565b61164f565b005b34801561068157600080fd5b5061069c60048036038101906106979190612972565b61175c565b005b6106b860048036038101906106b39190612c1b565b6117a0565b6040516106c59190612904565b60405180910390f35b6103e86003600101546003600001546106e79190612cb1565b106106f157600080fd5b826003600001819055508160036001018190555080600360020160006101000a81548173ffffffffffffffffffffffffffffffffffffffff021916908373ffffffffffffffffffffffffffffffffffffffff160217905550505050565b600082600073ffffffffffffffffffffffffffffffffffffffff16600860009054906101000a900473ffffffffffffffffffffffffffffffffffffffff1673ffffffffffffffffffffffffffffffffffffffff1614806107f75750600660008273ffffffffffffffffffffffffffffffffffffffff1673ffffffffffffffffffffffffffffffffffffffff16815260200190815260200160002060009054906101000a900460ff165b610836576040517f08c379a000000000000000000000000000000000000000000000000000000000815260040161082d90612d53565b60405180910390fd5b60008473ffffffffffffffffffffffffffffffffffffffff1673__$8c764ab166030f1e61c63187ebc02e3162$__63eedc966a90916040518263ffffffff1660e01b81526004016108879190612d82565b602060405180830381865af41580156108a4573d6000803e3d6000fd5b505050506040513d601f19601f820116820180604052508101906108c89190612db2565b9050600084826108d89190612ddf565b905064e8d4a510008111610921576040517f08c379a000000000000000000000000000000000000000000000000000000000815260040161091890612e5f565b60405180910390fd5b600960000160019054906101000a900460ff1660ff16826064876109459190612e7f565b61094f9190612f08565b1115610990576040517f08c379a000000000000000000000000000000000000000000000000000000000815260040161098790612fab565b60405180910390fd5b600061099b83611c59565b905060006109a883611c59565b9050600183116109b95760006109bb565b805b826109c69190612ddf565b955060008060003373ffffffffffffffffffffffffffffffffffffffff1673ffffffffffffffffffffffffffffffffffffffff16815260200190815260200160002054905080871115610a495760008188610a219190612ddf565b905060008861271083610a349190612e7f565b610a3e9190612f08565b03610a47578197505b505b610a533388611de9565b8873ffffffffffffffffffffffffffffffffffffffff1673__$8c764ab166030f1e61c63187ebc02e3162$__63078d3b799091338b6040518463ffffffff1660e01b8152600401610aa693929190612fda565b60006040518083038186803b158015610abe57600080fd5b505af4158015610ad2573d6000803e3d6000fd5b5050505050505050505092915050565b60606040518060400160405280600881526020017f5363617263697479000000000000000000000000000000000000000000000000815250905090565b6000610b2c338484611ec4565b6001905092915050565b6000600254905090565b64e8d4a5100081565b6000610b5684848461208d565b610be8843384600160008973ffffffffffffffffffffffffffffffffffffffff1673ffffffffffffffffffffffffffffffffffffffff16815260200190815260200160002060003373ffffffffffffffffffffffffffffffffffffffff1673ffffffffffffffffffffffffffffffffffffffff16815260200190815260200160002054610be39190612ddf565b611ec4565b600190509392505050565b600a60009054906101000a900473ffffffffffffffffffffffffffffffffffffffff1673ffffffffffffffffffffffffffffffffffffffff163373ffffffffffffffffffffffffffffffffffffffff1614610c83576040517f08c379a0000000000000000000000000000000000000000000000000000000008152600401610c7a90613083565b60405180910390fd5b60008173ffffffffffffffffffffffffffffffffffffffff166370a08231306040518263ffffffff1660e01b8152600401610cbe91906130a3565b602060405180830381865afa158015610cdb573d6000803e3d6000fd5b505050506040513d601f19601f82011682018060405250810190610cff9190612db2565b90508173ffffffffffffffffffffffffffffffffffffffff1663a9059cbb33836040518363ffffffff1660e01b8152600401610d3c9291906130be565b6020604051808303816000875af1158015610d5b573d6000803e3d6000fd5b505050506040513d601f19601f82011682018060405250810190610d7f91906130fc565b505050565b60006012905090565b806000808473ffffffffffffffffffffffffffffffffffffffff1673ffffffffffffffffffffffffffffffffffffffff16815260200190815260200160002054610dd79190612cb1565b6000808473ffffffffffffffffffffffffffffffffffffffff1673ffffffffffffffffffffffffffffffffffffffff1681526020019081526020016000208190555080600254610e279190612cb1565b6002819055507fab8530f87dc9b59234c4623bf917212bb2536d647574c8e7e5da92c2ede0c9f8338383604051610e6093929190613129565b60405180910390a15050565b6000610e783383611de9565b60019050919050565b600082600073ffffffffffffffffffffffffffffffffffffffff16600860009054906101000a900473ffffffffffffffffffffffffffffffffffffffff1673ffffffffffffffffffffffffffffffffffffffff161480610f2a5750600660008273ffffffffffffffffffffffffffffffffffffffff1673ffffffffffffffffffffffffffffffffffffffff16815260200190815260200160002060009054906101000a900460ff165b610f69576040517f08c379a0000000000000000000000000000000000000000000000000000000008152600401610f6090612d53565b60405180910390fd5b600061100a8573ffffffffffffffffffffffffffffffffffffffff1673__$8c764ab166030f1e61c63187ebc02e3162$__637fed018f909164e8d4a510006040518363ffffffff1660e01b8152600401610fc4929190613160565b602060405180830381865af4158015610fe1573d6000803e3d6000fd5b505050506040513d601f19601f820116820180604052508101906110059190612db2565b61246a565b600f0b90508473ffffffffffffffffffffffffffffffffffffffff1673__$8c764ab166030f1e61c63187ebc02e3162$__63e4652f49909133876040518463ffffffff1660e01b815260040161106293929190612fda565b60006040518083038186803b15801561107a57600080fd5b505af415801561108e573d6000803e3d6000fd5b5050505060006110c164e8d4a510006110a7888861248d565b876110b29190612ddf565b6110bc9190612f08565b61246a565b600f0b9050600081836110d49190612cb1565b905064e8d4a5100081101561111e576040517f08c379a0000000000000000000000000000000000000000000000000000000008152600401611115906131d5565b60405180910390fd5b6001831161112d576000611137565b61113683611c59565b5b61114082611c59565b61114a9190612ddf565b94506111563386610d8d565b5050505092915050565b81600960000160006101000a81548160ff021916908360ff16021790555080600960000160016101000a81548160ff021916908360ff1602179055505050565b6000806000600360000154600360010154600360020160009054906101000a900473ffffffffffffffffffffffffffffffffffffffff16925092509250909192565b60008060008373ffffffffffffffffffffffffffffffffffffffff1673ffffffffffffffffffffffffffffffffffffffff168152602001908152602001600020549050919050565b80600760006101000a81548173ffffffffffffffffffffffffffffffffffffffff021916908373ffffffffffffffffffffffffffffffffffffffff16021790555050565b6000808573ffffffffffffffffffffffffffffffffffffffff1673__$8c764ab166030f1e61c63187ebc02e3162$__63eedc966a90916040518263ffffffff1660e01b81526004016112c09190612d82565b602060405180830381865af41580156112dd573d6000803e3d6000fd5b505050506040513d601f19601f820116820180604052508101906113019190612db2565b90506000805b848110156114925760008873ffffffffffffffffffffffffffffffffffffffff1673__$8c764ab166030f1e61c63187ebc02e3162$__63eedc966a90916040518263ffffffff1660e01b81526004016113609190612d82565b602060405180830381865af415801561137d573d6000803e3d6000fd5b505050506040513d601f19601f820116820180604052508101906113a19190612db2565b9050600088826113b19190612ddf565b905060006113be83611c59565b905060006113cb83611c59565b90506000600184116113de5760006113e0565b815b836113eb9190612ddf565b90506000818c6113fb91906131ff565b905060008103611416578c9950505050505050505050611499565b60008112156114335760018d61142c9190612ddf565b9850611443565b60018d6114409190612cb1565b97505b876002898b6114529190612ddf565b61145c9190612f08565b6114669190612cb1565b9c50858d11611475578c611477565b855b9c50505050505050808061148a90613293565b915050611307565b5085925050505b949350505050565b60038060000154908060010154908060020160009054906101000a900473ffffffffffffffffffffffffffffffffffffffff16905083565b60606040518060400160405280600381526020017f5343580000000000000000000000000000000000000000000000000000000000815250905090565b600b6020528060005260406000206000915054906101000a900460ff1681565b600061154333848461208d565b6001905092915050565b80600b60008473ffffffffffffffffffffffffffffffffffffffff1673ffffffffffffffffffffffffffffffffffffffff16815260200190815260200160002060006101000a81548160ff0219169083151502179055505050565b6000600160008473ffffffffffffffffffffffffffffffffffffffff1673ffffffffffffffffffffffffffffffffffffffff16815260200190815260200160002060008373ffffffffffffffffffffffffffffffffffffffff1673ffffffffffffffffffffffffffffffffffffffff16815260200190815260200160002054905092915050565b600c6020528060005260406000206000915054906101000a900460ff1681565b600860009054906101000a900473ffffffffffffffffffffffffffffffffffffffff1673ffffffffffffffffffffffffffffffffffffffff163373ffffffffffffffffffffffffffffffffffffffff16146116a957600080fd5b81600660008573ffffffffffffffffffffffffffffffffffffffff1673ffffffffffffffffffffffffffffffffffffffff16815260200190815260200160002060006101000a81548160ff02191690831515021790555080600b60008573ffffffffffffffffffffffffffffffffffffffff1673ffffffffffffffffffffffffffffffffffffffff16815260200190815260200160002060006101000a81548160ff021916908315150217905550505050565b80600860006101000a81548173ffffffffffffffffffffffffffffffffffffffff021916908373ffffffffffffffffffffffffffffffffffffffff16021790555050565b600084600073ffffffffffffffffffffffffffffffffffffffff16600860009054906101000a900473ffffffffffffffffffffffffffffffffffffffff1673ffffffffffffffffffffffffffffffffffffffff1614806118495750600660008273ffffffffffffffffffffffffffffffffffffffff1673ffffffffffffffffffffffffffffffffffffffff16815260200190815260200160002060009054906101000a900460ff165b611888576040517f08c379a000000000000000000000000000000000000000000000000000000000815260040161187f90612d53565b60405180910390fd5b60008673ffffffffffffffffffffffffffffffffffffffff1673__$8c764ab166030f1e61c63187ebc02e3162$__63eedc966a90916040518263ffffffff1660e01b81526004016118d99190612d82565b602060405180830381865af41580156118f6573d6000803e3d6000fd5b505050506040513d601f19601f8201168201806040525081019061191a9190612db2565b90508673ffffffffffffffffffffffffffffffffffffffff1673__$8c764ab166030f1e61c63187ebc02e3162$__63e4652f49909133886040518463ffffffff1660e01b815260040161196f93929190612fda565b60006040518083038186803b15801561198757600080fd5b505af415801561199b573d6000803e3d6000fd5b5050505060006119ab888761248d565b866119b69190612ddf565b905060008773ffffffffffffffffffffffffffffffffffffffff1673__$8c764ab166030f1e61c63187ebc02e3162$__63eedc966a90916040518263ffffffff1660e01b8152600401611a099190612d82565b602060405180830381865af4158015611a26573d6000803e3d6000fd5b505050506040513d601f19601f82011682018060405250810190611a4a9190612db2565b9050600960000160019054906101000a900460ff1660ff1681606488611a709190612e7f565b611a7a9190612f08565b1115611abb576040517f08c379a0000000000000000000000000000000000000000000000000000000008152600401611ab290612fab565b60405180910390fd5b60008284611ac99190612cb1565b905060008783611ad99190612ddf565b9050600082600960000160009054906101000a900460ff1660ff1687901b611b019190612f08565b9050600084600960000160009054906101000a900460ff1660ff1684901b611b299190612f08565b905060008214158015611b3b57508082145b611b7a576040517f08c379a0000000000000000000000000000000000000000000000000000000008152600401611b7190613327565b60405180910390fd5b505064e8d4a51000811015611bc4576040517f08c379a0000000000000000000000000000000000000000000000000000000008152600401611bbb906131d5565b60405180910390fd5b8973ffffffffffffffffffffffffffffffffffffffff1673__$8c764ab166030f1e61c63187ebc02e3162$__63078d3b799091338b6040518463ffffffff1660e01b8152600401611c1793929190612fda565b60006040518083038186803b158015611c2f57600080fd5b505af4158015611c43573d6000803e3d6000fd5b5050505060019650505050505050949350505050565b6000808211611c6757600080fd5b600080839050680100000000000000008110611c9457604081901c9050604082611c919190612cb1565b91505b6401000000008110611cb757602081901c9050602082611cb49190612cb1565b91505b620100008110611cd857601081901c9050601082611cd59190612cb1565b91505b6101008110611cf857600881901c9050600882611cf59190612cb1565b91505b60108110611d1757600481901c9050600482611d149190612cb1565b91505b60048110611d3657600281901c9050600282611d339190612cb1565b91505b60028110611d4e57600182611d4b9190612cb1565b91505b600060408084611d5e9190612ddf565b901b9050600083607f611d719190612ddf565b86901b9050600067800000000000000090505b6000811115611ddc578182611d999190612e7f565b9150600060ff83901c905080607f611db19190612cb1565b83901c92508082611dc29190612e7f565b84611dcd9190612cb1565b935050600181901c9050611d84565b5081945050505050919050565b806000808473ffffffffffffffffffffffffffffffffffffffff1673ffffffffffffffffffffffffffffffffffffffff16815260200190815260200160002054611e339190612ddf565b6000808473ffffffffffffffffffffffffffffffffffffffff1673ffffffffffffffffffffffffffffffffffffffff1681526020019081526020016000208190555080600254611e839190612ddf565b6002819055507fb90306ad06b2a6ff86ddc9327db583062895ef6540e62dc50add009db5b356eb81604051611eb89190612813565b60405180910390a15050565b600073ffffffffffffffffffffffffffffffffffffffff168373ffffffffffffffffffffffffffffffffffffffff1603611f33576040517f08c379a0000000000000000000000000000000000000000000000000000000008152600401611f2a906133b9565b60405180910390fd5b600073ffffffffffffffffffffffffffffffffffffffff168273ffffffffffffffffffffffffffffffffffffffff1603611fa2576040517f08c379a0000000000000000000000000000000000000000000000000000000008152600401611f999061344b565b60405180910390fd5b80600160008573ffffffffffffffffffffffffffffffffffffffff1673ffffffffffffffffffffffffffffffffffffffff16815260200190815260200160002060008473ffffffffffffffffffffffffffffffffffffffff1673ffffffffffffffffffffffffffffffffffffffff168152602001908152602001600020819055508173ffffffffffffffffffffffffffffffffffffffff168373ffffffffffffffffffffffffffffffffffffffff167f8c5be1e5ebec7d5bd14f71427d1e84f3dd0314c0f7b2291e5b200ac8c7c3b925836040516120809190612813565b60405180910390a3505050565b600073ffffffffffffffffffffffffffffffffffffffff168373ffffffffffffffffffffffffffffffffffffffff16036120fc576040517f08c379a00000000000000000000000000000000000000000000000000000000081526004016120f3906134dd565b60405180910390fd5b600073ffffffffffffffffffffffffffffffffffffffff168273ffffffffffffffffffffffffffffffffffffffff160361216b576040517f08c379a00000000000000000000000000000000000000000000000000000000081526004016121629061356f565b60405180910390fd5b60006103e8826003600001546121819190612e7f565b61218b9190612f08565b905060006103e8836003600101546121a39190612e7f565b6121ad9190612f08565b9050806002546121bd9190612ddf565b6002819055507fb90306ad06b2a6ff86ddc9327db583062895ef6540e62dc50add009db5b356eb816040516121f29190612813565b60405180910390a181600080600360020160009054906101000a900473ffffffffffffffffffffffffffffffffffffffff1673ffffffffffffffffffffffffffffffffffffffff1673ffffffffffffffffffffffffffffffffffffffff168152602001908152602001600020546122699190612cb1565b600080600360020160009054906101000a900473ffffffffffffffffffffffffffffffffffffffff1673ffffffffffffffffffffffffffffffffffffffff1673ffffffffffffffffffffffffffffffffffffffff16815260200190815260200160002081905550826000808773ffffffffffffffffffffffffffffffffffffffff1673ffffffffffffffffffffffffffffffffffffffff1681526020019081526020016000205461231a9190612ddf565b6000808773ffffffffffffffffffffffffffffffffffffffff1673ffffffffffffffffffffffffffffffffffffffff1681526020019081526020016000208190555080826123689190612cb1565b836123739190612ddf565b6000808673ffffffffffffffffffffffffffffffffffffffff1673ffffffffffffffffffffffffffffffffffffffff168152602001908152602001600020546123bc9190612cb1565b6000808673ffffffffffffffffffffffffffffffffffffffff1673ffffffffffffffffffffffffffffffffffffffff168152602001908152602001600020819055508373ffffffffffffffffffffffffffffffffffffffff168573ffffffffffffffffffffffffffffffffffffffff167fddf252ad1be2c89b69c2b068fc378daa952ba7f163c4a11628f55a4df523b3ef8560405161245b9190612813565b60405180910390a35050505050565b6000677fffffffffffffff82111561248157600080fd5b604082901b9050919050565b6000600b60008473ffffffffffffffffffffffffffffffffffffffff1673ffffffffffffffffffffffffffffffffffffffff16815260200190815260200160002060009054906101000a900460ff16156124f4576124ed838360006125c0565b90506125ba565b6103e8826003600101546125089190612e7f565b6125129190612f08565b90508273ffffffffffffffffffffffffffffffffffffffff1673__$8c764ab166030f1e61c63187ebc02e3162$__63078d3b799091600760009054906101000a900473ffffffffffffffffffffffffffffffffffffffff16846040518463ffffffff1660e01b815260040161258993929190612fda565b60006040518083038186803b1580156125a157600080fd5b505af41580156125b5573d6000803e3d6000fd5b505050505b92915050565b6000806103e8846003600101546125d79190612e7f565b6125e19190612f08565b905060008590508315612660578073ffffffffffffffffffffffffffffffffffffffff16639dc29fac30846040518363ffffffff1660e01b81526004016126299291906130be565b600060405180830381600087803b15801561264357600080fd5b505af1158015612657573d6000803e3d6000fd5b505050506126cc565b8073ffffffffffffffffffffffffffffffffffffffff166342966c68836040518263ffffffff1660e01b81526004016126999190612813565b600060405180830381600087803b1580156126b357600080fd5b505af11580156126c7573d6000803e3d6000fd5b505050505b81925050509392505050565b600080fd5b6000819050919050565b6126f0816126dd565b81146126fb57600080fd5b50565b60008135905061270d816126e7565b92915050565b600073ffffffffffffffffffffffffffffffffffffffff82169050919050565b600061273e82612713565b9050919050565b61274e81612733565b811461275957600080fd5b50565b60008135905061276b81612745565b92915050565b60008060006060848603121561278a576127896126d8565b5b6000612798868287016126fe565b93505060206127a9868287016126fe565b92505060406127ba8682870161275c565b9150509250925092565b600080604083850312156127db576127da6126d8565b5b60006127e98582860161275c565b92505060206127fa858286016126fe565b9150509250929050565b61280d816126dd565b82525050565b60006020820190506128286000830184612804565b92915050565b600081519050919050565b600082825260208201905092915050565b60005b8381101561286857808201518184015260208101905061284d565b83811115612877576000848401525b50505050565b6000601f19601f8301169050919050565b60006128998261282e565b6128a38185612839565b93506128b381856020860161284a565b6128bc8161287d565b840191505092915050565b600060208201905081810360008301526128e1818461288e565b905092915050565b60008115159050919050565b6128fe816128e9565b82525050565b600060208201905061291960008301846128f5565b92915050565b600080600060608486031215612938576129376126d8565b5b60006129468682870161275c565b93505060206129578682870161275c565b9250506040612968868287016126fe565b9150509250925092565b600060208284031215612988576129876126d8565b5b60006129968482850161275c565b91505092915050565b600060ff82169050919050565b6129b58161299f565b82525050565b60006020820190506129d060008301846129ac565b92915050565b6000602082840312156129ec576129eb6126d8565b5b60006129fa848285016126fe565b91505092915050565b612a0c8161299f565b8114612a1757600080fd5b50565b600081359050612a2981612a03565b92915050565b60008060408385031215612a4657612a456126d8565b5b6000612a5485828601612a1a565b9250506020612a6585828601612a1a565b9150509250929050565b612a7881612733565b82525050565b6000606082019050612a936000830186612804565b612aa06020830185612804565b612aad6040830184612a6f565b949350505050565b60008060008060808587031215612acf57612ace6126d8565b5b6000612add8782880161275c565b9450506020612aee878288016126fe565b9350506040612aff878288016126fe565b9250506060612b10878288016126fe565b91505092959194509250565b612b25816128e9565b8114612b3057600080fd5b50565b600081359050612b4281612b1c565b92915050565b60008060408385031215612b5f57612b5e6126d8565b5b6000612b6d8582860161275c565b9250506020612b7e85828601612b33565b9150509250929050565b60008060408385031215612b9f57612b9e6126d8565b5b6000612bad8582860161275c565b9250506020612bbe8582860161275c565b9150509250929050565b600080600060608486031215612be157612be06126d8565b5b6000612bef8682870161275c565b9350506020612c0086828701612b33565b9250506040612c1186828701612b33565b9150509250925092565b60008060008060808587031215612c3557612c346126d8565b5b6000612c438782880161275c565b9450506020612c548782880161275c565b9350506040612c65878288016126fe565b9250506060612c76878288016126fe565b91505092959194509250565b7f4e487b7100000000000000000000000000000000000000000000000000000000600052601160045260246000fd5b6000612cbc826126dd565b9150612cc7836126dd565b9250827fffffffffffffffffffffffffffffffffffffffffffffffffffffffffffffffff03821115612cfc57612cfb612c82565b5b828201905092915050565b7f4265686f646c65724c6974653a20746f6b656e496e76616c6964000000000000600082015250565b6000612d3d601a83612839565b9150612d4882612d07565b602082019050919050565b60006020820190508181036000830152612d6c81612d30565b9050919050565b612d7c81612733565b82525050565b6000602082019050612d976000830184612d73565b92915050565b600081519050612dac816126e7565b92915050565b600060208284031215612dc857612dc76126d8565b5b6000612dd684828501612d9d565b91505092915050565b6000612dea826126dd565b9150612df5836126dd565b925082821015612e0857612e07612c82565b5b828203905092915050565b7f4245484f444c45523a206d696e206c6971756964697479000000000000000000600082015250565b6000612e49601783612839565b9150612e5482612e13565b602082019050919050565b60006020820190508181036000830152612e7881612e3c565b9050919050565b6000612e8a826126dd565b9150612e95836126dd565b9250817fffffffffffffffffffffffffffffffffffffffffffffffffffffffffffffffff0483118215151615612ece57612ecd612c82565b5b828202905092915050565b7f4e487b7100000000000000000000000000000000000000000000000000000000600052601260045260246000fd5b6000612f13826126dd565b9150612f1e836126dd565b925082612f2e57612f2d612ed9565b5b828204905092915050565b7f4245484f444c45523a206c6971756964697479207769746864726177616c207460008201527f6f6f206c617267652e0000000000000000000000000000000000000000000000602082015250565b6000612f95602983612839565b9150612fa082612f39565b604082019050919050565b60006020820190508181036000830152612fc481612f88565b9050919050565b612fd4816126dd565b82525050565b6000606082019050612fef6000830186612d73565b612ffc6020830185612d73565b6130096040830184612fcb565b949350505050565b7f4f6e6c7920746f6b656e2064756d7065722063616e2064756d7020746f6b656e60008201527f732e000000000000000000000000000000000000000000000000000000000000602082015250565b600061306d602283612839565b915061307882613011565b604082019050919050565b6000602082019050818103600083015261309c81613060565b9050919050565b60006020820190506130b86000830184612a6f565b92915050565b60006040820190506130d36000830185612a6f565b6130e06020830184612804565b9392505050565b6000815190506130f681612b1c565b92915050565b600060208284031215613112576131116126d8565b5b6000613120848285016130e7565b91505092915050565b600060608201905061313e6000830186612a6f565b61314b6020830185612a6f565b6131586040830184612804565b949350505050565b60006040820190506131756000830185612d73565b6131826020830184612fcb565b9392505050565b7f4245484f444c45523a206d696e206c69717569646974792e0000000000000000600082015250565b60006131bf601883612839565b91506131ca82613189565b602082019050919050565b600060208201905081810360008301526131ee816131b2565b9050919050565b6000819050919050565b600061320a826131f5565b9150613215836131f5565b9250827f8000000000000000000000000000000000000000000000000000000000000000018212600084121516156132505761324f612c82565b5b827f7fffffffffffffffffffffffffffffffffffffffffffffffffffffffffffffff01821360008412161561328857613287612c82565b5b828203905092915050565b600061329e826126dd565b91507fffffffffffffffffffffffffffffffffffffffffffffffffffffffffffffffff82036132d0576132cf612c82565b5b600182019050919050565b7f4245484f444c45523a207377617020696e76617269616e742e00000000000000600082015250565b6000613311601983612839565b915061331c826132db565b602082019050919050565b6000602082019050818103600083015261334081613304565b9050919050565b7f45524332303a20617070726f76652066726f6d20746865207a65726f2061646460008201527f7265737300000000000000000000000000000000000000000000000000000000602082015250565b60006133a3602483612839565b91506133ae82613347565b604082019050919050565b600060208201905081810360008301526133d281613396565b9050919050565b7f45524332303a20617070726f766520746f20746865207a65726f20616464726560008201527f7373000000000000000000000000000000000000000000000000000000000000602082015250565b6000613435602283612839565b9150613440826133d9565b604082019050919050565b6000602082019050818103600083015261346481613428565b9050919050565b7f53636172636974793a207472616e736665722066726f6d20746865207a65726f60008201527f2061646472657373000000000000000000000000000000000000000000000000602082015250565b60006134c7602883612839565b91506134d28261346b565b604082019050919050565b600060208201905081810360008301526134f6816134ba565b9050919050565b7f53636172636974793a207472616e7366657220746f20746865207a65726f206160008201527f6464726573730000000000000000000000000000000000000000000000000000602082015250565b6000613559602683612839565b9150613564826134fd565b604082019050919050565b600060208201905081810360008301526135888161354c565b905091905056fea264697066735822122053744892add38c8154b7a3242c658e96b6448d218eeb715b620d36e23bec1aba64736f6c634300080d00336080604052348015600f57600080fd5b50603f80601d6000396000f3fe6080604052600080fdfea2646970667358221220a38ab49ad0d9e90050370881e7bde6c16e4c8920124a6104d7987cb0cdc3284a64736f6c634300080d0033",
  "linkReferences": {
    "contracts/periphery/BehodlerLite/BehodlerLite.sol": {
      "AddressBalanceCheck": [
        {
          "length": 20,
          "start": 2417
        },
        {
          "length": 20,
          "start": 2956
        },
        {
          "length": 20,
          "start": 4263
        },
        {
          "length": 20,
          "start": 4424
        },
        {
          "length": 20,
          "start": 5034
        },
        {
          "length": 20,
          "start": 5194
        },
        {
          "length": 20,
          "start": 6595
        },
        {
          "length": 20,
          "start": 6741
        },
        {
          "length": 20,
          "start": 6899
        },
        {
          "length": 20,
          "start": 7421
        },
        {
          "length": 20,
          "start": 9805
        }
      ]
    }
  },
  "deployedLinkReferences": {
    "contracts/periphery/BehodlerLite/BehodlerLite.sol": {
      "AddressBalanceCheck": [
        {
          "length": 20,
          "start": 2129
        },
        {
          "length": 20,
          "start": 2668
        },
        {
          "length": 20,
          "start": 3975
        },
        {
          "length": 20,
          "start": 4136
        },
        {
          "length": 20,
          "start": 4746
        },
        {
          "length": 20,
          "start": 4906
        },
        {
          "length": 20,
          "start": 6307
        },
        {
          "length": 20,
          "start": 6453
        },
        {
          "length": 20,
          "start": 6611
        },
        {
          "length": 20,
          "start": 7133
        },
        {
          "length": 20,
          "start": 9517
        }
      ]
    }
  }
}