{
  "_format": "hh-sol-artifact-1",
  "contractName": "BehodlerLite",
  "sourceName": "contracts/periphery/BehodlerLite/BehodlerLite.sol",
  "abi": [
    {
      "inputs": [],
      "stateMutability": "nonpayable",
      "type": "constructor"
    },
    {
      "inputs": [
        {
          "internalType": "uint256",
          "name": "outputAmount",
          "type": "uint256"
        },
        {
          "internalType": "uint256",
          "name": "initialOutputBalance",
          "type": "uint256"
        },
        {
          "internalType": "uint256",
          "name": "maxLiquidityExit",
          "type": "uint256"
        }
      ],
      "name": "BehodlerMaxLiquidityExit",
      "type": "error"
    },
    {
      "inputs": [
        {
          "internalType": "uint256",
          "name": "inputRatio",
          "type": "uint256"
        },
        {
          "internalType": "uint256",
          "name": "outputRatio",
          "type": "uint256"
        }
      ],
      "name": "BehodlerSwapInvariant",
      "type": "error"
    },
    {
      "anonymous": false,
      "inputs": [
        {
          "indexed": true,
          "internalType": "address",
          "name": "owner",
          "type": "address"
        },
        {
          "indexed": true,
          "internalType": "address",
          "name": "spender",
          "type": "address"
        },
        {
          "indexed": false,
          "internalType": "uint256",
          "name": "value",
          "type": "uint256"
        }
      ],
      "name": "Approval",
      "type": "event"
    },
    {
      "anonymous": false,
      "inputs": [
        {
          "indexed": false,
          "internalType": "uint256",
          "name": "value",
          "type": "uint256"
        }
      ],
      "name": "Burn",
      "type": "event"
    },
    {
      "anonymous": false,
      "inputs": [
        {
          "indexed": false,
          "internalType": "address",
          "name": "sender",
          "type": "address"
        },
        {
          "indexed": false,
          "internalType": "address",
          "name": "recipient",
          "type": "address"
        },
        {
          "indexed": false,
          "internalType": "uint256",
          "name": "value",
          "type": "uint256"
        }
      ],
      "name": "Mint",
      "type": "event"
    },
    {
      "anonymous": false,
      "inputs": [
        {
          "indexed": true,
          "internalType": "address",
          "name": "from",
          "type": "address"
        },
        {
          "indexed": true,
          "internalType": "address",
          "name": "to",
          "type": "address"
        },
        {
          "indexed": false,
          "internalType": "uint256",
          "name": "value",
          "type": "uint256"
        }
      ],
      "name": "Transfer",
      "type": "event"
    },
    {
      "inputs": [],
      "name": "MIN_LIQUIDITY",
      "outputs": [
        {
          "internalType": "uint256",
          "name": "",
          "type": "uint256"
        }
      ],
      "stateMutability": "view",
      "type": "function"
    },
    {
      "inputs": [
        {
          "internalType": "address",
          "name": "inputToken",
          "type": "address"
        },
        {
          "internalType": "uint256",
          "name": "amount",
          "type": "uint256"
        }
      ],
      "name": "addLiquidity",
      "outputs": [
        {
          "internalType": "uint256",
          "name": "deltaSCX",
          "type": "uint256"
        }
      ],
      "stateMutability": "payable",
      "type": "function"
    },
    {
      "inputs": [
        {
          "internalType": "address",
          "name": "owner",
          "type": "address"
        },
        {
          "internalType": "address",
          "name": "spender",
          "type": "address"
        }
      ],
      "name": "allowance",
      "outputs": [
        {
          "internalType": "uint256",
          "name": "",
          "type": "uint256"
        }
      ],
      "stateMutability": "view",
      "type": "function"
    },
    {
      "inputs": [
        {
          "internalType": "address",
          "name": "spender",
          "type": "address"
        },
        {
          "internalType": "uint256",
          "name": "amount",
          "type": "uint256"
        }
      ],
      "name": "approve",
      "outputs": [
        {
          "internalType": "bool",
          "name": "",
          "type": "bool"
        }
      ],
      "stateMutability": "nonpayable",
      "type": "function"
    },
    {
      "inputs": [
        {
          "internalType": "address",
          "name": "account",
          "type": "address"
        }
      ],
      "name": "balanceOf",
      "outputs": [
        {
          "internalType": "uint256",
          "name": "",
          "type": "uint256"
        }
      ],
      "stateMutability": "view",
      "type": "function"
    },
    {
      "inputs": [
        {
          "internalType": "uint256",
          "name": "value",
          "type": "uint256"
        }
      ],
      "name": "burn",
      "outputs": [
        {
          "internalType": "bool",
          "name": "",
          "type": "bool"
        }
      ],
      "stateMutability": "nonpayable",
      "type": "function"
    },
    {
      "inputs": [],
      "name": "config",
      "outputs": [
        {
          "internalType": "uint256",
          "name": "transferFee",
          "type": "uint256"
        },
        {
          "internalType": "uint256",
          "name": "burnFee",
          "type": "uint256"
        },
        {
          "internalType": "address",
          "name": "feeDestination",
          "type": "address"
        }
      ],
      "stateMutability": "view",
      "type": "function"
    },
    {
      "inputs": [
        {
          "internalType": "uint256",
          "name": "transferFee",
          "type": "uint256"
        },
        {
          "internalType": "uint256",
          "name": "burnFee",
          "type": "uint256"
        },
        {
          "internalType": "address",
          "name": "feeDestination",
          "type": "address"
        }
      ],
      "name": "configureScarcity",
      "outputs": [],
      "stateMutability": "nonpayable",
      "type": "function"
    },
    {
      "inputs": [],
      "name": "decimals",
      "outputs": [
        {
          "internalType": "uint8",
          "name": "",
          "type": "uint8"
        }
      ],
      "stateMutability": "pure",
      "type": "function"
    },
    {
      "inputs": [
        {
          "internalType": "address",
          "name": "token",
          "type": "address"
        }
      ],
      "name": "dumpTokens",
      "outputs": [],
      "stateMutability": "nonpayable",
      "type": "function"
    },
    {
      "inputs": [],
      "name": "getConfiguration",
      "outputs": [
        {
          "internalType": "uint256",
          "name": "",
          "type": "uint256"
        },
        {
          "internalType": "uint256",
          "name": "",
          "type": "uint256"
        },
        {
          "internalType": "address",
          "name": "",
          "type": "address"
        }
      ],
      "stateMutability": "view",
      "type": "function"
    },
    {
      "inputs": [
        {
          "internalType": "address",
          "name": "recipient",
          "type": "address"
        },
        {
          "internalType": "uint256",
          "name": "value",
          "type": "uint256"
        }
      ],
      "name": "mint",
      "outputs": [],
      "stateMutability": "nonpayable",
      "type": "function"
    },
    {
      "inputs": [],
      "name": "name",
      "outputs": [
        {
          "internalType": "string",
          "name": "",
          "type": "string"
        }
      ],
      "stateMutability": "pure",
      "type": "function"
    },
    {
      "inputs": [
        {
          "internalType": "address",
          "name": "l",
          "type": "address"
        }
      ],
      "name": "setLachesis",
      "outputs": [],
      "stateMutability": "nonpayable",
      "type": "function"
    },
    {
      "inputs": [
        {
          "internalType": "address",
          "name": "newReceiver",
          "type": "address"
        }
      ],
      "name": "setReceiver",
      "outputs": [],
      "stateMutability": "nonpayable",
      "type": "function"
    },
    {
      "inputs": [
        {
          "internalType": "uint8",
          "name": "swapPrecisionFactor",
          "type": "uint8"
        },
        {
          "internalType": "uint8",
          "name": "maxLiquidityExit",
          "type": "uint8"
        }
      ],
      "name": "setSafetParameters",
      "outputs": [],
      "stateMutability": "nonpayable",
      "type": "function"
    },
    {
      "inputs": [
        {
          "internalType": "address",
          "name": "token",
          "type": "address"
        },
        {
          "internalType": "bool",
          "name": "burnable",
          "type": "bool"
        }
      ],
      "name": "setTokenBurnable",
      "outputs": [],
      "stateMutability": "nonpayable",
      "type": "function"
    },
    {
      "inputs": [
        {
          "internalType": "address",
          "name": "token",
          "type": "address"
        },
        {
          "internalType": "bool",
          "name": "valid",
          "type": "bool"
        },
        {
          "internalType": "bool",
          "name": "burnable",
          "type": "bool"
        }
      ],
      "name": "setValidToken",
      "outputs": [],
      "stateMutability": "nonpayable",
      "type": "function"
    },
    {
      "inputs": [
        {
          "internalType": "address",
          "name": "inputToken",
          "type": "address"
        },
        {
          "internalType": "address",
          "name": "outputToken",
          "type": "address"
        },
        {
          "internalType": "uint256",
          "name": "inputAmount",
          "type": "uint256"
        },
        {
          "internalType": "uint256",
          "name": "outputAmount",
          "type": "uint256"
        }
      ],
      "name": "swap",
      "outputs": [
        {
          "internalType": "bool",
          "name": "success",
          "type": "bool"
        }
      ],
      "stateMutability": "payable",
      "type": "function"
    },
    {
      "inputs": [],
      "name": "symbol",
      "outputs": [
        {
          "internalType": "string",
          "name": "",
          "type": "string"
        }
      ],
      "stateMutability": "pure",
      "type": "function"
    },
    {
      "inputs": [
        {
          "internalType": "address",
          "name": "",
          "type": "address"
        }
      ],
      "name": "tokenBurnable",
      "outputs": [
        {
          "internalType": "bool",
          "name": "",
          "type": "bool"
        }
      ],
      "stateMutability": "view",
      "type": "function"
    },
    {
      "inputs": [],
      "name": "totalSupply",
      "outputs": [
        {
          "internalType": "uint256",
          "name": "",
          "type": "uint256"
        }
      ],
      "stateMutability": "view",
      "type": "function"
    },
    {
      "inputs": [
        {
          "internalType": "address",
          "name": "recipient",
          "type": "address"
        },
        {
          "internalType": "uint256",
          "name": "amount",
          "type": "uint256"
        }
      ],
      "name": "transfer",
      "outputs": [
        {
          "internalType": "bool",
          "name": "",
          "type": "bool"
        }
      ],
      "stateMutability": "nonpayable",
      "type": "function"
    },
    {
      "inputs": [
        {
          "internalType": "address",
          "name": "sender",
          "type": "address"
        },
        {
          "internalType": "address",
          "name": "recipient",
          "type": "address"
        },
        {
          "internalType": "uint256",
          "name": "amount",
          "type": "uint256"
        }
      ],
      "name": "transferFrom",
      "outputs": [
        {
          "internalType": "bool",
          "name": "",
          "type": "bool"
        }
      ],
      "stateMutability": "nonpayable",
      "type": "function"
    },
    {
      "inputs": [
        {
          "internalType": "address",
          "name": "",
          "type": "address"
        }
      ],
      "name": "whiteListUsers",
      "outputs": [
        {
          "internalType": "bool",
          "name": "",
          "type": "bool"
        }
      ],
      "stateMutability": "view",
      "type": "function"
    },
    {
      "inputs": [
        {
          "internalType": "address",
          "name": "outputToken",
          "type": "address"
        },
        {
          "internalType": "uint256",
          "name": "tokensToRelease",
          "type": "uint256"
        }
      ],
      "name": "withdrawLiquidity",
      "outputs": [
        {
          "internalType": "uint256",
          "name": "deltaSCX",
          "type": "uint256"
        }
      ],
      "stateMutability": "payable",
      "type": "function"
    },
    {
      "inputs": [
        {
          "internalType": "address",
          "name": "outputToken",
          "type": "address"
        },
        {
          "internalType": "uint256",
          "name": "tokensToRelease",
          "type": "uint256"
        },
        {
          "internalType": "uint256",
          "name": "scx",
          "type": "uint256"
        },
        {
          "internalType": "uint256",
          "name": "passes",
          "type": "uint256"
        }
      ],
      "name": "withdrawLiquidityFindSCX",
      "outputs": [
        {
          "internalType": "uint256",
          "name": "",
          "type": "uint256"
        }
      ],
      "stateMutability": "view",
      "type": "function"
    }
  ],
  "bytecode": "0x60806040523480156200001157600080fd5b50604051620000209062000103565b604051809103906000f0801580156200003d573d6000803e3d6000fd5b50600760006101000a81548173ffffffffffffffffffffffffffffffffffffffff021916908373ffffffffffffffffffffffffffffffffffffffff160217905550601e600960000160006101000a81548160ff021916908360ff160217905550605a600960000160016101000a81548160ff021916908360ff16021790555033600a60006101000a81548173ffffffffffffffffffffffffffffffffffffffff021916908373ffffffffffffffffffffffffffffffffffffffff16021790555062000110565b605c806200388583390190565b61376580620001206000396000f3fe60806040526004361061019b5760003560e01c80636bd50cef116100ec578063a9059cbb1161008a578063e22bcf8411610064578063e22bcf841461060f578063e2fc9d001461064c578063ee148e0914610675578063fe0291561461069e5761019b565b8063a9059cbb1461056c578063aa5caa50146105a9578063dd62ed3e146105d25761019b565b806372c3fdd9116100c657806372c3fdd91461049a57806379502c55146104d757806395d89b4114610504578063a451a2c11461052f5761019b565b80636bd50cef1461040757806370a0823114610434578063718da7ee146104715761019b565b806323b872dd1161015957806340c10f191161013357806340c10f191461034857806342966c681461037157806356688700146103ae578063572861bc146103de5761019b565b806323b872dd146102b757806331369b69146102f4578063313ce5671461031d5761019b565b80627ed4fe146101a057806306d47de9146101c957806306fdde03146101f9578063095ea7b31461022457806318160ddd1461026157806321b77d631461028c575b600080fd5b3480156101ac57600080fd5b506101c760048036038101906101c29190612878565b6106ce565b005b6101e360048036038101906101de91906128cb565b61074e565b6040516101f0919061291a565b60405180910390f35b34801561020557600080fd5b5061020e610ae2565b60405161021b91906129ce565b60405180910390f35b34801561023057600080fd5b5061024b600480360381019061024691906128cb565b610b1f565b6040516102589190612a0b565b60405180910390f35b34801561026d57600080fd5b50610276610b36565b604051610283919061291a565b60405180910390f35b34801561029857600080fd5b506102a1610b40565b6040516102ae919061291a565b60405180910390f35b3480156102c357600080fd5b506102de60048036038101906102d99190612a26565b610b49565b6040516102eb9190612a0b565b60405180910390f35b34801561030057600080fd5b5061031b60048036038101906103169190612a79565b610bf3565b005b34801561032957600080fd5b50610332610d84565b60405161033f9190612ac2565b60405180910390f35b34801561035457600080fd5b5061036f600480360381019061036a91906128cb565b610d8d565b005b34801561037d57600080fd5b5061039860048036038101906103939190612add565b610e6c565b6040516103a59190612a0b565b60405180910390f35b6103c860048036038101906103c391906128cb565b610e81565b6040516103d5919061291a565b60405180910390f35b3480156103ea57600080fd5b5061040560048036038101906104009190612b36565b611160565b005b34801561041357600080fd5b5061041c6111a0565b60405161042b93929190612b85565b60405180910390f35b34801561044057600080fd5b5061045b60048036038101906104569190612a79565b6111e2565b604051610468919061291a565b60405180910390f35b34801561047d57600080fd5b5061049860048036038101906104939190612a79565b61122a565b005b3480156104a657600080fd5b506104c160048036038101906104bc9190612bbc565b61126e565b6040516104ce919061291a565b60405180910390f35b3480156104e357600080fd5b506104ec6114a1565b6040516104fb93929190612b85565b60405180910390f35b34801561051057600080fd5b506105196114d9565b60405161052691906129ce565b60405180910390f35b34801561053b57600080fd5b5061055660048036038101906105519190612a79565b611516565b6040516105639190612a0b565b60405180910390f35b34801561057857600080fd5b50610593600480360381019061058e91906128cb565b611536565b6040516105a09190612a0b565b60405180910390f35b3480156105b557600080fd5b506105d060048036038101906105cb9190612c4f565b61154d565b005b3480156105de57600080fd5b506105f960048036038101906105f49190612c8f565b6115a8565b604051610606919061291a565b60405180910390f35b34801561061b57600080fd5b5061063660048036038101906106319190612a79565b61162f565b6040516106439190612a0b565b60405180910390f35b34801561065857600080fd5b50610673600480360381019061066e9190612ccf565b61164f565b005b34801561068157600080fd5b5061069c60048036038101906106979190612a79565b61175c565b005b6106b860048036038101906106b39190612d22565b6117a0565b6040516106c59190612a0b565b60405180910390f35b6103e86003600101546003600001546106e79190612db8565b106106f157600080fd5b826003600001819055508160036001018190555080600360020160006101000a81548173ffffffffffffffffffffffffffffffffffffffff021916908373ffffffffffffffffffffffffffffffffffffffff160217905550505050565b600082600073ffffffffffffffffffffffffffffffffffffffff16600860009054906101000a900473ffffffffffffffffffffffffffffffffffffffff1673ffffffffffffffffffffffffffffffffffffffff1614806107f75750600660008273ffffffffffffffffffffffffffffffffffffffff1673ffffffffffffffffffffffffffffffffffffffff16815260200190815260200160002060009054906101000a900460ff165b610836576040517f08c379a000000000000000000000000000000000000000000000000000000000815260040161082d90612e5a565b60405180910390fd5b60008473ffffffffffffffffffffffffffffffffffffffff1673__$8c764ab166030f1e61c63187ebc02e3162$__63eedc966a90916040518263ffffffff1660e01b81526004016108879190612e89565b602060405180830381865af41580156108a4573d6000803e3d6000fd5b505050506040513d601f19601f820116820180604052508101906108c89190612eb9565b9050600084826108d89190612ee6565b905064e8d4a510008111610921576040517f08c379a000000000000000000000000000000000000000000000000000000000815260040161091890612f66565b60405180910390fd5b600960000160019054906101000a900460ff1660ff16826064876109459190612f86565b61094f919061300f565b1115610990576040517f08c379a0000000000000000000000000000000000000000000000000000000008152600401610987906130b2565b60405180910390fd5b600061099b83611c98565b905060006109a883611c98565b9050600183116109b95760006109bb565b805b826109c69190612ee6565b955060008060003373ffffffffffffffffffffffffffffffffffffffff1673ffffffffffffffffffffffffffffffffffffffff16815260200190815260200160002054905080871115610a495760008188610a219190612ee6565b905060008861271083610a349190612f86565b610a3e919061300f565b03610a47578197505b505b610a533388611e28565b8873ffffffffffffffffffffffffffffffffffffffff1673__$8c764ab166030f1e61c63187ebc02e3162$__63078d3b799091338b6040518463ffffffff1660e01b8152600401610aa6939291906130e1565b60006040518083038186803b158015610abe57600080fd5b505af4158015610ad2573d6000803e3d6000fd5b5050505050505050505092915050565b60606040518060400160405280600881526020017f5363617263697479000000000000000000000000000000000000000000000000815250905090565b6000610b2c338484611f03565b6001905092915050565b6000600254905090565b64e8d4a5100081565b6000610b568484846120cc565b610be8843384600160008973ffffffffffffffffffffffffffffffffffffffff1673ffffffffffffffffffffffffffffffffffffffff16815260200190815260200160002060003373ffffffffffffffffffffffffffffffffffffffff1673ffffffffffffffffffffffffffffffffffffffff16815260200190815260200160002054610be39190612ee6565b611f03565b600190509392505050565b600a60009054906101000a900473ffffffffffffffffffffffffffffffffffffffff1673ffffffffffffffffffffffffffffffffffffffff163373ffffffffffffffffffffffffffffffffffffffff1614610c83576040517f08c379a0000000000000000000000000000000000000000000000000000000008152600401610c7a9061318a565b60405180910390fd5b60008173ffffffffffffffffffffffffffffffffffffffff166370a08231306040518263ffffffff1660e01b8152600401610cbe91906131aa565b602060405180830381865afa158015610cdb573d6000803e3d6000fd5b505050506040513d601f19601f82011682018060405250810190610cff9190612eb9565b90508173ffffffffffffffffffffffffffffffffffffffff1663a9059cbb33836040518363ffffffff1660e01b8152600401610d3c9291906131c5565b6020604051808303816000875af1158015610d5b573d6000803e3d6000fd5b505050506040513d601f19601f82011682018060405250810190610d7f9190613203565b505050565b60006012905090565b806000808473ffffffffffffffffffffffffffffffffffffffff1673ffffffffffffffffffffffffffffffffffffffff16815260200190815260200160002054610dd79190612db8565b6000808473ffffffffffffffffffffffffffffffffffffffff1673ffffffffffffffffffffffffffffffffffffffff1681526020019081526020016000208190555080600254610e279190612db8565b6002819055507fab8530f87dc9b59234c4623bf917212bb2536d647574c8e7e5da92c2ede0c9f8338383604051610e6093929190613230565b60405180910390a15050565b6000610e783383611e28565b60019050919050565b600082600073ffffffffffffffffffffffffffffffffffffffff16600860009054906101000a900473ffffffffffffffffffffffffffffffffffffffff1673ffffffffffffffffffffffffffffffffffffffff161480610f2a5750600660008273ffffffffffffffffffffffffffffffffffffffff1673ffffffffffffffffffffffffffffffffffffffff16815260200190815260200160002060009054906101000a900460ff165b610f69576040517f08c379a0000000000000000000000000000000000000000000000000000000008152600401610f6090612e5a565b60405180910390fd5b600061100a8573ffffffffffffffffffffffffffffffffffffffff1673__$8c764ab166030f1e61c63187ebc02e3162$__637fed018f909164e8d4a510006040518363ffffffff1660e01b8152600401610fc4929190613267565b602060405180830381865af4158015610fe1573d6000803e3d6000fd5b505050506040513d601f19601f820116820180604052508101906110059190612eb9565b6124a9565b600f0b90508473ffffffffffffffffffffffffffffffffffffffff1673__$8c764ab166030f1e61c63187ebc02e3162$__63e4652f49909133876040518463ffffffff1660e01b8152600401611062939291906130e1565b60006040518083038186803b15801561107a57600080fd5b505af415801561108e573d6000803e3d6000fd5b5050505060006110c164e8d4a510006110a788886124cc565b876110b29190612ee6565b6110bc919061300f565b6124a9565b600f0b9050600081836110d49190612db8565b905064e8d4a5100081101561111e576040517f08c379a0000000000000000000000000000000000000000000000000000000008152600401611115906132dc565b60405180910390fd5b6001831161112d576000611137565b61113683611c98565b5b61114082611c98565b61114a9190612ee6565b94506111563386610d8d565b5050505092915050565b81600960000160006101000a81548160ff021916908360ff16021790555080600960000160016101000a81548160ff021916908360ff1602179055505050565b6000806000600360000154600360010154600360020160009054906101000a900473ffffffffffffffffffffffffffffffffffffffff16925092509250909192565b60008060008373ffffffffffffffffffffffffffffffffffffffff1673ffffffffffffffffffffffffffffffffffffffff168152602001908152602001600020549050919050565b80600760006101000a81548173ffffffffffffffffffffffffffffffffffffffff021916908373ffffffffffffffffffffffffffffffffffffffff16021790555050565b6000808573ffffffffffffffffffffffffffffffffffffffff1673__$8c764ab166030f1e61c63187ebc02e3162$__63eedc966a90916040518263ffffffff1660e01b81526004016112c09190612e89565b602060405180830381865af41580156112dd573d6000803e3d6000fd5b505050506040513d601f19601f820116820180604052508101906113019190612eb9565b90506000805b848110156114925760008873ffffffffffffffffffffffffffffffffffffffff1673__$8c764ab166030f1e61c63187ebc02e3162$__63eedc966a90916040518263ffffffff1660e01b81526004016113609190612e89565b602060405180830381865af415801561137d573d6000803e3d6000fd5b505050506040513d601f19601f820116820180604052508101906113a19190612eb9565b9050600088826113b19190612ee6565b905060006113be83611c98565b905060006113cb83611c98565b90506000600184116113de5760006113e0565b815b836113eb9190612ee6565b90506000818c6113fb9190613306565b905060008103611416578c9950505050505050505050611499565b60008112156114335760018d61142c9190612ee6565b9850611443565b60018d6114409190612db8565b97505b876002898b6114529190612ee6565b61145c919061300f565b6114669190612db8565b9c50858d11611475578c611477565b855b9c50505050505050808061148a9061339a565b915050611307565b5085925050505b949350505050565b60038060000154908060010154908060020160009054906101000a900473ffffffffffffffffffffffffffffffffffffffff16905083565b60606040518060400160405280600381526020017f5343580000000000000000000000000000000000000000000000000000000000815250905090565b600b6020528060005260406000206000915054906101000a900460ff1681565b60006115433384846120cc565b6001905092915050565b80600b60008473ffffffffffffffffffffffffffffffffffffffff1673ffffffffffffffffffffffffffffffffffffffff16815260200190815260200160002060006101000a81548160ff0219169083151502179055505050565b6000600160008473ffffffffffffffffffffffffffffffffffffffff1673ffffffffffffffffffffffffffffffffffffffff16815260200190815260200160002060008373ffffffffffffffffffffffffffffffffffffffff1673ffffffffffffffffffffffffffffffffffffffff16815260200190815260200160002054905092915050565b600c6020528060005260406000206000915054906101000a900460ff1681565b600860009054906101000a900473ffffffffffffffffffffffffffffffffffffffff1673ffffffffffffffffffffffffffffffffffffffff163373ffffffffffffffffffffffffffffffffffffffff16146116a957600080fd5b81600660008573ffffffffffffffffffffffffffffffffffffffff1673ffffffffffffffffffffffffffffffffffffffff16815260200190815260200160002060006101000a81548160ff02191690831515021790555080600b60008573ffffffffffffffffffffffffffffffffffffffff1673ffffffffffffffffffffffffffffffffffffffff16815260200190815260200160002060006101000a81548160ff021916908315150217905550505050565b80600860006101000a81548173ffffffffffffffffffffffffffffffffffffffff021916908373ffffffffffffffffffffffffffffffffffffffff16021790555050565b600084600073ffffffffffffffffffffffffffffffffffffffff16600860009054906101000a900473ffffffffffffffffffffffffffffffffffffffff1673ffffffffffffffffffffffffffffffffffffffff1614806118495750600660008273ffffffffffffffffffffffffffffffffffffffff1673ffffffffffffffffffffffffffffffffffffffff16815260200190815260200160002060009054906101000a900460ff165b611888576040517f08c379a000000000000000000000000000000000000000000000000000000000815260040161187f90612e5a565b60405180910390fd5b60008673ffffffffffffffffffffffffffffffffffffffff1673__$8c764ab166030f1e61c63187ebc02e3162$__63eedc966a90916040518263ffffffff1660e01b81526004016118d99190612e89565b602060405180830381865af41580156118f6573d6000803e3d6000fd5b505050506040513d601f19601f8201168201806040525081019061191a9190612eb9565b90508673ffffffffffffffffffffffffffffffffffffffff1673__$8c764ab166030f1e61c63187ebc02e3162$__63e4652f49909133886040518463ffffffff1660e01b815260040161196f939291906130e1565b60006040518083038186803b15801561198757600080fd5b505af415801561199b573d6000803e3d6000fd5b5050505060006119ab88876124cc565b866119b69190612ee6565b905060008773ffffffffffffffffffffffffffffffffffffffff1673__$8c764ab166030f1e61c63187ebc02e3162$__63eedc966a90916040518263ffffffff1660e01b8152600401611a099190612e89565b602060405180830381865af4158015611a26573d6000803e3d6000fd5b505050506040513d601f19601f82011682018060405250810190611a4a9190612eb9565b9050600960000160019054906101000a900460ff1660ff1681606488611a709190612f86565b611a7a919061300f565b1115611ad3578581600960000160019054906101000a900460ff166040517f760dfe7c000000000000000000000000000000000000000000000000000000008152600401611aca9392919061341d565b60405180910390fd5b60008284611ae19190612db8565b905060008783611af19190612ee6565b9050611b166040518060600160405280602c8152602001613704602c913986846125ff565b600082600960000160009054906101000a900460ff1660ff1687901b611b3c919061300f565b9050600084600960000160009054906101000a900460ff1660ff1684901b611b64919061300f565b90506000821480611b755750808214155b15611bb95781816040517fc224bccb000000000000000000000000000000000000000000000000000000008152600401611bb0929190613454565b60405180910390fd5b505064e8d4a51000811015611c03576040517f08c379a0000000000000000000000000000000000000000000000000000000008152600401611bfa906132dc565b60405180910390fd5b8973ffffffffffffffffffffffffffffffffffffffff1673__$8c764ab166030f1e61c63187ebc02e3162$__63078d3b799091338b6040518463ffffffff1660e01b8152600401611c56939291906130e1565b60006040518083038186803b158015611c6e57600080fd5b505af4158015611c82573d6000803e3d6000fd5b5050505060019650505050505050949350505050565b6000808211611ca657600080fd5b600080839050680100000000000000008110611cd357604081901c9050604082611cd09190612db8565b91505b6401000000008110611cf657602081901c9050602082611cf39190612db8565b91505b620100008110611d1757601081901c9050601082611d149190612db8565b91505b6101008110611d3757600881901c9050600882611d349190612db8565b91505b60108110611d5657600481901c9050600482611d539190612db8565b91505b60048110611d7557600281901c9050600282611d729190612db8565b91505b60028110611d8d57600182611d8a9190612db8565b91505b600060408084611d9d9190612ee6565b901b9050600083607f611db09190612ee6565b86901b9050600067800000000000000090505b6000811115611e1b578182611dd89190612f86565b9150600060ff83901c905080607f611df09190612db8565b83901c92508082611e019190612f86565b84611e0c9190612db8565b935050600181901c9050611dc3565b5081945050505050919050565b806000808473ffffffffffffffffffffffffffffffffffffffff1673ffffffffffffffffffffffffffffffffffffffff16815260200190815260200160002054611e729190612ee6565b6000808473ffffffffffffffffffffffffffffffffffffffff1673ffffffffffffffffffffffffffffffffffffffff1681526020019081526020016000208190555080600254611ec29190612ee6565b6002819055507fb90306ad06b2a6ff86ddc9327db583062895ef6540e62dc50add009db5b356eb81604051611ef7919061291a565b60405180910390a15050565b600073ffffffffffffffffffffffffffffffffffffffff168373ffffffffffffffffffffffffffffffffffffffff1603611f72576040517f08c379a0000000000000000000000000000000000000000000000000000000008152600401611f69906134ef565b60405180910390fd5b600073ffffffffffffffffffffffffffffffffffffffff168273ffffffffffffffffffffffffffffffffffffffff1603611fe1576040517f08c379a0000000000000000000000000000000000000000000000000000000008152600401611fd890613581565b60405180910390fd5b80600160008573ffffffffffffffffffffffffffffffffffffffff1673ffffffffffffffffffffffffffffffffffffffff16815260200190815260200160002060008473ffffffffffffffffffffffffffffffffffffffff1673ffffffffffffffffffffffffffffffffffffffff168152602001908152602001600020819055508173ffffffffffffffffffffffffffffffffffffffff168373ffffffffffffffffffffffffffffffffffffffff167f8c5be1e5ebec7d5bd14f71427d1e84f3dd0314c0f7b2291e5b200ac8c7c3b925836040516120bf919061291a565b60405180910390a3505050565b600073ffffffffffffffffffffffffffffffffffffffff168373ffffffffffffffffffffffffffffffffffffffff160361213b576040517f08c379a000000000000000000000000000000000000000000000000000000000815260040161213290613613565b60405180910390fd5b600073ffffffffffffffffffffffffffffffffffffffff168273ffffffffffffffffffffffffffffffffffffffff16036121aa576040517f08c379a00000000000000000000000000000000000000000000000000000000081526004016121a1906136a5565b60405180910390fd5b60006103e8826003600001546121c09190612f86565b6121ca919061300f565b905060006103e8836003600101546121e29190612f86565b6121ec919061300f565b9050806002546121fc9190612ee6565b6002819055507fb90306ad06b2a6ff86ddc9327db583062895ef6540e62dc50add009db5b356eb81604051612231919061291a565b60405180910390a181600080600360020160009054906101000a900473ffffffffffffffffffffffffffffffffffffffff1673ffffffffffffffffffffffffffffffffffffffff1673ffffffffffffffffffffffffffffffffffffffff168152602001908152602001600020546122a89190612db8565b600080600360020160009054906101000a900473ffffffffffffffffffffffffffffffffffffffff1673ffffffffffffffffffffffffffffffffffffffff1673ffffffffffffffffffffffffffffffffffffffff16815260200190815260200160002081905550826000808773ffffffffffffffffffffffffffffffffffffffff1673ffffffffffffffffffffffffffffffffffffffff168152602001908152602001600020546123599190612ee6565b6000808773ffffffffffffffffffffffffffffffffffffffff1673ffffffffffffffffffffffffffffffffffffffff1681526020019081526020016000208190555080826123a79190612db8565b836123b29190612ee6565b6000808673ffffffffffffffffffffffffffffffffffffffff1673ffffffffffffffffffffffffffffffffffffffff168152602001908152602001600020546123fb9190612db8565b6000808673ffffffffffffffffffffffffffffffffffffffff1673ffffffffffffffffffffffffffffffffffffffff168152602001908152602001600020819055508373ffffffffffffffffffffffffffffffffffffffff168573ffffffffffffffffffffffffffffffffffffffff167fddf252ad1be2c89b69c2b068fc378daa952ba7f163c4a11628f55a4df523b3ef8560405161249a919061291a565b60405180910390a35050505050565b6000677fffffffffffffff8211156124c057600080fd5b604082901b9050919050565b6000600b60008473ffffffffffffffffffffffffffffffffffffffff1673ffffffffffffffffffffffffffffffffffffffff16815260200190815260200160002060009054906101000a900460ff16156125335761252c8383600061269e565b90506125f9565b6103e8826003600101546125479190612f86565b612551919061300f565b90508273ffffffffffffffffffffffffffffffffffffffff1673__$8c764ab166030f1e61c63187ebc02e3162$__63078d3b799091600760009054906101000a900473ffffffffffffffffffffffffffffffffffffffff16846040518463ffffffff1660e01b81526004016125c8939291906130e1565b60006040518083038186803b1580156125e057600080fd5b505af41580156125f4573d6000803e3d6000fd5b505050505b92915050565b612699838383604051602401612617939291906136c5565b6040516020818303038152906040527f969cdd03000000000000000000000000000000000000000000000000000000007bffffffffffffffffffffffffffffffffffffffffffffffffffffffff19166020820180517bffffffffffffffffffffffffffffffffffffffffffffffffffffffff83818316178352505050506127b6565b505050565b6000806103e8846003600101546126b59190612f86565b6126bf919061300f565b90506000859050831561273e578073ffffffffffffffffffffffffffffffffffffffff16639dc29fac30846040518363ffffffff1660e01b81526004016127079291906131c5565b600060405180830381600087803b15801561272157600080fd5b505af1158015612735573d6000803e3d6000fd5b505050506127aa565b8073ffffffffffffffffffffffffffffffffffffffff166342966c68836040518263ffffffff1660e01b8152600401612777919061291a565b600060405180830381600087803b15801561279157600080fd5b505af11580156127a5573d6000803e3d6000fd5b505050505b81925050509392505050565b60008151905060006a636f6e736f6c652e6c6f679050602083016000808483855afa5050505050565b600080fd5b6000819050919050565b6127f7816127e4565b811461280257600080fd5b50565b600081359050612814816127ee565b92915050565b600073ffffffffffffffffffffffffffffffffffffffff82169050919050565b60006128458261281a565b9050919050565b6128558161283a565b811461286057600080fd5b50565b6000813590506128728161284c565b92915050565b600080600060608486031215612891576128906127df565b5b600061289f86828701612805565b93505060206128b086828701612805565b92505060406128c186828701612863565b9150509250925092565b600080604083850312156128e2576128e16127df565b5b60006128f085828601612863565b925050602061290185828601612805565b9150509250929050565b612914816127e4565b82525050565b600060208201905061292f600083018461290b565b92915050565b600081519050919050565b600082825260208201905092915050565b60005b8381101561296f578082015181840152602081019050612954565b8381111561297e576000848401525b50505050565b6000601f19601f8301169050919050565b60006129a082612935565b6129aa8185612940565b93506129ba818560208601612951565b6129c381612984565b840191505092915050565b600060208201905081810360008301526129e88184612995565b905092915050565b60008115159050919050565b612a05816129f0565b82525050565b6000602082019050612a2060008301846129fc565b92915050565b600080600060608486031215612a3f57612a3e6127df565b5b6000612a4d86828701612863565b9350506020612a5e86828701612863565b9250506040612a6f86828701612805565b9150509250925092565b600060208284031215612a8f57612a8e6127df565b5b6000612a9d84828501612863565b91505092915050565b600060ff82169050919050565b612abc81612aa6565b82525050565b6000602082019050612ad76000830184612ab3565b92915050565b600060208284031215612af357612af26127df565b5b6000612b0184828501612805565b91505092915050565b612b1381612aa6565b8114612b1e57600080fd5b50565b600081359050612b3081612b0a565b92915050565b60008060408385031215612b4d57612b4c6127df565b5b6000612b5b85828601612b21565b9250506020612b6c85828601612b21565b9150509250929050565b612b7f8161283a565b82525050565b6000606082019050612b9a600083018661290b565b612ba7602083018561290b565b612bb46040830184612b76565b949350505050565b60008060008060808587031215612bd657612bd56127df565b5b6000612be487828801612863565b9450506020612bf587828801612805565b9350506040612c0687828801612805565b9250506060612c1787828801612805565b91505092959194509250565b612c2c816129f0565b8114612c3757600080fd5b50565b600081359050612c4981612c23565b92915050565b60008060408385031215612c6657612c656127df565b5b6000612c7485828601612863565b9250506020612c8585828601612c3a565b9150509250929050565b60008060408385031215612ca657612ca56127df565b5b6000612cb485828601612863565b9250506020612cc585828601612863565b9150509250929050565b600080600060608486031215612ce857612ce76127df565b5b6000612cf686828701612863565b9350506020612d0786828701612c3a565b9250506040612d1886828701612c3a565b9150509250925092565b60008060008060808587031215612d3c57612d3b6127df565b5b6000612d4a87828801612863565b9450506020612d5b87828801612863565b9350506040612d6c87828801612805565b9250506060612d7d87828801612805565b91505092959194509250565b7f4e487b7100000000000000000000000000000000000000000000000000000000600052601160045260246000fd5b6000612dc3826127e4565b9150612dce836127e4565b9250827fffffffffffffffffffffffffffffffffffffffffffffffffffffffffffffffff03821115612e0357612e02612d89565b5b828201905092915050565b7f4265686f646c65724c6974653a20746f6b656e496e76616c6964000000000000600082015250565b6000612e44601a83612940565b9150612e4f82612e0e565b602082019050919050565b60006020820190508181036000830152612e7381612e37565b9050919050565b612e838161283a565b82525050565b6000602082019050612e9e6000830184612e7a565b92915050565b600081519050612eb3816127ee565b92915050565b600060208284031215612ecf57612ece6127df565b5b6000612edd84828501612ea4565b91505092915050565b6000612ef1826127e4565b9150612efc836127e4565b925082821015612f0f57612f0e612d89565b5b828203905092915050565b7f4245484f444c45523a206d696e206c6971756964697479000000000000000000600082015250565b6000612f50601783612940565b9150612f5b82612f1a565b602082019050919050565b60006020820190508181036000830152612f7f81612f43565b9050919050565b6000612f91826127e4565b9150612f9c836127e4565b9250817fffffffffffffffffffffffffffffffffffffffffffffffffffffffffffffffff0483118215151615612fd557612fd4612d89565b5b828202905092915050565b7f4e487b7100000000000000000000000000000000000000000000000000000000600052601260045260246000fd5b600061301a826127e4565b9150613025836127e4565b92508261303557613034612fe0565b5b828204905092915050565b7f4245484f444c45523a206c6971756964697479207769746864726177616c207460008201527f6f6f206c617267652e0000000000000000000000000000000000000000000000602082015250565b600061309c602983612940565b91506130a782613040565b604082019050919050565b600060208201905081810360008301526130cb8161308f565b9050919050565b6130db816127e4565b82525050565b60006060820190506130f66000830186612e7a565b6131036020830185612e7a565b61311060408301846130d2565b949350505050565b7f4f6e6c7920746f6b656e2064756d7065722063616e2064756d7020746f6b656e60008201527f732e000000000000000000000000000000000000000000000000000000000000602082015250565b6000613174602283612940565b915061317f82613118565b604082019050919050565b600060208201905081810360008301526131a381613167565b9050919050565b60006020820190506131bf6000830184612b76565b92915050565b60006040820190506131da6000830185612b76565b6131e7602083018461290b565b9392505050565b6000815190506131fd81612c23565b92915050565b600060208284031215613219576132186127df565b5b6000613227848285016131ee565b91505092915050565b60006060820190506132456000830186612b76565b6132526020830185612b76565b61325f604083018461290b565b949350505050565b600060408201905061327c6000830185612e7a565b61328960208301846130d2565b9392505050565b7f4245484f444c45523a206d696e206c69717569646974792e0000000000000000600082015250565b60006132c6601883612940565b91506132d182613290565b602082019050919050565b600060208201905081810360008301526132f5816132b9565b9050919050565b6000819050919050565b6000613311826132fc565b915061331c836132fc565b9250827f80000000000000000000000000000000000000000000000000000000000000000182126000841215161561335757613356612d89565b5b827f7fffffffffffffffffffffffffffffffffffffffffffffffffffffffffffffff01821360008412161561338f5761338e612d89565b5b828203905092915050565b60006133a5826127e4565b91507fffffffffffffffffffffffffffffffffffffffffffffffffffffffffffffffff82036133d7576133d6612d89565b5b600182019050919050565b6000819050919050565b60006134076134026133fd84612aa6565b6133e2565b6127e4565b9050919050565b613417816133ec565b82525050565b6000606082019050613432600083018661290b565b61343f602083018561290b565b61344c604083018461340e565b949350505050565b6000604082019050613469600083018561290b565b613476602083018461290b565b9392505050565b7f45524332303a20617070726f76652066726f6d20746865207a65726f2061646460008201527f7265737300000000000000000000000000000000000000000000000000000000602082015250565b60006134d9602483612940565b91506134e48261347d565b604082019050919050565b60006020820190508181036000830152613508816134cc565b9050919050565b7f45524332303a20617070726f766520746f20746865207a65726f20616464726560008201527f7373000000000000000000000000000000000000000000000000000000000000602082015250565b600061356b602283612940565b91506135768261350f565b604082019050919050565b6000602082019050818103600083015261359a8161355e565b9050919050565b7f53636172636974793a207472616e736665722066726f6d20746865207a65726f60008201527f2061646472657373000000000000000000000000000000000000000000000000602082015250565b60006135fd602883612940565b9150613608826135a1565b604082019050919050565b6000602082019050818103600083015261362c816135f0565b9050919050565b7f53636172636974793a207472616e7366657220746f20746865207a65726f206160008201527f6464726573730000000000000000000000000000000000000000000000000000602082015250565b600061368f602683612940565b915061369a82613633565b604082019050919050565b600060208201905081810360008301526136be81613682565b9050919050565b600060608201905081810360008301526136df8186612995565b90506136ee602083018561290b565b6136fb604083018461290b565b94935050505056fe696e697469616c494e70757442616c616e63652025642c2066696e616c496e70757442616c616e6365202564a2646970667358221220e3b79fc9886c74deaf30c6f3b341d997e715ed3bbd8bb23b9e8bb3f822692f3064736f6c634300080d00336080604052348015600f57600080fd5b50603f80601d6000396000f3fe6080604052600080fdfea26469706673582212203a8bf46d0b6d7b8a3daa2b849f367d159734ef65cf0c6b7563a995947ff8985a64736f6c634300080d0033",
  "linkReferences": {
    "contracts/periphery/BehodlerLite/BehodlerLite.sol": {
      "AddressBalanceCheck": [
        {
          "length": 20,
          "start": 2417
        },
        {
          "length": 20,
          "start": 2956
        },
        {
          "length": 20,
          "start": 4263
        },
        {
          "length": 20,
          "start": 4424
        },
        {
          "length": 20,
          "start": 5034
        },
        {
          "length": 20,
          "start": 5194
        },
        {
          "length": 20,
          "start": 6595
        },
        {
          "length": 20,
          "start": 6741
        },
        {
          "length": 20,
          "start": 6899
        },
        {
          "length": 20,
          "start": 7484
        },
        {
          "length": 20,
          "start": 9868
        }
      ]
    }
  },
  "deployedLinkReferences": {
    "contracts/periphery/BehodlerLite/BehodlerLite.sol": {
      "AddressBalanceCheck": [
        {
          "length": 20,
          "start": 2129
        },
        {
          "length": 20,
          "start": 2668
        },
        {
          "length": 20,
          "start": 3975
        },
        {
          "length": 20,
          "start": 4136
        },
        {
          "length": 20,
          "start": 4746
        },
        {
          "length": 20,
          "start": 4906
        },
        {
          "length": 20,
          "start": 6307
        },
        {
          "length": 20,
          "start": 6453
        },
        {
          "length": 20,
          "start": 6611
        },
        {
          "length": 20,
          "start": 7196
        },
        {
          "length": 20,
          "start": 9580
        }
      ]
    }
  }
}