{
  "_format": "hh-sol-artifact-1",
  "contractName": "LachesisLite",
  "sourceName": "contracts/periphery/BehodlerLite/BehodlerLite.sol",
  "abi": [
    {
      "inputs": [],
      "name": "behodler",
      "outputs": [
        {
          "internalType": "address",
          "name": "",
          "type": "address"
        }
      ],
      "stateMutability": "view",
      "type": "function"
    },
    {
      "inputs": [
        {
          "internalType": "address",
          "name": "token",
          "type": "address"
        }
      ],
      "name": "cut",
      "outputs": [
        {
          "internalType": "bool",
          "name": "",
          "type": "bool"
        },
        {
          "internalType": "bool",
          "name": "",
          "type": "bool"
        }
      ],
      "stateMutability": "view",
      "type": "function"
    },
    {
      "inputs": [
        {
          "internalType": "address",
          "name": "token",
          "type": "address"
        },
        {
          "internalType": "bool",
          "name": "valid",
          "type": "bool"
        },
        {
          "internalType": "bool",
          "name": "burnable",
          "type": "bool"
        }
      ],
      "name": "measure",
      "outputs": [],
      "stateMutability": "nonpayable",
      "type": "function"
    },
    {
      "inputs": [
        {
          "internalType": "address",
          "name": "b",
          "type": "address"
        }
      ],
      "name": "setBehodler",
      "outputs": [],
      "stateMutability": "nonpayable",
      "type": "function"
    },
    {
      "inputs": [
        {
          "internalType": "address",
          "name": "token",
          "type": "address"
        }
      ],
      "name": "updateBehodler",
      "outputs": [],
      "stateMutability": "nonpayable",
      "type": "function"
    }
  ],
  "bytecode": "0x608060405234801561001057600080fd5b506105f5806100206000396000f3fe608060405234801561001057600080fd5b50600436106100575760003560e01c8063140947f11461005c57806366ce93ca146100785780637a29e02214610094578063e2ea87db146100b0578063e5b12cc0146100e1575b600080fd5b61007660048036038101906100719190610445565b6100ff565b005b610092600480360381019061008d91906104aa565b610142565b005b6100ae60048036038101906100a99190610445565b610152565b005b6100ca60048036038101906100c59190610445565b610283565b6040516100d892919061050c565b60405180910390f35b6100e961031e565b6040516100f69190610544565b60405180910390f35b806000806101000a81548173ffffffffffffffffffffffffffffffffffffffff021916908373ffffffffffffffffffffffffffffffffffffffff16021790555050565b61014d838383610342565b505050565b60008061015e83610283565b9150915060008054906101000a900473ffffffffffffffffffffffffffffffffffffffff1673ffffffffffffffffffffffffffffffffffffffff1663e2fc9d008484846040518463ffffffff1660e01b81526004016101bf9392919061055f565b600060405180830381600087803b1580156101d957600080fd5b505af11580156101ed573d6000803e3d6000fd5b5050505060008054906101000a900473ffffffffffffffffffffffffffffffffffffffff1673ffffffffffffffffffffffffffffffffffffffff1663aa5caa5084836040518363ffffffff1660e01b815260040161024c929190610596565b600060405180830381600087803b15801561026657600080fd5b505af115801561027a573d6000803e3d6000fd5b50505050505050565b6000806000600160008573ffffffffffffffffffffffffffffffffffffffff1673ffffffffffffffffffffffffffffffffffffffff1681526020019081526020016000206040518060400160405290816000820160009054906101000a900460ff161515151581526020016000820160019054906101000a900460ff1615151515815250509050806000015181602001519250925050915091565b60008054906101000a900473ffffffffffffffffffffffffffffffffffffffff1681565b60405180604001604052808315158152602001821515815250600160008573ffffffffffffffffffffffffffffffffffffffff1673ffffffffffffffffffffffffffffffffffffffff16815260200190815260200160002060008201518160000160006101000a81548160ff02191690831515021790555060208201518160000160016101000a81548160ff021916908315150217905550905050505050565b600080fd5b600073ffffffffffffffffffffffffffffffffffffffff82169050919050565b6000610412826103e7565b9050919050565b61042281610407565b811461042d57600080fd5b50565b60008135905061043f81610419565b92915050565b60006020828403121561045b5761045a6103e2565b5b600061046984828501610430565b91505092915050565b60008115159050919050565b61048781610472565b811461049257600080fd5b50565b6000813590506104a48161047e565b92915050565b6000806000606084860312156104c3576104c26103e2565b5b60006104d186828701610430565b93505060206104e286828701610495565b92505060406104f386828701610495565b9150509250925092565b61050681610472565b82525050565b600060408201905061052160008301856104fd565b61052e60208301846104fd565b9392505050565b61053e81610407565b82525050565b60006020820190506105596000830184610535565b92915050565b60006060820190506105746000830186610535565b61058160208301856104fd565b61058e60408301846104fd565b949350505050565b60006040820190506105ab6000830185610535565b6105b860208301846104fd565b939250505056fea26469706673582212209f737ed9ae2d85bca7b8c6dd08e513f0625c75467eb0d59810e955b7b876a8fd64736f6c634300080d0033",
  "linkReferences": {},
  "deployedLinkReferences": {}
}