{
  "_format": "hh-sol-artifact-1",
  "contractName": "ScarcityLite",
  "sourceName": "contracts/periphery/BehodlerLite/BehodlerLite.sol",
  "abi": [
    {
      "anonymous": false,
      "inputs": [
        {
          "indexed": true,
          "internalType": "address",
          "name": "owner",
          "type": "address"
        },
        {
          "indexed": true,
          "internalType": "address",
          "name": "spender",
          "type": "address"
        },
        {
          "indexed": false,
          "internalType": "uint256",
          "name": "value",
          "type": "uint256"
        }
      ],
      "name": "Approval",
      "type": "event"
    },
    {
      "anonymous": false,
      "inputs": [
        {
          "indexed": false,
          "internalType": "uint256",
          "name": "value",
          "type": "uint256"
        }
      ],
      "name": "Burn",
      "type": "event"
    },
    {
      "anonymous": false,
      "inputs": [
        {
          "indexed": false,
          "internalType": "address",
          "name": "sender",
          "type": "address"
        },
        {
          "indexed": false,
          "internalType": "address",
          "name": "recipient",
          "type": "address"
        },
        {
          "indexed": false,
          "internalType": "uint256",
          "name": "value",
          "type": "uint256"
        }
      ],
      "name": "Mint",
      "type": "event"
    },
    {
      "anonymous": false,
      "inputs": [
        {
          "indexed": true,
          "internalType": "address",
          "name": "from",
          "type": "address"
        },
        {
          "indexed": true,
          "internalType": "address",
          "name": "to",
          "type": "address"
        },
        {
          "indexed": false,
          "internalType": "uint256",
          "name": "value",
          "type": "uint256"
        }
      ],
      "name": "Transfer",
      "type": "event"
    },
    {
      "inputs": [
        {
          "internalType": "address",
          "name": "owner",
          "type": "address"
        },
        {
          "internalType": "address",
          "name": "spender",
          "type": "address"
        }
      ],
      "name": "allowance",
      "outputs": [
        {
          "internalType": "uint256",
          "name": "",
          "type": "uint256"
        }
      ],
      "stateMutability": "view",
      "type": "function"
    },
    {
      "inputs": [
        {
          "internalType": "address",
          "name": "spender",
          "type": "address"
        },
        {
          "internalType": "uint256",
          "name": "amount",
          "type": "uint256"
        }
      ],
      "name": "approve",
      "outputs": [
        {
          "internalType": "bool",
          "name": "",
          "type": "bool"
        }
      ],
      "stateMutability": "nonpayable",
      "type": "function"
    },
    {
      "inputs": [
        {
          "internalType": "address",
          "name": "account",
          "type": "address"
        }
      ],
      "name": "balanceOf",
      "outputs": [
        {
          "internalType": "uint256",
          "name": "",
          "type": "uint256"
        }
      ],
      "stateMutability": "view",
      "type": "function"
    },
    {
      "inputs": [
        {
          "internalType": "uint256",
          "name": "value",
          "type": "uint256"
        }
      ],
      "name": "burn",
      "outputs": [
        {
          "internalType": "bool",
          "name": "",
          "type": "bool"
        }
      ],
      "stateMutability": "nonpayable",
      "type": "function"
    },
    {
      "inputs": [],
      "name": "config",
      "outputs": [
        {
          "internalType": "uint256",
          "name": "transferFee",
          "type": "uint256"
        },
        {
          "internalType": "uint256",
          "name": "burnFee",
          "type": "uint256"
        },
        {
          "internalType": "address",
          "name": "feeDestination",
          "type": "address"
        }
      ],
      "stateMutability": "view",
      "type": "function"
    },
    {
      "inputs": [
        {
          "internalType": "uint256",
          "name": "transferFee",
          "type": "uint256"
        },
        {
          "internalType": "uint256",
          "name": "burnFee",
          "type": "uint256"
        },
        {
          "internalType": "address",
          "name": "feeDestination",
          "type": "address"
        }
      ],
      "name": "configureScarcity",
      "outputs": [],
      "stateMutability": "nonpayable",
      "type": "function"
    },
    {
      "inputs": [],
      "name": "decimals",
      "outputs": [
        {
          "internalType": "uint8",
          "name": "",
          "type": "uint8"
        }
      ],
      "stateMutability": "pure",
      "type": "function"
    },
    {
      "inputs": [],
      "name": "getConfiguration",
      "outputs": [
        {
          "internalType": "uint256",
          "name": "",
          "type": "uint256"
        },
        {
          "internalType": "uint256",
          "name": "",
          "type": "uint256"
        },
        {
          "internalType": "address",
          "name": "",
          "type": "address"
        }
      ],
      "stateMutability": "view",
      "type": "function"
    },
    {
      "inputs": [
        {
          "internalType": "address",
          "name": "recipient",
          "type": "address"
        },
        {
          "internalType": "uint256",
          "name": "value",
          "type": "uint256"
        }
      ],
      "name": "mint",
      "outputs": [],
      "stateMutability": "nonpayable",
      "type": "function"
    },
    {
      "inputs": [],
      "name": "name",
      "outputs": [
        {
          "internalType": "string",
          "name": "",
          "type": "string"
        }
      ],
      "stateMutability": "pure",
      "type": "function"
    },
    {
      "inputs": [],
      "name": "symbol",
      "outputs": [
        {
          "internalType": "string",
          "name": "",
          "type": "string"
        }
      ],
      "stateMutability": "pure",
      "type": "function"
    },
    {
      "inputs": [],
      "name": "totalSupply",
      "outputs": [
        {
          "internalType": "uint256",
          "name": "",
          "type": "uint256"
        }
      ],
      "stateMutability": "view",
      "type": "function"
    },
    {
      "inputs": [
        {
          "internalType": "address",
          "name": "recipient",
          "type": "address"
        },
        {
          "internalType": "uint256",
          "name": "amount",
          "type": "uint256"
        }
      ],
      "name": "transfer",
      "outputs": [
        {
          "internalType": "bool",
          "name": "",
          "type": "bool"
        }
      ],
      "stateMutability": "nonpayable",
      "type": "function"
    },
    {
      "inputs": [
        {
          "internalType": "address",
          "name": "sender",
          "type": "address"
        },
        {
          "internalType": "address",
          "name": "recipient",
          "type": "address"
        },
        {
          "internalType": "uint256",
          "name": "amount",
          "type": "uint256"
        }
      ],
      "name": "transferFrom",
      "outputs": [
        {
          "internalType": "bool",
          "name": "",
          "type": "bool"
        }
      ],
      "stateMutability": "nonpayable",
      "type": "function"
    }
  ],
  "bytecode": "0x608060405234801561001057600080fd5b5061157a806100206000396000f3fe608060405234801561001057600080fd5b50600436106100e95760003560e01c806342966c681161008c57806379502c551161006657806379502c551461026057806395d89b4114610280578063a9059cbb1461029e578063dd62ed3e146102ce576100e9565b806342966c68146101e05780636bd50cef1461021057806370a0823114610230576100e9565b806318160ddd116100c857806318160ddd1461015857806323b872dd14610176578063313ce567146101a657806340c10f19146101c4576100e9565b80627ed4fe146100ee57806306fdde031461010a578063095ea7b314610128575b600080fd5b61010860048036038101906101039190610e3a565b6102fe565b005b61011261037e565b60405161011f9190610f26565b60405180910390f35b610142600480360381019061013d9190610f48565b6103bb565b60405161014f9190610fa3565b60405180910390f35b6101606103d2565b60405161016d9190610fcd565b60405180910390f35b610190600480360381019061018b9190610fe8565b6103dc565b60405161019d9190610fa3565b60405180910390f35b6101ae610486565b6040516101bb9190611057565b60405180910390f35b6101de60048036038101906101d99190610f48565b61048f565b005b6101fa60048036038101906101f59190611072565b61056e565b6040516102079190610fa3565b60405180910390f35b610218610583565b604051610227939291906110ae565b60405180910390f35b61024a600480360381019061024591906110e5565b6105c5565b6040516102579190610fcd565b60405180910390f35b61026861060d565b604051610277939291906110ae565b60405180910390f35b610288610645565b6040516102959190610f26565b60405180910390f35b6102b860048036038101906102b39190610f48565b610682565b6040516102c59190610fa3565b60405180910390f35b6102e860048036038101906102e39190611112565b610699565b6040516102f59190610fcd565b60405180910390f35b6103e86003600101546003600001546103179190611181565b1061032157600080fd5b826003600001819055508160036001018190555080600360020160006101000a81548173ffffffffffffffffffffffffffffffffffffffff021916908373ffffffffffffffffffffffffffffffffffffffff160217905550505050565b60606040518060400160405280600881526020017f5363617263697479000000000000000000000000000000000000000000000000815250905090565b60006103c8338484610720565b6001905092915050565b6000600254905090565b60006103e98484846108e9565b61047b843384600160008973ffffffffffffffffffffffffffffffffffffffff1673ffffffffffffffffffffffffffffffffffffffff16815260200190815260200160002060003373ffffffffffffffffffffffffffffffffffffffff1673ffffffffffffffffffffffffffffffffffffffff1681526020019081526020016000205461047691906111d7565b610720565b600190509392505050565b60006012905090565b806000808473ffffffffffffffffffffffffffffffffffffffff1673ffffffffffffffffffffffffffffffffffffffff168152602001908152602001600020546104d99190611181565b6000808473ffffffffffffffffffffffffffffffffffffffff1673ffffffffffffffffffffffffffffffffffffffff16815260200190815260200160002081905550806002546105299190611181565b6002819055507fab8530f87dc9b59234c4623bf917212bb2536d647574c8e7e5da92c2ede0c9f83383836040516105629392919061120b565b60405180910390a15050565b600061057a3383610cc6565b60019050919050565b6000806000600360000154600360010154600360020160009054906101000a900473ffffffffffffffffffffffffffffffffffffffff16925092509250909192565b60008060008373ffffffffffffffffffffffffffffffffffffffff1673ffffffffffffffffffffffffffffffffffffffff168152602001908152602001600020549050919050565b60038060000154908060010154908060020160009054906101000a900473ffffffffffffffffffffffffffffffffffffffff16905083565b60606040518060400160405280600381526020017f5343580000000000000000000000000000000000000000000000000000000000815250905090565b600061068f3384846108e9565b6001905092915050565b6000600160008473ffffffffffffffffffffffffffffffffffffffff1673ffffffffffffffffffffffffffffffffffffffff16815260200190815260200160002060008373ffffffffffffffffffffffffffffffffffffffff1673ffffffffffffffffffffffffffffffffffffffff16815260200190815260200160002054905092915050565b600073ffffffffffffffffffffffffffffffffffffffff168373ffffffffffffffffffffffffffffffffffffffff160361078f576040517f08c379a0000000000000000000000000000000000000000000000000000000008152600401610786906112b4565b60405180910390fd5b600073ffffffffffffffffffffffffffffffffffffffff168273ffffffffffffffffffffffffffffffffffffffff16036107fe576040517f08c379a00000000000000000000000000000000000000000000000000000000081526004016107f590611346565b60405180910390fd5b80600160008573ffffffffffffffffffffffffffffffffffffffff1673ffffffffffffffffffffffffffffffffffffffff16815260200190815260200160002060008473ffffffffffffffffffffffffffffffffffffffff1673ffffffffffffffffffffffffffffffffffffffff168152602001908152602001600020819055508173ffffffffffffffffffffffffffffffffffffffff168373ffffffffffffffffffffffffffffffffffffffff167f8c5be1e5ebec7d5bd14f71427d1e84f3dd0314c0f7b2291e5b200ac8c7c3b925836040516108dc9190610fcd565b60405180910390a3505050565b600073ffffffffffffffffffffffffffffffffffffffff168373ffffffffffffffffffffffffffffffffffffffff1603610958576040517f08c379a000000000000000000000000000000000000000000000000000000000815260040161094f906113d8565b60405180910390fd5b600073ffffffffffffffffffffffffffffffffffffffff168273ffffffffffffffffffffffffffffffffffffffff16036109c7576040517f08c379a00000000000000000000000000000000000000000000000000000000081526004016109be9061146a565b60405180910390fd5b60006103e8826003600001546109dd919061148a565b6109e79190611513565b905060006103e8836003600101546109ff919061148a565b610a099190611513565b905080600254610a1991906111d7565b6002819055507fb90306ad06b2a6ff86ddc9327db583062895ef6540e62dc50add009db5b356eb81604051610a4e9190610fcd565b60405180910390a181600080600360020160009054906101000a900473ffffffffffffffffffffffffffffffffffffffff1673ffffffffffffffffffffffffffffffffffffffff1673ffffffffffffffffffffffffffffffffffffffff16815260200190815260200160002054610ac59190611181565b600080600360020160009054906101000a900473ffffffffffffffffffffffffffffffffffffffff1673ffffffffffffffffffffffffffffffffffffffff1673ffffffffffffffffffffffffffffffffffffffff16815260200190815260200160002081905550826000808773ffffffffffffffffffffffffffffffffffffffff1673ffffffffffffffffffffffffffffffffffffffff16815260200190815260200160002054610b7691906111d7565b6000808773ffffffffffffffffffffffffffffffffffffffff1673ffffffffffffffffffffffffffffffffffffffff168152602001908152602001600020819055508082610bc49190611181565b83610bcf91906111d7565b6000808673ffffffffffffffffffffffffffffffffffffffff1673ffffffffffffffffffffffffffffffffffffffff16815260200190815260200160002054610c189190611181565b6000808673ffffffffffffffffffffffffffffffffffffffff1673ffffffffffffffffffffffffffffffffffffffff168152602001908152602001600020819055508373ffffffffffffffffffffffffffffffffffffffff168573ffffffffffffffffffffffffffffffffffffffff167fddf252ad1be2c89b69c2b068fc378daa952ba7f163c4a11628f55a4df523b3ef85604051610cb79190610fcd565b60405180910390a35050505050565b806000808473ffffffffffffffffffffffffffffffffffffffff1673ffffffffffffffffffffffffffffffffffffffff16815260200190815260200160002054610d1091906111d7565b6000808473ffffffffffffffffffffffffffffffffffffffff1673ffffffffffffffffffffffffffffffffffffffff1681526020019081526020016000208190555080600254610d6091906111d7565b6002819055507fb90306ad06b2a6ff86ddc9327db583062895ef6540e62dc50add009db5b356eb81604051610d959190610fcd565b60405180910390a15050565b600080fd5b6000819050919050565b610db981610da6565b8114610dc457600080fd5b50565b600081359050610dd681610db0565b92915050565b600073ffffffffffffffffffffffffffffffffffffffff82169050919050565b6000610e0782610ddc565b9050919050565b610e1781610dfc565b8114610e2257600080fd5b50565b600081359050610e3481610e0e565b92915050565b600080600060608486031215610e5357610e52610da1565b5b6000610e6186828701610dc7565b9350506020610e7286828701610dc7565b9250506040610e8386828701610e25565b9150509250925092565b600081519050919050565b600082825260208201905092915050565b60005b83811015610ec7578082015181840152602081019050610eac565b83811115610ed6576000848401525b50505050565b6000601f19601f8301169050919050565b6000610ef882610e8d565b610f028185610e98565b9350610f12818560208601610ea9565b610f1b81610edc565b840191505092915050565b60006020820190508181036000830152610f408184610eed565b905092915050565b60008060408385031215610f5f57610f5e610da1565b5b6000610f6d85828601610e25565b9250506020610f7e85828601610dc7565b9150509250929050565b60008115159050919050565b610f9d81610f88565b82525050565b6000602082019050610fb86000830184610f94565b92915050565b610fc781610da6565b82525050565b6000602082019050610fe26000830184610fbe565b92915050565b60008060006060848603121561100157611000610da1565b5b600061100f86828701610e25565b935050602061102086828701610e25565b925050604061103186828701610dc7565b9150509250925092565b600060ff82169050919050565b6110518161103b565b82525050565b600060208201905061106c6000830184611048565b92915050565b60006020828403121561108857611087610da1565b5b600061109684828501610dc7565b91505092915050565b6110a881610dfc565b82525050565b60006060820190506110c36000830186610fbe565b6110d06020830185610fbe565b6110dd604083018461109f565b949350505050565b6000602082840312156110fb576110fa610da1565b5b600061110984828501610e25565b91505092915050565b6000806040838503121561112957611128610da1565b5b600061113785828601610e25565b925050602061114885828601610e25565b9150509250929050565b7f4e487b7100000000000000000000000000000000000000000000000000000000600052601160045260246000fd5b600061118c82610da6565b915061119783610da6565b9250827fffffffffffffffffffffffffffffffffffffffffffffffffffffffffffffffff038211156111cc576111cb611152565b5b828201905092915050565b60006111e282610da6565b91506111ed83610da6565b925082821015611200576111ff611152565b5b828203905092915050565b6000606082019050611220600083018661109f565b61122d602083018561109f565b61123a6040830184610fbe565b949350505050565b7f45524332303a20617070726f76652066726f6d20746865207a65726f2061646460008201527f7265737300000000000000000000000000000000000000000000000000000000602082015250565b600061129e602483610e98565b91506112a982611242565b604082019050919050565b600060208201905081810360008301526112cd81611291565b9050919050565b7f45524332303a20617070726f766520746f20746865207a65726f20616464726560008201527f7373000000000000000000000000000000000000000000000000000000000000602082015250565b6000611330602283610e98565b915061133b826112d4565b604082019050919050565b6000602082019050818103600083015261135f81611323565b9050919050565b7f53636172636974793a207472616e736665722066726f6d20746865207a65726f60008201527f2061646472657373000000000000000000000000000000000000000000000000602082015250565b60006113c2602883610e98565b91506113cd82611366565b604082019050919050565b600060208201905081810360008301526113f1816113b5565b9050919050565b7f53636172636974793a207472616e7366657220746f20746865207a65726f206160008201527f6464726573730000000000000000000000000000000000000000000000000000602082015250565b6000611454602683610e98565b915061145f826113f8565b604082019050919050565b6000602082019050818103600083015261148381611447565b9050919050565b600061149582610da6565b91506114a083610da6565b9250817fffffffffffffffffffffffffffffffffffffffffffffffffffffffffffffffff04831182151516156114d9576114d8611152565b5b828202905092915050565b7f4e487b7100000000000000000000000000000000000000000000000000000000600052601260045260246000fd5b600061151e82610da6565b915061152983610da6565b925082611539576115386114e4565b5b82820490509291505056fea2646970667358221220d5303d9333f7dab1a3f8a2ba3b3c0c1b8b75fa0e0f8fe5679b96c22b6375681764736f6c634300080d0033",
  "linkReferences": {},
  "deployedLinkReferences": {}
}