{
  "_format": "hh-sol-artifact-1",
  "contractName": "LimboAddTokenToBehodlerTestNet",
  "sourceName": "contracts/testing/Morgoth/LimboAddTokenToBehodlerPower.sol",
  "abi": [
    {
      "inputs": [
        {
          "internalType": "address",
          "name": "angband",
          "type": "address"
        },
        {
          "internalType": "address",
          "name": "behodler",
          "type": "address"
        },
        {
          "internalType": "address",
          "name": "lachesis",
          "type": "address"
        },
        {
          "internalType": "address",
          "name": "limbo",
          "type": "address"
        }
      ],
      "stateMutability": "nonpayable",
      "type": "constructor"
    },
    {
      "anonymous": false,
      "inputs": [
        {
          "indexed": false,
          "internalType": "address",
          "name": "user",
          "type": "address"
        },
        {
          "indexed": false,
          "internalType": "bytes32",
          "name": "minion",
          "type": "bytes32"
        },
        {
          "indexed": false,
          "internalType": "bytes32",
          "name": "domain",
          "type": "bytes32"
        }
      ],
      "name": "PowerInvoked",
      "type": "event"
    },
    {
      "inputs": [
        {
          "internalType": "bytes32",
          "name": "minion",
          "type": "bytes32"
        },
        {
          "internalType": "address",
          "name": "sender",
          "type": "address"
        }
      ],
      "name": "invoke",
      "outputs": [],
      "stateMutability": "nonpayable",
      "type": "function"
    },
    {
      "inputs": [
        {
          "internalType": "address",
          "name": "soul",
          "type": "address"
        },
        {
          "internalType": "bool",
          "name": "burnable",
          "type": "bool"
        }
      ],
      "name": "parameterize",
      "outputs": [],
      "stateMutability": "nonpayable",
      "type": "function"
    },
    {
      "inputs": [],
      "name": "params",
      "outputs": [
        {
          "internalType": "address",
          "name": "soul",
          "type": "address"
        },
        {
          "internalType": "bool",
          "name": "burnable",
          "type": "bool"
        },
        {
          "internalType": "address",
          "name": "limbo",
          "type": "address"
        }
      ],
      "stateMutability": "view",
      "type": "function"
    }
  ],
  "bytecode": "0x60806040523480156200001157600080fd5b50604051620011a0380380620011a08339818101604052810190620000379190620001ba565b80600060010160006101000a81548173ffffffffffffffffffffffffffffffffffffffff021916908373ffffffffffffffffffffffffffffffffffffffff160217905550836002800160006101000a81548173ffffffffffffffffffffffffffffffffffffffff021916908373ffffffffffffffffffffffffffffffffffffffff16021790555081600260010160006101000a81548173ffffffffffffffffffffffffffffffffffffffff021916908373ffffffffffffffffffffffffffffffffffffffff16021790555082600260000160006101000a81548173ffffffffffffffffffffffffffffffffffffffff021916908373ffffffffffffffffffffffffffffffffffffffff160217905550505050506200022c565b600080fd5b600073ffffffffffffffffffffffffffffffffffffffff82169050919050565b6000620001828262000155565b9050919050565b620001948162000175565b8114620001a057600080fd5b50565b600081519050620001b48162000189565b92915050565b60008060008060808587031215620001d757620001d662000150565b5b6000620001e787828801620001a3565b9450506020620001fa87828801620001a3565b93505060406200020d87828801620001a3565b92505060606200022087828801620001a3565b91505092959194509250565b610f64806200023c6000396000f3fe608060405234801561001057600080fd5b50600436106100415760003560e01c806314c6fd2814610046578063c936c23314610062578063cff0ab961461007e575b600080fd5b610060600480360381019061005b91906109eb565b61009e565b005b61007c60048036038101906100779190610a61565b610194565b005b6100866102aa565b60405161009593929190610abf565b60405180910390f35b600060010160009054906101000a900473ffffffffffffffffffffffffffffffffffffffff1673ffffffffffffffffffffffffffffffffffffffff163373ffffffffffffffffffffffffffffffffffffffff1614610131576040517f08c379a000000000000000000000000000000000000000000000000000000000815260040161012890610b79565b60405180910390fd5b816000800160006101000a81548173ffffffffffffffffffffffffffffffffffffffff021916908373ffffffffffffffffffffffffffffffffffffffff160217905550806000800160146101000a81548160ff0219169083151502179055505050565b6002800160009054906101000a900473ffffffffffffffffffffffffffffffffffffffff1673ffffffffffffffffffffffffffffffffffffffff163373ffffffffffffffffffffffffffffffffffffffff1614610226576040517f08c379a000000000000000000000000000000000000000000000000000000000815260040161021d90610be5565b60405180910390fd5b61022e61030f565b61026d576040517f08c379a000000000000000000000000000000000000000000000000000000000815260040161026490610c51565b60405180910390fd5b7fbf5b23777e352e9708c3b8c426082bfe210a51d7fa57e008add695df522b804c818360405161029e929190610ca6565b60405180910390a15050565b60008060000160009054906101000a900473ffffffffffffffffffffffffffffffffffffffff16908060000160149054906101000a900460ff16908060010160009054906101000a900473ffffffffffffffffffffffffffffffffffffffff16905083565b60008073ffffffffffffffffffffffffffffffffffffffff166000800160009054906101000a900473ffffffffffffffffffffffffffffffffffffffff1673ffffffffffffffffffffffffffffffffffffffff16036103a3576040517f08c379a000000000000000000000000000000000000000000000000000000000815260040161039a90610d4d565b60405180910390fd5b6000600260010160009054906101000a900473ffffffffffffffffffffffffffffffffffffffff1690508073ffffffffffffffffffffffffffffffffffffffff166366ce93ca6000800160009054906101000a900473ffffffffffffffffffffffffffffffffffffffff1660016000800160149054906101000a900460ff166040518463ffffffff1660e01b815260040161044093929190610d6d565b600060405180830381600087803b15801561045a57600080fd5b505af115801561046e573d6000803e3d6000fd5b505050508073ffffffffffffffffffffffffffffffffffffffff16637a29e0226000800160009054906101000a900473ffffffffffffffffffffffffffffffffffffffff166040518263ffffffff1660e01b81526004016104cf9190610da4565b600060405180830381600087803b1580156104e957600080fd5b505af11580156104fd573d6000803e3d6000fd5b5050505060008060000160009054906101000a900473ffffffffffffffffffffffffffffffffffffffff1673ffffffffffffffffffffffffffffffffffffffff166370a08231306040518263ffffffff1660e01b81526004016105609190610da4565b602060405180830381865afa15801561057d573d6000803e3d6000fd5b505050506040513d601f19601f820116820180604052508101906105a19190610df5565b9050600081116105e6576040517f08c379a00000000000000000000000000000000000000000000000000000000081526004016105dd90610e94565b60405180910390fd5b6000800160009054906101000a900473ffffffffffffffffffffffffffffffffffffffff1673ffffffffffffffffffffffffffffffffffffffff1663095ea7b3600260000160009054906101000a900473ffffffffffffffffffffffffffffffffffffffff167fffffffffffffffffffffffffffffffffffffffffffffffffffffffffffffffff6040518363ffffffff1660e01b815260040161068a929190610ec3565b6020604051808303816000875af11580156106a9573d6000803e3d6000fd5b505050506040513d601f19601f820116820180604052508101906106cd9190610f01565b50600260000160009054906101000a900473ffffffffffffffffffffffffffffffffffffffff1673ffffffffffffffffffffffffffffffffffffffff1663566887006000800160009054906101000a900473ffffffffffffffffffffffffffffffffffffffff16836040518363ffffffff1660e01b8152600401610752929190610ec3565b6020604051808303816000875af1158015610771573d6000803e3d6000fd5b505050506040513d601f19601f820116820180604052508101906107959190610df5565b506000600260000160009054906101000a900473ffffffffffffffffffffffffffffffffffffffff1673ffffffffffffffffffffffffffffffffffffffff166370a08231306040518263ffffffff1660e01b81526004016107f69190610da4565b602060405180830381865afa158015610813573d6000803e3d6000fd5b505050506040513d601f19601f820116820180604052508101906108379190610df5565b9050600260000160009054906101000a900473ffffffffffffffffffffffffffffffffffffffff1673ffffffffffffffffffffffffffffffffffffffff1663a9059cbb600060010160009054906101000a900473ffffffffffffffffffffffffffffffffffffffff16836040518363ffffffff1660e01b81526004016108be929190610ec3565b6020604051808303816000875af11580156108dd573d6000803e3d6000fd5b505050506040513d601f19601f820116820180604052508101906109019190610f01565b5060008060000160006101000a81548173ffffffffffffffffffffffffffffffffffffffff021916908373ffffffffffffffffffffffffffffffffffffffff1602179055506001935050505090565b600080fd5b600073ffffffffffffffffffffffffffffffffffffffff82169050919050565b600061098082610955565b9050919050565b61099081610975565b811461099b57600080fd5b50565b6000813590506109ad81610987565b92915050565b60008115159050919050565b6109c8816109b3565b81146109d357600080fd5b50565b6000813590506109e5816109bf565b92915050565b60008060408385031215610a0257610a01610950565b5b6000610a108582860161099e565b9250506020610a21858286016109d6565b9150509250929050565b6000819050919050565b610a3e81610a2b565b8114610a4957600080fd5b50565b600081359050610a5b81610a35565b92915050565b60008060408385031215610a7857610a77610950565b5b6000610a8685828601610a4c565b9250506020610a978582860161099e565b9150509250929050565b610aaa81610975565b82525050565b610ab9816109b3565b82525050565b6000606082019050610ad46000830186610aa1565b610ae16020830185610ab0565b610aee6040830184610aa1565b949350505050565b600082825260208201905092915050565b7f4d4f52474f54483a204f6e6c79204c696d626f2063616e206d6967726174652060008201527f746f6b656e732066726f6d204c696d626f2e0000000000000000000000000000602082015250565b6000610b63603283610af6565b9150610b6e82610b07565b604082019050919050565b60006020820190508181036000830152610b9281610b56565b9050919050565b7f4d4f52474f54483a20616e6762616e64206f6e6c790000000000000000000000600082015250565b6000610bcf601583610af6565b9150610bda82610b99565b602082019050919050565b60006020820190508181036000830152610bfe81610bc2565b9050919050565b7f4d4f52474f54483a20506f77657220696e766f636174696f6e00000000000000600082015250565b6000610c3b601983610af6565b9150610c4682610c05565b602082019050919050565b60006020820190508181036000830152610c6a81610c2e565b9050919050565b610c7a81610a2b565b82525050565b7f646f6d61696e0000000000000000000000000000000000000000000000000000815250565b6000606082019050610cbb6000830185610aa1565b610cc86020830184610c71565b610cd460408301610c80565b9392505050565b7f4d4f52474f54483a20506f776572496e766f6b6572206e6f7420706172616d6560008201527f746572697a65642e000000000000000000000000000000000000000000000000602082015250565b6000610d37602883610af6565b9150610d4282610cdb565b604082019050919050565b60006020820190508181036000830152610d6681610d2a565b9050919050565b6000606082019050610d826000830186610aa1565b610d8f6020830185610ab0565b610d9c6040830184610ab0565b949350505050565b6000602082019050610db96000830184610aa1565b92915050565b6000819050919050565b610dd281610dbf565b8114610ddd57600080fd5b50565b600081519050610def81610dc9565b92915050565b600060208284031215610e0b57610e0a610950565b5b6000610e1984828501610de0565b91505092915050565b7f4d4f52474f54483a2072656d656d62657220746f207365656420636f6e74726160008201527f6374000000000000000000000000000000000000000000000000000000000000602082015250565b6000610e7e602283610af6565b9150610e8982610e22565b604082019050919050565b60006020820190508181036000830152610ead81610e71565b9050919050565b610ebd81610dbf565b82525050565b6000604082019050610ed86000830185610aa1565b610ee56020830184610eb4565b9392505050565b600081519050610efb816109bf565b92915050565b600060208284031215610f1757610f16610950565b5b6000610f2584828501610eec565b9150509291505056fea26469706673582212207353bd3cdeece0d4e5c534f7b5cf3ae3e587e72badfc67390ebfaec0b5dc845764736f6c634300080d0033",
  "linkReferences": {},
  "deployedLinkReferences": {}
}