{
  "_format": "hh-sol-artifact-1",
  "contractName": "FlanMinter",
  "sourceName": "contracts/testing/FlanMinter.sol",
  "abi": [
    {
      "inputs": [
        {
          "internalType": "address",
          "name": "_flan",
          "type": "address"
        }
      ],
      "stateMutability": "nonpayable",
      "type": "constructor"
    },
    {
      "inputs": [
        {
          "internalType": "uint256",
          "name": "etherUnits",
          "type": "uint256"
        }
      ],
      "name": "mintAlot",
      "outputs": [],
      "stateMutability": "nonpayable",
      "type": "function"
    }
  ],
  "bytecode": "0x608060405234801561001057600080fd5b5060405161041d38038061041d833981810160405281019061003291906100db565b806000806101000a81548173ffffffffffffffffffffffffffffffffffffffff021916908373ffffffffffffffffffffffffffffffffffffffff16021790555050610108565b600080fd5b600073ffffffffffffffffffffffffffffffffffffffff82169050919050565b60006100a88261007d565b9050919050565b6100b88161009d565b81146100c357600080fd5b50565b6000815190506100d5816100af565b92915050565b6000602082840312156100f1576100f0610078565b5b60006100ff848285016100c6565b91505092915050565b610306806101176000396000f3fe608060405234801561001057600080fd5b506004361061002b5760003560e01c806392d4925714610030575b600080fd5b61004a6004803603810190610045919061013c565b61004c565b005b60008054906101000a900473ffffffffffffffffffffffffffffffffffffffff1673ffffffffffffffffffffffffffffffffffffffff166340c10f1933670de0b6b3a76400008461009d9190610198565b6040518363ffffffff1660e01b81526004016100ba929190610242565b6020604051808303816000875af11580156100d9573d6000803e3d6000fd5b505050506040513d601f19601f820116820180604052508101906100fd91906102a3565b5050565b600080fd5b6000819050919050565b61011981610106565b811461012457600080fd5b50565b60008135905061013681610110565b92915050565b60006020828403121561015257610151610101565b5b600061016084828501610127565b91505092915050565b7f4e487b7100000000000000000000000000000000000000000000000000000000600052601160045260246000fd5b60006101a382610106565b91506101ae83610106565b9250817fffffffffffffffffffffffffffffffffffffffffffffffffffffffffffffffff04831182151516156101e7576101e6610169565b5b828202905092915050565b600073ffffffffffffffffffffffffffffffffffffffff82169050919050565b600061021d826101f2565b9050919050565b61022d81610212565b82525050565b61023c81610106565b82525050565b60006040820190506102576000830185610224565b6102646020830184610233565b9392505050565b60008115159050919050565b6102808161026b565b811461028b57600080fd5b50565b60008151905061029d81610277565b92915050565b6000602082840312156102b9576102b8610101565b5b60006102c78482850161028e565b9150509291505056fea26469706673582212205bc789804c65ca90f4c7bbc480779076bb4e0c6d039f8c5d2606aeeb68d2d1d664736f6c634300080d0033",
  "linkReferences": {},
  "deployedLinkReferences": {}
}