{
  "_format": "hh-sol-artifact-1",
  "contractName": "MockAddTokenPower",
  "sourceName": "contracts/testing/MockAddTokenPower.sol",
  "abi": [
    {
      "inputs": [],
      "name": "invoke",
      "outputs": [],
      "stateMutability": "nonpayable",
      "type": "function"
    },
    {
      "inputs": [
        {
          "internalType": "address",
          "name": "token",
          "type": "address"
        },
        {
          "internalType": "bool",
          "name": "burnable",
          "type": "bool"
        }
      ],
      "name": "parameterize",
      "outputs": [],
      "stateMutability": "nonpayable",
      "type": "function"
    },
    {
      "inputs": [
        {
          "internalType": "address",
          "name": "_behodler",
          "type": "address"
        },
        {
          "internalType": "address",
          "name": "_limbo",
          "type": "address"
        }
      ],
      "name": "seed",
      "outputs": [],
      "stateMutability": "nonpayable",
      "type": "function"
    },
    {
      "inputs": [
        {
          "internalType": "uint256",
          "name": "_scarcity",
          "type": "uint256"
        }
      ],
      "name": "setScarcityToMint",
      "outputs": [],
      "stateMutability": "nonpayable",
      "type": "function"
    }
  ],
  "bytecode": "0x608060405261271060025534801561001657600080fd5b506104ec806100266000396000f3fe608060405234801561001057600080fd5b506004361061004c5760003560e01c806314c6fd2814610051578063289add0c1461006d5780639127d6c814610089578063cab7f521146100a5575b600080fd5b61006b6004803603810190610066919061032f565b6100af565b005b6100876004803603810190610082919061036f565b6100b3565b005b6100a3600480360381019061009e91906103e5565b610138565b005b6100ad610142565b005b5050565b80600160006101000a81548173ffffffffffffffffffffffffffffffffffffffff021916908373ffffffffffffffffffffffffffffffffffffffff160217905550816000806101000a81548173ffffffffffffffffffffffffffffffffffffffff021916908373ffffffffffffffffffffffffffffffffffffffff1602179055505050565b8060028190555050565b60008054906101000a900473ffffffffffffffffffffffffffffffffffffffff1673ffffffffffffffffffffffffffffffffffffffff1663a0712d686002546040518263ffffffff1660e01b815260040161019d9190610421565b600060405180830381600087803b1580156101b757600080fd5b505af11580156101cb573d6000803e3d6000fd5b5050505060008054906101000a900473ffffffffffffffffffffffffffffffffffffffff1673ffffffffffffffffffffffffffffffffffffffff1663a9059cbb600160009054906101000a900473ffffffffffffffffffffffffffffffffffffffff166002546040518363ffffffff1660e01b815260040161024e92919061044b565b6020604051808303816000875af115801561026d573d6000803e3d6000fd5b505050506040513d601f19601f820116820180604052508101906102919190610489565b50565b600080fd5b600073ffffffffffffffffffffffffffffffffffffffff82169050919050565b60006102c482610299565b9050919050565b6102d4816102b9565b81146102df57600080fd5b50565b6000813590506102f1816102cb565b92915050565b60008115159050919050565b61030c816102f7565b811461031757600080fd5b50565b60008135905061032981610303565b92915050565b6000806040838503121561034657610345610294565b5b6000610354858286016102e2565b92505060206103658582860161031a565b9150509250929050565b6000806040838503121561038657610385610294565b5b6000610394858286016102e2565b92505060206103a5858286016102e2565b9150509250929050565b6000819050919050565b6103c2816103af565b81146103cd57600080fd5b50565b6000813590506103df816103b9565b92915050565b6000602082840312156103fb576103fa610294565b5b6000610409848285016103d0565b91505092915050565b61041b816103af565b82525050565b60006020820190506104366000830184610412565b92915050565b610445816102b9565b82525050565b6000604082019050610460600083018561043c565b61046d6020830184610412565b9392505050565b60008151905061048381610303565b92915050565b60006020828403121561049f5761049e610294565b5b60006104ad84828501610474565b9150509291505056fea26469706673582212201e75951166ff6aab92013fc24a43430a73c6a973d3adcff8c8f7a3b66ea8b90f64736f6c634300080d0033",
  "linkReferences": {},
  "deployedLinkReferences": {}
}