{
  "_format": "hh-sol-artifact-1",
  "contractName": "MockAddTokenPower",
  "sourceName": "contracts/testing/MockAddTokenPower.sol",
  "abi": [
    {
      "inputs": [
        {
          "internalType": "address",
          "name": "_angband",
          "type": "address"
        },
        {
          "internalType": "address",
          "name": "limbo",
          "type": "address"
        },
        {
          "internalType": "address",
          "name": "proxyRegistry",
          "type": "address"
        }
      ],
      "stateMutability": "nonpayable",
      "type": "constructor"
    },
    {
      "inputs": [],
      "name": "invoke",
      "outputs": [],
      "stateMutability": "nonpayable",
      "type": "function"
    },
    {
      "inputs": [
        {
          "internalType": "address",
          "name": "token",
          "type": "address"
        },
        {
          "internalType": "bool",
          "name": "burnable",
          "type": "bool"
        }
      ],
      "name": "parameterize",
      "outputs": [],
      "stateMutability": "nonpayable",
      "type": "function"
    },
    {
      "inputs": [],
      "name": "params",
      "outputs": [
        {
          "internalType": "address",
          "name": "soul",
          "type": "address"
        },
        {
          "internalType": "bool",
          "name": "burnable",
          "type": "bool"
        },
        {
          "internalType": "address",
          "name": "limbo",
          "type": "address"
        },
        {
          "internalType": "address",
          "name": "tokenProxyRegistry",
          "type": "address"
        }
      ],
      "stateMutability": "view",
      "type": "function"
    },
    {
      "inputs": [
        {
          "internalType": "address",
          "name": "_behodler",
          "type": "address"
        },
        {
          "internalType": "address",
          "name": "_limbo",
          "type": "address"
        }
      ],
      "name": "seed",
      "outputs": [],
      "stateMutability": "nonpayable",
      "type": "function"
    },
    {
      "inputs": [
        {
          "internalType": "uint256",
          "name": "_scarcity",
          "type": "uint256"
        }
      ],
      "name": "setScarcityToMint",
      "outputs": [],
      "stateMutability": "nonpayable",
      "type": "function"
    }
  ],
  "bytecode": "0x608060405261271060045534801561001657600080fd5b5060405161078f38038061078f8339818101604052810190610038919061012b565b81600060010160006101000a81548173ffffffffffffffffffffffffffffffffffffffff021916908373ffffffffffffffffffffffffffffffffffffffff16021790555080600060020160006101000a81548173ffffffffffffffffffffffffffffffffffffffff021916908373ffffffffffffffffffffffffffffffffffffffff16021790555050505061017e565b600080fd5b600073ffffffffffffffffffffffffffffffffffffffff82169050919050565b60006100f8826100cd565b9050919050565b610108816100ed565b811461011357600080fd5b50565b600081519050610125816100ff565b92915050565b600080600060608486031215610144576101436100c8565b5b600061015286828701610116565b935050602061016386828701610116565b925050604061017486828701610116565b9150509250925092565b6106028061018d6000396000f3fe608060405234801561001057600080fd5b50600436106100575760003560e01c806314c6fd281461005c578063289add0c146100785780639127d6c814610094578063cab7f521146100b0578063cff0ab96146100ba575b600080fd5b610076600480360381019061007191906103f1565b6100db565b005b610092600480360381019061008d9190610431565b6100df565b005b6100ae60048036038101906100a991906104a7565b610168565b005b6100b8610172565b005b6100c26102cb565b6040516100d294939291906104f2565b60405180910390f35b5050565b80600060010160006101000a81548173ffffffffffffffffffffffffffffffffffffffff021916908373ffffffffffffffffffffffffffffffffffffffff16021790555081600360006101000a81548173ffffffffffffffffffffffffffffffffffffffff021916908373ffffffffffffffffffffffffffffffffffffffff1602179055505050565b8060048190555050565b600360009054906101000a900473ffffffffffffffffffffffffffffffffffffffff1673ffffffffffffffffffffffffffffffffffffffff1663a0712d686004546040518263ffffffff1660e01b81526004016101cf9190610546565b600060405180830381600087803b1580156101e957600080fd5b505af11580156101fd573d6000803e3d6000fd5b50505050600360009054906101000a900473ffffffffffffffffffffffffffffffffffffffff1673ffffffffffffffffffffffffffffffffffffffff1663a9059cbb600060010160009054906101000a900473ffffffffffffffffffffffffffffffffffffffff166004546040518363ffffffff1660e01b8152600401610285929190610561565b6020604051808303816000875af11580156102a4573d6000803e3d6000fd5b505050506040513d601f19601f820116820180604052508101906102c8919061059f565b50565b60008060000160009054906101000a900473ffffffffffffffffffffffffffffffffffffffff16908060000160149054906101000a900460ff16908060010160009054906101000a900473ffffffffffffffffffffffffffffffffffffffff16908060020160009054906101000a900473ffffffffffffffffffffffffffffffffffffffff16905084565b600080fd5b600073ffffffffffffffffffffffffffffffffffffffff82169050919050565b60006103868261035b565b9050919050565b6103968161037b565b81146103a157600080fd5b50565b6000813590506103b38161038d565b92915050565b60008115159050919050565b6103ce816103b9565b81146103d957600080fd5b50565b6000813590506103eb816103c5565b92915050565b6000806040838503121561040857610407610356565b5b6000610416858286016103a4565b9250506020610427858286016103dc565b9150509250929050565b6000806040838503121561044857610447610356565b5b6000610456858286016103a4565b9250506020610467858286016103a4565b9150509250929050565b6000819050919050565b61048481610471565b811461048f57600080fd5b50565b6000813590506104a18161047b565b92915050565b6000602082840312156104bd576104bc610356565b5b60006104cb84828501610492565b91505092915050565b6104dd8161037b565b82525050565b6104ec816103b9565b82525050565b600060808201905061050760008301876104d4565b61051460208301866104e3565b61052160408301856104d4565b61052e60608301846104d4565b95945050505050565b61054081610471565b82525050565b600060208201905061055b6000830184610537565b92915050565b600060408201905061057660008301856104d4565b6105836020830184610537565b9392505050565b600081519050610599816103c5565b92915050565b6000602082840312156105b5576105b4610356565b5b60006105c38482850161058a565b9150509291505056fea264697066735822122092e3ea997a8a97f33c03982fde22336cc884a35df85f137d0d4b6ee8e8b5f82064736f6c634300080d0033",
  "linkReferences": {},
  "deployedLinkReferences": {}
}