{
  "_format": "hh-sol-artifact-1",
  "contractName": "SoulReader",
  "sourceName": "contracts/periphery/SoulReader.sol",
  "abi": [
    {
      "inputs": [
        {
          "internalType": "address",
          "name": "token",
          "type": "address"
        },
        {
          "internalType": "address",
          "name": "_limbo",
          "type": "address"
        }
      ],
      "name": "CrossingParameters",
      "outputs": [
        {
          "internalType": "uint256",
          "name": "",
          "type": "uint256"
        },
        {
          "internalType": "int256",
          "name": "",
          "type": "int256"
        },
        {
          "internalType": "uint256",
          "name": "",
          "type": "uint256"
        }
      ],
      "stateMutability": "view",
      "type": "function"
    },
    {
      "inputs": [
        {
          "internalType": "address",
          "name": "holder",
          "type": "address"
        },
        {
          "internalType": "address",
          "name": "token",
          "type": "address"
        },
        {
          "internalType": "address",
          "name": "_limbo",
          "type": "address"
        }
      ],
      "name": "ExpectedCrossingBonus",
      "outputs": [
        {
          "internalType": "uint256",
          "name": "flanBonus",
          "type": "uint256"
        }
      ],
      "stateMutability": "view",
      "type": "function"
    },
    {
      "inputs": [
        {
          "internalType": "address",
          "name": "holder",
          "type": "address"
        },
        {
          "internalType": "address",
          "name": "token",
          "type": "address"
        },
        {
          "internalType": "address",
          "name": "_limbo",
          "type": "address"
        }
      ],
      "name": "ExpectedCrossingBonusRate",
      "outputs": [
        {
          "internalType": "uint256",
          "name": "bonusRate",
          "type": "uint256"
        }
      ],
      "stateMutability": "view",
      "type": "function"
    },
    {
      "inputs": [
        {
          "internalType": "address",
          "name": "account",
          "type": "address"
        },
        {
          "internalType": "address",
          "name": "token",
          "type": "address"
        },
        {
          "internalType": "address",
          "name": "_limbo",
          "type": "address"
        }
      ],
      "name": "GetPendingReward",
      "outputs": [
        {
          "internalType": "uint256",
          "name": "",
          "type": "uint256"
        }
      ],
      "stateMutability": "view",
      "type": "function"
    },
    {
      "inputs": [
        {
          "internalType": "address",
          "name": "token",
          "type": "address"
        },
        {
          "internalType": "address",
          "name": "_limbo",
          "type": "address"
        }
      ],
      "name": "SoulStats",
      "outputs": [
        {
          "internalType": "uint256",
          "name": "",
          "type": "uint256"
        },
        {
          "internalType": "uint256",
          "name": "",
          "type": "uint256"
        },
        {
          "internalType": "uint256",
          "name": "",
          "type": "uint256"
        }
      ],
      "stateMutability": "view",
      "type": "function"
    }
  ],
  "bytecode": "0x608060405234801561001057600080fd5b506113d9806100206000396000f3fe608060405234801561001057600080fd5b50600436106100575760003560e01c80630591fac41461005c578063234b11ae1461008e5780636566b73d146100be578063701d6efc146100ee578063b961d8ac14610120575b600080fd5b61007660048036038101906100719190610c95565b610150565b60405161008593929190610cee565b60405180910390f35b6100a860048036038101906100a39190610d25565b6102f9565b6040516100b59190610d78565b60405180910390f35b6100d860048036038101906100d39190610d25565b610551565b6040516100e59190610d78565b60405180910390f35b61010860048036038101906101039190610c95565b6108e4565b60405161011793929190610dac565b60405180910390f35b61013a60048036038101906101359190610d25565b610a93565b6040516101479190610d78565b60405180910390f35b60008060008061015f85610bf2565b905060008173ffffffffffffffffffffffffffffffffffffffff1663057e9b96886040518263ffffffff1660e01b815260040161019c9190610df2565b602060405180830381865afa1580156101b9573d6000803e3d6000fd5b505050506040513d601f19601f820116820180604052508101906101dd9190610e39565b90506000808373ffffffffffffffffffffffffffffffffffffffff1663c12cbe868a856040518363ffffffff1660e01b815260040161021d929190610e66565b60c060405180830381865afa15801561023a573d6000803e3d6000fd5b505050506040513d601f19601f8201168201806040525081019061025e9190610e8f565b955095505050505060008973ffffffffffffffffffffffffffffffffffffffff166370a08231866040518263ffffffff1660e01b81526004016102a19190610df2565b602060405180830381865afa1580156102be573d6000803e3d6000fd5b505050506040513d601f19601f820116820180604052508101906102e29190610e39565b905082818397509750975050505050509250925092565b60008061030583610bf2565b905060008173ffffffffffffffffffffffffffffffffffffffff1663057e9b96866040518263ffffffff1660e01b81526004016103429190610df2565b602060405180830381865afa15801561035f573d6000803e3d6000fd5b505050506040513d601f19601f820116820180604052508101906103839190610e39565b90506000808373ffffffffffffffffffffffffffffffffffffffff166315a13a3f888a866040518463ffffffff1660e01b81526004016103c593929190610f1c565b606060405180830381865afa1580156103e2573d6000803e3d6000fd5b505050506040513d601f19601f820116820180604052508101906104069190610f8b565b9250509150801561041e57600094505050505061054a565b6000806000808773ffffffffffffffffffffffffffffffffffffffff166325c2c3898c896040518363ffffffff1660e01b815260040161045f929190610e66565b60a060405180830381865afa15801561047c573d6000803e3d6000fd5b505050506040513d601f19601f820116820180604052508101906104a0919061100a565b509350935093509350600083146104b757826104b9565b425b9250600084146104c957836104d7565b6001426104d691906110b4565b5b9350838310156104f25760009850505050505050505061054a565b6000848461050091906110b4565b8361050b91906110e8565b9050600080881161051d57600061051f565b815b8361052a91906111ff565b90506000811361053b57600061053d565b805b9a50505050505050505050505b9392505050565b60008061055d83610bf2565b905060008173ffffffffffffffffffffffffffffffffffffffff1663057e9b96866040518263ffffffff1660e01b815260040161059a9190610df2565b602060405180830381865afa1580156105b7573d6000803e3d6000fd5b505050506040513d601f19601f820116820180604052508101906105db9190610e39565b90506105e5610bfc565b8273ffffffffffffffffffffffffffffffffffffffff1663c12cbe8687846040518363ffffffff1660e01b8152600401610620929190610e66565b60c060405180830381865afa15801561063d573d6000803e3d6000fd5b505050506040513d601f19601f820116820180604052508101906106619190610e8f565b909192509091508460000185602001866080018760a001848152508481525084815250848152505050505060008373ffffffffffffffffffffffffffffffffffffffff166325c2c38988856040518363ffffffff1660e01b81526004016106c9929190610e66565b60a060405180830381865afa1580156106e6573d6000803e3d6000fd5b505050506040513d601f19601f8201168201806040525081019061070a919061100a565b505050915050600060018360800151036107245742610726565b815b905060008873ffffffffffffffffffffffffffffffffffffffff166370a08231876040518263ffffffff1660e01b81526004016107639190610df2565b602060405180830381865afa158015610780573d6000803e3d6000fd5b505050506040513d601f19601f820116820180604052508101906107a49190610e39565b90506000808773ffffffffffffffffffffffffffffffffffffffff166315a13a3f8c8e8a6040518463ffffffff1660e01b81526004016107e693929190610f1c565b606060405180830381865afa158015610803573d6000803e3d6000fd5b505050506040513d601f19601f820116820180604052508101906108279190610f8b565b50915091506000831115610888578264e8d4a510008760a0015188600001518761085191906110b4565b61085b9190611293565b6108659190611293565b61086f919061131c565b866020015161087e919061134d565b8660200181815250505b600064e8d4a510008760200151846108a09190611293565b6108aa919061131c565b90508181106108cf5781816108bf91906110b4565b99505050505050505050506108dd565b600099505050505050505050505b9392505050565b6000806000806108f385610bf2565b905060008173ffffffffffffffffffffffffffffffffffffffff1663057e9b96886040518263ffffffff1660e01b81526004016109309190610df2565b602060405180830381865afa15801561094d573d6000803e3d6000fd5b505050506040513d601f19601f820116820180604052508101906109719190610e39565b905060008273ffffffffffffffffffffffffffffffffffffffff1663c12cbe8689846040518363ffffffff1660e01b81526004016109b0929190610e66565b60c060405180830381865afa1580156109cd573d6000803e3d6000fd5b505050506040513d601f19601f820116820180604052508101906109f19190610e8f565b955050505050506000808473ffffffffffffffffffffffffffffffffffffffff166325c2c3898b866040518363ffffffff1660e01b8152600401610a36929190610e66565b60a060405180830381865afa158015610a53573d6000803e3d6000fd5b505050506040513d601f19601f82011682018060405250810190610a77919061100a565b5093509350505080828497509750975050505050509250925092565b600080610a9f83610bf2565b905060008173ffffffffffffffffffffffffffffffffffffffff1663057e9b96866040518263ffffffff1660e01b8152600401610adc9190610df2565b602060405180830381865afa158015610af9573d6000803e3d6000fd5b505050506040513d601f19601f82011682018060405250810190610b1d9190610e39565b90506000808373ffffffffffffffffffffffffffffffffffffffff166315a13a3f888a866040518463ffffffff1660e01b8152600401610b5f93929190610f1c565b606060405180830381865afa158015610b7c573d6000803e3d6000fd5b505050506040513d601f19601f82011682018060405250810190610ba09190610f8b565b92505091508015610bb8576000945050505050610beb565b6000610bc58989896102f9565b905064e8d4a510008382610bd99190611293565b610be3919061131c565b955050505050505b9392505050565b6000819050919050565b6040518060c001604052806000815260200160008152602001600081526020016000815260200160008152602001600081525090565b600080fd5b600073ffffffffffffffffffffffffffffffffffffffff82169050919050565b6000610c6282610c37565b9050919050565b610c7281610c57565b8114610c7d57600080fd5b50565b600081359050610c8f81610c69565b92915050565b60008060408385031215610cac57610cab610c32565b5b6000610cba85828601610c80565b9250506020610ccb85828601610c80565b9150509250929050565b6000819050919050565b610ce881610cd5565b82525050565b6000606082019050610d036000830186610cdf565b610d106020830185610cdf565b610d1d6040830184610cdf565b949350505050565b600080600060608486031215610d3e57610d3d610c32565b5b6000610d4c86828701610c80565b9350506020610d5d86828701610c80565b9250506040610d6e86828701610c80565b9150509250925092565b6000602082019050610d8d6000830184610cdf565b92915050565b6000819050919050565b610da681610d93565b82525050565b6000606082019050610dc16000830186610cdf565b610dce6020830185610d9d565b610ddb6040830184610cdf565b949350505050565b610dec81610c57565b82525050565b6000602082019050610e076000830184610de3565b92915050565b610e1681610cd5565b8114610e2157600080fd5b50565b600081519050610e3381610e0d565b92915050565b600060208284031215610e4f57610e4e610c32565b5b6000610e5d84828501610e24565b91505092915050565b6000604082019050610e7b6000830185610de3565b610e886020830184610cdf565b9392505050565b60008060008060008060c08789031215610eac57610eab610c32565b5b6000610eba89828a01610e24565b9650506020610ecb89828a01610e24565b9550506040610edc89828a01610e24565b9450506060610eed89828a01610e24565b9350506080610efe89828a01610e24565b92505060a0610f0f89828a01610e24565b9150509295509295509295565b6000606082019050610f316000830186610de3565b610f3e6020830185610de3565b610f4b6040830184610cdf565b949350505050565b60008115159050919050565b610f6881610f53565b8114610f7357600080fd5b50565b600081519050610f8581610f5f565b92915050565b600080600060608486031215610fa457610fa3610c32565b5b6000610fb286828701610e24565b9350506020610fc386828701610e24565b9250506040610fd486828701610f76565b9150509250925092565b610fe781610d93565b8114610ff257600080fd5b50565b60008151905061100481610fde565b92915050565b600080600080600060a0868803121561102657611025610c32565b5b600061103488828901610e24565b955050602061104588828901610e24565b945050604061105688828901610ff5565b935050606061106788828901610e24565b925050608061107888828901610f76565b9150509295509295909350565b7f4e487b7100000000000000000000000000000000000000000000000000000000600052601160045260246000fd5b60006110bf82610cd5565b91506110ca83610cd5565b9250828210156110dd576110dc611085565b5b828203905092915050565b60006110f382610d93565b91506110fe83610d93565b9250827f7fffffffffffffffffffffffffffffffffffffffffffffffffffffffffffffff048211600084136000841316161561113d5761113c611085565b5b817f8000000000000000000000000000000000000000000000000000000000000000058312600084126000841316161561117a57611179611085565b5b827f800000000000000000000000000000000000000000000000000000000000000005821260008413600084121616156111b7576111b6611085565b5b827f7fffffffffffffffffffffffffffffffffffffffffffffffffffffffffffffff05821260008412600084121616156111f4576111f3611085565b5b828202905092915050565b600061120a82610d93565b915061121583610d93565b9250817f7fffffffffffffffffffffffffffffffffffffffffffffffffffffffffffffff038313600083121516156112505761124f611085565b5b817f800000000000000000000000000000000000000000000000000000000000000003831260008312161561128857611287611085565b5b828201905092915050565b600061129e82610cd5565b91506112a983610cd5565b9250817fffffffffffffffffffffffffffffffffffffffffffffffffffffffffffffffff04831182151516156112e2576112e1611085565b5b828202905092915050565b7f4e487b7100000000000000000000000000000000000000000000000000000000600052601260045260246000fd5b600061132782610cd5565b915061133283610cd5565b925082611342576113416112ed565b5b828204905092915050565b600061135882610cd5565b915061136383610cd5565b9250827fffffffffffffffffffffffffffffffffffffffffffffffffffffffffffffffff0382111561139857611397611085565b5b82820190509291505056fea26469706673582212207f5d602c760d9acd7ed611d1026d85a8fdb6fe1578397303bf48ebac5e8c6d9d64736f6c634300080d0033",
  "linkReferences": {},
  "deployedLinkReferences": {}
}