{
  "_format": "hh-sol-artifact-1",
  "contractName": "MockToken",
  "sourceName": "contracts/testing/MockToken.sol",
  "abi": [
    {
      "inputs": [
        {
          "internalType": "string",
          "name": "name",
          "type": "string"
        },
        {
          "internalType": "string",
          "name": "symbol",
          "type": "string"
        },
        {
          "internalType": "address[]",
          "name": "LPs",
          "type": "address[]"
        },
        {
          "internalType": "uint256[]",
          "name": "mintVal",
          "type": "uint256[]"
        }
      ],
      "stateMutability": "nonpayable",
      "type": "constructor"
    },
    {
      "inputs": [
        {
          "internalType": "uint256",
          "name": "allowance",
          "type": "uint256"
        },
        {
          "internalType": "uint256",
          "name": "amount",
          "type": "uint256"
        }
      ],
      "name": "AllowanceExceeded",
      "type": "error"
    },
    {
      "inputs": [
        {
          "internalType": "uint256",
          "name": "allowance",
          "type": "uint256"
        },
        {
          "internalType": "uint256",
          "name": "subtraction",
          "type": "uint256"
        }
      ],
      "name": "AllowanceUnderflow",
      "type": "error"
    },
    {
      "inputs": [
        {
          "internalType": "uint256",
          "name": "accountBalance",
          "type": "uint256"
        },
        {
          "internalType": "uint256",
          "name": "amount",
          "type": "uint256"
        }
      ],
      "name": "BurnUnderflow",
      "type": "error"
    },
    {
      "inputs": [
        {
          "internalType": "address",
          "name": "caller",
          "type": "address"
        },
        {
          "internalType": "address",
          "name": "owner",
          "type": "address"
        }
      ],
      "name": "OnlyOwner",
      "type": "error"
    },
    {
      "inputs": [],
      "name": "TransferToZeroAddress",
      "type": "error"
    },
    {
      "inputs": [
        {
          "internalType": "uint256",
          "name": "senderBalance",
          "type": "uint256"
        },
        {
          "internalType": "uint256",
          "name": "fee",
          "type": "uint256"
        },
        {
          "internalType": "uint256",
          "name": "amount",
          "type": "uint256"
        }
      ],
      "name": "TransferUnderflow",
      "type": "error"
    },
    {
      "anonymous": false,
      "inputs": [
        {
          "indexed": true,
          "internalType": "address",
          "name": "owner",
          "type": "address"
        },
        {
          "indexed": true,
          "internalType": "address",
          "name": "spender",
          "type": "address"
        },
        {
          "indexed": false,
          "internalType": "uint256",
          "name": "value",
          "type": "uint256"
        }
      ],
      "name": "Approval",
      "type": "event"
    },
    {
      "anonymous": false,
      "inputs": [
        {
          "indexed": true,
          "internalType": "address",
          "name": "previousOwner",
          "type": "address"
        },
        {
          "indexed": true,
          "internalType": "address",
          "name": "newOwner",
          "type": "address"
        }
      ],
      "name": "OwnershipTransferred",
      "type": "event"
    },
    {
      "anonymous": false,
      "inputs": [
        {
          "indexed": true,
          "internalType": "address",
          "name": "from",
          "type": "address"
        },
        {
          "indexed": true,
          "internalType": "address",
          "name": "to",
          "type": "address"
        },
        {
          "indexed": false,
          "internalType": "uint256",
          "name": "value",
          "type": "uint256"
        }
      ],
      "name": "Transfer",
      "type": "event"
    },
    {
      "inputs": [
        {
          "internalType": "address",
          "name": "owner",
          "type": "address"
        },
        {
          "internalType": "address",
          "name": "spender",
          "type": "address"
        }
      ],
      "name": "allowance",
      "outputs": [
        {
          "internalType": "uint256",
          "name": "",
          "type": "uint256"
        }
      ],
      "stateMutability": "view",
      "type": "function"
    },
    {
      "inputs": [
        {
          "internalType": "address",
          "name": "spender",
          "type": "address"
        },
        {
          "internalType": "uint256",
          "name": "amount",
          "type": "uint256"
        }
      ],
      "name": "approve",
      "outputs": [
        {
          "internalType": "bool",
          "name": "",
          "type": "bool"
        }
      ],
      "stateMutability": "nonpayable",
      "type": "function"
    },
    {
      "inputs": [
        {
          "internalType": "address",
          "name": "account",
          "type": "address"
        }
      ],
      "name": "balanceOf",
      "outputs": [
        {
          "internalType": "uint256",
          "name": "",
          "type": "uint256"
        }
      ],
      "stateMutability": "view",
      "type": "function"
    },
    {
      "inputs": [
        {
          "internalType": "uint256",
          "name": "amount",
          "type": "uint256"
        }
      ],
      "name": "burn",
      "outputs": [
        {
          "internalType": "bool",
          "name": "",
          "type": "bool"
        }
      ],
      "stateMutability": "nonpayable",
      "type": "function"
    },
    {
      "inputs": [
        {
          "internalType": "address",
          "name": "account",
          "type": "address"
        },
        {
          "internalType": "uint256",
          "name": "amount",
          "type": "uint256"
        }
      ],
      "name": "burnFrom",
      "outputs": [],
      "stateMutability": "nonpayable",
      "type": "function"
    },
    {
      "inputs": [],
      "name": "decimals",
      "outputs": [
        {
          "internalType": "uint8",
          "name": "",
          "type": "uint8"
        }
      ],
      "stateMutability": "view",
      "type": "function"
    },
    {
      "inputs": [
        {
          "internalType": "address",
          "name": "spender",
          "type": "address"
        },
        {
          "internalType": "uint256",
          "name": "subtractedValue",
          "type": "uint256"
        }
      ],
      "name": "decreaseAllowance",
      "outputs": [
        {
          "internalType": "bool",
          "name": "",
          "type": "bool"
        }
      ],
      "stateMutability": "nonpayable",
      "type": "function"
    },
    {
      "inputs": [
        {
          "internalType": "address",
          "name": "spender",
          "type": "address"
        },
        {
          "internalType": "uint256",
          "name": "addedValue",
          "type": "uint256"
        }
      ],
      "name": "increaseAllowance",
      "outputs": [
        {
          "internalType": "bool",
          "name": "",
          "type": "bool"
        }
      ],
      "stateMutability": "nonpayable",
      "type": "function"
    },
    {
      "inputs": [
        {
          "internalType": "uint256",
          "name": "amount",
          "type": "uint256"
        }
      ],
      "name": "mint",
      "outputs": [],
      "stateMutability": "nonpayable",
      "type": "function"
    },
    {
      "inputs": [],
      "name": "name",
      "outputs": [
        {
          "internalType": "string",
          "name": "",
          "type": "string"
        }
      ],
      "stateMutability": "view",
      "type": "function"
    },
    {
      "inputs": [],
      "name": "owner",
      "outputs": [
        {
          "internalType": "address",
          "name": "",
          "type": "address"
        }
      ],
      "stateMutability": "view",
      "type": "function"
    },
    {
      "inputs": [],
      "name": "symbol",
      "outputs": [
        {
          "internalType": "string",
          "name": "",
          "type": "string"
        }
      ],
      "stateMutability": "view",
      "type": "function"
    },
    {
      "inputs": [],
      "name": "totalSupply",
      "outputs": [
        {
          "internalType": "uint256",
          "name": "",
          "type": "uint256"
        }
      ],
      "stateMutability": "view",
      "type": "function"
    },
    {
      "inputs": [
        {
          "internalType": "address",
          "name": "recipient",
          "type": "address"
        },
        {
          "internalType": "uint256",
          "name": "amount",
          "type": "uint256"
        }
      ],
      "name": "transfer",
      "outputs": [
        {
          "internalType": "bool",
          "name": "",
          "type": "bool"
        }
      ],
      "stateMutability": "nonpayable",
      "type": "function"
    },
    {
      "inputs": [
        {
          "internalType": "address",
          "name": "_to",
          "type": "address"
        },
        {
          "internalType": "uint256",
          "name": "_value",
          "type": "uint256"
        },
        {
          "internalType": "bytes",
          "name": "_data",
          "type": "bytes"
        }
      ],
      "name": "transferAndCall",
      "outputs": [
        {
          "internalType": "bool",
          "name": "success",
          "type": "bool"
        }
      ],
      "stateMutability": "nonpayable",
      "type": "function"
    },
    {
      "inputs": [
        {
          "internalType": "address",
          "name": "sender",
          "type": "address"
        },
        {
          "internalType": "address",
          "name": "recipient",
          "type": "address"
        },
        {
          "internalType": "uint256",
          "name": "amount",
          "type": "uint256"
        }
      ],
      "name": "transferFrom",
      "outputs": [
        {
          "internalType": "bool",
          "name": "",
          "type": "bool"
        }
      ],
      "stateMutability": "nonpayable",
      "type": "function"
    },
    {
      "inputs": [
        {
          "internalType": "address",
          "name": "newOwner",
          "type": "address"
        }
      ],
      "name": "transferOwnership",
      "outputs": [],
      "stateMutability": "nonpayable",
      "type": "function"
    }
  ],
  "bytecode": "0x60806040523480156200001157600080fd5b50604051620021f5380380620021f58339818101604052810190620000379190620007bc565b838381818160039080519060200190620000539291906200031e565b5080600490805190602001906200006c9291906200031e565b50505062000080336200017a60201b60201c565b50506200009e3369021e19e0c9bab24000006200024060201b60201c565b600067016345785d8a000090508151835114620000f2576040517f08c379a0000000000000000000000000000000000000000000000000000000008152600401620000e9906200090b565b60405180910390fd5b60005b83518110156200016e57620001588482815181106200011957620001186200092d565b5b6020026020010151838584815181106200013857620001376200092d565b5b60200260200101516200014c91906200098b565b6200024060201b60201c565b80806200016590620009ec565b915050620000f5565b50505050505062000b28565b6000600560009054906101000a900473ffffffffffffffffffffffffffffffffffffffff16905081600560006101000a81548173ffffffffffffffffffffffffffffffffffffffff021916908373ffffffffffffffffffffffffffffffffffffffff1602179055508173ffffffffffffffffffffffffffffffffffffffff168173ffffffffffffffffffffffffffffffffffffffff167f8be0079c531659141344cd1fd0a4f28419497f9722a3daafe3b4186f6b6457e060405160405180910390a35050565b806002600082825462000254919062000a39565b92505081905550806000808473ffffffffffffffffffffffffffffffffffffffff1673ffffffffffffffffffffffffffffffffffffffff1681526020019081526020016000206000828254620002ab919062000a39565b925050819055508173ffffffffffffffffffffffffffffffffffffffff16600073ffffffffffffffffffffffffffffffffffffffff167fddf252ad1be2c89b69c2b068fc378daa952ba7f163c4a11628f55a4df523b3ef8360405162000312919062000aa7565b60405180910390a35050565b8280546200032c9062000af3565b90600052602060002090601f0160209004810192826200035057600085556200039c565b82601f106200036b57805160ff19168380011785556200039c565b828001600101855582156200039c579182015b828111156200039b5782518255916020019190600101906200037e565b5b509050620003ab9190620003af565b5090565b5b80821115620003ca576000816000905550600101620003b0565b5090565b6000604051905090565b600080fd5b600080fd5b600080fd5b600080fd5b6000601f19601f8301169050919050565b7f4e487b7100000000000000000000000000000000000000000000000000000000600052604160045260246000fd5b6200043782620003ec565b810181811067ffffffffffffffff82111715620004595762000458620003fd565b5b80604052505050565b60006200046e620003ce565b90506200047c82826200042c565b919050565b600067ffffffffffffffff8211156200049f576200049e620003fd565b5b620004aa82620003ec565b9050602081019050919050565b60005b83811015620004d7578082015181840152602081019050620004ba565b83811115620004e7576000848401525b50505050565b600062000504620004fe8462000481565b62000462565b905082815260208101848484011115620005235762000522620003e7565b5b62000530848285620004b7565b509392505050565b600082601f83011262000550576200054f620003e2565b5b815162000562848260208601620004ed565b91505092915050565b600067ffffffffffffffff821115620005895762000588620003fd565b5b602082029050602081019050919050565b600080fd5b600073ffffffffffffffffffffffffffffffffffffffff82169050919050565b6000620005cc826200059f565b9050919050565b620005de81620005bf565b8114620005ea57600080fd5b50565b600081519050620005fe81620005d3565b92915050565b60006200061b62000615846200056b565b62000462565b905080838252602082019050602084028301858111156200064157620006406200059a565b5b835b818110156200066e5780620006598882620005ed565b84526020840193505060208101905062000643565b5050509392505050565b600082601f83011262000690576200068f620003e2565b5b8151620006a284826020860162000604565b91505092915050565b600067ffffffffffffffff821115620006c957620006c8620003fd565b5b602082029050602081019050919050565b6000819050919050565b620006ef81620006da565b8114620006fb57600080fd5b50565b6000815190506200070f81620006e4565b92915050565b60006200072c6200072684620006ab565b62000462565b905080838252602082019050602084028301858111156200075257620007516200059a565b5b835b818110156200077f57806200076a8882620006fe565b84526020840193505060208101905062000754565b5050509392505050565b600082601f830112620007a157620007a0620003e2565b5b8151620007b384826020860162000715565b91505092915050565b60008060008060808587031215620007d957620007d8620003d8565b5b600085015167ffffffffffffffff811115620007fa57620007f9620003dd565b5b620008088782880162000538565b945050602085015167ffffffffffffffff8111156200082c576200082b620003dd565b5b6200083a8782880162000538565b935050604085015167ffffffffffffffff8111156200085e576200085d620003dd565b5b6200086c8782880162000678565b925050606085015167ffffffffffffffff81111562000890576200088f620003dd565b5b6200089e8782880162000789565b91505092959194509250565b600082825260208201905092915050565b7f434f4e535452554354494f4e204d49534d415443480000000000000000000000600082015250565b6000620008f3601583620008aa565b91506200090082620008bb565b602082019050919050565b600060208201905081810360008301526200092681620008e4565b9050919050565b7f4e487b7100000000000000000000000000000000000000000000000000000000600052603260045260246000fd5b7f4e487b7100000000000000000000000000000000000000000000000000000000600052601160045260246000fd5b60006200099882620006da565b9150620009a583620006da565b9250817fffffffffffffffffffffffffffffffffffffffffffffffffffffffffffffffff0483118215151615620009e157620009e06200095c565b5b828202905092915050565b6000620009f982620006da565b91507fffffffffffffffffffffffffffffffffffffffffffffffffffffffffffffffff820362000a2e5762000a2d6200095c565b5b600182019050919050565b600062000a4682620006da565b915062000a5383620006da565b9250827fffffffffffffffffffffffffffffffffffffffffffffffffffffffffffffffff0382111562000a8b5762000a8a6200095c565b5b828201905092915050565b62000aa181620006da565b82525050565b600060208201905062000abe600083018462000a96565b92915050565b7f4e487b7100000000000000000000000000000000000000000000000000000000600052602260045260246000fd5b6000600282049050600182168062000b0c57607f821691505b60208210810362000b225762000b2162000ac4565b5b50919050565b6116bd8062000b386000396000f3fe608060405234801561001057600080fd5b506004361061010b5760003560e01c806370a08231116100a2578063a0712d6811610071578063a0712d68146102e2578063a457c2d7146102fe578063a9059cbb1461032e578063dd62ed3e1461035e578063f2fde38b1461038e5761010b565b806370a082311461025a57806379cc67901461028a5780638da5cb5b146102a657806395d89b41146102c45761010b565b8063313ce567116100de578063313ce567146101ac57806339509351146101ca5780634000aea0146101fa57806342966c681461022a5761010b565b806306fdde0314610110578063095ea7b31461012e57806318160ddd1461015e57806323b872dd1461017c575b600080fd5b6101186103aa565b6040516101259190610fb1565b60405180910390f35b6101486004803603810190610143919061107b565b61043c565b60405161015591906110d6565b60405180910390f35b610166610453565b6040516101739190611100565b60405180910390f35b6101966004803603810190610191919061111b565b61045d565b6040516101a391906110d6565b60405180910390f35b6101b4610580565b6040516101c1919061118a565b60405180910390f35b6101e460048036038101906101df919061107b565b610589565b6040516101f191906110d6565b60405180910390f35b610214600480360381019061020f91906112da565b610627565b60405161022191906110d6565b60405180910390f35b610244600480360381019061023f9190611349565b610659565b60405161025191906110d6565b60405180910390f35b610274600480360381019061026f9190611376565b61066e565b6040516102819190611100565b60405180910390f35b6102a4600480360381019061029f919061107b565b6106b6565b005b6102ae6106c4565b6040516102bb91906113b2565b60405180910390f35b6102cc6106ee565b6040516102d99190610fb1565b60405180910390f35b6102fc60048036038101906102f79190611349565b610780565b005b6103186004803603810190610313919061107b565b61078d565b60405161032591906110d6565b60405180910390f35b6103486004803603810190610343919061107b565b61086e565b60405161035591906110d6565b60405180910390f35b610378600480360381019061037391906113cd565b610885565b6040516103859190611100565b60405180910390f35b6103a860048036038101906103a39190611376565b61090c565b005b6060600380546103b99061143c565b80601f01602080910402602001604051908101604052809291908181526020018280546103e59061143c565b80156104325780601f1061040757610100808354040283529160200191610432565b820191906000526020600020905b81548152906001019060200180831161041557829003601f168201915b5050505050905090565b60006104493384846109f5565b6001905092915050565b6000600254905090565b600061046a848484610ae0565b6000600160008673ffffffffffffffffffffffffffffffffffffffff1673ffffffffffffffffffffffffffffffffffffffff16815260200190815260200160002060003373ffffffffffffffffffffffffffffffffffffffff1673ffffffffffffffffffffffffffffffffffffffff1681526020019081526020016000205490507fffffffffffffffffffffffffffffffffffffffffffffffffffffffffffffffff811415801561051a57508083115b1561055e5780836040517fa924825600000000000000000000000000000000000000000000000000000000815260040161055592919061146d565b60405180910390fd5b6105748533858461056f91906114c5565b6109f5565b60019150509392505050565b60006012905090565b600061061d338484600160003373ffffffffffffffffffffffffffffffffffffffff1673ffffffffffffffffffffffffffffffffffffffff16815260200190815260200160002060008873ffffffffffffffffffffffffffffffffffffffff1673ffffffffffffffffffffffffffffffffffffffff1681526020019081526020016000205461061891906114f9565b6109f5565b6001905092915050565b6000610634338585610ae0565b61063d84610c69565b1561064e5761064d848484610c7c565b5b600190509392505050565b60006106653383610cf6565b60019050919050565b60008060008373ffffffffffffffffffffffffffffffffffffffff1673ffffffffffffffffffffffffffffffffffffffff168152602001908152602001600020549050919050565b6106c08282610cf6565b5050565b6000600560009054906101000a900473ffffffffffffffffffffffffffffffffffffffff16905090565b6060600480546106fd9061143c565b80601f01602080910402602001604051908101604052809291908181526020018280546107299061143c565b80156107765780601f1061074b57610100808354040283529160200191610776565b820191906000526020600020905b81548152906001019060200180831161075957829003601f168201915b5050505050905090565b61078a3382610e40565b50565b600080600160003373ffffffffffffffffffffffffffffffffffffffff1673ffffffffffffffffffffffffffffffffffffffff16815260200190815260200160002060008573ffffffffffffffffffffffffffffffffffffffff1673ffffffffffffffffffffffffffffffffffffffff168152602001908152602001600020549050828110156108565780836040517fda2d822c00000000000000000000000000000000000000000000000000000000815260040161084d92919061146d565b60405180910390fd5b61086333858584036109f5565b600191505092915050565b600061087b338484610ae0565b6001905092915050565b6000600160008473ffffffffffffffffffffffffffffffffffffffff1673ffffffffffffffffffffffffffffffffffffffff16815260200190815260200160002060008373ffffffffffffffffffffffffffffffffffffffff1673ffffffffffffffffffffffffffffffffffffffff16815260200190815260200160002054905092915050565b3373ffffffffffffffffffffffffffffffffffffffff1661092b6106c4565b73ffffffffffffffffffffffffffffffffffffffff161461098c573361094f6106c4565b6040517fa3ee740f00000000000000000000000000000000000000000000000000000000815260040161098392919061154f565b60405180910390fd5b600073ffffffffffffffffffffffffffffffffffffffff168173ffffffffffffffffffffffffffffffffffffffff16036109f2576040517fea553b3400000000000000000000000000000000000000000000000000000000815260040160405180910390fd5b50565b80600160008573ffffffffffffffffffffffffffffffffffffffff1673ffffffffffffffffffffffffffffffffffffffff16815260200190815260200160002060008473ffffffffffffffffffffffffffffffffffffffff1673ffffffffffffffffffffffffffffffffffffffff168152602001908152602001600020819055508173ffffffffffffffffffffffffffffffffffffffff168373ffffffffffffffffffffffffffffffffffffffff167f8c5be1e5ebec7d5bd14f71427d1e84f3dd0314c0f7b2291e5b200ac8c7c3b92583604051610ad39190611100565b60405180910390a3505050565b60008060008573ffffffffffffffffffffffffffffffffffffffff1673ffffffffffffffffffffffffffffffffffffffff16815260200190815260200160002054905081811015610b6d57806000836040517f57b9c4a4000000000000000000000000000000000000000000000000000000008152600401610b64939291906115bd565b60405180910390fd5b8181036000808673ffffffffffffffffffffffffffffffffffffffff1673ffffffffffffffffffffffffffffffffffffffff16815260200190815260200160002081905550816000808573ffffffffffffffffffffffffffffffffffffffff1673ffffffffffffffffffffffffffffffffffffffff168152602001908152602001600020600082825401925050819055508273ffffffffffffffffffffffffffffffffffffffff168473ffffffffffffffffffffffffffffffffffffffff167fddf252ad1be2c89b69c2b068fc378daa952ba7f163c4a11628f55a4df523b3ef84604051610c5b9190611100565b60405180910390a350505050565b600080823b905060008111915050919050565b60008390508073ffffffffffffffffffffffffffffffffffffffff1663a4c0ed363385856040518463ffffffff1660e01b8152600401610cbe93929190611649565b600060405180830381600087803b158015610cd857600080fd5b505af1158015610cec573d6000803e3d6000fd5b5050505050505050565b60008060008473ffffffffffffffffffffffffffffffffffffffff1673ffffffffffffffffffffffffffffffffffffffff16815260200190815260200160002054905081811015610d805780826040517f0a37dd41000000000000000000000000000000000000000000000000000000008152600401610d7792919061146d565b60405180910390fd5b8181036000808573ffffffffffffffffffffffffffffffffffffffff1673ffffffffffffffffffffffffffffffffffffffff1681526020019081526020016000208190555081600260008282540392505081905550600073ffffffffffffffffffffffffffffffffffffffff168373ffffffffffffffffffffffffffffffffffffffff167fddf252ad1be2c89b69c2b068fc378daa952ba7f163c4a11628f55a4df523b3ef84604051610e339190611100565b60405180910390a3505050565b8060026000828254610e5291906114f9565b92505081905550806000808473ffffffffffffffffffffffffffffffffffffffff1673ffffffffffffffffffffffffffffffffffffffff1681526020019081526020016000206000828254610ea791906114f9565b925050819055508173ffffffffffffffffffffffffffffffffffffffff16600073ffffffffffffffffffffffffffffffffffffffff167fddf252ad1be2c89b69c2b068fc378daa952ba7f163c4a11628f55a4df523b3ef83604051610f0c9190611100565b60405180910390a35050565b600081519050919050565b600082825260208201905092915050565b60005b83811015610f52578082015181840152602081019050610f37565b83811115610f61576000848401525b50505050565b6000601f19601f8301169050919050565b6000610f8382610f18565b610f8d8185610f23565b9350610f9d818560208601610f34565b610fa681610f67565b840191505092915050565b60006020820190508181036000830152610fcb8184610f78565b905092915050565b6000604051905090565b600080fd5b600080fd5b600073ffffffffffffffffffffffffffffffffffffffff82169050919050565b600061101282610fe7565b9050919050565b61102281611007565b811461102d57600080fd5b50565b60008135905061103f81611019565b92915050565b6000819050919050565b61105881611045565b811461106357600080fd5b50565b6000813590506110758161104f565b92915050565b6000806040838503121561109257611091610fdd565b5b60006110a085828601611030565b92505060206110b185828601611066565b9150509250929050565b60008115159050919050565b6110d0816110bb565b82525050565b60006020820190506110eb60008301846110c7565b92915050565b6110fa81611045565b82525050565b600060208201905061111560008301846110f1565b92915050565b60008060006060848603121561113457611133610fdd565b5b600061114286828701611030565b935050602061115386828701611030565b925050604061116486828701611066565b9150509250925092565b600060ff82169050919050565b6111848161116e565b82525050565b600060208201905061119f600083018461117b565b92915050565b600080fd5b600080fd5b7f4e487b7100000000000000000000000000000000000000000000000000000000600052604160045260246000fd5b6111e782610f67565b810181811067ffffffffffffffff82111715611206576112056111af565b5b80604052505050565b6000611219610fd3565b905061122582826111de565b919050565b600067ffffffffffffffff821115611245576112446111af565b5b61124e82610f67565b9050602081019050919050565b82818337600083830152505050565b600061127d6112788461122a565b61120f565b905082815260208101848484011115611299576112986111aa565b5b6112a484828561125b565b509392505050565b600082601f8301126112c1576112c06111a5565b5b81356112d184826020860161126a565b91505092915050565b6000806000606084860312156112f3576112f2610fdd565b5b600061130186828701611030565b935050602061131286828701611066565b925050604084013567ffffffffffffffff81111561133357611332610fe2565b5b61133f868287016112ac565b9150509250925092565b60006020828403121561135f5761135e610fdd565b5b600061136d84828501611066565b91505092915050565b60006020828403121561138c5761138b610fdd565b5b600061139a84828501611030565b91505092915050565b6113ac81611007565b82525050565b60006020820190506113c760008301846113a3565b92915050565b600080604083850312156113e4576113e3610fdd565b5b60006113f285828601611030565b925050602061140385828601611030565b9150509250929050565b7f4e487b7100000000000000000000000000000000000000000000000000000000600052602260045260246000fd5b6000600282049050600182168061145457607f821691505b6020821081036114675761146661140d565b5b50919050565b600060408201905061148260008301856110f1565b61148f60208301846110f1565b9392505050565b7f4e487b7100000000000000000000000000000000000000000000000000000000600052601160045260246000fd5b60006114d082611045565b91506114db83611045565b9250828210156114ee576114ed611496565b5b828203905092915050565b600061150482611045565b915061150f83611045565b9250827fffffffffffffffffffffffffffffffffffffffffffffffffffffffffffffffff0382111561154457611543611496565b5b828201905092915050565b600060408201905061156460008301856113a3565b61157160208301846113a3565b9392505050565b6000819050919050565b6000819050919050565b60006115a76115a261159d84611578565b611582565b611045565b9050919050565b6115b78161158c565b82525050565b60006060820190506115d260008301866110f1565b6115df60208301856115ae565b6115ec60408301846110f1565b949350505050565b600081519050919050565b600082825260208201905092915050565b600061161b826115f4565b61162581856115ff565b9350611635818560208601610f34565b61163e81610f67565b840191505092915050565b600060608201905061165e60008301866113a3565b61166b60208301856110f1565b818103604083015261167d8184611610565b905094935050505056fea2646970667358221220843d551079e62b6d7109a3f50180a6b44f5cff472edf9e85ffb89a231fe0d0a364736f6c634300080d0033",
  "linkReferences": {},
  "deployedLinkReferences": {}
}