{
  "address": "0x2E3BeBB78e89b13c46a91EDb5B695b7b1863ABf1",
  "abi": [
    {
      "inputs": [
        {
          "internalType": "string",
          "name": "name",
          "type": "string"
        },
        {
          "internalType": "string",
          "name": "symbol",
          "type": "string"
        },
        {
          "internalType": "address[]",
          "name": "LPs",
          "type": "address[]"
        },
        {
          "internalType": "uint256[]",
          "name": "mintVal",
          "type": "uint256[]"
        }
      ],
      "stateMutability": "nonpayable",
      "type": "constructor"
    },
    {
      "anonymous": false,
      "inputs": [
        {
          "indexed": true,
          "internalType": "address",
          "name": "owner",
          "type": "address"
        },
        {
          "indexed": true,
          "internalType": "address",
          "name": "spender",
          "type": "address"
        },
        {
          "indexed": false,
          "internalType": "uint256",
          "name": "value",
          "type": "uint256"
        }
      ],
      "name": "Approval",
      "type": "event"
    },
    {
      "anonymous": false,
      "inputs": [
        {
          "indexed": true,
          "internalType": "address",
          "name": "previousOwner",
          "type": "address"
        },
        {
          "indexed": true,
          "internalType": "address",
          "name": "newOwner",
          "type": "address"
        }
      ],
      "name": "OwnershipTransferred",
      "type": "event"
    },
    {
      "anonymous": false,
      "inputs": [
        {
          "indexed": true,
          "internalType": "address",
          "name": "from",
          "type": "address"
        },
        {
          "indexed": true,
          "internalType": "address",
          "name": "to",
          "type": "address"
        },
        {
          "indexed": false,
          "internalType": "uint256",
          "name": "value",
          "type": "uint256"
        }
      ],
      "name": "Transfer",
      "type": "event"
    },
    {
      "inputs": [
        {
          "internalType": "address",
          "name": "owner",
          "type": "address"
        },
        {
          "internalType": "address",
          "name": "spender",
          "type": "address"
        }
      ],
      "name": "allowance",
      "outputs": [
        {
          "internalType": "uint256",
          "name": "",
          "type": "uint256"
        }
      ],
      "stateMutability": "view",
      "type": "function"
    },
    {
      "inputs": [
        {
          "internalType": "address",
          "name": "spender",
          "type": "address"
        },
        {
          "internalType": "uint256",
          "name": "amount",
          "type": "uint256"
        }
      ],
      "name": "approve",
      "outputs": [
        {
          "internalType": "bool",
          "name": "",
          "type": "bool"
        }
      ],
      "stateMutability": "nonpayable",
      "type": "function"
    },
    {
      "inputs": [
        {
          "internalType": "address",
          "name": "account",
          "type": "address"
        }
      ],
      "name": "balanceOf",
      "outputs": [
        {
          "internalType": "uint256",
          "name": "",
          "type": "uint256"
        }
      ],
      "stateMutability": "view",
      "type": "function"
    },
    {
      "inputs": [
        {
          "internalType": "uint256",
          "name": "amount",
          "type": "uint256"
        }
      ],
      "name": "burn",
      "outputs": [
        {
          "internalType": "bool",
          "name": "",
          "type": "bool"
        }
      ],
      "stateMutability": "nonpayable",
      "type": "function"
    },
    {
      "inputs": [
        {
          "internalType": "address",
          "name": "account",
          "type": "address"
        },
        {
          "internalType": "uint256",
          "name": "amount",
          "type": "uint256"
        }
      ],
      "name": "burnFrom",
      "outputs": [],
      "stateMutability": "nonpayable",
      "type": "function"
    },
    {
      "inputs": [],
      "name": "decimals",
      "outputs": [
        {
          "internalType": "uint8",
          "name": "",
          "type": "uint8"
        }
      ],
      "stateMutability": "view",
      "type": "function"
    },
    {
      "inputs": [
        {
          "internalType": "address",
          "name": "spender",
          "type": "address"
        },
        {
          "internalType": "uint256",
          "name": "subtractedValue",
          "type": "uint256"
        }
      ],
      "name": "decreaseAllowance",
      "outputs": [
        {
          "internalType": "bool",
          "name": "",
          "type": "bool"
        }
      ],
      "stateMutability": "nonpayable",
      "type": "function"
    },
    {
      "inputs": [
        {
          "internalType": "address",
          "name": "spender",
          "type": "address"
        },
        {
          "internalType": "uint256",
          "name": "addedValue",
          "type": "uint256"
        }
      ],
      "name": "increaseAllowance",
      "outputs": [
        {
          "internalType": "bool",
          "name": "",
          "type": "bool"
        }
      ],
      "stateMutability": "nonpayable",
      "type": "function"
    },
    {
      "inputs": [
        {
          "internalType": "uint256",
          "name": "amount",
          "type": "uint256"
        }
      ],
      "name": "mint",
      "outputs": [],
      "stateMutability": "nonpayable",
      "type": "function"
    },
    {
      "inputs": [],
      "name": "name",
      "outputs": [
        {
          "internalType": "string",
          "name": "",
          "type": "string"
        }
      ],
      "stateMutability": "view",
      "type": "function"
    },
    {
      "inputs": [],
      "name": "owner",
      "outputs": [
        {
          "internalType": "address",
          "name": "",
          "type": "address"
        }
      ],
      "stateMutability": "view",
      "type": "function"
    },
    {
      "inputs": [],
      "name": "renounceOwnership",
      "outputs": [],
      "stateMutability": "nonpayable",
      "type": "function"
    },
    {
      "inputs": [],
      "name": "symbol",
      "outputs": [
        {
          "internalType": "string",
          "name": "",
          "type": "string"
        }
      ],
      "stateMutability": "view",
      "type": "function"
    },
    {
      "inputs": [],
      "name": "totalSupply",
      "outputs": [
        {
          "internalType": "uint256",
          "name": "",
          "type": "uint256"
        }
      ],
      "stateMutability": "view",
      "type": "function"
    },
    {
      "inputs": [
        {
          "internalType": "address",
          "name": "recipient",
          "type": "address"
        },
        {
          "internalType": "uint256",
          "name": "amount",
          "type": "uint256"
        }
      ],
      "name": "transfer",
      "outputs": [
        {
          "internalType": "bool",
          "name": "",
          "type": "bool"
        }
      ],
      "stateMutability": "nonpayable",
      "type": "function"
    },
    {
      "inputs": [
        {
          "internalType": "address",
          "name": "_to",
          "type": "address"
        },
        {
          "internalType": "uint256",
          "name": "_value",
          "type": "uint256"
        },
        {
          "internalType": "bytes",
          "name": "_data",
          "type": "bytes"
        }
      ],
      "name": "transferAndCall",
      "outputs": [
        {
          "internalType": "bool",
          "name": "success",
          "type": "bool"
        }
      ],
      "stateMutability": "nonpayable",
      "type": "function"
    },
    {
      "inputs": [
        {
          "internalType": "address",
          "name": "sender",
          "type": "address"
        },
        {
          "internalType": "address",
          "name": "recipient",
          "type": "address"
        },
        {
          "internalType": "uint256",
          "name": "amount",
          "type": "uint256"
        }
      ],
      "name": "transferFrom",
      "outputs": [
        {
          "internalType": "bool",
          "name": "",
          "type": "bool"
        }
      ],
      "stateMutability": "nonpayable",
      "type": "function"
    },
    {
      "inputs": [
        {
          "internalType": "address",
          "name": "newOwner",
          "type": "address"
        }
      ],
      "name": "transferOwnership",
      "outputs": [],
      "stateMutability": "nonpayable",
      "type": "function"
    }
  ],
  "transactionHash": "0x4829610070714c2ab96a194f6fce3bb32cbf6d551fc913c23fc25db497e7eb05",
  "args": [
    "Aave",
    "AAVE",
    [],
    []
  ],
  "bytecode": "0x60806040523480156200001157600080fd5b5060405162002cc338038062002cc383398181016040528101906200003791906200069c565b8383818181600390805190602001906200005392919062000408565b5080600490805190602001906200006c92919062000408565b5050506200008f62000083620001d060201b60201c565b620001d860201b60201c565b5050620000ac3368056bc75e2d631000006200029e60201b60201c565b600067016345785d8a00009050815183511462000100576040517f08c379a0000000000000000000000000000000000000000000000000000000008152600401620000f79062000801565b60405180910390fd5b60005b8351811015620001c457620001ae8482815181106200014b577f4e487b7100000000000000000000000000000000000000000000000000000000600052603260045260246000fd5b6020026020010151838584815181106200018e577f4e487b7100000000000000000000000000000000000000000000000000000000600052603260045260246000fd5b6020026020010151620001a2919062000995565b6200029e60201b60201c565b8080620001bb9062000aa0565b91505062000103565b50505050505062000baf565b600033905090565b6000600560009054906101000a900473ffffffffffffffffffffffffffffffffffffffff16905081600560006101000a81548173ffffffffffffffffffffffffffffffffffffffff021916908373ffffffffffffffffffffffffffffffffffffffff1602179055508173ffffffffffffffffffffffffffffffffffffffff168173ffffffffffffffffffffffffffffffffffffffff167f8be0079c531659141344cd1fd0a4f28419497f9722a3daafe3b4186f6b6457e060405160405180910390a35050565b600073ffffffffffffffffffffffffffffffffffffffff168273ffffffffffffffffffffffffffffffffffffffff16141562000311576040517f08c379a0000000000000000000000000000000000000000000000000000000008152600401620003089062000823565b60405180910390fd5b62000325600083836200040360201b60201c565b806002600082825462000339919062000938565b92505081905550806000808473ffffffffffffffffffffffffffffffffffffffff1673ffffffffffffffffffffffffffffffffffffffff168152602001908152602001600020600082825462000390919062000938565b925050819055508173ffffffffffffffffffffffffffffffffffffffff16600073ffffffffffffffffffffffffffffffffffffffff167fddf252ad1be2c89b69c2b068fc378daa952ba7f163c4a11628f55a4df523b3ef83604051620003f7919062000845565b60405180910390a35050565b505050565b828054620004169062000a6a565b90600052602060002090601f0160209004810192826200043a576000855562000486565b82601f106200045557805160ff191683800117855562000486565b8280016001018555821562000486579182015b828111156200048557825182559160200191906001019062000468565b5b50905062000495919062000499565b5090565b5b80821115620004b45760008160009055506001016200049a565b5090565b6000620004cf620004c98462000896565b62000862565b90508083825260208201905082856020860282011115620004ef57600080fd5b60005b85811015620005235781620005088882620005e7565b845260208401935060208301925050600181019050620004f2565b5050509392505050565b6000620005446200053e84620008c5565b62000862565b905080838252602082019050828560208602820111156200056457600080fd5b60005b858110156200059857816200057d888262000685565b84526020840193506020830192505060018101905062000567565b5050509392505050565b6000620005b9620005b384620008f4565b62000862565b905082815260208101848484011115620005d257600080fd5b620005df84828562000a34565b509392505050565b600081519050620005f88162000b7b565b92915050565b600082601f8301126200061057600080fd5b815162000622848260208601620004b8565b91505092915050565b600082601f8301126200063d57600080fd5b81516200064f8482602086016200052d565b91505092915050565b600082601f8301126200066a57600080fd5b81516200067c848260208601620005a2565b91505092915050565b600081519050620006968162000b95565b92915050565b60008060008060808587031215620006b357600080fd5b600085015167ffffffffffffffff811115620006ce57600080fd5b620006dc8782880162000658565b945050602085015167ffffffffffffffff811115620006fa57600080fd5b620007088782880162000658565b935050604085015167ffffffffffffffff8111156200072657600080fd5b6200073487828801620005fe565b925050606085015167ffffffffffffffff8111156200075257600080fd5b62000760878288016200062b565b91505092959194509250565b60006200077b60158362000927565b91507f434f4e535452554354494f4e204d49534d4154434800000000000000000000006000830152602082019050919050565b6000620007bd601f8362000927565b91507f45524332303a206d696e7420746f20746865207a65726f2061646472657373006000830152602082019050919050565b620007fb8162000a2a565b82525050565b600060208201905081810360008301526200081c816200076c565b9050919050565b600060208201905081810360008301526200083e81620007ae565b9050919050565b60006020820190506200085c6000830184620007f0565b92915050565b6000604051905081810181811067ffffffffffffffff821117156200088c576200088b62000b4c565b5b8060405250919050565b600067ffffffffffffffff821115620008b457620008b362000b4c565b5b602082029050602081019050919050565b600067ffffffffffffffff821115620008e357620008e262000b4c565b5b602082029050602081019050919050565b600067ffffffffffffffff82111562000912576200091162000b4c565b5b601f19601f8301169050602081019050919050565b600082825260208201905092915050565b6000620009458262000a2a565b9150620009528362000a2a565b9250827fffffffffffffffffffffffffffffffffffffffffffffffffffffffffffffffff038211156200098a576200098962000aee565b5b828201905092915050565b6000620009a28262000a2a565b9150620009af8362000a2a565b9250817fffffffffffffffffffffffffffffffffffffffffffffffffffffffffffffffff0483118215151615620009eb57620009ea62000aee565b5b828202905092915050565b600062000a038262000a0a565b9050919050565b600073ffffffffffffffffffffffffffffffffffffffff82169050919050565b6000819050919050565b60005b8381101562000a5457808201518184015260208101905062000a37565b8381111562000a64576000848401525b50505050565b6000600282049050600182168062000a8357607f821691505b6020821081141562000a9a5762000a9962000b1d565b5b50919050565b600062000aad8262000a2a565b91507fffffffffffffffffffffffffffffffffffffffffffffffffffffffffffffffff82141562000ae35762000ae262000aee565b5b600182019050919050565b7f4e487b7100000000000000000000000000000000000000000000000000000000600052601160045260246000fd5b7f4e487b7100000000000000000000000000000000000000000000000000000000600052602260045260246000fd5b7f4e487b7100000000000000000000000000000000000000000000000000000000600052604160045260246000fd5b62000b8681620009f6565b811462000b9257600080fd5b50565b62000ba08162000a2a565b811462000bac57600080fd5b50565b6121048062000bbf6000396000f3fe608060405234801561001057600080fd5b50600436106101165760003560e01c8063715018a6116100a2578063a0712d6811610071578063a0712d68146102f7578063a457c2d714610313578063a9059cbb14610343578063dd62ed3e14610373578063f2fde38b146103a357610116565b8063715018a61461029557806379cc67901461029f5780638da5cb5b146102bb57806395d89b41146102d957610116565b8063313ce567116100e9578063313ce567146101b757806339509351146101d55780634000aea01461020557806342966c681461023557806370a082311461026557610116565b806306fdde031461011b578063095ea7b31461013957806318160ddd1461016957806323b872dd14610187575b600080fd5b6101236103bf565b6040516101309190611c1e565b60405180910390f35b610153600480360381019061014e919061154e565b610451565b6040516101609190611c03565b60405180910390f35b61017161046f565b60405161017e9190611de0565b60405180910390f35b6101a1600480360381019061019c91906114ff565b610479565b6040516101ae9190611c03565b60405180910390f35b6101bf61057a565b6040516101cc9190611dfb565b60405180910390f35b6101ef60048036038101906101ea919061154e565b610583565b6040516101fc9190611c03565b60405180910390f35b61021f600480360381019061021a919061158a565b61062f565b60405161022c9190611c03565b60405180910390f35b61024f600480360381019061024a91906115f1565b61066c565b60405161025c9190611c03565b60405180910390f35b61027f600480360381019061027a919061149a565b610688565b60405161028c9190611de0565b60405180910390f35b61029d6106d0565b005b6102b960048036038101906102b4919061154e565b610758565b005b6102c36107dc565b6040516102d09190611baa565b60405180910390f35b6102e1610806565b6040516102ee9190611c1e565b60405180910390f35b610311600480360381019061030c91906115f1565b610898565b005b61032d6004803603810190610328919061154e565b6108a5565b60405161033a9190611c03565b60405180910390f35b61035d6004803603810190610358919061154e565b610999565b60405161036a9190611c03565b60405180910390f35b61038d600480360381019061038891906114c3565b6109b7565b60405161039a9190611de0565b60405180910390f35b6103bd60048036038101906103b8919061149a565b610a3e565b005b6060600380546103ce90611fd0565b80601f01602080910402602001604051908101604052809291908181526020018280546103fa90611fd0565b80156104475780601f1061041c57610100808354040283529160200191610447565b820191906000526020600020905b81548152906001019060200180831161042a57829003601f168201915b5050505050905090565b600061046561045e610b36565b8484610b3e565b6001905092915050565b6000600254905090565b6000610486848484610d09565b6000600160008673ffffffffffffffffffffffffffffffffffffffff1673ffffffffffffffffffffffffffffffffffffffff16815260200190815260200160002060006104d1610b36565b73ffffffffffffffffffffffffffffffffffffffff1673ffffffffffffffffffffffffffffffffffffffff16815260200190815260200160002054905082811015610551576040517f08c379a000000000000000000000000000000000000000000000000000000000815260040161054890611ce0565b60405180910390fd5b61056e8561055d610b36565b85846105699190611f05565b610b3e565b60019150509392505050565b60006012905090565b6000610625610590610b36565b84846001600061059e610b36565b73ffffffffffffffffffffffffffffffffffffffff1673ffffffffffffffffffffffffffffffffffffffff16815260200190815260200160002060008873ffffffffffffffffffffffffffffffffffffffff1673ffffffffffffffffffffffffffffffffffffffff168152602001908152602001600020546106209190611eaf565b610b3e565b6001905092915050565b600061063b8484610999565b50610647338585610d09565b61065084610f88565b1561066157610660848484610f9b565b5b600190509392505050565b600061067f610679610b36565b83611015565b60019050919050565b60008060008373ffffffffffffffffffffffffffffffffffffffff1673ffffffffffffffffffffffffffffffffffffffff168152602001908152602001600020549050919050565b6106d8610b36565b73ffffffffffffffffffffffffffffffffffffffff166106f66107dc565b73ffffffffffffffffffffffffffffffffffffffff161461074c576040517f08c379a000000000000000000000000000000000000000000000000000000000815260040161074390611d00565b60405180910390fd5b61075660006111e9565b565b600061076b83610766610b36565b6109b7565b9050818110156107b0576040517f08c379a00000000000000000000000000000000000000000000000000000000081526004016107a790611d20565b60405180910390fd5b6107cd836107bc610b36565b84846107c89190611f05565b610b3e565b6107d78383611015565b505050565b6000600560009054906101000a900473ffffffffffffffffffffffffffffffffffffffff16905090565b60606004805461081590611fd0565b80601f016020809104026020016040519081016040528092919081815260200182805461084190611fd0565b801561088e5780601f106108635761010080835404028352916020019161088e565b820191906000526020600020905b81548152906001019060200180831161087157829003601f168201915b5050505050905090565b6108a233826112af565b50565b600080600160006108b4610b36565b73ffffffffffffffffffffffffffffffffffffffff1673ffffffffffffffffffffffffffffffffffffffff16815260200190815260200160002060008573ffffffffffffffffffffffffffffffffffffffff1673ffffffffffffffffffffffffffffffffffffffff16815260200190815260200160002054905082811015610971576040517f08c379a000000000000000000000000000000000000000000000000000000000815260040161096890611da0565b60405180910390fd5b61098e61097c610b36565b8585846109899190611f05565b610b3e565b600191505092915050565b60006109ad6109a6610b36565b8484610d09565b6001905092915050565b6000600160008473ffffffffffffffffffffffffffffffffffffffff1673ffffffffffffffffffffffffffffffffffffffff16815260200190815260200160002060008373ffffffffffffffffffffffffffffffffffffffff1673ffffffffffffffffffffffffffffffffffffffff16815260200190815260200160002054905092915050565b610a46610b36565b73ffffffffffffffffffffffffffffffffffffffff16610a646107dc565b73ffffffffffffffffffffffffffffffffffffffff1614610aba576040517f08c379a0000000000000000000000000000000000000000000000000000000008152600401610ab190611d00565b60405180910390fd5b600073ffffffffffffffffffffffffffffffffffffffff168173ffffffffffffffffffffffffffffffffffffffff161415610b2a576040517f08c379a0000000000000000000000000000000000000000000000000000000008152600401610b2190611c80565b60405180910390fd5b610b33816111e9565b50565b600033905090565b600073ffffffffffffffffffffffffffffffffffffffff168373ffffffffffffffffffffffffffffffffffffffff161415610bae576040517f08c379a0000000000000000000000000000000000000000000000000000000008152600401610ba590611d80565b60405180910390fd5b600073ffffffffffffffffffffffffffffffffffffffff168273ffffffffffffffffffffffffffffffffffffffff161415610c1e576040517f08c379a0000000000000000000000000000000000000000000000000000000008152600401610c1590611ca0565b60405180910390fd5b80600160008573ffffffffffffffffffffffffffffffffffffffff1673ffffffffffffffffffffffffffffffffffffffff16815260200190815260200160002060008473ffffffffffffffffffffffffffffffffffffffff1673ffffffffffffffffffffffffffffffffffffffff168152602001908152602001600020819055508173ffffffffffffffffffffffffffffffffffffffff168373ffffffffffffffffffffffffffffffffffffffff167f8c5be1e5ebec7d5bd14f71427d1e84f3dd0314c0f7b2291e5b200ac8c7c3b92583604051610cfc9190611de0565b60405180910390a3505050565b600073ffffffffffffffffffffffffffffffffffffffff168373ffffffffffffffffffffffffffffffffffffffff161415610d79576040517f08c379a0000000000000000000000000000000000000000000000000000000008152600401610d7090611d60565b60405180910390fd5b600073ffffffffffffffffffffffffffffffffffffffff168273ffffffffffffffffffffffffffffffffffffffff161415610de9576040517f08c379a0000000000000000000000000000000000000000000000000000000008152600401610de090611c40565b60405180910390fd5b610df4838383611403565b60008060008573ffffffffffffffffffffffffffffffffffffffff1673ffffffffffffffffffffffffffffffffffffffff16815260200190815260200160002054905081811015610e7a576040517f08c379a0000000000000000000000000000000000000000000000000000000008152600401610e7190611cc0565b60405180910390fd5b8181610e869190611f05565b6000808673ffffffffffffffffffffffffffffffffffffffff1673ffffffffffffffffffffffffffffffffffffffff16815260200190815260200160002081905550816000808573ffffffffffffffffffffffffffffffffffffffff1673ffffffffffffffffffffffffffffffffffffffff1681526020019081526020016000206000828254610f169190611eaf565b925050819055508273ffffffffffffffffffffffffffffffffffffffff168473ffffffffffffffffffffffffffffffffffffffff167fddf252ad1be2c89b69c2b068fc378daa952ba7f163c4a11628f55a4df523b3ef84604051610f7a9190611de0565b60405180910390a350505050565b600080823b905060008111915050919050565b60008390508073ffffffffffffffffffffffffffffffffffffffff1663a4c0ed363385856040518463ffffffff1660e01b8152600401610fdd93929190611bc5565b600060405180830381600087803b158015610ff757600080fd5b505af115801561100b573d6000803e3d6000fd5b5050505050505050565b600073ffffffffffffffffffffffffffffffffffffffff168273ffffffffffffffffffffffffffffffffffffffff161415611085576040517f08c379a000000000000000000000000000000000000000000000000000000000815260040161107c90611d40565b60405180910390fd5b61109182600083611403565b60008060008473ffffffffffffffffffffffffffffffffffffffff1673ffffffffffffffffffffffffffffffffffffffff16815260200190815260200160002054905081811015611117576040517f08c379a000000000000000000000000000000000000000000000000000000000815260040161110e90611c60565b60405180910390fd5b81816111239190611f05565b6000808573ffffffffffffffffffffffffffffffffffffffff1673ffffffffffffffffffffffffffffffffffffffff1681526020019081526020016000208190555081600260008282546111779190611f05565b92505081905550600073ffffffffffffffffffffffffffffffffffffffff168373ffffffffffffffffffffffffffffffffffffffff167fddf252ad1be2c89b69c2b068fc378daa952ba7f163c4a11628f55a4df523b3ef846040516111dc9190611de0565b60405180910390a3505050565b6000600560009054906101000a900473ffffffffffffffffffffffffffffffffffffffff16905081600560006101000a81548173ffffffffffffffffffffffffffffffffffffffff021916908373ffffffffffffffffffffffffffffffffffffffff1602179055508173ffffffffffffffffffffffffffffffffffffffff168173ffffffffffffffffffffffffffffffffffffffff167f8be0079c531659141344cd1fd0a4f28419497f9722a3daafe3b4186f6b6457e060405160405180910390a35050565b600073ffffffffffffffffffffffffffffffffffffffff168273ffffffffffffffffffffffffffffffffffffffff16141561131f576040517f08c379a000000000000000000000000000000000000000000000000000000000815260040161131690611dc0565b60405180910390fd5b61132b60008383611403565b806002600082825461133d9190611eaf565b92505081905550806000808473ffffffffffffffffffffffffffffffffffffffff1673ffffffffffffffffffffffffffffffffffffffff16815260200190815260200160002060008282546113929190611eaf565b925050819055508173ffffffffffffffffffffffffffffffffffffffff16600073ffffffffffffffffffffffffffffffffffffffff167fddf252ad1be2c89b69c2b068fc378daa952ba7f163c4a11628f55a4df523b3ef836040516113f79190611de0565b60405180910390a35050565b505050565b600061141b61141684611e47565b611e16565b90508281526020810184848401111561143357600080fd5b61143e848285611f8e565b509392505050565b600081359050611455816120a0565b92915050565b600082601f83011261146c57600080fd5b813561147c848260208601611408565b91505092915050565b600081359050611494816120b7565b92915050565b6000602082840312156114ac57600080fd5b60006114ba84828501611446565b91505092915050565b600080604083850312156114d657600080fd5b60006114e485828601611446565b92505060206114f585828601611446565b9150509250929050565b60008060006060848603121561151457600080fd5b600061152286828701611446565b935050602061153386828701611446565b925050604061154486828701611485565b9150509250925092565b6000806040838503121561156157600080fd5b600061156f85828601611446565b925050602061158085828601611485565b9150509250929050565b60008060006060848603121561159f57600080fd5b60006115ad86828701611446565b93505060206115be86828701611485565b925050604084013567ffffffffffffffff8111156115db57600080fd5b6115e78682870161145b565b9150509250925092565b60006020828403121561160357600080fd5b600061161184828501611485565b91505092915050565b61162381611f39565b82525050565b61163281611f4b565b82525050565b600061164382611e77565b61164d8185611e8d565b935061165d818560208601611f9d565b6116668161208f565b840191505092915050565b600061167c82611e82565b6116868185611e9e565b9350611696818560208601611f9d565b61169f8161208f565b840191505092915050565b60006116b7602383611e9e565b91507f45524332303a207472616e7366657220746f20746865207a65726f206164647260008301527f65737300000000000000000000000000000000000000000000000000000000006020830152604082019050919050565b600061171d602283611e9e565b91507f45524332303a206275726e20616d6f756e7420657863656564732062616c616e60008301527f63650000000000000000000000000000000000000000000000000000000000006020830152604082019050919050565b6000611783602683611e9e565b91507f4f776e61626c653a206e6577206f776e657220697320746865207a65726f206160008301527f64647265737300000000000000000000000000000000000000000000000000006020830152604082019050919050565b60006117e9602283611e9e565b91507f45524332303a20617070726f766520746f20746865207a65726f20616464726560008301527f73730000000000000000000000000000000000000000000000000000000000006020830152604082019050919050565b600061184f602683611e9e565b91507f45524332303a207472616e7366657220616d6f756e742065786365656473206260008301527f616c616e636500000000000000000000000000000000000000000000000000006020830152604082019050919050565b60006118b5602883611e9e565b91507f45524332303a207472616e7366657220616d6f756e742065786365656473206160008301527f6c6c6f77616e63650000000000000000000000000000000000000000000000006020830152604082019050919050565b600061191b602083611e9e565b91507f4f776e61626c653a2063616c6c6572206973206e6f7420746865206f776e65726000830152602082019050919050565b600061195b602483611e9e565b91507f45524332303a206275726e20616d6f756e74206578636565647320616c6c6f7760008301527f616e6365000000000000000000000000000000000000000000000000000000006020830152604082019050919050565b60006119c1602183611e9e565b91507f45524332303a206275726e2066726f6d20746865207a65726f2061646472657360008301527f73000000000000000000000000000000000000000000000000000000000000006020830152604082019050919050565b6000611a27602583611e9e565b91507f45524332303a207472616e736665722066726f6d20746865207a65726f20616460008301527f64726573730000000000000000000000000000000000000000000000000000006020830152604082019050919050565b6000611a8d602483611e9e565b91507f45524332303a20617070726f76652066726f6d20746865207a65726f2061646460008301527f72657373000000000000000000000000000000000000000000000000000000006020830152604082019050919050565b6000611af3602583611e9e565b91507f45524332303a2064656372656173656420616c6c6f77616e63652062656c6f7760008301527f207a65726f0000000000000000000000000000000000000000000000000000006020830152604082019050919050565b6000611b59601f83611e9e565b91507f45524332303a206d696e7420746f20746865207a65726f2061646472657373006000830152602082019050919050565b611b9581611f77565b82525050565b611ba481611f81565b82525050565b6000602082019050611bbf600083018461161a565b92915050565b6000606082019050611bda600083018661161a565b611be76020830185611b8c565b8181036040830152611bf98184611638565b9050949350505050565b6000602082019050611c186000830184611629565b92915050565b60006020820190508181036000830152611c388184611671565b905092915050565b60006020820190508181036000830152611c59816116aa565b9050919050565b60006020820190508181036000830152611c7981611710565b9050919050565b60006020820190508181036000830152611c9981611776565b9050919050565b60006020820190508181036000830152611cb9816117dc565b9050919050565b60006020820190508181036000830152611cd981611842565b9050919050565b60006020820190508181036000830152611cf9816118a8565b9050919050565b60006020820190508181036000830152611d198161190e565b9050919050565b60006020820190508181036000830152611d398161194e565b9050919050565b60006020820190508181036000830152611d59816119b4565b9050919050565b60006020820190508181036000830152611d7981611a1a565b9050919050565b60006020820190508181036000830152611d9981611a80565b9050919050565b60006020820190508181036000830152611db981611ae6565b9050919050565b60006020820190508181036000830152611dd981611b4c565b9050919050565b6000602082019050611df56000830184611b8c565b92915050565b6000602082019050611e106000830184611b9b565b92915050565b6000604051905081810181811067ffffffffffffffff82111715611e3d57611e3c612060565b5b8060405250919050565b600067ffffffffffffffff821115611e6257611e61612060565b5b601f19601f8301169050602081019050919050565b600081519050919050565b600081519050919050565b600082825260208201905092915050565b600082825260208201905092915050565b6000611eba82611f77565b9150611ec583611f77565b9250827fffffffffffffffffffffffffffffffffffffffffffffffffffffffffffffffff03821115611efa57611ef9612002565b5b828201905092915050565b6000611f1082611f77565b9150611f1b83611f77565b925082821015611f2e57611f2d612002565b5b828203905092915050565b6000611f4482611f57565b9050919050565b60008115159050919050565b600073ffffffffffffffffffffffffffffffffffffffff82169050919050565b6000819050919050565b600060ff82169050919050565b82818337600083830152505050565b60005b83811015611fbb578082015181840152602081019050611fa0565b83811115611fca576000848401525b50505050565b60006002820490506001821680611fe857607f821691505b60208210811415611ffc57611ffb612031565b5b50919050565b7f4e487b7100000000000000000000000000000000000000000000000000000000600052601160045260246000fd5b7f4e487b7100000000000000000000000000000000000000000000000000000000600052602260045260246000fd5b7f4e487b7100000000000000000000000000000000000000000000000000000000600052604160045260246000fd5b6000601f19601f8301169050919050565b6120a981611f39565b81146120b457600080fd5b50565b6120c081611f77565b81146120cb57600080fd5b5056fea26469706673582212206b31689a12c2f5118125d2231a64c0247af8ee66c8a3970cbf4927af81f39c0b64736f6c63430008000033"
}