{
  "address": "0x156E7b05073A8AD3C867b1362bb917696dCCA3f2",
  "abi": [
    {
      "inputs": [
        {
          "internalType": "address",
          "name": "dao",
          "type": "address"
        }
      ],
      "stateMutability": "nonpayable",
      "type": "constructor"
    },
    {
      "anonymous": false,
      "inputs": [
        {
          "indexed": true,
          "internalType": "address",
          "name": "owner",
          "type": "address"
        },
        {
          "indexed": true,
          "internalType": "address",
          "name": "spender",
          "type": "address"
        },
        {
          "indexed": false,
          "internalType": "uint256",
          "name": "value",
          "type": "uint256"
        }
      ],
      "name": "Approval",
      "type": "event"
    },
    {
      "anonymous": false,
      "inputs": [
        {
          "indexed": true,
          "internalType": "address",
          "name": "previousOwner",
          "type": "address"
        },
        {
          "indexed": true,
          "internalType": "address",
          "name": "newOwner",
          "type": "address"
        }
      ],
      "name": "OwnershipTransferred",
      "type": "event"
    },
    {
      "anonymous": false,
      "inputs": [
        {
          "indexed": true,
          "internalType": "address",
          "name": "from",
          "type": "address"
        },
        {
          "indexed": true,
          "internalType": "address",
          "name": "to",
          "type": "address"
        },
        {
          "indexed": false,
          "internalType": "uint256",
          "name": "value",
          "type": "uint256"
        }
      ],
      "name": "Transfer",
      "type": "event"
    },
    {
      "anonymous": false,
      "inputs": [
        {
          "indexed": false,
          "internalType": "uint8",
          "name": "oldFee",
          "type": "uint8"
        },
        {
          "indexed": false,
          "internalType": "uint8",
          "name": "newFee",
          "type": "uint8"
        }
      ],
      "name": "burnOnTransferFeeAdjusted",
      "type": "event"
    },
    {
      "inputs": [],
      "name": "DAO",
      "outputs": [
        {
          "internalType": "address",
          "name": "",
          "type": "address"
        }
      ],
      "stateMutability": "view",
      "type": "function"
    },
    {
      "inputs": [
        {
          "internalType": "address",
          "name": "owner",
          "type": "address"
        },
        {
          "internalType": "address",
          "name": "spender",
          "type": "address"
        }
      ],
      "name": "allowance",
      "outputs": [
        {
          "internalType": "uint256",
          "name": "",
          "type": "uint256"
        }
      ],
      "stateMutability": "view",
      "type": "function"
    },
    {
      "inputs": [
        {
          "internalType": "address",
          "name": "spender",
          "type": "address"
        },
        {
          "internalType": "uint256",
          "name": "amount",
          "type": "uint256"
        }
      ],
      "name": "approve",
      "outputs": [
        {
          "internalType": "bool",
          "name": "",
          "type": "bool"
        }
      ],
      "stateMutability": "nonpayable",
      "type": "function"
    },
    {
      "inputs": [
        {
          "internalType": "address",
          "name": "account",
          "type": "address"
        }
      ],
      "name": "balanceOf",
      "outputs": [
        {
          "internalType": "uint256",
          "name": "",
          "type": "uint256"
        }
      ],
      "stateMutability": "view",
      "type": "function"
    },
    {
      "inputs": [
        {
          "internalType": "uint256",
          "name": "amount",
          "type": "uint256"
        }
      ],
      "name": "burn",
      "outputs": [
        {
          "internalType": "bool",
          "name": "",
          "type": "bool"
        }
      ],
      "stateMutability": "nonpayable",
      "type": "function"
    },
    {
      "inputs": [
        {
          "internalType": "address",
          "name": "account",
          "type": "address"
        },
        {
          "internalType": "uint256",
          "name": "amount",
          "type": "uint256"
        }
      ],
      "name": "burnFrom",
      "outputs": [],
      "stateMutability": "nonpayable",
      "type": "function"
    },
    {
      "inputs": [],
      "name": "burnOnTransferFee",
      "outputs": [
        {
          "internalType": "uint8",
          "name": "",
          "type": "uint8"
        }
      ],
      "stateMutability": "view",
      "type": "function"
    },
    {
      "inputs": [],
      "name": "configured",
      "outputs": [
        {
          "internalType": "bool",
          "name": "",
          "type": "bool"
        }
      ],
      "stateMutability": "view",
      "type": "function"
    },
    {
      "inputs": [],
      "name": "decimals",
      "outputs": [
        {
          "internalType": "uint8",
          "name": "",
          "type": "uint8"
        }
      ],
      "stateMutability": "view",
      "type": "function"
    },
    {
      "inputs": [
        {
          "internalType": "address",
          "name": "spender",
          "type": "address"
        },
        {
          "internalType": "uint256",
          "name": "subtractedValue",
          "type": "uint256"
        }
      ],
      "name": "decreaseAllowance",
      "outputs": [
        {
          "internalType": "bool",
          "name": "",
          "type": "bool"
        }
      ],
      "stateMutability": "nonpayable",
      "type": "function"
    },
    {
      "inputs": [],
      "name": "endConfiguration",
      "outputs": [],
      "stateMutability": "nonpayable",
      "type": "function"
    },
    {
      "inputs": [
        {
          "internalType": "address",
          "name": "spender",
          "type": "address"
        },
        {
          "internalType": "uint256",
          "name": "addedValue",
          "type": "uint256"
        }
      ],
      "name": "increaseAllowance",
      "outputs": [
        {
          "internalType": "bool",
          "name": "",
          "type": "bool"
        }
      ],
      "stateMutability": "nonpayable",
      "type": "function"
    },
    {
      "inputs": [
        {
          "internalType": "address",
          "name": "minter",
          "type": "address"
        },
        {
          "internalType": "uint256",
          "name": "_allowance",
          "type": "uint256"
        }
      ],
      "name": "increaseMintAllowance",
      "outputs": [],
      "stateMutability": "nonpayable",
      "type": "function"
    },
    {
      "inputs": [
        {
          "internalType": "int8",
          "name": "change",
          "type": "int8"
        }
      ],
      "name": "incrementBurnOnTransferFee",
      "outputs": [],
      "stateMutability": "nonpayable",
      "type": "function"
    },
    {
      "inputs": [
        {
          "internalType": "address",
          "name": "recipient",
          "type": "address"
        },
        {
          "internalType": "uint256",
          "name": "amount",
          "type": "uint256"
        }
      ],
      "name": "mint",
      "outputs": [
        {
          "internalType": "bool",
          "name": "",
          "type": "bool"
        }
      ],
      "stateMutability": "nonpayable",
      "type": "function"
    },
    {
      "inputs": [
        {
          "internalType": "address",
          "name": "",
          "type": "address"
        }
      ],
      "name": "mintAllowance",
      "outputs": [
        {
          "internalType": "uint256",
          "name": "",
          "type": "uint256"
        }
      ],
      "stateMutability": "view",
      "type": "function"
    },
    {
      "inputs": [],
      "name": "name",
      "outputs": [
        {
          "internalType": "string",
          "name": "",
          "type": "string"
        }
      ],
      "stateMutability": "view",
      "type": "function"
    },
    {
      "inputs": [],
      "name": "owner",
      "outputs": [
        {
          "internalType": "address",
          "name": "",
          "type": "address"
        }
      ],
      "stateMutability": "view",
      "type": "function"
    },
    {
      "inputs": [],
      "name": "renounceOwnership",
      "outputs": [],
      "stateMutability": "nonpayable",
      "type": "function"
    },
    {
      "inputs": [
        {
          "internalType": "address",
          "name": "_to",
          "type": "address"
        },
        {
          "internalType": "uint256",
          "name": "_amount",
          "type": "uint256"
        }
      ],
      "name": "safeTransfer",
      "outputs": [],
      "stateMutability": "nonpayable",
      "type": "function"
    },
    {
      "inputs": [
        {
          "internalType": "uint8",
          "name": "fee",
          "type": "uint8"
        }
      ],
      "name": "setBurnOnTransferFee",
      "outputs": [],
      "stateMutability": "nonpayable",
      "type": "function"
    },
    {
      "inputs": [
        {
          "internalType": "address",
          "name": "dao",
          "type": "address"
        }
      ],
      "name": "setDAO",
      "outputs": [],
      "stateMutability": "nonpayable",
      "type": "function"
    },
    {
      "inputs": [],
      "name": "symbol",
      "outputs": [
        {
          "internalType": "string",
          "name": "",
          "type": "string"
        }
      ],
      "stateMutability": "view",
      "type": "function"
    },
    {
      "inputs": [],
      "name": "totalSupply",
      "outputs": [
        {
          "internalType": "uint256",
          "name": "",
          "type": "uint256"
        }
      ],
      "stateMutability": "view",
      "type": "function"
    },
    {
      "inputs": [
        {
          "internalType": "address",
          "name": "recipient",
          "type": "address"
        },
        {
          "internalType": "uint256",
          "name": "amount",
          "type": "uint256"
        }
      ],
      "name": "transfer",
      "outputs": [
        {
          "internalType": "bool",
          "name": "",
          "type": "bool"
        }
      ],
      "stateMutability": "nonpayable",
      "type": "function"
    },
    {
      "inputs": [
        {
          "internalType": "address",
          "name": "_to",
          "type": "address"
        },
        {
          "internalType": "uint256",
          "name": "_value",
          "type": "uint256"
        },
        {
          "internalType": "bytes",
          "name": "_data",
          "type": "bytes"
        }
      ],
      "name": "transferAndCall",
      "outputs": [
        {
          "internalType": "bool",
          "name": "success",
          "type": "bool"
        }
      ],
      "stateMutability": "nonpayable",
      "type": "function"
    },
    {
      "inputs": [
        {
          "internalType": "address",
          "name": "sender",
          "type": "address"
        },
        {
          "internalType": "address",
          "name": "recipient",
          "type": "address"
        },
        {
          "internalType": "uint256",
          "name": "amount",
          "type": "uint256"
        }
      ],
      "name": "transferFrom",
      "outputs": [
        {
          "internalType": "bool",
          "name": "",
          "type": "bool"
        }
      ],
      "stateMutability": "nonpayable",
      "type": "function"
    },
    {
      "inputs": [
        {
          "internalType": "address",
          "name": "newOwner",
          "type": "address"
        }
      ],
      "name": "transferOwnership",
      "outputs": [],
      "stateMutability": "nonpayable",
      "type": "function"
    },
    {
      "inputs": [
        {
          "internalType": "address",
          "name": "minter",
          "type": "address"
        },
        {
          "internalType": "bool",
          "name": "enabled",
          "type": "bool"
        }
      ],
      "name": "whiteListMinting",
      "outputs": [],
      "stateMutability": "nonpayable",
      "type": "function"
    }
  ],
  "transactionHash": "0xd9b9b99cc3105d94bf5c85b16e7af7b1acd8459428670999690f3865055eb8f3",
  "args": [
    "0x8c9bd714e2598860E56a4D9E675E717665204442"
  ],
  "solcInputHash": "3b633f60859fc01482cc6a8d04cca0a0",
  "bytecode": "0x60806040526000600960006101000a81548160ff021916908360ff1602179055503480156200002d57600080fd5b50604051620038a3380380620038a38339818101604052810190620000539190620004d2565b806040518060400160405280600481526020017f466c616e000000000000000000000000000000000000000000000000000000008152506040518060400160405280600381526020017f464c4e000000000000000000000000000000000000000000000000000000000081525081818160039080519060200190620000da9291906200040b565b508060049080519060200190620000f39291906200040b565b505050620001166200010a6200013160201b60201c565b6200013960201b60201c565b50506200012981620001ff60201b60201c565b505062000626565b600033905090565b6000600560009054906101000a900473ffffffffffffffffffffffffffffffffffffffff16905081600560006101000a81548173ffffffffffffffffffffffffffffffffffffffff021916908373ffffffffffffffffffffffffffffffffffffffff1602179055508173ffffffffffffffffffffffffffffffffffffffff168173ffffffffffffffffffffffffffffffffffffffff167f8be0079c531659141344cd1fd0a4f28419497f9722a3daafe3b4186f6b6457e060405160405180910390a35050565b600073ffffffffffffffffffffffffffffffffffffffff16600760009054906101000a900473ffffffffffffffffffffffffffffffffffffffff1673ffffffffffffffffffffffffffffffffffffffff161480620002aa5750600760009054906101000a900473ffffffffffffffffffffffffffffffffffffffff1673ffffffffffffffffffffffffffffffffffffffff163373ffffffffffffffffffffffffffffffffffffffff16145b80620002c35750600660149054906101000a900460ff16155b62000305576040517f08c379a0000000000000000000000000000000000000000000000000000000008152600401620002fc9062000540565b60405180910390fd5b80600760006101000a81548173ffffffffffffffffffffffffffffffffffffffff021916908373ffffffffffffffffffffffffffffffffffffffff1602179055508073ffffffffffffffffffffffffffffffffffffffff16632317beae6040518163ffffffff1660e01b815260040160206040518083038186803b1580156200038d57600080fd5b505afa158015620003a2573d6000803e3d6000fd5b505050506040513d601f19601f82011682018060405250810190620003c89190620004d2565b600660006101000a81548173ffffffffffffffffffffffffffffffffffffffff021916908373ffffffffffffffffffffffffffffffffffffffff16021790555050565b8280546200041990620005a7565b90600052602060002090601f0160209004810192826200043d576000855562000489565b82601f106200045857805160ff191683800117855562000489565b8280016001018555821562000489579182015b82811115620004885782518255916020019190600101906200046b565b5b5090506200049891906200049c565b5090565b5b80821115620004b75760008160009055506001016200049d565b5090565b600081519050620004cc816200060c565b92915050565b600060208284031215620004e557600080fd5b6000620004f584828501620004bb565b91505092915050565b60006200050d60028362000562565b91507f454b0000000000000000000000000000000000000000000000000000000000006000830152602082019050919050565b600060208201905081810360008301526200055b81620004fe565b9050919050565b600082825260208201905092915050565b6000620005808262000587565b9050919050565b600073ffffffffffffffffffffffffffffffffffffffff82169050919050565b60006002820490506001821680620005c057607f821691505b60208210811415620005d757620005d6620005dd565b5b50919050565b7f4e487b7100000000000000000000000000000000000000000000000000000000600052602260045260246000fd5b620006178162000573565b81146200062357600080fd5b50565b61326d80620006366000396000f3fe608060405234801561001057600080fd5b50600436106101cf5760003560e01c8063785a47f811610104578063a9059cbb116100a2578063dd62ed3e11610071578063dd62ed3e14610544578063e73a914c14610574578063eeca018314610590578063f2fde38b146105ac576101cf565b8063a9059cbb146104aa578063c5119ff8146104da578063d7a8ac0a1461050a578063dd549bc314610526576101cf565b80638da5cb5b116100de5780638da5cb5b1461042057806395d89b411461043e57806398fabd3a1461045c578063a457c2d71461047a576101cf565b8063785a47f8146103ca57806379cc6790146103e65780638772a23a14610402576101cf565b80634000aea01161017157806342966c681161014b57806342966c6814610356578063478fa6291461038657806370a0823114610390578063715018a6146103c0576101cf565b80634000aea0146102da57806340c10f191461030a578063423f6cef1461033a576101cf565b806318160ddd116101ad57806318160ddd1461023e57806323b872dd1461025c578063313ce5671461028c57806339509351146102aa576101cf565b806304a3692d146101d457806306fdde03146101f0578063095ea7b31461020e575b600080fd5b6101ee60048036038101906101e9919061240f565b6105c8565b005b6101f86105dd565b6040516102059190612b42565b60405180910390f35b610228600480360381019061022391906122f1565b61066f565b6040516102359190612b27565b60405180910390f35b61024661068d565b6040516102539190612d64565b60405180910390f35b61027660048036038101906102719190612266565b610697565b6040516102839190612b27565b60405180910390f35b610294610798565b6040516102a19190612d7f565b60405180910390f35b6102c460048036038101906102bf91906122f1565b6107a1565b6040516102d19190612b27565b60405180910390f35b6102f460048036038101906102ef919061232d565b61084d565b6040516103019190612b27565b60405180910390f35b610324600480360381019061031f91906122f1565b61088a565b6040516103319190612b27565b60405180910390f35b610354600480360381019061034f91906122f1565b61097b565b005b610370600480360381019061036b91906123e6565b6109b3565b60405161037d9190612b27565b60405180910390f35b61038e6109cf565b005b6103aa60048036038101906103a591906121d8565b6109ec565b6040516103b79190612d64565b60405180910390f35b6103c8610a34565b005b6103e460048036038101906103df91906122f1565b610abc565b005b61040060048036038101906103fb91906122f1565b610b57565b005b61040a610bdb565b6040516104179190612b27565b60405180910390f35b610428610bee565b6040516104359190612a97565b60405180910390f35b610446610c18565b6040516104539190612b42565b60405180910390f35b610464610caa565b6040516104719190612a97565b60405180910390f35b610494600480360381019061048f91906122f1565b610cd0565b6040516104a19190612b27565b60405180910390f35b6104c460048036038101906104bf91906122f1565b610dc4565b6040516104d19190612b27565b60405180910390f35b6104f460048036038101906104ef91906121d8565b610de2565b6040516105019190612d64565b60405180910390f35b610524600480360381019061051f91906122b5565b610dfa565b005b61052e610e78565b60405161053b9190612d7f565b60405180910390f35b61055e6004803603810190610559919061222a565b610e8b565b60405161056b9190612d64565b60405180910390f35b61058e600480360381019061058991906121d8565b610f12565b005b6105aa60048036038101906105a591906123bd565b611115565b005b6105c660048036038101906105c191906121d8565b611277565b005b6105d13361136f565b6105da81611474565b50565b6060600380546105ec906130c5565b80601f0160208091040260200160405190810160405280929190818152602001828054610618906130c5565b80156106655780601f1061063a57610100808354040283529160200191610665565b820191906000526020600020905b81548152906001019060200180831161064857829003601f168201915b5050505050905090565b600061068361067c611502565b848461150a565b6001905092915050565b6000600254905090565b60006106a48484846116d5565b6000600160008673ffffffffffffffffffffffffffffffffffffffff1673ffffffffffffffffffffffffffffffffffffffff16815260200190815260200160002060006106ef611502565b73ffffffffffffffffffffffffffffffffffffffff1673ffffffffffffffffffffffffffffffffffffffff1681526020019081526020016000205490508281101561076f576040517f08c379a000000000000000000000000000000000000000000000000000000000815260040161076690612c64565b60405180910390fd5b61078c8561077b611502565b85846107879190612fdb565b61150a565b60019150509392505050565b60006012905090565b60006108436107ae611502565b8484600160006107bc611502565b73ffffffffffffffffffffffffffffffffffffffff1673ffffffffffffffffffffffffffffffffffffffff16815260200190815260200160002060008873ffffffffffffffffffffffffffffffffffffffff1673ffffffffffffffffffffffffffffffffffffffff1681526020019081526020016000205461083e9190612efa565b61150a565b6001905092915050565b60006108598484610dc4565b506108653385856116d5565b61086e846119a2565b1561087f5761087e8484846119b5565b5b600190509392505050565b60008060086000610899611502565b73ffffffffffffffffffffffffffffffffffffffff1673ffffffffffffffffffffffffffffffffffffffff1681526020019081526020016000205490506108de610bee565b73ffffffffffffffffffffffffffffffffffffffff166108fc611502565b73ffffffffffffffffffffffffffffffffffffffff16148061091e5750828110155b61095d576040517f08c379a000000000000000000000000000000000000000000000000000000000815260040161095490612c04565b60405180910390fd5b610970848461096a611502565b84611a2f565b600191505092915050565b6000610986306109ec565b905060008183116109975782610999565b815b90506109ad6109a6611502565b85836116d5565b50505050565b60006109c66109c0611502565b83611af6565b60019050919050565b6001600660146101000a81548160ff021916908315150217905550565b60008060008373ffffffffffffffffffffffffffffffffffffffff1673ffffffffffffffffffffffffffffffffffffffff168152602001908152602001600020549050919050565b610a3c611502565b73ffffffffffffffffffffffffffffffffffffffff16610a5a610bee565b73ffffffffffffffffffffffffffffffffffffffff1614610ab0576040517f08c379a0000000000000000000000000000000000000000000000000000000008152600401610aa790612c84565b60405180910390fd5b610aba6000611cca565b565b610ac53361136f565b80600860008473ffffffffffffffffffffffffffffffffffffffff1673ffffffffffffffffffffffffffffffffffffffff16815260200190815260200160002054610b109190612efa565b600860008473ffffffffffffffffffffffffffffffffffffffff1673ffffffffffffffffffffffffffffffffffffffff168152602001908152602001600020819055505050565b6000610b6a83610b65611502565b610e8b565b905081811015610baf576040517f08c379a0000000000000000000000000000000000000000000000000000000008152600401610ba690612ca4565b60405180910390fd5b610bcc83610bbb611502565b8484610bc79190612fdb565b61150a565b610bd68383611af6565b505050565b600660149054906101000a900460ff1681565b6000600560009054906101000a900473ffffffffffffffffffffffffffffffffffffffff16905090565b606060048054610c27906130c5565b80601f0160208091040260200160405190810160405280929190818152602001828054610c53906130c5565b8015610ca05780601f10610c7557610100808354040283529160200191610ca0565b820191906000526020600020905b815481529060010190602001808311610c8357829003601f168201915b5050505050905090565b600760009054906101000a900473ffffffffffffffffffffffffffffffffffffffff1681565b60008060016000610cdf611502565b73ffffffffffffffffffffffffffffffffffffffff1673ffffffffffffffffffffffffffffffffffffffff16815260200190815260200160002060008573ffffffffffffffffffffffffffffffffffffffff1673ffffffffffffffffffffffffffffffffffffffff16815260200190815260200160002054905082811015610d9c576040517f08c379a0000000000000000000000000000000000000000000000000000000008152600401610d9390612d24565b60405180910390fd5b610db9610da7611502565b858584610db49190612fdb565b61150a565b600191505092915050565b6000610dd8610dd1611502565b84846116d5565b6001905092915050565b60086020528060005260406000206000915090505481565b610e033361136f565b80610e0f576000610e31565b7fffffffffffffffffffffffffffffffffffffffffffffffffffffffffffffffff5b600860008473ffffffffffffffffffffffffffffffffffffffff1673ffffffffffffffffffffffffffffffffffffffff168152602001908152602001600020819055505050565b600960009054906101000a900460ff1681565b6000600160008473ffffffffffffffffffffffffffffffffffffffff1673ffffffffffffffffffffffffffffffffffffffff16815260200190815260200160002060008373ffffffffffffffffffffffffffffffffffffffff1673ffffffffffffffffffffffffffffffffffffffff16815260200190815260200160002054905092915050565b600073ffffffffffffffffffffffffffffffffffffffff16600760009054906101000a900473ffffffffffffffffffffffffffffffffffffffff1673ffffffffffffffffffffffffffffffffffffffff161480610fbc5750600760009054906101000a900473ffffffffffffffffffffffffffffffffffffffff1673ffffffffffffffffffffffffffffffffffffffff163373ffffffffffffffffffffffffffffffffffffffff16145b80610fd45750600660149054906101000a900460ff16155b611013576040517f08c379a000000000000000000000000000000000000000000000000000000000815260040161100a90612c24565b60405180910390fd5b80600760006101000a81548173ffffffffffffffffffffffffffffffffffffffff021916908373ffffffffffffffffffffffffffffffffffffffff1602179055508073ffffffffffffffffffffffffffffffffffffffff16632317beae6040518163ffffffff1660e01b815260040160206040518083038186803b15801561109a57600080fd5b505afa1580156110ae573d6000803e3d6000fd5b505050506040513d601f19601f820116820180604052508101906110d29190612201565b600660006101000a81548173ffffffffffffffffffffffffffffffffffffffff021916908373ffffffffffffffffffffffffffffffffffffffff16021790555050565b600061112081611d90565b600082600960009054906101000a900460ff1661113d9190612e85565b9050600660009054906101000a900473ffffffffffffffffffffffffffffffffffffffff1673ffffffffffffffffffffffffffffffffffffffff16634739a2ba82600960009054906101000a900460ff166040518363ffffffff1660e01b81526004016111ab929190612d9a565b60006040518083038186803b1580156111c357600080fd5b505afa1580156111d7573d6000803e3d6000fd5b505050506111e481611474565b50600660009054906101000a900473ffffffffffffffffffffffffffffffffffffffff1673ffffffffffffffffffffffffffffffffffffffff1663ad64d6cb60016040518263ffffffff1660e01b81526004016112419190612b27565b600060405180830381600087803b15801561125b57600080fd5b505af115801561126f573d6000803e3d6000fd5b505050505050565b61127f611502565b73ffffffffffffffffffffffffffffffffffffffff1661129d610bee565b73ffffffffffffffffffffffffffffffffffffffff16146112f3576040517f08c379a00000000000000000000000000000000000000000000000000000000081526004016112ea90612c84565b60405180910390fd5b600073ffffffffffffffffffffffffffffffffffffffff168173ffffffffffffffffffffffffffffffffffffffff161415611363576040517f08c379a000000000000000000000000000000000000000000000000000000000815260040161135a90612ba4565b60405180910390fd5b61136c81611cca565b50565b600660149054906101000a900460ff1615806114325750600760009054906101000a900473ffffffffffffffffffffffffffffffffffffffff1673ffffffffffffffffffffffffffffffffffffffff1663b7ebc23b826040518263ffffffff1660e01b81526004016113e19190612a97565b60206040518083038186803b1580156113f957600080fd5b505afa15801561140d573d6000803e3d6000fd5b505050506040513d601f19601f820116820180604052508101906114319190612394565b5b611471576040517f08c379a000000000000000000000000000000000000000000000000000000000815260040161146890612c44565b60405180910390fd5b50565b6000600960009054906101000a900460ff16905060648260ff1611611499578161149c565b60645b600960006101000a81548160ff021916908360ff1602179055507f2254c3f9f4378b228a7dbc8aaf885a3c628ec58f24033af3d4e8d7d90d264db481600960009054906101000a900460ff166040516114f6929190612dc3565b60405180910390a15050565b600033905090565b600073ffffffffffffffffffffffffffffffffffffffff168373ffffffffffffffffffffffffffffffffffffffff16141561157a576040517f08c379a000000000000000000000000000000000000000000000000000000000815260040161157190612d04565b60405180910390fd5b600073ffffffffffffffffffffffffffffffffffffffff168273ffffffffffffffffffffffffffffffffffffffff1614156115ea576040517f08c379a00000000000000000000000000000000000000000000000000000000081526004016115e190612bc4565b60405180910390fd5b80600160008573ffffffffffffffffffffffffffffffffffffffff1673ffffffffffffffffffffffffffffffffffffffff16815260200190815260200160002060008473ffffffffffffffffffffffffffffffffffffffff1673ffffffffffffffffffffffffffffffffffffffff168152602001908152602001600020819055508173ffffffffffffffffffffffffffffffffffffffff168373ffffffffffffffffffffffffffffffffffffffff167f8c5be1e5ebec7d5bd14f71427d1e84f3dd0314c0f7b2291e5b200ac8c7c3b925836040516116c89190612d64565b60405180910390a3505050565b600073ffffffffffffffffffffffffffffffffffffffff168373ffffffffffffffffffffffffffffffffffffffff161415611745576040517f08c379a000000000000000000000000000000000000000000000000000000000815260040161173c90612ce4565b60405180910390fd5b600073ffffffffffffffffffffffffffffffffffffffff168273ffffffffffffffffffffffffffffffffffffffff1614156117b5576040517f08c379a00000000000000000000000000000000000000000000000000000000081526004016117ac90612b64565b60405180910390fd5b6117c0838383611f84565b6000606482600960009054906101000a900460ff1660ff166117e29190612f81565b6117ec9190612f50565b9050806002546117fc9190612fdb565b60028190555060008060008673ffffffffffffffffffffffffffffffffffffffff1673ffffffffffffffffffffffffffffffffffffffff16815260200190815260200160002054905082811015611888576040517f08c379a000000000000000000000000000000000000000000000000000000000815260040161187f90612be4565b60405180910390fd5b82816118949190612fdb565b6000808773ffffffffffffffffffffffffffffffffffffffff1673ffffffffffffffffffffffffffffffffffffffff1681526020019081526020016000208190555081836118e29190612fdb565b6000808673ffffffffffffffffffffffffffffffffffffffff1673ffffffffffffffffffffffffffffffffffffffff168152602001908152602001600020600082825461192f9190612efa565b925050819055508373ffffffffffffffffffffffffffffffffffffffff168573ffffffffffffffffffffffffffffffffffffffff167fddf252ad1be2c89b69c2b068fc378daa952ba7f163c4a11628f55a4df523b3ef856040516119939190612d64565b60405180910390a35050505050565b600080823b905060008111915050919050565b60008390508073ffffffffffffffffffffffffffffffffffffffff1663a4c0ed363385856040518463ffffffff1660e01b81526004016119f793929190612ae9565b600060405180830381600087803b158015611a1157600080fd5b505af1158015611a25573d6000803e3d6000fd5b5050505050505050565b611a398484611f89565b7fffffffffffffffffffffffffffffffffffffffffffffffffffffffffffffffff811015611af05782600860008473ffffffffffffffffffffffffffffffffffffffff1673ffffffffffffffffffffffffffffffffffffffff16815260200190815260200160002054611aac9190612fdb565b600860008473ffffffffffffffffffffffffffffffffffffffff1673ffffffffffffffffffffffffffffffffffffffff168152602001908152602001600020819055505b50505050565b600073ffffffffffffffffffffffffffffffffffffffff168273ffffffffffffffffffffffffffffffffffffffff161415611b66576040517f08c379a0000000000000000000000000000000000000000000000000000000008152600401611b5d90612cc4565b60405180910390fd5b611b7282600083611f84565b60008060008473ffffffffffffffffffffffffffffffffffffffff1673ffffffffffffffffffffffffffffffffffffffff16815260200190815260200160002054905081811015611bf8576040517f08c379a0000000000000000000000000000000000000000000000000000000008152600401611bef90612b84565b60405180910390fd5b8181611c049190612fdb565b6000808573ffffffffffffffffffffffffffffffffffffffff1673ffffffffffffffffffffffffffffffffffffffff168152602001908152602001600020819055508160026000828254611c589190612fdb565b92505081905550600073ffffffffffffffffffffffffffffffffffffffff168373ffffffffffffffffffffffffffffffffffffffff167fddf252ad1be2c89b69c2b068fc378daa952ba7f163c4a11628f55a4df523b3ef84604051611cbd9190612d64565b60405180910390a3505050565b6000600560009054906101000a900473ffffffffffffffffffffffffffffffffffffffff16905081600560006101000a81548173ffffffffffffffffffffffffffffffffffffffff021916908373ffffffffffffffffffffffffffffffffffffffff1602179055508173ffffffffffffffffffffffffffffffffffffffff168173ffffffffffffffffffffffffffffffffffffffff167f8be0079c531659141344cd1fd0a4f28419497f9722a3daafe3b4186f6b6457e060405160405180910390a35050565b6000600760009054906101000a900473ffffffffffffffffffffffffffffffffffffffff1673ffffffffffffffffffffffffffffffffffffffff1663b7ebc23b336040518263ffffffff1660e01b8152600401611ded9190612a97565b60206040518083038186803b158015611e0557600080fd5b505afa158015611e19573d6000803e3d6000fd5b505050506040513d601f19601f82011682018060405250810190611e3d9190612394565b90508015611ed857600660009054906101000a900473ffffffffffffffffffffffffffffffffffffffff1673ffffffffffffffffffffffffffffffffffffffff1663ad64d6cb60006040518263ffffffff1660e01b8152600401611ea19190612b27565b600060405180830381600087803b158015611ebb57600080fd5b505af1158015611ecf573d6000803e3d6000fd5b50505050611f80565b600660149054906101000a900460ff1615611f7f57600660009054906101000a900473ffffffffffffffffffffffffffffffffffffffff1673ffffffffffffffffffffffffffffffffffffffff166398f112413330856040518463ffffffff1660e01b8152600401611f4c93929190612ab2565b600060405180830381600087803b158015611f6657600080fd5b505af1158015611f7a573d6000803e3d6000fd5b505050505b5b5050565b505050565b600073ffffffffffffffffffffffffffffffffffffffff168273ffffffffffffffffffffffffffffffffffffffff161415611ff9576040517f08c379a0000000000000000000000000000000000000000000000000000000008152600401611ff090612d44565b60405180910390fd5b61200560008383611f84565b80600260008282546120179190612efa565b92505081905550806000808473ffffffffffffffffffffffffffffffffffffffff1673ffffffffffffffffffffffffffffffffffffffff168152602001908152602001600020600082825461206c9190612efa565b925050819055508173ffffffffffffffffffffffffffffffffffffffff16600073ffffffffffffffffffffffffffffffffffffffff167fddf252ad1be2c89b69c2b068fc378daa952ba7f163c4a11628f55a4df523b3ef836040516120d19190612d64565b60405180910390a35050565b60006120f06120eb84612e1d565b612dec565b90508281526020810184848401111561210857600080fd5b612113848285613083565b509392505050565b60008135905061212a816131c4565b92915050565b60008151905061213f816131c4565b92915050565b600081359050612154816131db565b92915050565b600081519050612169816131db565b92915050565b600082601f83011261218057600080fd5b81356121908482602086016120dd565b91505092915050565b6000813590506121a8816131f2565b92915050565b6000813590506121bd81613209565b92915050565b6000813590506121d281613220565b92915050565b6000602082840312156121ea57600080fd5b60006121f88482850161211b565b91505092915050565b60006020828403121561221357600080fd5b600061222184828501612130565b91505092915050565b6000806040838503121561223d57600080fd5b600061224b8582860161211b565b925050602061225c8582860161211b565b9150509250929050565b60008060006060848603121561227b57600080fd5b60006122898682870161211b565b935050602061229a8682870161211b565b92505060406122ab868287016121ae565b9150509250925092565b600080604083850312156122c857600080fd5b60006122d68582860161211b565b92505060206122e785828601612145565b9150509250929050565b6000806040838503121561230457600080fd5b60006123128582860161211b565b9250506020612323858286016121ae565b9150509250929050565b60008060006060848603121561234257600080fd5b60006123508682870161211b565b9350506020612361868287016121ae565b925050604084013567ffffffffffffffff81111561237e57600080fd5b61238a8682870161216f565b9150509250925092565b6000602082840312156123a657600080fd5b60006123b48482850161215a565b91505092915050565b6000602082840312156123cf57600080fd5b60006123dd84828501612199565b91505092915050565b6000602082840312156123f857600080fd5b6000612406848285016121ae565b91505092915050565b60006020828403121561242157600080fd5b600061242f848285016121c3565b91505092915050565b6124418161300f565b82525050565b61245081613021565b82525050565b600061246182612e4d565b61246b8185612e63565b935061247b818560208601613092565b612484816131b3565b840191505092915050565b600061249a82612e58565b6124a48185612e74565b93506124b4818560208601613092565b6124bd816131b3565b840191505092915050565b60006124d5602383612e74565b91507f45524332303a207472616e7366657220746f20746865207a65726f206164647260008301527f65737300000000000000000000000000000000000000000000000000000000006020830152604082019050919050565b600061253b602283612e74565b91507f45524332303a206275726e20616d6f756e7420657863656564732062616c616e60008301527f63650000000000000000000000000000000000000000000000000000000000006020830152604082019050919050565b60006125a1602683612e74565b91507f4f776e61626c653a206e6577206f776e657220697320746865207a65726f206160008301527f64647265737300000000000000000000000000000000000000000000000000006020830152604082019050919050565b6000612607602283612e74565b91507f45524332303a20617070726f766520746f20746865207a65726f20616464726560008301527f73730000000000000000000000000000000000000000000000000000000000006020830152604082019050919050565b600061266d602683612e74565b91507f45524332303a207472616e7366657220616d6f756e742065786365656473206260008301527f616c616e636500000000000000000000000000000000000000000000000000006020830152604082019050919050565b60006126d3601d83612e74565b91507f466c616e3a204d696e7420616c6c6f77616e63652065786365656465640000006000830152602082019050919050565b6000612713600283612e74565b91507f454b0000000000000000000000000000000000000000000000000000000000006000830152602082019050919050565b6000612753600283612e74565b91507f454a0000000000000000000000000000000000000000000000000000000000006000830152602082019050919050565b6000612793602883612e74565b91507f45524332303a207472616e7366657220616d6f756e742065786365656473206160008301527f6c6c6f77616e63650000000000000000000000000000000000000000000000006020830152604082019050919050565b60006127f9602083612e74565b91507f4f776e61626c653a2063616c6c6572206973206e6f7420746865206f776e65726000830152602082019050919050565b6000612839602483612e74565b91507f45524332303a206275726e20616d6f756e74206578636565647320616c6c6f7760008301527f616e6365000000000000000000000000000000000000000000000000000000006020830152604082019050919050565b600061289f602183612e74565b91507f45524332303a206275726e2066726f6d20746865207a65726f2061646472657360008301527f73000000000000000000000000000000000000000000000000000000000000006020830152604082019050919050565b6000612905602583612e74565b91507f45524332303a207472616e736665722066726f6d20746865207a65726f20616460008301527f64726573730000000000000000000000000000000000000000000000000000006020830152604082019050919050565b600061296b602483612e74565b91507f45524332303a20617070726f76652066726f6d20746865207a65726f2061646460008301527f72657373000000000000000000000000000000000000000000000000000000006020830152604082019050919050565b60006129d1602583612e74565b91507f45524332303a2064656372656173656420616c6c6f77616e63652062656c6f7760008301527f207a65726f0000000000000000000000000000000000000000000000000000006020830152604082019050919050565b6000612a37601f83612e74565b91507f45524332303a206d696e7420746f20746865207a65726f2061646472657373006000830152602082019050919050565b612a738161305a565b82525050565b612a8281613071565b82525050565b612a9181613064565b82525050565b6000602082019050612aac6000830184612438565b92915050565b6000606082019050612ac76000830186612438565b612ad46020830185612438565b612ae16040830184612447565b949350505050565b6000606082019050612afe6000830186612438565b612b0b6020830185612a6a565b8181036040830152612b1d8184612456565b9050949350505050565b6000602082019050612b3c6000830184612447565b92915050565b60006020820190508181036000830152612b5c818461248f565b905092915050565b60006020820190508181036000830152612b7d816124c8565b9050919050565b60006020820190508181036000830152612b9d8161252e565b9050919050565b60006020820190508181036000830152612bbd81612594565b9050919050565b60006020820190508181036000830152612bdd816125fa565b9050919050565b60006020820190508181036000830152612bfd81612660565b9050919050565b60006020820190508181036000830152612c1d816126c6565b9050919050565b60006020820190508181036000830152612c3d81612706565b9050919050565b60006020820190508181036000830152612c5d81612746565b9050919050565b60006020820190508181036000830152612c7d81612786565b9050919050565b60006020820190508181036000830152612c9d816127ec565b9050919050565b60006020820190508181036000830152612cbd8161282c565b9050919050565b60006020820190508181036000830152612cdd81612892565b9050919050565b60006020820190508181036000830152612cfd816128f8565b9050919050565b60006020820190508181036000830152612d1d8161295e565b9050919050565b60006020820190508181036000830152612d3d816129c4565b9050919050565b60006020820190508181036000830152612d5d81612a2a565b9050919050565b6000602082019050612d796000830184612a6a565b92915050565b6000602082019050612d946000830184612a88565b92915050565b6000604082019050612daf6000830185612a79565b612dbc6020830184612a79565b9392505050565b6000604082019050612dd86000830185612a88565b612de56020830184612a88565b9392505050565b6000604051905081810181811067ffffffffffffffff82111715612e1357612e12613184565b5b8060405250919050565b600067ffffffffffffffff821115612e3857612e37613184565b5b601f19601f8301169050602081019050919050565b600081519050919050565b600081519050919050565b600082825260208201905092915050565b600082825260208201905092915050565b6000612e908261302d565b9150612e9b8361302d565b925081607f03831360008312151615612eb757612eb66130f7565b5b817fffffffffffffffffffffffffffffffffffffffffffffffffffffffffffffff80038312600083121615612eef57612eee6130f7565b5b828201905092915050565b6000612f058261305a565b9150612f108361305a565b9250827fffffffffffffffffffffffffffffffffffffffffffffffffffffffffffffffff03821115612f4557612f446130f7565b5b828201905092915050565b6000612f5b8261305a565b9150612f668361305a565b925082612f7657612f75613126565b5b828204905092915050565b6000612f8c8261305a565b9150612f978361305a565b9250817fffffffffffffffffffffffffffffffffffffffffffffffffffffffffffffffff0483118215151615612fd057612fcf6130f7565b5b828202905092915050565b6000612fe68261305a565b9150612ff18361305a565b925082821015613004576130036130f7565b5b828203905092915050565b600061301a8261303a565b9050919050565b60008115159050919050565b60008160000b9050919050565b600073ffffffffffffffffffffffffffffffffffffffff82169050919050565b6000819050919050565b600060ff82169050919050565b600061307c82613064565b9050919050565b82818337600083830152505050565b60005b838110156130b0578082015181840152602081019050613095565b838111156130bf576000848401525b50505050565b600060028204905060018216806130dd57607f821691505b602082108114156130f1576130f0613155565b5b50919050565b7f4e487b7100000000000000000000000000000000000000000000000000000000600052601160045260246000fd5b7f4e487b7100000000000000000000000000000000000000000000000000000000600052601260045260246000fd5b7f4e487b7100000000000000000000000000000000000000000000000000000000600052602260045260246000fd5b7f4e487b7100000000000000000000000000000000000000000000000000000000600052604160045260246000fd5b6000601f19601f8301169050919050565b6131cd8161300f565b81146131d857600080fd5b50565b6131e481613021565b81146131ef57600080fd5b50565b6131fb8161302d565b811461320657600080fd5b50565b6132128161305a565b811461321d57600080fd5b50565b61322981613064565b811461323457600080fd5b5056fea2646970667358221220b539e947f3c772d8b8ca201eb4837258db6207d9395226e0bfaaf2d97d7c0dab64736f6c63430008000033",
  "devdoc": {
    "kind": "dev",
    "methods": {
      "allowance(address,address)": {
        "details": "See {IERC20-allowance}."
      },
      "approve(address,uint256)": {
        "details": "See {IERC20-approve}. Requirements: - `spender` cannot be the zero address."
      },
      "balanceOf(address)": {
        "details": "See {IERC20-balanceOf}."
      },
      "burn(uint256)": {
        "details": "Destroys `amount` tokens from the caller. See {ERC20-_burn}."
      },
      "burnFrom(address,uint256)": {
        "details": "Destroys `amount` tokens from `account`, deducting from the caller's allowance. See {ERC20-_burn} and {ERC20-allowance}. Requirements: - the caller must have allowance for ``accounts``'s tokens of at least `amount`."
      },
      "decimals()": {
        "details": "Returns the number of decimals used to get its user representation. For example, if `decimals` equals `2`, a balance of `505` tokens should be displayed to a user as `5,05` (`505 / 10 ** 2`). Tokens usually opt for a value of 18, imitating the relationship between Ether and Wei. This is the value {ERC20} uses, unless this function is overridden; NOTE: This information is only used for _display_ purposes: it in no way affects any of the arithmetic of the contract, including {IERC20-balanceOf} and {IERC20-transfer}."
      },
      "decreaseAllowance(address,uint256)": {
        "details": "Atomically decreases the allowance granted to `spender` by the caller. This is an alternative to {approve} that can be used as a mitigation for problems described in {IERC20-approve}. Emits an {Approval} event indicating the updated allowance. Requirements: - `spender` cannot be the zero address. - `spender` must have allowance for the caller of at least `subtractedValue`."
      },
      "increaseAllowance(address,uint256)": {
        "details": "Atomically increases the allowance granted to `spender` by the caller. This is an alternative to {approve} that can be used as a mitigation for problems described in {IERC20-approve}. Emits an {Approval} event indicating the updated allowance. Requirements: - `spender` cannot be the zero address."
      },
      "name()": {
        "details": "Returns the name of the token."
      },
      "owner()": {
        "details": "Returns the address of the current owner."
      },
      "renounceOwnership()": {
        "details": "Leaves the contract without owner. It will not be possible to call `onlyOwner` functions anymore. Can only be called by the current owner. NOTE: Renouncing ownership will leave the contract without an owner, thereby removing any functionality that is only available to the owner."
      },
      "symbol()": {
        "details": "Returns the symbol of the token, usually a shorter version of the name."
      },
      "totalSupply()": {
        "details": "See {IERC20-totalSupply}."
      },
      "transfer(address,uint256)": {
        "details": "See {IERC20-transfer}. Requirements: - `recipient` cannot be the zero address. - the caller must have a balance of at least `amount`."
      },
      "transferAndCall(address,uint256,bytes)": {
        "details": "transfer token to a contract address with additional data if the recipient is a contact.",
        "params": {
          "_data": "The extra data to be passed to the receiving contract.",
          "_to": "The address to transfer to.",
          "_value": "The amount to be transferred."
        }
      },
      "transferFrom(address,address,uint256)": {
        "details": "See {IERC20-transferFrom}. Emits an {Approval} event indicating the updated allowance. This is not required by the EIP. See the note at the beginning of {ERC20}. Requirements: - `sender` and `recipient` cannot be the zero address. - `sender` must have a balance of at least `amount`. - the caller must have allowance for ``sender``'s tokens of at least `amount`."
      },
      "transferOwnership(address)": {
        "details": "Transfers ownership of the contract to a new account (`newOwner`). Can only be called by the current owner."
      }
    },
    "version": 1
  },
  "userdoc": {
    "kind": "user",
    "methods": {},
    "version": 1
  },
  "storageLayout": {
    "storage": [
      {
        "astId": 3903,
        "contract": "contracts/Flan.sol:Flan",
        "label": "_balances",
        "offset": 0,
        "slot": "0",
        "type": "t_mapping(t_address,t_uint256)"
      },
      {
        "astId": 3909,
        "contract": "contracts/Flan.sol:Flan",
        "label": "_allowances",
        "offset": 0,
        "slot": "1",
        "type": "t_mapping(t_address,t_mapping(t_address,t_uint256))"
      },
      {
        "astId": 3911,
        "contract": "contracts/Flan.sol:Flan",
        "label": "_totalSupply",
        "offset": 0,
        "slot": "2",
        "type": "t_uint256"
      },
      {
        "astId": 3913,
        "contract": "contracts/Flan.sol:Flan",
        "label": "_name",
        "offset": 0,
        "slot": "3",
        "type": "t_string_storage"
      },
      {
        "astId": 3915,
        "contract": "contracts/Flan.sol:Flan",
        "label": "_symbol",
        "offset": 0,
        "slot": "4",
        "type": "t_string_storage"
      },
      {
        "astId": 7,
        "contract": "contracts/Flan.sol:Flan",
        "label": "_owner",
        "offset": 0,
        "slot": "5",
        "type": "t_address"
      },
      {
        "astId": 1206,
        "contract": "contracts/Flan.sol:Flan",
        "label": "flashGoverner",
        "offset": 0,
        "slot": "6",
        "type": "t_contract(FlashGovernanceArbiterLike)7575"
      },
      {
        "astId": 1208,
        "contract": "contracts/Flan.sol:Flan",
        "label": "configured",
        "offset": 20,
        "slot": "6",
        "type": "t_bool"
      },
      {
        "astId": 1210,
        "contract": "contracts/Flan.sol:Flan",
        "label": "DAO",
        "offset": 0,
        "slot": "7",
        "type": "t_address"
      },
      {
        "astId": 4601,
        "contract": "contracts/Flan.sol:Flan",
        "label": "mintAllowance",
        "offset": 0,
        "slot": "8",
        "type": "t_mapping(t_address,t_uint256)"
      },
      {
        "astId": 4604,
        "contract": "contracts/Flan.sol:Flan",
        "label": "burnOnTransferFee",
        "offset": 0,
        "slot": "9",
        "type": "t_uint8"
      }
    ],
    "types": {
      "t_address": {
        "encoding": "inplace",
        "label": "address",
        "numberOfBytes": "20"
      },
      "t_bool": {
        "encoding": "inplace",
        "label": "bool",
        "numberOfBytes": "1"
      },
      "t_contract(FlashGovernanceArbiterLike)7575": {
        "encoding": "inplace",
        "label": "contract FlashGovernanceArbiterLike",
        "numberOfBytes": "20"
      },
      "t_mapping(t_address,t_mapping(t_address,t_uint256))": {
        "encoding": "mapping",
        "key": "t_address",
        "label": "mapping(address => mapping(address => uint256))",
        "numberOfBytes": "32",
        "value": "t_mapping(t_address,t_uint256)"
      },
      "t_mapping(t_address,t_uint256)": {
        "encoding": "mapping",
        "key": "t_address",
        "label": "mapping(address => uint256)",
        "numberOfBytes": "32",
        "value": "t_uint256"
      },
      "t_string_storage": {
        "encoding": "bytes",
        "label": "string",
        "numberOfBytes": "32"
      },
      "t_uint256": {
        "encoding": "inplace",
        "label": "uint256",
        "numberOfBytes": "32"
      },
      "t_uint8": {
        "encoding": "inplace",
        "label": "uint8",
        "numberOfBytes": "1"
      }
    }
  }
}