{
  "address": "0x8a16E29CaC5e50c9aa2a497589a02004e83e10e2",
  "abi": [
    {
      "inputs": [
        {
          "internalType": "address",
          "name": "dao",
          "type": "address"
        }
      ],
      "stateMutability": "nonpayable",
      "type": "constructor"
    },
    {
      "anonymous": false,
      "inputs": [
        {
          "indexed": false,
          "internalType": "address",
          "name": "actor",
          "type": "address"
        },
        {
          "indexed": false,
          "internalType": "address",
          "name": "deposit_asset",
          "type": "address"
        },
        {
          "indexed": false,
          "internalType": "uint256",
          "name": "amount",
          "type": "uint256"
        },
        {
          "indexed": false,
          "internalType": "address",
          "name": "target",
          "type": "address"
        }
      ],
      "name": "flashDecision",
      "type": "event"
    },
    {
      "inputs": [],
      "name": "DAO",
      "outputs": [
        {
          "internalType": "address",
          "name": "",
          "type": "address"
        }
      ],
      "stateMutability": "view",
      "type": "function"
    },
    {
      "inputs": [
        {
          "internalType": "address",
          "name": "sender",
          "type": "address"
        },
        {
          "internalType": "address",
          "name": "target",
          "type": "address"
        },
        {
          "internalType": "bool",
          "name": "emergency",
          "type": "bool"
        }
      ],
      "name": "assertGovernanceApproved",
      "outputs": [],
      "stateMutability": "nonpayable",
      "type": "function"
    },
    {
      "inputs": [
        {
          "internalType": "address",
          "name": "targetContract",
          "type": "address"
        },
        {
          "internalType": "address",
          "name": "user",
          "type": "address"
        },
        {
          "internalType": "address",
          "name": "asset",
          "type": "address"
        },
        {
          "internalType": "uint256",
          "name": "amount",
          "type": "uint256"
        }
      ],
      "name": "burnFlashGovernanceAsset",
      "outputs": [],
      "stateMutability": "nonpayable",
      "type": "function"
    },
    {
      "inputs": [
        {
          "internalType": "address",
          "name": "asset",
          "type": "address"
        },
        {
          "internalType": "uint256",
          "name": "amount",
          "type": "uint256"
        },
        {
          "internalType": "uint256",
          "name": "unlockTime",
          "type": "uint256"
        },
        {
          "internalType": "bool",
          "name": "assetBurnable",
          "type": "bool"
        }
      ],
      "name": "configureFlashGovernance",
      "outputs": [],
      "stateMutability": "nonpayable",
      "type": "function"
    },
    {
      "inputs": [
        {
          "internalType": "uint8",
          "name": "maxGovernanceChangePerEpoch",
          "type": "uint8"
        },
        {
          "internalType": "uint256",
          "name": "epochSize",
          "type": "uint256"
        },
        {
          "internalType": "uint8",
          "name": "changeTolerance",
          "type": "uint8"
        }
      ],
      "name": "configureSecurityParameters",
      "outputs": [],
      "stateMutability": "nonpayable",
      "type": "function"
    },
    {
      "inputs": [],
      "name": "configured",
      "outputs": [
        {
          "internalType": "bool",
          "name": "",
          "type": "bool"
        }
      ],
      "stateMutability": "view",
      "type": "function"
    },
    {
      "inputs": [],
      "name": "endConfiguration",
      "outputs": [],
      "stateMutability": "nonpayable",
      "type": "function"
    },
    {
      "inputs": [
        {
          "internalType": "uint256",
          "name": "v1",
          "type": "uint256"
        },
        {
          "internalType": "uint256",
          "name": "v2",
          "type": "uint256"
        }
      ],
      "name": "enforceTolerance",
      "outputs": [],
      "stateMutability": "view",
      "type": "function"
    },
    {
      "inputs": [
        {
          "internalType": "int256",
          "name": "v1",
          "type": "int256"
        },
        {
          "internalType": "int256",
          "name": "v2",
          "type": "int256"
        }
      ],
      "name": "enforceToleranceInt",
      "outputs": [],
      "stateMutability": "view",
      "type": "function"
    },
    {
      "inputs": [],
      "name": "flashGovernanceConfig",
      "outputs": [
        {
          "internalType": "address",
          "name": "asset",
          "type": "address"
        },
        {
          "internalType": "uint256",
          "name": "amount",
          "type": "uint256"
        },
        {
          "internalType": "uint256",
          "name": "unlockTime",
          "type": "uint256"
        },
        {
          "internalType": "bool",
          "name": "assetBurnable",
          "type": "bool"
        }
      ],
      "stateMutability": "view",
      "type": "function"
    },
    {
      "inputs": [
        {
          "internalType": "address",
          "name": "",
          "type": "address"
        },
        {
          "internalType": "address",
          "name": "",
          "type": "address"
        }
      ],
      "name": "pendingFlashDecision",
      "outputs": [
        {
          "internalType": "address",
          "name": "asset",
          "type": "address"
        },
        {
          "internalType": "uint256",
          "name": "amount",
          "type": "uint256"
        },
        {
          "internalType": "uint256",
          "name": "unlockTime",
          "type": "uint256"
        },
        {
          "internalType": "bool",
          "name": "assetBurnable",
          "type": "bool"
        }
      ],
      "stateMutability": "view",
      "type": "function"
    },
    {
      "inputs": [],
      "name": "security",
      "outputs": [
        {
          "internalType": "uint8",
          "name": "maxGovernanceChangePerEpoch",
          "type": "uint8"
        },
        {
          "internalType": "uint256",
          "name": "epochSize",
          "type": "uint256"
        },
        {
          "internalType": "uint256",
          "name": "lastFlashGovernanceAct",
          "type": "uint256"
        },
        {
          "internalType": "uint8",
          "name": "changeTolerance",
          "type": "uint8"
        }
      ],
      "stateMutability": "view",
      "type": "function"
    },
    {
      "inputs": [
        {
          "internalType": "address",
          "name": "dao",
          "type": "address"
        }
      ],
      "name": "setDAO",
      "outputs": [],
      "stateMutability": "nonpayable",
      "type": "function"
    },
    {
      "inputs": [
        {
          "internalType": "bool",
          "name": "enforce",
          "type": "bool"
        }
      ],
      "name": "setEnforcement",
      "outputs": [],
      "stateMutability": "nonpayable",
      "type": "function"
    },
    {
      "inputs": [
        {
          "internalType": "address",
          "name": "targetContract",
          "type": "address"
        },
        {
          "internalType": "address",
          "name": "asset",
          "type": "address"
        }
      ],
      "name": "withdrawGovernanceAsset",
      "outputs": [],
      "stateMutability": "nonpayable",
      "type": "function"
    }
  ],
  "transactionHash": "0xc0d13b851bf3d5ebe236fe344692765b5548fdfa5d2bc952b81dd6a8fdc4cb89",
  "args": [
    "0x8c9bd714e2598860E56a4D9E675E717665204442"
  ],
  "solcInputHash": "3b633f60859fc01482cc6a8d04cca0a0",
  "bytecode": "0x60806040523480156200001157600080fd5b506040516200250538038062002505833981810160405281019062000037919062000273565b8062000049816200005160201b60201c565b505062000362565b600073ffffffffffffffffffffffffffffffffffffffff16600160009054906101000a900473ffffffffffffffffffffffffffffffffffffffff1673ffffffffffffffffffffffffffffffffffffffff161480620000fc5750600160009054906101000a900473ffffffffffffffffffffffffffffffffffffffff1673ffffffffffffffffffffffffffffffffffffffff163373ffffffffffffffffffffffffffffffffffffffff16145b80620001155750600060149054906101000a900460ff16155b62000157576040517f08c379a00000000000000000000000000000000000000000000000000000000081526004016200014e90620002e1565b60405180910390fd5b80600160006101000a81548173ffffffffffffffffffffffffffffffffffffffff021916908373ffffffffffffffffffffffffffffffffffffffff1602179055508073ffffffffffffffffffffffffffffffffffffffff16632317beae6040518163ffffffff1660e01b815260040160206040518083038186803b158015620001df57600080fd5b505afa158015620001f4573d6000803e3d6000fd5b505050506040513d601f19601f820116820180604052508101906200021a919062000273565b6000806101000a81548173ffffffffffffffffffffffffffffffffffffffff021916908373ffffffffffffffffffffffffffffffffffffffff16021790555050565b6000815190506200026d8162000348565b92915050565b6000602082840312156200028657600080fd5b600062000296848285016200025c565b91505092915050565b6000620002ae60028362000303565b91507f454b0000000000000000000000000000000000000000000000000000000000006000830152602082019050919050565b60006020820190508181036000830152620002fc816200029f565b9050919050565b600082825260208201905092915050565b6000620003218262000328565b9050919050565b600073ffffffffffffffffffffffffffffffffffffffff82169050919050565b620003538162000314565b81146200035f57600080fd5b50565b61219380620003726000396000f3fe608060405234801561001057600080fd5b50600436106100f55760003560e01c80637d77bf431161009757806398fabd3a1161006657806398fabd3a1461023a578063ad64d6cb14610258578063b8b9765414610274578063e73a914c14610295576100f5565b80637d77bf43146101b15780638772a23a146101cd578063984905e4146101eb57806398f112411461021e576100f5565b80633850ed1e116100d35780633850ed1e1461014e5780634739a2ba1461016a578063478fa629146101865780635487991814610190576100f5565b806301f68ce3146100fa5780630e2365f2146101165780631070c82414610132575b600080fd5b610114600480360381019061010f9190611718565b6102b1565b005b610130600480360381019061012b9190611806565b61074d565b005b61014c60048036038101906101479190611754565b6107d0565b005b610168600480360381019061016391906118bb565b610a06565b005b610184600480360381019061017f91906118f7565b610aac565b005b61018e610cc7565b005b610198610ce4565b6040516101a89493929190611e0b565b60405180910390f35b6101cb60048036038101906101c69190611933565b610d1c565b005b6101d5610dc8565b6040516101e29190611cf5565b60405180910390f35b61020560048036038101906102009190611718565b610ddb565b6040516102159493929190611cb0565b60405180910390f35b610238600480360381019061023391906117b7565b610e45565b005b610242611261565b60405161024f9190611bf0565b60405180910390f35b610272600480360381019061026d9190611869565b611287565b005b61027c6112e1565b60405161028c9493929190611cb0565b60405180910390f35b6102af60048036038101906102aa91906116c6565b61132c565b005b8073ffffffffffffffffffffffffffffffffffffffff16600b60008473ffffffffffffffffffffffffffffffffffffffff1673ffffffffffffffffffffffffffffffffffffffff16815260200190815260200160002060003373ffffffffffffffffffffffffffffffffffffffff1673ffffffffffffffffffffffffffffffffffffffff16815260200190815260200160002060000160009054906101000a900473ffffffffffffffffffffffffffffffffffffffff1673ffffffffffffffffffffffffffffffffffffffff1614801561040a57506000600b60008473ffffffffffffffffffffffffffffffffffffffff1673ffffffffffffffffffffffffffffffffffffffff16815260200190815260200160002060003373ffffffffffffffffffffffffffffffffffffffff1673ffffffffffffffffffffffffffffffffffffffff16815260200190815260200160002060010154115b8015610494575042600b60008473ffffffffffffffffffffffffffffffffffffffff1673ffffffffffffffffffffffffffffffffffffffff16815260200190815260200160002060003373ffffffffffffffffffffffffffffffffffffffff1673ffffffffffffffffffffffffffffffffffffffff16815260200190815260200160002060020154105b6104d3576040517f08c379a00000000000000000000000000000000000000000000000000000000081526004016104ca90611dd0565b60405180910390fd5b600b60008373ffffffffffffffffffffffffffffffffffffffff1673ffffffffffffffffffffffffffffffffffffffff16815260200190815260200160002060003373ffffffffffffffffffffffffffffffffffffffff1673ffffffffffffffffffffffffffffffffffffffff16815260200190815260200160002060000160009054906101000a900473ffffffffffffffffffffffffffffffffffffffff1673ffffffffffffffffffffffffffffffffffffffff1663a9059cbb33600b60008673ffffffffffffffffffffffffffffffffffffffff1673ffffffffffffffffffffffffffffffffffffffff16815260200190815260200160002060003373ffffffffffffffffffffffffffffffffffffffff1673ffffffffffffffffffffffffffffffffffffffff168152602001908152602001600020600101546040518363ffffffff1660e01b815260040161062c929190611c87565b602060405180830381600087803b15801561064657600080fd5b505af115801561065a573d6000803e3d6000fd5b505050506040513d601f19601f8201168201806040525081019061067e9190611892565b50600b60008373ffffffffffffffffffffffffffffffffffffffff1673ffffffffffffffffffffffffffffffffffffffff16815260200190815260200160002060003373ffffffffffffffffffffffffffffffffffffffff1673ffffffffffffffffffffffffffffffffffffffff168152602001908152602001600020600080820160006101000a81549073ffffffffffffffffffffffffffffffffffffffff0219169055600182016000905560028201600090556003820160006101000a81549060ff021916905550505050565b6107563361152e565b83600360000160006101000a81548173ffffffffffffffffffffffffffffffffffffffff021916908373ffffffffffffffffffffffffffffffffffffffff1602179055508260036001018190555081600360020181905550806003800160006101000a81548160ff02191690831515021790555050505050565b6107d93361152e565b600b60008573ffffffffffffffffffffffffffffffffffffffff1673ffffffffffffffffffffffffffffffffffffffff16815260200190815260200160002060008473ffffffffffffffffffffffffffffffffffffffff1673ffffffffffffffffffffffffffffffffffffffff16815260200190815260200160002060030160009054906101000a900460ff16156108d7578173ffffffffffffffffffffffffffffffffffffffff166342966c68826040518263ffffffff1660e01b81526004016108a49190611df0565b600060405180830381600087803b1580156108be57600080fd5b505af11580156108d2573d6000803e3d6000fd5b505050505b6003600b60008673ffffffffffffffffffffffffffffffffffffffff1673ffffffffffffffffffffffffffffffffffffffff16815260200190815260200160002060008573ffffffffffffffffffffffffffffffffffffffff1673ffffffffffffffffffffffffffffffffffffffff1681526020019081526020016000206000820160009054906101000a900473ffffffffffffffffffffffffffffffffffffffff168160000160006101000a81548173ffffffffffffffffffffffffffffffffffffffff021916908373ffffffffffffffffffffffffffffffffffffffff16021790555060018201548160010155600282015481600201556003820160009054906101000a900460ff168160030160006101000a81548160ff02191690831515021790555090505050505050565b600060149054906101000a900460ff16610a1f57610aa8565b6000808313610a5957827fffffffffffffffffffffffffffffffffffffffffffffffffffffffffffffffff610a549190611eb7565b610a5b565b825b90506000808313610a9757827fffffffffffffffffffffffffffffffffffffffffffffffffffffffffffffffff610a929190611eb7565b610a99565b825b9050610aa58282610aac565b50505b5050565b600060149054906101000a900460ff161580610b125750600260003373ffffffffffffffffffffffffffffffffffffffff1673ffffffffffffffffffffffffffffffffffffffff16815260200190815260200160002060009054906101000a900460ff16155b15610b1c57610cc3565b80821115610bf5576000811415610b76576001821115610b71576040517f08c379a0000000000000000000000000000000000000000000000000000000008152600401610b6890611db0565b60405180910390fd5b610bf0565b81600760030160009054906101000a900460ff1660ff16610b979190611fce565b60648284610ba59190612028565b610baf9190611fce565b10610bef576040517f08c379a0000000000000000000000000000000000000000000000000000000008152600401610be690611db0565b60405180910390fd5b5b610cc2565b6000821415610c47576001811115610c42576040517f08c379a0000000000000000000000000000000000000000000000000000000008152600401610c3990611db0565b60405180910390fd5b610cc1565b81600760030160009054906101000a900460ff1660ff16610c689190611fce565b60648383610c769190612028565b610c809190611fce565b10610cc0576040517f08c379a0000000000000000000000000000000000000000000000000000000008152600401610cb790611db0565b60405180910390fd5b5b5b5b5050565b6001600060146101000a81548160ff021916908315150217905550565b60078060000160009054906101000a900460ff16908060010154908060020154908060030160009054906101000a900460ff16905084565b610d253361152e565b82600760000160006101000a81548160ff021916908360ff160217905550816007600101819055506064600760030160009054906101000a900460ff1660ff1610610da5576040517f08c379a0000000000000000000000000000000000000000000000000000000008152600401610d9c90611d10565b60405180910390fd5b80600760030160006101000a81548160ff021916908360ff160217905550505050565b600060149054906101000a900460ff1681565b600b602052816000526040600020602052806000526040600020600091509150508060000160009054906101000a900473ffffffffffffffffffffffffffffffffffffffff16908060010154908060020154908060030160009054906101000a900460ff16905084565b600360000160009054906101000a900473ffffffffffffffffffffffffffffffffffffffff1673ffffffffffffffffffffffffffffffffffffffff166323b872dd84306003600101546040518463ffffffff1660e01b8152600401610eac93929190611c0b565b602060405180830381600087803b158015610ec657600080fd5b505af1158015610eda573d6000803e3d6000fd5b505050506040513d601f19601f82011682018060405250810190610efe9190611892565b8015610f88575042600b60008473ffffffffffffffffffffffffffffffffffffffff1673ffffffffffffffffffffffffffffffffffffffff16815260200190815260200160002060008573ffffffffffffffffffffffffffffffffffffffff1673ffffffffffffffffffffffffffffffffffffffff16815260200190815260200160002060020154105b15611221578080610fad575060076001015460076002015442610fab9190612028565b115b610fec576040517f08c379a0000000000000000000000000000000000000000000000000000000008152600401610fe390611d90565b60405180910390fd5b6003600b60008473ffffffffffffffffffffffffffffffffffffffff1673ffffffffffffffffffffffffffffffffffffffff16815260200190815260200160002060008573ffffffffffffffffffffffffffffffffffffffff1673ffffffffffffffffffffffffffffffffffffffff1681526020019081526020016000206000820160009054906101000a900473ffffffffffffffffffffffffffffffffffffffff168160000160006101000a81548173ffffffffffffffffffffffffffffffffffffffff021916908373ffffffffffffffffffffffffffffffffffffffff16021790555060018201548160010155600282015481600201556003820160009054906101000a900460ff168160030160006101000a81548160ff02191690831515021790555090505042600b60008473ffffffffffffffffffffffffffffffffffffffff1673ffffffffffffffffffffffffffffffffffffffff16815260200190815260200160002060008573ffffffffffffffffffffffffffffffffffffffff1673ffffffffffffffffffffffffffffffffffffffff16815260200190815260200160002060020160008282546111a49190611e61565b92505081905550426007600201819055507fd2ee22547ba3675fb74486298b9ad32c9bbc4d7f773a2b679d3e2c27dae30ee683600360000160009054906101000a900473ffffffffffffffffffffffffffffffffffffffff16600360010154856040516112149493929190611c42565b60405180910390a161125c565b6040517f08c379a000000000000000000000000000000000000000000000000000000000815260040161125390611d70565b60405180910390fd5b505050565b600160009054906101000a900473ffffffffffffffffffffffffffffffffffffffff1681565b80600260003373ffffffffffffffffffffffffffffffffffffffff1673ffffffffffffffffffffffffffffffffffffffff16815260200190815260200160002060006101000a81548160ff02191690831515021790555050565b60038060000160009054906101000a900473ffffffffffffffffffffffffffffffffffffffff16908060010154908060020154908060030160009054906101000a900460ff16905084565b600073ffffffffffffffffffffffffffffffffffffffff16600160009054906101000a900473ffffffffffffffffffffffffffffffffffffffff1673ffffffffffffffffffffffffffffffffffffffff1614806113d65750600160009054906101000a900473ffffffffffffffffffffffffffffffffffffffff1673ffffffffffffffffffffffffffffffffffffffff163373ffffffffffffffffffffffffffffffffffffffff16145b806113ee5750600060149054906101000a900460ff16155b61142d576040517f08c379a000000000000000000000000000000000000000000000000000000000815260040161142490611d30565b60405180910390fd5b80600160006101000a81548173ffffffffffffffffffffffffffffffffffffffff021916908373ffffffffffffffffffffffffffffffffffffffff1602179055508073ffffffffffffffffffffffffffffffffffffffff16632317beae6040518163ffffffff1660e01b815260040160206040518083038186803b1580156114b457600080fd5b505afa1580156114c8573d6000803e3d6000fd5b505050506040513d601f19601f820116820180604052508101906114ec91906116ef565b6000806101000a81548173ffffffffffffffffffffffffffffffffffffffff021916908373ffffffffffffffffffffffffffffffffffffffff16021790555050565b600060149054906101000a900460ff1615806115f15750600160009054906101000a900473ffffffffffffffffffffffffffffffffffffffff1673ffffffffffffffffffffffffffffffffffffffff1663b7ebc23b826040518263ffffffff1660e01b81526004016115a09190611bf0565b60206040518083038186803b1580156115b857600080fd5b505afa1580156115cc573d6000803e3d6000fd5b505050506040513d601f19601f820116820180604052508101906115f09190611892565b5b611630576040517f08c379a000000000000000000000000000000000000000000000000000000000815260040161162790611d50565b60405180910390fd5b50565b600081359050611642816120ea565b92915050565b600081519050611657816120ea565b92915050565b60008135905061166c81612101565b92915050565b60008151905061168181612101565b92915050565b60008135905061169681612118565b92915050565b6000813590506116ab8161212f565b92915050565b6000813590506116c081612146565b92915050565b6000602082840312156116d857600080fd5b60006116e684828501611633565b91505092915050565b60006020828403121561170157600080fd5b600061170f84828501611648565b91505092915050565b6000806040838503121561172b57600080fd5b600061173985828601611633565b925050602061174a85828601611633565b9150509250929050565b6000806000806080858703121561176a57600080fd5b600061177887828801611633565b945050602061178987828801611633565b935050604061179a87828801611633565b92505060606117ab8782880161169c565b91505092959194509250565b6000806000606084860312156117cc57600080fd5b60006117da86828701611633565b93505060206117eb86828701611633565b92505060406117fc8682870161165d565b9150509250925092565b6000806000806080858703121561181c57600080fd5b600061182a87828801611633565b945050602061183b8782880161169c565b935050604061184c8782880161169c565b925050606061185d8782880161165d565b91505092959194509250565b60006020828403121561187b57600080fd5b60006118898482850161165d565b91505092915050565b6000602082840312156118a457600080fd5b60006118b284828501611672565b91505092915050565b600080604083850312156118ce57600080fd5b60006118dc85828601611687565b92505060206118ed85828601611687565b9150509250929050565b6000806040838503121561190a57600080fd5b60006119188582860161169c565b92505060206119298582860161169c565b9150509250929050565b60008060006060848603121561194857600080fd5b6000611956868287016116b1565b93505060206119678682870161169c565b9250506040611978868287016116b1565b9150509250925092565b61198b8161205c565b82525050565b61199a8161206e565b82525050565b60006119ad601a83611e50565b91507f4c696d626f3a2025206265747765656e203020616e64203130300000000000006000830152602082019050919050565b60006119ed600283611e50565b91507f454b0000000000000000000000000000000000000000000000000000000000006000830152602082019050919050565b6000611a2d600283611e50565b91507f454a0000000000000000000000000000000000000000000000000000000000006000830152602082019050919050565b6000611a6d602483611e50565b91507f4c494d424f3a20676f7665726e616e6365206465636973696f6e2072656a656360008301527f7465642e000000000000000000000000000000000000000000000000000000006020830152604082019050919050565b6000611ad3603283611e50565b91507f4c696d626f3a20666c61736820676f7665726e616e63652064697361626c656460008301527f20666f722072657374206f662065706f636800000000000000000000000000006020830152604082019050919050565b6000611b39600383611e50565b91507f46453100000000000000000000000000000000000000000000000000000000006000830152602082019050919050565b6000611b79602883611e50565b91507f4c696d626f3a20466c617368676f7665726e616e6365206465636973696f6e2060008301527f70656e64696e672e0000000000000000000000000000000000000000000000006020830152604082019050919050565b611bdb816120a4565b82525050565b611bea816120ae565b82525050565b6000602082019050611c056000830184611982565b92915050565b6000606082019050611c206000830186611982565b611c2d6020830185611982565b611c3a6040830184611bd2565b949350505050565b6000608082019050611c576000830187611982565b611c646020830186611982565b611c716040830185611bd2565b611c7e6060830184611982565b95945050505050565b6000604082019050611c9c6000830185611982565b611ca96020830184611bd2565b9392505050565b6000608082019050611cc56000830187611982565b611cd26020830186611bd2565b611cdf6040830185611bd2565b611cec6060830184611991565b95945050505050565b6000602082019050611d0a6000830184611991565b92915050565b60006020820190508181036000830152611d29816119a0565b9050919050565b60006020820190508181036000830152611d49816119e0565b9050919050565b60006020820190508181036000830152611d6981611a20565b9050919050565b60006020820190508181036000830152611d8981611a60565b9050919050565b60006020820190508181036000830152611da981611ac6565b9050919050565b60006020820190508181036000830152611dc981611b2c565b9050919050565b60006020820190508181036000830152611de981611b6c565b9050919050565b6000602082019050611e056000830184611bd2565b92915050565b6000608082019050611e206000830187611be1565b611e2d6020830186611bd2565b611e3a6040830185611bd2565b611e476060830184611be1565b95945050505050565b600082825260208201905092915050565b6000611e6c826120a4565b9150611e77836120a4565b9250827fffffffffffffffffffffffffffffffffffffffffffffffffffffffffffffffff03821115611eac57611eab6120bb565b5b828201905092915050565b6000611ec28261207a565b9150611ecd8361207a565b9250827f7fffffffffffffffffffffffffffffffffffffffffffffffffffffffffffffff0482116000841360008413161615611f0c57611f0b6120bb565b5b817f80000000000000000000000000000000000000000000000000000000000000000583126000841260008413161615611f4957611f486120bb565b5b827f80000000000000000000000000000000000000000000000000000000000000000582126000841360008412161615611f8657611f856120bb565b5b827f7fffffffffffffffffffffffffffffffffffffffffffffffffffffffffffffff0582126000841260008412161615611fc357611fc26120bb565b5b828202905092915050565b6000611fd9826120a4565b9150611fe4836120a4565b9250817fffffffffffffffffffffffffffffffffffffffffffffffffffffffffffffffff048311821515161561201d5761201c6120bb565b5b828202905092915050565b6000612033826120a4565b915061203e836120a4565b925082821015612051576120506120bb565b5b828203905092915050565b600061206782612084565b9050919050565b60008115159050919050565b6000819050919050565b600073ffffffffffffffffffffffffffffffffffffffff82169050919050565b6000819050919050565b600060ff82169050919050565b7f4e487b7100000000000000000000000000000000000000000000000000000000600052601160045260246000fd5b6120f38161205c565b81146120fe57600080fd5b50565b61210a8161206e565b811461211557600080fd5b50565b6121218161207a565b811461212c57600080fd5b50565b612138816120a4565b811461214357600080fd5b50565b61214f816120ae565b811461215a57600080fd5b5056fea26469706673582212205dfc30dc780507b6214a698e425a94ef72c487f8e56577c5705bd91e416d7bd164736f6c63430008000033",
  "devdoc": {
    "kind": "dev",
    "methods": {},
    "version": 1
  },
  "userdoc": {
    "kind": "user",
    "methods": {},
    "version": 1
  },
  "storageLayout": {
    "storage": [
      {
        "astId": 1206,
        "contract": "contracts/DAO/FlashGovernanceArbiter.sol:FlashGovernanceArbiter",
        "label": "flashGoverner",
        "offset": 0,
        "slot": "0",
        "type": "t_contract(FlashGovernanceArbiterLike)7575"
      },
      {
        "astId": 1208,
        "contract": "contracts/DAO/FlashGovernanceArbiter.sol:FlashGovernanceArbiter",
        "label": "configured",
        "offset": 20,
        "slot": "0",
        "type": "t_bool"
      },
      {
        "astId": 1210,
        "contract": "contracts/DAO/FlashGovernanceArbiter.sol:FlashGovernanceArbiter",
        "label": "DAO",
        "offset": 0,
        "slot": "1",
        "type": "t_address"
      },
      {
        "astId": 745,
        "contract": "contracts/DAO/FlashGovernanceArbiter.sol:FlashGovernanceArbiter",
        "label": "enforceLimitsActive",
        "offset": 0,
        "slot": "2",
        "type": "t_mapping(t_address,t_bool)"
      },
      {
        "astId": 775,
        "contract": "contracts/DAO/FlashGovernanceArbiter.sol:FlashGovernanceArbiter",
        "label": "flashGovernanceConfig",
        "offset": 0,
        "slot": "3",
        "type": "t_struct(FlashGovernanceConfig)763_storage"
      },
      {
        "astId": 778,
        "contract": "contracts/DAO/FlashGovernanceArbiter.sol:FlashGovernanceArbiter",
        "label": "security",
        "offset": 0,
        "slot": "7",
        "type": "t_struct(SecurityParameters)772_storage"
      },
      {
        "astId": 785,
        "contract": "contracts/DAO/FlashGovernanceArbiter.sol:FlashGovernanceArbiter",
        "label": "pendingFlashDecision",
        "offset": 0,
        "slot": "11",
        "type": "t_mapping(t_address,t_mapping(t_address,t_struct(FlashGovernanceConfig)763_storage))"
      }
    ],
    "types": {
      "t_address": {
        "encoding": "inplace",
        "label": "address",
        "numberOfBytes": "20"
      },
      "t_bool": {
        "encoding": "inplace",
        "label": "bool",
        "numberOfBytes": "1"
      },
      "t_contract(FlashGovernanceArbiterLike)7575": {
        "encoding": "inplace",
        "label": "contract FlashGovernanceArbiterLike",
        "numberOfBytes": "20"
      },
      "t_mapping(t_address,t_bool)": {
        "encoding": "mapping",
        "key": "t_address",
        "label": "mapping(address => bool)",
        "numberOfBytes": "32",
        "value": "t_bool"
      },
      "t_mapping(t_address,t_mapping(t_address,t_struct(FlashGovernanceConfig)763_storage))": {
        "encoding": "mapping",
        "key": "t_address",
        "label": "mapping(address => mapping(address => struct FlashGovernanceArbiter.FlashGovernanceConfig))",
        "numberOfBytes": "32",
        "value": "t_mapping(t_address,t_struct(FlashGovernanceConfig)763_storage)"
      },
      "t_mapping(t_address,t_struct(FlashGovernanceConfig)763_storage)": {
        "encoding": "mapping",
        "key": "t_address",
        "label": "mapping(address => struct FlashGovernanceArbiter.FlashGovernanceConfig)",
        "numberOfBytes": "32",
        "value": "t_struct(FlashGovernanceConfig)763_storage"
      },
      "t_struct(FlashGovernanceConfig)763_storage": {
        "encoding": "inplace",
        "label": "struct FlashGovernanceArbiter.FlashGovernanceConfig",
        "members": [
          {
            "astId": 756,
            "contract": "contracts/DAO/FlashGovernanceArbiter.sol:FlashGovernanceArbiter",
            "label": "asset",
            "offset": 0,
            "slot": "0",
            "type": "t_address"
          },
          {
            "astId": 758,
            "contract": "contracts/DAO/FlashGovernanceArbiter.sol:FlashGovernanceArbiter",
            "label": "amount",
            "offset": 0,
            "slot": "1",
            "type": "t_uint256"
          },
          {
            "astId": 760,
            "contract": "contracts/DAO/FlashGovernanceArbiter.sol:FlashGovernanceArbiter",
            "label": "unlockTime",
            "offset": 0,
            "slot": "2",
            "type": "t_uint256"
          },
          {
            "astId": 762,
            "contract": "contracts/DAO/FlashGovernanceArbiter.sol:FlashGovernanceArbiter",
            "label": "assetBurnable",
            "offset": 0,
            "slot": "3",
            "type": "t_bool"
          }
        ],
        "numberOfBytes": "128"
      },
      "t_struct(SecurityParameters)772_storage": {
        "encoding": "inplace",
        "label": "struct FlashGovernanceArbiter.SecurityParameters",
        "members": [
          {
            "astId": 765,
            "contract": "contracts/DAO/FlashGovernanceArbiter.sol:FlashGovernanceArbiter",
            "label": "maxGovernanceChangePerEpoch",
            "offset": 0,
            "slot": "0",
            "type": "t_uint8"
          },
          {
            "astId": 767,
            "contract": "contracts/DAO/FlashGovernanceArbiter.sol:FlashGovernanceArbiter",
            "label": "epochSize",
            "offset": 0,
            "slot": "1",
            "type": "t_uint256"
          },
          {
            "astId": 769,
            "contract": "contracts/DAO/FlashGovernanceArbiter.sol:FlashGovernanceArbiter",
            "label": "lastFlashGovernanceAct",
            "offset": 0,
            "slot": "2",
            "type": "t_uint256"
          },
          {
            "astId": 771,
            "contract": "contracts/DAO/FlashGovernanceArbiter.sol:FlashGovernanceArbiter",
            "label": "changeTolerance",
            "offset": 0,
            "slot": "3",
            "type": "t_uint8"
          }
        ],
        "numberOfBytes": "128"
      },
      "t_uint256": {
        "encoding": "inplace",
        "label": "uint256",
        "numberOfBytes": "32"
      },
      "t_uint8": {
        "encoding": "inplace",
        "label": "uint8",
        "numberOfBytes": "1"
      }
    }
  }
}