{
  "address": "0x4Cfde611c84E2318C01092Ade351479b71164203",
  "abi": [
    {
      "inputs": [
        {
          "internalType": "address",
          "name": "flan",
          "type": "address"
        },
        {
          "internalType": "address",
          "name": "limboDAO",
          "type": "address"
        }
      ],
      "stateMutability": "nonpayable",
      "type": "constructor"
    },
    {
      "anonymous": false,
      "inputs": [
        {
          "indexed": false,
          "internalType": "address",
          "name": "token",
          "type": "address"
        },
        {
          "indexed": false,
          "internalType": "uint256",
          "name": "index",
          "type": "uint256"
        },
        {
          "indexed": false,
          "internalType": "address",
          "name": "recipient",
          "type": "address"
        },
        {
          "indexed": false,
          "internalType": "uint256",
          "name": "bonus",
          "type": "uint256"
        }
      ],
      "name": "BonusPaid",
      "type": "event"
    },
    {
      "anonymous": false,
      "inputs": [
        {
          "indexed": false,
          "internalType": "address",
          "name": "staker",
          "type": "address"
        },
        {
          "indexed": false,
          "internalType": "address",
          "name": "soul",
          "type": "address"
        },
        {
          "indexed": false,
          "internalType": "uint256",
          "name": "index",
          "type": "uint256"
        },
        {
          "indexed": false,
          "internalType": "uint256",
          "name": "amount",
          "type": "uint256"
        }
      ],
      "name": "ClaimedReward",
      "type": "event"
    },
    {
      "anonymous": false,
      "inputs": [
        {
          "indexed": false,
          "internalType": "address",
          "name": "soul",
          "type": "address"
        },
        {
          "indexed": false,
          "internalType": "uint256",
          "name": "fps",
          "type": "uint256"
        }
      ],
      "name": "SoulUpdated",
      "type": "event"
    },
    {
      "anonymous": false,
      "inputs": [
        {
          "indexed": false,
          "internalType": "address",
          "name": "staker",
          "type": "address"
        },
        {
          "indexed": false,
          "internalType": "address",
          "name": "soul",
          "type": "address"
        },
        {
          "indexed": false,
          "internalType": "uint256",
          "name": "amount",
          "type": "uint256"
        }
      ],
      "name": "Staked",
      "type": "event"
    },
    {
      "anonymous": false,
      "inputs": [
        {
          "indexed": false,
          "internalType": "address",
          "name": "token",
          "type": "address"
        },
        {
          "indexed": false,
          "internalType": "uint256",
          "name": "amount",
          "type": "uint256"
        },
        {
          "indexed": false,
          "internalType": "uint256",
          "name": "scxfln_LP_minted",
          "type": "uint256"
        }
      ],
      "name": "TokenListed",
      "type": "event"
    },
    {
      "anonymous": false,
      "inputs": [
        {
          "indexed": false,
          "internalType": "address",
          "name": "staker",
          "type": "address"
        },
        {
          "indexed": false,
          "internalType": "address",
          "name": "soul",
          "type": "address"
        },
        {
          "indexed": false,
          "internalType": "uint256",
          "name": "amount",
          "type": "uint256"
        }
      ],
      "name": "Unstaked",
      "type": "event"
    },
    {
      "inputs": [],
      "name": "DAO",
      "outputs": [
        {
          "internalType": "address",
          "name": "",
          "type": "address"
        }
      ],
      "stateMutability": "view",
      "type": "function"
    },
    {
      "inputs": [
        {
          "internalType": "address",
          "name": "token",
          "type": "address"
        },
        {
          "internalType": "uint256",
          "name": "initialCrossingBonus",
          "type": "uint256"
        },
        {
          "internalType": "int256",
          "name": "crossingBonusDelta",
          "type": "int256"
        },
        {
          "internalType": "uint256",
          "name": "fps",
          "type": "uint256"
        }
      ],
      "name": "adjustSoul",
      "outputs": [],
      "stateMutability": "nonpayable",
      "type": "function"
    },
    {
      "inputs": [
        {
          "internalType": "address",
          "name": "token",
          "type": "address"
        },
        {
          "internalType": "uint256",
          "name": "desiredAPY",
          "type": "uint256"
        },
        {
          "internalType": "uint256",
          "name": "daiThreshold",
          "type": "uint256"
        }
      ],
      "name": "attemptToTargetAPY",
      "outputs": [],
      "stateMutability": "nonpayable",
      "type": "function"
    },
    {
      "inputs": [
        {
          "internalType": "address",
          "name": "token",
          "type": "address"
        },
        {
          "internalType": "uint256",
          "name": "index",
          "type": "uint256"
        }
      ],
      "name": "claimBonus",
      "outputs": [],
      "stateMutability": "nonpayable",
      "type": "function"
    },
    {
      "inputs": [
        {
          "internalType": "address",
          "name": "token",
          "type": "address"
        },
        {
          "internalType": "uint256",
          "name": "index",
          "type": "uint256"
        }
      ],
      "name": "claimReward",
      "outputs": [],
      "stateMutability": "nonpayable",
      "type": "function"
    },
    {
      "inputs": [
        {
          "internalType": "address",
          "name": "token",
          "type": "address"
        }
      ],
      "name": "claimSecondaryRewards",
      "outputs": [],
      "stateMutability": "nonpayable",
      "type": "function"
    },
    {
      "inputs": [
        {
          "internalType": "address",
          "name": "behodler",
          "type": "address"
        },
        {
          "internalType": "address",
          "name": "angband",
          "type": "address"
        },
        {
          "internalType": "address",
          "name": "ammHelper",
          "type": "address"
        },
        {
          "internalType": "address",
          "name": "morgothPower",
          "type": "address"
        },
        {
          "internalType": "uint256",
          "name": "migrationInvocationReward",
          "type": "uint256"
        },
        {
          "internalType": "uint256",
          "name": "crossingMigrationDelay",
          "type": "uint256"
        },
        {
          "internalType": "uint16",
          "name": "rectInflationFactor",
          "type": "uint16"
        }
      ],
      "name": "configureCrossingConfig",
      "outputs": [],
      "stateMutability": "nonpayable",
      "type": "function"
    },
    {
      "inputs": [
        {
          "internalType": "address",
          "name": "token",
          "type": "address"
        },
        {
          "internalType": "uint256",
          "name": "initialCrossingBonus",
          "type": "uint256"
        },
        {
          "internalType": "int256",
          "name": "crossingBonusDelta",
          "type": "int256"
        },
        {
          "internalType": "bool",
          "name": "burnable",
          "type": "bool"
        },
        {
          "internalType": "uint256",
          "name": "crossingThreshold",
          "type": "uint256"
        }
      ],
      "name": "configureCrossingParameters",
      "outputs": [],
      "stateMutability": "nonpayable",
      "type": "function"
    },
    {
      "inputs": [
        {
          "internalType": "address",
          "name": "token",
          "type": "address"
        },
        {
          "internalType": "uint256",
          "name": "crossingThreshold",
          "type": "uint256"
        },
        {
          "internalType": "uint256",
          "name": "soulType",
          "type": "uint256"
        },
        {
          "internalType": "uint256",
          "name": "state",
          "type": "uint256"
        },
        {
          "internalType": "uint256",
          "name": "index",
          "type": "uint256"
        },
        {
          "internalType": "uint256",
          "name": "fps",
          "type": "uint256"
        }
      ],
      "name": "configureSoul",
      "outputs": [],
      "stateMutability": "nonpayable",
      "type": "function"
    },
    {
      "inputs": [],
      "name": "configured",
      "outputs": [
        {
          "internalType": "bool",
          "name": "",
          "type": "bool"
        }
      ],
      "stateMutability": "view",
      "type": "function"
    },
    {
      "inputs": [],
      "name": "crossingConfig",
      "outputs": [
        {
          "internalType": "address",
          "name": "behodler",
          "type": "address"
        },
        {
          "internalType": "uint256",
          "name": "SCX_fee",
          "type": "uint256"
        },
        {
          "internalType": "uint256",
          "name": "migrationInvocationReward",
          "type": "uint256"
        },
        {
          "internalType": "uint256",
          "name": "crossingMigrationDelay",
          "type": "uint256"
        },
        {
          "internalType": "address",
          "name": "morgothPower",
          "type": "address"
        },
        {
          "internalType": "address",
          "name": "angband",
          "type": "address"
        },
        {
          "internalType": "address",
          "name": "ammHelper",
          "type": "address"
        },
        {
          "internalType": "uint16",
          "name": "rectangleOfFairnessInflationFactor",
          "type": "uint16"
        }
      ],
      "stateMutability": "view",
      "type": "function"
    },
    {
      "inputs": [],
      "name": "disableProtocol",
      "outputs": [],
      "stateMutability": "nonpayable",
      "type": "function"
    },
    {
      "inputs": [],
      "name": "enableProtocol",
      "outputs": [],
      "stateMutability": "nonpayable",
      "type": "function"
    },
    {
      "inputs": [],
      "name": "endConfiguration",
      "outputs": [],
      "stateMutability": "nonpayable",
      "type": "function"
    },
    {
      "inputs": [
        {
          "internalType": "address",
          "name": "",
          "type": "address"
        }
      ],
      "name": "latestIndex",
      "outputs": [
        {
          "internalType": "uint256",
          "name": "",
          "type": "uint256"
        }
      ],
      "stateMutability": "view",
      "type": "function"
    },
    {
      "inputs": [
        {
          "internalType": "address",
          "name": "token",
          "type": "address"
        }
      ],
      "name": "migrate",
      "outputs": [],
      "stateMutability": "nonpayable",
      "type": "function"
    },
    {
      "inputs": [
        {
          "internalType": "address",
          "name": "dao",
          "type": "address"
        }
      ],
      "name": "setDAO",
      "outputs": [],
      "stateMutability": "nonpayable",
      "type": "function"
    },
    {
      "inputs": [
        {
          "internalType": "address",
          "name": "",
          "type": "address"
        },
        {
          "internalType": "uint256",
          "name": "",
          "type": "uint256"
        }
      ],
      "name": "souls",
      "outputs": [
        {
          "internalType": "uint256",
          "name": "lastRewardTimestamp",
          "type": "uint256"
        },
        {
          "internalType": "uint256",
          "name": "accumulatedFlanPerShare",
          "type": "uint256"
        },
        {
          "internalType": "uint256",
          "name": "crossingThreshold",
          "type": "uint256"
        },
        {
          "internalType": "enum SoulType",
          "name": "soulType",
          "type": "uint8"
        },
        {
          "internalType": "enum SoulState",
          "name": "state",
          "type": "uint8"
        },
        {
          "internalType": "uint256",
          "name": "flanPerSecond",
          "type": "uint256"
        }
      ],
      "stateMutability": "view",
      "type": "function"
    },
    {
      "inputs": [
        {
          "internalType": "address",
          "name": "token",
          "type": "address"
        },
        {
          "internalType": "uint256",
          "name": "amount",
          "type": "uint256"
        }
      ],
      "name": "stake",
      "outputs": [],
      "stateMutability": "nonpayable",
      "type": "function"
    },
    {
      "inputs": [
        {
          "internalType": "address",
          "name": "",
          "type": "address"
        },
        {
          "internalType": "uint256",
          "name": "",
          "type": "uint256"
        }
      ],
      "name": "tokenCrossingParameters",
      "outputs": [
        {
          "internalType": "uint256",
          "name": "stakingBeginsTimestamp",
          "type": "uint256"
        },
        {
          "internalType": "uint256",
          "name": "stakingEndTimestamp",
          "type": "uint256"
        },
        {
          "internalType": "int256",
          "name": "crossingBonusDelta",
          "type": "int256"
        },
        {
          "internalType": "uint256",
          "name": "initialCrossingBonus",
          "type": "uint256"
        },
        {
          "internalType": "bool",
          "name": "burnable",
          "type": "bool"
        }
      ],
      "stateMutability": "view",
      "type": "function"
    },
    {
      "inputs": [
        {
          "internalType": "address",
          "name": "token",
          "type": "address"
        },
        {
          "internalType": "uint256",
          "name": "amount",
          "type": "uint256"
        }
      ],
      "name": "unstake",
      "outputs": [],
      "stateMutability": "nonpayable",
      "type": "function"
    },
    {
      "inputs": [
        {
          "internalType": "address",
          "name": "token",
          "type": "address"
        }
      ],
      "name": "updateSoul",
      "outputs": [],
      "stateMutability": "nonpayable",
      "type": "function"
    },
    {
      "inputs": [
        {
          "internalType": "address",
          "name": "",
          "type": "address"
        },
        {
          "internalType": "address",
          "name": "",
          "type": "address"
        },
        {
          "internalType": "uint256",
          "name": "",
          "type": "uint256"
        }
      ],
      "name": "userInfo",
      "outputs": [
        {
          "internalType": "uint256",
          "name": "stakedAmount",
          "type": "uint256"
        },
        {
          "internalType": "uint256",
          "name": "rewardDebt",
          "type": "uint256"
        },
        {
          "internalType": "bool",
          "name": "bonusPaid",
          "type": "bool"
        }
      ],
      "stateMutability": "view",
      "type": "function"
    }
  ],
  "transactionHash": "0xf4a3570abf62a9ce7bf24b75e4722f68e23ba81b0dff9a11e010d699cbe91570",
  "args": [
    "0x156E7b05073A8AD3C867b1362bb917696dCCA3f2",
    "0x8c9bd714e2598860E56a4D9E675E717665204442"
  ],
  "solcInputHash": "3b633f60859fc01482cc6a8d04cca0a0",
  "bytecode": "0x608060405260018060146101000a81548160ff0219169083151502179055503480156200002b57600080fd5b506040516200631c3803806200631c8339818101604052810190620000519190620002fb565b806200006381620000ad60201b60201c565b5081600d60006101000a81548173ffffffffffffffffffffffffffffffffffffffff021916908373ffffffffffffffffffffffffffffffffffffffff1602179055505050620003ff565b600073ffffffffffffffffffffffffffffffffffffffff16600160009054906101000a900473ffffffffffffffffffffffffffffffffffffffff1673ffffffffffffffffffffffffffffffffffffffff161480620001585750600160009054906101000a900473ffffffffffffffffffffffffffffffffffffffff1673ffffffffffffffffffffffffffffffffffffffff163373ffffffffffffffffffffffffffffffffffffffff16145b80620001715750600060149054906101000a900460ff16155b620001b3576040517f08c379a0000000000000000000000000000000000000000000000000000000008152600401620001aa906200037e565b60405180910390fd5b80600160006101000a81548173ffffffffffffffffffffffffffffffffffffffff021916908373ffffffffffffffffffffffffffffffffffffffff1602179055508073ffffffffffffffffffffffffffffffffffffffff16632317beae6040518163ffffffff1660e01b815260040160206040518083038186803b1580156200023b57600080fd5b505afa15801562000250573d6000803e3d6000fd5b505050506040513d601f19601f82011682018060405250810190620002769190620002cf565b6000806101000a81548173ffffffffffffffffffffffffffffffffffffffff021916908373ffffffffffffffffffffffffffffffffffffffff16021790555050565b600081519050620002c981620003e5565b92915050565b600060208284031215620002e257600080fd5b6000620002f284828501620002b8565b91505092915050565b600080604083850312156200030f57600080fd5b60006200031f85828601620002b8565b92505060206200033285828601620002b8565b9150509250929050565b60006200034b600283620003a0565b91507f454b0000000000000000000000000000000000000000000000000000000000006000830152602082019050919050565b6000602082019050818103600083015262000399816200033c565b9050919050565b600082825260208201905092915050565b6000620003be82620003c5565b9050919050565b600073ffffffffffffffffffffffffffffffffffffffff82169050919050565b620003f081620003b1565b8114620003fc57600080fd5b50565b615f0d806200040f6000396000f3fe608060405234801561001057600080fd5b506004361061014d5760003560e01c80638772a23a116100c3578063c12cbe861161007c578063c12cbe8614610359578063c2a672e01461038e578063ce5494bb146103aa578063d4a4bdee146103c6578063e73a914c146103e2578063ebaf1549146103fe5761014d565b80638772a23a146102ad5780638e4a0d19146102cb57806391084d6b146102e757806398fabd3a14610303578063995dd38614610321578063adc9772e1461033d5761014d565b806325c2c3891161011557806325c2c38914610208578063478fa6291461023c5780636314736c146102465780636d0e9971146102625780636dc84efd1461026c5780637358a764146102885761014d565b8063057e9b96146101525780630fa8beb31461018257806315a13a3f1461019e578063174e31c4146101d05780631db969dd146101ec575b600080fd5b61016c60048036038101906101679190614a25565b610408565b60405161017991906158a0565b60405180910390f35b61019c60048036038101906101979190614b64565b610420565b005b6101b860048036038101906101b39190614b15565b610951565b6040516101c7939291906158e4565b60405180910390f35b6101ea60048036038101906101e59190614b64565b6109a2565b005b61020660048036038101906102019190614a25565b610cc7565b005b610222600480360381019061021d9190614b64565b610feb565b60405161023395949392919061591b565b60405180910390f35b61024461103b565b005b610260600480360381019061025b9190614a25565b611058565b005b61026a611073565b005b61028660048036038101906102819190614a77565b611128565b005b6102906112d9565b6040516102a498979695949392919061557c565b60405180910390f35b6102b561139d565b6040516102c291906155fa565b60405180910390f35b6102e560048036038101906102e09190614c7a565b6113b0565b005b61030160048036038101906102fc9190614ba0565b61166c565b005b61030b611b43565b60405161031891906153a9565b60405180910390f35b61033b60048036038101906103369190614c17565b611b69565b005b61035760048036038101906103529190614b64565b611eed565b005b610373600480360381019061036e9190614b64565b6125ff565b6040516103859695949392919061596e565b60405180910390f35b6103a860048036038101906103a39190614b64565b612662565b005b6103c460048036038101906103bf9190614a25565b612ad5565b005b6103e060048036038101906103db9190614cc9565b6135e4565b005b6103fc60048036038101906103f79190614a25565b6139d1565b005b610406613bd3565b005b600a6020528060005260406000206000915090505481565b600160149054906101000a900460ff1661046f576040517f08c379a000000000000000000000000000000000000000000000000000000000815260040161046690615860565b60405180910390fd5b6000600960008473ffffffffffffffffffffffffffffffffffffffff1673ffffffffffffffffffffffffffffffffffffffff168152602001908152602001600020600083815260200190815260200160002090506000600c60008573ffffffffffffffffffffffffffffffffffffffff1673ffffffffffffffffffffffffffffffffffffffff16815260200190815260200160002060008481526020019081526020016000209050600380811115610550577f4e487b7100000000000000000000000000000000000000000000000000000000600052602160045260246000fd5b8260030160019054906101000a900460ff16600381111561059a577f4e487b7100000000000000000000000000000000000000000000000000000000600052602160045260246000fd5b14806106275750600260038111156105db577f4e487b7100000000000000000000000000000000000000000000000000000000600052602160045260246000fd5b8260030160019054906101000a900460ff166003811115610625577f4e487b7100000000000000000000000000000000000000000000000000000000600052602160045260246000fd5b145b610666576040517f08c379a000000000000000000000000000000000000000000000000000000000815260040161065d906156a0565b60405180910390fd5b6000600b60008673ffffffffffffffffffffffffffffffffffffffff1673ffffffffffffffffffffffffffffffffffffffff16815260200190815260200160002060003373ffffffffffffffffffffffffffffffffffffffff1673ffffffffffffffffffffffffffffffffffffffff168152602001908152602001600020600085815260200190815260200160002090508060020160009054906101000a900460ff1615610749576040517f08c379a000000000000000000000000000000000000000000000000000000000815260040161074090615680565b60405180910390fd5b60018160020160006101000a81548160ff02191690831515021790555060008260000154836001015461077c9190615c8d565b836002015461078b9190615b1c565b9050600083600201548261079f9190615b1c565b12156107e0576040517f08c379a00000000000000000000000000000000000000000000000000000000081526004016107d7906156e0565b60405180910390fd5b60008184600301546107f29190615a01565b90506000808213610838576040517f08c379a000000000000000000000000000000000000000000000000000000000815260040161082f90615660565b60405180910390fd5b64e8d4a5100082856000015461084e9190615b1c565b6108589190615aeb565b9050600d60009054906101000a900473ffffffffffffffffffffffffffffffffffffffff1673ffffffffffffffffffffffffffffffffffffffff166340c10f1933836040518363ffffffff1660e01b81526004016108b79291906154a0565b602060405180830381600087803b1580156108d157600080fd5b505af11580156108e5573d6000803e3d6000fd5b505050506040513d601f19601f820116820180604052508101906109099190614d52565b507f2e6a1e085447ae0bd3bb86ec4d6cdf0c9ebb5f8acb821852a2db9bf6bce1904e8888338460405161093f9493929190615500565b60405180910390a15050505050505050565b600b60205282600052604060002060205281600052604060002060205280600052604060002060009250925050508060000154908060010154908060020160009054906101000a900460ff16905083565b600160149054906101000a900460ff166109f1576040517f08c379a00000000000000000000000000000000000000000000000000000000081526004016109e890615860565b60405180910390fd5b6000600960008473ffffffffffffffffffffffffffffffffffffffff1673ffffffffffffffffffffffffffffffffffffffff16815260200190815260200160002060008381526020019081526020016000209050610a4f8382613bf8565b6000600b60008573ffffffffffffffffffffffffffffffffffffffff1673ffffffffffffffffffffffffffffffffffffffff16815260200190815260200160002060003373ffffffffffffffffffffffffffffffffffffffff1673ffffffffffffffffffffffffffffffffffffffff168152602001908152602001600020600084815260200190815260200160002090506000610c678260405180606001604052908160008201548152602001600182015481526020016002820160009054906101000a900460ff161515151581525050846040518060c00160405290816000820154815260200160018201548152602001600282015481526020016003820160009054906101000a900460ff166002811115610b95577f4e487b7100000000000000000000000000000000000000000000000000000000600052602160045260246000fd5b6002811115610bcd577f4e487b7100000000000000000000000000000000000000000000000000000000600052602160045260246000fd5b81526020016003820160019054906101000a900460ff166003811115610c1c577f4e487b7100000000000000000000000000000000000000000000000000000000600052602160045260246000fd5b6003811115610c54577f4e487b7100000000000000000000000000000000000000000000000000000000600052602160045260246000fd5b8152602001600482015481525050613fa3565b90506000811115610cc057610c823382856001015485613fe0565b7fd3208fd5300db64b97bc442f47ade72b7ebcd9272aaecdcc04c777bb762861b933868684604051610cb79493929190615432565b60405180910390a15b5050505050565b6000610cd2826140be565b60030160019054906101000a900460ff16905060006003811115610d1f577f4e487b7100000000000000000000000000000000000000000000000000000000600052602160045260246000fd5b816003811115610d58577f4e487b7100000000000000000000000000000000000000000000000000000000600052602160045260246000fd5b1480610dd35750600380811115610d98577f4e487b7100000000000000000000000000000000000000000000000000000000600052602160045260246000fd5b816003811115610dd1577f4e487b7100000000000000000000000000000000000000000000000000000000600052602160045260246000fd5b145b610e12576040517f08c379a0000000000000000000000000000000000000000000000000000000008152600401610e0990615760565b60405180910390fd5b60008273ffffffffffffffffffffffffffffffffffffffff166370a08231306040518263ffffffff1660e01b8152600401610e4d91906153a9565b60206040518083038186803b158015610e6557600080fd5b505afa158015610e79573d6000803e3d6000fd5b505050506040513d601f19601f82011682018060405250810190610e9d9190614d7b565b90508273ffffffffffffffffffffffffffffffffffffffff1663a9059cbb600260060160009054906101000a900473ffffffffffffffffffffffffffffffffffffffff16836040518363ffffffff1660e01b8152600401610eff9291906154a0565b602060405180830381600087803b158015610f1957600080fd5b505af1158015610f2d573d6000803e3d6000fd5b505050506040513d601f19601f82011682018060405250810190610f519190614d52565b50600260060160009054906101000a900473ffffffffffffffffffffffffffffffffffffffff1673ffffffffffffffffffffffffffffffffffffffff16638b8de7158483336040518463ffffffff1660e01b8152600401610fb4939291906154c9565b600060405180830381600087803b158015610fce57600080fd5b505af1158015610fe2573d6000803e3d6000fd5b50505050505050565b600c602052816000526040600020602052806000526040600020600091509150508060000154908060010154908060020154908060030154908060040160009054906101000a900460ff16905085565b6001600060146101000a81548160ff021916908315150217905550565b6000611063826140be565b905061106f8282613bf8565b5050565b600161107e81614156565b6000600160146101000a81548160ff02191690831515021790555060008054906101000a900473ffffffffffffffffffffffffffffffffffffffff1673ffffffffffffffffffffffffffffffffffffffff1663ad64d6cb60016040518263ffffffff1660e01b81526004016110f391906155fa565b600060405180830381600087803b15801561110d57600080fd5b505af1158015611121573d6000803e3d6000fd5b5050505050565b61113133614346565b670de0b6b3a7640000836111459190615c33565b600280018190555086600260000160006101000a81548173ffffffffffffffffffffffffffffffffffffffff021916908373ffffffffffffffffffffffffffffffffffffffff1602179055508160026003018190555085600260050160006101000a81548173ffffffffffffffffffffffffffffffffffffffff021916908373ffffffffffffffffffffffffffffffffffffffff16021790555084600260060160006101000a81548173ffffffffffffffffffffffffffffffffffffffff021916908373ffffffffffffffffffffffffffffffffffffffff16021790555083600260040160006101000a81548173ffffffffffffffffffffffffffffffffffffffff021916908373ffffffffffffffffffffffffffffffffffffffff1602179055506127108161ffff1611156112b0576040517f08c379a00000000000000000000000000000000000000000000000000000000081526004016112a7906156e0565b60405180910390fd5b80600260060160146101000a81548161ffff021916908361ffff16021790555050505050505050565b60028060000160009054906101000a900473ffffffffffffffffffffffffffffffffffffffff16908060010154908060020154908060030154908060040160009054906101000a900473ffffffffffffffffffffffffffffffffffffffff16908060050160009054906101000a900473ffffffffffffffffffffffffffffffffffffffff16908060060160009054906101000a900473ffffffffffffffffffffffffffffffffffffffff16908060060160149054906101000a900461ffff16905088565b600060149054906101000a900460ff1681565b60006113bb81614156565b60006113c6856140be565b905060016002811115611402577f4e487b7100000000000000000000000000000000000000000000000000000000600052602160045260246000fd5b8160030160009054906101000a900460ff16600281111561144c577f4e487b7100000000000000000000000000000000000000000000000000000000600052602160045260246000fd5b1461148c576040517f08c379a000000000000000000000000000000000000000000000000000000000815260040161148390615840565b60405180910390fd5b6000600260060160009054906101000a900473ffffffffffffffffffffffffffffffffffffffff1673ffffffffffffffffffffffffffffffffffffffff1663421e5b4886866040518363ffffffff1660e01b81526004016114ee9291906158bb565b60206040518083038186803b15801561150657600080fd5b505afa15801561151a573d6000803e3d6000fd5b505050506040513d601f19601f8201168201806040525081019061153e9190614d7b565b905060008054906101000a900473ffffffffffffffffffffffffffffffffffffffff1673ffffffffffffffffffffffffffffffffffffffff16634739a2ba8360040154836040518363ffffffff1660e01b815260040161159f9291906158bb565b60006040518083038186803b1580156115b757600080fd5b505afa1580156115cb573d6000803e3d6000fd5b50505050808260040181905550505060008054906101000a900473ffffffffffffffffffffffffffffffffffffffff1673ffffffffffffffffffffffffffffffffffffffff1663ad64d6cb60016040518263ffffffff1660e01b815260040161163491906155fa565b600060405180830381600087803b15801561164e57600080fd5b505af1158015611662573d6000803e3d6000fd5b5050505050505050565b600061167781614156565b6000600c60008873ffffffffffffffffffffffffffffffffffffffff1673ffffffffffffffffffffffffffffffffffffffff1681526020019081526020016000206000600a60008a73ffffffffffffffffffffffffffffffffffffffff1673ffffffffffffffffffffffffffffffffffffffff168152602001908152602001600020548152602001908152602001600020905060008054906101000a900473ffffffffffffffffffffffffffffffffffffffff1673ffffffffffffffffffffffffffffffffffffffff16634739a2ba8783600301546040518363ffffffff1660e01b81526004016117699291906158bb565b60006040518083038186803b15801561178157600080fd5b505afa158015611795573d6000803e3d6000fd5b5050505060008054906101000a900473ffffffffffffffffffffffffffffffffffffffff1673ffffffffffffffffffffffffffffffffffffffff16633850ed1e8683600201546040518363ffffffff1660e01b81526004016117f8929190615615565b60006040518083038186803b15801561181057600080fd5b505afa158015611824573d6000803e3d6000fd5b5050505085600c60008973ffffffffffffffffffffffffffffffffffffffff1673ffffffffffffffffffffffffffffffffffffffff1681526020019081526020016000206000600a60008b73ffffffffffffffffffffffffffffffffffffffff1673ffffffffffffffffffffffffffffffffffffffff1681526020019081526020016000205481526020019081526020016000206003018190555084600c60008973ffffffffffffffffffffffffffffffffffffffff1673ffffffffffffffffffffffffffffffffffffffff1681526020019081526020016000206000600a60008b73ffffffffffffffffffffffffffffffffffffffff1673ffffffffffffffffffffffffffffffffffffffff1681526020019081526020016000205481526020019081526020016000206002018190555083600c60008973ffffffffffffffffffffffffffffffffffffffff1673ffffffffffffffffffffffffffffffffffffffff1681526020019081526020016000206000600a60008b73ffffffffffffffffffffffffffffffffffffffff1673ffffffffffffffffffffffffffffffffffffffff16815260200190815260200160002054815260200190815260200160002060040160006101000a81548160ff0219169083151502179055506000611a0b886140be565b905060008054906101000a900473ffffffffffffffffffffffffffffffffffffffff1673ffffffffffffffffffffffffffffffffffffffff16634739a2ba8583600201546040518363ffffffff1660e01b8152600401611a6c9291906158bb565b60006040518083038186803b158015611a8457600080fd5b505afa158015611a98573d6000803e3d6000fd5b5050505083611aa6896140be565b60020181905550505060008054906101000a900473ffffffffffffffffffffffffffffffffffffffff1673ffffffffffffffffffffffffffffffffffffffff1663ad64d6cb60016040518263ffffffff1660e01b8152600401611b0991906155fa565b600060405180830381600087803b158015611b2357600080fd5b505af1158015611b37573d6000803e3d6000fd5b50505050505050505050565b600160009054906101000a900473ffffffffffffffffffffffffffffffffffffffff1681565b6000611b7481614156565b6000611b7f866140be565b905060008054906101000a900473ffffffffffffffffffffffffffffffffffffffff1673ffffffffffffffffffffffffffffffffffffffff16634739a2ba8260040154856040518363ffffffff1660e01b8152600401611be09291906158bb565b60006040518083038186803b158015611bf857600080fd5b505afa158015611c0c573d6000803e3d6000fd5b505050508281600401819055506000600c60008873ffffffffffffffffffffffffffffffffffffffff1673ffffffffffffffffffffffffffffffffffffffff1681526020019081526020016000206000600a60008a73ffffffffffffffffffffffffffffffffffffffff1673ffffffffffffffffffffffffffffffffffffffff168152602001908152602001600020548152602001908152602001600020905060008054906101000a900473ffffffffffffffffffffffffffffffffffffffff1673ffffffffffffffffffffffffffffffffffffffff16634739a2ba8260030154886040518363ffffffff1660e01b8152600401611d0b9291906158bb565b60006040518083038186803b158015611d2357600080fd5b505afa158015611d37573d6000803e3d6000fd5b5050505060008054906101000a900473ffffffffffffffffffffffffffffffffffffffff1673ffffffffffffffffffffffffffffffffffffffff16634739a2ba6000836002015412611d8d578260020154611dbe565b7fffffffffffffffffffffffffffffffffffffffffffffffffffffffffffffffff8360020154611dbd9190615b1c565b5b60008812611dcc5787611df9565b7fffffffffffffffffffffffffffffffffffffffffffffffffffffffffffffffff88611df89190615b1c565b5b6040518363ffffffff1660e01b8152600401611e169291906158bb565b60006040518083038186803b158015611e2e57600080fd5b505afa158015611e42573d6000803e3d6000fd5b50505050858160030181905550848160020181905550505060008054906101000a900473ffffffffffffffffffffffffffffffffffffffff1673ffffffffffffffffffffffffffffffffffffffff1663ad64d6cb60016040518263ffffffff1660e01b8152600401611eb491906155fa565b600060405180830381600087803b158015611ece57600080fd5b505af1158015611ee2573d6000803e3d6000fd5b505050505050505050565b600160149054906101000a900460ff16611f3c576040517f08c379a0000000000000000000000000000000000000000000000000000000008152600401611f3390615860565b60405180910390fd5b6000611f47836140be565b9050611f538382613bf8565b60016003811115611f8d577f4e487b7100000000000000000000000000000000000000000000000000000000600052602160045260246000fd5b8160030160019054906101000a900460ff166003811115611fd7577f4e487b7100000000000000000000000000000000000000000000000000000000600052602160045260246000fd5b14612017576040517f08c379a000000000000000000000000000000000000000000000000000000000815260040161200e906156a0565b60405180910390fd5b6000600a60008573ffffffffffffffffffffffffffffffffffffffff1673ffffffffffffffffffffffffffffffffffffffff1681526020019081526020016000205490506000600b60008673ffffffffffffffffffffffffffffffffffffffff1673ffffffffffffffffffffffffffffffffffffffff16815260200190815260200160002060003373ffffffffffffffffffffffffffffffffffffffff1673ffffffffffffffffffffffffffffffffffffffff16815260200190815260200160002060008381526020019081526020016000209050600084111561259157600061227c8260405180606001604052908160008201548152602001600182015481526020016002820160009054906101000a900460ff161515151581525050856040518060c00160405290816000820154815260200160018201548152602001600282015481526020016003820160009054906101000a900460ff1660028111156121aa577f4e487b7100000000000000000000000000000000000000000000000000000000600052602160045260246000fd5b60028111156121e2577f4e487b7100000000000000000000000000000000000000000000000000000000600052602160045260246000fd5b81526020016003820160019054906101000a900460ff166003811115612231577f4e487b7100000000000000000000000000000000000000000000000000000000600052602160045260246000fd5b6003811115612269577f4e487b7100000000000000000000000000000000000000000000000000000000600052602160045260246000fd5b8152602001600482015481525050613fa3565b9050600081111561233857600d60009054906101000a900473ffffffffffffffffffffffffffffffffffffffff1673ffffffffffffffffffffffffffffffffffffffff166340c10f1933836040518363ffffffff1660e01b81526004016122e49291906154a0565b602060405180830381600087803b1580156122fe57600080fd5b505af1158015612312573d6000803e3d6000fd5b505050506040513d601f19601f820116820180604052508101906123369190614d52565b505b6123653330878973ffffffffffffffffffffffffffffffffffffffff1661444b909392919063ffffffff16565b8482600001546123759190615a95565b826000018190555060008673ffffffffffffffffffffffffffffffffffffffff166370a08231306040518263ffffffff1660e01b81526004016123b891906153a9565b60206040518083038186803b1580156123d057600080fd5b505afa1580156123e4573d6000803e3d6000fd5b505050506040513d601f19601f820116820180604052508101906124089190614d7b565b905060016002811115612444577f4e487b7100000000000000000000000000000000000000000000000000000000600052602160045260246000fd5b8560030160009054906101000a900460ff16600281111561248e577f4e487b7100000000000000000000000000000000000000000000000000000000600052602160045260246000fd5b14801561249e5750846002015481115b1561258e5760028560030160016101000a81548160ff021916908360038111156124f1577f4e487b7100000000000000000000000000000000000000000000000000000000600052602160045260246000fd5b021790555042600c60008973ffffffffffffffffffffffffffffffffffffffff1673ffffffffffffffffffffffffffffffffffffffff1681526020019081526020016000206000600a60008b73ffffffffffffffffffffffffffffffffffffffff1673ffffffffffffffffffffffffffffffffffffffff168152602001908152602001600020548152602001908152602001600020600101819055505b50505b64e8d4a51000836001015482600001546125ab9190615c33565b6125b59190615aeb565b81600101819055507f5dac0c1b1112564a045ba943c9d50270893e8e826c49be8e7073adc713ab7bd73386866040516125f0939291906153fb565b60405180910390a15050505050565b6009602052816000526040600020602052806000526040600020600091509150508060000154908060010154908060020154908060030160009054906101000a900460ff16908060030160019054906101000a900460ff16908060040154905086565b600160149054906101000a900460ff166126b1576040517f08c379a00000000000000000000000000000000000000000000000000000000081526004016126a890615860565b60405180910390fd5b60006126bc836140be565b90506126c88382613bf8565b60016003811115612702577f4e487b7100000000000000000000000000000000000000000000000000000000600052602160045260246000fd5b8160030160019054906101000a900460ff16600381111561274c577f4e487b7100000000000000000000000000000000000000000000000000000000600052602160045260246000fd5b1461278c576040517f08c379a0000000000000000000000000000000000000000000000000000000008152600401612783906156a0565b60405180910390fd5b6000600b60008573ffffffffffffffffffffffffffffffffffffffff1673ffffffffffffffffffffffffffffffffffffffff16815260200190815260200160002060003373ffffffffffffffffffffffffffffffffffffffff1673ffffffffffffffffffffffffffffffffffffffff1681526020019081526020016000206000600a60008773ffffffffffffffffffffffffffffffffffffffff1673ffffffffffffffffffffffffffffffffffffffff168152602001908152602001600020548152602001908152602001600020905082816000015410156128a3576040517f08c379a000000000000000000000000000000000000000000000000000000000815260040161289a90615800565b60405180910390fd5b6000612a2a8260405180606001604052908160008201548152602001600182015481526020016002820160009054906101000a900460ff161515151581525050846040518060c00160405290816000820154815260200160018201548152602001600282015481526020016003820160009054906101000a900460ff166002811115612958577f4e487b7100000000000000000000000000000000000000000000000000000000600052602160045260246000fd5b6002811115612990577f4e487b7100000000000000000000000000000000000000000000000000000000600052602160045260246000fd5b81526020016003820160019054906101000a900460ff1660038111156129df577f4e487b7100000000000000000000000000000000000000000000000000000000600052602160045260246000fd5b6003811115612a17577f4e487b7100000000000000000000000000000000000000000000000000000000600052602160045260246000fd5b8152602001600482015481525050613fa3565b90506000811115612ace57612a453382856001015485613fe0565b6000841115612a9257838260000154612a5e9190615c8d565b8260000181905550612a9133858773ffffffffffffffffffffffffffffffffffffffff166144d49092919063ffffffff16565b5b7fd8654fcc8cf5b36d30b3f5e4688fc78118e6d68de60b9994e09902268b57c3e3338686604051612ac5939291906153fb565b60405180910390a15b5050505050565b600160149054906101000a900460ff16612b24576040517f08c379a0000000000000000000000000000000000000000000000000000000008152600401612b1b90615860565b60405180910390fd5b6000612b2f826140be565b905060016002811115612b6b577f4e487b7100000000000000000000000000000000000000000000000000000000600052602160045260246000fd5b8160030160009054906101000a900460ff166002811115612bb5577f4e487b7100000000000000000000000000000000000000000000000000000000600052602160045260246000fd5b14612bf5576040517f08c379a0000000000000000000000000000000000000000000000000000000008152600401612bec906157c0565b60405180910390fd5b60026003811115612c2f577f4e487b7100000000000000000000000000000000000000000000000000000000600052602160045260246000fd5b8160030160019054906101000a900460ff166003811115612c79577f4e487b7100000000000000000000000000000000000000000000000000000000600052602160045260246000fd5b14612cb9576040517f08c379a0000000000000000000000000000000000000000000000000000000008152600401612cb0906156a0565b60405180910390fd5b600260030154600c60008473ffffffffffffffffffffffffffffffffffffffff1673ffffffffffffffffffffffffffffffffffffffff1681526020019081526020016000206000600a60008673ffffffffffffffffffffffffffffffffffffffff1673ffffffffffffffffffffffffffffffffffffffff1681526020019081526020016000205481526020019081526020016000206001015442612d5d9190615c8d565b11612d9d576040517f08c379a0000000000000000000000000000000000000000000000000000000008152600401612d9490615820565b60405180910390fd5b600260040160009054906101000a900473ffffffffffffffffffffffffffffffffffffffff1673ffffffffffffffffffffffffffffffffffffffff166314c6fd2883600c60008673ffffffffffffffffffffffffffffffffffffffff1673ffffffffffffffffffffffffffffffffffffffff1681526020019081526020016000206000600a60008873ffffffffffffffffffffffffffffffffffffffff1673ffffffffffffffffffffffffffffffffffffffff16815260200190815260200160002054815260200190815260200160002060040160009054906101000a900460ff166040518363ffffffff1660e01b8152600401612e9c929190615477565b600060405180830381600087803b158015612eb657600080fd5b505af1158015612eca573d6000803e3d6000fd5b5050505060008273ffffffffffffffffffffffffffffffffffffffff166370a08231306040518263ffffffff1660e01b8152600401612f0991906153a9565b60206040518083038186803b158015612f2157600080fd5b505afa158015612f35573d6000803e3d6000fd5b505050506040513d601f19601f82011682018060405250810190612f599190614d7b565b90508273ffffffffffffffffffffffffffffffffffffffff1663a9059cbb600260040160009054906101000a900473ffffffffffffffffffffffffffffffffffffffff16836040518363ffffffff1660e01b8152600401612fbb9291906154a0565b602060405180830381600087803b158015612fd557600080fd5b505af1158015612fe9573d6000803e3d6000fd5b505050506040513d601f19601f8201168201806040525081019061300d9190614d52565b50600260050160009054906101000a900473ffffffffffffffffffffffffffffffffffffffff1673ffffffffffffffffffffffffffffffffffffffff1663ede0b3b5600260040160009054906101000a900473ffffffffffffffffffffffffffffffffffffffff166040518263ffffffff1660e01b815260040161309191906153a9565b600060405180830381600087803b1580156130ab57600080fd5b505af11580156130bf573d6000803e3d6000fd5b505050506000600260000160009054906101000a900473ffffffffffffffffffffffffffffffffffffffff1673ffffffffffffffffffffffffffffffffffffffff166370a08231306040518263ffffffff1660e01b815260040161312391906153a9565b60206040518083038186803b15801561313b57600080fd5b505afa15801561314f573d6000803e3d6000fd5b505050506040513d601f19601f820116820180604052508101906131739190614d7b565b9050600060646801a055690d9db80000600260060160149054906101000a900461ffff1661ffff166131a59190615c33565b6131af9190615aeb565b90508082116131c8576002826131c59190615aeb565b90505b600081836131d69190615c8d565b9050600260000160009054906101000a900473ffffffffffffffffffffffffffffffffffffffff1673ffffffffffffffffffffffffffffffffffffffff166342966c68826040518263ffffffff1660e01b815260040161323691906158a0565b602060405180830381600087803b15801561325057600080fd5b505af1158015613264573d6000803e3d6000fd5b505050506040513d601f19601f820116820180604052508101906132889190614d52565b6132c7576040517f08c379a00000000000000000000000000000000000000000000000000000000081526004016132be90615740565b60405180910390fd5b600260000160009054906101000a900473ffffffffffffffffffffffffffffffffffffffff1673ffffffffffffffffffffffffffffffffffffffff1663a9059cbb600260060160009054906101000a900473ffffffffffffffffffffffffffffffffffffffff16846040518363ffffffff1660e01b815260040161334c9291906154a0565b602060405180830381600087803b15801561336657600080fd5b505af115801561337a573d6000803e3d6000fd5b505050506040513d601f19601f8201168201806040525081019061339e9190614d52565b506000600260060160009054906101000a900473ffffffffffffffffffffffffffffffffffffffff1673ffffffffffffffffffffffffffffffffffffffff16633626339f846040518263ffffffff1660e01b81526004016133ff91906158a0565b602060405180830381600087803b15801561341957600080fd5b505af115801561342d573d6000803e3d6000fd5b505050506040513d601f19601f820116820180604052508101906134519190614d7b565b90507f5dc96537cbae524775a674b6a810d9a1ba04a9e279f172d156b352151394677a87868360405161348693929190615545565b60405180910390a1600d60009054906101000a900473ffffffffffffffffffffffffffffffffffffffff1673ffffffffffffffffffffffffffffffffffffffff166340c10f193360028001546040518363ffffffff1660e01b81526004016134ef9291906154a0565b602060405180830381600087803b15801561350957600080fd5b505af115801561351d573d6000803e3d6000fd5b505050506040513d601f19601f820116820180604052508101906135419190614d52565b613580576040517f08c379a0000000000000000000000000000000000000000000000000000000008152600401613577906156c0565b60405180910390fd5b600361358b886140be565b60030160016101000a81548160ff021916908360038111156135d6577f4e487b7100000000000000000000000000000000000000000000000000000000600052602160045260246000fd5b021790555050505050505050565b6135ed3361455a565b60006135f8876140be565b9050600a60008873ffffffffffffffffffffffffffffffffffffffff1673ffffffffffffffffffffffffffffffffffffffff16815260200190815260200160002054831161368557600a60008873ffffffffffffffffffffffffffffffffffffffff1673ffffffffffffffffffffffffffffffffffffffff168152602001908152602001600020546136d2565b6001600a60008973ffffffffffffffffffffffffffffffffffffffff1673ffffffffffffffffffffffffffffffffffffffff168152602001908152602001600020546136d19190615a95565b5b600a60008973ffffffffffffffffffffffffffffffffffffffff1673ffffffffffffffffffffffffffffffffffffffff1681526020019081526020016000208190555061371e876140be565b905085816002018190555081816004018190555083600381111561376b577f4e487b7100000000000000000000000000000000000000000000000000000000600052602160045260246000fd5b8160030160016101000a81548160ff021916908360038111156137b7577f4e487b7100000000000000000000000000000000000000000000000000000000600052602160045260246000fd5b0217905550600160038111156137f6577f4e487b7100000000000000000000000000000000000000000000000000000000600052602160045260246000fd5b84600381111561382f577f4e487b7100000000000000000000000000000000000000000000000000000000600052602160045260246000fd5b6003811115613867577f4e487b7100000000000000000000000000000000000000000000000000000000600052602160045260246000fd5b14156139055742600c60008973ffffffffffffffffffffffffffffffffffffffff1673ffffffffffffffffffffffffffffffffffffffff1681526020019081526020016000206000600a60008b73ffffffffffffffffffffffffffffffffffffffff1673ffffffffffffffffffffffffffffffffffffffff168152602001908152602001600020548152602001908152602001600020600001819055505b84600281111561393e577f4e487b7100000000000000000000000000000000000000000000000000000000600052602160045260246000fd5b8160030160006101000a81548160ff0219169083600281111561398a577f4e487b7100000000000000000000000000000000000000000000000000000000600052602160045260246000fd5b0217905550507fd34a348d268737f5e75afa7c7fc24fc2f9f735a327855f1470134f75ead7d6c986826040516139c19291906154a0565b60405180910390a1505050505050565b600073ffffffffffffffffffffffffffffffffffffffff16600160009054906101000a900473ffffffffffffffffffffffffffffffffffffffff1673ffffffffffffffffffffffffffffffffffffffff161480613a7b5750600160009054906101000a900473ffffffffffffffffffffffffffffffffffffffff1673ffffffffffffffffffffffffffffffffffffffff163373ffffffffffffffffffffffffffffffffffffffff16145b80613a935750600060149054906101000a900460ff16155b613ad2576040517f08c379a0000000000000000000000000000000000000000000000000000000008152600401613ac990615720565b60405180910390fd5b80600160006101000a81548173ffffffffffffffffffffffffffffffffffffffff021916908373ffffffffffffffffffffffffffffffffffffffff1602179055508073ffffffffffffffffffffffffffffffffffffffff16632317beae6040518163ffffffff1660e01b815260040160206040518083038186803b158015613b5957600080fd5b505afa158015613b6d573d6000803e3d6000fd5b505050506040513d601f19601f82011682018060405250810190613b919190614a4e565b6000806101000a81548173ffffffffffffffffffffffffffffffffffffffff021916908373ffffffffffffffffffffffffffffffffffffffff16021790555050565b613bdc33614346565b60018060146101000a81548160ff021916908315150217905550565b60006002811115613c32577f4e487b7100000000000000000000000000000000000000000000000000000000600052602160045260246000fd5b8160030160009054906101000a900460ff166002811115613c7c577f4e487b7100000000000000000000000000000000000000000000000000000000600052602160045260246000fd5b1415613cbd576040517f08c379a0000000000000000000000000000000000000000000000000000000008152600401613cb490615780565b60405180910390fd5b60006003811115613cf7577f4e487b7100000000000000000000000000000000000000000000000000000000600052602160045260246000fd5b8160030160019054906101000a900460ff166003811115613d41577f4e487b7100000000000000000000000000000000000000000000000000000000600052602160045260246000fd5b1415613d82576040517f08c379a0000000000000000000000000000000000000000000000000000000008152600401613d79906156a0565b60405180910390fd5b600042905060016003811115613dc1577f4e487b7100000000000000000000000000000000000000000000000000000000600052602160045260246000fd5b8260030160019054906101000a900460ff166003811115613e0b577f4e487b7100000000000000000000000000000000000000000000000000000000600052602160045260246000fd5b14613ea657600c60008473ffffffffffffffffffffffffffffffffffffffff1673ffffffffffffffffffffffffffffffffffffffff1681526020019081526020016000206000600a60008673ffffffffffffffffffffffffffffffffffffffff1673ffffffffffffffffffffffffffffffffffffffff1681526020019081526020016000205481526020019081526020016000206001015490505b60008373ffffffffffffffffffffffffffffffffffffffff166370a08231306040518263ffffffff1660e01b8152600401613ee191906153a9565b60206040518083038186803b158015613ef957600080fd5b505afa158015613f0d573d6000803e3d6000fd5b505050506040513d601f19601f82011682018060405250810190613f319190614d7b565b90506000811115613f945760008360040154846000015484613f539190615c8d565b613f5d9190615c33565b90508164e8d4a5100082613f719190615c33565b613f7b9190615aeb565b8460010154613f8a9190615a95565b8460010181905550505b81836000018190555050505050565b6000826020015164e8d4a5100083602001518560000151613fc49190615c33565b613fce9190615aeb565b613fd89190615c8d565b905092915050565b600d60009054906101000a900473ffffffffffffffffffffffffffffffffffffffff1673ffffffffffffffffffffffffffffffffffffffff166340c10f1985856040518363ffffffff1660e01b815260040161403d9291906154a0565b602060405180830381600087803b15801561405757600080fd5b505af115801561406b573d6000803e3d6000fd5b505050506040513d601f19601f8201168201806040525081019061408f9190614d52565b5064e8d4a510008282600001546140a69190615c33565b6140b09190615aeb565b816001018190555050505050565b6000600960008373ffffffffffffffffffffffffffffffffffffffff1673ffffffffffffffffffffffffffffffffffffffff1681526020019081526020016000206000600a60008573ffffffffffffffffffffffffffffffffffffffff1673ffffffffffffffffffffffffffffffffffffffff1681526020019081526020016000205481526020019081526020016000209050919050565b6000600160009054906101000a900473ffffffffffffffffffffffffffffffffffffffff1673ffffffffffffffffffffffffffffffffffffffff1663b7ebc23b336040518263ffffffff1660e01b81526004016141b391906153a9565b60206040518083038186803b1580156141cb57600080fd5b505afa1580156141df573d6000803e3d6000fd5b505050506040513d601f19601f820116820180604052508101906142039190614d52565b9050801561429c5760008054906101000a900473ffffffffffffffffffffffffffffffffffffffff1673ffffffffffffffffffffffffffffffffffffffff1663ad64d6cb60006040518263ffffffff1660e01b815260040161426591906155fa565b600060405180830381600087803b15801561427f57600080fd5b505af1158015614293573d6000803e3d6000fd5b50505050614342565b600060149054906101000a900460ff16156143415760008054906101000a900473ffffffffffffffffffffffffffffffffffffffff1673ffffffffffffffffffffffffffffffffffffffff166398f112413330856040518463ffffffff1660e01b815260040161430e939291906153c4565b600060405180830381600087803b15801561432857600080fd5b505af115801561433c573d6000803e3d6000fd5b505050505b5b5050565b600060149054906101000a900460ff1615806144095750600160009054906101000a900473ffffffffffffffffffffffffffffffffffffffff1673ffffffffffffffffffffffffffffffffffffffff1663b7ebc23b826040518263ffffffff1660e01b81526004016143b891906153a9565b60206040518083038186803b1580156143d057600080fd5b505afa1580156143e4573d6000803e3d6000fd5b505050506040513d601f19601f820116820180604052508101906144089190614d52565b5b614448576040517f08c379a000000000000000000000000000000000000000000000000000000000815260040161443f906157a0565b60405180910390fd5b50565b6144ce846323b872dd60e01b85858560405160240161446c939291906153fb565b604051602081830303815290604052907bffffffffffffffffffffffffffffffffffffffffffffffffffffffff19166020820180517bffffffffffffffffffffffffffffffffffffffffffffffffffffffff8381831617835250505050614710565b50505050565b6145558363a9059cbb60e01b84846040516024016144f39291906154a0565b604051602081830303815290604052907bffffffffffffffffffffffffffffffffffffffffffffffffffffffff19166020820180517bffffffffffffffffffffffffffffffffffffffffffffffffffffffff8381831617835250505050614710565b505050565b6000600160009054906101000a900473ffffffffffffffffffffffffffffffffffffffff1673ffffffffffffffffffffffffffffffffffffffff166301e179dc6040518163ffffffff1660e01b815260040160606040518083038186803b1580156145c457600080fd5b505afa1580156145d8573d6000803e3d6000fd5b505050506040513d601f19601f820116820180604052508101906145fc9190614da4565b92505050600060149054906101000a900460ff1615806146c457508073ffffffffffffffffffffffffffffffffffffffff166331de34696040518163ffffffff1660e01b815260040160206040518083038186803b15801561465d57600080fd5b505afa158015614671573d6000803e3d6000fd5b505050506040513d601f19601f820116820180604052508101906146959190614a4e565b73ffffffffffffffffffffffffffffffffffffffff168273ffffffffffffffffffffffffffffffffffffffff16145b614703576040517f08c379a00000000000000000000000000000000000000000000000000000000081526004016146fa906157a0565b60405180910390fd5b61470c82614346565b5050565b6000614772826040518060400160405280602081526020017f5361666545524332303a206c6f772d6c6576656c2063616c6c206661696c65648152508573ffffffffffffffffffffffffffffffffffffffff166147d79092919063ffffffff16565b90506000815111156147d257808060200190518101906147929190614d52565b6147d1576040517f08c379a00000000000000000000000000000000000000000000000000000000081526004016147c890615880565b60405180910390fd5b5b505050565b60606147e684846000856147ef565b90509392505050565b606082471015614834576040517f08c379a000000000000000000000000000000000000000000000000000000000815260040161482b90615700565b60405180910390fd5b61483d85614903565b61487c576040517f08c379a0000000000000000000000000000000000000000000000000000000008152600401614873906157e0565b60405180910390fd5b6000808673ffffffffffffffffffffffffffffffffffffffff1685876040516148a59190615392565b60006040518083038185875af1925050503d80600081146148e2576040519150601f19603f3d011682016040523d82523d6000602084013e6148e7565b606091505b50915091506148f7828286614916565b92505050949350505050565b600080823b905060008111915050919050565b6060831561492657829050614976565b6000835111156149395782518084602001fd5b816040517f08c379a000000000000000000000000000000000000000000000000000000000815260040161496d919061563e565b60405180910390fd5b9392505050565b60008135905061498c81615e64565b92915050565b6000815190506149a181615e64565b92915050565b6000813590506149b681615e7b565b92915050565b6000815190506149cb81615e7b565b92915050565b6000813590506149e081615e92565b92915050565b6000813590506149f581615ea9565b92915050565b600081359050614a0a81615ec0565b92915050565b600081519050614a1f81615ec0565b92915050565b600060208284031215614a3757600080fd5b6000614a458482850161497d565b91505092915050565b600060208284031215614a6057600080fd5b6000614a6e84828501614992565b91505092915050565b600080600080600080600060e0888a031215614a9257600080fd5b6000614aa08a828b0161497d565b9750506020614ab18a828b0161497d565b9650506040614ac28a828b0161497d565b9550506060614ad38a828b0161497d565b9450506080614ae48a828b016149fb565b93505060a0614af58a828b016149fb565b92505060c0614b068a828b016149e6565b91505092959891949750929550565b600080600060608486031215614b2a57600080fd5b6000614b388682870161497d565b9350506020614b498682870161497d565b9250506040614b5a868287016149fb565b9150509250925092565b60008060408385031215614b7757600080fd5b6000614b858582860161497d565b9250506020614b96858286016149fb565b9150509250929050565b600080600080600060a08688031215614bb857600080fd5b6000614bc68882890161497d565b9550506020614bd7888289016149fb565b9450506040614be8888289016149d1565b9350506060614bf9888289016149a7565b9250506080614c0a888289016149fb565b9150509295509295909350565b60008060008060808587031215614c2d57600080fd5b6000614c3b8782880161497d565b9450506020614c4c878288016149fb565b9350506040614c5d878288016149d1565b9250506060614c6e878288016149fb565b91505092959194509250565b600080600060608486031215614c8f57600080fd5b6000614c9d8682870161497d565b9350506020614cae868287016149fb565b9250506040614cbf868287016149fb565b9150509250925092565b60008060008060008060c08789031215614ce257600080fd5b6000614cf089828a0161497d565b9650506020614d0189828a016149fb565b9550506040614d1289828a016149fb565b9450506060614d2389828a016149fb565b9350506080614d3489828a016149fb565b92505060a0614d4589828a016149fb565b9150509295509295509295565b600060208284031215614d6457600080fd5b6000614d72848285016149bc565b91505092915050565b600060208284031215614d8d57600080fd5b6000614d9b84828501614a10565b91505092915050565b600080600060608486031215614db957600080fd5b6000614dc786828701614a10565b9350506020614dd886828701614a10565b9250506040614de986828701614992565b9150509250925092565b614dfc81615cc1565b82525050565b614e0b81615cd3565b82525050565b6000614e1c826159cf565b614e2681856159e5565b9350614e36818560208601615d6b565b80840191505092915050565b614e4b81615d47565b82525050565b614e5a81615d59565b82525050565b614e6981615d05565b82525050565b6000614e7a826159da565b614e8481856159f0565b9350614e94818560208601615d6b565b614e9d81615e2b565b840191505092915050565b6000614eb56002836159f0565b91507f45440000000000000000000000000000000000000000000000000000000000006000830152602082019050919050565b6000614ef56002836159f0565b91507f45350000000000000000000000000000000000000000000000000000000000006000830152602082019050919050565b6000614f356002836159f0565b91507f45320000000000000000000000000000000000000000000000000000000000006000830152602082019050919050565b6000614f756002836159f0565b91507f45390000000000000000000000000000000000000000000000000000000000006000830152602082019050919050565b6000614fb56002836159f0565b91507f45360000000000000000000000000000000000000000000000000000000000006000830152602082019050919050565b6000614ff56026836159f0565b91507f416464726573733a20696e73756666696369656e742062616c616e636520666f60008301527f722063616c6c00000000000000000000000000000000000000000000000000006020830152604082019050919050565b600061505b6002836159f0565b91507f454b0000000000000000000000000000000000000000000000000000000000006000830152602082019050919050565b600061509b6002836159f0565b91507f45380000000000000000000000000000000000000000000000000000000000006000830152602082019050919050565b60006150db6002836159f0565b91507f45370000000000000000000000000000000000000000000000000000000000006000830152602082019050919050565b600061511b6002836159f0565b91507f45310000000000000000000000000000000000000000000000000000000000006000830152602082019050919050565b600061515b6002836159f0565b91507f454a0000000000000000000000000000000000000000000000000000000000006000830152602082019050919050565b600061519b6002836159f0565b91507f45420000000000000000000000000000000000000000000000000000000000006000830152602082019050919050565b60006151db601d836159f0565b91507f416464726573733a2063616c6c20746f206e6f6e2d636f6e74726163740000006000830152602082019050919050565b600061521b6002836159f0565b91507f45340000000000000000000000000000000000000000000000000000000000006000830152602082019050919050565b600061525b6002836159f0565b91507f45430000000000000000000000000000000000000000000000000000000000006000830152602082019050919050565b600061529b6002836159f0565b91507f45490000000000000000000000000000000000000000000000000000000000006000830152602082019050919050565b60006152db6002836159f0565b91507f45460000000000000000000000000000000000000000000000000000000000006000830152602082019050919050565b600061531b602a836159f0565b91507f5361666545524332303a204552433230206f7065726174696f6e20646964206e60008301527f6f742073756363656564000000000000000000000000000000000000000000006020830152604082019050919050565b61537d81615d0f565b82525050565b61538c81615d3d565b82525050565b600061539e8284614e11565b915081905092915050565b60006020820190506153be6000830184614df3565b92915050565b60006060820190506153d96000830186614df3565b6153e66020830185614df3565b6153f36040830184614e02565b949350505050565b60006060820190506154106000830186614df3565b61541d6020830185614df3565b61542a6040830184615383565b949350505050565b60006080820190506154476000830187614df3565b6154546020830186614df3565b6154616040830185615383565b61546e6060830184615383565b95945050505050565b600060408201905061548c6000830185614df3565b6154996020830184614e02565b9392505050565b60006040820190506154b56000830185614df3565b6154c26020830184615383565b9392505050565b60006060820190506154de6000830186614df3565b6154eb6020830185615383565b6154f86040830184614df3565b949350505050565b60006080820190506155156000830187614df3565b6155226020830186615383565b61552f6040830185614df3565b61553c6060830184615383565b95945050505050565b600060608201905061555a6000830186614df3565b6155676020830185615383565b6155746040830184615383565b949350505050565b600061010082019050615592600083018b614df3565b61559f602083018a615383565b6155ac6040830189615383565b6155b96060830188615383565b6155c66080830187614df3565b6155d360a0830186614df3565b6155e060c0830185614df3565b6155ed60e0830184615374565b9998505050505050505050565b600060208201905061560f6000830184614e02565b92915050565b600060408201905061562a6000830185614e60565b6156376020830184614e60565b9392505050565b600060208201905081810360008301526156588184614e6f565b905092915050565b6000602082019050818103600083015261567981614ea8565b9050919050565b6000602082019050818103600083015261569981614ee8565b9050919050565b600060208201905081810360008301526156b981614f28565b9050919050565b600060208201905081810360008301526156d981614f68565b9050919050565b600060208201905081810360008301526156f981614fa8565b9050919050565b6000602082019050818103600083015261571981614fe8565b9050919050565b600060208201905081810360008301526157398161504e565b9050919050565b600060208201905081810360008301526157598161508e565b9050919050565b60006020820190508181036000830152615779816150ce565b9050919050565b600060208201905081810360008301526157998161510e565b9050919050565b600060208201905081810360008301526157b98161514e565b9050919050565b600060208201905081810360008301526157d98161518e565b9050919050565b600060208201905081810360008301526157f9816151ce565b9050919050565b600060208201905081810360008301526158198161520e565b9050919050565b600060208201905081810360008301526158398161524e565b9050919050565b600060208201905081810360008301526158598161528e565b9050919050565b60006020820190508181036000830152615879816152ce565b9050919050565b600060208201905081810360008301526158998161530e565b9050919050565b60006020820190506158b56000830184615383565b92915050565b60006040820190506158d06000830185615383565b6158dd6020830184615383565b9392505050565b60006060820190506158f96000830186615383565b6159066020830185615383565b6159136040830184614e02565b949350505050565b600060a0820190506159306000830188615383565b61593d6020830187615383565b61594a6040830186614e60565b6159576060830185615383565b6159646080830184614e02565b9695505050505050565b600060c0820190506159836000830189615383565b6159906020830188615383565b61599d6040830187615383565b6159aa6060830186614e51565b6159b76080830185614e42565b6159c460a0830184615383565b979650505050505050565b600081519050919050565b600081519050919050565b600081905092915050565b600082825260208201905092915050565b6000615a0c82615d05565b9150615a1783615d05565b9250817f7fffffffffffffffffffffffffffffffffffffffffffffffffffffffffffffff03831360008312151615615a5257615a51615d9e565b5b817f8000000000000000000000000000000000000000000000000000000000000000038312600083121615615a8a57615a89615d9e565b5b828201905092915050565b6000615aa082615d3d565b9150615aab83615d3d565b9250827fffffffffffffffffffffffffffffffffffffffffffffffffffffffffffffffff03821115615ae057615adf615d9e565b5b828201905092915050565b6000615af682615d3d565b9150615b0183615d3d565b925082615b1157615b10615dcd565b5b828204905092915050565b6000615b2782615d05565b9150615b3283615d05565b9250827f7fffffffffffffffffffffffffffffffffffffffffffffffffffffffffffffff0482116000841360008413161615615b7157615b70615d9e565b5b817f80000000000000000000000000000000000000000000000000000000000000000583126000841260008413161615615bae57615bad615d9e565b5b827f80000000000000000000000000000000000000000000000000000000000000000582126000841360008412161615615beb57615bea615d9e565b5b827f7fffffffffffffffffffffffffffffffffffffffffffffffffffffffffffffff0582126000841260008412161615615c2857615c27615d9e565b5b828202905092915050565b6000615c3e82615d3d565b9150615c4983615d3d565b9250817fffffffffffffffffffffffffffffffffffffffffffffffffffffffffffffffff0483118215151615615c8257615c81615d9e565b5b828202905092915050565b6000615c9882615d3d565b9150615ca383615d3d565b925082821015615cb657615cb5615d9e565b5b828203905092915050565b6000615ccc82615d1d565b9050919050565b60008115159050919050565b6000819050615ced82615e3c565b919050565b6000819050615d0082615e50565b919050565b6000819050919050565b600061ffff82169050919050565b600073ffffffffffffffffffffffffffffffffffffffff82169050919050565b6000819050919050565b6000615d5282615cdf565b9050919050565b6000615d6482615cf2565b9050919050565b60005b83811015615d89578082015181840152602081019050615d6e565b83811115615d98576000848401525b50505050565b7f4e487b7100000000000000000000000000000000000000000000000000000000600052601160045260246000fd5b7f4e487b7100000000000000000000000000000000000000000000000000000000600052601260045260246000fd5b7f4e487b7100000000000000000000000000000000000000000000000000000000600052602160045260246000fd5b6000601f19601f8301169050919050565b60048110615e4d57615e4c615dfc565b5b50565b60038110615e6157615e60615dfc565b5b50565b615e6d81615cc1565b8114615e7857600080fd5b50565b615e8481615cd3565b8114615e8f57600080fd5b50565b615e9b81615d05565b8114615ea657600080fd5b50565b615eb281615d0f565b8114615ebd57600080fd5b50565b615ec981615d3d565b8114615ed457600080fd5b5056fea264697066735822122059f8d29e67675ab4e79bc81124b4253bfc8506bb7ed1ac93255b79af9b41278364736f6c63430008000033",
  "devdoc": {
    "kind": "dev",
    "methods": {},
    "version": 1
  },
  "userdoc": {
    "kind": "user",
    "methods": {},
    "version": 1
  },
  "storageLayout": {
    "storage": [
      {
        "astId": 1206,
        "contract": "contracts/Limbo.sol:Limbo",
        "label": "flashGoverner",
        "offset": 0,
        "slot": "0",
        "type": "t_contract(FlashGovernanceArbiterLike)7575"
      },
      {
        "astId": 1208,
        "contract": "contracts/Limbo.sol:Limbo",
        "label": "configured",
        "offset": 20,
        "slot": "0",
        "type": "t_bool"
      },
      {
        "astId": 1210,
        "contract": "contracts/Limbo.sol:Limbo",
        "label": "DAO",
        "offset": 0,
        "slot": "1",
        "type": "t_address"
      },
      {
        "astId": 5068,
        "contract": "contracts/Limbo.sol:Limbo",
        "label": "protocolEnabled",
        "offset": 20,
        "slot": "1",
        "type": "t_bool"
      },
      {
        "astId": 5071,
        "contract": "contracts/Limbo.sol:Limbo",
        "label": "crossingConfig",
        "offset": 0,
        "slot": "2",
        "type": "t_struct(CrossingConfig)5044_storage"
      },
      {
        "astId": 5078,
        "contract": "contracts/Limbo.sol:Limbo",
        "label": "souls",
        "offset": 0,
        "slot": "9",
        "type": "t_mapping(t_address,t_mapping(t_uint256,t_struct(Soul)5016_storage))"
      },
      {
        "astId": 5082,
        "contract": "contracts/Limbo.sol:Limbo",
        "label": "latestIndex",
        "offset": 0,
        "slot": "10",
        "type": "t_mapping(t_address,t_uint256)"
      },
      {
        "astId": 5091,
        "contract": "contracts/Limbo.sol:Limbo",
        "label": "userInfo",
        "offset": 0,
        "slot": "11",
        "type": "t_mapping(t_address,t_mapping(t_address,t_mapping(t_uint256,t_struct(User)5051_storage)))"
      },
      {
        "astId": 5098,
        "contract": "contracts/Limbo.sol:Limbo",
        "label": "tokenCrossingParameters",
        "offset": 0,
        "slot": "12",
        "type": "t_mapping(t_address,t_mapping(t_uint256,t_struct(CrossingParameters)5027_storage))"
      },
      {
        "astId": 5101,
        "contract": "contracts/Limbo.sol:Limbo",
        "label": "Flan",
        "offset": 0,
        "slot": "13",
        "type": "t_contract(FlanLike)7533"
      }
    ],
    "types": {
      "t_address": {
        "encoding": "inplace",
        "label": "address",
        "numberOfBytes": "20"
      },
      "t_bool": {
        "encoding": "inplace",
        "label": "bool",
        "numberOfBytes": "1"
      },
      "t_contract(FlanLike)7533": {
        "encoding": "inplace",
        "label": "contract FlanLike",
        "numberOfBytes": "20"
      },
      "t_contract(FlashGovernanceArbiterLike)7575": {
        "encoding": "inplace",
        "label": "contract FlashGovernanceArbiterLike",
        "numberOfBytes": "20"
      },
      "t_enum(SoulState)4941": {
        "encoding": "inplace",
        "label": "enum SoulState",
        "numberOfBytes": "1"
      },
      "t_enum(SoulType)4945": {
        "encoding": "inplace",
        "label": "enum SoulType",
        "numberOfBytes": "1"
      },
      "t_int256": {
        "encoding": "inplace",
        "label": "int256",
        "numberOfBytes": "32"
      },
      "t_mapping(t_address,t_mapping(t_address,t_mapping(t_uint256,t_struct(User)5051_storage)))": {
        "encoding": "mapping",
        "key": "t_address",
        "label": "mapping(address => mapping(address => mapping(uint256 => struct Limbo.User)))",
        "numberOfBytes": "32",
        "value": "t_mapping(t_address,t_mapping(t_uint256,t_struct(User)5051_storage))"
      },
      "t_mapping(t_address,t_mapping(t_uint256,t_struct(CrossingParameters)5027_storage))": {
        "encoding": "mapping",
        "key": "t_address",
        "label": "mapping(address => mapping(uint256 => struct Limbo.CrossingParameters))",
        "numberOfBytes": "32",
        "value": "t_mapping(t_uint256,t_struct(CrossingParameters)5027_storage)"
      },
      "t_mapping(t_address,t_mapping(t_uint256,t_struct(Soul)5016_storage))": {
        "encoding": "mapping",
        "key": "t_address",
        "label": "mapping(address => mapping(uint256 => struct Limbo.Soul))",
        "numberOfBytes": "32",
        "value": "t_mapping(t_uint256,t_struct(Soul)5016_storage)"
      },
      "t_mapping(t_address,t_mapping(t_uint256,t_struct(User)5051_storage))": {
        "encoding": "mapping",
        "key": "t_address",
        "label": "mapping(address => mapping(uint256 => struct Limbo.User))",
        "numberOfBytes": "32",
        "value": "t_mapping(t_uint256,t_struct(User)5051_storage)"
      },
      "t_mapping(t_address,t_uint256)": {
        "encoding": "mapping",
        "key": "t_address",
        "label": "mapping(address => uint256)",
        "numberOfBytes": "32",
        "value": "t_uint256"
      },
      "t_mapping(t_uint256,t_struct(CrossingParameters)5027_storage)": {
        "encoding": "mapping",
        "key": "t_uint256",
        "label": "mapping(uint256 => struct Limbo.CrossingParameters)",
        "numberOfBytes": "32",
        "value": "t_struct(CrossingParameters)5027_storage"
      },
      "t_mapping(t_uint256,t_struct(Soul)5016_storage)": {
        "encoding": "mapping",
        "key": "t_uint256",
        "label": "mapping(uint256 => struct Limbo.Soul)",
        "numberOfBytes": "32",
        "value": "t_struct(Soul)5016_storage"
      },
      "t_mapping(t_uint256,t_struct(User)5051_storage)": {
        "encoding": "mapping",
        "key": "t_uint256",
        "label": "mapping(uint256 => struct Limbo.User)",
        "numberOfBytes": "32",
        "value": "t_struct(User)5051_storage"
      },
      "t_struct(CrossingConfig)5044_storage": {
        "encoding": "inplace",
        "label": "struct Limbo.CrossingConfig",
        "members": [
          {
            "astId": 5029,
            "contract": "contracts/Limbo.sol:Limbo",
            "label": "behodler",
            "offset": 0,
            "slot": "0",
            "type": "t_address"
          },
          {
            "astId": 5031,
            "contract": "contracts/Limbo.sol:Limbo",
            "label": "SCX_fee",
            "offset": 0,
            "slot": "1",
            "type": "t_uint256"
          },
          {
            "astId": 5033,
            "contract": "contracts/Limbo.sol:Limbo",
            "label": "migrationInvocationReward",
            "offset": 0,
            "slot": "2",
            "type": "t_uint256"
          },
          {
            "astId": 5035,
            "contract": "contracts/Limbo.sol:Limbo",
            "label": "crossingMigrationDelay",
            "offset": 0,
            "slot": "3",
            "type": "t_uint256"
          },
          {
            "astId": 5037,
            "contract": "contracts/Limbo.sol:Limbo",
            "label": "morgothPower",
            "offset": 0,
            "slot": "4",
            "type": "t_address"
          },
          {
            "astId": 5039,
            "contract": "contracts/Limbo.sol:Limbo",
            "label": "angband",
            "offset": 0,
            "slot": "5",
            "type": "t_address"
          },
          {
            "astId": 5041,
            "contract": "contracts/Limbo.sol:Limbo",
            "label": "ammHelper",
            "offset": 0,
            "slot": "6",
            "type": "t_address"
          },
          {
            "astId": 5043,
            "contract": "contracts/Limbo.sol:Limbo",
            "label": "rectangleOfFairnessInflationFactor",
            "offset": 20,
            "slot": "6",
            "type": "t_uint16"
          }
        ],
        "numberOfBytes": "224"
      },
      "t_struct(CrossingParameters)5027_storage": {
        "encoding": "inplace",
        "label": "struct Limbo.CrossingParameters",
        "members": [
          {
            "astId": 5018,
            "contract": "contracts/Limbo.sol:Limbo",
            "label": "stakingBeginsTimestamp",
            "offset": 0,
            "slot": "0",
            "type": "t_uint256"
          },
          {
            "astId": 5020,
            "contract": "contracts/Limbo.sol:Limbo",
            "label": "stakingEndTimestamp",
            "offset": 0,
            "slot": "1",
            "type": "t_uint256"
          },
          {
            "astId": 5022,
            "contract": "contracts/Limbo.sol:Limbo",
            "label": "crossingBonusDelta",
            "offset": 0,
            "slot": "2",
            "type": "t_int256"
          },
          {
            "astId": 5024,
            "contract": "contracts/Limbo.sol:Limbo",
            "label": "initialCrossingBonus",
            "offset": 0,
            "slot": "3",
            "type": "t_uint256"
          },
          {
            "astId": 5026,
            "contract": "contracts/Limbo.sol:Limbo",
            "label": "burnable",
            "offset": 0,
            "slot": "4",
            "type": "t_bool"
          }
        ],
        "numberOfBytes": "160"
      },
      "t_struct(Soul)5016_storage": {
        "encoding": "inplace",
        "label": "struct Limbo.Soul",
        "members": [
          {
            "astId": 5003,
            "contract": "contracts/Limbo.sol:Limbo",
            "label": "lastRewardTimestamp",
            "offset": 0,
            "slot": "0",
            "type": "t_uint256"
          },
          {
            "astId": 5005,
            "contract": "contracts/Limbo.sol:Limbo",
            "label": "accumulatedFlanPerShare",
            "offset": 0,
            "slot": "1",
            "type": "t_uint256"
          },
          {
            "astId": 5007,
            "contract": "contracts/Limbo.sol:Limbo",
            "label": "crossingThreshold",
            "offset": 0,
            "slot": "2",
            "type": "t_uint256"
          },
          {
            "astId": 5010,
            "contract": "contracts/Limbo.sol:Limbo",
            "label": "soulType",
            "offset": 0,
            "slot": "3",
            "type": "t_enum(SoulType)4945"
          },
          {
            "astId": 5013,
            "contract": "contracts/Limbo.sol:Limbo",
            "label": "state",
            "offset": 1,
            "slot": "3",
            "type": "t_enum(SoulState)4941"
          },
          {
            "astId": 5015,
            "contract": "contracts/Limbo.sol:Limbo",
            "label": "flanPerSecond",
            "offset": 0,
            "slot": "4",
            "type": "t_uint256"
          }
        ],
        "numberOfBytes": "160"
      },
      "t_struct(User)5051_storage": {
        "encoding": "inplace",
        "label": "struct Limbo.User",
        "members": [
          {
            "astId": 5046,
            "contract": "contracts/Limbo.sol:Limbo",
            "label": "stakedAmount",
            "offset": 0,
            "slot": "0",
            "type": "t_uint256"
          },
          {
            "astId": 5048,
            "contract": "contracts/Limbo.sol:Limbo",
            "label": "rewardDebt",
            "offset": 0,
            "slot": "1",
            "type": "t_uint256"
          },
          {
            "astId": 5050,
            "contract": "contracts/Limbo.sol:Limbo",
            "label": "bonusPaid",
            "offset": 0,
            "slot": "2",
            "type": "t_bool"
          }
        ],
        "numberOfBytes": "96"
      },
      "t_uint16": {
        "encoding": "inplace",
        "label": "uint16",
        "numberOfBytes": "2"
      },
      "t_uint256": {
        "encoding": "inplace",
        "label": "uint256",
        "numberOfBytes": "32"
      }
    }
  }
}