{
  "address": "0x8c9bd714e2598860E56a4D9E675E717665204442",
  "abi": [
    {
      "anonymous": false,
      "inputs": [
        {
          "indexed": true,
          "internalType": "address",
          "name": "previousOwner",
          "type": "address"
        },
        {
          "indexed": true,
          "internalType": "address",
          "name": "newOwner",
          "type": "address"
        }
      ],
      "name": "OwnershipTransferred",
      "type": "event"
    },
    {
      "anonymous": false,
      "inputs": [
        {
          "indexed": false,
          "internalType": "address",
          "name": "asset",
          "type": "address"
        },
        {
          "indexed": false,
          "internalType": "bool",
          "name": "appoved",
          "type": "bool"
        }
      ],
      "name": "assetApproval",
      "type": "event"
    },
    {
      "anonymous": false,
      "inputs": [
        {
          "indexed": false,
          "internalType": "address",
          "name": "burner",
          "type": "address"
        },
        {
          "indexed": false,
          "internalType": "address",
          "name": "asset",
          "type": "address"
        },
        {
          "indexed": false,
          "internalType": "uint256",
          "name": "fateCreated",
          "type": "uint256"
        }
      ],
      "name": "assetBurnt",
      "type": "event"
    },
    {
      "anonymous": false,
      "inputs": [
        {
          "indexed": false,
          "internalType": "address",
          "name": "newOwner",
          "type": "address"
        }
      ],
      "name": "daoKilled",
      "type": "event"
    },
    {
      "anonymous": false,
      "inputs": [
        {
          "indexed": false,
          "internalType": "address",
          "name": "proposal",
          "type": "address"
        },
        {
          "indexed": false,
          "internalType": "bool",
          "name": "approved",
          "type": "bool"
        }
      ],
      "name": "proposalExecuted",
      "type": "event"
    },
    {
      "anonymous": false,
      "inputs": [
        {
          "indexed": false,
          "internalType": "address",
          "name": "proposal",
          "type": "address"
        },
        {
          "indexed": false,
          "internalType": "address",
          "name": "proposer",
          "type": "address"
        }
      ],
      "name": "proposalLodged",
      "type": "event"
    },
    {
      "anonymous": false,
      "inputs": [
        {
          "indexed": false,
          "internalType": "address",
          "name": "voter",
          "type": "address"
        },
        {
          "indexed": false,
          "internalType": "address",
          "name": "proposal",
          "type": "address"
        },
        {
          "indexed": false,
          "internalType": "int256",
          "name": "fateCast",
          "type": "int256"
        }
      ],
      "name": "voteCast",
      "type": "event"
    },
    {
      "inputs": [
        {
          "internalType": "address",
          "name": "minter",
          "type": "address"
        },
        {
          "internalType": "bool",
          "name": "enabled",
          "type": "bool"
        }
      ],
      "name": "approveFlanMintingPower",
      "outputs": [],
      "stateMutability": "nonpayable",
      "type": "function"
    },
    {
      "inputs": [
        {
          "internalType": "address",
          "name": "",
          "type": "address"
        }
      ],
      "name": "assetApproved",
      "outputs": [
        {
          "internalType": "bool",
          "name": "",
          "type": "bool"
        }
      ],
      "stateMutability": "view",
      "type": "function"
    },
    {
      "inputs": [
        {
          "internalType": "address",
          "name": "asset",
          "type": "address"
        },
        {
          "internalType": "uint256",
          "name": "amount",
          "type": "uint256"
        }
      ],
      "name": "burnAsset",
      "outputs": [],
      "stateMutability": "nonpayable",
      "type": "function"
    },
    {
      "inputs": [],
      "name": "currentProposalState",
      "outputs": [
        {
          "internalType": "int256",
          "name": "fate",
          "type": "int256"
        },
        {
          "internalType": "enum ProposalDecision",
          "name": "decision",
          "type": "uint8"
        },
        {
          "internalType": "address",
          "name": "proposer",
          "type": "address"
        },
        {
          "internalType": "uint256",
          "name": "start",
          "type": "uint256"
        },
        {
          "internalType": "contract Proposal",
          "name": "proposal",
          "type": "address"
        }
      ],
      "stateMutability": "view",
      "type": "function"
    },
    {
      "inputs": [],
      "name": "domainConfig",
      "outputs": [
        {
          "internalType": "address",
          "name": "limbo",
          "type": "address"
        },
        {
          "internalType": "address",
          "name": "flan",
          "type": "address"
        },
        {
          "internalType": "address",
          "name": "eye",
          "type": "address"
        },
        {
          "internalType": "address",
          "name": "fate",
          "type": "address"
        },
        {
          "internalType": "bool",
          "name": "live",
          "type": "bool"
        },
        {
          "internalType": "address",
          "name": "flashGoverner",
          "type": "address"
        },
        {
          "internalType": "address",
          "name": "sushiFactory",
          "type": "address"
        },
        {
          "internalType": "address",
          "name": "uniFactory",
          "type": "address"
        }
      ],
      "stateMutability": "view",
      "type": "function"
    },
    {
      "inputs": [],
      "name": "executeCurrentProposal",
      "outputs": [],
      "stateMutability": "nonpayable",
      "type": "function"
    },
    {
      "inputs": [
        {
          "internalType": "address",
          "name": "",
          "type": "address"
        }
      ],
      "name": "fateGrowthStrategy",
      "outputs": [
        {
          "internalType": "enum FateGrowthStrategy",
          "name": "",
          "type": "uint8"
        }
      ],
      "stateMutability": "view",
      "type": "function"
    },
    {
      "inputs": [
        {
          "internalType": "address",
          "name": "",
          "type": "address"
        }
      ],
      "name": "fateState",
      "outputs": [
        {
          "internalType": "uint256",
          "name": "fatePerDay",
          "type": "uint256"
        },
        {
          "internalType": "uint256",
          "name": "fateBalance",
          "type": "uint256"
        },
        {
          "internalType": "uint256",
          "name": "lastDamnAdjustment",
          "type": "uint256"
        }
      ],
      "stateMutability": "view",
      "type": "function"
    },
    {
      "inputs": [],
      "name": "getFlashGoverner",
      "outputs": [
        {
          "internalType": "address",
          "name": "",
          "type": "address"
        }
      ],
      "stateMutability": "view",
      "type": "function"
    },
    {
      "inputs": [
        {
          "internalType": "address",
          "name": "user",
          "type": "address"
        }
      ],
      "name": "incrementFateFor",
      "outputs": [],
      "stateMutability": "nonpayable",
      "type": "function"
    },
    {
      "inputs": [
        {
          "internalType": "address",
          "name": "newOwner",
          "type": "address"
        }
      ],
      "name": "killDAO",
      "outputs": [],
      "stateMutability": "nonpayable",
      "type": "function"
    },
    {
      "inputs": [],
      "name": "makeLive",
      "outputs": [],
      "stateMutability": "nonpayable",
      "type": "function"
    },
    {
      "inputs": [
        {
          "internalType": "address",
          "name": "proposal",
          "type": "address"
        },
        {
          "internalType": "address",
          "name": "proposer",
          "type": "address"
        }
      ],
      "name": "makeProposal",
      "outputs": [],
      "stateMutability": "nonpayable",
      "type": "function"
    },
    {
      "inputs": [],
      "name": "owner",
      "outputs": [
        {
          "internalType": "address",
          "name": "",
          "type": "address"
        }
      ],
      "stateMutability": "view",
      "type": "function"
    },
    {
      "inputs": [],
      "name": "previousProposalState",
      "outputs": [
        {
          "internalType": "int256",
          "name": "fate",
          "type": "int256"
        },
        {
          "internalType": "enum ProposalDecision",
          "name": "decision",
          "type": "uint8"
        },
        {
          "internalType": "address",
          "name": "proposer",
          "type": "address"
        },
        {
          "internalType": "uint256",
          "name": "start",
          "type": "uint256"
        },
        {
          "internalType": "contract Proposal",
          "name": "proposal",
          "type": "address"
        }
      ],
      "stateMutability": "view",
      "type": "function"
    },
    {
      "inputs": [],
      "name": "proposalConfig",
      "outputs": [
        {
          "internalType": "uint256",
          "name": "votingDuration",
          "type": "uint256"
        },
        {
          "internalType": "uint256",
          "name": "requiredFateStake",
          "type": "uint256"
        },
        {
          "internalType": "address",
          "name": "proposalFactory",
          "type": "address"
        }
      ],
      "stateMutability": "view",
      "type": "function"
    },
    {
      "inputs": [],
      "name": "renounceOwnership",
      "outputs": [],
      "stateMutability": "nonpayable",
      "type": "function"
    },
    {
      "inputs": [
        {
          "internalType": "address",
          "name": "limbo",
          "type": "address"
        },
        {
          "internalType": "address",
          "name": "flan",
          "type": "address"
        },
        {
          "internalType": "address",
          "name": "eye",
          "type": "address"
        },
        {
          "internalType": "address",
          "name": "proposalFactory",
          "type": "address"
        },
        {
          "internalType": "address",
          "name": "sushiFactory",
          "type": "address"
        },
        {
          "internalType": "address",
          "name": "uniFactory",
          "type": "address"
        },
        {
          "internalType": "address",
          "name": "flashGoverner",
          "type": "address"
        },
        {
          "internalType": "uint256",
          "name": "precisionOrderOfMagnitude",
          "type": "uint256"
        },
        {
          "internalType": "address[]",
          "name": "sushiLPs",
          "type": "address[]"
        },
        {
          "internalType": "address[]",
          "name": "uniLPs",
          "type": "address[]"
        }
      ],
      "name": "seed",
      "outputs": [],
      "stateMutability": "nonpayable",
      "type": "function"
    },
    {
      "inputs": [
        {
          "internalType": "address",
          "name": "asset",
          "type": "address"
        },
        {
          "internalType": "bool",
          "name": "approved",
          "type": "bool"
        }
      ],
      "name": "setApprovedAsset",
      "outputs": [],
      "stateMutability": "nonpayable",
      "type": "function"
    },
    {
      "inputs": [
        {
          "internalType": "uint256",
          "name": "finalAssetBalance",
          "type": "uint256"
        },
        {
          "internalType": "uint256",
          "name": "finalEYEBalance",
          "type": "uint256"
        },
        {
          "internalType": "uint256",
          "name": "rootEYE",
          "type": "uint256"
        },
        {
          "internalType": "address",
          "name": "asset",
          "type": "address"
        }
      ],
      "name": "setEYEBasedAssetStake",
      "outputs": [],
      "stateMutability": "nonpayable",
      "type": "function"
    },
    {
      "inputs": [
        {
          "internalType": "uint256",
          "name": "votingDuration",
          "type": "uint256"
        },
        {
          "internalType": "uint256",
          "name": "requiredFateStake",
          "type": "uint256"
        },
        {
          "internalType": "address",
          "name": "proposalFactory",
          "type": "address"
        }
      ],
      "name": "setProposalConfig",
      "outputs": [],
      "stateMutability": "nonpayable",
      "type": "function"
    },
    {
      "inputs": [
        {
          "internalType": "address",
          "name": "",
          "type": "address"
        },
        {
          "internalType": "address",
          "name": "",
          "type": "address"
        }
      ],
      "name": "stakedUserAssetWeight",
      "outputs": [
        {
          "internalType": "uint256",
          "name": "fateWeight",
          "type": "uint256"
        },
        {
          "internalType": "uint256",
          "name": "balance",
          "type": "uint256"
        }
      ],
      "stateMutability": "view",
      "type": "function"
    },
    {
      "inputs": [
        {
          "internalType": "address",
          "name": "proposal",
          "type": "address"
        }
      ],
      "name": "successfulProposal",
      "outputs": [
        {
          "internalType": "bool",
          "name": "",
          "type": "bool"
        }
      ],
      "stateMutability": "view",
      "type": "function"
    },
    {
      "inputs": [],
      "name": "timeRemainingOnProposal",
      "outputs": [
        {
          "internalType": "uint256",
          "name": "",
          "type": "uint256"
        }
      ],
      "stateMutability": "view",
      "type": "function"
    },
    {
      "inputs": [
        {
          "internalType": "address",
          "name": "newOwner",
          "type": "address"
        }
      ],
      "name": "transferOwnership",
      "outputs": [],
      "stateMutability": "nonpayable",
      "type": "function"
    },
    {
      "inputs": [
        {
          "internalType": "address",
          "name": "thing",
          "type": "address"
        },
        {
          "internalType": "address",
          "name": "destination",
          "type": "address"
        }
      ],
      "name": "transferOwnershipOfThing",
      "outputs": [],
      "stateMutability": "nonpayable",
      "type": "function"
    },
    {
      "inputs": [
        {
          "internalType": "address",
          "name": "proposal",
          "type": "address"
        },
        {
          "internalType": "int256",
          "name": "fate",
          "type": "int256"
        }
      ],
      "name": "vote",
      "outputs": [],
      "stateMutability": "nonpayable",
      "type": "function"
    }
  ],
  "transactionHash": "0x29201a957693cc8870c0162729ed6cc33b2f29d74407c96836be1c6fb62960e1",
  "args": [],
  "solcInputHash": "3b633f60859fc01482cc6a8d04cca0a0",
  "bytecode": "0x6080604052633b9aca006001553480156200001957600080fd5b506200003a6200002e6200004060201b60201c565b6200004860201b60201c565b6200010c565b600033905090565b60008060009054906101000a900473ffffffffffffffffffffffffffffffffffffffff169050816000806101000a81548173ffffffffffffffffffffffffffffffffffffffff021916908373ffffffffffffffffffffffffffffffffffffffff1602179055508173ffffffffffffffffffffffffffffffffffffffff168173ffffffffffffffffffffffffffffffffffffffff167f8be0079c531659141344cd1fd0a4f28419497f9722a3daafe3b4186f6b6457e060405160405180910390a35050565b61573c806200011c6000396000f3fe608060405234801561001057600080fd5b50600436106101a95760003560e01c80638da5cb5b116100f9578063bc7e7d5111610097578063f2fde38b11610071578063f2fde38b1461047c578063f4b9a23814610498578063f63b0577146104b4578063f6888400146104d6576101a9565b8063bc7e7d511461041f578063e8d9735f1461043b578063e906687214610460576101a9565b8063abbe718a116100d3578063abbe718a14610399578063b0dfaa7a146103b5578063b143893b146103d1578063b7ebc23b146103ef576101a9565b80638da5cb5b1461034157806390e7760e1461035f57806394e7bfa014610369576101a9565b80632b57bb80116101665780635e068d70116101405780635e068d70146102c957806364c5ce86146102f95780636e49c8b21461031b578063715018a614610337576101a9565b80632b57bb801461025f5780632ed4c8721461027b57806339a8e3c214610297576101a9565b806301e179dc146101ae57806302495fd0146101ce5780630d56575d146101ff5780630e67e45c146102095780631fdca146146102255780632317beae14610241575b600080fd5b6101b66104f2565b6040516101c593929190614ec6565b60405180910390f35b6101e860048036038101906101e39190614082565b61052a565b6040516101f6929190614e9d565b60405180910390f35b61020761055b565b005b610223600480360381019061021e919061431e565b610929565b005b61023f600480360381019061023a91906141c9565b61115c565b005b6102496112b9565b60405161025691906149d2565b60405180910390f35b610279600480360381019061027491906142cf565b6112e6565b005b61029560048036038101906102909190614030565b61138b565b005b6102b160048036038101906102ac9190614030565b6115d1565b6040516102c093929190614efd565b60405180910390f35b6102e360048036038101906102de9190614030565b6115fb565b6040516102f09190614bb4565b60405180910390f35b61030161161b565b604051610312959493929190614bcf565b60405180910390f35b610335600480360381019061033091906141c9565b61168c565b005b61033f6117f6565b005b61034961187e565b60405161035691906149d2565b60405180910390f35b6103676118a7565b005b610383600480360381019061037e9190614030565b611b2c565b6040516103909190614b99565b60405180910390f35b6103b360048036038101906103ae9190614082565b611b4c565b005b6103cf60048036038101906103ca9190614205565b611c03565b005b6103d9611fbf565b6040516103e69190614e82565b60405180910390f35b61040960048036038101906104049190614030565b6120c9565b6040516104169190614b99565b60405180910390f35b61043960048036038101906104349190614082565b6121b4565b005b610443612887565b604051610457989796959493929190614a16565b60405180910390f35b61047a600480360381019061047591906140be565b6129aa565b005b61049660048036038101906104919190614030565b6131ca565b005b6104b260048036038101906104ad9190614241565b6132c2565b005b6104bc61386c565b6040516104cd959493929190614bcf565b60405180910390f35b6104f060048036038101906104eb9190614030565b6138dd565b005b60098060000154908060010154908060020160009054906101000a900473ffffffffffffffffffffffffffffffffffffffff16905083565b600f602052816000526040600020602052806000526040600020600091509150508060000154908060010154905082565b61056b610566613974565b6138dd565b600073ffffffffffffffffffffffffffffffffffffffff16601060030160009054906101000a900473ffffffffffffffffffffffffffffffffffffffff1673ffffffffffffffffffffffffffffffffffffffff1614610927576000601060020154426105d79190615433565b90506009600001548110158015610670575060006002811115610623577f4e487b7100000000000000000000000000000000000000000000000000000000600052602160045260246000fd5b601060010160009054906101000a900460ff16600281111561066e577f4e487b7100000000000000000000000000000000000000000000000000000000600052602160045260246000fd5b145b1561092557600060106000015413156107e4576001601060010160006101000a81548160ff021916908360028111156106d2577f4e487b7100000000000000000000000000000000000000000000000000000000600052602160045260246000fd5b0217905550601060030160009054906101000a900473ffffffffffffffffffffffffffffffffffffffff1673ffffffffffffffffffffffffffffffffffffffff16633e7f6c646040518163ffffffff1660e01b8152600401600060405180830381600087803b15801561074457600080fd5b505af1158015610758573d6000803e3d6000fd5b50505050600960010154600e6000601060010160019054906101000a900473ffffffffffffffffffffffffffffffffffffffff1673ffffffffffffffffffffffffffffffffffffffff1673ffffffffffffffffffffffffffffffffffffffff16815260200190815260200160002060010160008282546107d89190615036565b92505081905550610839565b6002601060010160006101000a81548160ff02191690836002811115610833577f4e487b7100000000000000000000000000000000000000000000000000000000600052602160045260246000fd5b02179055505b7f7745d71a4be808e4c2ce16eabb0c47208c72a57fde3d997ba8847e4bf554276d601060030160009054906101000a900473ffffffffffffffffffffffffffffffffffffffff16600160028111156108ba577f4e487b7100000000000000000000000000000000000000000000000000000000600052602160045260246000fd5b601060010160009054906101000a900460ff166002811115610905577f4e487b7100000000000000000000000000000000000000000000000000000000600052602160045260246000fd5b14604051610914929190614b47565b60405180910390a161092461397c565b5b505b565b600260030160149054906101000a900460ff1661097b576040517f08c379a000000000000000000000000000000000000000000000000000000000815260040161097290614e22565b60405180910390fd5b61098b610986613974565b6138dd565b600d60008273ffffffffffffffffffffffffffffffffffffffff1673ffffffffffffffffffffffffffffffffffffffff16815260200190815260200160002060009054906101000a900460ff16610a17576040517f08c379a0000000000000000000000000000000000000000000000000000000008152600401610a0e90614d42565b60405180910390fd5b6000610a21613974565b90506000600c60008473ffffffffffffffffffffffffffffffffffffffff1673ffffffffffffffffffffffffffffffffffffffff16815260200190815260200160002060009054906101000a900460ff16905060008485610a829190615345565b90506000600186610a939190615036565b600187610aa09190615036565b610aaa9190615345565b9050868211158015610abb57508681115b610afa576040517f08c379a0000000000000000000000000000000000000000000000000000000008152600401610af190614e42565b60405180910390fd5b6000600f60008673ffffffffffffffffffffffffffffffffffffffff1673ffffffffffffffffffffffffffffffffffffffff16815260200190815260200160002060008773ffffffffffffffffffffffffffffffffffffffff1673ffffffffffffffffffffffffffffffffffffffff16815260200190815260200160002090508060000154600e60008773ffffffffffffffffffffffffffffffffffffffff1673ffffffffffffffffffffffffffffffffffffffff1681526020019081526020016000206000016000828254610bd09190615433565b9250508190555060008160010154905060016002811115610c1a577f4e487b7100000000000000000000000000000000000000000000000000000000600052602160045260246000fd5b856002811115610c53577f4e487b7100000000000000000000000000000000000000000000000000000000600052602160045260246000fd5b1415610d6757888a14610c9b576040517f08c379a0000000000000000000000000000000000000000000000000000000008152600401610c9290614c22565b60405180910390fd5b6002800160009054906101000a900473ffffffffffffffffffffffffffffffffffffffff1673ffffffffffffffffffffffffffffffffffffffff168773ffffffffffffffffffffffffffffffffffffffff1614610cf757600080fd5b87826000018190555089826001018190555087600e60008873ffffffffffffffffffffffffffffffffffffffff1673ffffffffffffffffffffffffffffffffffffffff1681526020019081526020016000206000016000828254610d5b9190615036565b925050819055506110ba565b600280811115610da0577f4e487b7100000000000000000000000000000000000000000000000000000000600052602160045260246000fd5b856002811115610dd9577f4e487b7100000000000000000000000000000000000000000000000000000000600052602160045260246000fd5b141561107e57876002610dec9190615345565b82600001819055508160000154600e60008873ffffffffffffffffffffffffffffffffffffffff1673ffffffffffffffffffffffffffffffffffffffff1681526020019081526020016000206000016000828254610e4a9190615036565b9250508190555060006002800160009054906101000a900473ffffffffffffffffffffffffffffffffffffffff1673ffffffffffffffffffffffffffffffffffffffff166370a08231896040518263ffffffff1660e01b8152600401610eb091906149d2565b60206040518083038186803b158015610ec857600080fd5b505afa158015610edc573d6000803e3d6000fd5b505050506040513d601f19601f82011682018060405250810190610f0091906142a6565b905060008111610f45576040517f08c379a0000000000000000000000000000000000000000000000000000000008152600401610f3c90614d62565b60405180910390fd5b60008873ffffffffffffffffffffffffffffffffffffffff166318160ddd6040518163ffffffff1660e01b815260040160206040518083038186803b158015610f8d57600080fd5b505afa158015610fa1573d6000803e3d6000fd5b505050506040513d601f19601f82011682018060405250810190610fc591906142a6565b9050600081670de0b6b3a764000084610fde9190615345565b610fe8919061508c565b90506000600154670de0b6b3a76400006110029190615345565b8e8361100e9190615345565b611018919061508c565b90506001548d611028919061508c565b9c50808d1461106c576040517f08c379a000000000000000000000000000000000000000000000000000000000815260040161106390614e62565b60405180910390fd5b8d8660010181905550505050506110b9565b6040517f08c379a00000000000000000000000000000000000000000000000000000000081526004016110b090614cc2565b60405180910390fd5b5b6000818b6110c8919061539f565b90508773ffffffffffffffffffffffffffffffffffffffff167306c32f6952A13FA9F4dF225E953bB1637b6893Ec63dc502fda90918930856040518563ffffffff1660e01b815260040161111f9493929190614a94565b60006040518083038186803b15801561113757600080fd5b505af415801561114b573d6000803e3d6000fd5b505050505050505050505050505050565b611165336120c9565b6111a4576040517f08c379a000000000000000000000000000000000000000000000000000000000815260040161119b90614ce2565b60405180910390fd5b600260030160149054906101000a900460ff166111f6576040517f08c379a00000000000000000000000000000000000000000000000000000000081526004016111ed90614e22565b60405180910390fd5b600260010160009054906101000a900473ffffffffffffffffffffffffffffffffffffffff1673ffffffffffffffffffffffffffffffffffffffff1663785a47f88383611244576000611266565b7fffffffffffffffffffffffffffffffffffffffffffffffffffffffffffffffff5b6040518363ffffffff1660e01b8152600401611283929190614b70565b600060405180830381600087803b15801561129d57600080fd5b505af11580156112b1573d6000803e3d6000fd5b505050505050565b6000600260040160009054906101000a900473ffffffffffffffffffffffffffffffffffffffff16905090565b6112ef336120c9565b61132e576040517f08c379a000000000000000000000000000000000000000000000000000000000815260040161132590614ce2565b60405180910390fd5b826009600001819055508160096001018190555080600960020160006101000a81548173ffffffffffffffffffffffffffffffffffffffff021916908373ffffffffffffffffffffffffffffffffffffffff160217905550505050565b611393613974565b73ffffffffffffffffffffffffffffffffffffffff166113b161187e565b73ffffffffffffffffffffffffffffffffffffffff1614611407576040517f08c379a00000000000000000000000000000000000000000000000000000000081526004016113fe90614d82565b60405180910390fd5b600260030160149054906101000a900460ff16611459576040517f08c379a000000000000000000000000000000000000000000000000000000000815260040161145090614e22565b60405180910390fd5b6000600260030160146101000a81548160ff021916908315150217905550600260010160009054906101000a900473ffffffffffffffffffffffffffffffffffffffff1673ffffffffffffffffffffffffffffffffffffffff1663e73a914c826040518263ffffffff1660e01b81526004016114d591906149d2565b600060405180830381600087803b1580156114ef57600080fd5b505af1158015611503573d6000803e3d6000fd5b50505050600260000160009054906101000a900473ffffffffffffffffffffffffffffffffffffffff1673ffffffffffffffffffffffffffffffffffffffff1663e73a914c826040518263ffffffff1660e01b815260040161156591906149d2565b600060405180830381600087803b15801561157f57600080fd5b505af1158015611593573d6000803e3d6000fd5b505050507f027d12de79f28202b419561536dd7fb6cd28918aadc661bb4adcf06d6d8f6f93816040516115c691906149d2565b60405180910390a150565b600e6020528060005260406000206000915090508060000154908060010154908060020154905083565b600c6020528060005260406000206000915054906101000a900460ff1681565b60108060000154908060010160009054906101000a900460ff16908060010160019054906101000a900473ffffffffffffffffffffffffffffffffffffffff16908060020154908060030160009054906101000a900473ffffffffffffffffffffffffffffffffffffffff16905085565b611695336120c9565b6116d4576040517f08c379a00000000000000000000000000000000000000000000000000000000081526004016116cb90614ce2565b60405180910390fd5b80600d60008473ffffffffffffffffffffffffffffffffffffffff1673ffffffffffffffffffffffffffffffffffffffff16815260200190815260200160002060006101000a81548160ff0219169083151502179055506002600c60008473ffffffffffffffffffffffffffffffffffffffff1673ffffffffffffffffffffffffffffffffffffffff16815260200190815260200160002060006101000a81548160ff021916908360028111156117b4577f4e487b7100000000000000000000000000000000000000000000000000000000600052602160045260246000fd5b02179055507f2747e4eb130851ff5a5701cde7440cb02654eba2623bee18804ed959289a0d7082826040516117ea929190614b47565b60405180910390a15050565b6117fe613974565b73ffffffffffffffffffffffffffffffffffffffff1661181c61187e565b73ffffffffffffffffffffffffffffffffffffffff1614611872576040517f08c379a000000000000000000000000000000000000000000000000000000000815260040161186990614d82565b60405180910390fd5b61187c6000613bbe565b565b60008060009054906101000a900473ffffffffffffffffffffffffffffffffffffffff16905090565b6118af613974565b73ffffffffffffffffffffffffffffffffffffffff166118cd61187e565b73ffffffffffffffffffffffffffffffffffffffff1614611923576040517f08c379a000000000000000000000000000000000000000000000000000000000815260040161191a90614d82565b60405180910390fd5b3073ffffffffffffffffffffffffffffffffffffffff16600260000160009054906101000a900473ffffffffffffffffffffffffffffffffffffffff1673ffffffffffffffffffffffffffffffffffffffff166398fabd3a6040518163ffffffff1660e01b815260040160206040518083038186803b1580156119a557600080fd5b505afa1580156119b9573d6000803e3d6000fd5b505050506040513d601f19601f820116820180604052508101906119dd9190614059565b73ffffffffffffffffffffffffffffffffffffffff16148015611acd57503073ffffffffffffffffffffffffffffffffffffffff16600260010160009054906101000a900473ffffffffffffffffffffffffffffffffffffffff1673ffffffffffffffffffffffffffffffffffffffff166398fabd3a6040518163ffffffff1660e01b815260040160206040518083038186803b158015611a7d57600080fd5b505afa158015611a91573d6000803e3d6000fd5b505050506040513d601f19601f82011682018060405250810190611ab59190614059565b73ffffffffffffffffffffffffffffffffffffffff16145b611b0c576040517f08c379a0000000000000000000000000000000000000000000000000000000008152600401611b0390614c42565b60405180910390fd5b6001600260030160146101000a81548160ff021916908315150217905550565b600d6020528060005260406000206000915054906101000a900460ff1681565b611b55336120c9565b611b94576040517f08c379a0000000000000000000000000000000000000000000000000000000008152600401611b8b90614ce2565b60405180910390fd5b8173ffffffffffffffffffffffffffffffffffffffff1663f2fde38b826040518263ffffffff1660e01b8152600401611bcd91906149d2565b600060405180830381600087803b158015611be757600080fd5b505af1158015611bfb573d6000803e3d6000fd5b505050505050565b611c13611c0e613974565b6138dd565b600260030160149054906101000a900460ff16611c65576040517f08c379a0000000000000000000000000000000000000000000000000000000008152600401611c5c90614e22565b60405180910390fd5b601060030160009054906101000a900473ffffffffffffffffffffffffffffffffffffffff1673ffffffffffffffffffffffffffffffffffffffff168273ffffffffffffffffffffffffffffffffffffffff1614611cf8576040517f08c379a0000000000000000000000000000000000000000000000000000000008152600401611cef90614da2565b60405180910390fd5b60006002811115611d32577f4e487b7100000000000000000000000000000000000000000000000000000000600052602160045260246000fd5b601060010160009054906101000a900460ff166002811115611d7d577f4e487b7100000000000000000000000000000000000000000000000000000000600052602160045260246000fd5b14611dbd576040517f08c379a0000000000000000000000000000000000000000000000000000000008152600401611db490614c62565b60405180910390fd5b610e10600960000154611dd09190615433565b60106002015442611de19190615433565b1115611e9e576000601060000154905060096000015460106002015442611e089190615433565b1115611e49576040517f08c379a0000000000000000000000000000000000000000000000000000000008152600401611e4090614de2565b60405180910390fd5b60008183611e57919061522e565b128015611e7a57506000828284611e6e9190614fa2565b611e78919061522e565b135b15611e9c57611c20601060020154611e929190615036565b6010600201819055505b505b6000808213611eb65781611eb190615570565b611eb8565b815b905080600e6000611ec7613974565b73ffffffffffffffffffffffffffffffffffffffff1673ffffffffffffffffffffffffffffffffffffffff16815260200190815260200160002060010154611f0f9190615433565b600e6000611f1b613974565b73ffffffffffffffffffffffffffffffffffffffff1673ffffffffffffffffffffffffffffffffffffffff168152602001908152602001600020600101819055508160106000016000828254611f719190614fa2565b925050819055507f7f0a0c719a420e0a26f3bd9036dbbded84aa10be7ab78b8cbd099d971d6a3d2a611fa1613974565b8484604051611fb293929190614ad9565b60405180910390a1505050565b6000806002811115611ffa577f4e487b7100000000000000000000000000000000000000000000000000000000600052602160045260246000fd5b601060010160009054906101000a900460ff166002811115612045577f4e487b7100000000000000000000000000000000000000000000000000000000600052602160045260246000fd5b14612085576040517f08c379a000000000000000000000000000000000000000000000000000000000815260040161207c90614e02565b60405180910390fd5b6000601060020154426120989190615433565b90506009600001548111156120b15760009150506120c6565b806009600001546120c29190615433565b9150505b90565b600060016002811115612105577f4e487b7100000000000000000000000000000000000000000000000000000000600052602160045260246000fd5b601060010160009054906101000a900460ff166002811115612150577f4e487b7100000000000000000000000000000000000000000000000000000000600052602160045260246000fd5b1480156121ad5750601060030160009054906101000a900473ffffffffffffffffffffffffffffffffffffffff1673ffffffffffffffffffffffffffffffffffffffff168273ffffffffffffffffffffffffffffffffffffffff16145b9050919050565b6121c46121bf613974565b6138dd565b600073ffffffffffffffffffffffffffffffffffffffff16601060030160009054906101000a900473ffffffffffffffffffffffffffffffffffffffff1673ffffffffffffffffffffffffffffffffffffffff1614612580576000601060020154426122309190615433565b905060096000015481101580156122c957506000600281111561227c577f4e487b7100000000000000000000000000000000000000000000000000000000600052602160045260246000fd5b601060010160009054906101000a900460ff1660028111156122c7577f4e487b7100000000000000000000000000000000000000000000000000000000600052602160045260246000fd5b145b1561257e576000601060000154131561243d576001601060010160006101000a81548160ff0219169083600281111561232b577f4e487b7100000000000000000000000000000000000000000000000000000000600052602160045260246000fd5b0217905550601060030160009054906101000a900473ffffffffffffffffffffffffffffffffffffffff1673ffffffffffffffffffffffffffffffffffffffff16633e7f6c646040518163ffffffff1660e01b8152600401600060405180830381600087803b15801561239d57600080fd5b505af11580156123b1573d6000803e3d6000fd5b50505050600960010154600e6000601060010160019054906101000a900473ffffffffffffffffffffffffffffffffffffffff1673ffffffffffffffffffffffffffffffffffffffff1673ffffffffffffffffffffffffffffffffffffffff16815260200190815260200160002060010160008282546124319190615036565b92505081905550612492565b6002601060010160006101000a81548160ff0219169083600281111561248c577f4e487b7100000000000000000000000000000000000000000000000000000000600052602160045260246000fd5b02179055505b7f7745d71a4be808e4c2ce16eabb0c47208c72a57fde3d997ba8847e4bf554276d601060030160009054906101000a900473ffffffffffffffffffffffffffffffffffffffff1660016002811115612513577f4e487b7100000000000000000000000000000000000000000000000000000000600052602160045260246000fd5b601060010160009054906101000a900460ff16600281111561255e577f4e487b7100000000000000000000000000000000000000000000000000000000600052602160045260246000fd5b1460405161256d929190614b47565b60405180910390a161257d61397c565b5b505b600061258a613974565b9050600960020160009054906101000a900473ffffffffffffffffffffffffffffffffffffffff1673ffffffffffffffffffffffffffffffffffffffff168173ffffffffffffffffffffffffffffffffffffffff161461261f576040517f08c379a000000000000000000000000000000000000000000000000000000000815260040161261690614dc2565b60405180910390fd5b600073ffffffffffffffffffffffffffffffffffffffff16601060030160009054906101000a900473ffffffffffffffffffffffffffffffffffffffff1673ffffffffffffffffffffffffffffffffffffffff16146126b3576040517f08c379a00000000000000000000000000000000000000000000000000000000081526004016126aa90614d22565b60405180910390fd5b60026009600101546126c59190615345565b600e60008473ffffffffffffffffffffffffffffffffffffffff1673ffffffffffffffffffffffffffffffffffffffff168152602001908152602001600020600101546127129190615433565b600e60008473ffffffffffffffffffffffffffffffffffffffff1673ffffffffffffffffffffffffffffffffffffffff1681526020019081526020016000206001018190555082601060030160006101000a81548173ffffffffffffffffffffffffffffffffffffffff021916908373ffffffffffffffffffffffffffffffffffffffff1602179055506000601060010160006101000a81548160ff021916908360028111156127eb577f4e487b7100000000000000000000000000000000000000000000000000000000600052602160045260246000fd5b0217905550600060106000018190555081601060010160016101000a81548173ffffffffffffffffffffffffffffffffffffffff021916908373ffffffffffffffffffffffffffffffffffffffff160217905550426010600201819055507f25f50ff38793d9d44e17734a0756ed6bb8fd3b64971089d65913470f2c33dde1838360405161287a9291906149ed565b60405180910390a1505050565b60028060000160009054906101000a900473ffffffffffffffffffffffffffffffffffffffff16908060010160009054906101000a900473ffffffffffffffffffffffffffffffffffffffff16908060020160009054906101000a900473ffffffffffffffffffffffffffffffffffffffff16908060030160009054906101000a900473ffffffffffffffffffffffffffffffffffffffff16908060030160149054906101000a900460ff16908060040160009054906101000a900473ffffffffffffffffffffffffffffffffffffffff16908060050160009054906101000a900473ffffffffffffffffffffffffffffffffffffffff16908060060160009054906101000a900473ffffffffffffffffffffffffffffffffffffffff16905088565b6129b2613974565b73ffffffffffffffffffffffffffffffffffffffff166129d061187e565b73ffffffffffffffffffffffffffffffffffffffff1614612a26576040517f08c379a0000000000000000000000000000000000000000000000000000000008152600401612a1d90614d82565b60405180910390fd5b612a348a8a8a898989613c82565b6202a300600960000181905550670de0b6b3a764000060df612a569190615345565b60096001018190555086600960020160006101000a81548173ffffffffffffffffffffffffffffffffffffffff021916908373ffffffffffffffffffffffffffffffffffffffff16021790555082600a612ab09190615110565b60018190555060005b8251811015612e39578673ffffffffffffffffffffffffffffffffffffffff16838281518110612b12577f4e487b7100000000000000000000000000000000000000000000000000000000600052603260045260246000fd5b602002602001015173ffffffffffffffffffffffffffffffffffffffff1663c45a01556040518163ffffffff1660e01b815260040160206040518083038186803b158015612b5f57600080fd5b505afa158015612b73573d6000803e3d6000fd5b505050506040513d601f19601f82011682018060405250810190612b979190614059565b73ffffffffffffffffffffffffffffffffffffffff1614612bed576040517f08c379a0000000000000000000000000000000000000000000000000000000008152600401612be490614c82565b60405180910390fd5b6103e88973ffffffffffffffffffffffffffffffffffffffff166370a08231858481518110612c45577f4e487b7100000000000000000000000000000000000000000000000000000000600052603260045260246000fd5b60200260200101516040518263ffffffff1660e01b8152600401612c6991906149d2565b60206040518083038186803b158015612c8157600080fd5b505afa158015612c95573d6000803e3d6000fd5b505050506040513d601f19601f82011682018060405250810190612cb991906142a6565b1115612d58576001600d6000858481518110612cfe577f4e487b7100000000000000000000000000000000000000000000000000000000600052603260045260246000fd5b602002602001015173ffffffffffffffffffffffffffffffffffffffff1673ffffffffffffffffffffffffffffffffffffffff16815260200190815260200160002060006101000a81548160ff0219169083151502179055505b6002600c6000858481518110612d97577f4e487b7100000000000000000000000000000000000000000000000000000000600052603260045260246000fd5b602002602001015173ffffffffffffffffffffffffffffffffffffffff1673ffffffffffffffffffffffffffffffffffffffff16815260200190815260200160002060006101000a81548160ff02191690836002811115612e21577f4e487b7100000000000000000000000000000000000000000000000000000000600052602160045260246000fd5b02179055508080612e3190615527565b915050612ab9565b5060005b81518110156131bd578573ffffffffffffffffffffffffffffffffffffffff16828281518110612e96577f4e487b7100000000000000000000000000000000000000000000000000000000600052603260045260246000fd5b602002602001015173ffffffffffffffffffffffffffffffffffffffff1663c45a01556040518163ffffffff1660e01b815260040160206040518083038186803b158015612ee357600080fd5b505afa158015612ef7573d6000803e3d6000fd5b505050506040513d601f19601f82011682018060405250810190612f1b9190614059565b73ffffffffffffffffffffffffffffffffffffffff1614612f71576040517f08c379a0000000000000000000000000000000000000000000000000000000008152600401612f6890614c82565b60405180910390fd5b6103e88973ffffffffffffffffffffffffffffffffffffffff166370a08231848481518110612fc9577f4e487b7100000000000000000000000000000000000000000000000000000000600052603260045260246000fd5b60200260200101516040518263ffffffff1660e01b8152600401612fed91906149d2565b60206040518083038186803b15801561300557600080fd5b505afa158015613019573d6000803e3d6000fd5b505050506040513d601f19601f8201168201806040525081019061303d91906142a6565b11156130dc576001600d6000848481518110613082577f4e487b7100000000000000000000000000000000000000000000000000000000600052603260045260246000fd5b602002602001015173ffffffffffffffffffffffffffffffffffffffff1673ffffffffffffffffffffffffffffffffffffffff16815260200190815260200160002060006101000a81548160ff0219169083151502179055505b6002600c600084848151811061311b577f4e487b7100000000000000000000000000000000000000000000000000000000600052603260045260246000fd5b602002602001015173ffffffffffffffffffffffffffffffffffffffff1673ffffffffffffffffffffffffffffffffffffffff16815260200190815260200160002060006101000a81548160ff021916908360028111156131a5577f4e487b7100000000000000000000000000000000000000000000000000000000600052602160045260246000fd5b021790555080806131b590615527565b915050612e3d565b5050505050505050505050565b6131d2613974565b73ffffffffffffffffffffffffffffffffffffffff166131f061187e565b73ffffffffffffffffffffffffffffffffffffffff1614613246576040517f08c379a000000000000000000000000000000000000000000000000000000000815260040161323d90614d82565b60405180910390fd5b600073ffffffffffffffffffffffffffffffffffffffff168173ffffffffffffffffffffffffffffffffffffffff1614156132b6576040517f08c379a00000000000000000000000000000000000000000000000000000000081526004016132ad90614ca2565b60405180910390fd5b6132bf81613bbe565b50565b600260030160149054906101000a900460ff16613314576040517f08c379a000000000000000000000000000000000000000000000000000000000815260040161330b90614e22565b60405180910390fd5b61332461331f613974565b6138dd565b600d60008373ffffffffffffffffffffffffffffffffffffffff1673ffffffffffffffffffffffffffffffffffffffff16815260200190815260200160002060009054906101000a900460ff166133b0576040517f08c379a00000000000000000000000000000000000000000000000000000000081526004016133a790614d42565b60405180910390fd5b60006133ba613974565b90508273ffffffffffffffffffffffffffffffffffffffff166323b872dd8230856040518463ffffffff1660e01b81526004016133f993929190614b10565b602060405180830381600087803b15801561341357600080fd5b505af1158015613427573d6000803e3d6000fd5b505050506040513d601f19601f8201168201806040525081019061344b919061427d565b61348a576040517f08c379a000000000000000000000000000000000000000000000000000000000815260040161348190614d02565b60405180910390fd5b6000600e6000613498613974565b73ffffffffffffffffffffffffffffffffffffffff1673ffffffffffffffffffffffffffffffffffffffff1681526020019081526020016000206001015490506002800160009054906101000a900473ffffffffffffffffffffffffffffffffffffffff1673ffffffffffffffffffffffffffffffffffffffff168473ffffffffffffffffffffffffffffffffffffffff1614156135f457600a8361353d9190615345565b90506002800160009054906101000a900473ffffffffffffffffffffffffffffffffffffffff1673ffffffffffffffffffffffffffffffffffffffff166342966c68846040518263ffffffff1660e01b815260040161359c9190614e82565b602060405180830381600087803b1580156135b657600080fd5b505af11580156135ca573d6000803e3d6000fd5b505050506040513d601f19601f820116820180604052508101906135ee919061427d565b506137c4565b60006002800160009054906101000a900473ffffffffffffffffffffffffffffffffffffffff1673ffffffffffffffffffffffffffffffffffffffff166370a08231866040518263ffffffff1660e01b815260040161365391906149d2565b60206040518083038186803b15801561366b57600080fd5b505afa15801561367f573d6000803e3d6000fd5b505050506040513d601f19601f820116820180604052508101906136a391906142a6565b9050600081116136e8576040517f08c379a00000000000000000000000000000000000000000000000000000000081526004016136df90614d62565b60405180910390fd5b60008573ffffffffffffffffffffffffffffffffffffffff166318160ddd6040518163ffffffff1660e01b815260040160206040518083038186803b15801561373057600080fd5b505afa158015613744573d6000803e3d6000fd5b505050506040513d601f19601f8201168201806040525081019061376891906142a6565b9050600081670de0b6b3a7640000846137819190615345565b61378b919061508c565b90506000670de0b6b3a764000087836137a49190615345565b6137ae919061508c565b90506014816137bd9190615345565b9450505050505b80600e60006137d1613974565b73ffffffffffffffffffffffffffffffffffffffff1673ffffffffffffffffffffffffffffffffffffffff168152602001908152602001600020600101600082825461381d9190615036565b925050819055507f53586334466ae8ecce002fdc0bc6fb81a5d0eb4f82a7ab70b4fc8d459964b04661384d613974565b858360405161385e93929190614b10565b60405180910390a150505050565b60148060000154908060010160009054906101000a900460ff16908060010160019054906101000a900473ffffffffffffffffffffffffffffffffffffffff16908060020154908060030160009054906101000a900473ffffffffffffffffffffffffffffffffffffffff16905085565b6000600e60008373ffffffffffffffffffffffffffffffffffffffff1673ffffffffffffffffffffffffffffffffffffffff1681526020019081526020016000209050620151808160020154426139349190615433565b82600001546139439190615345565b61394d919061508c565b8160010160008282546139609190615036565b925050819055504281600201819055505050565b600033905090565b60106014600082015481600001556001820160009054906101000a900460ff168160010160006101000a81548160ff021916908360028111156139e8577f4e487b7100000000000000000000000000000000000000000000000000000000600052602160045260246000fd5b02179055506001820160019054906101000a900473ffffffffffffffffffffffffffffffffffffffff168160010160016101000a81548173ffffffffffffffffffffffffffffffffffffffff021916908373ffffffffffffffffffffffffffffffffffffffff160217905550600282015481600201556003820160009054906101000a900473ffffffffffffffffffffffffffffffffffffffff168160030160006101000a81548173ffffffffffffffffffffffffffffffffffffffff021916908373ffffffffffffffffffffffffffffffffffffffff1602179055509050506000601060030160006101000a81548173ffffffffffffffffffffffffffffffffffffffff021916908373ffffffffffffffffffffffffffffffffffffffff16021790555060006010600001819055506000601060010160006101000a81548160ff02191690836002811115613b67577f4e487b7100000000000000000000000000000000000000000000000000000000600052602160045260246000fd5b02179055506000601060010160016101000a81548173ffffffffffffffffffffffffffffffffffffffff021916908373ffffffffffffffffffffffffffffffffffffffff1602179055506000601060020181905550565b60008060009054906101000a900473ffffffffffffffffffffffffffffffffffffffff169050816000806101000a81548173ffffffffffffffffffffffffffffffffffffffff021916908373ffffffffffffffffffffffffffffffffffffffff1602179055508173ffffffffffffffffffffffffffffffffffffffff168173ffffffffffffffffffffffffffffffffffffffff167f8be0079c531659141344cd1fd0a4f28419497f9722a3daafe3b4186f6b6457e060405160405180910390a35050565b85600260000160006101000a81548173ffffffffffffffffffffffffffffffffffffffff021916908373ffffffffffffffffffffffffffffffffffffffff16021790555084600260010160006101000a81548173ffffffffffffffffffffffffffffffffffffffff021916908373ffffffffffffffffffffffffffffffffffffffff160217905550836002800160006101000a81548173ffffffffffffffffffffffffffffffffffffffff021916908373ffffffffffffffffffffffffffffffffffffffff16021790555081600260060160006101000a81548173ffffffffffffffffffffffffffffffffffffffff021916908373ffffffffffffffffffffffffffffffffffffffff16021790555082600260050160006101000a81548173ffffffffffffffffffffffffffffffffffffffff021916908373ffffffffffffffffffffffffffffffffffffffff16021790555080600260040160006101000a81548173ffffffffffffffffffffffffffffffffffffffff021916908373ffffffffffffffffffffffffffffffffffffffff1602179055506001600d60008673ffffffffffffffffffffffffffffffffffffffff1673ffffffffffffffffffffffffffffffffffffffff16815260200190815260200160002060006101000a81548160ff0219169083151502179055506001600c60008673ffffffffffffffffffffffffffffffffffffffff1673ffffffffffffffffffffffffffffffffffffffff16815260200190815260200160002060006101000a81548160ff02191690836002811115613efa577f4e487b7100000000000000000000000000000000000000000000000000000000600052602160045260246000fd5b0217905550505050505050565b6000613f1a613f1584614f65565b614f34565b90508083825260208201905082856020860282011115613f3957600080fd5b60005b85811015613f695781613f4f8882613f73565b845260208401935060208301925050600181019050613f3c565b5050509392505050565b600081359050613f82816156aa565b92915050565b600081519050613f97816156aa565b92915050565b600082601f830112613fae57600080fd5b8135613fbe848260208601613f07565b91505092915050565b600081359050613fd6816156c1565b92915050565b600081519050613feb816156c1565b92915050565b600081359050614000816156d8565b92915050565b600081359050614015816156ef565b92915050565b60008151905061402a816156ef565b92915050565b60006020828403121561404257600080fd5b600061405084828501613f73565b91505092915050565b60006020828403121561406b57600080fd5b600061407984828501613f88565b91505092915050565b6000806040838503121561409557600080fd5b60006140a385828601613f73565b92505060206140b485828601613f73565b9150509250929050565b6000806000806000806000806000806101408b8d0312156140de57600080fd5b60006140ec8d828e01613f73565b9a505060206140fd8d828e01613f73565b995050604061410e8d828e01613f73565b985050606061411f8d828e01613f73565b97505060806141308d828e01613f73565b96505060a06141418d828e01613f73565b95505060c06141528d828e01613f73565b94505060e06141638d828e01614006565b9350506101008b013567ffffffffffffffff81111561418157600080fd5b61418d8d828e01613f9d565b9250506101208b013567ffffffffffffffff8111156141ab57600080fd5b6141b78d828e01613f9d565b9150509295989b9194979a5092959850565b600080604083850312156141dc57600080fd5b60006141ea85828601613f73565b92505060206141fb85828601613fc7565b9150509250929050565b6000806040838503121561421857600080fd5b600061422685828601613f73565b925050602061423785828601613ff1565b9150509250929050565b6000806040838503121561425457600080fd5b600061426285828601613f73565b925050602061427385828601614006565b9150509250929050565b60006020828403121561428f57600080fd5b600061429d84828501613fdc565b91505092915050565b6000602082840312156142b857600080fd5b60006142c68482850161401b565b91505092915050565b6000806000606084860312156142e457600080fd5b60006142f286828701614006565b935050602061430386828701614006565b925050604061431486828701613f73565b9150509250925092565b6000806000806080858703121561433457600080fd5b600061434287828801614006565b945050602061435387828801614006565b935050604061436487828801614006565b925050606061437587828801613f73565b91505092959194509250565b61438a81615467565b82525050565b61439981615467565b82525050565b6143a881615479565b82525050565b6143b7816154df565b82525050565b6143c681615503565b82525050565b6143d581615515565b82525050565b6143e4816154ab565b82525050565b6143f3816154ab565b82525050565b6000614406602083614f91565b91507f4c696d626f44414f3a207374616b696e672065796520696e76617269616e742e6000830152602082019050919050565b6000614446602f83614f91565b91507f4c696d626f44414f3a207472616e73666572206f776e657273686970206f662060008301527f6c696d626f20616e6420666c616e2e00000000000000000000000000000000006020830152604082019050919050565b60006144ac602383614f91565b91507f4c696d626f44414f3a20766f74696e67206f6e2070726f706f73616c20636c6f60008301527f73656400000000000000000000000000000000000000000000000000000000006020830152604082019050919050565b6000614512601a83614f91565b91507f4c696d626f44414f3a20696e76616c6964205375736869204c500000000000006000830152602082019050919050565b6000614552602683614f91565b91507f4f776e61626c653a206e6577206f776e657220697320746865207a65726f206160008301527f64647265737300000000000000000000000000000000000000000000000000006020830152604082019050919050565b60006145b8603183614f91565b91507f4c696d626f44414f3a2061737365742067726f7774682073747261746567792060008301527f6e6f74206163636f756e74656420666f720000000000000000000000000000006020830152604082019050919050565b600061461e601a83614f91565b91507f4c696d626f44414f3a20617070726f76652070726f706f73616c0000000000006000830152602082019050919050565b600061465e601883614f91565b91507f4c696d626f44414f3a207472616e736665724661696c656400000000000000006000830152602082019050919050565b600061469e601a83614f91565b91507f4c696d626f44414f3a206163746976652070726f706f73616c2e0000000000006000830152602082019050919050565b60006146de601783614f91565b91507f4c696d626f44414f3a20696c6c6567616c2061737365740000000000000000006000830152602082019050919050565b600061471e601083614f91565b91507f4c696d626f44414f3a204e6f20455945000000000000000000000000000000006000830152602082019050919050565b600061475e602083614f91565b91507f4f776e61626c653a2063616c6c6572206973206e6f7420746865206f776e65726000830152602082019050919050565b600061479e603983614f91565b91507f4c696d626f44414f3a207374617465642070726f706f73616c20646f6573206e60008301527f6f74206d617463682063757272656e742070726f706f73616c000000000000006020830152604082019050919050565b6000614804601f83614f91565b91507f4c696d626f44414f3a206f6e6c792050726f706f73616c20466163746f7279006000830152602082019050919050565b6000614844603083614f91565b91507f4c696d626f44414f3a20766f74696e6720666f722063757272656e742070726f60008301527f706f73616c2068617320656e6465642e000000000000000000000000000000006020830152604082019050919050565b60006148aa601c83614f91565b91507f4c696d626f44414f3a2070726f706f73616c2066696e69736865642e000000006000830152602082019050919050565b60006148ea601a83614f91565b91507f4c696d626f44414f3a2044414f206973206e6f74206c6976652e0000000000006000830152602082019050919050565b600061492a601e83614f91565b91507f4c696d626f44414f3a205374616b652045594520696e76617269616e742e00006000830152602082019050919050565b600061496a602283614f91565b91507f4c696d626f44414f3a207374616b6520696e76617269616e7420636865636b2060008301527f322e0000000000000000000000000000000000000000000000000000000000006020830152604082019050919050565b6149cc816154d5565b82525050565b60006020820190506149e76000830184614381565b92915050565b6000604082019050614a026000830185614381565b614a0f6020830184614381565b9392505050565b600061010082019050614a2c600083018b614381565b614a39602083018a614381565b614a466040830189614381565b614a536060830188614381565b614a60608083018761439f565b614a6d60a0830186614381565b614a7a60c0830185614381565b614a8760e0830184614381565b9998505050505050505050565b6000608082019050614aa96000830187614390565b614ab66020830186614390565b614ac36040830185614390565b614ad060608301846143ea565b95945050505050565b6000606082019050614aee6000830186614381565b614afb6020830185614381565b614b0860408301846143db565b949350505050565b6000606082019050614b256000830186614381565b614b326020830185614381565b614b3f60408301846149c3565b949350505050565b6000604082019050614b5c6000830185614381565b614b69602083018461439f565b9392505050565b6000604082019050614b856000830185614381565b614b9260208301846149c3565b9392505050565b6000602082019050614bae600083018461439f565b92915050565b6000602082019050614bc960008301846143bd565b92915050565b600060a082019050614be460008301886143db565b614bf160208301876143cc565b614bfe6040830186614381565b614c0b60608301856149c3565b614c1860808301846143ae565b9695505050505050565b60006020820190508181036000830152614c3b816143f9565b9050919050565b60006020820190508181036000830152614c5b81614439565b9050919050565b60006020820190508181036000830152614c7b8161449f565b9050919050565b60006020820190508181036000830152614c9b81614505565b9050919050565b60006020820190508181036000830152614cbb81614545565b9050919050565b60006020820190508181036000830152614cdb816145ab565b9050919050565b60006020820190508181036000830152614cfb81614611565b9050919050565b60006020820190508181036000830152614d1b81614651565b9050919050565b60006020820190508181036000830152614d3b81614691565b9050919050565b60006020820190508181036000830152614d5b816146d1565b9050919050565b60006020820190508181036000830152614d7b81614711565b9050919050565b60006020820190508181036000830152614d9b81614751565b9050919050565b60006020820190508181036000830152614dbb81614791565b9050919050565b60006020820190508181036000830152614ddb816147f7565b9050919050565b60006020820190508181036000830152614dfb81614837565b9050919050565b60006020820190508181036000830152614e1b8161489d565b9050919050565b60006020820190508181036000830152614e3b816148dd565b9050919050565b60006020820190508181036000830152614e5b8161491d565b9050919050565b60006020820190508181036000830152614e7b8161495d565b9050919050565b6000602082019050614e9760008301846149c3565b92915050565b6000604082019050614eb260008301856149c3565b614ebf60208301846149c3565b9392505050565b6000606082019050614edb60008301866149c3565b614ee860208301856149c3565b614ef56040830184614381565b949350505050565b6000606082019050614f1260008301866149c3565b614f1f60208301856149c3565b614f2c60408301846149c3565b949350505050565b6000604051905081810181811067ffffffffffffffff82111715614f5b57614f5a615646565b5b8060405250919050565b600067ffffffffffffffff821115614f8057614f7f615646565b5b602082029050602081019050919050565b600082825260208201905092915050565b6000614fad826154ab565b9150614fb8836154ab565b9250817f7fffffffffffffffffffffffffffffffffffffffffffffffffffffffffffffff03831360008312151615614ff357614ff26155b9565b5b817f800000000000000000000000000000000000000000000000000000000000000003831260008312161561502b5761502a6155b9565b5b828201905092915050565b6000615041826154d5565b915061504c836154d5565b9250827fffffffffffffffffffffffffffffffffffffffffffffffffffffffffffffffff03821115615081576150806155b9565b5b828201905092915050565b6000615097826154d5565b91506150a2836154d5565b9250826150b2576150b16155e8565b5b828204905092915050565b6000808291508390505b6001851115615107578086048111156150e3576150e26155b9565b5b60018516156150f25780820291505b808102905061510085615675565b94506150c7565b94509492505050565b600061511b826154d5565b9150615126836154d5565b92506151537fffffffffffffffffffffffffffffffffffffffffffffffffffffffffffffffff848461515b565b905092915050565b60008261516b5760019050615227565b816151795760009050615227565b816001811461518f5760028114615199576151c8565b6001915050615227565b60ff8411156151ab576151aa6155b9565b5b8360020a9150848211156151c2576151c16155b9565b5b50615227565b5060208310610133831016604e8410600b84101617156151fd5782820a9050838111156151f8576151f76155b9565b5b615227565b61520a84848460016150bd565b92509050818404811115615221576152206155b9565b5b81810290505b9392505050565b6000615239826154ab565b9150615244836154ab565b9250827f7fffffffffffffffffffffffffffffffffffffffffffffffffffffffffffffff0482116000841360008413161615615283576152826155b9565b5b817f800000000000000000000000000000000000000000000000000000000000000005831260008412600084131616156152c0576152bf6155b9565b5b827f800000000000000000000000000000000000000000000000000000000000000005821260008413600084121616156152fd576152fc6155b9565b5b827f7fffffffffffffffffffffffffffffffffffffffffffffffffffffffffffffff058212600084126000841216161561533a576153396155b9565b5b828202905092915050565b6000615350826154d5565b915061535b836154d5565b9250817fffffffffffffffffffffffffffffffffffffffffffffffffffffffffffffffff0483118215151615615394576153936155b9565b5b828202905092915050565b60006153aa826154ab565b91506153b5836154ab565b9250827f8000000000000000000000000000000000000000000000000000000000000000018212600084121516156153f0576153ef6155b9565b5b827f7fffffffffffffffffffffffffffffffffffffffffffffffffffffffffffffff018213600084121615615428576154276155b9565b5b828203905092915050565b600061543e826154d5565b9150615449836154d5565b92508282101561545c5761545b6155b9565b5b828203905092915050565b6000615472826154b5565b9050919050565b60008115159050919050565b600081905061549382615682565b919050565b60008190506154a682615696565b919050565b6000819050919050565b600073ffffffffffffffffffffffffffffffffffffffff82169050919050565b6000819050919050565b60006154ea826154f1565b9050919050565b60006154fc826154b5565b9050919050565b600061550e82615485565b9050919050565b600061552082615498565b9050919050565b6000615532826154d5565b91507fffffffffffffffffffffffffffffffffffffffffffffffffffffffffffffffff821415615565576155646155b9565b5b600182019050919050565b600061557b826154ab565b91507f80000000000000000000000000000000000000000000000000000000000000008214156155ae576155ad6155b9565b5b816000039050919050565b7f4e487b7100000000000000000000000000000000000000000000000000000000600052601160045260246000fd5b7f4e487b7100000000000000000000000000000000000000000000000000000000600052601260045260246000fd5b7f4e487b7100000000000000000000000000000000000000000000000000000000600052602160045260246000fd5b7f4e487b7100000000000000000000000000000000000000000000000000000000600052604160045260246000fd5b60008160011c9050919050565b6003811061569357615692615617565b5b50565b600381106156a7576156a6615617565b5b50565b6156b381615467565b81146156be57600080fd5b50565b6156ca81615479565b81146156d557600080fd5b50565b6156e1816154ab565b81146156ec57600080fd5b50565b6156f8816154d5565b811461570357600080fd5b5056fea26469706673582212203f1d709f8a0fcab78969ebaa0c629a87c37d11729e61fb8827bf92b4744c754464736f6c63430008000033",
  "deployedBytecode": "0x608060405234801561001057600080fd5b50600436106101a95760003560e01c80638da5cb5b116100f9578063bc7e7d5111610097578063f2fde38b11610071578063f2fde38b1461047c578063f4b9a23814610498578063f63b0577146104b4578063f6888400146104d6576101a9565b8063bc7e7d511461041f578063e8d9735f1461043b578063e906687214610460576101a9565b8063abbe718a116100d3578063abbe718a14610399578063b0dfaa7a146103b5578063b143893b146103d1578063b7ebc23b146103ef576101a9565b80638da5cb5b1461034157806390e7760e1461035f57806394e7bfa014610369576101a9565b80632b57bb80116101665780635e068d70116101405780635e068d70146102c957806364c5ce86146102f95780636e49c8b21461031b578063715018a614610337576101a9565b80632b57bb801461025f5780632ed4c8721461027b57806339a8e3c214610297576101a9565b806301e179dc146101ae57806302495fd0146101ce5780630d56575d146101ff5780630e67e45c146102095780631fdca146146102255780632317beae14610241575b600080fd5b6101b66104f2565b6040516101c593929190614ec6565b60405180910390f35b6101e860048036038101906101e39190614082565b61052a565b6040516101f6929190614e9d565b60405180910390f35b61020761055b565b005b610223600480360381019061021e919061431e565b610929565b005b61023f600480360381019061023a91906141c9565b61115c565b005b6102496112b9565b60405161025691906149d2565b60405180910390f35b610279600480360381019061027491906142cf565b6112e6565b005b61029560048036038101906102909190614030565b61138b565b005b6102b160048036038101906102ac9190614030565b6115d1565b6040516102c093929190614efd565b60405180910390f35b6102e360048036038101906102de9190614030565b6115fb565b6040516102f09190614bb4565b60405180910390f35b61030161161b565b604051610312959493929190614bcf565b60405180910390f35b610335600480360381019061033091906141c9565b61168c565b005b61033f6117f6565b005b61034961187e565b60405161035691906149d2565b60405180910390f35b6103676118a7565b005b610383600480360381019061037e9190614030565b611b2c565b6040516103909190614b99565b60405180910390f35b6103b360048036038101906103ae9190614082565b611b4c565b005b6103cf60048036038101906103ca9190614205565b611c03565b005b6103d9611fbf565b6040516103e69190614e82565b60405180910390f35b61040960048036038101906104049190614030565b6120c9565b6040516104169190614b99565b60405180910390f35b61043960048036038101906104349190614082565b6121b4565b005b610443612887565b604051610457989796959493929190614a16565b60405180910390f35b61047a600480360381019061047591906140be565b6129aa565b005b61049660048036038101906104919190614030565b6131ca565b005b6104b260048036038101906104ad9190614241565b6132c2565b005b6104bc61386c565b6040516104cd959493929190614bcf565b60405180910390f35b6104f060048036038101906104eb9190614030565b6138dd565b005b60098060000154908060010154908060020160009054906101000a900473ffffffffffffffffffffffffffffffffffffffff16905083565b600f602052816000526040600020602052806000526040600020600091509150508060000154908060010154905082565b61056b610566613974565b6138dd565b600073ffffffffffffffffffffffffffffffffffffffff16601060030160009054906101000a900473ffffffffffffffffffffffffffffffffffffffff1673ffffffffffffffffffffffffffffffffffffffff1614610927576000601060020154426105d79190615433565b90506009600001548110158015610670575060006002811115610623577f4e487b7100000000000000000000000000000000000000000000000000000000600052602160045260246000fd5b601060010160009054906101000a900460ff16600281111561066e577f4e487b7100000000000000000000000000000000000000000000000000000000600052602160045260246000fd5b145b1561092557600060106000015413156107e4576001601060010160006101000a81548160ff021916908360028111156106d2577f4e487b7100000000000000000000000000000000000000000000000000000000600052602160045260246000fd5b0217905550601060030160009054906101000a900473ffffffffffffffffffffffffffffffffffffffff1673ffffffffffffffffffffffffffffffffffffffff16633e7f6c646040518163ffffffff1660e01b8152600401600060405180830381600087803b15801561074457600080fd5b505af1158015610758573d6000803e3d6000fd5b50505050600960010154600e6000601060010160019054906101000a900473ffffffffffffffffffffffffffffffffffffffff1673ffffffffffffffffffffffffffffffffffffffff1673ffffffffffffffffffffffffffffffffffffffff16815260200190815260200160002060010160008282546107d89190615036565b92505081905550610839565b6002601060010160006101000a81548160ff02191690836002811115610833577f4e487b7100000000000000000000000000000000000000000000000000000000600052602160045260246000fd5b02179055505b7f7745d71a4be808e4c2ce16eabb0c47208c72a57fde3d997ba8847e4bf554276d601060030160009054906101000a900473ffffffffffffffffffffffffffffffffffffffff16600160028111156108ba577f4e487b7100000000000000000000000000000000000000000000000000000000600052602160045260246000fd5b601060010160009054906101000a900460ff166002811115610905577f4e487b7100000000000000000000000000000000000000000000000000000000600052602160045260246000fd5b14604051610914929190614b47565b60405180910390a161092461397c565b5b505b565b600260030160149054906101000a900460ff1661097b576040517f08c379a000000000000000000000000000000000000000000000000000000000815260040161097290614e22565b60405180910390fd5b61098b610986613974565b6138dd565b600d60008273ffffffffffffffffffffffffffffffffffffffff1673ffffffffffffffffffffffffffffffffffffffff16815260200190815260200160002060009054906101000a900460ff16610a17576040517f08c379a0000000000000000000000000000000000000000000000000000000008152600401610a0e90614d42565b60405180910390fd5b6000610a21613974565b90506000600c60008473ffffffffffffffffffffffffffffffffffffffff1673ffffffffffffffffffffffffffffffffffffffff16815260200190815260200160002060009054906101000a900460ff16905060008485610a829190615345565b90506000600186610a939190615036565b600187610aa09190615036565b610aaa9190615345565b9050868211158015610abb57508681115b610afa576040517f08c379a0000000000000000000000000000000000000000000000000000000008152600401610af190614e42565b60405180910390fd5b6000600f60008673ffffffffffffffffffffffffffffffffffffffff1673ffffffffffffffffffffffffffffffffffffffff16815260200190815260200160002060008773ffffffffffffffffffffffffffffffffffffffff1673ffffffffffffffffffffffffffffffffffffffff16815260200190815260200160002090508060000154600e60008773ffffffffffffffffffffffffffffffffffffffff1673ffffffffffffffffffffffffffffffffffffffff1681526020019081526020016000206000016000828254610bd09190615433565b9250508190555060008160010154905060016002811115610c1a577f4e487b7100000000000000000000000000000000000000000000000000000000600052602160045260246000fd5b856002811115610c53577f4e487b7100000000000000000000000000000000000000000000000000000000600052602160045260246000fd5b1415610d6757888a14610c9b576040517f08c379a0000000000000000000000000000000000000000000000000000000008152600401610c9290614c22565b60405180910390fd5b6002800160009054906101000a900473ffffffffffffffffffffffffffffffffffffffff1673ffffffffffffffffffffffffffffffffffffffff168773ffffffffffffffffffffffffffffffffffffffff1614610cf757600080fd5b87826000018190555089826001018190555087600e60008873ffffffffffffffffffffffffffffffffffffffff1673ffffffffffffffffffffffffffffffffffffffff1681526020019081526020016000206000016000828254610d5b9190615036565b925050819055506110ba565b600280811115610da0577f4e487b7100000000000000000000000000000000000000000000000000000000600052602160045260246000fd5b856002811115610dd9577f4e487b7100000000000000000000000000000000000000000000000000000000600052602160045260246000fd5b141561107e57876002610dec9190615345565b82600001819055508160000154600e60008873ffffffffffffffffffffffffffffffffffffffff1673ffffffffffffffffffffffffffffffffffffffff1681526020019081526020016000206000016000828254610e4a9190615036565b9250508190555060006002800160009054906101000a900473ffffffffffffffffffffffffffffffffffffffff1673ffffffffffffffffffffffffffffffffffffffff166370a08231896040518263ffffffff1660e01b8152600401610eb091906149d2565b60206040518083038186803b158015610ec857600080fd5b505afa158015610edc573d6000803e3d6000fd5b505050506040513d601f19601f82011682018060405250810190610f0091906142a6565b905060008111610f45576040517f08c379a0000000000000000000000000000000000000000000000000000000008152600401610f3c90614d62565b60405180910390fd5b60008873ffffffffffffffffffffffffffffffffffffffff166318160ddd6040518163ffffffff1660e01b815260040160206040518083038186803b158015610f8d57600080fd5b505afa158015610fa1573d6000803e3d6000fd5b505050506040513d601f19601f82011682018060405250810190610fc591906142a6565b9050600081670de0b6b3a764000084610fde9190615345565b610fe8919061508c565b90506000600154670de0b6b3a76400006110029190615345565b8e8361100e9190615345565b611018919061508c565b90506001548d611028919061508c565b9c50808d1461106c576040517f08c379a000000000000000000000000000000000000000000000000000000000815260040161106390614e62565b60405180910390fd5b8d8660010181905550505050506110b9565b6040517f08c379a00000000000000000000000000000000000000000000000000000000081526004016110b090614cc2565b60405180910390fd5b5b6000818b6110c8919061539f565b90508773ffffffffffffffffffffffffffffffffffffffff1673__$214fa9e5359ded89facc653b10ee6e003d$__63dc502fda90918930856040518563ffffffff1660e01b815260040161111f9493929190614a94565b60006040518083038186803b15801561113757600080fd5b505af415801561114b573d6000803e3d6000fd5b505050505050505050505050505050565b611165336120c9565b6111a4576040517f08c379a000000000000000000000000000000000000000000000000000000000815260040161119b90614ce2565b60405180910390fd5b600260030160149054906101000a900460ff166111f6576040517f08c379a00000000000000000000000000000000000000000000000000000000081526004016111ed90614e22565b60405180910390fd5b600260010160009054906101000a900473ffffffffffffffffffffffffffffffffffffffff1673ffffffffffffffffffffffffffffffffffffffff1663785a47f88383611244576000611266565b7fffffffffffffffffffffffffffffffffffffffffffffffffffffffffffffffff5b6040518363ffffffff1660e01b8152600401611283929190614b70565b600060405180830381600087803b15801561129d57600080fd5b505af11580156112b1573d6000803e3d6000fd5b505050505050565b6000600260040160009054906101000a900473ffffffffffffffffffffffffffffffffffffffff16905090565b6112ef336120c9565b61132e576040517f08c379a000000000000000000000000000000000000000000000000000000000815260040161132590614ce2565b60405180910390fd5b826009600001819055508160096001018190555080600960020160006101000a81548173ffffffffffffffffffffffffffffffffffffffff021916908373ffffffffffffffffffffffffffffffffffffffff160217905550505050565b611393613974565b73ffffffffffffffffffffffffffffffffffffffff166113b161187e565b73ffffffffffffffffffffffffffffffffffffffff1614611407576040517f08c379a00000000000000000000000000000000000000000000000000000000081526004016113fe90614d82565b60405180910390fd5b600260030160149054906101000a900460ff16611459576040517f08c379a000000000000000000000000000000000000000000000000000000000815260040161145090614e22565b60405180910390fd5b6000600260030160146101000a81548160ff021916908315150217905550600260010160009054906101000a900473ffffffffffffffffffffffffffffffffffffffff1673ffffffffffffffffffffffffffffffffffffffff1663e73a914c826040518263ffffffff1660e01b81526004016114d591906149d2565b600060405180830381600087803b1580156114ef57600080fd5b505af1158015611503573d6000803e3d6000fd5b50505050600260000160009054906101000a900473ffffffffffffffffffffffffffffffffffffffff1673ffffffffffffffffffffffffffffffffffffffff1663e73a914c826040518263ffffffff1660e01b815260040161156591906149d2565b600060405180830381600087803b15801561157f57600080fd5b505af1158015611593573d6000803e3d6000fd5b505050507f027d12de79f28202b419561536dd7fb6cd28918aadc661bb4adcf06d6d8f6f93816040516115c691906149d2565b60405180910390a150565b600e6020528060005260406000206000915090508060000154908060010154908060020154905083565b600c6020528060005260406000206000915054906101000a900460ff1681565b60108060000154908060010160009054906101000a900460ff16908060010160019054906101000a900473ffffffffffffffffffffffffffffffffffffffff16908060020154908060030160009054906101000a900473ffffffffffffffffffffffffffffffffffffffff16905085565b611695336120c9565b6116d4576040517f08c379a00000000000000000000000000000000000000000000000000000000081526004016116cb90614ce2565b60405180910390fd5b80600d60008473ffffffffffffffffffffffffffffffffffffffff1673ffffffffffffffffffffffffffffffffffffffff16815260200190815260200160002060006101000a81548160ff0219169083151502179055506002600c60008473ffffffffffffffffffffffffffffffffffffffff1673ffffffffffffffffffffffffffffffffffffffff16815260200190815260200160002060006101000a81548160ff021916908360028111156117b4577f4e487b7100000000000000000000000000000000000000000000000000000000600052602160045260246000fd5b02179055507f2747e4eb130851ff5a5701cde7440cb02654eba2623bee18804ed959289a0d7082826040516117ea929190614b47565b60405180910390a15050565b6117fe613974565b73ffffffffffffffffffffffffffffffffffffffff1661181c61187e565b73ffffffffffffffffffffffffffffffffffffffff1614611872576040517f08c379a000000000000000000000000000000000000000000000000000000000815260040161186990614d82565b60405180910390fd5b61187c6000613bbe565b565b60008060009054906101000a900473ffffffffffffffffffffffffffffffffffffffff16905090565b6118af613974565b73ffffffffffffffffffffffffffffffffffffffff166118cd61187e565b73ffffffffffffffffffffffffffffffffffffffff1614611923576040517f08c379a000000000000000000000000000000000000000000000000000000000815260040161191a90614d82565b60405180910390fd5b3073ffffffffffffffffffffffffffffffffffffffff16600260000160009054906101000a900473ffffffffffffffffffffffffffffffffffffffff1673ffffffffffffffffffffffffffffffffffffffff166398fabd3a6040518163ffffffff1660e01b815260040160206040518083038186803b1580156119a557600080fd5b505afa1580156119b9573d6000803e3d6000fd5b505050506040513d601f19601f820116820180604052508101906119dd9190614059565b73ffffffffffffffffffffffffffffffffffffffff16148015611acd57503073ffffffffffffffffffffffffffffffffffffffff16600260010160009054906101000a900473ffffffffffffffffffffffffffffffffffffffff1673ffffffffffffffffffffffffffffffffffffffff166398fabd3a6040518163ffffffff1660e01b815260040160206040518083038186803b158015611a7d57600080fd5b505afa158015611a91573d6000803e3d6000fd5b505050506040513d601f19601f82011682018060405250810190611ab59190614059565b73ffffffffffffffffffffffffffffffffffffffff16145b611b0c576040517f08c379a0000000000000000000000000000000000000000000000000000000008152600401611b0390614c42565b60405180910390fd5b6001600260030160146101000a81548160ff021916908315150217905550565b600d6020528060005260406000206000915054906101000a900460ff1681565b611b55336120c9565b611b94576040517f08c379a0000000000000000000000000000000000000000000000000000000008152600401611b8b90614ce2565b60405180910390fd5b8173ffffffffffffffffffffffffffffffffffffffff1663f2fde38b826040518263ffffffff1660e01b8152600401611bcd91906149d2565b600060405180830381600087803b158015611be757600080fd5b505af1158015611bfb573d6000803e3d6000fd5b505050505050565b611c13611c0e613974565b6138dd565b600260030160149054906101000a900460ff16611c65576040517f08c379a0000000000000000000000000000000000000000000000000000000008152600401611c5c90614e22565b60405180910390fd5b601060030160009054906101000a900473ffffffffffffffffffffffffffffffffffffffff1673ffffffffffffffffffffffffffffffffffffffff168273ffffffffffffffffffffffffffffffffffffffff1614611cf8576040517f08c379a0000000000000000000000000000000000000000000000000000000008152600401611cef90614da2565b60405180910390fd5b60006002811115611d32577f4e487b7100000000000000000000000000000000000000000000000000000000600052602160045260246000fd5b601060010160009054906101000a900460ff166002811115611d7d577f4e487b7100000000000000000000000000000000000000000000000000000000600052602160045260246000fd5b14611dbd576040517f08c379a0000000000000000000000000000000000000000000000000000000008152600401611db490614c62565b60405180910390fd5b610e10600960000154611dd09190615433565b60106002015442611de19190615433565b1115611e9e576000601060000154905060096000015460106002015442611e089190615433565b1115611e49576040517f08c379a0000000000000000000000000000000000000000000000000000000008152600401611e4090614de2565b60405180910390fd5b60008183611e57919061522e565b128015611e7a57506000828284611e6e9190614fa2565b611e78919061522e565b135b15611e9c57611c20601060020154611e929190615036565b6010600201819055505b505b6000808213611eb65781611eb190615570565b611eb8565b815b905080600e6000611ec7613974565b73ffffffffffffffffffffffffffffffffffffffff1673ffffffffffffffffffffffffffffffffffffffff16815260200190815260200160002060010154611f0f9190615433565b600e6000611f1b613974565b73ffffffffffffffffffffffffffffffffffffffff1673ffffffffffffffffffffffffffffffffffffffff168152602001908152602001600020600101819055508160106000016000828254611f719190614fa2565b925050819055507f7f0a0c719a420e0a26f3bd9036dbbded84aa10be7ab78b8cbd099d971d6a3d2a611fa1613974565b8484604051611fb293929190614ad9565b60405180910390a1505050565b6000806002811115611ffa577f4e487b7100000000000000000000000000000000000000000000000000000000600052602160045260246000fd5b601060010160009054906101000a900460ff166002811115612045577f4e487b7100000000000000000000000000000000000000000000000000000000600052602160045260246000fd5b14612085576040517f08c379a000000000000000000000000000000000000000000000000000000000815260040161207c90614e02565b60405180910390fd5b6000601060020154426120989190615433565b90506009600001548111156120b15760009150506120c6565b806009600001546120c29190615433565b9150505b90565b600060016002811115612105577f4e487b7100000000000000000000000000000000000000000000000000000000600052602160045260246000fd5b601060010160009054906101000a900460ff166002811115612150577f4e487b7100000000000000000000000000000000000000000000000000000000600052602160045260246000fd5b1480156121ad5750601060030160009054906101000a900473ffffffffffffffffffffffffffffffffffffffff1673ffffffffffffffffffffffffffffffffffffffff168273ffffffffffffffffffffffffffffffffffffffff16145b9050919050565b6121c46121bf613974565b6138dd565b600073ffffffffffffffffffffffffffffffffffffffff16601060030160009054906101000a900473ffffffffffffffffffffffffffffffffffffffff1673ffffffffffffffffffffffffffffffffffffffff1614612580576000601060020154426122309190615433565b905060096000015481101580156122c957506000600281111561227c577f4e487b7100000000000000000000000000000000000000000000000000000000600052602160045260246000fd5b601060010160009054906101000a900460ff1660028111156122c7577f4e487b7100000000000000000000000000000000000000000000000000000000600052602160045260246000fd5b145b1561257e576000601060000154131561243d576001601060010160006101000a81548160ff0219169083600281111561232b577f4e487b7100000000000000000000000000000000000000000000000000000000600052602160045260246000fd5b0217905550601060030160009054906101000a900473ffffffffffffffffffffffffffffffffffffffff1673ffffffffffffffffffffffffffffffffffffffff16633e7f6c646040518163ffffffff1660e01b8152600401600060405180830381600087803b15801561239d57600080fd5b505af11580156123b1573d6000803e3d6000fd5b50505050600960010154600e6000601060010160019054906101000a900473ffffffffffffffffffffffffffffffffffffffff1673ffffffffffffffffffffffffffffffffffffffff1673ffffffffffffffffffffffffffffffffffffffff16815260200190815260200160002060010160008282546124319190615036565b92505081905550612492565b6002601060010160006101000a81548160ff0219169083600281111561248c577f4e487b7100000000000000000000000000000000000000000000000000000000600052602160045260246000fd5b02179055505b7f7745d71a4be808e4c2ce16eabb0c47208c72a57fde3d997ba8847e4bf554276d601060030160009054906101000a900473ffffffffffffffffffffffffffffffffffffffff1660016002811115612513577f4e487b7100000000000000000000000000000000000000000000000000000000600052602160045260246000fd5b601060010160009054906101000a900460ff16600281111561255e577f4e487b7100000000000000000000000000000000000000000000000000000000600052602160045260246000fd5b1460405161256d929190614b47565b60405180910390a161257d61397c565b5b505b600061258a613974565b9050600960020160009054906101000a900473ffffffffffffffffffffffffffffffffffffffff1673ffffffffffffffffffffffffffffffffffffffff168173ffffffffffffffffffffffffffffffffffffffff161461261f576040517f08c379a000000000000000000000000000000000000000000000000000000000815260040161261690614dc2565b60405180910390fd5b600073ffffffffffffffffffffffffffffffffffffffff16601060030160009054906101000a900473ffffffffffffffffffffffffffffffffffffffff1673ffffffffffffffffffffffffffffffffffffffff16146126b3576040517f08c379a00000000000000000000000000000000000000000000000000000000081526004016126aa90614d22565b60405180910390fd5b60026009600101546126c59190615345565b600e60008473ffffffffffffffffffffffffffffffffffffffff1673ffffffffffffffffffffffffffffffffffffffff168152602001908152602001600020600101546127129190615433565b600e60008473ffffffffffffffffffffffffffffffffffffffff1673ffffffffffffffffffffffffffffffffffffffff1681526020019081526020016000206001018190555082601060030160006101000a81548173ffffffffffffffffffffffffffffffffffffffff021916908373ffffffffffffffffffffffffffffffffffffffff1602179055506000601060010160006101000a81548160ff021916908360028111156127eb577f4e487b7100000000000000000000000000000000000000000000000000000000600052602160045260246000fd5b0217905550600060106000018190555081601060010160016101000a81548173ffffffffffffffffffffffffffffffffffffffff021916908373ffffffffffffffffffffffffffffffffffffffff160217905550426010600201819055507f25f50ff38793d9d44e17734a0756ed6bb8fd3b64971089d65913470f2c33dde1838360405161287a9291906149ed565b60405180910390a1505050565b60028060000160009054906101000a900473ffffffffffffffffffffffffffffffffffffffff16908060010160009054906101000a900473ffffffffffffffffffffffffffffffffffffffff16908060020160009054906101000a900473ffffffffffffffffffffffffffffffffffffffff16908060030160009054906101000a900473ffffffffffffffffffffffffffffffffffffffff16908060030160149054906101000a900460ff16908060040160009054906101000a900473ffffffffffffffffffffffffffffffffffffffff16908060050160009054906101000a900473ffffffffffffffffffffffffffffffffffffffff16908060060160009054906101000a900473ffffffffffffffffffffffffffffffffffffffff16905088565b6129b2613974565b73ffffffffffffffffffffffffffffffffffffffff166129d061187e565b73ffffffffffffffffffffffffffffffffffffffff1614612a26576040517f08c379a0000000000000000000000000000000000000000000000000000000008152600401612a1d90614d82565b60405180910390fd5b612a348a8a8a898989613c82565b6202a300600960000181905550670de0b6b3a764000060df612a569190615345565b60096001018190555086600960020160006101000a81548173ffffffffffffffffffffffffffffffffffffffff021916908373ffffffffffffffffffffffffffffffffffffffff16021790555082600a612ab09190615110565b60018190555060005b8251811015612e39578673ffffffffffffffffffffffffffffffffffffffff16838281518110612b12577f4e487b7100000000000000000000000000000000000000000000000000000000600052603260045260246000fd5b602002602001015173ffffffffffffffffffffffffffffffffffffffff1663c45a01556040518163ffffffff1660e01b815260040160206040518083038186803b158015612b5f57600080fd5b505afa158015612b73573d6000803e3d6000fd5b505050506040513d601f19601f82011682018060405250810190612b979190614059565b73ffffffffffffffffffffffffffffffffffffffff1614612bed576040517f08c379a0000000000000000000000000000000000000000000000000000000008152600401612be490614c82565b60405180910390fd5b6103e88973ffffffffffffffffffffffffffffffffffffffff166370a08231858481518110612c45577f4e487b7100000000000000000000000000000000000000000000000000000000600052603260045260246000fd5b60200260200101516040518263ffffffff1660e01b8152600401612c6991906149d2565b60206040518083038186803b158015612c8157600080fd5b505afa158015612c95573d6000803e3d6000fd5b505050506040513d601f19601f82011682018060405250810190612cb991906142a6565b1115612d58576001600d6000858481518110612cfe577f4e487b7100000000000000000000000000000000000000000000000000000000600052603260045260246000fd5b602002602001015173ffffffffffffffffffffffffffffffffffffffff1673ffffffffffffffffffffffffffffffffffffffff16815260200190815260200160002060006101000a81548160ff0219169083151502179055505b6002600c6000858481518110612d97577f4e487b7100000000000000000000000000000000000000000000000000000000600052603260045260246000fd5b602002602001015173ffffffffffffffffffffffffffffffffffffffff1673ffffffffffffffffffffffffffffffffffffffff16815260200190815260200160002060006101000a81548160ff02191690836002811115612e21577f4e487b7100000000000000000000000000000000000000000000000000000000600052602160045260246000fd5b02179055508080612e3190615527565b915050612ab9565b5060005b81518110156131bd578573ffffffffffffffffffffffffffffffffffffffff16828281518110612e96577f4e487b7100000000000000000000000000000000000000000000000000000000600052603260045260246000fd5b602002602001015173ffffffffffffffffffffffffffffffffffffffff1663c45a01556040518163ffffffff1660e01b815260040160206040518083038186803b158015612ee357600080fd5b505afa158015612ef7573d6000803e3d6000fd5b505050506040513d601f19601f82011682018060405250810190612f1b9190614059565b73ffffffffffffffffffffffffffffffffffffffff1614612f71576040517f08c379a0000000000000000000000000000000000000000000000000000000008152600401612f6890614c82565b60405180910390fd5b6103e88973ffffffffffffffffffffffffffffffffffffffff166370a08231848481518110612fc9577f4e487b7100000000000000000000000000000000000000000000000000000000600052603260045260246000fd5b60200260200101516040518263ffffffff1660e01b8152600401612fed91906149d2565b60206040518083038186803b15801561300557600080fd5b505afa158015613019573d6000803e3d6000fd5b505050506040513d601f19601f8201168201806040525081019061303d91906142a6565b11156130dc576001600d6000848481518110613082577f4e487b7100000000000000000000000000000000000000000000000000000000600052603260045260246000fd5b602002602001015173ffffffffffffffffffffffffffffffffffffffff1673ffffffffffffffffffffffffffffffffffffffff16815260200190815260200160002060006101000a81548160ff0219169083151502179055505b6002600c600084848151811061311b577f4e487b7100000000000000000000000000000000000000000000000000000000600052603260045260246000fd5b602002602001015173ffffffffffffffffffffffffffffffffffffffff1673ffffffffffffffffffffffffffffffffffffffff16815260200190815260200160002060006101000a81548160ff021916908360028111156131a5577f4e487b7100000000000000000000000000000000000000000000000000000000600052602160045260246000fd5b021790555080806131b590615527565b915050612e3d565b5050505050505050505050565b6131d2613974565b73ffffffffffffffffffffffffffffffffffffffff166131f061187e565b73ffffffffffffffffffffffffffffffffffffffff1614613246576040517f08c379a000000000000000000000000000000000000000000000000000000000815260040161323d90614d82565b60405180910390fd5b600073ffffffffffffffffffffffffffffffffffffffff168173ffffffffffffffffffffffffffffffffffffffff1614156132b6576040517f08c379a00000000000000000000000000000000000000000000000000000000081526004016132ad90614ca2565b60405180910390fd5b6132bf81613bbe565b50565b600260030160149054906101000a900460ff16613314576040517f08c379a000000000000000000000000000000000000000000000000000000000815260040161330b90614e22565b60405180910390fd5b61332461331f613974565b6138dd565b600d60008373ffffffffffffffffffffffffffffffffffffffff1673ffffffffffffffffffffffffffffffffffffffff16815260200190815260200160002060009054906101000a900460ff166133b0576040517f08c379a00000000000000000000000000000000000000000000000000000000081526004016133a790614d42565b60405180910390fd5b60006133ba613974565b90508273ffffffffffffffffffffffffffffffffffffffff166323b872dd8230856040518463ffffffff1660e01b81526004016133f993929190614b10565b602060405180830381600087803b15801561341357600080fd5b505af1158015613427573d6000803e3d6000fd5b505050506040513d601f19601f8201168201806040525081019061344b919061427d565b61348a576040517f08c379a000000000000000000000000000000000000000000000000000000000815260040161348190614d02565b60405180910390fd5b6000600e6000613498613974565b73ffffffffffffffffffffffffffffffffffffffff1673ffffffffffffffffffffffffffffffffffffffff1681526020019081526020016000206001015490506002800160009054906101000a900473ffffffffffffffffffffffffffffffffffffffff1673ffffffffffffffffffffffffffffffffffffffff168473ffffffffffffffffffffffffffffffffffffffff1614156135f457600a8361353d9190615345565b90506002800160009054906101000a900473ffffffffffffffffffffffffffffffffffffffff1673ffffffffffffffffffffffffffffffffffffffff166342966c68846040518263ffffffff1660e01b815260040161359c9190614e82565b602060405180830381600087803b1580156135b657600080fd5b505af11580156135ca573d6000803e3d6000fd5b505050506040513d601f19601f820116820180604052508101906135ee919061427d565b506137c4565b60006002800160009054906101000a900473ffffffffffffffffffffffffffffffffffffffff1673ffffffffffffffffffffffffffffffffffffffff166370a08231866040518263ffffffff1660e01b815260040161365391906149d2565b60206040518083038186803b15801561366b57600080fd5b505afa15801561367f573d6000803e3d6000fd5b505050506040513d601f19601f820116820180604052508101906136a391906142a6565b9050600081116136e8576040517f08c379a00000000000000000000000000000000000000000000000000000000081526004016136df90614d62565b60405180910390fd5b60008573ffffffffffffffffffffffffffffffffffffffff166318160ddd6040518163ffffffff1660e01b815260040160206040518083038186803b15801561373057600080fd5b505afa158015613744573d6000803e3d6000fd5b505050506040513d601f19601f8201168201806040525081019061376891906142a6565b9050600081670de0b6b3a7640000846137819190615345565b61378b919061508c565b90506000670de0b6b3a764000087836137a49190615345565b6137ae919061508c565b90506014816137bd9190615345565b9450505050505b80600e60006137d1613974565b73ffffffffffffffffffffffffffffffffffffffff1673ffffffffffffffffffffffffffffffffffffffff168152602001908152602001600020600101600082825461381d9190615036565b925050819055507f53586334466ae8ecce002fdc0bc6fb81a5d0eb4f82a7ab70b4fc8d459964b04661384d613974565b858360405161385e93929190614b10565b60405180910390a150505050565b60148060000154908060010160009054906101000a900460ff16908060010160019054906101000a900473ffffffffffffffffffffffffffffffffffffffff16908060020154908060030160009054906101000a900473ffffffffffffffffffffffffffffffffffffffff16905085565b6000600e60008373ffffffffffffffffffffffffffffffffffffffff1673ffffffffffffffffffffffffffffffffffffffff1681526020019081526020016000209050620151808160020154426139349190615433565b82600001546139439190615345565b61394d919061508c565b8160010160008282546139609190615036565b925050819055504281600201819055505050565b600033905090565b60106014600082015481600001556001820160009054906101000a900460ff168160010160006101000a81548160ff021916908360028111156139e8577f4e487b7100000000000000000000000000000000000000000000000000000000600052602160045260246000fd5b02179055506001820160019054906101000a900473ffffffffffffffffffffffffffffffffffffffff168160010160016101000a81548173ffffffffffffffffffffffffffffffffffffffff021916908373ffffffffffffffffffffffffffffffffffffffff160217905550600282015481600201556003820160009054906101000a900473ffffffffffffffffffffffffffffffffffffffff168160030160006101000a81548173ffffffffffffffffffffffffffffffffffffffff021916908373ffffffffffffffffffffffffffffffffffffffff1602179055509050506000601060030160006101000a81548173ffffffffffffffffffffffffffffffffffffffff021916908373ffffffffffffffffffffffffffffffffffffffff16021790555060006010600001819055506000601060010160006101000a81548160ff02191690836002811115613b67577f4e487b7100000000000000000000000000000000000000000000000000000000600052602160045260246000fd5b02179055506000601060010160016101000a81548173ffffffffffffffffffffffffffffffffffffffff021916908373ffffffffffffffffffffffffffffffffffffffff1602179055506000601060020181905550565b60008060009054906101000a900473ffffffffffffffffffffffffffffffffffffffff169050816000806101000a81548173ffffffffffffffffffffffffffffffffffffffff021916908373ffffffffffffffffffffffffffffffffffffffff1602179055508173ffffffffffffffffffffffffffffffffffffffff168173ffffffffffffffffffffffffffffffffffffffff167f8be0079c531659141344cd1fd0a4f28419497f9722a3daafe3b4186f6b6457e060405160405180910390a35050565b85600260000160006101000a81548173ffffffffffffffffffffffffffffffffffffffff021916908373ffffffffffffffffffffffffffffffffffffffff16021790555084600260010160006101000a81548173ffffffffffffffffffffffffffffffffffffffff021916908373ffffffffffffffffffffffffffffffffffffffff160217905550836002800160006101000a81548173ffffffffffffffffffffffffffffffffffffffff021916908373ffffffffffffffffffffffffffffffffffffffff16021790555081600260060160006101000a81548173ffffffffffffffffffffffffffffffffffffffff021916908373ffffffffffffffffffffffffffffffffffffffff16021790555082600260050160006101000a81548173ffffffffffffffffffffffffffffffffffffffff021916908373ffffffffffffffffffffffffffffffffffffffff16021790555080600260040160006101000a81548173ffffffffffffffffffffffffffffffffffffffff021916908373ffffffffffffffffffffffffffffffffffffffff1602179055506001600d60008673ffffffffffffffffffffffffffffffffffffffff1673ffffffffffffffffffffffffffffffffffffffff16815260200190815260200160002060006101000a81548160ff0219169083151502179055506001600c60008673ffffffffffffffffffffffffffffffffffffffff1673ffffffffffffffffffffffffffffffffffffffff16815260200190815260200160002060006101000a81548160ff02191690836002811115613efa577f4e487b7100000000000000000000000000000000000000000000000000000000600052602160045260246000fd5b0217905550505050505050565b6000613f1a613f1584614f65565b614f34565b90508083825260208201905082856020860282011115613f3957600080fd5b60005b85811015613f695781613f4f8882613f73565b845260208401935060208301925050600181019050613f3c565b5050509392505050565b600081359050613f82816156aa565b92915050565b600081519050613f97816156aa565b92915050565b600082601f830112613fae57600080fd5b8135613fbe848260208601613f07565b91505092915050565b600081359050613fd6816156c1565b92915050565b600081519050613feb816156c1565b92915050565b600081359050614000816156d8565b92915050565b600081359050614015816156ef565b92915050565b60008151905061402a816156ef565b92915050565b60006020828403121561404257600080fd5b600061405084828501613f73565b91505092915050565b60006020828403121561406b57600080fd5b600061407984828501613f88565b91505092915050565b6000806040838503121561409557600080fd5b60006140a385828601613f73565b92505060206140b485828601613f73565b9150509250929050565b6000806000806000806000806000806101408b8d0312156140de57600080fd5b60006140ec8d828e01613f73565b9a505060206140fd8d828e01613f73565b995050604061410e8d828e01613f73565b985050606061411f8d828e01613f73565b97505060806141308d828e01613f73565b96505060a06141418d828e01613f73565b95505060c06141528d828e01613f73565b94505060e06141638d828e01614006565b9350506101008b013567ffffffffffffffff81111561418157600080fd5b61418d8d828e01613f9d565b9250506101208b013567ffffffffffffffff8111156141ab57600080fd5b6141b78d828e01613f9d565b9150509295989b9194979a5092959850565b600080604083850312156141dc57600080fd5b60006141ea85828601613f73565b92505060206141fb85828601613fc7565b9150509250929050565b6000806040838503121561421857600080fd5b600061422685828601613f73565b925050602061423785828601613ff1565b9150509250929050565b6000806040838503121561425457600080fd5b600061426285828601613f73565b925050602061427385828601614006565b9150509250929050565b60006020828403121561428f57600080fd5b600061429d84828501613fdc565b91505092915050565b6000602082840312156142b857600080fd5b60006142c68482850161401b565b91505092915050565b6000806000606084860312156142e457600080fd5b60006142f286828701614006565b935050602061430386828701614006565b925050604061431486828701613f73565b9150509250925092565b6000806000806080858703121561433457600080fd5b600061434287828801614006565b945050602061435387828801614006565b935050604061436487828801614006565b925050606061437587828801613f73565b91505092959194509250565b61438a81615467565b82525050565b61439981615467565b82525050565b6143a881615479565b82525050565b6143b7816154df565b82525050565b6143c681615503565b82525050565b6143d581615515565b82525050565b6143e4816154ab565b82525050565b6143f3816154ab565b82525050565b6000614406602083614f91565b91507f4c696d626f44414f3a207374616b696e672065796520696e76617269616e742e6000830152602082019050919050565b6000614446602f83614f91565b91507f4c696d626f44414f3a207472616e73666572206f776e657273686970206f662060008301527f6c696d626f20616e6420666c616e2e00000000000000000000000000000000006020830152604082019050919050565b60006144ac602383614f91565b91507f4c696d626f44414f3a20766f74696e67206f6e2070726f706f73616c20636c6f60008301527f73656400000000000000000000000000000000000000000000000000000000006020830152604082019050919050565b6000614512601a83614f91565b91507f4c696d626f44414f3a20696e76616c6964205375736869204c500000000000006000830152602082019050919050565b6000614552602683614f91565b91507f4f776e61626c653a206e6577206f776e657220697320746865207a65726f206160008301527f64647265737300000000000000000000000000000000000000000000000000006020830152604082019050919050565b60006145b8603183614f91565b91507f4c696d626f44414f3a2061737365742067726f7774682073747261746567792060008301527f6e6f74206163636f756e74656420666f720000000000000000000000000000006020830152604082019050919050565b600061461e601a83614f91565b91507f4c696d626f44414f3a20617070726f76652070726f706f73616c0000000000006000830152602082019050919050565b600061465e601883614f91565b91507f4c696d626f44414f3a207472616e736665724661696c656400000000000000006000830152602082019050919050565b600061469e601a83614f91565b91507f4c696d626f44414f3a206163746976652070726f706f73616c2e0000000000006000830152602082019050919050565b60006146de601783614f91565b91507f4c696d626f44414f3a20696c6c6567616c2061737365740000000000000000006000830152602082019050919050565b600061471e601083614f91565b91507f4c696d626f44414f3a204e6f20455945000000000000000000000000000000006000830152602082019050919050565b600061475e602083614f91565b91507f4f776e61626c653a2063616c6c6572206973206e6f7420746865206f776e65726000830152602082019050919050565b600061479e603983614f91565b91507f4c696d626f44414f3a207374617465642070726f706f73616c20646f6573206e60008301527f6f74206d617463682063757272656e742070726f706f73616c000000000000006020830152604082019050919050565b6000614804601f83614f91565b91507f4c696d626f44414f3a206f6e6c792050726f706f73616c20466163746f7279006000830152602082019050919050565b6000614844603083614f91565b91507f4c696d626f44414f3a20766f74696e6720666f722063757272656e742070726f60008301527f706f73616c2068617320656e6465642e000000000000000000000000000000006020830152604082019050919050565b60006148aa601c83614f91565b91507f4c696d626f44414f3a2070726f706f73616c2066696e69736865642e000000006000830152602082019050919050565b60006148ea601a83614f91565b91507f4c696d626f44414f3a2044414f206973206e6f74206c6976652e0000000000006000830152602082019050919050565b600061492a601e83614f91565b91507f4c696d626f44414f3a205374616b652045594520696e76617269616e742e00006000830152602082019050919050565b600061496a602283614f91565b91507f4c696d626f44414f3a207374616b6520696e76617269616e7420636865636b2060008301527f322e0000000000000000000000000000000000000000000000000000000000006020830152604082019050919050565b6149cc816154d5565b82525050565b60006020820190506149e76000830184614381565b92915050565b6000604082019050614a026000830185614381565b614a0f6020830184614381565b9392505050565b600061010082019050614a2c600083018b614381565b614a39602083018a614381565b614a466040830189614381565b614a536060830188614381565b614a60608083018761439f565b614a6d60a0830186614381565b614a7a60c0830185614381565b614a8760e0830184614381565b9998505050505050505050565b6000608082019050614aa96000830187614390565b614ab66020830186614390565b614ac36040830185614390565b614ad060608301846143ea565b95945050505050565b6000606082019050614aee6000830186614381565b614afb6020830185614381565b614b0860408301846143db565b949350505050565b6000606082019050614b256000830186614381565b614b326020830185614381565b614b3f60408301846149c3565b949350505050565b6000604082019050614b5c6000830185614381565b614b69602083018461439f565b9392505050565b6000604082019050614b856000830185614381565b614b9260208301846149c3565b9392505050565b6000602082019050614bae600083018461439f565b92915050565b6000602082019050614bc960008301846143bd565b92915050565b600060a082019050614be460008301886143db565b614bf160208301876143cc565b614bfe6040830186614381565b614c0b60608301856149c3565b614c1860808301846143ae565b9695505050505050565b60006020820190508181036000830152614c3b816143f9565b9050919050565b60006020820190508181036000830152614c5b81614439565b9050919050565b60006020820190508181036000830152614c7b8161449f565b9050919050565b60006020820190508181036000830152614c9b81614505565b9050919050565b60006020820190508181036000830152614cbb81614545565b9050919050565b60006020820190508181036000830152614cdb816145ab565b9050919050565b60006020820190508181036000830152614cfb81614611565b9050919050565b60006020820190508181036000830152614d1b81614651565b9050919050565b60006020820190508181036000830152614d3b81614691565b9050919050565b60006020820190508181036000830152614d5b816146d1565b9050919050565b60006020820190508181036000830152614d7b81614711565b9050919050565b60006020820190508181036000830152614d9b81614751565b9050919050565b60006020820190508181036000830152614dbb81614791565b9050919050565b60006020820190508181036000830152614ddb816147f7565b9050919050565b60006020820190508181036000830152614dfb81614837565b9050919050565b60006020820190508181036000830152614e1b8161489d565b9050919050565b60006020820190508181036000830152614e3b816148dd565b9050919050565b60006020820190508181036000830152614e5b8161491d565b9050919050565b60006020820190508181036000830152614e7b8161495d565b9050919050565b6000602082019050614e9760008301846149c3565b92915050565b6000604082019050614eb260008301856149c3565b614ebf60208301846149c3565b9392505050565b6000606082019050614edb60008301866149c3565b614ee860208301856149c3565b614ef56040830184614381565b949350505050565b6000606082019050614f1260008301866149c3565b614f1f60208301856149c3565b614f2c60408301846149c3565b949350505050565b6000604051905081810181811067ffffffffffffffff82111715614f5b57614f5a615646565b5b8060405250919050565b600067ffffffffffffffff821115614f8057614f7f615646565b5b602082029050602081019050919050565b600082825260208201905092915050565b6000614fad826154ab565b9150614fb8836154ab565b9250817f7fffffffffffffffffffffffffffffffffffffffffffffffffffffffffffffff03831360008312151615614ff357614ff26155b9565b5b817f800000000000000000000000000000000000000000000000000000000000000003831260008312161561502b5761502a6155b9565b5b828201905092915050565b6000615041826154d5565b915061504c836154d5565b9250827fffffffffffffffffffffffffffffffffffffffffffffffffffffffffffffffff03821115615081576150806155b9565b5b828201905092915050565b6000615097826154d5565b91506150a2836154d5565b9250826150b2576150b16155e8565b5b828204905092915050565b6000808291508390505b6001851115615107578086048111156150e3576150e26155b9565b5b60018516156150f25780820291505b808102905061510085615675565b94506150c7565b94509492505050565b600061511b826154d5565b9150615126836154d5565b92506151537fffffffffffffffffffffffffffffffffffffffffffffffffffffffffffffffff848461515b565b905092915050565b60008261516b5760019050615227565b816151795760009050615227565b816001811461518f5760028114615199576151c8565b6001915050615227565b60ff8411156151ab576151aa6155b9565b5b8360020a9150848211156151c2576151c16155b9565b5b50615227565b5060208310610133831016604e8410600b84101617156151fd5782820a9050838111156151f8576151f76155b9565b5b615227565b61520a84848460016150bd565b92509050818404811115615221576152206155b9565b5b81810290505b9392505050565b6000615239826154ab565b9150615244836154ab565b9250827f7fffffffffffffffffffffffffffffffffffffffffffffffffffffffffffffff0482116000841360008413161615615283576152826155b9565b5b817f800000000000000000000000000000000000000000000000000000000000000005831260008412600084131616156152c0576152bf6155b9565b5b827f800000000000000000000000000000000000000000000000000000000000000005821260008413600084121616156152fd576152fc6155b9565b5b827f7fffffffffffffffffffffffffffffffffffffffffffffffffffffffffffffff058212600084126000841216161561533a576153396155b9565b5b828202905092915050565b6000615350826154d5565b915061535b836154d5565b9250817fffffffffffffffffffffffffffffffffffffffffffffffffffffffffffffffff0483118215151615615394576153936155b9565b5b828202905092915050565b60006153aa826154ab565b91506153b5836154ab565b9250827f8000000000000000000000000000000000000000000000000000000000000000018212600084121516156153f0576153ef6155b9565b5b827f7fffffffffffffffffffffffffffffffffffffffffffffffffffffffffffffff018213600084121615615428576154276155b9565b5b828203905092915050565b600061543e826154d5565b9150615449836154d5565b92508282101561545c5761545b6155b9565b5b828203905092915050565b6000615472826154b5565b9050919050565b60008115159050919050565b600081905061549382615682565b919050565b60008190506154a682615696565b919050565b6000819050919050565b600073ffffffffffffffffffffffffffffffffffffffff82169050919050565b6000819050919050565b60006154ea826154f1565b9050919050565b60006154fc826154b5565b9050919050565b600061550e82615485565b9050919050565b600061552082615498565b9050919050565b6000615532826154d5565b91507fffffffffffffffffffffffffffffffffffffffffffffffffffffffffffffffff821415615565576155646155b9565b5b600182019050919050565b600061557b826154ab565b91507f80000000000000000000000000000000000000000000000000000000000000008214156155ae576155ad6155b9565b5b816000039050919050565b7f4e487b7100000000000000000000000000000000000000000000000000000000600052601160045260246000fd5b7f4e487b7100000000000000000000000000000000000000000000000000000000600052601260045260246000fd5b7f4e487b7100000000000000000000000000000000000000000000000000000000600052602160045260246000fd5b7f4e487b7100000000000000000000000000000000000000000000000000000000600052604160045260246000fd5b60008160011c9050919050565b6003811061569357615692615617565b5b50565b600381106156a7576156a6615617565b5b50565b6156b381615467565b81146156be57600080fd5b50565b6156ca81615479565b81146156d557600080fd5b50565b6156e1816154ab565b81146156ec57600080fd5b50565b6156f8816154d5565b811461570357600080fd5b5056fea26469706673582212203f1d709f8a0fcab78969ebaa0c629a87c37d11729e61fb8827bf92b4744c754464736f6c63430008000033",
  "libraries": {
    "TransferHelper": "0x06c32f6952A13FA9F4dF225E953bB1637b6893Ec"
  },
  "devdoc": {
    "kind": "dev",
    "methods": {
      "owner()": {
        "details": "Returns the address of the current owner."
      },
      "renounceOwnership()": {
        "details": "Leaves the contract without owner. It will not be possible to call `onlyOwner` functions anymore. Can only be called by the current owner. NOTE: Renouncing ownership will leave the contract without an owner, thereby removing any functionality that is only available to the owner."
      },
      "transferOwnership(address)": {
        "details": "Transfers ownership of the contract to a new account (`newOwner`). Can only be called by the current owner."
      }
    },
    "version": 1
  },
  "userdoc": {
    "kind": "user",
    "methods": {},
    "version": 1
  },
  "storageLayout": {
    "storage": [
      {
        "astId": 7,
        "contract": "contracts/DAO/LimboDAO.sol:LimboDAO",
        "label": "_owner",
        "offset": 0,
        "slot": "0",
        "type": "t_address"
      },
      {
        "astId": 1511,
        "contract": "contracts/DAO/LimboDAO.sol:LimboDAO",
        "label": "precision",
        "offset": 0,
        "slot": "1",
        "type": "t_uint256"
      },
      {
        "astId": 1563,
        "contract": "contracts/DAO/LimboDAO.sol:LimboDAO",
        "label": "domainConfig",
        "offset": 0,
        "slot": "2",
        "type": "t_struct(DomainConfig)1528_storage"
      },
      {
        "astId": 1566,
        "contract": "contracts/DAO/LimboDAO.sol:LimboDAO",
        "label": "proposalConfig",
        "offset": 0,
        "slot": "9",
        "type": "t_struct(ProposalConfig)1535_storage"
      },
      {
        "astId": 1571,
        "contract": "contracts/DAO/LimboDAO.sol:LimboDAO",
        "label": "fateGrowthStrategy",
        "offset": 0,
        "slot": "12",
        "type": "t_mapping(t_address,t_enum(FateGrowthStrategy)1458)"
      },
      {
        "astId": 1575,
        "contract": "contracts/DAO/LimboDAO.sol:LimboDAO",
        "label": "assetApproved",
        "offset": 0,
        "slot": "13",
        "type": "t_mapping(t_address,t_bool)"
      },
      {
        "astId": 1580,
        "contract": "contracts/DAO/LimboDAO.sol:LimboDAO",
        "label": "fateState",
        "offset": 0,
        "slot": "14",
        "type": "t_mapping(t_address,t_struct(FateState)1555_storage)"
      },
      {
        "astId": 1587,
        "contract": "contracts/DAO/LimboDAO.sol:LimboDAO",
        "label": "stakedUserAssetWeight",
        "offset": 0,
        "slot": "15",
        "type": "t_mapping(t_address,t_mapping(t_address,t_struct(AssetClout)1560_storage))"
      },
      {
        "astId": 1590,
        "contract": "contracts/DAO/LimboDAO.sol:LimboDAO",
        "label": "currentProposalState",
        "offset": 0,
        "slot": "16",
        "type": "t_struct(ProposalState)1548_storage"
      },
      {
        "astId": 1593,
        "contract": "contracts/DAO/LimboDAO.sol:LimboDAO",
        "label": "previousProposalState",
        "offset": 0,
        "slot": "20",
        "type": "t_struct(ProposalState)1548_storage"
      }
    ],
    "types": {
      "t_address": {
        "encoding": "inplace",
        "label": "address",
        "numberOfBytes": "20"
      },
      "t_bool": {
        "encoding": "inplace",
        "label": "bool",
        "numberOfBytes": "1"
      },
      "t_contract(Proposal)2977": {
        "encoding": "inplace",
        "label": "contract Proposal",
        "numberOfBytes": "20"
      },
      "t_enum(FateGrowthStrategy)1458": {
        "encoding": "inplace",
        "label": "enum FateGrowthStrategy",
        "numberOfBytes": "1"
      },
      "t_enum(ProposalDecision)1462": {
        "encoding": "inplace",
        "label": "enum ProposalDecision",
        "numberOfBytes": "1"
      },
      "t_int256": {
        "encoding": "inplace",
        "label": "int256",
        "numberOfBytes": "32"
      },
      "t_mapping(t_address,t_bool)": {
        "encoding": "mapping",
        "key": "t_address",
        "label": "mapping(address => bool)",
        "numberOfBytes": "32",
        "value": "t_bool"
      },
      "t_mapping(t_address,t_enum(FateGrowthStrategy)1458)": {
        "encoding": "mapping",
        "key": "t_address",
        "label": "mapping(address => enum FateGrowthStrategy)",
        "numberOfBytes": "32",
        "value": "t_enum(FateGrowthStrategy)1458"
      },
      "t_mapping(t_address,t_mapping(t_address,t_struct(AssetClout)1560_storage))": {
        "encoding": "mapping",
        "key": "t_address",
        "label": "mapping(address => mapping(address => struct LimboDAO.AssetClout))",
        "numberOfBytes": "32",
        "value": "t_mapping(t_address,t_struct(AssetClout)1560_storage)"
      },
      "t_mapping(t_address,t_struct(AssetClout)1560_storage)": {
        "encoding": "mapping",
        "key": "t_address",
        "label": "mapping(address => struct LimboDAO.AssetClout)",
        "numberOfBytes": "32",
        "value": "t_struct(AssetClout)1560_storage"
      },
      "t_mapping(t_address,t_struct(FateState)1555_storage)": {
        "encoding": "mapping",
        "key": "t_address",
        "label": "mapping(address => struct LimboDAO.FateState)",
        "numberOfBytes": "32",
        "value": "t_struct(FateState)1555_storage"
      },
      "t_struct(AssetClout)1560_storage": {
        "encoding": "inplace",
        "label": "struct LimboDAO.AssetClout",
        "members": [
          {
            "astId": 1557,
            "contract": "contracts/DAO/LimboDAO.sol:LimboDAO",
            "label": "fateWeight",
            "offset": 0,
            "slot": "0",
            "type": "t_uint256"
          },
          {
            "astId": 1559,
            "contract": "contracts/DAO/LimboDAO.sol:LimboDAO",
            "label": "balance",
            "offset": 0,
            "slot": "1",
            "type": "t_uint256"
          }
        ],
        "numberOfBytes": "64"
      },
      "t_struct(DomainConfig)1528_storage": {
        "encoding": "inplace",
        "label": "struct LimboDAO.DomainConfig",
        "members": [
          {
            "astId": 1513,
            "contract": "contracts/DAO/LimboDAO.sol:LimboDAO",
            "label": "limbo",
            "offset": 0,
            "slot": "0",
            "type": "t_address"
          },
          {
            "astId": 1515,
            "contract": "contracts/DAO/LimboDAO.sol:LimboDAO",
            "label": "flan",
            "offset": 0,
            "slot": "1",
            "type": "t_address"
          },
          {
            "astId": 1517,
            "contract": "contracts/DAO/LimboDAO.sol:LimboDAO",
            "label": "eye",
            "offset": 0,
            "slot": "2",
            "type": "t_address"
          },
          {
            "astId": 1519,
            "contract": "contracts/DAO/LimboDAO.sol:LimboDAO",
            "label": "fate",
            "offset": 0,
            "slot": "3",
            "type": "t_address"
          },
          {
            "astId": 1521,
            "contract": "contracts/DAO/LimboDAO.sol:LimboDAO",
            "label": "live",
            "offset": 20,
            "slot": "3",
            "type": "t_bool"
          },
          {
            "astId": 1523,
            "contract": "contracts/DAO/LimboDAO.sol:LimboDAO",
            "label": "flashGoverner",
            "offset": 0,
            "slot": "4",
            "type": "t_address"
          },
          {
            "astId": 1525,
            "contract": "contracts/DAO/LimboDAO.sol:LimboDAO",
            "label": "sushiFactory",
            "offset": 0,
            "slot": "5",
            "type": "t_address"
          },
          {
            "astId": 1527,
            "contract": "contracts/DAO/LimboDAO.sol:LimboDAO",
            "label": "uniFactory",
            "offset": 0,
            "slot": "6",
            "type": "t_address"
          }
        ],
        "numberOfBytes": "224"
      },
      "t_struct(FateState)1555_storage": {
        "encoding": "inplace",
        "label": "struct LimboDAO.FateState",
        "members": [
          {
            "astId": 1550,
            "contract": "contracts/DAO/LimboDAO.sol:LimboDAO",
            "label": "fatePerDay",
            "offset": 0,
            "slot": "0",
            "type": "t_uint256"
          },
          {
            "astId": 1552,
            "contract": "contracts/DAO/LimboDAO.sol:LimboDAO",
            "label": "fateBalance",
            "offset": 0,
            "slot": "1",
            "type": "t_uint256"
          },
          {
            "astId": 1554,
            "contract": "contracts/DAO/LimboDAO.sol:LimboDAO",
            "label": "lastDamnAdjustment",
            "offset": 0,
            "slot": "2",
            "type": "t_uint256"
          }
        ],
        "numberOfBytes": "96"
      },
      "t_struct(ProposalConfig)1535_storage": {
        "encoding": "inplace",
        "label": "struct LimboDAO.ProposalConfig",
        "members": [
          {
            "astId": 1530,
            "contract": "contracts/DAO/LimboDAO.sol:LimboDAO",
            "label": "votingDuration",
            "offset": 0,
            "slot": "0",
            "type": "t_uint256"
          },
          {
            "astId": 1532,
            "contract": "contracts/DAO/LimboDAO.sol:LimboDAO",
            "label": "requiredFateStake",
            "offset": 0,
            "slot": "1",
            "type": "t_uint256"
          },
          {
            "astId": 1534,
            "contract": "contracts/DAO/LimboDAO.sol:LimboDAO",
            "label": "proposalFactory",
            "offset": 0,
            "slot": "2",
            "type": "t_address"
          }
        ],
        "numberOfBytes": "96"
      },
      "t_struct(ProposalState)1548_storage": {
        "encoding": "inplace",
        "label": "struct LimboDAO.ProposalState",
        "members": [
          {
            "astId": 1537,
            "contract": "contracts/DAO/LimboDAO.sol:LimboDAO",
            "label": "fate",
            "offset": 0,
            "slot": "0",
            "type": "t_int256"
          },
          {
            "astId": 1540,
            "contract": "contracts/DAO/LimboDAO.sol:LimboDAO",
            "label": "decision",
            "offset": 0,
            "slot": "1",
            "type": "t_enum(ProposalDecision)1462"
          },
          {
            "astId": 1542,
            "contract": "contracts/DAO/LimboDAO.sol:LimboDAO",
            "label": "proposer",
            "offset": 1,
            "slot": "1",
            "type": "t_address"
          },
          {
            "astId": 1544,
            "contract": "contracts/DAO/LimboDAO.sol:LimboDAO",
            "label": "start",
            "offset": 0,
            "slot": "2",
            "type": "t_uint256"
          },
          {
            "astId": 1547,
            "contract": "contracts/DAO/LimboDAO.sol:LimboDAO",
            "label": "proposal",
            "offset": 0,
            "slot": "3",
            "type": "t_contract(Proposal)2977"
          }
        ],
        "numberOfBytes": "128"
      },
      "t_uint256": {
        "encoding": "inplace",
        "label": "uint256",
        "numberOfBytes": "32"
      }
    }
  }
}