{
  "address": "0x06f5D06d84b9aD11ef83C7C4491020Be4B274A4b",
  "abi": [
    {
      "inputs": [
        {
          "internalType": "string",
          "name": "name",
          "type": "string"
        },
        {
          "internalType": "string",
          "name": "symbol",
          "type": "string"
        }
      ],
      "stateMutability": "nonpayable",
      "type": "constructor"
    },
    {
      "anonymous": false,
      "inputs": [
        {
          "indexed": true,
          "internalType": "address",
          "name": "owner",
          "type": "address"
        },
        {
          "indexed": true,
          "internalType": "address",
          "name": "spender",
          "type": "address"
        },
        {
          "indexed": false,
          "internalType": "uint256",
          "name": "value",
          "type": "uint256"
        }
      ],
      "name": "Approval",
      "type": "event"
    },
    {
      "anonymous": false,
      "inputs": [
        {
          "indexed": true,
          "internalType": "address",
          "name": "from",
          "type": "address"
        },
        {
          "indexed": true,
          "internalType": "address",
          "name": "to",
          "type": "address"
        },
        {
          "indexed": false,
          "internalType": "uint256",
          "name": "value",
          "type": "uint256"
        }
      ],
      "name": "Transfer",
      "type": "event"
    },
    {
      "inputs": [
        {
          "internalType": "address",
          "name": "owner",
          "type": "address"
        },
        {
          "internalType": "address",
          "name": "spender",
          "type": "address"
        }
      ],
      "name": "allowance",
      "outputs": [
        {
          "internalType": "uint256",
          "name": "",
          "type": "uint256"
        }
      ],
      "stateMutability": "view",
      "type": "function"
    },
    {
      "inputs": [
        {
          "internalType": "address",
          "name": "spender",
          "type": "address"
        },
        {
          "internalType": "uint256",
          "name": "amount",
          "type": "uint256"
        }
      ],
      "name": "approve",
      "outputs": [
        {
          "internalType": "bool",
          "name": "",
          "type": "bool"
        }
      ],
      "stateMutability": "nonpayable",
      "type": "function"
    },
    {
      "inputs": [
        {
          "internalType": "address",
          "name": "account",
          "type": "address"
        }
      ],
      "name": "balanceOf",
      "outputs": [
        {
          "internalType": "uint256",
          "name": "",
          "type": "uint256"
        }
      ],
      "stateMutability": "view",
      "type": "function"
    },
    {
      "inputs": [
        {
          "internalType": "uint256",
          "name": "amount",
          "type": "uint256"
        }
      ],
      "name": "burn",
      "outputs": [
        {
          "internalType": "bool",
          "name": "",
          "type": "bool"
        }
      ],
      "stateMutability": "nonpayable",
      "type": "function"
    },
    {
      "inputs": [
        {
          "internalType": "address",
          "name": "account",
          "type": "address"
        },
        {
          "internalType": "uint256",
          "name": "amount",
          "type": "uint256"
        }
      ],
      "name": "burnFrom",
      "outputs": [],
      "stateMutability": "nonpayable",
      "type": "function"
    },
    {
      "inputs": [],
      "name": "decimals",
      "outputs": [
        {
          "internalType": "uint8",
          "name": "",
          "type": "uint8"
        }
      ],
      "stateMutability": "view",
      "type": "function"
    },
    {
      "inputs": [
        {
          "internalType": "address",
          "name": "spender",
          "type": "address"
        },
        {
          "internalType": "uint256",
          "name": "subtractedValue",
          "type": "uint256"
        }
      ],
      "name": "decreaseAllowance",
      "outputs": [
        {
          "internalType": "bool",
          "name": "",
          "type": "bool"
        }
      ],
      "stateMutability": "nonpayable",
      "type": "function"
    },
    {
      "inputs": [],
      "name": "factory",
      "outputs": [
        {
          "internalType": "address",
          "name": "",
          "type": "address"
        }
      ],
      "stateMutability": "view",
      "type": "function"
    },
    {
      "inputs": [],
      "name": "getReserves",
      "outputs": [
        {
          "internalType": "uint112",
          "name": "_reserve0",
          "type": "uint112"
        },
        {
          "internalType": "uint112",
          "name": "_reserve1",
          "type": "uint112"
        },
        {
          "internalType": "uint32",
          "name": "_blockTimestampLast",
          "type": "uint32"
        }
      ],
      "stateMutability": "view",
      "type": "function"
    },
    {
      "inputs": [
        {
          "internalType": "address",
          "name": "spender",
          "type": "address"
        },
        {
          "internalType": "uint256",
          "name": "addedValue",
          "type": "uint256"
        }
      ],
      "name": "increaseAllowance",
      "outputs": [
        {
          "internalType": "bool",
          "name": "",
          "type": "bool"
        }
      ],
      "stateMutability": "nonpayable",
      "type": "function"
    },
    {
      "inputs": [
        {
          "internalType": "address",
          "name": "to",
          "type": "address"
        }
      ],
      "name": "mint",
      "outputs": [
        {
          "internalType": "uint256",
          "name": "liquidity",
          "type": "uint256"
        }
      ],
      "stateMutability": "nonpayable",
      "type": "function"
    },
    {
      "inputs": [],
      "name": "name",
      "outputs": [
        {
          "internalType": "string",
          "name": "",
          "type": "string"
        }
      ],
      "stateMutability": "view",
      "type": "function"
    },
    {
      "inputs": [
        {
          "internalType": "uint112",
          "name": "r0",
          "type": "uint112"
        },
        {
          "internalType": "uint112",
          "name": "r1",
          "type": "uint112"
        }
      ],
      "name": "setReserves",
      "outputs": [],
      "stateMutability": "nonpayable",
      "type": "function"
    },
    {
      "inputs": [
        {
          "internalType": "uint256",
          "name": "amount0Out",
          "type": "uint256"
        },
        {
          "internalType": "uint256",
          "name": "amount1Out",
          "type": "uint256"
        },
        {
          "internalType": "address",
          "name": "to",
          "type": "address"
        },
        {
          "internalType": "bytes",
          "name": "data",
          "type": "bytes"
        }
      ],
      "name": "swap",
      "outputs": [],
      "stateMutability": "nonpayable",
      "type": "function"
    },
    {
      "inputs": [],
      "name": "symbol",
      "outputs": [
        {
          "internalType": "string",
          "name": "",
          "type": "string"
        }
      ],
      "stateMutability": "view",
      "type": "function"
    },
    {
      "inputs": [],
      "name": "totalSupply",
      "outputs": [
        {
          "internalType": "uint256",
          "name": "",
          "type": "uint256"
        }
      ],
      "stateMutability": "view",
      "type": "function"
    },
    {
      "inputs": [
        {
          "internalType": "address",
          "name": "recipient",
          "type": "address"
        },
        {
          "internalType": "uint256",
          "name": "amount",
          "type": "uint256"
        }
      ],
      "name": "transfer",
      "outputs": [
        {
          "internalType": "bool",
          "name": "",
          "type": "bool"
        }
      ],
      "stateMutability": "nonpayable",
      "type": "function"
    },
    {
      "inputs": [
        {
          "internalType": "address",
          "name": "sender",
          "type": "address"
        },
        {
          "internalType": "address",
          "name": "recipient",
          "type": "address"
        },
        {
          "internalType": "uint256",
          "name": "amount",
          "type": "uint256"
        }
      ],
      "name": "transferFrom",
      "outputs": [
        {
          "internalType": "bool",
          "name": "",
          "type": "bool"
        }
      ],
      "stateMutability": "nonpayable",
      "type": "function"
    }
  ],
  "transactionHash": "0xa49e6faa2e47e0b64ccc625a27328b343f02600d8ce7a83ff6a09c1e0a902456",
  "args": [
    "scx",
    "flan"
  ],
  "solcInputHash": "3b633f60859fc01482cc6a8d04cca0a0",
  "bytecode": "0x60806040523480156200001157600080fd5b506040516200225638038062002256833981810160405281019062000037919062000197565b818181600390805190602001906200005192919062000075565b5080600490805190602001906200006a92919062000075565b50505050506200033b565b8280546200008390620002a7565b90600052602060002090601f016020900481019282620000a75760008555620000f3565b82601f10620000c257805160ff1916838001178555620000f3565b82800160010185558215620000f3579182015b82811115620000f2578251825591602001919060010190620000d5565b5b50905062000102919062000106565b5090565b5b808211156200012157600081600090555060010162000107565b5090565b60006200013c62000136846200023e565b6200020a565b9050828152602081018484840111156200015557600080fd5b6200016284828562000271565b509392505050565b600082601f8301126200017c57600080fd5b81516200018e84826020860162000125565b91505092915050565b60008060408385031215620001ab57600080fd5b600083015167ffffffffffffffff811115620001c657600080fd5b620001d4858286016200016a565b925050602083015167ffffffffffffffff811115620001f257600080fd5b62000200858286016200016a565b9150509250929050565b6000604051905081810181811067ffffffffffffffff821117156200023457620002336200030c565b5b8060405250919050565b600067ffffffffffffffff8211156200025c576200025b6200030c565b5b601f19601f8301169050602081019050919050565b60005b838110156200029157808201518184015260208101905062000274565b83811115620002a1576000848401525b50505050565b60006002820490506001821680620002c057607f821691505b60208210811415620002d757620002d6620002dd565b5b50919050565b7f4e487b7100000000000000000000000000000000000000000000000000000000600052602260045260246000fd5b7f4e487b7100000000000000000000000000000000000000000000000000000000600052604160045260246000fd5b611f0b806200034b6000396000f3fe608060405234801561001057600080fd5b50600436106101165760003560e01c80636a627842116100a257806395d89b411161007157806395d89b4114610309578063a457c2d714610327578063a9059cbb14610357578063c45a015514610387578063dd62ed3e146103a557610116565b80636a6278421461027157806370a08231146102a157806375ea5f2e146102d157806379cc6790146102ed57610116565b806318160ddd116100e957806318160ddd146101a557806323b872dd146101c3578063313ce567146101f3578063395093511461021157806342966c681461024157610116565b8063022c0d9f1461011b57806306fdde03146101375780630902f1ac14610155578063095ea7b314610175575b600080fd5b61013560048036038101906101309190611437565b6103d5565b005b61013f6103dc565b60405161014c91906119bc565b60405180910390f35b61015d61046e565b60405161016c93929190611b3e565b60405180910390f35b61018f600480360381019061018a9190611396565b6104b9565b60405161019c91906119a1565b60405180910390f35b6101ad6104d7565b6040516101ba9190611b75565b60405180910390f35b6101dd60048036038101906101d89190611347565b6104e1565b6040516101ea91906119a1565b60405180910390f35b6101fb6105e2565b6040516102089190611b90565b60405180910390f35b61022b60048036038101906102269190611396565b6105eb565b60405161023891906119a1565b60405180910390f35b61025b6004803603810190610256919061140e565b610697565b60405161026891906119a1565b60405180910390f35b61028b600480360381019061028691906112e2565b6106b3565b6040516102989190611b75565b60405180910390f35b6102bb60048036038101906102b691906112e2565b61076d565b6040516102c89190611b75565b60405180910390f35b6102eb60048036038101906102e691906113d2565b6107b5565b005b61030760048036038101906103029190611396565b610823565b005b6103116108a7565b60405161031e91906119bc565b60405180910390f35b610341600480360381019061033c9190611396565b610939565b60405161034e91906119a1565b60405180910390f35b610371600480360381019061036c9190611396565b610a2d565b60405161037e91906119a1565b60405180910390f35b61038f610a4b565b60405161039c9190611986565b60405180910390f35b6103bf60048036038101906103ba919061130b565b610a53565b6040516103cc9190611b75565b60405180910390f35b5050505050565b6060600380546103eb90611dc0565b80601f016020809104026020016040519081016040528092919081815260200182805461041790611dc0565b80156104645780601f1061043957610100808354040283529160200191610464565b820191906000526020600020905b81548152906001019060200180831161044757829003601f168201915b5050505050905090565b6000806000600560009054906101000a90046dffffffffffffffffffffffffffff166005600e9054906101000a90046dffffffffffffffffffffffffffff1642925092509250909192565b60006104cd6104c6610ada565b8484610ae2565b6001905092915050565b6000600254905090565b60006104ee848484610cad565b6000600160008673ffffffffffffffffffffffffffffffffffffffff1673ffffffffffffffffffffffffffffffffffffffff1681526020019081526020016000206000610539610ada565b73ffffffffffffffffffffffffffffffffffffffff1673ffffffffffffffffffffffffffffffffffffffff168152602001908152602001600020549050828110156105b9576040517f08c379a00000000000000000000000000000000000000000000000000000000081526004016105b090611a5e565b60405180910390fd5b6105d6856105c5610ada565b85846105d19190611cda565b610ae2565b60019150509392505050565b60006012905090565b600061068d6105f8610ada565b848460016000610606610ada565b73ffffffffffffffffffffffffffffffffffffffff1673ffffffffffffffffffffffffffffffffffffffff16815260200190815260200160002060008873ffffffffffffffffffffffffffffffffffffffff1673ffffffffffffffffffffffffffffffffffffffff168152602001908152602001600020546106889190611c0b565b610ae2565b6001905092915050565b60006106aa6106a4610ada565b83610f2c565b60019050919050565b6000806005600e9054906101000a90046dffffffffffffffffffffffffffff16600560009054906101000a90046dffffffffffffffffffffffffffff166106fa9190611bc7565b6005600e9054906101000a90046dffffffffffffffffffffffffffff16600560009054906101000a90046dffffffffffffffffffffffffffff1661073e9190611c92565b6107489190611c61565b6dffffffffffffffffffffffffffff1690506107648382611100565b80915050919050565b60008060008373ffffffffffffffffffffffffffffffffffffffff1673ffffffffffffffffffffffffffffffffffffffff168152602001908152602001600020549050919050565b81600560006101000a8154816dffffffffffffffffffffffffffff02191690836dffffffffffffffffffffffffffff160217905550806005600e6101000a8154816dffffffffffffffffffffffffffff02191690836dffffffffffffffffffffffffffff1602179055505050565b600061083683610831610ada565b610a53565b90508181101561087b576040517f08c379a000000000000000000000000000000000000000000000000000000000815260040161087290611a7e565b60405180910390fd5b61089883610887610ada565b84846108939190611cda565b610ae2565b6108a28383610f2c565b505050565b6060600480546108b690611dc0565b80601f01602080910402602001604051908101604052809291908181526020018280546108e290611dc0565b801561092f5780601f106109045761010080835404028352916020019161092f565b820191906000526020600020905b81548152906001019060200180831161091257829003601f168201915b5050505050905090565b60008060016000610948610ada565b73ffffffffffffffffffffffffffffffffffffffff1673ffffffffffffffffffffffffffffffffffffffff16815260200190815260200160002060008573ffffffffffffffffffffffffffffffffffffffff1673ffffffffffffffffffffffffffffffffffffffff16815260200190815260200160002054905082811015610a05576040517f08c379a00000000000000000000000000000000000000000000000000000000081526004016109fc90611afe565b60405180910390fd5b610a22610a10610ada565b858584610a1d9190611cda565b610ae2565b600191505092915050565b6000610a41610a3a610ada565b8484610cad565b6001905092915050565b600030905090565b6000600160008473ffffffffffffffffffffffffffffffffffffffff1673ffffffffffffffffffffffffffffffffffffffff16815260200190815260200160002060008373ffffffffffffffffffffffffffffffffffffffff1673ffffffffffffffffffffffffffffffffffffffff16815260200190815260200160002054905092915050565b600033905090565b600073ffffffffffffffffffffffffffffffffffffffff168373ffffffffffffffffffffffffffffffffffffffff161415610b52576040517f08c379a0000000000000000000000000000000000000000000000000000000008152600401610b4990611ade565b60405180910390fd5b600073ffffffffffffffffffffffffffffffffffffffff168273ffffffffffffffffffffffffffffffffffffffff161415610bc2576040517f08c379a0000000000000000000000000000000000000000000000000000000008152600401610bb990611a1e565b60405180910390fd5b80600160008573ffffffffffffffffffffffffffffffffffffffff1673ffffffffffffffffffffffffffffffffffffffff16815260200190815260200160002060008473ffffffffffffffffffffffffffffffffffffffff1673ffffffffffffffffffffffffffffffffffffffff168152602001908152602001600020819055508173ffffffffffffffffffffffffffffffffffffffff168373ffffffffffffffffffffffffffffffffffffffff167f8c5be1e5ebec7d5bd14f71427d1e84f3dd0314c0f7b2291e5b200ac8c7c3b92583604051610ca09190611b75565b60405180910390a3505050565b600073ffffffffffffffffffffffffffffffffffffffff168373ffffffffffffffffffffffffffffffffffffffff161415610d1d576040517f08c379a0000000000000000000000000000000000000000000000000000000008152600401610d1490611abe565b60405180910390fd5b600073ffffffffffffffffffffffffffffffffffffffff168273ffffffffffffffffffffffffffffffffffffffff161415610d8d576040517f08c379a0000000000000000000000000000000000000000000000000000000008152600401610d84906119de565b60405180910390fd5b610d98838383611254565b60008060008573ffffffffffffffffffffffffffffffffffffffff1673ffffffffffffffffffffffffffffffffffffffff16815260200190815260200160002054905081811015610e1e576040517f08c379a0000000000000000000000000000000000000000000000000000000008152600401610e1590611a3e565b60405180910390fd5b8181610e2a9190611cda565b6000808673ffffffffffffffffffffffffffffffffffffffff1673ffffffffffffffffffffffffffffffffffffffff16815260200190815260200160002081905550816000808573ffffffffffffffffffffffffffffffffffffffff1673ffffffffffffffffffffffffffffffffffffffff1681526020019081526020016000206000828254610eba9190611c0b565b925050819055508273ffffffffffffffffffffffffffffffffffffffff168473ffffffffffffffffffffffffffffffffffffffff167fddf252ad1be2c89b69c2b068fc378daa952ba7f163c4a11628f55a4df523b3ef84604051610f1e9190611b75565b60405180910390a350505050565b600073ffffffffffffffffffffffffffffffffffffffff168273ffffffffffffffffffffffffffffffffffffffff161415610f9c576040517f08c379a0000000000000000000000000000000000000000000000000000000008152600401610f9390611a9e565b60405180910390fd5b610fa882600083611254565b60008060008473ffffffffffffffffffffffffffffffffffffffff1673ffffffffffffffffffffffffffffffffffffffff1681526020019081526020016000205490508181101561102e576040517f08c379a0000000000000000000000000000000000000000000000000000000008152600401611025906119fe565b60405180910390fd5b818161103a9190611cda565b6000808573ffffffffffffffffffffffffffffffffffffffff1673ffffffffffffffffffffffffffffffffffffffff16815260200190815260200160002081905550816002600082825461108e9190611cda565b92505081905550600073ffffffffffffffffffffffffffffffffffffffff168373ffffffffffffffffffffffffffffffffffffffff167fddf252ad1be2c89b69c2b068fc378daa952ba7f163c4a11628f55a4df523b3ef846040516110f39190611b75565b60405180910390a3505050565b600073ffffffffffffffffffffffffffffffffffffffff168273ffffffffffffffffffffffffffffffffffffffff161415611170576040517f08c379a000000000000000000000000000000000000000000000000000000000815260040161116790611b1e565b60405180910390fd5b61117c60008383611254565b806002600082825461118e9190611c0b565b92505081905550806000808473ffffffffffffffffffffffffffffffffffffffff1673ffffffffffffffffffffffffffffffffffffffff16815260200190815260200160002060008282546111e39190611c0b565b925050819055508173ffffffffffffffffffffffffffffffffffffffff16600073ffffffffffffffffffffffffffffffffffffffff167fddf252ad1be2c89b69c2b068fc378daa952ba7f163c4a11628f55a4df523b3ef836040516112489190611b75565b60405180910390a35050565b505050565b60008135905061126881611e90565b92915050565b60008083601f84011261128057600080fd5b8235905067ffffffffffffffff81111561129957600080fd5b6020830191508360018202830111156112b157600080fd5b9250929050565b6000813590506112c781611ea7565b92915050565b6000813590506112dc81611ebe565b92915050565b6000602082840312156112f457600080fd5b600061130284828501611259565b91505092915050565b6000806040838503121561131e57600080fd5b600061132c85828601611259565b925050602061133d85828601611259565b9150509250929050565b60008060006060848603121561135c57600080fd5b600061136a86828701611259565b935050602061137b86828701611259565b925050604061138c868287016112cd565b9150509250925092565b600080604083850312156113a957600080fd5b60006113b785828601611259565b92505060206113c8858286016112cd565b9150509250929050565b600080604083850312156113e557600080fd5b60006113f3858286016112b8565b9250506020611404858286016112b8565b9150509250929050565b60006020828403121561142057600080fd5b600061142e848285016112cd565b91505092915050565b60008060008060006080868803121561144f57600080fd5b600061145d888289016112cd565b955050602061146e888289016112cd565b945050604061147f88828901611259565b935050606086013567ffffffffffffffff81111561149c57600080fd5b6114a88882890161126e565b92509250509295509295909350565b6114c081611d0e565b82525050565b6114cf81611d20565b82525050565b60006114e082611bab565b6114ea8185611bb6565b93506114fa818560208601611d8d565b61150381611e7f565b840191505092915050565b600061151b602383611bb6565b91507f45524332303a207472616e7366657220746f20746865207a65726f206164647260008301527f65737300000000000000000000000000000000000000000000000000000000006020830152604082019050919050565b6000611581602283611bb6565b91507f45524332303a206275726e20616d6f756e7420657863656564732062616c616e60008301527f63650000000000000000000000000000000000000000000000000000000000006020830152604082019050919050565b60006115e7602283611bb6565b91507f45524332303a20617070726f766520746f20746865207a65726f20616464726560008301527f73730000000000000000000000000000000000000000000000000000000000006020830152604082019050919050565b600061164d602683611bb6565b91507f45524332303a207472616e7366657220616d6f756e742065786365656473206260008301527f616c616e636500000000000000000000000000000000000000000000000000006020830152604082019050919050565b60006116b3602883611bb6565b91507f45524332303a207472616e7366657220616d6f756e742065786365656473206160008301527f6c6c6f77616e63650000000000000000000000000000000000000000000000006020830152604082019050919050565b6000611719602483611bb6565b91507f45524332303a206275726e20616d6f756e74206578636565647320616c6c6f7760008301527f616e6365000000000000000000000000000000000000000000000000000000006020830152604082019050919050565b600061177f602183611bb6565b91507f45524332303a206275726e2066726f6d20746865207a65726f2061646472657360008301527f73000000000000000000000000000000000000000000000000000000000000006020830152604082019050919050565b60006117e5602583611bb6565b91507f45524332303a207472616e736665722066726f6d20746865207a65726f20616460008301527f64726573730000000000000000000000000000000000000000000000000000006020830152604082019050919050565b600061184b602483611bb6565b91507f45524332303a20617070726f76652066726f6d20746865207a65726f2061646460008301527f72657373000000000000000000000000000000000000000000000000000000006020830152604082019050919050565b60006118b1602583611bb6565b91507f45524332303a2064656372656173656420616c6c6f77616e63652062656c6f7760008301527f207a65726f0000000000000000000000000000000000000000000000000000006020830152604082019050919050565b6000611917601f83611bb6565b91507f45524332303a206d696e7420746f20746865207a65726f2061646472657373006000830152602082019050919050565b61195381611d2c565b82525050565b61196281611d66565b82525050565b61197181611d70565b82525050565b61198081611d80565b82525050565b600060208201905061199b60008301846114b7565b92915050565b60006020820190506119b660008301846114c6565b92915050565b600060208201905081810360008301526119d681846114d5565b905092915050565b600060208201905081810360008301526119f78161150e565b9050919050565b60006020820190508181036000830152611a1781611574565b9050919050565b60006020820190508181036000830152611a37816115da565b9050919050565b60006020820190508181036000830152611a5781611640565b9050919050565b60006020820190508181036000830152611a77816116a6565b9050919050565b60006020820190508181036000830152611a978161170c565b9050919050565b60006020820190508181036000830152611ab781611772565b9050919050565b60006020820190508181036000830152611ad7816117d8565b9050919050565b60006020820190508181036000830152611af78161183e565b9050919050565b60006020820190508181036000830152611b17816118a4565b9050919050565b60006020820190508181036000830152611b378161190a565b9050919050565b6000606082019050611b53600083018661194a565b611b60602083018561194a565b611b6d6040830184611968565b949350505050565b6000602082019050611b8a6000830184611959565b92915050565b6000602082019050611ba56000830184611977565b92915050565b600081519050919050565b600082825260208201905092915050565b6000611bd282611d2c565b9150611bdd83611d2c565b9250826dffffffffffffffffffffffffffff03821115611c0057611bff611df2565b5b828201905092915050565b6000611c1682611d66565b9150611c2183611d66565b9250827fffffffffffffffffffffffffffffffffffffffffffffffffffffffffffffffff03821115611c5657611c55611df2565b5b828201905092915050565b6000611c6c82611d2c565b9150611c7783611d2c565b925082611c8757611c86611e21565b5b828204905092915050565b6000611c9d82611d2c565b9150611ca883611d2c565b9250816dffffffffffffffffffffffffffff0483118215151615611ccf57611cce611df2565b5b828202905092915050565b6000611ce582611d66565b9150611cf083611d66565b925082821015611d0357611d02611df2565b5b828203905092915050565b6000611d1982611d46565b9050919050565b60008115159050919050565b60006dffffffffffffffffffffffffffff82169050919050565b600073ffffffffffffffffffffffffffffffffffffffff82169050919050565b6000819050919050565b600063ffffffff82169050919050565b600060ff82169050919050565b60005b83811015611dab578082015181840152602081019050611d90565b83811115611dba576000848401525b50505050565b60006002820490506001821680611dd857607f821691505b60208210811415611dec57611deb611e50565b5b50919050565b7f4e487b7100000000000000000000000000000000000000000000000000000000600052601160045260246000fd5b7f4e487b7100000000000000000000000000000000000000000000000000000000600052601260045260246000fd5b7f4e487b7100000000000000000000000000000000000000000000000000000000600052602260045260246000fd5b6000601f19601f8301169050919050565b611e9981611d0e565b8114611ea457600080fd5b50565b611eb081611d2c565b8114611ebb57600080fd5b50565b611ec781611d66565b8114611ed257600080fd5b5056fea26469706673582212203d0a78b520be95467e5632f19d95e25322d76cee9e92b01085b827546d71f88f64736f6c63430008000033",
  "devdoc": {
    "kind": "dev",
    "methods": {
      "allowance(address,address)": {
        "details": "See {IERC20-allowance}."
      },
      "approve(address,uint256)": {
        "details": "See {IERC20-approve}. Requirements: - `spender` cannot be the zero address."
      },
      "balanceOf(address)": {
        "details": "See {IERC20-balanceOf}."
      },
      "burn(uint256)": {
        "details": "Destroys `amount` tokens from the caller. See {ERC20-_burn}."
      },
      "burnFrom(address,uint256)": {
        "details": "Destroys `amount` tokens from `account`, deducting from the caller's allowance. See {ERC20-_burn} and {ERC20-allowance}. Requirements: - the caller must have allowance for ``accounts``'s tokens of at least `amount`."
      },
      "decimals()": {
        "details": "Returns the number of decimals used to get its user representation. For example, if `decimals` equals `2`, a balance of `505` tokens should be displayed to a user as `5,05` (`505 / 10 ** 2`). Tokens usually opt for a value of 18, imitating the relationship between Ether and Wei. This is the value {ERC20} uses, unless this function is overridden; NOTE: This information is only used for _display_ purposes: it in no way affects any of the arithmetic of the contract, including {IERC20-balanceOf} and {IERC20-transfer}."
      },
      "decreaseAllowance(address,uint256)": {
        "details": "Atomically decreases the allowance granted to `spender` by the caller. This is an alternative to {approve} that can be used as a mitigation for problems described in {IERC20-approve}. Emits an {Approval} event indicating the updated allowance. Requirements: - `spender` cannot be the zero address. - `spender` must have allowance for the caller of at least `subtractedValue`."
      },
      "increaseAllowance(address,uint256)": {
        "details": "Atomically increases the allowance granted to `spender` by the caller. This is an alternative to {approve} that can be used as a mitigation for problems described in {IERC20-approve}. Emits an {Approval} event indicating the updated allowance. Requirements: - `spender` cannot be the zero address."
      },
      "name()": {
        "details": "Returns the name of the token."
      },
      "symbol()": {
        "details": "Returns the symbol of the token, usually a shorter version of the name."
      },
      "totalSupply()": {
        "details": "See {IERC20-totalSupply}."
      },
      "transfer(address,uint256)": {
        "details": "See {IERC20-transfer}. Requirements: - `recipient` cannot be the zero address. - the caller must have a balance of at least `amount`."
      },
      "transferFrom(address,address,uint256)": {
        "details": "See {IERC20-transferFrom}. Emits an {Approval} event indicating the updated allowance. This is not required by the EIP. See the note at the beginning of {ERC20}. Requirements: - `sender` and `recipient` cannot be the zero address. - `sender` must have a balance of at least `amount`. - the caller must have allowance for ``sender``'s tokens of at least `amount`."
      }
    },
    "version": 1
  },
  "userdoc": {
    "kind": "user",
    "methods": {},
    "version": 1
  },
  "storageLayout": {
    "storage": [
      {
        "astId": 3903,
        "contract": "contracts/testing/MockMigrationUniPair.sol:MockMigrationUniPair",
        "label": "_balances",
        "offset": 0,
        "slot": "0",
        "type": "t_mapping(t_address,t_uint256)"
      },
      {
        "astId": 3909,
        "contract": "contracts/testing/MockMigrationUniPair.sol:MockMigrationUniPair",
        "label": "_allowances",
        "offset": 0,
        "slot": "1",
        "type": "t_mapping(t_address,t_mapping(t_address,t_uint256))"
      },
      {
        "astId": 3911,
        "contract": "contracts/testing/MockMigrationUniPair.sol:MockMigrationUniPair",
        "label": "_totalSupply",
        "offset": 0,
        "slot": "2",
        "type": "t_uint256"
      },
      {
        "astId": 3913,
        "contract": "contracts/testing/MockMigrationUniPair.sol:MockMigrationUniPair",
        "label": "_name",
        "offset": 0,
        "slot": "3",
        "type": "t_string_storage"
      },
      {
        "astId": 3915,
        "contract": "contracts/testing/MockMigrationUniPair.sol:MockMigrationUniPair",
        "label": "_symbol",
        "offset": 0,
        "slot": "4",
        "type": "t_string_storage"
      },
      {
        "astId": 8214,
        "contract": "contracts/testing/MockMigrationUniPair.sol:MockMigrationUniPair",
        "label": "reserve0",
        "offset": 0,
        "slot": "5",
        "type": "t_uint112"
      },
      {
        "astId": 8216,
        "contract": "contracts/testing/MockMigrationUniPair.sol:MockMigrationUniPair",
        "label": "reserve1",
        "offset": 14,
        "slot": "5",
        "type": "t_uint112"
      }
    ],
    "types": {
      "t_address": {
        "encoding": "inplace",
        "label": "address",
        "numberOfBytes": "20"
      },
      "t_mapping(t_address,t_mapping(t_address,t_uint256))": {
        "encoding": "mapping",
        "key": "t_address",
        "label": "mapping(address => mapping(address => uint256))",
        "numberOfBytes": "32",
        "value": "t_mapping(t_address,t_uint256)"
      },
      "t_mapping(t_address,t_uint256)": {
        "encoding": "mapping",
        "key": "t_address",
        "label": "mapping(address => uint256)",
        "numberOfBytes": "32",
        "value": "t_uint256"
      },
      "t_string_storage": {
        "encoding": "bytes",
        "label": "string",
        "numberOfBytes": "32"
      },
      "t_uint112": {
        "encoding": "inplace",
        "label": "uint112",
        "numberOfBytes": "14"
      },
      "t_uint256": {
        "encoding": "inplace",
        "label": "uint256",
        "numberOfBytes": "32"
      }
    }
  }
}