{
  "address": "0xc0315E377d4b7740CF501Cd23f1066Cc59FC262a",
  "abi": [
    {
      "inputs": [
        {
          "internalType": "string",
          "name": "name",
          "type": "string"
        },
        {
          "internalType": "string",
          "name": "symbol",
          "type": "string"
        },
        {
          "internalType": "address",
          "name": "_addTokenPower",
          "type": "address"
        }
      ],
      "stateMutability": "nonpayable",
      "type": "constructor"
    },
    {
      "anonymous": false,
      "inputs": [
        {
          "indexed": true,
          "internalType": "address",
          "name": "owner",
          "type": "address"
        },
        {
          "indexed": true,
          "internalType": "address",
          "name": "spender",
          "type": "address"
        },
        {
          "indexed": false,
          "internalType": "uint256",
          "name": "value",
          "type": "uint256"
        }
      ],
      "name": "Approval",
      "type": "event"
    },
    {
      "anonymous": false,
      "inputs": [
        {
          "indexed": true,
          "internalType": "address",
          "name": "previousOwner",
          "type": "address"
        },
        {
          "indexed": true,
          "internalType": "address",
          "name": "newOwner",
          "type": "address"
        }
      ],
      "name": "OwnershipTransferred",
      "type": "event"
    },
    {
      "anonymous": false,
      "inputs": [
        {
          "indexed": true,
          "internalType": "address",
          "name": "from",
          "type": "address"
        },
        {
          "indexed": true,
          "internalType": "address",
          "name": "to",
          "type": "address"
        },
        {
          "indexed": false,
          "internalType": "uint256",
          "name": "value",
          "type": "uint256"
        }
      ],
      "name": "Transfer",
      "type": "event"
    },
    {
      "inputs": [
        {
          "internalType": "address",
          "name": "owner",
          "type": "address"
        },
        {
          "internalType": "address",
          "name": "spender",
          "type": "address"
        }
      ],
      "name": "allowance",
      "outputs": [
        {
          "internalType": "uint256",
          "name": "",
          "type": "uint256"
        }
      ],
      "stateMutability": "view",
      "type": "function"
    },
    {
      "inputs": [
        {
          "internalType": "address",
          "name": "spender",
          "type": "address"
        },
        {
          "internalType": "uint256",
          "name": "amount",
          "type": "uint256"
        }
      ],
      "name": "approve",
      "outputs": [
        {
          "internalType": "bool",
          "name": "",
          "type": "bool"
        }
      ],
      "stateMutability": "nonpayable",
      "type": "function"
    },
    {
      "inputs": [
        {
          "internalType": "address",
          "name": "account",
          "type": "address"
        }
      ],
      "name": "balanceOf",
      "outputs": [
        {
          "internalType": "uint256",
          "name": "",
          "type": "uint256"
        }
      ],
      "stateMutability": "view",
      "type": "function"
    },
    {
      "inputs": [
        {
          "internalType": "uint256",
          "name": "amount",
          "type": "uint256"
        }
      ],
      "name": "burn",
      "outputs": [
        {
          "internalType": "bool",
          "name": "",
          "type": "bool"
        }
      ],
      "stateMutability": "nonpayable",
      "type": "function"
    },
    {
      "inputs": [
        {
          "internalType": "address",
          "name": "account",
          "type": "address"
        },
        {
          "internalType": "uint256",
          "name": "amount",
          "type": "uint256"
        }
      ],
      "name": "burnFrom",
      "outputs": [],
      "stateMutability": "nonpayable",
      "type": "function"
    },
    {
      "inputs": [],
      "name": "config",
      "outputs": [
        {
          "internalType": "uint256",
          "name": "transferFee",
          "type": "uint256"
        },
        {
          "internalType": "uint256",
          "name": "burnFee",
          "type": "uint256"
        },
        {
          "internalType": "address",
          "name": "feeDestination",
          "type": "address"
        }
      ],
      "stateMutability": "view",
      "type": "function"
    },
    {
      "inputs": [],
      "name": "decimals",
      "outputs": [
        {
          "internalType": "uint8",
          "name": "",
          "type": "uint8"
        }
      ],
      "stateMutability": "view",
      "type": "function"
    },
    {
      "inputs": [
        {
          "internalType": "address",
          "name": "spender",
          "type": "address"
        },
        {
          "internalType": "uint256",
          "name": "subtractedValue",
          "type": "uint256"
        }
      ],
      "name": "decreaseAllowance",
      "outputs": [
        {
          "internalType": "bool",
          "name": "",
          "type": "bool"
        }
      ],
      "stateMutability": "nonpayable",
      "type": "function"
    },
    {
      "inputs": [
        {
          "internalType": "address",
          "name": "spender",
          "type": "address"
        },
        {
          "internalType": "uint256",
          "name": "addedValue",
          "type": "uint256"
        }
      ],
      "name": "increaseAllowance",
      "outputs": [
        {
          "internalType": "bool",
          "name": "",
          "type": "bool"
        }
      ],
      "stateMutability": "nonpayable",
      "type": "function"
    },
    {
      "inputs": [
        {
          "internalType": "uint256",
          "name": "amount",
          "type": "uint256"
        }
      ],
      "name": "mint",
      "outputs": [],
      "stateMutability": "nonpayable",
      "type": "function"
    },
    {
      "inputs": [
        {
          "internalType": "address",
          "name": "recipient",
          "type": "address"
        },
        {
          "internalType": "uint256",
          "name": "amount",
          "type": "uint256"
        }
      ],
      "name": "mintTo",
      "outputs": [],
      "stateMutability": "nonpayable",
      "type": "function"
    },
    {
      "inputs": [],
      "name": "name",
      "outputs": [
        {
          "internalType": "string",
          "name": "",
          "type": "string"
        }
      ],
      "stateMutability": "view",
      "type": "function"
    },
    {
      "inputs": [],
      "name": "owner",
      "outputs": [
        {
          "internalType": "address",
          "name": "",
          "type": "address"
        }
      ],
      "stateMutability": "view",
      "type": "function"
    },
    {
      "inputs": [],
      "name": "renounceOwnership",
      "outputs": [],
      "stateMutability": "nonpayable",
      "type": "function"
    },
    {
      "inputs": [
        {
          "internalType": "uint256",
          "name": "_priceMultiplier",
          "type": "uint256"
        }
      ],
      "name": "setPriceMultiplier",
      "outputs": [],
      "stateMutability": "nonpayable",
      "type": "function"
    },
    {
      "inputs": [],
      "name": "symbol",
      "outputs": [
        {
          "internalType": "string",
          "name": "",
          "type": "string"
        }
      ],
      "stateMutability": "view",
      "type": "function"
    },
    {
      "inputs": [],
      "name": "totalSupply",
      "outputs": [
        {
          "internalType": "uint256",
          "name": "",
          "type": "uint256"
        }
      ],
      "stateMutability": "view",
      "type": "function"
    },
    {
      "inputs": [
        {
          "internalType": "address",
          "name": "recipient",
          "type": "address"
        },
        {
          "internalType": "uint256",
          "name": "amount",
          "type": "uint256"
        }
      ],
      "name": "transfer",
      "outputs": [
        {
          "internalType": "bool",
          "name": "",
          "type": "bool"
        }
      ],
      "stateMutability": "nonpayable",
      "type": "function"
    },
    {
      "inputs": [
        {
          "internalType": "address",
          "name": "_to",
          "type": "address"
        },
        {
          "internalType": "uint256",
          "name": "_value",
          "type": "uint256"
        },
        {
          "internalType": "bytes",
          "name": "_data",
          "type": "bytes"
        }
      ],
      "name": "transferAndCall",
      "outputs": [
        {
          "internalType": "bool",
          "name": "success",
          "type": "bool"
        }
      ],
      "stateMutability": "nonpayable",
      "type": "function"
    },
    {
      "inputs": [
        {
          "internalType": "address",
          "name": "sender",
          "type": "address"
        },
        {
          "internalType": "address",
          "name": "recipient",
          "type": "address"
        },
        {
          "internalType": "uint256",
          "name": "amount",
          "type": "uint256"
        }
      ],
      "name": "transferFrom",
      "outputs": [
        {
          "internalType": "bool",
          "name": "",
          "type": "bool"
        }
      ],
      "stateMutability": "nonpayable",
      "type": "function"
    },
    {
      "inputs": [
        {
          "internalType": "address",
          "name": "newOwner",
          "type": "address"
        }
      ],
      "name": "transferOwnership",
      "outputs": [],
      "stateMutability": "nonpayable",
      "type": "function"
    },
    {
      "inputs": [
        {
          "internalType": "address",
          "name": "outputToken",
          "type": "address"
        },
        {
          "internalType": "uint256",
          "name": "tokensToRelease",
          "type": "uint256"
        },
        {
          "internalType": "uint256",
          "name": "scx",
          "type": "uint256"
        },
        {
          "internalType": "uint256",
          "name": "passes",
          "type": "uint256"
        }
      ],
      "name": "withdrawLiquidityFindSCX",
      "outputs": [
        {
          "internalType": "uint256",
          "name": "",
          "type": "uint256"
        }
      ],
      "stateMutability": "view",
      "type": "function"
    }
  ],
  "transactionHash": "0xb834781d9cc22fa7b26d26f5116da576eef485d88548d2b6b85904e38b65d442",
  "args": [
    "Scarcity",
    "SCX",
    "0x59698F078B0004fbbb3EE455c54D88C6c059B274"
  ],
  "solcInputHash": "3b633f60859fc01482cc6a8d04cca0a0",
  "bytecode": "0x608060405260c860075573aa645185f79506175917ae2fdd3128e4711d4065600860006101000a81548173ffffffffffffffffffffffffffffffffffffffff021916908373ffffffffffffffffffffffffffffffffffffffff1602179055503480156200006b57600080fd5b5060405162002c3c38038062002c3c8339818101604052810190620000919190620004c1565b828281818160039080519060200190620000ad92919062000388565b508060049080519060200190620000c692919062000388565b505050620000e9620000dd6200015060201b60201c565b6200015860201b60201c565b5050620001063368056bc75e2d631000006200021e60201b60201c565b80600660006101000a81548173ffffffffffffffffffffffffffffffffffffffff021916908373ffffffffffffffffffffffffffffffffffffffff16021790555050505062000801565b600033905090565b6000600560009054906101000a900473ffffffffffffffffffffffffffffffffffffffff16905081600560006101000a81548173ffffffffffffffffffffffffffffffffffffffff021916908373ffffffffffffffffffffffffffffffffffffffff1602179055508173ffffffffffffffffffffffffffffffffffffffff168173ffffffffffffffffffffffffffffffffffffffff167f8be0079c531659141344cd1fd0a4f28419497f9722a3daafe3b4186f6b6457e060405160405180910390a35050565b600073ffffffffffffffffffffffffffffffffffffffff168273ffffffffffffffffffffffffffffffffffffffff16141562000291576040517f08c379a000000000000000000000000000000000000000000000000000000000815260040162000288906200059c565b60405180910390fd5b620002a5600083836200038360201b60201c565b8060026000828254620002b9919062000653565b92505081905550806000808473ffffffffffffffffffffffffffffffffffffffff1673ffffffffffffffffffffffffffffffffffffffff168152602001908152602001600020600082825462000310919062000653565b925050819055508173ffffffffffffffffffffffffffffffffffffffff16600073ffffffffffffffffffffffffffffffffffffffff167fddf252ad1be2c89b69c2b068fc378daa952ba7f163c4a11628f55a4df523b3ef83604051620003779190620005be565b60405180910390a35050565b505050565b828054620003969062000724565b90600052602060002090601f016020900481019282620003ba576000855562000406565b82601f10620003d557805160ff191683800117855562000406565b8280016001018555821562000406579182015b8281111562000405578251825591602001919060010190620003e8565b5b50905062000415919062000419565b5090565b5b80821115620004345760008160009055506001016200041a565b5090565b60006200044f62000449846200060f565b620005db565b9050828152602081018484840111156200046857600080fd5b62000475848285620006ee565b509392505050565b6000815190506200048e81620007e7565b92915050565b600082601f830112620004a657600080fd5b8151620004b884826020860162000438565b91505092915050565b600080600060608486031215620004d757600080fd5b600084015167ffffffffffffffff811115620004f257600080fd5b620005008682870162000494565b935050602084015167ffffffffffffffff8111156200051e57600080fd5b6200052c8682870162000494565b92505060406200053f868287016200047d565b9150509250925092565b600062000558601f8362000642565b91507f45524332303a206d696e7420746f20746865207a65726f2061646472657373006000830152602082019050919050565b6200059681620006e4565b82525050565b60006020820190508181036000830152620005b78162000549565b9050919050565b6000602082019050620005d560008301846200058b565b92915050565b6000604051905081810181811067ffffffffffffffff82111715620006055762000604620007b8565b5b8060405250919050565b600067ffffffffffffffff8211156200062d576200062c620007b8565b5b601f19601f8301169050602081019050919050565b600082825260208201905092915050565b60006200066082620006e4565b91506200066d83620006e4565b9250827fffffffffffffffffffffffffffffffffffffffffffffffffffffffffffffffff03821115620006a557620006a46200075a565b5b828201905092915050565b6000620006bd82620006c4565b9050919050565b600073ffffffffffffffffffffffffffffffffffffffff82169050919050565b6000819050919050565b60005b838110156200070e578082015181840152602081019050620006f1565b838111156200071e576000848401525b50505050565b600060028204905060018216806200073d57607f821691505b6020821081141562000754576200075362000789565b5b50919050565b7f4e487b7100000000000000000000000000000000000000000000000000000000600052601160045260246000fd5b7f4e487b7100000000000000000000000000000000000000000000000000000000600052602260045260246000fd5b7f4e487b7100000000000000000000000000000000000000000000000000000000600052604160045260246000fd5b620007f281620006b0565b8114620007fe57600080fd5b50565b61242b80620008116000396000f3fe608060405234801561001057600080fd5b50600436106101425760003560e01c8063715018a6116100b857806395d89b411161007c57806395d89b411461038d578063a0712d68146103ab578063a457c2d7146103c7578063a9059cbb146103f7578063dd62ed3e14610427578063f2fde38b1461045757610142565b8063715018a6146102f957806372c3fdd91461030357806379502c551461033357806379cc6790146103535780638da5cb5b1461036f57610142565b8063313ce5671161010a578063313ce567146101ff578063395093511461021d5780634000aea01461024d57806342966c681461027d578063449a52f8146102ad57806370a08231146102c957610142565b806306fdde0314610147578063095ea7b31461016557806318160ddd146101955780632081c4ea146101b357806323b872dd146101cf575b600080fd5b61014f610473565b60405161015c9190611e94565b60405180910390f35b61017f600480360381019061017a91906116fb565b610505565b60405161018c9190611e79565b60405180910390f35b61019d610523565b6040516101aa9190612076565b60405180910390f35b6101cd60048036038101906101c89190611801565b61052d565b005b6101e960048036038101906101e491906116ac565b610537565b6040516101f69190611e79565b60405180910390f35b610207610638565b60405161021491906120c8565b60405180910390f35b610237600480360381019061023291906116fb565b610641565b6040516102449190611e79565b60405180910390f35b61026760048036038101906102629190611737565b6106ed565b6040516102749190611e79565b60405180910390f35b61029760048036038101906102929190611801565b61072a565b6040516102a49190611e79565b60405180910390f35b6102c760048036038101906102c291906116fb565b610746565b005b6102e360048036038101906102de9190611647565b610754565b6040516102f09190612076565b60405180910390f35b61030161079c565b005b61031d6004803603810190610318919061179e565b610824565b60405161032a9190612076565b60405180910390f35b61033b61083e565b60405161034a93929190612091565b60405180910390f35b61036d600480360381019061036891906116fb565b610875565b005b6103776108f9565b6040516103849190611e20565b60405180910390f35b610395610923565b6040516103a29190611e94565b60405180910390f35b6103c560048036038101906103c09190611801565b6109b5565b005b6103e160048036038101906103dc91906116fb565b610a52565b6040516103ee9190611e79565b60405180910390f35b610411600480360381019061040c91906116fb565b610b46565b60405161041e9190611e79565b60405180910390f35b610441600480360381019061043c9190611670565b610b64565b60405161044e9190612076565b60405180910390f35b610471600480360381019061046c9190611647565b610beb565b005b606060038054610482906122f7565b80601f01602080910402602001604051908101604052809291908181526020018280546104ae906122f7565b80156104fb5780601f106104d0576101008083540402835291602001916104fb565b820191906000526020600020905b8154815290600101906020018083116104de57829003601f168201915b5050505050905090565b6000610519610512610ce3565b8484610ceb565b6001905092915050565b6000600254905090565b8060078190555050565b6000610544848484610eb6565b6000600160008673ffffffffffffffffffffffffffffffffffffffff1673ffffffffffffffffffffffffffffffffffffffff168152602001908152602001600020600061058f610ce3565b73ffffffffffffffffffffffffffffffffffffffff1673ffffffffffffffffffffffffffffffffffffffff1681526020019081526020016000205490508281101561060f576040517f08c379a000000000000000000000000000000000000000000000000000000000815260040161060690611f56565b60405180910390fd5b61062c8561061b610ce3565b8584610627919061222c565b610ceb565b60019150509392505050565b60006012905090565b60006106e361064e610ce3565b84846001600061065c610ce3565b73ffffffffffffffffffffffffffffffffffffffff1673ffffffffffffffffffffffffffffffffffffffff16815260200190815260200160002060008873ffffffffffffffffffffffffffffffffffffffff1673ffffffffffffffffffffffffffffffffffffffff168152602001908152602001600020546106de919061217c565b610ceb565b6001905092915050565b60006106f98484610b46565b50610705338585610eb6565b61070e84611135565b1561071f5761071e848484611148565b5b600190509392505050565b600061073d610737610ce3565b836111c2565b60019050919050565b6107508282611396565b5050565b60008060008373ffffffffffffffffffffffffffffffffffffffff1673ffffffffffffffffffffffffffffffffffffffff168152602001908152602001600020549050919050565b6107a4610ce3565b73ffffffffffffffffffffffffffffffffffffffff166107c26108f9565b73ffffffffffffffffffffffffffffffffffffffff1614610818576040517f08c379a000000000000000000000000000000000000000000000000000000000815260040161080f90611f76565b60405180910390fd5b61082260006114ea565b565b60008260075461083491906121d2565b9050949350505050565b6000806000600f925060059150600860009054906101000a900473ffffffffffffffffffffffffffffffffffffffff169050909192565b600061088883610883610ce3565b610b64565b9050818110156108cd576040517f08c379a00000000000000000000000000000000000000000000000000000000081526004016108c490611f96565b60405180910390fd5b6108ea836108d9610ce3565b84846108e5919061222c565b610ceb565b6108f483836111c2565b505050565b6000600560009054906101000a900473ffffffffffffffffffffffffffffffffffffffff16905090565b606060048054610932906122f7565b80601f016020809104026020016040519081016040528092919081815260200182805461095e906122f7565b80156109ab5780601f10610980576101008083540402835291602001916109ab565b820191906000526020600020905b81548152906001019060200180831161098e57829003601f168201915b5050505050905090565b600660009054906101000a900473ffffffffffffffffffffffffffffffffffffffff1673ffffffffffffffffffffffffffffffffffffffff163373ffffffffffffffffffffffffffffffffffffffff1614610a45576040517f08c379a0000000000000000000000000000000000000000000000000000000008152600401610a3c90612016565b60405180910390fd5b610a4f3382611396565b50565b60008060016000610a61610ce3565b73ffffffffffffffffffffffffffffffffffffffff1673ffffffffffffffffffffffffffffffffffffffff16815260200190815260200160002060008573ffffffffffffffffffffffffffffffffffffffff1673ffffffffffffffffffffffffffffffffffffffff16815260200190815260200160002054905082811015610b1e576040517f08c379a0000000000000000000000000000000000000000000000000000000008152600401610b1590612036565b60405180910390fd5b610b3b610b29610ce3565b858584610b36919061222c565b610ceb565b600191505092915050565b6000610b5a610b53610ce3565b8484610eb6565b6001905092915050565b6000600160008473ffffffffffffffffffffffffffffffffffffffff1673ffffffffffffffffffffffffffffffffffffffff16815260200190815260200160002060008373ffffffffffffffffffffffffffffffffffffffff1673ffffffffffffffffffffffffffffffffffffffff16815260200190815260200160002054905092915050565b610bf3610ce3565b73ffffffffffffffffffffffffffffffffffffffff16610c116108f9565b73ffffffffffffffffffffffffffffffffffffffff1614610c67576040517f08c379a0000000000000000000000000000000000000000000000000000000008152600401610c5e90611f76565b60405180910390fd5b600073ffffffffffffffffffffffffffffffffffffffff168173ffffffffffffffffffffffffffffffffffffffff161415610cd7576040517f08c379a0000000000000000000000000000000000000000000000000000000008152600401610cce90611ef6565b60405180910390fd5b610ce0816114ea565b50565b600033905090565b600073ffffffffffffffffffffffffffffffffffffffff168373ffffffffffffffffffffffffffffffffffffffff161415610d5b576040517f08c379a0000000000000000000000000000000000000000000000000000000008152600401610d5290611ff6565b60405180910390fd5b600073ffffffffffffffffffffffffffffffffffffffff168273ffffffffffffffffffffffffffffffffffffffff161415610dcb576040517f08c379a0000000000000000000000000000000000000000000000000000000008152600401610dc290611f16565b60405180910390fd5b80600160008573ffffffffffffffffffffffffffffffffffffffff1673ffffffffffffffffffffffffffffffffffffffff16815260200190815260200160002060008473ffffffffffffffffffffffffffffffffffffffff1673ffffffffffffffffffffffffffffffffffffffff168152602001908152602001600020819055508173ffffffffffffffffffffffffffffffffffffffff168373ffffffffffffffffffffffffffffffffffffffff167f8c5be1e5ebec7d5bd14f71427d1e84f3dd0314c0f7b2291e5b200ac8c7c3b92583604051610ea99190612076565b60405180910390a3505050565b600073ffffffffffffffffffffffffffffffffffffffff168373ffffffffffffffffffffffffffffffffffffffff161415610f26576040517f08c379a0000000000000000000000000000000000000000000000000000000008152600401610f1d90611fd6565b60405180910390fd5b600073ffffffffffffffffffffffffffffffffffffffff168273ffffffffffffffffffffffffffffffffffffffff161415610f96576040517f08c379a0000000000000000000000000000000000000000000000000000000008152600401610f8d90611eb6565b60405180910390fd5b610fa18383836115b0565b60008060008573ffffffffffffffffffffffffffffffffffffffff1673ffffffffffffffffffffffffffffffffffffffff16815260200190815260200160002054905081811015611027576040517f08c379a000000000000000000000000000000000000000000000000000000000815260040161101e90611f36565b60405180910390fd5b8181611033919061222c565b6000808673ffffffffffffffffffffffffffffffffffffffff1673ffffffffffffffffffffffffffffffffffffffff16815260200190815260200160002081905550816000808573ffffffffffffffffffffffffffffffffffffffff1673ffffffffffffffffffffffffffffffffffffffff16815260200190815260200160002060008282546110c3919061217c565b925050819055508273ffffffffffffffffffffffffffffffffffffffff168473ffffffffffffffffffffffffffffffffffffffff167fddf252ad1be2c89b69c2b068fc378daa952ba7f163c4a11628f55a4df523b3ef846040516111279190612076565b60405180910390a350505050565b600080823b905060008111915050919050565b60008390508073ffffffffffffffffffffffffffffffffffffffff1663a4c0ed363385856040518463ffffffff1660e01b815260040161118a93929190611e3b565b600060405180830381600087803b1580156111a457600080fd5b505af11580156111b8573d6000803e3d6000fd5b5050505050505050565b600073ffffffffffffffffffffffffffffffffffffffff168273ffffffffffffffffffffffffffffffffffffffff161415611232576040517f08c379a000000000000000000000000000000000000000000000000000000000815260040161122990611fb6565b60405180910390fd5b61123e826000836115b0565b60008060008473ffffffffffffffffffffffffffffffffffffffff1673ffffffffffffffffffffffffffffffffffffffff168152602001908152602001600020549050818110156112c4576040517f08c379a00000000000000000000000000000000000000000000000000000000081526004016112bb90611ed6565b60405180910390fd5b81816112d0919061222c565b6000808573ffffffffffffffffffffffffffffffffffffffff1673ffffffffffffffffffffffffffffffffffffffff168152602001908152602001600020819055508160026000828254611324919061222c565b92505081905550600073ffffffffffffffffffffffffffffffffffffffff168373ffffffffffffffffffffffffffffffffffffffff167fddf252ad1be2c89b69c2b068fc378daa952ba7f163c4a11628f55a4df523b3ef846040516113899190612076565b60405180910390a3505050565b600073ffffffffffffffffffffffffffffffffffffffff168273ffffffffffffffffffffffffffffffffffffffff161415611406576040517f08c379a00000000000000000000000000000000000000000000000000000000081526004016113fd90612056565b60405180910390fd5b611412600083836115b0565b8060026000828254611424919061217c565b92505081905550806000808473ffffffffffffffffffffffffffffffffffffffff1673ffffffffffffffffffffffffffffffffffffffff1681526020019081526020016000206000828254611479919061217c565b925050819055508173ffffffffffffffffffffffffffffffffffffffff16600073ffffffffffffffffffffffffffffffffffffffff167fddf252ad1be2c89b69c2b068fc378daa952ba7f163c4a11628f55a4df523b3ef836040516114de9190612076565b60405180910390a35050565b6000600560009054906101000a900473ffffffffffffffffffffffffffffffffffffffff16905081600560006101000a81548173ffffffffffffffffffffffffffffffffffffffff021916908373ffffffffffffffffffffffffffffffffffffffff1602179055508173ffffffffffffffffffffffffffffffffffffffff168173ffffffffffffffffffffffffffffffffffffffff167f8be0079c531659141344cd1fd0a4f28419497f9722a3daafe3b4186f6b6457e060405160405180910390a35050565b505050565b60006115c86115c384612114565b6120e3565b9050828152602081018484840111156115e057600080fd5b6115eb8482856122b5565b509392505050565b600081359050611602816123c7565b92915050565b600082601f83011261161957600080fd5b81356116298482602086016115b5565b91505092915050565b600081359050611641816123de565b92915050565b60006020828403121561165957600080fd5b6000611667848285016115f3565b91505092915050565b6000806040838503121561168357600080fd5b6000611691858286016115f3565b92505060206116a2858286016115f3565b9150509250929050565b6000806000606084860312156116c157600080fd5b60006116cf868287016115f3565b93505060206116e0868287016115f3565b92505060406116f186828701611632565b9150509250925092565b6000806040838503121561170e57600080fd5b600061171c858286016115f3565b925050602061172d85828601611632565b9150509250929050565b60008060006060848603121561174c57600080fd5b600061175a868287016115f3565b935050602061176b86828701611632565b925050604084013567ffffffffffffffff81111561178857600080fd5b61179486828701611608565b9150509250925092565b600080600080608085870312156117b457600080fd5b60006117c2878288016115f3565b94505060206117d387828801611632565b93505060406117e487828801611632565b92505060606117f587828801611632565b91505092959194509250565b60006020828403121561181357600080fd5b600061182184828501611632565b91505092915050565b61183381612260565b82525050565b61184281612272565b82525050565b600061185382612144565b61185d818561215a565b935061186d8185602086016122c4565b611876816123b6565b840191505092915050565b600061188c8261214f565b611896818561216b565b93506118a68185602086016122c4565b6118af816123b6565b840191505092915050565b60006118c760238361216b565b91507f45524332303a207472616e7366657220746f20746865207a65726f206164647260008301527f65737300000000000000000000000000000000000000000000000000000000006020830152604082019050919050565b600061192d60228361216b565b91507f45524332303a206275726e20616d6f756e7420657863656564732062616c616e60008301527f63650000000000000000000000000000000000000000000000000000000000006020830152604082019050919050565b600061199360268361216b565b91507f4f776e61626c653a206e6577206f776e657220697320746865207a65726f206160008301527f64647265737300000000000000000000000000000000000000000000000000006020830152604082019050919050565b60006119f960228361216b565b91507f45524332303a20617070726f766520746f20746865207a65726f20616464726560008301527f73730000000000000000000000000000000000000000000000000000000000006020830152604082019050919050565b6000611a5f60268361216b565b91507f45524332303a207472616e7366657220616d6f756e742065786365656473206260008301527f616c616e636500000000000000000000000000000000000000000000000000006020830152604082019050919050565b6000611ac560288361216b565b91507f45524332303a207472616e7366657220616d6f756e742065786365656473206160008301527f6c6c6f77616e63650000000000000000000000000000000000000000000000006020830152604082019050919050565b6000611b2b60208361216b565b91507f4f776e61626c653a2063616c6c6572206973206e6f7420746865206f776e65726000830152602082019050919050565b6000611b6b60248361216b565b91507f45524332303a206275726e20616d6f756e74206578636565647320616c6c6f7760008301527f616e6365000000000000000000000000000000000000000000000000000000006020830152604082019050919050565b6000611bd160218361216b565b91507f45524332303a206275726e2066726f6d20746865207a65726f2061646472657360008301527f73000000000000000000000000000000000000000000000000000000000000006020830152604082019050919050565b6000611c3760258361216b565b91507f45524332303a207472616e736665722066726f6d20746865207a65726f20616460008301527f64726573730000000000000000000000000000000000000000000000000000006020830152604082019050919050565b6000611c9d60248361216b565b91507f45524332303a20617070726f76652066726f6d20746865207a65726f2061646460008301527f72657373000000000000000000000000000000000000000000000000000000006020830152604082019050919050565b6000611d03602a8361216b565b91507f4f6e6c79204d6f636b20506f7765722063616e206d696e74206f6e204d6f636b60008301527f204265686f646c65722e000000000000000000000000000000000000000000006020830152604082019050919050565b6000611d6960258361216b565b91507f45524332303a2064656372656173656420616c6c6f77616e63652062656c6f7760008301527f207a65726f0000000000000000000000000000000000000000000000000000006020830152604082019050919050565b6000611dcf601f8361216b565b91507f45524332303a206d696e7420746f20746865207a65726f2061646472657373006000830152602082019050919050565b611e0b8161229e565b82525050565b611e1a816122a8565b82525050565b6000602082019050611e35600083018461182a565b92915050565b6000606082019050611e50600083018661182a565b611e5d6020830185611e02565b8181036040830152611e6f8184611848565b9050949350505050565b6000602082019050611e8e6000830184611839565b92915050565b60006020820190508181036000830152611eae8184611881565b905092915050565b60006020820190508181036000830152611ecf816118ba565b9050919050565b60006020820190508181036000830152611eef81611920565b9050919050565b60006020820190508181036000830152611f0f81611986565b9050919050565b60006020820190508181036000830152611f2f816119ec565b9050919050565b60006020820190508181036000830152611f4f81611a52565b9050919050565b60006020820190508181036000830152611f6f81611ab8565b9050919050565b60006020820190508181036000830152611f8f81611b1e565b9050919050565b60006020820190508181036000830152611faf81611b5e565b9050919050565b60006020820190508181036000830152611fcf81611bc4565b9050919050565b60006020820190508181036000830152611fef81611c2a565b9050919050565b6000602082019050818103600083015261200f81611c90565b9050919050565b6000602082019050818103600083015261202f81611cf6565b9050919050565b6000602082019050818103600083015261204f81611d5c565b9050919050565b6000602082019050818103600083015261206f81611dc2565b9050919050565b600060208201905061208b6000830184611e02565b92915050565b60006060820190506120a66000830186611e02565b6120b36020830185611e02565b6120c0604083018461182a565b949350505050565b60006020820190506120dd6000830184611e11565b92915050565b6000604051905081810181811067ffffffffffffffff8211171561210a57612109612387565b5b8060405250919050565b600067ffffffffffffffff82111561212f5761212e612387565b5b601f19601f8301169050602081019050919050565b600081519050919050565b600081519050919050565b600082825260208201905092915050565b600082825260208201905092915050565b60006121878261229e565b91506121928361229e565b9250827fffffffffffffffffffffffffffffffffffffffffffffffffffffffffffffffff038211156121c7576121c6612329565b5b828201905092915050565b60006121dd8261229e565b91506121e88361229e565b9250817fffffffffffffffffffffffffffffffffffffffffffffffffffffffffffffffff048311821515161561222157612220612329565b5b828202905092915050565b60006122378261229e565b91506122428361229e565b92508282101561225557612254612329565b5b828203905092915050565b600061226b8261227e565b9050919050565b60008115159050919050565b600073ffffffffffffffffffffffffffffffffffffffff82169050919050565b6000819050919050565b600060ff82169050919050565b82818337600083830152505050565b60005b838110156122e25780820151818401526020810190506122c7565b838111156122f1576000848401525b50505050565b6000600282049050600182168061230f57607f821691505b6020821081141561232357612322612358565b5b50919050565b7f4e487b7100000000000000000000000000000000000000000000000000000000600052601160045260246000fd5b7f4e487b7100000000000000000000000000000000000000000000000000000000600052602260045260246000fd5b7f4e487b7100000000000000000000000000000000000000000000000000000000600052604160045260246000fd5b6000601f19601f8301169050919050565b6123d081612260565b81146123db57600080fd5b50565b6123e78161229e565b81146123f257600080fd5b5056fea26469706673582212202f3ed4d718d246df8717255a35fd108abc696dd6c2386650f7d3760268fe20a064736f6c63430008000033",
  "devdoc": {
    "kind": "dev",
    "methods": {
      "allowance(address,address)": {
        "details": "See {IERC20-allowance}."
      },
      "approve(address,uint256)": {
        "details": "See {IERC20-approve}. Requirements: - `spender` cannot be the zero address."
      },
      "balanceOf(address)": {
        "details": "See {IERC20-balanceOf}."
      },
      "burn(uint256)": {
        "details": "Destroys `amount` tokens from the caller. See {ERC20-_burn}."
      },
      "burnFrom(address,uint256)": {
        "details": "Destroys `amount` tokens from `account`, deducting from the caller's allowance. See {ERC20-_burn} and {ERC20-allowance}. Requirements: - the caller must have allowance for ``accounts``'s tokens of at least `amount`."
      },
      "decimals()": {
        "details": "Returns the number of decimals used to get its user representation. For example, if `decimals` equals `2`, a balance of `505` tokens should be displayed to a user as `5,05` (`505 / 10 ** 2`). Tokens usually opt for a value of 18, imitating the relationship between Ether and Wei. This is the value {ERC20} uses, unless this function is overridden; NOTE: This information is only used for _display_ purposes: it in no way affects any of the arithmetic of the contract, including {IERC20-balanceOf} and {IERC20-transfer}."
      },
      "decreaseAllowance(address,uint256)": {
        "details": "Atomically decreases the allowance granted to `spender` by the caller. This is an alternative to {approve} that can be used as a mitigation for problems described in {IERC20-approve}. Emits an {Approval} event indicating the updated allowance. Requirements: - `spender` cannot be the zero address. - `spender` must have allowance for the caller of at least `subtractedValue`."
      },
      "increaseAllowance(address,uint256)": {
        "details": "Atomically increases the allowance granted to `spender` by the caller. This is an alternative to {approve} that can be used as a mitigation for problems described in {IERC20-approve}. Emits an {Approval} event indicating the updated allowance. Requirements: - `spender` cannot be the zero address."
      },
      "name()": {
        "details": "Returns the name of the token."
      },
      "owner()": {
        "details": "Returns the address of the current owner."
      },
      "renounceOwnership()": {
        "details": "Leaves the contract without owner. It will not be possible to call `onlyOwner` functions anymore. Can only be called by the current owner. NOTE: Renouncing ownership will leave the contract without an owner, thereby removing any functionality that is only available to the owner."
      },
      "symbol()": {
        "details": "Returns the symbol of the token, usually a shorter version of the name."
      },
      "totalSupply()": {
        "details": "See {IERC20-totalSupply}."
      },
      "transfer(address,uint256)": {
        "details": "See {IERC20-transfer}. Requirements: - `recipient` cannot be the zero address. - the caller must have a balance of at least `amount`."
      },
      "transferAndCall(address,uint256,bytes)": {
        "details": "transfer token to a contract address with additional data if the recipient is a contact.",
        "params": {
          "_data": "The extra data to be passed to the receiving contract.",
          "_to": "The address to transfer to.",
          "_value": "The amount to be transferred."
        }
      },
      "transferFrom(address,address,uint256)": {
        "details": "See {IERC20-transferFrom}. Emits an {Approval} event indicating the updated allowance. This is not required by the EIP. See the note at the beginning of {ERC20}. Requirements: - `sender` and `recipient` cannot be the zero address. - `sender` must have a balance of at least `amount`. - the caller must have allowance for ``sender``'s tokens of at least `amount`."
      },
      "transferOwnership(address)": {
        "details": "Transfers ownership of the contract to a new account (`newOwner`). Can only be called by the current owner."
      }
    },
    "version": 1
  },
  "userdoc": {
    "kind": "user",
    "methods": {},
    "version": 1
  },
  "storageLayout": {
    "storage": [
      {
        "astId": 3903,
        "contract": "contracts/testing/MockBehodler.sol:MockBehodler",
        "label": "_balances",
        "offset": 0,
        "slot": "0",
        "type": "t_mapping(t_address,t_uint256)"
      },
      {
        "astId": 3909,
        "contract": "contracts/testing/MockBehodler.sol:MockBehodler",
        "label": "_allowances",
        "offset": 0,
        "slot": "1",
        "type": "t_mapping(t_address,t_mapping(t_address,t_uint256))"
      },
      {
        "astId": 3911,
        "contract": "contracts/testing/MockBehodler.sol:MockBehodler",
        "label": "_totalSupply",
        "offset": 0,
        "slot": "2",
        "type": "t_uint256"
      },
      {
        "astId": 3913,
        "contract": "contracts/testing/MockBehodler.sol:MockBehodler",
        "label": "_name",
        "offset": 0,
        "slot": "3",
        "type": "t_string_storage"
      },
      {
        "astId": 3915,
        "contract": "contracts/testing/MockBehodler.sol:MockBehodler",
        "label": "_symbol",
        "offset": 0,
        "slot": "4",
        "type": "t_string_storage"
      },
      {
        "astId": 7,
        "contract": "contracts/testing/MockBehodler.sol:MockBehodler",
        "label": "_owner",
        "offset": 0,
        "slot": "5",
        "type": "t_address"
      },
      {
        "astId": 8070,
        "contract": "contracts/testing/MockBehodler.sol:MockBehodler",
        "label": "addTokenPower",
        "offset": 0,
        "slot": "6",
        "type": "t_address"
      },
      {
        "astId": 8073,
        "contract": "contracts/testing/MockBehodler.sol:MockBehodler",
        "label": "priceMultiplier",
        "offset": 0,
        "slot": "7",
        "type": "t_uint256"
      },
      {
        "astId": 8161,
        "contract": "contracts/testing/MockBehodler.sol:MockBehodler",
        "label": "MickyMouseToken",
        "offset": 0,
        "slot": "8",
        "type": "t_address"
      }
    ],
    "types": {
      "t_address": {
        "encoding": "inplace",
        "label": "address",
        "numberOfBytes": "20"
      },
      "t_mapping(t_address,t_mapping(t_address,t_uint256))": {
        "encoding": "mapping",
        "key": "t_address",
        "label": "mapping(address => mapping(address => uint256))",
        "numberOfBytes": "32",
        "value": "t_mapping(t_address,t_uint256)"
      },
      "t_mapping(t_address,t_uint256)": {
        "encoding": "mapping",
        "key": "t_address",
        "label": "mapping(address => uint256)",
        "numberOfBytes": "32",
        "value": "t_uint256"
      },
      "t_string_storage": {
        "encoding": "bytes",
        "label": "string",
        "numberOfBytes": "32"
      },
      "t_uint256": {
        "encoding": "inplace",
        "label": "uint256",
        "numberOfBytes": "32"
      }
    }
  }
}