{
  "address": "0x2216f3c356872DE0e2A014f57AB3b7621f3449cb",
  "abi": [
    {
      "inputs": [
        {
          "internalType": "address",
          "name": "_dao",
          "type": "address"
        },
        {
          "internalType": "address",
          "name": "whitelistingProposal",
          "type": "address"
        },
        {
          "internalType": "address",
          "name": "_soulUpdateProposal",
          "type": "address"
        }
      ],
      "stateMutability": "nonpayable",
      "type": "constructor"
    },
    {
      "anonymous": false,
      "inputs": [
        {
          "indexed": true,
          "internalType": "address",
          "name": "previousOwner",
          "type": "address"
        },
        {
          "indexed": true,
          "internalType": "address",
          "name": "newOwner",
          "type": "address"
        }
      ],
      "name": "OwnershipTransferred",
      "type": "event"
    },
    {
      "inputs": [],
      "name": "DAO",
      "outputs": [
        {
          "internalType": "address",
          "name": "",
          "type": "address"
        }
      ],
      "stateMutability": "view",
      "type": "function"
    },
    {
      "inputs": [
        {
          "internalType": "address",
          "name": "newProposal",
          "type": "address"
        }
      ],
      "name": "changeSoulUpdateProposal",
      "outputs": [],
      "stateMutability": "nonpayable",
      "type": "function"
    },
    {
      "inputs": [],
      "name": "configured",
      "outputs": [
        {
          "internalType": "bool",
          "name": "",
          "type": "bool"
        }
      ],
      "stateMutability": "view",
      "type": "function"
    },
    {
      "inputs": [],
      "name": "endConfiguration",
      "outputs": [],
      "stateMutability": "nonpayable",
      "type": "function"
    },
    {
      "inputs": [
        {
          "internalType": "address",
          "name": "proposal",
          "type": "address"
        }
      ],
      "name": "lodgeProposal",
      "outputs": [],
      "stateMutability": "nonpayable",
      "type": "function"
    },
    {
      "inputs": [],
      "name": "owner",
      "outputs": [
        {
          "internalType": "address",
          "name": "",
          "type": "address"
        }
      ],
      "stateMutability": "view",
      "type": "function"
    },
    {
      "inputs": [],
      "name": "renounceOwnership",
      "outputs": [],
      "stateMutability": "nonpayable",
      "type": "function"
    },
    {
      "inputs": [
        {
          "internalType": "address",
          "name": "dao",
          "type": "address"
        }
      ],
      "name": "setDAO",
      "outputs": [],
      "stateMutability": "nonpayable",
      "type": "function"
    },
    {
      "inputs": [],
      "name": "soulUpdateProposal",
      "outputs": [
        {
          "internalType": "address",
          "name": "",
          "type": "address"
        }
      ],
      "stateMutability": "view",
      "type": "function"
    },
    {
      "inputs": [
        {
          "internalType": "address",
          "name": "proposal",
          "type": "address"
        }
      ],
      "name": "toggleWhitelistProposal",
      "outputs": [],
      "stateMutability": "nonpayable",
      "type": "function"
    },
    {
      "inputs": [
        {
          "internalType": "address",
          "name": "newOwner",
          "type": "address"
        }
      ],
      "name": "transferOwnership",
      "outputs": [],
      "stateMutability": "nonpayable",
      "type": "function"
    },
    {
      "inputs": [
        {
          "internalType": "address",
          "name": "",
          "type": "address"
        }
      ],
      "name": "whitelistedProposalContracts",
      "outputs": [
        {
          "internalType": "bool",
          "name": "",
          "type": "bool"
        }
      ],
      "stateMutability": "view",
      "type": "function"
    }
  ],
  "transactionHash": "0x469d101f5a7c7f38a293e755a2903756c4c00bb3321d8aab0fecc8b0c51d3dd3",
  "args": [
    "0x8c9bd714e2598860E56a4D9E675E717665204442",
    "0xa37e010A79f8156de749806068860A3D01366F2c",
    "0xE88d33eBf2868dd48B77D86f23b0515b10c7E5b1"
  ],
  "solcInputHash": "3b633f60859fc01482cc6a8d04cca0a0",
  "bytecode": "0x60806040523480156200001157600080fd5b506040516200144338038062001443833981810160405281019062000037919062000480565b8262000049816200016460201b60201c565b506200006a6200005e6200036f60201b60201c565b6200037760201b60201c565b6001600360008473ffffffffffffffffffffffffffffffffffffffff1673ffffffffffffffffffffffffffffffffffffffff16815260200190815260200160002060006101000a81548160ff0219169083151502179055506001600360008373ffffffffffffffffffffffffffffffffffffffff1673ffffffffffffffffffffffffffffffffffffffff16815260200190815260200160002060006101000a81548160ff02191690831515021790555080600460006101000a81548173ffffffffffffffffffffffffffffffffffffffff021916908373ffffffffffffffffffffffffffffffffffffffff16021790555050505062000599565b600073ffffffffffffffffffffffffffffffffffffffff16600160009054906101000a900473ffffffffffffffffffffffffffffffffffffffff1673ffffffffffffffffffffffffffffffffffffffff1614806200020f5750600160009054906101000a900473ffffffffffffffffffffffffffffffffffffffff1673ffffffffffffffffffffffffffffffffffffffff163373ffffffffffffffffffffffffffffffffffffffff16145b80620002285750600060149054906101000a900460ff16155b6200026a576040517f08c379a0000000000000000000000000000000000000000000000000000000008152600401620002619062000518565b60405180910390fd5b80600160006101000a81548173ffffffffffffffffffffffffffffffffffffffff021916908373ffffffffffffffffffffffffffffffffffffffff1602179055508073ffffffffffffffffffffffffffffffffffffffff16632317beae6040518163ffffffff1660e01b815260040160206040518083038186803b158015620002f257600080fd5b505afa15801562000307573d6000803e3d6000fd5b505050506040513d601f19601f820116820180604052508101906200032d919062000454565b6000806101000a81548173ffffffffffffffffffffffffffffffffffffffff021916908373ffffffffffffffffffffffffffffffffffffffff16021790555050565b600033905090565b6000600260009054906101000a900473ffffffffffffffffffffffffffffffffffffffff16905081600260006101000a81548173ffffffffffffffffffffffffffffffffffffffff021916908373ffffffffffffffffffffffffffffffffffffffff1602179055508173ffffffffffffffffffffffffffffffffffffffff168173ffffffffffffffffffffffffffffffffffffffff167f8be0079c531659141344cd1fd0a4f28419497f9722a3daafe3b4186f6b6457e060405160405180910390a35050565b6000815190506200044e816200057f565b92915050565b6000602082840312156200046757600080fd5b600062000477848285016200043d565b91505092915050565b6000806000606084860312156200049657600080fd5b6000620004a6868287016200043d565b9350506020620004b9868287016200043d565b9250506040620004cc868287016200043d565b9150509250925092565b6000620004e56002836200053a565b91507f454b0000000000000000000000000000000000000000000000000000000000006000830152602082019050919050565b600060208201905081810360008301526200053381620004d6565b9050919050565b600082825260208201905092915050565b600062000558826200055f565b9050919050565b600073ffffffffffffffffffffffffffffffffffffffff82169050919050565b6200058a816200054b565b81146200059657600080fd5b50565b610e9a80620005a96000396000f3fe608060405234801561001057600080fd5b50600436106100b45760003560e01c80638da5cb5b116100715780638da5cb5b1461015557806398fabd3a14610173578063c371cd8f14610191578063e5f6f7fd146101ad578063e73a914c146101c9578063f2fde38b146101e5576100b4565b806331de3469146100b9578063478fa629146100d75780634bdc4e33146100e15780636ac353b114610111578063715018a61461012d5780638772a23a14610137575b600080fd5b6100c1610201565b6040516100ce9190610ce8565b60405180910390f35b6100df610227565b005b6100fb60048036038101906100f69190610ae9565b610244565b6040516101089190610d2c565b60405180910390f35b61012b60048036038101906101269190610ae9565b610264565b005b610135610324565b005b61013f6103ac565b60405161014c9190610d2c565b60405180910390f35b61015d6103bf565b60405161016a9190610ce8565b60405180910390f35b61017b6103e9565b6040516101889190610ce8565b60405180910390f35b6101ab60048036038101906101a69190610ae9565b61040f565b005b6101c760048036038101906101c29190610ae9565b61052d565b005b6101e360048036038101906101de9190610ae9565b6105dd565b005b6101ff60048036038101906101fa9190610ae9565b6107df565b005b600460009054906101000a900473ffffffffffffffffffffffffffffffffffffffff1681565b6001600060146101000a81548160ff021916908315150217905550565b60036020528060005260406000206000915054906101000a900460ff1681565b61026c6108d7565b73ffffffffffffffffffffffffffffffffffffffff1661028a6103bf565b73ffffffffffffffffffffffffffffffffffffffff16146102e0576040517f08c379a00000000000000000000000000000000000000000000000000000000081526004016102d790610da7565b60405180910390fd5b80600460006101000a81548173ffffffffffffffffffffffffffffffffffffffff021916908373ffffffffffffffffffffffffffffffffffffffff16021790555050565b61032c6108d7565b73ffffffffffffffffffffffffffffffffffffffff1661034a6103bf565b73ffffffffffffffffffffffffffffffffffffffff16146103a0576040517f08c379a000000000000000000000000000000000000000000000000000000000815260040161039790610da7565b60405180910390fd5b6103aa60006108df565b565b600060149054906101000a900460ff1681565b6000600260009054906101000a900473ffffffffffffffffffffffffffffffffffffffff16905090565b600160009054906101000a900473ffffffffffffffffffffffffffffffffffffffff1681565b600360008273ffffffffffffffffffffffffffffffffffffffff1673ffffffffffffffffffffffffffffffffffffffff16815260200190815260200160002060009054906101000a900460ff1661049b576040517f08c379a000000000000000000000000000000000000000000000000000000000815260040161049290610dc7565b60405180910390fd5b600160009054906101000a900473ffffffffffffffffffffffffffffffffffffffff1673ffffffffffffffffffffffffffffffffffffffff1663bc7e7d5182336040518363ffffffff1660e01b81526004016104f8929190610d03565b600060405180830381600087803b15801561051257600080fd5b505af1158015610526573d6000803e3d6000fd5b5050505050565b610536336109a5565b600360008273ffffffffffffffffffffffffffffffffffffffff1673ffffffffffffffffffffffffffffffffffffffff16815260200190815260200160002060009054906101000a900460ff1615600360008373ffffffffffffffffffffffffffffffffffffffff1673ffffffffffffffffffffffffffffffffffffffff16815260200190815260200160002060006101000a81548160ff02191690831515021790555050565b600073ffffffffffffffffffffffffffffffffffffffff16600160009054906101000a900473ffffffffffffffffffffffffffffffffffffffff1673ffffffffffffffffffffffffffffffffffffffff1614806106875750600160009054906101000a900473ffffffffffffffffffffffffffffffffffffffff1673ffffffffffffffffffffffffffffffffffffffff163373ffffffffffffffffffffffffffffffffffffffff16145b8061069f5750600060149054906101000a900460ff16155b6106de576040517f08c379a00000000000000000000000000000000000000000000000000000000081526004016106d590610d67565b60405180910390fd5b80600160006101000a81548173ffffffffffffffffffffffffffffffffffffffff021916908373ffffffffffffffffffffffffffffffffffffffff1602179055508073ffffffffffffffffffffffffffffffffffffffff16632317beae6040518163ffffffff1660e01b815260040160206040518083038186803b15801561076557600080fd5b505afa158015610779573d6000803e3d6000fd5b505050506040513d601f19601f8201168201806040525081019061079d9190610b12565b6000806101000a81548173ffffffffffffffffffffffffffffffffffffffff021916908373ffffffffffffffffffffffffffffffffffffffff16021790555050565b6107e76108d7565b73ffffffffffffffffffffffffffffffffffffffff166108056103bf565b73ffffffffffffffffffffffffffffffffffffffff161461085b576040517f08c379a000000000000000000000000000000000000000000000000000000000815260040161085290610da7565b60405180910390fd5b600073ffffffffffffffffffffffffffffffffffffffff168173ffffffffffffffffffffffffffffffffffffffff1614156108cb576040517f08c379a00000000000000000000000000000000000000000000000000000000081526004016108c290610d47565b60405180910390fd5b6108d4816108df565b50565b600033905090565b6000600260009054906101000a900473ffffffffffffffffffffffffffffffffffffffff16905081600260006101000a81548173ffffffffffffffffffffffffffffffffffffffff021916908373ffffffffffffffffffffffffffffffffffffffff1602179055508173ffffffffffffffffffffffffffffffffffffffff168173ffffffffffffffffffffffffffffffffffffffff167f8be0079c531659141344cd1fd0a4f28419497f9722a3daafe3b4186f6b6457e060405160405180910390a35050565b600060149054906101000a900460ff161580610a685750600160009054906101000a900473ffffffffffffffffffffffffffffffffffffffff1673ffffffffffffffffffffffffffffffffffffffff1663b7ebc23b826040518263ffffffff1660e01b8152600401610a179190610ce8565b60206040518083038186803b158015610a2f57600080fd5b505afa158015610a43573d6000803e3d6000fd5b505050506040513d601f19601f82011682018060405250810190610a679190610b3b565b5b610aa7576040517f08c379a0000000000000000000000000000000000000000000000000000000008152600401610a9e90610d87565b60405180910390fd5b50565b600081359050610ab981610e36565b92915050565b600081519050610ace81610e36565b92915050565b600081519050610ae381610e4d565b92915050565b600060208284031215610afb57600080fd5b6000610b0984828501610aaa565b91505092915050565b600060208284031215610b2457600080fd5b6000610b3284828501610abf565b91505092915050565b600060208284031215610b4d57600080fd5b6000610b5b84828501610ad4565b91505092915050565b610b6d81610df8565b82525050565b610b7c81610e0a565b82525050565b6000610b8f602683610de7565b91507f4f776e61626c653a206e6577206f776e657220697320746865207a65726f206160008301527f64647265737300000000000000000000000000000000000000000000000000006020830152604082019050919050565b6000610bf5600283610de7565b91507f454b0000000000000000000000000000000000000000000000000000000000006000830152602082019050919050565b6000610c35600283610de7565b91507f454a0000000000000000000000000000000000000000000000000000000000006000830152602082019050919050565b6000610c75602083610de7565b91507f4f776e61626c653a2063616c6c6572206973206e6f7420746865206f776e65726000830152602082019050919050565b6000610cb5601a83610de7565b91507f4c696d626f44414f3a20696e76616c69642070726f706f73616c0000000000006000830152602082019050919050565b6000602082019050610cfd6000830184610b64565b92915050565b6000604082019050610d186000830185610b64565b610d256020830184610b64565b9392505050565b6000602082019050610d416000830184610b73565b92915050565b60006020820190508181036000830152610d6081610b82565b9050919050565b60006020820190508181036000830152610d8081610be8565b9050919050565b60006020820190508181036000830152610da081610c28565b9050919050565b60006020820190508181036000830152610dc081610c68565b9050919050565b60006020820190508181036000830152610de081610ca8565b9050919050565b600082825260208201905092915050565b6000610e0382610e16565b9050919050565b60008115159050919050565b600073ffffffffffffffffffffffffffffffffffffffff82169050919050565b610e3f81610df8565b8114610e4a57600080fd5b50565b610e5681610e0a565b8114610e6157600080fd5b5056fea264697066735822122007414777acb33589062514532a19d40d1a8ea25e630765099903247f95e7736a64736f6c63430008000033",
  "devdoc": {
    "kind": "dev",
    "methods": {
      "owner()": {
        "details": "Returns the address of the current owner."
      },
      "renounceOwnership()": {
        "details": "Leaves the contract without owner. It will not be possible to call `onlyOwner` functions anymore. Can only be called by the current owner. NOTE: Renouncing ownership will leave the contract without an owner, thereby removing any functionality that is only available to the owner."
      },
      "transferOwnership(address)": {
        "details": "Transfers ownership of the contract to a new account (`newOwner`). Can only be called by the current owner."
      }
    },
    "version": 1
  },
  "userdoc": {
    "kind": "user",
    "methods": {},
    "version": 1
  },
  "storageLayout": {
    "storage": [
      {
        "astId": 1206,
        "contract": "contracts/DAO/ProposalFactory.sol:ProposalFactory",
        "label": "flashGoverner",
        "offset": 0,
        "slot": "0",
        "type": "t_contract(FlashGovernanceArbiterLike)7575"
      },
      {
        "astId": 1208,
        "contract": "contracts/DAO/ProposalFactory.sol:ProposalFactory",
        "label": "configured",
        "offset": 20,
        "slot": "0",
        "type": "t_bool"
      },
      {
        "astId": 1210,
        "contract": "contracts/DAO/ProposalFactory.sol:ProposalFactory",
        "label": "DAO",
        "offset": 0,
        "slot": "1",
        "type": "t_address"
      },
      {
        "astId": 7,
        "contract": "contracts/DAO/ProposalFactory.sol:ProposalFactory",
        "label": "_owner",
        "offset": 0,
        "slot": "2",
        "type": "t_address"
      },
      {
        "astId": 2985,
        "contract": "contracts/DAO/ProposalFactory.sol:ProposalFactory",
        "label": "whitelistedProposalContracts",
        "offset": 0,
        "slot": "3",
        "type": "t_mapping(t_address,t_bool)"
      },
      {
        "astId": 2987,
        "contract": "contracts/DAO/ProposalFactory.sol:ProposalFactory",
        "label": "soulUpdateProposal",
        "offset": 0,
        "slot": "4",
        "type": "t_address"
      }
    ],
    "types": {
      "t_address": {
        "encoding": "inplace",
        "label": "address",
        "numberOfBytes": "20"
      },
      "t_bool": {
        "encoding": "inplace",
        "label": "bool",
        "numberOfBytes": "1"
      },
      "t_contract(FlashGovernanceArbiterLike)7575": {
        "encoding": "inplace",
        "label": "contract FlashGovernanceArbiterLike",
        "numberOfBytes": "20"
      },
      "t_mapping(t_address,t_bool)": {
        "encoding": "mapping",
        "key": "t_address",
        "label": "mapping(address => bool)",
        "numberOfBytes": "32",
        "value": "t_bool"
      }
    }
  }
}