{
  "address": "0xB9f5A0Ad0B8F3b3C704C9b071f753F73Cc8843bE",
  "abi": [
    {
      "inputs": [
        {
          "internalType": "address",
          "name": "dao",
          "type": "address"
        }
      ],
      "stateMutability": "nonpayable",
      "type": "constructor"
    },
    {
      "inputs": [
        {
          "internalType": "address",
          "name": "token",
          "type": "address"
        }
      ],
      "name": "CrossingParameters",
      "outputs": [
        {
          "internalType": "uint256",
          "name": "",
          "type": "uint256"
        },
        {
          "internalType": "int256",
          "name": "",
          "type": "int256"
        },
        {
          "internalType": "uint256",
          "name": "",
          "type": "uint256"
        }
      ],
      "stateMutability": "view",
      "type": "function"
    },
    {
      "inputs": [],
      "name": "DAO",
      "outputs": [
        {
          "internalType": "address",
          "name": "",
          "type": "address"
        }
      ],
      "stateMutability": "view",
      "type": "function"
    },
    {
      "inputs": [
        {
          "internalType": "address",
          "name": "token",
          "type": "address"
        }
      ],
      "name": "SoulStats",
      "outputs": [
        {
          "internalType": "uint256",
          "name": "",
          "type": "uint256"
        },
        {
          "internalType": "uint256",
          "name": "",
          "type": "uint256"
        },
        {
          "internalType": "uint256",
          "name": "",
          "type": "uint256"
        }
      ],
      "stateMutability": "view",
      "type": "function"
    },
    {
      "inputs": [],
      "name": "configured",
      "outputs": [
        {
          "internalType": "bool",
          "name": "",
          "type": "bool"
        }
      ],
      "stateMutability": "view",
      "type": "function"
    },
    {
      "inputs": [],
      "name": "endConfiguration",
      "outputs": [],
      "stateMutability": "nonpayable",
      "type": "function"
    },
    {
      "inputs": [
        {
          "internalType": "address",
          "name": "dao",
          "type": "address"
        }
      ],
      "name": "setDAO",
      "outputs": [],
      "stateMutability": "nonpayable",
      "type": "function"
    }
  ],
  "transactionHash": "0xecdf8cd6990ed83b270b7df54d33d2a215b109dd332646ad582cf18973e9c1e3",
  "args": [
    "0x8c9bd714e2598860E56a4D9E675E717665204442"
  ],
  "solcInputHash": "3b633f60859fc01482cc6a8d04cca0a0",
  "bytecode": "0x60806040523480156200001157600080fd5b50604051620011553803806200115583398181016040528101906200003791906200035a565b8062000049816200012160201b60201c565b5060008173ffffffffffffffffffffffffffffffffffffffff1663e8d9735f6040518163ffffffff1660e01b815260040160e060405180830381600087803b1580156200009557600080fd5b505af1158015620000aa573d6000803e3d6000fd5b505050506040513d601f19601f82011682018060405250810190620000d0919062000386565b505050505050905080600260006101000a81548173ffffffffffffffffffffffffffffffffffffffff021916908373ffffffffffffffffffffffffffffffffffffffff16021790555050506200051c565b600073ffffffffffffffffffffffffffffffffffffffff16600160009054906101000a900473ffffffffffffffffffffffffffffffffffffffff1673ffffffffffffffffffffffffffffffffffffffff161480620001cc5750600160009054906101000a900473ffffffffffffffffffffffffffffffffffffffff1673ffffffffffffffffffffffffffffffffffffffff163373ffffffffffffffffffffffffffffffffffffffff16145b80620001e55750600060149054906101000a900460ff16155b62000227576040517f08c379a00000000000000000000000000000000000000000000000000000000081526004016200021e9062000475565b60405180910390fd5b80600160006101000a81548173ffffffffffffffffffffffffffffffffffffffff021916908373ffffffffffffffffffffffffffffffffffffffff1602179055508073ffffffffffffffffffffffffffffffffffffffff16632317beae6040518163ffffffff1660e01b815260040160206040518083038186803b158015620002af57600080fd5b505afa158015620002c4573d6000803e3d6000fd5b505050506040513d601f19601f82011682018060405250810190620002ea91906200035a565b6000806101000a81548173ffffffffffffffffffffffffffffffffffffffff021916908373ffffffffffffffffffffffffffffffffffffffff16021790555050565b6000815190506200033d81620004e8565b92915050565b600081519050620003548162000502565b92915050565b6000602082840312156200036d57600080fd5b60006200037d848285016200032c565b91505092915050565b600080600080600080600060e0888a031215620003a257600080fd5b6000620003b28a828b016200032c565b9750506020620003c58a828b016200032c565b9650506040620003d88a828b016200032c565b9550506060620003eb8a828b016200032c565b9450506080620003fe8a828b0162000343565b93505060a0620004118a828b016200032c565b92505060c0620004248a828b016200032c565b91505092959891949750929550565b60006200044260028362000497565b91507f454b0000000000000000000000000000000000000000000000000000000000006000830152602082019050919050565b60006020820190508181036000830152620004908162000433565b9050919050565b600082825260208201905092915050565b6000620004b582620004c8565b9050919050565b60008115159050919050565b600073ffffffffffffffffffffffffffffffffffffffff82169050919050565b620004f381620004a8565b8114620004ff57600080fd5b50565b6200050d81620004bc565b81146200051957600080fd5b50565b610c29806200052c6000396000f3fe608060405234801561001057600080fd5b50600436106100625760003560e01c8063478fa62914610067578063534a763f146100715780635c832e93146100a35780638772a23a146100d557806398fabd3a146100f3578063e73a914c14610111575b600080fd5b61006f61012d565b005b61008b60048036038101906100869190610850565b61014a565b60405161009a93929190610afd565b60405180910390f35b6100bd60048036038101906100b89190610850565b610378565b6040516100cc93929190610ac6565b60405180910390f35b6100dd6105ac565b6040516100ea9190610a8b565b60405180910390f35b6100fb6105bf565b6040516101089190610a47565b60405180910390f35b61012b60048036038101906101269190610850565b6105e5565b005b6001600060146101000a81548160ff021916908315150217905550565b600080600080600260009054906101000a900473ffffffffffffffffffffffffffffffffffffffff1673ffffffffffffffffffffffffffffffffffffffff1663057e9b96866040518263ffffffff1660e01b81526004016101ab9190610a47565b60206040518083038186803b1580156101c357600080fd5b505afa1580156101d7573d6000803e3d6000fd5b505050506040513d601f19601f820116820180604052508101906101fb91906108a2565b9050600080600260009054906101000a900473ffffffffffffffffffffffffffffffffffffffff1673ffffffffffffffffffffffffffffffffffffffff1663c12cbe8688856040518363ffffffff1660e01b815260040161025d929190610a62565b60c06040518083038186803b15801561027557600080fd5b505afa158015610289573d6000803e3d6000fd5b505050506040513d601f19601f820116820180604052508101906102ad9190610942565b955095505050505060008773ffffffffffffffffffffffffffffffffffffffff166370a08231600260009054906101000a900473ffffffffffffffffffffffffffffffffffffffff166040518263ffffffff1660e01b81526004016103129190610a47565b60206040518083038186803b15801561032a57600080fd5b505afa15801561033e573d6000803e3d6000fd5b505050506040513d601f19601f8201168201806040525081019061036291906108a2565b9050828183965096509650505050509193909250565b600080600080600260009054906101000a900473ffffffffffffffffffffffffffffffffffffffff1673ffffffffffffffffffffffffffffffffffffffff1663057e9b96866040518263ffffffff1660e01b81526004016103d99190610a47565b60206040518083038186803b1580156103f157600080fd5b505afa158015610405573d6000803e3d6000fd5b505050506040513d601f19601f8201168201806040525081019061042991906108a2565b90506000600260009054906101000a900473ffffffffffffffffffffffffffffffffffffffff1673ffffffffffffffffffffffffffffffffffffffff1663c12cbe8687846040518363ffffffff1660e01b815260040161048a929190610a62565b60c06040518083038186803b1580156104a257600080fd5b505afa1580156104b6573d6000803e3d6000fd5b505050506040513d601f19601f820116820180604052508101906104da9190610942565b95505050505050600080600260009054906101000a900473ffffffffffffffffffffffffffffffffffffffff1673ffffffffffffffffffffffffffffffffffffffff166325c2c38989866040518363ffffffff1660e01b8152600401610541929190610a62565b60a06040518083038186803b15801561055957600080fd5b505afa15801561056d573d6000803e3d6000fd5b505050506040513d601f19601f8201168201806040525081019061059191906108cb565b50935093505050808284965096509650505050509193909250565b600060149054906101000a900460ff1681565b600160009054906101000a900473ffffffffffffffffffffffffffffffffffffffff1681565b600073ffffffffffffffffffffffffffffffffffffffff16600160009054906101000a900473ffffffffffffffffffffffffffffffffffffffff1673ffffffffffffffffffffffffffffffffffffffff16148061068f5750600160009054906101000a900473ffffffffffffffffffffffffffffffffffffffff1673ffffffffffffffffffffffffffffffffffffffff163373ffffffffffffffffffffffffffffffffffffffff16145b806106a75750600060149054906101000a900460ff16155b6106e6576040517f08c379a00000000000000000000000000000000000000000000000000000000081526004016106dd90610aa6565b60405180910390fd5b80600160006101000a81548173ffffffffffffffffffffffffffffffffffffffff021916908373ffffffffffffffffffffffffffffffffffffffff1602179055508073ffffffffffffffffffffffffffffffffffffffff16632317beae6040518163ffffffff1660e01b815260040160206040518083038186803b15801561076d57600080fd5b505afa158015610781573d6000803e3d6000fd5b505050506040513d601f19601f820116820180604052508101906107a59190610879565b6000806101000a81548173ffffffffffffffffffffffffffffffffffffffff021916908373ffffffffffffffffffffffffffffffffffffffff16021790555050565b6000813590506107f681610b97565b92915050565b60008151905061080b81610b97565b92915050565b60008151905061082081610bae565b92915050565b60008151905061083581610bc5565b92915050565b60008151905061084a81610bdc565b92915050565b60006020828403121561086257600080fd5b6000610870848285016107e7565b91505092915050565b60006020828403121561088b57600080fd5b6000610899848285016107fc565b91505092915050565b6000602082840312156108b457600080fd5b60006108c28482850161083b565b91505092915050565b600080600080600060a086880312156108e357600080fd5b60006108f18882890161083b565b95505060206109028882890161083b565b945050604061091388828901610826565b93505060606109248882890161083b565b925050608061093588828901610811565b9150509295509295909350565b60008060008060008060c0878903121561095b57600080fd5b600061096989828a0161083b565b965050602061097a89828a0161083b565b955050604061098b89828a0161083b565b945050606061099c89828a0161083b565b93505060806109ad89828a0161083b565b92505060a06109be89828a0161083b565b9150509295509295509295565b6109d481610b45565b82525050565b6109e381610b57565b82525050565b6109f281610b63565b82525050565b6000610a05600283610b34565b91507f454b0000000000000000000000000000000000000000000000000000000000006000830152602082019050919050565b610a4181610b8d565b82525050565b6000602082019050610a5c60008301846109cb565b92915050565b6000604082019050610a7760008301856109cb565b610a846020830184610a38565b9392505050565b6000602082019050610aa060008301846109da565b92915050565b60006020820190508181036000830152610abf816109f8565b9050919050565b6000606082019050610adb6000830186610a38565b610ae860208301856109e9565b610af56040830184610a38565b949350505050565b6000606082019050610b126000830186610a38565b610b1f6020830185610a38565b610b2c6040830184610a38565b949350505050565b600082825260208201905092915050565b6000610b5082610b6d565b9050919050565b60008115159050919050565b6000819050919050565b600073ffffffffffffffffffffffffffffffffffffffff82169050919050565b6000819050919050565b610ba081610b45565b8114610bab57600080fd5b50565b610bb781610b57565b8114610bc257600080fd5b50565b610bce81610b63565b8114610bd957600080fd5b50565b610be581610b8d565b8114610bf057600080fd5b5056fea2646970667358221220b2cd6cbc64a9b4e9b742bf1a2ba8738afb6cf941e0006b171597075dbe96c03e64736f6c63430008000033",
  "devdoc": {
    "kind": "dev",
    "methods": {},
    "version": 1
  },
  "userdoc": {
    "kind": "user",
    "methods": {},
    "version": 1
  },
  "storageLayout": {
    "storage": [
      {
        "astId": 1206,
        "contract": "contracts/periphery/SoulReader.sol:SoulReader",
        "label": "flashGoverner",
        "offset": 0,
        "slot": "0",
        "type": "t_contract(FlashGovernanceArbiterLike)7575"
      },
      {
        "astId": 1208,
        "contract": "contracts/periphery/SoulReader.sol:SoulReader",
        "label": "configured",
        "offset": 20,
        "slot": "0",
        "type": "t_bool"
      },
      {
        "astId": 1210,
        "contract": "contracts/periphery/SoulReader.sol:SoulReader",
        "label": "DAO",
        "offset": 0,
        "slot": "1",
        "type": "t_address"
      },
      {
        "astId": 7841,
        "contract": "contracts/periphery/SoulReader.sol:SoulReader",
        "label": "limbo",
        "offset": 0,
        "slot": "2",
        "type": "t_contract(LimboLike)7744"
      }
    ],
    "types": {
      "t_address": {
        "encoding": "inplace",
        "label": "address",
        "numberOfBytes": "20"
      },
      "t_bool": {
        "encoding": "inplace",
        "label": "bool",
        "numberOfBytes": "1"
      },
      "t_contract(FlashGovernanceArbiterLike)7575": {
        "encoding": "inplace",
        "label": "contract FlashGovernanceArbiterLike",
        "numberOfBytes": "20"
      },
      "t_contract(LimboLike)7744": {
        "encoding": "inplace",
        "label": "contract LimboLike",
        "numberOfBytes": "20"
      }
    }
  }
}