{
  "address": "0x1E4691302632e8C2a207736ED1BedAfe2D64b5e1",
  "abi": [
    {
      "inputs": [
        {
          "internalType": "address",
          "name": "_limbo",
          "type": "address"
        },
        {
          "internalType": "address",
          "name": "limboDAO",
          "type": "address"
        }
      ],
      "stateMutability": "nonpayable",
      "type": "constructor"
    },
    {
      "inputs": [],
      "name": "DAO",
      "outputs": [
        {
          "internalType": "address",
          "name": "",
          "type": "address"
        }
      ],
      "stateMutability": "view",
      "type": "function"
    },
    {
      "inputs": [],
      "name": "blackHole",
      "outputs": [
        {
          "internalType": "address",
          "name": "",
          "type": "address"
        }
      ],
      "stateMutability": "view",
      "type": "function"
    },
    {
      "inputs": [
        {
          "internalType": "address",
          "name": "inputToken",
          "type": "address"
        },
        {
          "internalType": "uint256",
          "name": "amount",
          "type": "uint256"
        },
        {
          "internalType": "address",
          "name": "recipient",
          "type": "address"
        }
      ],
      "name": "buyFlanAndBurn",
      "outputs": [],
      "stateMutability": "nonpayable",
      "type": "function"
    },
    {
      "inputs": [
        {
          "internalType": "address",
          "name": "_limbo",
          "type": "address"
        },
        {
          "internalType": "address",
          "name": "FlanSCXPair",
          "type": "address"
        },
        {
          "internalType": "address",
          "name": "behodler",
          "type": "address"
        },
        {
          "internalType": "address",
          "name": "flan",
          "type": "address"
        },
        {
          "internalType": "uint256",
          "name": "divergenceTolerance",
          "type": "uint256"
        },
        {
          "internalType": "uint256",
          "name": "minQuoteWaitDuration",
          "type": "uint256"
        },
        {
          "internalType": "uint8",
          "name": "precision",
          "type": "uint8"
        },
        {
          "internalType": "uint8",
          "name": "priceBoostOvershoot",
          "type": "uint8"
        }
      ],
      "name": "configure",
      "outputs": [],
      "stateMutability": "nonpayable",
      "type": "function"
    },
    {
      "inputs": [],
      "name": "configured",
      "outputs": [
        {
          "internalType": "bool",
          "name": "",
          "type": "bool"
        }
      ],
      "stateMutability": "view",
      "type": "function"
    },
    {
      "inputs": [],
      "name": "endConfiguration",
      "outputs": [],
      "stateMutability": "nonpayable",
      "type": "function"
    },
    {
      "inputs": [],
      "name": "generateFLNQuote",
      "outputs": [],
      "stateMutability": "nonpayable",
      "type": "function"
    },
    {
      "inputs": [
        {
          "internalType": "uint256",
          "name": "",
          "type": "uint256"
        }
      ],
      "name": "latestFlanQuotes",
      "outputs": [
        {
          "internalType": "uint256",
          "name": "DaiScxSpotPrice",
          "type": "uint256"
        },
        {
          "internalType": "uint256",
          "name": "DaiBalanceOnBehodler",
          "type": "uint256"
        },
        {
          "internalType": "uint256",
          "name": "blockProduced",
          "type": "uint256"
        }
      ],
      "stateMutability": "view",
      "type": "function"
    },
    {
      "inputs": [
        {
          "internalType": "uint256",
          "name": "minAPY",
          "type": "uint256"
        },
        {
          "internalType": "uint256",
          "name": "daiThreshold",
          "type": "uint256"
        }
      ],
      "name": "minAPY_to_FPS",
      "outputs": [
        {
          "internalType": "uint256",
          "name": "fps",
          "type": "uint256"
        }
      ],
      "stateMutability": "view",
      "type": "function"
    },
    {
      "inputs": [
        {
          "internalType": "address",
          "name": "dai",
          "type": "address"
        }
      ],
      "name": "setDAI",
      "outputs": [],
      "stateMutability": "nonpayable",
      "type": "function"
    },
    {
      "inputs": [
        {
          "internalType": "address",
          "name": "dao",
          "type": "address"
        }
      ],
      "name": "setDAO",
      "outputs": [],
      "stateMutability": "nonpayable",
      "type": "function"
    },
    {
      "inputs": [
        {
          "internalType": "address",
          "name": "factory",
          "type": "address"
        }
      ],
      "name": "setFactory",
      "outputs": [],
      "stateMutability": "nonpayable",
      "type": "function"
    },
    {
      "inputs": [
        {
          "internalType": "uint256",
          "name": "rectangleOfFairness",
          "type": "uint256"
        }
      ],
      "name": "stabilizeFlan",
      "outputs": [
        {
          "internalType": "uint256",
          "name": "lpMinted",
          "type": "uint256"
        }
      ],
      "stateMutability": "nonpayable",
      "type": "function"
    }
  ],
  "transactionHash": "0x6bb6fc569330f1742b15aa8507110c7fc2d5d7959f0389e29882964cfd6e59b2",
  "args": [
    "0x4Cfde611c84E2318C01092Ade351479b71164203",
    "0x8c9bd714e2598860E56a4D9E675E717665204442"
  ],
  "solcInputHash": "3b633f60859fc01482cc6a8d04cca0a0",
  "bytecode": "0x60806040523480156200001157600080fd5b506040516200354b3803806200354b83398181016040528101906200003791906200040d565b806200004981620001b260201b60201c565b5081600260006101000a81548173ffffffffffffffffffffffffffffffffffffffff021916908373ffffffffffffffffffffffffffffffffffffffff1602179055506040516200009990620003bd565b604051809103906000f080158015620000b6573d6000803e3d6000fd5b50600960020160006101000a81548173ffffffffffffffffffffffffffffffffffffffff021916908373ffffffffffffffffffffffffffffffffffffffff160217905550735c69bee701ef814a2b6a3edd4b1652cb9cc5aa6f600960070160006101000a81548173ffffffffffffffffffffffffffffffffffffffff021916908373ffffffffffffffffffffffffffffffffffffffff160217905550736b175474e89094c44da98b954eedeac495271d0f600960060160006101000a81548173ffffffffffffffffffffffffffffffffffffffff021916908373ffffffffffffffffffffffffffffffffffffffff160217905550505062000511565b600073ffffffffffffffffffffffffffffffffffffffff16600160009054906101000a900473ffffffffffffffffffffffffffffffffffffffff1673ffffffffffffffffffffffffffffffffffffffff1614806200025d5750600160009054906101000a900473ffffffffffffffffffffffffffffffffffffffff1673ffffffffffffffffffffffffffffffffffffffff163373ffffffffffffffffffffffffffffffffffffffff16145b80620002765750600060149054906101000a900460ff16155b620002b8576040517f08c379a0000000000000000000000000000000000000000000000000000000008152600401620002af9062000490565b60405180910390fd5b80600160006101000a81548173ffffffffffffffffffffffffffffffffffffffff021916908373ffffffffffffffffffffffffffffffffffffffff1602179055508073ffffffffffffffffffffffffffffffffffffffff16632317beae6040518163ffffffff1660e01b815260040160206040518083038186803b1580156200034057600080fd5b505afa15801562000355573d6000803e3d6000fd5b505050506040513d601f19601f820116820180604052508101906200037b9190620003e1565b6000806101000a81548173ffffffffffffffffffffffffffffffffffffffff021916908373ffffffffffffffffffffffffffffffffffffffff16021790555050565b605c80620034ef83390190565b600081519050620003db81620004f7565b92915050565b600060208284031215620003f457600080fd5b60006200040484828501620003ca565b91505092915050565b600080604083850312156200042157600080fd5b60006200043185828601620003ca565b92505060206200044485828601620003ca565b9150509250929050565b60006200045d600283620004b2565b91507f454b0000000000000000000000000000000000000000000000000000000000006000830152602082019050919050565b60006020820190508181036000830152620004ab816200044e565b9050919050565b600082825260208201905092915050565b6000620004d082620004d7565b9050919050565b600073ffffffffffffffffffffffffffffffffffffffff82169050919050565b6200050281620004c3565b81146200050e57600080fd5b50565b612fce80620005216000396000f3fe608060405234801561001057600080fd5b50600436106100cf5760003560e01c80638772a23a1161008c5780639e90f9aa116100665780639e90f9aa146101d8578063ae480d96146101f6578063b97dbf5914610228578063e73a914c14610244576100cf565b80638772a23a146101805780638b8de7151461019e57806398fabd3a146101ba576100cf565b80633626339f146100d4578063421e5b4814610104578063432f31cb146101345780634492ffc914610150578063478fa6291461015a5780635bb4780814610164575b600080fd5b6100ee60048036038101906100e99190612679565b610260565b6040516100fb9190612bfd565b60405180910390f35b61011e600480360381019061011991906126cb565b610aad565b60405161012b9190612bfd565b60405180910390f35b61014e6004803603810190610149919061254f565b610b80565b005b610158610de4565b005b610162610f68565b005b61017e600480360381019061017991906124fd565b610f85565b005b610188611010565b6040516101959190612ab2565b60405180910390f35b6101b860048036038101906101b39190612601565b611023565b005b6101c261159d565b6040516101cf9190612a00565b60405180910390f35b6101e06115c3565b6040516101ed9190612a00565b60405180910390f35b610210600480360381019061020b9190612679565b6115f0565b60405161021f93929190612c62565b60405180910390f35b610242600480360381019061023d91906124fd565b611620565b005b61025e600480360381019061025991906124fd565b6116ab565b005b6000600260009054906101000a900473ffffffffffffffffffffffffffffffffffffffff1673ffffffffffffffffffffffffffffffffffffffff163373ffffffffffffffffffffffffffffffffffffffff16146102bc57600080fd5b6102c46118ad565b6000600960010160009054906101000a900473ffffffffffffffffffffffffffffffffffffffff1673ffffffffffffffffffffffffffffffffffffffff166370a08231600960000160009054906101000a900473ffffffffffffffffffffffffffffffffffffffff166040518263ffffffff1660e01b81526004016103499190612a00565b60206040518083038186803b15801561036157600080fd5b505afa158015610375573d6000803e3d6000fd5b505050506040513d601f19601f8201168201806040525081019061039991906126a2565b9050600083826103a99190612cc6565b90506000670de0b6b3a764000060036000600281106103f1577f4e487b7100000000000000000000000000000000000000000000000000000000600052603260045260246000fd5b6003020160000154836104049190612d4d565b61040e9190612d1c565b90506000600960000160009054906101000a900473ffffffffffffffffffffffffffffffffffffffff1690506000600960030160009054906101000a900473ffffffffffffffffffffffffffffffffffffffff1673ffffffffffffffffffffffffffffffffffffffff166370a08231836040518263ffffffff1660e01b815260040161049a9190612a00565b60206040518083038186803b1580156104b257600080fd5b505afa1580156104c6573d6000803e3d6000fd5b505050506040513d601f19601f820116820180604052508101906104ea91906126a2565b90508281101561079c5760006064600960070160149054906101000a900460ff1660646105179190612ddb565b60ff1683866105269190612da7565b6105309190612d4d565b61053a9190612d1c565b90506000811461054a5780610557565b81846105569190612da7565b5b9050600960030160009054906101000a900473ffffffffffffffffffffffffffffffffffffffff1673ffffffffffffffffffffffffffffffffffffffff166340c10f1984836040518363ffffffff1660e01b81526004016105b9929190612a89565b602060405180830381600087803b1580156105d357600080fd5b505af11580156105e7573d6000803e3d6000fd5b505050506040513d601f19601f8201168201806040525081019061060b9190612650565b50600960010160009054906101000a900473ffffffffffffffffffffffffffffffffffffffff1673ffffffffffffffffffffffffffffffffffffffff1663a9059cbb848a6040518363ffffffff1660e01b815260040161066c929190612a89565b602060405180830381600087803b15801561068657600080fd5b505af115801561069a573d6000803e3d6000fd5b505050506040513d601f19601f820116820180604052508101906106be9190612650565b50600960000160009054906101000a900473ffffffffffffffffffffffffffffffffffffffff1673ffffffffffffffffffffffffffffffffffffffff16636a627842600960020160009054906101000a900473ffffffffffffffffffffffffffffffffffffffff166040518263ffffffff1660e01b81526004016107429190612a00565b602060405180830381600087803b15801561075c57600080fd5b505af1158015610770573d6000803e3d6000fd5b505050506040513d601f19601f8201168201806040525081019061079491906126a2565b965050610a9b565b6000600960000160009054906101000a900473ffffffffffffffffffffffffffffffffffffffff1673ffffffffffffffffffffffffffffffffffffffff166318160ddd6040518163ffffffff1660e01b8152600401602060405180830381600087803b15801561080b57600080fd5b505af115801561081f573d6000803e3d6000fd5b505050506040513d601f19601f8201168201806040525081019061084391906126a2565b8261084e9190612d1c565b9050600960030160009054906101000a900473ffffffffffffffffffffffffffffffffffffffff1673ffffffffffffffffffffffffffffffffffffffff166340c10f198460028461089f9190612cc6565b6040518363ffffffff1660e01b81526004016108bc929190612a89565b602060405180830381600087803b1580156108d657600080fd5b505af11580156108ea573d6000803e3d6000fd5b505050506040513d601f19601f8201168201806040525081019061090e9190612650565b50600960010160009054906101000a900473ffffffffffffffffffffffffffffffffffffffff1673ffffffffffffffffffffffffffffffffffffffff1663a9059cbb848a6040518363ffffffff1660e01b815260040161096f929190612a89565b602060405180830381600087803b15801561098957600080fd5b505af115801561099d573d6000803e3d6000fd5b505050506040513d601f19601f820116820180604052508101906109c19190612650565b50600960000160009054906101000a900473ffffffffffffffffffffffffffffffffffffffff1673ffffffffffffffffffffffffffffffffffffffff16636a627842600960020160009054906101000a900473ffffffffffffffffffffffffffffffffffffffff166040518263ffffffff1660e01b8152600401610a459190612a00565b602060405180830381600087803b158015610a5f57600080fd5b505af1158015610a73573d6000803e3d6000fd5b505050506040513d601f19601f82011682018060405250810190610a9791906126a2565b9650505b610aa3611f62565b5050505050919050565b6000610ab76118ad565b60008214610ac55781610b09565b6003600060028110610b00577f4e487b7100000000000000000000000000000000000000000000000000000000600052603260045260246000fd5b60030201600101545b9150610b4a6040518060400160405280601081526020017f646169207468726573686f6c642025730000000000000000000000000000000081525083612018565b60006127108385610b5b9190612d4d565b610b659190612d1c565b90506301e1338081610b779190612d1c565b91505092915050565b610b89336120b4565b87600260006101000a81548173ffffffffffffffffffffffffffffffffffffffff021916908373ffffffffffffffffffffffffffffffffffffffff16021790555086600960000160006101000a81548173ffffffffffffffffffffffffffffffffffffffff021916908373ffffffffffffffffffffffffffffffffffffffff16021790555085600960010160006101000a81548173ffffffffffffffffffffffffffffffffffffffff021916908373ffffffffffffffffffffffffffffffffffffffff16021790555084600960030160006101000a81548173ffffffffffffffffffffffffffffffffffffffff021916908373ffffffffffffffffffffffffffffffffffffffff1602179055506064841015610cda576040517f08c379a0000000000000000000000000000000000000000000000000000000008152600401610cd190612afd565b60405180910390fd5b8360096004018190555082600960050181905550736b175474e89094c44da98b954eedeac495271d0f600960060160006101000a81548173ffffffffffffffffffffffffffffffffffffffff021916908373ffffffffffffffffffffffffffffffffffffffff16021790555060008260ff1614610d575781610d59565b815b600960060160146101000a81548160ff021916908360ff16021790555060648160ff1610610dbc576040517f08c379a0000000000000000000000000000000000000000000000000000000008152600401610db390612b1d565b60405180910390fd5b80600960070160146101000a81548160ff021916908360ff1602179055505050505050505050565b6003600060028110610e1f577f4e487b7100000000000000000000000000000000000000000000000000000000600052603260045260246000fd5b600302016003600160028110610e5e577f4e487b7100000000000000000000000000000000000000000000000000000000600052603260045260246000fd5b60030201600082015481600001556001820154816001015560028201548160020155905050610e8b6121b9565b6003600060028110610ec6577f4e487b7100000000000000000000000000000000000000000000000000000000600052603260045260246000fd5b6003020160000160006003600060028110610f0a577f4e487b7100000000000000000000000000000000000000000000000000000000600052603260045260246000fd5b600302016001016000849190505583919050555050436003600060028110610f5b577f4e487b7100000000000000000000000000000000000000000000000000000000600052603260045260246000fd5b6003020160020181905550565b6001600060146101000a81548160ff021916908315150217905550565b6001461415610fc9576040517f08c379a0000000000000000000000000000000000000000000000000000000008152600401610fc090612bbd565b60405180910390fd5b80600960070160006101000a81548173ffffffffffffffffffffffffffffffffffffffff021916908373ffffffffffffffffffffffffffffffffffffffff16021790555050565b600060149054906101000a900460ff1681565b6000600960070160009054906101000a900473ffffffffffffffffffffffffffffffffffffffff1673ffffffffffffffffffffffffffffffffffffffff1663e6a4390585600960030160009054906101000a900473ffffffffffffffffffffffffffffffffffffffff166040518363ffffffff1660e01b81526004016110aa929190612a1b565b60206040518083038186803b1580156110c257600080fd5b505afa1580156110d6573d6000803e3d6000fd5b505050506040513d601f19601f820116820180604052508101906110fa9190612526565b90506000600960030160009054906101000a900473ffffffffffffffffffffffffffffffffffffffff1673ffffffffffffffffffffffffffffffffffffffff166370a08231836040518263ffffffff1660e01b815260040161115c9190612a00565b60206040518083038186803b15801561117457600080fd5b505afa158015611188573d6000803e3d6000fd5b505050506040513d601f19601f820116820180604052508101906111ac91906126a2565b905060008573ffffffffffffffffffffffffffffffffffffffff166370a08231846040518263ffffffff1660e01b81526004016111e99190612a00565b60206040518083038186803b15801561120157600080fd5b505afa158015611215573d6000803e3d6000fd5b505050506040513d601f19601f8201168201806040525081019061123991906126a2565b905060006112488683856123b0565b90506000600960030160009054906101000a900473ffffffffffffffffffffffffffffffffffffffff1673ffffffffffffffffffffffffffffffffffffffff168873ffffffffffffffffffffffffffffffffffffffff16106112aa57816112ad565b60005b90506000600960030160009054906101000a900473ffffffffffffffffffffffffffffffffffffffff1673ffffffffffffffffffffffffffffffffffffffff168973ffffffffffffffffffffffffffffffffffffffff1610611310576000611312565b825b90508873ffffffffffffffffffffffffffffffffffffffff1663a9059cbb878a6040518363ffffffff1660e01b815260040161134f929190612a89565b602060405180830381600087803b15801561136957600080fd5b505af115801561137d573d6000803e3d6000fd5b505050506040513d601f19601f820116820180604052508101906113a19190612650565b508573ffffffffffffffffffffffffffffffffffffffff1663022c0d9f8383306040518463ffffffff1660e01b81526004016113df93929190612c18565b600060405180830381600087803b1580156113f957600080fd5b505af115801561140d573d6000803e3d6000fd5b5050505060006064846114209190612d1c565b9050600960030160009054906101000a900473ffffffffffffffffffffffffffffffffffffffff1673ffffffffffffffffffffffffffffffffffffffff1663a9059cbb89836040518363ffffffff1660e01b8152600401611482929190612a89565b602060405180830381600087803b15801561149c57600080fd5b505af11580156114b0573d6000803e3d6000fd5b505050506040513d601f19601f820116820180604052508101906114d49190612650565b50600960030160009054906101000a900473ffffffffffffffffffffffffffffffffffffffff1673ffffffffffffffffffffffffffffffffffffffff166342966c6882866115229190612da7565b6040518263ffffffff1660e01b815260040161153e9190612bfd565b602060405180830381600087803b15801561155857600080fd5b505af115801561156c573d6000803e3d6000fd5b505050506040513d601f19601f820116820180604052508101906115909190612650565b5050505050505050505050565b600160009054906101000a900473ffffffffffffffffffffffffffffffffffffffff1681565b6000600960020160009054906101000a900473ffffffffffffffffffffffffffffffffffffffff16905090565b6003816002811061160057600080fd5b600302016000915090508060000154908060010154908060020154905083565b6001461415611664576040517f08c379a000000000000000000000000000000000000000000000000000000000815260040161165b90612b3d565b60405180910390fd5b80600960060160006101000a81548173ffffffffffffffffffffffffffffffffffffffff021916908373ffffffffffffffffffffffffffffffffffffffff16021790555050565b600073ffffffffffffffffffffffffffffffffffffffff16600160009054906101000a900473ffffffffffffffffffffffffffffffffffffffff1673ffffffffffffffffffffffffffffffffffffffff1614806117555750600160009054906101000a900473ffffffffffffffffffffffffffffffffffffffff1673ffffffffffffffffffffffffffffffffffffffff163373ffffffffffffffffffffffffffffffffffffffff16145b8061176d5750600060149054906101000a900460ff16155b6117ac576040517f08c379a00000000000000000000000000000000000000000000000000000000081526004016117a390612b5d565b60405180910390fd5b80600160006101000a81548173ffffffffffffffffffffffffffffffffffffffff021916908373ffffffffffffffffffffffffffffffffffffffff1602179055508073ffffffffffffffffffffffffffffffffffffffff16632317beae6040518163ffffffff1660e01b815260040160206040518083038186803b15801561183357600080fd5b505afa158015611847573d6000803e3d6000fd5b505050506040513d601f19601f8201168201806040525081019061186b9190612526565b6000806101000a81548173ffffffffffffffffffffffffffffffffffffffff021916908373ffffffffffffffffffffffffffffffffffffffff16021790555050565b6118b5612431565b60036000600281106118f0577f4e487b7100000000000000000000000000000000000000000000000000000000600052603260045260246000fd5b60030201604051806060016040529081600082015481526020016001820154815260200160028201548152505081600060028110611957577f4e487b7100000000000000000000000000000000000000000000000000000000600052603260045260246000fd5b6020020181905250600360016002811061199a577f4e487b7100000000000000000000000000000000000000000000000000000000600052603260045260246000fd5b60030201604051806060016040529081600082015481526020016001820154815260200160028201548152505081600160028110611a01577f4e487b7100000000000000000000000000000000000000000000000000000000600052603260045260246000fd5b6020020181905250600081600160028110611a45577f4e487b7100000000000000000000000000000000000000000000000000000000600052603260045260246000fd5b60200201516000015182600060028110611a88577f4e487b7100000000000000000000000000000000000000000000000000000000600052603260045260246000fd5b60200201516000015111611b375781600060028110611ad0577f4e487b7100000000000000000000000000000000000000000000000000000000600052603260045260246000fd5b602002015160000151606483600160028110611b15577f4e487b7100000000000000000000000000000000000000000000000000000000600052603260045260246000fd5b602002015160000151611b289190612d4d565b611b329190612d1c565b611bd4565b81600160028110611b71577f4e487b7100000000000000000000000000000000000000000000000000000000600052603260045260246000fd5b602002015160000151606483600060028110611bb6577f4e487b7100000000000000000000000000000000000000000000000000000000600052603260045260246000fd5b602002015160000151611bc99190612d4d565b611bd39190612d1c565b5b9050600082600160028110611c12577f4e487b7100000000000000000000000000000000000000000000000000000000600052603260045260246000fd5b60200201516020015183600060028110611c55577f4e487b7100000000000000000000000000000000000000000000000000000000600052603260045260246000fd5b60200201516020015111611d045782600060028110611c9d577f4e487b7100000000000000000000000000000000000000000000000000000000600052603260045260246000fd5b602002015160200151606484600160028110611ce2577f4e487b7100000000000000000000000000000000000000000000000000000000600052603260045260246000fd5b602002015160200151611cf59190612d4d565b611cff9190612d1c565b611da1565b82600160028110611d3e577f4e487b7100000000000000000000000000000000000000000000000000000000600052603260045260246000fd5b602002015160200151606484600060028110611d83577f4e487b7100000000000000000000000000000000000000000000000000000000600052603260045260246000fd5b602002015160200151611d969190612d4d565b611da09190612d1c565b5b9050611de26040518060400160405280601981526020017f6461692062616c616e636520646976657267656e63652025730000000000000081525082612018565b60096004015482108015611dfa575060096004015481105b611e39576040517f08c379a0000000000000000000000000000000000000000000000000000000008152600401611e3090612bdd565b60405180910390fd5b60096005015483600160028110611e79577f4e487b7100000000000000000000000000000000000000000000000000000000600052603260045260246000fd5b60200201516040015184600060028110611ebc577f4e487b7100000000000000000000000000000000000000000000000000000000600052603260045260246000fd5b602002015160400151611ecf9190612da7565b118015611f1e5750600083600160028110611f13577f4e487b7100000000000000000000000000000000000000000000000000000000600052603260045260246000fd5b602002015160400151115b611f5d576040517f08c379a0000000000000000000000000000000000000000000000000000000008152600401611f5490612b7d565b60405180910390fd5b505050565b6003600060028110611f9d577f4e487b7100000000000000000000000000000000000000000000000000000000600052603260045260246000fd5b600302016000808201600090556001820160009055600282016000905550506003600160028110611ff7577f4e487b7100000000000000000000000000000000000000000000000000000000600052603260045260246000fd5b60030201600080820160009055600182016000905560028201600090555050565b6120b0828260405160240161202e929190612acd565b6040516020818303038152906040527f9710a9d0000000000000000000000000000000000000000000000000000000007bffffffffffffffffffffffffffffffffffffffffffffffffffffffff19166020820180517bffffffffffffffffffffffffffffffffffffffffffffffffffffffff8381831617835250505050612408565b5050565b600060149054906101000a900460ff1615806121775750600160009054906101000a900473ffffffffffffffffffffffffffffffffffffffff1673ffffffffffffffffffffffffffffffffffffffff1663b7ebc23b826040518263ffffffff1660e01b81526004016121269190612a00565b60206040518083038186803b15801561213e57600080fd5b505afa158015612152573d6000803e3d6000fd5b505050506040513d601f19601f820116820180604052508101906121769190612650565b5b6121b6576040517f08c379a00000000000000000000000000000000000000000000000000000000081526004016121ad90612b9d565b60405180910390fd5b50565b6000806000600960010160009054906101000a900473ffffffffffffffffffffffffffffffffffffffff1673ffffffffffffffffffffffffffffffffffffffff166372c3fdd9600960060160009054906101000a900473ffffffffffffffffffffffffffffffffffffffff16612710670de0b6b3a7640000600960060160149054906101000a900460ff166040518563ffffffff1660e01b81526004016122639493929190612a44565b60206040518083038186803b15801561227b57600080fd5b505afa15801561228f573d6000803e3d6000fd5b505050506040513d601f19601f820116820180604052508101906122b391906126a2565b9050670de0b6b3a764000080826122ca9190612d4d565b6122d49190612d1c565b9250600960060160009054906101000a900473ffffffffffffffffffffffffffffffffffffffff1673ffffffffffffffffffffffffffffffffffffffff166370a08231600960010160009054906101000a900473ffffffffffffffffffffffffffffffffffffffff166040518263ffffffff1660e01b81526004016123599190612a00565b60206040518083038186803b15801561237157600080fd5b505afa158015612385573d6000803e3d6000fd5b505050506040513d601f19601f820116820180604052508101906123a991906126a2565b9150509091565b6000806103e5856123c19190612d4d565b9050600083826123d19190612d4d565b90506000826103e8876123e49190612d4d565b6123ee9190612cc6565b905080826123fc9190612d1c565b93505050509392505050565b60008151905060006a636f6e736f6c652e6c6f679050602083016000808483855afa5050505050565b60405180604001604052806002905b61244861245e565b8152602001906001900390816124405790505090565b60405180606001604052806000815260200160008152602001600081525090565b60008135905061248e81612f3c565b92915050565b6000815190506124a381612f3c565b92915050565b6000815190506124b881612f53565b92915050565b6000813590506124cd81612f6a565b92915050565b6000815190506124e281612f6a565b92915050565b6000813590506124f781612f81565b92915050565b60006020828403121561250f57600080fd5b600061251d8482850161247f565b91505092915050565b60006020828403121561253857600080fd5b600061254684828501612494565b91505092915050565b600080600080600080600080610100898b03121561256c57600080fd5b600061257a8b828c0161247f565b985050602061258b8b828c0161247f565b975050604061259c8b828c0161247f565b96505060606125ad8b828c0161247f565b95505060806125be8b828c016124be565b94505060a06125cf8b828c016124be565b93505060c06125e08b828c016124e8565b92505060e06125f18b828c016124e8565b9150509295985092959890939650565b60008060006060848603121561261657600080fd5b60006126248682870161247f565b9350506020612635868287016124be565b92505060406126468682870161247f565b9150509250925092565b60006020828403121561266257600080fd5b6000612670848285016124a9565b91505092915050565b60006020828403121561268b57600080fd5b6000612699848285016124be565b91505092915050565b6000602082840312156126b457600080fd5b60006126c2848285016124d3565b91505092915050565b600080604083850312156126de57600080fd5b60006126ec858286016124be565b92505060206126fd858286016124be565b9150509250929050565b61271081612e0f565b82525050565b61271f81612e21565b82525050565b61272e81612e64565b82525050565b61273d81612e76565b82525050565b600061274e82612c99565b6127588185612cb5565b9350612768818560208601612e9a565b61277181612f2b565b840191505092915050565b6000612789601b83612cb5565b91507f446976657267656e6365206f66203130302069732070617269747900000000006000830152602082019050919050565b60006127c9602a83612cb5565b91507f536574206f76657273686f6f7420746f206e756d626572206265747765656e2060008301527f3120616e64203130302e000000000000000000000000000000000000000000006020830152604082019050919050565b600061282f601883612cb5565b91507f4441492068617264636f646564206f6e206d61696e6e657400000000000000006000830152602082019050919050565b600061286f600283612cb5565b91507f454b0000000000000000000000000000000000000000000000000000000000006000830152602082019050919050565b60006128af600283612cb5565b91507f45480000000000000000000000000000000000000000000000000000000000006000830152602082019050919050565b60006128ef600283612cb5565b91507f454a0000000000000000000000000000000000000000000000000000000000006000830152602082019050919050565b600061292f600083612ca4565b9150600082019050919050565b6000612949602483612cb5565b91507f556e697377617020666163746f72792068617264636f646564206f6e206d616960008301527f6e6e6574000000000000000000000000000000000000000000000000000000006020830152604082019050919050565b60006129af600283612cb5565b91507f45470000000000000000000000000000000000000000000000000000000000006000830152602082019050919050565b6129eb81612e4d565b82525050565b6129fa81612e88565b82525050565b6000602082019050612a156000830184612707565b92915050565b6000604082019050612a306000830185612707565b612a3d6020830184612707565b9392505050565b6000608082019050612a596000830187612707565b612a666020830186612734565b612a736040830185612725565b612a8060608301846129f1565b95945050505050565b6000604082019050612a9e6000830185612707565b612aab60208301846129e2565b9392505050565b6000602082019050612ac76000830184612716565b92915050565b60006040820190508181036000830152612ae78185612743565b9050612af660208301846129e2565b9392505050565b60006020820190508181036000830152612b168161277c565b9050919050565b60006020820190508181036000830152612b36816127bc565b9050919050565b60006020820190508181036000830152612b5681612822565b9050919050565b60006020820190508181036000830152612b7681612862565b9050919050565b60006020820190508181036000830152612b96816128a2565b9050919050565b60006020820190508181036000830152612bb6816128e2565b9050919050565b60006020820190508181036000830152612bd68161293c565b9050919050565b60006020820190508181036000830152612bf6816129a2565b9050919050565b6000602082019050612c1260008301846129e2565b92915050565b6000608082019050612c2d60008301866129e2565b612c3a60208301856129e2565b612c476040830184612707565b8181036060830152612c5881612922565b9050949350505050565b6000606082019050612c7760008301866129e2565b612c8460208301856129e2565b612c9160408301846129e2565b949350505050565b600081519050919050565b600082825260208201905092915050565b600082825260208201905092915050565b6000612cd182612e4d565b9150612cdc83612e4d565b9250827fffffffffffffffffffffffffffffffffffffffffffffffffffffffffffffffff03821115612d1157612d10612ecd565b5b828201905092915050565b6000612d2782612e4d565b9150612d3283612e4d565b925082612d4257612d41612efc565b5b828204905092915050565b6000612d5882612e4d565b9150612d6383612e4d565b9250817fffffffffffffffffffffffffffffffffffffffffffffffffffffffffffffffff0483118215151615612d9c57612d9b612ecd565b5b828202905092915050565b6000612db282612e4d565b9150612dbd83612e4d565b925082821015612dd057612dcf612ecd565b5b828203905092915050565b6000612de682612e57565b9150612df183612e57565b925082821015612e0457612e03612ecd565b5b828203905092915050565b6000612e1a82612e2d565b9050919050565b60008115159050919050565b600073ffffffffffffffffffffffffffffffffffffffff82169050919050565b6000819050919050565b600060ff82169050919050565b6000612e6f82612e4d565b9050919050565b6000612e8182612e4d565b9050919050565b6000612e9382612e57565b9050919050565b60005b83811015612eb8578082015181840152602081019050612e9d565b83811115612ec7576000848401525b50505050565b7f4e487b7100000000000000000000000000000000000000000000000000000000600052601160045260246000fd5b7f4e487b7100000000000000000000000000000000000000000000000000000000600052601260045260246000fd5b6000601f19601f8301169050919050565b612f4581612e0f565b8114612f5057600080fd5b50565b612f5c81612e21565b8114612f6757600080fd5b50565b612f7381612e4d565b8114612f7e57600080fd5b50565b612f8a81612e57565b8114612f9557600080fd5b5056fea264697066735822122000f222259cb784f135bb249f3a1a152fdb1113e34910aca20dad8e72e5a6983164736f6c634300080000336080604052348015600f57600080fd5b50603f80601d6000396000f3fe6080604052600080fdfea264697066735822122057e19791e2c47ecd92941a2c02862fd0c13081d20fc10dfc99c6e5d4dff59cfc64736f6c63430008000033",
  "devdoc": {
    "kind": "dev",
    "methods": {},
    "version": 1
  },
  "userdoc": {
    "kind": "user",
    "methods": {},
    "version": 1
  },
  "storageLayout": {
    "storage": [
      {
        "astId": 1206,
        "contract": "contracts/UniswapHelper.sol:UniswapHelper",
        "label": "flashGoverner",
        "offset": 0,
        "slot": "0",
        "type": "t_contract(FlashGovernanceArbiterLike)7575"
      },
      {
        "astId": 1208,
        "contract": "contracts/UniswapHelper.sol:UniswapHelper",
        "label": "configured",
        "offset": 20,
        "slot": "0",
        "type": "t_bool"
      },
      {
        "astId": 1210,
        "contract": "contracts/UniswapHelper.sol:UniswapHelper",
        "label": "DAO",
        "offset": 0,
        "slot": "1",
        "type": "t_address"
      },
      {
        "astId": 6520,
        "contract": "contracts/UniswapHelper.sol:UniswapHelper",
        "label": "limbo",
        "offset": 0,
        "slot": "2",
        "type": "t_address"
      },
      {
        "astId": 6555,
        "contract": "contracts/UniswapHelper.sol:UniswapHelper",
        "label": "latestFlanQuotes",
        "offset": 0,
        "slot": "3",
        "type": "t_array(t_struct(FlanQuote)6550_storage)2_storage"
      },
      {
        "astId": 6558,
        "contract": "contracts/UniswapHelper.sol:UniswapHelper",
        "label": "VARS",
        "offset": 0,
        "slot": "9",
        "type": "t_struct(UniVARS)6543_storage"
      }
    ],
    "types": {
      "t_address": {
        "encoding": "inplace",
        "label": "address",
        "numberOfBytes": "20"
      },
      "t_array(t_struct(FlanQuote)6550_storage)2_storage": {
        "base": "t_struct(FlanQuote)6550_storage",
        "encoding": "inplace",
        "label": "struct UniswapHelper.FlanQuote[2]",
        "numberOfBytes": "192"
      },
      "t_bool": {
        "encoding": "inplace",
        "label": "bool",
        "numberOfBytes": "1"
      },
      "t_contract(FlashGovernanceArbiterLike)7575": {
        "encoding": "inplace",
        "label": "contract FlashGovernanceArbiterLike",
        "numberOfBytes": "20"
      },
      "t_contract(IUniswapV2Factory)12344": {
        "encoding": "inplace",
        "label": "contract IUniswapV2Factory",
        "numberOfBytes": "20"
      },
      "t_contract(UniPairLike)7830": {
        "encoding": "inplace",
        "label": "contract UniPairLike",
        "numberOfBytes": "20"
      },
      "t_struct(FlanQuote)6550_storage": {
        "encoding": "inplace",
        "label": "struct UniswapHelper.FlanQuote",
        "members": [
          {
            "astId": 6545,
            "contract": "contracts/UniswapHelper.sol:UniswapHelper",
            "label": "DaiScxSpotPrice",
            "offset": 0,
            "slot": "0",
            "type": "t_uint256"
          },
          {
            "astId": 6547,
            "contract": "contracts/UniswapHelper.sol:UniswapHelper",
            "label": "DaiBalanceOnBehodler",
            "offset": 0,
            "slot": "1",
            "type": "t_uint256"
          },
          {
            "astId": 6549,
            "contract": "contracts/UniswapHelper.sol:UniswapHelper",
            "label": "blockProduced",
            "offset": 0,
            "slot": "2",
            "type": "t_uint256"
          }
        ],
        "numberOfBytes": "96"
      },
      "t_struct(UniVARS)6543_storage": {
        "encoding": "inplace",
        "label": "struct UniswapHelper.UniVARS",
        "members": [
          {
            "astId": 6523,
            "contract": "contracts/UniswapHelper.sol:UniswapHelper",
            "label": "Flan_SCX_tokenPair",
            "offset": 0,
            "slot": "0",
            "type": "t_contract(UniPairLike)7830"
          },
          {
            "astId": 6525,
            "contract": "contracts/UniswapHelper.sol:UniswapHelper",
            "label": "behodler",
            "offset": 0,
            "slot": "1",
            "type": "t_address"
          },
          {
            "astId": 6527,
            "contract": "contracts/UniswapHelper.sol:UniswapHelper",
            "label": "blackHole",
            "offset": 0,
            "slot": "2",
            "type": "t_address"
          },
          {
            "astId": 6529,
            "contract": "contracts/UniswapHelper.sol:UniswapHelper",
            "label": "flan",
            "offset": 0,
            "slot": "3",
            "type": "t_address"
          },
          {
            "astId": 6531,
            "contract": "contracts/UniswapHelper.sol:UniswapHelper",
            "label": "divergenceTolerance",
            "offset": 0,
            "slot": "4",
            "type": "t_uint256"
          },
          {
            "astId": 6533,
            "contract": "contracts/UniswapHelper.sol:UniswapHelper",
            "label": "minQuoteWaitDuration",
            "offset": 0,
            "slot": "5",
            "type": "t_uint256"
          },
          {
            "astId": 6535,
            "contract": "contracts/UniswapHelper.sol:UniswapHelper",
            "label": "DAI",
            "offset": 0,
            "slot": "6",
            "type": "t_address"
          },
          {
            "astId": 6537,
            "contract": "contracts/UniswapHelper.sol:UniswapHelper",
            "label": "precision",
            "offset": 20,
            "slot": "6",
            "type": "t_uint8"
          },
          {
            "astId": 6540,
            "contract": "contracts/UniswapHelper.sol:UniswapHelper",
            "label": "factory",
            "offset": 0,
            "slot": "7",
            "type": "t_contract(IUniswapV2Factory)12344"
          },
          {
            "astId": 6542,
            "contract": "contracts/UniswapHelper.sol:UniswapHelper",
            "label": "priceBoostOvershoot",
            "offset": 20,
            "slot": "7",
            "type": "t_uint8"
          }
        ],
        "numberOfBytes": "256"
      },
      "t_uint256": {
        "encoding": "inplace",
        "label": "uint256",
        "numberOfBytes": "32"
      },
      "t_uint8": {
        "encoding": "inplace",
        "label": "uint8",
        "numberOfBytes": "1"
      }
    }
  }
}