{
  "address": "0xE88d33eBf2868dd48B77D86f23b0515b10c7E5b1",
  "abi": [
    {
      "inputs": [
        {
          "internalType": "address",
          "name": "dao",
          "type": "address"
        },
        {
          "internalType": "string",
          "name": "_description",
          "type": "string"
        },
        {
          "internalType": "address",
          "name": "_limbo",
          "type": "address"
        },
        {
          "internalType": "address",
          "name": "morgothTokenApprover",
          "type": "address"
        }
      ],
      "stateMutability": "nonpayable",
      "type": "constructor"
    },
    {
      "inputs": [],
      "name": "description",
      "outputs": [
        {
          "internalType": "string",
          "name": "",
          "type": "string"
        }
      ],
      "stateMutability": "view",
      "type": "function"
    },
    {
      "inputs": [],
      "name": "orchestrateExecute",
      "outputs": [],
      "stateMutability": "nonpayable",
      "type": "function"
    },
    {
      "inputs": [
        {
          "internalType": "address",
          "name": "token",
          "type": "address"
        },
        {
          "internalType": "uint256",
          "name": "crossingThreshold",
          "type": "uint256"
        },
        {
          "internalType": "uint256",
          "name": "soulType",
          "type": "uint256"
        },
        {
          "internalType": "uint256",
          "name": "state",
          "type": "uint256"
        },
        {
          "internalType": "uint256",
          "name": "index",
          "type": "uint256"
        },
        {
          "internalType": "uint256",
          "name": "fps",
          "type": "uint256"
        }
      ],
      "name": "parameterize",
      "outputs": [],
      "stateMutability": "nonpayable",
      "type": "function"
    }
  ],
  "transactionHash": "0x415ead502622c82b37320e8592447444c5294b40987735e0537b0c427632068f",
  "args": [
    "0x8c9bd714e2598860E56a4D9E675E717665204442",
    "Update Soul Config",
    "0x4Cfde611c84E2318C01092Ade351479b71164203",
    "0x55AF8e6A28831018677b5Dd86c26709D2c1dF8f2"
  ],
  "solcInputHash": "3b633f60859fc01482cc6a8d04cca0a0",
  "bytecode": "0x60806040523480156200001157600080fd5b50604051620011d8380380620011d883398181016040528101906200003791906200025a565b838381600160006101000a81548173ffffffffffffffffffffffffffffffffffffffff021916908373ffffffffffffffffffffffffffffffffffffffff16021790555080600090805190602001906200009292919062000121565b50505081600860006101000a81548173ffffffffffffffffffffffffffffffffffffffff021916908373ffffffffffffffffffffffffffffffffffffffff16021790555080600960006101000a81548173ffffffffffffffffffffffffffffffffffffffff021916908373ffffffffffffffffffffffffffffffffffffffff160217905550505050506200045e565b8280546200012f90620003b0565b90600052602060002090601f0160209004810192826200015357600085556200019f565b82601f106200016e57805160ff19168380011785556200019f565b828001600101855582156200019f579182015b828111156200019e57825182559160200191906001019062000181565b5b509050620001ae9190620001b2565b5090565b5b80821115620001cd576000816000905550600101620001b3565b5090565b6000620001e8620001e28462000313565b620002df565b9050828152602081018484840111156200020157600080fd5b6200020e8482856200037a565b509392505050565b600081519050620002278162000444565b92915050565b600082601f8301126200023f57600080fd5b815162000251848260208601620001d1565b91505092915050565b600080600080608085870312156200027157600080fd5b6000620002818782880162000216565b945050602085015167ffffffffffffffff8111156200029f57600080fd5b620002ad878288016200022d565b9350506040620002c08782880162000216565b9250506060620002d38782880162000216565b91505092959194509250565b6000604051905081810181811067ffffffffffffffff8211171562000309576200030862000415565b5b8060405250919050565b600067ffffffffffffffff82111562000331576200033062000415565b5b601f19601f8301169050602081019050919050565b600062000353826200035a565b9050919050565b600073ffffffffffffffffffffffffffffffffffffffff82169050919050565b60005b838110156200039a5780820151818401526020810190506200037d565b83811115620003aa576000848401525b50505050565b60006002820490506001821680620003c957607f821691505b60208210811415620003e057620003df620003e6565b5b50919050565b7f4e487b7100000000000000000000000000000000000000000000000000000000600052602260045260246000fd5b7f4e487b7100000000000000000000000000000000000000000000000000000000600052604160045260246000fd5b6200044f8162000346565b81146200045b57600080fd5b50565b610d6a806200046e6000396000f3fe608060405234801561001057600080fd5b50600436106100415760003560e01c80633e7f6c64146100465780637284e41614610050578063f3d668ad1461006e575b600080fd5b61004e61008a565b005b6100586101d9565b6040516100659190610ae6565b60405180910390f35b6100886004803603810190610083919061075e565b610267565b005b6000600160009054906101000a900473ffffffffffffffffffffffffffffffffffffffff169050600073ffffffffffffffffffffffffffffffffffffffff168173ffffffffffffffffffffffffffffffffffffffff161415610121576040517f08c379a000000000000000000000000000000000000000000000000000000000815260040161011890610ba6565b60405180910390fd5b8073ffffffffffffffffffffffffffffffffffffffff163373ffffffffffffffffffffffffffffffffffffffff161461018f576040517f08c379a000000000000000000000000000000000000000000000000000000000815260040161018690610b66565b60405180910390fd5b6101976104e6565b6101d6576040517f08c379a00000000000000000000000000000000000000000000000000000000081526004016101cd90610bc6565b60405180910390fd5b50565b600080546101e690610c7d565b80601f016020809104026020016040519081016040528092919081815260200182805461021290610c7d565b801561025f5780601f106102345761010080835404028352916020019161025f565b820191906000526020600020905b81548152906001019060200180831161024257829003601f168201915b505050505081565b6000600160009054906101000a900473ffffffffffffffffffffffffffffffffffffffff1673ffffffffffffffffffffffffffffffffffffffff166364c5ce866040518163ffffffff1660e01b815260040160a06040518083038186803b1580156102d157600080fd5b505afa1580156102e5573d6000803e3d6000fd5b505050506040513d601f19601f820116820180604052508101906103099190610810565b9450505050503073ffffffffffffffffffffffffffffffffffffffff168173ffffffffffffffffffffffffffffffffffffffff16141561037e576040517f08c379a000000000000000000000000000000000000000000000000000000000815260040161037590610b86565b60405180910390fd5b600960009054906101000a900473ffffffffffffffffffffffffffffffffffffffff1673ffffffffffffffffffffffffffffffffffffffff1663d8b964e6886040518263ffffffff1660e01b81526004016103d99190610a6a565b60206040518083038186803b1580156103f157600080fd5b505afa158015610405573d6000803e3d6000fd5b505050506040513d601f19601f8201168201806040525081019061042991906107e7565b610468576040517f08c379a000000000000000000000000000000000000000000000000000000000815260040161045f90610b46565b60405180910390fd5b86600260000160006101000a81548173ffffffffffffffffffffffffffffffffffffffff021916908373ffffffffffffffffffffffffffffffffffffffff1602179055508560026001018190555084600280018190555083600260030181905550826002600401819055508160026005018190555050505050505050565b60006105526040518060400160405280601481526020017f746f6b656e3a2025732c20696e6465783a202573000000000000000000000000815250600260000160009054906101000a900473ffffffffffffffffffffffffffffffffffffffff1660026004015461062d565b600860009054906101000a900473ffffffffffffffffffffffffffffffffffffffff1673ffffffffffffffffffffffffffffffffffffffff1663d4a4bdee600260000160009054906101000a900473ffffffffffffffffffffffffffffffffffffffff1660026001015460028001546002600301546002600401546002600501546040518763ffffffff1660e01b81526004016105f496959493929190610a85565b600060405180830381600087803b15801561060e57600080fd5b505af1158015610622573d6000803e3d6000fd5b505050506001905090565b6106c783838360405160240161064593929190610b08565b6040516020818303038152906040527f07c81217000000000000000000000000000000000000000000000000000000007bffffffffffffffffffffffffffffffffffffffffffffffffffffffff19166020820180517bffffffffffffffffffffffffffffffffffffffffffffffffffffffff83818316178352505050506106cc565b505050565b60008151905060006a636f6e736f6c652e6c6f679050602083016000808483855afa5050505050565b60008135905061070481610cef565b92915050565b60008151905061071981610cef565b92915050565b60008151905061072e81610d06565b92915050565b60008135905061074381610d1d565b92915050565b60008151905061075881610d1d565b92915050565b60008060008060008060c0878903121561077757600080fd5b600061078589828a016106f5565b965050602061079689828a01610734565b95505060406107a789828a01610734565b94505060606107b889828a01610734565b93505060806107c989828a01610734565b92505060a06107da89828a01610734565b9150509295509295509295565b6000602082840312156107f957600080fd5b60006108078482850161071f565b91505092915050565b600080600080600060a0868803121561082857600080fd5b600061083688828901610749565b955050602061084788828901610749565b94505060406108588882890161070a565b935050606061086988828901610749565b925050608061087a8882890161070a565b9150509295509295909350565b61089081610c02565b82525050565b60006108a182610be6565b6108ab8185610bf1565b93506108bb818560208601610c4a565b6108c481610cde565b840191505092915050565b60006108dc603383610bf1565b91507f4d4f52474f54483a20746f6b656e206e6f7420617070726f76656420666f722060008301527f6c697374696e67206f6e204265686f646c6572000000000000000000000000006020830152604082019050919050565b6000610942601d83610bf1565b91507f50524f504f53414c3a206f6e6c792044414f2063616e20696e766f6b650000006000830152602082019050919050565b6000610982601983610bf1565b91507f4c696d626f44414f3a2070726f706f73616c206c6f636b6564000000000000006000830152602082019050919050565b60006109c2601583610bf1565b91507f50524f504f53414c3a2044414f206e6f742073657400000000000000000000006000830152602082019050919050565b6000610a02602683610bf1565b91507f4c696d626f44414f3a20657865637574696f6e206f662070726f706f73616c2060008301527f6661696c656400000000000000000000000000000000000000000000000000006020830152604082019050919050565b610a6481610c40565b82525050565b6000602082019050610a7f6000830184610887565b92915050565b600060c082019050610a9a6000830189610887565b610aa76020830188610a5b565b610ab46040830187610a5b565b610ac16060830186610a5b565b610ace6080830185610a5b565b610adb60a0830184610a5b565b979650505050505050565b60006020820190508181036000830152610b008184610896565b905092915050565b60006060820190508181036000830152610b228186610896565b9050610b316020830185610887565b610b3e6040830184610a5b565b949350505050565b60006020820190508181036000830152610b5f816108cf565b9050919050565b60006020820190508181036000830152610b7f81610935565b9050919050565b60006020820190508181036000830152610b9f81610975565b9050919050565b60006020820190508181036000830152610bbf816109b5565b9050919050565b60006020820190508181036000830152610bdf816109f5565b9050919050565b600081519050919050565b600082825260208201905092915050565b6000610c0d82610c20565b9050919050565b60008115159050919050565b600073ffffffffffffffffffffffffffffffffffffffff82169050919050565b6000819050919050565b60005b83811015610c68578082015181840152602081019050610c4d565b83811115610c77576000848401525b50505050565b60006002820490506001821680610c9557607f821691505b60208210811415610ca957610ca8610caf565b5b50919050565b7f4e487b7100000000000000000000000000000000000000000000000000000000600052602260045260246000fd5b6000601f19601f8301169050919050565b610cf881610c02565b8114610d0357600080fd5b50565b610d0f81610c14565b8114610d1a57600080fd5b50565b610d2681610c40565b8114610d3157600080fd5b5056fea26469706673582212203e5f86bdc86e3b6220693069850fff84e5ffe2e5c580cd218dfc5cc984c2792b64736f6c63430008000033",
  "devdoc": {
    "kind": "dev",
    "methods": {},
    "version": 1
  },
  "userdoc": {
    "kind": "user",
    "methods": {},
    "version": 1
  },
  "storageLayout": {
    "storage": [
      {
        "astId": 2889,
        "contract": "contracts/DAO/Proposals/UpdateSoulConfigProposal.sol:UpdateSoulConfigProposal",
        "label": "description",
        "offset": 0,
        "slot": "0",
        "type": "t_string_storage"
      },
      {
        "astId": 2892,
        "contract": "contracts/DAO/Proposals/UpdateSoulConfigProposal.sol:UpdateSoulConfigProposal",
        "label": "DAO",
        "offset": 0,
        "slot": "1",
        "type": "t_contract(LimboDAOLike)7669"
      },
      {
        "astId": 3650,
        "contract": "contracts/DAO/Proposals/UpdateSoulConfigProposal.sol:UpdateSoulConfigProposal",
        "label": "params",
        "offset": 0,
        "slot": "2",
        "type": "t_struct(Parameters)3647_storage"
      },
      {
        "astId": 3653,
        "contract": "contracts/DAO/Proposals/UpdateSoulConfigProposal.sol:UpdateSoulConfigProposal",
        "label": "limbo",
        "offset": 0,
        "slot": "8",
        "type": "t_contract(LimboLike)7744"
      },
      {
        "astId": 3656,
        "contract": "contracts/DAO/Proposals/UpdateSoulConfigProposal.sol:UpdateSoulConfigProposal",
        "label": "morgothApprover",
        "offset": 0,
        "slot": "9",
        "type": "t_contract(MorgothTokenApproverLike)7768"
      }
    ],
    "types": {
      "t_address": {
        "encoding": "inplace",
        "label": "address",
        "numberOfBytes": "20"
      },
      "t_contract(LimboDAOLike)7669": {
        "encoding": "inplace",
        "label": "contract LimboDAOLike",
        "numberOfBytes": "20"
      },
      "t_contract(LimboLike)7744": {
        "encoding": "inplace",
        "label": "contract LimboLike",
        "numberOfBytes": "20"
      },
      "t_contract(MorgothTokenApproverLike)7768": {
        "encoding": "inplace",
        "label": "contract MorgothTokenApproverLike",
        "numberOfBytes": "20"
      },
      "t_string_storage": {
        "encoding": "bytes",
        "label": "string",
        "numberOfBytes": "32"
      },
      "t_struct(Parameters)3647_storage": {
        "encoding": "inplace",
        "label": "struct UpdateSoulConfigProposal.Parameters",
        "members": [
          {
            "astId": 3636,
            "contract": "contracts/DAO/Proposals/UpdateSoulConfigProposal.sol:UpdateSoulConfigProposal",
            "label": "token",
            "offset": 0,
            "slot": "0",
            "type": "t_address"
          },
          {
            "astId": 3638,
            "contract": "contracts/DAO/Proposals/UpdateSoulConfigProposal.sol:UpdateSoulConfigProposal",
            "label": "crossingThreshold",
            "offset": 0,
            "slot": "1",
            "type": "t_uint256"
          },
          {
            "astId": 3640,
            "contract": "contracts/DAO/Proposals/UpdateSoulConfigProposal.sol:UpdateSoulConfigProposal",
            "label": "soulType",
            "offset": 0,
            "slot": "2",
            "type": "t_uint256"
          },
          {
            "astId": 3642,
            "contract": "contracts/DAO/Proposals/UpdateSoulConfigProposal.sol:UpdateSoulConfigProposal",
            "label": "state",
            "offset": 0,
            "slot": "3",
            "type": "t_uint256"
          },
          {
            "astId": 3644,
            "contract": "contracts/DAO/Proposals/UpdateSoulConfigProposal.sol:UpdateSoulConfigProposal",
            "label": "index",
            "offset": 0,
            "slot": "4",
            "type": "t_uint256"
          },
          {
            "astId": 3646,
            "contract": "contracts/DAO/Proposals/UpdateSoulConfigProposal.sol:UpdateSoulConfigProposal",
            "label": "fps",
            "offset": 0,
            "slot": "5",
            "type": "t_uint256"
          }
        ],
        "numberOfBytes": "192"
      },
      "t_uint256": {
        "encoding": "inplace",
        "label": "uint256",
        "numberOfBytes": "32"
      }
    }
  }
}