{
  "_format": "hh-sol-artifact-1",
  "contractName": "RegistryBehodler",
  "sourceName": "contracts/testing/RegistryBehodler.sol",
  "abi": [
    {
      "inputs": [
        {
          "internalType": "address",
          "name": "token",
          "type": "address"
        },
        {
          "internalType": "uint256",
          "name": "amount",
          "type": "uint256"
        }
      ],
      "name": "addLiquidity",
      "outputs": [
        {
          "internalType": "uint256",
          "name": "",
          "type": "uint256"
        }
      ],
      "stateMutability": "nonpayable",
      "type": "function"
    },
    {
      "inputs": [
        {
          "internalType": "address",
          "name": "holder",
          "type": "address"
        }
      ],
      "name": "balanceOf",
      "outputs": [
        {
          "internalType": "uint256",
          "name": "",
          "type": "uint256"
        }
      ],
      "stateMutability": "view",
      "type": "function"
    },
    {
      "inputs": [
        {
          "internalType": "address",
          "name": "to",
          "type": "address"
        },
        {
          "internalType": "uint256",
          "name": "amount",
          "type": "uint256"
        }
      ],
      "name": "transfer",
      "outputs": [],
      "stateMutability": "nonpayable",
      "type": "function"
    }
  ],
  "bytecode": "0x608060405234801561001057600080fd5b5061063b806100206000396000f3fe608060405234801561001057600080fd5b50600436106100415760003560e01c8063566887001461004657806370a0823114610076578063a9059cbb146100a6575b600080fd5b610060600480360381019061005b9190610350565b6100c2565b60405161006d919061039f565b60405180910390f35b610090600480360381019061008b91906103ba565b6101a9565b60405161009d919061039f565b60405180910390f35b6100c060048036038101906100bb9190610350565b6101f1565b005b6000600a826100d19190610445565b6000803373ffffffffffffffffffffffffffffffffffffffff1673ffffffffffffffffffffffffffffffffffffffff168152602001908152602001600020819055508273ffffffffffffffffffffffffffffffffffffffff166323b872dd3330856040518463ffffffff1660e01b815260040161015093929190610485565b6020604051808303816000875af115801561016f573d6000803e3d6000fd5b505050506040513d601f19601f8201168201806040525081019061019391906104f4565b50600a826101a19190610445565b905092915050565b60008060008373ffffffffffffffffffffffffffffffffffffffff1673ffffffffffffffffffffffffffffffffffffffff168152602001908152602001600020549050919050565b806000803373ffffffffffffffffffffffffffffffffffffffff1673ffffffffffffffffffffffffffffffffffffffff168152602001908152602001600020600082825461023f9190610521565b9250508190555060646062826102559190610555565b61025f9190610445565b6000808473ffffffffffffffffffffffffffffffffffffffff1673ffffffffffffffffffffffffffffffffffffffff16815260200190815260200160002060008282546102ac91906105af565b925050819055505050565b600080fd5b600073ffffffffffffffffffffffffffffffffffffffff82169050919050565b60006102e7826102bc565b9050919050565b6102f7816102dc565b811461030257600080fd5b50565b600081359050610314816102ee565b92915050565b6000819050919050565b61032d8161031a565b811461033857600080fd5b50565b60008135905061034a81610324565b92915050565b60008060408385031215610367576103666102b7565b5b600061037585828601610305565b92505060206103868582860161033b565b9150509250929050565b6103998161031a565b82525050565b60006020820190506103b46000830184610390565b92915050565b6000602082840312156103d0576103cf6102b7565b5b60006103de84828501610305565b91505092915050565b7f4e487b7100000000000000000000000000000000000000000000000000000000600052601260045260246000fd5b7f4e487b7100000000000000000000000000000000000000000000000000000000600052601160045260246000fd5b60006104508261031a565b915061045b8361031a565b92508261046b5761046a6103e7565b5b828204905092915050565b61047f816102dc565b82525050565b600060608201905061049a6000830186610476565b6104a76020830185610476565b6104b46040830184610390565b949350505050565b60008115159050919050565b6104d1816104bc565b81146104dc57600080fd5b50565b6000815190506104ee816104c8565b92915050565b60006020828403121561050a576105096102b7565b5b6000610518848285016104df565b91505092915050565b600061052c8261031a565b91506105378361031a565b92508282101561054a57610549610416565b5b828203905092915050565b60006105608261031a565b915061056b8361031a565b9250817fffffffffffffffffffffffffffffffffffffffffffffffffffffffffffffffff04831182151516156105a4576105a3610416565b5b828202905092915050565b60006105ba8261031a565b91506105c58361031a565b9250827fffffffffffffffffffffffffffffffffffffffffffffffffffffffffffffffff038211156105fa576105f9610416565b5b82820190509291505056fea2646970667358221220ed7e56c5be040cabd9c1a53eab69da509bf129ce61998b3f831cb95bfc5b164564736f6c634300080d0033",
  "linkReferences": {},
  "deployedLinkReferences": {}
}