{
  "_format": "hh-sol-artifact-1",
  "contractName": "RegistryBehodler",
  "sourceName": "contracts/testing/RegistryBehodler.sol",
  "abi": [
    {
      "inputs": [
        {
          "internalType": "address",
          "name": "token",
          "type": "address"
        },
        {
          "internalType": "uint256",
          "name": "amount",
          "type": "uint256"
        }
      ],
      "name": "addLiquidity",
      "outputs": [
        {
          "internalType": "uint256",
          "name": "",
          "type": "uint256"
        }
      ],
      "stateMutability": "nonpayable",
      "type": "function"
    },
    {
      "inputs": [
        {
          "internalType": "address",
          "name": "holder",
          "type": "address"
        }
      ],
      "name": "balanceOf",
      "outputs": [
        {
          "internalType": "uint256",
          "name": "",
          "type": "uint256"
        }
      ],
      "stateMutability": "view",
      "type": "function"
    },
    {
      "inputs": [
        {
          "internalType": "address",
          "name": "to",
          "type": "address"
        },
        {
          "internalType": "uint256",
          "name": "amount",
          "type": "uint256"
        }
      ],
      "name": "transfer",
      "outputs": [
        {
          "internalType": "bool",
          "name": "",
          "type": "bool"
        }
      ],
      "stateMutability": "nonpayable",
      "type": "function"
    }
  ],
  "bytecode": "0x608060405234801561001057600080fd5b50610681806100206000396000f3fe608060405234801561001057600080fd5b50600436106100415760003560e01c8063566887001461004657806370a0823114610076578063a9059cbb146100a6575b600080fd5b610060600480360381019061005b919061036c565b6100d6565b60405161006d91906103bb565b60405180910390f35b610090600480360381019061008b91906103d6565b6101bd565b60405161009d91906103bb565b60405180910390f35b6100c060048036038101906100bb919061036c565b610205565b6040516100cd919061041e565b60405180910390f35b6000600a826100e59190610497565b6000803373ffffffffffffffffffffffffffffffffffffffff1673ffffffffffffffffffffffffffffffffffffffff168152602001908152602001600020819055508273ffffffffffffffffffffffffffffffffffffffff166323b872dd3330856040518463ffffffff1660e01b8152600401610164939291906104d7565b6020604051808303816000875af1158015610183573d6000803e3d6000fd5b505050506040513d601f19601f820116820180604052508101906101a7919061053a565b50600a826101b59190610497565b905092915050565b60008060008373ffffffffffffffffffffffffffffffffffffffff1673ffffffffffffffffffffffffffffffffffffffff168152602001908152602001600020549050919050565b6000816000803373ffffffffffffffffffffffffffffffffffffffff1673ffffffffffffffffffffffffffffffffffffffff16815260200190815260200160002060008282546102559190610567565b92505081905550606460628361026b919061059b565b6102759190610497565b6000808573ffffffffffffffffffffffffffffffffffffffff1673ffffffffffffffffffffffffffffffffffffffff16815260200190815260200160002060008282546102c291906105f5565b925050819055506001905092915050565b600080fd5b600073ffffffffffffffffffffffffffffffffffffffff82169050919050565b6000610303826102d8565b9050919050565b610313816102f8565b811461031e57600080fd5b50565b6000813590506103308161030a565b92915050565b6000819050919050565b61034981610336565b811461035457600080fd5b50565b60008135905061036681610340565b92915050565b60008060408385031215610383576103826102d3565b5b600061039185828601610321565b92505060206103a285828601610357565b9150509250929050565b6103b581610336565b82525050565b60006020820190506103d060008301846103ac565b92915050565b6000602082840312156103ec576103eb6102d3565b5b60006103fa84828501610321565b91505092915050565b60008115159050919050565b61041881610403565b82525050565b6000602082019050610433600083018461040f565b92915050565b7f4e487b7100000000000000000000000000000000000000000000000000000000600052601260045260246000fd5b7f4e487b7100000000000000000000000000000000000000000000000000000000600052601160045260246000fd5b60006104a282610336565b91506104ad83610336565b9250826104bd576104bc610439565b5b828204905092915050565b6104d1816102f8565b82525050565b60006060820190506104ec60008301866104c8565b6104f960208301856104c8565b61050660408301846103ac565b949350505050565b61051781610403565b811461052257600080fd5b50565b6000815190506105348161050e565b92915050565b6000602082840312156105505761054f6102d3565b5b600061055e84828501610525565b91505092915050565b600061057282610336565b915061057d83610336565b9250828210156105905761058f610468565b5b828203905092915050565b60006105a682610336565b91506105b183610336565b9250817fffffffffffffffffffffffffffffffffffffffffffffffffffffffffffffffff04831182151516156105ea576105e9610468565b5b828202905092915050565b600061060082610336565b915061060b83610336565b9250827fffffffffffffffffffffffffffffffffffffffffffffffffffffffffffffffff038211156106405761063f610468565b5b82820190509291505056fea26469706673582212204a764223c73d9e3b4e3c8c3f14526e7c8a45ddd761aa276a3173da3f71ea32a464736f6c634300080d0033",
  "linkReferences": {},
  "deployedLinkReferences": {}
}