{
  "_format": "hh-sol-artifact-1",
  "contractName": "RegistryBehodler",
  "sourceName": "contracts/testing/RegistryBehodler.sol",
  "abi": [
    {
      "inputs": [
        {
          "internalType": "address",
          "name": "token",
          "type": "address"
        },
        {
          "internalType": "uint256",
          "name": "balance",
          "type": "uint256"
        }
      ],
      "name": "addLiquidity",
      "outputs": [],
      "stateMutability": "nonpayable",
      "type": "function"
    },
    {
      "inputs": [
        {
          "internalType": "address",
          "name": "to",
          "type": "address"
        },
        {
          "internalType": "uint256",
          "name": "amount",
          "type": "uint256"
        }
      ],
      "name": "transfer",
      "outputs": [],
      "stateMutability": "nonpayable",
      "type": "function"
    }
  ],
  "bytecode": "0x608060405234801561001057600080fd5b5061040e806100206000396000f3fe608060405234801561001057600080fd5b50600436106100365760003560e01c8063566887001461003b578063a9059cbb14610057575b600080fd5b61005560048036038101906100509190610225565b610073565b005b610071600480360381019061006c9190610225565b6100c6565b005b600a8161008091906102c3565b6000803373ffffffffffffffffffffffffffffffffffffffff1673ffffffffffffffffffffffffffffffffffffffff168152602001908152602001600020819055505050565b806000803373ffffffffffffffffffffffffffffffffffffffff1673ffffffffffffffffffffffffffffffffffffffff168152602001908152602001600020600082825461011491906102f4565b92505081905550606460628261012a9190610328565b61013491906102c3565b6000808473ffffffffffffffffffffffffffffffffffffffff1673ffffffffffffffffffffffffffffffffffffffff16815260200190815260200160002060008282546101819190610382565b925050819055505050565b600080fd5b600073ffffffffffffffffffffffffffffffffffffffff82169050919050565b60006101bc82610191565b9050919050565b6101cc816101b1565b81146101d757600080fd5b50565b6000813590506101e9816101c3565b92915050565b6000819050919050565b610202816101ef565b811461020d57600080fd5b50565b60008135905061021f816101f9565b92915050565b6000806040838503121561023c5761023b61018c565b5b600061024a858286016101da565b925050602061025b85828601610210565b9150509250929050565b7f4e487b7100000000000000000000000000000000000000000000000000000000600052601260045260246000fd5b7f4e487b7100000000000000000000000000000000000000000000000000000000600052601160045260246000fd5b60006102ce826101ef565b91506102d9836101ef565b9250826102e9576102e8610265565b5b828204905092915050565b60006102ff826101ef565b915061030a836101ef565b92508282101561031d5761031c610294565b5b828203905092915050565b6000610333826101ef565b915061033e836101ef565b9250817fffffffffffffffffffffffffffffffffffffffffffffffffffffffffffffffff048311821515161561037757610376610294565b5b828202905092915050565b600061038d826101ef565b9150610398836101ef565b9250827fffffffffffffffffffffffffffffffffffffffffffffffffffffffffffffffff038211156103cd576103cc610294565b5b82820190509291505056fea2646970667358221220980145697cc8117a9d5590cd517d9cefb94217cd685c95b1b4de7a424dd1062a64736f6c634300080d0033",
  "linkReferences": {},
  "deployedLinkReferences": {}
}