{
  "_format": "hh-sol-artifact-1",
  "contractName": "GovernableStub",
  "sourceName": "contracts/testing/GovernableStub.sol",
  "abi": [
    {
      "inputs": [
        {
          "internalType": "address",
          "name": "dao",
          "type": "address"
        }
      ],
      "stateMutability": "nonpayable",
      "type": "constructor"
    },
    {
      "inputs": [
        {
          "internalType": "address",
          "name": "configurationLord",
          "type": "address"
        },
        {
          "internalType": "address",
          "name": "msg_sender",
          "type": "address"
        }
      ],
      "name": "AccessDenied",
      "type": "error"
    },
    {
      "inputs": [
        {
          "internalType": "address",
          "name": "expectedDAO",
          "type": "address"
        },
        {
          "internalType": "address",
          "name": "actualDAO",
          "type": "address"
        }
      ],
      "name": "BackrunDetected",
      "type": "error"
    },
    {
      "inputs": [],
      "name": "DAO",
      "outputs": [
        {
          "internalType": "address",
          "name": "",
          "type": "address"
        }
      ],
      "stateMutability": "view",
      "type": "function"
    },
    {
      "inputs": [],
      "name": "configured",
      "outputs": [
        {
          "internalType": "bool",
          "name": "",
          "type": "bool"
        }
      ],
      "stateMutability": "view",
      "type": "function"
    },
    {
      "inputs": [
        {
          "internalType": "address",
          "name": "expectedDAO",
          "type": "address"
        }
      ],
      "name": "endConfiguration",
      "outputs": [],
      "stateMutability": "nonpayable",
      "type": "function"
    },
    {
      "inputs": [],
      "name": "governer",
      "outputs": [
        {
          "internalType": "contract FlashGovernanceArbiterLike",
          "name": "",
          "type": "address"
        }
      ],
      "stateMutability": "view",
      "type": "function"
    },
    {
      "inputs": [
        {
          "internalType": "address",
          "name": "dao",
          "type": "address"
        }
      ],
      "name": "setDAO",
      "outputs": [],
      "stateMutability": "nonpayable",
      "type": "function"
    },
    {
      "inputs": [],
      "name": "temporaryConfigurationLord",
      "outputs": [
        {
          "internalType": "address",
          "name": "",
          "type": "address"
        }
      ],
      "stateMutability": "view",
      "type": "function"
    },
    {
      "inputs": [
        {
          "internalType": "address",
          "name": "token",
          "type": "address"
        }
      ],
      "name": "userTokenBalance",
      "outputs": [
        {
          "internalType": "uint256",
          "name": "",
          "type": "uint256"
        }
      ],
      "stateMutability": "view",
      "type": "function"
    }
  ],
  "bytecode": "0x608060405234801561001057600080fd5b50604051610ab4380380610ab4833981810160405281019061003291906102d6565b806100428161008a60201b60201c565b33600160006101000a81548173ffffffffffffffffffffffffffffffffffffffff021916908373ffffffffffffffffffffffffffffffffffffffff160217905550505061033b565b600073ffffffffffffffffffffffffffffffffffffffff16600260009054906101000a900473ffffffffffffffffffffffffffffffffffffffff1673ffffffffffffffffffffffffffffffffffffffff16141580156101375750600260009054906101000a900473ffffffffffffffffffffffffffffffffffffffff1673ffffffffffffffffffffffffffffffffffffffff163373ffffffffffffffffffffffffffffffffffffffff1614155b801561014d575061014c61021b60201b60201c565b5b156101b357600160009054906101000a900473ffffffffffffffffffffffffffffffffffffffff16336040517fc21bbf9d0000000000000000000000000000000000000000000000000000000081526004016101aa929190610312565b60405180910390fd5b80600260006101000a81548173ffffffffffffffffffffffffffffffffffffffff021916908373ffffffffffffffffffffffffffffffffffffffff1602179055506000806101000a81549073ffffffffffffffffffffffffffffffffffffffff021916905550565b60008073ffffffffffffffffffffffffffffffffffffffff16600160009054906101000a900473ffffffffffffffffffffffffffffffffffffffff1673ffffffffffffffffffffffffffffffffffffffff1614905090565b600080fd5b600073ffffffffffffffffffffffffffffffffffffffff82169050919050565b60006102a382610278565b9050919050565b6102b381610298565b81146102be57600080fd5b50565b6000815190506102d0816102aa565b92915050565b6000602082840312156102ec576102eb610273565b5b60006102fa848285016102c1565b91505092915050565b61030c81610298565b82525050565b60006040820190506103276000830185610303565b6103346020830184610303565b9392505050565b61076a8061034a6000396000f3fe608060405234801561001057600080fd5b506004361061007d5760003560e01c80638772a23a1161005b5780638772a23a146100ec57806398fabd3a1461010a578063dd77a47514610128578063e73a914c146101465761007d565b806329a87023146100825780633091dde1146100b25780634eaa7eb2146100d0575b600080fd5b61009c600480360381019061009791906105d0565b610162565b6040516100a99190610616565b60405180910390f35b6100ba610169565b6040516100c79190610690565b60405180910390f35b6100ea60048036038101906100e591906105d0565b61018d565b005b6100f461033e565b60405161010191906106c6565b60405180910390f35b610112610396565b60405161011f91906106f0565b60405180910390f35b6101306103bc565b60405161013d91906106f0565b60405180910390f35b610160600480360381019061015b91906105d0565b6103e2565b005b6000919050565b60008054906101000a900473ffffffffffffffffffffffffffffffffffffffff1681565b600160009054906101000a900473ffffffffffffffffffffffffffffffffffffffff1673ffffffffffffffffffffffffffffffffffffffff163373ffffffffffffffffffffffffffffffffffffffff161461024357600160009054906101000a900473ffffffffffffffffffffffffffffffffffffffff16336040517fc21bbf9d00000000000000000000000000000000000000000000000000000000815260040161023a92919061070b565b60405180910390fd5b600260009054906101000a900473ffffffffffffffffffffffffffffffffffffffff1673ffffffffffffffffffffffffffffffffffffffff168173ffffffffffffffffffffffffffffffffffffffff16146102f95780600260009054906101000a900473ffffffffffffffffffffffffffffffffffffffff166040517f3f0e21330000000000000000000000000000000000000000000000000000000081526004016102f092919061070b565b60405180910390fd5b6000600160006101000a81548173ffffffffffffffffffffffffffffffffffffffff021916908373ffffffffffffffffffffffffffffffffffffffff16021790555050565b60008073ffffffffffffffffffffffffffffffffffffffff16600160009054906101000a900473ffffffffffffffffffffffffffffffffffffffff1673ffffffffffffffffffffffffffffffffffffffff1614905090565b600260009054906101000a900473ffffffffffffffffffffffffffffffffffffffff1681565b600160009054906101000a900473ffffffffffffffffffffffffffffffffffffffff1681565b600073ffffffffffffffffffffffffffffffffffffffff16600260009054906101000a900473ffffffffffffffffffffffffffffffffffffffff1673ffffffffffffffffffffffffffffffffffffffff161415801561048f5750600260009054906101000a900473ffffffffffffffffffffffffffffffffffffffff1673ffffffffffffffffffffffffffffffffffffffff163373ffffffffffffffffffffffffffffffffffffffff1614155b801561049f575061049e61033e565b5b1561050557600160009054906101000a900473ffffffffffffffffffffffffffffffffffffffff16336040517fc21bbf9d0000000000000000000000000000000000000000000000000000000081526004016104fc92919061070b565b60405180910390fd5b80600260006101000a81548173ffffffffffffffffffffffffffffffffffffffff021916908373ffffffffffffffffffffffffffffffffffffffff1602179055506000806101000a81549073ffffffffffffffffffffffffffffffffffffffff021916905550565b600080fd5b600073ffffffffffffffffffffffffffffffffffffffff82169050919050565b600061059d82610572565b9050919050565b6105ad81610592565b81146105b857600080fd5b50565b6000813590506105ca816105a4565b92915050565b6000602082840312156105e6576105e561056d565b5b60006105f4848285016105bb565b91505092915050565b6000819050919050565b610610816105fd565b82525050565b600060208201905061062b6000830184610607565b92915050565b6000819050919050565b600061065661065161064c84610572565b610631565b610572565b9050919050565b60006106688261063b565b9050919050565b600061067a8261065d565b9050919050565b61068a8161066f565b82525050565b60006020820190506106a56000830184610681565b92915050565b60008115159050919050565b6106c0816106ab565b82525050565b60006020820190506106db60008301846106b7565b92915050565b6106ea81610592565b82525050565b600060208201905061070560008301846106e1565b92915050565b600060408201905061072060008301856106e1565b61072d60208301846106e1565b939250505056fea264697066735822122004f41a1839ed6372b9f62b27a3471936a0fcb8c622ef8c0c0fc9ae63ccfe4df764736f6c634300080d0033",
  "linkReferences": {},
  "deployedLinkReferences": {}
}