{
  "_format": "hh-sol-artifact-1",
  "contractName": "GovernableStub",
  "sourceName": "contracts/testing/GovernableStub.sol",
  "abi": [
    {
      "inputs": [
        {
          "internalType": "address",
          "name": "dao",
          "type": "address"
        }
      ],
      "stateMutability": "nonpayable",
      "type": "constructor"
    },
    {
      "inputs": [
        {
          "internalType": "address",
          "name": "configurationLord",
          "type": "address"
        },
        {
          "internalType": "address",
          "name": "msg_sender",
          "type": "address"
        }
      ],
      "name": "AccessDenied",
      "type": "error"
    },
    {
      "inputs": [
        {
          "internalType": "address",
          "name": "expectedDAO",
          "type": "address"
        },
        {
          "internalType": "address",
          "name": "actualDAO",
          "type": "address"
        }
      ],
      "name": "BackrunDetected",
      "type": "error"
    },
    {
      "inputs": [],
      "name": "DAO",
      "outputs": [
        {
          "internalType": "address",
          "name": "",
          "type": "address"
        }
      ],
      "stateMutability": "view",
      "type": "function"
    },
    {
      "inputs": [],
      "name": "configured",
      "outputs": [
        {
          "internalType": "bool",
          "name": "",
          "type": "bool"
        }
      ],
      "stateMutability": "view",
      "type": "function"
    },
    {
      "inputs": [
        {
          "internalType": "address",
          "name": "expectedDAO",
          "type": "address"
        }
      ],
      "name": "endConfiguration",
      "outputs": [],
      "stateMutability": "nonpayable",
      "type": "function"
    },
    {
      "inputs": [],
      "name": "governer",
      "outputs": [
        {
          "internalType": "contract FlashGovernanceArbiterLike",
          "name": "",
          "type": "address"
        }
      ],
      "stateMutability": "view",
      "type": "function"
    },
    {
      "inputs": [
        {
          "internalType": "address",
          "name": "dao",
          "type": "address"
        }
      ],
      "name": "setDAO",
      "outputs": [],
      "stateMutability": "nonpayable",
      "type": "function"
    },
    {
      "inputs": [],
      "name": "temporaryConfigurationLord",
      "outputs": [
        {
          "internalType": "address",
          "name": "",
          "type": "address"
        }
      ],
      "stateMutability": "view",
      "type": "function"
    },
    {
      "inputs": [
        {
          "internalType": "address",
          "name": "token",
          "type": "address"
        }
      ],
      "name": "userTokenBalance",
      "outputs": [
        {
          "internalType": "uint256",
          "name": "",
          "type": "uint256"
        }
      ],
      "stateMutability": "view",
      "type": "function"
    }
  ],
  "bytecode": "0x608060405234801561001057600080fd5b5060405161094a38038061094a83398181016040528101906100329190610221565b8033600160006101000a81548173ffffffffffffffffffffffffffffffffffffffff021916908373ffffffffffffffffffffffffffffffffffffffff1602179055506100838161008a60201b60201c565b5050610286565b61009861016660201b60201c565b156100fe57600160009054906101000a900473ffffffffffffffffffffffffffffffffffffffff16336040517fc21bbf9d0000000000000000000000000000000000000000000000000000000081526004016100f592919061025d565b60405180910390fd5b80600260006101000a81548173ffffffffffffffffffffffffffffffffffffffff021916908373ffffffffffffffffffffffffffffffffffffffff1602179055506000806101000a81549073ffffffffffffffffffffffffffffffffffffffff021916905550565b60008073ffffffffffffffffffffffffffffffffffffffff16600160009054906101000a900473ffffffffffffffffffffffffffffffffffffffff1673ffffffffffffffffffffffffffffffffffffffff1614905090565b600080fd5b600073ffffffffffffffffffffffffffffffffffffffff82169050919050565b60006101ee826101c3565b9050919050565b6101fe816101e3565b811461020957600080fd5b50565b60008151905061021b816101f5565b92915050565b600060208284031215610237576102366101be565b5b60006102458482850161020c565b91505092915050565b610257816101e3565b82525050565b6000604082019050610272600083018561024e565b61027f602083018461024e565b9392505050565b6106b5806102956000396000f3fe608060405234801561001057600080fd5b506004361061007d5760003560e01c80638772a23a1161005b5780638772a23a146100ec57806398fabd3a1461010a578063dd77a47514610128578063e73a914c146101465761007d565b806329a87023146100825780633091dde1146100b25780634eaa7eb2146100d0575b600080fd5b61009c6004803603810190610097919061051b565b610162565b6040516100a99190610561565b60405180910390f35b6100ba610169565b6040516100c791906105db565b60405180910390f35b6100ea60048036038101906100e5919061051b565b61018d565b005b6100f461033e565b6040516101019190610611565b60405180910390f35b610112610396565b60405161011f919061063b565b60405180910390f35b6101306103bc565b60405161013d919061063b565b60405180910390f35b610160600480360381019061015b919061051b565b6103e2565b005b6000919050565b60008054906101000a900473ffffffffffffffffffffffffffffffffffffffff1681565b600160009054906101000a900473ffffffffffffffffffffffffffffffffffffffff1673ffffffffffffffffffffffffffffffffffffffff163373ffffffffffffffffffffffffffffffffffffffff161461024357600160009054906101000a900473ffffffffffffffffffffffffffffffffffffffff16336040517fc21bbf9d00000000000000000000000000000000000000000000000000000000815260040161023a929190610656565b60405180910390fd5b600260009054906101000a900473ffffffffffffffffffffffffffffffffffffffff1673ffffffffffffffffffffffffffffffffffffffff168173ffffffffffffffffffffffffffffffffffffffff16146102f95780600260009054906101000a900473ffffffffffffffffffffffffffffffffffffffff166040517f3f0e21330000000000000000000000000000000000000000000000000000000081526004016102f0929190610656565b60405180910390fd5b6000600160006101000a81548173ffffffffffffffffffffffffffffffffffffffff021916908373ffffffffffffffffffffffffffffffffffffffff16021790555050565b60008073ffffffffffffffffffffffffffffffffffffffff16600160009054906101000a900473ffffffffffffffffffffffffffffffffffffffff1673ffffffffffffffffffffffffffffffffffffffff1614905090565b600260009054906101000a900473ffffffffffffffffffffffffffffffffffffffff1681565b600160009054906101000a900473ffffffffffffffffffffffffffffffffffffffff1681565b6103ea61033e565b1561045057600160009054906101000a900473ffffffffffffffffffffffffffffffffffffffff16336040517fc21bbf9d000000000000000000000000000000000000000000000000000000008152600401610447929190610656565b60405180910390fd5b80600260006101000a81548173ffffffffffffffffffffffffffffffffffffffff021916908373ffffffffffffffffffffffffffffffffffffffff1602179055506000806101000a81549073ffffffffffffffffffffffffffffffffffffffff021916905550565b600080fd5b600073ffffffffffffffffffffffffffffffffffffffff82169050919050565b60006104e8826104bd565b9050919050565b6104f8816104dd565b811461050357600080fd5b50565b600081359050610515816104ef565b92915050565b600060208284031215610531576105306104b8565b5b600061053f84828501610506565b91505092915050565b6000819050919050565b61055b81610548565b82525050565b60006020820190506105766000830184610552565b92915050565b6000819050919050565b60006105a161059c610597846104bd565b61057c565b6104bd565b9050919050565b60006105b382610586565b9050919050565b60006105c5826105a8565b9050919050565b6105d5816105ba565b82525050565b60006020820190506105f060008301846105cc565b92915050565b60008115159050919050565b61060b816105f6565b82525050565b60006020820190506106266000830184610602565b92915050565b610635816104dd565b82525050565b6000602082019050610650600083018461062c565b92915050565b600060408201905061066b600083018561062c565b610678602083018461062c565b939250505056fea264697066735822122014711641b45586c051519aa8942c8b45dd18fb0c860693aac92de457b066045364736f6c634300080d0033",
  "linkReferences": {},
  "deployedLinkReferences": {}
}