{
  "_format": "hh-sol-artifact-1",
  "contractName": "CliffFace",
  "sourceName": "contracts/TokenProxies/CliffFace.sol",
  "abi": [
    {
      "inputs": [
        {
          "internalType": "address",
          "name": "_baseToken",
          "type": "address"
        },
        {
          "internalType": "string",
          "name": "name_",
          "type": "string"
        },
        {
          "internalType": "string",
          "name": "symbol_",
          "type": "string"
        },
        {
          "internalType": "address",
          "name": "registry",
          "type": "address"
        },
        {
          "internalType": "address",
          "name": "_referenceToken",
          "type": "address"
        },
        {
          "internalType": "uint256",
          "name": "multiple",
          "type": "uint256"
        },
        {
          "internalType": "address",
          "name": "_behodler",
          "type": "address"
        },
        {
          "internalType": "uint256",
          "name": "_initalRedeemRate",
          "type": "uint256"
        }
      ],
      "stateMutability": "nonpayable",
      "type": "constructor"
    },
    {
      "inputs": [
        {
          "internalType": "uint256",
          "name": "allowance",
          "type": "uint256"
        },
        {
          "internalType": "uint256",
          "name": "amount",
          "type": "uint256"
        }
      ],
      "name": "AllowanceExceeded",
      "type": "error"
    },
    {
      "inputs": [
        {
          "internalType": "uint256",
          "name": "allowance",
          "type": "uint256"
        },
        {
          "internalType": "uint256",
          "name": "subtraction",
          "type": "uint256"
        }
      ],
      "name": "AllowanceUnderflow",
      "type": "error"
    },
    {
      "inputs": [
        {
          "internalType": "address",
          "name": "token",
          "type": "address"
        },
        {
          "internalType": "address",
          "name": "spender",
          "type": "address"
        },
        {
          "internalType": "uint256",
          "name": "amount",
          "type": "uint256"
        }
      ],
      "name": "ApproveToNonZero",
      "type": "error"
    },
    {
      "inputs": [
        {
          "internalType": "uint256",
          "name": "output",
          "type": "uint256"
        },
        {
          "internalType": "uint256",
          "name": "expectedOutput",
          "type": "uint256"
        }
      ],
      "name": "BehodlerSwapInInvariantViolated",
      "type": "error"
    },
    {
      "inputs": [
        {
          "internalType": "address",
          "name": "inputToken",
          "type": "address"
        },
        {
          "internalType": "uint256",
          "name": "actualAmount",
          "type": "uint256"
        },
        {
          "internalType": "uint256",
          "name": "expectedAmount",
          "type": "uint256"
        }
      ],
      "name": "BehodlerSwapOutInvariantViolated",
      "type": "error"
    },
    {
      "inputs": [
        {
          "internalType": "uint256",
          "name": "accountBalance",
          "type": "uint256"
        },
        {
          "internalType": "uint256",
          "name": "amount",
          "type": "uint256"
        }
      ],
      "name": "BurnUnderflow",
      "type": "error"
    },
    {
      "inputs": [
        {
          "internalType": "uint256",
          "name": "balance",
          "type": "uint256"
        },
        {
          "internalType": "uint256",
          "name": "value",
          "type": "uint256"
        }
      ],
      "name": "InsufficinetFunds",
      "type": "error"
    },
    {
      "inputs": [
        {
          "internalType": "address",
          "name": "EOA",
          "type": "address"
        }
      ],
      "name": "NotAContract",
      "type": "error"
    },
    {
      "inputs": [
        {
          "internalType": "address",
          "name": "sender",
          "type": "address"
        },
        {
          "internalType": "address",
          "name": "proxy",
          "type": "address"
        }
      ],
      "name": "OnlyProxy",
      "type": "error"
    },
    {
      "inputs": [],
      "name": "OperationFailure",
      "type": "error"
    },
    {
      "inputs": [
        {
          "internalType": "uint256",
          "name": "blockNumber",
          "type": "uint256"
        },
        {
          "internalType": "uint256",
          "name": "priorBlockNumber",
          "type": "uint256"
        }
      ],
      "name": "SlippageManipulationPrevention",
      "type": "error"
    },
    {
      "inputs": [
        {
          "internalType": "uint256",
          "name": "senderBalance",
          "type": "uint256"
        },
        {
          "internalType": "uint256",
          "name": "fee",
          "type": "uint256"
        },
        {
          "internalType": "uint256",
          "name": "amount",
          "type": "uint256"
        }
      ],
      "name": "TransferUnderflow",
      "type": "error"
    },
    {
      "anonymous": false,
      "inputs": [
        {
          "indexed": true,
          "internalType": "address",
          "name": "owner",
          "type": "address"
        },
        {
          "indexed": true,
          "internalType": "address",
          "name": "spender",
          "type": "address"
        },
        {
          "indexed": false,
          "internalType": "uint256",
          "name": "value",
          "type": "uint256"
        }
      ],
      "name": "Approval",
      "type": "event"
    },
    {
      "anonymous": false,
      "inputs": [
        {
          "indexed": true,
          "internalType": "address",
          "name": "from",
          "type": "address"
        },
        {
          "indexed": true,
          "internalType": "address",
          "name": "to",
          "type": "address"
        },
        {
          "indexed": false,
          "internalType": "uint256",
          "name": "value",
          "type": "uint256"
        }
      ],
      "name": "Transfer",
      "type": "event"
    },
    {
      "inputs": [],
      "name": "IS_PROXY",
      "outputs": [
        {
          "internalType": "bool",
          "name": "",
          "type": "bool"
        }
      ],
      "stateMutability": "view",
      "type": "function"
    },
    {
      "inputs": [
        {
          "internalType": "address",
          "name": "owner",
          "type": "address"
        },
        {
          "internalType": "address",
          "name": "spender",
          "type": "address"
        }
      ],
      "name": "allowance",
      "outputs": [
        {
          "internalType": "uint256",
          "name": "",
          "type": "uint256"
        }
      ],
      "stateMutability": "view",
      "type": "function"
    },
    {
      "inputs": [
        {
          "internalType": "address",
          "name": "spender",
          "type": "address"
        },
        {
          "internalType": "uint256",
          "name": "amount",
          "type": "uint256"
        }
      ],
      "name": "approve",
      "outputs": [
        {
          "internalType": "bool",
          "name": "",
          "type": "bool"
        }
      ],
      "stateMutability": "nonpayable",
      "type": "function"
    },
    {
      "inputs": [
        {
          "internalType": "address",
          "name": "inputToken",
          "type": "address"
        }
      ],
      "name": "approveBehodlerFor",
      "outputs": [],
      "stateMutability": "nonpayable",
      "type": "function"
    },
    {
      "inputs": [
        {
          "internalType": "address",
          "name": "account",
          "type": "address"
        }
      ],
      "name": "balanceOf",
      "outputs": [
        {
          "internalType": "uint256",
          "name": "",
          "type": "uint256"
        }
      ],
      "stateMutability": "view",
      "type": "function"
    },
    {
      "inputs": [],
      "name": "baseToken",
      "outputs": [
        {
          "internalType": "address",
          "name": "",
          "type": "address"
        }
      ],
      "stateMutability": "view",
      "type": "function"
    },
    {
      "inputs": [],
      "name": "decimals",
      "outputs": [
        {
          "internalType": "uint8",
          "name": "",
          "type": "uint8"
        }
      ],
      "stateMutability": "view",
      "type": "function"
    },
    {
      "inputs": [
        {
          "internalType": "address",
          "name": "spender",
          "type": "address"
        },
        {
          "internalType": "uint256",
          "name": "subtractedValue",
          "type": "uint256"
        }
      ],
      "name": "decreaseAllowance",
      "outputs": [
        {
          "internalType": "bool",
          "name": "",
          "type": "bool"
        }
      ],
      "stateMutability": "nonpayable",
      "type": "function"
    },
    {
      "inputs": [
        {
          "internalType": "address",
          "name": "spender",
          "type": "address"
        },
        {
          "internalType": "uint256",
          "name": "addedValue",
          "type": "uint256"
        }
      ],
      "name": "increaseAllowance",
      "outputs": [
        {
          "internalType": "bool",
          "name": "",
          "type": "bool"
        }
      ],
      "stateMutability": "nonpayable",
      "type": "function"
    },
    {
      "inputs": [],
      "name": "initialRedeemRate",
      "outputs": [
        {
          "internalType": "uint256",
          "name": "",
          "type": "uint256"
        }
      ],
      "stateMutability": "view",
      "type": "function"
    },
    {
      "inputs": [
        {
          "internalType": "address",
          "name": "newProxy",
          "type": "address"
        }
      ],
      "name": "migrateBaseReserveToNewProxy",
      "outputs": [],
      "stateMutability": "nonpayable",
      "type": "function"
    },
    {
      "inputs": [
        {
          "internalType": "address",
          "name": "proxyRecipient",
          "type": "address"
        },
        {
          "internalType": "address",
          "name": "baseSource",
          "type": "address"
        },
        {
          "internalType": "uint256",
          "name": "amount",
          "type": "uint256"
        }
      ],
      "name": "mint",
      "outputs": [
        {
          "internalType": "uint256",
          "name": "proxy",
          "type": "uint256"
        }
      ],
      "stateMutability": "nonpayable",
      "type": "function"
    },
    {
      "inputs": [],
      "name": "name",
      "outputs": [
        {
          "internalType": "string",
          "name": "",
          "type": "string"
        }
      ],
      "stateMutability": "view",
      "type": "function"
    },
    {
      "inputs": [],
      "name": "proxyRegistry",
      "outputs": [
        {
          "internalType": "address",
          "name": "",
          "type": "address"
        }
      ],
      "stateMutability": "view",
      "type": "function"
    },
    {
      "inputs": [
        {
          "internalType": "address",
          "name": "proxySource",
          "type": "address"
        },
        {
          "internalType": "address",
          "name": "baseRecipient",
          "type": "address"
        },
        {
          "internalType": "uint256",
          "name": "amount",
          "type": "uint256"
        }
      ],
      "name": "redeem",
      "outputs": [
        {
          "internalType": "uint256",
          "name": "baseAmount",
          "type": "uint256"
        }
      ],
      "stateMutability": "nonpayable",
      "type": "function"
    },
    {
      "inputs": [],
      "name": "redeemRate",
      "outputs": [
        {
          "internalType": "uint256",
          "name": "",
          "type": "uint256"
        }
      ],
      "stateMutability": "view",
      "type": "function"
    },
    {
      "inputs": [],
      "name": "referenceMultiple",
      "outputs": [
        {
          "internalType": "uint256",
          "name": "",
          "type": "uint256"
        }
      ],
      "stateMutability": "view",
      "type": "function"
    },
    {
      "inputs": [],
      "name": "referenceToken",
      "outputs": [
        {
          "internalType": "address",
          "name": "",
          "type": "address"
        }
      ],
      "stateMutability": "view",
      "type": "function"
    },
    {
      "inputs": [
        {
          "internalType": "uint256",
          "name": "initialSupply",
          "type": "uint256"
        },
        {
          "internalType": "address",
          "name": "scxDestination",
          "type": "address"
        }
      ],
      "name": "seedBehodler",
      "outputs": [],
      "stateMutability": "nonpayable",
      "type": "function"
    },
    {
      "inputs": [
        {
          "internalType": "address",
          "name": "outputRecipient",
          "type": "address"
        },
        {
          "internalType": "address",
          "name": "outputToken",
          "type": "address"
        },
        {
          "internalType": "uint256",
          "name": "outputAmount",
          "type": "uint256"
        },
        {
          "internalType": "uint256",
          "name": "baseTokenAmount",
          "type": "uint256"
        }
      ],
      "name": "swapAsInput",
      "outputs": [
        {
          "internalType": "bool",
          "name": "",
          "type": "bool"
        }
      ],
      "stateMutability": "nonpayable",
      "type": "function"
    },
    {
      "inputs": [
        {
          "internalType": "address",
          "name": "outputRecipient",
          "type": "address"
        },
        {
          "internalType": "address",
          "name": "input",
          "type": "address"
        },
        {
          "internalType": "uint256",
          "name": "proxyTokensToRelease",
          "type": "uint256"
        },
        {
          "internalType": "uint256",
          "name": "expectedInputAmount",
          "type": "uint256"
        }
      ],
      "name": "swapAsOuput",
      "outputs": [
        {
          "internalType": "bool",
          "name": "",
          "type": "bool"
        }
      ],
      "stateMutability": "nonpayable",
      "type": "function"
    },
    {
      "inputs": [],
      "name": "symbol",
      "outputs": [
        {
          "internalType": "string",
          "name": "",
          "type": "string"
        }
      ],
      "stateMutability": "view",
      "type": "function"
    },
    {
      "inputs": [],
      "name": "totalSupply",
      "outputs": [
        {
          "internalType": "uint256",
          "name": "",
          "type": "uint256"
        }
      ],
      "stateMutability": "view",
      "type": "function"
    },
    {
      "inputs": [
        {
          "internalType": "address",
          "name": "recipient",
          "type": "address"
        },
        {
          "internalType": "uint256",
          "name": "amount",
          "type": "uint256"
        }
      ],
      "name": "transfer",
      "outputs": [
        {
          "internalType": "bool",
          "name": "",
          "type": "bool"
        }
      ],
      "stateMutability": "nonpayable",
      "type": "function"
    },
    {
      "inputs": [
        {
          "internalType": "address",
          "name": "sender",
          "type": "address"
        },
        {
          "internalType": "address",
          "name": "recipient",
          "type": "address"
        },
        {
          "internalType": "uint256",
          "name": "amount",
          "type": "uint256"
        }
      ],
      "name": "transferFrom",
      "outputs": [
        {
          "internalType": "bool",
          "name": "",
          "type": "bool"
        }
      ],
      "stateMutability": "nonpayable",
      "type": "function"
    },
    {
      "inputs": [],
      "name": "withdrawReserve",
      "outputs": [],
      "stateMutability": "nonpayable",
      "type": "function"
    }
  ],
  "bytecode": "0x6101406040523480156200001257600080fd5b5060405162003d1738038062003d178339818101604052810190620000389190620004f8565b8188888888858484848484838381600390805190602001906200005d9291906200020b565b508060049080519060200190620000769291906200020b565b5050508473ffffffffffffffffffffffffffffffffffffffff1660a08173ffffffffffffffffffffffffffffffffffffffff16815250508173ffffffffffffffffffffffffffffffffffffffff1660808173ffffffffffffffffffffffffffffffffffffffff16815250508060c0818152505050505050508573ffffffffffffffffffffffffffffffffffffffff1660e08173ffffffffffffffffffffffffffffffffffffffff16815250505050505050508373ffffffffffffffffffffffffffffffffffffffff166101008173ffffffffffffffffffffffffffffffffffffffff16815250508261012081815250506101005173ffffffffffffffffffffffffffffffffffffffff166370a0823160e0516040518263ffffffff1660e01b8152600401620001a6919062000610565b602060405180830381865afa158015620001c4573d6000803e3d6000fd5b505050506040513d601f19601f82011682018060405250810190620001ea91906200062d565b600560000181905550436005600101819055505050505050505050620006c3565b82805462000219906200068e565b90600052602060002090601f0160209004810192826200023d576000855562000289565b82601f106200025857805160ff191683800117855562000289565b8280016001018555821562000289579182015b82811115620002885782518255916020019190600101906200026b565b5b5090506200029891906200029c565b5090565b5b80821115620002b75760008160009055506001016200029d565b5090565b6000604051905090565b600080fd5b600080fd5b600073ffffffffffffffffffffffffffffffffffffffff82169050919050565b6000620002fc82620002cf565b9050919050565b6200030e81620002ef565b81146200031a57600080fd5b50565b6000815190506200032e8162000303565b92915050565b600080fd5b600080fd5b6000601f19601f8301169050919050565b7f4e487b7100000000000000000000000000000000000000000000000000000000600052604160045260246000fd5b62000389826200033e565b810181811067ffffffffffffffff82111715620003ab57620003aa6200034f565b5b80604052505050565b6000620003c0620002bb565b9050620003ce82826200037e565b919050565b600067ffffffffffffffff821115620003f157620003f06200034f565b5b620003fc826200033e565b9050602081019050919050565b60005b83811015620004295780820151818401526020810190506200040c565b8381111562000439576000848401525b50505050565b6000620004566200045084620003d3565b620003b4565b90508281526020810184848401111562000475576200047462000339565b5b6200048284828562000409565b509392505050565b600082601f830112620004a257620004a162000334565b5b8151620004b48482602086016200043f565b91505092915050565b6000819050919050565b620004d281620004bd565b8114620004de57600080fd5b50565b600081519050620004f281620004c7565b92915050565b600080600080600080600080610100898b0312156200051c576200051b620002c5565b5b60006200052c8b828c016200031d565b985050602089015167ffffffffffffffff81111562000550576200054f620002ca565b5b6200055e8b828c016200048a565b975050604089015167ffffffffffffffff811115620005825762000581620002ca565b5b620005908b828c016200048a565b9650506060620005a38b828c016200031d565b9550506080620005b68b828c016200031d565b94505060a0620005c98b828c01620004e1565b93505060c0620005dc8b828c016200031d565b92505060e0620005ef8b828c01620004e1565b9150509295985092959890939650565b6200060a81620002ef565b82525050565b6000602082019050620006276000830184620005ff565b92915050565b600060208284031215620006465762000645620002c5565b5b60006200065684828501620004e1565b91505092915050565b7f4e487b7100000000000000000000000000000000000000000000000000000000600052602260045260246000fd5b60006002820490506001821680620006a757607f821691505b602082108103620006bd57620006bc6200065f565b5b50919050565b60805160a05160c05160e05161010051610120516134c96200084e600039600081816109b9015281816111b9015261122a0152600081816107c1015281816110650152611db601526000818161102901528181611108015281816112ce015281816113230152818161140d015281816114b2015281816117070152818161175c015281816118a201528181611b8a01528181611c2e01528181611c7701528181611d1701528181611df20152611e950152600081816106b0015281816106e10152818161073501528181610a2501528181610f550152818161118f015281816111e90152818161125c0152818161186201528181611bff015281816124ca015261269f0152600081816105f90152818161077301528181610c8901528181610d2301528181610d8f01528181610dc201528181610e6401528181610eae0152818161155e01528181611a680152818161250c015281816125ae01526125f8015260008181610bd301528181610c2701528181610d6b015281816119b40152611a0801526134c96000f3fe608060405234801561001057600080fd5b506004361061018e5760003560e01c8063a457c2d7116100de578063ca409f4d11610097578063ed3b379b11610071578063ed3b379b146104d9578063ed6de174146104f5578063fbed2d7214610511578063fc6a15f91461052f5761018e565b8063ca409f4d14610449578063dd62ed3e14610479578063ea2cd00c146104a95761018e565b8063a457c2d714610373578063a9059cbb146103a3578063ace1fab1146103d3578063b50cbd9f146103dd578063c55dae63146103fb578063c6c3bbe6146104195761018e565b806323b872dd1161014b5780634e2c172d116101255780634e2c172d146102e957806370a08231146103075780637376dd791461033757806395d89b41146103555761018e565b806323b872dd1461026b578063313ce5671461029b57806339509351146102b95761018e565b806306fdde0314610193578063095ea7b3146101b15780630adcdbaa146101e15780630e6dfcd5146101ff5780631265b6511461022f57806318160ddd1461024d575b600080fd5b61019b61054b565b6040516101a89190612b7c565b60405180910390f35b6101cb60048036038101906101c69190612c37565b6105dd565b6040516101d89190612c92565b60405180910390f35b6101e96105f4565b6040516101f69190612cbc565b60405180910390f35b61021960048036038101906102149190612cd7565b61071c565b6040516102269190612cbc565b60405180910390f35b6102376107bf565b6040516102449190612d39565b60405180910390f35b6102556107e3565b6040516102629190612cbc565b60405180910390f35b61028560048036038101906102809190612cd7565b6107ed565b6040516102929190612c92565b60405180910390f35b6102a3610910565b6040516102b09190612d70565b60405180910390f35b6102d360048036038101906102ce9190612c37565b610919565b6040516102e09190612c92565b60405180910390f35b6102f16109b7565b6040516102fe9190612cbc565b60405180910390f35b610321600480360381019061031c9190612d8b565b6109db565b60405161032e9190612cbc565b60405180910390f35b61033f610a23565b60405161034c9190612cbc565b60405180910390f35b61035d610a47565b60405161036a9190612b7c565b60405180910390f35b61038d60048036038101906103889190612c37565b610ad9565b60405161039a9190612c92565b60405180910390f35b6103bd60048036038101906103b89190612c37565b610bba565b6040516103ca9190612c92565b60405180910390f35b6103db610bd1565b005b6103e5610d69565b6040516103f29190612d39565b60405180910390f35b610403610d8d565b6040516104109190612d39565b60405180910390f35b610433600480360381019061042e9190612cd7565b610db1565b6040516104409190612cbc565b60405180910390f35b610463600480360381019061045e9190612db8565b610f9f565b6040516104709190612c92565b60405180910390f35b610493600480360381019061048e9190612e1f565b6115fb565b6040516104a09190612cbc565b60405180910390f35b6104c360048036038101906104be9190612db8565b611682565b6040516104d09190612c92565b60405180910390f35b6104f360048036038101906104ee9190612d8b565b6119b2565b005b61050f600480360381019061050a9190612d8b565b611b85565b005b610519611bf3565b6040516105269190612c92565b60405180910390f35b61054960048036038101906105449190612e5f565b611bf8565b005b60606003805461055a90612ece565b80601f016020809104026020016040519081016040528092919081815260200182805461058690612ece565b80156105d35780601f106105a8576101008083540402835291602001916105d3565b820191906000526020600020905b8154815290600101906020018083116105b657829003601f168201915b5050505050905090565b60006105ea338484611f20565b6001905092915050565b6000807f000000000000000000000000000000000000000000000000000000000000000073ffffffffffffffffffffffffffffffffffffffff166370a08231306040518263ffffffff1660e01b81526004016106509190612d39565b602060405180830381865afa15801561066d573d6000803e3d6000fd5b505050506040513d601f19601f820116820180604052508101906106919190612f14565b9050600061069d6107e3565b14806106a95750600081145b156106d7577f0000000000000000000000000000000000000000000000000000000000000000915050610719565b6106df6107e3565b7f00000000000000000000000000000000000000000000000000000000000000008261070b9190612f70565b6107159190612ff9565b9150505b90565b6000806107276105f4565b9050610733858461200b565b7f000000000000000000000000000000000000000000000000000000000000000081846107609190612f70565b61076a9190612ff9565b91506107b784837f000000000000000000000000000000000000000000000000000000000000000073ffffffffffffffffffffffffffffffffffffffff166121559092919063ffffffff16565b509392505050565b7f000000000000000000000000000000000000000000000000000000000000000081565b6000600254905090565b60006107fa8484846121db565b6000600160008673ffffffffffffffffffffffffffffffffffffffff1673ffffffffffffffffffffffffffffffffffffffff16815260200190815260200160002060003373ffffffffffffffffffffffffffffffffffffffff1673ffffffffffffffffffffffffffffffffffffffff1681526020019081526020016000205490507fffffffffffffffffffffffffffffffffffffffffffffffffffffffffffffffff81141580156108aa57508083115b156108ee5780836040517fa92482560000000000000000000000000000000000000000000000000000000081526004016108e592919061302a565b60405180910390fd5b610904853385846108ff9190613053565b611f20565b60019150509392505050565b60006012905090565b60006109ad338484600160003373ffffffffffffffffffffffffffffffffffffffff1673ffffffffffffffffffffffffffffffffffffffff16815260200190815260200160002060008873ffffffffffffffffffffffffffffffffffffffff1673ffffffffffffffffffffffffffffffffffffffff168152602001908152602001600020546109a89190613087565b611f20565b6001905092915050565b7f000000000000000000000000000000000000000000000000000000000000000081565b60008060008373ffffffffffffffffffffffffffffffffffffffff1673ffffffffffffffffffffffffffffffffffffffff168152602001908152602001600020549050919050565b7f000000000000000000000000000000000000000000000000000000000000000081565b606060048054610a5690612ece565b80601f0160208091040260200160405190810160405280929190818152602001828054610a8290612ece565b8015610acf5780601f10610aa457610100808354040283529160200191610acf565b820191906000526020600020905b815481529060010190602001808311610ab257829003601f168201915b5050505050905090565b600080600160003373ffffffffffffffffffffffffffffffffffffffff1673ffffffffffffffffffffffffffffffffffffffff16815260200190815260200160002060008573ffffffffffffffffffffffffffffffffffffffff1673ffffffffffffffffffffffffffffffffffffffff16815260200190815260200160002054905082811015610ba25780836040517fda2d822c000000000000000000000000000000000000000000000000000000008152600401610b9992919061302a565b60405180910390fd5b610baf3385858403611f20565b600191505092915050565b6000610bc73384846121db565b6001905092915050565b7f000000000000000000000000000000000000000000000000000000000000000073ffffffffffffffffffffffffffffffffffffffff163373ffffffffffffffffffffffffffffffffffffffff1614610c8357337f00000000000000000000000000000000000000000000000000000000000000006040517fd214286f000000000000000000000000000000000000000000000000000000008152600401610c7a9291906130dd565b60405180910390fd5b610d67337f000000000000000000000000000000000000000000000000000000000000000073ffffffffffffffffffffffffffffffffffffffff166370a08231306040518263ffffffff1660e01b8152600401610ce09190612d39565b602060405180830381865afa158015610cfd573d6000803e3d6000fd5b505050506040513d601f19601f82011682018060405250810190610d219190612f14565b7f000000000000000000000000000000000000000000000000000000000000000073ffffffffffffffffffffffffffffffffffffffff166121559092919063ffffffff16565b565b7f000000000000000000000000000000000000000000000000000000000000000081565b7f000000000000000000000000000000000000000000000000000000000000000081565b600080610dbc6105f4565b905060007f000000000000000000000000000000000000000000000000000000000000000073ffffffffffffffffffffffffffffffffffffffff166370a08231306040518263ffffffff1660e01b8152600401610e199190612d39565b602060405180830381865afa158015610e36573d6000803e3d6000fd5b505050506040513d601f19601f82011682018060405250810190610e5a9190612f14565b9050610ea98530867f000000000000000000000000000000000000000000000000000000000000000073ffffffffffffffffffffffffffffffffffffffff16612364909392919063ffffffff16565b6000817f000000000000000000000000000000000000000000000000000000000000000073ffffffffffffffffffffffffffffffffffffffff166370a08231306040518263ffffffff1660e01b8152600401610f059190612d39565b602060405180830381865afa158015610f22573d6000803e3d6000fd5b505050506040513d601f19601f82011682018060405250810190610f469190612f14565b610f509190613053565b9050827f000000000000000000000000000000000000000000000000000000000000000082610f7f9190612f70565b610f899190612ff9565b9350610f9587856123ed565b5050509392505050565b600080600560405180606001604052908160008201548152602001600182015481526020016002820154815250509050610fd7612abb565b600560010154430361102757436005600101546040517fa31b34df00000000000000000000000000000000000000000000000000000000815260040161101e92919061302a565b60405180910390fd5b7f000000000000000000000000000000000000000000000000000000000000000073ffffffffffffffffffffffffffffffffffffffff166370a082317f00000000000000000000000000000000000000000000000000000000000000006040518263ffffffff1660e01b81526004016110a09190612d39565b602060405180830381865afa1580156110bd573d6000803e3d6000fd5b505050506040513d601f19601f820116820180604052508101906110e19190612f14565b8160000181815250503073ffffffffffffffffffffffffffffffffffffffff166370a082317f00000000000000000000000000000000000000000000000000000000000000006040518263ffffffff1660e01b81526004016111439190612d39565b602060405180830381865afa158015611160573d6000803e3d6000fd5b505050506040513d601f19601f820116820180604052508101906111849190612f14565b8160200181815250507f00000000000000000000000000000000000000000000000000000000000000008160400181815250507f000000000000000000000000000000000000000000000000000000000000000082600001516111e79190612f70565b7f00000000000000000000000000000000000000000000000000000000000000008360400151866112189190613087565b6112229190612f70565b11156112b3577f000000000000000000000000000000000000000000000000000000000000000082600001516112589190612f70565b60027f00000000000000000000000000000000000000000000000000000000000000006112859190613239565b8360400151866112959190613087565b61129f9190612f70565b6112a99190612ff9565b8160400181815250505b6112c381604001513033876124c5565b8160600181815250507f000000000000000000000000000000000000000000000000000000000000000073ffffffffffffffffffffffffffffffffffffffff168673ffffffffffffffffffffffffffffffffffffffff16036114b05760007f000000000000000000000000000000000000000000000000000000000000000073ffffffffffffffffffffffffffffffffffffffff1663566887003084606001516040518363ffffffff1660e01b8152600401611380929190613284565b6020604051808303816000875af115801561139f573d6000803e3d6000fd5b505050506040513d601f19601f820116820180604052508101906113c39190612f14565b905085811461140b5780866040517f612e405f00000000000000000000000000000000000000000000000000000000815260040161140292919061302a565b60405180910390fd5b7f000000000000000000000000000000000000000000000000000000000000000073ffffffffffffffffffffffffffffffffffffffff1663a9059cbb89836040518363ffffffff1660e01b8152600401611466929190613284565b6020604051808303816000875af1158015611485573d6000803e3d6000fd5b505050506040513d601f19601f820116820180604052508101906114a991906132d9565b50506115a3565b7f000000000000000000000000000000000000000000000000000000000000000073ffffffffffffffffffffffffffffffffffffffff1663fe02915630888460600151896040518563ffffffff1660e01b81526004016115139493929190613306565b6020604051808303816000875af1158015611532573d6000803e3d6000fd5b505050506040513d601f19601f8201168201806040525081019061155691906132d9565b506115a287867f000000000000000000000000000000000000000000000000000000000000000073ffffffffffffffffffffffffffffffffffffffff166121559092919063ffffffff16565b5b8060000151826000018181525050438260200181815250508060200151826040018181525050816005600082015181600001556020820151816001015560408201518160020155905050600192505050949350505050565b6000600160008473ffffffffffffffffffffffffffffffffffffffff1673ffffffffffffffffffffffffffffffffffffffff16815260200190815260200160002060008373ffffffffffffffffffffffffffffffffffffffff1673ffffffffffffffffffffffffffffffffffffffff16815260200190815260200160002054905092915050565b60008373ffffffffffffffffffffffffffffffffffffffff166323b872dd3330856040518463ffffffff1660e01b81526004016116c19392919061334b565b6020604051808303816000875af11580156116e0573d6000803e3d6000fd5b505050506040513d601f19601f8201168201806040525081019061170491906132d9565b507f000000000000000000000000000000000000000000000000000000000000000073ffffffffffffffffffffffffffffffffffffffff168473ffffffffffffffffffffffffffffffffffffffff160361185e5760007f000000000000000000000000000000000000000000000000000000000000000073ffffffffffffffffffffffffffffffffffffffff166306d47de930866040518363ffffffff1660e01b81526004016117b5929190613284565b6020604051808303816000875af11580156117d4573d6000803e3d6000fd5b505050506040513d601f19601f820116820180604052508101906117f89190612f14565b9050610400811180156118125750600a83901c600a82901c115b15611858578481846040517f73a4b39000000000000000000000000000000000000000000000000000000000815260040161184f93929190613382565b60405180910390fd5b506119a6565b60007f00000000000000000000000000000000000000000000000000000000000000006118896105f4565b856118949190612f70565b61189e9190612ff9565b90507f000000000000000000000000000000000000000000000000000000000000000073ffffffffffffffffffffffffffffffffffffffff1663fe029156863086886040518563ffffffff1660e01b81526004016118ff9493929190613306565b6020604051808303816000875af115801561191e573d6000803e3d6000fd5b505050506040513d601f19601f8201168201806040525081019061194291906132d9565b50600061195030888761071c565b9050600a81901c600a83901c10156119a3578582826040517f73a4b39000000000000000000000000000000000000000000000000000000000815260040161199a93929190613382565b60405180910390fd5b50505b60019050949350505050565b7f000000000000000000000000000000000000000000000000000000000000000073ffffffffffffffffffffffffffffffffffffffff163373ffffffffffffffffffffffffffffffffffffffff1614611a6457337f00000000000000000000000000000000000000000000000000000000000000006040517fd214286f000000000000000000000000000000000000000000000000000000008152600401611a5b9291906130dd565b60405180910390fd5b60007f000000000000000000000000000000000000000000000000000000000000000090508073ffffffffffffffffffffffffffffffffffffffff1663a9059cbb838373ffffffffffffffffffffffffffffffffffffffff166370a08231306040518263ffffffff1660e01b8152600401611adf9190612d39565b602060405180830381865afa158015611afc573d6000803e3d6000fd5b505050506040513d601f19601f82011682018060405250810190611b209190612f14565b6040518363ffffffff1660e01b8152600401611b3d929190613284565b6020604051808303816000875af1158015611b5c573d6000803e3d6000fd5b505050506040513d601f19601f82011682018060405250810190611b8091906132d9565b505050565b611bf07f00000000000000000000000000000000000000000000000000000000000000007fffffffffffffffffffffffffffffffffffffffffffffffffffffffffffffffff8373ffffffffffffffffffffffffffffffffffffffff166126ea9092919063ffffffff16565b50565b600181565b6000611c267f00000000000000000000000000000000000000000000000000000000000000003033866124c5565b9050611c73307f00000000000000000000000000000000000000000000000000000000000000007fffffffffffffffffffffffffffffffffffffffffffffffffffffffffffffffff611f20565b60007f000000000000000000000000000000000000000000000000000000000000000073ffffffffffffffffffffffffffffffffffffffff16635668870030846040518363ffffffff1660e01b8152600401611cd0929190613284565b6020604051808303816000875af1158015611cef573d6000803e3d6000fd5b505050506040513d601f19601f82011682018060405250810190611d139190612f14565b90507f000000000000000000000000000000000000000000000000000000000000000073ffffffffffffffffffffffffffffffffffffffff1663a9059cbb84836040518363ffffffff1660e01b8152600401611d70929190613284565b6020604051808303816000875af1158015611d8f573d6000803e3d6000fd5b505050506040513d601f19601f82011682018060405250810190611db391906132d9565b507f000000000000000000000000000000000000000000000000000000000000000073ffffffffffffffffffffffffffffffffffffffff166370a082317f00000000000000000000000000000000000000000000000000000000000000006040518263ffffffff1660e01b8152600401611e2d9190612d39565b602060405180830381865afa158015611e4a573d6000803e3d6000fd5b505050506040513d601f19601f82011682018060405250810190611e6e9190612f14565b6005600001819055503073ffffffffffffffffffffffffffffffffffffffff166370a082317f00000000000000000000000000000000000000000000000000000000000000006040518263ffffffff1660e01b8152600401611ed09190612d39565b602060405180830381865afa158015611eed573d6000803e3d6000fd5b505050506040513d601f19601f82011682018060405250810190611f119190612f14565b60056002018190555050505050565b80600160008573ffffffffffffffffffffffffffffffffffffffff1673ffffffffffffffffffffffffffffffffffffffff16815260200190815260200160002060008473ffffffffffffffffffffffffffffffffffffffff1673ffffffffffffffffffffffffffffffffffffffff168152602001908152602001600020819055508173ffffffffffffffffffffffffffffffffffffffff168373ffffffffffffffffffffffffffffffffffffffff167f8c5be1e5ebec7d5bd14f71427d1e84f3dd0314c0f7b2291e5b200ac8c7c3b92583604051611ffe9190612cbc565b60405180910390a3505050565b60008060008473ffffffffffffffffffffffffffffffffffffffff1673ffffffffffffffffffffffffffffffffffffffff168152602001908152602001600020549050818110156120955780826040517f0a37dd4100000000000000000000000000000000000000000000000000000000815260040161208c92919061302a565b60405180910390fd5b8181036000808573ffffffffffffffffffffffffffffffffffffffff1673ffffffffffffffffffffffffffffffffffffffff1681526020019081526020016000208190555081600260008282540392505081905550600073ffffffffffffffffffffffffffffffffffffffff168373ffffffffffffffffffffffffffffffffffffffff167fddf252ad1be2c89b69c2b068fc378daa952ba7f163c4a11628f55a4df523b3ef846040516121489190612cbc565b60405180910390a3505050565b6121d68363a9059cbb60e01b8484604051602401612174929190613284565b604051602081830303815290604052907bffffffffffffffffffffffffffffffffffffffffffffffffffffffff19166020820180517bffffffffffffffffffffffffffffffffffffffffffffffffffffffff8381831617835250505050612841565b505050565b60008060008573ffffffffffffffffffffffffffffffffffffffff1673ffffffffffffffffffffffffffffffffffffffff1681526020019081526020016000205490508181101561226857806000836040517f57b9c4a400000000000000000000000000000000000000000000000000000000815260040161225f939291906133fe565b60405180910390fd5b8181036000808673ffffffffffffffffffffffffffffffffffffffff1673ffffffffffffffffffffffffffffffffffffffff16815260200190815260200160002081905550816000808573ffffffffffffffffffffffffffffffffffffffff1673ffffffffffffffffffffffffffffffffffffffff168152602001908152602001600020600082825401925050819055508273ffffffffffffffffffffffffffffffffffffffff168473ffffffffffffffffffffffffffffffffffffffff167fddf252ad1be2c89b69c2b068fc378daa952ba7f163c4a11628f55a4df523b3ef846040516123569190612cbc565b60405180910390a350505050565b6123e7846323b872dd60e01b8585856040516024016123859392919061334b565b604051602081830303815290604052907bffffffffffffffffffffffffffffffffffffffffffffffffffffffff19166020820180517bffffffffffffffffffffffffffffffffffffffffffffffffffffffff8381831617835250505050612841565b50505050565b80600260008282546123ff9190613087565b92505081905550806000808473ffffffffffffffffffffffffffffffffffffffff1673ffffffffffffffffffffffffffffffffffffffff16815260200190815260200160002060008282546124549190613087565b925050819055508173ffffffffffffffffffffffffffffffffffffffff16600073ffffffffffffffffffffffffffffffffffffffff167fddf252ad1be2c89b69c2b068fc378daa952ba7f163c4a11628f55a4df523b3ef836040516124b99190612cbc565b60405180910390a35050565b6000807f0000000000000000000000000000000000000000000000000000000000000000866124f26105f4565b6124fc9190612f70565b6125069190612ff9565b905060007f000000000000000000000000000000000000000000000000000000000000000073ffffffffffffffffffffffffffffffffffffffff166370a08231306040518263ffffffff1660e01b81526004016125639190612d39565b602060405180830381865afa158015612580573d6000803e3d6000fd5b505050506040513d601f19601f820116820180604052508101906125a49190612f14565b90506125f38530867f000000000000000000000000000000000000000000000000000000000000000073ffffffffffffffffffffffffffffffffffffffff16612364909392919063ffffffff16565b6000817f000000000000000000000000000000000000000000000000000000000000000073ffffffffffffffffffffffffffffffffffffffff166370a08231306040518263ffffffff1660e01b815260040161264f9190612d39565b602060405180830381865afa15801561266c573d6000803e3d6000fd5b505050506040513d601f19601f820116820180604052508101906126909190612f14565b61269a9190613053565b9050827f0000000000000000000000000000000000000000000000000000000000000000826126c99190612f70565b6126d39190612ff9565b93506126df87856123ed565b505050949350505050565b600081118015612775575060008373ffffffffffffffffffffffffffffffffffffffff1663dd62ed3e30856040518363ffffffff1660e01b81526004016127329291906130dd565b602060405180830381865afa15801561274f573d6000803e3d6000fd5b505050506040513d601f19601f820116820180604052508101906127739190612f14565b115b156127bb578282826040517fc1a76f6c0000000000000000000000000000000000000000000000000000000081526004016127b29392919061334b565b60405180910390fd5b61283c8363095ea7b360e01b84846040516024016127da929190613284565b604051602081830303815290604052907bffffffffffffffffffffffffffffffffffffffffffffffffffffffff19166020820180517bffffffffffffffffffffffffffffffffffffffffffffffffffffffff8381831617835250505050612841565b505050565b60006128a3826040518060400160405280602081526020017f5361666545524332303a206c6f772d6c6576656c2063616c6c206661696c65648152508573ffffffffffffffffffffffffffffffffffffffff166128ff9092919063ffffffff16565b90506000815111156128fa57808060200190518101906128c391906132d9565b6128f9576040517fa479450200000000000000000000000000000000000000000000000000000000815260040160405180910390fd5b5b505050565b606061290e8484600085612917565b90509392505050565b6060824710156129605747836040517f02de226f00000000000000000000000000000000000000000000000000000000815260040161295792919061302a565b60405180910390fd5b61296985612a31565b6129aa57846040517f8a8b41ec0000000000000000000000000000000000000000000000000000000081526004016129a19190612d39565b60405180910390fd5b6000808673ffffffffffffffffffffffffffffffffffffffff1685876040516129d3919061347c565b60006040518083038185875af1925050503d8060008114612a10576040519150601f19603f3d011682016040523d82523d6000602084013e612a15565b606091505b5091509150612a25828286612a54565b92505050949350505050565b6000808273ffffffffffffffffffffffffffffffffffffffff163b119050919050565b60608315612a6457829050612ab4565b600083511115612a775782518084602001fd5b816040517f08c379a0000000000000000000000000000000000000000000000000000000008152600401612aab9190612b7c565b60405180910390fd5b9392505050565b6040518060800160405280600081526020016000815260200160008152602001600081525090565b600081519050919050565b600082825260208201905092915050565b60005b83811015612b1d578082015181840152602081019050612b02565b83811115612b2c576000848401525b50505050565b6000601f19601f8301169050919050565b6000612b4e82612ae3565b612b588185612aee565b9350612b68818560208601612aff565b612b7181612b32565b840191505092915050565b60006020820190508181036000830152612b968184612b43565b905092915050565b600080fd5b600073ffffffffffffffffffffffffffffffffffffffff82169050919050565b6000612bce82612ba3565b9050919050565b612bde81612bc3565b8114612be957600080fd5b50565b600081359050612bfb81612bd5565b92915050565b6000819050919050565b612c1481612c01565b8114612c1f57600080fd5b50565b600081359050612c3181612c0b565b92915050565b60008060408385031215612c4e57612c4d612b9e565b5b6000612c5c85828601612bec565b9250506020612c6d85828601612c22565b9150509250929050565b60008115159050919050565b612c8c81612c77565b82525050565b6000602082019050612ca76000830184612c83565b92915050565b612cb681612c01565b82525050565b6000602082019050612cd16000830184612cad565b92915050565b600080600060608486031215612cf057612cef612b9e565b5b6000612cfe86828701612bec565b9350506020612d0f86828701612bec565b9250506040612d2086828701612c22565b9150509250925092565b612d3381612bc3565b82525050565b6000602082019050612d4e6000830184612d2a565b92915050565b600060ff82169050919050565b612d6a81612d54565b82525050565b6000602082019050612d856000830184612d61565b92915050565b600060208284031215612da157612da0612b9e565b5b6000612daf84828501612bec565b91505092915050565b60008060008060808587031215612dd257612dd1612b9e565b5b6000612de087828801612bec565b9450506020612df187828801612bec565b9350506040612e0287828801612c22565b9250506060612e1387828801612c22565b91505092959194509250565b60008060408385031215612e3657612e35612b9e565b5b6000612e4485828601612bec565b9250506020612e5585828601612bec565b9150509250929050565b60008060408385031215612e7657612e75612b9e565b5b6000612e8485828601612c22565b9250506020612e9585828601612bec565b9150509250929050565b7f4e487b7100000000000000000000000000000000000000000000000000000000600052602260045260246000fd5b60006002820490506001821680612ee657607f821691505b602082108103612ef957612ef8612e9f565b5b50919050565b600081519050612f0e81612c0b565b92915050565b600060208284031215612f2a57612f29612b9e565b5b6000612f3884828501612eff565b91505092915050565b7f4e487b7100000000000000000000000000000000000000000000000000000000600052601160045260246000fd5b6000612f7b82612c01565b9150612f8683612c01565b9250817fffffffffffffffffffffffffffffffffffffffffffffffffffffffffffffffff0483118215151615612fbf57612fbe612f41565b5b828202905092915050565b7f4e487b7100000000000000000000000000000000000000000000000000000000600052601260045260246000fd5b600061300482612c01565b915061300f83612c01565b92508261301f5761301e612fca565b5b828204905092915050565b600060408201905061303f6000830185612cad565b61304c6020830184612cad565b9392505050565b600061305e82612c01565b915061306983612c01565b92508282101561307c5761307b612f41565b5b828203905092915050565b600061309282612c01565b915061309d83612c01565b9250827fffffffffffffffffffffffffffffffffffffffffffffffffffffffffffffffff038211156130d2576130d1612f41565b5b828201905092915050565b60006040820190506130f26000830185612d2a565b6130ff6020830184612d2a565b9392505050565b60008160011c9050919050565b6000808291508390505b600185111561315d5780860481111561313957613138612f41565b5b60018516156131485780820291505b808102905061315685613106565b945061311d565b94509492505050565b6000826131765760019050613232565b816131845760009050613232565b816001811461319a57600281146131a4576131d3565b6001915050613232565b60ff8411156131b6576131b5612f41565b5b8360020a9150848211156131cd576131cc612f41565b5b50613232565b5060208310610133831016604e8410600b84101617156132085782820a90508381111561320357613202612f41565b5b613232565b6132158484846001613113565b9250905081840481111561322c5761322b612f41565b5b81810290505b9392505050565b600061324482612c01565b915061324f83612d54565b925061327c7fffffffffffffffffffffffffffffffffffffffffffffffffffffffffffffffff8484613166565b905092915050565b60006040820190506132996000830185612d2a565b6132a66020830184612cad565b9392505050565b6132b681612c77565b81146132c157600080fd5b50565b6000815190506132d3816132ad565b92915050565b6000602082840312156132ef576132ee612b9e565b5b60006132fd848285016132c4565b91505092915050565b600060808201905061331b6000830187612d2a565b6133286020830186612d2a565b6133356040830185612cad565b6133426060830184612cad565b95945050505050565b60006060820190506133606000830186612d2a565b61336d6020830185612d2a565b61337a6040830184612cad565b949350505050565b60006060820190506133976000830186612d2a565b6133a46020830185612cad565b6133b16040830184612cad565b949350505050565b6000819050919050565b6000819050919050565b60006133e86133e36133de846133b9565b6133c3565b612c01565b9050919050565b6133f8816133cd565b82525050565b60006060820190506134136000830186612cad565b61342060208301856133ef565b61342d6040830184612cad565b949350505050565b600081519050919050565b600081905092915050565b600061345682613435565b6134608185613440565b9350613470818560208601612aff565b80840191505092915050565b6000613488828461344b565b91508190509291505056fea26469706673582212203955cf33c77f530d323b5b0f820b71f25a26548ce823b83e019e4ca25b69085d64736f6c634300080d0033",
  "linkReferences": {},
  "deployedLinkReferences": {}
}