{
  "_format": "hh-sol-artifact-1",
  "contractName": "CliffFace",
  "sourceName": "contracts/TokenProxies/CliffFace.sol",
  "abi": [
    {
      "inputs": [
        {
          "internalType": "address",
          "name": "_baseToken",
          "type": "address"
        },
        {
          "internalType": "string",
          "name": "name_",
          "type": "string"
        },
        {
          "internalType": "string",
          "name": "symbol_",
          "type": "string"
        },
        {
          "internalType": "address",
          "name": "registry",
          "type": "address"
        },
        {
          "internalType": "address",
          "name": "_referenceToken",
          "type": "address"
        },
        {
          "internalType": "uint256",
          "name": "multiple",
          "type": "uint256"
        },
        {
          "internalType": "address",
          "name": "_behodler",
          "type": "address"
        },
        {
          "internalType": "uint256",
          "name": "_initalRedeemRate",
          "type": "uint256"
        }
      ],
      "stateMutability": "nonpayable",
      "type": "constructor"
    },
    {
      "inputs": [
        {
          "internalType": "uint256",
          "name": "allowance",
          "type": "uint256"
        },
        {
          "internalType": "uint256",
          "name": "amount",
          "type": "uint256"
        }
      ],
      "name": "AllowanceExceeded",
      "type": "error"
    },
    {
      "inputs": [
        {
          "internalType": "uint256",
          "name": "allowance",
          "type": "uint256"
        },
        {
          "internalType": "uint256",
          "name": "subtraction",
          "type": "uint256"
        }
      ],
      "name": "AllowanceUnderflow",
      "type": "error"
    },
    {
      "inputs": [
        {
          "internalType": "address",
          "name": "token",
          "type": "address"
        },
        {
          "internalType": "address",
          "name": "spender",
          "type": "address"
        },
        {
          "internalType": "uint256",
          "name": "amount",
          "type": "uint256"
        }
      ],
      "name": "ApproveToNonZero",
      "type": "error"
    },
    {
      "inputs": [
        {
          "internalType": "uint256",
          "name": "output",
          "type": "uint256"
        },
        {
          "internalType": "uint256",
          "name": "expectedOutput",
          "type": "uint256"
        }
      ],
      "name": "BehodlerSwapInInvariantViolated",
      "type": "error"
    },
    {
      "inputs": [
        {
          "internalType": "address",
          "name": "inputToken",
          "type": "address"
        },
        {
          "internalType": "uint256",
          "name": "actualAmount",
          "type": "uint256"
        },
        {
          "internalType": "uint256",
          "name": "expectedAmount",
          "type": "uint256"
        }
      ],
      "name": "BehodlerSwapOutInvariantViolated",
      "type": "error"
    },
    {
      "inputs": [
        {
          "internalType": "uint256",
          "name": "accountBalance",
          "type": "uint256"
        },
        {
          "internalType": "uint256",
          "name": "amount",
          "type": "uint256"
        }
      ],
      "name": "BurnUnderflow",
      "type": "error"
    },
    {
      "inputs": [
        {
          "internalType": "uint256",
          "name": "balance",
          "type": "uint256"
        },
        {
          "internalType": "uint256",
          "name": "value",
          "type": "uint256"
        }
      ],
      "name": "InsufficinetFunds",
      "type": "error"
    },
    {
      "inputs": [
        {
          "internalType": "address",
          "name": "EOA",
          "type": "address"
        }
      ],
      "name": "NotAContract",
      "type": "error"
    },
    {
      "inputs": [
        {
          "internalType": "address",
          "name": "sender",
          "type": "address"
        },
        {
          "internalType": "address",
          "name": "proxy",
          "type": "address"
        }
      ],
      "name": "OnlyProxy",
      "type": "error"
    },
    {
      "inputs": [],
      "name": "OperationFailure",
      "type": "error"
    },
    {
      "inputs": [
        {
          "internalType": "uint256",
          "name": "blockNumber",
          "type": "uint256"
        },
        {
          "internalType": "uint256",
          "name": "priorBlockNumber",
          "type": "uint256"
        }
      ],
      "name": "SlippageManipulationPrevention",
      "type": "error"
    },
    {
      "inputs": [
        {
          "internalType": "uint256",
          "name": "senderBalance",
          "type": "uint256"
        },
        {
          "internalType": "uint256",
          "name": "fee",
          "type": "uint256"
        },
        {
          "internalType": "uint256",
          "name": "amount",
          "type": "uint256"
        }
      ],
      "name": "TransferUnderflow",
      "type": "error"
    },
    {
      "anonymous": false,
      "inputs": [
        {
          "indexed": true,
          "internalType": "address",
          "name": "owner",
          "type": "address"
        },
        {
          "indexed": true,
          "internalType": "address",
          "name": "spender",
          "type": "address"
        },
        {
          "indexed": false,
          "internalType": "uint256",
          "name": "value",
          "type": "uint256"
        }
      ],
      "name": "Approval",
      "type": "event"
    },
    {
      "anonymous": false,
      "inputs": [
        {
          "indexed": true,
          "internalType": "address",
          "name": "from",
          "type": "address"
        },
        {
          "indexed": true,
          "internalType": "address",
          "name": "to",
          "type": "address"
        },
        {
          "indexed": false,
          "internalType": "uint256",
          "name": "value",
          "type": "uint256"
        }
      ],
      "name": "Transfer",
      "type": "event"
    },
    {
      "inputs": [],
      "name": "IS_PROXY",
      "outputs": [
        {
          "internalType": "bool",
          "name": "",
          "type": "bool"
        }
      ],
      "stateMutability": "view",
      "type": "function"
    },
    {
      "inputs": [
        {
          "internalType": "address",
          "name": "owner",
          "type": "address"
        },
        {
          "internalType": "address",
          "name": "spender",
          "type": "address"
        }
      ],
      "name": "allowance",
      "outputs": [
        {
          "internalType": "uint256",
          "name": "",
          "type": "uint256"
        }
      ],
      "stateMutability": "view",
      "type": "function"
    },
    {
      "inputs": [
        {
          "internalType": "address",
          "name": "spender",
          "type": "address"
        },
        {
          "internalType": "uint256",
          "name": "amount",
          "type": "uint256"
        }
      ],
      "name": "approve",
      "outputs": [
        {
          "internalType": "bool",
          "name": "",
          "type": "bool"
        }
      ],
      "stateMutability": "nonpayable",
      "type": "function"
    },
    {
      "inputs": [
        {
          "internalType": "address",
          "name": "inputToken",
          "type": "address"
        }
      ],
      "name": "approveBehodlerFor",
      "outputs": [],
      "stateMutability": "nonpayable",
      "type": "function"
    },
    {
      "inputs": [
        {
          "internalType": "address",
          "name": "account",
          "type": "address"
        }
      ],
      "name": "balanceOf",
      "outputs": [
        {
          "internalType": "uint256",
          "name": "",
          "type": "uint256"
        }
      ],
      "stateMutability": "view",
      "type": "function"
    },
    {
      "inputs": [],
      "name": "baseToken",
      "outputs": [
        {
          "internalType": "address",
          "name": "",
          "type": "address"
        }
      ],
      "stateMutability": "view",
      "type": "function"
    },
    {
      "inputs": [],
      "name": "decimals",
      "outputs": [
        {
          "internalType": "uint8",
          "name": "",
          "type": "uint8"
        }
      ],
      "stateMutability": "view",
      "type": "function"
    },
    {
      "inputs": [
        {
          "internalType": "address",
          "name": "spender",
          "type": "address"
        },
        {
          "internalType": "uint256",
          "name": "subtractedValue",
          "type": "uint256"
        }
      ],
      "name": "decreaseAllowance",
      "outputs": [
        {
          "internalType": "bool",
          "name": "",
          "type": "bool"
        }
      ],
      "stateMutability": "nonpayable",
      "type": "function"
    },
    {
      "inputs": [
        {
          "internalType": "address",
          "name": "spender",
          "type": "address"
        },
        {
          "internalType": "uint256",
          "name": "addedValue",
          "type": "uint256"
        }
      ],
      "name": "increaseAllowance",
      "outputs": [
        {
          "internalType": "bool",
          "name": "",
          "type": "bool"
        }
      ],
      "stateMutability": "nonpayable",
      "type": "function"
    },
    {
      "inputs": [],
      "name": "initialRedeemRate",
      "outputs": [
        {
          "internalType": "uint256",
          "name": "",
          "type": "uint256"
        }
      ],
      "stateMutability": "view",
      "type": "function"
    },
    {
      "inputs": [
        {
          "internalType": "address",
          "name": "newProxy",
          "type": "address"
        }
      ],
      "name": "migrateBaseReserveToNewProxy",
      "outputs": [],
      "stateMutability": "nonpayable",
      "type": "function"
    },
    {
      "inputs": [],
      "name": "name",
      "outputs": [
        {
          "internalType": "string",
          "name": "",
          "type": "string"
        }
      ],
      "stateMutability": "view",
      "type": "function"
    },
    {
      "inputs": [],
      "name": "proxyRegistry",
      "outputs": [
        {
          "internalType": "address",
          "name": "",
          "type": "address"
        }
      ],
      "stateMutability": "view",
      "type": "function"
    },
    {
      "inputs": [
        {
          "internalType": "address",
          "name": "proxySource",
          "type": "address"
        },
        {
          "internalType": "address",
          "name": "baseRecipient",
          "type": "address"
        },
        {
          "internalType": "uint256",
          "name": "amount",
          "type": "uint256"
        }
      ],
      "name": "redeem",
      "outputs": [
        {
          "internalType": "uint256",
          "name": "baseAmount",
          "type": "uint256"
        }
      ],
      "stateMutability": "nonpayable",
      "type": "function"
    },
    {
      "inputs": [],
      "name": "redeemRate",
      "outputs": [
        {
          "internalType": "uint256",
          "name": "",
          "type": "uint256"
        }
      ],
      "stateMutability": "view",
      "type": "function"
    },
    {
      "inputs": [],
      "name": "referenceMultiple",
      "outputs": [
        {
          "internalType": "uint256",
          "name": "",
          "type": "uint256"
        }
      ],
      "stateMutability": "view",
      "type": "function"
    },
    {
      "inputs": [],
      "name": "referenceToken",
      "outputs": [
        {
          "internalType": "address",
          "name": "",
          "type": "address"
        }
      ],
      "stateMutability": "view",
      "type": "function"
    },
    {
      "inputs": [
        {
          "internalType": "uint256",
          "name": "initialSupply",
          "type": "uint256"
        },
        {
          "internalType": "address",
          "name": "scxDestination",
          "type": "address"
        }
      ],
      "name": "seedBehodler",
      "outputs": [],
      "stateMutability": "nonpayable",
      "type": "function"
    },
    {
      "inputs": [
        {
          "internalType": "address",
          "name": "outputRecipient",
          "type": "address"
        },
        {
          "internalType": "address",
          "name": "outputToken",
          "type": "address"
        },
        {
          "internalType": "uint256",
          "name": "outputAmount",
          "type": "uint256"
        },
        {
          "internalType": "uint256",
          "name": "baseTokenAmount",
          "type": "uint256"
        }
      ],
      "name": "swapAsInput",
      "outputs": [
        {
          "internalType": "bool",
          "name": "",
          "type": "bool"
        }
      ],
      "stateMutability": "nonpayable",
      "type": "function"
    },
    {
      "inputs": [
        {
          "internalType": "address",
          "name": "outputRecipient",
          "type": "address"
        },
        {
          "internalType": "address",
          "name": "input",
          "type": "address"
        },
        {
          "internalType": "uint256",
          "name": "proxyTokensToRelease",
          "type": "uint256"
        },
        {
          "internalType": "uint256",
          "name": "expectedInputAmount",
          "type": "uint256"
        }
      ],
      "name": "swapAsOuput",
      "outputs": [
        {
          "internalType": "bool",
          "name": "",
          "type": "bool"
        }
      ],
      "stateMutability": "nonpayable",
      "type": "function"
    },
    {
      "inputs": [],
      "name": "symbol",
      "outputs": [
        {
          "internalType": "string",
          "name": "",
          "type": "string"
        }
      ],
      "stateMutability": "view",
      "type": "function"
    },
    {
      "inputs": [],
      "name": "totalSupply",
      "outputs": [
        {
          "internalType": "uint256",
          "name": "",
          "type": "uint256"
        }
      ],
      "stateMutability": "view",
      "type": "function"
    },
    {
      "inputs": [
        {
          "internalType": "address",
          "name": "recipient",
          "type": "address"
        },
        {
          "internalType": "uint256",
          "name": "amount",
          "type": "uint256"
        }
      ],
      "name": "transfer",
      "outputs": [
        {
          "internalType": "bool",
          "name": "",
          "type": "bool"
        }
      ],
      "stateMutability": "nonpayable",
      "type": "function"
    },
    {
      "inputs": [
        {
          "internalType": "address",
          "name": "sender",
          "type": "address"
        },
        {
          "internalType": "address",
          "name": "recipient",
          "type": "address"
        },
        {
          "internalType": "uint256",
          "name": "amount",
          "type": "uint256"
        }
      ],
      "name": "transferFrom",
      "outputs": [
        {
          "internalType": "bool",
          "name": "",
          "type": "bool"
        }
      ],
      "stateMutability": "nonpayable",
      "type": "function"
    },
    {
      "inputs": [],
      "name": "withdrawReserve",
      "outputs": [],
      "stateMutability": "nonpayable",
      "type": "function"
    }
  ],
  "bytecode": "0x6101406040523480156200001257600080fd5b5060405162003ac238038062003ac28339818101604052810190620000389190620004f8565b8188888888858484848484838381600390805190602001906200005d9291906200020b565b508060049080519060200190620000769291906200020b565b5050508473ffffffffffffffffffffffffffffffffffffffff1660a08173ffffffffffffffffffffffffffffffffffffffff16815250508173ffffffffffffffffffffffffffffffffffffffff1660808173ffffffffffffffffffffffffffffffffffffffff16815250508060c0818152505050505050508573ffffffffffffffffffffffffffffffffffffffff1660e08173ffffffffffffffffffffffffffffffffffffffff16815250505050505050508373ffffffffffffffffffffffffffffffffffffffff166101008173ffffffffffffffffffffffffffffffffffffffff16815250508261012081815250506101005173ffffffffffffffffffffffffffffffffffffffff166370a0823160e0516040518263ffffffff1660e01b8152600401620001a6919062000610565b602060405180830381865afa158015620001c4573d6000803e3d6000fd5b505050506040513d601f19601f82011682018060405250810190620001ea91906200062d565b600560000181905550436005600101819055505050505050505050620006c3565b82805462000219906200068e565b90600052602060002090601f0160209004810192826200023d576000855562000289565b82601f106200025857805160ff191683800117855562000289565b8280016001018555821562000289579182015b82811115620002885782518255916020019190600101906200026b565b5b5090506200029891906200029c565b5090565b5b80821115620002b75760008160009055506001016200029d565b5090565b6000604051905090565b600080fd5b600080fd5b600073ffffffffffffffffffffffffffffffffffffffff82169050919050565b6000620002fc82620002cf565b9050919050565b6200030e81620002ef565b81146200031a57600080fd5b50565b6000815190506200032e8162000303565b92915050565b600080fd5b600080fd5b6000601f19601f8301169050919050565b7f4e487b7100000000000000000000000000000000000000000000000000000000600052604160045260246000fd5b62000389826200033e565b810181811067ffffffffffffffff82111715620003ab57620003aa6200034f565b5b80604052505050565b6000620003c0620002bb565b9050620003ce82826200037e565b919050565b600067ffffffffffffffff821115620003f157620003f06200034f565b5b620003fc826200033e565b9050602081019050919050565b60005b83811015620004295780820151818401526020810190506200040c565b8381111562000439576000848401525b50505050565b6000620004566200045084620003d3565b620003b4565b90508281526020810184848401111562000475576200047462000339565b5b6200048284828562000409565b509392505050565b600082601f830112620004a257620004a162000334565b5b8151620004b48482602086016200043f565b91505092915050565b6000819050919050565b620004d281620004bd565b8114620004de57600080fd5b50565b600081519050620004f281620004c7565b92915050565b600080600080600080600080610100898b0312156200051c576200051b620002c5565b5b60006200052c8b828c016200031d565b985050602089015167ffffffffffffffff81111562000550576200054f620002ca565b5b6200055e8b828c016200048a565b975050604089015167ffffffffffffffff811115620005825762000581620002ca565b5b620005908b828c016200048a565b9650506060620005a38b828c016200031d565b9550506080620005b68b828c016200031d565b94505060a0620005c98b828c01620004e1565b93505060c0620005dc8b828c016200031d565b92505060e0620005ef8b828c01620004e1565b9150509295985092959890939650565b6200060a81620002ef565b82525050565b6000602082019050620006276000830184620005ff565b92915050565b600060208284031215620006465762000645620002c5565b5b60006200065684828501620004e1565b91505092915050565b7f4e487b7100000000000000000000000000000000000000000000000000000000600052602260045260246000fd5b60006002820490506001821680620006a757607f821691505b602082108103620006bd57620006bc6200065f565b5b50919050565b60805160a05160c05160e0516101005161012051613290620008326000396000818161096e01528181610f800152610ff101526000818161077601528181610e2c0152611b7d015260008181610df001528181610ecf01528181611095015281816110ea015281816111d401528181611279015281816114ce015281816115230152818161166901528181611951015281816119f501528181611a3e01528181611ade01528181611bb90152611c5c01526000818161066501528181610696015281816106ea015281816109da01528181610f5601528181610fb00152818161102301528181611629015281816119c60152818161213001526123050152600081816105ae0152818161072801528181610c3e01528181610cd801528181610d44015281816113250152818161182f0152818161217201528181612214015261225e015260008181610b8801528181610bdc01528181610d200152818161177b01526117cf01526132906000f3fe608060405234801561001057600080fd5b50600436106101735760003560e01c806395d89b41116100de578063ca409f4d11610097578063ed3b379b11610071578063ed3b379b1461048e578063ed6de174146104aa578063fbed2d72146104c6578063fc6a15f9146104e457610173565b8063ca409f4d146103fe578063dd62ed3e1461042e578063ea2cd00c1461045e57610173565b806395d89b411461033a578063a457c2d714610358578063a9059cbb14610388578063ace1fab1146103b8578063b50cbd9f146103c2578063c55dae63146103e057610173565b806323b872dd1161013057806323b872dd14610250578063313ce56714610280578063395093511461029e5780634e2c172d146102ce57806370a08231146102ec5780637376dd791461031c57610173565b806306fdde0314610178578063095ea7b3146101965780630adcdbaa146101c65780630e6dfcd5146101e45780631265b6511461021457806318160ddd14610232575b600080fd5b610180610500565b60405161018d9190612943565b60405180910390f35b6101b060048036038101906101ab91906129fe565b610592565b6040516101bd9190612a59565b60405180910390f35b6101ce6105a9565b6040516101db9190612a83565b60405180910390f35b6101fe60048036038101906101f99190612a9e565b6106d1565b60405161020b9190612a83565b60405180910390f35b61021c610774565b6040516102299190612b00565b60405180910390f35b61023a610798565b6040516102479190612a83565b60405180910390f35b61026a60048036038101906102659190612a9e565b6107a2565b6040516102779190612a59565b60405180910390f35b6102886108c5565b6040516102959190612b37565b60405180910390f35b6102b860048036038101906102b391906129fe565b6108ce565b6040516102c59190612a59565b60405180910390f35b6102d661096c565b6040516102e39190612a83565b60405180910390f35b61030660048036038101906103019190612b52565b610990565b6040516103139190612a83565b60405180910390f35b6103246109d8565b6040516103319190612a83565b60405180910390f35b6103426109fc565b60405161034f9190612943565b60405180910390f35b610372600480360381019061036d91906129fe565b610a8e565b60405161037f9190612a59565b60405180910390f35b6103a2600480360381019061039d91906129fe565b610b6f565b6040516103af9190612a59565b60405180910390f35b6103c0610b86565b005b6103ca610d1e565b6040516103d79190612b00565b60405180910390f35b6103e8610d42565b6040516103f59190612b00565b60405180910390f35b61041860048036038101906104139190612b7f565b610d66565b6040516104259190612a59565b60405180910390f35b61044860048036038101906104439190612be6565b6113c2565b6040516104559190612a83565b60405180910390f35b61047860048036038101906104739190612b7f565b611449565b6040516104859190612a59565b60405180910390f35b6104a860048036038101906104a39190612b52565b611779565b005b6104c460048036038101906104bf9190612b52565b61194c565b005b6104ce6119ba565b6040516104db9190612a59565b60405180910390f35b6104fe60048036038101906104f99190612c26565b6119bf565b005b60606003805461050f90612c95565b80601f016020809104026020016040519081016040528092919081815260200182805461053b90612c95565b80156105885780601f1061055d57610100808354040283529160200191610588565b820191906000526020600020905b81548152906001019060200180831161056b57829003601f168201915b5050505050905090565b600061059f338484611ce7565b6001905092915050565b6000807f000000000000000000000000000000000000000000000000000000000000000073ffffffffffffffffffffffffffffffffffffffff166370a08231306040518263ffffffff1660e01b81526004016106059190612b00565b602060405180830381865afa158015610622573d6000803e3d6000fd5b505050506040513d601f19601f820116820180604052508101906106469190612cdb565b90506000610652610798565b148061065e5750600081145b1561068c577f00000000000000000000000000000000000000000000000000000000000000009150506106ce565b610694610798565b7f0000000000000000000000000000000000000000000000000000000000000000826106c09190612d37565b6106ca9190612dc0565b9150505b90565b6000806106dc6105a9565b90506106e88584611dd2565b7f000000000000000000000000000000000000000000000000000000000000000081846107159190612d37565b61071f9190612dc0565b915061076c84837f000000000000000000000000000000000000000000000000000000000000000073ffffffffffffffffffffffffffffffffffffffff16611f1c9092919063ffffffff16565b509392505050565b7f000000000000000000000000000000000000000000000000000000000000000081565b6000600254905090565b60006107af848484611fa2565b6000600160008673ffffffffffffffffffffffffffffffffffffffff1673ffffffffffffffffffffffffffffffffffffffff16815260200190815260200160002060003373ffffffffffffffffffffffffffffffffffffffff1673ffffffffffffffffffffffffffffffffffffffff1681526020019081526020016000205490507fffffffffffffffffffffffffffffffffffffffffffffffffffffffffffffffff811415801561085f57508083115b156108a35780836040517fa924825600000000000000000000000000000000000000000000000000000000815260040161089a929190612df1565b60405180910390fd5b6108b9853385846108b49190612e1a565b611ce7565b60019150509392505050565b60006012905090565b6000610962338484600160003373ffffffffffffffffffffffffffffffffffffffff1673ffffffffffffffffffffffffffffffffffffffff16815260200190815260200160002060008873ffffffffffffffffffffffffffffffffffffffff1673ffffffffffffffffffffffffffffffffffffffff1681526020019081526020016000205461095d9190612e4e565b611ce7565b6001905092915050565b7f000000000000000000000000000000000000000000000000000000000000000081565b60008060008373ffffffffffffffffffffffffffffffffffffffff1673ffffffffffffffffffffffffffffffffffffffff168152602001908152602001600020549050919050565b7f000000000000000000000000000000000000000000000000000000000000000081565b606060048054610a0b90612c95565b80601f0160208091040260200160405190810160405280929190818152602001828054610a3790612c95565b8015610a845780601f10610a5957610100808354040283529160200191610a84565b820191906000526020600020905b815481529060010190602001808311610a6757829003601f168201915b5050505050905090565b600080600160003373ffffffffffffffffffffffffffffffffffffffff1673ffffffffffffffffffffffffffffffffffffffff16815260200190815260200160002060008573ffffffffffffffffffffffffffffffffffffffff1673ffffffffffffffffffffffffffffffffffffffff16815260200190815260200160002054905082811015610b575780836040517fda2d822c000000000000000000000000000000000000000000000000000000008152600401610b4e929190612df1565b60405180910390fd5b610b643385858403611ce7565b600191505092915050565b6000610b7c338484611fa2565b6001905092915050565b7f000000000000000000000000000000000000000000000000000000000000000073ffffffffffffffffffffffffffffffffffffffff163373ffffffffffffffffffffffffffffffffffffffff1614610c3857337f00000000000000000000000000000000000000000000000000000000000000006040517fd214286f000000000000000000000000000000000000000000000000000000008152600401610c2f929190612ea4565b60405180910390fd5b610d1c337f000000000000000000000000000000000000000000000000000000000000000073ffffffffffffffffffffffffffffffffffffffff166370a08231306040518263ffffffff1660e01b8152600401610c959190612b00565b602060405180830381865afa158015610cb2573d6000803e3d6000fd5b505050506040513d601f19601f82011682018060405250810190610cd69190612cdb565b7f000000000000000000000000000000000000000000000000000000000000000073ffffffffffffffffffffffffffffffffffffffff16611f1c9092919063ffffffff16565b565b7f000000000000000000000000000000000000000000000000000000000000000081565b7f000000000000000000000000000000000000000000000000000000000000000081565b600080600560405180606001604052908160008201548152602001600182015481526020016002820154815250509050610d9e612882565b6005600101544303610dee57436005600101546040517fa31b34df000000000000000000000000000000000000000000000000000000008152600401610de5929190612df1565b60405180910390fd5b7f000000000000000000000000000000000000000000000000000000000000000073ffffffffffffffffffffffffffffffffffffffff166370a082317f00000000000000000000000000000000000000000000000000000000000000006040518263ffffffff1660e01b8152600401610e679190612b00565b602060405180830381865afa158015610e84573d6000803e3d6000fd5b505050506040513d601f19601f82011682018060405250810190610ea89190612cdb565b8160000181815250503073ffffffffffffffffffffffffffffffffffffffff166370a082317f00000000000000000000000000000000000000000000000000000000000000006040518263ffffffff1660e01b8152600401610f0a9190612b00565b602060405180830381865afa158015610f27573d6000803e3d6000fd5b505050506040513d601f19601f82011682018060405250810190610f4b9190612cdb565b8160200181815250507f00000000000000000000000000000000000000000000000000000000000000008160400181815250507f00000000000000000000000000000000000000000000000000000000000000008260000151610fae9190612d37565b7f0000000000000000000000000000000000000000000000000000000000000000836040015186610fdf9190612e4e565b610fe99190612d37565b111561107a577f0000000000000000000000000000000000000000000000000000000000000000826000015161101f9190612d37565b60027f000000000000000000000000000000000000000000000000000000000000000061104c9190613000565b83604001518661105c9190612e4e565b6110669190612d37565b6110709190612dc0565b8160400181815250505b61108a816040015130338761212b565b8160600181815250507f000000000000000000000000000000000000000000000000000000000000000073ffffffffffffffffffffffffffffffffffffffff168673ffffffffffffffffffffffffffffffffffffffff16036112775760007f000000000000000000000000000000000000000000000000000000000000000073ffffffffffffffffffffffffffffffffffffffff1663566887003084606001516040518363ffffffff1660e01b815260040161114792919061304b565b6020604051808303816000875af1158015611166573d6000803e3d6000fd5b505050506040513d601f19601f8201168201806040525081019061118a9190612cdb565b90508581146111d25780866040517f612e405f0000000000000000000000000000000000000000000000000000000081526004016111c9929190612df1565b60405180910390fd5b7f000000000000000000000000000000000000000000000000000000000000000073ffffffffffffffffffffffffffffffffffffffff1663a9059cbb89836040518363ffffffff1660e01b815260040161122d92919061304b565b6020604051808303816000875af115801561124c573d6000803e3d6000fd5b505050506040513d601f19601f8201168201806040525081019061127091906130a0565b505061136a565b7f000000000000000000000000000000000000000000000000000000000000000073ffffffffffffffffffffffffffffffffffffffff1663fe02915630888460600151896040518563ffffffff1660e01b81526004016112da94939291906130cd565b6020604051808303816000875af11580156112f9573d6000803e3d6000fd5b505050506040513d601f19601f8201168201806040525081019061131d91906130a0565b5061136987867f000000000000000000000000000000000000000000000000000000000000000073ffffffffffffffffffffffffffffffffffffffff16611f1c9092919063ffffffff16565b5b8060000151826000018181525050438260200181815250508060200151826040018181525050816005600082015181600001556020820151816001015560408201518160020155905050600192505050949350505050565b6000600160008473ffffffffffffffffffffffffffffffffffffffff1673ffffffffffffffffffffffffffffffffffffffff16815260200190815260200160002060008373ffffffffffffffffffffffffffffffffffffffff1673ffffffffffffffffffffffffffffffffffffffff16815260200190815260200160002054905092915050565b60008373ffffffffffffffffffffffffffffffffffffffff166323b872dd3330856040518463ffffffff1660e01b815260040161148893929190613112565b6020604051808303816000875af11580156114a7573d6000803e3d6000fd5b505050506040513d601f19601f820116820180604052508101906114cb91906130a0565b507f000000000000000000000000000000000000000000000000000000000000000073ffffffffffffffffffffffffffffffffffffffff168473ffffffffffffffffffffffffffffffffffffffff16036116255760007f000000000000000000000000000000000000000000000000000000000000000073ffffffffffffffffffffffffffffffffffffffff166306d47de930866040518363ffffffff1660e01b815260040161157c92919061304b565b6020604051808303816000875af115801561159b573d6000803e3d6000fd5b505050506040513d601f19601f820116820180604052508101906115bf9190612cdb565b9050610400811180156115d95750600a83901c600a82901c115b1561161f578481846040517f73a4b39000000000000000000000000000000000000000000000000000000000815260040161161693929190613149565b60405180910390fd5b5061176d565b60007f00000000000000000000000000000000000000000000000000000000000000006116506105a9565b8561165b9190612d37565b6116659190612dc0565b90507f000000000000000000000000000000000000000000000000000000000000000073ffffffffffffffffffffffffffffffffffffffff1663fe029156863086886040518563ffffffff1660e01b81526004016116c694939291906130cd565b6020604051808303816000875af11580156116e5573d6000803e3d6000fd5b505050506040513d601f19601f8201168201806040525081019061170991906130a0565b5060006117173088876106d1565b9050600a81901c600a83901c101561176a578582826040517f73a4b39000000000000000000000000000000000000000000000000000000000815260040161176193929190613149565b60405180910390fd5b50505b60019050949350505050565b7f000000000000000000000000000000000000000000000000000000000000000073ffffffffffffffffffffffffffffffffffffffff163373ffffffffffffffffffffffffffffffffffffffff161461182b57337f00000000000000000000000000000000000000000000000000000000000000006040517fd214286f000000000000000000000000000000000000000000000000000000008152600401611822929190612ea4565b60405180910390fd5b60007f000000000000000000000000000000000000000000000000000000000000000090508073ffffffffffffffffffffffffffffffffffffffff1663a9059cbb838373ffffffffffffffffffffffffffffffffffffffff166370a08231306040518263ffffffff1660e01b81526004016118a69190612b00565b602060405180830381865afa1580156118c3573d6000803e3d6000fd5b505050506040513d601f19601f820116820180604052508101906118e79190612cdb565b6040518363ffffffff1660e01b815260040161190492919061304b565b6020604051808303816000875af1158015611923573d6000803e3d6000fd5b505050506040513d601f19601f8201168201806040525081019061194791906130a0565b505050565b6119b77f00000000000000000000000000000000000000000000000000000000000000007fffffffffffffffffffffffffffffffffffffffffffffffffffffffffffffffff8373ffffffffffffffffffffffffffffffffffffffff166123509092919063ffffffff16565b50565b600181565b60006119ed7f000000000000000000000000000000000000000000000000000000000000000030338661212b565b9050611a3a307f00000000000000000000000000000000000000000000000000000000000000007fffffffffffffffffffffffffffffffffffffffffffffffffffffffffffffffff611ce7565b60007f000000000000000000000000000000000000000000000000000000000000000073ffffffffffffffffffffffffffffffffffffffff16635668870030846040518363ffffffff1660e01b8152600401611a9792919061304b565b6020604051808303816000875af1158015611ab6573d6000803e3d6000fd5b505050506040513d601f19601f82011682018060405250810190611ada9190612cdb565b90507f000000000000000000000000000000000000000000000000000000000000000073ffffffffffffffffffffffffffffffffffffffff1663a9059cbb84836040518363ffffffff1660e01b8152600401611b3792919061304b565b6020604051808303816000875af1158015611b56573d6000803e3d6000fd5b505050506040513d601f19601f82011682018060405250810190611b7a91906130a0565b507f000000000000000000000000000000000000000000000000000000000000000073ffffffffffffffffffffffffffffffffffffffff166370a082317f00000000000000000000000000000000000000000000000000000000000000006040518263ffffffff1660e01b8152600401611bf49190612b00565b602060405180830381865afa158015611c11573d6000803e3d6000fd5b505050506040513d601f19601f82011682018060405250810190611c359190612cdb565b6005600001819055503073ffffffffffffffffffffffffffffffffffffffff166370a082317f00000000000000000000000000000000000000000000000000000000000000006040518263ffffffff1660e01b8152600401611c979190612b00565b602060405180830381865afa158015611cb4573d6000803e3d6000fd5b505050506040513d601f19601f82011682018060405250810190611cd89190612cdb565b60056002018190555050505050565b80600160008573ffffffffffffffffffffffffffffffffffffffff1673ffffffffffffffffffffffffffffffffffffffff16815260200190815260200160002060008473ffffffffffffffffffffffffffffffffffffffff1673ffffffffffffffffffffffffffffffffffffffff168152602001908152602001600020819055508173ffffffffffffffffffffffffffffffffffffffff168373ffffffffffffffffffffffffffffffffffffffff167f8c5be1e5ebec7d5bd14f71427d1e84f3dd0314c0f7b2291e5b200ac8c7c3b92583604051611dc59190612a83565b60405180910390a3505050565b60008060008473ffffffffffffffffffffffffffffffffffffffff1673ffffffffffffffffffffffffffffffffffffffff16815260200190815260200160002054905081811015611e5c5780826040517f0a37dd41000000000000000000000000000000000000000000000000000000008152600401611e53929190612df1565b60405180910390fd5b8181036000808573ffffffffffffffffffffffffffffffffffffffff1673ffffffffffffffffffffffffffffffffffffffff1681526020019081526020016000208190555081600260008282540392505081905550600073ffffffffffffffffffffffffffffffffffffffff168373ffffffffffffffffffffffffffffffffffffffff167fddf252ad1be2c89b69c2b068fc378daa952ba7f163c4a11628f55a4df523b3ef84604051611f0f9190612a83565b60405180910390a3505050565b611f9d8363a9059cbb60e01b8484604051602401611f3b92919061304b565b604051602081830303815290604052907bffffffffffffffffffffffffffffffffffffffffffffffffffffffff19166020820180517bffffffffffffffffffffffffffffffffffffffffffffffffffffffff83818316178352505050506124a7565b505050565b60008060008573ffffffffffffffffffffffffffffffffffffffff1673ffffffffffffffffffffffffffffffffffffffff1681526020019081526020016000205490508181101561202f57806000836040517f57b9c4a4000000000000000000000000000000000000000000000000000000008152600401612026939291906131c5565b60405180910390fd5b8181036000808673ffffffffffffffffffffffffffffffffffffffff1673ffffffffffffffffffffffffffffffffffffffff16815260200190815260200160002081905550816000808573ffffffffffffffffffffffffffffffffffffffff1673ffffffffffffffffffffffffffffffffffffffff168152602001908152602001600020600082825401925050819055508273ffffffffffffffffffffffffffffffffffffffff168473ffffffffffffffffffffffffffffffffffffffff167fddf252ad1be2c89b69c2b068fc378daa952ba7f163c4a11628f55a4df523b3ef8460405161211d9190612a83565b60405180910390a350505050565b6000807f0000000000000000000000000000000000000000000000000000000000000000866121586105a9565b6121629190612d37565b61216c9190612dc0565b905060007f000000000000000000000000000000000000000000000000000000000000000073ffffffffffffffffffffffffffffffffffffffff166370a08231306040518263ffffffff1660e01b81526004016121c99190612b00565b602060405180830381865afa1580156121e6573d6000803e3d6000fd5b505050506040513d601f19601f8201168201806040525081019061220a9190612cdb565b90506122598530867f000000000000000000000000000000000000000000000000000000000000000073ffffffffffffffffffffffffffffffffffffffff16612565909392919063ffffffff16565b6000817f000000000000000000000000000000000000000000000000000000000000000073ffffffffffffffffffffffffffffffffffffffff166370a08231306040518263ffffffff1660e01b81526004016122b59190612b00565b602060405180830381865afa1580156122d2573d6000803e3d6000fd5b505050506040513d601f19601f820116820180604052508101906122f69190612cdb565b6123009190612e1a565b9050827f00000000000000000000000000000000000000000000000000000000000000008261232f9190612d37565b6123399190612dc0565b935061234587856125ee565b505050949350505050565b6000811180156123db575060008373ffffffffffffffffffffffffffffffffffffffff1663dd62ed3e30856040518363ffffffff1660e01b8152600401612398929190612ea4565b602060405180830381865afa1580156123b5573d6000803e3d6000fd5b505050506040513d601f19601f820116820180604052508101906123d99190612cdb565b115b15612421578282826040517fc1a76f6c00000000000000000000000000000000000000000000000000000000815260040161241893929190613112565b60405180910390fd5b6124a28363095ea7b360e01b848460405160240161244092919061304b565b604051602081830303815290604052907bffffffffffffffffffffffffffffffffffffffffffffffffffffffff19166020820180517bffffffffffffffffffffffffffffffffffffffffffffffffffffffff83818316178352505050506124a7565b505050565b6000612509826040518060400160405280602081526020017f5361666545524332303a206c6f772d6c6576656c2063616c6c206661696c65648152508573ffffffffffffffffffffffffffffffffffffffff166126c69092919063ffffffff16565b9050600081511115612560578080602001905181019061252991906130a0565b61255f576040517fa479450200000000000000000000000000000000000000000000000000000000815260040160405180910390fd5b5b505050565b6125e8846323b872dd60e01b85858560405160240161258693929190613112565b604051602081830303815290604052907bffffffffffffffffffffffffffffffffffffffffffffffffffffffff19166020820180517bffffffffffffffffffffffffffffffffffffffffffffffffffffffff83818316178352505050506124a7565b50505050565b80600260008282546126009190612e4e565b92505081905550806000808473ffffffffffffffffffffffffffffffffffffffff1673ffffffffffffffffffffffffffffffffffffffff16815260200190815260200160002060008282546126559190612e4e565b925050819055508173ffffffffffffffffffffffffffffffffffffffff16600073ffffffffffffffffffffffffffffffffffffffff167fddf252ad1be2c89b69c2b068fc378daa952ba7f163c4a11628f55a4df523b3ef836040516126ba9190612a83565b60405180910390a35050565b60606126d584846000856126de565b90509392505050565b6060824710156127275747836040517f02de226f00000000000000000000000000000000000000000000000000000000815260040161271e929190612df1565b60405180910390fd5b612730856127f8565b61277157846040517f8a8b41ec0000000000000000000000000000000000000000000000000000000081526004016127689190612b00565b60405180910390fd5b6000808673ffffffffffffffffffffffffffffffffffffffff16858760405161279a9190613243565b60006040518083038185875af1925050503d80600081146127d7576040519150601f19603f3d011682016040523d82523d6000602084013e6127dc565b606091505b50915091506127ec82828661281b565b92505050949350505050565b6000808273ffffffffffffffffffffffffffffffffffffffff163b119050919050565b6060831561282b5782905061287b565b60008351111561283e5782518084602001fd5b816040517f08c379a00000000000000000000000000000000000000000000000000000000081526004016128729190612943565b60405180910390fd5b9392505050565b6040518060800160405280600081526020016000815260200160008152602001600081525090565b600081519050919050565b600082825260208201905092915050565b60005b838110156128e45780820151818401526020810190506128c9565b838111156128f3576000848401525b50505050565b6000601f19601f8301169050919050565b6000612915826128aa565b61291f81856128b5565b935061292f8185602086016128c6565b612938816128f9565b840191505092915050565b6000602082019050818103600083015261295d818461290a565b905092915050565b600080fd5b600073ffffffffffffffffffffffffffffffffffffffff82169050919050565b60006129958261296a565b9050919050565b6129a58161298a565b81146129b057600080fd5b50565b6000813590506129c28161299c565b92915050565b6000819050919050565b6129db816129c8565b81146129e657600080fd5b50565b6000813590506129f8816129d2565b92915050565b60008060408385031215612a1557612a14612965565b5b6000612a23858286016129b3565b9250506020612a34858286016129e9565b9150509250929050565b60008115159050919050565b612a5381612a3e565b82525050565b6000602082019050612a6e6000830184612a4a565b92915050565b612a7d816129c8565b82525050565b6000602082019050612a986000830184612a74565b92915050565b600080600060608486031215612ab757612ab6612965565b5b6000612ac5868287016129b3565b9350506020612ad6868287016129b3565b9250506040612ae7868287016129e9565b9150509250925092565b612afa8161298a565b82525050565b6000602082019050612b156000830184612af1565b92915050565b600060ff82169050919050565b612b3181612b1b565b82525050565b6000602082019050612b4c6000830184612b28565b92915050565b600060208284031215612b6857612b67612965565b5b6000612b76848285016129b3565b91505092915050565b60008060008060808587031215612b9957612b98612965565b5b6000612ba7878288016129b3565b9450506020612bb8878288016129b3565b9350506040612bc9878288016129e9565b9250506060612bda878288016129e9565b91505092959194509250565b60008060408385031215612bfd57612bfc612965565b5b6000612c0b858286016129b3565b9250506020612c1c858286016129b3565b9150509250929050565b60008060408385031215612c3d57612c3c612965565b5b6000612c4b858286016129e9565b9250506020612c5c858286016129b3565b9150509250929050565b7f4e487b7100000000000000000000000000000000000000000000000000000000600052602260045260246000fd5b60006002820490506001821680612cad57607f821691505b602082108103612cc057612cbf612c66565b5b50919050565b600081519050612cd5816129d2565b92915050565b600060208284031215612cf157612cf0612965565b5b6000612cff84828501612cc6565b91505092915050565b7f4e487b7100000000000000000000000000000000000000000000000000000000600052601160045260246000fd5b6000612d42826129c8565b9150612d4d836129c8565b9250817fffffffffffffffffffffffffffffffffffffffffffffffffffffffffffffffff0483118215151615612d8657612d85612d08565b5b828202905092915050565b7f4e487b7100000000000000000000000000000000000000000000000000000000600052601260045260246000fd5b6000612dcb826129c8565b9150612dd6836129c8565b925082612de657612de5612d91565b5b828204905092915050565b6000604082019050612e066000830185612a74565b612e136020830184612a74565b9392505050565b6000612e25826129c8565b9150612e30836129c8565b925082821015612e4357612e42612d08565b5b828203905092915050565b6000612e59826129c8565b9150612e64836129c8565b9250827fffffffffffffffffffffffffffffffffffffffffffffffffffffffffffffffff03821115612e9957612e98612d08565b5b828201905092915050565b6000604082019050612eb96000830185612af1565b612ec66020830184612af1565b9392505050565b60008160011c9050919050565b6000808291508390505b6001851115612f2457808604811115612f0057612eff612d08565b5b6001851615612f0f5780820291505b8081029050612f1d85612ecd565b9450612ee4565b94509492505050565b600082612f3d5760019050612ff9565b81612f4b5760009050612ff9565b8160018114612f615760028114612f6b57612f9a565b6001915050612ff9565b60ff841115612f7d57612f7c612d08565b5b8360020a915084821115612f9457612f93612d08565b5b50612ff9565b5060208310610133831016604e8410600b8410161715612fcf5782820a905083811115612fca57612fc9612d08565b5b612ff9565b612fdc8484846001612eda565b92509050818404811115612ff357612ff2612d08565b5b81810290505b9392505050565b600061300b826129c8565b915061301683612b1b565b92506130437fffffffffffffffffffffffffffffffffffffffffffffffffffffffffffffffff8484612f2d565b905092915050565b60006040820190506130606000830185612af1565b61306d6020830184612a74565b9392505050565b61307d81612a3e565b811461308857600080fd5b50565b60008151905061309a81613074565b92915050565b6000602082840312156130b6576130b5612965565b5b60006130c48482850161308b565b91505092915050565b60006080820190506130e26000830187612af1565b6130ef6020830186612af1565b6130fc6040830185612a74565b6131096060830184612a74565b95945050505050565b60006060820190506131276000830186612af1565b6131346020830185612af1565b6131416040830184612a74565b949350505050565b600060608201905061315e6000830186612af1565b61316b6020830185612a74565b6131786040830184612a74565b949350505050565b6000819050919050565b6000819050919050565b60006131af6131aa6131a584613180565b61318a565b6129c8565b9050919050565b6131bf81613194565b82525050565b60006060820190506131da6000830186612a74565b6131e760208301856131b6565b6131f46040830184612a74565b949350505050565b600081519050919050565b600081905092915050565b600061321d826131fc565b6132278185613207565b93506132378185602086016128c6565b80840191505092915050565b600061324f8284613212565b91508190509291505056fea26469706673582212204a0d7d8d77d674e5a7e7ae058e033c4089e233bd63d8edf78b6ad2f1e73fb89564736f6c634300080d0033",
  "linkReferences": {},
  "deployedLinkReferences": {}
}