{
  "_format": "hh-sol-artifact-1",
  "contractName": "CliffFace",
  "sourceName": "contracts/TokenProxies/CliffFace.sol",
  "abi": [
    {
      "inputs": [
        {
          "internalType": "address",
          "name": "_baseToken",
          "type": "address"
        },
        {
          "internalType": "string",
          "name": "name_",
          "type": "string"
        },
        {
          "internalType": "string",
          "name": "symbol_",
          "type": "string"
        },
        {
          "internalType": "address",
          "name": "registry",
          "type": "address"
        },
        {
          "internalType": "address",
          "name": "_referenceToken",
          "type": "address"
        },
        {
          "internalType": "uint256",
          "name": "multiple",
          "type": "uint256"
        },
        {
          "internalType": "address",
          "name": "_behodler",
          "type": "address"
        },
        {
          "internalType": "uint256",
          "name": "_initalRedeemRate",
          "type": "uint256"
        }
      ],
      "stateMutability": "nonpayable",
      "type": "constructor"
    },
    {
      "inputs": [
        {
          "internalType": "uint256",
          "name": "allowance",
          "type": "uint256"
        },
        {
          "internalType": "uint256",
          "name": "amount",
          "type": "uint256"
        }
      ],
      "name": "AllowanceExceeded",
      "type": "error"
    },
    {
      "inputs": [
        {
          "internalType": "uint256",
          "name": "allowance",
          "type": "uint256"
        },
        {
          "internalType": "uint256",
          "name": "subtraction",
          "type": "uint256"
        }
      ],
      "name": "AllowanceUnderflow",
      "type": "error"
    },
    {
      "inputs": [
        {
          "internalType": "address",
          "name": "token",
          "type": "address"
        },
        {
          "internalType": "address",
          "name": "spender",
          "type": "address"
        },
        {
          "internalType": "uint256",
          "name": "amount",
          "type": "uint256"
        }
      ],
      "name": "ApproveToNonZero",
      "type": "error"
    },
    {
      "inputs": [
        {
          "internalType": "uint256",
          "name": "output",
          "type": "uint256"
        },
        {
          "internalType": "uint256",
          "name": "expectedOutput",
          "type": "uint256"
        }
      ],
      "name": "BehodlerSwapInInvariantViolated",
      "type": "error"
    },
    {
      "inputs": [
        {
          "internalType": "address",
          "name": "inputToken",
          "type": "address"
        },
        {
          "internalType": "uint256",
          "name": "actualAmount",
          "type": "uint256"
        },
        {
          "internalType": "uint256",
          "name": "expectedAmount",
          "type": "uint256"
        }
      ],
      "name": "BehodlerSwapOutInvariantViolated",
      "type": "error"
    },
    {
      "inputs": [
        {
          "internalType": "uint256",
          "name": "accountBalance",
          "type": "uint256"
        },
        {
          "internalType": "uint256",
          "name": "amount",
          "type": "uint256"
        }
      ],
      "name": "BurnUnderflow",
      "type": "error"
    },
    {
      "inputs": [
        {
          "internalType": "uint256",
          "name": "balance",
          "type": "uint256"
        },
        {
          "internalType": "uint256",
          "name": "value",
          "type": "uint256"
        }
      ],
      "name": "InsufficinetFunds",
      "type": "error"
    },
    {
      "inputs": [
        {
          "internalType": "address",
          "name": "EOA",
          "type": "address"
        }
      ],
      "name": "NotAContract",
      "type": "error"
    },
    {
      "inputs": [
        {
          "internalType": "address",
          "name": "sender",
          "type": "address"
        },
        {
          "internalType": "address",
          "name": "proxy",
          "type": "address"
        }
      ],
      "name": "OnlyProxy",
      "type": "error"
    },
    {
      "inputs": [],
      "name": "OperationFailure",
      "type": "error"
    },
    {
      "inputs": [
        {
          "internalType": "uint256",
          "name": "blockNumber",
          "type": "uint256"
        },
        {
          "internalType": "uint256",
          "name": "priorBlockNumber",
          "type": "uint256"
        }
      ],
      "name": "SlippageManipulationPrevention",
      "type": "error"
    },
    {
      "inputs": [
        {
          "internalType": "uint256",
          "name": "senderBalance",
          "type": "uint256"
        },
        {
          "internalType": "uint256",
          "name": "fee",
          "type": "uint256"
        },
        {
          "internalType": "uint256",
          "name": "amount",
          "type": "uint256"
        }
      ],
      "name": "TransferUnderflow",
      "type": "error"
    },
    {
      "anonymous": false,
      "inputs": [
        {
          "indexed": true,
          "internalType": "address",
          "name": "owner",
          "type": "address"
        },
        {
          "indexed": true,
          "internalType": "address",
          "name": "spender",
          "type": "address"
        },
        {
          "indexed": false,
          "internalType": "uint256",
          "name": "value",
          "type": "uint256"
        }
      ],
      "name": "Approval",
      "type": "event"
    },
    {
      "anonymous": false,
      "inputs": [
        {
          "indexed": true,
          "internalType": "address",
          "name": "from",
          "type": "address"
        },
        {
          "indexed": true,
          "internalType": "address",
          "name": "to",
          "type": "address"
        },
        {
          "indexed": false,
          "internalType": "uint256",
          "name": "value",
          "type": "uint256"
        }
      ],
      "name": "Transfer",
      "type": "event"
    },
    {
      "inputs": [
        {
          "internalType": "address",
          "name": "owner",
          "type": "address"
        },
        {
          "internalType": "address",
          "name": "spender",
          "type": "address"
        }
      ],
      "name": "allowance",
      "outputs": [
        {
          "internalType": "uint256",
          "name": "",
          "type": "uint256"
        }
      ],
      "stateMutability": "view",
      "type": "function"
    },
    {
      "inputs": [
        {
          "internalType": "address",
          "name": "spender",
          "type": "address"
        },
        {
          "internalType": "uint256",
          "name": "amount",
          "type": "uint256"
        }
      ],
      "name": "approve",
      "outputs": [
        {
          "internalType": "bool",
          "name": "",
          "type": "bool"
        }
      ],
      "stateMutability": "nonpayable",
      "type": "function"
    },
    {
      "inputs": [
        {
          "internalType": "address",
          "name": "inputToken",
          "type": "address"
        }
      ],
      "name": "approveBehodlerFor",
      "outputs": [],
      "stateMutability": "nonpayable",
      "type": "function"
    },
    {
      "inputs": [
        {
          "internalType": "address",
          "name": "account",
          "type": "address"
        }
      ],
      "name": "balanceOf",
      "outputs": [
        {
          "internalType": "uint256",
          "name": "",
          "type": "uint256"
        }
      ],
      "stateMutability": "view",
      "type": "function"
    },
    {
      "inputs": [],
      "name": "baseToken",
      "outputs": [
        {
          "internalType": "address",
          "name": "",
          "type": "address"
        }
      ],
      "stateMutability": "view",
      "type": "function"
    },
    {
      "inputs": [],
      "name": "decimals",
      "outputs": [
        {
          "internalType": "uint8",
          "name": "",
          "type": "uint8"
        }
      ],
      "stateMutability": "view",
      "type": "function"
    },
    {
      "inputs": [
        {
          "internalType": "address",
          "name": "spender",
          "type": "address"
        },
        {
          "internalType": "uint256",
          "name": "subtractedValue",
          "type": "uint256"
        }
      ],
      "name": "decreaseAllowance",
      "outputs": [
        {
          "internalType": "bool",
          "name": "",
          "type": "bool"
        }
      ],
      "stateMutability": "nonpayable",
      "type": "function"
    },
    {
      "inputs": [
        {
          "internalType": "address",
          "name": "spender",
          "type": "address"
        },
        {
          "internalType": "uint256",
          "name": "addedValue",
          "type": "uint256"
        }
      ],
      "name": "increaseAllowance",
      "outputs": [
        {
          "internalType": "bool",
          "name": "",
          "type": "bool"
        }
      ],
      "stateMutability": "nonpayable",
      "type": "function"
    },
    {
      "inputs": [],
      "name": "initialRedeemRate",
      "outputs": [
        {
          "internalType": "uint256",
          "name": "",
          "type": "uint256"
        }
      ],
      "stateMutability": "view",
      "type": "function"
    },
    {
      "inputs": [
        {
          "internalType": "address",
          "name": "newProxy",
          "type": "address"
        }
      ],
      "name": "migrateBaseReserveToNewProxy",
      "outputs": [],
      "stateMutability": "nonpayable",
      "type": "function"
    },
    {
      "inputs": [],
      "name": "name",
      "outputs": [
        {
          "internalType": "string",
          "name": "",
          "type": "string"
        }
      ],
      "stateMutability": "view",
      "type": "function"
    },
    {
      "inputs": [],
      "name": "proxyRegistry",
      "outputs": [
        {
          "internalType": "address",
          "name": "",
          "type": "address"
        }
      ],
      "stateMutability": "view",
      "type": "function"
    },
    {
      "inputs": [
        {
          "internalType": "address",
          "name": "proxySource",
          "type": "address"
        },
        {
          "internalType": "address",
          "name": "baseRecipient",
          "type": "address"
        },
        {
          "internalType": "uint256",
          "name": "amount",
          "type": "uint256"
        }
      ],
      "name": "redeem",
      "outputs": [
        {
          "internalType": "uint256",
          "name": "baseAmount",
          "type": "uint256"
        }
      ],
      "stateMutability": "nonpayable",
      "type": "function"
    },
    {
      "inputs": [],
      "name": "redeemRate",
      "outputs": [
        {
          "internalType": "uint256",
          "name": "",
          "type": "uint256"
        }
      ],
      "stateMutability": "view",
      "type": "function"
    },
    {
      "inputs": [],
      "name": "referenceMultiple",
      "outputs": [
        {
          "internalType": "uint256",
          "name": "",
          "type": "uint256"
        }
      ],
      "stateMutability": "view",
      "type": "function"
    },
    {
      "inputs": [],
      "name": "referenceToken",
      "outputs": [
        {
          "internalType": "address",
          "name": "",
          "type": "address"
        }
      ],
      "stateMutability": "view",
      "type": "function"
    },
    {
      "inputs": [
        {
          "internalType": "uint256",
          "name": "initialSupply",
          "type": "uint256"
        }
      ],
      "name": "seedBehodler",
      "outputs": [],
      "stateMutability": "nonpayable",
      "type": "function"
    },
    {
      "inputs": [
        {
          "internalType": "address",
          "name": "outputRecipient",
          "type": "address"
        },
        {
          "internalType": "address",
          "name": "outputToken",
          "type": "address"
        },
        {
          "internalType": "uint256",
          "name": "outputAmount",
          "type": "uint256"
        },
        {
          "internalType": "uint256",
          "name": "baseTokenAmount",
          "type": "uint256"
        }
      ],
      "name": "swapAsInput",
      "outputs": [
        {
          "internalType": "bool",
          "name": "",
          "type": "bool"
        }
      ],
      "stateMutability": "nonpayable",
      "type": "function"
    },
    {
      "inputs": [
        {
          "internalType": "address",
          "name": "outputRecipient",
          "type": "address"
        },
        {
          "internalType": "address",
          "name": "input",
          "type": "address"
        },
        {
          "internalType": "uint256",
          "name": "proxyTokensToRelease",
          "type": "uint256"
        },
        {
          "internalType": "uint256",
          "name": "expectedInputAmount",
          "type": "uint256"
        }
      ],
      "name": "swapAsOuput",
      "outputs": [
        {
          "internalType": "bool",
          "name": "",
          "type": "bool"
        }
      ],
      "stateMutability": "nonpayable",
      "type": "function"
    },
    {
      "inputs": [],
      "name": "symbol",
      "outputs": [
        {
          "internalType": "string",
          "name": "",
          "type": "string"
        }
      ],
      "stateMutability": "view",
      "type": "function"
    },
    {
      "inputs": [],
      "name": "totalSupply",
      "outputs": [
        {
          "internalType": "uint256",
          "name": "",
          "type": "uint256"
        }
      ],
      "stateMutability": "view",
      "type": "function"
    },
    {
      "inputs": [
        {
          "internalType": "address",
          "name": "recipient",
          "type": "address"
        },
        {
          "internalType": "uint256",
          "name": "amount",
          "type": "uint256"
        }
      ],
      "name": "transfer",
      "outputs": [
        {
          "internalType": "bool",
          "name": "",
          "type": "bool"
        }
      ],
      "stateMutability": "nonpayable",
      "type": "function"
    },
    {
      "inputs": [
        {
          "internalType": "address",
          "name": "sender",
          "type": "address"
        },
        {
          "internalType": "address",
          "name": "recipient",
          "type": "address"
        },
        {
          "internalType": "uint256",
          "name": "amount",
          "type": "uint256"
        }
      ],
      "name": "transferFrom",
      "outputs": [
        {
          "internalType": "bool",
          "name": "",
          "type": "bool"
        }
      ],
      "stateMutability": "nonpayable",
      "type": "function"
    }
  ],
  "bytecode": "0x6101406040523480156200001257600080fd5b50604051620038a7380380620038a78339818101604052810190620000389190620004f8565b8188888888858484848484838381600390805190602001906200005d9291906200020b565b508060049080519060200190620000769291906200020b565b5050508473ffffffffffffffffffffffffffffffffffffffff1660a08173ffffffffffffffffffffffffffffffffffffffff16815250508173ffffffffffffffffffffffffffffffffffffffff1660808173ffffffffffffffffffffffffffffffffffffffff16815250508060c0818152505050505050508573ffffffffffffffffffffffffffffffffffffffff1660e08173ffffffffffffffffffffffffffffffffffffffff16815250505050505050508373ffffffffffffffffffffffffffffffffffffffff166101008173ffffffffffffffffffffffffffffffffffffffff16815250508261012081815250506101005173ffffffffffffffffffffffffffffffffffffffff166370a0823160e0516040518263ffffffff1660e01b8152600401620001a6919062000610565b602060405180830381865afa158015620001c4573d6000803e3d6000fd5b505050506040513d601f19601f82011682018060405250810190620001ea91906200062d565b600560000181905550436005600101819055505050505050505050620006c3565b82805462000219906200068e565b90600052602060002090601f0160209004810192826200023d576000855562000289565b82601f106200025857805160ff191683800117855562000289565b8280016001018555821562000289579182015b82811115620002885782518255916020019190600101906200026b565b5b5090506200029891906200029c565b5090565b5b80821115620002b75760008160009055506001016200029d565b5090565b6000604051905090565b600080fd5b600080fd5b600073ffffffffffffffffffffffffffffffffffffffff82169050919050565b6000620002fc82620002cf565b9050919050565b6200030e81620002ef565b81146200031a57600080fd5b50565b6000815190506200032e8162000303565b92915050565b600080fd5b600080fd5b6000601f19601f8301169050919050565b7f4e487b7100000000000000000000000000000000000000000000000000000000600052604160045260246000fd5b62000389826200033e565b810181811067ffffffffffffffff82111715620003ab57620003aa6200034f565b5b80604052505050565b6000620003c0620002bb565b9050620003ce82826200037e565b919050565b600067ffffffffffffffff821115620003f157620003f06200034f565b5b620003fc826200033e565b9050602081019050919050565b60005b83811015620004295780820151818401526020810190506200040c565b8381111562000439576000848401525b50505050565b6000620004566200045084620003d3565b620003b4565b90508281526020810184848401111562000475576200047462000339565b5b6200048284828562000409565b509392505050565b600082601f830112620004a257620004a162000334565b5b8151620004b48482602086016200043f565b91505092915050565b6000819050919050565b620004d281620004bd565b8114620004de57600080fd5b50565b600081519050620004f281620004c7565b92915050565b600080600080600080600080610100898b0312156200051c576200051b620002c5565b5b60006200052c8b828c016200031d565b985050602089015167ffffffffffffffff81111562000550576200054f620002ca565b5b6200055e8b828c016200048a565b975050604089015167ffffffffffffffff811115620005825762000581620002ca565b5b620005908b828c016200048a565b9650506060620005a38b828c016200031d565b9550506080620005b68b828c016200031d565b94505060a0620005c98b828c01620004e1565b93505060c0620005dc8b828c016200031d565b92505060e0620005ef8b828c01620004e1565b9150509295985092959890939650565b6200060a81620002ef565b82525050565b6000602082019050620006276000830184620005ff565b92915050565b600060208284031215620006465762000645620002c5565b5b60006200065684828501620004e1565b91505092915050565b7f4e487b7100000000000000000000000000000000000000000000000000000000600052602260045260246000fd5b60006002820490506001821680620006a757607f821691505b602082108103620006bd57620006bc6200065f565b5b50919050565b60805160a05160c05160e05161010051610120516130916200081660003960008181610c47015281816110c10152611132015260008181610728015281816109080152610f6d015260008181610780015281816107c90152818161086901528181610944015281816109e701528181610f3101528181611010015281816111d60152818161122b01528181611315015281816113ba0152818161160f01528181611664015281816117aa0152611a92015260008181610617015281816106480152818161069c0152818161075101528181610cb301528181611097015281816110f1015281816111640152818161176a01528181611dbb0152611f90015260008181610560015281816106da01528181610e85015281816114660152818161197001528181611dfd01528181611e9f0152611ee9015260008181610e61015281816118bc015261191001526130916000f3fe608060405234801561001057600080fd5b506004361061014d5760003560e01c806370a08231116100c3578063c55dae631161007c578063c55dae63146103cc578063ca409f4d146103ea578063dd62ed3e1461041a578063ea2cd00c1461044a578063ed3b379b1461047a578063ed6de174146104965761014d565b806370a08231146102e25780637376dd791461031257806395d89b4114610330578063a457c2d71461034e578063a9059cbb1461037e578063b50cbd9f146103ae5761014d565b806316a39eeb1161011557806316a39eeb1461020c57806318160ddd1461022857806323b872dd14610246578063313ce5671461027657806339509351146102945780634e2c172d146102c45761014d565b806306fdde0314610152578063095ea7b3146101705780630adcdbaa146101a05780630e6dfcd5146101be5780631265b651146101ee575b600080fd5b61015a6104b2565b6040516101679190612757565b60405180910390f35b61018a60048036038101906101859190612812565b610544565b604051610197919061286d565b60405180910390f35b6101a861055b565b6040516101b59190612897565b60405180910390f35b6101d860048036038101906101d391906128b2565b610683565b6040516101e59190612897565b60405180910390f35b6101f6610726565b6040516102039190612914565b60405180910390f35b6102266004803603810190610221919061292f565b61074a565b005b610230610a71565b60405161023d9190612897565b60405180910390f35b610260600480360381019061025b91906128b2565b610a7b565b60405161026d919061286d565b60405180910390f35b61027e610b9e565b60405161028b9190612978565b60405180910390f35b6102ae60048036038101906102a99190612812565b610ba7565b6040516102bb919061286d565b60405180910390f35b6102cc610c45565b6040516102d99190612897565b60405180910390f35b6102fc60048036038101906102f79190612993565b610c69565b6040516103099190612897565b60405180910390f35b61031a610cb1565b6040516103279190612897565b60405180910390f35b610338610cd5565b6040516103459190612757565b60405180910390f35b61036860048036038101906103639190612812565b610d67565b604051610375919061286d565b60405180910390f35b61039860048036038101906103939190612812565b610e48565b6040516103a5919061286d565b60405180910390f35b6103b6610e5f565b6040516103c39190612914565b60405180910390f35b6103d4610e83565b6040516103e19190612914565b60405180910390f35b61040460048036038101906103ff91906129c0565b610ea7565b604051610411919061286d565b60405180910390f35b610434600480360381019061042f9190612a27565b611503565b6040516104419190612897565b60405180910390f35b610464600480360381019061045f91906129c0565b61158a565b604051610471919061286d565b60405180910390f35b610494600480360381019061048f9190612993565b6118ba565b005b6104b060048036038101906104ab9190612993565b611a8d565b005b6060600380546104c190612a96565b80601f01602080910402602001604051908101604052809291908181526020018280546104ed90612a96565b801561053a5780601f1061050f5761010080835404028352916020019161053a565b820191906000526020600020905b81548152906001019060200180831161051d57829003601f168201915b5050505050905090565b6000610551338484611afb565b6001905092915050565b6000807f000000000000000000000000000000000000000000000000000000000000000073ffffffffffffffffffffffffffffffffffffffff166370a08231306040518263ffffffff1660e01b81526004016105b79190612914565b602060405180830381865afa1580156105d4573d6000803e3d6000fd5b505050506040513d601f19601f820116820180604052508101906105f89190612adc565b90506000610604610a71565b14806106105750600081145b1561063e577f0000000000000000000000000000000000000000000000000000000000000000915050610680565b610646610a71565b7f0000000000000000000000000000000000000000000000000000000000000000826106729190612b38565b61067c9190612bc1565b9150505b90565b60008061068e61055b565b905061069a8584611be6565b7f000000000000000000000000000000000000000000000000000000000000000081846106c79190612b38565b6106d19190612bc1565b915061071e84837f000000000000000000000000000000000000000000000000000000000000000073ffffffffffffffffffffffffffffffffffffffff16611d309092919063ffffffff16565b509392505050565b7f000000000000000000000000000000000000000000000000000000000000000081565b60006107787f0000000000000000000000000000000000000000000000000000000000000000303385611db6565b90506107c5307f00000000000000000000000000000000000000000000000000000000000000007fffffffffffffffffffffffffffffffffffffffffffffffffffffffffffffffff611afb565b60007f000000000000000000000000000000000000000000000000000000000000000073ffffffffffffffffffffffffffffffffffffffff16635668870030846040518363ffffffff1660e01b8152600401610822929190612bf2565b6020604051808303816000875af1158015610841573d6000803e3d6000fd5b505050506040513d601f19601f820116820180604052508101906108659190612adc565b90507f000000000000000000000000000000000000000000000000000000000000000073ffffffffffffffffffffffffffffffffffffffff1663a9059cbb33836040518363ffffffff1660e01b81526004016108c2929190612bf2565b6020604051808303816000875af11580156108e1573d6000803e3d6000fd5b505050506040513d601f19601f820116820180604052508101906109059190612c47565b507f000000000000000000000000000000000000000000000000000000000000000073ffffffffffffffffffffffffffffffffffffffff166370a082317f00000000000000000000000000000000000000000000000000000000000000006040518263ffffffff1660e01b815260040161097f9190612914565b602060405180830381865afa15801561099c573d6000803e3d6000fd5b505050506040513d601f19601f820116820180604052508101906109c09190612adc565b6005600001819055503073ffffffffffffffffffffffffffffffffffffffff166370a082317f00000000000000000000000000000000000000000000000000000000000000006040518263ffffffff1660e01b8152600401610a229190612914565b602060405180830381865afa158015610a3f573d6000803e3d6000fd5b505050506040513d601f19601f82011682018060405250810190610a639190612adc565b600560020181905550505050565b6000600254905090565b6000610a88848484611fdb565b6000600160008673ffffffffffffffffffffffffffffffffffffffff1673ffffffffffffffffffffffffffffffffffffffff16815260200190815260200160002060003373ffffffffffffffffffffffffffffffffffffffff1673ffffffffffffffffffffffffffffffffffffffff1681526020019081526020016000205490507fffffffffffffffffffffffffffffffffffffffffffffffffffffffffffffffff8114158015610b3857508083115b15610b7c5780836040517fa9248256000000000000000000000000000000000000000000000000000000008152600401610b73929190612c74565b60405180910390fd5b610b9285338584610b8d9190612c9d565b611afb565b60019150509392505050565b60006012905090565b6000610c3b338484600160003373ffffffffffffffffffffffffffffffffffffffff1673ffffffffffffffffffffffffffffffffffffffff16815260200190815260200160002060008873ffffffffffffffffffffffffffffffffffffffff1673ffffffffffffffffffffffffffffffffffffffff16815260200190815260200160002054610c369190612cd1565b611afb565b6001905092915050565b7f000000000000000000000000000000000000000000000000000000000000000081565b60008060008373ffffffffffffffffffffffffffffffffffffffff1673ffffffffffffffffffffffffffffffffffffffff168152602001908152602001600020549050919050565b7f000000000000000000000000000000000000000000000000000000000000000081565b606060048054610ce490612a96565b80601f0160208091040260200160405190810160405280929190818152602001828054610d1090612a96565b8015610d5d5780601f10610d3257610100808354040283529160200191610d5d565b820191906000526020600020905b815481529060010190602001808311610d4057829003601f168201915b5050505050905090565b600080600160003373ffffffffffffffffffffffffffffffffffffffff1673ffffffffffffffffffffffffffffffffffffffff16815260200190815260200160002060008573ffffffffffffffffffffffffffffffffffffffff1673ffffffffffffffffffffffffffffffffffffffff16815260200190815260200160002054905082811015610e305780836040517fda2d822c000000000000000000000000000000000000000000000000000000008152600401610e27929190612c74565b60405180910390fd5b610e3d3385858403611afb565b600191505092915050565b6000610e55338484611fdb565b6001905092915050565b7f000000000000000000000000000000000000000000000000000000000000000081565b7f000000000000000000000000000000000000000000000000000000000000000081565b600080600560405180606001604052908160008201548152602001600182015481526020016002820154815250509050610edf612696565b6005600101544303610f2f57436005600101546040517fa31b34df000000000000000000000000000000000000000000000000000000008152600401610f26929190612c74565b60405180910390fd5b7f000000000000000000000000000000000000000000000000000000000000000073ffffffffffffffffffffffffffffffffffffffff166370a082317f00000000000000000000000000000000000000000000000000000000000000006040518263ffffffff1660e01b8152600401610fa89190612914565b602060405180830381865afa158015610fc5573d6000803e3d6000fd5b505050506040513d601f19601f82011682018060405250810190610fe99190612adc565b8160000181815250503073ffffffffffffffffffffffffffffffffffffffff166370a082317f00000000000000000000000000000000000000000000000000000000000000006040518263ffffffff1660e01b815260040161104b9190612914565b602060405180830381865afa158015611068573d6000803e3d6000fd5b505050506040513d601f19601f8201168201806040525081019061108c9190612adc565b8160200181815250507f00000000000000000000000000000000000000000000000000000000000000008160400181815250507f000000000000000000000000000000000000000000000000000000000000000082600001516110ef9190612b38565b7f00000000000000000000000000000000000000000000000000000000000000008360400151866111209190612cd1565b61112a9190612b38565b11156111bb577f000000000000000000000000000000000000000000000000000000000000000082600001516111609190612b38565b60027f000000000000000000000000000000000000000000000000000000000000000061118d9190612e5a565b83604001518661119d9190612cd1565b6111a79190612b38565b6111b19190612bc1565b8160400181815250505b6111cb8160400151303387611db6565b8160600181815250507f000000000000000000000000000000000000000000000000000000000000000073ffffffffffffffffffffffffffffffffffffffff168673ffffffffffffffffffffffffffffffffffffffff16036113b85760007f000000000000000000000000000000000000000000000000000000000000000073ffffffffffffffffffffffffffffffffffffffff1663566887003084606001516040518363ffffffff1660e01b8152600401611288929190612bf2565b6020604051808303816000875af11580156112a7573d6000803e3d6000fd5b505050506040513d601f19601f820116820180604052508101906112cb9190612adc565b90508581146113135780866040517f612e405f00000000000000000000000000000000000000000000000000000000815260040161130a929190612c74565b60405180910390fd5b7f000000000000000000000000000000000000000000000000000000000000000073ffffffffffffffffffffffffffffffffffffffff1663a9059cbb89836040518363ffffffff1660e01b815260040161136e929190612bf2565b6020604051808303816000875af115801561138d573d6000803e3d6000fd5b505050506040513d601f19601f820116820180604052508101906113b19190612c47565b50506114ab565b7f000000000000000000000000000000000000000000000000000000000000000073ffffffffffffffffffffffffffffffffffffffff1663fe02915630888460600151896040518563ffffffff1660e01b815260040161141b9493929190612ea5565b6020604051808303816000875af115801561143a573d6000803e3d6000fd5b505050506040513d601f19601f8201168201806040525081019061145e9190612c47565b506114aa87867f000000000000000000000000000000000000000000000000000000000000000073ffffffffffffffffffffffffffffffffffffffff16611d309092919063ffffffff16565b5b8060000151826000018181525050438260200181815250508060200151826040018181525050816005600082015181600001556020820151816001015560408201518160020155905050600192505050949350505050565b6000600160008473ffffffffffffffffffffffffffffffffffffffff1673ffffffffffffffffffffffffffffffffffffffff16815260200190815260200160002060008373ffffffffffffffffffffffffffffffffffffffff1673ffffffffffffffffffffffffffffffffffffffff16815260200190815260200160002054905092915050565b60008373ffffffffffffffffffffffffffffffffffffffff166323b872dd3330856040518463ffffffff1660e01b81526004016115c993929190612eea565b6020604051808303816000875af11580156115e8573d6000803e3d6000fd5b505050506040513d601f19601f8201168201806040525081019061160c9190612c47565b507f000000000000000000000000000000000000000000000000000000000000000073ffffffffffffffffffffffffffffffffffffffff168473ffffffffffffffffffffffffffffffffffffffff16036117665760007f000000000000000000000000000000000000000000000000000000000000000073ffffffffffffffffffffffffffffffffffffffff166306d47de930866040518363ffffffff1660e01b81526004016116bd929190612bf2565b6020604051808303816000875af11580156116dc573d6000803e3d6000fd5b505050506040513d601f19601f820116820180604052508101906117009190612adc565b90506104008111801561171a5750600a83901c600a82901c115b15611760578481846040517f73a4b39000000000000000000000000000000000000000000000000000000000815260040161175793929190612f21565b60405180910390fd5b506118ae565b60007f000000000000000000000000000000000000000000000000000000000000000061179161055b565b8561179c9190612b38565b6117a69190612bc1565b90507f000000000000000000000000000000000000000000000000000000000000000073ffffffffffffffffffffffffffffffffffffffff1663fe029156863086886040518563ffffffff1660e01b81526004016118079493929190612ea5565b6020604051808303816000875af1158015611826573d6000803e3d6000fd5b505050506040513d601f19601f8201168201806040525081019061184a9190612c47565b506000611858308887610683565b9050600a81901c600a83901c10156118ab578582826040517f73a4b3900000000000000000000000000000000000000000000000000000000081526004016118a293929190612f21565b60405180910390fd5b50505b60019050949350505050565b7f000000000000000000000000000000000000000000000000000000000000000073ffffffffffffffffffffffffffffffffffffffff163373ffffffffffffffffffffffffffffffffffffffff161461196c57337f00000000000000000000000000000000000000000000000000000000000000006040517fd214286f000000000000000000000000000000000000000000000000000000008152600401611963929190612f58565b60405180910390fd5b60007f000000000000000000000000000000000000000000000000000000000000000090508073ffffffffffffffffffffffffffffffffffffffff1663a9059cbb838373ffffffffffffffffffffffffffffffffffffffff166370a08231306040518263ffffffff1660e01b81526004016119e79190612914565b602060405180830381865afa158015611a04573d6000803e3d6000fd5b505050506040513d601f19601f82011682018060405250810190611a289190612adc565b6040518363ffffffff1660e01b8152600401611a45929190612bf2565b6020604051808303816000875af1158015611a64573d6000803e3d6000fd5b505050506040513d601f19601f82011682018060405250810190611a889190612c47565b505050565b611af87f00000000000000000000000000000000000000000000000000000000000000007fffffffffffffffffffffffffffffffffffffffffffffffffffffffffffffffff8373ffffffffffffffffffffffffffffffffffffffff166121649092919063ffffffff16565b50565b80600160008573ffffffffffffffffffffffffffffffffffffffff1673ffffffffffffffffffffffffffffffffffffffff16815260200190815260200160002060008473ffffffffffffffffffffffffffffffffffffffff1673ffffffffffffffffffffffffffffffffffffffff168152602001908152602001600020819055508173ffffffffffffffffffffffffffffffffffffffff168373ffffffffffffffffffffffffffffffffffffffff167f8c5be1e5ebec7d5bd14f71427d1e84f3dd0314c0f7b2291e5b200ac8c7c3b92583604051611bd99190612897565b60405180910390a3505050565b60008060008473ffffffffffffffffffffffffffffffffffffffff1673ffffffffffffffffffffffffffffffffffffffff16815260200190815260200160002054905081811015611c705780826040517f0a37dd41000000000000000000000000000000000000000000000000000000008152600401611c67929190612c74565b60405180910390fd5b8181036000808573ffffffffffffffffffffffffffffffffffffffff1673ffffffffffffffffffffffffffffffffffffffff1681526020019081526020016000208190555081600260008282540392505081905550600073ffffffffffffffffffffffffffffffffffffffff168373ffffffffffffffffffffffffffffffffffffffff167fddf252ad1be2c89b69c2b068fc378daa952ba7f163c4a11628f55a4df523b3ef84604051611d239190612897565b60405180910390a3505050565b611db18363a9059cbb60e01b8484604051602401611d4f929190612bf2565b604051602081830303815290604052907bffffffffffffffffffffffffffffffffffffffffffffffffffffffff19166020820180517bffffffffffffffffffffffffffffffffffffffffffffffffffffffff83818316178352505050506122bb565b505050565b6000807f000000000000000000000000000000000000000000000000000000000000000086611de361055b565b611ded9190612b38565b611df79190612bc1565b905060007f000000000000000000000000000000000000000000000000000000000000000073ffffffffffffffffffffffffffffffffffffffff166370a08231306040518263ffffffff1660e01b8152600401611e549190612914565b602060405180830381865afa158015611e71573d6000803e3d6000fd5b505050506040513d601f19601f82011682018060405250810190611e959190612adc565b9050611ee48530867f000000000000000000000000000000000000000000000000000000000000000073ffffffffffffffffffffffffffffffffffffffff16612379909392919063ffffffff16565b6000817f000000000000000000000000000000000000000000000000000000000000000073ffffffffffffffffffffffffffffffffffffffff166370a08231306040518263ffffffff1660e01b8152600401611f409190612914565b602060405180830381865afa158015611f5d573d6000803e3d6000fd5b505050506040513d601f19601f82011682018060405250810190611f819190612adc565b611f8b9190612c9d565b9050827f000000000000000000000000000000000000000000000000000000000000000082611fba9190612b38565b611fc49190612bc1565b9350611fd08785612402565b505050949350505050565b60008060008573ffffffffffffffffffffffffffffffffffffffff1673ffffffffffffffffffffffffffffffffffffffff1681526020019081526020016000205490508181101561206857806000836040517f57b9c4a400000000000000000000000000000000000000000000000000000000815260040161205f93929190612fc6565b60405180910390fd5b8181036000808673ffffffffffffffffffffffffffffffffffffffff1673ffffffffffffffffffffffffffffffffffffffff16815260200190815260200160002081905550816000808573ffffffffffffffffffffffffffffffffffffffff1673ffffffffffffffffffffffffffffffffffffffff168152602001908152602001600020600082825401925050819055508273ffffffffffffffffffffffffffffffffffffffff168473ffffffffffffffffffffffffffffffffffffffff167fddf252ad1be2c89b69c2b068fc378daa952ba7f163c4a11628f55a4df523b3ef846040516121569190612897565b60405180910390a350505050565b6000811180156121ef575060008373ffffffffffffffffffffffffffffffffffffffff1663dd62ed3e30856040518363ffffffff1660e01b81526004016121ac929190612f58565b602060405180830381865afa1580156121c9573d6000803e3d6000fd5b505050506040513d601f19601f820116820180604052508101906121ed9190612adc565b115b15612235578282826040517fc1a76f6c00000000000000000000000000000000000000000000000000000000815260040161222c93929190612eea565b60405180910390fd5b6122b68363095ea7b360e01b8484604051602401612254929190612bf2565b604051602081830303815290604052907bffffffffffffffffffffffffffffffffffffffffffffffffffffffff19166020820180517bffffffffffffffffffffffffffffffffffffffffffffffffffffffff83818316178352505050506122bb565b505050565b600061231d826040518060400160405280602081526020017f5361666545524332303a206c6f772d6c6576656c2063616c6c206661696c65648152508573ffffffffffffffffffffffffffffffffffffffff166124da9092919063ffffffff16565b9050600081511115612374578080602001905181019061233d9190612c47565b612373576040517fa479450200000000000000000000000000000000000000000000000000000000815260040160405180910390fd5b5b505050565b6123fc846323b872dd60e01b85858560405160240161239a93929190612eea565b604051602081830303815290604052907bffffffffffffffffffffffffffffffffffffffffffffffffffffffff19166020820180517bffffffffffffffffffffffffffffffffffffffffffffffffffffffff83818316178352505050506122bb565b50505050565b80600260008282546124149190612cd1565b92505081905550806000808473ffffffffffffffffffffffffffffffffffffffff1673ffffffffffffffffffffffffffffffffffffffff16815260200190815260200160002060008282546124699190612cd1565b925050819055508173ffffffffffffffffffffffffffffffffffffffff16600073ffffffffffffffffffffffffffffffffffffffff167fddf252ad1be2c89b69c2b068fc378daa952ba7f163c4a11628f55a4df523b3ef836040516124ce9190612897565b60405180910390a35050565b60606124e984846000856124f2565b90509392505050565b60608247101561253b5747836040517f02de226f000000000000000000000000000000000000000000000000000000008152600401612532929190612c74565b60405180910390fd5b6125448561260c565b61258557846040517f8a8b41ec00000000000000000000000000000000000000000000000000000000815260040161257c9190612914565b60405180910390fd5b6000808673ffffffffffffffffffffffffffffffffffffffff1685876040516125ae9190613044565b60006040518083038185875af1925050503d80600081146125eb576040519150601f19603f3d011682016040523d82523d6000602084013e6125f0565b606091505b509150915061260082828661262f565b92505050949350505050565b6000808273ffffffffffffffffffffffffffffffffffffffff163b119050919050565b6060831561263f5782905061268f565b6000835111156126525782518084602001fd5b816040517f08c379a00000000000000000000000000000000000000000000000000000000081526004016126869190612757565b60405180910390fd5b9392505050565b6040518060800160405280600081526020016000815260200160008152602001600081525090565b600081519050919050565b600082825260208201905092915050565b60005b838110156126f85780820151818401526020810190506126dd565b83811115612707576000848401525b50505050565b6000601f19601f8301169050919050565b6000612729826126be565b61273381856126c9565b93506127438185602086016126da565b61274c8161270d565b840191505092915050565b60006020820190508181036000830152612771818461271e565b905092915050565b600080fd5b600073ffffffffffffffffffffffffffffffffffffffff82169050919050565b60006127a98261277e565b9050919050565b6127b98161279e565b81146127c457600080fd5b50565b6000813590506127d6816127b0565b92915050565b6000819050919050565b6127ef816127dc565b81146127fa57600080fd5b50565b60008135905061280c816127e6565b92915050565b6000806040838503121561282957612828612779565b5b6000612837858286016127c7565b9250506020612848858286016127fd565b9150509250929050565b60008115159050919050565b61286781612852565b82525050565b6000602082019050612882600083018461285e565b92915050565b612891816127dc565b82525050565b60006020820190506128ac6000830184612888565b92915050565b6000806000606084860312156128cb576128ca612779565b5b60006128d9868287016127c7565b93505060206128ea868287016127c7565b92505060406128fb868287016127fd565b9150509250925092565b61290e8161279e565b82525050565b60006020820190506129296000830184612905565b92915050565b60006020828403121561294557612944612779565b5b6000612953848285016127fd565b91505092915050565b600060ff82169050919050565b6129728161295c565b82525050565b600060208201905061298d6000830184612969565b92915050565b6000602082840312156129a9576129a8612779565b5b60006129b7848285016127c7565b91505092915050565b600080600080608085870312156129da576129d9612779565b5b60006129e8878288016127c7565b94505060206129f9878288016127c7565b9350506040612a0a878288016127fd565b9250506060612a1b878288016127fd565b91505092959194509250565b60008060408385031215612a3e57612a3d612779565b5b6000612a4c858286016127c7565b9250506020612a5d858286016127c7565b9150509250929050565b7f4e487b7100000000000000000000000000000000000000000000000000000000600052602260045260246000fd5b60006002820490506001821680612aae57607f821691505b602082108103612ac157612ac0612a67565b5b50919050565b600081519050612ad6816127e6565b92915050565b600060208284031215612af257612af1612779565b5b6000612b0084828501612ac7565b91505092915050565b7f4e487b7100000000000000000000000000000000000000000000000000000000600052601160045260246000fd5b6000612b43826127dc565b9150612b4e836127dc565b9250817fffffffffffffffffffffffffffffffffffffffffffffffffffffffffffffffff0483118215151615612b8757612b86612b09565b5b828202905092915050565b7f4e487b7100000000000000000000000000000000000000000000000000000000600052601260045260246000fd5b6000612bcc826127dc565b9150612bd7836127dc565b925082612be757612be6612b92565b5b828204905092915050565b6000604082019050612c076000830185612905565b612c146020830184612888565b9392505050565b612c2481612852565b8114612c2f57600080fd5b50565b600081519050612c4181612c1b565b92915050565b600060208284031215612c5d57612c5c612779565b5b6000612c6b84828501612c32565b91505092915050565b6000604082019050612c896000830185612888565b612c966020830184612888565b9392505050565b6000612ca8826127dc565b9150612cb3836127dc565b925082821015612cc657612cc5612b09565b5b828203905092915050565b6000612cdc826127dc565b9150612ce7836127dc565b9250827fffffffffffffffffffffffffffffffffffffffffffffffffffffffffffffffff03821115612d1c57612d1b612b09565b5b828201905092915050565b60008160011c9050919050565b6000808291508390505b6001851115612d7e57808604811115612d5a57612d59612b09565b5b6001851615612d695780820291505b8081029050612d7785612d27565b9450612d3e565b94509492505050565b600082612d975760019050612e53565b81612da55760009050612e53565b8160018114612dbb5760028114612dc557612df4565b6001915050612e53565b60ff841115612dd757612dd6612b09565b5b8360020a915084821115612dee57612ded612b09565b5b50612e53565b5060208310610133831016604e8410600b8410161715612e295782820a905083811115612e2457612e23612b09565b5b612e53565b612e368484846001612d34565b92509050818404811115612e4d57612e4c612b09565b5b81810290505b9392505050565b6000612e65826127dc565b9150612e708361295c565b9250612e9d7fffffffffffffffffffffffffffffffffffffffffffffffffffffffffffffffff8484612d87565b905092915050565b6000608082019050612eba6000830187612905565b612ec76020830186612905565b612ed46040830185612888565b612ee16060830184612888565b95945050505050565b6000606082019050612eff6000830186612905565b612f0c6020830185612905565b612f196040830184612888565b949350505050565b6000606082019050612f366000830186612905565b612f436020830185612888565b612f506040830184612888565b949350505050565b6000604082019050612f6d6000830185612905565b612f7a6020830184612905565b9392505050565b6000819050919050565b6000819050919050565b6000612fb0612fab612fa684612f81565b612f8b565b6127dc565b9050919050565b612fc081612f95565b82525050565b6000606082019050612fdb6000830186612888565b612fe86020830185612fb7565b612ff56040830184612888565b949350505050565b600081519050919050565b600081905092915050565b600061301e82612ffd565b6130288185613008565b93506130388185602086016126da565b80840191505092915050565b60006130508284613013565b91508190509291505056fea26469706673582212203a6899d511242f11904b1e6100951e6841edd4a2fde887ba4eb563f6b8a83af664736f6c634300080d0033",
  "linkReferences": {},
  "deployedLinkReferences": {}
}