{
  "_format": "hh-sol-artifact-1",
  "contractName": "CliffFace",
  "sourceName": "contracts/TokenProxies/CliffFace.sol",
  "abi": [
    {
      "inputs": [
        {
          "internalType": "address",
          "name": "_baseToken",
          "type": "address"
        },
        {
          "internalType": "string",
          "name": "name_",
          "type": "string"
        },
        {
          "internalType": "string",
          "name": "symbol_",
          "type": "string"
        },
        {
          "internalType": "address",
          "name": "registry",
          "type": "address"
        },
        {
          "internalType": "address",
          "name": "_referenceToken",
          "type": "address"
        },
        {
          "internalType": "uint256",
          "name": "multiple",
          "type": "uint256"
        },
        {
          "internalType": "address",
          "name": "_behodler",
          "type": "address"
        }
      ],
      "stateMutability": "nonpayable",
      "type": "constructor"
    },
    {
      "inputs": [
        {
          "internalType": "uint256",
          "name": "allowance",
          "type": "uint256"
        },
        {
          "internalType": "uint256",
          "name": "amount",
          "type": "uint256"
        }
      ],
      "name": "AllowanceExceeded",
      "type": "error"
    },
    {
      "inputs": [
        {
          "internalType": "uint256",
          "name": "allowance",
          "type": "uint256"
        },
        {
          "internalType": "uint256",
          "name": "subtraction",
          "type": "uint256"
        }
      ],
      "name": "AllowanceUnderflow",
      "type": "error"
    },
    {
      "inputs": [
        {
          "internalType": "address",
          "name": "token",
          "type": "address"
        },
        {
          "internalType": "address",
          "name": "spender",
          "type": "address"
        },
        {
          "internalType": "uint256",
          "name": "amount",
          "type": "uint256"
        }
      ],
      "name": "ApproveToNonZero",
      "type": "error"
    },
    {
      "inputs": [
        {
          "internalType": "uint256",
          "name": "output",
          "type": "uint256"
        },
        {
          "internalType": "uint256",
          "name": "expectedOutput",
          "type": "uint256"
        }
      ],
      "name": "BehodlerSwapInInvariantViolated",
      "type": "error"
    },
    {
      "inputs": [
        {
          "internalType": "address",
          "name": "inputToken",
          "type": "address"
        },
        {
          "internalType": "uint256",
          "name": "actualAmount",
          "type": "uint256"
        },
        {
          "internalType": "uint256",
          "name": "expectedAmount",
          "type": "uint256"
        }
      ],
      "name": "BehodlerSwapOutInvariantViolated",
      "type": "error"
    },
    {
      "inputs": [
        {
          "internalType": "uint256",
          "name": "accountBalance",
          "type": "uint256"
        },
        {
          "internalType": "uint256",
          "name": "amount",
          "type": "uint256"
        }
      ],
      "name": "BurnUnderflow",
      "type": "error"
    },
    {
      "inputs": [
        {
          "internalType": "uint256",
          "name": "balance",
          "type": "uint256"
        },
        {
          "internalType": "uint256",
          "name": "value",
          "type": "uint256"
        }
      ],
      "name": "InsufficinetFunds",
      "type": "error"
    },
    {
      "inputs": [
        {
          "internalType": "address",
          "name": "EOA",
          "type": "address"
        }
      ],
      "name": "NotAContract",
      "type": "error"
    },
    {
      "inputs": [
        {
          "internalType": "address",
          "name": "sender",
          "type": "address"
        },
        {
          "internalType": "address",
          "name": "proxy",
          "type": "address"
        }
      ],
      "name": "OnlyProxy",
      "type": "error"
    },
    {
      "inputs": [],
      "name": "OperationFailure",
      "type": "error"
    },
    {
      "inputs": [
        {
          "internalType": "uint256",
          "name": "blockNumber",
          "type": "uint256"
        },
        {
          "internalType": "uint256",
          "name": "priorBlockNumber",
          "type": "uint256"
        }
      ],
      "name": "SlippageManipulationPrevention",
      "type": "error"
    },
    {
      "inputs": [
        {
          "internalType": "uint256",
          "name": "senderBalance",
          "type": "uint256"
        },
        {
          "internalType": "uint256",
          "name": "fee",
          "type": "uint256"
        },
        {
          "internalType": "uint256",
          "name": "amount",
          "type": "uint256"
        }
      ],
      "name": "TransferUnderflow",
      "type": "error"
    },
    {
      "anonymous": false,
      "inputs": [
        {
          "indexed": true,
          "internalType": "address",
          "name": "owner",
          "type": "address"
        },
        {
          "indexed": true,
          "internalType": "address",
          "name": "spender",
          "type": "address"
        },
        {
          "indexed": false,
          "internalType": "uint256",
          "name": "value",
          "type": "uint256"
        }
      ],
      "name": "Approval",
      "type": "event"
    },
    {
      "anonymous": false,
      "inputs": [
        {
          "indexed": true,
          "internalType": "address",
          "name": "from",
          "type": "address"
        },
        {
          "indexed": true,
          "internalType": "address",
          "name": "to",
          "type": "address"
        },
        {
          "indexed": false,
          "internalType": "uint256",
          "name": "value",
          "type": "uint256"
        }
      ],
      "name": "Transfer",
      "type": "event"
    },
    {
      "inputs": [
        {
          "internalType": "address",
          "name": "owner",
          "type": "address"
        },
        {
          "internalType": "address",
          "name": "spender",
          "type": "address"
        }
      ],
      "name": "allowance",
      "outputs": [
        {
          "internalType": "uint256",
          "name": "",
          "type": "uint256"
        }
      ],
      "stateMutability": "view",
      "type": "function"
    },
    {
      "inputs": [
        {
          "internalType": "address",
          "name": "spender",
          "type": "address"
        },
        {
          "internalType": "uint256",
          "name": "amount",
          "type": "uint256"
        }
      ],
      "name": "approve",
      "outputs": [
        {
          "internalType": "bool",
          "name": "",
          "type": "bool"
        }
      ],
      "stateMutability": "nonpayable",
      "type": "function"
    },
    {
      "inputs": [
        {
          "internalType": "address",
          "name": "inputToken",
          "type": "address"
        }
      ],
      "name": "approveBehodlerFor",
      "outputs": [],
      "stateMutability": "nonpayable",
      "type": "function"
    },
    {
      "inputs": [
        {
          "internalType": "address",
          "name": "account",
          "type": "address"
        }
      ],
      "name": "balanceOf",
      "outputs": [
        {
          "internalType": "uint256",
          "name": "",
          "type": "uint256"
        }
      ],
      "stateMutability": "view",
      "type": "function"
    },
    {
      "inputs": [],
      "name": "baseToken",
      "outputs": [
        {
          "internalType": "address",
          "name": "",
          "type": "address"
        }
      ],
      "stateMutability": "view",
      "type": "function"
    },
    {
      "inputs": [],
      "name": "decimals",
      "outputs": [
        {
          "internalType": "uint8",
          "name": "",
          "type": "uint8"
        }
      ],
      "stateMutability": "view",
      "type": "function"
    },
    {
      "inputs": [
        {
          "internalType": "address",
          "name": "spender",
          "type": "address"
        },
        {
          "internalType": "uint256",
          "name": "subtractedValue",
          "type": "uint256"
        }
      ],
      "name": "decreaseAllowance",
      "outputs": [
        {
          "internalType": "bool",
          "name": "",
          "type": "bool"
        }
      ],
      "stateMutability": "nonpayable",
      "type": "function"
    },
    {
      "inputs": [
        {
          "internalType": "address",
          "name": "spender",
          "type": "address"
        },
        {
          "internalType": "uint256",
          "name": "addedValue",
          "type": "uint256"
        }
      ],
      "name": "increaseAllowance",
      "outputs": [
        {
          "internalType": "bool",
          "name": "",
          "type": "bool"
        }
      ],
      "stateMutability": "nonpayable",
      "type": "function"
    },
    {
      "inputs": [
        {
          "internalType": "address",
          "name": "newProxy",
          "type": "address"
        }
      ],
      "name": "migrateBaseReserveToNewProxy",
      "outputs": [],
      "stateMutability": "nonpayable",
      "type": "function"
    },
    {
      "inputs": [],
      "name": "name",
      "outputs": [
        {
          "internalType": "string",
          "name": "",
          "type": "string"
        }
      ],
      "stateMutability": "view",
      "type": "function"
    },
    {
      "inputs": [],
      "name": "proxyRegistry",
      "outputs": [
        {
          "internalType": "address",
          "name": "",
          "type": "address"
        }
      ],
      "stateMutability": "view",
      "type": "function"
    },
    {
      "inputs": [
        {
          "internalType": "address",
          "name": "proxySource",
          "type": "address"
        },
        {
          "internalType": "address",
          "name": "baseRecipient",
          "type": "address"
        },
        {
          "internalType": "uint256",
          "name": "amount",
          "type": "uint256"
        }
      ],
      "name": "redeem",
      "outputs": [
        {
          "internalType": "uint256",
          "name": "baseAmount",
          "type": "uint256"
        }
      ],
      "stateMutability": "nonpayable",
      "type": "function"
    },
    {
      "inputs": [],
      "name": "redeemRate",
      "outputs": [
        {
          "internalType": "uint256",
          "name": "",
          "type": "uint256"
        }
      ],
      "stateMutability": "view",
      "type": "function"
    },
    {
      "inputs": [],
      "name": "referenceMultiple",
      "outputs": [
        {
          "internalType": "uint256",
          "name": "",
          "type": "uint256"
        }
      ],
      "stateMutability": "view",
      "type": "function"
    },
    {
      "inputs": [],
      "name": "referenceToken",
      "outputs": [
        {
          "internalType": "address",
          "name": "",
          "type": "address"
        }
      ],
      "stateMutability": "view",
      "type": "function"
    },
    {
      "inputs": [
        {
          "internalType": "uint256",
          "name": "initialSupply",
          "type": "uint256"
        }
      ],
      "name": "seedBehodler",
      "outputs": [],
      "stateMutability": "nonpayable",
      "type": "function"
    },
    {
      "inputs": [
        {
          "internalType": "address",
          "name": "outputRecipient",
          "type": "address"
        },
        {
          "internalType": "address",
          "name": "outputToken",
          "type": "address"
        },
        {
          "internalType": "uint256",
          "name": "outputAmount",
          "type": "uint256"
        },
        {
          "internalType": "uint256",
          "name": "baseTokenAmount",
          "type": "uint256"
        },
        {
          "internalType": "bool",
          "name": "requestRefund",
          "type": "bool"
        }
      ],
      "name": "swapAsInput",
      "outputs": [
        {
          "internalType": "bool",
          "name": "",
          "type": "bool"
        }
      ],
      "stateMutability": "nonpayable",
      "type": "function"
    },
    {
      "inputs": [
        {
          "internalType": "address",
          "name": "outputRecipient",
          "type": "address"
        },
        {
          "internalType": "address",
          "name": "input",
          "type": "address"
        },
        {
          "internalType": "uint256",
          "name": "proxyTokensToRelease",
          "type": "uint256"
        },
        {
          "internalType": "uint256",
          "name": "expectedInputAmount",
          "type": "uint256"
        },
        {
          "internalType": "bool",
          "name": "requestRefund",
          "type": "bool"
        }
      ],
      "name": "swapAsOuput",
      "outputs": [
        {
          "internalType": "bool",
          "name": "",
          "type": "bool"
        }
      ],
      "stateMutability": "nonpayable",
      "type": "function"
    },
    {
      "inputs": [],
      "name": "symbol",
      "outputs": [
        {
          "internalType": "string",
          "name": "",
          "type": "string"
        }
      ],
      "stateMutability": "view",
      "type": "function"
    },
    {
      "inputs": [],
      "name": "totalSupply",
      "outputs": [
        {
          "internalType": "uint256",
          "name": "",
          "type": "uint256"
        }
      ],
      "stateMutability": "view",
      "type": "function"
    },
    {
      "inputs": [
        {
          "internalType": "address",
          "name": "recipient",
          "type": "address"
        },
        {
          "internalType": "uint256",
          "name": "amount",
          "type": "uint256"
        }
      ],
      "name": "transfer",
      "outputs": [
        {
          "internalType": "bool",
          "name": "",
          "type": "bool"
        }
      ],
      "stateMutability": "nonpayable",
      "type": "function"
    },
    {
      "inputs": [
        {
          "internalType": "address",
          "name": "sender",
          "type": "address"
        },
        {
          "internalType": "address",
          "name": "recipient",
          "type": "address"
        },
        {
          "internalType": "uint256",
          "name": "amount",
          "type": "uint256"
        }
      ],
      "name": "transferFrom",
      "outputs": [
        {
          "internalType": "bool",
          "name": "",
          "type": "bool"
        }
      ],
      "stateMutability": "nonpayable",
      "type": "function"
    }
  ],
  "bytecode": "0x6101206040523480156200001257600080fd5b5060405162003af338038062003af38339818101604052810190620000389190620004e9565b808787878783838383828281600390805190602001906200005b929190620001fc565b50806004908051906020019062000074929190620001fc565b5050508373ffffffffffffffffffffffffffffffffffffffff1660a08173ffffffffffffffffffffffffffffffffffffffff16815250508073ffffffffffffffffffffffffffffffffffffffff1660808173ffffffffffffffffffffffffffffffffffffffff1681525050505050508473ffffffffffffffffffffffffffffffffffffffff1660c08173ffffffffffffffffffffffffffffffffffffffff168152505050505050508273ffffffffffffffffffffffffffffffffffffffff1660e08173ffffffffffffffffffffffffffffffffffffffff168152505081610100818152505060e05173ffffffffffffffffffffffffffffffffffffffff166370a0823160c0516040518263ffffffff1660e01b8152600401620001989190620005eb565b602060405180830381865afa158015620001b6573d6000803e3d6000fd5b505050506040513d601f19601f82011682018060405250810190620001dc919062000608565b60056000018190555043600560010181905550505050505050506200069e565b8280546200020a9062000669565b90600052602060002090601f0160209004810192826200022e57600085556200027a565b82601f106200024957805160ff19168380011785556200027a565b828001600101855582156200027a579182015b82811115620002795782518255916020019190600101906200025c565b5b5090506200028991906200028d565b5090565b5b80821115620002a85760008160009055506001016200028e565b5090565b6000604051905090565b600080fd5b600080fd5b600073ffffffffffffffffffffffffffffffffffffffff82169050919050565b6000620002ed82620002c0565b9050919050565b620002ff81620002e0565b81146200030b57600080fd5b50565b6000815190506200031f81620002f4565b92915050565b600080fd5b600080fd5b6000601f19601f8301169050919050565b7f4e487b7100000000000000000000000000000000000000000000000000000000600052604160045260246000fd5b6200037a826200032f565b810181811067ffffffffffffffff821117156200039c576200039b62000340565b5b80604052505050565b6000620003b1620002ac565b9050620003bf82826200036f565b919050565b600067ffffffffffffffff821115620003e257620003e162000340565b5b620003ed826200032f565b9050602081019050919050565b60005b838110156200041a578082015181840152602081019050620003fd565b838111156200042a576000848401525b50505050565b6000620004476200044184620003c4565b620003a5565b9050828152602081018484840111156200046657620004656200032a565b5b62000473848285620003fa565b509392505050565b600082601f83011262000493576200049262000325565b5b8151620004a584826020860162000430565b91505092915050565b6000819050919050565b620004c381620004ae565b8114620004cf57600080fd5b50565b600081519050620004e381620004b8565b92915050565b600080600080600080600060e0888a0312156200050b576200050a620002b6565b5b60006200051b8a828b016200030e565b975050602088015167ffffffffffffffff8111156200053f576200053e620002bb565b5b6200054d8a828b016200047b565b965050604088015167ffffffffffffffff811115620005715762000570620002bb565b5b6200057f8a828b016200047b565b9550506060620005928a828b016200030e565b9450506080620005a58a828b016200030e565b93505060a0620005b88a828b01620004d2565b92505060c0620005cb8a828b016200030e565b91505092959891949750929550565b620005e581620002e0565b82525050565b6000602082019050620006026000830184620005da565b92915050565b600060208284031215620006215762000620620002b6565b5b60006200063184828501620004d2565b91505092915050565b7f4e487b7100000000000000000000000000000000000000000000000000000000600052602260045260246000fd5b600060028204905060018216806200068257607f821691505b6020821081036200069857620006976200063a565b5b50919050565b60805160a05160c05160e0516101005161334c620007a760003960008181610cf8015281816111d701526112300152600081816106b701528181610900015261109b015260008181610778015281816107c1015281816108610152818161093c015281816109df0152818161105f0152818161113e015281816112bc01528181611311015281816113fb015281816114a0015281816117a8015281816117fd0152818161192c0152611d540152600081816105370152818161066901528181610f1201528181610f390152818161154c01528181611c32015281816120a7015281816121490152612193015260008181610eee01528181611b7e0152611bd2015261334c6000f3fe608060405234801561001057600080fd5b50600436106101425760003560e01c806370a08231116100b8578063c55dae631161007c578063c55dae63146103a3578063cfa66003146103c1578063d339e33c146103f1578063dd62ed3e14610421578063ed3b379b14610451578063ed6de1741461046d57610142565b806370a08231146102d757806395d89b4114610307578063a457c2d714610325578063a9059cbb14610355578063b50cbd9f1461038557610142565b806316a39eeb1161010a57806316a39eeb1461020157806318160ddd1461021d57806323b872dd1461023b578063313ce5671461026b57806339509351146102895780634e2c172d146102b957610142565b806306fdde0314610147578063095ea7b3146101655780630adcdbaa146101955780630e6dfcd5146101b35780631265b651146101e3575b600080fd5b61014f610489565b60405161015c91906129e9565b60405180910390f35b61017f600480360381019061017a9190612aa4565b61051b565b60405161018c9190612aff565b60405180910390f35b61019d610532565b6040516101aa9190612b29565b60405180910390f35b6101cd60048036038101906101c89190612b44565b61062a565b6040516101da9190612b29565b60405180910390f35b6101eb6106b5565b6040516101f89190612ba6565b60405180910390f35b61021b60048036038101906102169190612bc1565b6106d9565b005b610225610b22565b6040516102329190612b29565b60405180910390f35b61025560048036038101906102509190612b44565b610b2c565b6040516102629190612aff565b60405180910390f35b610273610c4f565b6040516102809190612c0a565b60405180910390f35b6102a3600480360381019061029e9190612aa4565b610c58565b6040516102b09190612aff565b60405180910390f35b6102c1610cf6565b6040516102ce9190612b29565b60405180910390f35b6102f160048036038101906102ec9190612c25565b610d1a565b6040516102fe9190612b29565b60405180910390f35b61030f610d62565b60405161031c91906129e9565b60405180910390f35b61033f600480360381019061033a9190612aa4565b610df4565b60405161034c9190612aff565b60405180910390f35b61036f600480360381019061036a9190612aa4565b610ed5565b60405161037c9190612aff565b60405180910390f35b61038d610eec565b60405161039a9190612ba6565b60405180910390f35b6103ab610f10565b6040516103b89190612ba6565b60405180910390f35b6103db60048036038101906103d69190612c7e565b610f34565b6040516103e89190612aff565b60405180910390f35b61040b60048036038101906104069190612c7e565b6116a3565b6040516104189190612aff565b60405180910390f35b61043b60048036038101906104369190612cf9565b611af5565b6040516104489190612b29565b60405180910390f35b61046b60048036038101906104669190612c25565b611b7c565b005b61048760048036038101906104829190612c25565b611d4f565b005b60606003805461049890612d68565b80601f01602080910402602001604051908101604052809291908181526020018280546104c490612d68565b80156105115780601f106104e657610100808354040283529160200191610511565b820191906000526020600020905b8154815290600101906020018083116104f457829003601f168201915b5050505050905090565b6000610528338484611dbd565b6001905092915050565b6000807f000000000000000000000000000000000000000000000000000000000000000073ffffffffffffffffffffffffffffffffffffffff166370a08231306040518263ffffffff1660e01b815260040161058e9190612ba6565b602060405180830381865afa1580156105ab573d6000803e3d6000fd5b505050506040513d601f19601f820116820180604052508101906105cf9190612dae565b905060006105db610b22565b14806105e75750600081145b156105fd57670de0b6b3a7640000915050610627565b610605610b22565b670de0b6b3a7640000826106199190612e0a565b6106239190612e93565b9150505b90565b600080610635610532565b90506106418584611ea8565b670de0b6b3a764000081846106569190612e0a565b6106609190612e93565b91506106ad84837f000000000000000000000000000000000000000000000000000000000000000073ffffffffffffffffffffffffffffffffffffffff16611ff29092919063ffffffff16565b509392505050565b7f000000000000000000000000000000000000000000000000000000000000000081565b60013060008173ffffffffffffffffffffffffffffffffffffffff166370a08231306040518263ffffffff1660e01b81526004016107179190612ba6565b602060405180830381865afa158015610734573d6000803e3d6000fd5b505050506040513d601f19601f820116820180604052508101906107589190612dae565b90506000610770670de0b6b3a7640000303388612078565b90506107bd307f00000000000000000000000000000000000000000000000000000000000000007fffffffffffffffffffffffffffffffffffffffffffffffffffffffffffffffff611dbd565b60007f000000000000000000000000000000000000000000000000000000000000000073ffffffffffffffffffffffffffffffffffffffff16635668870030846040518363ffffffff1660e01b815260040161081a929190612ec4565b6020604051808303816000875af1158015610839573d6000803e3d6000fd5b505050506040513d601f19601f8201168201806040525081019061085d9190612dae565b90507f000000000000000000000000000000000000000000000000000000000000000073ffffffffffffffffffffffffffffffffffffffff1663a9059cbb33836040518363ffffffff1660e01b81526004016108ba929190612ec4565b6020604051808303816000875af11580156108d9573d6000803e3d6000fd5b505050506040513d601f19601f820116820180604052508101906108fd9190612f02565b507f000000000000000000000000000000000000000000000000000000000000000073ffffffffffffffffffffffffffffffffffffffff166370a082317f00000000000000000000000000000000000000000000000000000000000000006040518263ffffffff1660e01b81526004016109779190612ba6565b602060405180830381865afa158015610994573d6000803e3d6000fd5b505050506040513d601f19601f820116820180604052508101906109b89190612dae565b6005600001819055503073ffffffffffffffffffffffffffffffffffffffff166370a082317f00000000000000000000000000000000000000000000000000000000000000006040518263ffffffff1660e01b8152600401610a1a9190612ba6565b602060405180830381865afa158015610a37573d6000803e3d6000fd5b505050506040513d601f19601f82011682018060405250810190610a5b9190612dae565b60056002018190555050508215610b1c57610b1b33828473ffffffffffffffffffffffffffffffffffffffff166370a08231306040518263ffffffff1660e01b8152600401610aaa9190612ba6565b602060405180830381865afa158015610ac7573d6000803e3d6000fd5b505050506040513d601f19601f82011682018060405250810190610aeb9190612dae565b610af59190612f2f565b8473ffffffffffffffffffffffffffffffffffffffff16611ff29092919063ffffffff16565b5b50505050565b6000600254905090565b6000610b3984848461226d565b6000600160008673ffffffffffffffffffffffffffffffffffffffff1673ffffffffffffffffffffffffffffffffffffffff16815260200190815260200160002060003373ffffffffffffffffffffffffffffffffffffffff1673ffffffffffffffffffffffffffffffffffffffff1681526020019081526020016000205490507fffffffffffffffffffffffffffffffffffffffffffffffffffffffffffffffff8114158015610be957508083115b15610c2d5780836040517fa9248256000000000000000000000000000000000000000000000000000000008152600401610c24929190612f63565b60405180910390fd5b610c4385338584610c3e9190612f2f565b611dbd565b60019150509392505050565b60006012905090565b6000610cec338484600160003373ffffffffffffffffffffffffffffffffffffffff1673ffffffffffffffffffffffffffffffffffffffff16815260200190815260200160002060008873ffffffffffffffffffffffffffffffffffffffff1673ffffffffffffffffffffffffffffffffffffffff16815260200190815260200160002054610ce79190612f8c565b611dbd565b6001905092915050565b7f000000000000000000000000000000000000000000000000000000000000000081565b60008060008373ffffffffffffffffffffffffffffffffffffffff1673ffffffffffffffffffffffffffffffffffffffff168152602001908152602001600020549050919050565b606060048054610d7190612d68565b80601f0160208091040260200160405190810160405280929190818152602001828054610d9d90612d68565b8015610dea5780601f10610dbf57610100808354040283529160200191610dea565b820191906000526020600020905b815481529060010190602001808311610dcd57829003601f168201915b5050505050905090565b600080600160003373ffffffffffffffffffffffffffffffffffffffff1673ffffffffffffffffffffffffffffffffffffffff16815260200190815260200160002060008573ffffffffffffffffffffffffffffffffffffffff1673ffffffffffffffffffffffffffffffffffffffff16815260200190815260200160002054905082811015610ebd5780836040517fda2d822c000000000000000000000000000000000000000000000000000000008152600401610eb4929190612f63565b60405180910390fd5b610eca3385858403611dbd565b600191505092915050565b6000610ee233848461226d565b6001905092915050565b7f000000000000000000000000000000000000000000000000000000000000000081565b7f000000000000000000000000000000000000000000000000000000000000000081565b6000817f000000000000000000000000000000000000000000000000000000000000000060008173ffffffffffffffffffffffffffffffffffffffff166370a08231306040518263ffffffff1660e01b8152600401610f939190612ba6565b602060405180830381865afa158015610fb0573d6000803e3d6000fd5b505050506040513d601f19601f82011682018060405250810190610fd49190612dae565b9050600060056040518060600160405290816000820154815260200160018201548152602001600282015481525050905061100d612928565b600560010154430361105d57436005600101546040517fa31b34df000000000000000000000000000000000000000000000000000000008152600401611054929190612f63565b60405180910390fd5b7f000000000000000000000000000000000000000000000000000000000000000073ffffffffffffffffffffffffffffffffffffffff166370a082317f00000000000000000000000000000000000000000000000000000000000000006040518263ffffffff1660e01b81526004016110d69190612ba6565b602060405180830381865afa1580156110f3573d6000803e3d6000fd5b505050506040513d601f19601f820116820180604052508101906111179190612dae565b8160000181815250503073ffffffffffffffffffffffffffffffffffffffff166370a082317f00000000000000000000000000000000000000000000000000000000000000006040518263ffffffff1660e01b81526004016111799190612ba6565b602060405180830381865afa158015611196573d6000803e3d6000fd5b505050506040513d601f19601f820116820180604052508101906111ba9190612dae565b816020018181525050670de0b6b3a76400008160400181815250507f000000000000000000000000000000000000000000000000000000000000000082600001516112059190612e0a565b670de0b6b3a764000083604001518a61121e9190612f8c565b6112289190612e0a565b11156112a1577f0000000000000000000000000000000000000000000000000000000000000000826000015161125e9190612e0a565b6002670de0b6b3a76400006112739190613115565b83604001518a6112839190612f8c565b61128d9190612e0a565b6112979190612e93565b8160400181815250505b6112b1816040015130338b612078565b8160600181815250507f000000000000000000000000000000000000000000000000000000000000000073ffffffffffffffffffffffffffffffffffffffff168a73ffffffffffffffffffffffffffffffffffffffff160361149e5760007f000000000000000000000000000000000000000000000000000000000000000073ffffffffffffffffffffffffffffffffffffffff1663566887003084606001516040518363ffffffff1660e01b815260040161136e929190612ec4565b6020604051808303816000875af115801561138d573d6000803e3d6000fd5b505050506040513d601f19601f820116820180604052508101906113b19190612dae565b90508981146113f957808a6040517f612e405f0000000000000000000000000000000000000000000000000000000081526004016113f0929190612f63565b60405180910390fd5b7f000000000000000000000000000000000000000000000000000000000000000073ffffffffffffffffffffffffffffffffffffffff1663a9059cbb8d836040518363ffffffff1660e01b8152600401611454929190612ec4565b6020604051808303816000875af1158015611473573d6000803e3d6000fd5b505050506040513d601f19601f820116820180604052508101906114979190612f02565b5050611591565b7f000000000000000000000000000000000000000000000000000000000000000073ffffffffffffffffffffffffffffffffffffffff1663fe029156308c84606001518d6040518563ffffffff1660e01b81526004016115019493929190613160565b6020604051808303816000875af1158015611520573d6000803e3d6000fd5b505050506040513d601f19601f820116820180604052508101906115449190612f02565b506115908b8a7f000000000000000000000000000000000000000000000000000000000000000073ffffffffffffffffffffffffffffffffffffffff16611ff29092919063ffffffff16565b5b806000015182600001818152505043826020018181525050806020015182604001818152505081600560008201518160000155602082015181600101556040820151816002015590505060019550505082156116975761169633828473ffffffffffffffffffffffffffffffffffffffff166370a08231306040518263ffffffff1660e01b81526004016116259190612ba6565b602060405180830381865afa158015611642573d6000803e3d6000fd5b505050506040513d601f19601f820116820180604052508101906116669190612dae565b6116709190612f2f565b8473ffffffffffffffffffffffffffffffffffffffff16611ff29092919063ffffffff16565b5b50505095945050505050565b6000818560008173ffffffffffffffffffffffffffffffffffffffff166370a08231306040518263ffffffff1660e01b81526004016116e29190612ba6565b602060405180830381865afa1580156116ff573d6000803e3d6000fd5b505050506040513d601f19601f820116820180604052508101906117239190612dae565b90508773ffffffffffffffffffffffffffffffffffffffff166323b872dd3330896040518463ffffffff1660e01b8152600401611762939291906131a5565b6020604051808303816000875af1158015611781573d6000803e3d6000fd5b505050506040513d601f19601f820116820180604052508101906117a59190612f02565b507f000000000000000000000000000000000000000000000000000000000000000073ffffffffffffffffffffffffffffffffffffffff168873ffffffffffffffffffffffffffffffffffffffff16036119005760007f000000000000000000000000000000000000000000000000000000000000000073ffffffffffffffffffffffffffffffffffffffff166306d47de9308a6040518363ffffffff1660e01b8152600401611856929190612ec4565b6020604051808303816000875af1158015611875573d6000803e3d6000fd5b505050506040513d601f19601f820116820180604052508101906118999190612dae565b9050610400811180156118b45750600a87901c600a82901c14155b156118fa578881886040517f73a4b3900000000000000000000000000000000000000000000000000000000081526004016118f1939291906131dc565b60405180910390fd5b50611a2f565b6000670de0b6b3a7640000611913610532565b8961191e9190612e0a565b6119289190612e93565b90507f000000000000000000000000000000000000000000000000000000000000000073ffffffffffffffffffffffffffffffffffffffff1663fe0291568a308a8c6040518563ffffffff1660e01b81526004016119899493929190613160565b6020604051808303816000875af11580156119a8573d6000803e3d6000fd5b505050506040513d601f19601f820116820180604052508101906119cc9190612f02565b5060006119da308c8b61062a565b9050600a81901c600a83901c14611a2c578982826040517f73a4b390000000000000000000000000000000000000000000000000000000008152600401611a23939291906131dc565b60405180910390fd5b50505b600193508215611ae957611ae833828473ffffffffffffffffffffffffffffffffffffffff166370a08231306040518263ffffffff1660e01b8152600401611a779190612ba6565b602060405180830381865afa158015611a94573d6000803e3d6000fd5b505050506040513d601f19601f82011682018060405250810190611ab89190612dae565b611ac29190612f2f565b8473ffffffffffffffffffffffffffffffffffffffff16611ff29092919063ffffffff16565b5b50505095945050505050565b6000600160008473ffffffffffffffffffffffffffffffffffffffff1673ffffffffffffffffffffffffffffffffffffffff16815260200190815260200160002060008373ffffffffffffffffffffffffffffffffffffffff1673ffffffffffffffffffffffffffffffffffffffff16815260200190815260200160002054905092915050565b7f000000000000000000000000000000000000000000000000000000000000000073ffffffffffffffffffffffffffffffffffffffff163373ffffffffffffffffffffffffffffffffffffffff1614611c2e57337f00000000000000000000000000000000000000000000000000000000000000006040517fd214286f000000000000000000000000000000000000000000000000000000008152600401611c25929190613213565b60405180910390fd5b60007f000000000000000000000000000000000000000000000000000000000000000090508073ffffffffffffffffffffffffffffffffffffffff1663a9059cbb838373ffffffffffffffffffffffffffffffffffffffff166370a08231306040518263ffffffff1660e01b8152600401611ca99190612ba6565b602060405180830381865afa158015611cc6573d6000803e3d6000fd5b505050506040513d601f19601f82011682018060405250810190611cea9190612dae565b6040518363ffffffff1660e01b8152600401611d07929190612ec4565b6020604051808303816000875af1158015611d26573d6000803e3d6000fd5b505050506040513d601f19601f82011682018060405250810190611d4a9190612f02565b505050565b611dba7f00000000000000000000000000000000000000000000000000000000000000007fffffffffffffffffffffffffffffffffffffffffffffffffffffffffffffffff8373ffffffffffffffffffffffffffffffffffffffff166123f69092919063ffffffff16565b50565b80600160008573ffffffffffffffffffffffffffffffffffffffff1673ffffffffffffffffffffffffffffffffffffffff16815260200190815260200160002060008473ffffffffffffffffffffffffffffffffffffffff1673ffffffffffffffffffffffffffffffffffffffff168152602001908152602001600020819055508173ffffffffffffffffffffffffffffffffffffffff168373ffffffffffffffffffffffffffffffffffffffff167f8c5be1e5ebec7d5bd14f71427d1e84f3dd0314c0f7b2291e5b200ac8c7c3b92583604051611e9b9190612b29565b60405180910390a3505050565b60008060008473ffffffffffffffffffffffffffffffffffffffff1673ffffffffffffffffffffffffffffffffffffffff16815260200190815260200160002054905081811015611f325780826040517f0a37dd41000000000000000000000000000000000000000000000000000000008152600401611f29929190612f63565b60405180910390fd5b8181036000808573ffffffffffffffffffffffffffffffffffffffff1673ffffffffffffffffffffffffffffffffffffffff1681526020019081526020016000208190555081600260008282540392505081905550600073ffffffffffffffffffffffffffffffffffffffff168373ffffffffffffffffffffffffffffffffffffffff167fddf252ad1be2c89b69c2b068fc378daa952ba7f163c4a11628f55a4df523b3ef84604051611fe59190612b29565b60405180910390a3505050565b6120738363a9059cbb60e01b8484604051602401612011929190612ec4565b604051602081830303815290604052907bffffffffffffffffffffffffffffffffffffffffffffffffffffffff19166020820180517bffffffffffffffffffffffffffffffffffffffffffffffffffffffff838183161783525050505061254d565b505050565b600080670de0b6b3a76400008661208d610532565b6120979190612e0a565b6120a19190612e93565b905060007f000000000000000000000000000000000000000000000000000000000000000073ffffffffffffffffffffffffffffffffffffffff166370a08231306040518263ffffffff1660e01b81526004016120fe9190612ba6565b602060405180830381865afa15801561211b573d6000803e3d6000fd5b505050506040513d601f19601f8201168201806040525081019061213f9190612dae565b905061218e8530867f000000000000000000000000000000000000000000000000000000000000000073ffffffffffffffffffffffffffffffffffffffff1661260b909392919063ffffffff16565b6000817f000000000000000000000000000000000000000000000000000000000000000073ffffffffffffffffffffffffffffffffffffffff166370a08231306040518263ffffffff1660e01b81526004016121ea9190612ba6565b602060405180830381865afa158015612207573d6000803e3d6000fd5b505050506040513d601f19601f8201168201806040525081019061222b9190612dae565b6122359190612f2f565b905082670de0b6b3a76400008261224c9190612e0a565b6122569190612e93565b93506122628785612694565b505050949350505050565b60008060008573ffffffffffffffffffffffffffffffffffffffff1673ffffffffffffffffffffffffffffffffffffffff168152602001908152602001600020549050818110156122fa57806000836040517f57b9c4a40000000000000000000000000000000000000000000000000000000081526004016122f193929190613281565b60405180910390fd5b8181036000808673ffffffffffffffffffffffffffffffffffffffff1673ffffffffffffffffffffffffffffffffffffffff16815260200190815260200160002081905550816000808573ffffffffffffffffffffffffffffffffffffffff1673ffffffffffffffffffffffffffffffffffffffff168152602001908152602001600020600082825401925050819055508273ffffffffffffffffffffffffffffffffffffffff168473ffffffffffffffffffffffffffffffffffffffff167fddf252ad1be2c89b69c2b068fc378daa952ba7f163c4a11628f55a4df523b3ef846040516123e89190612b29565b60405180910390a350505050565b600081118015612481575060008373ffffffffffffffffffffffffffffffffffffffff1663dd62ed3e30856040518363ffffffff1660e01b815260040161243e929190613213565b602060405180830381865afa15801561245b573d6000803e3d6000fd5b505050506040513d601f19601f8201168201806040525081019061247f9190612dae565b115b156124c7578282826040517fc1a76f6c0000000000000000000000000000000000000000000000000000000081526004016124be939291906131a5565b60405180910390fd5b6125488363095ea7b360e01b84846040516024016124e6929190612ec4565b604051602081830303815290604052907bffffffffffffffffffffffffffffffffffffffffffffffffffffffff19166020820180517bffffffffffffffffffffffffffffffffffffffffffffffffffffffff838183161783525050505061254d565b505050565b60006125af826040518060400160405280602081526020017f5361666545524332303a206c6f772d6c6576656c2063616c6c206661696c65648152508573ffffffffffffffffffffffffffffffffffffffff1661276c9092919063ffffffff16565b905060008151111561260657808060200190518101906125cf9190612f02565b612605576040517fa479450200000000000000000000000000000000000000000000000000000000815260040160405180910390fd5b5b505050565b61268e846323b872dd60e01b85858560405160240161262c939291906131a5565b604051602081830303815290604052907bffffffffffffffffffffffffffffffffffffffffffffffffffffffff19166020820180517bffffffffffffffffffffffffffffffffffffffffffffffffffffffff838183161783525050505061254d565b50505050565b80600260008282546126a69190612f8c565b92505081905550806000808473ffffffffffffffffffffffffffffffffffffffff1673ffffffffffffffffffffffffffffffffffffffff16815260200190815260200160002060008282546126fb9190612f8c565b925050819055508173ffffffffffffffffffffffffffffffffffffffff16600073ffffffffffffffffffffffffffffffffffffffff167fddf252ad1be2c89b69c2b068fc378daa952ba7f163c4a11628f55a4df523b3ef836040516127609190612b29565b60405180910390a35050565b606061277b8484600085612784565b90509392505050565b6060824710156127cd5747836040517f02de226f0000000000000000000000000000000000000000000000000000000081526004016127c4929190612f63565b60405180910390fd5b6127d68561289e565b61281757846040517f8a8b41ec00000000000000000000000000000000000000000000000000000000815260040161280e9190612ba6565b60405180910390fd5b6000808673ffffffffffffffffffffffffffffffffffffffff16858760405161284091906132ff565b60006040518083038185875af1925050503d806000811461287d576040519150601f19603f3d011682016040523d82523d6000602084013e612882565b606091505b50915091506128928282866128c1565b92505050949350505050565b6000808273ffffffffffffffffffffffffffffffffffffffff163b119050919050565b606083156128d157829050612921565b6000835111156128e45782518084602001fd5b816040517f08c379a000000000000000000000000000000000000000000000000000000000815260040161291891906129e9565b60405180910390fd5b9392505050565b6040518060800160405280600081526020016000815260200160008152602001600081525090565b600081519050919050565b600082825260208201905092915050565b60005b8381101561298a57808201518184015260208101905061296f565b83811115612999576000848401525b50505050565b6000601f19601f8301169050919050565b60006129bb82612950565b6129c5818561295b565b93506129d581856020860161296c565b6129de8161299f565b840191505092915050565b60006020820190508181036000830152612a0381846129b0565b905092915050565b600080fd5b600073ffffffffffffffffffffffffffffffffffffffff82169050919050565b6000612a3b82612a10565b9050919050565b612a4b81612a30565b8114612a5657600080fd5b50565b600081359050612a6881612a42565b92915050565b6000819050919050565b612a8181612a6e565b8114612a8c57600080fd5b50565b600081359050612a9e81612a78565b92915050565b60008060408385031215612abb57612aba612a0b565b5b6000612ac985828601612a59565b9250506020612ada85828601612a8f565b9150509250929050565b60008115159050919050565b612af981612ae4565b82525050565b6000602082019050612b146000830184612af0565b92915050565b612b2381612a6e565b82525050565b6000602082019050612b3e6000830184612b1a565b92915050565b600080600060608486031215612b5d57612b5c612a0b565b5b6000612b6b86828701612a59565b9350506020612b7c86828701612a59565b9250506040612b8d86828701612a8f565b9150509250925092565b612ba081612a30565b82525050565b6000602082019050612bbb6000830184612b97565b92915050565b600060208284031215612bd757612bd6612a0b565b5b6000612be584828501612a8f565b91505092915050565b600060ff82169050919050565b612c0481612bee565b82525050565b6000602082019050612c1f6000830184612bfb565b92915050565b600060208284031215612c3b57612c3a612a0b565b5b6000612c4984828501612a59565b91505092915050565b612c5b81612ae4565b8114612c6657600080fd5b50565b600081359050612c7881612c52565b92915050565b600080600080600060a08688031215612c9a57612c99612a0b565b5b6000612ca888828901612a59565b9550506020612cb988828901612a59565b9450506040612cca88828901612a8f565b9350506060612cdb88828901612a8f565b9250506080612cec88828901612c69565b9150509295509295909350565b60008060408385031215612d1057612d0f612a0b565b5b6000612d1e85828601612a59565b9250506020612d2f85828601612a59565b9150509250929050565b7f4e487b7100000000000000000000000000000000000000000000000000000000600052602260045260246000fd5b60006002820490506001821680612d8057607f821691505b602082108103612d9357612d92612d39565b5b50919050565b600081519050612da881612a78565b92915050565b600060208284031215612dc457612dc3612a0b565b5b6000612dd284828501612d99565b91505092915050565b7f4e487b7100000000000000000000000000000000000000000000000000000000600052601160045260246000fd5b6000612e1582612a6e565b9150612e2083612a6e565b9250817fffffffffffffffffffffffffffffffffffffffffffffffffffffffffffffffff0483118215151615612e5957612e58612ddb565b5b828202905092915050565b7f4e487b7100000000000000000000000000000000000000000000000000000000600052601260045260246000fd5b6000612e9e82612a6e565b9150612ea983612a6e565b925082612eb957612eb8612e64565b5b828204905092915050565b6000604082019050612ed96000830185612b97565b612ee66020830184612b1a565b9392505050565b600081519050612efc81612c52565b92915050565b600060208284031215612f1857612f17612a0b565b5b6000612f2684828501612eed565b91505092915050565b6000612f3a82612a6e565b9150612f4583612a6e565b925082821015612f5857612f57612ddb565b5b828203905092915050565b6000604082019050612f786000830185612b1a565b612f856020830184612b1a565b9392505050565b6000612f9782612a6e565b9150612fa283612a6e565b9250827fffffffffffffffffffffffffffffffffffffffffffffffffffffffffffffffff03821115612fd757612fd6612ddb565b5b828201905092915050565b60008160011c9050919050565b6000808291508390505b60018511156130395780860481111561301557613014612ddb565b5b60018516156130245780820291505b808102905061303285612fe2565b9450612ff9565b94509492505050565b600082613052576001905061310e565b81613060576000905061310e565b81600181146130765760028114613080576130af565b600191505061310e565b60ff84111561309257613091612ddb565b5b8360020a9150848211156130a9576130a8612ddb565b5b5061310e565b5060208310610133831016604e8410600b84101617156130e45782820a9050838111156130df576130de612ddb565b5b61310e565b6130f18484846001612fef565b9250905081840481111561310857613107612ddb565b5b81810290505b9392505050565b600061312082612a6e565b915061312b83612bee565b92506131587fffffffffffffffffffffffffffffffffffffffffffffffffffffffffffffffff8484613042565b905092915050565b60006080820190506131756000830187612b97565b6131826020830186612b97565b61318f6040830185612b1a565b61319c6060830184612b1a565b95945050505050565b60006060820190506131ba6000830186612b97565b6131c76020830185612b97565b6131d46040830184612b1a565b949350505050565b60006060820190506131f16000830186612b97565b6131fe6020830185612b1a565b61320b6040830184612b1a565b949350505050565b60006040820190506132286000830185612b97565b6132356020830184612b97565b9392505050565b6000819050919050565b6000819050919050565b600061326b6132666132618461323c565b613246565b612a6e565b9050919050565b61327b81613250565b82525050565b60006060820190506132966000830186612b1a565b6132a36020830185613272565b6132b06040830184612b1a565b949350505050565b600081519050919050565b600081905092915050565b60006132d9826132b8565b6132e381856132c3565b93506132f381856020860161296c565b80840191505092915050565b600061330b82846132ce565b91508190509291505056fea2646970667358221220ded4863875f7e3d5f086e876b295880c56f8e844ee8f0cabc1708c54080d4b9f64736f6c634300080d0033",
  "linkReferences": {},
  "deployedLinkReferences": {}
}