{
  "_format": "hh-sol-artifact-1",
  "contractName": "CliffFace",
  "sourceName": "contracts/TokenProxies/CliffFace.sol",
  "abi": [
    {
      "inputs": [
        {
          "internalType": "address",
          "name": "_baseToken",
          "type": "address"
        },
        {
          "internalType": "string",
          "name": "name_",
          "type": "string"
        },
        {
          "internalType": "string",
          "name": "symbol_",
          "type": "string"
        },
        {
          "internalType": "address",
          "name": "registry",
          "type": "address"
        },
        {
          "internalType": "address",
          "name": "_referenceToken",
          "type": "address"
        },
        {
          "internalType": "uint256",
          "name": "multiple",
          "type": "uint256"
        },
        {
          "internalType": "address",
          "name": "_behodler",
          "type": "address"
        }
      ],
      "stateMutability": "nonpayable",
      "type": "constructor"
    },
    {
      "inputs": [
        {
          "internalType": "uint256",
          "name": "allowance",
          "type": "uint256"
        },
        {
          "internalType": "uint256",
          "name": "amount",
          "type": "uint256"
        }
      ],
      "name": "AllowanceExceeded",
      "type": "error"
    },
    {
      "inputs": [
        {
          "internalType": "uint256",
          "name": "allowance",
          "type": "uint256"
        },
        {
          "internalType": "uint256",
          "name": "subtraction",
          "type": "uint256"
        }
      ],
      "name": "AllowanceUnderflow",
      "type": "error"
    },
    {
      "inputs": [
        {
          "internalType": "address",
          "name": "inputToken",
          "type": "address"
        },
        {
          "internalType": "uint256",
          "name": "actualAmount",
          "type": "uint256"
        },
        {
          "internalType": "uint256",
          "name": "expectedAmount",
          "type": "uint256"
        }
      ],
      "name": "BehodlerSwapOutInvariantViolated",
      "type": "error"
    },
    {
      "inputs": [
        {
          "internalType": "uint256",
          "name": "accountBalance",
          "type": "uint256"
        },
        {
          "internalType": "uint256",
          "name": "amount",
          "type": "uint256"
        }
      ],
      "name": "BurnUnderflow",
      "type": "error"
    },
    {
      "inputs": [
        {
          "internalType": "uint256",
          "name": "balance",
          "type": "uint256"
        },
        {
          "internalType": "uint256",
          "name": "value",
          "type": "uint256"
        }
      ],
      "name": "InsufficinetFunds",
      "type": "error"
    },
    {
      "inputs": [
        {
          "internalType": "address",
          "name": "EOA",
          "type": "address"
        }
      ],
      "name": "NotAContract",
      "type": "error"
    },
    {
      "inputs": [
        {
          "internalType": "address",
          "name": "sender",
          "type": "address"
        },
        {
          "internalType": "address",
          "name": "proxy",
          "type": "address"
        }
      ],
      "name": "OnlyProxy",
      "type": "error"
    },
    {
      "inputs": [],
      "name": "OperationFailure",
      "type": "error"
    },
    {
      "inputs": [
        {
          "internalType": "uint256",
          "name": "blockNumber",
          "type": "uint256"
        },
        {
          "internalType": "uint256",
          "name": "priorBlockNumber",
          "type": "uint256"
        }
      ],
      "name": "SlippageManipulationPrevention",
      "type": "error"
    },
    {
      "inputs": [
        {
          "internalType": "uint256",
          "name": "senderBalance",
          "type": "uint256"
        },
        {
          "internalType": "uint256",
          "name": "fee",
          "type": "uint256"
        },
        {
          "internalType": "uint256",
          "name": "amount",
          "type": "uint256"
        }
      ],
      "name": "TransferUnderflow",
      "type": "error"
    },
    {
      "anonymous": false,
      "inputs": [
        {
          "indexed": true,
          "internalType": "address",
          "name": "owner",
          "type": "address"
        },
        {
          "indexed": true,
          "internalType": "address",
          "name": "spender",
          "type": "address"
        },
        {
          "indexed": false,
          "internalType": "uint256",
          "name": "value",
          "type": "uint256"
        }
      ],
      "name": "Approval",
      "type": "event"
    },
    {
      "anonymous": false,
      "inputs": [
        {
          "indexed": true,
          "internalType": "address",
          "name": "from",
          "type": "address"
        },
        {
          "indexed": true,
          "internalType": "address",
          "name": "to",
          "type": "address"
        },
        {
          "indexed": false,
          "internalType": "uint256",
          "name": "value",
          "type": "uint256"
        }
      ],
      "name": "Transfer",
      "type": "event"
    },
    {
      "inputs": [
        {
          "internalType": "address",
          "name": "owner",
          "type": "address"
        },
        {
          "internalType": "address",
          "name": "spender",
          "type": "address"
        }
      ],
      "name": "allowance",
      "outputs": [
        {
          "internalType": "uint256",
          "name": "",
          "type": "uint256"
        }
      ],
      "stateMutability": "view",
      "type": "function"
    },
    {
      "inputs": [
        {
          "internalType": "address",
          "name": "spender",
          "type": "address"
        },
        {
          "internalType": "uint256",
          "name": "amount",
          "type": "uint256"
        }
      ],
      "name": "approve",
      "outputs": [
        {
          "internalType": "bool",
          "name": "",
          "type": "bool"
        }
      ],
      "stateMutability": "nonpayable",
      "type": "function"
    },
    {
      "inputs": [
        {
          "internalType": "address",
          "name": "account",
          "type": "address"
        }
      ],
      "name": "balanceOf",
      "outputs": [
        {
          "internalType": "uint256",
          "name": "",
          "type": "uint256"
        }
      ],
      "stateMutability": "view",
      "type": "function"
    },
    {
      "inputs": [],
      "name": "baseToken",
      "outputs": [
        {
          "internalType": "address",
          "name": "",
          "type": "address"
        }
      ],
      "stateMutability": "view",
      "type": "function"
    },
    {
      "inputs": [],
      "name": "decimals",
      "outputs": [
        {
          "internalType": "uint8",
          "name": "",
          "type": "uint8"
        }
      ],
      "stateMutability": "view",
      "type": "function"
    },
    {
      "inputs": [
        {
          "internalType": "address",
          "name": "spender",
          "type": "address"
        },
        {
          "internalType": "uint256",
          "name": "subtractedValue",
          "type": "uint256"
        }
      ],
      "name": "decreaseAllowance",
      "outputs": [
        {
          "internalType": "bool",
          "name": "",
          "type": "bool"
        }
      ],
      "stateMutability": "nonpayable",
      "type": "function"
    },
    {
      "inputs": [
        {
          "internalType": "address",
          "name": "spender",
          "type": "address"
        },
        {
          "internalType": "uint256",
          "name": "addedValue",
          "type": "uint256"
        }
      ],
      "name": "increaseAllowance",
      "outputs": [
        {
          "internalType": "bool",
          "name": "",
          "type": "bool"
        }
      ],
      "stateMutability": "nonpayable",
      "type": "function"
    },
    {
      "inputs": [
        {
          "internalType": "address",
          "name": "newProxy",
          "type": "address"
        }
      ],
      "name": "migrateBaseReserveToNewProxy",
      "outputs": [],
      "stateMutability": "nonpayable",
      "type": "function"
    },
    {
      "inputs": [],
      "name": "name",
      "outputs": [
        {
          "internalType": "string",
          "name": "",
          "type": "string"
        }
      ],
      "stateMutability": "view",
      "type": "function"
    },
    {
      "inputs": [],
      "name": "proxyRegistry",
      "outputs": [
        {
          "internalType": "address",
          "name": "",
          "type": "address"
        }
      ],
      "stateMutability": "view",
      "type": "function"
    },
    {
      "inputs": [
        {
          "internalType": "address",
          "name": "proxySource",
          "type": "address"
        },
        {
          "internalType": "address",
          "name": "baseRecipient",
          "type": "address"
        },
        {
          "internalType": "uint256",
          "name": "amount",
          "type": "uint256"
        }
      ],
      "name": "redeem",
      "outputs": [
        {
          "internalType": "uint256",
          "name": "baseAmount",
          "type": "uint256"
        }
      ],
      "stateMutability": "nonpayable",
      "type": "function"
    },
    {
      "inputs": [],
      "name": "redeemRate",
      "outputs": [
        {
          "internalType": "uint256",
          "name": "",
          "type": "uint256"
        }
      ],
      "stateMutability": "view",
      "type": "function"
    },
    {
      "inputs": [],
      "name": "referenceMultiple",
      "outputs": [
        {
          "internalType": "uint256",
          "name": "",
          "type": "uint256"
        }
      ],
      "stateMutability": "view",
      "type": "function"
    },
    {
      "inputs": [],
      "name": "referenceToken",
      "outputs": [
        {
          "internalType": "address",
          "name": "",
          "type": "address"
        }
      ],
      "stateMutability": "view",
      "type": "function"
    },
    {
      "inputs": [
        {
          "internalType": "uint256",
          "name": "initialSupply",
          "type": "uint256"
        }
      ],
      "name": "seedBehodler",
      "outputs": [],
      "stateMutability": "nonpayable",
      "type": "function"
    },
    {
      "inputs": [
        {
          "internalType": "address",
          "name": "outputRecipient",
          "type": "address"
        },
        {
          "internalType": "address",
          "name": "outputToken",
          "type": "address"
        },
        {
          "internalType": "uint256",
          "name": "outputAmount",
          "type": "uint256"
        },
        {
          "internalType": "uint256",
          "name": "baseTokenAmount",
          "type": "uint256"
        }
      ],
      "name": "swapAsInput",
      "outputs": [
        {
          "internalType": "bool",
          "name": "",
          "type": "bool"
        }
      ],
      "stateMutability": "nonpayable",
      "type": "function"
    },
    {
      "inputs": [
        {
          "internalType": "address",
          "name": "outputRecipient",
          "type": "address"
        },
        {
          "internalType": "address",
          "name": "input",
          "type": "address"
        },
        {
          "internalType": "uint256",
          "name": "proxyTokensToRelease",
          "type": "uint256"
        },
        {
          "internalType": "uint256",
          "name": "expectedInputAmount",
          "type": "uint256"
        }
      ],
      "name": "swapAsOuput",
      "outputs": [
        {
          "internalType": "bool",
          "name": "",
          "type": "bool"
        }
      ],
      "stateMutability": "nonpayable",
      "type": "function"
    },
    {
      "inputs": [],
      "name": "symbol",
      "outputs": [
        {
          "internalType": "string",
          "name": "",
          "type": "string"
        }
      ],
      "stateMutability": "view",
      "type": "function"
    },
    {
      "inputs": [],
      "name": "totalSupply",
      "outputs": [
        {
          "internalType": "uint256",
          "name": "",
          "type": "uint256"
        }
      ],
      "stateMutability": "view",
      "type": "function"
    },
    {
      "inputs": [
        {
          "internalType": "address",
          "name": "recipient",
          "type": "address"
        },
        {
          "internalType": "uint256",
          "name": "amount",
          "type": "uint256"
        }
      ],
      "name": "transfer",
      "outputs": [
        {
          "internalType": "bool",
          "name": "",
          "type": "bool"
        }
      ],
      "stateMutability": "nonpayable",
      "type": "function"
    },
    {
      "inputs": [
        {
          "internalType": "address",
          "name": "sender",
          "type": "address"
        },
        {
          "internalType": "address",
          "name": "recipient",
          "type": "address"
        },
        {
          "internalType": "uint256",
          "name": "amount",
          "type": "uint256"
        }
      ],
      "name": "transferFrom",
      "outputs": [
        {
          "internalType": "bool",
          "name": "",
          "type": "bool"
        }
      ],
      "stateMutability": "nonpayable",
      "type": "function"
    }
  ],
  "bytecode": "0x6101206040523480156200001257600080fd5b5060405162003798380380620037988339818101604052810190620000389190620006fd565b808787878783838383828281600390805190602001906200005b92919062000410565b5080600490805190602001906200007492919062000410565b5050508373ffffffffffffffffffffffffffffffffffffffff1660a08173ffffffffffffffffffffffffffffffffffffffff16815250508073ffffffffffffffffffffffffffffffffffffffff1660808173ffffffffffffffffffffffffffffffffffffffff1681525050505050508473ffffffffffffffffffffffffffffffffffffffff1660c08173ffffffffffffffffffffffffffffffffffffffff168152505050505050508273ffffffffffffffffffffffffffffffffffffffff1660e08173ffffffffffffffffffffffffffffffffffffffff168152505081610100818152505060e05173ffffffffffffffffffffffffffffffffffffffff166370a0823160c0516040518263ffffffff1660e01b8152600401620001989190620007ff565b602060405180830381865afa158015620001b6573d6000803e3d6000fd5b505050506040513d601f19601f82011682018060405250810190620001dc91906200081c565b600560000181905550436005600101819055506200023d6040518060400160405280601381526020017f4265686f646c657220616464726573732025730000000000000000000000000081525060c0516200029b60201b620017571760201c565b6200028e6040518060400160405280601f81526020017f636f6e7374727563746f72207072696f7252656642616c616e63653a202564008152506005600001546200034160201b620017f31760201c565b5050505050505062000988565b6200033d8282604051602401620002b4929190620008ab565b6040516020818303038152906040527f319af333000000000000000000000000000000000000000000000000000000007bffffffffffffffffffffffffffffffffffffffffffffffffffffffff19166020820180517bffffffffffffffffffffffffffffffffffffffffffffffffffffffff8381831617835250505050620003e760201b60201c565b5050565b620003e382826040516024016200035a929190620008f0565b6040516020818303038152906040527f9710a9d0000000000000000000000000000000000000000000000000000000007bffffffffffffffffffffffffffffffffffffffffffffffffffffffff19166020820180517bffffffffffffffffffffffffffffffffffffffffffffffffffffffff8381831617835250505050620003e760201b60201c565b5050565b60008151905060006a636f6e736f6c652e6c6f679050602083016000808483855afa5050505050565b8280546200041e9062000953565b90600052602060002090601f0160209004810192826200044257600085556200048e565b82601f106200045d57805160ff19168380011785556200048e565b828001600101855582156200048e579182015b828111156200048d57825182559160200191906001019062000470565b5b5090506200049d9190620004a1565b5090565b5b80821115620004bc576000816000905550600101620004a2565b5090565b6000604051905090565b600080fd5b600080fd5b600073ffffffffffffffffffffffffffffffffffffffff82169050919050565b60006200050182620004d4565b9050919050565b6200051381620004f4565b81146200051f57600080fd5b50565b600081519050620005338162000508565b92915050565b600080fd5b600080fd5b6000601f19601f8301169050919050565b7f4e487b7100000000000000000000000000000000000000000000000000000000600052604160045260246000fd5b6200058e8262000543565b810181811067ffffffffffffffff82111715620005b057620005af62000554565b5b80604052505050565b6000620005c5620004c0565b9050620005d3828262000583565b919050565b600067ffffffffffffffff821115620005f657620005f562000554565b5b620006018262000543565b9050602081019050919050565b60005b838110156200062e57808201518184015260208101905062000611565b838111156200063e576000848401525b50505050565b60006200065b6200065584620005d8565b620005b9565b9050828152602081018484840111156200067a57620006796200053e565b5b620006878482856200060e565b509392505050565b600082601f830112620006a757620006a662000539565b5b8151620006b984826020860162000644565b91505092915050565b6000819050919050565b620006d781620006c2565b8114620006e357600080fd5b50565b600081519050620006f781620006cc565b92915050565b600080600080600080600060e0888a0312156200071f576200071e620004ca565b5b60006200072f8a828b0162000522565b975050602088015167ffffffffffffffff811115620007535762000752620004cf565b5b620007618a828b016200068f565b965050604088015167ffffffffffffffff811115620007855762000784620004cf565b5b620007938a828b016200068f565b9550506060620007a68a828b0162000522565b9450506080620007b98a828b0162000522565b93505060a0620007cc8a828b01620006e6565b92505060c0620007df8a828b0162000522565b91505092959891949750929550565b620007f981620004f4565b82525050565b6000602082019050620008166000830184620007ee565b92915050565b600060208284031215620008355762000834620004ca565b5b60006200084584828501620006e6565b91505092915050565b600081519050919050565b600082825260208201905092915050565b600062000877826200084e565b62000883818562000859565b9350620008958185602086016200060e565b620008a08162000543565b840191505092915050565b60006040820190508181036000830152620008c781856200086a565b9050620008d86020830184620007ee565b9392505050565b620008ea81620006c2565b82525050565b600060408201905081810360008301526200090c81856200086a565b90506200091d6020830184620008df565b9392505050565b7f4e487b7100000000000000000000000000000000000000000000000000000000600052602260045260246000fd5b600060028204905060018216806200096c57607f821691505b60208210810362000982576200098162000924565b5b50919050565b60805160a05160c05160e05161010051612d3162000a676000396000818161098e01528181610e240152610e7d0152600081816106900152610cf90152600081816106d00152818161071701528181610cbd01528181610d7b01528181610eed01528181610f4201528181610fe2015281816110c50152818161131a0152818161136f015261146e0152600081816105100152818161064201528181610ba8015281816111ab0152818161163a01528181611b7901528181611c1b0152611c65015260008181610b840152818161158601526115da0152612d316000f3fe608060405234801561001057600080fd5b50600436106101375760003560e01c80634e2c172d116100b8578063b50cbd9f1161007c578063b50cbd9f1461037a578063c55dae6314610398578063ca409f4d146103b6578063dd62ed3e146103e6578063ea2cd00c14610416578063ed3b379b1461044657610137565b80634e2c172d146102ae57806370a08231146102cc57806395d89b41146102fc578063a457c2d71461031a578063a9059cbb1461034a57610137565b806316a39eeb116100ff57806316a39eeb146101f657806318160ddd1461021257806323b872dd14610230578063313ce56714610260578063395093511461027e57610137565b806306fdde031461013c578063095ea7b31461015a5780630adcdbaa1461018a5780630e6dfcd5146101a85780631265b651146101d8575b600080fd5b610144610462565b60405161015191906124a0565b60405180910390f35b610174600480360381019061016f919061255b565b6104f4565b60405161018191906125b6565b60405180910390f35b61019261050b565b60405161019f91906125e0565b60405180910390f35b6101c260048036038101906101bd91906125fb565b610603565b6040516101cf91906125e0565b60405180910390f35b6101e061068e565b6040516101ed919061265d565b60405180910390f35b610210600480360381019061020b9190612678565b6106b2565b005b61021a6107b8565b60405161022791906125e0565b60405180910390f35b61024a600480360381019061024591906125fb565b6107c2565b60405161025791906125b6565b60405180910390f35b6102686108e5565b60405161027591906126c1565b60405180910390f35b6102986004803603810190610293919061255b565b6108ee565b6040516102a591906125b6565b60405180910390f35b6102b661098c565b6040516102c391906125e0565b60405180910390f35b6102e660048036038101906102e191906126dc565b6109b0565b6040516102f391906125e0565b60405180910390f35b6103046109f8565b60405161031191906124a0565b60405180910390f35b610334600480360381019061032f919061255b565b610a8a565b60405161034191906125b6565b60405180910390f35b610364600480360381019061035f919061255b565b610b6b565b60405161037191906125b6565b60405180910390f35b610382610b82565b60405161038f919061265d565b60405180910390f35b6103a0610ba6565b6040516103ad919061265d565b60405180910390f35b6103d060048036038101906103cb9190612709565b610bca565b6040516103dd91906125b6565b60405180910390f35b61040060048036038101906103fb9190612770565b611281565b60405161040d91906125e0565b60405180910390f35b610430600480360381019061042b9190612709565b611308565b60405161043d91906125b6565b60405180910390f35b610460600480360381019061045b91906126dc565b611584565b005b606060038054610471906127df565b80601f016020809104026020016040519081016040528092919081815260200182805461049d906127df565b80156104ea5780601f106104bf576101008083540402835291602001916104ea565b820191906000526020600020905b8154815290600101906020018083116104cd57829003601f168201915b5050505050905090565b600061050133848461188f565b6001905092915050565b6000807f000000000000000000000000000000000000000000000000000000000000000073ffffffffffffffffffffffffffffffffffffffff166370a08231306040518263ffffffff1660e01b8152600401610567919061265d565b602060405180830381865afa158015610584573d6000803e3d6000fd5b505050506040513d601f19601f820116820180604052508101906105a89190612825565b905060006105b46107b8565b14806105c05750600081145b156105d657670de0b6b3a7640000915050610600565b6105de6107b8565b670de0b6b3a7640000826105f29190612881565b6105fc919061290a565b9150505b90565b60008061060e61050b565b905061061a858461197a565b670de0b6b3a7640000818461062f9190612881565b610639919061290a565b915061068684837f000000000000000000000000000000000000000000000000000000000000000073ffffffffffffffffffffffffffffffffffffffff16611ac49092919063ffffffff16565b509392505050565b7f000000000000000000000000000000000000000000000000000000000000000081565b60006106c8670de0b6b3a7640000333385611b4a565b9050610715307f00000000000000000000000000000000000000000000000000000000000000007fffffffffffffffffffffffffffffffffffffffffffffffffffffffffffffffff61188f565b7f000000000000000000000000000000000000000000000000000000000000000073ffffffffffffffffffffffffffffffffffffffff16635668870030836040518363ffffffff1660e01b815260040161077092919061293b565b6020604051808303816000875af115801561078f573d6000803e3d6000fd5b505050506040513d601f19601f820116820180604052508101906107b39190612825565b505050565b6000600254905090565b60006107cf848484611d3f565b6000600160008673ffffffffffffffffffffffffffffffffffffffff1673ffffffffffffffffffffffffffffffffffffffff16815260200190815260200160002060003373ffffffffffffffffffffffffffffffffffffffff1673ffffffffffffffffffffffffffffffffffffffff1681526020019081526020016000205490507fffffffffffffffffffffffffffffffffffffffffffffffffffffffffffffffff811415801561087f57508083115b156108c35780836040517fa92482560000000000000000000000000000000000000000000000000000000081526004016108ba929190612964565b60405180910390fd5b6108d9853385846108d4919061298d565b61188f565b60019150509392505050565b60006012905090565b6000610982338484600160003373ffffffffffffffffffffffffffffffffffffffff1673ffffffffffffffffffffffffffffffffffffffff16815260200190815260200160002060008873ffffffffffffffffffffffffffffffffffffffff1673ffffffffffffffffffffffffffffffffffffffff1681526020019081526020016000205461097d91906129c1565b61188f565b6001905092915050565b7f000000000000000000000000000000000000000000000000000000000000000081565b60008060008373ffffffffffffffffffffffffffffffffffffffff1673ffffffffffffffffffffffffffffffffffffffff168152602001908152602001600020549050919050565b606060048054610a07906127df565b80601f0160208091040260200160405190810160405280929190818152602001828054610a33906127df565b8015610a805780601f10610a5557610100808354040283529160200191610a80565b820191906000526020600020905b815481529060010190602001808311610a6357829003601f168201915b5050505050905090565b600080600160003373ffffffffffffffffffffffffffffffffffffffff1673ffffffffffffffffffffffffffffffffffffffff16815260200190815260200160002060008573ffffffffffffffffffffffffffffffffffffffff1673ffffffffffffffffffffffffffffffffffffffff16815260200190815260200160002054905082811015610b535780836040517fda2d822c000000000000000000000000000000000000000000000000000000008152600401610b4a929190612964565b60405180910390fd5b610b60338585840361188f565b600191505092915050565b6000610b78338484611d3f565b6001905092915050565b7f000000000000000000000000000000000000000000000000000000000000000081565b7f000000000000000000000000000000000000000000000000000000000000000081565b6000806005604051806060016040529081600082015481526020016001820154815260200160028201548152505090506005600101544303610cb957610c36604051806060016040528060298152602001612cd360299139826000015183602001518460400151611ec8565b610c756040518060400160405280601381526020017f61637475616c20626c6f636b206e756d62657200000000000000000000000000815250436117f3565b436005600101546040517fa31b34df000000000000000000000000000000000000000000000000000000008152600401610cb0929190612964565b60405180910390fd5b60007f000000000000000000000000000000000000000000000000000000000000000073ffffffffffffffffffffffffffffffffffffffff166370a082317f00000000000000000000000000000000000000000000000000000000000000006040518263ffffffff1660e01b8152600401610d34919061265d565b602060405180830381865afa158015610d51573d6000803e3d6000fd5b505050506040513d601f19601f82011682018060405250810190610d759190612825565b905060007f000000000000000000000000000000000000000000000000000000000000000073ffffffffffffffffffffffffffffffffffffffff166370a08231306040518263ffffffff1660e01b8152600401610dd2919061265d565b602060405180830381865afa158015610def573d6000803e3d6000fd5b505050506040513d601f19601f82011682018060405250810190610e139190612825565b90506000670de0b6b3a764000090507f00000000000000000000000000000000000000000000000000000000000000008460000151610e529190612881565b670de0b6b3a7640000856040015188610e6b91906129c1565b610e759190612881565b1115610edb577f00000000000000000000000000000000000000000000000000000000000000008460000151610eab9190612881565b670de0b6b3a7640000856040015188610ec491906129c1565b610ece9190612881565b610ed8919061290a565b90505b6000610ee98230338a611b4a565b90507f000000000000000000000000000000000000000000000000000000000000000073ffffffffffffffffffffffffffffffffffffffff168973ffffffffffffffffffffffffffffffffffffffff16036110855760007f000000000000000000000000000000000000000000000000000000000000000073ffffffffffffffffffffffffffffffffffffffff16635668870030846040518363ffffffff1660e01b8152600401610f9b92919061293b565b6020604051808303816000875af1158015610fba573d6000803e3d6000fd5b505050506040513d601f19601f82011682018060405250810190610fde9190612825565b90507f000000000000000000000000000000000000000000000000000000000000000073ffffffffffffffffffffffffffffffffffffffff1663a9059cbb8c836040518363ffffffff1660e01b815260040161103b92919061293b565b6020604051808303816000875af115801561105a573d6000803e3d6000fd5b505050506040513d601f19601f8201168201806040525081019061107e9190612a43565b505061122e565b6110c36040518060400160405280600d81526020017f41626f757420746f207377617000000000000000000000000000000000000000815250611f6a565b7f000000000000000000000000000000000000000000000000000000000000000073ffffffffffffffffffffffffffffffffffffffff1663fe029156308b848c6040518563ffffffff1660e01b81526004016111229493929190612a70565b6020604051808303816000875af1158015611141573d6000803e3d6000fd5b505050506040513d601f19601f820116820180604052508101906111659190612a43565b506111a46040518060400160405280601681526020017f61626f757420746f2073616665207472616e7366657200000000000000000000815250611f6a565b6111ef8a897f000000000000000000000000000000000000000000000000000000000000000073ffffffffffffffffffffffffffffffffffffffff16611ac49092919063ffffffff16565b61122d6040518060400160405280601281526020017f73616665207472616e7366657220646f6e650000000000000000000000000000815250611f6a565b5b838560000181815250504385602001818152505082856040018181525050846005600082015181600001556020820151816001015560408201518160020155905050600195505050505050949350505050565b6000600160008473ffffffffffffffffffffffffffffffffffffffff1673ffffffffffffffffffffffffffffffffffffffff16815260200190815260200160002060008373ffffffffffffffffffffffffffffffffffffffff1673ffffffffffffffffffffffffffffffffffffffff16815260200190815260200160002054905092915050565b600080611316333086610603565b90507f000000000000000000000000000000000000000000000000000000000000000073ffffffffffffffffffffffffffffffffffffffff168573ffffffffffffffffffffffffffffffffffffffff160361157a5760007f000000000000000000000000000000000000000000000000000000000000000073ffffffffffffffffffffffffffffffffffffffff166306d47de930846040518363ffffffff1660e01b81526004016113c892919061293b565b6020604051808303816000875af11580156113e7573d6000803e3d6000fd5b505050506040513d601f19601f8201168201806040525081019061140b9190612825565b9050610400811180156114265750600a84901c600a82901c14155b1561146c578581856040517f73a4b39000000000000000000000000000000000000000000000000000000000815260040161146393929190612ab5565b60405180910390fd5b7f000000000000000000000000000000000000000000000000000000000000000073ffffffffffffffffffffffffffffffffffffffff1663fe029156873087896040518563ffffffff1660e01b81526004016114cb9493929190612a70565b6020604051808303816000875af11580156114ea573d6000803e3d6000fd5b505050506040513d601f19601f8201168201806040525081019061150e9190612a43565b50600061151c308988610603565b9050600a81901c600a84901c1461156e578683826040517f73a4b39000000000000000000000000000000000000000000000000000000000815260040161156593929190612ab5565b60405180910390fd5b5060019250505061157c565b505b949350505050565b7f000000000000000000000000000000000000000000000000000000000000000073ffffffffffffffffffffffffffffffffffffffff163373ffffffffffffffffffffffffffffffffffffffff161461163657337f00000000000000000000000000000000000000000000000000000000000000006040517fd214286f00000000000000000000000000000000000000000000000000000000815260040161162d929190612aec565b60405180910390fd5b60007f000000000000000000000000000000000000000000000000000000000000000090508073ffffffffffffffffffffffffffffffffffffffff1663a9059cbb838373ffffffffffffffffffffffffffffffffffffffff166370a08231306040518263ffffffff1660e01b81526004016116b1919061265d565b602060405180830381865afa1580156116ce573d6000803e3d6000fd5b505050506040513d601f19601f820116820180604052508101906116f29190612825565b6040518363ffffffff1660e01b815260040161170f92919061293b565b6020604051808303816000875af115801561172e573d6000803e3d6000fd5b505050506040513d601f19601f820116820180604052508101906117529190612a43565b505050565b6117ef828260405160240161176d929190612b15565b6040516020818303038152906040527f319af333000000000000000000000000000000000000000000000000000000007bffffffffffffffffffffffffffffffffffffffffffffffffffffffff19166020820180517bffffffffffffffffffffffffffffffffffffffffffffffffffffffff8381831617835250505050612003565b5050565b61188b8282604051602401611809929190612b45565b6040516020818303038152906040527f9710a9d0000000000000000000000000000000000000000000000000000000007bffffffffffffffffffffffffffffffffffffffffffffffffffffffff19166020820180517bffffffffffffffffffffffffffffffffffffffffffffffffffffffff8381831617835250505050612003565b5050565b80600160008573ffffffffffffffffffffffffffffffffffffffff1673ffffffffffffffffffffffffffffffffffffffff16815260200190815260200160002060008473ffffffffffffffffffffffffffffffffffffffff1673ffffffffffffffffffffffffffffffffffffffff168152602001908152602001600020819055508173ffffffffffffffffffffffffffffffffffffffff168373ffffffffffffffffffffffffffffffffffffffff167f8c5be1e5ebec7d5bd14f71427d1e84f3dd0314c0f7b2291e5b200ac8c7c3b9258360405161196d91906125e0565b60405180910390a3505050565b60008060008473ffffffffffffffffffffffffffffffffffffffff1673ffffffffffffffffffffffffffffffffffffffff16815260200190815260200160002054905081811015611a045780826040517f0a37dd410000000000000000000000000000000000000000000000000000000081526004016119fb929190612964565b60405180910390fd5b8181036000808573ffffffffffffffffffffffffffffffffffffffff1673ffffffffffffffffffffffffffffffffffffffff1681526020019081526020016000208190555081600260008282540392505081905550600073ffffffffffffffffffffffffffffffffffffffff168373ffffffffffffffffffffffffffffffffffffffff167fddf252ad1be2c89b69c2b068fc378daa952ba7f163c4a11628f55a4df523b3ef84604051611ab791906125e0565b60405180910390a3505050565b611b458363a9059cbb60e01b8484604051602401611ae392919061293b565b604051602081830303815290604052907bffffffffffffffffffffffffffffffffffffffffffffffffffffffff19166020820180517bffffffffffffffffffffffffffffffffffffffffffffffffffffffff838183161783525050505061202c565b505050565b600080670de0b6b3a764000086611b5f61050b565b611b699190612881565b611b73919061290a565b905060007f000000000000000000000000000000000000000000000000000000000000000073ffffffffffffffffffffffffffffffffffffffff166370a08231306040518263ffffffff1660e01b8152600401611bd0919061265d565b602060405180830381865afa158015611bed573d6000803e3d6000fd5b505050506040513d601f19601f82011682018060405250810190611c119190612825565b9050611c608530867f000000000000000000000000000000000000000000000000000000000000000073ffffffffffffffffffffffffffffffffffffffff166120ea909392919063ffffffff16565b6000817f000000000000000000000000000000000000000000000000000000000000000073ffffffffffffffffffffffffffffffffffffffff166370a08231306040518263ffffffff1660e01b8152600401611cbc919061265d565b602060405180830381865afa158015611cd9573d6000803e3d6000fd5b505050506040513d601f19601f82011682018060405250810190611cfd9190612825565b611d07919061298d565b905082670de0b6b3a764000082611d1e9190612881565b611d28919061290a565b9350611d348785612173565b505050949350505050565b60008060008573ffffffffffffffffffffffffffffffffffffffff1673ffffffffffffffffffffffffffffffffffffffff16815260200190815260200160002054905081811015611dcc57806000836040517f57b9c4a4000000000000000000000000000000000000000000000000000000008152600401611dc393929190612bba565b60405180910390fd5b8181036000808673ffffffffffffffffffffffffffffffffffffffff1673ffffffffffffffffffffffffffffffffffffffff16815260200190815260200160002081905550816000808573ffffffffffffffffffffffffffffffffffffffff1673ffffffffffffffffffffffffffffffffffffffff168152602001908152602001600020600082825401925050819055508273ffffffffffffffffffffffffffffffffffffffff168473ffffffffffffffffffffffffffffffffffffffff167fddf252ad1be2c89b69c2b068fc378daa952ba7f163c4a11628f55a4df523b3ef84604051611eba91906125e0565b60405180910390a350505050565b611f6484848484604051602401611ee29493929190612bf1565b6040516020818303038152906040527f08ee5666000000000000000000000000000000000000000000000000000000007bffffffffffffffffffffffffffffffffffffffffffffffffffffffff19166020820180517bffffffffffffffffffffffffffffffffffffffffffffffffffffffff8381831617835250505050612003565b50505050565b61200081604051602401611f7e91906124a0565b6040516020818303038152906040527f41304fac000000000000000000000000000000000000000000000000000000007bffffffffffffffffffffffffffffffffffffffffffffffffffffffff19166020820180517bffffffffffffffffffffffffffffffffffffffffffffffffffffffff8381831617835250505050612003565b50565b60008151905060006a636f6e736f6c652e6c6f679050602083016000808483855afa5050505050565b600061208e826040518060400160405280602081526020017f5361666545524332303a206c6f772d6c6576656c2063616c6c206661696c65648152508573ffffffffffffffffffffffffffffffffffffffff1661224b9092919063ffffffff16565b90506000815111156120e557808060200190518101906120ae9190612a43565b6120e4576040517fa479450200000000000000000000000000000000000000000000000000000000815260040160405180910390fd5b5b505050565b61216d846323b872dd60e01b85858560405160240161210b93929190612c3d565b604051602081830303815290604052907bffffffffffffffffffffffffffffffffffffffffffffffffffffffff19166020820180517bffffffffffffffffffffffffffffffffffffffffffffffffffffffff838183161783525050505061202c565b50505050565b806002600082825461218591906129c1565b92505081905550806000808473ffffffffffffffffffffffffffffffffffffffff1673ffffffffffffffffffffffffffffffffffffffff16815260200190815260200160002060008282546121da91906129c1565b925050819055508173ffffffffffffffffffffffffffffffffffffffff16600073ffffffffffffffffffffffffffffffffffffffff167fddf252ad1be2c89b69c2b068fc378daa952ba7f163c4a11628f55a4df523b3ef8360405161223f91906125e0565b60405180910390a35050565b606061225a8484600085612263565b90509392505050565b6060824710156122ac5747836040517f02de226f0000000000000000000000000000000000000000000000000000000081526004016122a3929190612964565b60405180910390fd5b6122b58561237d565b6122f657846040517f8a8b41ec0000000000000000000000000000000000000000000000000000000081526004016122ed919061265d565b60405180910390fd5b6000808673ffffffffffffffffffffffffffffffffffffffff16858760405161231f9190612cbb565b60006040518083038185875af1925050503d806000811461235c576040519150601f19603f3d011682016040523d82523d6000602084013e612361565b606091505b50915091506123718282866123a0565b92505050949350505050565b6000808273ffffffffffffffffffffffffffffffffffffffff163b119050919050565b606083156123b057829050612400565b6000835111156123c35782518084602001fd5b816040517f08c379a00000000000000000000000000000000000000000000000000000000081526004016123f791906124a0565b60405180910390fd5b9392505050565b600081519050919050565b600082825260208201905092915050565b60005b83811015612441578082015181840152602081019050612426565b83811115612450576000848401525b50505050565b6000601f19601f8301169050919050565b600061247282612407565b61247c8185612412565b935061248c818560208601612423565b61249581612456565b840191505092915050565b600060208201905081810360008301526124ba8184612467565b905092915050565b600080fd5b600073ffffffffffffffffffffffffffffffffffffffff82169050919050565b60006124f2826124c7565b9050919050565b612502816124e7565b811461250d57600080fd5b50565b60008135905061251f816124f9565b92915050565b6000819050919050565b61253881612525565b811461254357600080fd5b50565b6000813590506125558161252f565b92915050565b60008060408385031215612572576125716124c2565b5b600061258085828601612510565b925050602061259185828601612546565b9150509250929050565b60008115159050919050565b6125b08161259b565b82525050565b60006020820190506125cb60008301846125a7565b92915050565b6125da81612525565b82525050565b60006020820190506125f560008301846125d1565b92915050565b600080600060608486031215612614576126136124c2565b5b600061262286828701612510565b935050602061263386828701612510565b925050604061264486828701612546565b9150509250925092565b612657816124e7565b82525050565b6000602082019050612672600083018461264e565b92915050565b60006020828403121561268e5761268d6124c2565b5b600061269c84828501612546565b91505092915050565b600060ff82169050919050565b6126bb816126a5565b82525050565b60006020820190506126d660008301846126b2565b92915050565b6000602082840312156126f2576126f16124c2565b5b600061270084828501612510565b91505092915050565b60008060008060808587031215612723576127226124c2565b5b600061273187828801612510565b945050602061274287828801612510565b935050604061275387828801612546565b925050606061276487828801612546565b91505092959194509250565b60008060408385031215612787576127866124c2565b5b600061279585828601612510565b92505060206127a685828601612510565b9150509250929050565b7f4e487b7100000000000000000000000000000000000000000000000000000000600052602260045260246000fd5b600060028204905060018216806127f757607f821691505b60208210810361280a576128096127b0565b5b50919050565b60008151905061281f8161252f565b92915050565b60006020828403121561283b5761283a6124c2565b5b600061284984828501612810565b91505092915050565b7f4e487b7100000000000000000000000000000000000000000000000000000000600052601160045260246000fd5b600061288c82612525565b915061289783612525565b9250817fffffffffffffffffffffffffffffffffffffffffffffffffffffffffffffffff04831182151516156128d0576128cf612852565b5b828202905092915050565b7f4e487b7100000000000000000000000000000000000000000000000000000000600052601260045260246000fd5b600061291582612525565b915061292083612525565b9250826129305761292f6128db565b5b828204905092915050565b6000604082019050612950600083018561264e565b61295d60208301846125d1565b9392505050565b600060408201905061297960008301856125d1565b61298660208301846125d1565b9392505050565b600061299882612525565b91506129a383612525565b9250828210156129b6576129b5612852565b5b828203905092915050565b60006129cc82612525565b91506129d783612525565b9250827fffffffffffffffffffffffffffffffffffffffffffffffffffffffffffffffff03821115612a0c57612a0b612852565b5b828201905092915050565b612a208161259b565b8114612a2b57600080fd5b50565b600081519050612a3d81612a17565b92915050565b600060208284031215612a5957612a586124c2565b5b6000612a6784828501612a2e565b91505092915050565b6000608082019050612a85600083018761264e565b612a92602083018661264e565b612a9f60408301856125d1565b612aac60608301846125d1565b95945050505050565b6000606082019050612aca600083018661264e565b612ad760208301856125d1565b612ae460408301846125d1565b949350505050565b6000604082019050612b01600083018561264e565b612b0e602083018461264e565b9392505050565b60006040820190508181036000830152612b2f8185612467565b9050612b3e602083018461264e565b9392505050565b60006040820190508181036000830152612b5f8185612467565b9050612b6e60208301846125d1565b9392505050565b6000819050919050565b6000819050919050565b6000612ba4612b9f612b9a84612b75565b612b7f565b612525565b9050919050565b612bb481612b89565b82525050565b6000606082019050612bcf60008301866125d1565b612bdc6020830185612bab565b612be960408301846125d1565b949350505050565b60006080820190508181036000830152612c0b8187612467565b9050612c1a60208301866125d1565b612c2760408301856125d1565b612c3460608301846125d1565b95945050505050565b6000606082019050612c52600083018661264e565b612c5f602083018561264e565b612c6c60408301846125d1565b949350505050565b600081519050919050565b600081905092915050565b6000612c9582612c74565b612c9f8185612c7f565b9350612caf818560208601612423565b80840191505092915050565b6000612cc78284612c8a565b91508190509291505056fe7072696f7252656642616c616e63652c20626c6f636b4e756d6265722c207468697342616c616e6365a2646970667358221220d82b3c4efef520012e3b115d95164390c27a4d6ff44fa69959e513c3fcf1028664736f6c634300080d0033",
  "linkReferences": {},
  "deployedLinkReferences": {}
}