{
  "_format": "hh-sol-artifact-1",
  "contractName": "CliffFace",
  "sourceName": "contracts/TokenProxies/CliffFace.sol",
  "abi": [
    {
      "inputs": [
        {
          "internalType": "address",
          "name": "_baseToken",
          "type": "address"
        },
        {
          "internalType": "string",
          "name": "name_",
          "type": "string"
        },
        {
          "internalType": "string",
          "name": "symbol_",
          "type": "string"
        },
        {
          "internalType": "address",
          "name": "registry",
          "type": "address"
        },
        {
          "internalType": "address",
          "name": "_referenceToken",
          "type": "address"
        },
        {
          "internalType": "uint256",
          "name": "multiple",
          "type": "uint256"
        },
        {
          "internalType": "address",
          "name": "_behodler",
          "type": "address"
        }
      ],
      "stateMutability": "nonpayable",
      "type": "constructor"
    },
    {
      "inputs": [
        {
          "internalType": "uint256",
          "name": "allowance",
          "type": "uint256"
        },
        {
          "internalType": "uint256",
          "name": "amount",
          "type": "uint256"
        }
      ],
      "name": "AllowanceExceeded",
      "type": "error"
    },
    {
      "inputs": [
        {
          "internalType": "uint256",
          "name": "allowance",
          "type": "uint256"
        },
        {
          "internalType": "uint256",
          "name": "subtraction",
          "type": "uint256"
        }
      ],
      "name": "AllowanceUnderflow",
      "type": "error"
    },
    {
      "inputs": [
        {
          "internalType": "address",
          "name": "token",
          "type": "address"
        },
        {
          "internalType": "address",
          "name": "spender",
          "type": "address"
        },
        {
          "internalType": "uint256",
          "name": "amount",
          "type": "uint256"
        }
      ],
      "name": "ApproveToNonZero",
      "type": "error"
    },
    {
      "inputs": [
        {
          "internalType": "uint256",
          "name": "output",
          "type": "uint256"
        },
        {
          "internalType": "uint256",
          "name": "expectedOutput",
          "type": "uint256"
        }
      ],
      "name": "BehodlerSwapInInvariantViolated",
      "type": "error"
    },
    {
      "inputs": [
        {
          "internalType": "address",
          "name": "inputToken",
          "type": "address"
        },
        {
          "internalType": "uint256",
          "name": "actualAmount",
          "type": "uint256"
        },
        {
          "internalType": "uint256",
          "name": "expectedAmount",
          "type": "uint256"
        }
      ],
      "name": "BehodlerSwapOutInvariantViolated",
      "type": "error"
    },
    {
      "inputs": [
        {
          "internalType": "uint256",
          "name": "accountBalance",
          "type": "uint256"
        },
        {
          "internalType": "uint256",
          "name": "amount",
          "type": "uint256"
        }
      ],
      "name": "BurnUnderflow",
      "type": "error"
    },
    {
      "inputs": [
        {
          "internalType": "uint256",
          "name": "balance",
          "type": "uint256"
        },
        {
          "internalType": "uint256",
          "name": "value",
          "type": "uint256"
        }
      ],
      "name": "InsufficinetFunds",
      "type": "error"
    },
    {
      "inputs": [
        {
          "internalType": "address",
          "name": "EOA",
          "type": "address"
        }
      ],
      "name": "NotAContract",
      "type": "error"
    },
    {
      "inputs": [
        {
          "internalType": "address",
          "name": "sender",
          "type": "address"
        },
        {
          "internalType": "address",
          "name": "proxy",
          "type": "address"
        }
      ],
      "name": "OnlyProxy",
      "type": "error"
    },
    {
      "inputs": [],
      "name": "OperationFailure",
      "type": "error"
    },
    {
      "inputs": [
        {
          "internalType": "uint256",
          "name": "blockNumber",
          "type": "uint256"
        },
        {
          "internalType": "uint256",
          "name": "priorBlockNumber",
          "type": "uint256"
        }
      ],
      "name": "SlippageManipulationPrevention",
      "type": "error"
    },
    {
      "inputs": [
        {
          "internalType": "uint256",
          "name": "senderBalance",
          "type": "uint256"
        },
        {
          "internalType": "uint256",
          "name": "fee",
          "type": "uint256"
        },
        {
          "internalType": "uint256",
          "name": "amount",
          "type": "uint256"
        }
      ],
      "name": "TransferUnderflow",
      "type": "error"
    },
    {
      "anonymous": false,
      "inputs": [
        {
          "indexed": true,
          "internalType": "address",
          "name": "owner",
          "type": "address"
        },
        {
          "indexed": true,
          "internalType": "address",
          "name": "spender",
          "type": "address"
        },
        {
          "indexed": false,
          "internalType": "uint256",
          "name": "value",
          "type": "uint256"
        }
      ],
      "name": "Approval",
      "type": "event"
    },
    {
      "anonymous": false,
      "inputs": [
        {
          "indexed": true,
          "internalType": "address",
          "name": "from",
          "type": "address"
        },
        {
          "indexed": true,
          "internalType": "address",
          "name": "to",
          "type": "address"
        },
        {
          "indexed": false,
          "internalType": "uint256",
          "name": "value",
          "type": "uint256"
        }
      ],
      "name": "Transfer",
      "type": "event"
    },
    {
      "inputs": [
        {
          "internalType": "address",
          "name": "owner",
          "type": "address"
        },
        {
          "internalType": "address",
          "name": "spender",
          "type": "address"
        }
      ],
      "name": "allowance",
      "outputs": [
        {
          "internalType": "uint256",
          "name": "",
          "type": "uint256"
        }
      ],
      "stateMutability": "view",
      "type": "function"
    },
    {
      "inputs": [
        {
          "internalType": "address",
          "name": "spender",
          "type": "address"
        },
        {
          "internalType": "uint256",
          "name": "amount",
          "type": "uint256"
        }
      ],
      "name": "approve",
      "outputs": [
        {
          "internalType": "bool",
          "name": "",
          "type": "bool"
        }
      ],
      "stateMutability": "nonpayable",
      "type": "function"
    },
    {
      "inputs": [
        {
          "internalType": "address",
          "name": "inputToken",
          "type": "address"
        }
      ],
      "name": "approveBehodlerFor",
      "outputs": [],
      "stateMutability": "nonpayable",
      "type": "function"
    },
    {
      "inputs": [
        {
          "internalType": "address",
          "name": "account",
          "type": "address"
        }
      ],
      "name": "balanceOf",
      "outputs": [
        {
          "internalType": "uint256",
          "name": "",
          "type": "uint256"
        }
      ],
      "stateMutability": "view",
      "type": "function"
    },
    {
      "inputs": [],
      "name": "baseToken",
      "outputs": [
        {
          "internalType": "address",
          "name": "",
          "type": "address"
        }
      ],
      "stateMutability": "view",
      "type": "function"
    },
    {
      "inputs": [],
      "name": "decimals",
      "outputs": [
        {
          "internalType": "uint8",
          "name": "",
          "type": "uint8"
        }
      ],
      "stateMutability": "view",
      "type": "function"
    },
    {
      "inputs": [
        {
          "internalType": "address",
          "name": "spender",
          "type": "address"
        },
        {
          "internalType": "uint256",
          "name": "subtractedValue",
          "type": "uint256"
        }
      ],
      "name": "decreaseAllowance",
      "outputs": [
        {
          "internalType": "bool",
          "name": "",
          "type": "bool"
        }
      ],
      "stateMutability": "nonpayable",
      "type": "function"
    },
    {
      "inputs": [
        {
          "internalType": "address",
          "name": "spender",
          "type": "address"
        },
        {
          "internalType": "uint256",
          "name": "addedValue",
          "type": "uint256"
        }
      ],
      "name": "increaseAllowance",
      "outputs": [
        {
          "internalType": "bool",
          "name": "",
          "type": "bool"
        }
      ],
      "stateMutability": "nonpayable",
      "type": "function"
    },
    {
      "inputs": [
        {
          "internalType": "address",
          "name": "newProxy",
          "type": "address"
        }
      ],
      "name": "migrateBaseReserveToNewProxy",
      "outputs": [],
      "stateMutability": "nonpayable",
      "type": "function"
    },
    {
      "inputs": [],
      "name": "name",
      "outputs": [
        {
          "internalType": "string",
          "name": "",
          "type": "string"
        }
      ],
      "stateMutability": "view",
      "type": "function"
    },
    {
      "inputs": [],
      "name": "proxyRegistry",
      "outputs": [
        {
          "internalType": "address",
          "name": "",
          "type": "address"
        }
      ],
      "stateMutability": "view",
      "type": "function"
    },
    {
      "inputs": [
        {
          "internalType": "address",
          "name": "proxySource",
          "type": "address"
        },
        {
          "internalType": "address",
          "name": "baseRecipient",
          "type": "address"
        },
        {
          "internalType": "uint256",
          "name": "amount",
          "type": "uint256"
        }
      ],
      "name": "redeem",
      "outputs": [
        {
          "internalType": "uint256",
          "name": "baseAmount",
          "type": "uint256"
        }
      ],
      "stateMutability": "nonpayable",
      "type": "function"
    },
    {
      "inputs": [],
      "name": "redeemRate",
      "outputs": [
        {
          "internalType": "uint256",
          "name": "",
          "type": "uint256"
        }
      ],
      "stateMutability": "view",
      "type": "function"
    },
    {
      "inputs": [],
      "name": "referenceMultiple",
      "outputs": [
        {
          "internalType": "uint256",
          "name": "",
          "type": "uint256"
        }
      ],
      "stateMutability": "view",
      "type": "function"
    },
    {
      "inputs": [],
      "name": "referenceToken",
      "outputs": [
        {
          "internalType": "address",
          "name": "",
          "type": "address"
        }
      ],
      "stateMutability": "view",
      "type": "function"
    },
    {
      "inputs": [
        {
          "internalType": "uint256",
          "name": "initialSupply",
          "type": "uint256"
        }
      ],
      "name": "seedBehodler",
      "outputs": [],
      "stateMutability": "nonpayable",
      "type": "function"
    },
    {
      "inputs": [
        {
          "internalType": "address",
          "name": "outputRecipient",
          "type": "address"
        },
        {
          "internalType": "address",
          "name": "outputToken",
          "type": "address"
        },
        {
          "internalType": "uint256",
          "name": "outputAmount",
          "type": "uint256"
        },
        {
          "internalType": "uint256",
          "name": "baseTokenAmount",
          "type": "uint256"
        }
      ],
      "name": "swapAsInput",
      "outputs": [
        {
          "internalType": "bool",
          "name": "",
          "type": "bool"
        }
      ],
      "stateMutability": "nonpayable",
      "type": "function"
    },
    {
      "inputs": [
        {
          "internalType": "address",
          "name": "outputRecipient",
          "type": "address"
        },
        {
          "internalType": "address",
          "name": "input",
          "type": "address"
        },
        {
          "internalType": "uint256",
          "name": "proxyTokensToRelease",
          "type": "uint256"
        },
        {
          "internalType": "uint256",
          "name": "expectedInputAmount",
          "type": "uint256"
        }
      ],
      "name": "swapAsOuput",
      "outputs": [
        {
          "internalType": "bool",
          "name": "",
          "type": "bool"
        }
      ],
      "stateMutability": "nonpayable",
      "type": "function"
    },
    {
      "inputs": [],
      "name": "symbol",
      "outputs": [
        {
          "internalType": "string",
          "name": "",
          "type": "string"
        }
      ],
      "stateMutability": "view",
      "type": "function"
    },
    {
      "inputs": [],
      "name": "totalSupply",
      "outputs": [
        {
          "internalType": "uint256",
          "name": "",
          "type": "uint256"
        }
      ],
      "stateMutability": "view",
      "type": "function"
    },
    {
      "inputs": [
        {
          "internalType": "address",
          "name": "recipient",
          "type": "address"
        },
        {
          "internalType": "uint256",
          "name": "amount",
          "type": "uint256"
        }
      ],
      "name": "transfer",
      "outputs": [
        {
          "internalType": "bool",
          "name": "",
          "type": "bool"
        }
      ],
      "stateMutability": "nonpayable",
      "type": "function"
    },
    {
      "inputs": [
        {
          "internalType": "address",
          "name": "sender",
          "type": "address"
        },
        {
          "internalType": "address",
          "name": "recipient",
          "type": "address"
        },
        {
          "internalType": "uint256",
          "name": "amount",
          "type": "uint256"
        }
      ],
      "name": "transferFrom",
      "outputs": [
        {
          "internalType": "bool",
          "name": "",
          "type": "bool"
        }
      ],
      "stateMutability": "nonpayable",
      "type": "function"
    }
  ],
  "bytecode": "0x6101206040523480156200001257600080fd5b5060405162003d0a38038062003d0a833981810160405281019062000038919062000732565b808787878783838383828281600390805190602001906200005b92919062000445565b5080600490805190602001906200007492919062000445565b5050508373ffffffffffffffffffffffffffffffffffffffff1660a08173ffffffffffffffffffffffffffffffffffffffff16815250508073ffffffffffffffffffffffffffffffffffffffff1660808173ffffffffffffffffffffffffffffffffffffffff1681525050505050508473ffffffffffffffffffffffffffffffffffffffff1660c08173ffffffffffffffffffffffffffffffffffffffff168152505050505050508273ffffffffffffffffffffffffffffffffffffffff1660e08173ffffffffffffffffffffffffffffffffffffffff168152505081610100818152505060e05173ffffffffffffffffffffffffffffffffffffffff166370a0823160c0516040518263ffffffff1660e01b815260040162000198919062000834565b602060405180830381865afa158015620001b6573d6000803e3d6000fd5b505050506040513d601f19601f82011682018060405250810190620001dc919062000851565b6005600001819055506200021a60405180606001604052806026815260200162003ce460269139600560000154620002d060201b62001ad61760201c565b43600560010181905550620002726040518060400160405280601381526020017f4265686f646c657220616464726573732025730000000000000000000000000081525060c0516200037660201b62001b721760201c565b620002c36040518060400160405280601f81526020017f636f6e7374727563746f72207072696f7252656642616c616e63653a20256400815250600560000154620002d060201b62001ad61760201c565b50505050505050620009bd565b620003728282604051602401620002e9929190620008f1565b6040516020818303038152906040527f9710a9d0000000000000000000000000000000000000000000000000000000007bffffffffffffffffffffffffffffffffffffffffffffffffffffffff19166020820180517bffffffffffffffffffffffffffffffffffffffffffffffffffffffff83818316178352505050506200041c60201b60201c565b5050565b6200041882826040516024016200038f92919062000925565b6040516020818303038152906040527f319af333000000000000000000000000000000000000000000000000000000007bffffffffffffffffffffffffffffffffffffffffffffffffffffffff19166020820180517bffffffffffffffffffffffffffffffffffffffffffffffffffffffff83818316178352505050506200041c60201b60201c565b5050565b60008151905060006a636f6e736f6c652e6c6f679050602083016000808483855afa5050505050565b828054620004539062000988565b90600052602060002090601f016020900481019282620004775760008555620004c3565b82601f106200049257805160ff1916838001178555620004c3565b82800160010185558215620004c3579182015b82811115620004c2578251825591602001919060010190620004a5565b5b509050620004d29190620004d6565b5090565b5b80821115620004f1576000816000905550600101620004d7565b5090565b6000604051905090565b600080fd5b600080fd5b600073ffffffffffffffffffffffffffffffffffffffff82169050919050565b6000620005368262000509565b9050919050565b620005488162000529565b81146200055457600080fd5b50565b60008151905062000568816200053d565b92915050565b600080fd5b600080fd5b6000601f19601f8301169050919050565b7f4e487b7100000000000000000000000000000000000000000000000000000000600052604160045260246000fd5b620005c38262000578565b810181811067ffffffffffffffff82111715620005e557620005e462000589565b5b80604052505050565b6000620005fa620004f5565b9050620006088282620005b8565b919050565b600067ffffffffffffffff8211156200062b576200062a62000589565b5b620006368262000578565b9050602081019050919050565b60005b838110156200066357808201518184015260208101905062000646565b8381111562000673576000848401525b50505050565b6000620006906200068a846200060d565b620005ee565b905082815260208101848484011115620006af57620006ae62000573565b5b620006bc84828562000643565b509392505050565b600082601f830112620006dc57620006db6200056e565b5b8151620006ee84826020860162000679565b91505092915050565b6000819050919050565b6200070c81620006f7565b81146200071857600080fd5b50565b6000815190506200072c8162000701565b92915050565b600080600080600080600060e0888a031215620007545762000753620004ff565b5b6000620007648a828b0162000557565b975050602088015167ffffffffffffffff81111562000788576200078762000504565b5b620007968a828b01620006c4565b965050604088015167ffffffffffffffff811115620007ba57620007b962000504565b5b620007c88a828b01620006c4565b9550506060620007db8a828b0162000557565b9450506080620007ee8a828b0162000557565b93505060a0620008018a828b016200071b565b92505060c0620008148a828b0162000557565b91505092959891949750929550565b6200082e8162000529565b82525050565b60006020820190506200084b600083018462000823565b92915050565b6000602082840312156200086a5762000869620004ff565b5b60006200087a848285016200071b565b91505092915050565b600081519050919050565b600082825260208201905092915050565b6000620008ac8262000883565b620008b881856200088e565b9350620008ca81856020860162000643565b620008d58162000578565b840191505092915050565b620008eb81620006f7565b82525050565b600060408201905081810360008301526200090d81856200089f565b90506200091e6020830184620008e0565b9392505050565b600060408201905081810360008301526200094181856200089f565b905062000952602083018462000823565b9392505050565b7f4e487b7100000000000000000000000000000000000000000000000000000000600052602260045260246000fd5b60006002820490506001821680620009a157607f821691505b602082108103620009b757620009b662000959565b5b50919050565b60805160a05160c05160e0516101005161321e62000ac660003960008181610c020152818161102901526110820152600081816106b70152818161087f0152610efe0152600081816106f701528181610740015281816107e0015281816108bb0152818161095e01528181610ec201528181610f9c015281816110fe0152818161115301528181611239015281816112de0152818161152a015281816115b601528181611657015281816117860152611a6d0152600081816105370152818161066901528181610e1c015281816113860152818161194b01528181611ef801528181611fbc0152612006015260008181610df80152818161189701526118eb015261321e6000f3fe608060405234801561001057600080fd5b50600436106101425760003560e01c806370a08231116100b8578063c55dae631161007c578063c55dae63146103a3578063ca409f4d146103c1578063dd62ed3e146103f1578063ea2cd00c14610421578063ed3b379b14610451578063ed6de1741461046d57610142565b806370a08231146102d757806395d89b4114610307578063a457c2d714610325578063a9059cbb14610355578063b50cbd9f1461038557610142565b806316a39eeb1161010a57806316a39eeb1461020157806318160ddd1461021d57806323b872dd1461023b578063313ce5671461026b57806339509351146102895780634e2c172d146102b957610142565b806306fdde0314610147578063095ea7b3146101655780630adcdbaa146101955780630e6dfcd5146101b35780631265b651146101e3575b600080fd5b61014f610489565b60405161015c919061285d565b60405180910390f35b61017f600480360381019061017a9190612918565b61051b565b60405161018c9190612973565b60405180910390f35b61019d610532565b6040516101aa919061299d565b60405180910390f35b6101cd60048036038101906101c891906129b8565b61062a565b6040516101da919061299d565b60405180910390f35b6101eb6106b5565b6040516101f89190612a1a565b60405180910390f35b61021b60048036038101906102169190612a35565b6106d9565b005b610225610a2c565b604051610232919061299d565b60405180910390f35b610255600480360381019061025091906129b8565b610a36565b6040516102629190612973565b60405180910390f35b610273610b59565b6040516102809190612a7e565b60405180910390f35b6102a3600480360381019061029e9190612918565b610b62565b6040516102b09190612973565b60405180910390f35b6102c1610c00565b6040516102ce919061299d565b60405180910390f35b6102f160048036038101906102ec9190612a99565b610c24565b6040516102fe919061299d565b60405180910390f35b61030f610c6c565b60405161031c919061285d565b60405180910390f35b61033f600480360381019061033a9190612918565b610cfe565b60405161034c9190612973565b60405180910390f35b61036f600480360381019061036a9190612918565b610ddf565b60405161037c9190612973565b60405180910390f35b61038d610df6565b60405161039a9190612a1a565b60405180910390f35b6103ab610e1a565b6040516103b89190612a1a565b60405180910390f35b6103db60048036038101906103d69190612ac6565b610e3e565b6040516103e89190612973565b60405180910390f35b61040b60048036038101906104069190612b2d565b61141e565b604051610418919061299d565b60405180910390f35b61043b60048036038101906104369190612ac6565b6114a5565b6040516104489190612973565b60405180910390f35b61046b60048036038101906104669190612a99565b611895565b005b61048760048036038101906104829190612a99565b611a68565b005b60606003805461049890612b9c565b80601f01602080910402602001604051908101604052809291908181526020018280546104c490612b9c565b80156105115780601f106104e657610100808354040283529160200191610511565b820191906000526020600020905b8154815290600101906020018083116104f457829003601f168201915b5050505050905090565b6000610528338484611c0e565b6001905092915050565b6000807f000000000000000000000000000000000000000000000000000000000000000073ffffffffffffffffffffffffffffffffffffffff166370a08231306040518263ffffffff1660e01b815260040161058e9190612a1a565b602060405180830381865afa1580156105ab573d6000803e3d6000fd5b505050506040513d601f19601f820116820180604052508101906105cf9190612be2565b905060006105db610a2c565b14806105e75750600081145b156105fd57670de0b6b3a7640000915050610627565b610605610a2c565b670de0b6b3a7640000826106199190612c3e565b6106239190612cc7565b9150505b90565b600080610635610532565b90506106418584611cf9565b670de0b6b3a764000081846106569190612c3e565b6106609190612cc7565b91506106ad84837f000000000000000000000000000000000000000000000000000000000000000073ffffffffffffffffffffffffffffffffffffffff16611e439092919063ffffffff16565b509392505050565b7f000000000000000000000000000000000000000000000000000000000000000081565b60006106ef670de0b6b3a7640000303385611ec9565b905061073c307f00000000000000000000000000000000000000000000000000000000000000007fffffffffffffffffffffffffffffffffffffffffffffffffffffffffffffffff611c0e565b60007f000000000000000000000000000000000000000000000000000000000000000073ffffffffffffffffffffffffffffffffffffffff16635668870030846040518363ffffffff1660e01b8152600401610799929190612cf8565b6020604051808303816000875af11580156107b8573d6000803e3d6000fd5b505050506040513d601f19601f820116820180604052508101906107dc9190612be2565b90507f000000000000000000000000000000000000000000000000000000000000000073ffffffffffffffffffffffffffffffffffffffff1663a9059cbb33836040518363ffffffff1660e01b8152600401610839929190612cf8565b6020604051808303816000875af1158015610858573d6000803e3d6000fd5b505050506040513d601f19601f8201168201806040525081019061087c9190612d4d565b507f000000000000000000000000000000000000000000000000000000000000000073ffffffffffffffffffffffffffffffffffffffff166370a082317f00000000000000000000000000000000000000000000000000000000000000006040518263ffffffff1660e01b81526004016108f69190612a1a565b602060405180830381865afa158015610913573d6000803e3d6000fd5b505050506040513d601f19601f820116820180604052508101906109379190612be2565b6005600001819055503073ffffffffffffffffffffffffffffffffffffffff166370a082317f00000000000000000000000000000000000000000000000000000000000000006040518263ffffffff1660e01b81526004016109999190612a1a565b602060405180830381865afa1580156109b6573d6000803e3d6000fd5b505050506040513d601f19601f820116820180604052508101906109da9190612be2565b600560020181905550610a276040518060400160405280601381526020017f564152532e7468697342616c616e636520256400000000000000000000000000815250600560020154611ad6565b505050565b6000600254905090565b6000610a438484846120e0565b6000600160008673ffffffffffffffffffffffffffffffffffffffff1673ffffffffffffffffffffffffffffffffffffffff16815260200190815260200160002060003373ffffffffffffffffffffffffffffffffffffffff1673ffffffffffffffffffffffffffffffffffffffff1681526020019081526020016000205490507fffffffffffffffffffffffffffffffffffffffffffffffffffffffffffffffff8114158015610af357508083115b15610b375780836040517fa9248256000000000000000000000000000000000000000000000000000000008152600401610b2e929190612d7a565b60405180910390fd5b610b4d85338584610b489190612da3565b611c0e565b60019150509392505050565b60006012905090565b6000610bf6338484600160003373ffffffffffffffffffffffffffffffffffffffff1673ffffffffffffffffffffffffffffffffffffffff16815260200190815260200160002060008873ffffffffffffffffffffffffffffffffffffffff1673ffffffffffffffffffffffffffffffffffffffff16815260200190815260200160002054610bf19190612dd7565b611c0e565b6001905092915050565b7f000000000000000000000000000000000000000000000000000000000000000081565b60008060008373ffffffffffffffffffffffffffffffffffffffff1673ffffffffffffffffffffffffffffffffffffffff168152602001908152602001600020549050919050565b606060048054610c7b90612b9c565b80601f0160208091040260200160405190810160405280929190818152602001828054610ca790612b9c565b8015610cf45780601f10610cc957610100808354040283529160200191610cf4565b820191906000526020600020905b815481529060010190602001808311610cd757829003601f168201915b5050505050905090565b600080600160003373ffffffffffffffffffffffffffffffffffffffff1673ffffffffffffffffffffffffffffffffffffffff16815260200190815260200160002060008573ffffffffffffffffffffffffffffffffffffffff1673ffffffffffffffffffffffffffffffffffffffff16815260200190815260200160002054905082811015610dc75780836040517fda2d822c000000000000000000000000000000000000000000000000000000008152600401610dbe929190612d7a565b60405180910390fd5b610dd43385858403611c0e565b600191505092915050565b6000610dec3384846120e0565b6001905092915050565b7f000000000000000000000000000000000000000000000000000000000000000081565b7f000000000000000000000000000000000000000000000000000000000000000081565b6000806005604051806060016040529081600082015481526020016001820154815260200160028201548152505090506005600101544303610ebe57436005600101546040517fa31b34df000000000000000000000000000000000000000000000000000000008152600401610eb5929190612d7a565b60405180910390fd5b60007f000000000000000000000000000000000000000000000000000000000000000073ffffffffffffffffffffffffffffffffffffffff166370a082317f00000000000000000000000000000000000000000000000000000000000000006040518263ffffffff1660e01b8152600401610f399190612a1a565b602060405180830381865afa158015610f56573d6000803e3d6000fd5b505050506040513d601f19601f82011682018060405250810190610f7a9190612be2565b905060003073ffffffffffffffffffffffffffffffffffffffff166370a082317f00000000000000000000000000000000000000000000000000000000000000006040518263ffffffff1660e01b8152600401610fd79190612a1a565b602060405180830381865afa158015610ff4573d6000803e3d6000fd5b505050506040513d601f19601f820116820180604052508101906110189190612be2565b90506000670de0b6b3a764000090507f000000000000000000000000000000000000000000000000000000000000000084600001516110579190612c3e565b670de0b6b3a76400008560400151886110709190612dd7565b61107a9190612c3e565b11156110ec577f000000000000000000000000000000000000000000000000000000000000000084600001516110b09190612c3e565b6002670de0b6b3a76400006110c59190612f60565b8560400151886110d59190612dd7565b6110df9190612c3e565b6110e99190612cc7565b90505b60006110fa8230338a611ec9565b90507f000000000000000000000000000000000000000000000000000000000000000073ffffffffffffffffffffffffffffffffffffffff168973ffffffffffffffffffffffffffffffffffffffff16036112dc5760007f000000000000000000000000000000000000000000000000000000000000000073ffffffffffffffffffffffffffffffffffffffff16635668870030846040518363ffffffff1660e01b81526004016111ac929190612cf8565b6020604051808303816000875af11580156111cb573d6000803e3d6000fd5b505050506040513d601f19601f820116820180604052508101906111ef9190612be2565b90508881146112375780896040517f612e405f00000000000000000000000000000000000000000000000000000000815260040161122e929190612d7a565b60405180910390fd5b7f000000000000000000000000000000000000000000000000000000000000000073ffffffffffffffffffffffffffffffffffffffff1663a9059cbb8c836040518363ffffffff1660e01b8152600401611292929190612cf8565b6020604051808303816000875af11580156112b1573d6000803e3d6000fd5b505050506040513d601f19601f820116820180604052508101906112d59190612d4d565b50506113cb565b7f000000000000000000000000000000000000000000000000000000000000000073ffffffffffffffffffffffffffffffffffffffff1663fe029156308b848c6040518563ffffffff1660e01b815260040161133b9493929190612fab565b6020604051808303816000875af115801561135a573d6000803e3d6000fd5b505050506040513d601f19601f8201168201806040525081019061137e9190612d4d565b506113ca8a897f000000000000000000000000000000000000000000000000000000000000000073ffffffffffffffffffffffffffffffffffffffff16611e439092919063ffffffff16565b5b838560000181815250504385602001818152505082856040018181525050846005600082015181600001556020820151816001015560408201518160020155905050600195505050505050949350505050565b6000600160008473ffffffffffffffffffffffffffffffffffffffff1673ffffffffffffffffffffffffffffffffffffffff16815260200190815260200160002060008373ffffffffffffffffffffffffffffffffffffffff1673ffffffffffffffffffffffffffffffffffffffff16815260200190815260200160002054905092915050565b60008373ffffffffffffffffffffffffffffffffffffffff166323b872dd3330856040518463ffffffff1660e01b81526004016114e493929190612ff0565b6020604051808303816000875af1158015611503573d6000803e3d6000fd5b505050506040513d601f19601f820116820180604052508101906115279190612d4d565b507f000000000000000000000000000000000000000000000000000000000000000073ffffffffffffffffffffffffffffffffffffffff168473ffffffffffffffffffffffffffffffffffffffff160361175a576116536040518060400160405280601181526020017f62616c616e6365206f66205343582025640000000000000000000000000000008152507f000000000000000000000000000000000000000000000000000000000000000073ffffffffffffffffffffffffffffffffffffffff166370a08231306040518263ffffffff1660e01b815260040161160d9190612a1a565b602060405180830381865afa15801561162a573d6000803e3d6000fd5b505050506040513d601f19601f8201168201806040525081019061164e9190612be2565b611ad6565b60007f000000000000000000000000000000000000000000000000000000000000000073ffffffffffffffffffffffffffffffffffffffff166306d47de930866040518363ffffffff1660e01b81526004016116b0929190612cf8565b6020604051808303816000875af11580156116cf573d6000803e3d6000fd5b505050506040513d601f19601f820116820180604052508101906116f39190612be2565b90506104008111801561170e5750600a83901c600a82901c14155b15611754578481846040517f73a4b39000000000000000000000000000000000000000000000000000000000815260040161174b93929190613027565b60405180910390fd5b50611889565b6000670de0b6b3a764000061176d610532565b856117789190612c3e565b6117829190612cc7565b90507f000000000000000000000000000000000000000000000000000000000000000073ffffffffffffffffffffffffffffffffffffffff1663fe029156863086886040518563ffffffff1660e01b81526004016117e39493929190612fab565b6020604051808303816000875af1158015611802573d6000803e3d6000fd5b505050506040513d601f19601f820116820180604052508101906118269190612d4d565b50600061183430888761062a565b9050600a81901c600a83901c14611886578582826040517f73a4b39000000000000000000000000000000000000000000000000000000000815260040161187d93929190613027565b60405180910390fd5b50505b60019050949350505050565b7f000000000000000000000000000000000000000000000000000000000000000073ffffffffffffffffffffffffffffffffffffffff163373ffffffffffffffffffffffffffffffffffffffff161461194757337f00000000000000000000000000000000000000000000000000000000000000006040517fd214286f00000000000000000000000000000000000000000000000000000000815260040161193e92919061305e565b60405180910390fd5b60007f000000000000000000000000000000000000000000000000000000000000000090508073ffffffffffffffffffffffffffffffffffffffff1663a9059cbb838373ffffffffffffffffffffffffffffffffffffffff166370a08231306040518263ffffffff1660e01b81526004016119c29190612a1a565b602060405180830381865afa1580156119df573d6000803e3d6000fd5b505050506040513d601f19601f82011682018060405250810190611a039190612be2565b6040518363ffffffff1660e01b8152600401611a20929190612cf8565b6020604051808303816000875af1158015611a3f573d6000803e3d6000fd5b505050506040513d601f19601f82011682018060405250810190611a639190612d4d565b505050565b611ad37f00000000000000000000000000000000000000000000000000000000000000007fffffffffffffffffffffffffffffffffffffffffffffffffffffffffffffffff8373ffffffffffffffffffffffffffffffffffffffff166122699092919063ffffffff16565b50565b611b6e8282604051602401611aec929190613087565b6040516020818303038152906040527f9710a9d0000000000000000000000000000000000000000000000000000000007bffffffffffffffffffffffffffffffffffffffffffffffffffffffff19166020820180517bffffffffffffffffffffffffffffffffffffffffffffffffffffffff83818316178352505050506123c0565b5050565b611c0a8282604051602401611b889291906130b7565b6040516020818303038152906040527f319af333000000000000000000000000000000000000000000000000000000007bffffffffffffffffffffffffffffffffffffffffffffffffffffffff19166020820180517bffffffffffffffffffffffffffffffffffffffffffffffffffffffff83818316178352505050506123c0565b5050565b80600160008573ffffffffffffffffffffffffffffffffffffffff1673ffffffffffffffffffffffffffffffffffffffff16815260200190815260200160002060008473ffffffffffffffffffffffffffffffffffffffff1673ffffffffffffffffffffffffffffffffffffffff168152602001908152602001600020819055508173ffffffffffffffffffffffffffffffffffffffff168373ffffffffffffffffffffffffffffffffffffffff167f8c5be1e5ebec7d5bd14f71427d1e84f3dd0314c0f7b2291e5b200ac8c7c3b92583604051611cec919061299d565b60405180910390a3505050565b60008060008473ffffffffffffffffffffffffffffffffffffffff1673ffffffffffffffffffffffffffffffffffffffff16815260200190815260200160002054905081811015611d835780826040517f0a37dd41000000000000000000000000000000000000000000000000000000008152600401611d7a929190612d7a565b60405180910390fd5b8181036000808573ffffffffffffffffffffffffffffffffffffffff1673ffffffffffffffffffffffffffffffffffffffff1681526020019081526020016000208190555081600260008282540392505081905550600073ffffffffffffffffffffffffffffffffffffffff168373ffffffffffffffffffffffffffffffffffffffff167fddf252ad1be2c89b69c2b068fc378daa952ba7f163c4a11628f55a4df523b3ef84604051611e36919061299d565b60405180910390a3505050565b611ec48363a9059cbb60e01b8484604051602401611e62929190612cf8565b604051602081830303815290604052907bffffffffffffffffffffffffffffffffffffffffffffffffffffffff19166020820180517bffffffffffffffffffffffffffffffffffffffffffffffffffffffff83818316178352505050506123e9565b505050565b600080670de0b6b3a764000086611ede610532565b611ee89190612c3e565b611ef29190612cc7565b905060007f000000000000000000000000000000000000000000000000000000000000000073ffffffffffffffffffffffffffffffffffffffff166370a08231306040518263ffffffff1660e01b8152600401611f4f9190612a1a565b602060405180830381865afa158015611f6c573d6000803e3d6000fd5b505050506040513d601f19601f82011682018060405250810190611f909190612be2565b9050611fb46040518060600160405280602781526020016131c26027913985611ad6565b6120018530867f000000000000000000000000000000000000000000000000000000000000000073ffffffffffffffffffffffffffffffffffffffff166124a7909392919063ffffffff16565b6000817f000000000000000000000000000000000000000000000000000000000000000073ffffffffffffffffffffffffffffffffffffffff166370a08231306040518263ffffffff1660e01b815260040161205d9190612a1a565b602060405180830381865afa15801561207a573d6000803e3d6000fd5b505050506040513d601f19601f8201168201806040525081019061209e9190612be2565b6120a89190612da3565b905082670de0b6b3a7640000826120bf9190612c3e565b6120c99190612cc7565b93506120d58785612530565b505050949350505050565b60008060008573ffffffffffffffffffffffffffffffffffffffff1673ffffffffffffffffffffffffffffffffffffffff1681526020019081526020016000205490508181101561216d57806000836040517f57b9c4a40000000000000000000000000000000000000000000000000000000081526004016121649392919061312c565b60405180910390fd5b8181036000808673ffffffffffffffffffffffffffffffffffffffff1673ffffffffffffffffffffffffffffffffffffffff16815260200190815260200160002081905550816000808573ffffffffffffffffffffffffffffffffffffffff1673ffffffffffffffffffffffffffffffffffffffff168152602001908152602001600020600082825401925050819055508273ffffffffffffffffffffffffffffffffffffffff168473ffffffffffffffffffffffffffffffffffffffff167fddf252ad1be2c89b69c2b068fc378daa952ba7f163c4a11628f55a4df523b3ef8460405161225b919061299d565b60405180910390a350505050565b6000811180156122f4575060008373ffffffffffffffffffffffffffffffffffffffff1663dd62ed3e30856040518363ffffffff1660e01b81526004016122b192919061305e565b602060405180830381865afa1580156122ce573d6000803e3d6000fd5b505050506040513d601f19601f820116820180604052508101906122f29190612be2565b115b1561233a578282826040517fc1a76f6c00000000000000000000000000000000000000000000000000000000815260040161233193929190612ff0565b60405180910390fd5b6123bb8363095ea7b360e01b8484604051602401612359929190612cf8565b604051602081830303815290604052907bffffffffffffffffffffffffffffffffffffffffffffffffffffffff19166020820180517bffffffffffffffffffffffffffffffffffffffffffffffffffffffff83818316178352505050506123e9565b505050565b60008151905060006a636f6e736f6c652e6c6f679050602083016000808483855afa5050505050565b600061244b826040518060400160405280602081526020017f5361666545524332303a206c6f772d6c6576656c2063616c6c206661696c65648152508573ffffffffffffffffffffffffffffffffffffffff166126089092919063ffffffff16565b90506000815111156124a2578080602001905181019061246b9190612d4d565b6124a1576040517fa479450200000000000000000000000000000000000000000000000000000000815260040160405180910390fd5b5b505050565b61252a846323b872dd60e01b8585856040516024016124c893929190612ff0565b604051602081830303815290604052907bffffffffffffffffffffffffffffffffffffffffffffffffffffffff19166020820180517bffffffffffffffffffffffffffffffffffffffffffffffffffffffff83818316178352505050506123e9565b50505050565b80600260008282546125429190612dd7565b92505081905550806000808473ffffffffffffffffffffffffffffffffffffffff1673ffffffffffffffffffffffffffffffffffffffff16815260200190815260200160002060008282546125979190612dd7565b925050819055508173ffffffffffffffffffffffffffffffffffffffff16600073ffffffffffffffffffffffffffffffffffffffff167fddf252ad1be2c89b69c2b068fc378daa952ba7f163c4a11628f55a4df523b3ef836040516125fc919061299d565b60405180910390a35050565b60606126178484600085612620565b90509392505050565b6060824710156126695747836040517f02de226f000000000000000000000000000000000000000000000000000000008152600401612660929190612d7a565b60405180910390fd5b6126728561273a565b6126b357846040517f8a8b41ec0000000000000000000000000000000000000000000000000000000081526004016126aa9190612a1a565b60405180910390fd5b6000808673ffffffffffffffffffffffffffffffffffffffff1685876040516126dc91906131aa565b60006040518083038185875af1925050503d8060008114612719576040519150601f19603f3d011682016040523d82523d6000602084013e61271e565b606091505b509150915061272e82828661275d565b92505050949350505050565b6000808273ffffffffffffffffffffffffffffffffffffffff163b119050919050565b6060831561276d578290506127bd565b6000835111156127805782518084602001fd5b816040517f08c379a00000000000000000000000000000000000000000000000000000000081526004016127b4919061285d565b60405180910390fd5b9392505050565b600081519050919050565b600082825260208201905092915050565b60005b838110156127fe5780820151818401526020810190506127e3565b8381111561280d576000848401525b50505050565b6000601f19601f8301169050919050565b600061282f826127c4565b61283981856127cf565b93506128498185602086016127e0565b61285281612813565b840191505092915050565b600060208201905081810360008301526128778184612824565b905092915050565b600080fd5b600073ffffffffffffffffffffffffffffffffffffffff82169050919050565b60006128af82612884565b9050919050565b6128bf816128a4565b81146128ca57600080fd5b50565b6000813590506128dc816128b6565b92915050565b6000819050919050565b6128f5816128e2565b811461290057600080fd5b50565b600081359050612912816128ec565b92915050565b6000806040838503121561292f5761292e61287f565b5b600061293d858286016128cd565b925050602061294e85828601612903565b9150509250929050565b60008115159050919050565b61296d81612958565b82525050565b60006020820190506129886000830184612964565b92915050565b612997816128e2565b82525050565b60006020820190506129b2600083018461298e565b92915050565b6000806000606084860312156129d1576129d061287f565b5b60006129df868287016128cd565b93505060206129f0868287016128cd565b9250506040612a0186828701612903565b9150509250925092565b612a14816128a4565b82525050565b6000602082019050612a2f6000830184612a0b565b92915050565b600060208284031215612a4b57612a4a61287f565b5b6000612a5984828501612903565b91505092915050565b600060ff82169050919050565b612a7881612a62565b82525050565b6000602082019050612a936000830184612a6f565b92915050565b600060208284031215612aaf57612aae61287f565b5b6000612abd848285016128cd565b91505092915050565b60008060008060808587031215612ae057612adf61287f565b5b6000612aee878288016128cd565b9450506020612aff878288016128cd565b9350506040612b1087828801612903565b9250506060612b2187828801612903565b91505092959194509250565b60008060408385031215612b4457612b4361287f565b5b6000612b52858286016128cd565b9250506020612b63858286016128cd565b9150509250929050565b7f4e487b7100000000000000000000000000000000000000000000000000000000600052602260045260246000fd5b60006002820490506001821680612bb457607f821691505b602082108103612bc757612bc6612b6d565b5b50919050565b600081519050612bdc816128ec565b92915050565b600060208284031215612bf857612bf761287f565b5b6000612c0684828501612bcd565b91505092915050565b7f4e487b7100000000000000000000000000000000000000000000000000000000600052601160045260246000fd5b6000612c49826128e2565b9150612c54836128e2565b9250817fffffffffffffffffffffffffffffffffffffffffffffffffffffffffffffffff0483118215151615612c8d57612c8c612c0f565b5b828202905092915050565b7f4e487b7100000000000000000000000000000000000000000000000000000000600052601260045260246000fd5b6000612cd2826128e2565b9150612cdd836128e2565b925082612ced57612cec612c98565b5b828204905092915050565b6000604082019050612d0d6000830185612a0b565b612d1a602083018461298e565b9392505050565b612d2a81612958565b8114612d3557600080fd5b50565b600081519050612d4781612d21565b92915050565b600060208284031215612d6357612d6261287f565b5b6000612d7184828501612d38565b91505092915050565b6000604082019050612d8f600083018561298e565b612d9c602083018461298e565b9392505050565b6000612dae826128e2565b9150612db9836128e2565b925082821015612dcc57612dcb612c0f565b5b828203905092915050565b6000612de2826128e2565b9150612ded836128e2565b9250827fffffffffffffffffffffffffffffffffffffffffffffffffffffffffffffffff03821115612e2257612e21612c0f565b5b828201905092915050565b60008160011c9050919050565b6000808291508390505b6001851115612e8457808604811115612e6057612e5f612c0f565b5b6001851615612e6f5780820291505b8081029050612e7d85612e2d565b9450612e44565b94509492505050565b600082612e9d5760019050612f59565b81612eab5760009050612f59565b8160018114612ec15760028114612ecb57612efa565b6001915050612f59565b60ff841115612edd57612edc612c0f565b5b8360020a915084821115612ef457612ef3612c0f565b5b50612f59565b5060208310610133831016604e8410600b8410161715612f2f5782820a905083811115612f2a57612f29612c0f565b5b612f59565b612f3c8484846001612e3a565b92509050818404811115612f5357612f52612c0f565b5b81810290505b9392505050565b6000612f6b826128e2565b9150612f7683612a62565b9250612fa37fffffffffffffffffffffffffffffffffffffffffffffffffffffffffffffffff8484612e8d565b905092915050565b6000608082019050612fc06000830187612a0b565b612fcd6020830186612a0b565b612fda604083018561298e565b612fe7606083018461298e565b95945050505050565b60006060820190506130056000830186612a0b565b6130126020830185612a0b565b61301f604083018461298e565b949350505050565b600060608201905061303c6000830186612a0b565b613049602083018561298e565b613056604083018461298e565b949350505050565b60006040820190506130736000830185612a0b565b6130806020830184612a0b565b9392505050565b600060408201905081810360008301526130a18185612824565b90506130b0602083018461298e565b9392505050565b600060408201905081810360008301526130d18185612824565b90506130e06020830184612a0b565b9392505050565b6000819050919050565b6000819050919050565b600061311661311161310c846130e7565b6130f1565b6128e2565b9050919050565b613126816130fb565b82525050565b6000606082019050613141600083018661298e565b61314e602083018561311d565b61315b604083018461298e565b949350505050565b600081519050919050565b600081905092915050565b600061318482613163565b61318e818561316e565b935061319e8185602086016127e0565b80840191505092915050565b60006131b68284613179565b91508190509291505056fe617474656d7074696e6720746f207472616e73666572206261736520746f6b656e206f66202564a264697066735822122048af2787e4e39883baad9a83b7eeaf9918519a0a39dcbe8c0728104c0f21bee364736f6c634300080d0033696e20636f6e7374727563746f722c207072696f725265666442616c616e6365206973202564",
  "linkReferences": {},
  "deployedLinkReferences": {}
}