{
  "_format": "hh-sol-artifact-1",
  "contractName": "CliffFace",
  "sourceName": "contracts/TokenProxies/CliffFace.sol",
  "abi": [
    {
      "inputs": [
        {
          "internalType": "address",
          "name": "_baseToken",
          "type": "address"
        },
        {
          "internalType": "string",
          "name": "name_",
          "type": "string"
        },
        {
          "internalType": "string",
          "name": "symbol_",
          "type": "string"
        },
        {
          "internalType": "address",
          "name": "registry",
          "type": "address"
        },
        {
          "internalType": "address",
          "name": "_referenceToken",
          "type": "address"
        },
        {
          "internalType": "uint256",
          "name": "multiple",
          "type": "uint256"
        },
        {
          "internalType": "address",
          "name": "_behodler",
          "type": "address"
        }
      ],
      "stateMutability": "nonpayable",
      "type": "constructor"
    },
    {
      "inputs": [
        {
          "internalType": "uint256",
          "name": "allowance",
          "type": "uint256"
        },
        {
          "internalType": "uint256",
          "name": "amount",
          "type": "uint256"
        }
      ],
      "name": "AllowanceExceeded",
      "type": "error"
    },
    {
      "inputs": [
        {
          "internalType": "uint256",
          "name": "allowance",
          "type": "uint256"
        },
        {
          "internalType": "uint256",
          "name": "subtraction",
          "type": "uint256"
        }
      ],
      "name": "AllowanceUnderflow",
      "type": "error"
    },
    {
      "inputs": [
        {
          "internalType": "address",
          "name": "token",
          "type": "address"
        },
        {
          "internalType": "address",
          "name": "spender",
          "type": "address"
        },
        {
          "internalType": "uint256",
          "name": "amount",
          "type": "uint256"
        }
      ],
      "name": "ApproveToNonZero",
      "type": "error"
    },
    {
      "inputs": [
        {
          "internalType": "address",
          "name": "inputToken",
          "type": "address"
        },
        {
          "internalType": "uint256",
          "name": "actualAmount",
          "type": "uint256"
        },
        {
          "internalType": "uint256",
          "name": "expectedAmount",
          "type": "uint256"
        }
      ],
      "name": "BehodlerSwapOutInvariantViolated",
      "type": "error"
    },
    {
      "inputs": [
        {
          "internalType": "uint256",
          "name": "accountBalance",
          "type": "uint256"
        },
        {
          "internalType": "uint256",
          "name": "amount",
          "type": "uint256"
        }
      ],
      "name": "BurnUnderflow",
      "type": "error"
    },
    {
      "inputs": [
        {
          "internalType": "uint256",
          "name": "balance",
          "type": "uint256"
        },
        {
          "internalType": "uint256",
          "name": "value",
          "type": "uint256"
        }
      ],
      "name": "InsufficinetFunds",
      "type": "error"
    },
    {
      "inputs": [
        {
          "internalType": "address",
          "name": "EOA",
          "type": "address"
        }
      ],
      "name": "NotAContract",
      "type": "error"
    },
    {
      "inputs": [
        {
          "internalType": "address",
          "name": "sender",
          "type": "address"
        },
        {
          "internalType": "address",
          "name": "proxy",
          "type": "address"
        }
      ],
      "name": "OnlyProxy",
      "type": "error"
    },
    {
      "inputs": [],
      "name": "OperationFailure",
      "type": "error"
    },
    {
      "inputs": [
        {
          "internalType": "uint256",
          "name": "blockNumber",
          "type": "uint256"
        },
        {
          "internalType": "uint256",
          "name": "priorBlockNumber",
          "type": "uint256"
        }
      ],
      "name": "SlippageManipulationPrevention",
      "type": "error"
    },
    {
      "inputs": [
        {
          "internalType": "uint256",
          "name": "senderBalance",
          "type": "uint256"
        },
        {
          "internalType": "uint256",
          "name": "fee",
          "type": "uint256"
        },
        {
          "internalType": "uint256",
          "name": "amount",
          "type": "uint256"
        }
      ],
      "name": "TransferUnderflow",
      "type": "error"
    },
    {
      "anonymous": false,
      "inputs": [
        {
          "indexed": true,
          "internalType": "address",
          "name": "owner",
          "type": "address"
        },
        {
          "indexed": true,
          "internalType": "address",
          "name": "spender",
          "type": "address"
        },
        {
          "indexed": false,
          "internalType": "uint256",
          "name": "value",
          "type": "uint256"
        }
      ],
      "name": "Approval",
      "type": "event"
    },
    {
      "anonymous": false,
      "inputs": [
        {
          "indexed": true,
          "internalType": "address",
          "name": "from",
          "type": "address"
        },
        {
          "indexed": true,
          "internalType": "address",
          "name": "to",
          "type": "address"
        },
        {
          "indexed": false,
          "internalType": "uint256",
          "name": "value",
          "type": "uint256"
        }
      ],
      "name": "Transfer",
      "type": "event"
    },
    {
      "inputs": [
        {
          "internalType": "address",
          "name": "owner",
          "type": "address"
        },
        {
          "internalType": "address",
          "name": "spender",
          "type": "address"
        }
      ],
      "name": "allowance",
      "outputs": [
        {
          "internalType": "uint256",
          "name": "",
          "type": "uint256"
        }
      ],
      "stateMutability": "view",
      "type": "function"
    },
    {
      "inputs": [
        {
          "internalType": "address",
          "name": "spender",
          "type": "address"
        },
        {
          "internalType": "uint256",
          "name": "amount",
          "type": "uint256"
        }
      ],
      "name": "approve",
      "outputs": [
        {
          "internalType": "bool",
          "name": "",
          "type": "bool"
        }
      ],
      "stateMutability": "nonpayable",
      "type": "function"
    },
    {
      "inputs": [],
      "name": "approveBehodler",
      "outputs": [],
      "stateMutability": "nonpayable",
      "type": "function"
    },
    {
      "inputs": [
        {
          "internalType": "address",
          "name": "account",
          "type": "address"
        }
      ],
      "name": "balanceOf",
      "outputs": [
        {
          "internalType": "uint256",
          "name": "",
          "type": "uint256"
        }
      ],
      "stateMutability": "view",
      "type": "function"
    },
    {
      "inputs": [],
      "name": "baseToken",
      "outputs": [
        {
          "internalType": "address",
          "name": "",
          "type": "address"
        }
      ],
      "stateMutability": "view",
      "type": "function"
    },
    {
      "inputs": [],
      "name": "decimals",
      "outputs": [
        {
          "internalType": "uint8",
          "name": "",
          "type": "uint8"
        }
      ],
      "stateMutability": "view",
      "type": "function"
    },
    {
      "inputs": [
        {
          "internalType": "address",
          "name": "spender",
          "type": "address"
        },
        {
          "internalType": "uint256",
          "name": "subtractedValue",
          "type": "uint256"
        }
      ],
      "name": "decreaseAllowance",
      "outputs": [
        {
          "internalType": "bool",
          "name": "",
          "type": "bool"
        }
      ],
      "stateMutability": "nonpayable",
      "type": "function"
    },
    {
      "inputs": [
        {
          "internalType": "address",
          "name": "spender",
          "type": "address"
        },
        {
          "internalType": "uint256",
          "name": "addedValue",
          "type": "uint256"
        }
      ],
      "name": "increaseAllowance",
      "outputs": [
        {
          "internalType": "bool",
          "name": "",
          "type": "bool"
        }
      ],
      "stateMutability": "nonpayable",
      "type": "function"
    },
    {
      "inputs": [
        {
          "internalType": "address",
          "name": "newProxy",
          "type": "address"
        }
      ],
      "name": "migrateBaseReserveToNewProxy",
      "outputs": [],
      "stateMutability": "nonpayable",
      "type": "function"
    },
    {
      "inputs": [],
      "name": "name",
      "outputs": [
        {
          "internalType": "string",
          "name": "",
          "type": "string"
        }
      ],
      "stateMutability": "view",
      "type": "function"
    },
    {
      "inputs": [],
      "name": "proxyRegistry",
      "outputs": [
        {
          "internalType": "address",
          "name": "",
          "type": "address"
        }
      ],
      "stateMutability": "view",
      "type": "function"
    },
    {
      "inputs": [
        {
          "internalType": "address",
          "name": "proxySource",
          "type": "address"
        },
        {
          "internalType": "address",
          "name": "baseRecipient",
          "type": "address"
        },
        {
          "internalType": "uint256",
          "name": "amount",
          "type": "uint256"
        }
      ],
      "name": "redeem",
      "outputs": [
        {
          "internalType": "uint256",
          "name": "baseAmount",
          "type": "uint256"
        }
      ],
      "stateMutability": "nonpayable",
      "type": "function"
    },
    {
      "inputs": [],
      "name": "redeemRate",
      "outputs": [
        {
          "internalType": "uint256",
          "name": "",
          "type": "uint256"
        }
      ],
      "stateMutability": "view",
      "type": "function"
    },
    {
      "inputs": [],
      "name": "referenceMultiple",
      "outputs": [
        {
          "internalType": "uint256",
          "name": "",
          "type": "uint256"
        }
      ],
      "stateMutability": "view",
      "type": "function"
    },
    {
      "inputs": [],
      "name": "referenceToken",
      "outputs": [
        {
          "internalType": "address",
          "name": "",
          "type": "address"
        }
      ],
      "stateMutability": "view",
      "type": "function"
    },
    {
      "inputs": [
        {
          "internalType": "address",
          "name": "outputRecipient",
          "type": "address"
        },
        {
          "internalType": "address",
          "name": "outputToken",
          "type": "address"
        },
        {
          "internalType": "uint256",
          "name": "outputAmount",
          "type": "uint256"
        },
        {
          "internalType": "uint256",
          "name": "baseTokenAmount",
          "type": "uint256"
        }
      ],
      "name": "swapAsInput",
      "outputs": [
        {
          "internalType": "bool",
          "name": "",
          "type": "bool"
        }
      ],
      "stateMutability": "nonpayable",
      "type": "function"
    },
    {
      "inputs": [
        {
          "internalType": "address",
          "name": "outputRecipient",
          "type": "address"
        },
        {
          "internalType": "address",
          "name": "input",
          "type": "address"
        },
        {
          "internalType": "uint256",
          "name": "proxyTokensToRelease",
          "type": "uint256"
        },
        {
          "internalType": "uint256",
          "name": "expectedInputAmount",
          "type": "uint256"
        }
      ],
      "name": "swapAsOuput",
      "outputs": [
        {
          "internalType": "bool",
          "name": "",
          "type": "bool"
        }
      ],
      "stateMutability": "nonpayable",
      "type": "function"
    },
    {
      "inputs": [],
      "name": "symbol",
      "outputs": [
        {
          "internalType": "string",
          "name": "",
          "type": "string"
        }
      ],
      "stateMutability": "view",
      "type": "function"
    },
    {
      "inputs": [],
      "name": "totalSupply",
      "outputs": [
        {
          "internalType": "uint256",
          "name": "",
          "type": "uint256"
        }
      ],
      "stateMutability": "view",
      "type": "function"
    },
    {
      "inputs": [
        {
          "internalType": "address",
          "name": "recipient",
          "type": "address"
        },
        {
          "internalType": "uint256",
          "name": "amount",
          "type": "uint256"
        }
      ],
      "name": "transfer",
      "outputs": [
        {
          "internalType": "bool",
          "name": "",
          "type": "bool"
        }
      ],
      "stateMutability": "nonpayable",
      "type": "function"
    },
    {
      "inputs": [
        {
          "internalType": "address",
          "name": "sender",
          "type": "address"
        },
        {
          "internalType": "address",
          "name": "recipient",
          "type": "address"
        },
        {
          "internalType": "uint256",
          "name": "amount",
          "type": "uint256"
        }
      ],
      "name": "transferFrom",
      "outputs": [
        {
          "internalType": "bool",
          "name": "",
          "type": "bool"
        }
      ],
      "stateMutability": "nonpayable",
      "type": "function"
    }
  ],
  "bytecode": "0x6101206040523480156200001257600080fd5b5060405162003810380380620038108339818101604052810190620000389190620006fd565b808787878783838383828281600390805190602001906200005b92919062000410565b5080600490805190602001906200007492919062000410565b5050508373ffffffffffffffffffffffffffffffffffffffff1660a08173ffffffffffffffffffffffffffffffffffffffff16815250508073ffffffffffffffffffffffffffffffffffffffff1660808173ffffffffffffffffffffffffffffffffffffffff1681525050505050508473ffffffffffffffffffffffffffffffffffffffff1660c08173ffffffffffffffffffffffffffffffffffffffff168152505050505050508273ffffffffffffffffffffffffffffffffffffffff1660e08173ffffffffffffffffffffffffffffffffffffffff168152505081610100818152505060e05173ffffffffffffffffffffffffffffffffffffffff166370a0823160c0516040518263ffffffff1660e01b8152600401620001989190620007ff565b602060405180830381865afa158015620001b6573d6000803e3d6000fd5b505050506040513d601f19601f82011682018060405250810190620001dc91906200081c565b600560000181905550436005600101819055506200023d6040518060400160405280601381526020017f4265686f646c657220616464726573732025730000000000000000000000000081525060c0516200029b60201b620016ac1760201c565b6200028e6040518060400160405280601f81526020017f636f6e7374727563746f72207072696f7252656642616c616e63653a202564008152506005600001546200034160201b620017481760201c565b5050505050505062000988565b6200033d8282604051602401620002b4929190620008ab565b6040516020818303038152906040527f319af333000000000000000000000000000000000000000000000000000000007bffffffffffffffffffffffffffffffffffffffffffffffffffffffff19166020820180517bffffffffffffffffffffffffffffffffffffffffffffffffffffffff8381831617835250505050620003e760201b60201c565b5050565b620003e382826040516024016200035a929190620008f0565b6040516020818303038152906040527f9710a9d0000000000000000000000000000000000000000000000000000000007bffffffffffffffffffffffffffffffffffffffffffffffffffffffff19166020820180517bffffffffffffffffffffffffffffffffffffffffffffffffffffffff8381831617835250505050620003e760201b60201c565b5050565b60008151905060006a636f6e736f6c652e6c6f679050602083016000808483855afa5050505050565b8280546200041e9062000953565b90600052602060002090601f0160209004810192826200044257600085556200048e565b82601f106200045d57805160ff19168380011785556200048e565b828001600101855582156200048e579182015b828111156200048d57825182559160200191906001019062000470565b5b5090506200049d9190620004a1565b5090565b5b80821115620004bc576000816000905550600101620004a2565b5090565b6000604051905090565b600080fd5b600080fd5b600073ffffffffffffffffffffffffffffffffffffffff82169050919050565b60006200050182620004d4565b9050919050565b6200051381620004f4565b81146200051f57600080fd5b50565b600081519050620005338162000508565b92915050565b600080fd5b600080fd5b6000601f19601f8301169050919050565b7f4e487b7100000000000000000000000000000000000000000000000000000000600052604160045260246000fd5b6200058e8262000543565b810181811067ffffffffffffffff82111715620005b057620005af62000554565b5b80604052505050565b6000620005c5620004c0565b9050620005d3828262000583565b919050565b600067ffffffffffffffff821115620005f657620005f562000554565b5b620006018262000543565b9050602081019050919050565b60005b838110156200062e57808201518184015260208101905062000611565b838111156200063e576000848401525b50505050565b60006200065b6200065584620005d8565b620005b9565b9050828152602081018484840111156200067a57620006796200053e565b5b620006878482856200060e565b509392505050565b600082601f830112620006a757620006a662000539565b5b8151620006b984826020860162000644565b91505092915050565b6000819050919050565b620006d781620006c2565b8114620006e357600080fd5b50565b600081519050620006f781620006cc565b92915050565b600080600080600080600060e0888a0312156200071f576200071e620004ca565b5b60006200072f8a828b0162000522565b975050602088015167ffffffffffffffff811115620007535762000752620004cf565b5b620007618a828b016200068f565b965050604088015167ffffffffffffffff811115620007855762000784620004cf565b5b620007938a828b016200068f565b9550506060620007a68a828b0162000522565b9450506080620007b98a828b0162000522565b93505060a0620007cc8a828b01620006e6565b92505060c0620007df8a828b0162000522565b91505092959891949750929550565b620007f981620004f4565b82525050565b6000602082019050620008166000830184620007ee565b92915050565b600060208284031215620008355762000834620004ca565b5b60006200084584828501620006e6565b91505092915050565b600081519050919050565b600082825260208201905092915050565b600062000877826200084e565b62000883818562000859565b9350620008958185602086016200060e565b620008a08162000543565b840191505092915050565b60006040820190508181036000830152620008c781856200086a565b9050620008d86020830184620007ee565b9392505050565b620008ea81620006c2565b82525050565b600060408201905081810360008301526200090c81856200086a565b90506200091d6020830184620008df565b9392505050565b7f4e487b7100000000000000000000000000000000000000000000000000000000600052602260045260246000fd5b600060028204905060018216806200096c57607f821691505b60208210810362000982576200098162000924565b5b50919050565b60805160a05160c05160e05161010051612db062000a606000396000818161087601528181610d790152610dd201526000818161067e0152610c4e01526000818161089d01528181610c1201528181610cd001528181610e4201528181610e9701528181610f370152818161101a0152818161126f015281816112c401526113c30152600081816104fe0152818161063001528181610afd015281816111000152818161158f01528181611e5001528181611ef20152611f3c015260008181610ad9015281816114db015261152f0152612db06000f3fe608060405234801561001057600080fd5b50600436106101375760003560e01c806369c2faa6116100b8578063b50cbd9f1161007c578063b50cbd9f14610368578063c55dae6314610386578063ca409f4d146103a4578063dd62ed3e146103d4578063ea2cd00c14610404578063ed3b379b1461043457610137565b806369c2faa6146102b057806370a08231146102ba57806395d89b41146102ea578063a457c2d714610308578063a9059cbb1461033857610137565b806318160ddd116100ff57806318160ddd146101f657806323b872dd14610214578063313ce5671461024457806339509351146102625780634e2c172d1461029257610137565b806306fdde031461013c578063095ea7b31461015a5780630adcdbaa1461018a5780630e6dfcd5146101a85780631265b651146101d8575b600080fd5b610144610450565b604051610151919061254c565b60405180910390f35b610174600480360381019061016f9190612607565b6104e2565b6040516101819190612662565b60405180910390f35b6101926104f9565b60405161019f919061268c565b60405180910390f35b6101c260048036038101906101bd91906126a7565b6105f1565b6040516101cf919061268c565b60405180910390f35b6101e061067c565b6040516101ed9190612709565b60405180910390f35b6101fe6106a0565b60405161020b919061268c565b60405180910390f35b61022e600480360381019061022991906126a7565b6106aa565b60405161023b9190612662565b60405180910390f35b61024c6107cd565b6040516102599190612740565b60405180910390f35b61027c60048036038101906102779190612607565b6107d6565b6040516102899190612662565b60405180910390f35b61029a610874565b6040516102a7919061268c565b60405180910390f35b6102b8610898565b005b6102d460048036038101906102cf919061275b565b610905565b6040516102e1919061268c565b60405180910390f35b6102f261094d565b6040516102ff919061254c565b60405180910390f35b610322600480360381019061031d9190612607565b6109df565b60405161032f9190612662565b60405180910390f35b610352600480360381019061034d9190612607565b610ac0565b60405161035f9190612662565b60405180910390f35b610370610ad7565b60405161037d9190612709565b60405180910390f35b61038e610afb565b60405161039b9190612709565b60405180910390f35b6103be60048036038101906103b99190612788565b610b1f565b6040516103cb9190612662565b60405180910390f35b6103ee60048036038101906103e991906127ef565b6111d6565b6040516103fb919061268c565b60405180910390f35b61041e60048036038101906104199190612788565b61125d565b60405161042b9190612662565b60405180910390f35b61044e6004803603810190610449919061275b565b6114d9565b005b60606003805461045f9061285e565b80601f016020809104026020016040519081016040528092919081815260200182805461048b9061285e565b80156104d85780601f106104ad576101008083540402835291602001916104d8565b820191906000526020600020905b8154815290600101906020018083116104bb57829003601f168201915b5050505050905090565b60006104ef3384846117e4565b6001905092915050565b6000807f000000000000000000000000000000000000000000000000000000000000000073ffffffffffffffffffffffffffffffffffffffff166370a08231306040518263ffffffff1660e01b81526004016105559190612709565b602060405180830381865afa158015610572573d6000803e3d6000fd5b505050506040513d601f19601f8201168201806040525081019061059691906128a4565b905060006105a26106a0565b14806105ae5750600081145b156105c457670de0b6b3a76400009150506105ee565b6105cc6106a0565b670de0b6b3a7640000826105e09190612900565b6105ea9190612989565b9150505b90565b6000806105fc6104f9565b905061060885846118cf565b670de0b6b3a7640000818461061d9190612900565b6106279190612989565b915061067484837f000000000000000000000000000000000000000000000000000000000000000073ffffffffffffffffffffffffffffffffffffffff16611a199092919063ffffffff16565b509392505050565b7f000000000000000000000000000000000000000000000000000000000000000081565b6000600254905090565b60006106b7848484611a9f565b6000600160008673ffffffffffffffffffffffffffffffffffffffff1673ffffffffffffffffffffffffffffffffffffffff16815260200190815260200160002060003373ffffffffffffffffffffffffffffffffffffffff1673ffffffffffffffffffffffffffffffffffffffff1681526020019081526020016000205490507fffffffffffffffffffffffffffffffffffffffffffffffffffffffffffffffff811415801561076757508083115b156107ab5780836040517fa92482560000000000000000000000000000000000000000000000000000000081526004016107a29291906129ba565b60405180910390fd5b6107c1853385846107bc91906129e3565b6117e4565b60019150509392505050565b60006012905090565b600061086a338484600160003373ffffffffffffffffffffffffffffffffffffffff1673ffffffffffffffffffffffffffffffffffffffff16815260200190815260200160002060008873ffffffffffffffffffffffffffffffffffffffff1673ffffffffffffffffffffffffffffffffffffffff168152602001908152602001600020546108659190612a17565b6117e4565b6001905092915050565b7f000000000000000000000000000000000000000000000000000000000000000081565b6109037f00000000000000000000000000000000000000000000000000000000000000007fffffffffffffffffffffffffffffffffffffffffffffffffffffffffffffffff3073ffffffffffffffffffffffffffffffffffffffff16611c289092919063ffffffff16565b565b60008060008373ffffffffffffffffffffffffffffffffffffffff1673ffffffffffffffffffffffffffffffffffffffff168152602001908152602001600020549050919050565b60606004805461095c9061285e565b80601f01602080910402602001604051908101604052809291908181526020018280546109889061285e565b80156109d55780601f106109aa576101008083540402835291602001916109d5565b820191906000526020600020905b8154815290600101906020018083116109b857829003601f168201915b5050505050905090565b600080600160003373ffffffffffffffffffffffffffffffffffffffff1673ffffffffffffffffffffffffffffffffffffffff16815260200190815260200160002060008573ffffffffffffffffffffffffffffffffffffffff1673ffffffffffffffffffffffffffffffffffffffff16815260200190815260200160002054905082811015610aa85780836040517fda2d822c000000000000000000000000000000000000000000000000000000008152600401610a9f9291906129ba565b60405180910390fd5b610ab533858584036117e4565b600191505092915050565b6000610acd338484611a9f565b6001905092915050565b7f000000000000000000000000000000000000000000000000000000000000000081565b7f000000000000000000000000000000000000000000000000000000000000000081565b6000806005604051806060016040529081600082015481526020016001820154815260200160028201548152505090506005600101544303610c0e57610b8b604051806060016040528060298152602001612d5260299139826000015183602001518460400151611d7f565b610bca6040518060400160405280601381526020017f61637475616c20626c6f636b206e756d6265720000000000000000000000000081525043611748565b436005600101546040517fa31b34df000000000000000000000000000000000000000000000000000000008152600401610c059291906129ba565b60405180910390fd5b60007f000000000000000000000000000000000000000000000000000000000000000073ffffffffffffffffffffffffffffffffffffffff166370a082317f00000000000000000000000000000000000000000000000000000000000000006040518263ffffffff1660e01b8152600401610c899190612709565b602060405180830381865afa158015610ca6573d6000803e3d6000fd5b505050506040513d601f19601f82011682018060405250810190610cca91906128a4565b905060007f000000000000000000000000000000000000000000000000000000000000000073ffffffffffffffffffffffffffffffffffffffff166370a08231306040518263ffffffff1660e01b8152600401610d279190612709565b602060405180830381865afa158015610d44573d6000803e3d6000fd5b505050506040513d601f19601f82011682018060405250810190610d6891906128a4565b90506000670de0b6b3a764000090507f00000000000000000000000000000000000000000000000000000000000000008460000151610da79190612900565b670de0b6b3a7640000856040015188610dc09190612a17565b610dca9190612900565b1115610e30577f00000000000000000000000000000000000000000000000000000000000000008460000151610e009190612900565b670de0b6b3a7640000856040015188610e199190612a17565b610e239190612900565b610e2d9190612989565b90505b6000610e3e8230338a611e21565b90507f000000000000000000000000000000000000000000000000000000000000000073ffffffffffffffffffffffffffffffffffffffff168973ffffffffffffffffffffffffffffffffffffffff1603610fda5760007f000000000000000000000000000000000000000000000000000000000000000073ffffffffffffffffffffffffffffffffffffffff16635668870030846040518363ffffffff1660e01b8152600401610ef0929190612a6d565b6020604051808303816000875af1158015610f0f573d6000803e3d6000fd5b505050506040513d601f19601f82011682018060405250810190610f3391906128a4565b90507f000000000000000000000000000000000000000000000000000000000000000073ffffffffffffffffffffffffffffffffffffffff1663a9059cbb8c836040518363ffffffff1660e01b8152600401610f90929190612a6d565b6020604051808303816000875af1158015610faf573d6000803e3d6000fd5b505050506040513d601f19601f82011682018060405250810190610fd39190612ac2565b5050611183565b6110186040518060400160405280600d81526020017f41626f757420746f207377617000000000000000000000000000000000000000815250612016565b7f000000000000000000000000000000000000000000000000000000000000000073ffffffffffffffffffffffffffffffffffffffff1663fe029156308b848c6040518563ffffffff1660e01b81526004016110779493929190612aef565b6020604051808303816000875af1158015611096573d6000803e3d6000fd5b505050506040513d601f19601f820116820180604052508101906110ba9190612ac2565b506110f96040518060400160405280601681526020017f61626f757420746f2073616665207472616e7366657200000000000000000000815250612016565b6111448a897f000000000000000000000000000000000000000000000000000000000000000073ffffffffffffffffffffffffffffffffffffffff16611a199092919063ffffffff16565b6111826040518060400160405280601281526020017f73616665207472616e7366657220646f6e650000000000000000000000000000815250612016565b5b838560000181815250504385602001818152505082856040018181525050846005600082015181600001556020820151816001015560408201518160020155905050600195505050505050949350505050565b6000600160008473ffffffffffffffffffffffffffffffffffffffff1673ffffffffffffffffffffffffffffffffffffffff16815260200190815260200160002060008373ffffffffffffffffffffffffffffffffffffffff1673ffffffffffffffffffffffffffffffffffffffff16815260200190815260200160002054905092915050565b60008061126b3330866105f1565b90507f000000000000000000000000000000000000000000000000000000000000000073ffffffffffffffffffffffffffffffffffffffff168573ffffffffffffffffffffffffffffffffffffffff16036114cf5760007f000000000000000000000000000000000000000000000000000000000000000073ffffffffffffffffffffffffffffffffffffffff166306d47de930846040518363ffffffff1660e01b815260040161131d929190612a6d565b6020604051808303816000875af115801561133c573d6000803e3d6000fd5b505050506040513d601f19601f8201168201806040525081019061136091906128a4565b90506104008111801561137b5750600a84901c600a82901c14155b156113c1578581856040517f73a4b3900000000000000000000000000000000000000000000000000000000081526004016113b893929190612b34565b60405180910390fd5b7f000000000000000000000000000000000000000000000000000000000000000073ffffffffffffffffffffffffffffffffffffffff1663fe029156873087896040518563ffffffff1660e01b81526004016114209493929190612aef565b6020604051808303816000875af115801561143f573d6000803e3d6000fd5b505050506040513d601f19601f820116820180604052508101906114639190612ac2565b5060006114713089886105f1565b9050600a81901c600a84901c146114c3578683826040517f73a4b3900000000000000000000000000000000000000000000000000000000081526004016114ba93929190612b34565b60405180910390fd5b506001925050506114d1565b505b949350505050565b7f000000000000000000000000000000000000000000000000000000000000000073ffffffffffffffffffffffffffffffffffffffff163373ffffffffffffffffffffffffffffffffffffffff161461158b57337f00000000000000000000000000000000000000000000000000000000000000006040517fd214286f000000000000000000000000000000000000000000000000000000008152600401611582929190612b6b565b60405180910390fd5b60007f000000000000000000000000000000000000000000000000000000000000000090508073ffffffffffffffffffffffffffffffffffffffff1663a9059cbb838373ffffffffffffffffffffffffffffffffffffffff166370a08231306040518263ffffffff1660e01b81526004016116069190612709565b602060405180830381865afa158015611623573d6000803e3d6000fd5b505050506040513d601f19601f8201168201806040525081019061164791906128a4565b6040518363ffffffff1660e01b8152600401611664929190612a6d565b6020604051808303816000875af1158015611683573d6000803e3d6000fd5b505050506040513d601f19601f820116820180604052508101906116a79190612ac2565b505050565b61174482826040516024016116c2929190612b94565b6040516020818303038152906040527f319af333000000000000000000000000000000000000000000000000000000007bffffffffffffffffffffffffffffffffffffffffffffffffffffffff19166020820180517bffffffffffffffffffffffffffffffffffffffffffffffffffffffff83818316178352505050506120af565b5050565b6117e0828260405160240161175e929190612bc4565b6040516020818303038152906040527f9710a9d0000000000000000000000000000000000000000000000000000000007bffffffffffffffffffffffffffffffffffffffffffffffffffffffff19166020820180517bffffffffffffffffffffffffffffffffffffffffffffffffffffffff83818316178352505050506120af565b5050565b80600160008573ffffffffffffffffffffffffffffffffffffffff1673ffffffffffffffffffffffffffffffffffffffff16815260200190815260200160002060008473ffffffffffffffffffffffffffffffffffffffff1673ffffffffffffffffffffffffffffffffffffffff168152602001908152602001600020819055508173ffffffffffffffffffffffffffffffffffffffff168373ffffffffffffffffffffffffffffffffffffffff167f8c5be1e5ebec7d5bd14f71427d1e84f3dd0314c0f7b2291e5b200ac8c7c3b925836040516118c2919061268c565b60405180910390a3505050565b60008060008473ffffffffffffffffffffffffffffffffffffffff1673ffffffffffffffffffffffffffffffffffffffff168152602001908152602001600020549050818110156119595780826040517f0a37dd410000000000000000000000000000000000000000000000000000000081526004016119509291906129ba565b60405180910390fd5b8181036000808573ffffffffffffffffffffffffffffffffffffffff1673ffffffffffffffffffffffffffffffffffffffff1681526020019081526020016000208190555081600260008282540392505081905550600073ffffffffffffffffffffffffffffffffffffffff168373ffffffffffffffffffffffffffffffffffffffff167fddf252ad1be2c89b69c2b068fc378daa952ba7f163c4a11628f55a4df523b3ef84604051611a0c919061268c565b60405180910390a3505050565b611a9a8363a9059cbb60e01b8484604051602401611a38929190612a6d565b604051602081830303815290604052907bffffffffffffffffffffffffffffffffffffffffffffffffffffffff19166020820180517bffffffffffffffffffffffffffffffffffffffffffffffffffffffff83818316178352505050506120d8565b505050565b60008060008573ffffffffffffffffffffffffffffffffffffffff1673ffffffffffffffffffffffffffffffffffffffff16815260200190815260200160002054905081811015611b2c57806000836040517f57b9c4a4000000000000000000000000000000000000000000000000000000008152600401611b2393929190612c39565b60405180910390fd5b8181036000808673ffffffffffffffffffffffffffffffffffffffff1673ffffffffffffffffffffffffffffffffffffffff16815260200190815260200160002081905550816000808573ffffffffffffffffffffffffffffffffffffffff1673ffffffffffffffffffffffffffffffffffffffff168152602001908152602001600020600082825401925050819055508273ffffffffffffffffffffffffffffffffffffffff168473ffffffffffffffffffffffffffffffffffffffff167fddf252ad1be2c89b69c2b068fc378daa952ba7f163c4a11628f55a4df523b3ef84604051611c1a919061268c565b60405180910390a350505050565b600081118015611cb3575060008373ffffffffffffffffffffffffffffffffffffffff1663dd62ed3e30856040518363ffffffff1660e01b8152600401611c70929190612b6b565b602060405180830381865afa158015611c8d573d6000803e3d6000fd5b505050506040513d601f19601f82011682018060405250810190611cb191906128a4565b115b15611cf9578282826040517fc1a76f6c000000000000000000000000000000000000000000000000000000008152600401611cf093929190612c70565b60405180910390fd5b611d7a8363095ea7b360e01b8484604051602401611d18929190612a6d565b604051602081830303815290604052907bffffffffffffffffffffffffffffffffffffffffffffffffffffffff19166020820180517bffffffffffffffffffffffffffffffffffffffffffffffffffffffff83818316178352505050506120d8565b505050565b611e1b84848484604051602401611d999493929190612ca7565b6040516020818303038152906040527f08ee5666000000000000000000000000000000000000000000000000000000007bffffffffffffffffffffffffffffffffffffffffffffffffffffffff19166020820180517bffffffffffffffffffffffffffffffffffffffffffffffffffffffff83818316178352505050506120af565b50505050565b600080670de0b6b3a764000086611e366104f9565b611e409190612900565b611e4a9190612989565b905060007f000000000000000000000000000000000000000000000000000000000000000073ffffffffffffffffffffffffffffffffffffffff166370a08231306040518263ffffffff1660e01b8152600401611ea79190612709565b602060405180830381865afa158015611ec4573d6000803e3d6000fd5b505050506040513d601f19601f82011682018060405250810190611ee891906128a4565b9050611f378530867f000000000000000000000000000000000000000000000000000000000000000073ffffffffffffffffffffffffffffffffffffffff16612196909392919063ffffffff16565b6000817f000000000000000000000000000000000000000000000000000000000000000073ffffffffffffffffffffffffffffffffffffffff166370a08231306040518263ffffffff1660e01b8152600401611f939190612709565b602060405180830381865afa158015611fb0573d6000803e3d6000fd5b505050506040513d601f19601f82011682018060405250810190611fd491906128a4565b611fde91906129e3565b905082670de0b6b3a764000082611ff59190612900565b611fff9190612989565b935061200b878561221f565b505050949350505050565b6120ac8160405160240161202a919061254c565b6040516020818303038152906040527f41304fac000000000000000000000000000000000000000000000000000000007bffffffffffffffffffffffffffffffffffffffffffffffffffffffff19166020820180517bffffffffffffffffffffffffffffffffffffffffffffffffffffffff83818316178352505050506120af565b50565b60008151905060006a636f6e736f6c652e6c6f679050602083016000808483855afa5050505050565b600061213a826040518060400160405280602081526020017f5361666545524332303a206c6f772d6c6576656c2063616c6c206661696c65648152508573ffffffffffffffffffffffffffffffffffffffff166122f79092919063ffffffff16565b9050600081511115612191578080602001905181019061215a9190612ac2565b612190576040517fa479450200000000000000000000000000000000000000000000000000000000815260040160405180910390fd5b5b505050565b612219846323b872dd60e01b8585856040516024016121b793929190612c70565b604051602081830303815290604052907bffffffffffffffffffffffffffffffffffffffffffffffffffffffff19166020820180517bffffffffffffffffffffffffffffffffffffffffffffffffffffffff83818316178352505050506120d8565b50505050565b80600260008282546122319190612a17565b92505081905550806000808473ffffffffffffffffffffffffffffffffffffffff1673ffffffffffffffffffffffffffffffffffffffff16815260200190815260200160002060008282546122869190612a17565b925050819055508173ffffffffffffffffffffffffffffffffffffffff16600073ffffffffffffffffffffffffffffffffffffffff167fddf252ad1be2c89b69c2b068fc378daa952ba7f163c4a11628f55a4df523b3ef836040516122eb919061268c565b60405180910390a35050565b6060612306848460008561230f565b90509392505050565b6060824710156123585747836040517f02de226f00000000000000000000000000000000000000000000000000000000815260040161234f9291906129ba565b60405180910390fd5b61236185612429565b6123a257846040517f8a8b41ec0000000000000000000000000000000000000000000000000000000081526004016123999190612709565b60405180910390fd5b6000808673ffffffffffffffffffffffffffffffffffffffff1685876040516123cb9190612d3a565b60006040518083038185875af1925050503d8060008114612408576040519150601f19603f3d011682016040523d82523d6000602084013e61240d565b606091505b509150915061241d82828661244c565b92505050949350505050565b6000808273ffffffffffffffffffffffffffffffffffffffff163b119050919050565b6060831561245c578290506124ac565b60008351111561246f5782518084602001fd5b816040517f08c379a00000000000000000000000000000000000000000000000000000000081526004016124a3919061254c565b60405180910390fd5b9392505050565b600081519050919050565b600082825260208201905092915050565b60005b838110156124ed5780820151818401526020810190506124d2565b838111156124fc576000848401525b50505050565b6000601f19601f8301169050919050565b600061251e826124b3565b61252881856124be565b93506125388185602086016124cf565b61254181612502565b840191505092915050565b600060208201905081810360008301526125668184612513565b905092915050565b600080fd5b600073ffffffffffffffffffffffffffffffffffffffff82169050919050565b600061259e82612573565b9050919050565b6125ae81612593565b81146125b957600080fd5b50565b6000813590506125cb816125a5565b92915050565b6000819050919050565b6125e4816125d1565b81146125ef57600080fd5b50565b600081359050612601816125db565b92915050565b6000806040838503121561261e5761261d61256e565b5b600061262c858286016125bc565b925050602061263d858286016125f2565b9150509250929050565b60008115159050919050565b61265c81612647565b82525050565b60006020820190506126776000830184612653565b92915050565b612686816125d1565b82525050565b60006020820190506126a1600083018461267d565b92915050565b6000806000606084860312156126c0576126bf61256e565b5b60006126ce868287016125bc565b93505060206126df868287016125bc565b92505060406126f0868287016125f2565b9150509250925092565b61270381612593565b82525050565b600060208201905061271e60008301846126fa565b92915050565b600060ff82169050919050565b61273a81612724565b82525050565b60006020820190506127556000830184612731565b92915050565b6000602082840312156127715761277061256e565b5b600061277f848285016125bc565b91505092915050565b600080600080608085870312156127a2576127a161256e565b5b60006127b0878288016125bc565b94505060206127c1878288016125bc565b93505060406127d2878288016125f2565b92505060606127e3878288016125f2565b91505092959194509250565b600080604083850312156128065761280561256e565b5b6000612814858286016125bc565b9250506020612825858286016125bc565b9150509250929050565b7f4e487b7100000000000000000000000000000000000000000000000000000000600052602260045260246000fd5b6000600282049050600182168061287657607f821691505b6020821081036128895761288861282f565b5b50919050565b60008151905061289e816125db565b92915050565b6000602082840312156128ba576128b961256e565b5b60006128c88482850161288f565b91505092915050565b7f4e487b7100000000000000000000000000000000000000000000000000000000600052601160045260246000fd5b600061290b826125d1565b9150612916836125d1565b9250817fffffffffffffffffffffffffffffffffffffffffffffffffffffffffffffffff048311821515161561294f5761294e6128d1565b5b828202905092915050565b7f4e487b7100000000000000000000000000000000000000000000000000000000600052601260045260246000fd5b6000612994826125d1565b915061299f836125d1565b9250826129af576129ae61295a565b5b828204905092915050565b60006040820190506129cf600083018561267d565b6129dc602083018461267d565b9392505050565b60006129ee826125d1565b91506129f9836125d1565b925082821015612a0c57612a0b6128d1565b5b828203905092915050565b6000612a22826125d1565b9150612a2d836125d1565b9250827fffffffffffffffffffffffffffffffffffffffffffffffffffffffffffffffff03821115612a6257612a616128d1565b5b828201905092915050565b6000604082019050612a8260008301856126fa565b612a8f602083018461267d565b9392505050565b612a9f81612647565b8114612aaa57600080fd5b50565b600081519050612abc81612a96565b92915050565b600060208284031215612ad857612ad761256e565b5b6000612ae684828501612aad565b91505092915050565b6000608082019050612b0460008301876126fa565b612b1160208301866126fa565b612b1e604083018561267d565b612b2b606083018461267d565b95945050505050565b6000606082019050612b4960008301866126fa565b612b56602083018561267d565b612b63604083018461267d565b949350505050565b6000604082019050612b8060008301856126fa565b612b8d60208301846126fa565b9392505050565b60006040820190508181036000830152612bae8185612513565b9050612bbd60208301846126fa565b9392505050565b60006040820190508181036000830152612bde8185612513565b9050612bed602083018461267d565b9392505050565b6000819050919050565b6000819050919050565b6000612c23612c1e612c1984612bf4565b612bfe565b6125d1565b9050919050565b612c3381612c08565b82525050565b6000606082019050612c4e600083018661267d565b612c5b6020830185612c2a565b612c68604083018461267d565b949350505050565b6000606082019050612c8560008301866126fa565b612c9260208301856126fa565b612c9f604083018461267d565b949350505050565b60006080820190508181036000830152612cc18187612513565b9050612cd0602083018661267d565b612cdd604083018561267d565b612cea606083018461267d565b95945050505050565b600081519050919050565b600081905092915050565b6000612d1482612cf3565b612d1e8185612cfe565b9350612d2e8185602086016124cf565b80840191505092915050565b6000612d468284612d09565b91508190509291505056fe7072696f7252656642616c616e63652c20626c6f636b4e756d6265722c207468697342616c616e6365a2646970667358221220d62a79115e27a51000490c5facda0cf086991854f40fa28333b4e4d732e4bc1b64736f6c634300080d0033",
  "linkReferences": {},
  "deployedLinkReferences": {}
}