{
  "_format": "hh-sol-artifact-1",
  "contractName": "CliffFace",
  "sourceName": "contracts/TokenProxies/CliffFace.sol",
  "abi": [
    {
      "inputs": [
        {
          "internalType": "address",
          "name": "_baseToken",
          "type": "address"
        },
        {
          "internalType": "string",
          "name": "name_",
          "type": "string"
        },
        {
          "internalType": "string",
          "name": "symbol_",
          "type": "string"
        },
        {
          "internalType": "address",
          "name": "registry",
          "type": "address"
        },
        {
          "internalType": "address",
          "name": "_referenceToken",
          "type": "address"
        },
        {
          "internalType": "uint256",
          "name": "multiple",
          "type": "uint256"
        },
        {
          "internalType": "address",
          "name": "_behodler",
          "type": "address"
        }
      ],
      "stateMutability": "nonpayable",
      "type": "constructor"
    },
    {
      "inputs": [
        {
          "internalType": "uint256",
          "name": "allowance",
          "type": "uint256"
        },
        {
          "internalType": "uint256",
          "name": "amount",
          "type": "uint256"
        }
      ],
      "name": "AllowanceExceeded",
      "type": "error"
    },
    {
      "inputs": [
        {
          "internalType": "uint256",
          "name": "allowance",
          "type": "uint256"
        },
        {
          "internalType": "uint256",
          "name": "subtraction",
          "type": "uint256"
        }
      ],
      "name": "AllowanceUnderflow",
      "type": "error"
    },
    {
      "inputs": [
        {
          "internalType": "address",
          "name": "inputToken",
          "type": "address"
        },
        {
          "internalType": "uint256",
          "name": "actualAmount",
          "type": "uint256"
        },
        {
          "internalType": "uint256",
          "name": "expectedAmount",
          "type": "uint256"
        }
      ],
      "name": "BehodlerSwapOutInvariantViolated",
      "type": "error"
    },
    {
      "inputs": [
        {
          "internalType": "uint256",
          "name": "accountBalance",
          "type": "uint256"
        },
        {
          "internalType": "uint256",
          "name": "amount",
          "type": "uint256"
        }
      ],
      "name": "BurnUnderflow",
      "type": "error"
    },
    {
      "inputs": [
        {
          "internalType": "uint256",
          "name": "balance",
          "type": "uint256"
        },
        {
          "internalType": "uint256",
          "name": "value",
          "type": "uint256"
        }
      ],
      "name": "InsufficinetFunds",
      "type": "error"
    },
    {
      "inputs": [
        {
          "internalType": "address",
          "name": "EOA",
          "type": "address"
        }
      ],
      "name": "NotAContract",
      "type": "error"
    },
    {
      "inputs": [
        {
          "internalType": "address",
          "name": "sender",
          "type": "address"
        },
        {
          "internalType": "address",
          "name": "proxy",
          "type": "address"
        }
      ],
      "name": "OnlyProxy",
      "type": "error"
    },
    {
      "inputs": [],
      "name": "OperationFailure",
      "type": "error"
    },
    {
      "inputs": [
        {
          "internalType": "uint256",
          "name": "blockNumber",
          "type": "uint256"
        },
        {
          "internalType": "uint256",
          "name": "priorBlockNumber",
          "type": "uint256"
        }
      ],
      "name": "SlippageManipulationPrevention",
      "type": "error"
    },
    {
      "inputs": [
        {
          "internalType": "uint256",
          "name": "senderBalance",
          "type": "uint256"
        },
        {
          "internalType": "uint256",
          "name": "fee",
          "type": "uint256"
        },
        {
          "internalType": "uint256",
          "name": "amount",
          "type": "uint256"
        }
      ],
      "name": "TransferUnderflow",
      "type": "error"
    },
    {
      "anonymous": false,
      "inputs": [
        {
          "indexed": true,
          "internalType": "address",
          "name": "owner",
          "type": "address"
        },
        {
          "indexed": true,
          "internalType": "address",
          "name": "spender",
          "type": "address"
        },
        {
          "indexed": false,
          "internalType": "uint256",
          "name": "value",
          "type": "uint256"
        }
      ],
      "name": "Approval",
      "type": "event"
    },
    {
      "anonymous": false,
      "inputs": [
        {
          "indexed": true,
          "internalType": "address",
          "name": "from",
          "type": "address"
        },
        {
          "indexed": true,
          "internalType": "address",
          "name": "to",
          "type": "address"
        },
        {
          "indexed": false,
          "internalType": "uint256",
          "name": "value",
          "type": "uint256"
        }
      ],
      "name": "Transfer",
      "type": "event"
    },
    {
      "inputs": [
        {
          "internalType": "address",
          "name": "owner",
          "type": "address"
        },
        {
          "internalType": "address",
          "name": "spender",
          "type": "address"
        }
      ],
      "name": "allowance",
      "outputs": [
        {
          "internalType": "uint256",
          "name": "",
          "type": "uint256"
        }
      ],
      "stateMutability": "view",
      "type": "function"
    },
    {
      "inputs": [
        {
          "internalType": "address",
          "name": "spender",
          "type": "address"
        },
        {
          "internalType": "uint256",
          "name": "amount",
          "type": "uint256"
        }
      ],
      "name": "approve",
      "outputs": [
        {
          "internalType": "bool",
          "name": "",
          "type": "bool"
        }
      ],
      "stateMutability": "nonpayable",
      "type": "function"
    },
    {
      "inputs": [
        {
          "internalType": "address",
          "name": "account",
          "type": "address"
        }
      ],
      "name": "balanceOf",
      "outputs": [
        {
          "internalType": "uint256",
          "name": "",
          "type": "uint256"
        }
      ],
      "stateMutability": "view",
      "type": "function"
    },
    {
      "inputs": [],
      "name": "baseToken",
      "outputs": [
        {
          "internalType": "address",
          "name": "",
          "type": "address"
        }
      ],
      "stateMutability": "view",
      "type": "function"
    },
    {
      "inputs": [],
      "name": "decimals",
      "outputs": [
        {
          "internalType": "uint8",
          "name": "",
          "type": "uint8"
        }
      ],
      "stateMutability": "view",
      "type": "function"
    },
    {
      "inputs": [
        {
          "internalType": "address",
          "name": "spender",
          "type": "address"
        },
        {
          "internalType": "uint256",
          "name": "subtractedValue",
          "type": "uint256"
        }
      ],
      "name": "decreaseAllowance",
      "outputs": [
        {
          "internalType": "bool",
          "name": "",
          "type": "bool"
        }
      ],
      "stateMutability": "nonpayable",
      "type": "function"
    },
    {
      "inputs": [
        {
          "internalType": "address",
          "name": "spender",
          "type": "address"
        },
        {
          "internalType": "uint256",
          "name": "addedValue",
          "type": "uint256"
        }
      ],
      "name": "increaseAllowance",
      "outputs": [
        {
          "internalType": "bool",
          "name": "",
          "type": "bool"
        }
      ],
      "stateMutability": "nonpayable",
      "type": "function"
    },
    {
      "inputs": [
        {
          "internalType": "address",
          "name": "newProxy",
          "type": "address"
        }
      ],
      "name": "migrateBaseReserveToNewProxy",
      "outputs": [],
      "stateMutability": "nonpayable",
      "type": "function"
    },
    {
      "inputs": [],
      "name": "name",
      "outputs": [
        {
          "internalType": "string",
          "name": "",
          "type": "string"
        }
      ],
      "stateMutability": "view",
      "type": "function"
    },
    {
      "inputs": [],
      "name": "proxyRegistry",
      "outputs": [
        {
          "internalType": "address",
          "name": "",
          "type": "address"
        }
      ],
      "stateMutability": "view",
      "type": "function"
    },
    {
      "inputs": [
        {
          "internalType": "address",
          "name": "proxySource",
          "type": "address"
        },
        {
          "internalType": "address",
          "name": "baseRecipient",
          "type": "address"
        },
        {
          "internalType": "uint256",
          "name": "amount",
          "type": "uint256"
        }
      ],
      "name": "redeem",
      "outputs": [
        {
          "internalType": "uint256",
          "name": "baseAmount",
          "type": "uint256"
        }
      ],
      "stateMutability": "nonpayable",
      "type": "function"
    },
    {
      "inputs": [],
      "name": "redeemRate",
      "outputs": [
        {
          "internalType": "uint256",
          "name": "",
          "type": "uint256"
        }
      ],
      "stateMutability": "view",
      "type": "function"
    },
    {
      "inputs": [],
      "name": "referenceMultiple",
      "outputs": [
        {
          "internalType": "uint256",
          "name": "",
          "type": "uint256"
        }
      ],
      "stateMutability": "view",
      "type": "function"
    },
    {
      "inputs": [],
      "name": "referenceToken",
      "outputs": [
        {
          "internalType": "address",
          "name": "",
          "type": "address"
        }
      ],
      "stateMutability": "view",
      "type": "function"
    },
    {
      "inputs": [
        {
          "internalType": "address",
          "name": "outputRecipient",
          "type": "address"
        },
        {
          "internalType": "address",
          "name": "outputToken",
          "type": "address"
        },
        {
          "internalType": "uint256",
          "name": "outputAmount",
          "type": "uint256"
        },
        {
          "internalType": "uint256",
          "name": "baseTokenAmount",
          "type": "uint256"
        }
      ],
      "name": "swapAsInput",
      "outputs": [
        {
          "internalType": "bool",
          "name": "",
          "type": "bool"
        }
      ],
      "stateMutability": "nonpayable",
      "type": "function"
    },
    {
      "inputs": [
        {
          "internalType": "address",
          "name": "outputRecipient",
          "type": "address"
        },
        {
          "internalType": "address",
          "name": "input",
          "type": "address"
        },
        {
          "internalType": "uint256",
          "name": "proxyTokensToRelease",
          "type": "uint256"
        },
        {
          "internalType": "uint256",
          "name": "expectedInputAmount",
          "type": "uint256"
        }
      ],
      "name": "swapAsOuput",
      "outputs": [
        {
          "internalType": "bool",
          "name": "",
          "type": "bool"
        }
      ],
      "stateMutability": "nonpayable",
      "type": "function"
    },
    {
      "inputs": [],
      "name": "symbol",
      "outputs": [
        {
          "internalType": "string",
          "name": "",
          "type": "string"
        }
      ],
      "stateMutability": "view",
      "type": "function"
    },
    {
      "inputs": [],
      "name": "totalSupply",
      "outputs": [
        {
          "internalType": "uint256",
          "name": "",
          "type": "uint256"
        }
      ],
      "stateMutability": "view",
      "type": "function"
    },
    {
      "inputs": [
        {
          "internalType": "address",
          "name": "recipient",
          "type": "address"
        },
        {
          "internalType": "uint256",
          "name": "amount",
          "type": "uint256"
        }
      ],
      "name": "transfer",
      "outputs": [
        {
          "internalType": "bool",
          "name": "",
          "type": "bool"
        }
      ],
      "stateMutability": "nonpayable",
      "type": "function"
    },
    {
      "inputs": [
        {
          "internalType": "address",
          "name": "sender",
          "type": "address"
        },
        {
          "internalType": "address",
          "name": "recipient",
          "type": "address"
        },
        {
          "internalType": "uint256",
          "name": "amount",
          "type": "uint256"
        }
      ],
      "name": "transferFrom",
      "outputs": [
        {
          "internalType": "bool",
          "name": "",
          "type": "bool"
        }
      ],
      "stateMutability": "nonpayable",
      "type": "function"
    }
  ],
  "bytecode": "0x6101206040523480156200001257600080fd5b50604051620034dd380380620034dd8339818101604052810190620000389190620006fd565b808787878783838383828281600390805190602001906200005b92919062000410565b5080600490805190602001906200007492919062000410565b5050508373ffffffffffffffffffffffffffffffffffffffff1660a08173ffffffffffffffffffffffffffffffffffffffff16815250508073ffffffffffffffffffffffffffffffffffffffff1660808173ffffffffffffffffffffffffffffffffffffffff1681525050505050508473ffffffffffffffffffffffffffffffffffffffff1660c08173ffffffffffffffffffffffffffffffffffffffff168152505050505050508273ffffffffffffffffffffffffffffffffffffffff1660e08173ffffffffffffffffffffffffffffffffffffffff168152505081610100818152505060e05173ffffffffffffffffffffffffffffffffffffffff166370a0823160c0516040518263ffffffff1660e01b8152600401620001989190620007ff565b602060405180830381865afa158015620001b6573d6000803e3d6000fd5b505050506040513d601f19601f82011682018060405250810190620001dc91906200081c565b600560000181905550436005600101819055506200023d6040518060400160405280601381526020017f4265686f646c657220616464726573732025730000000000000000000000000081525060c0516200029b60201b620015701760201c565b6200028e6040518060400160405280601f81526020017f636f6e7374727563746f72207072696f7252656642616c616e63653a202564008152506005600001546200034160201b6200160c1760201c565b5050505050505062000988565b6200033d8282604051602401620002b4929190620008ab565b6040516020818303038152906040527f319af333000000000000000000000000000000000000000000000000000000007bffffffffffffffffffffffffffffffffffffffffffffffffffffffff19166020820180517bffffffffffffffffffffffffffffffffffffffffffffffffffffffff8381831617835250505050620003e760201b60201c565b5050565b620003e382826040516024016200035a929190620008f0565b6040516020818303038152906040527f9710a9d0000000000000000000000000000000000000000000000000000000007bffffffffffffffffffffffffffffffffffffffffffffffffffffffff19166020820180517bffffffffffffffffffffffffffffffffffffffffffffffffffffffff8381831617835250505050620003e760201b60201c565b5050565b60008151905060006a636f6e736f6c652e6c6f679050602083016000808483855afa5050505050565b8280546200041e9062000953565b90600052602060002090601f0160209004810192826200044257600085556200048e565b82601f106200045d57805160ff19168380011785556200048e565b828001600101855582156200048e579182015b828111156200048d57825182559160200191906001019062000470565b5b5090506200049d9190620004a1565b5090565b5b80821115620004bc576000816000905550600101620004a2565b5090565b6000604051905090565b600080fd5b600080fd5b600073ffffffffffffffffffffffffffffffffffffffff82169050919050565b60006200050182620004d4565b9050919050565b6200051381620004f4565b81146200051f57600080fd5b50565b600081519050620005338162000508565b92915050565b600080fd5b600080fd5b6000601f19601f8301169050919050565b7f4e487b7100000000000000000000000000000000000000000000000000000000600052604160045260246000fd5b6200058e8262000543565b810181811067ffffffffffffffff82111715620005b057620005af62000554565b5b80604052505050565b6000620005c5620004c0565b9050620005d3828262000583565b919050565b600067ffffffffffffffff821115620005f657620005f562000554565b5b620006018262000543565b9050602081019050919050565b60005b838110156200062e57808201518184015260208101905062000611565b838111156200063e576000848401525b50505050565b60006200065b6200065584620005d8565b620005b9565b9050828152602081018484840111156200067a57620006796200053e565b5b620006878482856200060e565b509392505050565b600082601f830112620006a757620006a662000539565b5b8151620006b984826020860162000644565b91505092915050565b6000819050919050565b620006d781620006c2565b8114620006e357600080fd5b50565b600081519050620006f781620006cc565b92915050565b600080600080600080600060e0888a0312156200071f576200071e620004ca565b5b60006200072f8a828b0162000522565b975050602088015167ffffffffffffffff811115620007535762000752620004cf565b5b620007618a828b016200068f565b965050604088015167ffffffffffffffff811115620007855762000784620004cf565b5b620007938a828b016200068f565b9550506060620007a68a828b0162000522565b9450506080620007b98a828b0162000522565b93505060a0620007cc8a828b01620006e6565b92505060c0620007df8a828b0162000522565b91505092959891949750929550565b620007f981620004f4565b82525050565b6000602082019050620008166000830184620007ee565b92915050565b600060208284031215620008355762000834620004ca565b5b60006200084584828501620006e6565b91505092915050565b600081519050919050565b600082825260208201905092915050565b600062000877826200084e565b62000883818562000859565b9350620008958185602086016200060e565b620008a08162000543565b840191505092915050565b60006040820190508181036000830152620008c781856200086a565b9050620008d86020830184620007ee565b9392505050565b620008ea81620006c2565b82525050565b600060408201905081810360008301526200090c81856200086a565b90506200091d6020830184620008df565b9392505050565b7f4e487b7100000000000000000000000000000000000000000000000000000000600052602260045260246000fd5b600060028204905060018216806200096c57607f821691505b60208210810362000982576200098162000924565b5b50919050565b60805160a05160c05160e05161010051612a8462000a596000396000818161086101528181610cf70152610d500152600081816106690152610bcc015260008181610b9001528181610c4e01528181610dc001528181610e1501528181610eb501528181610f5a015281816111330152818161118801526112870152600081816104e90152818161061b01528181610a7b015281816110020152818161145301528181611bbd01528181611c5f0152611ca9015260008181610a570152818161139f01526113f30152612a846000f3fe608060405234801561001057600080fd5b506004361061012c5760003560e01c806370a08231116100ad578063c55dae6311610071578063c55dae6314610371578063ca409f4d1461038f578063dd62ed3e146103bf578063ea2cd00c146103ef578063ed3b379b1461041f5761012c565b806370a08231146102a557806395d89b41146102d5578063a457c2d7146102f3578063a9059cbb14610323578063b50cbd9f146103535761012c565b806318160ddd116100f457806318160ddd146101eb57806323b872dd14610209578063313ce5671461023957806339509351146102575780634e2c172d146102875761012c565b806306fdde0314610131578063095ea7b31461014f5780630adcdbaa1461017f5780630e6dfcd51461019d5780631265b651146101cd575b600080fd5b61013961043b565b6040516101469190612220565b60405180910390f35b610169600480360381019061016491906122db565b6104cd565b6040516101769190612336565b60405180910390f35b6101876104e4565b6040516101949190612360565b60405180910390f35b6101b760048036038101906101b2919061237b565b6105dc565b6040516101c49190612360565b60405180910390f35b6101d5610667565b6040516101e291906123dd565b60405180910390f35b6101f361068b565b6040516102009190612360565b60405180910390f35b610223600480360381019061021e919061237b565b610695565b6040516102309190612336565b60405180910390f35b6102416107b8565b60405161024e9190612414565b60405180910390f35b610271600480360381019061026c91906122db565b6107c1565b60405161027e9190612336565b60405180910390f35b61028f61085f565b60405161029c9190612360565b60405180910390f35b6102bf60048036038101906102ba919061242f565b610883565b6040516102cc9190612360565b60405180910390f35b6102dd6108cb565b6040516102ea9190612220565b60405180910390f35b61030d600480360381019061030891906122db565b61095d565b60405161031a9190612336565b60405180910390f35b61033d600480360381019061033891906122db565b610a3e565b60405161034a9190612336565b60405180910390f35b61035b610a55565b60405161036891906123dd565b60405180910390f35b610379610a79565b60405161038691906123dd565b60405180910390f35b6103a960048036038101906103a4919061245c565b610a9d565b6040516103b69190612336565b60405180910390f35b6103d960048036038101906103d491906124c3565b61109a565b6040516103e69190612360565b60405180910390f35b6104096004803603810190610404919061245c565b611121565b6040516104169190612336565b60405180910390f35b6104396004803603810190610434919061242f565b61139d565b005b60606003805461044a90612532565b80601f016020809104026020016040519081016040528092919081815260200182805461047690612532565b80156104c35780601f10610498576101008083540402835291602001916104c3565b820191906000526020600020905b8154815290600101906020018083116104a657829003601f168201915b5050505050905090565b60006104da3384846116a8565b6001905092915050565b6000807f000000000000000000000000000000000000000000000000000000000000000073ffffffffffffffffffffffffffffffffffffffff166370a08231306040518263ffffffff1660e01b815260040161054091906123dd565b602060405180830381865afa15801561055d573d6000803e3d6000fd5b505050506040513d601f19601f820116820180604052508101906105819190612578565b9050600061058d61068b565b14806105995750600081145b156105af57670de0b6b3a76400009150506105d9565b6105b761068b565b670de0b6b3a7640000826105cb91906125d4565b6105d5919061265d565b9150505b90565b6000806105e76104e4565b90506105f38584611793565b670de0b6b3a7640000818461060891906125d4565b610612919061265d565b915061065f84837f000000000000000000000000000000000000000000000000000000000000000073ffffffffffffffffffffffffffffffffffffffff166118dd9092919063ffffffff16565b509392505050565b7f000000000000000000000000000000000000000000000000000000000000000081565b6000600254905090565b60006106a2848484611963565b6000600160008673ffffffffffffffffffffffffffffffffffffffff1673ffffffffffffffffffffffffffffffffffffffff16815260200190815260200160002060003373ffffffffffffffffffffffffffffffffffffffff1673ffffffffffffffffffffffffffffffffffffffff1681526020019081526020016000205490507fffffffffffffffffffffffffffffffffffffffffffffffffffffffffffffffff811415801561075257508083115b156107965780836040517fa924825600000000000000000000000000000000000000000000000000000000815260040161078d92919061268e565b60405180910390fd5b6107ac853385846107a791906126b7565b6116a8565b60019150509392505050565b60006012905090565b6000610855338484600160003373ffffffffffffffffffffffffffffffffffffffff1673ffffffffffffffffffffffffffffffffffffffff16815260200190815260200160002060008873ffffffffffffffffffffffffffffffffffffffff1673ffffffffffffffffffffffffffffffffffffffff1681526020019081526020016000205461085091906126eb565b6116a8565b6001905092915050565b7f000000000000000000000000000000000000000000000000000000000000000081565b60008060008373ffffffffffffffffffffffffffffffffffffffff1673ffffffffffffffffffffffffffffffffffffffff168152602001908152602001600020549050919050565b6060600480546108da90612532565b80601f016020809104026020016040519081016040528092919081815260200182805461090690612532565b80156109535780601f1061092857610100808354040283529160200191610953565b820191906000526020600020905b81548152906001019060200180831161093657829003601f168201915b5050505050905090565b600080600160003373ffffffffffffffffffffffffffffffffffffffff1673ffffffffffffffffffffffffffffffffffffffff16815260200190815260200160002060008573ffffffffffffffffffffffffffffffffffffffff1673ffffffffffffffffffffffffffffffffffffffff16815260200190815260200160002054905082811015610a265780836040517fda2d822c000000000000000000000000000000000000000000000000000000008152600401610a1d92919061268e565b60405180910390fd5b610a3333858584036116a8565b600191505092915050565b6000610a4b338484611963565b6001905092915050565b7f000000000000000000000000000000000000000000000000000000000000000081565b7f000000000000000000000000000000000000000000000000000000000000000081565b6000806005604051806060016040529081600082015481526020016001820154815260200160028201548152505090506005600101544303610b8c57610b09604051806060016040528060298152602001612a2660299139826000015183602001518460400151611aec565b610b486040518060400160405280601381526020017f61637475616c20626c6f636b206e756d626572000000000000000000000000008152504361160c565b436005600101546040517fa31b34df000000000000000000000000000000000000000000000000000000008152600401610b8392919061268e565b60405180910390fd5b60007f000000000000000000000000000000000000000000000000000000000000000073ffffffffffffffffffffffffffffffffffffffff166370a082317f00000000000000000000000000000000000000000000000000000000000000006040518263ffffffff1660e01b8152600401610c0791906123dd565b602060405180830381865afa158015610c24573d6000803e3d6000fd5b505050506040513d601f19601f82011682018060405250810190610c489190612578565b905060007f000000000000000000000000000000000000000000000000000000000000000073ffffffffffffffffffffffffffffffffffffffff166370a08231306040518263ffffffff1660e01b8152600401610ca591906123dd565b602060405180830381865afa158015610cc2573d6000803e3d6000fd5b505050506040513d601f19601f82011682018060405250810190610ce69190612578565b90506000670de0b6b3a764000090507f00000000000000000000000000000000000000000000000000000000000000008460000151610d2591906125d4565b670de0b6b3a7640000856040015188610d3e91906126eb565b610d4891906125d4565b1115610dae577f00000000000000000000000000000000000000000000000000000000000000008460000151610d7e91906125d4565b670de0b6b3a7640000856040015188610d9791906126eb565b610da191906125d4565b610dab919061265d565b90505b6000610dbc8230338a611b8e565b90507f000000000000000000000000000000000000000000000000000000000000000073ffffffffffffffffffffffffffffffffffffffff168973ffffffffffffffffffffffffffffffffffffffff1603610f585760007f000000000000000000000000000000000000000000000000000000000000000073ffffffffffffffffffffffffffffffffffffffff16635668870030846040518363ffffffff1660e01b8152600401610e6e929190612741565b6020604051808303816000875af1158015610e8d573d6000803e3d6000fd5b505050506040513d601f19601f82011682018060405250810190610eb19190612578565b90507f000000000000000000000000000000000000000000000000000000000000000073ffffffffffffffffffffffffffffffffffffffff1663a9059cbb8c836040518363ffffffff1660e01b8152600401610f0e929190612741565b6020604051808303816000875af1158015610f2d573d6000803e3d6000fd5b505050506040513d601f19601f82011682018060405250810190610f519190612796565b5050611047565b7f000000000000000000000000000000000000000000000000000000000000000073ffffffffffffffffffffffffffffffffffffffff1663fe029156308b848c6040518563ffffffff1660e01b8152600401610fb794939291906127c3565b6020604051808303816000875af1158015610fd6573d6000803e3d6000fd5b505050506040513d601f19601f82011682018060405250810190610ffa9190612796565b506110468a897f000000000000000000000000000000000000000000000000000000000000000073ffffffffffffffffffffffffffffffffffffffff166118dd9092919063ffffffff16565b5b838560000181815250504385602001818152505082856040018181525050846005600082015181600001556020820151816001015560408201518160020155905050600195505050505050949350505050565b6000600160008473ffffffffffffffffffffffffffffffffffffffff1673ffffffffffffffffffffffffffffffffffffffff16815260200190815260200160002060008373ffffffffffffffffffffffffffffffffffffffff1673ffffffffffffffffffffffffffffffffffffffff16815260200190815260200160002054905092915050565b60008061112f3330866105dc565b90507f000000000000000000000000000000000000000000000000000000000000000073ffffffffffffffffffffffffffffffffffffffff168573ffffffffffffffffffffffffffffffffffffffff16036113935760007f000000000000000000000000000000000000000000000000000000000000000073ffffffffffffffffffffffffffffffffffffffff166306d47de930846040518363ffffffff1660e01b81526004016111e1929190612741565b6020604051808303816000875af1158015611200573d6000803e3d6000fd5b505050506040513d601f19601f820116820180604052508101906112249190612578565b90506104008111801561123f5750600a84901c600a82901c14155b15611285578581856040517f73a4b39000000000000000000000000000000000000000000000000000000000815260040161127c93929190612808565b60405180910390fd5b7f000000000000000000000000000000000000000000000000000000000000000073ffffffffffffffffffffffffffffffffffffffff1663fe029156873087896040518563ffffffff1660e01b81526004016112e494939291906127c3565b6020604051808303816000875af1158015611303573d6000803e3d6000fd5b505050506040513d601f19601f820116820180604052508101906113279190612796565b5060006113353089886105dc565b9050600a81901c600a84901c14611387578683826040517f73a4b39000000000000000000000000000000000000000000000000000000000815260040161137e93929190612808565b60405180910390fd5b50600192505050611395565b505b949350505050565b7f000000000000000000000000000000000000000000000000000000000000000073ffffffffffffffffffffffffffffffffffffffff163373ffffffffffffffffffffffffffffffffffffffff161461144f57337f00000000000000000000000000000000000000000000000000000000000000006040517fd214286f00000000000000000000000000000000000000000000000000000000815260040161144692919061283f565b60405180910390fd5b60007f000000000000000000000000000000000000000000000000000000000000000090508073ffffffffffffffffffffffffffffffffffffffff1663a9059cbb838373ffffffffffffffffffffffffffffffffffffffff166370a08231306040518263ffffffff1660e01b81526004016114ca91906123dd565b602060405180830381865afa1580156114e7573d6000803e3d6000fd5b505050506040513d601f19601f8201168201806040525081019061150b9190612578565b6040518363ffffffff1660e01b8152600401611528929190612741565b6020604051808303816000875af1158015611547573d6000803e3d6000fd5b505050506040513d601f19601f8201168201806040525081019061156b9190612796565b505050565b6116088282604051602401611586929190612868565b6040516020818303038152906040527f319af333000000000000000000000000000000000000000000000000000000007bffffffffffffffffffffffffffffffffffffffffffffffffffffffff19166020820180517bffffffffffffffffffffffffffffffffffffffffffffffffffffffff8381831617835250505050611d83565b5050565b6116a48282604051602401611622929190612898565b6040516020818303038152906040527f9710a9d0000000000000000000000000000000000000000000000000000000007bffffffffffffffffffffffffffffffffffffffffffffffffffffffff19166020820180517bffffffffffffffffffffffffffffffffffffffffffffffffffffffff8381831617835250505050611d83565b5050565b80600160008573ffffffffffffffffffffffffffffffffffffffff1673ffffffffffffffffffffffffffffffffffffffff16815260200190815260200160002060008473ffffffffffffffffffffffffffffffffffffffff1673ffffffffffffffffffffffffffffffffffffffff168152602001908152602001600020819055508173ffffffffffffffffffffffffffffffffffffffff168373ffffffffffffffffffffffffffffffffffffffff167f8c5be1e5ebec7d5bd14f71427d1e84f3dd0314c0f7b2291e5b200ac8c7c3b925836040516117869190612360565b60405180910390a3505050565b60008060008473ffffffffffffffffffffffffffffffffffffffff1673ffffffffffffffffffffffffffffffffffffffff1681526020019081526020016000205490508181101561181d5780826040517f0a37dd4100000000000000000000000000000000000000000000000000000000815260040161181492919061268e565b60405180910390fd5b8181036000808573ffffffffffffffffffffffffffffffffffffffff1673ffffffffffffffffffffffffffffffffffffffff1681526020019081526020016000208190555081600260008282540392505081905550600073ffffffffffffffffffffffffffffffffffffffff168373ffffffffffffffffffffffffffffffffffffffff167fddf252ad1be2c89b69c2b068fc378daa952ba7f163c4a11628f55a4df523b3ef846040516118d09190612360565b60405180910390a3505050565b61195e8363a9059cbb60e01b84846040516024016118fc929190612741565b604051602081830303815290604052907bffffffffffffffffffffffffffffffffffffffffffffffffffffffff19166020820180517bffffffffffffffffffffffffffffffffffffffffffffffffffffffff8381831617835250505050611dac565b505050565b60008060008573ffffffffffffffffffffffffffffffffffffffff1673ffffffffffffffffffffffffffffffffffffffff168152602001908152602001600020549050818110156119f057806000836040517f57b9c4a40000000000000000000000000000000000000000000000000000000081526004016119e79392919061290d565b60405180910390fd5b8181036000808673ffffffffffffffffffffffffffffffffffffffff1673ffffffffffffffffffffffffffffffffffffffff16815260200190815260200160002081905550816000808573ffffffffffffffffffffffffffffffffffffffff1673ffffffffffffffffffffffffffffffffffffffff168152602001908152602001600020600082825401925050819055508273ffffffffffffffffffffffffffffffffffffffff168473ffffffffffffffffffffffffffffffffffffffff167fddf252ad1be2c89b69c2b068fc378daa952ba7f163c4a11628f55a4df523b3ef84604051611ade9190612360565b60405180910390a350505050565b611b8884848484604051602401611b069493929190612944565b6040516020818303038152906040527f08ee5666000000000000000000000000000000000000000000000000000000007bffffffffffffffffffffffffffffffffffffffffffffffffffffffff19166020820180517bffffffffffffffffffffffffffffffffffffffffffffffffffffffff8381831617835250505050611d83565b50505050565b600080670de0b6b3a764000086611ba36104e4565b611bad91906125d4565b611bb7919061265d565b905060007f000000000000000000000000000000000000000000000000000000000000000073ffffffffffffffffffffffffffffffffffffffff166370a08231306040518263ffffffff1660e01b8152600401611c1491906123dd565b602060405180830381865afa158015611c31573d6000803e3d6000fd5b505050506040513d601f19601f82011682018060405250810190611c559190612578565b9050611ca48530867f000000000000000000000000000000000000000000000000000000000000000073ffffffffffffffffffffffffffffffffffffffff16611e6a909392919063ffffffff16565b6000817f000000000000000000000000000000000000000000000000000000000000000073ffffffffffffffffffffffffffffffffffffffff166370a08231306040518263ffffffff1660e01b8152600401611d0091906123dd565b602060405180830381865afa158015611d1d573d6000803e3d6000fd5b505050506040513d601f19601f82011682018060405250810190611d419190612578565b611d4b91906126b7565b905082670de0b6b3a764000082611d6291906125d4565b611d6c919061265d565b9350611d788785611ef3565b505050949350505050565b60008151905060006a636f6e736f6c652e6c6f679050602083016000808483855afa5050505050565b6000611e0e826040518060400160405280602081526020017f5361666545524332303a206c6f772d6c6576656c2063616c6c206661696c65648152508573ffffffffffffffffffffffffffffffffffffffff16611fcb9092919063ffffffff16565b9050600081511115611e655780806020019051810190611e2e9190612796565b611e64576040517fa479450200000000000000000000000000000000000000000000000000000000815260040160405180910390fd5b5b505050565b611eed846323b872dd60e01b858585604051602401611e8b93929190612990565b604051602081830303815290604052907bffffffffffffffffffffffffffffffffffffffffffffffffffffffff19166020820180517bffffffffffffffffffffffffffffffffffffffffffffffffffffffff8381831617835250505050611dac565b50505050565b8060026000828254611f0591906126eb565b92505081905550806000808473ffffffffffffffffffffffffffffffffffffffff1673ffffffffffffffffffffffffffffffffffffffff1681526020019081526020016000206000828254611f5a91906126eb565b925050819055508173ffffffffffffffffffffffffffffffffffffffff16600073ffffffffffffffffffffffffffffffffffffffff167fddf252ad1be2c89b69c2b068fc378daa952ba7f163c4a11628f55a4df523b3ef83604051611fbf9190612360565b60405180910390a35050565b6060611fda8484600085611fe3565b90509392505050565b60608247101561202c5747836040517f02de226f00000000000000000000000000000000000000000000000000000000815260040161202392919061268e565b60405180910390fd5b612035856120fd565b61207657846040517f8a8b41ec00000000000000000000000000000000000000000000000000000000815260040161206d91906123dd565b60405180910390fd5b6000808673ffffffffffffffffffffffffffffffffffffffff16858760405161209f9190612a0e565b60006040518083038185875af1925050503d80600081146120dc576040519150601f19603f3d011682016040523d82523d6000602084013e6120e1565b606091505b50915091506120f1828286612120565b92505050949350505050565b6000808273ffffffffffffffffffffffffffffffffffffffff163b119050919050565b6060831561213057829050612180565b6000835111156121435782518084602001fd5b816040517f08c379a00000000000000000000000000000000000000000000000000000000081526004016121779190612220565b60405180910390fd5b9392505050565b600081519050919050565b600082825260208201905092915050565b60005b838110156121c15780820151818401526020810190506121a6565b838111156121d0576000848401525b50505050565b6000601f19601f8301169050919050565b60006121f282612187565b6121fc8185612192565b935061220c8185602086016121a3565b612215816121d6565b840191505092915050565b6000602082019050818103600083015261223a81846121e7565b905092915050565b600080fd5b600073ffffffffffffffffffffffffffffffffffffffff82169050919050565b600061227282612247565b9050919050565b61228281612267565b811461228d57600080fd5b50565b60008135905061229f81612279565b92915050565b6000819050919050565b6122b8816122a5565b81146122c357600080fd5b50565b6000813590506122d5816122af565b92915050565b600080604083850312156122f2576122f1612242565b5b600061230085828601612290565b9250506020612311858286016122c6565b9150509250929050565b60008115159050919050565b6123308161231b565b82525050565b600060208201905061234b6000830184612327565b92915050565b61235a816122a5565b82525050565b60006020820190506123756000830184612351565b92915050565b60008060006060848603121561239457612393612242565b5b60006123a286828701612290565b93505060206123b386828701612290565b92505060406123c4868287016122c6565b9150509250925092565b6123d781612267565b82525050565b60006020820190506123f260008301846123ce565b92915050565b600060ff82169050919050565b61240e816123f8565b82525050565b60006020820190506124296000830184612405565b92915050565b60006020828403121561244557612444612242565b5b600061245384828501612290565b91505092915050565b6000806000806080858703121561247657612475612242565b5b600061248487828801612290565b945050602061249587828801612290565b93505060406124a6878288016122c6565b92505060606124b7878288016122c6565b91505092959194509250565b600080604083850312156124da576124d9612242565b5b60006124e885828601612290565b92505060206124f985828601612290565b9150509250929050565b7f4e487b7100000000000000000000000000000000000000000000000000000000600052602260045260246000fd5b6000600282049050600182168061254a57607f821691505b60208210810361255d5761255c612503565b5b50919050565b600081519050612572816122af565b92915050565b60006020828403121561258e5761258d612242565b5b600061259c84828501612563565b91505092915050565b7f4e487b7100000000000000000000000000000000000000000000000000000000600052601160045260246000fd5b60006125df826122a5565b91506125ea836122a5565b9250817fffffffffffffffffffffffffffffffffffffffffffffffffffffffffffffffff0483118215151615612623576126226125a5565b5b828202905092915050565b7f4e487b7100000000000000000000000000000000000000000000000000000000600052601260045260246000fd5b6000612668826122a5565b9150612673836122a5565b9250826126835761268261262e565b5b828204905092915050565b60006040820190506126a36000830185612351565b6126b06020830184612351565b9392505050565b60006126c2826122a5565b91506126cd836122a5565b9250828210156126e0576126df6125a5565b5b828203905092915050565b60006126f6826122a5565b9150612701836122a5565b9250827fffffffffffffffffffffffffffffffffffffffffffffffffffffffffffffffff03821115612736576127356125a5565b5b828201905092915050565b600060408201905061275660008301856123ce565b6127636020830184612351565b9392505050565b6127738161231b565b811461277e57600080fd5b50565b6000815190506127908161276a565b92915050565b6000602082840312156127ac576127ab612242565b5b60006127ba84828501612781565b91505092915050565b60006080820190506127d860008301876123ce565b6127e560208301866123ce565b6127f26040830185612351565b6127ff6060830184612351565b95945050505050565b600060608201905061281d60008301866123ce565b61282a6020830185612351565b6128376040830184612351565b949350505050565b600060408201905061285460008301856123ce565b61286160208301846123ce565b9392505050565b6000604082019050818103600083015261288281856121e7565b905061289160208301846123ce565b9392505050565b600060408201905081810360008301526128b281856121e7565b90506128c16020830184612351565b9392505050565b6000819050919050565b6000819050919050565b60006128f76128f26128ed846128c8565b6128d2565b6122a5565b9050919050565b612907816128dc565b82525050565b60006060820190506129226000830186612351565b61292f60208301856128fe565b61293c6040830184612351565b949350505050565b6000608082019050818103600083015261295e81876121e7565b905061296d6020830186612351565b61297a6040830185612351565b6129876060830184612351565b95945050505050565b60006060820190506129a560008301866123ce565b6129b260208301856123ce565b6129bf6040830184612351565b949350505050565b600081519050919050565b600081905092915050565b60006129e8826129c7565b6129f281856129d2565b9350612a028185602086016121a3565b80840191505092915050565b6000612a1a82846129dd565b91508190509291505056fe7072696f7252656642616c616e63652c20626c6f636b4e756d6265722c207468697342616c616e6365a264697066735822122088f3d2653411f3befb2a2b754f1aaa2b9a245ffe7e7324c55a30fec3ad0b886664736f6c634300080d0033",
  "linkReferences": {},
  "deployedLinkReferences": {}
}