{
  "_format": "hh-sol-artifact-1",
  "contractName": "CliffFace",
  "sourceName": "contracts/TokenProxies/CliffFace.sol",
  "abi": [
    {
      "inputs": [
        {
          "internalType": "address",
          "name": "_baseToken",
          "type": "address"
        },
        {
          "internalType": "string",
          "name": "name_",
          "type": "string"
        },
        {
          "internalType": "string",
          "name": "symbol_",
          "type": "string"
        },
        {
          "internalType": "address",
          "name": "registry",
          "type": "address"
        },
        {
          "internalType": "address",
          "name": "_referenceToken",
          "type": "address"
        },
        {
          "internalType": "uint256",
          "name": "multiple",
          "type": "uint256"
        },
        {
          "internalType": "address",
          "name": "_behodler",
          "type": "address"
        }
      ],
      "stateMutability": "nonpayable",
      "type": "constructor"
    },
    {
      "inputs": [
        {
          "internalType": "uint256",
          "name": "allowance",
          "type": "uint256"
        },
        {
          "internalType": "uint256",
          "name": "amount",
          "type": "uint256"
        }
      ],
      "name": "AllowanceExceeded",
      "type": "error"
    },
    {
      "inputs": [
        {
          "internalType": "uint256",
          "name": "allowance",
          "type": "uint256"
        },
        {
          "internalType": "uint256",
          "name": "subtraction",
          "type": "uint256"
        }
      ],
      "name": "AllowanceUnderflow",
      "type": "error"
    },
    {
      "inputs": [
        {
          "internalType": "address",
          "name": "token",
          "type": "address"
        },
        {
          "internalType": "address",
          "name": "spender",
          "type": "address"
        },
        {
          "internalType": "uint256",
          "name": "amount",
          "type": "uint256"
        }
      ],
      "name": "ApproveToNonZero",
      "type": "error"
    },
    {
      "inputs": [
        {
          "internalType": "uint256",
          "name": "output",
          "type": "uint256"
        },
        {
          "internalType": "uint256",
          "name": "expectedOutput",
          "type": "uint256"
        }
      ],
      "name": "BehodlerSwapInInvariantViolated",
      "type": "error"
    },
    {
      "inputs": [
        {
          "internalType": "address",
          "name": "inputToken",
          "type": "address"
        },
        {
          "internalType": "uint256",
          "name": "actualAmount",
          "type": "uint256"
        },
        {
          "internalType": "uint256",
          "name": "expectedAmount",
          "type": "uint256"
        }
      ],
      "name": "BehodlerSwapOutInvariantViolated",
      "type": "error"
    },
    {
      "inputs": [
        {
          "internalType": "uint256",
          "name": "accountBalance",
          "type": "uint256"
        },
        {
          "internalType": "uint256",
          "name": "amount",
          "type": "uint256"
        }
      ],
      "name": "BurnUnderflow",
      "type": "error"
    },
    {
      "inputs": [
        {
          "internalType": "uint256",
          "name": "balance",
          "type": "uint256"
        },
        {
          "internalType": "uint256",
          "name": "value",
          "type": "uint256"
        }
      ],
      "name": "InsufficinetFunds",
      "type": "error"
    },
    {
      "inputs": [
        {
          "internalType": "address",
          "name": "EOA",
          "type": "address"
        }
      ],
      "name": "NotAContract",
      "type": "error"
    },
    {
      "inputs": [
        {
          "internalType": "address",
          "name": "sender",
          "type": "address"
        },
        {
          "internalType": "address",
          "name": "proxy",
          "type": "address"
        }
      ],
      "name": "OnlyProxy",
      "type": "error"
    },
    {
      "inputs": [],
      "name": "OperationFailure",
      "type": "error"
    },
    {
      "inputs": [
        {
          "internalType": "uint256",
          "name": "blockNumber",
          "type": "uint256"
        },
        {
          "internalType": "uint256",
          "name": "priorBlockNumber",
          "type": "uint256"
        }
      ],
      "name": "SlippageManipulationPrevention",
      "type": "error"
    },
    {
      "inputs": [
        {
          "internalType": "uint256",
          "name": "senderBalance",
          "type": "uint256"
        },
        {
          "internalType": "uint256",
          "name": "fee",
          "type": "uint256"
        },
        {
          "internalType": "uint256",
          "name": "amount",
          "type": "uint256"
        }
      ],
      "name": "TransferUnderflow",
      "type": "error"
    },
    {
      "anonymous": false,
      "inputs": [
        {
          "indexed": true,
          "internalType": "address",
          "name": "owner",
          "type": "address"
        },
        {
          "indexed": true,
          "internalType": "address",
          "name": "spender",
          "type": "address"
        },
        {
          "indexed": false,
          "internalType": "uint256",
          "name": "value",
          "type": "uint256"
        }
      ],
      "name": "Approval",
      "type": "event"
    },
    {
      "anonymous": false,
      "inputs": [
        {
          "indexed": true,
          "internalType": "address",
          "name": "from",
          "type": "address"
        },
        {
          "indexed": true,
          "internalType": "address",
          "name": "to",
          "type": "address"
        },
        {
          "indexed": false,
          "internalType": "uint256",
          "name": "value",
          "type": "uint256"
        }
      ],
      "name": "Transfer",
      "type": "event"
    },
    {
      "inputs": [
        {
          "internalType": "address",
          "name": "owner",
          "type": "address"
        },
        {
          "internalType": "address",
          "name": "spender",
          "type": "address"
        }
      ],
      "name": "allowance",
      "outputs": [
        {
          "internalType": "uint256",
          "name": "",
          "type": "uint256"
        }
      ],
      "stateMutability": "view",
      "type": "function"
    },
    {
      "inputs": [
        {
          "internalType": "address",
          "name": "spender",
          "type": "address"
        },
        {
          "internalType": "uint256",
          "name": "amount",
          "type": "uint256"
        }
      ],
      "name": "approve",
      "outputs": [
        {
          "internalType": "bool",
          "name": "",
          "type": "bool"
        }
      ],
      "stateMutability": "nonpayable",
      "type": "function"
    },
    {
      "inputs": [
        {
          "internalType": "address",
          "name": "inputToken",
          "type": "address"
        }
      ],
      "name": "approveBehodlerFor",
      "outputs": [],
      "stateMutability": "nonpayable",
      "type": "function"
    },
    {
      "inputs": [
        {
          "internalType": "address",
          "name": "account",
          "type": "address"
        }
      ],
      "name": "balanceOf",
      "outputs": [
        {
          "internalType": "uint256",
          "name": "",
          "type": "uint256"
        }
      ],
      "stateMutability": "view",
      "type": "function"
    },
    {
      "inputs": [],
      "name": "baseToken",
      "outputs": [
        {
          "internalType": "address",
          "name": "",
          "type": "address"
        }
      ],
      "stateMutability": "view",
      "type": "function"
    },
    {
      "inputs": [],
      "name": "decimals",
      "outputs": [
        {
          "internalType": "uint8",
          "name": "",
          "type": "uint8"
        }
      ],
      "stateMutability": "view",
      "type": "function"
    },
    {
      "inputs": [
        {
          "internalType": "address",
          "name": "spender",
          "type": "address"
        },
        {
          "internalType": "uint256",
          "name": "subtractedValue",
          "type": "uint256"
        }
      ],
      "name": "decreaseAllowance",
      "outputs": [
        {
          "internalType": "bool",
          "name": "",
          "type": "bool"
        }
      ],
      "stateMutability": "nonpayable",
      "type": "function"
    },
    {
      "inputs": [
        {
          "internalType": "address",
          "name": "spender",
          "type": "address"
        },
        {
          "internalType": "uint256",
          "name": "addedValue",
          "type": "uint256"
        }
      ],
      "name": "increaseAllowance",
      "outputs": [
        {
          "internalType": "bool",
          "name": "",
          "type": "bool"
        }
      ],
      "stateMutability": "nonpayable",
      "type": "function"
    },
    {
      "inputs": [
        {
          "internalType": "address",
          "name": "newProxy",
          "type": "address"
        }
      ],
      "name": "migrateBaseReserveToNewProxy",
      "outputs": [],
      "stateMutability": "nonpayable",
      "type": "function"
    },
    {
      "inputs": [],
      "name": "name",
      "outputs": [
        {
          "internalType": "string",
          "name": "",
          "type": "string"
        }
      ],
      "stateMutability": "view",
      "type": "function"
    },
    {
      "inputs": [],
      "name": "proxyRegistry",
      "outputs": [
        {
          "internalType": "address",
          "name": "",
          "type": "address"
        }
      ],
      "stateMutability": "view",
      "type": "function"
    },
    {
      "inputs": [
        {
          "internalType": "address",
          "name": "proxySource",
          "type": "address"
        },
        {
          "internalType": "address",
          "name": "baseRecipient",
          "type": "address"
        },
        {
          "internalType": "uint256",
          "name": "amount",
          "type": "uint256"
        }
      ],
      "name": "redeem",
      "outputs": [
        {
          "internalType": "uint256",
          "name": "baseAmount",
          "type": "uint256"
        }
      ],
      "stateMutability": "nonpayable",
      "type": "function"
    },
    {
      "inputs": [],
      "name": "redeemRate",
      "outputs": [
        {
          "internalType": "uint256",
          "name": "",
          "type": "uint256"
        }
      ],
      "stateMutability": "view",
      "type": "function"
    },
    {
      "inputs": [],
      "name": "referenceMultiple",
      "outputs": [
        {
          "internalType": "uint256",
          "name": "",
          "type": "uint256"
        }
      ],
      "stateMutability": "view",
      "type": "function"
    },
    {
      "inputs": [],
      "name": "referenceToken",
      "outputs": [
        {
          "internalType": "address",
          "name": "",
          "type": "address"
        }
      ],
      "stateMutability": "view",
      "type": "function"
    },
    {
      "inputs": [
        {
          "internalType": "uint256",
          "name": "initialSupply",
          "type": "uint256"
        }
      ],
      "name": "seedBehodler",
      "outputs": [],
      "stateMutability": "nonpayable",
      "type": "function"
    },
    {
      "inputs": [
        {
          "internalType": "address",
          "name": "outputRecipient",
          "type": "address"
        },
        {
          "internalType": "address",
          "name": "outputToken",
          "type": "address"
        },
        {
          "internalType": "uint256",
          "name": "outputAmount",
          "type": "uint256"
        },
        {
          "internalType": "uint256",
          "name": "baseTokenAmount",
          "type": "uint256"
        }
      ],
      "name": "swapAsInput",
      "outputs": [
        {
          "internalType": "bool",
          "name": "",
          "type": "bool"
        }
      ],
      "stateMutability": "nonpayable",
      "type": "function"
    },
    {
      "inputs": [
        {
          "internalType": "address",
          "name": "outputRecipient",
          "type": "address"
        },
        {
          "internalType": "address",
          "name": "input",
          "type": "address"
        },
        {
          "internalType": "uint256",
          "name": "proxyTokensToRelease",
          "type": "uint256"
        },
        {
          "internalType": "uint256",
          "name": "expectedInputAmount",
          "type": "uint256"
        }
      ],
      "name": "swapAsOuput",
      "outputs": [
        {
          "internalType": "bool",
          "name": "",
          "type": "bool"
        }
      ],
      "stateMutability": "nonpayable",
      "type": "function"
    },
    {
      "inputs": [],
      "name": "symbol",
      "outputs": [
        {
          "internalType": "string",
          "name": "",
          "type": "string"
        }
      ],
      "stateMutability": "view",
      "type": "function"
    },
    {
      "inputs": [],
      "name": "totalSupply",
      "outputs": [
        {
          "internalType": "uint256",
          "name": "",
          "type": "uint256"
        }
      ],
      "stateMutability": "view",
      "type": "function"
    },
    {
      "inputs": [
        {
          "internalType": "address",
          "name": "recipient",
          "type": "address"
        },
        {
          "internalType": "uint256",
          "name": "amount",
          "type": "uint256"
        }
      ],
      "name": "transfer",
      "outputs": [
        {
          "internalType": "bool",
          "name": "",
          "type": "bool"
        }
      ],
      "stateMutability": "nonpayable",
      "type": "function"
    },
    {
      "inputs": [
        {
          "internalType": "address",
          "name": "sender",
          "type": "address"
        },
        {
          "internalType": "address",
          "name": "recipient",
          "type": "address"
        },
        {
          "internalType": "uint256",
          "name": "amount",
          "type": "uint256"
        }
      ],
      "name": "transferFrom",
      "outputs": [
        {
          "internalType": "bool",
          "name": "",
          "type": "bool"
        }
      ],
      "stateMutability": "nonpayable",
      "type": "function"
    }
  ],
  "bytecode": "0x6101206040523480156200001257600080fd5b50604051620036f4380380620036f48339818101604052810190620000389190620004e9565b808787878783838383828281600390805190602001906200005b929190620001fc565b50806004908051906020019062000074929190620001fc565b5050508373ffffffffffffffffffffffffffffffffffffffff1660a08173ffffffffffffffffffffffffffffffffffffffff16815250508073ffffffffffffffffffffffffffffffffffffffff1660808173ffffffffffffffffffffffffffffffffffffffff1681525050505050508473ffffffffffffffffffffffffffffffffffffffff1660c08173ffffffffffffffffffffffffffffffffffffffff168152505050505050508273ffffffffffffffffffffffffffffffffffffffff1660e08173ffffffffffffffffffffffffffffffffffffffff168152505081610100818152505060e05173ffffffffffffffffffffffffffffffffffffffff166370a0823160c0516040518263ffffffff1660e01b8152600401620001989190620005eb565b602060405180830381865afa158015620001b6573d6000803e3d6000fd5b505050506040513d601f19601f82011682018060405250810190620001dc919062000608565b60056000018190555043600560010181905550505050505050506200069e565b8280546200020a9062000669565b90600052602060002090601f0160209004810192826200022e57600085556200027a565b82601f106200024957805160ff19168380011785556200027a565b828001600101855582156200027a579182015b82811115620002795782518255916020019190600101906200025c565b5b5090506200028991906200028d565b5090565b5b80821115620002a85760008160009055506001016200028e565b5090565b6000604051905090565b600080fd5b600080fd5b600073ffffffffffffffffffffffffffffffffffffffff82169050919050565b6000620002ed82620002c0565b9050919050565b620002ff81620002e0565b81146200030b57600080fd5b50565b6000815190506200031f81620002f4565b92915050565b600080fd5b600080fd5b6000601f19601f8301169050919050565b7f4e487b7100000000000000000000000000000000000000000000000000000000600052604160045260246000fd5b6200037a826200032f565b810181811067ffffffffffffffff821117156200039c576200039b62000340565b5b80604052505050565b6000620003b1620002ac565b9050620003bf82826200036f565b919050565b600067ffffffffffffffff821115620003e257620003e162000340565b5b620003ed826200032f565b9050602081019050919050565b60005b838110156200041a578082015181840152602081019050620003fd565b838111156200042a576000848401525b50505050565b6000620004476200044184620003c4565b620003a5565b9050828152602081018484840111156200046657620004656200032a565b5b62000473848285620003fa565b509392505050565b600082601f83011262000493576200049262000325565b5b8151620004a584826020860162000430565b91505092915050565b6000819050919050565b620004c381620004ae565b8114620004cf57600080fd5b50565b600081519050620004e381620004b8565b92915050565b600080600080600080600060e0888a0312156200050b576200050a620002b6565b5b60006200051b8a828b016200030e565b975050602088015167ffffffffffffffff8111156200053f576200053e620002bb565b5b6200054d8a828b016200047b565b965050604088015167ffffffffffffffff811115620005715762000570620002bb565b5b6200057f8a828b016200047b565b9550506060620005928a828b016200030e565b9450506080620005a58a828b016200030e565b93505060a0620005b88a828b01620004d2565b92505060c0620005cb8a828b016200030e565b91505092959891949750929550565b620005e581620002e0565b82525050565b6000602082019050620006026000830184620005da565b92915050565b600060208284031215620006215762000620620002b6565b5b60006200063184828501620004d2565b91505092915050565b7f4e487b7100000000000000000000000000000000000000000000000000000000600052602260045260246000fd5b600060028204905060018216806200068257607f821691505b6020821081036200069857620006976200063a565b5b50919050565b60805160a05160c05160e05161010051612f54620007a060003960008181610bbe01528181610ffc01526110550152600081816106b70152818161087f0152610ec00152600081816106f701528181610740015281816107e0015281816108bb0152818161095e01528181610e8401528181610f63015281816110e10152818161113601528181611220015281816112c50152818161151a0152818161156f0152818161169d01526119850152600081816105370152818161066901528181610dd8015281816113710152818161186301528181611cd801528181611d7a0152611dc4015260008181610db4015281816117af01526118030152612f546000f3fe608060405234801561001057600080fd5b50600436106101425760003560e01c806370a08231116100b8578063c55dae631161007c578063c55dae63146103a3578063ca409f4d146103c1578063dd62ed3e146103f1578063ea2cd00c14610421578063ed3b379b14610451578063ed6de1741461046d57610142565b806370a08231146102d757806395d89b4114610307578063a457c2d714610325578063a9059cbb14610355578063b50cbd9f1461038557610142565b806316a39eeb1161010a57806316a39eeb1461020157806318160ddd1461021d57806323b872dd1461023b578063313ce5671461026b57806339509351146102895780634e2c172d146102b957610142565b806306fdde0314610147578063095ea7b3146101655780630adcdbaa146101955780630e6dfcd5146101b35780631265b651146101e3575b600080fd5b61014f610489565b60405161015c919061261a565b60405180910390f35b61017f600480360381019061017a91906126d5565b61051b565b60405161018c9190612730565b60405180910390f35b61019d610532565b6040516101aa919061275a565b60405180910390f35b6101cd60048036038101906101c89190612775565b61062a565b6040516101da919061275a565b60405180910390f35b6101eb6106b5565b6040516101f891906127d7565b60405180910390f35b61021b600480360381019061021691906127f2565b6106d9565b005b6102256109e8565b604051610232919061275a565b60405180910390f35b61025560048036038101906102509190612775565b6109f2565b6040516102629190612730565b60405180910390f35b610273610b15565b604051610280919061283b565b60405180910390f35b6102a3600480360381019061029e91906126d5565b610b1e565b6040516102b09190612730565b60405180910390f35b6102c1610bbc565b6040516102ce919061275a565b60405180910390f35b6102f160048036038101906102ec9190612856565b610be0565b6040516102fe919061275a565b60405180910390f35b61030f610c28565b60405161031c919061261a565b60405180910390f35b61033f600480360381019061033a91906126d5565b610cba565b60405161034c9190612730565b60405180910390f35b61036f600480360381019061036a91906126d5565b610d9b565b60405161037c9190612730565b60405180910390f35b61038d610db2565b60405161039a91906127d7565b60405180910390f35b6103ab610dd6565b6040516103b891906127d7565b60405180910390f35b6103db60048036038101906103d69190612883565b610dfa565b6040516103e89190612730565b60405180910390f35b61040b600480360381019061040691906128ea565b61140e565b604051610418919061275a565b60405180910390f35b61043b60048036038101906104369190612883565b611495565b6040516104489190612730565b60405180910390f35b61046b60048036038101906104669190612856565b6117ad565b005b61048760048036038101906104829190612856565b611980565b005b60606003805461049890612959565b80601f01602080910402602001604051908101604052809291908181526020018280546104c490612959565b80156105115780601f106104e657610100808354040283529160200191610511565b820191906000526020600020905b8154815290600101906020018083116104f457829003601f168201915b5050505050905090565b60006105283384846119ee565b6001905092915050565b6000807f000000000000000000000000000000000000000000000000000000000000000073ffffffffffffffffffffffffffffffffffffffff166370a08231306040518263ffffffff1660e01b815260040161058e91906127d7565b602060405180830381865afa1580156105ab573d6000803e3d6000fd5b505050506040513d601f19601f820116820180604052508101906105cf919061299f565b905060006105db6109e8565b14806105e75750600081145b156105fd57670de0b6b3a7640000915050610627565b6106056109e8565b670de0b6b3a76400008261061991906129fb565b6106239190612a84565b9150505b90565b600080610635610532565b90506106418584611ad9565b670de0b6b3a7640000818461065691906129fb565b6106609190612a84565b91506106ad84837f000000000000000000000000000000000000000000000000000000000000000073ffffffffffffffffffffffffffffffffffffffff16611c239092919063ffffffff16565b509392505050565b7f000000000000000000000000000000000000000000000000000000000000000081565b60006106ef670de0b6b3a7640000303385611ca9565b905061073c307f00000000000000000000000000000000000000000000000000000000000000007fffffffffffffffffffffffffffffffffffffffffffffffffffffffffffffffff6119ee565b60007f000000000000000000000000000000000000000000000000000000000000000073ffffffffffffffffffffffffffffffffffffffff16635668870030846040518363ffffffff1660e01b8152600401610799929190612ab5565b6020604051808303816000875af11580156107b8573d6000803e3d6000fd5b505050506040513d601f19601f820116820180604052508101906107dc919061299f565b90507f000000000000000000000000000000000000000000000000000000000000000073ffffffffffffffffffffffffffffffffffffffff1663a9059cbb33836040518363ffffffff1660e01b8152600401610839929190612ab5565b6020604051808303816000875af1158015610858573d6000803e3d6000fd5b505050506040513d601f19601f8201168201806040525081019061087c9190612b0a565b507f000000000000000000000000000000000000000000000000000000000000000073ffffffffffffffffffffffffffffffffffffffff166370a082317f00000000000000000000000000000000000000000000000000000000000000006040518263ffffffff1660e01b81526004016108f691906127d7565b602060405180830381865afa158015610913573d6000803e3d6000fd5b505050506040513d601f19601f82011682018060405250810190610937919061299f565b6005600001819055503073ffffffffffffffffffffffffffffffffffffffff166370a082317f00000000000000000000000000000000000000000000000000000000000000006040518263ffffffff1660e01b815260040161099991906127d7565b602060405180830381865afa1580156109b6573d6000803e3d6000fd5b505050506040513d601f19601f820116820180604052508101906109da919061299f565b600560020181905550505050565b6000600254905090565b60006109ff848484611e9e565b6000600160008673ffffffffffffffffffffffffffffffffffffffff1673ffffffffffffffffffffffffffffffffffffffff16815260200190815260200160002060003373ffffffffffffffffffffffffffffffffffffffff1673ffffffffffffffffffffffffffffffffffffffff1681526020019081526020016000205490507fffffffffffffffffffffffffffffffffffffffffffffffffffffffffffffffff8114158015610aaf57508083115b15610af35780836040517fa9248256000000000000000000000000000000000000000000000000000000008152600401610aea929190612b37565b60405180910390fd5b610b0985338584610b049190612b60565b6119ee565b60019150509392505050565b60006012905090565b6000610bb2338484600160003373ffffffffffffffffffffffffffffffffffffffff1673ffffffffffffffffffffffffffffffffffffffff16815260200190815260200160002060008873ffffffffffffffffffffffffffffffffffffffff1673ffffffffffffffffffffffffffffffffffffffff16815260200190815260200160002054610bad9190612b94565b6119ee565b6001905092915050565b7f000000000000000000000000000000000000000000000000000000000000000081565b60008060008373ffffffffffffffffffffffffffffffffffffffff1673ffffffffffffffffffffffffffffffffffffffff168152602001908152602001600020549050919050565b606060048054610c3790612959565b80601f0160208091040260200160405190810160405280929190818152602001828054610c6390612959565b8015610cb05780601f10610c8557610100808354040283529160200191610cb0565b820191906000526020600020905b815481529060010190602001808311610c9357829003601f168201915b5050505050905090565b600080600160003373ffffffffffffffffffffffffffffffffffffffff1673ffffffffffffffffffffffffffffffffffffffff16815260200190815260200160002060008573ffffffffffffffffffffffffffffffffffffffff1673ffffffffffffffffffffffffffffffffffffffff16815260200190815260200160002054905082811015610d835780836040517fda2d822c000000000000000000000000000000000000000000000000000000008152600401610d7a929190612b37565b60405180910390fd5b610d9033858584036119ee565b600191505092915050565b6000610da8338484611e9e565b6001905092915050565b7f000000000000000000000000000000000000000000000000000000000000000081565b7f000000000000000000000000000000000000000000000000000000000000000081565b600080600560405180606001604052908160008201548152602001600182015481526020016002820154815250509050610e32612559565b6005600101544303610e8257436005600101546040517fa31b34df000000000000000000000000000000000000000000000000000000008152600401610e79929190612b37565b60405180910390fd5b7f000000000000000000000000000000000000000000000000000000000000000073ffffffffffffffffffffffffffffffffffffffff166370a082317f00000000000000000000000000000000000000000000000000000000000000006040518263ffffffff1660e01b8152600401610efb91906127d7565b602060405180830381865afa158015610f18573d6000803e3d6000fd5b505050506040513d601f19601f82011682018060405250810190610f3c919061299f565b8160000181815250503073ffffffffffffffffffffffffffffffffffffffff166370a082317f00000000000000000000000000000000000000000000000000000000000000006040518263ffffffff1660e01b8152600401610f9e91906127d7565b602060405180830381865afa158015610fbb573d6000803e3d6000fd5b505050506040513d601f19601f82011682018060405250810190610fdf919061299f565b816020018181525050670de0b6b3a76400008160400181815250507f0000000000000000000000000000000000000000000000000000000000000000826000015161102a91906129fb565b670de0b6b3a76400008360400151866110439190612b94565b61104d91906129fb565b11156110c6577f0000000000000000000000000000000000000000000000000000000000000000826000015161108391906129fb565b6002670de0b6b3a76400006110989190612d1d565b8360400151866110a89190612b94565b6110b291906129fb565b6110bc9190612a84565b8160400181815250505b6110d68160400151303387611ca9565b8160600181815250507f000000000000000000000000000000000000000000000000000000000000000073ffffffffffffffffffffffffffffffffffffffff168673ffffffffffffffffffffffffffffffffffffffff16036112c35760007f000000000000000000000000000000000000000000000000000000000000000073ffffffffffffffffffffffffffffffffffffffff1663566887003084606001516040518363ffffffff1660e01b8152600401611193929190612ab5565b6020604051808303816000875af11580156111b2573d6000803e3d6000fd5b505050506040513d601f19601f820116820180604052508101906111d6919061299f565b905085811461121e5780866040517f612e405f000000000000000000000000000000000000000000000000000000008152600401611215929190612b37565b60405180910390fd5b7f000000000000000000000000000000000000000000000000000000000000000073ffffffffffffffffffffffffffffffffffffffff1663a9059cbb89836040518363ffffffff1660e01b8152600401611279929190612ab5565b6020604051808303816000875af1158015611298573d6000803e3d6000fd5b505050506040513d601f19601f820116820180604052508101906112bc9190612b0a565b50506113b6565b7f000000000000000000000000000000000000000000000000000000000000000073ffffffffffffffffffffffffffffffffffffffff1663fe02915630888460600151896040518563ffffffff1660e01b81526004016113269493929190612d68565b6020604051808303816000875af1158015611345573d6000803e3d6000fd5b505050506040513d601f19601f820116820180604052508101906113699190612b0a565b506113b587867f000000000000000000000000000000000000000000000000000000000000000073ffffffffffffffffffffffffffffffffffffffff16611c239092919063ffffffff16565b5b8060000151826000018181525050438260200181815250508060200151826040018181525050816005600082015181600001556020820151816001015560408201518160020155905050600192505050949350505050565b6000600160008473ffffffffffffffffffffffffffffffffffffffff1673ffffffffffffffffffffffffffffffffffffffff16815260200190815260200160002060008373ffffffffffffffffffffffffffffffffffffffff1673ffffffffffffffffffffffffffffffffffffffff16815260200190815260200160002054905092915050565b60008373ffffffffffffffffffffffffffffffffffffffff166323b872dd3330856040518463ffffffff1660e01b81526004016114d493929190612dad565b6020604051808303816000875af11580156114f3573d6000803e3d6000fd5b505050506040513d601f19601f820116820180604052508101906115179190612b0a565b507f000000000000000000000000000000000000000000000000000000000000000073ffffffffffffffffffffffffffffffffffffffff168473ffffffffffffffffffffffffffffffffffffffff16036116715760007f000000000000000000000000000000000000000000000000000000000000000073ffffffffffffffffffffffffffffffffffffffff166306d47de930866040518363ffffffff1660e01b81526004016115c8929190612ab5565b6020604051808303816000875af11580156115e7573d6000803e3d6000fd5b505050506040513d601f19601f8201168201806040525081019061160b919061299f565b9050610400811180156116255750600a83901c600a82901c115b1561166b578481846040517f73a4b39000000000000000000000000000000000000000000000000000000000815260040161166293929190612de4565b60405180910390fd5b506117a1565b6000670de0b6b3a7640000611684610532565b8561168f91906129fb565b6116999190612a84565b90507f000000000000000000000000000000000000000000000000000000000000000073ffffffffffffffffffffffffffffffffffffffff1663fe029156863086886040518563ffffffff1660e01b81526004016116fa9493929190612d68565b6020604051808303816000875af1158015611719573d6000803e3d6000fd5b505050506040513d601f19601f8201168201806040525081019061173d9190612b0a565b50600061174b30888761062a565b9050600a81901c600a83901c101561179e578582826040517f73a4b39000000000000000000000000000000000000000000000000000000000815260040161179593929190612de4565b60405180910390fd5b50505b60019050949350505050565b7f000000000000000000000000000000000000000000000000000000000000000073ffffffffffffffffffffffffffffffffffffffff163373ffffffffffffffffffffffffffffffffffffffff161461185f57337f00000000000000000000000000000000000000000000000000000000000000006040517fd214286f000000000000000000000000000000000000000000000000000000008152600401611856929190612e1b565b60405180910390fd5b60007f000000000000000000000000000000000000000000000000000000000000000090508073ffffffffffffffffffffffffffffffffffffffff1663a9059cbb838373ffffffffffffffffffffffffffffffffffffffff166370a08231306040518263ffffffff1660e01b81526004016118da91906127d7565b602060405180830381865afa1580156118f7573d6000803e3d6000fd5b505050506040513d601f19601f8201168201806040525081019061191b919061299f565b6040518363ffffffff1660e01b8152600401611938929190612ab5565b6020604051808303816000875af1158015611957573d6000803e3d6000fd5b505050506040513d601f19601f8201168201806040525081019061197b9190612b0a565b505050565b6119eb7f00000000000000000000000000000000000000000000000000000000000000007fffffffffffffffffffffffffffffffffffffffffffffffffffffffffffffffff8373ffffffffffffffffffffffffffffffffffffffff166120279092919063ffffffff16565b50565b80600160008573ffffffffffffffffffffffffffffffffffffffff1673ffffffffffffffffffffffffffffffffffffffff16815260200190815260200160002060008473ffffffffffffffffffffffffffffffffffffffff1673ffffffffffffffffffffffffffffffffffffffff168152602001908152602001600020819055508173ffffffffffffffffffffffffffffffffffffffff168373ffffffffffffffffffffffffffffffffffffffff167f8c5be1e5ebec7d5bd14f71427d1e84f3dd0314c0f7b2291e5b200ac8c7c3b92583604051611acc919061275a565b60405180910390a3505050565b60008060008473ffffffffffffffffffffffffffffffffffffffff1673ffffffffffffffffffffffffffffffffffffffff16815260200190815260200160002054905081811015611b635780826040517f0a37dd41000000000000000000000000000000000000000000000000000000008152600401611b5a929190612b37565b60405180910390fd5b8181036000808573ffffffffffffffffffffffffffffffffffffffff1673ffffffffffffffffffffffffffffffffffffffff1681526020019081526020016000208190555081600260008282540392505081905550600073ffffffffffffffffffffffffffffffffffffffff168373ffffffffffffffffffffffffffffffffffffffff167fddf252ad1be2c89b69c2b068fc378daa952ba7f163c4a11628f55a4df523b3ef84604051611c16919061275a565b60405180910390a3505050565b611ca48363a9059cbb60e01b8484604051602401611c42929190612ab5565b604051602081830303815290604052907bffffffffffffffffffffffffffffffffffffffffffffffffffffffff19166020820180517bffffffffffffffffffffffffffffffffffffffffffffffffffffffff838183161783525050505061217e565b505050565b600080670de0b6b3a764000086611cbe610532565b611cc891906129fb565b611cd29190612a84565b905060007f000000000000000000000000000000000000000000000000000000000000000073ffffffffffffffffffffffffffffffffffffffff166370a08231306040518263ffffffff1660e01b8152600401611d2f91906127d7565b602060405180830381865afa158015611d4c573d6000803e3d6000fd5b505050506040513d601f19601f82011682018060405250810190611d70919061299f565b9050611dbf8530867f000000000000000000000000000000000000000000000000000000000000000073ffffffffffffffffffffffffffffffffffffffff1661223c909392919063ffffffff16565b6000817f000000000000000000000000000000000000000000000000000000000000000073ffffffffffffffffffffffffffffffffffffffff166370a08231306040518263ffffffff1660e01b8152600401611e1b91906127d7565b602060405180830381865afa158015611e38573d6000803e3d6000fd5b505050506040513d601f19601f82011682018060405250810190611e5c919061299f565b611e669190612b60565b905082670de0b6b3a764000082611e7d91906129fb565b611e879190612a84565b9350611e9387856122c5565b505050949350505050565b60008060008573ffffffffffffffffffffffffffffffffffffffff1673ffffffffffffffffffffffffffffffffffffffff16815260200190815260200160002054905081811015611f2b57806000836040517f57b9c4a4000000000000000000000000000000000000000000000000000000008152600401611f2293929190612e89565b60405180910390fd5b8181036000808673ffffffffffffffffffffffffffffffffffffffff1673ffffffffffffffffffffffffffffffffffffffff16815260200190815260200160002081905550816000808573ffffffffffffffffffffffffffffffffffffffff1673ffffffffffffffffffffffffffffffffffffffff168152602001908152602001600020600082825401925050819055508273ffffffffffffffffffffffffffffffffffffffff168473ffffffffffffffffffffffffffffffffffffffff167fddf252ad1be2c89b69c2b068fc378daa952ba7f163c4a11628f55a4df523b3ef84604051612019919061275a565b60405180910390a350505050565b6000811180156120b2575060008373ffffffffffffffffffffffffffffffffffffffff1663dd62ed3e30856040518363ffffffff1660e01b815260040161206f929190612e1b565b602060405180830381865afa15801561208c573d6000803e3d6000fd5b505050506040513d601f19601f820116820180604052508101906120b0919061299f565b115b156120f8578282826040517fc1a76f6c0000000000000000000000000000000000000000000000000000000081526004016120ef93929190612dad565b60405180910390fd5b6121798363095ea7b360e01b8484604051602401612117929190612ab5565b604051602081830303815290604052907bffffffffffffffffffffffffffffffffffffffffffffffffffffffff19166020820180517bffffffffffffffffffffffffffffffffffffffffffffffffffffffff838183161783525050505061217e565b505050565b60006121e0826040518060400160405280602081526020017f5361666545524332303a206c6f772d6c6576656c2063616c6c206661696c65648152508573ffffffffffffffffffffffffffffffffffffffff1661239d9092919063ffffffff16565b905060008151111561223757808060200190518101906122009190612b0a565b612236576040517fa479450200000000000000000000000000000000000000000000000000000000815260040160405180910390fd5b5b505050565b6122bf846323b872dd60e01b85858560405160240161225d93929190612dad565b604051602081830303815290604052907bffffffffffffffffffffffffffffffffffffffffffffffffffffffff19166020820180517bffffffffffffffffffffffffffffffffffffffffffffffffffffffff838183161783525050505061217e565b50505050565b80600260008282546122d79190612b94565b92505081905550806000808473ffffffffffffffffffffffffffffffffffffffff1673ffffffffffffffffffffffffffffffffffffffff168152602001908152602001600020600082825461232c9190612b94565b925050819055508173ffffffffffffffffffffffffffffffffffffffff16600073ffffffffffffffffffffffffffffffffffffffff167fddf252ad1be2c89b69c2b068fc378daa952ba7f163c4a11628f55a4df523b3ef83604051612391919061275a565b60405180910390a35050565b60606123ac84846000856123b5565b90509392505050565b6060824710156123fe5747836040517f02de226f0000000000000000000000000000000000000000000000000000000081526004016123f5929190612b37565b60405180910390fd5b612407856124cf565b61244857846040517f8a8b41ec00000000000000000000000000000000000000000000000000000000815260040161243f91906127d7565b60405180910390fd5b6000808673ffffffffffffffffffffffffffffffffffffffff1685876040516124719190612f07565b60006040518083038185875af1925050503d80600081146124ae576040519150601f19603f3d011682016040523d82523d6000602084013e6124b3565b606091505b50915091506124c38282866124f2565b92505050949350505050565b6000808273ffffffffffffffffffffffffffffffffffffffff163b119050919050565b6060831561250257829050612552565b6000835111156125155782518084602001fd5b816040517f08c379a0000000000000000000000000000000000000000000000000000000008152600401612549919061261a565b60405180910390fd5b9392505050565b6040518060800160405280600081526020016000815260200160008152602001600081525090565b600081519050919050565b600082825260208201905092915050565b60005b838110156125bb5780820151818401526020810190506125a0565b838111156125ca576000848401525b50505050565b6000601f19601f8301169050919050565b60006125ec82612581565b6125f6818561258c565b935061260681856020860161259d565b61260f816125d0565b840191505092915050565b6000602082019050818103600083015261263481846125e1565b905092915050565b600080fd5b600073ffffffffffffffffffffffffffffffffffffffff82169050919050565b600061266c82612641565b9050919050565b61267c81612661565b811461268757600080fd5b50565b60008135905061269981612673565b92915050565b6000819050919050565b6126b28161269f565b81146126bd57600080fd5b50565b6000813590506126cf816126a9565b92915050565b600080604083850312156126ec576126eb61263c565b5b60006126fa8582860161268a565b925050602061270b858286016126c0565b9150509250929050565b60008115159050919050565b61272a81612715565b82525050565b60006020820190506127456000830184612721565b92915050565b6127548161269f565b82525050565b600060208201905061276f600083018461274b565b92915050565b60008060006060848603121561278e5761278d61263c565b5b600061279c8682870161268a565b93505060206127ad8682870161268a565b92505060406127be868287016126c0565b9150509250925092565b6127d181612661565b82525050565b60006020820190506127ec60008301846127c8565b92915050565b6000602082840312156128085761280761263c565b5b6000612816848285016126c0565b91505092915050565b600060ff82169050919050565b6128358161281f565b82525050565b6000602082019050612850600083018461282c565b92915050565b60006020828403121561286c5761286b61263c565b5b600061287a8482850161268a565b91505092915050565b6000806000806080858703121561289d5761289c61263c565b5b60006128ab8782880161268a565b94505060206128bc8782880161268a565b93505060406128cd878288016126c0565b92505060606128de878288016126c0565b91505092959194509250565b600080604083850312156129015761290061263c565b5b600061290f8582860161268a565b92505060206129208582860161268a565b9150509250929050565b7f4e487b7100000000000000000000000000000000000000000000000000000000600052602260045260246000fd5b6000600282049050600182168061297157607f821691505b6020821081036129845761298361292a565b5b50919050565b600081519050612999816126a9565b92915050565b6000602082840312156129b5576129b461263c565b5b60006129c38482850161298a565b91505092915050565b7f4e487b7100000000000000000000000000000000000000000000000000000000600052601160045260246000fd5b6000612a068261269f565b9150612a118361269f565b9250817fffffffffffffffffffffffffffffffffffffffffffffffffffffffffffffffff0483118215151615612a4a57612a496129cc565b5b828202905092915050565b7f4e487b7100000000000000000000000000000000000000000000000000000000600052601260045260246000fd5b6000612a8f8261269f565b9150612a9a8361269f565b925082612aaa57612aa9612a55565b5b828204905092915050565b6000604082019050612aca60008301856127c8565b612ad7602083018461274b565b9392505050565b612ae781612715565b8114612af257600080fd5b50565b600081519050612b0481612ade565b92915050565b600060208284031215612b2057612b1f61263c565b5b6000612b2e84828501612af5565b91505092915050565b6000604082019050612b4c600083018561274b565b612b59602083018461274b565b9392505050565b6000612b6b8261269f565b9150612b768361269f565b925082821015612b8957612b886129cc565b5b828203905092915050565b6000612b9f8261269f565b9150612baa8361269f565b9250827fffffffffffffffffffffffffffffffffffffffffffffffffffffffffffffffff03821115612bdf57612bde6129cc565b5b828201905092915050565b60008160011c9050919050565b6000808291508390505b6001851115612c4157808604811115612c1d57612c1c6129cc565b5b6001851615612c2c5780820291505b8081029050612c3a85612bea565b9450612c01565b94509492505050565b600082612c5a5760019050612d16565b81612c685760009050612d16565b8160018114612c7e5760028114612c8857612cb7565b6001915050612d16565b60ff841115612c9a57612c996129cc565b5b8360020a915084821115612cb157612cb06129cc565b5b50612d16565b5060208310610133831016604e8410600b8410161715612cec5782820a905083811115612ce757612ce66129cc565b5b612d16565b612cf98484846001612bf7565b92509050818404811115612d1057612d0f6129cc565b5b81810290505b9392505050565b6000612d288261269f565b9150612d338361281f565b9250612d607fffffffffffffffffffffffffffffffffffffffffffffffffffffffffffffffff8484612c4a565b905092915050565b6000608082019050612d7d60008301876127c8565b612d8a60208301866127c8565b612d97604083018561274b565b612da4606083018461274b565b95945050505050565b6000606082019050612dc260008301866127c8565b612dcf60208301856127c8565b612ddc604083018461274b565b949350505050565b6000606082019050612df960008301866127c8565b612e06602083018561274b565b612e13604083018461274b565b949350505050565b6000604082019050612e3060008301856127c8565b612e3d60208301846127c8565b9392505050565b6000819050919050565b6000819050919050565b6000612e73612e6e612e6984612e44565b612e4e565b61269f565b9050919050565b612e8381612e58565b82525050565b6000606082019050612e9e600083018661274b565b612eab6020830185612e7a565b612eb8604083018461274b565b949350505050565b600081519050919050565b600081905092915050565b6000612ee182612ec0565b612eeb8185612ecb565b9350612efb81856020860161259d565b80840191505092915050565b6000612f138284612ed6565b91508190509291505056fea264697066735822122005b0cd18efa83dbe86950b48b228cb0f30312fdb7862920583155e6cf3b38ba064736f6c634300080d0033",
  "linkReferences": {},
  "deployedLinkReferences": {}
}