{
  "_format": "hh-sol-artifact-1",
  "contractName": "UpdateSoulConfigProposal",
  "sourceName": "contracts/DAO/Proposals/UpdateSoulConfigProposal.sol",
  "abi": [
    {
      "inputs": [
        {
          "internalType": "address",
          "name": "dao",
          "type": "address"
        },
        {
          "internalType": "string",
          "name": "_description",
          "type": "string"
        },
        {
          "internalType": "address",
          "name": "_limbo",
          "type": "address"
        },
        {
          "internalType": "address",
          "name": "morgothTokenApprover",
          "type": "address"
        }
      ],
      "stateMutability": "nonpayable",
      "type": "constructor"
    },
    {
      "inputs": [],
      "name": "ExecutionFailed",
      "type": "error"
    },
    {
      "inputs": [
        {
          "internalType": "address",
          "name": "dao",
          "type": "address"
        },
        {
          "internalType": "address",
          "name": "factory",
          "type": "address"
        }
      ],
      "name": "OnlyFactoryOrDAO",
      "type": "error"
    },
    {
      "inputs": [
        {
          "internalType": "address",
          "name": "proposal",
          "type": "address"
        }
      ],
      "name": "ProposalLocked",
      "type": "error"
    },
    {
      "inputs": [
        {
          "internalType": "address",
          "name": "token",
          "type": "address"
        }
      ],
      "name": "TokenNotApproved",
      "type": "error"
    },
    {
      "inputs": [],
      "name": "description",
      "outputs": [
        {
          "internalType": "string",
          "name": "",
          "type": "string"
        }
      ],
      "stateMutability": "view",
      "type": "function"
    },
    {
      "inputs": [],
      "name": "locked",
      "outputs": [
        {
          "internalType": "bool",
          "name": "",
          "type": "bool"
        }
      ],
      "stateMutability": "view",
      "type": "function"
    },
    {
      "inputs": [],
      "name": "orchestrateExecute",
      "outputs": [],
      "stateMutability": "nonpayable",
      "type": "function"
    },
    {
      "inputs": [
        {
          "internalType": "address",
          "name": "token",
          "type": "address"
        },
        {
          "internalType": "uint256",
          "name": "crossingThreshold",
          "type": "uint256"
        },
        {
          "internalType": "uint256",
          "name": "soulType",
          "type": "uint256"
        },
        {
          "internalType": "uint256",
          "name": "state",
          "type": "uint256"
        },
        {
          "internalType": "uint256",
          "name": "index",
          "type": "uint256"
        },
        {
          "internalType": "uint256",
          "name": "fps",
          "type": "uint256"
        }
      ],
      "name": "parameterize",
      "outputs": [],
      "stateMutability": "nonpayable",
      "type": "function"
    },
    {
      "inputs": [
        {
          "internalType": "bool",
          "name": "_locked",
          "type": "bool"
        }
      ],
      "name": "setLocked",
      "outputs": [],
      "stateMutability": "nonpayable",
      "type": "function"
    }
  ],
  "bytecode": "0x60a06040523480156200001157600080fd5b50604051620010cc380380620010cc8339818101604052810190620000379190620003c6565b83838173ffffffffffffffffffffffffffffffffffffffff1660808173ffffffffffffffffffffffffffffffffffffffff168152505080600090805190602001906200008592919062000114565b50505081600860006101000a81548173ffffffffffffffffffffffffffffffffffffffff021916908373ffffffffffffffffffffffffffffffffffffffff16021790555080600960006101000a81548173ffffffffffffffffffffffffffffffffffffffff021916908373ffffffffffffffffffffffffffffffffffffffff16021790555050505050620004bb565b828054620001229062000486565b90600052602060002090601f01602090048101928262000146576000855562000192565b82601f106200016157805160ff191683800117855562000192565b8280016001018555821562000192579182015b828111156200019157825182559160200191906001019062000174565b5b509050620001a19190620001a5565b5090565b5b80821115620001c0576000816000905550600101620001a6565b5090565b6000604051905090565b600080fd5b600080fd5b600073ffffffffffffffffffffffffffffffffffffffff82169050919050565b60006200020582620001d8565b9050919050565b6200021781620001f8565b81146200022357600080fd5b50565b60008151905062000237816200020c565b92915050565b600080fd5b600080fd5b6000601f19601f8301169050919050565b7f4e487b7100000000000000000000000000000000000000000000000000000000600052604160045260246000fd5b620002928262000247565b810181811067ffffffffffffffff82111715620002b457620002b362000258565b5b80604052505050565b6000620002c9620001c4565b9050620002d7828262000287565b919050565b600067ffffffffffffffff821115620002fa57620002f962000258565b5b620003058262000247565b9050602081019050919050565b60005b838110156200033257808201518184015260208101905062000315565b8381111562000342576000848401525b50505050565b60006200035f6200035984620002dc565b620002bd565b9050828152602081018484840111156200037e576200037d62000242565b5b6200038b84828562000312565b509392505050565b600082601f830112620003ab57620003aa6200023d565b5b8151620003bd84826020860162000348565b91505092915050565b60008060008060808587031215620003e357620003e2620001ce565b5b6000620003f38782880162000226565b945050602085015167ffffffffffffffff811115620004175762000416620001d3565b5b620004258782880162000393565b9350506040620004388782880162000226565b92505060606200044b8782880162000226565b91505092959194509250565b7f4e487b7100000000000000000000000000000000000000000000000000000000600052602260045260246000fd5b600060028204905060018216806200049f57607f821691505b602082108103620004b557620004b462000457565b5b50919050565b608051610be1620004eb6000396000818160de015281816101030152818161026301526102880152610be16000f3fe608060405234801561001057600080fd5b50600436106100575760003560e01c8063211e28b61461005c5780633e7f6c64146100785780637284e41614610082578063cf309012146100a0578063f3d668ad146100be575b600080fd5b61007660048036038101906100719190610796565b6100da565b005b61008061025f565b005b61008a610407565b604051610097919061085c565b60405180910390f35b6100a8610495565b6040516100b5919061088d565b60405180910390f35b6100d860048036038101906100d3919061093c565b6104a8565b005b60007f0000000000000000000000000000000000000000000000000000000000000000905060007f000000000000000000000000000000000000000000000000000000000000000073ffffffffffffffffffffffffffffffffffffffff166301e179dc6040518163ffffffff1660e01b8152600401606060405180830381865afa15801561016c573d6000803e3d6000fd5b505050506040513d601f19601f8201168201806040525081019061019091906109f3565b925050508173ffffffffffffffffffffffffffffffffffffffff163373ffffffffffffffffffffffffffffffffffffffff16141580156101fc57508073ffffffffffffffffffffffffffffffffffffffff163373ffffffffffffffffffffffffffffffffffffffff1614155b156102405781816040517ff8b7c0c3000000000000000000000000000000000000000000000000000000008152600401610237929190610a55565b60405180910390fd5b82600160006101000a81548160ff021916908315150217905550505050565b60007f0000000000000000000000000000000000000000000000000000000000000000905060007f000000000000000000000000000000000000000000000000000000000000000073ffffffffffffffffffffffffffffffffffffffff166301e179dc6040518163ffffffff1660e01b8152600401606060405180830381865afa1580156102f1573d6000803e3d6000fd5b505050506040513d601f19601f8201168201806040525081019061031591906109f3565b925050508173ffffffffffffffffffffffffffffffffffffffff163373ffffffffffffffffffffffffffffffffffffffff161415801561038157508073ffffffffffffffffffffffffffffffffffffffff163373ffffffffffffffffffffffffffffffffffffffff1614155b156103c55781816040517ff8b7c0c30000000000000000000000000000000000000000000000000000000081526004016103bc929190610a55565b60405180910390fd5b6103cd61067c565b610403576040517facfdb44400000000000000000000000000000000000000000000000000000000815260040160405180910390fd5b5050565b6000805461041490610aad565b80601f016020809104026020016040519081016040528092919081815260200182805461044090610aad565b801561048d5780601f106104625761010080835404028352916020019161048d565b820191906000526020600020905b81548152906001019060200180831161047057829003601f168201915b505050505081565b600160009054906101000a900460ff1681565b600160009054906101000a900460ff16156104fa57306040517fefaa447e0000000000000000000000000000000000000000000000000000000081526004016104f19190610ade565b60405180910390fd5b600960009054906101000a900473ffffffffffffffffffffffffffffffffffffffff1673ffffffffffffffffffffffffffffffffffffffff1663d8b964e6876040518263ffffffff1660e01b81526004016105559190610ade565b602060405180830381865afa158015610572573d6000803e3d6000fd5b505050506040513d601f19601f820116820180604052508101906105969190610b0e565b1580156105a35750600284105b156105e557856040517f87921f5a0000000000000000000000000000000000000000000000000000000081526004016105dc9190610ade565b60405180910390fd5b85600260000160006101000a81548173ffffffffffffffffffffffffffffffffffffffff021916908373ffffffffffffffffffffffffffffffffffffffff1602179055508460026001018190555083600280018190555082600260030181905550816002600401819055508060026005018190555060018060006101000a81548160ff021916908315150217905550505050505050565b6000600860009054906101000a900473ffffffffffffffffffffffffffffffffffffffff1673ffffffffffffffffffffffffffffffffffffffff1663d4a4bdee600260000160009054906101000a900473ffffffffffffffffffffffffffffffffffffffff1660026001015460028001546002600301546002600401546002600501546040518763ffffffff1660e01b815260040161072096959493929190610b4a565b600060405180830381600087803b15801561073a57600080fd5b505af115801561074e573d6000803e3d6000fd5b505050506001905090565b600080fd5b60008115159050919050565b6107738161075e565b811461077e57600080fd5b50565b6000813590506107908161076a565b92915050565b6000602082840312156107ac576107ab610759565b5b60006107ba84828501610781565b91505092915050565b600081519050919050565b600082825260208201905092915050565b60005b838110156107fd5780820151818401526020810190506107e2565b8381111561080c576000848401525b50505050565b6000601f19601f8301169050919050565b600061082e826107c3565b61083881856107ce565b93506108488185602086016107df565b61085181610812565b840191505092915050565b600060208201905081810360008301526108768184610823565b905092915050565b6108878161075e565b82525050565b60006020820190506108a2600083018461087e565b92915050565b600073ffffffffffffffffffffffffffffffffffffffff82169050919050565b60006108d3826108a8565b9050919050565b6108e3816108c8565b81146108ee57600080fd5b50565b600081359050610900816108da565b92915050565b6000819050919050565b61091981610906565b811461092457600080fd5b50565b60008135905061093681610910565b92915050565b60008060008060008060c0878903121561095957610958610759565b5b600061096789828a016108f1565b965050602061097889828a01610927565b955050604061098989828a01610927565b945050606061099a89828a01610927565b93505060806109ab89828a01610927565b92505060a06109bc89828a01610927565b9150509295509295509295565b6000815190506109d881610910565b92915050565b6000815190506109ed816108da565b92915050565b600080600060608486031215610a0c57610a0b610759565b5b6000610a1a868287016109c9565b9350506020610a2b868287016109c9565b9250506040610a3c868287016109de565b9150509250925092565b610a4f816108c8565b82525050565b6000604082019050610a6a6000830185610a46565b610a776020830184610a46565b9392505050565b7f4e487b7100000000000000000000000000000000000000000000000000000000600052602260045260246000fd5b60006002820490506001821680610ac557607f821691505b602082108103610ad857610ad7610a7e565b5b50919050565b6000602082019050610af36000830184610a46565b92915050565b600081519050610b088161076a565b92915050565b600060208284031215610b2457610b23610759565b5b6000610b3284828501610af9565b91505092915050565b610b4481610906565b82525050565b600060c082019050610b5f6000830189610a46565b610b6c6020830188610b3b565b610b796040830187610b3b565b610b866060830186610b3b565b610b936080830185610b3b565b610ba060a0830184610b3b565b97965050505050505056fea26469706673582212206779bf922c9a94b3ebca826ab9ba28ba72ed713e729fdf8afca2bd488633444864736f6c634300080d0033",
  "linkReferences": {},
  "deployedLinkReferences": {}
}