{
  "_format": "hh-sol-artifact-1",
  "contractName": "MockMigrationUniPair",
  "sourceName": "contracts/testing/MockMigrationUniPair.sol",
  "abi": [
    {
      "inputs": [
        {
          "internalType": "string",
          "name": "name",
          "type": "string"
        },
        {
          "internalType": "string",
          "name": "symbol",
          "type": "string"
        }
      ],
      "stateMutability": "nonpayable",
      "type": "constructor"
    },
    {
      "inputs": [
        {
          "internalType": "uint256",
          "name": "allowance",
          "type": "uint256"
        },
        {
          "internalType": "uint256",
          "name": "amount",
          "type": "uint256"
        }
      ],
      "name": "AllowanceExceeded",
      "type": "error"
    },
    {
      "inputs": [
        {
          "internalType": "uint256",
          "name": "allowance",
          "type": "uint256"
        },
        {
          "internalType": "uint256",
          "name": "subtraction",
          "type": "uint256"
        }
      ],
      "name": "AllowanceUnderflow",
      "type": "error"
    },
    {
      "inputs": [
        {
          "internalType": "uint256",
          "name": "accountBalance",
          "type": "uint256"
        },
        {
          "internalType": "uint256",
          "name": "amount",
          "type": "uint256"
        }
      ],
      "name": "BurnUnderflow",
      "type": "error"
    },
    {
      "inputs": [
        {
          "internalType": "uint256",
          "name": "senderBalance",
          "type": "uint256"
        },
        {
          "internalType": "uint256",
          "name": "fee",
          "type": "uint256"
        },
        {
          "internalType": "uint256",
          "name": "amount",
          "type": "uint256"
        }
      ],
      "name": "TransferUnderflow",
      "type": "error"
    },
    {
      "anonymous": false,
      "inputs": [
        {
          "indexed": true,
          "internalType": "address",
          "name": "owner",
          "type": "address"
        },
        {
          "indexed": true,
          "internalType": "address",
          "name": "spender",
          "type": "address"
        },
        {
          "indexed": false,
          "internalType": "uint256",
          "name": "value",
          "type": "uint256"
        }
      ],
      "name": "Approval",
      "type": "event"
    },
    {
      "anonymous": false,
      "inputs": [
        {
          "indexed": true,
          "internalType": "address",
          "name": "from",
          "type": "address"
        },
        {
          "indexed": true,
          "internalType": "address",
          "name": "to",
          "type": "address"
        },
        {
          "indexed": false,
          "internalType": "uint256",
          "name": "value",
          "type": "uint256"
        }
      ],
      "name": "Transfer",
      "type": "event"
    },
    {
      "inputs": [
        {
          "internalType": "address",
          "name": "owner",
          "type": "address"
        },
        {
          "internalType": "address",
          "name": "spender",
          "type": "address"
        }
      ],
      "name": "allowance",
      "outputs": [
        {
          "internalType": "uint256",
          "name": "",
          "type": "uint256"
        }
      ],
      "stateMutability": "view",
      "type": "function"
    },
    {
      "inputs": [
        {
          "internalType": "address",
          "name": "spender",
          "type": "address"
        },
        {
          "internalType": "uint256",
          "name": "amount",
          "type": "uint256"
        }
      ],
      "name": "approve",
      "outputs": [
        {
          "internalType": "bool",
          "name": "",
          "type": "bool"
        }
      ],
      "stateMutability": "nonpayable",
      "type": "function"
    },
    {
      "inputs": [
        {
          "internalType": "address",
          "name": "account",
          "type": "address"
        }
      ],
      "name": "balanceOf",
      "outputs": [
        {
          "internalType": "uint256",
          "name": "",
          "type": "uint256"
        }
      ],
      "stateMutability": "view",
      "type": "function"
    },
    {
      "inputs": [
        {
          "internalType": "uint256",
          "name": "amount",
          "type": "uint256"
        }
      ],
      "name": "burn",
      "outputs": [
        {
          "internalType": "bool",
          "name": "",
          "type": "bool"
        }
      ],
      "stateMutability": "nonpayable",
      "type": "function"
    },
    {
      "inputs": [
        {
          "internalType": "address",
          "name": "account",
          "type": "address"
        },
        {
          "internalType": "uint256",
          "name": "amount",
          "type": "uint256"
        }
      ],
      "name": "burnFrom",
      "outputs": [],
      "stateMutability": "nonpayable",
      "type": "function"
    },
    {
      "inputs": [],
      "name": "decimals",
      "outputs": [
        {
          "internalType": "uint8",
          "name": "",
          "type": "uint8"
        }
      ],
      "stateMutability": "view",
      "type": "function"
    },
    {
      "inputs": [
        {
          "internalType": "address",
          "name": "spender",
          "type": "address"
        },
        {
          "internalType": "uint256",
          "name": "subtractedValue",
          "type": "uint256"
        }
      ],
      "name": "decreaseAllowance",
      "outputs": [
        {
          "internalType": "bool",
          "name": "",
          "type": "bool"
        }
      ],
      "stateMutability": "nonpayable",
      "type": "function"
    },
    {
      "inputs": [],
      "name": "factory",
      "outputs": [
        {
          "internalType": "address",
          "name": "",
          "type": "address"
        }
      ],
      "stateMutability": "view",
      "type": "function"
    },
    {
      "inputs": [],
      "name": "getReserves",
      "outputs": [
        {
          "internalType": "uint112",
          "name": "_reserve0",
          "type": "uint112"
        },
        {
          "internalType": "uint112",
          "name": "_reserve1",
          "type": "uint112"
        },
        {
          "internalType": "uint32",
          "name": "_blockTimestampLast",
          "type": "uint32"
        }
      ],
      "stateMutability": "view",
      "type": "function"
    },
    {
      "inputs": [
        {
          "internalType": "address",
          "name": "spender",
          "type": "address"
        },
        {
          "internalType": "uint256",
          "name": "addedValue",
          "type": "uint256"
        }
      ],
      "name": "increaseAllowance",
      "outputs": [
        {
          "internalType": "bool",
          "name": "",
          "type": "bool"
        }
      ],
      "stateMutability": "nonpayable",
      "type": "function"
    },
    {
      "inputs": [
        {
          "internalType": "address",
          "name": "to",
          "type": "address"
        }
      ],
      "name": "mint",
      "outputs": [
        {
          "internalType": "uint256",
          "name": "liquidity",
          "type": "uint256"
        }
      ],
      "stateMutability": "nonpayable",
      "type": "function"
    },
    {
      "inputs": [],
      "name": "name",
      "outputs": [
        {
          "internalType": "string",
          "name": "",
          "type": "string"
        }
      ],
      "stateMutability": "view",
      "type": "function"
    },
    {
      "inputs": [
        {
          "internalType": "uint112",
          "name": "r0",
          "type": "uint112"
        },
        {
          "internalType": "uint112",
          "name": "r1",
          "type": "uint112"
        }
      ],
      "name": "setReserves",
      "outputs": [],
      "stateMutability": "nonpayable",
      "type": "function"
    },
    {
      "inputs": [
        {
          "internalType": "uint256",
          "name": "amount0Out",
          "type": "uint256"
        },
        {
          "internalType": "uint256",
          "name": "amount1Out",
          "type": "uint256"
        },
        {
          "internalType": "address",
          "name": "to",
          "type": "address"
        },
        {
          "internalType": "bytes",
          "name": "data",
          "type": "bytes"
        }
      ],
      "name": "swap",
      "outputs": [],
      "stateMutability": "nonpayable",
      "type": "function"
    },
    {
      "inputs": [],
      "name": "symbol",
      "outputs": [
        {
          "internalType": "string",
          "name": "",
          "type": "string"
        }
      ],
      "stateMutability": "view",
      "type": "function"
    },
    {
      "inputs": [],
      "name": "totalSupply",
      "outputs": [
        {
          "internalType": "uint256",
          "name": "",
          "type": "uint256"
        }
      ],
      "stateMutability": "view",
      "type": "function"
    },
    {
      "inputs": [
        {
          "internalType": "address",
          "name": "recipient",
          "type": "address"
        },
        {
          "internalType": "uint256",
          "name": "amount",
          "type": "uint256"
        }
      ],
      "name": "transfer",
      "outputs": [
        {
          "internalType": "bool",
          "name": "",
          "type": "bool"
        }
      ],
      "stateMutability": "nonpayable",
      "type": "function"
    },
    {
      "inputs": [
        {
          "internalType": "address",
          "name": "sender",
          "type": "address"
        },
        {
          "internalType": "address",
          "name": "recipient",
          "type": "address"
        },
        {
          "internalType": "uint256",
          "name": "amount",
          "type": "uint256"
        }
      ],
      "name": "transferFrom",
      "outputs": [
        {
          "internalType": "bool",
          "name": "",
          "type": "bool"
        }
      ],
      "stateMutability": "nonpayable",
      "type": "function"
    }
  ],
  "bytecode": "0x60806040523480156200001157600080fd5b5060405162001b0c38038062001b0c8339818101604052810190620000379190620002c2565b818181600390805190602001906200005192919062000075565b5080600490805190602001906200006a92919062000075565b5050505050620003ab565b828054620000839062000376565b90600052602060002090601f016020900481019282620000a75760008555620000f3565b82601f10620000c257805160ff1916838001178555620000f3565b82800160010185558215620000f3579182015b82811115620000f2578251825591602001919060010190620000d5565b5b50905062000102919062000106565b5090565b5b808211156200012157600081600090555060010162000107565b5090565b6000604051905090565b600080fd5b600080fd5b600080fd5b600080fd5b6000601f19601f8301169050919050565b7f4e487b7100000000000000000000000000000000000000000000000000000000600052604160045260246000fd5b6200018e8262000143565b810181811067ffffffffffffffff82111715620001b057620001af62000154565b5b80604052505050565b6000620001c562000125565b9050620001d3828262000183565b919050565b600067ffffffffffffffff821115620001f657620001f562000154565b5b620002018262000143565b9050602081019050919050565b60005b838110156200022e57808201518184015260208101905062000211565b838111156200023e576000848401525b50505050565b60006200025b6200025584620001d8565b620001b9565b9050828152602081018484840111156200027a57620002796200013e565b5b620002878482856200020e565b509392505050565b600082601f830112620002a757620002a662000139565b5b8151620002b984826020860162000244565b91505092915050565b60008060408385031215620002dc57620002db6200012f565b5b600083015167ffffffffffffffff811115620002fd57620002fc62000134565b5b6200030b858286016200028f565b925050602083015167ffffffffffffffff8111156200032f576200032e62000134565b5b6200033d858286016200028f565b9150509250929050565b7f4e487b7100000000000000000000000000000000000000000000000000000000600052602260045260246000fd5b600060028204905060018216806200038f57607f821691505b602082108103620003a557620003a462000347565b5b50919050565b61175180620003bb6000396000f3fe608060405234801561001057600080fd5b50600436106101165760003560e01c80636a627842116100a257806395d89b411161007157806395d89b4114610309578063a457c2d714610327578063a9059cbb14610357578063c45a015514610387578063dd62ed3e146103a557610116565b80636a6278421461027157806370a08231146102a157806375ea5f2e146102d157806379cc6790146102ed57610116565b806318160ddd116100e957806318160ddd146101a557806323b872dd146101c3578063313ce567146101f3578063395093511461021157806342966c681461024157610116565b8063022c0d9f1461011b57806306fdde03146101375780630902f1ac14610155578063095ea7b314610175575b600080fd5b61013560048036038101906101309190611055565b6103d5565b005b61013f6103dc565b60405161014c9190611176565b60405180910390f35b61015d61046e565b60405161016c939291906111e0565b60405180910390f35b61018f600480360381019061018a9190611217565b6104b9565b60405161019c9190611272565b60405180910390f35b6101ad6104d0565b6040516101ba919061129c565b60405180910390f35b6101dd60048036038101906101d891906112b7565b6104da565b6040516101ea9190611272565b60405180910390f35b6101fb6105fd565b6040516102089190611326565b60405180910390f35b61022b60048036038101906102269190611217565b610606565b6040516102389190611272565b60405180910390f35b61025b60048036038101906102569190611341565b6106a4565b6040516102689190611272565b60405180910390f35b61028b6004803603810190610286919061136e565b6106b9565b604051610298919061129c565b60405180910390f35b6102bb60048036038101906102b6919061136e565b610773565b6040516102c8919061129c565b60405180910390f35b6102eb60048036038101906102e691906113c7565b6107bb565b005b61030760048036038101906103029190611217565b610829565b005b6103116108a3565b60405161031e9190611176565b60405180910390f35b610341600480360381019061033c9190611217565b610935565b60405161034e9190611272565b60405180910390f35b610371600480360381019061036c9190611217565b610a16565b60405161037e9190611272565b60405180910390f35b61038f610a2d565b60405161039c9190611416565b60405180910390f35b6103bf60048036038101906103ba9190611431565b610a35565b6040516103cc919061129c565b60405180910390f35b5050505050565b6060600380546103eb906114a0565b80601f0160208091040260200160405190810160405280929190818152602001828054610417906114a0565b80156104645780601f1061043957610100808354040283529160200191610464565b820191906000526020600020905b81548152906001019060200180831161044757829003601f168201915b5050505050905090565b6000806000600560009054906101000a90046dffffffffffffffffffffffffffff166005600e9054906101000a90046dffffffffffffffffffffffffffff1642925092509250909192565b60006104c6338484610abc565b6001905092915050565b6000600254905090565b60006104e7848484610ba7565b6000600160008673ffffffffffffffffffffffffffffffffffffffff1673ffffffffffffffffffffffffffffffffffffffff16815260200190815260200160002060003373ffffffffffffffffffffffffffffffffffffffff1673ffffffffffffffffffffffffffffffffffffffff1681526020019081526020016000205490507fffffffffffffffffffffffffffffffffffffffffffffffffffffffffffffffff811415801561059757508083115b156105db5780836040517fa92482560000000000000000000000000000000000000000000000000000000081526004016105d29291906114d1565b60405180910390fd5b6105f1853385846105ec9190611529565b610abc565b60019150509392505050565b60006012905090565b600061069a338484600160003373ffffffffffffffffffffffffffffffffffffffff1673ffffffffffffffffffffffffffffffffffffffff16815260200190815260200160002060008873ffffffffffffffffffffffffffffffffffffffff1673ffffffffffffffffffffffffffffffffffffffff16815260200190815260200160002054610695919061155d565b610abc565b6001905092915050565b60006106b03383610d30565b60019050919050565b6000806005600e9054906101000a90046dffffffffffffffffffffffffffff16600560009054906101000a90046dffffffffffffffffffffffffffff1661070091906115b3565b6005600e9054906101000a90046dffffffffffffffffffffffffffff16600560009054906101000a90046dffffffffffffffffffffffffffff1661074491906115f7565b61074e919061166e565b6dffffffffffffffffffffffffffff16905061076a8382610e7a565b80915050919050565b60008060008373ffffffffffffffffffffffffffffffffffffffff1673ffffffffffffffffffffffffffffffffffffffff168152602001908152602001600020549050919050565b81600560006101000a8154816dffffffffffffffffffffffffffff02191690836dffffffffffffffffffffffffffff160217905550806005600e6101000a8154816dffffffffffffffffffffffffffff02191690836dffffffffffffffffffffffffffff1602179055505050565b60006108358333610a35565b90508181101561087e5780826040517fa92482560000000000000000000000000000000000000000000000000000000081526004016108759291906114d1565b60405180910390fd5b6108948333848461088f9190611529565b610abc565b61089e8383610d30565b505050565b6060600480546108b2906114a0565b80601f01602080910402602001604051908101604052809291908181526020018280546108de906114a0565b801561092b5780601f106109005761010080835404028352916020019161092b565b820191906000526020600020905b81548152906001019060200180831161090e57829003601f168201915b5050505050905090565b600080600160003373ffffffffffffffffffffffffffffffffffffffff1673ffffffffffffffffffffffffffffffffffffffff16815260200190815260200160002060008573ffffffffffffffffffffffffffffffffffffffff1673ffffffffffffffffffffffffffffffffffffffff168152602001908152602001600020549050828110156109fe5780836040517fda2d822c0000000000000000000000000000000000000000000000000000000081526004016109f59291906114d1565b60405180910390fd5b610a0b3385858403610abc565b600191505092915050565b6000610a23338484610ba7565b6001905092915050565b600030905090565b6000600160008473ffffffffffffffffffffffffffffffffffffffff1673ffffffffffffffffffffffffffffffffffffffff16815260200190815260200160002060008373ffffffffffffffffffffffffffffffffffffffff1673ffffffffffffffffffffffffffffffffffffffff16815260200190815260200160002054905092915050565b80600160008573ffffffffffffffffffffffffffffffffffffffff1673ffffffffffffffffffffffffffffffffffffffff16815260200190815260200160002060008473ffffffffffffffffffffffffffffffffffffffff1673ffffffffffffffffffffffffffffffffffffffff168152602001908152602001600020819055508173ffffffffffffffffffffffffffffffffffffffff168373ffffffffffffffffffffffffffffffffffffffff167f8c5be1e5ebec7d5bd14f71427d1e84f3dd0314c0f7b2291e5b200ac8c7c3b92583604051610b9a919061129c565b60405180910390a3505050565b60008060008573ffffffffffffffffffffffffffffffffffffffff1673ffffffffffffffffffffffffffffffffffffffff16815260200190815260200160002054905081811015610c3457806000836040517f57b9c4a4000000000000000000000000000000000000000000000000000000008152600401610c2b939291906116e4565b60405180910390fd5b8181036000808673ffffffffffffffffffffffffffffffffffffffff1673ffffffffffffffffffffffffffffffffffffffff16815260200190815260200160002081905550816000808573ffffffffffffffffffffffffffffffffffffffff1673ffffffffffffffffffffffffffffffffffffffff168152602001908152602001600020600082825401925050819055508273ffffffffffffffffffffffffffffffffffffffff168473ffffffffffffffffffffffffffffffffffffffff167fddf252ad1be2c89b69c2b068fc378daa952ba7f163c4a11628f55a4df523b3ef84604051610d22919061129c565b60405180910390a350505050565b60008060008473ffffffffffffffffffffffffffffffffffffffff1673ffffffffffffffffffffffffffffffffffffffff16815260200190815260200160002054905081811015610dba5780826040517f0a37dd41000000000000000000000000000000000000000000000000000000008152600401610db19291906114d1565b60405180910390fd5b8181036000808573ffffffffffffffffffffffffffffffffffffffff1673ffffffffffffffffffffffffffffffffffffffff1681526020019081526020016000208190555081600260008282540392505081905550600073ffffffffffffffffffffffffffffffffffffffff168373ffffffffffffffffffffffffffffffffffffffff167fddf252ad1be2c89b69c2b068fc378daa952ba7f163c4a11628f55a4df523b3ef84604051610e6d919061129c565b60405180910390a3505050565b8060026000828254610e8c919061155d565b92505081905550806000808473ffffffffffffffffffffffffffffffffffffffff1673ffffffffffffffffffffffffffffffffffffffff1681526020019081526020016000206000828254610ee1919061155d565b925050819055508173ffffffffffffffffffffffffffffffffffffffff16600073ffffffffffffffffffffffffffffffffffffffff167fddf252ad1be2c89b69c2b068fc378daa952ba7f163c4a11628f55a4df523b3ef83604051610f46919061129c565b60405180910390a35050565b600080fd5b600080fd5b6000819050919050565b610f6f81610f5c565b8114610f7a57600080fd5b50565b600081359050610f8c81610f66565b92915050565b600073ffffffffffffffffffffffffffffffffffffffff82169050919050565b6000610fbd82610f92565b9050919050565b610fcd81610fb2565b8114610fd857600080fd5b50565b600081359050610fea81610fc4565b92915050565b600080fd5b600080fd5b600080fd5b60008083601f84011261101557611014610ff0565b5b8235905067ffffffffffffffff81111561103257611031610ff5565b5b60208301915083600182028301111561104e5761104d610ffa565b5b9250929050565b60008060008060006080868803121561107157611070610f52565b5b600061107f88828901610f7d565b955050602061109088828901610f7d565b94505060406110a188828901610fdb565b935050606086013567ffffffffffffffff8111156110c2576110c1610f57565b5b6110ce88828901610fff565b92509250509295509295909350565b600081519050919050565b600082825260208201905092915050565b60005b838110156111175780820151818401526020810190506110fc565b83811115611126576000848401525b50505050565b6000601f19601f8301169050919050565b6000611148826110dd565b61115281856110e8565b93506111628185602086016110f9565b61116b8161112c565b840191505092915050565b60006020820190508181036000830152611190818461113d565b905092915050565b60006dffffffffffffffffffffffffffff82169050919050565b6111bb81611198565b82525050565b600063ffffffff82169050919050565b6111da816111c1565b82525050565b60006060820190506111f560008301866111b2565b61120260208301856111b2565b61120f60408301846111d1565b949350505050565b6000806040838503121561122e5761122d610f52565b5b600061123c85828601610fdb565b925050602061124d85828601610f7d565b9150509250929050565b60008115159050919050565b61126c81611257565b82525050565b60006020820190506112876000830184611263565b92915050565b61129681610f5c565b82525050565b60006020820190506112b1600083018461128d565b92915050565b6000806000606084860312156112d0576112cf610f52565b5b60006112de86828701610fdb565b93505060206112ef86828701610fdb565b925050604061130086828701610f7d565b9150509250925092565b600060ff82169050919050565b6113208161130a565b82525050565b600060208201905061133b6000830184611317565b92915050565b60006020828403121561135757611356610f52565b5b600061136584828501610f7d565b91505092915050565b60006020828403121561138457611383610f52565b5b600061139284828501610fdb565b91505092915050565b6113a481611198565b81146113af57600080fd5b50565b6000813590506113c18161139b565b92915050565b600080604083850312156113de576113dd610f52565b5b60006113ec858286016113b2565b92505060206113fd858286016113b2565b9150509250929050565b61141081610fb2565b82525050565b600060208201905061142b6000830184611407565b92915050565b6000806040838503121561144857611447610f52565b5b600061145685828601610fdb565b925050602061146785828601610fdb565b9150509250929050565b7f4e487b7100000000000000000000000000000000000000000000000000000000600052602260045260246000fd5b600060028204905060018216806114b857607f821691505b6020821081036114cb576114ca611471565b5b50919050565b60006040820190506114e6600083018561128d565b6114f3602083018461128d565b9392505050565b7f4e487b7100000000000000000000000000000000000000000000000000000000600052601160045260246000fd5b600061153482610f5c565b915061153f83610f5c565b925082821015611552576115516114fa565b5b828203905092915050565b600061156882610f5c565b915061157383610f5c565b9250827fffffffffffffffffffffffffffffffffffffffffffffffffffffffffffffffff038211156115a8576115a76114fa565b5b828201905092915050565b60006115be82611198565b91506115c983611198565b9250826dffffffffffffffffffffffffffff038211156115ec576115eb6114fa565b5b828201905092915050565b600061160282611198565b915061160d83611198565b9250816dffffffffffffffffffffffffffff0483118215151615611634576116336114fa565b5b828202905092915050565b7f4e487b7100000000000000000000000000000000000000000000000000000000600052601260045260246000fd5b600061167982611198565b915061168483611198565b9250826116945761169361163f565b5b828204905092915050565b6000819050919050565b6000819050919050565b60006116ce6116c96116c48461169f565b6116a9565b610f5c565b9050919050565b6116de816116b3565b82525050565b60006060820190506116f9600083018661128d565b61170660208301856116d5565b611713604083018461128d565b94935050505056fea264697066735822122096673d8a2e3c14c1c157007c597cceb61564364ff06a33d180465b417fd044fe64736f6c634300080d0033",
  "linkReferences": {},
  "deployedLinkReferences": {}
}