{
  "_format": "hh-sol-artifact-1",
  "contractName": "LimboForProxyMock",
  "sourceName": "contracts/testing/LimboForProxyMock.sol",
  "abi": [
    {
      "inputs": [
        {
          "internalType": "address",
          "name": "token",
          "type": "address"
        }
      ],
      "name": "migrate",
      "outputs": [],
      "stateMutability": "nonpayable",
      "type": "function"
    },
    {
      "inputs": [
        {
          "internalType": "address",
          "name": "token",
          "type": "address"
        },
        {
          "internalType": "uint256",
          "name": "amount",
          "type": "uint256"
        },
        {
          "internalType": "address",
          "name": "staker",
          "type": "address"
        }
      ],
      "name": "stakeFor",
      "outputs": [],
      "stateMutability": "nonpayable",
      "type": "function"
    }
  ],
  "bytecode": "0x608060405234801561001057600080fd5b50610489806100206000396000f3fe608060405234801561001057600080fd5b50600436106100365760003560e01c80639b8f04b71461003b578063ce5494bb14610057575b600080fd5b61005560048036038101906100509190610293565b610073565b005b610071600480360381019061006c91906102e6565b6100f9565b005b8273ffffffffffffffffffffffffffffffffffffffff166323b872dd3330856040518463ffffffff1660e01b81526004016100b093929190610331565b6020604051808303816000875af11580156100cf573d6000803e3d6000fd5b505050506040513d601f19601f820116820180604052508101906100f391906103a0565b50505050565b60008173ffffffffffffffffffffffffffffffffffffffff166370a08231306040518263ffffffff1660e01b815260040161013491906103cd565b602060405180830381865afa158015610151573d6000803e3d6000fd5b505050506040513d601f19601f8201168201806040525081019061017591906103fd565b90508173ffffffffffffffffffffffffffffffffffffffff1663a9059cbb33836040518363ffffffff1660e01b81526004016101b292919061042a565b6020604051808303816000875af11580156101d1573d6000803e3d6000fd5b505050506040513d601f19601f820116820180604052508101906101f591906103a0565b505050565b600080fd5b600073ffffffffffffffffffffffffffffffffffffffff82169050919050565b600061022a826101ff565b9050919050565b61023a8161021f565b811461024557600080fd5b50565b60008135905061025781610231565b92915050565b6000819050919050565b6102708161025d565b811461027b57600080fd5b50565b60008135905061028d81610267565b92915050565b6000806000606084860312156102ac576102ab6101fa565b5b60006102ba86828701610248565b93505060206102cb8682870161027e565b92505060406102dc86828701610248565b9150509250925092565b6000602082840312156102fc576102fb6101fa565b5b600061030a84828501610248565b91505092915050565b61031c8161021f565b82525050565b61032b8161025d565b82525050565b60006060820190506103466000830186610313565b6103536020830185610313565b6103606040830184610322565b949350505050565b60008115159050919050565b61037d81610368565b811461038857600080fd5b50565b60008151905061039a81610374565b92915050565b6000602082840312156103b6576103b56101fa565b5b60006103c48482850161038b565b91505092915050565b60006020820190506103e26000830184610313565b92915050565b6000815190506103f781610267565b92915050565b600060208284031215610413576104126101fa565b5b6000610421848285016103e8565b91505092915050565b600060408201905061043f6000830185610313565b61044c6020830184610322565b939250505056fea264697066735822122081ecee0c18b9721a917456e364843a0a72736c0b62a2effb75d7ac233768f53b64736f6c634300080d0033",
  "linkReferences": {},
  "deployedLinkReferences": {}
}