{
  "_format": "hh-sol-artifact-1",
  "contractName": "LimboDAO",
  "sourceName": "contracts/DAO/LimboDAO.sol",
  "abi": [
    {
      "inputs": [
        {
          "internalType": "address",
          "name": "eye",
          "type": "address"
        },
        {
          "internalType": "address",
          "name": "invalidAsset",
          "type": "address"
        }
      ],
      "name": "AssetMustBeEYE",
      "type": "error"
    },
    {
      "inputs": [
        {
          "internalType": "address",
          "name": "asset",
          "type": "address"
        }
      ],
      "name": "AssetNotApproved",
      "type": "error"
    },
    {
      "inputs": [
        {
          "internalType": "uint256",
          "name": "invariantNumber",
          "type": "uint256"
        },
        {
          "internalType": "uint256",
          "name": "var1",
          "type": "uint256"
        },
        {
          "internalType": "uint256",
          "name": "var2",
          "type": "uint256"
        }
      ],
      "name": "AssetStakeInvariantViolation",
      "type": "error"
    },
    {
      "inputs": [
        {
          "internalType": "uint256",
          "name": "var1",
          "type": "uint256"
        },
        {
          "internalType": "uint256",
          "name": "var2",
          "type": "uint256"
        },
        {
          "internalType": "uint256",
          "name": "var3",
          "type": "uint256"
        }
      ],
      "name": "AssetStakeInvariantViolation1",
      "type": "error"
    },
    {
      "inputs": [],
      "name": "FlashGovNotInitialized",
      "type": "error"
    },
    {
      "inputs": [],
      "name": "FlashGovernerNotSet",
      "type": "error"
    },
    {
      "inputs": [
        {
          "internalType": "uint256",
          "name": "balance",
          "type": "uint256"
        },
        {
          "internalType": "uint256",
          "name": "value",
          "type": "uint256"
        }
      ],
      "name": "InsufficinetFunds",
      "type": "error"
    },
    {
      "inputs": [
        {
          "internalType": "int256",
          "name": "fateCast",
          "type": "int256"
        },
        {
          "internalType": "int256",
          "name": "currentProposalFate",
          "type": "int256"
        }
      ],
      "name": "InvalidVoteCast",
      "type": "error"
    },
    {
      "inputs": [
        {
          "internalType": "address",
          "name": "limbo",
          "type": "address"
        },
        {
          "internalType": "address",
          "name": "flan",
          "type": "address"
        }
      ],
      "name": "LimboAndFlanNotOwnedByDAO",
      "type": "error"
    },
    {
      "inputs": [
        {
          "internalType": "address",
          "name": "current",
          "type": "address"
        },
        {
          "internalType": "address",
          "name": "lodged",
          "type": "address"
        }
      ],
      "name": "LodgeFailActiveProposal",
      "type": "error"
    },
    {
      "inputs": [
        {
          "internalType": "address",
          "name": "EOA",
          "type": "address"
        }
      ],
      "name": "NotAContract",
      "type": "error"
    },
    {
      "inputs": [
        {
          "internalType": "uint256",
          "name": "userBalance",
          "type": "uint256"
        },
        {
          "internalType": "uint256",
          "name": "required",
          "type": "uint256"
        }
      ],
      "name": "NotEnoughFateToLodge",
      "type": "error"
    },
    {
      "inputs": [],
      "name": "NotLive",
      "type": "error"
    },
    {
      "inputs": [
        {
          "internalType": "address",
          "name": "msgSender",
          "type": "address"
        }
      ],
      "name": "OnlyFateSpender",
      "type": "error"
    },
    {
      "inputs": [
        {
          "internalType": "address",
          "name": "caller",
          "type": "address"
        },
        {
          "internalType": "address",
          "name": "owner",
          "type": "address"
        }
      ],
      "name": "OnlyOwner",
      "type": "error"
    },
    {
      "inputs": [
        {
          "internalType": "address",
          "name": "msg_sender",
          "type": "address"
        },
        {
          "internalType": "address",
          "name": "factory",
          "type": "address"
        }
      ],
      "name": "OnlyProposalFactory",
      "type": "error"
    },
    {
      "inputs": [],
      "name": "OperationFailure",
      "type": "error"
    },
    {
      "inputs": [
        {
          "internalType": "address",
          "name": "proposal",
          "type": "address"
        },
        {
          "internalType": "address",
          "name": "currrentProposal",
          "type": "address"
        }
      ],
      "name": "ProposalMismatch",
      "type": "error"
    },
    {
      "inputs": [
        {
          "internalType": "address",
          "name": "proposal",
          "type": "address"
        }
      ],
      "name": "ProposalNotApproved",
      "type": "error"
    },
    {
      "inputs": [
        {
          "internalType": "address",
          "name": "proposal",
          "type": "address"
        }
      ],
      "name": "ProposalNotInVoting",
      "type": "error"
    },
    {
      "inputs": [],
      "name": "TransferToZeroAddress",
      "type": "error"
    },
    {
      "inputs": [
        {
          "internalType": "address",
          "name": "pairFactory",
          "type": "address"
        },
        {
          "internalType": "address",
          "name": "trueFactory",
          "type": "address"
        }
      ],
      "name": "UniswapV2FactoryMismatch",
      "type": "error"
    },
    {
      "inputs": [
        {
          "internalType": "uint256",
          "name": "blockTime",
          "type": "uint256"
        },
        {
          "internalType": "uint256",
          "name": "proposalStartTime",
          "type": "uint256"
        },
        {
          "internalType": "uint256",
          "name": "votingDuration",
          "type": "uint256"
        }
      ],
      "name": "VotingPeriodOver",
      "type": "error"
    },
    {
      "anonymous": false,
      "inputs": [
        {
          "indexed": true,
          "internalType": "address",
          "name": "previousOwner",
          "type": "address"
        },
        {
          "indexed": true,
          "internalType": "address",
          "name": "newOwner",
          "type": "address"
        }
      ],
      "name": "OwnershipTransferred",
      "type": "event"
    },
    {
      "anonymous": false,
      "inputs": [
        {
          "indexed": false,
          "internalType": "address",
          "name": "asset",
          "type": "address"
        },
        {
          "indexed": false,
          "internalType": "bool",
          "name": "appoved",
          "type": "bool"
        }
      ],
      "name": "assetApproval",
      "type": "event"
    },
    {
      "anonymous": false,
      "inputs": [
        {
          "indexed": true,
          "internalType": "address",
          "name": "burner",
          "type": "address"
        },
        {
          "indexed": true,
          "internalType": "address",
          "name": "asset",
          "type": "address"
        },
        {
          "indexed": false,
          "internalType": "uint256",
          "name": "fateCreated",
          "type": "uint256"
        }
      ],
      "name": "assetBurnt",
      "type": "event"
    },
    {
      "anonymous": false,
      "inputs": [
        {
          "indexed": false,
          "internalType": "address",
          "name": "newOwner",
          "type": "address"
        }
      ],
      "name": "daoKilled",
      "type": "event"
    },
    {
      "anonymous": false,
      "inputs": [
        {
          "indexed": true,
          "internalType": "address",
          "name": "proposal",
          "type": "address"
        },
        {
          "indexed": false,
          "internalType": "bool",
          "name": "status",
          "type": "bool"
        }
      ],
      "name": "proposalExecuted",
      "type": "event"
    },
    {
      "anonymous": false,
      "inputs": [
        {
          "indexed": true,
          "internalType": "address",
          "name": "proposal",
          "type": "address"
        },
        {
          "indexed": true,
          "internalType": "address",
          "name": "proposer",
          "type": "address"
        }
      ],
      "name": "proposalLodged",
      "type": "event"
    },
    {
      "anonymous": false,
      "inputs": [
        {
          "indexed": true,
          "internalType": "address",
          "name": "voter",
          "type": "address"
        },
        {
          "indexed": true,
          "internalType": "address",
          "name": "proposal",
          "type": "address"
        },
        {
          "indexed": false,
          "internalType": "int256",
          "name": "fateCast",
          "type": "int256"
        }
      ],
      "name": "voteCast",
      "type": "event"
    },
    {
      "inputs": [
        {
          "internalType": "address",
          "name": "pair",
          "type": "address"
        },
        {
          "internalType": "bool",
          "name": "uni",
          "type": "bool"
        },
        {
          "internalType": "uint256",
          "name": "units",
          "type": "uint256"
        }
      ],
      "name": "EYEEquivalentOfLP",
      "outputs": [
        {
          "internalType": "uint256",
          "name": "",
          "type": "uint256"
        }
      ],
      "stateMutability": "view",
      "type": "function"
    },
    {
      "inputs": [
        {
          "internalType": "address",
          "name": "minter",
          "type": "address"
        },
        {
          "internalType": "bool",
          "name": "enabled",
          "type": "bool"
        }
      ],
      "name": "approveFlanMintingPower",
      "outputs": [],
      "stateMutability": "nonpayable",
      "type": "function"
    },
    {
      "inputs": [
        {
          "internalType": "address",
          "name": "",
          "type": "address"
        }
      ],
      "name": "assetApproved",
      "outputs": [
        {
          "internalType": "bool",
          "name": "",
          "type": "bool"
        }
      ],
      "stateMutability": "view",
      "type": "function"
    },
    {
      "inputs": [
        {
          "internalType": "address",
          "name": "asset",
          "type": "address"
        },
        {
          "internalType": "uint256",
          "name": "amount",
          "type": "uint256"
        },
        {
          "internalType": "bool",
          "name": "uniswap",
          "type": "bool"
        }
      ],
      "name": "burnAsset",
      "outputs": [],
      "stateMutability": "nonpayable",
      "type": "function"
    },
    {
      "inputs": [],
      "name": "currentProposalState",
      "outputs": [
        {
          "internalType": "int256",
          "name": "fate",
          "type": "int256"
        },
        {
          "internalType": "enum ProposalDecision",
          "name": "decision",
          "type": "uint8"
        },
        {
          "internalType": "address",
          "name": "proposer",
          "type": "address"
        },
        {
          "internalType": "uint256",
          "name": "start",
          "type": "uint256"
        },
        {
          "internalType": "contract Proposal",
          "name": "proposal",
          "type": "address"
        }
      ],
      "stateMutability": "view",
      "type": "function"
    },
    {
      "inputs": [],
      "name": "domainConfig",
      "outputs": [
        {
          "internalType": "address",
          "name": "limbo",
          "type": "address"
        },
        {
          "internalType": "address",
          "name": "flan",
          "type": "address"
        },
        {
          "internalType": "address",
          "name": "eye",
          "type": "address"
        },
        {
          "internalType": "address",
          "name": "fate",
          "type": "address"
        },
        {
          "internalType": "bool",
          "name": "live",
          "type": "bool"
        },
        {
          "internalType": "address",
          "name": "flashGoverner",
          "type": "address"
        },
        {
          "internalType": "contract LimboOracleLike",
          "name": "sushiOracle",
          "type": "address"
        },
        {
          "internalType": "contract LimboOracleLike",
          "name": "uniOracle",
          "type": "address"
        }
      ],
      "stateMutability": "view",
      "type": "function"
    },
    {
      "inputs": [],
      "name": "executeCurrentProposal",
      "outputs": [],
      "stateMutability": "nonpayable",
      "type": "function"
    },
    {
      "inputs": [
        {
          "internalType": "address",
          "name": "",
          "type": "address"
        }
      ],
      "name": "fateGrowthStrategy",
      "outputs": [
        {
          "internalType": "enum FateGrowthStrategy",
          "name": "",
          "type": "uint8"
        }
      ],
      "stateMutability": "view",
      "type": "function"
    },
    {
      "inputs": [
        {
          "internalType": "address",
          "name": "",
          "type": "address"
        }
      ],
      "name": "fateSpenders",
      "outputs": [
        {
          "internalType": "bool",
          "name": "",
          "type": "bool"
        }
      ],
      "stateMutability": "view",
      "type": "function"
    },
    {
      "inputs": [
        {
          "internalType": "address",
          "name": "",
          "type": "address"
        }
      ],
      "name": "fateState",
      "outputs": [
        {
          "internalType": "uint256",
          "name": "fatePerDay",
          "type": "uint256"
        },
        {
          "internalType": "uint256",
          "name": "fateBalance",
          "type": "uint256"
        },
        {
          "internalType": "uint256",
          "name": "lastDamnAdjustment",
          "type": "uint256"
        }
      ],
      "stateMutability": "view",
      "type": "function"
    },
    {
      "inputs": [],
      "name": "getFlashGoverner",
      "outputs": [
        {
          "internalType": "address",
          "name": "",
          "type": "address"
        }
      ],
      "stateMutability": "view",
      "type": "function"
    },
    {
      "inputs": [
        {
          "internalType": "address",
          "name": "user",
          "type": "address"
        }
      ],
      "name": "incrementFateFor",
      "outputs": [],
      "stateMutability": "nonpayable",
      "type": "function"
    },
    {
      "inputs": [
        {
          "internalType": "address",
          "name": "newOwner",
          "type": "address"
        }
      ],
      "name": "killDAO",
      "outputs": [],
      "stateMutability": "nonpayable",
      "type": "function"
    },
    {
      "inputs": [],
      "name": "makeLive",
      "outputs": [],
      "stateMutability": "nonpayable",
      "type": "function"
    },
    {
      "inputs": [
        {
          "internalType": "address",
          "name": "proposal",
          "type": "address"
        },
        {
          "internalType": "address",
          "name": "proposer",
          "type": "address"
        }
      ],
      "name": "makeProposal",
      "outputs": [],
      "stateMutability": "nonpayable",
      "type": "function"
    },
    {
      "inputs": [],
      "name": "owner",
      "outputs": [
        {
          "internalType": "address",
          "name": "",
          "type": "address"
        }
      ],
      "stateMutability": "view",
      "type": "function"
    },
    {
      "inputs": [],
      "name": "proposalConfig",
      "outputs": [
        {
          "internalType": "uint256",
          "name": "votingDuration",
          "type": "uint256"
        },
        {
          "internalType": "uint256",
          "name": "requiredFateStake",
          "type": "uint256"
        },
        {
          "internalType": "address",
          "name": "proposalFactory",
          "type": "address"
        }
      ],
      "stateMutability": "view",
      "type": "function"
    },
    {
      "inputs": [
        {
          "internalType": "address",
          "name": "limbo",
          "type": "address"
        },
        {
          "internalType": "address",
          "name": "flan",
          "type": "address"
        },
        {
          "internalType": "address",
          "name": "eye",
          "type": "address"
        },
        {
          "internalType": "address",
          "name": "proposalFactory",
          "type": "address"
        },
        {
          "internalType": "address",
          "name": "sushiOracle",
          "type": "address"
        },
        {
          "internalType": "address",
          "name": "uniOracle",
          "type": "address"
        },
        {
          "internalType": "address[]",
          "name": "sushiMetaLPs",
          "type": "address[]"
        },
        {
          "internalType": "address[]",
          "name": "uniMetaLPs",
          "type": "address[]"
        }
      ],
      "name": "seed",
      "outputs": [],
      "stateMutability": "nonpayable",
      "type": "function"
    },
    {
      "inputs": [
        {
          "internalType": "address",
          "name": "asset",
          "type": "address"
        },
        {
          "internalType": "bool",
          "name": "approved",
          "type": "bool"
        },
        {
          "internalType": "bool",
          "name": "isUniswap",
          "type": "bool"
        },
        {
          "internalType": "uint256",
          "name": "period",
          "type": "uint256"
        }
      ],
      "name": "setApprovedAsset",
      "outputs": [],
      "stateMutability": "nonpayable",
      "type": "function"
    },
    {
      "inputs": [
        {
          "internalType": "uint256",
          "name": "finalAssetBalance",
          "type": "uint256"
        },
        {
          "internalType": "uint256",
          "name": "finalEYEBalance",
          "type": "uint256"
        },
        {
          "internalType": "uint256",
          "name": "rootEYE",
          "type": "uint256"
        },
        {
          "internalType": "address",
          "name": "asset",
          "type": "address"
        },
        {
          "internalType": "bool",
          "name": "uniswap",
          "type": "bool"
        }
      ],
      "name": "setEYEBasedAssetStake",
      "outputs": [],
      "stateMutability": "nonpayable",
      "type": "function"
    },
    {
      "inputs": [
        {
          "internalType": "address",
          "name": "spender",
          "type": "address"
        },
        {
          "internalType": "bool",
          "name": "enabled",
          "type": "bool"
        }
      ],
      "name": "setFateSpender",
      "outputs": [],
      "stateMutability": "nonpayable",
      "type": "function"
    },
    {
      "inputs": [
        {
          "internalType": "address",
          "name": "flashGovernor",
          "type": "address"
        }
      ],
      "name": "setFlashGoverner",
      "outputs": [],
      "stateMutability": "nonpayable",
      "type": "function"
    },
    {
      "inputs": [
        {
          "internalType": "uint256",
          "name": "votingDuration",
          "type": "uint256"
        },
        {
          "internalType": "uint256",
          "name": "requiredFateStake",
          "type": "uint256"
        },
        {
          "internalType": "address",
          "name": "proposalFactory",
          "type": "address"
        }
      ],
      "name": "setProposalConfig",
      "outputs": [],
      "stateMutability": "nonpayable",
      "type": "function"
    },
    {
      "inputs": [
        {
          "internalType": "address",
          "name": "",
          "type": "address"
        },
        {
          "internalType": "address",
          "name": "",
          "type": "address"
        }
      ],
      "name": "stakedUserAssetWeight",
      "outputs": [
        {
          "internalType": "uint256",
          "name": "fateWeight",
          "type": "uint256"
        },
        {
          "internalType": "uint256",
          "name": "balance",
          "type": "uint256"
        }
      ],
      "stateMutability": "view",
      "type": "function"
    },
    {
      "inputs": [
        {
          "internalType": "address",
          "name": "proposal",
          "type": "address"
        }
      ],
      "name": "successfulProposal",
      "outputs": [
        {
          "internalType": "bool",
          "name": "",
          "type": "bool"
        }
      ],
      "stateMutability": "view",
      "type": "function"
    },
    {
      "inputs": [],
      "name": "timeRemainingOnProposal",
      "outputs": [
        {
          "internalType": "uint256",
          "name": "",
          "type": "uint256"
        }
      ],
      "stateMutability": "view",
      "type": "function"
    },
    {
      "inputs": [
        {
          "internalType": "address",
          "name": "holder",
          "type": "address"
        },
        {
          "internalType": "address",
          "name": "recipient",
          "type": "address"
        },
        {
          "internalType": "uint256",
          "name": "amount",
          "type": "uint256"
        }
      ],
      "name": "transferFate",
      "outputs": [],
      "stateMutability": "nonpayable",
      "type": "function"
    },
    {
      "inputs": [
        {
          "internalType": "address",
          "name": "newOwner",
          "type": "address"
        }
      ],
      "name": "transferOwnership",
      "outputs": [],
      "stateMutability": "nonpayable",
      "type": "function"
    },
    {
      "inputs": [
        {
          "internalType": "address",
          "name": "thing",
          "type": "address"
        },
        {
          "internalType": "address",
          "name": "destination",
          "type": "address"
        }
      ],
      "name": "transferOwnershipOfThing",
      "outputs": [],
      "stateMutability": "nonpayable",
      "type": "function"
    },
    {
      "inputs": [
        {
          "internalType": "address",
          "name": "governed",
          "type": "address"
        },
        {
          "internalType": "address",
          "name": "newDAO",
          "type": "address"
        }
      ],
      "name": "transferToNewDAO",
      "outputs": [],
      "stateMutability": "nonpayable",
      "type": "function"
    },
    {
      "inputs": [
        {
          "internalType": "address",
          "name": "proposal",
          "type": "address"
        },
        {
          "internalType": "int256",
          "name": "fate",
          "type": "int256"
        }
      ],
      "name": "vote",
      "outputs": [],
      "stateMutability": "nonpayable",
      "type": "function"
    }
  ],
  "bytecode": "0x60806040523480156200001157600080fd5b5062000023336200002960201b60201c565b620000ed565b60008060009054906101000a900473ffffffffffffffffffffffffffffffffffffffff169050816000806101000a81548173ffffffffffffffffffffffffffffffffffffffff021916908373ffffffffffffffffffffffffffffffffffffffff1602179055508173ffffffffffffffffffffffffffffffffffffffff168173ffffffffffffffffffffffffffffffffffffffff167f8be0079c531659141344cd1fd0a4f28419497f9722a3daafe3b4186f6b6457e060405160405180910390a35050565b615e6480620000fd6000396000f3fe608060405234801561001057600080fd5b50600436106101e55760003560e01c80638da5cb5b1161010f578063bc7e7d51116100a2578063e8d9735f11610071578063e8d9735f14610559578063f2fde38b1461057e578063f68884001461059a578063f7617f31146105b6576101e5565b8063bc7e7d51146104e9578063bd0798f614610505578063ce96901114610521578063e0dafbf71461053d576101e5565b8063abbe718a116100de578063abbe718a14610463578063b0dfaa7a1461047f578063b143893b1461049b578063b7ebc23b146104b9576101e5565b80638da5cb5b146103db57806390e7760e146103f957806394e7bfa014610403578063970f76bc14610433576101e5565b80632dfa8f5c11610187578063555a759c11610156578063555a759c146103515780635e068d701461036d578063626fae961461039d57806364c5ce86146103b9576101e5565b80632dfa8f5c146102cb5780632ed4c872146102e757806339a8e3c21461030357806345af26d014610335576101e5565b80630d56575d116101c35780630d56575d1461026b5780631fdca146146102755780632317beae146102915780632b57bb80146102af576101e5565b806301e179dc146101ea57806302495fd01461020a57806303ab440f1461023b575b600080fd5b6101f26105d2565b604051610201939291906148f5565b60405180910390f35b610224600480360381019061021f919061496c565b61060a565b6040516102329291906149ac565b60405180910390f35b610255600480360381019061025091906149d5565b61063b565b6040516102629190614a1d565b60405180910390f35b61027361065b565b005b61028f600480360381019061028a9190614a64565b6109e0565b005b610299610b25565b6040516102a69190614aa4565b60405180910390f35b6102c960048036038101906102c49190614aeb565b610bdc565b005b6102e560048036038101906102e091906149d5565b610ca0565b005b61030160048036038101906102fc91906149d5565b610d67565b005b61031d600480360381019061031891906149d5565b610fa7565b60405161032c93929190614b3e565b60405180910390f35b61034f600480360381019061034a9190614b75565b610fd1565b005b61036b60048036038101906103669190614d21565b61114b565b005b610387600480360381019061038291906149d5565b61164f565b6040516103949190614e86565b60405180910390f35b6103b760048036038101906103b29190614ea1565b61166f565b005b6103c1611721565b6040516103d2959493929190614fc8565b60405180910390f35b6103e3611792565b6040516103f09190614aa4565b60405180910390f35b6104016117bb565b005b61041d600480360381019061041891906149d5565b611a73565b60405161042a9190614a1d565b60405180910390f35b61044d6004803603810190610448919061501b565b611a93565b60405161045a919061506e565b60405180910390f35b61047d6004803603810190610478919061496c565b611bbe565b005b610499600480360381019061049491906150b5565b611c94565b005b6104a36120c8565b6040516104b0919061506e565b60405180910390f35b6104d360048036038101906104ce91906149d5565b6121ad565b6040516104e09190614a1d565b60405180910390f35b61050360048036038101906104fe919061496c565b61224c565b005b61051f600480360381019061051a91906150f5565b6129f7565b005b61053b60048036038101906105369190615170565b613097565b005b61055760048036038101906105529190614a64565b6133f1565b005b61056161350f565b6040516105759897969594939291906151e4565b60405180910390f35b610598600480360381019061059391906149d5565b613632565b005b6105b460048036038101906105af91906149d5565b61371b565b005b6105d060048036038101906105cb919061496c565b6137b2565b005b60088060000154908060010154908060020160009054906101000a900473ffffffffffffffffffffffffffffffffffffffff16905083565b600f602052816000526040600020602052806000526040600020600091509150508060000154908060010154905082565b600e6020528060005260406000206000915054906101000a900460ff1681565b6106643361371b565b600073ffffffffffffffffffffffffffffffffffffffff16601060030160009054906101000a900473ffffffffffffffffffffffffffffffffffffffff1673ffffffffffffffffffffffffffffffffffffffff16146109de576000601060020154426106d09190615291565b90506000600860000154821015801561071f5750600060038111156106f8576106f7614e0f565b5b601060010160009054906101000a900460ff16600381111561071d5761071c614e0f565b5b145b156109db5760006010600001541315610930576001601060010160006101000a81548160ff0219169083600381111561075b5761075a614e0f565b5b0217905550601060030160009054906101000a900473ffffffffffffffffffffffffffffffffffffffff1673ffffffffffffffffffffffffffffffffffffffff166040516024016040516020818303038152906040527f3e7f6c64000000000000000000000000000000000000000000000000000000007bffffffffffffffffffffffffffffffffffffffffffffffffffffffff19166020820180517bffffffffffffffffffffffffffffffffffffffffffffffffffffffff838183161783525050505060405161082c919061533f565b6000604051808303816000865af19150503d8060008114610869576040519150601f19603f3d011682016040523d82523d6000602084013e61086e565b606091505b505080915050600860010154600d6000601060010160019054906101000a900473ffffffffffffffffffffffffffffffffffffffff1673ffffffffffffffffffffffffffffffffffffffff1673ffffffffffffffffffffffffffffffffffffffff16815260200190815260200160002060010160008282546108f09190615356565b925050819055508061092b576003601060010160006101000a81548160ff0219169083600381111561092557610924614e0f565b5b02179055505b61095f565b6002601060010160006101000a81548160ff0219169083600381111561095957610958614e0f565b5b02179055505b601060030160009054906101000a900473ffffffffffffffffffffffffffffffffffffffff1673ffffffffffffffffffffffffffffffffffffffff167f7745d71a4be808e4c2ce16eabb0c47208c72a57fde3d997ba8847e4bf554276d826040516109ca9190614a1d565b60405180910390a26109da6138a1565b5b50505b565b600160030160149054906101000a900460ff168015610a055750610a03336121ad565b155b15610a4757336040517f0a5d9800000000000000000000000000000000000000000000000000000000008152600401610a3e9190614aa4565b60405180910390fd5b600160030160149054906101000a900460ff16610a90576040517fbaf13b3f00000000000000000000000000000000000000000000000000000000815260040160405180910390fd5b6001800160009054906101000a900473ffffffffffffffffffffffffffffffffffffffff1673ffffffffffffffffffffffffffffffffffffffff1663d7a8ac0a83836040518363ffffffff1660e01b8152600401610aef9291906153ac565b600060405180830381600087803b158015610b0957600080fd5b505af1158015610b1d573d6000803e3d6000fd5b505050505050565b60008073ffffffffffffffffffffffffffffffffffffffff16600160040160009054906101000a900473ffffffffffffffffffffffffffffffffffffffff1673ffffffffffffffffffffffffffffffffffffffff1603610bb1576040517f3e9f9ef300000000000000000000000000000000000000000000000000000000815260040160405180910390fd5b600160040160009054906101000a900473ffffffffffffffffffffffffffffffffffffffff16905090565b600160030160149054906101000a900460ff168015610c015750610bff336121ad565b155b15610c4357336040517f0a5d9800000000000000000000000000000000000000000000000000000000008152600401610c3a9190614aa4565b60405180910390fd5b826008600001819055508160086001018190555080600860020160006101000a81548173ffffffffffffffffffffffffffffffffffffffff021916908373ffffffffffffffffffffffffffffffffffffffff160217905550505050565b3373ffffffffffffffffffffffffffffffffffffffff16610cbf611792565b73ffffffffffffffffffffffffffffffffffffffff1614610d205733610ce3611792565b6040517fa3ee740f000000000000000000000000000000000000000000000000000000008152600401610d179291906153d5565b60405180910390fd5b80600160040160006101000a81548173ffffffffffffffffffffffffffffffffffffffff021916908373ffffffffffffffffffffffffffffffffffffffff16021790555050565b3373ffffffffffffffffffffffffffffffffffffffff16610d86611792565b73ffffffffffffffffffffffffffffffffffffffff1614610de75733610daa611792565b6040517fa3ee740f000000000000000000000000000000000000000000000000000000008152600401610dde9291906153d5565b60405180910390fd5b600160030160149054906101000a900460ff16610e30576040517fbaf13b3f00000000000000000000000000000000000000000000000000000000815260040160405180910390fd5b6000600160030160146101000a81548160ff0219169083151502179055506001800160009054906101000a900473ffffffffffffffffffffffffffffffffffffffff1673ffffffffffffffffffffffffffffffffffffffff1663e73a914c826040518263ffffffff1660e01b8152600401610eab9190614aa4565b600060405180830381600087803b158015610ec557600080fd5b505af1158015610ed9573d6000803e3d6000fd5b50505050600160000160009054906101000a900473ffffffffffffffffffffffffffffffffffffffff1673ffffffffffffffffffffffffffffffffffffffff1663e73a914c826040518263ffffffff1660e01b8152600401610f3b9190614aa4565b600060405180830381600087803b158015610f5557600080fd5b505af1158015610f69573d6000803e3d6000fd5b505050507f027d12de79f28202b419561536dd7fb6cd28918aadc661bb4adcf06d6d8f6f9381604051610f9c9190614aa4565b60405180910390a150565b600d6020528060005260406000206000915090508060000154908060010154908060020154905083565b600e60003373ffffffffffffffffffffffffffffffffffffffff1673ffffffffffffffffffffffffffffffffffffffff16815260200190815260200160002060009054906101000a900460ff1661105f57336040517ffce104730000000000000000000000000000000000000000000000000000000081526004016110569190614aa4565b60405180910390fd5b80600d60008573ffffffffffffffffffffffffffffffffffffffff1673ffffffffffffffffffffffffffffffffffffffff16815260200190815260200160002060010160008282546110b19190615291565b92505081905550600073ffffffffffffffffffffffffffffffffffffffff168273ffffffffffffffffffffffffffffffffffffffff16146111465780600d60008473ffffffffffffffffffffffffffffffffffffffff1673ffffffffffffffffffffffffffffffffffffffff168152602001908152602001600020600101600082825461113e9190615356565b925050819055505b505050565b3373ffffffffffffffffffffffffffffffffffffffff1661116a611792565b73ffffffffffffffffffffffffffffffffffffffff16146111cb573361118e611792565b6040517fa3ee740f0000000000000000000000000000000000000000000000000000000081526004016111c29291906153d5565b60405180910390fd5b6111d88888888787613a02565b6202a300600860000181905550670de0b6b3a764000060df6111fa91906153fe565b60086001018190555084600860020160006101000a81548173ffffffffffffffffffffffffffffffffffffffff021916908373ffffffffffffffffffffffffffffffffffffffff16021790555060008473ffffffffffffffffffffffffffffffffffffffff1663c45a01556040518163ffffffff1660e01b81526004016020604051808303816000875af1158015611296573d6000803e3d6000fd5b505050506040513d601f19601f820116820180604052508101906112ba9190615496565b905060008473ffffffffffffffffffffffffffffffffffffffff1663c45a01556040518163ffffffff1660e01b81526004016020604051808303816000875af115801561130b573d6000803e3d6000fd5b505050506040513d601f19601f8201168201806040525081019061132f9190615496565b905060005b8451811015611478576000858281518110611352576113516154c3565b5b602002602001015173ffffffffffffffffffffffffffffffffffffffff1663c45a01556040518163ffffffff1660e01b8152600401602060405180830381865afa1580156113a4573d6000803e3d6000fd5b505050506040513d601f19601f820116820180604052508101906113c89190615507565b90508373ffffffffffffffffffffffffffffffffffffffff168173ffffffffffffffffffffffffffffffffffffffff161461143c5780846040517ff2300c380000000000000000000000000000000000000000000000000000000081526004016114339291906153d5565b60405180910390fd5b611464868381518110611452576114516154c3565b5b60200260200101516001600080613ca7565b50808061147090615534565b915050611334565b5060005b8351811015611642578173ffffffffffffffffffffffffffffffffffffffff168482815181106114af576114ae6154c3565b5b602002602001015173ffffffffffffffffffffffffffffffffffffffff1663c45a01556040518163ffffffff1660e01b8152600401602060405180830381865afa158015611501573d6000803e3d6000fd5b505050506040513d601f19601f820116820180604052508101906115259190615507565b73ffffffffffffffffffffffffffffffffffffffff161461160757838181518110611553576115526154c3565b5b602002602001015173ffffffffffffffffffffffffffffffffffffffff1663c45a01556040518163ffffffff1660e01b8152600401602060405180830381865afa1580156115a5573d6000803e3d6000fd5b505050506040513d601f19601f820116820180604052508101906115c99190615507565b826040517ff2300c380000000000000000000000000000000000000000000000000000000081526004016115fe9291906153d5565b60405180910390fd5b61162f84828151811061161d5761161c6154c3565b5b60200260200101516001806000613ca7565b808061163a90615534565b91505061147c565b5050505050505050505050565b600b6020528060005260406000206000915054906101000a900460ff1681565b600160030160149054906101000a900460ff1680156116945750611692336121ad565b155b156116d657336040517f0a5d98000000000000000000000000000000000000000000000000000000000081526004016116cd9190614aa4565b60405180910390fd5b6116e284848484613ca7565b7f2747e4eb130851ff5a5701cde7440cb02654eba2623bee18804ed959289a0d7084846040516117139291906153ac565b60405180910390a150505050565b60108060000154908060010160009054906101000a900460ff16908060010160019054906101000a900473ffffffffffffffffffffffffffffffffffffffff16908060020154908060030160009054906101000a900473ffffffffffffffffffffffffffffffffffffffff16905085565b60008060009054906101000a900473ffffffffffffffffffffffffffffffffffffffff16905090565b3373ffffffffffffffffffffffffffffffffffffffff166117da611792565b73ffffffffffffffffffffffffffffffffffffffff161461183b57336117fe611792565b6040517fa3ee740f0000000000000000000000000000000000000000000000000000000081526004016118329291906153d5565b60405180910390fd5b3073ffffffffffffffffffffffffffffffffffffffff16600160000160009054906101000a900473ffffffffffffffffffffffffffffffffffffffff1673ffffffffffffffffffffffffffffffffffffffff166398fabd3a6040518163ffffffff1660e01b8152600401602060405180830381865afa1580156118c2573d6000803e3d6000fd5b505050506040513d601f19601f820116820180604052508101906118e69190615507565b73ffffffffffffffffffffffffffffffffffffffff161415806119c757503073ffffffffffffffffffffffffffffffffffffffff166001800160009054906101000a900473ffffffffffffffffffffffffffffffffffffffff1673ffffffffffffffffffffffffffffffffffffffff166398fabd3a6040518163ffffffff1660e01b8152600401602060405180830381865afa15801561198a573d6000803e3d6000fd5b505050506040513d601f19601f820116820180604052508101906119ae9190615507565b73ffffffffffffffffffffffffffffffffffffffff1614155b15611a5457600160000160009054906101000a900473ffffffffffffffffffffffffffffffffffffffff166001800160009054906101000a900473ffffffffffffffffffffffffffffffffffffffff166040517f48db365f000000000000000000000000000000000000000000000000000000008152600401611a4b9291906153d5565b60405180910390fd5b60018060030160146101000a81548160ff021916908315150217905550565b600c6020528060005260406000206000915054906101000a900460ff1681565b60008083611ac657600160050160009054906101000a900473ffffffffffffffffffffffffffffffffffffffff16611aed565b600160060160009054906101000a900473ffffffffffffffffffffffffffffffffffffffff165b90506000620f4240848373ffffffffffffffffffffffffffffffffffffffff1663636cfa0c89600160020160009054906101000a900473ffffffffffffffffffffffffffffffffffffffff16620f42406040518463ffffffff1660e01b8152600401611b5b939291906155b7565b602060405180830381865afa158015611b78573d6000803e3d6000fd5b505050506040513d601f19601f82011682018060405250810190611b9c9190615603565b611ba691906153fe565b611bb0919061565f565b905080925050509392505050565b600160030160149054906101000a900460ff168015611be35750611be1336121ad565b155b15611c2557336040517f0a5d9800000000000000000000000000000000000000000000000000000000008152600401611c1c9190614aa4565b60405180910390fd5b8173ffffffffffffffffffffffffffffffffffffffff1663f2fde38b826040518263ffffffff1660e01b8152600401611c5e9190614aa4565b600060405180830381600087803b158015611c7857600080fd5b505af1158015611c8c573d6000803e3d6000fd5b505050505050565b600160030160149054906101000a900460ff16611cdd576040517fbaf13b3f00000000000000000000000000000000000000000000000000000000815260040160405180910390fd5b611ce63361371b565b601060030160009054906101000a900473ffffffffffffffffffffffffffffffffffffffff1673ffffffffffffffffffffffffffffffffffffffff168273ffffffffffffffffffffffffffffffffffffffff1614611da25781601060030160009054906101000a900473ffffffffffffffffffffffffffffffffffffffff166040517f365c07a8000000000000000000000000000000000000000000000000000000008152600401611d999291906153d5565b60405180910390fd5b60006003811115611db657611db5614e0f565b5b601060010160009054906101000a900460ff166003811115611ddb57611dda614e0f565b5b14611e4257601060030160009054906101000a900473ffffffffffffffffffffffffffffffffffffffff166040517f25b4ab3e000000000000000000000000000000000000000000000000000000008152600401611e399190614aa4565b60405180910390fd5b610e10600860000154611e559190615291565b60106002015442611e669190615291565b1115611f92576000601060000154905060008183611e849190615690565b1480611e905750600082145b15611ed45781816040517f7dffbbb3000000000000000000000000000000000000000000000000000000008152600401611ecb929190615724565b60405180910390fd5b60086000015460106002015442611eeb9190615291565b1115611f3c57426010600201546008600001546040517f6d0c9dcf000000000000000000000000000000000000000000000000000000008152600401611f3393929190614b3e565b60405180910390fd5b60008183611f4a919061574d565b128015611f6e5750600281611f5f91906159c0565b600283611f6c91906159c0565b135b15611f9057611c20601060020154611f869190615356565b6010600201819055505b505b6000808213611faa5781611fa590615a2c565b611fac565b815b905080600d60003373ffffffffffffffffffffffffffffffffffffffff1673ffffffffffffffffffffffffffffffffffffffff16815260200190815260200160002060010154611ffc9190615291565b600d60003373ffffffffffffffffffffffffffffffffffffffff1673ffffffffffffffffffffffffffffffffffffffff1681526020019081526020016000206001018190555081601060000160008282546120579190615690565b925050819055508273ffffffffffffffffffffffffffffffffffffffff163373ffffffffffffffffffffffffffffffffffffffff167f7f0a0c719a420e0a26f3bd9036dbbded84aa10be7ab78b8cbd099d971d6a3d2a846040516120bb9190615a74565b60405180910390a3505050565b60008060038111156120dd576120dc614e0f565b5b601060010160009054906101000a900460ff16600381111561210257612101614e0f565b5b1461216957601060030160009054906101000a900473ffffffffffffffffffffffffffffffffffffffff166040517f25b4ab3e0000000000000000000000000000000000000000000000000000000081526004016121609190614aa4565b60405180910390fd5b60006010600201544261217c9190615291565b90506008600001548111156121955760009150506121aa565b806008600001546121a69190615291565b9150505b90565b6000600160038111156121c3576121c2614e0f565b5b601060010160009054906101000a900460ff1660038111156121e8576121e7614e0f565b5b1480156122455750601060030160009054906101000a900473ffffffffffffffffffffffffffffffffffffffff1673ffffffffffffffffffffffffffffffffffffffff168273ffffffffffffffffffffffffffffffffffffffff16145b9050919050565b6122553361371b565b600073ffffffffffffffffffffffffffffffffffffffff16601060030160009054906101000a900473ffffffffffffffffffffffffffffffffffffffff1673ffffffffffffffffffffffffffffffffffffffff16146125cf576000601060020154426122c19190615291565b9050600060086000015482101580156123105750600060038111156122e9576122e8614e0f565b5b601060010160009054906101000a900460ff16600381111561230e5761230d614e0f565b5b145b156125cc5760006010600001541315612521576001601060010160006101000a81548160ff0219169083600381111561234c5761234b614e0f565b5b0217905550601060030160009054906101000a900473ffffffffffffffffffffffffffffffffffffffff1673ffffffffffffffffffffffffffffffffffffffff166040516024016040516020818303038152906040527f3e7f6c64000000000000000000000000000000000000000000000000000000007bffffffffffffffffffffffffffffffffffffffffffffffffffffffff19166020820180517bffffffffffffffffffffffffffffffffffffffffffffffffffffffff838183161783525050505060405161241d919061533f565b6000604051808303816000865af19150503d806000811461245a576040519150601f19603f3d011682016040523d82523d6000602084013e61245f565b606091505b505080915050600860010154600d6000601060010160019054906101000a900473ffffffffffffffffffffffffffffffffffffffff1673ffffffffffffffffffffffffffffffffffffffff1673ffffffffffffffffffffffffffffffffffffffff16815260200190815260200160002060010160008282546124e19190615356565b925050819055508061251c576003601060010160006101000a81548160ff0219169083600381111561251657612515614e0f565b5b02179055505b612550565b6002601060010160006101000a81548160ff0219169083600381111561254a57612549614e0f565b5b02179055505b601060030160009054906101000a900473ffffffffffffffffffffffffffffffffffffffff1673ffffffffffffffffffffffffffffffffffffffff167f7745d71a4be808e4c2ce16eabb0c47208c72a57fde3d997ba8847e4bf554276d826040516125bb9190614a1d565b60405180910390a26125cb6138a1565b5b50505b6000339050600860020160009054906101000a900473ffffffffffffffffffffffffffffffffffffffff1673ffffffffffffffffffffffffffffffffffffffff168173ffffffffffffffffffffffffffffffffffffffff16146126905780600860020160009054906101000a900473ffffffffffffffffffffffffffffffffffffffff166040517fc38685870000000000000000000000000000000000000000000000000000000081526004016126879291906153d5565b60405180910390fd5b600073ffffffffffffffffffffffffffffffffffffffff16601060030160009054906101000a900473ffffffffffffffffffffffffffffffffffffffff1673ffffffffffffffffffffffffffffffffffffffff161461274d57601060030160009054906101000a900473ffffffffffffffffffffffffffffffffffffffff16836040517f8fe295800000000000000000000000000000000000000000000000000000000081526004016127449291906153d5565b60405180910390fd5b600260086001015461275f91906153fe565b600d60008473ffffffffffffffffffffffffffffffffffffffff1673ffffffffffffffffffffffffffffffffffffffff16815260200190815260200160002060010154101561283a57600d60008373ffffffffffffffffffffffffffffffffffffffff1673ffffffffffffffffffffffffffffffffffffffff1681526020019081526020016000206001015460026008600101546127fd91906153fe565b6040517f1d14634e0000000000000000000000000000000000000000000000000000000081526004016128319291906149ac565b60405180910390fd5b600260086001015402600d60008473ffffffffffffffffffffffffffffffffffffffff1673ffffffffffffffffffffffffffffffffffffffff1681526020019081526020016000206001015403600d60008473ffffffffffffffffffffffffffffffffffffffff1673ffffffffffffffffffffffffffffffffffffffff1681526020019081526020016000206001018190555082601060030160006101000a81548173ffffffffffffffffffffffffffffffffffffffff021916908373ffffffffffffffffffffffffffffffffffffffff1602179055506000601060010160006101000a81548160ff0219169083600381111561293a57612939614e0f565b5b0217905550600060106000018190555081601060010160016101000a81548173ffffffffffffffffffffffffffffffffffffffff021916908373ffffffffffffffffffffffffffffffffffffffff160217905550426010600201819055508173ffffffffffffffffffffffffffffffffffffffff168373ffffffffffffffffffffffffffffffffffffffff167f25f50ff38793d9d44e17734a0756ed6bb8fd3b64971089d65913470f2c33dde160405160405180910390a3505050565b600160030160149054906101000a900460ff16612a40576040517fbaf13b3f00000000000000000000000000000000000000000000000000000000815260040160405180910390fd5b612a493361371b565b8181612a55828261400f565b600c60008573ffffffffffffffffffffffffffffffffffffffff1673ffffffffffffffffffffffffffffffffffffffff16815260200190815260200160002060009054906101000a900460ff16612ae357836040517fa6e7da23000000000000000000000000000000000000000000000000000000008152600401612ada9190614aa4565b60405180910390fd5b60003390506000600b60008773ffffffffffffffffffffffffffffffffffffffff1673ffffffffffffffffffffffffffffffffffffffff16815260200190815260200160002060009054906101000a900460ff16905060006040518060800160405280898a612b5291906153fe565b815260200160018a612b649190615356565b60018b612b719190615356565b612b7b91906153fe565b8152602001600081526020016000815250905088816000015111158015612ba55750888160200151115b612bf25780600001518982602001516040517f036cf550000000000000000000000000000000000000000000000000000000008152600401612be993929190614b3e565b60405180910390fd5b6000600f60008573ffffffffffffffffffffffffffffffffffffffff1673ffffffffffffffffffffffffffffffffffffffff16815260200190815260200160002060008973ffffffffffffffffffffffffffffffffffffffff1673ffffffffffffffffffffffffffffffffffffffff16815260200190815260200160002090508060000154600d60008673ffffffffffffffffffffffffffffffffffffffff1673ffffffffffffffffffffffffffffffffffffffff1681526020019081526020016000206000016000828254612cc89190615291565b92505081905550806001015482604001818152505060016002811115612cf157612cf0614e0f565b5b836002811115612d0457612d03614e0f565b5b03612e8d57898b14612d525760028b8b6040517f692b5e13000000000000000000000000000000000000000000000000000000008152600401612d4993929190615aca565b60405180910390fd5b600160020160009054906101000a900473ffffffffffffffffffffffffffffffffffffffff1673ffffffffffffffffffffffffffffffffffffffff168873ffffffffffffffffffffffffffffffffffffffff1614612e0e57600160020160009054906101000a900473ffffffffffffffffffffffffffffffffffffffff16886040517fa89dbc6e000000000000000000000000000000000000000000000000000000008152600401612e059291906153d5565b60405180910390fd5b8881600001819055508a8160010181905550633b9aca0089612e3091906153fe565b600d60008673ffffffffffffffffffffffffffffffffffffffff1673ffffffffffffffffffffffffffffffffffffffff1681526020019081526020016000206000016000828254612e819190615356565b92505081905550613048565b600280811115612ea057612e9f614e0f565b5b836002811115612eb357612eb2614e0f565b5b0361300c57633b9aca00896002612eca91906153fe565b612ed491906153fe565b81600001819055508060000154600d60008673ffffffffffffffffffffffffffffffffffffffff1673ffffffffffffffffffffffffffffffffffffffff1681526020019081526020016000206000016000828254612f329190615356565b92505081905550612f4488888d611a93565b82606001818152505081606001518a11612f8857600a8a60648c8560600151612f6d9190615291565b612f7791906153fe565b612f81919061565f565b1115612fb4565b600a8a606484606001518d612f9d9190615291565b612fa791906153fe565b612fb1919061565f565b11155b612ffe5760038a83606001516040517f692b5e13000000000000000000000000000000000000000000000000000000008152600401612ff593929190615b3c565b60405180910390fd5b8a8160010181905550613047565b6040517f08c379a000000000000000000000000000000000000000000000000000000000815260040161303e90615bf6565b60405180910390fd5b5b600082604001518c61305a9190615c16565b90506130898530838c73ffffffffffffffffffffffffffffffffffffffff166142ca909392919063ffffffff16565b505050505050505050505050565b600160030160149054906101000a900460ff166130e0576040517fbaf13b3f00000000000000000000000000000000000000000000000000000000815260040160405180910390fd5b6130e93361371b565b82816130f5828261400f565b600c60008673ffffffffffffffffffffffffffffffffffffffff1673ffffffffffffffffffffffffffffffffffffffff16815260200190815260200160002060009054906101000a900460ff1661318357846040517fa6e7da2300000000000000000000000000000000000000000000000000000000815260040161317a9190614aa4565b60405180910390fd5b60003390506131b58130878973ffffffffffffffffffffffffffffffffffffffff16614598909392919063ffffffff16565b6000600d60003373ffffffffffffffffffffffffffffffffffffffff1673ffffffffffffffffffffffffffffffffffffffff168152602001908152602001600020600101549050600160020160009054906101000a900473ffffffffffffffffffffffffffffffffffffffff1673ffffffffffffffffffffffffffffffffffffffff168773ffffffffffffffffffffffffffffffffffffffff160361330a57600a8661326191906153fe565b9050600160020160009054906101000a900473ffffffffffffffffffffffffffffffffffffffff1673ffffffffffffffffffffffffffffffffffffffff166342966c68876040518263ffffffff1660e01b81526004016132c1919061506e565b6020604051808303816000875af11580156132e0573d6000803e3d6000fd5b505050506040513d601f19601f820116820180604052508101906133049190615cbf565b5061332a565b6000613317888789611a93565b905060148161332691906153fe565b9150505b80600d60003373ffffffffffffffffffffffffffffffffffffffff1673ffffffffffffffffffffffffffffffffffffffff168152602001908152602001600020600101600082825461337c9190615356565b925050819055508673ffffffffffffffffffffffffffffffffffffffff163373ffffffffffffffffffffffffffffffffffffffff167f53586334466ae8ecce002fdc0bc6fb81a5d0eb4f82a7ab70b4fc8d459964b046836040516133e0919061506e565b60405180910390a350505050505050565b600160030160149054906101000a900460ff1680156134165750613414336121ad565b155b1561345857336040517f0a5d980000000000000000000000000000000000000000000000000000000000815260040161344f9190614aa4565b60405180910390fd5b60008273ffffffffffffffffffffffffffffffffffffffff163b036134b457816040517f8a8b41ec0000000000000000000000000000000000000000000000000000000081526004016134ab9190614aa4565b60405180910390fd5b80600e60008473ffffffffffffffffffffffffffffffffffffffff1673ffffffffffffffffffffffffffffffffffffffff16815260200190815260200160002060006101000a81548160ff0219169083151502179055505050565b60018060000160009054906101000a900473ffffffffffffffffffffffffffffffffffffffff16908060010160009054906101000a900473ffffffffffffffffffffffffffffffffffffffff16908060020160009054906101000a900473ffffffffffffffffffffffffffffffffffffffff16908060030160009054906101000a900473ffffffffffffffffffffffffffffffffffffffff16908060030160149054906101000a900460ff16908060040160009054906101000a900473ffffffffffffffffffffffffffffffffffffffff16908060050160009054906101000a900473ffffffffffffffffffffffffffffffffffffffff16908060060160009054906101000a900473ffffffffffffffffffffffffffffffffffffffff16905088565b3373ffffffffffffffffffffffffffffffffffffffff16613651611792565b73ffffffffffffffffffffffffffffffffffffffff16146136b25733613675611792565b6040517fa3ee740f0000000000000000000000000000000000000000000000000000000081526004016136a99291906153d5565b60405180910390fd5b600073ffffffffffffffffffffffffffffffffffffffff168173ffffffffffffffffffffffffffffffffffffffff1603613718576040517fea553b3400000000000000000000000000000000000000000000000000000000815260040160405180910390fd5b50565b6000600d60008373ffffffffffffffffffffffffffffffffffffffff1673ffffffffffffffffffffffffffffffffffffffff1681526020019081526020016000209050620151808160020154426137729190615291565b826000015461378191906153fe565b61378b919061565f565b81600101600082825461379e9190615356565b925050819055504281600201819055505050565b3373ffffffffffffffffffffffffffffffffffffffff166137d1611792565b73ffffffffffffffffffffffffffffffffffffffff161461383257336137f5611792565b6040517fa3ee740f0000000000000000000000000000000000000000000000000000000081526004016138299291906153d5565b60405180910390fd5b8173ffffffffffffffffffffffffffffffffffffffff1663e73a914c826040518263ffffffff1660e01b815260040161386b9190614aa4565b600060405180830381600087803b15801561388557600080fd5b505af1158015613899573d6000803e3d6000fd5b505050505050565b601060030160009054906101000a900473ffffffffffffffffffffffffffffffffffffffff1673ffffffffffffffffffffffffffffffffffffffff1663211e28b660006040518263ffffffff1660e01b81526004016139009190614a1d565b600060405180830381600087803b15801561391a57600080fd5b505af115801561392e573d6000803e3d6000fd5b505050506000601060030160006101000a81548173ffffffffffffffffffffffffffffffffffffffff021916908373ffffffffffffffffffffffffffffffffffffffff16021790555060006010600001819055506000601060010160006101000a81548160ff021916908360038111156139ab576139aa614e0f565b5b02179055506000601060010160016101000a81548173ffffffffffffffffffffffffffffffffffffffff021916908373ffffffffffffffffffffffffffffffffffffffff1602179055506000601060020181905550565b600073ffffffffffffffffffffffffffffffffffffffff16600160040160009054906101000a900473ffffffffffffffffffffffffffffffffffffffff1673ffffffffffffffffffffffffffffffffffffffff1603613a8d576040517f062054b900000000000000000000000000000000000000000000000000000000815260040160405180910390fd5b84600160000160006101000a81548173ffffffffffffffffffffffffffffffffffffffff021916908373ffffffffffffffffffffffffffffffffffffffff160217905550836001800160006101000a81548173ffffffffffffffffffffffffffffffffffffffff021916908373ffffffffffffffffffffffffffffffffffffffff16021790555082600160020160006101000a81548173ffffffffffffffffffffffffffffffffffffffff021916908373ffffffffffffffffffffffffffffffffffffffff16021790555081600160050160006101000a81548173ffffffffffffffffffffffffffffffffffffffff021916908373ffffffffffffffffffffffffffffffffffffffff16021790555080600160060160006101000a81548173ffffffffffffffffffffffffffffffffffffffff021916908373ffffffffffffffffffffffffffffffffffffffff1602179055506001600c60008573ffffffffffffffffffffffffffffffffffffffff1673ffffffffffffffffffffffffffffffffffffffff16815260200190815260200160002060006101000a81548160ff0219169083151502179055506001600b60008573ffffffffffffffffffffffffffffffffffffffff1673ffffffffffffffffffffffffffffffffffffffff16815260200190815260200160002060006101000a81548160ff02191690836002811115613c9b57613c9a614e0f565b5b02179055505050505050565b600084905060008173ffffffffffffffffffffffffffffffffffffffff16630dfe16816040518163ffffffff1660e01b8152600401602060405180830381865afa158015613cf9573d6000803e3d6000fd5b505050506040513d601f19601f82011682018060405250810190613d1d9190615507565b905060008273ffffffffffffffffffffffffffffffffffffffff1663d21220a76040518163ffffffff1660e01b8152600401602060405180830381865afa158015613d6c573d6000803e3d6000fd5b505050506040513d601f19601f82011682018060405250810190613d909190615507565b90506000600160020160009054906101000a900473ffffffffffffffffffffffffffffffffffffffff1673ffffffffffffffffffffffffffffffffffffffff168373ffffffffffffffffffffffffffffffffffffffff1614613df25782613df4565b815b905086600c60008373ffffffffffffffffffffffffffffffffffffffff1673ffffffffffffffffffffffffffffffffffffffff16815260200190815260200160002060006101000a81548160ff0219169083151502179055506002600b60008373ffffffffffffffffffffffffffffffffffffffff1673ffffffffffffffffffffffffffffffffffffffff16815260200190815260200160002060006101000a81548160ff02191690836002811115613eb057613eaf614e0f565b5b02179055508515613f6257600160060160009054906101000a900473ffffffffffffffffffffffffffffffffffffffff1673ffffffffffffffffffffffffffffffffffffffff1663a655090a8960008814613f0b5787613f0e565b60015b6040518363ffffffff1660e01b8152600401613f2b929190615cec565b600060405180830381600087803b158015613f4557600080fd5b505af1158015613f59573d6000803e3d6000fd5b50505050614005565b600160050160009054906101000a900473ffffffffffffffffffffffffffffffffffffffff1673ffffffffffffffffffffffffffffffffffffffff1663a655090a8960008814613fb25787613fb5565b60015b6040518363ffffffff1660e01b8152600401613fd2929190615cec565b600060405180830381600087803b158015613fec57600080fd5b505af1158015614000573d6000803e3d6000fd5b505050505b5050505050505050565b600c60008373ffffffffffffffffffffffffffffffffffffffff1673ffffffffffffffffffffffffffffffffffffffff16815260200190815260200160002060009054906101000a900460ff1661409d57816040517fa6e7da230000000000000000000000000000000000000000000000000000000081526004016140949190614aa4565b60405180910390fd5b6002808111156140b0576140af614e0f565b5b600b60008473ffffffffffffffffffffffffffffffffffffffff1673ffffffffffffffffffffffffffffffffffffffff16815260200190815260200160002060009054906101000a900460ff16600281111561410f5761410e614e0f565b5b036142c65760008161414657600160050160009054906101000a900473ffffffffffffffffffffffffffffffffffffffff1661416d565b600160060160009054906101000a900473ffffffffffffffffffffffffffffffffffffffff165b90506000808273ffffffffffffffffffffffffffffffffffffffff1663a4e27f5486600160020160009054906101000a900473ffffffffffffffffffffffffffffffffffffffff166040518363ffffffff1660e01b81526004016141d29291906153d5565b6040805180830381865afa1580156141ee573d6000803e3d6000fd5b505050506040513d601f19601f820116820180604052508101906142129190615d51565b91509150808263ffffffff16426142299190615291565b11156142c2578273ffffffffffffffffffffffffffffffffffffffff1663c640752d86600160020160009054906101000a900473ffffffffffffffffffffffffffffffffffffffff166040518363ffffffff1660e01b815260040161428f9291906153d5565b600060405180830381600087803b1580156142a957600080fd5b505af11580156142bd573d6000803e3d6000fd5b505050505b5050505b5050565b60008082136143455760405180604001604052808473ffffffffffffffffffffffffffffffffffffffff1673ffffffffffffffffffffffffffffffffffffffff1681526020018573ffffffffffffffffffffffffffffffffffffffff1673ffffffffffffffffffffffffffffffffffffffff168152506143b3565b60405180604001604052808573ffffffffffffffffffffffffffffffffffffffff1673ffffffffffffffffffffffffffffffffffffffff1681526020018473ffffffffffffffffffffffffffffffffffffffff1673ffffffffffffffffffffffffffffffffffffffff168152505b905060008083136143ef577fffffffffffffffffffffffffffffffffffffffffffffffffffffffffffffffff836143ea919061574d565b6143f1565b825b90503073ffffffffffffffffffffffffffffffffffffffff168260006002811061441e5761441d6154c3565b5b602002015173ffffffffffffffffffffffffffffffffffffffff16036144dc576144d78663a9059cbb60e01b8460016002811061445e5761445d6154c3565b5b602002015184604051602401614475929190615cec565b604051602081830303815290604052907bffffffffffffffffffffffffffffffffffffffffffffffffffffffff19166020820180517bffffffffffffffffffffffffffffffffffffffffffffffffffffffff8381831617835250505050614621565b614590565b61458f866323b872dd60e01b846000600281106144fc576144fb6154c3565b5b602002015185600160028110614515576145146154c3565b5b60200201518560405160240161452d93929190615d91565b604051602081830303815290604052907bffffffffffffffffffffffffffffffffffffffffffffffffffffffff19166020820180517bffffffffffffffffffffffffffffffffffffffffffffffffffffffff8381831617835250505050614621565b5b505050505050565b61461b846323b872dd60e01b8585856040516024016145b993929190615d91565b604051602081830303815290604052907bffffffffffffffffffffffffffffffffffffffffffffffffffffffff19166020820180517bffffffffffffffffffffffffffffffffffffffffffffffffffffffff8381831617835250505050614621565b50505050565b6000614683826040518060400160405280602081526020017f5361666545524332303a206c6f772d6c6576656c2063616c6c206661696c65648152508573ffffffffffffffffffffffffffffffffffffffff166146df9092919063ffffffff16565b90506000815111156146da57808060200190518101906146a39190615cbf565b6146d9576040517fa479450200000000000000000000000000000000000000000000000000000000815260040160405180910390fd5b5b505050565b60606146ee84846000856146f7565b90509392505050565b6060824710156147405747836040517f02de226f0000000000000000000000000000000000000000000000000000000081526004016147379291906149ac565b60405180910390fd5b61474985614811565b61478a57846040517f8a8b41ec0000000000000000000000000000000000000000000000000000000081526004016147819190614aa4565b60405180910390fd5b6000808673ffffffffffffffffffffffffffffffffffffffff1685876040516147b3919061533f565b60006040518083038185875af1925050503d80600081146147f0576040519150601f19603f3d011682016040523d82523d6000602084013e6147f5565b606091505b5091509150614805828286614834565b92505050949350505050565b6000808273ffffffffffffffffffffffffffffffffffffffff163b119050919050565b6060831561484457829050614894565b6000835111156148575782518084602001fd5b816040517f08c379a000000000000000000000000000000000000000000000000000000000815260040161488b9190615e0c565b60405180910390fd5b9392505050565b6000819050919050565b6148ae8161489b565b82525050565b600073ffffffffffffffffffffffffffffffffffffffff82169050919050565b60006148df826148b4565b9050919050565b6148ef816148d4565b82525050565b600060608201905061490a60008301866148a5565b61491760208301856148a5565b61492460408301846148e6565b949350505050565b6000604051905090565b600080fd5b600080fd5b614949816148d4565b811461495457600080fd5b50565b60008135905061496681614940565b92915050565b6000806040838503121561498357614982614936565b5b600061499185828601614957565b92505060206149a285828601614957565b9150509250929050565b60006040820190506149c160008301856148a5565b6149ce60208301846148a5565b9392505050565b6000602082840312156149eb576149ea614936565b5b60006149f984828501614957565b91505092915050565b60008115159050919050565b614a1781614a02565b82525050565b6000602082019050614a326000830184614a0e565b92915050565b614a4181614a02565b8114614a4c57600080fd5b50565b600081359050614a5e81614a38565b92915050565b60008060408385031215614a7b57614a7a614936565b5b6000614a8985828601614957565b9250506020614a9a85828601614a4f565b9150509250929050565b6000602082019050614ab960008301846148e6565b92915050565b614ac88161489b565b8114614ad357600080fd5b50565b600081359050614ae581614abf565b92915050565b600080600060608486031215614b0457614b03614936565b5b6000614b1286828701614ad6565b9350506020614b2386828701614ad6565b9250506040614b3486828701614957565b9150509250925092565b6000606082019050614b5360008301866148a5565b614b6060208301856148a5565b614b6d60408301846148a5565b949350505050565b600080600060608486031215614b8e57614b8d614936565b5b6000614b9c86828701614957565b9350506020614bad86828701614957565b9250506040614bbe86828701614ad6565b9150509250925092565b600080fd5b6000601f19601f8301169050919050565b7f4e487b7100000000000000000000000000000000000000000000000000000000600052604160045260246000fd5b614c1682614bcd565b810181811067ffffffffffffffff82111715614c3557614c34614bde565b5b80604052505050565b6000614c4861492c565b9050614c548282614c0d565b919050565b600067ffffffffffffffff821115614c7457614c73614bde565b5b602082029050602081019050919050565b600080fd5b6000614c9d614c9884614c59565b614c3e565b90508083825260208201905060208402830185811115614cc057614cbf614c85565b5b835b81811015614ce95780614cd58882614957565b845260208401935050602081019050614cc2565b5050509392505050565b600082601f830112614d0857614d07614bc8565b5b8135614d18848260208601614c8a565b91505092915050565b600080600080600080600080610100898b031215614d4257614d41614936565b5b6000614d508b828c01614957565b9850506020614d618b828c01614957565b9750506040614d728b828c01614957565b9650506060614d838b828c01614957565b9550506080614d948b828c01614957565b94505060a0614da58b828c01614957565b93505060c089013567ffffffffffffffff811115614dc657614dc561493b565b5b614dd28b828c01614cf3565b92505060e089013567ffffffffffffffff811115614df357614df261493b565b5b614dff8b828c01614cf3565b9150509295985092959890939650565b7f4e487b7100000000000000000000000000000000000000000000000000000000600052602160045260246000fd5b60038110614e4f57614e4e614e0f565b5b50565b6000819050614e6082614e3e565b919050565b6000614e7082614e52565b9050919050565b614e8081614e65565b82525050565b6000602082019050614e9b6000830184614e77565b92915050565b60008060008060808587031215614ebb57614eba614936565b5b6000614ec987828801614957565b9450506020614eda87828801614a4f565b9350506040614eeb87828801614a4f565b9250506060614efc87828801614ad6565b91505092959194509250565b6000819050919050565b614f1b81614f08565b82525050565b60048110614f3257614f31614e0f565b5b50565b6000819050614f4382614f21565b919050565b6000614f5382614f35565b9050919050565b614f6381614f48565b82525050565b6000819050919050565b6000614f8e614f89614f84846148b4565b614f69565b6148b4565b9050919050565b6000614fa082614f73565b9050919050565b6000614fb282614f95565b9050919050565b614fc281614fa7565b82525050565b600060a082019050614fdd6000830188614f12565b614fea6020830187614f5a565b614ff760408301866148e6565b61500460608301856148a5565b6150116080830184614fb9565b9695505050505050565b60008060006060848603121561503457615033614936565b5b600061504286828701614957565b935050602061505386828701614a4f565b925050604061506486828701614ad6565b9150509250925092565b600060208201905061508360008301846148a5565b92915050565b61509281614f08565b811461509d57600080fd5b50565b6000813590506150af81615089565b92915050565b600080604083850312156150cc576150cb614936565b5b60006150da85828601614957565b92505060206150eb858286016150a0565b9150509250929050565b600080600080600060a0868803121561511157615110614936565b5b600061511f88828901614ad6565b955050602061513088828901614ad6565b945050604061514188828901614ad6565b935050606061515288828901614957565b925050608061516388828901614a4f565b9150509295509295909350565b60008060006060848603121561518957615188614936565b5b600061519786828701614957565b93505060206151a886828701614ad6565b92505060406151b986828701614a4f565b9150509250925092565b60006151ce82614f95565b9050919050565b6151de816151c3565b82525050565b6000610100820190506151fa600083018b6148e6565b615207602083018a6148e6565b61521460408301896148e6565b61522160608301886148e6565b61522e6080830187614a0e565b61523b60a08301866148e6565b61524860c08301856151d5565b61525560e08301846151d5565b9998505050505050505050565b7f4e487b7100000000000000000000000000000000000000000000000000000000600052601160045260246000fd5b600061529c8261489b565b91506152a78361489b565b9250828210156152ba576152b9615262565b5b828203905092915050565b600081519050919050565b600081905092915050565b60005b838110156152f95780820151818401526020810190506152de565b83811115615308576000848401525b50505050565b6000615319826152c5565b61532381856152d0565b93506153338185602086016152db565b80840191505092915050565b600061534b828461530e565b915081905092915050565b60006153618261489b565b915061536c8361489b565b9250827fffffffffffffffffffffffffffffffffffffffffffffffffffffffffffffffff038211156153a1576153a0615262565b5b828201905092915050565b60006040820190506153c160008301856148e6565b6153ce6020830184614a0e565b9392505050565b60006040820190506153ea60008301856148e6565b6153f760208301846148e6565b9392505050565b60006154098261489b565b91506154148361489b565b9250817fffffffffffffffffffffffffffffffffffffffffffffffffffffffffffffffff048311821515161561544d5761544c615262565b5b828202905092915050565b6000615463826148d4565b9050919050565b61547381615458565b811461547e57600080fd5b50565b6000815190506154908161546a565b92915050565b6000602082840312156154ac576154ab614936565b5b60006154ba84828501615481565b91505092915050565b7f4e487b7100000000000000000000000000000000000000000000000000000000600052603260045260246000fd5b60008151905061550181614940565b92915050565b60006020828403121561551d5761551c614936565b5b600061552b848285016154f2565b91505092915050565b600061553f8261489b565b91507fffffffffffffffffffffffffffffffffffffffffffffffffffffffffffffffff820361557157615570615262565b5b600182019050919050565b6000819050919050565b60006155a161559c6155978461557c565b614f69565b61489b565b9050919050565b6155b181615586565b82525050565b60006060820190506155cc60008301866148e6565b6155d960208301856148e6565b6155e660408301846155a8565b949350505050565b6000815190506155fd81614abf565b92915050565b60006020828403121561561957615618614936565b5b6000615627848285016155ee565b91505092915050565b7f4e487b7100000000000000000000000000000000000000000000000000000000600052601260045260246000fd5b600061566a8261489b565b91506156758361489b565b92508261568557615684615630565b5b828204905092915050565b600061569b82614f08565b91506156a683614f08565b9250817f7fffffffffffffffffffffffffffffffffffffffffffffffffffffffffffffff038313600083121516156156e1576156e0615262565b5b817f800000000000000000000000000000000000000000000000000000000000000003831260008312161561571957615718615262565b5b828201905092915050565b60006040820190506157396000830185614f12565b6157466020830184614f12565b9392505050565b600061575882614f08565b915061576383614f08565b9250827f7fffffffffffffffffffffffffffffffffffffffffffffffffffffffffffffff04821160008413600084131616156157a2576157a1615262565b5b817f800000000000000000000000000000000000000000000000000000000000000005831260008412600084131616156157df576157de615262565b5b827f8000000000000000000000000000000000000000000000000000000000000000058212600084136000841216161561581c5761581b615262565b5b827f7fffffffffffffffffffffffffffffffffffffffffffffffffffffffffffffff058212600084126000841216161561585957615858615262565b5b828202905092915050565b60008160011c9050919050565b6000808291508390505b60018511156158bb5780860481111561589757615896615262565b5b60018516156158a65780820291505b80810290506158b485615864565b945061587b565b94509492505050565b600082600081146158dc57600181146158e6576158ef565b60019150506159ab565b829150506159ab565b50816158fe57600090506159ab565b60019050600082136001811461591b576000811461593357615947565b82860483111561592e5761592d615262565b5b615947565b82860583121561594657615945615262565b5b5b506001831615615955578190505b818202915061596383615864565b925061597185848484615871565b92509050818504811160008213161561598d5761598c615262565b5b81840581126000821216156159a5576159a4615262565b5b81810290505b949350505050565b600060ff82169050919050565b60006159cb82614f08565b91506159d6836159b3565b9250615a247f7fffffffffffffffffffffffffffffffffffffffffffffffffffffffffffffff7f800000000000000000000000000000000000000000000000000000000000000085856158c4565b905092915050565b6000615a3782614f08565b91507f80000000000000000000000000000000000000000000000000000000000000008203615a6957615a68615262565b5b816000039050919050565b6000602082019050615a896000830184614f12565b92915050565b6000819050919050565b6000615ab4615aaf615aaa84615a8f565b614f69565b61489b565b9050919050565b615ac481615a99565b82525050565b6000606082019050615adf6000830186615abb565b615aec60208301856148a5565b615af960408301846148a5565b949350505050565b6000819050919050565b6000615b26615b21615b1c84615b01565b614f69565b61489b565b9050919050565b615b3681615b0b565b82525050565b6000606082019050615b516000830186615b2d565b615b5e60208301856148a5565b615b6b60408301846148a5565b949350505050565b600082825260208201905092915050565b7f4c696d626f44414f3a2061737365742067726f7774682073747261746567792060008201527f6e6f74206163636f756e74656420666f72000000000000000000000000000000602082015250565b6000615be0603183615b73565b9150615beb82615b84565b604082019050919050565b60006020820190508181036000830152615c0f81615bd3565b9050919050565b6000615c2182614f08565b9150615c2c83614f08565b9250827f800000000000000000000000000000000000000000000000000000000000000001821260008412151615615c6757615c66615262565b5b827f7fffffffffffffffffffffffffffffffffffffffffffffffffffffffffffffff018213600084121615615c9f57615c9e615262565b5b828203905092915050565b600081519050615cb981614a38565b92915050565b600060208284031215615cd557615cd4614936565b5b6000615ce384828501615caa565b91505092915050565b6000604082019050615d0160008301856148e6565b615d0e60208301846148a5565b9392505050565b600063ffffffff82169050919050565b615d2e81615d15565b8114615d3957600080fd5b50565b600081519050615d4b81615d25565b92915050565b60008060408385031215615d6857615d67614936565b5b6000615d7685828601615d3c565b9250506020615d87858286016155ee565b9150509250929050565b6000606082019050615da660008301866148e6565b615db360208301856148e6565b615dc060408301846148a5565b949350505050565b600081519050919050565b6000615dde82615dc8565b615de88185615b73565b9350615df88185602086016152db565b615e0181614bcd565b840191505092915050565b60006020820190508181036000830152615e268184615dd3565b90509291505056fea26469706673582212201ce49c5d0d1bdb1c4c6fafd8d910554084b1bd7b369e8375de1576710a8d2cf264736f6c634300080d0033",
  "linkReferences": {},
  "deployedLinkReferences": {}
}