{
  "_format": "hh-sol-artifact-1",
  "contractName": "SetFateSpendersProposal",
  "sourceName": "contracts/DAO/Proposals/SetFateSpendersProposal.sol",
  "abi": [
    {
      "inputs": [
        {
          "internalType": "address",
          "name": "dao",
          "type": "address"
        },
        {
          "internalType": "string",
          "name": "_description",
          "type": "string"
        }
      ],
      "stateMutability": "nonpayable",
      "type": "constructor"
    },
    {
      "inputs": [],
      "name": "ExecutionFailed",
      "type": "error"
    },
    {
      "inputs": [
        {
          "internalType": "uint256",
          "name": "griefSafetyFactor",
          "type": "uint256"
        },
        {
          "internalType": "uint256",
          "name": "actualLength",
          "type": "uint256"
        }
      ],
      "name": "GriefSafetyFactorExceeded",
      "type": "error"
    },
    {
      "inputs": [
        {
          "internalType": "address",
          "name": "dao",
          "type": "address"
        },
        {
          "internalType": "address",
          "name": "factory",
          "type": "address"
        }
      ],
      "name": "OnlyFactoryOrDAO",
      "type": "error"
    },
    {
      "inputs": [
        {
          "internalType": "address",
          "name": "proposal",
          "type": "address"
        }
      ],
      "name": "ProposalLocked",
      "type": "error"
    },
    {
      "inputs": [],
      "name": "description",
      "outputs": [
        {
          "internalType": "string",
          "name": "",
          "type": "string"
        }
      ],
      "stateMutability": "view",
      "type": "function"
    },
    {
      "inputs": [],
      "name": "locked",
      "outputs": [
        {
          "internalType": "bool",
          "name": "",
          "type": "bool"
        }
      ],
      "stateMutability": "view",
      "type": "function"
    },
    {
      "inputs": [],
      "name": "orchestrateExecute",
      "outputs": [],
      "stateMutability": "nonpayable",
      "type": "function"
    },
    {
      "inputs": [
        {
          "internalType": "address[]",
          "name": "spenders",
          "type": "address[]"
        },
        {
          "internalType": "bool[]",
          "name": "canSpend",
          "type": "bool[]"
        }
      ],
      "name": "parameterize",
      "outputs": [],
      "stateMutability": "nonpayable",
      "type": "function"
    },
    {
      "inputs": [
        {
          "internalType": "bool",
          "name": "_locked",
          "type": "bool"
        }
      ],
      "name": "setLocked",
      "outputs": [],
      "stateMutability": "nonpayable",
      "type": "function"
    }
  ],
  "bytecode": "0x60a06040523480156200001157600080fd5b506040516200121e3803806200121e833981810160405281019062000037919062000342565b81818173ffffffffffffffffffffffffffffffffffffffff1660808173ffffffffffffffffffffffffffffffffffffffff168152505080600090805190602001906200008592919062000090565b50505050506200040c565b8280546200009e90620003d7565b90600052602060002090601f016020900481019282620000c257600085556200010e565b82601f10620000dd57805160ff19168380011785556200010e565b828001600101855582156200010e579182015b828111156200010d578251825591602001919060010190620000f0565b5b5090506200011d919062000121565b5090565b5b808211156200013c57600081600090555060010162000122565b5090565b6000604051905090565b600080fd5b600080fd5b600073ffffffffffffffffffffffffffffffffffffffff82169050919050565b6000620001818262000154565b9050919050565b620001938162000174565b81146200019f57600080fd5b50565b600081519050620001b38162000188565b92915050565b600080fd5b600080fd5b6000601f19601f8301169050919050565b7f4e487b7100000000000000000000000000000000000000000000000000000000600052604160045260246000fd5b6200020e82620001c3565b810181811067ffffffffffffffff8211171562000230576200022f620001d4565b5b80604052505050565b60006200024562000140565b905062000253828262000203565b919050565b600067ffffffffffffffff821115620002765762000275620001d4565b5b6200028182620001c3565b9050602081019050919050565b60005b83811015620002ae57808201518184015260208101905062000291565b83811115620002be576000848401525b50505050565b6000620002db620002d58462000258565b62000239565b905082815260208101848484011115620002fa57620002f9620001be565b5b620003078482856200028e565b509392505050565b600082601f830112620003275762000326620001b9565b5b815162000339848260208601620002c4565b91505092915050565b600080604083850312156200035c576200035b6200014a565b5b60006200036c85828601620001a2565b925050602083015167ffffffffffffffff81111562000390576200038f6200014f565b5b6200039e858286016200030f565b9150509250929050565b7f4e487b7100000000000000000000000000000000000000000000000000000000600052602260045260246000fd5b60006002820490506001821680620003f057607f821691505b602082108103620004065762000405620003a8565b5b50919050565b608051610ddb620004436000396000818160de01528181610103015281816102630152818161028801526105ad0152610ddb6000f3fe608060405234801561001057600080fd5b50600436106100575760003560e01c8063211e28b61461005c5780633e7f6c64146100785780637284e41614610082578063cf309012146100a0578063dcbc539c146100be575b600080fd5b61007660048036038101906100719190610871565b6100da565b005b61008061025f565b005b61008a610407565b6040516100979190610937565b60405180910390f35b6100a8610495565b6040516100b59190610968565b60405180910390f35b6100d860048036038101906100d39190610a3e565b6104a8565b005b60007f0000000000000000000000000000000000000000000000000000000000000000905060007f000000000000000000000000000000000000000000000000000000000000000073ffffffffffffffffffffffffffffffffffffffff166301e179dc6040518163ffffffff1660e01b8152600401606060405180830381865afa15801561016c573d6000803e3d6000fd5b505050506040513d601f19601f820116820180604052508101906101909190610b53565b925050508173ffffffffffffffffffffffffffffffffffffffff163373ffffffffffffffffffffffffffffffffffffffff16141580156101fc57508073ffffffffffffffffffffffffffffffffffffffff163373ffffffffffffffffffffffffffffffffffffffff1614155b156102405781816040517ff8b7c0c3000000000000000000000000000000000000000000000000000000008152600401610237929190610bb5565b60405180910390fd5b82600160006101000a81548160ff021916908315150217905550505050565b60007f0000000000000000000000000000000000000000000000000000000000000000905060007f000000000000000000000000000000000000000000000000000000000000000073ffffffffffffffffffffffffffffffffffffffff166301e179dc6040518163ffffffff1660e01b8152600401606060405180830381865afa1580156102f1573d6000803e3d6000fd5b505050506040513d601f19601f820116820180604052508101906103159190610b53565b925050508173ffffffffffffffffffffffffffffffffffffffff163373ffffffffffffffffffffffffffffffffffffffff161415801561038157508073ffffffffffffffffffffffffffffffffffffffff163373ffffffffffffffffffffffffffffffffffffffff1614155b156103c55781816040517ff8b7c0c30000000000000000000000000000000000000000000000000000000081526004016103bc929190610bb5565b60405180910390fd5b6103cd610593565b610403576040517facfdb44400000000000000000000000000000000000000000000000000000000815260040160405180910390fd5b5050565b6000805461041490610c0d565b80601f016020809104026020016040519081016040528092919081815260200182805461044090610c0d565b801561048d5780601f106104625761010080835404028352916020019161048d565b820191906000526020600020905b81548152906001019060200180831161047057829003601f168201915b505050505081565b600160009054906101000a900460ff1681565b600160009054906101000a900460ff16156104fa57306040517fefaa447e0000000000000000000000000000000000000000000000000000000081526004016104f19190610c3e565b60405180910390fd5b6032848490501115610549576032848490506040517fce7b13ee000000000000000000000000000000000000000000000000000000008152600401610540929190610cad565b60405180910390fd5b83836002600001919061055d9291906106ca565b5081816002600101919061057292919061076a565b5060018060006101000a81548160ff02191690831515021790555050505050565b600080600090505b6002600001805490508110156106c2577f000000000000000000000000000000000000000000000000000000000000000073ffffffffffffffffffffffffffffffffffffffff1663e0dafbf7600260000183815481106105fe576105fd610cd6565b5b9060005260206000200160009054906101000a900473ffffffffffffffffffffffffffffffffffffffff16600260010184815481106106405761063f610cd6565b5b90600052602060002090602091828204019190069054906101000a900460ff166040518363ffffffff1660e01b815260040161067d929190610d05565b600060405180830381600087803b15801561069757600080fd5b505af11580156106ab573d6000803e3d6000fd5b5050505080806106ba90610d5d565b91505061059b565b506001905090565b828054828255906000526020600020908101928215610759579160200282015b8281111561075857823573ffffffffffffffffffffffffffffffffffffffff168260006101000a81548173ffffffffffffffffffffffffffffffffffffffff021916908373ffffffffffffffffffffffffffffffffffffffff160217905550916020019190600101906106ea565b5b5090506107669190610812565b5090565b82805482825590600052602060002090601f016020900481019282156108015791602002820160005b838211156107d2578335151583826101000a81548160ff0219169083151502179055509260200192600101602081600001049283019260010302610793565b80156107ff5782816101000a81549060ff02191690556001016020816000010492830192600103026107d2565b505b50905061080e9190610812565b5090565b5b8082111561082b576000816000905550600101610813565b5090565b600080fd5b600080fd5b60008115159050919050565b61084e81610839565b811461085957600080fd5b50565b60008135905061086b81610845565b92915050565b6000602082840312156108875761088661082f565b5b60006108958482850161085c565b91505092915050565b600081519050919050565b600082825260208201905092915050565b60005b838110156108d85780820151818401526020810190506108bd565b838111156108e7576000848401525b50505050565b6000601f19601f8301169050919050565b60006109098261089e565b61091381856108a9565b93506109238185602086016108ba565b61092c816108ed565b840191505092915050565b6000602082019050818103600083015261095181846108fe565b905092915050565b61096281610839565b82525050565b600060208201905061097d6000830184610959565b92915050565b600080fd5b600080fd5b600080fd5b60008083601f8401126109a8576109a7610983565b5b8235905067ffffffffffffffff8111156109c5576109c4610988565b5b6020830191508360208202830111156109e1576109e061098d565b5b9250929050565b60008083601f8401126109fe576109fd610983565b5b8235905067ffffffffffffffff811115610a1b57610a1a610988565b5b602083019150836020820283011115610a3757610a3661098d565b5b9250929050565b60008060008060408587031215610a5857610a5761082f565b5b600085013567ffffffffffffffff811115610a7657610a75610834565b5b610a8287828801610992565b9450945050602085013567ffffffffffffffff811115610aa557610aa4610834565b5b610ab1878288016109e8565b925092505092959194509250565b6000819050919050565b610ad281610abf565b8114610add57600080fd5b50565b600081519050610aef81610ac9565b92915050565b600073ffffffffffffffffffffffffffffffffffffffff82169050919050565b6000610b2082610af5565b9050919050565b610b3081610b15565b8114610b3b57600080fd5b50565b600081519050610b4d81610b27565b92915050565b600080600060608486031215610b6c57610b6b61082f565b5b6000610b7a86828701610ae0565b9350506020610b8b86828701610ae0565b9250506040610b9c86828701610b3e565b9150509250925092565b610baf81610b15565b82525050565b6000604082019050610bca6000830185610ba6565b610bd76020830184610ba6565b9392505050565b7f4e487b7100000000000000000000000000000000000000000000000000000000600052602260045260246000fd5b60006002820490506001821680610c2557607f821691505b602082108103610c3857610c37610bde565b5b50919050565b6000602082019050610c536000830184610ba6565b92915050565b6000819050919050565b6000819050919050565b6000610c88610c83610c7e84610c59565b610c63565b610abf565b9050919050565b610c9881610c6d565b82525050565b610ca781610abf565b82525050565b6000604082019050610cc26000830185610c8f565b610ccf6020830184610c9e565b9392505050565b7f4e487b7100000000000000000000000000000000000000000000000000000000600052603260045260246000fd5b6000604082019050610d1a6000830185610ba6565b610d276020830184610959565b9392505050565b7f4e487b7100000000000000000000000000000000000000000000000000000000600052601160045260246000fd5b6000610d6882610abf565b91507fffffffffffffffffffffffffffffffffffffffffffffffffffffffffffffffff8203610d9a57610d99610d2e565b5b60018201905091905056fea26469706673582212206a5f7bc5b760adaeebe847d907be277c9317acee67ddc3a9866408c59d82be1f64736f6c634300080d0033",
  "linkReferences": {},
  "deployedLinkReferences": {}
}