{
  "_format": "hh-sol-artifact-1",
  "contractName": "FlanGenesis",
  "sourceName": "contracts/FlanGenesis.sol",
  "abi": [
    {
      "inputs": [
        {
          "internalType": "address",
          "name": "caller",
          "type": "address"
        },
        {
          "internalType": "address",
          "name": "owner",
          "type": "address"
        }
      ],
      "name": "OnlyOwner",
      "type": "error"
    },
    {
      "inputs": [],
      "name": "TransferToZeroAddress",
      "type": "error"
    },
    {
      "anonymous": false,
      "inputs": [
        {
          "indexed": true,
          "internalType": "address",
          "name": "previousOwner",
          "type": "address"
        },
        {
          "indexed": true,
          "internalType": "address",
          "name": "newOwner",
          "type": "address"
        }
      ],
      "name": "OwnershipTransferred",
      "type": "event"
    },
    {
      "inputs": [
        {
          "internalType": "uint256",
          "name": "daiAVB",
          "type": "uint256"
        },
        {
          "internalType": "uint256",
          "name": "daiPerSCX",
          "type": "uint256"
        }
      ],
      "name": "LetThereBeFlan",
      "outputs": [],
      "stateMutability": "nonpayable",
      "type": "function"
    },
    {
      "inputs": [],
      "name": "dependencies",
      "outputs": [
        {
          "internalType": "contract BehodlerLike",
          "name": "behodler",
          "type": "address"
        },
        {
          "internalType": "contract IUniswapV2Factory",
          "name": "uniswapFactory",
          "type": "address"
        },
        {
          "internalType": "contract IUniswapV2Factory",
          "name": "sushiswapFactory",
          "type": "address"
        }
      ],
      "stateMutability": "view",
      "type": "function"
    },
    {
      "inputs": [],
      "name": "owner",
      "outputs": [
        {
          "internalType": "address",
          "name": "",
          "type": "address"
        }
      ],
      "stateMutability": "view",
      "type": "function"
    },
    {
      "inputs": [
        {
          "internalType": "address",
          "name": "newOwner",
          "type": "address"
        }
      ],
      "name": "transferOwnership",
      "outputs": [],
      "stateMutability": "nonpayable",
      "type": "function"
    }
  ],
  "bytecode": "0x608060405234801561001057600080fd5b506100203361002560201b60201c565b6100e9565b60008060009054906101000a900473ffffffffffffffffffffffffffffffffffffffff169050816000806101000a81548173ffffffffffffffffffffffffffffffffffffffff021916908373ffffffffffffffffffffffffffffffffffffffff1602179055508173ffffffffffffffffffffffffffffffffffffffff168173ffffffffffffffffffffffffffffffffffffffff167f8be0079c531659141344cd1fd0a4f28419497f9722a3daafe3b4186f6b6457e060405160405180910390a35050565b61051b806100f86000396000f3fe608060405234801561001057600080fd5b506004361061004c5760003560e01c8063178d4911146100515780638da5cb5b14610071578063c8f6cf4d1461008f578063f2fde38b146100ab575b600080fd5b6100596100c7565b60405161006893929190610375565b60405180910390f35b61007961013f565b60405161008691906103cd565b60405180910390f35b6100a960048036038101906100a49190610423565b610168565b005b6100c560048036038101906100c0919061048f565b6101ec565b005b60018060000160009054906101000a900473ffffffffffffffffffffffffffffffffffffffff16908060010160009054906101000a900473ffffffffffffffffffffffffffffffffffffffff16908060020160009054906101000a900473ffffffffffffffffffffffffffffffffffffffff16905083565b60008060009054906101000a900473ffffffffffffffffffffffffffffffffffffffff16905090565b3373ffffffffffffffffffffffffffffffffffffffff1661018761013f565b73ffffffffffffffffffffffffffffffffffffffff16146101e857336101ab61013f565b6040517fa3ee740f0000000000000000000000000000000000000000000000000000000081526004016101df9291906104bc565b60405180910390fd5b5050565b3373ffffffffffffffffffffffffffffffffffffffff1661020b61013f565b73ffffffffffffffffffffffffffffffffffffffff161461026c573361022f61013f565b6040517fa3ee740f0000000000000000000000000000000000000000000000000000000081526004016102639291906104bc565b60405180910390fd5b600073ffffffffffffffffffffffffffffffffffffffff168173ffffffffffffffffffffffffffffffffffffffff16036102d2576040517fea553b3400000000000000000000000000000000000000000000000000000000815260040160405180910390fd5b50565b600073ffffffffffffffffffffffffffffffffffffffff82169050919050565b6000819050919050565b600061031a610315610310846102d5565b6102f5565b6102d5565b9050919050565b600061032c826102ff565b9050919050565b600061033e82610321565b9050919050565b61034e81610333565b82525050565b600061035f82610321565b9050919050565b61036f81610354565b82525050565b600060608201905061038a6000830186610345565b6103976020830185610366565b6103a46040830184610366565b949350505050565b60006103b7826102d5565b9050919050565b6103c7816103ac565b82525050565b60006020820190506103e260008301846103be565b92915050565b600080fd5b6000819050919050565b610400816103ed565b811461040b57600080fd5b50565b60008135905061041d816103f7565b92915050565b6000806040838503121561043a576104396103e8565b5b60006104488582860161040e565b92505060206104598582860161040e565b9150509250929050565b61046c816103ac565b811461047757600080fd5b50565b60008135905061048981610463565b92915050565b6000602082840312156104a5576104a46103e8565b5b60006104b38482850161047a565b91505092915050565b60006040820190506104d160008301856103be565b6104de60208301846103be565b939250505056fea2646970667358221220064658fcfaa391ec267db56acc0e0037a6a80b08a62b8bf5423d7f50cb74487964736f6c634300080d0033",
  "linkReferences": {},
  "deployedLinkReferences": {}
}