{
  "_format": "hh-sol-artifact-1",
  "contractName": "ApproveFlanMintingProposal",
  "sourceName": "contracts/DAO/Proposals/ApproveFlanMintingPropsal.sol",
  "abi": [
    {
      "inputs": [
        {
          "internalType": "address",
          "name": "dao",
          "type": "address"
        },
        {
          "internalType": "string",
          "name": "_description",
          "type": "string"
        }
      ],
      "stateMutability": "nonpayable",
      "type": "constructor"
    },
    {
      "inputs": [],
      "name": "ExecutionFailed",
      "type": "error"
    },
    {
      "inputs": [
        {
          "internalType": "address",
          "name": "dao",
          "type": "address"
        },
        {
          "internalType": "address",
          "name": "factory",
          "type": "address"
        }
      ],
      "name": "OnlyFactoryOrDAO",
      "type": "error"
    },
    {
      "inputs": [
        {
          "internalType": "address",
          "name": "proposal",
          "type": "address"
        }
      ],
      "name": "ProposalLocked",
      "type": "error"
    },
    {
      "inputs": [],
      "name": "description",
      "outputs": [
        {
          "internalType": "string",
          "name": "",
          "type": "string"
        }
      ],
      "stateMutability": "view",
      "type": "function"
    },
    {
      "inputs": [],
      "name": "locked",
      "outputs": [
        {
          "internalType": "bool",
          "name": "",
          "type": "bool"
        }
      ],
      "stateMutability": "view",
      "type": "function"
    },
    {
      "inputs": [],
      "name": "orchestrateExecute",
      "outputs": [],
      "stateMutability": "nonpayable",
      "type": "function"
    },
    {
      "inputs": [
        {
          "internalType": "address",
          "name": "minter",
          "type": "address"
        },
        {
          "internalType": "bool",
          "name": "enabled",
          "type": "bool"
        }
      ],
      "name": "parameterize",
      "outputs": [],
      "stateMutability": "nonpayable",
      "type": "function"
    },
    {
      "inputs": [],
      "name": "params",
      "outputs": [
        {
          "internalType": "address",
          "name": "minter",
          "type": "address"
        },
        {
          "internalType": "bool",
          "name": "enabled",
          "type": "bool"
        }
      ],
      "stateMutability": "view",
      "type": "function"
    },
    {
      "inputs": [
        {
          "internalType": "bool",
          "name": "_locked",
          "type": "bool"
        }
      ],
      "name": "setLocked",
      "outputs": [],
      "stateMutability": "nonpayable",
      "type": "function"
    }
  ],
  "bytecode": "0x60a06040523480156200001157600080fd5b5060405162000f2238038062000f228339818101604052810190620000379190620003d4565b8160008054620000479062000469565b80601f0160208091040260200160405190810160405280929190818152602001828054620000759062000469565b8015620000c65780601f106200009a57610100808354040283529160200191620000c6565b820191906000526020600020905b815481529060010190602001808311620000a857829003601f168201915b50505050508173ffffffffffffffffffffffffffffffffffffffff1660808173ffffffffffffffffffffffffffffffffffffffff168152505080600090805190602001906200011792919062000122565b50505050506200049e565b828054620001309062000469565b90600052602060002090601f016020900481019282620001545760008555620001a0565b82601f106200016f57805160ff1916838001178555620001a0565b82800160010185558215620001a0579182015b828111156200019f57825182559160200191906001019062000182565b5b509050620001af9190620001b3565b5090565b5b80821115620001ce576000816000905550600101620001b4565b5090565b6000604051905090565b600080fd5b600080fd5b600073ffffffffffffffffffffffffffffffffffffffff82169050919050565b60006200021382620001e6565b9050919050565b620002258162000206565b81146200023157600080fd5b50565b60008151905062000245816200021a565b92915050565b600080fd5b600080fd5b6000601f19601f8301169050919050565b7f4e487b7100000000000000000000000000000000000000000000000000000000600052604160045260246000fd5b620002a08262000255565b810181811067ffffffffffffffff82111715620002c257620002c162000266565b5b80604052505050565b6000620002d7620001d2565b9050620002e5828262000295565b919050565b600067ffffffffffffffff82111562000308576200030762000266565b5b620003138262000255565b9050602081019050919050565b60005b838110156200034057808201518184015260208101905062000323565b8381111562000350576000848401525b50505050565b60006200036d6200036784620002ea565b620002cb565b9050828152602081018484840111156200038c576200038b62000250565b5b6200039984828562000320565b509392505050565b600082601f830112620003b957620003b86200024b565b5b8151620003cb84826020860162000356565b91505092915050565b60008060408385031215620003ee57620003ed620001dc565b5b6000620003fe8582860162000234565b925050602083015167ffffffffffffffff811115620004225762000421620001e1565b5b6200043085828601620003a1565b9150509250929050565b7f4e487b7100000000000000000000000000000000000000000000000000000000600052602260045260246000fd5b600060028204905060018216806200048257607f821691505b6020821081036200049857620004976200043a565b5b50919050565b608051610a4c620004d6600039600081816101d9015281816101fe0152818161035e0152818161038301526105e60152610a4c6000f3fe608060405234801561001057600080fd5b50600436106100625760003560e01c806314c6fd2814610067578063211e28b6146100835780633e7f6c641461009f5780637284e416146100a9578063cf309012146100c7578063cff0ab96146100e5575b600080fd5b610081600480360381019061007c919061074a565b610104565b005b61009d6004803603810190610098919061078a565b6101d5565b005b6100a761035a565b005b6100b1610502565b6040516100be9190610850565b60405180910390f35b6100cf610590565b6040516100dc9190610881565b60405180910390f35b6100ed6105a3565b6040516100fb9291906108ab565b60405180910390f35b600160009054906101000a900460ff161561015657306040517fefaa447e00000000000000000000000000000000000000000000000000000000815260040161014d91906108d4565b60405180910390fd5b81600260000160006101000a81548173ffffffffffffffffffffffffffffffffffffffff021916908373ffffffffffffffffffffffffffffffffffffffff16021790555080600260000160146101000a81548160ff02191690831515021790555060018060006101000a81548160ff0219169083151502179055505050565b60007f0000000000000000000000000000000000000000000000000000000000000000905060007f000000000000000000000000000000000000000000000000000000000000000073ffffffffffffffffffffffffffffffffffffffff166301e179dc6040518163ffffffff1660e01b8152600401606060405180830381865afa158015610267573d6000803e3d6000fd5b505050506040513d601f19601f8201168201806040525081019061028b919061093a565b925050508173ffffffffffffffffffffffffffffffffffffffff163373ffffffffffffffffffffffffffffffffffffffff16141580156102f757508073ffffffffffffffffffffffffffffffffffffffff163373ffffffffffffffffffffffffffffffffffffffff1614155b1561033b5781816040517ff8b7c0c300000000000000000000000000000000000000000000000000000000815260040161033292919061098d565b60405180910390fd5b82600160006101000a81548160ff021916908315150217905550505050565b60007f0000000000000000000000000000000000000000000000000000000000000000905060007f000000000000000000000000000000000000000000000000000000000000000073ffffffffffffffffffffffffffffffffffffffff166301e179dc6040518163ffffffff1660e01b8152600401606060405180830381865afa1580156103ec573d6000803e3d6000fd5b505050506040513d601f19601f82011682018060405250810190610410919061093a565b925050508173ffffffffffffffffffffffffffffffffffffffff163373ffffffffffffffffffffffffffffffffffffffff161415801561047c57508073ffffffffffffffffffffffffffffffffffffffff163373ffffffffffffffffffffffffffffffffffffffff1614155b156104c05781816040517ff8b7c0c30000000000000000000000000000000000000000000000000000000081526004016104b792919061098d565b60405180910390fd5b6104c86105e2565b6104fe576040517facfdb44400000000000000000000000000000000000000000000000000000000815260040160405180910390fd5b5050565b6000805461050f906109e5565b80601f016020809104026020016040519081016040528092919081815260200182805461053b906109e5565b80156105885780601f1061055d57610100808354040283529160200191610588565b820191906000526020600020905b81548152906001019060200180831161056b57829003601f168201915b505050505081565b600160009054906101000a900460ff1681565b60028060000160009054906101000a900473ffffffffffffffffffffffffffffffffffffffff16908060000160149054906101000a900460ff16905082565b60007f000000000000000000000000000000000000000000000000000000000000000073ffffffffffffffffffffffffffffffffffffffff16631fdca146600260000160009054906101000a900473ffffffffffffffffffffffffffffffffffffffff16600260000160149054906101000a900460ff166040518363ffffffff1660e01b81526004016106769291906108ab565b600060405180830381600087803b15801561069057600080fd5b505af11580156106a4573d6000803e3d6000fd5b505050506001905090565b600080fd5b600073ffffffffffffffffffffffffffffffffffffffff82169050919050565b60006106df826106b4565b9050919050565b6106ef816106d4565b81146106fa57600080fd5b50565b60008135905061070c816106e6565b92915050565b60008115159050919050565b61072781610712565b811461073257600080fd5b50565b6000813590506107448161071e565b92915050565b60008060408385031215610761576107606106af565b5b600061076f858286016106fd565b925050602061078085828601610735565b9150509250929050565b6000602082840312156107a05761079f6106af565b5b60006107ae84828501610735565b91505092915050565b600081519050919050565b600082825260208201905092915050565b60005b838110156107f15780820151818401526020810190506107d6565b83811115610800576000848401525b50505050565b6000601f19601f8301169050919050565b6000610822826107b7565b61082c81856107c2565b935061083c8185602086016107d3565b61084581610806565b840191505092915050565b6000602082019050818103600083015261086a8184610817565b905092915050565b61087b81610712565b82525050565b60006020820190506108966000830184610872565b92915050565b6108a5816106d4565b82525050565b60006040820190506108c0600083018561089c565b6108cd6020830184610872565b9392505050565b60006020820190506108e9600083018461089c565b92915050565b6000819050919050565b610902816108ef565b811461090d57600080fd5b50565b60008151905061091f816108f9565b92915050565b600081519050610934816106e6565b92915050565b600080600060608486031215610953576109526106af565b5b600061096186828701610910565b935050602061097286828701610910565b925050604061098386828701610925565b9150509250925092565b60006040820190506109a2600083018561089c565b6109af602083018461089c565b9392505050565b7f4e487b7100000000000000000000000000000000000000000000000000000000600052602260045260246000fd5b600060028204905060018216806109fd57607f821691505b602082108103610a1057610a0f6109b6565b5b5091905056fea26469706673582212200328505b4c70bebf6176624e4b830f3bfae64fbf51803399b4bdd627c7f5a84c64736f6c634300080d0033",
  "linkReferences": {},
  "deployedLinkReferences": {}
}