{
  "_format": "hh-sol-artifact-1",
  "contractName": "LiquidityReceiver",
  "sourceName": "contracts/periphery/BehodlerLite/LiquidityReceiver.sol",
  "abi": [
    {
      "inputs": [
        {
          "internalType": "address",
          "name": "_lachesis",
          "type": "address"
        }
      ],
      "stateMutability": "nonpayable",
      "type": "constructor"
    },
    {
      "anonymous": false,
      "inputs": [
        {
          "indexed": true,
          "internalType": "address",
          "name": "previousOwner",
          "type": "address"
        },
        {
          "indexed": true,
          "internalType": "address",
          "name": "newOwner",
          "type": "address"
        }
      ],
      "name": "OwnershipTransferred",
      "type": "event"
    },
    {
      "inputs": [],
      "name": "config",
      "outputs": [
        {
          "internalType": "contract LachesisLike",
          "name": "lachesis",
          "type": "address"
        },
        {
          "internalType": "contract SnufferCap",
          "name": "snufferCap",
          "type": "address"
        }
      ],
      "stateMutability": "view",
      "type": "function"
    },
    {
      "inputs": [
        {
          "internalType": "address",
          "name": "baseToken",
          "type": "address"
        }
      ],
      "name": "drain",
      "outputs": [
        {
          "internalType": "uint256",
          "name": "",
          "type": "uint256"
        }
      ],
      "stateMutability": "nonpayable",
      "type": "function"
    },
    {
      "inputs": [
        {
          "internalType": "address",
          "name": "baseToken",
          "type": "address"
        }
      ],
      "name": "getPyroToken",
      "outputs": [
        {
          "internalType": "address",
          "name": "",
          "type": "address"
        }
      ],
      "stateMutability": "view",
      "type": "function"
    },
    {
      "inputs": [],
      "name": "owner",
      "outputs": [
        {
          "internalType": "address",
          "name": "",
          "type": "address"
        }
      ],
      "stateMutability": "view",
      "type": "function"
    },
    {
      "inputs": [
        {
          "internalType": "address",
          "name": "baseToken",
          "type": "address"
        },
        {
          "internalType": "string",
          "name": "name",
          "type": "string"
        },
        {
          "internalType": "string",
          "name": "symbol",
          "type": "string"
        }
      ],
      "name": "registerPyroToken",
      "outputs": [],
      "stateMutability": "nonpayable",
      "type": "function"
    },
    {
      "inputs": [],
      "name": "renounceOwnership",
      "outputs": [],
      "stateMutability": "nonpayable",
      "type": "function"
    },
    {
      "inputs": [
        {
          "internalType": "address",
          "name": "pyroToken",
          "type": "address"
        },
        {
          "internalType": "address",
          "name": "target",
          "type": "address"
        },
        {
          "internalType": "enum FeeExemption",
          "name": "exemption",
          "type": "uint8"
        }
      ],
      "name": "setFeeExemptionStatusOnPyroForContract",
      "outputs": [],
      "stateMutability": "nonpayable",
      "type": "function"
    },
    {
      "inputs": [
        {
          "internalType": "address",
          "name": "_lachesis",
          "type": "address"
        }
      ],
      "name": "setLachesis",
      "outputs": [],
      "stateMutability": "nonpayable",
      "type": "function"
    },
    {
      "inputs": [
        {
          "internalType": "address",
          "name": "pyroToken",
          "type": "address"
        },
        {
          "internalType": "address",
          "name": "loanOfficer",
          "type": "address"
        }
      ],
      "name": "setPyroTokenLoanOfficer",
      "outputs": [],
      "stateMutability": "nonpayable",
      "type": "function"
    },
    {
      "inputs": [
        {
          "internalType": "address",
          "name": "snufferCap",
          "type": "address"
        }
      ],
      "name": "setSnufferCap",
      "outputs": [],
      "stateMutability": "nonpayable",
      "type": "function"
    },
    {
      "inputs": [
        {
          "internalType": "address",
          "name": "pyroToken",
          "type": "address"
        },
        {
          "internalType": "bool",
          "name": "pull",
          "type": "bool"
        }
      ],
      "name": "togglePyroTokenPullFeeRevenue",
      "outputs": [],
      "stateMutability": "nonpayable",
      "type": "function"
    },
    {
      "inputs": [
        {
          "internalType": "address",
          "name": "newOwner",
          "type": "address"
        }
      ],
      "name": "transferOwnership",
      "outputs": [],
      "stateMutability": "nonpayable",
      "type": "function"
    },
    {
      "inputs": [
        {
          "internalType": "address",
          "name": "pyroToken",
          "type": "address"
        },
        {
          "internalType": "address",
          "name": "receiver",
          "type": "address"
        }
      ],
      "name": "transferPyroTokenToNewReceiver",
      "outputs": [],
      "stateMutability": "nonpayable",
      "type": "function"
    }
  ],
  "bytecode": "0x60806040523480156200001157600080fd5b5060405162005e2d38038062005e2d8339818101604052810190620000379190620001c1565b62000048336200009360201b60201c565b80600160000160006101000a81548173ffffffffffffffffffffffffffffffffffffffff021916908373ffffffffffffffffffffffffffffffffffffffff16021790555050620001f3565b60008060009054906101000a900473ffffffffffffffffffffffffffffffffffffffff169050816000806101000a81548173ffffffffffffffffffffffffffffffffffffffff021916908373ffffffffffffffffffffffffffffffffffffffff1602179055508173ffffffffffffffffffffffffffffffffffffffff168173ffffffffffffffffffffffffffffffffffffffff167f8be0079c531659141344cd1fd0a4f28419497f9722a3daafe3b4186f6b6457e060405160405180910390a35050565b600080fd5b600073ffffffffffffffffffffffffffffffffffffffff82169050919050565b600062000189826200015c565b9050919050565b6200019b816200017c565b8114620001a757600080fd5b50565b600081519050620001bb8162000190565b92915050565b600060208284031215620001da57620001d962000157565b5b6000620001ea84828501620001aa565b91505092915050565b615c2a80620002036000396000f3fe60806040523480156200001157600080fd5b5060043610620000e25760003560e01c806379502c551162000099578063dd1fcc45116200006f578063dd1fcc45146200020e578063ece53132146200022e578063ee148e091462000264578063f2fde38b146200028457620000e2565b806379502c5514620001a9578063827349a714620001cc5780638da5cb5b14620001ec57620000e2565b80631b3a4a5a14620000e757806326abe5eb1462000107578063303b76f21462000127578063404075361462000147578063715018a6146200017d578063786b8a331462000189575b600080fd5b620001056004803603810190620000ff919062001229565b620002a4565b005b6200012560048036038101906200011f9190620013d2565b62000391565b005b6200014560048036038101906200013f91906200146c565b620006aa565b005b6200016560048036038101906200015f9190620014b3565b62000797565b604051620001749190620014f6565b60405180910390f35b62000187620007fe565b005b620001a76004803603810190620001a19190620014b3565b62000886565b005b620001b362000946565b604051620001c3929190620015a3565b60405180910390f35b620001ea6004803603810190620001e491906200146c565b62000998565b005b620001f662000b32565b604051620002059190620014f6565b60405180910390f35b6200022c6004803603810190620002269190620015f8565b62000b5b565b005b6200024c6004803603810190620002469190620014b3565b62000cb3565b6040516200025b91906200166f565b60405180910390f35b6200028260048036038101906200027c9190620014b3565b62000dda565b005b620002a260048036038101906200029c9190620014b3565b62000e9b565b005b3373ffffffffffffffffffffffffffffffffffffffff16620002c562000b32565b73ffffffffffffffffffffffffffffffffffffffff16146200031e576040517f08c379a00000000000000000000000000000000000000000000000000000000081526004016200031590620016ed565b60405180910390fd5b8173ffffffffffffffffffffffffffffffffffffffff1663e83ecdae826040518263ffffffff1660e01b815260040162000359919062001720565b600060405180830381600087803b1580156200037457600080fd5b505af115801562000389573d6000803e3d6000fd5b505050505050565b3373ffffffffffffffffffffffffffffffffffffffff16620003b262000b32565b73ffffffffffffffffffffffffffffffffffffffff16146200040b576040517f08c379a00000000000000000000000000000000000000000000000000000000081526004016200040290620016ed565b60405180910390fd5b6000620004188462000797565b9050620004258162000f95565b1562000468576040517f08c379a00000000000000000000000000000000000000000000000000000000081526004016200045f906200178d565b60405180910390fd5b600080600160000160009054906101000a900473ffffffffffffffffffffffffffffffffffffffff1673ffffffffffffffffffffffffffffffffffffffff1663e2ea87db876040518263ffffffff1660e01b8152600401620004cb9190620014f6565b6040805180830381865afa158015620004e8573d6000803e3d6000fd5b505050506040513d601f19601f820116820180604052508101906200050e9190620017c6565b915091508180156200051e575080155b62000560576040517f08c379a000000000000000000000000000000000000000000000000000000000815260040162000557906200185d565b60405180910390fd5b6000620005bb87604051602001620005799190620014f6565b6040516020818303038152906040528051906020012060405180602001620005a19062001165565b6020820181038252601f19601f8201166040525062000fa8565b90508073ffffffffffffffffffffffffffffffffffffffff1663906571478888886040518463ffffffff1660e01b8152600401620005fc9392919062001901565b600060405180830381600087803b1580156200061757600080fd5b505af11580156200062c573d6000803e3d6000fd5b505050508373ffffffffffffffffffffffffffffffffffffffff168173ffffffffffffffffffffffffffffffffffffffff1614620006a1576040517f08c379a00000000000000000000000000000000000000000000000000000000081526004016200069890620019c2565b60405180910390fd5b50505050505050565b3373ffffffffffffffffffffffffffffffffffffffff16620006cb62000b32565b73ffffffffffffffffffffffffffffffffffffffff161462000724576040517f08c379a00000000000000000000000000000000000000000000000000000000081526004016200071b90620016ed565b60405180910390fd5b8173ffffffffffffffffffffffffffffffffffffffff16634a4bff9a826040518263ffffffff1660e01b81526004016200075f9190620014f6565b600060405180830381600087803b1580156200077a57600080fd5b505af11580156200078f573d6000803e3d6000fd5b505050505050565b60008082604051602001620007ad9190620014f6565b604051602081830303815290604052805190602001209050620007f68160405180602001620007dc9062001165565b6020820181038252601f19601f8201166040525062001033565b915050919050565b3373ffffffffffffffffffffffffffffffffffffffff166200081f62000b32565b73ffffffffffffffffffffffffffffffffffffffff161462000878576040517f08c379a00000000000000000000000000000000000000000000000000000000081526004016200086f90620016ed565b60405180910390fd5b6200088460006200104a565b565b3373ffffffffffffffffffffffffffffffffffffffff16620008a762000b32565b73ffffffffffffffffffffffffffffffffffffffff161462000900576040517f08c379a0000000000000000000000000000000000000000000000000000000008152600401620008f790620016ed565b60405180910390fd5b806001800160006101000a81548173ffffffffffffffffffffffffffffffffffffffff021916908373ffffffffffffffffffffffffffffffffffffffff16021790555050565b60018060000160009054906101000a900473ffffffffffffffffffffffffffffffffffffffff16908060010160009054906101000a900473ffffffffffffffffffffffffffffffffffffffff16905082565b3373ffffffffffffffffffffffffffffffffffffffff16620009b962000b32565b73ffffffffffffffffffffffffffffffffffffffff161462000a12576040517f08c379a000000000000000000000000000000000000000000000000000000000815260040162000a0990620016ed565b60405180910390fd5b600073ffffffffffffffffffffffffffffffffffffffff168173ffffffffffffffffffffffffffffffffffffffff161415801562000a7d5750600073ffffffffffffffffffffffffffffffffffffffff168273ffffffffffffffffffffffffffffffffffffffff1614155b62000abf576040517f08c379a000000000000000000000000000000000000000000000000000000000815260040162000ab69062001a34565b60405180910390fd5b8173ffffffffffffffffffffffffffffffffffffffff166352ec9c10826040518263ffffffff1660e01b815260040162000afa9190620014f6565b600060405180830381600087803b15801562000b1557600080fd5b505af115801562000b2a573d6000803e3d6000fd5b505050505050565b60008060009054906101000a900473ffffffffffffffffffffffffffffffffffffffff16905090565b6001800160009054906101000a900473ffffffffffffffffffffffffffffffffffffffff1673ffffffffffffffffffffffffffffffffffffffff163373ffffffffffffffffffffffffffffffffffffffff161462000bf0576040517f08c379a000000000000000000000000000000000000000000000000000000000815260040162000be79062001aa6565b60405180910390fd5b62000bfb8262000f95565b62000c3d576040517f08c379a000000000000000000000000000000000000000000000000000000000815260040162000c349062001b18565b60405180910390fd5b8273ffffffffffffffffffffffffffffffffffffffff1663f3b915d783836040518363ffffffff1660e01b815260040162000c7a92919062001bba565b600060405180830381600087803b15801562000c9557600080fd5b505af115801562000caa573d6000803e3d6000fd5b50505050505050565b60008062000cc18362000797565b9050600083905060008173ffffffffffffffffffffffffffffffffffffffff166370a08231306040518263ffffffff1660e01b815260040162000d059190620014f6565b602060405180830381865afa15801562000d23573d6000803e3d6000fd5b505050506040513d601f19601f8201168201806040525081019062000d49919062001c18565b90508173ffffffffffffffffffffffffffffffffffffffff1663a9059cbb84836040518363ffffffff1660e01b815260040162000d8892919062001c4a565b6020604051808303816000875af115801562000da8573d6000803e3d6000fd5b505050506040513d601f19601f8201168201806040525081019062000dce919062001c77565b50809350505050919050565b3373ffffffffffffffffffffffffffffffffffffffff1662000dfb62000b32565b73ffffffffffffffffffffffffffffffffffffffff161462000e54576040517f08c379a000000000000000000000000000000000000000000000000000000000815260040162000e4b90620016ed565b60405180910390fd5b80600160000160006101000a81548173ffffffffffffffffffffffffffffffffffffffff021916908373ffffffffffffffffffffffffffffffffffffffff16021790555050565b3373ffffffffffffffffffffffffffffffffffffffff1662000ebc62000b32565b73ffffffffffffffffffffffffffffffffffffffff161462000f15576040517f08c379a000000000000000000000000000000000000000000000000000000000815260040162000f0c90620016ed565b60405180910390fd5b600073ffffffffffffffffffffffffffffffffffffffff168173ffffffffffffffffffffffffffffffffffffffff160362000f87576040517f08c379a000000000000000000000000000000000000000000000000000000000815260040162000f7e9062001d1f565b60405180910390fd5b62000f92816200104a565b50565b600080823b905060008111915050919050565b600080838351602085016000f59050600073ffffffffffffffffffffffffffffffffffffffff168173ffffffffffffffffffffffffffffffffffffffff160362001029576040517f08c379a0000000000000000000000000000000000000000000000000000000008152600401620010209062001d91565b60405180910390fd5b8091505092915050565b6000620010428383306200110e565b905092915050565b60008060009054906101000a900473ffffffffffffffffffffffffffffffffffffffff169050816000806101000a81548173ffffffffffffffffffffffffffffffffffffffff021916908373ffffffffffffffffffffffffffffffffffffffff1602179055508173ffffffffffffffffffffffffffffffffffffffff168173ffffffffffffffffffffffffffffffffffffffff167f8be0079c531659141344cd1fd0a4f28419497f9722a3daafe3b4186f6b6457e060405160405180910390a35050565b60008083805190602001209050600060ff60f81b8487846040516020016200113a949392919062001e83565b604051602081830303815290604052805190602001209050606081901b60601c925050509392505050565b613d1b8062001eda83390190565b6000604051905090565b600080fd5b600080fd5b600073ffffffffffffffffffffffffffffffffffffffff82169050919050565b6000620011b48262001187565b9050919050565b620011c681620011a7565b8114620011d257600080fd5b50565b600081359050620011e681620011bb565b92915050565b60008115159050919050565b6200120381620011ec565b81146200120f57600080fd5b50565b6000813590506200122381620011f8565b92915050565b600080604083850312156200124357620012426200117d565b5b60006200125385828601620011d5565b9250506020620012668582860162001212565b9150509250929050565b600080fd5b600080fd5b6000601f19601f8301169050919050565b7f4e487b7100000000000000000000000000000000000000000000000000000000600052604160045260246000fd5b620012c5826200127a565b810181811067ffffffffffffffff82111715620012e757620012e66200128b565b5b80604052505050565b6000620012fc62001173565b90506200130a8282620012ba565b919050565b600067ffffffffffffffff8211156200132d576200132c6200128b565b5b62001338826200127a565b9050602081019050919050565b82818337600083830152505050565b60006200136b62001365846200130f565b620012f0565b9050828152602081018484840111156200138a576200138962001275565b5b6200139784828562001345565b509392505050565b600082601f830112620013b757620013b662001270565b5b8135620013c984826020860162001354565b91505092915050565b600080600060608486031215620013ee57620013ed6200117d565b5b6000620013fe86828701620011d5565b935050602084013567ffffffffffffffff81111562001422576200142162001182565b5b62001430868287016200139f565b925050604084013567ffffffffffffffff81111562001454576200145362001182565b5b62001462868287016200139f565b9150509250925092565b600080604083850312156200148657620014856200117d565b5b60006200149685828601620011d5565b9250506020620014a985828601620011d5565b9150509250929050565b600060208284031215620014cc57620014cb6200117d565b5b6000620014dc84828501620011d5565b91505092915050565b620014f081620011a7565b82525050565b60006020820190506200150d6000830184620014e5565b92915050565b6000819050919050565b60006200153e62001538620015328462001187565b62001513565b62001187565b9050919050565b600062001552826200151d565b9050919050565b6000620015668262001545565b9050919050565b620015788162001559565b82525050565b60006200158b8262001545565b9050919050565b6200159d816200157e565b82525050565b6000604082019050620015ba60008301856200156d565b620015c9602083018462001592565b9392505050565b60088110620015de57600080fd5b50565b600081359050620015f281620015d0565b92915050565b6000806000606084860312156200161457620016136200117d565b5b60006200162486828701620011d5565b93505060206200163786828701620011d5565b92505060406200164a86828701620015e1565b9150509250925092565b6000819050919050565b620016698162001654565b82525050565b60006020820190506200168660008301846200165e565b92915050565b600082825260208201905092915050565b7f4f776e61626c653a2063616c6c6572206973206e6f7420746865206f776e6572600082015250565b6000620016d56020836200168c565b9150620016e2826200169d565b602082019050919050565b600060208201905081810360008301526200170881620016c6565b9050919050565b6200171a81620011ec565b82525050565b60006020820190506200173760008301846200170f565b92915050565b7f5079726f546f6b656e2041646472657373206f63637570696564000000000000600082015250565b600062001775601a836200168c565b915062001782826200173d565b602082019050919050565b60006020820190508181036000830152620017a88162001766565b9050919050565b600081519050620017c081620011f8565b92915050565b60008060408385031215620017e057620017df6200117d565b5b6000620017f085828601620017af565b92505060206200180385828601620017af565b9150509250929050565b7f5079726f546f6b656e3a20696e76616c6964206261736520746f6b656e000000600082015250565b600062001845601d836200168c565b915062001852826200180d565b602082019050919050565b60006020820190508181036000830152620018788162001836565b9050919050565b600081519050919050565b60005b83811015620018aa5780820151818401526020810190506200188d565b83811115620018ba576000848401525b50505050565b6000620018cd826200187f565b620018d981856200168c565b9350620018eb8185602086016200188a565b620018f6816200127a565b840191505092915050565b6000606082019050620019186000830186620014e5565b81810360208301526200192c8185620018c0565b90508181036040830152620019428184620018c0565b9050949350505050565b7f5079726f546f6b656e3a20616464726573732070726564696374696f6e20666160008201527f696c656400000000000000000000000000000000000000000000000000000000602082015250565b6000620019aa6024836200168c565b9150620019b7826200194c565b604082019050919050565b60006020820190508181036000830152620019dd816200199b565b9050919050565b7f4c523a207a65726f206164647265737320646574656374656400000000000000600082015250565b600062001a1c6019836200168c565b915062001a2982620019e4565b602082019050919050565b6000602082019050818103600083015262001a4f8162001a0d565b9050919050565b7f4c523a206f6e6c7920736e756666657243617000000000000000000000000000600082015250565b600062001a8e6013836200168c565b915062001a9b8262001a56565b602082019050919050565b6000602082019050818103600083015262001ac18162001a7f565b9050919050565b7f4c523a20454f41732063616e6e6f74206265206578656d70742e000000000000600082015250565b600062001b00601a836200168c565b915062001b0d8262001ac8565b602082019050919050565b6000602082019050818103600083015262001b338162001af1565b9050919050565b7f4e487b7100000000000000000000000000000000000000000000000000000000600052602160045260246000fd5b6008811062001b7d5762001b7c62001b3a565b5b50565b600081905062001b908262001b69565b919050565b600062001ba28262001b80565b9050919050565b62001bb48162001b95565b82525050565b600060408201905062001bd16000830185620014e5565b62001be0602083018462001ba9565b9392505050565b62001bf28162001654565b811462001bfe57600080fd5b50565b60008151905062001c128162001be7565b92915050565b60006020828403121562001c315762001c306200117d565b5b600062001c418482850162001c01565b91505092915050565b600060408201905062001c616000830185620014e5565b62001c7060208301846200165e565b9392505050565b60006020828403121562001c905762001c8f6200117d565b5b600062001ca084828501620017af565b91505092915050565b7f4f776e61626c653a206e6577206f776e657220697320746865207a65726f206160008201527f6464726573730000000000000000000000000000000000000000000000000000602082015250565b600062001d076026836200168c565b915062001d148262001ca9565b604082019050919050565b6000602082019050818103600083015262001d3a8162001cf8565b9050919050565b7f437265617465323a204661696c6564206f6e206465706c6f7900000000000000600082015250565b600062001d796019836200168c565b915062001d868262001d41565b602082019050919050565b6000602082019050818103600083015262001dac8162001d6a565b9050919050565b60007fff0000000000000000000000000000000000000000000000000000000000000082169050919050565b6000819050919050565b62001dfe62001df88262001db3565b62001ddf565b82525050565b60008160601b9050919050565b600062001e1e8262001e04565b9050919050565b600062001e328262001e11565b9050919050565b62001e4e62001e4882620011a7565b62001e25565b82525050565b6000819050919050565b6000819050919050565b62001e7d62001e778262001e54565b62001e5e565b82525050565b600062001e91828762001de9565b60018201915062001ea3828662001e39565b60148201915062001eb5828562001e68565b60208201915062001ec7828462001e68565b6020820191508190509594505050505056fe60806040523480156200001157600080fd5b5060016005819055506200002a6200009160201b60201c565b600660000160006101000a81548173ffffffffffffffffffffffffffffffffffffffff021916908373ffffffffffffffffffffffffffffffffffffffff1602179055506001600660020160146101000a81548160ff02191690831515021790555062000099565b600033905090565b613c7280620000a96000396000f3fe608060405234801561001057600080fd5b506004361061018e5760003560e01c806362748c9b116100de578063a457c2d711610097578063e720663911610071578063e7206639146104e6578063e7464db114610516578063e83ecdae14610546578063f3b915d7146105625761018e565b8063a457c2d714610456578063a9059cbb14610486578063dd62ed3e146104b65761018e565b806362748c9b1461037f57806370a08231146103af57806379502c55146103df57806379cc679014610400578063906571471461041c57806395d89b41146104385761018e565b806330ecd3c41161014b57806340c10f191161012557806340c10f19146102fb57806342966c681461032b5780634a4bff9a1461034757806352ec9c10146103635761018e565b806330ecd3c41461027d578063313ce567146102ad57806339509351146102cb5761018e565b806306fdde0314610193578063095ea7b3146101b15780630adcdbaa146101e157806318160ddd146101ff5780631e9a69501461021d57806323b872dd1461024d575b600080fd5b61019b61057e565b6040516101a89190612928565b60405180910390f35b6101cb60048036038101906101c691906129f2565b610610565b6040516101d89190612a4d565b60405180910390f35b6101e961062e565b6040516101f69190612a77565b60405180910390f35b610207610721565b6040516102149190612a77565b60405180910390f35b610237600480360381019061023291906129f2565b61072b565b6040516102449190612a77565b60405180910390f35b61026760048036038101906102629190612a92565b610747565b6040516102749190612a4d565b60405180910390f35b61029760048036038101906102929190612ae5565b61083f565b6040516102a49190612a77565b60405180910390f35b6102b5610966565b6040516102c29190612b54565b60405180910390f35b6102e560048036038101906102e091906129f2565b61096f565b6040516102f29190612a4d565b60405180910390f35b610315600480360381019061031091906129f2565b610a1b565b6040516103229190612a77565b60405180910390f35b61034560048036038101906103409190612b6f565b610e46565b005b610361600480360381019061035c9190612b9c565b610e5a565b005b61037d60048036038101906103789190612b9c565b610faa565b005b61039960048036038101906103949190612bc9565b61108b565b6040516103a69190612a4d565b60405180910390f35b6103c960048036038101906103c49190612b9c565b61169d565b6040516103d69190612a77565b60405180910390f35b6103e76116e5565b6040516103f79493929190612c8a565b60405180910390f35b61041a600480360381019061041591906129f2565b611770565b005b61043660048036038101906104319190612e04565b6117eb565b005b6104406118fc565b60405161044d9190612928565b60405180910390f35b610470600480360381019061046b91906129f2565b61198e565b60405161047d9190612a4d565b60405180910390f35b6104a0600480360381019061049b91906129f2565b611a79565b6040516104ad9190612a4d565b60405180910390f35b6104d060048036038101906104cb9190612e8f565b611a97565b6040516104dd9190612a77565b60405180910390f35b61050060048036038101906104fb9190612ecf565b611b1e565b60405161050d9190612a77565b60405180910390f35b610530600480360381019061052b9190612a92565b611bd1565b60405161053d9190612a77565b60405180910390f35b610560600480360381019061055b9190612f3b565b611c8c565b005b61057c60048036038101906105779190612f8d565b611d46565b005b60606003805461058d90612ffc565b80601f01602080910402602001604051908101604052809291908181526020018280546105b990612ffc565b80156106065780601f106105db57610100808354040283529160200191610606565b820191906000526020600020905b8154815290600101906020018083116105e957829003601f168201915b5050505050905090565b600061062461061d611e4b565b8484611e53565b6001905092915050565b600080600660010160009054906101000a900473ffffffffffffffffffffffffffffffffffffffff1673ffffffffffffffffffffffffffffffffffffffff166370a08231306040518263ffffffff1660e01b815260040161068f919061302d565b602060405180830381865afa1580156106ac573d6000803e3d6000fd5b505050506040513d601f19601f820116820180604052508101906106d0919061305d565b9050600060025414806106e35750600081145b156106f957670de0b6b3a764000091505061071e565b600254670de0b6b3a76400008261071091906130b9565b61071a9190613142565b9150505b90565b6000600254905090565b600061073f83610739611e4b565b8461201c565b905092915050565b6000610754848484612311565b6000600160008673ffffffffffffffffffffffffffffffffffffffff1673ffffffffffffffffffffffffffffffffffffffff168152602001908152602001600020600061079f611e4b565b73ffffffffffffffffffffffffffffffffffffffff1673ffffffffffffffffffffffffffffffffffffffff1681526020019081526020016000205490508281101561081f576040517f08c379a0000000000000000000000000000000000000000000000000000000008152600401610816906131e5565b60405180910390fd5b6108338561082b611e4b565b858403611e53565b60019150509392505050565b600080600960008573ffffffffffffffffffffffffffffffffffffffff1673ffffffffffffffffffffffffffffffffffffffff16815260200190815260200160002060009054906101000a900460ff1660078111156108a1576108a0613205565b5b90506000600960008573ffffffffffffffffffffffffffffffffffffffff1673ffffffffffffffffffffffffffffffffffffffff16815260200190815260200160002060009054906101000a900460ff16600781111561090457610903613205565b5b905060018210158015610918575060048211155b8061093c5750600281148061093b57506004811015801561093a575060068111155b5b5b1561094c5760009250505061095f565b6103e88661095a9190613142565b925050505b9392505050565b60006012905090565b6000610a1161097c611e4b565b84846001600061098a611e4b565b73ffffffffffffffffffffffffffffffffffffffff1673ffffffffffffffffffffffffffffffffffffffff16815260200190815260200160002060008873ffffffffffffffffffffffffffffffffffffffff1673ffffffffffffffffffffffffffffffffffffffff16815260200190815260200160002054610a0c9190613234565b611e53565b6001905092915050565b6000600660020160149054906101000a900460ff1615610afd57600660000160009054906101000a900473ffffffffffffffffffffffffffffffffffffffff1673ffffffffffffffffffffffffffffffffffffffff1663ece53132600660010160009054906101000a900473ffffffffffffffffffffffffffffffffffffffff166040518263ffffffff1660e01b8152600401610ab8919061302d565b6020604051808303816000875af1158015610ad7573d6000803e3d6000fd5b505050506040513d601f19601f82011682018060405250810190610afb919061305d565b505b600073ffffffffffffffffffffffffffffffffffffffff16600660010160009054906101000a900473ffffffffffffffffffffffffffffffffffffffff1673ffffffffffffffffffffffffffffffffffffffff1603610b91576040517f08c379a0000000000000000000000000000000000000000000000000000000008152600401610b88906132d6565b60405180910390fd5b6000610b9b61062e565b90506000600660010160009054906101000a900473ffffffffffffffffffffffffffffffffffffffff1673ffffffffffffffffffffffffffffffffffffffff166370a08231306040518263ffffffff1660e01b8152600401610bfd919061302d565b602060405180830381865afa158015610c1a573d6000803e3d6000fd5b505050506040513d601f19601f82011682018060405250810190610c3e919061305d565b9050600660010160009054906101000a900473ffffffffffffffffffffffffffffffffffffffff1673ffffffffffffffffffffffffffffffffffffffff166323b872dd610c89611e4b565b30876040518463ffffffff1660e01b8152600401610ca9939291906132f6565b6020604051808303816000875af1158015610cc8573d6000803e3d6000fd5b505050506040513d601f19601f82011682018060405250810190610cec9190613342565b610cf557600080fd5b600081600660010160009054906101000a900473ffffffffffffffffffffffffffffffffffffffff1673ffffffffffffffffffffffffffffffffffffffff166370a08231306040518263ffffffff1660e01b8152600401610d56919061302d565b602060405180830381865afa158015610d73573d6000803e3d6000fd5b505050506040513d601f19601f82011682018060405250810190610d97919061305d565b610da1919061336f565b905060008382670de0b6b3a7640000610dba91906130b9565b610dc49190613142565b9050610dd087826124e1565b8673ffffffffffffffffffffffffffffffffffffffff16600073ffffffffffffffffffffffffffffffffffffffff167fd94c96605b7cfa934c976dea75c09ddc9874e545045672180eb7be82d5c47a34836000604051610e31929190613409565b60405180910390a38094505050505092915050565b610e57610e51611e4b565b8261262b565b50565b600660000160009054906101000a900473ffffffffffffffffffffffffffffffffffffffff1673ffffffffffffffffffffffffffffffffffffffff16610e9e611e4b565b73ffffffffffffffffffffffffffffffffffffffff1614610ef4576040517f08c379a0000000000000000000000000000000000000000000000000000000008152600401610eeb906134a4565b60405180910390fd5b600073ffffffffffffffffffffffffffffffffffffffff168173ffffffffffffffffffffffffffffffffffffffff1603610f63576040517f08c379a0000000000000000000000000000000000000000000000000000000008152600401610f5a90613536565b60405180910390fd5b80600660000160006101000a81548173ffffffffffffffffffffffffffffffffffffffff021916908373ffffffffffffffffffffffffffffffffffffffff16021790555050565b600660000160009054906101000a900473ffffffffffffffffffffffffffffffffffffffff1673ffffffffffffffffffffffffffffffffffffffff16610fee611e4b565b73ffffffffffffffffffffffffffffffffffffffff1614611044576040517f08c379a000000000000000000000000000000000000000000000000000000000815260040161103b906134a4565b60405180910390fd5b80600660020160006101000a81548173ffffffffffffffffffffffffffffffffffffffff021916908373ffffffffffffffffffffffffffffffffffffffff16021790555050565b6000600660020160009054906101000a900473ffffffffffffffffffffffffffffffffffffffff1673ffffffffffffffffffffffffffffffffffffffff166110d1611e4b565b73ffffffffffffffffffffffffffffffffffffffff1614611127576040517f08c379a000000000000000000000000000000000000000000000000000000000815260040161111e906135a2565b60405180910390fd5b60026005540361116c576040517f08c379a00000000000000000000000000000000000000000000000000000000081526004016111639061360e565b60405180910390fd5b60026005819055506000600a60008673ffffffffffffffffffffffffffffffffffffffff1673ffffffffffffffffffffffffffffffffffffffff1681526020019081526020016000206040518060600160405290816000820154815260200160018201548152602001600282015481525050905060006111ea61062e565b9050600081670de0b6b3a76400008761120391906130b9565b61120d9190613142565b905080851015611252576040517f08c379a00000000000000000000000000000000000000000000000000000000081526004016112499061367a565b60405180910390fd5b604051806060016040528087815260200186815260200183815250600a60008973ffffffffffffffffffffffffffffffffffffffff1673ffffffffffffffffffffffffffffffffffffffff16815260200190815260200160002060008201518160000155602082015181600101556040820151816002015590505060008360200151866112df91906136a4565b9050600080821315611443578190506000600160008b73ffffffffffffffffffffffffffffffffffffffff1673ffffffffffffffffffffffffffffffffffffffff1681526020019081526020016000206000611339611e4b565b73ffffffffffffffffffffffffffffffffffffffff1673ffffffffffffffffffffffffffffffffffffffff1681526020019081526020016000205490506113938a611382611e4b565b848461138e919061336f565b611e53565b816000808c73ffffffffffffffffffffffffffffffffffffffff1673ffffffffffffffffffffffffffffffffffffffff16815260200190815260200160002060008282546113e1919061336f565b92505081905550816000803073ffffffffffffffffffffffffffffffffffffffff1673ffffffffffffffffffffffffffffffffffffffff16815260200190815260200160002060008282546114369190613234565b9250508190555050611504565b6000821215611503578161145690613738565b9050806000808b73ffffffffffffffffffffffffffffffffffffffff1673ffffffffffffffffffffffffffffffffffffffff16815260200190815260200160002060008282546114a69190613234565b92505081905550806000803073ffffffffffffffffffffffffffffffffffffffff1673ffffffffffffffffffffffffffffffffffffffff16815260200190815260200160002060008282546114fb919061336f565b925050819055505b5b600085600001518961151691906136a4565b905060008113156115ca57600660010160009054906101000a900473ffffffffffffffffffffffffffffffffffffffff1673ffffffffffffffffffffffffffffffffffffffff1663a9059cbb8b836040518363ffffffff1660e01b8152600401611581929190613780565b6020604051808303816000875af11580156115a0573d6000803e3d6000fd5b505050506040513d601f19601f820116820180604052508101906115c49190613342565b50611684565b600081121561168357600660010160009054906101000a900473ffffffffffffffffffffffffffffffffffffffff1673ffffffffffffffffffffffffffffffffffffffff166323b872dd8b308461162090613738565b6040518463ffffffff1660e01b815260040161163e939291906132f6565b6020604051808303816000875af115801561165d573d6000803e3d6000fd5b505050506040513d601f19601f820116820180604052508101906116819190613342565b505b5b6001965050505050505060016005819055509392505050565b60008060008373ffffffffffffffffffffffffffffffffffffffff1673ffffffffffffffffffffffffffffffffffffffff168152602001908152602001600020549050919050565b60068060000160009054906101000a900473ffffffffffffffffffffffffffffffffffffffff16908060010160009054906101000a900473ffffffffffffffffffffffffffffffffffffffff16908060020160009054906101000a900473ffffffffffffffffffffffffffffffffffffffff16908060020160149054906101000a900460ff16905084565b60006117838361177e611e4b565b611a97565b9050818110156117c8576040517f08c379a00000000000000000000000000000000000000000000000000000000081526004016117bf9061381b565b60405180910390fd5b6117dc836117d4611e4b565b848403611e53565b6117e6838361262b565b505050565b600660000160009054906101000a900473ffffffffffffffffffffffffffffffffffffffff1673ffffffffffffffffffffffffffffffffffffffff1661182f611e4b565b73ffffffffffffffffffffffffffffffffffffffff1614611885576040517f08c379a000000000000000000000000000000000000000000000000000000000815260040161187c906134a4565b60405180910390fd5b82600660010160006101000a81548173ffffffffffffffffffffffffffffffffffffffff021916908373ffffffffffffffffffffffffffffffffffffffff16021790555081600390805190602001906118df9291906127ec565b5080600490805190602001906118f69291906127ec565b50505050565b60606004805461190b90612ffc565b80601f016020809104026020016040519081016040528092919081815260200182805461193790612ffc565b80156119845780601f1061195957610100808354040283529160200191611984565b820191906000526020600020905b81548152906001019060200180831161196757829003601f168201915b5050505050905090565b6000806001600061199d611e4b565b73ffffffffffffffffffffffffffffffffffffffff1673ffffffffffffffffffffffffffffffffffffffff16815260200190815260200160002060008573ffffffffffffffffffffffffffffffffffffffff1673ffffffffffffffffffffffffffffffffffffffff16815260200190815260200160002054905082811015611a5a576040517f08c379a0000000000000000000000000000000000000000000000000000000008152600401611a51906138ad565b60405180910390fd5b611a6e611a65611e4b565b85858403611e53565b600191505092915050565b6000611a8d611a86611e4b565b8484612311565b6001905092915050565b6000600160008473ffffffffffffffffffffffffffffffffffffffff1673ffffffffffffffffffffffffffffffffffffffff16815260200190815260200160002060008373ffffffffffffffffffffffffffffffffffffffff1673ffffffffffffffffffffffffffffffffffffffff16815260200190815260200160002054905092915050565b600080600960008473ffffffffffffffffffffffffffffffffffffffff1673ffffffffffffffffffffffffffffffffffffffff16815260200190815260200160002060009054906101000a900460ff166007811115611b8057611b7f613205565b5b905060038110158015611b94575060048111155b80611b9f5750600581115b15611bae576000915050611bcb565b6064600285611bbd91906130b9565b611bc79190613142565b9150505b92915050565b600080600160008673ffffffffffffffffffffffffffffffffffffffff1673ffffffffffffffffffffffffffffffffffffffff1681526020019081526020016000206000611c1d611e4b565b73ffffffffffffffffffffffffffffffffffffffff1673ffffffffffffffffffffffffffffffffffffffff168152602001908152602001600020549050611c7785611c66611e4b565b8584611c72919061336f565b611e53565b611c8285858561201c565b9150509392505050565b600660000160009054906101000a900473ffffffffffffffffffffffffffffffffffffffff1673ffffffffffffffffffffffffffffffffffffffff16611cd0611e4b565b73ffffffffffffffffffffffffffffffffffffffff1614611d26576040517f08c379a0000000000000000000000000000000000000000000000000000000008152600401611d1d906134a4565b60405180910390fd5b80600660020160146101000a81548160ff02191690831515021790555050565b600660000160009054906101000a900473ffffffffffffffffffffffffffffffffffffffff1673ffffffffffffffffffffffffffffffffffffffff16611d8a611e4b565b73ffffffffffffffffffffffffffffffffffffffff1614611de0576040517f08c379a0000000000000000000000000000000000000000000000000000000008152600401611dd7906134a4565b60405180910390fd5b80600960008473ffffffffffffffffffffffffffffffffffffffff1673ffffffffffffffffffffffffffffffffffffffff16815260200190815260200160002060006101000a81548160ff02191690836007811115611e4257611e41613205565b5b02179055505050565b600033905090565b600073ffffffffffffffffffffffffffffffffffffffff168373ffffffffffffffffffffffffffffffffffffffff1603611ec2576040517f08c379a0000000000000000000000000000000000000000000000000000000008152600401611eb99061393f565b60405180910390fd5b600073ffffffffffffffffffffffffffffffffffffffff168273ffffffffffffffffffffffffffffffffffffffff1603611f31576040517f08c379a0000000000000000000000000000000000000000000000000000000008152600401611f28906139d1565b60405180910390fd5b80600160008573ffffffffffffffffffffffffffffffffffffffff1673ffffffffffffffffffffffffffffffffffffffff16815260200190815260200160002060008473ffffffffffffffffffffffffffffffffffffffff1673ffffffffffffffffffffffffffffffffffffffff168152602001908152602001600020819055508173ffffffffffffffffffffffffffffffffffffffff168373ffffffffffffffffffffffffffffffffffffffff167f8c5be1e5ebec7d5bd14f71427d1e84f3dd0314c0f7b2291e5b200ac8c7c3b9258360405161200f9190612a77565b60405180910390a3505050565b6000600660020160149054906101000a900460ff16156120fe57600660000160009054906101000a900473ffffffffffffffffffffffffffffffffffffffff1673ffffffffffffffffffffffffffffffffffffffff1663ece53132600660010160009054906101000a900473ffffffffffffffffffffffffffffffffffffffff166040518263ffffffff1660e01b81526004016120b9919061302d565b6020604051808303816000875af11580156120d8573d6000803e3d6000fd5b505050506040513d601f19601f820116820180604052508101906120fc919061305d565b505b600061210861062e565b9050826000808673ffffffffffffffffffffffffffffffffffffffff1673ffffffffffffffffffffffffffffffffffffffff1681526020019081526020016000206000828254612158919061336f565b92505081905550600061216b8486611b1e565b90506000818561217b919061336f565b9050600083670de0b6b3a76400008361219491906130b9565b61219e9190613142565b905085600260008282546121b2919061336f565b92505081905550600073ffffffffffffffffffffffffffffffffffffffff168773ffffffffffffffffffffffffffffffffffffffff167fd94c96605b7cfa934c976dea75c09ddc9874e545045672180eb7be82d5c47a3488896040516122199291906139f1565b60405180910390a3600660010160009054906101000a900473ffffffffffffffffffffffffffffffffffffffff1673ffffffffffffffffffffffffffffffffffffffff1663a9059cbb89836040518363ffffffff1660e01b8152600401612281929190613780565b6020604051808303816000875af11580156122a0573d6000803e3d6000fd5b505050506040513d601f19601f820116820180604052508101906122c49190613342565b612303576040517f08c379a00000000000000000000000000000000000000000000000000000000081526004016122fa90613a8c565b60405180910390fd5b809450505050509392505050565b600073ffffffffffffffffffffffffffffffffffffffff168273ffffffffffffffffffffffffffffffffffffffff16036123535761234e81610e46565b6124dc565b60008060008573ffffffffffffffffffffffffffffffffffffffff1673ffffffffffffffffffffffffffffffffffffffff16815260200190815260200160002054905060006123a383868661083f565b905080600260008282546123b7919061336f565b92505081905550600081846123cc919061336f565b905083836123da919061336f565b6000808873ffffffffffffffffffffffffffffffffffffffff1673ffffffffffffffffffffffffffffffffffffffff16815260200190815260200160002081905550806000808773ffffffffffffffffffffffffffffffffffffffff1673ffffffffffffffffffffffffffffffffffffffff168152602001908152602001600020600082825461246a9190613234565b925050819055508473ffffffffffffffffffffffffffffffffffffffff168673ffffffffffffffffffffffffffffffffffffffff167fd94c96605b7cfa934c976dea75c09ddc9874e545045672180eb7be82d5c47a3486856040516124d09291906139f1565b60405180910390a35050505b505050565b600073ffffffffffffffffffffffffffffffffffffffff168273ffffffffffffffffffffffffffffffffffffffff1603612550576040517f08c379a000000000000000000000000000000000000000000000000000000000815260040161254790613af8565b60405180910390fd5b80600260008282546125629190613234565b92505081905550806000808473ffffffffffffffffffffffffffffffffffffffff1673ffffffffffffffffffffffffffffffffffffffff16815260200190815260200160002060008282546125b79190613234565b925050819055508173ffffffffffffffffffffffffffffffffffffffff16600073ffffffffffffffffffffffffffffffffffffffff167fd94c96605b7cfa934c976dea75c09ddc9874e545045672180eb7be82d5c47a3483600060405161261f929190613409565b60405180910390a35050565b600073ffffffffffffffffffffffffffffffffffffffff168273ffffffffffffffffffffffffffffffffffffffff160361269a576040517f08c379a000000000000000000000000000000000000000000000000000000000815260040161269190613b8a565b60405180910390fd5b60008060008473ffffffffffffffffffffffffffffffffffffffff1673ffffffffffffffffffffffffffffffffffffffff16815260200190815260200160002054905081811015612720576040517f08c379a000000000000000000000000000000000000000000000000000000000815260040161271790613c1c565b60405180910390fd5b8181036000808573ffffffffffffffffffffffffffffffffffffffff1673ffffffffffffffffffffffffffffffffffffffff168152602001908152602001600020819055508160026000828254612777919061336f565b92505081905550600073ffffffffffffffffffffffffffffffffffffffff168373ffffffffffffffffffffffffffffffffffffffff167fd94c96605b7cfa934c976dea75c09ddc9874e545045672180eb7be82d5c47a348460006040516127df929190613409565b60405180910390a3505050565b8280546127f890612ffc565b90600052602060002090601f01602090048101928261281a5760008555612861565b82601f1061283357805160ff1916838001178555612861565b82800160010185558215612861579182015b82811115612860578251825591602001919060010190612845565b5b50905061286e9190612872565b5090565b5b8082111561288b576000816000905550600101612873565b5090565b600081519050919050565b600082825260208201905092915050565b60005b838110156128c95780820151818401526020810190506128ae565b838111156128d8576000848401525b50505050565b6000601f19601f8301169050919050565b60006128fa8261288f565b612904818561289a565b93506129148185602086016128ab565b61291d816128de565b840191505092915050565b6000602082019050818103600083015261294281846128ef565b905092915050565b6000604051905090565b600080fd5b600080fd5b600073ffffffffffffffffffffffffffffffffffffffff82169050919050565b60006129898261295e565b9050919050565b6129998161297e565b81146129a457600080fd5b50565b6000813590506129b681612990565b92915050565b6000819050919050565b6129cf816129bc565b81146129da57600080fd5b50565b6000813590506129ec816129c6565b92915050565b60008060408385031215612a0957612a08612954565b5b6000612a17858286016129a7565b9250506020612a28858286016129dd565b9150509250929050565b60008115159050919050565b612a4781612a32565b82525050565b6000602082019050612a626000830184612a3e565b92915050565b612a71816129bc565b82525050565b6000602082019050612a8c6000830184612a68565b92915050565b600080600060608486031215612aab57612aaa612954565b5b6000612ab9868287016129a7565b9350506020612aca868287016129a7565b9250506040612adb868287016129dd565b9150509250925092565b600080600060608486031215612afe57612afd612954565b5b6000612b0c868287016129dd565b9350506020612b1d868287016129a7565b9250506040612b2e868287016129a7565b9150509250925092565b600060ff82169050919050565b612b4e81612b38565b82525050565b6000602082019050612b696000830184612b45565b92915050565b600060208284031215612b8557612b84612954565b5b6000612b93848285016129dd565b91505092915050565b600060208284031215612bb257612bb1612954565b5b6000612bc0848285016129a7565b91505092915050565b600080600060608486031215612be257612be1612954565b5b6000612bf0868287016129a7565b9350506020612c01868287016129dd565b9250506040612c12868287016129dd565b9150509250925092565b612c258161297e565b82525050565b6000819050919050565b6000612c50612c4b612c468461295e565b612c2b565b61295e565b9050919050565b6000612c6282612c35565b9050919050565b6000612c7482612c57565b9050919050565b612c8481612c69565b82525050565b6000608082019050612c9f6000830187612c1c565b612cac6020830186612c7b565b612cb96040830185612c1c565b612cc66060830184612a3e565b95945050505050565b600080fd5b600080fd5b7f4e487b7100000000000000000000000000000000000000000000000000000000600052604160045260246000fd5b612d11826128de565b810181811067ffffffffffffffff82111715612d3057612d2f612cd9565b5b80604052505050565b6000612d4361294a565b9050612d4f8282612d08565b919050565b600067ffffffffffffffff821115612d6f57612d6e612cd9565b5b612d78826128de565b9050602081019050919050565b82818337600083830152505050565b6000612da7612da284612d54565b612d39565b905082815260208101848484011115612dc357612dc2612cd4565b5b612dce848285612d85565b509392505050565b600082601f830112612deb57612dea612ccf565b5b8135612dfb848260208601612d94565b91505092915050565b600080600060608486031215612e1d57612e1c612954565b5b6000612e2b868287016129a7565b935050602084013567ffffffffffffffff811115612e4c57612e4b612959565b5b612e5886828701612dd6565b925050604084013567ffffffffffffffff811115612e7957612e78612959565b5b612e8586828701612dd6565b9150509250925092565b60008060408385031215612ea657612ea5612954565b5b6000612eb4858286016129a7565b9250506020612ec5858286016129a7565b9150509250929050565b60008060408385031215612ee657612ee5612954565b5b6000612ef4858286016129dd565b9250506020612f05858286016129a7565b9150509250929050565b612f1881612a32565b8114612f2357600080fd5b50565b600081359050612f3581612f0f565b92915050565b600060208284031215612f5157612f50612954565b5b6000612f5f84828501612f26565b91505092915050565b60088110612f7557600080fd5b50565b600081359050612f8781612f68565b92915050565b60008060408385031215612fa457612fa3612954565b5b6000612fb2858286016129a7565b9250506020612fc385828601612f78565b9150509250929050565b7f4e487b7100000000000000000000000000000000000000000000000000000000600052602260045260246000fd5b6000600282049050600182168061301457607f821691505b60208210810361302757613026612fcd565b5b50919050565b60006020820190506130426000830184612c1c565b92915050565b600081519050613057816129c6565b92915050565b60006020828403121561307357613072612954565b5b600061308184828501613048565b91505092915050565b7f4e487b7100000000000000000000000000000000000000000000000000000000600052601160045260246000fd5b60006130c4826129bc565b91506130cf836129bc565b9250817fffffffffffffffffffffffffffffffffffffffffffffffffffffffffffffffff04831182151516156131085761310761308a565b5b828202905092915050565b7f4e487b7100000000000000000000000000000000000000000000000000000000600052601260045260246000fd5b600061314d826129bc565b9150613158836129bc565b92508261316857613167613113565b5b828204905092915050565b7f45524332303a207472616e7366657220616d6f756e742065786365656473206160008201527f6c6c6f77616e6365000000000000000000000000000000000000000000000000602082015250565b60006131cf60288361289a565b91506131da82613173565b604082019050919050565b600060208201905081810360008301526131fe816131c2565b9050919050565b7f4e487b7100000000000000000000000000000000000000000000000000000000600052602160045260246000fd5b600061323f826129bc565b915061324a836129bc565b9250827fffffffffffffffffffffffffffffffffffffffffffffffffffffffffffffffff0382111561327f5761327e61308a565b5b828201905092915050565b7f5079726f546f6b656e3a206261736520746f6b656e206e6f7420736574000000600082015250565b60006132c0601d8361289a565b91506132cb8261328a565b602082019050919050565b600060208201905081810360008301526132ef816132b3565b9050919050565b600060608201905061330b6000830186612c1c565b6133186020830185612c1c565b6133256040830184612a68565b949350505050565b60008151905061333c81612f0f565b92915050565b60006020828403121561335857613357612954565b5b60006133668482850161332d565b91505092915050565b600061337a826129bc565b9150613385836129bc565b9250828210156133985761339761308a565b5b828203905092915050565b60006fffffffffffffffffffffffffffffffff82169050919050565b6133c8816133a3565b82525050565b6000819050919050565b60006133f36133ee6133e9846133ce565b612c2b565b6133a3565b9050919050565b613403816133d8565b82525050565b600060408201905061341e60008301856133bf565b61342b60208301846133fa565b9392505050565b7f5079726f546f6b656e3a204f6e6c79204c69717569646974792052656365697660008201527f65722e0000000000000000000000000000000000000000000000000000000000602082015250565b600061348e60238361289a565b915061349982613432565b604082019050919050565b600060208201905081810360008301526134bd81613481565b9050919050565b7f5079726f546f6b656e3a204e6577204c6971756964697479205265636569766560008201527f722063616e6e6f7420626520746865207a65726f20616464726573732e000000602082015250565b6000613520603d8361289a565b915061352b826134c4565b604082019050919050565b6000602082019050818103600083015261354f81613513565b9050919050565b7f5079726f546f6b656e3a204f6e6c79204c6f616e204f6666696365722e000000600082015250565b600061358c601d8361289a565b915061359782613556565b602082019050919050565b600060208201905081810360008301526135bb8161357f565b9050919050565b7f5265656e7472616e637947756172643a207265656e7472616e742063616c6c00600082015250565b60006135f8601f8361289a565b9150613603826135c2565b602082019050919050565b60006020820190508181036000830152613627816135eb565b9050919050565b7f5079726f3a20556e7375737461696e61626c65206c6f616e2e00000000000000600082015250565b600061366460198361289a565b915061366f8261362e565b602082019050919050565b6000602082019050818103600083015261369381613657565b9050919050565b6000819050919050565b60006136af8261369a565b91506136ba8361369a565b9250827f8000000000000000000000000000000000000000000000000000000000000000018212600084121516156136f5576136f461308a565b5b827f7fffffffffffffffffffffffffffffffffffffffffffffffffffffffffffffff01821360008412161561372d5761372c61308a565b5b828203905092915050565b60006137438261369a565b91507f800000000000000000000000000000000000000000000000000000000000000082036137755761377461308a565b5b816000039050919050565b60006040820190506137956000830185612c1c565b6137a26020830184612a68565b9392505050565b7f45524332303a206275726e20616d6f756e74206578636565647320616c6c6f7760008201527f616e636500000000000000000000000000000000000000000000000000000000602082015250565b600061380560248361289a565b9150613810826137a9565b604082019050919050565b60006020820190508181036000830152613834816137f8565b9050919050565b7f45524332303a2064656372656173656420616c6c6f77616e63652062656c6f7760008201527f207a65726f000000000000000000000000000000000000000000000000000000602082015250565b600061389760258361289a565b91506138a28261383b565b604082019050919050565b600060208201905081810360008301526138c68161388a565b9050919050565b7f45524332303a20617070726f76652066726f6d20746865207a65726f2061646460008201527f7265737300000000000000000000000000000000000000000000000000000000602082015250565b600061392960248361289a565b9150613934826138cd565b604082019050919050565b600060208201905081810360008301526139588161391c565b9050919050565b7f45524332303a20617070726f766520746f20746865207a65726f20616464726560008201527f7373000000000000000000000000000000000000000000000000000000000000602082015250565b60006139bb60228361289a565b91506139c68261395f565b604082019050919050565b600060208201905081810360008301526139ea816139ae565b9050919050565b6000604082019050613a0660008301856133bf565b613a1360208301846133bf565b9392505050565b7f5079726f546f6b656e2072657365727665207472616e73666572206661696c6560008201527f642e000000000000000000000000000000000000000000000000000000000000602082015250565b6000613a7660228361289a565b9150613a8182613a1a565b604082019050919050565b60006020820190508181036000830152613aa581613a69565b9050919050565b7f45524332303a206d696e7420746f20746865207a65726f206164647265737300600082015250565b6000613ae2601f8361289a565b9150613aed82613aac565b602082019050919050565b60006020820190508181036000830152613b1181613ad5565b9050919050565b7f45524332303a206275726e2066726f6d20746865207a65726f2061646472657360008201527f7300000000000000000000000000000000000000000000000000000000000000602082015250565b6000613b7460218361289a565b9150613b7f82613b18565b604082019050919050565b60006020820190508181036000830152613ba381613b67565b9050919050565b7f45524332303a206275726e20616d6f756e7420657863656564732062616c616e60008201527f6365000000000000000000000000000000000000000000000000000000000000602082015250565b6000613c0660228361289a565b9150613c1182613baa565b604082019050919050565b60006020820190508181036000830152613c3581613bf9565b905091905056fea2646970667358221220e6cb71e1ecb2ec9d3b40c5f93e864a8eb73ff9f87559177e950471b5dbff709564736f6c634300080d0033a26469706673582212201da48fdb6f571973c54543876680c0cca72176a65a610d0f13cd09645133582464736f6c634300080d0033",
  "linkReferences": {},
  "deployedLinkReferences": {}
}