{
  "_format": "hh-sol-artifact-1",
  "contractName": "Angband",
  "sourceName": "contracts/testing/Morgoth/Angband.sol",
  "abi": [
    {
      "inputs": [
        {
          "internalType": "address",
          "name": "invoker",
          "type": "address"
        }
      ],
      "name": "executePower",
      "outputs": [],
      "stateMutability": "nonpayable",
      "type": "function"
    }
  ],
  "bytecode": "0x608060405234801561001057600080fd5b506101dc806100206000396000f3fe608060405234801561001057600080fd5b506004361061002b5760003560e01c8063ede0b3b514610030575b600080fd5b61004a6004803603810190610045919061011d565b61004c565b005b8073ffffffffffffffffffffffffffffffffffffffff1663c936c233336040518263ffffffff1660e01b8152600401610085919061017f565b600060405180830381600087803b15801561009f57600080fd5b505af11580156100b3573d6000803e3d6000fd5b5050505050565b600080fd5b600073ffffffffffffffffffffffffffffffffffffffff82169050919050565b60006100ea826100bf565b9050919050565b6100fa816100df565b811461010557600080fd5b50565b600081359050610117816100f1565b92915050565b600060208284031215610133576101326100ba565b5b600061014184828501610108565b91505092915050565b7f7465737400000000000000000000000000000000000000000000000000000000815250565b610179816100df565b82525050565b60006040820190506101936000830161014a565b6101a06020830184610170565b9291505056fea2646970667358221220270c91b40e9f2d8cebd894ff1c393b549f52d9c4ff9fa443ebe45c973eb2e8b264736f6c634300080d0033",
  "linkReferences": {},
  "deployedLinkReferences": {}
}