{
  "_format": "hh-sol-artifact-1",
  "contractName": "UniswapHelper",
  "sourceName": "contracts/UniswapHelper.sol",
  "abi": [
    {
      "inputs": [
        {
          "internalType": "address",
          "name": "_limbo",
          "type": "address"
        },
        {
          "internalType": "address",
          "name": "limboDAO",
          "type": "address"
        }
      ],
      "stateMutability": "nonpayable",
      "type": "constructor"
    },
    {
      "inputs": [
        {
          "internalType": "address",
          "name": "configurationLord",
          "type": "address"
        },
        {
          "internalType": "address",
          "name": "msg_sender",
          "type": "address"
        }
      ],
      "name": "AccessDenied",
      "type": "error"
    },
    {
      "inputs": [
        {
          "internalType": "address",
          "name": "expectedDAO",
          "type": "address"
        },
        {
          "internalType": "address",
          "name": "actualDAO",
          "type": "address"
        }
      ],
      "name": "BackrunDetected",
      "type": "error"
    },
    {
      "inputs": [],
      "name": "DaiThresholdMustBePositive",
      "type": "error"
    },
    {
      "inputs": [
        {
          "internalType": "uint256",
          "name": "tolerance",
          "type": "uint256"
        }
      ],
      "name": "DivergenceToleranceTooLow",
      "type": "error"
    },
    {
      "inputs": [
        {
          "internalType": "bool",
          "name": "configured",
          "type": "bool"
        },
        {
          "internalType": "address",
          "name": "proposal",
          "type": "address"
        }
      ],
      "name": "GovernanceActionFailed",
      "type": "error"
    },
    {
      "inputs": [],
      "name": "NotOnMainnet",
      "type": "error"
    },
    {
      "inputs": [
        {
          "internalType": "address",
          "name": "msgSender",
          "type": "address"
        },
        {
          "internalType": "address",
          "name": "limbo",
          "type": "address"
        }
      ],
      "name": "OnlyLimbo",
      "type": "error"
    },
    {
      "inputs": [
        {
          "internalType": "address",
          "name": "fln_scx",
          "type": "address"
        },
        {
          "internalType": "address",
          "name": "dai_scx",
          "type": "address"
        },
        {
          "internalType": "address",
          "name": "scx__fln_scx",
          "type": "address"
        }
      ],
      "name": "OracleLPsNotSet",
      "type": "error"
    },
    {
      "inputs": [
        {
          "internalType": "uint8",
          "name": "overshoot",
          "type": "uint8"
        }
      ],
      "name": "PriceOvershootTooHigh",
      "type": "error"
    },
    {
      "inputs": [],
      "name": "DAO",
      "outputs": [
        {
          "internalType": "address",
          "name": "",
          "type": "address"
        }
      ],
      "stateMutability": "view",
      "type": "function"
    },
    {
      "inputs": [],
      "name": "blackHole",
      "outputs": [
        {
          "internalType": "address",
          "name": "",
          "type": "address"
        }
      ],
      "stateMutability": "view",
      "type": "function"
    },
    {
      "inputs": [
        {
          "internalType": "address",
          "name": "inputToken",
          "type": "address"
        },
        {
          "internalType": "uint256",
          "name": "amount",
          "type": "uint256"
        },
        {
          "internalType": "address",
          "name": "recipient",
          "type": "address"
        }
      ],
      "name": "buyFlanAndBurn",
      "outputs": [],
      "stateMutability": "nonpayable",
      "type": "function"
    },
    {
      "inputs": [
        {
          "internalType": "address",
          "name": "_limbo",
          "type": "address"
        },
        {
          "internalType": "address",
          "name": "behodler",
          "type": "address"
        },
        {
          "internalType": "address",
          "name": "flan",
          "type": "address"
        },
        {
          "internalType": "uint256",
          "name": "divergenceTolerance",
          "type": "uint256"
        },
        {
          "internalType": "uint8",
          "name": "precision",
          "type": "uint8"
        },
        {
          "internalType": "uint8",
          "name": "priceBoostOvershoot",
          "type": "uint8"
        },
        {
          "internalType": "address",
          "name": "oracle",
          "type": "address"
        }
      ],
      "name": "configure",
      "outputs": [],
      "stateMutability": "nonpayable",
      "type": "function"
    },
    {
      "inputs": [],
      "name": "configured",
      "outputs": [
        {
          "internalType": "bool",
          "name": "",
          "type": "bool"
        }
      ],
      "stateMutability": "view",
      "type": "function"
    },
    {
      "inputs": [
        {
          "internalType": "address",
          "name": "expectedDAO",
          "type": "address"
        }
      ],
      "name": "endConfiguration",
      "outputs": [],
      "stateMutability": "nonpayable",
      "type": "function"
    },
    {
      "inputs": [],
      "name": "governer",
      "outputs": [
        {
          "internalType": "contract FlashGovernanceArbiterLike",
          "name": "",
          "type": "address"
        }
      ],
      "stateMutability": "view",
      "type": "function"
    },
    {
      "inputs": [
        {
          "internalType": "uint256",
          "name": "minAPY",
          "type": "uint256"
        },
        {
          "internalType": "uint256",
          "name": "daiThreshold",
          "type": "uint256"
        }
      ],
      "name": "minAPY_to_FPS",
      "outputs": [
        {
          "internalType": "uint256",
          "name": "fps",
          "type": "uint256"
        }
      ],
      "stateMutability": "pure",
      "type": "function"
    },
    {
      "inputs": [
        {
          "internalType": "address",
          "name": "dai",
          "type": "address"
        }
      ],
      "name": "setDAI",
      "outputs": [],
      "stateMutability": "nonpayable",
      "type": "function"
    },
    {
      "inputs": [
        {
          "internalType": "address",
          "name": "dao",
          "type": "address"
        }
      ],
      "name": "setDAO",
      "outputs": [],
      "stateMutability": "nonpayable",
      "type": "function"
    },
    {
      "inputs": [
        {
          "internalType": "uint256",
          "name": "mintedSCX",
          "type": "uint256"
        }
      ],
      "name": "stabilizeFlan",
      "outputs": [
        {
          "internalType": "uint256",
          "name": "lpMinted",
          "type": "uint256"
        }
      ],
      "stateMutability": "nonpayable",
      "type": "function"
    },
    {
      "inputs": [],
      "name": "temporaryConfigurationLord",
      "outputs": [
        {
          "internalType": "address",
          "name": "",
          "type": "address"
        }
      ],
      "stateMutability": "view",
      "type": "function"
    }
  ],
  "bytecode": "0x60806040523480156200001157600080fd5b506040516200302a3803806200302a833981810160405281019062000037919062000459565b806200004981620001f260201b60201c565b33600160006101000a81548173ffffffffffffffffffffffffffffffffffffffff021916908373ffffffffffffffffffffffffffffffffffffffff1602179055505081600360006101000a81548173ffffffffffffffffffffffffffffffffffffffff021916908373ffffffffffffffffffffffffffffffffffffffff160217905550604051620000da90620003e2565b604051809103906000f080158015620000f7573d6000803e3d6000fd5b506004800160006101000a81548173ffffffffffffffffffffffffffffffffffffffff021916908373ffffffffffffffffffffffffffffffffffffffff160217905550735c69bee701ef814a2b6a3edd4b1652cb9cc5aa6f600460020160006101000a81548173ffffffffffffffffffffffffffffffffffffffff021916908373ffffffffffffffffffffffffffffffffffffffff160217905550736b175474e89094c44da98b954eedeac495271d0f600460060160006101000a81548173ffffffffffffffffffffffffffffffffffffffff021916908373ffffffffffffffffffffffffffffffffffffffff1602179055505050620004de565b600073ffffffffffffffffffffffffffffffffffffffff16600260009054906101000a900473ffffffffffffffffffffffffffffffffffffffff1673ffffffffffffffffffffffffffffffffffffffff1614158015620002a05750600260009054906101000a900473ffffffffffffffffffffffffffffffffffffffff1673ffffffffffffffffffffffffffffffffffffffff163373ffffffffffffffffffffffffffffffffffffffff1614155b8015620002b95750620002b86200038a60201b60201c565b5b156200032257600160009054906101000a900473ffffffffffffffffffffffffffffffffffffffff16336040517fc21bbf9d00000000000000000000000000000000000000000000000000000000815260040162000319929190620004b1565b60405180910390fd5b80600260006101000a81548173ffffffffffffffffffffffffffffffffffffffff021916908373ffffffffffffffffffffffffffffffffffffffff1602179055506000806101000a81549073ffffffffffffffffffffffffffffffffffffffff021916905550565b60008073ffffffffffffffffffffffffffffffffffffffff16600160009054906101000a900473ffffffffffffffffffffffffffffffffffffffff1673ffffffffffffffffffffffffffffffffffffffff1614905090565b605c8062002fce83390190565b600080fd5b600073ffffffffffffffffffffffffffffffffffffffff82169050919050565b60006200042182620003f4565b9050919050565b620004338162000414565b81146200043f57600080fd5b50565b600081519050620004538162000428565b92915050565b60008060408385031215620004735762000472620003ef565b5b6000620004838582860162000442565b9250506020620004968582860162000442565b9150509250929050565b620004ab8162000414565b82525050565b6000604082019050620004c86000830185620004a0565b620004d76020830184620004a0565b9392505050565b612ae080620004ee6000396000f3fe608060405234801561001057600080fd5b50600436106100b45760003560e01c80638b8de715116100715780638b8de7151461018d57806398fabd3a146101a95780639e90f9aa146101c7578063b97dbf59146101e5578063dd77a47514610201578063e73a914c1461021f576100b4565b80631934d041146100b95780633091dde1146100d55780633626339f146100f3578063421e5b48146101235780634eaa7eb2146101535780638772a23a1461016f575b600080fd5b6100d360048036038101906100ce9190612394565b61023b565b005b6100dd61094f565b6040516100ea9190612495565b60405180910390f35b61010d600480360381019061010891906124b0565b610973565b60405161011a91906124ec565b60405180910390f35b61013d60048036038101906101389190612507565b610f93565b60405161014a91906124ec565b60405180910390f35b61016d60048036038101906101689190612547565b611004565b005b6101776111b5565b604051610184919061258f565b60405180910390f35b6101a760048036038101906101a291906125aa565b61120d565b005b6101b161172d565b6040516101be919061260c565b60405180910390f35b6101cf611753565b6040516101dc919061260c565b60405180910390f35b6101ff60048036038101906101fa9190612547565b61177f565b005b610209611800565b604051610216919061260c565b60405180910390f35b61023960048036038101906102349190612547565b611826565b005b610244336119b1565b86600360006101000a81548173ffffffffffffffffffffffffffffffffffffffff021916908373ffffffffffffffffffffffffffffffffffffffff16021790555085600460030160006101000a81548173ffffffffffffffffffffffffffffffffffffffff021916908373ffffffffffffffffffffffffffffffffffffffff16021790555084600460050160006101000a81548173ffffffffffffffffffffffffffffffffffffffff021916908373ffffffffffffffffffffffffffffffffffffffff160217905550606484101561035357836040517f64d7b67000000000000000000000000000000000000000000000000000000000815260040161034a91906124ec565b60405180910390fd5b8360046000018190555060008360ff161461036e5782610370565b825b600460030160146101000a81548160ff021916908360ff16021790555060638260ff1611156103d657816040517f6425d37b0000000000000000000000000000000000000000000000000000000081526004016103cd9190612636565b60405180910390fd5b81600460030160156101000a81548160ff021916908360ff16021790555060008190508073ffffffffffffffffffffffffffffffffffffffff1663c45a01556040518163ffffffff1660e01b81526004016020604051808303816000875af1158015610446573d6000803e3d6000fd5b505050506040513d601f19601f8201168201806040525081019061046a919061268f565b600460020160006101000a81548173ffffffffffffffffffffffffffffffffffffffff021916908373ffffffffffffffffffffffffffffffffffffffff1602179055506000600460020160009054906101000a900473ffffffffffffffffffffffffffffffffffffffff1673ffffffffffffffffffffffffffffffffffffffff1663e6a43905888a6040518363ffffffff1660e01b815260040161050f9291906126bc565b602060405180830381865afa15801561052c573d6000803e3d6000fd5b505050506040513d601f19601f8201168201806040525081019061055091906126fa565b90506000600460020160009054906101000a900473ffffffffffffffffffffffffffffffffffffffff1673ffffffffffffffffffffffffffffffffffffffff1663e6a43905600460060160009054906101000a900473ffffffffffffffffffffffffffffffffffffffff168b6040518363ffffffff1660e01b81526004016105d99291906126bc565b602060405180830381865afa1580156105f6573d6000803e3d6000fd5b505050506040513d601f19601f8201168201806040525081019061061a91906126fa565b90506000600460020160009054906101000a900473ffffffffffffffffffffffffffffffffffffffff1673ffffffffffffffffffffffffffffffffffffffff1663e6a439058b856040518363ffffffff1660e01b815260040161067e9291906126bc565b602060405180830381865afa15801561069b573d6000803e3d6000fd5b505050506040513d601f19601f820116820180604052508101906106bf91906126fa565b905060008073ffffffffffffffffffffffffffffffffffffffff168473ffffffffffffffffffffffffffffffffffffffff16148061072857508073ffffffffffffffffffffffffffffffffffffffff168373ffffffffffffffffffffffffffffffffffffffff16145b8061075e57508073ffffffffffffffffffffffffffffffffffffffff168273ffffffffffffffffffffffffffffffffffffffff16145b156107a4578383836040517f4a08888c00000000000000000000000000000000000000000000000000000000815260040161079b93929190612727565b60405180910390fd5b60405180608001604052808573ffffffffffffffffffffffffffffffffffffffff1681526020018473ffffffffffffffffffffffffffffffffffffffff1681526020018373ffffffffffffffffffffffffffffffffffffffff1681526020018673ffffffffffffffffffffffffffffffffffffffff16815250600460070160008201518160000160006101000a81548173ffffffffffffffffffffffffffffffffffffffff021916908373ffffffffffffffffffffffffffffffffffffffff16021790555060208201518160010160006101000a81548173ffffffffffffffffffffffffffffffffffffffff021916908373ffffffffffffffffffffffffffffffffffffffff16021790555060408201518160020160006101000a81548173ffffffffffffffffffffffffffffffffffffffff021916908373ffffffffffffffffffffffffffffffffffffffff16021790555060608201518160030160006101000a81548173ffffffffffffffffffffffffffffffffffffffff021916908373ffffffffffffffffffffffffffffffffffffffff160217905550905050505050505050505050505050565b60008054906101000a900473ffffffffffffffffffffffffffffffffffffffff1681565b6000600360009054906101000a900473ffffffffffffffffffffffffffffffffffffffff1673ffffffffffffffffffffffffffffffffffffffff163373ffffffffffffffffffffffffffffffffffffffff1614610a2b5733600360009054906101000a900473ffffffffffffffffffffffffffffffffffffffff166040517fb6ee3de0000000000000000000000000000000000000000000000000000000008152600401610a229291906126bc565b60405180910390fd5b610a33611aac565b6000610a3d611e2b565b905060006064606285610a50919061278d565b610a5a9190612816565b90506000826060015182610a6e9190612847565b905060006305f5e1008460a0015183610a87919061278d565b610a919190612816565b90506000600460070160000160009054906101000a900473ffffffffffffffffffffffffffffffffffffffff1690508185608001511015610d515760006064600460030160159054906101000a900460ff166064610aef919061289d565b60ff16876080015185610b0291906128d1565b610b0c919061278d565b610b169190612816565b905060008114610b265780610b37565b856080015183610b3691906128d1565b5b9050600460050160009054906101000a900473ffffffffffffffffffffffffffffffffffffffff1673ffffffffffffffffffffffffffffffffffffffff166340c10f1983836040518363ffffffff1660e01b8152600401610b99929190612905565b6020604051808303816000875af1158015610bb8573d6000803e3d6000fd5b505050506040513d601f19601f82011682018060405250810190610bdc919061295a565b50600460030160009054906101000a900473ffffffffffffffffffffffffffffffffffffffff1673ffffffffffffffffffffffffffffffffffffffff1663a9059cbb83876040518363ffffffff1660e01b8152600401610c3d929190612905565b6020604051808303816000875af1158015610c5c573d6000803e3d6000fd5b505050506040513d601f19601f82011682018060405250810190610c80919061295a565b50600460070160000160009054906101000a900473ffffffffffffffffffffffffffffffffffffffff1673ffffffffffffffffffffffffffffffffffffffff16636a6278426004800160009054906101000a900473ffffffffffffffffffffffffffffffffffffffff166040518263ffffffff1660e01b8152600401610d06919061260c565b6020604051808303816000875af1158015610d25573d6000803e3d6000fd5b505050506040513d601f19601f82011682018060405250810190610d49919061299c565b965050610f89565b600085604001518660800151610d679190612816565b9050600460050160009054906101000a900473ffffffffffffffffffffffffffffffffffffffff1673ffffffffffffffffffffffffffffffffffffffff166340c10f1983600284610db89190612847565b6040518363ffffffff1660e01b8152600401610dd5929190612905565b6020604051808303816000875af1158015610df4573d6000803e3d6000fd5b505050506040513d601f19601f82011682018060405250810190610e18919061295a565b50600460030160009054906101000a900473ffffffffffffffffffffffffffffffffffffffff1673ffffffffffffffffffffffffffffffffffffffff1663a9059cbb83876040518363ffffffff1660e01b8152600401610e79929190612905565b6020604051808303816000875af1158015610e98573d6000803e3d6000fd5b505050506040513d601f19601f82011682018060405250810190610ebc919061295a565b50600460070160000160009054906101000a900473ffffffffffffffffffffffffffffffffffffffff1673ffffffffffffffffffffffffffffffffffffffff16636a6278426004800160009054906101000a900473ffffffffffffffffffffffffffffffffffffffff166040518263ffffffff1660e01b8152600401610f42919061260c565b6020604051808303816000875af1158015610f61573d6000803e3d6000fd5b505050506040513d601f19601f82011682018060405250810190610f85919061299c565b9650505b5050505050919050565b6000808203610fce576040517f2c0b910600000000000000000000000000000000000000000000000000000000815260040160405180910390fd5b60006127108385610fdf919061278d565b610fe99190612816565b90506301e1338081610ffb9190612816565b91505092915050565b600160009054906101000a900473ffffffffffffffffffffffffffffffffffffffff1673ffffffffffffffffffffffffffffffffffffffff163373ffffffffffffffffffffffffffffffffffffffff16146110ba57600160009054906101000a900473ffffffffffffffffffffffffffffffffffffffff16336040517fc21bbf9d0000000000000000000000000000000000000000000000000000000081526004016110b19291906126bc565b60405180910390fd5b600260009054906101000a900473ffffffffffffffffffffffffffffffffffffffff1673ffffffffffffffffffffffffffffffffffffffff168173ffffffffffffffffffffffffffffffffffffffff16146111705780600260009054906101000a900473ffffffffffffffffffffffffffffffffffffffff166040517f3f0e21330000000000000000000000000000000000000000000000000000000081526004016111679291906126bc565b60405180910390fd5b6000600160006101000a81548173ffffffffffffffffffffffffffffffffffffffff021916908373ffffffffffffffffffffffffffffffffffffffff16021790555050565b60008073ffffffffffffffffffffffffffffffffffffffff16600160009054906101000a900473ffffffffffffffffffffffffffffffffffffffff1673ffffffffffffffffffffffffffffffffffffffff1614905090565b6000600460020160009054906101000a900473ffffffffffffffffffffffffffffffffffffffff1673ffffffffffffffffffffffffffffffffffffffff1663e6a4390585600460050160009054906101000a900473ffffffffffffffffffffffffffffffffffffffff166040518363ffffffff1660e01b81526004016112949291906126bc565b602060405180830381865afa1580156112b1573d6000803e3d6000fd5b505050506040513d601f19601f820116820180604052508101906112d591906126fa565b90506000600460050160009054906101000a900473ffffffffffffffffffffffffffffffffffffffff1673ffffffffffffffffffffffffffffffffffffffff166370a08231836040518263ffffffff1660e01b8152600401611337919061260c565b602060405180830381865afa158015611354573d6000803e3d6000fd5b505050506040513d601f19601f82011682018060405250810190611378919061299c565b905060008573ffffffffffffffffffffffffffffffffffffffff166370a08231846040518263ffffffff1660e01b81526004016113b5919061260c565b602060405180830381865afa1580156113d2573d6000803e3d6000fd5b505050506040513d601f19601f820116820180604052508101906113f6919061299c565b90506000611405868385612234565b90506000600460050160009054906101000a900473ffffffffffffffffffffffffffffffffffffffff1673ffffffffffffffffffffffffffffffffffffffff168873ffffffffffffffffffffffffffffffffffffffff1610611467578161146a565b60005b90506000600460050160009054906101000a900473ffffffffffffffffffffffffffffffffffffffff1673ffffffffffffffffffffffffffffffffffffffff168973ffffffffffffffffffffffffffffffffffffffff16106114cd5760006114cf565b825b90508873ffffffffffffffffffffffffffffffffffffffff1663a9059cbb878a6040518363ffffffff1660e01b815260040161150c929190612905565b6020604051808303816000875af115801561152b573d6000803e3d6000fd5b505050506040513d601f19601f8201168201806040525081019061154f919061295a565b508573ffffffffffffffffffffffffffffffffffffffff1663022c0d9f8383306040518463ffffffff1660e01b815260040161158d93929190612a00565b600060405180830381600087803b1580156115a757600080fd5b505af11580156115bb573d6000803e3d6000fd5b5050505060006064846115ce9190612816565b9050600460050160009054906101000a900473ffffffffffffffffffffffffffffffffffffffff1673ffffffffffffffffffffffffffffffffffffffff1663a9059cbb89836040518363ffffffff1660e01b8152600401611630929190612905565b6020604051808303816000875af115801561164f573d6000803e3d6000fd5b505050506040513d601f19601f82011682018060405250810190611673919061295a565b50600460050160009054906101000a900473ffffffffffffffffffffffffffffffffffffffff1673ffffffffffffffffffffffffffffffffffffffff166342966c6882866116c191906128d1565b6040518263ffffffff1660e01b81526004016116dd91906124ec565b6020604051808303816000875af11580156116fc573d6000803e3d6000fd5b505050506040513d601f19601f82011682018060405250810190611720919061295a565b5050505050505050505050565b600260009054906101000a900473ffffffffffffffffffffffffffffffffffffffff1681565b60006004800160009054906101000a900473ffffffffffffffffffffffffffffffffffffffff16905090565b600146036117b9576040517f27d5b07900000000000000000000000000000000000000000000000000000000815260040160405180910390fd5b80600460060160006101000a81548173ffffffffffffffffffffffffffffffffffffffff021916908373ffffffffffffffffffffffffffffffffffffffff16021790555050565b600160009054906101000a900473ffffffffffffffffffffffffffffffffffffffff1681565b600073ffffffffffffffffffffffffffffffffffffffff16600260009054906101000a900473ffffffffffffffffffffffffffffffffffffffff1673ffffffffffffffffffffffffffffffffffffffff16141580156118d35750600260009054906101000a900473ffffffffffffffffffffffffffffffffffffffff1673ffffffffffffffffffffffffffffffffffffffff163373ffffffffffffffffffffffffffffffffffffffff1614155b80156118e357506118e26111b5565b5b1561194957600160009054906101000a900473ffffffffffffffffffffffffffffffffffffffff16336040517fc21bbf9d0000000000000000000000000000000000000000000000000000000081526004016119409291906126bc565b60405180910390fd5b80600260006101000a81548173ffffffffffffffffffffffffffffffffffffffff021916908373ffffffffffffffffffffffffffffffffffffffff1602179055506000806101000a81549073ffffffffffffffffffffffffffffffffffffffff021916905550565b6119b96111b5565b8015611a5e5750600260009054906101000a900473ffffffffffffffffffffffffffffffffffffffff1673ffffffffffffffffffffffffffffffffffffffff1663b7ebc23b826040518263ffffffff1660e01b8152600401611a1b919061260c565b602060405180830381865afa158015611a38573d6000803e3d6000fd5b505050506040513d601f19601f82011682018060405250810190611a5c919061295a565b155b15611aa957611a6b6111b5565b816040517f64218e39000000000000000000000000000000000000000000000000000000008152600401611aa0929190612a4a565b60405180910390fd5b50565b600060046007016040518060800160405290816000820160009054906101000a900473ffffffffffffffffffffffffffffffffffffffff1673ffffffffffffffffffffffffffffffffffffffff1673ffffffffffffffffffffffffffffffffffffffff1681526020016001820160009054906101000a900473ffffffffffffffffffffffffffffffffffffffff1673ffffffffffffffffffffffffffffffffffffffff1673ffffffffffffffffffffffffffffffffffffffff1681526020016002820160009054906101000a900473ffffffffffffffffffffffffffffffffffffffff1673ffffffffffffffffffffffffffffffffffffffff1673ffffffffffffffffffffffffffffffffffffffff1681526020016003820160009054906101000a900473ffffffffffffffffffffffffffffffffffffffff1673ffffffffffffffffffffffffffffffffffffffff1673ffffffffffffffffffffffffffffffffffffffff16815250509050806060015173ffffffffffffffffffffffffffffffffffffffff1663c640752d600460030160009054906101000a900473ffffffffffffffffffffffffffffffffffffffff16600460050160009054906101000a900473ffffffffffffffffffffffffffffffffffffffff166040518363ffffffff1660e01b8152600401611ca19291906126bc565b600060405180830381600087803b158015611cbb57600080fd5b505af1158015611ccf573d6000803e3d6000fd5b50505050806060015173ffffffffffffffffffffffffffffffffffffffff1663c640752d600460030160009054906101000a900473ffffffffffffffffffffffffffffffffffffffff16600460060160009054906101000a900473ffffffffffffffffffffffffffffffffffffffff166040518363ffffffff1660e01b8152600401611d5c9291906126bc565b600060405180830381600087803b158015611d7657600080fd5b505af1158015611d8a573d6000803e3d6000fd5b50505050806060015173ffffffffffffffffffffffffffffffffffffffff1663c640752d600460030160009054906101000a900473ffffffffffffffffffffffffffffffffffffffff1683600001516040518363ffffffff1660e01b8152600401611df69291906126bc565b600060405180830381600087803b158015611e1057600080fd5b505af1158015611e24573d6000803e3d6000fd5b5050505050565b611e3361228c565b600460070160030160009054906101000a900473ffffffffffffffffffffffffffffffffffffffff1673ffffffffffffffffffffffffffffffffffffffff1663636cfa0c600460030160009054906101000a900473ffffffffffffffffffffffffffffffffffffffff16600460050160009054906101000a900473ffffffffffffffffffffffffffffffffffffffff166305f5e1006040518463ffffffff1660e01b8152600401611ee693929190612a73565b602060405180830381865afa158015611f03573d6000803e3d6000fd5b505050506040513d601f19601f82011682018060405250810190611f27919061299c565b816000018181525050600460070160030160009054906101000a900473ffffffffffffffffffffffffffffffffffffffff1673ffffffffffffffffffffffffffffffffffffffff1663636cfa0c600460070160000160009054906101000a900473ffffffffffffffffffffffffffffffffffffffff16600460030160009054906101000a900473ffffffffffffffffffffffffffffffffffffffff166305f5e1006040518463ffffffff1660e01b8152600401611fe693929190612a73565b602060405180830381865afa158015612003573d6000803e3d6000fd5b505050506040513d601f19601f82011682018060405250810190612027919061299c565b816020018181525050600460070160000160009054906101000a900473ffffffffffffffffffffffffffffffffffffffff1673ffffffffffffffffffffffffffffffffffffffff166318160ddd6040518163ffffffff1660e01b8152600401602060405180830381865afa1580156120a3573d6000803e3d6000fd5b505050506040513d601f19601f820116820180604052508101906120c7919061299c565b816040018181525050600460070160030160009054906101000a900473ffffffffffffffffffffffffffffffffffffffff1673ffffffffffffffffffffffffffffffffffffffff1663636cfa0c600460030160009054906101000a900473ffffffffffffffffffffffffffffffffffffffff16600460060160009054906101000a900473ffffffffffffffffffffffffffffffffffffffff166305f5e1006040518463ffffffff1660e01b815260040161218393929190612a73565b602060405180830381865afa1580156121a0573d6000803e3d6000fd5b505050506040513d601f19601f820116820180604052508101906121c4919061299c565b8160a00181815250506305f5e10060026121de919061278d565b816040015182602001516121f2919061278d565b6121fc9190612816565b8160600181815250506305f5e1008160000151826060015161221e919061278d565b6122289190612816565b81608001818152505090565b6000806103e585612245919061278d565b905060008382612255919061278d565b90506000826103e887612268919061278d565b6122729190612847565b905080826122809190612816565b93505050509392505050565b6040518060c001604052806000815260200160008152602001600081526020016000815260200160008152602001600081525090565b600080fd5b600073ffffffffffffffffffffffffffffffffffffffff82169050919050565b60006122f2826122c7565b9050919050565b612302816122e7565b811461230d57600080fd5b50565b60008135905061231f816122f9565b92915050565b6000819050919050565b61233881612325565b811461234357600080fd5b50565b6000813590506123558161232f565b92915050565b600060ff82169050919050565b6123718161235b565b811461237c57600080fd5b50565b60008135905061238e81612368565b92915050565b600080600080600080600060e0888a0312156123b3576123b26122c2565b5b60006123c18a828b01612310565b97505060206123d28a828b01612310565b96505060406123e38a828b01612310565b95505060606123f48a828b01612346565b94505060806124058a828b0161237f565b93505060a06124168a828b0161237f565b92505060c06124278a828b01612310565b91505092959891949750929550565b6000819050919050565b600061245b612456612451846122c7565b612436565b6122c7565b9050919050565b600061246d82612440565b9050919050565b600061247f82612462565b9050919050565b61248f81612474565b82525050565b60006020820190506124aa6000830184612486565b92915050565b6000602082840312156124c6576124c56122c2565b5b60006124d484828501612346565b91505092915050565b6124e681612325565b82525050565b600060208201905061250160008301846124dd565b92915050565b6000806040838503121561251e5761251d6122c2565b5b600061252c85828601612346565b925050602061253d85828601612346565b9150509250929050565b60006020828403121561255d5761255c6122c2565b5b600061256b84828501612310565b91505092915050565b60008115159050919050565b61258981612574565b82525050565b60006020820190506125a46000830184612580565b92915050565b6000806000606084860312156125c3576125c26122c2565b5b60006125d186828701612310565b93505060206125e286828701612346565b92505060406125f386828701612310565b9150509250925092565b612606816122e7565b82525050565b600060208201905061262160008301846125fd565b92915050565b6126308161235b565b82525050565b600060208201905061264b6000830184612627565b92915050565b600061265c826122e7565b9050919050565b61266c81612651565b811461267757600080fd5b50565b60008151905061268981612663565b92915050565b6000602082840312156126a5576126a46122c2565b5b60006126b38482850161267a565b91505092915050565b60006040820190506126d160008301856125fd565b6126de60208301846125fd565b9392505050565b6000815190506126f4816122f9565b92915050565b6000602082840312156127105761270f6122c2565b5b600061271e848285016126e5565b91505092915050565b600060608201905061273c60008301866125fd565b61274960208301856125fd565b61275660408301846125fd565b949350505050565b7f4e487b7100000000000000000000000000000000000000000000000000000000600052601160045260246000fd5b600061279882612325565b91506127a383612325565b9250817fffffffffffffffffffffffffffffffffffffffffffffffffffffffffffffffff04831182151516156127dc576127db61275e565b5b828202905092915050565b7f4e487b7100000000000000000000000000000000000000000000000000000000600052601260045260246000fd5b600061282182612325565b915061282c83612325565b92508261283c5761283b6127e7565b5b828204905092915050565b600061285282612325565b915061285d83612325565b9250827fffffffffffffffffffffffffffffffffffffffffffffffffffffffffffffffff038211156128925761289161275e565b5b828201905092915050565b60006128a88261235b565b91506128b38361235b565b9250828210156128c6576128c561275e565b5b828203905092915050565b60006128dc82612325565b91506128e783612325565b9250828210156128fa576128f961275e565b5b828203905092915050565b600060408201905061291a60008301856125fd565b61292760208301846124dd565b9392505050565b61293781612574565b811461294257600080fd5b50565b6000815190506129548161292e565b92915050565b6000602082840312156129705761296f6122c2565b5b600061297e84828501612945565b91505092915050565b6000815190506129968161232f565b92915050565b6000602082840312156129b2576129b16122c2565b5b60006129c084828501612987565b91505092915050565b600082825260208201905092915050565b50565b60006129ea6000836129c9565b91506129f5826129da565b600082019050919050565b6000608082019050612a1560008301866124dd565b612a2260208301856124dd565b612a2f60408301846125fd565b8181036060830152612a40816129dd565b9050949350505050565b6000604082019050612a5f6000830185612580565b612a6c60208301846125fd565b9392505050565b6000606082019050612a8860008301866125fd565b612a9560208301856125fd565b612aa260408301846124dd565b94935050505056fea2646970667358221220d00d709067f2fdce339a499526473e0dc81c174c056466ceffa82ade8e0130d964736f6c634300080d00336080604052348015600f57600080fd5b50603f80601d6000396000f3fe6080604052600080fdfea2646970667358221220f03ba493c00d9eced502359264f270c015cca3a7def0db40c7387642f9081f4d64736f6c634300080d0033",
  "linkReferences": {},
  "deployedLinkReferences": {}
}