{
  "_format": "hh-sol-artifact-1",
  "contractName": "UniswapHelper",
  "sourceName": "contracts/UniswapHelper.sol",
  "abi": [
    {
      "inputs": [
        {
          "internalType": "address",
          "name": "_limbo",
          "type": "address"
        },
        {
          "internalType": "address",
          "name": "limboDAO",
          "type": "address"
        }
      ],
      "stateMutability": "nonpayable",
      "type": "constructor"
    },
    {
      "inputs": [
        {
          "internalType": "address",
          "name": "configurationLord",
          "type": "address"
        },
        {
          "internalType": "address",
          "name": "msg_sender",
          "type": "address"
        }
      ],
      "name": "AccessDenied",
      "type": "error"
    },
    {
      "inputs": [
        {
          "internalType": "address",
          "name": "expectedDAO",
          "type": "address"
        },
        {
          "internalType": "address",
          "name": "actualDAO",
          "type": "address"
        }
      ],
      "name": "BackrunDetected",
      "type": "error"
    },
    {
      "inputs": [],
      "name": "DaiThresholdMustBePositive",
      "type": "error"
    },
    {
      "inputs": [
        {
          "internalType": "bool",
          "name": "configured",
          "type": "bool"
        },
        {
          "internalType": "address",
          "name": "proposal",
          "type": "address"
        }
      ],
      "name": "GovernanceActionFailed",
      "type": "error"
    },
    {
      "inputs": [],
      "name": "NotOnMainnet",
      "type": "error"
    },
    {
      "inputs": [
        {
          "internalType": "address",
          "name": "msgSender",
          "type": "address"
        },
        {
          "internalType": "address",
          "name": "limbo",
          "type": "address"
        }
      ],
      "name": "OnlyLimbo",
      "type": "error"
    },
    {
      "inputs": [
        {
          "internalType": "address",
          "name": "fln_scx",
          "type": "address"
        },
        {
          "internalType": "address",
          "name": "dai_scx",
          "type": "address"
        },
        {
          "internalType": "address",
          "name": "scx__fln_scx",
          "type": "address"
        }
      ],
      "name": "OracleLPsNotSet",
      "type": "error"
    },
    {
      "inputs": [
        {
          "internalType": "uint8",
          "name": "overshoot",
          "type": "uint8"
        }
      ],
      "name": "PriceOvershootTooHigh",
      "type": "error"
    },
    {
      "inputs": [],
      "name": "DAO",
      "outputs": [
        {
          "internalType": "address",
          "name": "",
          "type": "address"
        }
      ],
      "stateMutability": "view",
      "type": "function"
    },
    {
      "inputs": [],
      "name": "blackHole",
      "outputs": [
        {
          "internalType": "address",
          "name": "",
          "type": "address"
        }
      ],
      "stateMutability": "view",
      "type": "function"
    },
    {
      "inputs": [
        {
          "internalType": "address",
          "name": "inputToken",
          "type": "address"
        },
        {
          "internalType": "uint256",
          "name": "amount",
          "type": "uint256"
        },
        {
          "internalType": "address",
          "name": "recipient",
          "type": "address"
        }
      ],
      "name": "buyFlanAndBurn",
      "outputs": [],
      "stateMutability": "nonpayable",
      "type": "function"
    },
    {
      "inputs": [
        {
          "internalType": "address",
          "name": "_limbo",
          "type": "address"
        },
        {
          "internalType": "address",
          "name": "behodler",
          "type": "address"
        },
        {
          "internalType": "address",
          "name": "flan",
          "type": "address"
        },
        {
          "internalType": "uint8",
          "name": "precision",
          "type": "uint8"
        },
        {
          "internalType": "uint8",
          "name": "priceBoostOvershoot",
          "type": "uint8"
        },
        {
          "internalType": "address",
          "name": "oracle",
          "type": "address"
        }
      ],
      "name": "configure",
      "outputs": [],
      "stateMutability": "nonpayable",
      "type": "function"
    },
    {
      "inputs": [],
      "name": "configured",
      "outputs": [
        {
          "internalType": "bool",
          "name": "",
          "type": "bool"
        }
      ],
      "stateMutability": "view",
      "type": "function"
    },
    {
      "inputs": [
        {
          "internalType": "address",
          "name": "expectedDAO",
          "type": "address"
        }
      ],
      "name": "endConfiguration",
      "outputs": [],
      "stateMutability": "nonpayable",
      "type": "function"
    },
    {
      "inputs": [],
      "name": "governer",
      "outputs": [
        {
          "internalType": "contract FlashGovernanceArbiterLike",
          "name": "",
          "type": "address"
        }
      ],
      "stateMutability": "view",
      "type": "function"
    },
    {
      "inputs": [
        {
          "internalType": "uint256",
          "name": "minAPY",
          "type": "uint256"
        },
        {
          "internalType": "uint256",
          "name": "daiThreshold",
          "type": "uint256"
        }
      ],
      "name": "minAPY_to_FPS",
      "outputs": [
        {
          "internalType": "uint256",
          "name": "fps",
          "type": "uint256"
        }
      ],
      "stateMutability": "pure",
      "type": "function"
    },
    {
      "inputs": [
        {
          "internalType": "address",
          "name": "dai",
          "type": "address"
        }
      ],
      "name": "setDAI",
      "outputs": [],
      "stateMutability": "nonpayable",
      "type": "function"
    },
    {
      "inputs": [
        {
          "internalType": "address",
          "name": "dao",
          "type": "address"
        }
      ],
      "name": "setDAO",
      "outputs": [],
      "stateMutability": "nonpayable",
      "type": "function"
    },
    {
      "inputs": [
        {
          "internalType": "uint256",
          "name": "mintedSCX",
          "type": "uint256"
        }
      ],
      "name": "stabilizeFlan",
      "outputs": [
        {
          "internalType": "uint256",
          "name": "lpMinted",
          "type": "uint256"
        }
      ],
      "stateMutability": "nonpayable",
      "type": "function"
    },
    {
      "inputs": [],
      "name": "temporaryConfigurationLord",
      "outputs": [
        {
          "internalType": "address",
          "name": "",
          "type": "address"
        }
      ],
      "stateMutability": "view",
      "type": "function"
    }
  ],
  "bytecode": "0x60806040523480156200001157600080fd5b5060405162002fbd38038062002fbd83398181016040528101906200003791906200045a565b806200004981620001f360201b60201c565b33600160006101000a81548173ffffffffffffffffffffffffffffffffffffffff021916908373ffffffffffffffffffffffffffffffffffffffff1602179055505081600360006101000a81548173ffffffffffffffffffffffffffffffffffffffff021916908373ffffffffffffffffffffffffffffffffffffffff160217905550604051620000da90620003e3565b604051809103906000f080158015620000f7573d6000803e3d6000fd5b50600460030160006101000a81548173ffffffffffffffffffffffffffffffffffffffff021916908373ffffffffffffffffffffffffffffffffffffffff160217905550735c69bee701ef814a2b6a3edd4b1652cb9cc5aa6f600460010160006101000a81548173ffffffffffffffffffffffffffffffffffffffff021916908373ffffffffffffffffffffffffffffffffffffffff160217905550736b175474e89094c44da98b954eedeac495271d0f600460050160006101000a81548173ffffffffffffffffffffffffffffffffffffffff021916908373ffffffffffffffffffffffffffffffffffffffff1602179055505050620004df565b600073ffffffffffffffffffffffffffffffffffffffff16600260009054906101000a900473ffffffffffffffffffffffffffffffffffffffff1673ffffffffffffffffffffffffffffffffffffffff1614158015620002a15750600260009054906101000a900473ffffffffffffffffffffffffffffffffffffffff1673ffffffffffffffffffffffffffffffffffffffff163373ffffffffffffffffffffffffffffffffffffffff1614155b8015620002ba5750620002b96200038b60201b60201c565b5b156200032357600160009054906101000a900473ffffffffffffffffffffffffffffffffffffffff16336040517fc21bbf9d0000000000000000000000000000000000000000000000000000000081526004016200031a929190620004b2565b60405180910390fd5b80600260006101000a81548173ffffffffffffffffffffffffffffffffffffffff021916908373ffffffffffffffffffffffffffffffffffffffff1602179055506000806101000a81549073ffffffffffffffffffffffffffffffffffffffff021916905550565b60008073ffffffffffffffffffffffffffffffffffffffff16600160009054906101000a900473ffffffffffffffffffffffffffffffffffffffff1673ffffffffffffffffffffffffffffffffffffffff1614905090565b605c8062002f6183390190565b600080fd5b600073ffffffffffffffffffffffffffffffffffffffff82169050919050565b60006200042282620003f5565b9050919050565b620004348162000415565b81146200044057600080fd5b50565b600081519050620004548162000429565b92915050565b60008060408385031215620004745762000473620003f0565b5b6000620004848582860162000443565b9250506020620004978582860162000443565b9150509250929050565b620004ac8162000415565b82525050565b6000604082019050620004c96000830185620004a1565b620004d86020830184620004a1565b9392505050565b612a7280620004ef6000396000f3fe608060405234801561001057600080fd5b50600436106100b45760003560e01c806398fabd3a1161007157806398fabd3a1461018d5780639e90f9aa146101ab578063b97dbf59146101c9578063cdf57d46146101e5578063dd77a47514610201578063e73a914c1461021f576100b4565b80633091dde1146100b95780633626339f146100d7578063421e5b48146101075780634eaa7eb2146101375780638772a23a146101535780638b8de71514610171575b600080fd5b6100c161023b565b6040516100ce91906122e8565b60405180910390f35b6100f160048036038101906100ec919061233e565b61025f565b6040516100fe919061237a565b60405180910390f35b610121600480360381019061011c9190612395565b61087f565b60405161012e919061237a565b60405180910390f35b610151600480360381019061014c9190612413565b6108f0565b005b61015b610aa1565b604051610168919061245b565b60405180910390f35b61018b60048036038101906101869190612476565b610af9565b005b610195611013565b6040516101a291906124d8565b60405180910390f35b6101b3611039565b6040516101c091906124d8565b60405180910390f35b6101e360048036038101906101de9190612413565b611066565b005b6101ff60048036038101906101fa919061252c565b6110e7565b005b6102096117a9565b60405161021691906124d8565b60405180910390f35b61023960048036038101906102349190612413565b6117cf565b005b60008054906101000a900473ffffffffffffffffffffffffffffffffffffffff1681565b6000600360009054906101000a900473ffffffffffffffffffffffffffffffffffffffff1673ffffffffffffffffffffffffffffffffffffffff163373ffffffffffffffffffffffffffffffffffffffff16146103175733600360009054906101000a900473ffffffffffffffffffffffffffffffffffffffff166040517fb6ee3de000000000000000000000000000000000000000000000000000000000815260040161030e9291906125b9565b60405180910390fd5b61031f61195a565b6000610329611cd8565b90506000606460628561033c9190612611565b610346919061269a565b9050600082606001518261035a91906126cb565b905060006305f5e1008460a00151836103739190612611565b61037d919061269a565b90506000600460060160000160009054906101000a900473ffffffffffffffffffffffffffffffffffffffff169050818560800151101561063d5760006064600460020160159054906101000a900460ff1660646103db9190612721565b60ff168760800151856103ee9190612755565b6103f89190612611565b610402919061269a565b9050600081146104125780610423565b8560800151836104229190612755565b5b90506004800160009054906101000a900473ffffffffffffffffffffffffffffffffffffffff1673ffffffffffffffffffffffffffffffffffffffff166340c10f1983836040518363ffffffff1660e01b8152600401610484929190612789565b6020604051808303816000875af11580156104a3573d6000803e3d6000fd5b505050506040513d601f19601f820116820180604052508101906104c791906127de565b50600460020160009054906101000a900473ffffffffffffffffffffffffffffffffffffffff1673ffffffffffffffffffffffffffffffffffffffff1663a9059cbb83876040518363ffffffff1660e01b8152600401610528929190612789565b6020604051808303816000875af1158015610547573d6000803e3d6000fd5b505050506040513d601f19601f8201168201806040525081019061056b91906127de565b50600460060160000160009054906101000a900473ffffffffffffffffffffffffffffffffffffffff1673ffffffffffffffffffffffffffffffffffffffff16636a627842600460030160009054906101000a900473ffffffffffffffffffffffffffffffffffffffff166040518263ffffffff1660e01b81526004016105f291906124d8565b6020604051808303816000875af1158015610611573d6000803e3d6000fd5b505050506040513d601f19601f820116820180604052508101906106359190612820565b965050610875565b600085604001518660800151610653919061269a565b90506004800160009054906101000a900473ffffffffffffffffffffffffffffffffffffffff1673ffffffffffffffffffffffffffffffffffffffff166340c10f19836002846106a391906126cb565b6040518363ffffffff1660e01b81526004016106c0929190612789565b6020604051808303816000875af11580156106df573d6000803e3d6000fd5b505050506040513d601f19601f8201168201806040525081019061070391906127de565b50600460020160009054906101000a900473ffffffffffffffffffffffffffffffffffffffff1673ffffffffffffffffffffffffffffffffffffffff1663a9059cbb83876040518363ffffffff1660e01b8152600401610764929190612789565b6020604051808303816000875af1158015610783573d6000803e3d6000fd5b505050506040513d601f19601f820116820180604052508101906107a791906127de565b50600460060160000160009054906101000a900473ffffffffffffffffffffffffffffffffffffffff1673ffffffffffffffffffffffffffffffffffffffff16636a627842600460030160009054906101000a900473ffffffffffffffffffffffffffffffffffffffff166040518263ffffffff1660e01b815260040161082e91906124d8565b6020604051808303816000875af115801561084d573d6000803e3d6000fd5b505050506040513d601f19601f820116820180604052508101906108719190612820565b9650505b5050505050919050565b60008082036108ba576040517f2c0b910600000000000000000000000000000000000000000000000000000000815260040160405180910390fd5b600061271083856108cb9190612611565b6108d5919061269a565b90506301e13380816108e7919061269a565b91505092915050565b600160009054906101000a900473ffffffffffffffffffffffffffffffffffffffff1673ffffffffffffffffffffffffffffffffffffffff163373ffffffffffffffffffffffffffffffffffffffff16146109a657600160009054906101000a900473ffffffffffffffffffffffffffffffffffffffff16336040517fc21bbf9d00000000000000000000000000000000000000000000000000000000815260040161099d9291906125b9565b60405180910390fd5b600260009054906101000a900473ffffffffffffffffffffffffffffffffffffffff1673ffffffffffffffffffffffffffffffffffffffff168173ffffffffffffffffffffffffffffffffffffffff1614610a5c5780600260009054906101000a900473ffffffffffffffffffffffffffffffffffffffff166040517f3f0e2133000000000000000000000000000000000000000000000000000000008152600401610a539291906125b9565b60405180910390fd5b6000600160006101000a81548173ffffffffffffffffffffffffffffffffffffffff021916908373ffffffffffffffffffffffffffffffffffffffff16021790555050565b60008073ffffffffffffffffffffffffffffffffffffffff16600160009054906101000a900473ffffffffffffffffffffffffffffffffffffffff1673ffffffffffffffffffffffffffffffffffffffff1614905090565b6000600460010160009054906101000a900473ffffffffffffffffffffffffffffffffffffffff1673ffffffffffffffffffffffffffffffffffffffff1663e6a43905856004800160009054906101000a900473ffffffffffffffffffffffffffffffffffffffff166040518363ffffffff1660e01b8152600401610b7f9291906125b9565b602060405180830381865afa158015610b9c573d6000803e3d6000fd5b505050506040513d601f19601f82011682018060405250810190610bc09190612862565b905060006004800160009054906101000a900473ffffffffffffffffffffffffffffffffffffffff1673ffffffffffffffffffffffffffffffffffffffff166370a08231836040518263ffffffff1660e01b8152600401610c2191906124d8565b602060405180830381865afa158015610c3e573d6000803e3d6000fd5b505050506040513d601f19601f82011682018060405250810190610c629190612820565b905060008573ffffffffffffffffffffffffffffffffffffffff166370a08231846040518263ffffffff1660e01b8152600401610c9f91906124d8565b602060405180830381865afa158015610cbc573d6000803e3d6000fd5b505050506040513d601f19601f82011682018060405250810190610ce09190612820565b90506000610cef8683856120e0565b905060006004800160009054906101000a900473ffffffffffffffffffffffffffffffffffffffff1673ffffffffffffffffffffffffffffffffffffffff168873ffffffffffffffffffffffffffffffffffffffff1610610d505781610d53565b60005b905060006004800160009054906101000a900473ffffffffffffffffffffffffffffffffffffffff1673ffffffffffffffffffffffffffffffffffffffff168973ffffffffffffffffffffffffffffffffffffffff1610610db5576000610db7565b825b90508873ffffffffffffffffffffffffffffffffffffffff1663a9059cbb878a6040518363ffffffff1660e01b8152600401610df4929190612789565b6020604051808303816000875af1158015610e13573d6000803e3d6000fd5b505050506040513d601f19601f82011682018060405250810190610e3791906127de565b508573ffffffffffffffffffffffffffffffffffffffff1663022c0d9f8383306040518463ffffffff1660e01b8152600401610e75939291906128c6565b600060405180830381600087803b158015610e8f57600080fd5b505af1158015610ea3573d6000803e3d6000fd5b505050506000606484610eb6919061269a565b90506004800160009054906101000a900473ffffffffffffffffffffffffffffffffffffffff1673ffffffffffffffffffffffffffffffffffffffff1663a9059cbb89836040518363ffffffff1660e01b8152600401610f17929190612789565b6020604051808303816000875af1158015610f36573d6000803e3d6000fd5b505050506040513d601f19601f82011682018060405250810190610f5a91906127de565b506004800160009054906101000a900473ffffffffffffffffffffffffffffffffffffffff1673ffffffffffffffffffffffffffffffffffffffff166342966c688286610fa79190612755565b6040518263ffffffff1660e01b8152600401610fc3919061237a565b6020604051808303816000875af1158015610fe2573d6000803e3d6000fd5b505050506040513d601f19601f8201168201806040525081019061100691906127de565b5050505050505050505050565b600260009054906101000a900473ffffffffffffffffffffffffffffffffffffffff1681565b6000600460030160009054906101000a900473ffffffffffffffffffffffffffffffffffffffff16905090565b600146036110a0576040517f27d5b07900000000000000000000000000000000000000000000000000000000815260040160405180910390fd5b80600460050160006101000a81548173ffffffffffffffffffffffffffffffffffffffff021916908373ffffffffffffffffffffffffffffffffffffffff16021790555050565b6110f033612138565b85600360006101000a81548173ffffffffffffffffffffffffffffffffffffffff021916908373ffffffffffffffffffffffffffffffffffffffff16021790555084600460020160006101000a81548173ffffffffffffffffffffffffffffffffffffffff021916908373ffffffffffffffffffffffffffffffffffffffff160217905550836004800160006101000a81548173ffffffffffffffffffffffffffffffffffffffff021916908373ffffffffffffffffffffffffffffffffffffffff16021790555060008360ff16146111c957826111cb565b825b600460020160146101000a81548160ff021916908360ff16021790555060638260ff16111561123157816040517f6425d37b000000000000000000000000000000000000000000000000000000008152600401611228919061291f565b60405180910390fd5b81600460020160156101000a81548160ff021916908360ff16021790555060008190508073ffffffffffffffffffffffffffffffffffffffff1663c45a01556040518163ffffffff1660e01b81526004016020604051808303816000875af11580156112a1573d6000803e3d6000fd5b505050506040513d601f19601f820116820180604052508101906112c59190612978565b600460010160006101000a81548173ffffffffffffffffffffffffffffffffffffffff021916908373ffffffffffffffffffffffffffffffffffffffff1602179055506000600460010160009054906101000a900473ffffffffffffffffffffffffffffffffffffffff1673ffffffffffffffffffffffffffffffffffffffff1663e6a4390587896040518363ffffffff1660e01b815260040161136a9291906125b9565b602060405180830381865afa158015611387573d6000803e3d6000fd5b505050506040513d601f19601f820116820180604052508101906113ab9190612862565b90506000600460010160009054906101000a900473ffffffffffffffffffffffffffffffffffffffff1673ffffffffffffffffffffffffffffffffffffffff1663e6a43905600460050160009054906101000a900473ffffffffffffffffffffffffffffffffffffffff168a6040518363ffffffff1660e01b81526004016114349291906125b9565b602060405180830381865afa158015611451573d6000803e3d6000fd5b505050506040513d601f19601f820116820180604052508101906114759190612862565b90506000600460010160009054906101000a900473ffffffffffffffffffffffffffffffffffffffff1673ffffffffffffffffffffffffffffffffffffffff1663e6a439058a856040518363ffffffff1660e01b81526004016114d99291906125b9565b602060405180830381865afa1580156114f6573d6000803e3d6000fd5b505050506040513d601f19601f8201168201806040525081019061151a9190612862565b905060008073ffffffffffffffffffffffffffffffffffffffff168473ffffffffffffffffffffffffffffffffffffffff16148061158357508073ffffffffffffffffffffffffffffffffffffffff168373ffffffffffffffffffffffffffffffffffffffff16145b806115b957508073ffffffffffffffffffffffffffffffffffffffff168273ffffffffffffffffffffffffffffffffffffffff16145b156115ff578383836040517f4a08888c0000000000000000000000000000000000000000000000000000000081526004016115f6939291906129a5565b60405180910390fd5b60405180608001604052808573ffffffffffffffffffffffffffffffffffffffff1681526020018473ffffffffffffffffffffffffffffffffffffffff1681526020018373ffffffffffffffffffffffffffffffffffffffff1681526020018673ffffffffffffffffffffffffffffffffffffffff16815250600460060160008201518160000160006101000a81548173ffffffffffffffffffffffffffffffffffffffff021916908373ffffffffffffffffffffffffffffffffffffffff16021790555060208201518160010160006101000a81548173ffffffffffffffffffffffffffffffffffffffff021916908373ffffffffffffffffffffffffffffffffffffffff16021790555060408201518160020160006101000a81548173ffffffffffffffffffffffffffffffffffffffff021916908373ffffffffffffffffffffffffffffffffffffffff16021790555060608201518160030160006101000a81548173ffffffffffffffffffffffffffffffffffffffff021916908373ffffffffffffffffffffffffffffffffffffffff1602179055509050505050505050505050505050565b600160009054906101000a900473ffffffffffffffffffffffffffffffffffffffff1681565b600073ffffffffffffffffffffffffffffffffffffffff16600260009054906101000a900473ffffffffffffffffffffffffffffffffffffffff1673ffffffffffffffffffffffffffffffffffffffff161415801561187c5750600260009054906101000a900473ffffffffffffffffffffffffffffffffffffffff1673ffffffffffffffffffffffffffffffffffffffff163373ffffffffffffffffffffffffffffffffffffffff1614155b801561188c575061188b610aa1565b5b156118f257600160009054906101000a900473ffffffffffffffffffffffffffffffffffffffff16336040517fc21bbf9d0000000000000000000000000000000000000000000000000000000081526004016118e99291906125b9565b60405180910390fd5b80600260006101000a81548173ffffffffffffffffffffffffffffffffffffffff021916908373ffffffffffffffffffffffffffffffffffffffff1602179055506000806101000a81549073ffffffffffffffffffffffffffffffffffffffff021916905550565b600060046006016040518060800160405290816000820160009054906101000a900473ffffffffffffffffffffffffffffffffffffffff1673ffffffffffffffffffffffffffffffffffffffff1673ffffffffffffffffffffffffffffffffffffffff1681526020016001820160009054906101000a900473ffffffffffffffffffffffffffffffffffffffff1673ffffffffffffffffffffffffffffffffffffffff1673ffffffffffffffffffffffffffffffffffffffff1681526020016002820160009054906101000a900473ffffffffffffffffffffffffffffffffffffffff1673ffffffffffffffffffffffffffffffffffffffff1673ffffffffffffffffffffffffffffffffffffffff1681526020016003820160009054906101000a900473ffffffffffffffffffffffffffffffffffffffff1673ffffffffffffffffffffffffffffffffffffffff1673ffffffffffffffffffffffffffffffffffffffff16815250509050806060015173ffffffffffffffffffffffffffffffffffffffff1663c640752d600460020160009054906101000a900473ffffffffffffffffffffffffffffffffffffffff166004800160009054906101000a900473ffffffffffffffffffffffffffffffffffffffff166040518363ffffffff1660e01b8152600401611b4e9291906125b9565b600060405180830381600087803b158015611b6857600080fd5b505af1158015611b7c573d6000803e3d6000fd5b50505050806060015173ffffffffffffffffffffffffffffffffffffffff1663c640752d600460020160009054906101000a900473ffffffffffffffffffffffffffffffffffffffff16600460050160009054906101000a900473ffffffffffffffffffffffffffffffffffffffff166040518363ffffffff1660e01b8152600401611c099291906125b9565b600060405180830381600087803b158015611c2357600080fd5b505af1158015611c37573d6000803e3d6000fd5b50505050806060015173ffffffffffffffffffffffffffffffffffffffff1663c640752d600460020160009054906101000a900473ffffffffffffffffffffffffffffffffffffffff1683600001516040518363ffffffff1660e01b8152600401611ca39291906125b9565b600060405180830381600087803b158015611cbd57600080fd5b505af1158015611cd1573d6000803e3d6000fd5b5050505050565b611ce0612233565b600460060160030160009054906101000a900473ffffffffffffffffffffffffffffffffffffffff1673ffffffffffffffffffffffffffffffffffffffff1663636cfa0c600460020160009054906101000a900473ffffffffffffffffffffffffffffffffffffffff166004800160009054906101000a900473ffffffffffffffffffffffffffffffffffffffff166305f5e1006040518463ffffffff1660e01b8152600401611d92939291906129dc565b602060405180830381865afa158015611daf573d6000803e3d6000fd5b505050506040513d601f19601f82011682018060405250810190611dd39190612820565b816000018181525050600460060160030160009054906101000a900473ffffffffffffffffffffffffffffffffffffffff1673ffffffffffffffffffffffffffffffffffffffff1663636cfa0c600460060160000160009054906101000a900473ffffffffffffffffffffffffffffffffffffffff16600460020160009054906101000a900473ffffffffffffffffffffffffffffffffffffffff166305f5e1006040518463ffffffff1660e01b8152600401611e92939291906129dc565b602060405180830381865afa158015611eaf573d6000803e3d6000fd5b505050506040513d601f19601f82011682018060405250810190611ed39190612820565b816020018181525050600460060160000160009054906101000a900473ffffffffffffffffffffffffffffffffffffffff1673ffffffffffffffffffffffffffffffffffffffff166318160ddd6040518163ffffffff1660e01b8152600401602060405180830381865afa158015611f4f573d6000803e3d6000fd5b505050506040513d601f19601f82011682018060405250810190611f739190612820565b816040018181525050600460060160030160009054906101000a900473ffffffffffffffffffffffffffffffffffffffff1673ffffffffffffffffffffffffffffffffffffffff1663636cfa0c600460020160009054906101000a900473ffffffffffffffffffffffffffffffffffffffff16600460050160009054906101000a900473ffffffffffffffffffffffffffffffffffffffff166305f5e1006040518463ffffffff1660e01b815260040161202f939291906129dc565b602060405180830381865afa15801561204c573d6000803e3d6000fd5b505050506040513d601f19601f820116820180604052508101906120709190612820565b8160a001818152505060026305f5e10061208a9190612611565b8160400151826020015161209e9190612611565b6120a8919061269a565b8160600181815250506305f5e100816000015182606001516120ca9190612611565b6120d4919061269a565b81608001818152505090565b6000806103e5856120f19190612611565b9050600083826121019190612611565b90506000826103e8876121149190612611565b61211e91906126cb565b9050808261212c919061269a565b93505050509392505050565b612140610aa1565b80156121e55750600260009054906101000a900473ffffffffffffffffffffffffffffffffffffffff1673ffffffffffffffffffffffffffffffffffffffff1663b7ebc23b826040518263ffffffff1660e01b81526004016121a291906124d8565b602060405180830381865afa1580156121bf573d6000803e3d6000fd5b505050506040513d601f19601f820116820180604052508101906121e391906127de565b155b15612230576121f2610aa1565b816040517f64218e39000000000000000000000000000000000000000000000000000000008152600401612227929190612a13565b60405180910390fd5b50565b6040518060c001604052806000815260200160008152602001600081526020016000815260200160008152602001600081525090565b600073ffffffffffffffffffffffffffffffffffffffff82169050919050565b6000819050919050565b60006122ae6122a96122a484612269565b612289565b612269565b9050919050565b60006122c082612293565b9050919050565b60006122d2826122b5565b9050919050565b6122e2816122c7565b82525050565b60006020820190506122fd60008301846122d9565b92915050565b600080fd5b6000819050919050565b61231b81612308565b811461232657600080fd5b50565b60008135905061233881612312565b92915050565b60006020828403121561235457612353612303565b5b600061236284828501612329565b91505092915050565b61237481612308565b82525050565b600060208201905061238f600083018461236b565b92915050565b600080604083850312156123ac576123ab612303565b5b60006123ba85828601612329565b92505060206123cb85828601612329565b9150509250929050565b60006123e082612269565b9050919050565b6123f0816123d5565b81146123fb57600080fd5b50565b60008135905061240d816123e7565b92915050565b60006020828403121561242957612428612303565b5b6000612437848285016123fe565b91505092915050565b60008115159050919050565b61245581612440565b82525050565b6000602082019050612470600083018461244c565b92915050565b60008060006060848603121561248f5761248e612303565b5b600061249d868287016123fe565b93505060206124ae86828701612329565b92505060406124bf868287016123fe565b9150509250925092565b6124d2816123d5565b82525050565b60006020820190506124ed60008301846124c9565b92915050565b600060ff82169050919050565b612509816124f3565b811461251457600080fd5b50565b60008135905061252681612500565b92915050565b60008060008060008060c0878903121561254957612548612303565b5b600061255789828a016123fe565b965050602061256889828a016123fe565b955050604061257989828a016123fe565b945050606061258a89828a01612517565b935050608061259b89828a01612517565b92505060a06125ac89828a016123fe565b9150509295509295509295565b60006040820190506125ce60008301856124c9565b6125db60208301846124c9565b9392505050565b7f4e487b7100000000000000000000000000000000000000000000000000000000600052601160045260246000fd5b600061261c82612308565b915061262783612308565b9250817fffffffffffffffffffffffffffffffffffffffffffffffffffffffffffffffff04831182151516156126605761265f6125e2565b5b828202905092915050565b7f4e487b7100000000000000000000000000000000000000000000000000000000600052601260045260246000fd5b60006126a582612308565b91506126b083612308565b9250826126c0576126bf61266b565b5b828204905092915050565b60006126d682612308565b91506126e183612308565b9250827fffffffffffffffffffffffffffffffffffffffffffffffffffffffffffffffff03821115612716576127156125e2565b5b828201905092915050565b600061272c826124f3565b9150612737836124f3565b92508282101561274a576127496125e2565b5b828203905092915050565b600061276082612308565b915061276b83612308565b92508282101561277e5761277d6125e2565b5b828203905092915050565b600060408201905061279e60008301856124c9565b6127ab602083018461236b565b9392505050565b6127bb81612440565b81146127c657600080fd5b50565b6000815190506127d8816127b2565b92915050565b6000602082840312156127f4576127f3612303565b5b6000612802848285016127c9565b91505092915050565b60008151905061281a81612312565b92915050565b60006020828403121561283657612835612303565b5b60006128448482850161280b565b91505092915050565b60008151905061285c816123e7565b92915050565b60006020828403121561287857612877612303565b5b60006128868482850161284d565b91505092915050565b600082825260208201905092915050565b50565b60006128b060008361288f565b91506128bb826128a0565b600082019050919050565b60006080820190506128db600083018661236b565b6128e8602083018561236b565b6128f560408301846124c9565b8181036060830152612906816128a3565b9050949350505050565b612919816124f3565b82525050565b60006020820190506129346000830184612910565b92915050565b6000612945826123d5565b9050919050565b6129558161293a565b811461296057600080fd5b50565b6000815190506129728161294c565b92915050565b60006020828403121561298e5761298d612303565b5b600061299c84828501612963565b91505092915050565b60006060820190506129ba60008301866124c9565b6129c760208301856124c9565b6129d460408301846124c9565b949350505050565b60006060820190506129f160008301866124c9565b6129fe60208301856124c9565b612a0b604083018461236b565b949350505050565b6000604082019050612a28600083018561244c565b612a3560208301846124c9565b939250505056fea2646970667358221220851b376997e4505d6b0725c9458bfbec842b574e15e84109065b3a113b2e833664736f6c634300080d00336080604052348015600f57600080fd5b50603f80601d6000396000f3fe6080604052600080fdfea2646970667358221220870e730dc914e608ed318492256887520fdae712f0c3d8adb5f492e867c42e0964736f6c634300080d0033",
  "linkReferences": {},
  "deployedLinkReferences": {}
}