{
  "_format": "hh-sol-artifact-1",
  "contractName": "UniswapHelper",
  "sourceName": "contracts/UniswapHelper.sol",
  "abi": [
    {
      "inputs": [
        {
          "internalType": "address",
          "name": "_limbo",
          "type": "address"
        },
        {
          "internalType": "address",
          "name": "limboDAO",
          "type": "address"
        }
      ],
      "stateMutability": "nonpayable",
      "type": "constructor"
    },
    {
      "inputs": [
        {
          "internalType": "address",
          "name": "configurationLord",
          "type": "address"
        },
        {
          "internalType": "address",
          "name": "msg_sender",
          "type": "address"
        }
      ],
      "name": "AccessDenied",
      "type": "error"
    },
    {
      "inputs": [
        {
          "internalType": "address",
          "name": "expectedDAO",
          "type": "address"
        },
        {
          "internalType": "address",
          "name": "actualDAO",
          "type": "address"
        }
      ],
      "name": "BackrunDetected",
      "type": "error"
    },
    {
      "inputs": [],
      "name": "DaiThresholdMustBePositive",
      "type": "error"
    },
    {
      "inputs": [
        {
          "internalType": "bool",
          "name": "configured",
          "type": "bool"
        },
        {
          "internalType": "address",
          "name": "proposal",
          "type": "address"
        }
      ],
      "name": "GovernanceActionFailed",
      "type": "error"
    },
    {
      "inputs": [],
      "name": "NotOnMainnet",
      "type": "error"
    },
    {
      "inputs": [
        {
          "internalType": "address",
          "name": "msgSender",
          "type": "address"
        },
        {
          "internalType": "address",
          "name": "limbo",
          "type": "address"
        }
      ],
      "name": "OnlyLimbo",
      "type": "error"
    },
    {
      "inputs": [
        {
          "internalType": "address",
          "name": "fln_scx",
          "type": "address"
        },
        {
          "internalType": "address",
          "name": "dai_scx",
          "type": "address"
        },
        {
          "internalType": "address",
          "name": "scx__fln_scx",
          "type": "address"
        }
      ],
      "name": "OracleLPsNotSet",
      "type": "error"
    },
    {
      "inputs": [
        {
          "internalType": "uint8",
          "name": "overshoot",
          "type": "uint8"
        }
      ],
      "name": "PriceOvershootTooHigh",
      "type": "error"
    },
    {
      "inputs": [],
      "name": "DAO",
      "outputs": [
        {
          "internalType": "address",
          "name": "",
          "type": "address"
        }
      ],
      "stateMutability": "view",
      "type": "function"
    },
    {
      "inputs": [],
      "name": "blackHole",
      "outputs": [
        {
          "internalType": "address",
          "name": "",
          "type": "address"
        }
      ],
      "stateMutability": "view",
      "type": "function"
    },
    {
      "inputs": [
        {
          "internalType": "address",
          "name": "inputToken",
          "type": "address"
        },
        {
          "internalType": "uint256",
          "name": "amount",
          "type": "uint256"
        },
        {
          "internalType": "address",
          "name": "recipient",
          "type": "address"
        }
      ],
      "name": "buyFlanAndBurn",
      "outputs": [],
      "stateMutability": "nonpayable",
      "type": "function"
    },
    {
      "inputs": [
        {
          "internalType": "address",
          "name": "_limbo",
          "type": "address"
        },
        {
          "internalType": "address",
          "name": "behodler",
          "type": "address"
        },
        {
          "internalType": "address",
          "name": "flan",
          "type": "address"
        },
        {
          "internalType": "uint8",
          "name": "precision",
          "type": "uint8"
        },
        {
          "internalType": "uint8",
          "name": "priceBoostOvershoot",
          "type": "uint8"
        },
        {
          "internalType": "address",
          "name": "oracle",
          "type": "address"
        }
      ],
      "name": "configure",
      "outputs": [],
      "stateMutability": "nonpayable",
      "type": "function"
    },
    {
      "inputs": [],
      "name": "configured",
      "outputs": [
        {
          "internalType": "bool",
          "name": "",
          "type": "bool"
        }
      ],
      "stateMutability": "view",
      "type": "function"
    },
    {
      "inputs": [
        {
          "internalType": "address",
          "name": "expectedDAO",
          "type": "address"
        }
      ],
      "name": "endConfiguration",
      "outputs": [],
      "stateMutability": "nonpayable",
      "type": "function"
    },
    {
      "inputs": [],
      "name": "governer",
      "outputs": [
        {
          "internalType": "contract FlashGovernanceArbiterLike",
          "name": "",
          "type": "address"
        }
      ],
      "stateMutability": "view",
      "type": "function"
    },
    {
      "inputs": [
        {
          "internalType": "uint256",
          "name": "minAPY",
          "type": "uint256"
        },
        {
          "internalType": "uint256",
          "name": "daiThreshold",
          "type": "uint256"
        }
      ],
      "name": "minAPY_to_FPS",
      "outputs": [
        {
          "internalType": "uint256",
          "name": "fps",
          "type": "uint256"
        }
      ],
      "stateMutability": "pure",
      "type": "function"
    },
    {
      "inputs": [
        {
          "internalType": "address",
          "name": "dai",
          "type": "address"
        }
      ],
      "name": "setDAI",
      "outputs": [],
      "stateMutability": "nonpayable",
      "type": "function"
    },
    {
      "inputs": [
        {
          "internalType": "address",
          "name": "dao",
          "type": "address"
        }
      ],
      "name": "setDAO",
      "outputs": [],
      "stateMutability": "nonpayable",
      "type": "function"
    },
    {
      "inputs": [
        {
          "internalType": "uint256",
          "name": "mintedSCX",
          "type": "uint256"
        }
      ],
      "name": "stabilizeFlan",
      "outputs": [
        {
          "internalType": "uint256",
          "name": "lpMinted",
          "type": "uint256"
        }
      ],
      "stateMutability": "nonpayable",
      "type": "function"
    },
    {
      "inputs": [],
      "name": "temporaryConfigurationLord",
      "outputs": [
        {
          "internalType": "address",
          "name": "",
          "type": "address"
        }
      ],
      "stateMutability": "view",
      "type": "function"
    }
  ],
  "bytecode": "0x60806040523480156200001157600080fd5b5060405162002e5138038062002e518339818101604052810190620000379190620003a3565b8033600160006101000a81548173ffffffffffffffffffffffffffffffffffffffff021916908373ffffffffffffffffffffffffffffffffffffffff1602179055506200008a81620001f360201b60201c565b5081600360006101000a81548173ffffffffffffffffffffffffffffffffffffffff021916908373ffffffffffffffffffffffffffffffffffffffff160217905550604051620000da906200032c565b604051809103906000f080158015620000f7573d6000803e3d6000fd5b50600460030160006101000a81548173ffffffffffffffffffffffffffffffffffffffff021916908373ffffffffffffffffffffffffffffffffffffffff160217905550735c69bee701ef814a2b6a3edd4b1652cb9cc5aa6f600460010160006101000a81548173ffffffffffffffffffffffffffffffffffffffff021916908373ffffffffffffffffffffffffffffffffffffffff160217905550736b175474e89094c44da98b954eedeac495271d0f600460050160006101000a81548173ffffffffffffffffffffffffffffffffffffffff021916908373ffffffffffffffffffffffffffffffffffffffff160217905550505062000428565b62000203620002d460201b60201c565b156200026c57600160009054906101000a900473ffffffffffffffffffffffffffffffffffffffff16336040517fc21bbf9d00000000000000000000000000000000000000000000000000000000815260040162000263929190620003fb565b60405180910390fd5b80600260006101000a81548173ffffffffffffffffffffffffffffffffffffffff021916908373ffffffffffffffffffffffffffffffffffffffff1602179055506000806101000a81549073ffffffffffffffffffffffffffffffffffffffff021916905550565b60008073ffffffffffffffffffffffffffffffffffffffff16600160009054906101000a900473ffffffffffffffffffffffffffffffffffffffff1673ffffffffffffffffffffffffffffffffffffffff1614905090565b605c8062002df583390190565b600080fd5b600073ffffffffffffffffffffffffffffffffffffffff82169050919050565b60006200036b826200033e565b9050919050565b6200037d816200035e565b81146200038957600080fd5b50565b6000815190506200039d8162000372565b92915050565b60008060408385031215620003bd57620003bc62000339565b5b6000620003cd858286016200038c565b9250506020620003e0858286016200038c565b9150509250929050565b620003f5816200035e565b82525050565b6000604082019050620004126000830185620003ea565b620004216020830184620003ea565b9392505050565b6129bd80620004386000396000f3fe608060405234801561001057600080fd5b50600436106100b45760003560e01c806398fabd3a1161007157806398fabd3a1461018d5780639e90f9aa146101ab578063b97dbf59146101c9578063cdf57d46146101e5578063dd77a47514610201578063e73a914c1461021f576100b4565b80633091dde1146100b95780633626339f146100d7578063421e5b48146101075780634eaa7eb2146101375780638772a23a146101535780638b8de71514610171575b600080fd5b6100c161023b565b6040516100ce9190612233565b60405180910390f35b6100f160048036038101906100ec9190612289565b61025f565b6040516100fe91906122c5565b60405180910390f35b610121600480360381019061011c91906122e0565b61087f565b60405161012e91906122c5565b60405180910390f35b610151600480360381019061014c919061235e565b6108f0565b005b61015b610aa1565b60405161016891906123a6565b60405180910390f35b61018b600480360381019061018691906123c1565b610af9565b005b610195611013565b6040516101a29190612423565b60405180910390f35b6101b3611039565b6040516101c09190612423565b60405180910390f35b6101e360048036038101906101de919061235e565b611066565b005b6101ff60048036038101906101fa9190612477565b6110e7565b005b6102096117a9565b6040516102169190612423565b60405180910390f35b6102396004803603810190610234919061235e565b6117cf565b005b60008054906101000a900473ffffffffffffffffffffffffffffffffffffffff1681565b6000600360009054906101000a900473ffffffffffffffffffffffffffffffffffffffff1673ffffffffffffffffffffffffffffffffffffffff163373ffffffffffffffffffffffffffffffffffffffff16146103175733600360009054906101000a900473ffffffffffffffffffffffffffffffffffffffff166040517fb6ee3de000000000000000000000000000000000000000000000000000000000815260040161030e929190612504565b60405180910390fd5b61031f6118a5565b6000610329611c23565b90506000606460628561033c919061255c565b61034691906125e5565b9050600082606001518261035a9190612616565b905060006305f5e1008460a0015183610373919061255c565b61037d91906125e5565b90506000600460060160000160009054906101000a900473ffffffffffffffffffffffffffffffffffffffff169050818560800151101561063d5760006064600460020160159054906101000a900460ff1660646103db919061266c565b60ff168760800151856103ee91906126a0565b6103f8919061255c565b61040291906125e5565b9050600081146104125780610423565b85608001518361042291906126a0565b5b90506004800160009054906101000a900473ffffffffffffffffffffffffffffffffffffffff1673ffffffffffffffffffffffffffffffffffffffff166340c10f1983836040518363ffffffff1660e01b81526004016104849291906126d4565b6020604051808303816000875af11580156104a3573d6000803e3d6000fd5b505050506040513d601f19601f820116820180604052508101906104c79190612729565b50600460020160009054906101000a900473ffffffffffffffffffffffffffffffffffffffff1673ffffffffffffffffffffffffffffffffffffffff1663a9059cbb83876040518363ffffffff1660e01b81526004016105289291906126d4565b6020604051808303816000875af1158015610547573d6000803e3d6000fd5b505050506040513d601f19601f8201168201806040525081019061056b9190612729565b50600460060160000160009054906101000a900473ffffffffffffffffffffffffffffffffffffffff1673ffffffffffffffffffffffffffffffffffffffff16636a627842600460030160009054906101000a900473ffffffffffffffffffffffffffffffffffffffff166040518263ffffffff1660e01b81526004016105f29190612423565b6020604051808303816000875af1158015610611573d6000803e3d6000fd5b505050506040513d601f19601f82011682018060405250810190610635919061276b565b965050610875565b60008560400151866080015161065391906125e5565b90506004800160009054906101000a900473ffffffffffffffffffffffffffffffffffffffff1673ffffffffffffffffffffffffffffffffffffffff166340c10f19836002846106a39190612616565b6040518363ffffffff1660e01b81526004016106c09291906126d4565b6020604051808303816000875af11580156106df573d6000803e3d6000fd5b505050506040513d601f19601f820116820180604052508101906107039190612729565b50600460020160009054906101000a900473ffffffffffffffffffffffffffffffffffffffff1673ffffffffffffffffffffffffffffffffffffffff1663a9059cbb83876040518363ffffffff1660e01b81526004016107649291906126d4565b6020604051808303816000875af1158015610783573d6000803e3d6000fd5b505050506040513d601f19601f820116820180604052508101906107a79190612729565b50600460060160000160009054906101000a900473ffffffffffffffffffffffffffffffffffffffff1673ffffffffffffffffffffffffffffffffffffffff16636a627842600460030160009054906101000a900473ffffffffffffffffffffffffffffffffffffffff166040518263ffffffff1660e01b815260040161082e9190612423565b6020604051808303816000875af115801561084d573d6000803e3d6000fd5b505050506040513d601f19601f82011682018060405250810190610871919061276b565b9650505b5050505050919050565b60008082036108ba576040517f2c0b910600000000000000000000000000000000000000000000000000000000815260040160405180910390fd5b600061271083856108cb919061255c565b6108d591906125e5565b90506301e13380816108e791906125e5565b91505092915050565b600160009054906101000a900473ffffffffffffffffffffffffffffffffffffffff1673ffffffffffffffffffffffffffffffffffffffff163373ffffffffffffffffffffffffffffffffffffffff16146109a657600160009054906101000a900473ffffffffffffffffffffffffffffffffffffffff16336040517fc21bbf9d00000000000000000000000000000000000000000000000000000000815260040161099d929190612504565b60405180910390fd5b600260009054906101000a900473ffffffffffffffffffffffffffffffffffffffff1673ffffffffffffffffffffffffffffffffffffffff168173ffffffffffffffffffffffffffffffffffffffff1614610a5c5780600260009054906101000a900473ffffffffffffffffffffffffffffffffffffffff166040517f3f0e2133000000000000000000000000000000000000000000000000000000008152600401610a53929190612504565b60405180910390fd5b6000600160006101000a81548173ffffffffffffffffffffffffffffffffffffffff021916908373ffffffffffffffffffffffffffffffffffffffff16021790555050565b60008073ffffffffffffffffffffffffffffffffffffffff16600160009054906101000a900473ffffffffffffffffffffffffffffffffffffffff1673ffffffffffffffffffffffffffffffffffffffff1614905090565b6000600460010160009054906101000a900473ffffffffffffffffffffffffffffffffffffffff1673ffffffffffffffffffffffffffffffffffffffff1663e6a43905856004800160009054906101000a900473ffffffffffffffffffffffffffffffffffffffff166040518363ffffffff1660e01b8152600401610b7f929190612504565b602060405180830381865afa158015610b9c573d6000803e3d6000fd5b505050506040513d601f19601f82011682018060405250810190610bc091906127ad565b905060006004800160009054906101000a900473ffffffffffffffffffffffffffffffffffffffff1673ffffffffffffffffffffffffffffffffffffffff166370a08231836040518263ffffffff1660e01b8152600401610c219190612423565b602060405180830381865afa158015610c3e573d6000803e3d6000fd5b505050506040513d601f19601f82011682018060405250810190610c62919061276b565b905060008573ffffffffffffffffffffffffffffffffffffffff166370a08231846040518263ffffffff1660e01b8152600401610c9f9190612423565b602060405180830381865afa158015610cbc573d6000803e3d6000fd5b505050506040513d601f19601f82011682018060405250810190610ce0919061276b565b90506000610cef86838561202b565b905060006004800160009054906101000a900473ffffffffffffffffffffffffffffffffffffffff1673ffffffffffffffffffffffffffffffffffffffff168873ffffffffffffffffffffffffffffffffffffffff1610610d505781610d53565b60005b905060006004800160009054906101000a900473ffffffffffffffffffffffffffffffffffffffff1673ffffffffffffffffffffffffffffffffffffffff168973ffffffffffffffffffffffffffffffffffffffff1610610db5576000610db7565b825b90508873ffffffffffffffffffffffffffffffffffffffff1663a9059cbb878a6040518363ffffffff1660e01b8152600401610df49291906126d4565b6020604051808303816000875af1158015610e13573d6000803e3d6000fd5b505050506040513d601f19601f82011682018060405250810190610e379190612729565b508573ffffffffffffffffffffffffffffffffffffffff1663022c0d9f8383306040518463ffffffff1660e01b8152600401610e7593929190612811565b600060405180830381600087803b158015610e8f57600080fd5b505af1158015610ea3573d6000803e3d6000fd5b505050506000606484610eb691906125e5565b90506004800160009054906101000a900473ffffffffffffffffffffffffffffffffffffffff1673ffffffffffffffffffffffffffffffffffffffff1663a9059cbb89836040518363ffffffff1660e01b8152600401610f179291906126d4565b6020604051808303816000875af1158015610f36573d6000803e3d6000fd5b505050506040513d601f19601f82011682018060405250810190610f5a9190612729565b506004800160009054906101000a900473ffffffffffffffffffffffffffffffffffffffff1673ffffffffffffffffffffffffffffffffffffffff166342966c688286610fa791906126a0565b6040518263ffffffff1660e01b8152600401610fc391906122c5565b6020604051808303816000875af1158015610fe2573d6000803e3d6000fd5b505050506040513d601f19601f820116820180604052508101906110069190612729565b5050505050505050505050565b600260009054906101000a900473ffffffffffffffffffffffffffffffffffffffff1681565b6000600460030160009054906101000a900473ffffffffffffffffffffffffffffffffffffffff16905090565b600146036110a0576040517f27d5b07900000000000000000000000000000000000000000000000000000000815260040160405180910390fd5b80600460050160006101000a81548173ffffffffffffffffffffffffffffffffffffffff021916908373ffffffffffffffffffffffffffffffffffffffff16021790555050565b6110f033612083565b85600360006101000a81548173ffffffffffffffffffffffffffffffffffffffff021916908373ffffffffffffffffffffffffffffffffffffffff16021790555084600460020160006101000a81548173ffffffffffffffffffffffffffffffffffffffff021916908373ffffffffffffffffffffffffffffffffffffffff160217905550836004800160006101000a81548173ffffffffffffffffffffffffffffffffffffffff021916908373ffffffffffffffffffffffffffffffffffffffff16021790555060008360ff16146111c957826111cb565b825b600460020160146101000a81548160ff021916908360ff16021790555060638260ff16111561123157816040517f6425d37b000000000000000000000000000000000000000000000000000000008152600401611228919061286a565b60405180910390fd5b81600460020160156101000a81548160ff021916908360ff16021790555060008190508073ffffffffffffffffffffffffffffffffffffffff1663c45a01556040518163ffffffff1660e01b81526004016020604051808303816000875af11580156112a1573d6000803e3d6000fd5b505050506040513d601f19601f820116820180604052508101906112c591906128c3565b600460010160006101000a81548173ffffffffffffffffffffffffffffffffffffffff021916908373ffffffffffffffffffffffffffffffffffffffff1602179055506000600460010160009054906101000a900473ffffffffffffffffffffffffffffffffffffffff1673ffffffffffffffffffffffffffffffffffffffff1663e6a4390587896040518363ffffffff1660e01b815260040161136a929190612504565b602060405180830381865afa158015611387573d6000803e3d6000fd5b505050506040513d601f19601f820116820180604052508101906113ab91906127ad565b90506000600460010160009054906101000a900473ffffffffffffffffffffffffffffffffffffffff1673ffffffffffffffffffffffffffffffffffffffff1663e6a43905600460050160009054906101000a900473ffffffffffffffffffffffffffffffffffffffff168a6040518363ffffffff1660e01b8152600401611434929190612504565b602060405180830381865afa158015611451573d6000803e3d6000fd5b505050506040513d601f19601f8201168201806040525081019061147591906127ad565b90506000600460010160009054906101000a900473ffffffffffffffffffffffffffffffffffffffff1673ffffffffffffffffffffffffffffffffffffffff1663e6a439058a856040518363ffffffff1660e01b81526004016114d9929190612504565b602060405180830381865afa1580156114f6573d6000803e3d6000fd5b505050506040513d601f19601f8201168201806040525081019061151a91906127ad565b905060008073ffffffffffffffffffffffffffffffffffffffff168473ffffffffffffffffffffffffffffffffffffffff16148061158357508073ffffffffffffffffffffffffffffffffffffffff168373ffffffffffffffffffffffffffffffffffffffff16145b806115b957508073ffffffffffffffffffffffffffffffffffffffff168273ffffffffffffffffffffffffffffffffffffffff16145b156115ff578383836040517f4a08888c0000000000000000000000000000000000000000000000000000000081526004016115f6939291906128f0565b60405180910390fd5b60405180608001604052808573ffffffffffffffffffffffffffffffffffffffff1681526020018473ffffffffffffffffffffffffffffffffffffffff1681526020018373ffffffffffffffffffffffffffffffffffffffff1681526020018673ffffffffffffffffffffffffffffffffffffffff16815250600460060160008201518160000160006101000a81548173ffffffffffffffffffffffffffffffffffffffff021916908373ffffffffffffffffffffffffffffffffffffffff16021790555060208201518160010160006101000a81548173ffffffffffffffffffffffffffffffffffffffff021916908373ffffffffffffffffffffffffffffffffffffffff16021790555060408201518160020160006101000a81548173ffffffffffffffffffffffffffffffffffffffff021916908373ffffffffffffffffffffffffffffffffffffffff16021790555060608201518160030160006101000a81548173ffffffffffffffffffffffffffffffffffffffff021916908373ffffffffffffffffffffffffffffffffffffffff1602179055509050505050505050505050505050565b600160009054906101000a900473ffffffffffffffffffffffffffffffffffffffff1681565b6117d7610aa1565b1561183d57600160009054906101000a900473ffffffffffffffffffffffffffffffffffffffff16336040517fc21bbf9d000000000000000000000000000000000000000000000000000000008152600401611834929190612504565b60405180910390fd5b80600260006101000a81548173ffffffffffffffffffffffffffffffffffffffff021916908373ffffffffffffffffffffffffffffffffffffffff1602179055506000806101000a81549073ffffffffffffffffffffffffffffffffffffffff021916905550565b600060046006016040518060800160405290816000820160009054906101000a900473ffffffffffffffffffffffffffffffffffffffff1673ffffffffffffffffffffffffffffffffffffffff1673ffffffffffffffffffffffffffffffffffffffff1681526020016001820160009054906101000a900473ffffffffffffffffffffffffffffffffffffffff1673ffffffffffffffffffffffffffffffffffffffff1673ffffffffffffffffffffffffffffffffffffffff1681526020016002820160009054906101000a900473ffffffffffffffffffffffffffffffffffffffff1673ffffffffffffffffffffffffffffffffffffffff1673ffffffffffffffffffffffffffffffffffffffff1681526020016003820160009054906101000a900473ffffffffffffffffffffffffffffffffffffffff1673ffffffffffffffffffffffffffffffffffffffff1673ffffffffffffffffffffffffffffffffffffffff16815250509050806060015173ffffffffffffffffffffffffffffffffffffffff1663c640752d600460020160009054906101000a900473ffffffffffffffffffffffffffffffffffffffff166004800160009054906101000a900473ffffffffffffffffffffffffffffffffffffffff166040518363ffffffff1660e01b8152600401611a99929190612504565b600060405180830381600087803b158015611ab357600080fd5b505af1158015611ac7573d6000803e3d6000fd5b50505050806060015173ffffffffffffffffffffffffffffffffffffffff1663c640752d600460020160009054906101000a900473ffffffffffffffffffffffffffffffffffffffff16600460050160009054906101000a900473ffffffffffffffffffffffffffffffffffffffff166040518363ffffffff1660e01b8152600401611b54929190612504565b600060405180830381600087803b158015611b6e57600080fd5b505af1158015611b82573d6000803e3d6000fd5b50505050806060015173ffffffffffffffffffffffffffffffffffffffff1663c640752d600460020160009054906101000a900473ffffffffffffffffffffffffffffffffffffffff1683600001516040518363ffffffff1660e01b8152600401611bee929190612504565b600060405180830381600087803b158015611c0857600080fd5b505af1158015611c1c573d6000803e3d6000fd5b5050505050565b611c2b61217e565b600460060160030160009054906101000a900473ffffffffffffffffffffffffffffffffffffffff1673ffffffffffffffffffffffffffffffffffffffff1663636cfa0c600460020160009054906101000a900473ffffffffffffffffffffffffffffffffffffffff166004800160009054906101000a900473ffffffffffffffffffffffffffffffffffffffff166305f5e1006040518463ffffffff1660e01b8152600401611cdd93929190612927565b602060405180830381865afa158015611cfa573d6000803e3d6000fd5b505050506040513d601f19601f82011682018060405250810190611d1e919061276b565b816000018181525050600460060160030160009054906101000a900473ffffffffffffffffffffffffffffffffffffffff1673ffffffffffffffffffffffffffffffffffffffff1663636cfa0c600460060160000160009054906101000a900473ffffffffffffffffffffffffffffffffffffffff16600460020160009054906101000a900473ffffffffffffffffffffffffffffffffffffffff166305f5e1006040518463ffffffff1660e01b8152600401611ddd93929190612927565b602060405180830381865afa158015611dfa573d6000803e3d6000fd5b505050506040513d601f19601f82011682018060405250810190611e1e919061276b565b816020018181525050600460060160000160009054906101000a900473ffffffffffffffffffffffffffffffffffffffff1673ffffffffffffffffffffffffffffffffffffffff166318160ddd6040518163ffffffff1660e01b8152600401602060405180830381865afa158015611e9a573d6000803e3d6000fd5b505050506040513d601f19601f82011682018060405250810190611ebe919061276b565b816040018181525050600460060160030160009054906101000a900473ffffffffffffffffffffffffffffffffffffffff1673ffffffffffffffffffffffffffffffffffffffff1663636cfa0c600460020160009054906101000a900473ffffffffffffffffffffffffffffffffffffffff16600460050160009054906101000a900473ffffffffffffffffffffffffffffffffffffffff166305f5e1006040518463ffffffff1660e01b8152600401611f7a93929190612927565b602060405180830381865afa158015611f97573d6000803e3d6000fd5b505050506040513d601f19601f82011682018060405250810190611fbb919061276b565b8160a001818152505060026305f5e100611fd5919061255c565b81604001518260200151611fe9919061255c565b611ff391906125e5565b8160600181815250506305f5e10081600001518260600151612015919061255c565b61201f91906125e5565b81608001818152505090565b6000806103e58561203c919061255c565b90506000838261204c919061255c565b90506000826103e88761205f919061255c565b6120699190612616565b9050808261207791906125e5565b93505050509392505050565b61208b610aa1565b80156121305750600260009054906101000a900473ffffffffffffffffffffffffffffffffffffffff1673ffffffffffffffffffffffffffffffffffffffff1663b7ebc23b826040518263ffffffff1660e01b81526004016120ed9190612423565b602060405180830381865afa15801561210a573d6000803e3d6000fd5b505050506040513d601f19601f8201168201806040525081019061212e9190612729565b155b1561217b5761213d610aa1565b816040517f64218e3900000000000000000000000000000000000000000000000000000000815260040161217292919061295e565b60405180910390fd5b50565b6040518060c001604052806000815260200160008152602001600081526020016000815260200160008152602001600081525090565b600073ffffffffffffffffffffffffffffffffffffffff82169050919050565b6000819050919050565b60006121f96121f46121ef846121b4565b6121d4565b6121b4565b9050919050565b600061220b826121de565b9050919050565b600061221d82612200565b9050919050565b61222d81612212565b82525050565b60006020820190506122486000830184612224565b92915050565b600080fd5b6000819050919050565b61226681612253565b811461227157600080fd5b50565b6000813590506122838161225d565b92915050565b60006020828403121561229f5761229e61224e565b5b60006122ad84828501612274565b91505092915050565b6122bf81612253565b82525050565b60006020820190506122da60008301846122b6565b92915050565b600080604083850312156122f7576122f661224e565b5b600061230585828601612274565b925050602061231685828601612274565b9150509250929050565b600061232b826121b4565b9050919050565b61233b81612320565b811461234657600080fd5b50565b60008135905061235881612332565b92915050565b6000602082840312156123745761237361224e565b5b600061238284828501612349565b91505092915050565b60008115159050919050565b6123a08161238b565b82525050565b60006020820190506123bb6000830184612397565b92915050565b6000806000606084860312156123da576123d961224e565b5b60006123e886828701612349565b93505060206123f986828701612274565b925050604061240a86828701612349565b9150509250925092565b61241d81612320565b82525050565b60006020820190506124386000830184612414565b92915050565b600060ff82169050919050565b6124548161243e565b811461245f57600080fd5b50565b6000813590506124718161244b565b92915050565b60008060008060008060c087890312156124945761249361224e565b5b60006124a289828a01612349565b96505060206124b389828a01612349565b95505060406124c489828a01612349565b94505060606124d589828a01612462565b93505060806124e689828a01612462565b92505060a06124f789828a01612349565b9150509295509295509295565b60006040820190506125196000830185612414565b6125266020830184612414565b9392505050565b7f4e487b7100000000000000000000000000000000000000000000000000000000600052601160045260246000fd5b600061256782612253565b915061257283612253565b9250817fffffffffffffffffffffffffffffffffffffffffffffffffffffffffffffffff04831182151516156125ab576125aa61252d565b5b828202905092915050565b7f4e487b7100000000000000000000000000000000000000000000000000000000600052601260045260246000fd5b60006125f082612253565b91506125fb83612253565b92508261260b5761260a6125b6565b5b828204905092915050565b600061262182612253565b915061262c83612253565b9250827fffffffffffffffffffffffffffffffffffffffffffffffffffffffffffffffff038211156126615761266061252d565b5b828201905092915050565b60006126778261243e565b91506126828361243e565b9250828210156126955761269461252d565b5b828203905092915050565b60006126ab82612253565b91506126b683612253565b9250828210156126c9576126c861252d565b5b828203905092915050565b60006040820190506126e96000830185612414565b6126f660208301846122b6565b9392505050565b6127068161238b565b811461271157600080fd5b50565b600081519050612723816126fd565b92915050565b60006020828403121561273f5761273e61224e565b5b600061274d84828501612714565b91505092915050565b6000815190506127658161225d565b92915050565b6000602082840312156127815761278061224e565b5b600061278f84828501612756565b91505092915050565b6000815190506127a781612332565b92915050565b6000602082840312156127c3576127c261224e565b5b60006127d184828501612798565b91505092915050565b600082825260208201905092915050565b50565b60006127fb6000836127da565b9150612806826127eb565b600082019050919050565b600060808201905061282660008301866122b6565b61283360208301856122b6565b6128406040830184612414565b8181036060830152612851816127ee565b9050949350505050565b6128648161243e565b82525050565b600060208201905061287f600083018461285b565b92915050565b600061289082612320565b9050919050565b6128a081612885565b81146128ab57600080fd5b50565b6000815190506128bd81612897565b92915050565b6000602082840312156128d9576128d861224e565b5b60006128e7848285016128ae565b91505092915050565b60006060820190506129056000830186612414565b6129126020830185612414565b61291f6040830184612414565b949350505050565b600060608201905061293c6000830186612414565b6129496020830185612414565b61295660408301846122b6565b949350505050565b60006040820190506129736000830185612397565b6129806020830184612414565b939250505056fea26469706673582212208b8af0e01664321d91eda286edab243e14f78b1fc3ea5f3076feafe6928fb89264736f6c634300080d00336080604052348015600f57600080fd5b50603f80601d6000396000f3fe6080604052600080fdfea2646970667358221220e1d06fcf663c22c8eb21c6c2cb1969eeb698dc1b3a2a2aa74f6794f29a00472664736f6c634300080d0033",
  "linkReferences": {},
  "deployedLinkReferences": {}
}