{
  "_format": "hh-sol-artifact-1",
  "contractName": "UniswapHelper",
  "sourceName": "contracts/UniswapHelper.sol",
  "abi": [
    {
      "inputs": [
        {
          "internalType": "address",
          "name": "_limbo",
          "type": "address"
        },
        {
          "internalType": "address",
          "name": "limboDAO",
          "type": "address"
        }
      ],
      "stateMutability": "nonpayable",
      "type": "constructor"
    },
    {
      "inputs": [
        {
          "internalType": "address",
          "name": "configurationLord",
          "type": "address"
        },
        {
          "internalType": "address",
          "name": "msg_sender",
          "type": "address"
        }
      ],
      "name": "AccessDenied",
      "type": "error"
    },
    {
      "inputs": [
        {
          "internalType": "address",
          "name": "expectedDAO",
          "type": "address"
        },
        {
          "internalType": "address",
          "name": "actualDAO",
          "type": "address"
        }
      ],
      "name": "BackrunDetected",
      "type": "error"
    },
    {
      "inputs": [],
      "name": "DaiThresholdMustBePositive",
      "type": "error"
    },
    {
      "inputs": [
        {
          "internalType": "uint256",
          "name": "tolerance",
          "type": "uint256"
        }
      ],
      "name": "DivergenceToleranceTooLow",
      "type": "error"
    },
    {
      "inputs": [
        {
          "internalType": "bool",
          "name": "configured",
          "type": "bool"
        },
        {
          "internalType": "address",
          "name": "proposal",
          "type": "address"
        }
      ],
      "name": "GovernanceActionFailed",
      "type": "error"
    },
    {
      "inputs": [],
      "name": "NotOnMainnet",
      "type": "error"
    },
    {
      "inputs": [
        {
          "internalType": "address",
          "name": "msgSender",
          "type": "address"
        },
        {
          "internalType": "address",
          "name": "limbo",
          "type": "address"
        }
      ],
      "name": "OnlyLimbo",
      "type": "error"
    },
    {
      "inputs": [
        {
          "internalType": "address",
          "name": "fln_scx",
          "type": "address"
        },
        {
          "internalType": "address",
          "name": "dai_scx",
          "type": "address"
        },
        {
          "internalType": "address",
          "name": "scx__fln_scx",
          "type": "address"
        }
      ],
      "name": "OracleLPsNotSet",
      "type": "error"
    },
    {
      "inputs": [
        {
          "internalType": "uint8",
          "name": "overshoot",
          "type": "uint8"
        }
      ],
      "name": "PriceOvershootTooHigh",
      "type": "error"
    },
    {
      "inputs": [],
      "name": "DAO",
      "outputs": [
        {
          "internalType": "address",
          "name": "",
          "type": "address"
        }
      ],
      "stateMutability": "view",
      "type": "function"
    },
    {
      "inputs": [],
      "name": "blackHole",
      "outputs": [
        {
          "internalType": "address",
          "name": "",
          "type": "address"
        }
      ],
      "stateMutability": "view",
      "type": "function"
    },
    {
      "inputs": [
        {
          "internalType": "address",
          "name": "inputToken",
          "type": "address"
        },
        {
          "internalType": "uint256",
          "name": "amount",
          "type": "uint256"
        },
        {
          "internalType": "address",
          "name": "recipient",
          "type": "address"
        }
      ],
      "name": "buyFlanAndBurn",
      "outputs": [],
      "stateMutability": "nonpayable",
      "type": "function"
    },
    {
      "inputs": [
        {
          "internalType": "address",
          "name": "_limbo",
          "type": "address"
        },
        {
          "internalType": "address",
          "name": "behodler",
          "type": "address"
        },
        {
          "internalType": "address",
          "name": "flan",
          "type": "address"
        },
        {
          "internalType": "uint256",
          "name": "divergenceTolerance",
          "type": "uint256"
        },
        {
          "internalType": "uint8",
          "name": "precision",
          "type": "uint8"
        },
        {
          "internalType": "uint8",
          "name": "priceBoostOvershoot",
          "type": "uint8"
        },
        {
          "internalType": "address",
          "name": "oracle",
          "type": "address"
        }
      ],
      "name": "configure",
      "outputs": [],
      "stateMutability": "nonpayable",
      "type": "function"
    },
    {
      "inputs": [],
      "name": "configured",
      "outputs": [
        {
          "internalType": "bool",
          "name": "",
          "type": "bool"
        }
      ],
      "stateMutability": "view",
      "type": "function"
    },
    {
      "inputs": [
        {
          "internalType": "address",
          "name": "expectedDAO",
          "type": "address"
        }
      ],
      "name": "endConfiguration",
      "outputs": [],
      "stateMutability": "nonpayable",
      "type": "function"
    },
    {
      "inputs": [],
      "name": "governer",
      "outputs": [
        {
          "internalType": "contract FlashGovernanceArbiterLike",
          "name": "",
          "type": "address"
        }
      ],
      "stateMutability": "view",
      "type": "function"
    },
    {
      "inputs": [
        {
          "internalType": "uint256",
          "name": "minAPY",
          "type": "uint256"
        },
        {
          "internalType": "uint256",
          "name": "daiThreshold",
          "type": "uint256"
        }
      ],
      "name": "minAPY_to_FPS",
      "outputs": [
        {
          "internalType": "uint256",
          "name": "fps",
          "type": "uint256"
        }
      ],
      "stateMutability": "pure",
      "type": "function"
    },
    {
      "inputs": [
        {
          "internalType": "address",
          "name": "dai",
          "type": "address"
        }
      ],
      "name": "setDAI",
      "outputs": [],
      "stateMutability": "nonpayable",
      "type": "function"
    },
    {
      "inputs": [
        {
          "internalType": "address",
          "name": "dao",
          "type": "address"
        }
      ],
      "name": "setDAO",
      "outputs": [],
      "stateMutability": "nonpayable",
      "type": "function"
    },
    {
      "inputs": [
        {
          "internalType": "uint256",
          "name": "mintedSCX",
          "type": "uint256"
        }
      ],
      "name": "stabilizeFlan",
      "outputs": [
        {
          "internalType": "uint256",
          "name": "lpMinted",
          "type": "uint256"
        }
      ],
      "stateMutability": "nonpayable",
      "type": "function"
    },
    {
      "inputs": [],
      "name": "temporaryConfigurationLord",
      "outputs": [
        {
          "internalType": "address",
          "name": "",
          "type": "address"
        }
      ],
      "stateMutability": "view",
      "type": "function"
    }
  ],
  "bytecode": "0x60806040523480156200001157600080fd5b5060405162002f2638038062002f26833981810160405281019062000037919062000459565b806200004981620001f260201b60201c565b33600160006101000a81548173ffffffffffffffffffffffffffffffffffffffff021916908373ffffffffffffffffffffffffffffffffffffffff1602179055505081600360006101000a81548173ffffffffffffffffffffffffffffffffffffffff021916908373ffffffffffffffffffffffffffffffffffffffff160217905550604051620000da90620003e2565b604051809103906000f080158015620000f7573d6000803e3d6000fd5b506004800160006101000a81548173ffffffffffffffffffffffffffffffffffffffff021916908373ffffffffffffffffffffffffffffffffffffffff160217905550735c69bee701ef814a2b6a3edd4b1652cb9cc5aa6f600460020160006101000a81548173ffffffffffffffffffffffffffffffffffffffff021916908373ffffffffffffffffffffffffffffffffffffffff160217905550736b175474e89094c44da98b954eedeac495271d0f600460060160006101000a81548173ffffffffffffffffffffffffffffffffffffffff021916908373ffffffffffffffffffffffffffffffffffffffff1602179055505050620004de565b600073ffffffffffffffffffffffffffffffffffffffff16600260009054906101000a900473ffffffffffffffffffffffffffffffffffffffff1673ffffffffffffffffffffffffffffffffffffffff1614158015620002a05750600260009054906101000a900473ffffffffffffffffffffffffffffffffffffffff1673ffffffffffffffffffffffffffffffffffffffff163373ffffffffffffffffffffffffffffffffffffffff1614155b8015620002b95750620002b86200038a60201b60201c565b5b156200032257600160009054906101000a900473ffffffffffffffffffffffffffffffffffffffff16336040517fc21bbf9d00000000000000000000000000000000000000000000000000000000815260040162000319929190620004b1565b60405180910390fd5b80600260006101000a81548173ffffffffffffffffffffffffffffffffffffffff021916908373ffffffffffffffffffffffffffffffffffffffff1602179055506000806101000a81549073ffffffffffffffffffffffffffffffffffffffff021916905550565b60008073ffffffffffffffffffffffffffffffffffffffff16600160009054906101000a900473ffffffffffffffffffffffffffffffffffffffff1673ffffffffffffffffffffffffffffffffffffffff1614905090565b605c8062002eca83390190565b600080fd5b600073ffffffffffffffffffffffffffffffffffffffff82169050919050565b60006200042182620003f4565b9050919050565b620004338162000414565b81146200043f57600080fd5b50565b600081519050620004538162000428565b92915050565b60008060408385031215620004735762000472620003ef565b5b6000620004838582860162000442565b9250506020620004968582860162000442565b9150509250929050565b620004ab8162000414565b82525050565b6000604082019050620004c86000830185620004a0565b620004d76020830184620004a0565b9392505050565b6129dc80620004ee6000396000f3fe608060405234801561001057600080fd5b50600436106100b45760003560e01c80638b8de715116100715780638b8de7151461018d57806398fabd3a146101a95780639e90f9aa146101c7578063b97dbf59146101e5578063dd77a47514610201578063e73a914c1461021f576100b4565b80631934d041146100b95780633091dde1146100d55780633626339f146100f3578063421e5b48146101235780634eaa7eb2146101535780638772a23a1461016f575b600080fd5b6100d360048036038101906100ce9190612290565b61023b565b005b6100dd61094f565b6040516100ea9190612391565b60405180910390f35b61010d600480360381019061010891906123ac565b610973565b60405161011a91906123e8565b60405180910390f35b61013d60048036038101906101389190612403565b610f93565b60405161014a91906123e8565b60405180910390f35b61016d60048036038101906101689190612443565b611004565b005b6101776111b5565b604051610184919061248b565b60405180910390f35b6101a760048036038101906101a291906124a6565b61120d565b005b6101b161172d565b6040516101be9190612508565b60405180910390f35b6101cf611753565b6040516101dc9190612508565b60405180910390f35b6101ff60048036038101906101fa9190612443565b61177f565b005b610209611800565b6040516102169190612508565b60405180910390f35b61023960048036038101906102349190612443565b611826565b005b610244336119b1565b86600360006101000a81548173ffffffffffffffffffffffffffffffffffffffff021916908373ffffffffffffffffffffffffffffffffffffffff16021790555085600460030160006101000a81548173ffffffffffffffffffffffffffffffffffffffff021916908373ffffffffffffffffffffffffffffffffffffffff16021790555084600460050160006101000a81548173ffffffffffffffffffffffffffffffffffffffff021916908373ffffffffffffffffffffffffffffffffffffffff160217905550606484101561035357836040517f64d7b67000000000000000000000000000000000000000000000000000000000815260040161034a91906123e8565b60405180910390fd5b8360046000018190555060008360ff161461036e5782610370565b825b600460030160146101000a81548160ff021916908360ff16021790555060638260ff1611156103d657816040517f6425d37b0000000000000000000000000000000000000000000000000000000081526004016103cd9190612532565b60405180910390fd5b81600460030160156101000a81548160ff021916908360ff16021790555060008190508073ffffffffffffffffffffffffffffffffffffffff1663c45a01556040518163ffffffff1660e01b81526004016020604051808303816000875af1158015610446573d6000803e3d6000fd5b505050506040513d601f19601f8201168201806040525081019061046a919061258b565b600460020160006101000a81548173ffffffffffffffffffffffffffffffffffffffff021916908373ffffffffffffffffffffffffffffffffffffffff1602179055506000600460020160009054906101000a900473ffffffffffffffffffffffffffffffffffffffff1673ffffffffffffffffffffffffffffffffffffffff1663e6a43905888a6040518363ffffffff1660e01b815260040161050f9291906125b8565b602060405180830381865afa15801561052c573d6000803e3d6000fd5b505050506040513d601f19601f8201168201806040525081019061055091906125f6565b90506000600460020160009054906101000a900473ffffffffffffffffffffffffffffffffffffffff1673ffffffffffffffffffffffffffffffffffffffff1663e6a43905600460060160009054906101000a900473ffffffffffffffffffffffffffffffffffffffff168b6040518363ffffffff1660e01b81526004016105d99291906125b8565b602060405180830381865afa1580156105f6573d6000803e3d6000fd5b505050506040513d601f19601f8201168201806040525081019061061a91906125f6565b90506000600460020160009054906101000a900473ffffffffffffffffffffffffffffffffffffffff1673ffffffffffffffffffffffffffffffffffffffff1663e6a439058b856040518363ffffffff1660e01b815260040161067e9291906125b8565b602060405180830381865afa15801561069b573d6000803e3d6000fd5b505050506040513d601f19601f820116820180604052508101906106bf91906125f6565b905060008073ffffffffffffffffffffffffffffffffffffffff168473ffffffffffffffffffffffffffffffffffffffff16148061072857508073ffffffffffffffffffffffffffffffffffffffff168373ffffffffffffffffffffffffffffffffffffffff16145b8061075e57508073ffffffffffffffffffffffffffffffffffffffff168273ffffffffffffffffffffffffffffffffffffffff16145b156107a4578383836040517f4a08888c00000000000000000000000000000000000000000000000000000000815260040161079b93929190612623565b60405180910390fd5b60405180608001604052808573ffffffffffffffffffffffffffffffffffffffff1681526020018473ffffffffffffffffffffffffffffffffffffffff1681526020018373ffffffffffffffffffffffffffffffffffffffff1681526020018673ffffffffffffffffffffffffffffffffffffffff16815250600460070160008201518160000160006101000a81548173ffffffffffffffffffffffffffffffffffffffff021916908373ffffffffffffffffffffffffffffffffffffffff16021790555060208201518160010160006101000a81548173ffffffffffffffffffffffffffffffffffffffff021916908373ffffffffffffffffffffffffffffffffffffffff16021790555060408201518160020160006101000a81548173ffffffffffffffffffffffffffffffffffffffff021916908373ffffffffffffffffffffffffffffffffffffffff16021790555060608201518160030160006101000a81548173ffffffffffffffffffffffffffffffffffffffff021916908373ffffffffffffffffffffffffffffffffffffffff160217905550905050505050505050505050505050565b60008054906101000a900473ffffffffffffffffffffffffffffffffffffffff1681565b6000600360009054906101000a900473ffffffffffffffffffffffffffffffffffffffff1673ffffffffffffffffffffffffffffffffffffffff163373ffffffffffffffffffffffffffffffffffffffff1614610a2b5733600360009054906101000a900473ffffffffffffffffffffffffffffffffffffffff166040517fb6ee3de0000000000000000000000000000000000000000000000000000000008152600401610a229291906125b8565b60405180910390fd5b610a33611aac565b6000610a3d611e2b565b905060006064606285610a509190612689565b610a5a9190612712565b90506000826060015182610a6e9190612743565b905060006305f5e100846000015183610a879190612689565b610a919190612712565b90506000600460070160000160009054906101000a900473ffffffffffffffffffffffffffffffffffffffff1690508185608001511015610d515760006064600460030160159054906101000a900460ff166064610aef9190612799565b60ff16876080015185610b0291906127cd565b610b0c9190612689565b610b169190612712565b905060008114610b265780610b37565b856080015183610b3691906127cd565b5b9050600460050160009054906101000a900473ffffffffffffffffffffffffffffffffffffffff1673ffffffffffffffffffffffffffffffffffffffff166340c10f1983836040518363ffffffff1660e01b8152600401610b99929190612801565b6020604051808303816000875af1158015610bb8573d6000803e3d6000fd5b505050506040513d601f19601f82011682018060405250810190610bdc9190612856565b50600460030160009054906101000a900473ffffffffffffffffffffffffffffffffffffffff1673ffffffffffffffffffffffffffffffffffffffff1663a9059cbb83876040518363ffffffff1660e01b8152600401610c3d929190612801565b6020604051808303816000875af1158015610c5c573d6000803e3d6000fd5b505050506040513d601f19601f82011682018060405250810190610c809190612856565b50600460070160000160009054906101000a900473ffffffffffffffffffffffffffffffffffffffff1673ffffffffffffffffffffffffffffffffffffffff16636a6278426004800160009054906101000a900473ffffffffffffffffffffffffffffffffffffffff166040518263ffffffff1660e01b8152600401610d069190612508565b6020604051808303816000875af1158015610d25573d6000803e3d6000fd5b505050506040513d601f19601f82011682018060405250810190610d499190612898565b965050610f89565b600085604001518660800151610d679190612712565b9050600460050160009054906101000a900473ffffffffffffffffffffffffffffffffffffffff1673ffffffffffffffffffffffffffffffffffffffff166340c10f1983600284610db89190612743565b6040518363ffffffff1660e01b8152600401610dd5929190612801565b6020604051808303816000875af1158015610df4573d6000803e3d6000fd5b505050506040513d601f19601f82011682018060405250810190610e189190612856565b50600460030160009054906101000a900473ffffffffffffffffffffffffffffffffffffffff1673ffffffffffffffffffffffffffffffffffffffff1663a9059cbb83876040518363ffffffff1660e01b8152600401610e79929190612801565b6020604051808303816000875af1158015610e98573d6000803e3d6000fd5b505050506040513d601f19601f82011682018060405250810190610ebc9190612856565b50600460070160000160009054906101000a900473ffffffffffffffffffffffffffffffffffffffff1673ffffffffffffffffffffffffffffffffffffffff16636a6278426004800160009054906101000a900473ffffffffffffffffffffffffffffffffffffffff166040518263ffffffff1660e01b8152600401610f429190612508565b6020604051808303816000875af1158015610f61573d6000803e3d6000fd5b505050506040513d601f19601f82011682018060405250810190610f859190612898565b9650505b5050505050919050565b6000808203610fce576040517f2c0b910600000000000000000000000000000000000000000000000000000000815260040160405180910390fd5b60006127108385610fdf9190612689565b610fe99190612712565b90506301e1338081610ffb9190612712565b91505092915050565b600160009054906101000a900473ffffffffffffffffffffffffffffffffffffffff1673ffffffffffffffffffffffffffffffffffffffff163373ffffffffffffffffffffffffffffffffffffffff16146110ba57600160009054906101000a900473ffffffffffffffffffffffffffffffffffffffff16336040517fc21bbf9d0000000000000000000000000000000000000000000000000000000081526004016110b19291906125b8565b60405180910390fd5b600260009054906101000a900473ffffffffffffffffffffffffffffffffffffffff1673ffffffffffffffffffffffffffffffffffffffff168173ffffffffffffffffffffffffffffffffffffffff16146111705780600260009054906101000a900473ffffffffffffffffffffffffffffffffffffffff166040517f3f0e21330000000000000000000000000000000000000000000000000000000081526004016111679291906125b8565b60405180910390fd5b6000600160006101000a81548173ffffffffffffffffffffffffffffffffffffffff021916908373ffffffffffffffffffffffffffffffffffffffff16021790555050565b60008073ffffffffffffffffffffffffffffffffffffffff16600160009054906101000a900473ffffffffffffffffffffffffffffffffffffffff1673ffffffffffffffffffffffffffffffffffffffff1614905090565b6000600460020160009054906101000a900473ffffffffffffffffffffffffffffffffffffffff1673ffffffffffffffffffffffffffffffffffffffff1663e6a4390585600460050160009054906101000a900473ffffffffffffffffffffffffffffffffffffffff166040518363ffffffff1660e01b81526004016112949291906125b8565b602060405180830381865afa1580156112b1573d6000803e3d6000fd5b505050506040513d601f19601f820116820180604052508101906112d591906125f6565b90506000600460050160009054906101000a900473ffffffffffffffffffffffffffffffffffffffff1673ffffffffffffffffffffffffffffffffffffffff166370a08231836040518263ffffffff1660e01b81526004016113379190612508565b602060405180830381865afa158015611354573d6000803e3d6000fd5b505050506040513d601f19601f820116820180604052508101906113789190612898565b905060008573ffffffffffffffffffffffffffffffffffffffff166370a08231846040518263ffffffff1660e01b81526004016113b59190612508565b602060405180830381865afa1580156113d2573d6000803e3d6000fd5b505050506040513d601f19601f820116820180604052508101906113f69190612898565b90506000611405868385612137565b90506000600460050160009054906101000a900473ffffffffffffffffffffffffffffffffffffffff1673ffffffffffffffffffffffffffffffffffffffff168873ffffffffffffffffffffffffffffffffffffffff1610611467578161146a565b60005b90506000600460050160009054906101000a900473ffffffffffffffffffffffffffffffffffffffff1673ffffffffffffffffffffffffffffffffffffffff168973ffffffffffffffffffffffffffffffffffffffff16106114cd5760006114cf565b825b90508873ffffffffffffffffffffffffffffffffffffffff1663a9059cbb878a6040518363ffffffff1660e01b815260040161150c929190612801565b6020604051808303816000875af115801561152b573d6000803e3d6000fd5b505050506040513d601f19601f8201168201806040525081019061154f9190612856565b508573ffffffffffffffffffffffffffffffffffffffff1663022c0d9f8383306040518463ffffffff1660e01b815260040161158d939291906128fc565b600060405180830381600087803b1580156115a757600080fd5b505af11580156115bb573d6000803e3d6000fd5b5050505060006064846115ce9190612712565b9050600460050160009054906101000a900473ffffffffffffffffffffffffffffffffffffffff1673ffffffffffffffffffffffffffffffffffffffff1663a9059cbb89836040518363ffffffff1660e01b8152600401611630929190612801565b6020604051808303816000875af115801561164f573d6000803e3d6000fd5b505050506040513d601f19601f820116820180604052508101906116739190612856565b50600460050160009054906101000a900473ffffffffffffffffffffffffffffffffffffffff1673ffffffffffffffffffffffffffffffffffffffff166342966c6882866116c191906127cd565b6040518263ffffffff1660e01b81526004016116dd91906123e8565b6020604051808303816000875af11580156116fc573d6000803e3d6000fd5b505050506040513d601f19601f820116820180604052508101906117209190612856565b5050505050505050505050565b600260009054906101000a900473ffffffffffffffffffffffffffffffffffffffff1681565b60006004800160009054906101000a900473ffffffffffffffffffffffffffffffffffffffff16905090565b600146036117b9576040517f27d5b07900000000000000000000000000000000000000000000000000000000815260040160405180910390fd5b80600460060160006101000a81548173ffffffffffffffffffffffffffffffffffffffff021916908373ffffffffffffffffffffffffffffffffffffffff16021790555050565b600160009054906101000a900473ffffffffffffffffffffffffffffffffffffffff1681565b600073ffffffffffffffffffffffffffffffffffffffff16600260009054906101000a900473ffffffffffffffffffffffffffffffffffffffff1673ffffffffffffffffffffffffffffffffffffffff16141580156118d35750600260009054906101000a900473ffffffffffffffffffffffffffffffffffffffff1673ffffffffffffffffffffffffffffffffffffffff163373ffffffffffffffffffffffffffffffffffffffff1614155b80156118e357506118e26111b5565b5b1561194957600160009054906101000a900473ffffffffffffffffffffffffffffffffffffffff16336040517fc21bbf9d0000000000000000000000000000000000000000000000000000000081526004016119409291906125b8565b60405180910390fd5b80600260006101000a81548173ffffffffffffffffffffffffffffffffffffffff021916908373ffffffffffffffffffffffffffffffffffffffff1602179055506000806101000a81549073ffffffffffffffffffffffffffffffffffffffff021916905550565b6119b96111b5565b8015611a5e5750600260009054906101000a900473ffffffffffffffffffffffffffffffffffffffff1673ffffffffffffffffffffffffffffffffffffffff1663b7ebc23b826040518263ffffffff1660e01b8152600401611a1b9190612508565b602060405180830381865afa158015611a38573d6000803e3d6000fd5b505050506040513d601f19601f82011682018060405250810190611a5c9190612856565b155b15611aa957611a6b6111b5565b816040517f64218e39000000000000000000000000000000000000000000000000000000008152600401611aa0929190612946565b60405180910390fd5b50565b600060046007016040518060800160405290816000820160009054906101000a900473ffffffffffffffffffffffffffffffffffffffff1673ffffffffffffffffffffffffffffffffffffffff1673ffffffffffffffffffffffffffffffffffffffff1681526020016001820160009054906101000a900473ffffffffffffffffffffffffffffffffffffffff1673ffffffffffffffffffffffffffffffffffffffff1673ffffffffffffffffffffffffffffffffffffffff1681526020016002820160009054906101000a900473ffffffffffffffffffffffffffffffffffffffff1673ffffffffffffffffffffffffffffffffffffffff1673ffffffffffffffffffffffffffffffffffffffff1681526020016003820160009054906101000a900473ffffffffffffffffffffffffffffffffffffffff1673ffffffffffffffffffffffffffffffffffffffff1673ffffffffffffffffffffffffffffffffffffffff16815250509050806060015173ffffffffffffffffffffffffffffffffffffffff1663c640752d600460030160009054906101000a900473ffffffffffffffffffffffffffffffffffffffff16600460050160009054906101000a900473ffffffffffffffffffffffffffffffffffffffff166040518363ffffffff1660e01b8152600401611ca19291906125b8565b600060405180830381600087803b158015611cbb57600080fd5b505af1158015611ccf573d6000803e3d6000fd5b50505050806060015173ffffffffffffffffffffffffffffffffffffffff1663c640752d600460030160009054906101000a900473ffffffffffffffffffffffffffffffffffffffff16600460060160009054906101000a900473ffffffffffffffffffffffffffffffffffffffff166040518363ffffffff1660e01b8152600401611d5c9291906125b8565b600060405180830381600087803b158015611d7657600080fd5b505af1158015611d8a573d6000803e3d6000fd5b50505050806060015173ffffffffffffffffffffffffffffffffffffffff1663c640752d600460030160009054906101000a900473ffffffffffffffffffffffffffffffffffffffff1683600001516040518363ffffffff1660e01b8152600401611df69291906125b8565b600060405180830381600087803b158015611e1057600080fd5b505af1158015611e24573d6000803e3d6000fd5b5050505050565b611e3361218f565b600460070160030160009054906101000a900473ffffffffffffffffffffffffffffffffffffffff1673ffffffffffffffffffffffffffffffffffffffff1663636cfa0c600460030160009054906101000a900473ffffffffffffffffffffffffffffffffffffffff16600460050160009054906101000a900473ffffffffffffffffffffffffffffffffffffffff166305f5e1006040518463ffffffff1660e01b8152600401611ee69392919061296f565b602060405180830381865afa158015611f03573d6000803e3d6000fd5b505050506040513d601f19601f82011682018060405250810190611f279190612898565b816000018181525050600460070160030160009054906101000a900473ffffffffffffffffffffffffffffffffffffffff1673ffffffffffffffffffffffffffffffffffffffff1663636cfa0c600460070160000160009054906101000a900473ffffffffffffffffffffffffffffffffffffffff16600460030160009054906101000a900473ffffffffffffffffffffffffffffffffffffffff166305f5e1006040518463ffffffff1660e01b8152600401611fe69392919061296f565b602060405180830381865afa158015612003573d6000803e3d6000fd5b505050506040513d601f19601f820116820180604052508101906120279190612898565b816020018181525050600460070160000160009054906101000a900473ffffffffffffffffffffffffffffffffffffffff1673ffffffffffffffffffffffffffffffffffffffff166318160ddd6040518163ffffffff1660e01b8152600401602060405180830381865afa1580156120a3573d6000803e3d6000fd5b505050506040513d601f19601f820116820180604052508101906120c79190612898565b8160400181815250506305f5e10060026120e19190612689565b816040015182602001516120f59190612689565b6120ff9190612712565b8160600181815250506305f5e100816000015182606001516121219190612689565b61212b9190612712565b81608001818152505090565b6000806103e5856121489190612689565b9050600083826121589190612689565b90506000826103e88761216b9190612689565b6121759190612743565b905080826121839190612712565b93505050509392505050565b6040518060a0016040528060008152602001600081526020016000815260200160008152602001600081525090565b600080fd5b600073ffffffffffffffffffffffffffffffffffffffff82169050919050565b60006121ee826121c3565b9050919050565b6121fe816121e3565b811461220957600080fd5b50565b60008135905061221b816121f5565b92915050565b6000819050919050565b61223481612221565b811461223f57600080fd5b50565b6000813590506122518161222b565b92915050565b600060ff82169050919050565b61226d81612257565b811461227857600080fd5b50565b60008135905061228a81612264565b92915050565b600080600080600080600060e0888a0312156122af576122ae6121be565b5b60006122bd8a828b0161220c565b97505060206122ce8a828b0161220c565b96505060406122df8a828b0161220c565b95505060606122f08a828b01612242565b94505060806123018a828b0161227b565b93505060a06123128a828b0161227b565b92505060c06123238a828b0161220c565b91505092959891949750929550565b6000819050919050565b600061235761235261234d846121c3565b612332565b6121c3565b9050919050565b60006123698261233c565b9050919050565b600061237b8261235e565b9050919050565b61238b81612370565b82525050565b60006020820190506123a66000830184612382565b92915050565b6000602082840312156123c2576123c16121be565b5b60006123d084828501612242565b91505092915050565b6123e281612221565b82525050565b60006020820190506123fd60008301846123d9565b92915050565b6000806040838503121561241a576124196121be565b5b600061242885828601612242565b925050602061243985828601612242565b9150509250929050565b600060208284031215612459576124586121be565b5b60006124678482850161220c565b91505092915050565b60008115159050919050565b61248581612470565b82525050565b60006020820190506124a0600083018461247c565b92915050565b6000806000606084860312156124bf576124be6121be565b5b60006124cd8682870161220c565b93505060206124de86828701612242565b92505060406124ef8682870161220c565b9150509250925092565b612502816121e3565b82525050565b600060208201905061251d60008301846124f9565b92915050565b61252c81612257565b82525050565b60006020820190506125476000830184612523565b92915050565b6000612558826121e3565b9050919050565b6125688161254d565b811461257357600080fd5b50565b6000815190506125858161255f565b92915050565b6000602082840312156125a1576125a06121be565b5b60006125af84828501612576565b91505092915050565b60006040820190506125cd60008301856124f9565b6125da60208301846124f9565b9392505050565b6000815190506125f0816121f5565b92915050565b60006020828403121561260c5761260b6121be565b5b600061261a848285016125e1565b91505092915050565b600060608201905061263860008301866124f9565b61264560208301856124f9565b61265260408301846124f9565b949350505050565b7f4e487b7100000000000000000000000000000000000000000000000000000000600052601160045260246000fd5b600061269482612221565b915061269f83612221565b9250817fffffffffffffffffffffffffffffffffffffffffffffffffffffffffffffffff04831182151516156126d8576126d761265a565b5b828202905092915050565b7f4e487b7100000000000000000000000000000000000000000000000000000000600052601260045260246000fd5b600061271d82612221565b915061272883612221565b925082612738576127376126e3565b5b828204905092915050565b600061274e82612221565b915061275983612221565b9250827fffffffffffffffffffffffffffffffffffffffffffffffffffffffffffffffff0382111561278e5761278d61265a565b5b828201905092915050565b60006127a482612257565b91506127af83612257565b9250828210156127c2576127c161265a565b5b828203905092915050565b60006127d882612221565b91506127e383612221565b9250828210156127f6576127f561265a565b5b828203905092915050565b600060408201905061281660008301856124f9565b61282360208301846123d9565b9392505050565b61283381612470565b811461283e57600080fd5b50565b6000815190506128508161282a565b92915050565b60006020828403121561286c5761286b6121be565b5b600061287a84828501612841565b91505092915050565b6000815190506128928161222b565b92915050565b6000602082840312156128ae576128ad6121be565b5b60006128bc84828501612883565b91505092915050565b600082825260208201905092915050565b50565b60006128e66000836128c5565b91506128f1826128d6565b600082019050919050565b600060808201905061291160008301866123d9565b61291e60208301856123d9565b61292b60408301846124f9565b818103606083015261293c816128d9565b9050949350505050565b600060408201905061295b600083018561247c565b61296860208301846124f9565b9392505050565b600060608201905061298460008301866124f9565b61299160208301856124f9565b61299e60408301846123d9565b94935050505056fea2646970667358221220af9edc148cfe7cdd9c57b6b273e81a58a495774c81a886291ffe334316c11c0f64736f6c634300080d00336080604052348015600f57600080fd5b50603f80601d6000396000f3fe6080604052600080fdfea264697066735822122022234246f97bbfae62d0b0ae82086e322ab48046aebfc9e4bc9fdf2b22ebf3c864736f6c634300080d0033",
  "linkReferences": {},
  "deployedLinkReferences": {}
}