{
  "_format": "hh-sol-artifact-1",
  "contractName": "SimpleMockTokenToken",
  "sourceName": "contracts/testing/SimpleMockToken.sol",
  "abi": [
    {
      "inputs": [
        {
          "internalType": "string",
          "name": "name",
          "type": "string"
        },
        {
          "internalType": "string",
          "name": "symbol",
          "type": "string"
        }
      ],
      "stateMutability": "nonpayable",
      "type": "constructor"
    },
    {
      "inputs": [
        {
          "internalType": "uint256",
          "name": "allowance",
          "type": "uint256"
        },
        {
          "internalType": "uint256",
          "name": "amount",
          "type": "uint256"
        }
      ],
      "name": "AllowanceExceeded",
      "type": "error"
    },
    {
      "inputs": [
        {
          "internalType": "uint256",
          "name": "allowance",
          "type": "uint256"
        },
        {
          "internalType": "uint256",
          "name": "subtraction",
          "type": "uint256"
        }
      ],
      "name": "AllowanceUnderflow",
      "type": "error"
    },
    {
      "inputs": [
        {
          "internalType": "uint256",
          "name": "accountBalance",
          "type": "uint256"
        },
        {
          "internalType": "uint256",
          "name": "amount",
          "type": "uint256"
        }
      ],
      "name": "BurnUnderflow",
      "type": "error"
    },
    {
      "inputs": [
        {
          "internalType": "address",
          "name": "caller",
          "type": "address"
        },
        {
          "internalType": "address",
          "name": "owner",
          "type": "address"
        }
      ],
      "name": "OnlyOwner",
      "type": "error"
    },
    {
      "inputs": [],
      "name": "TransferToZeroAddress",
      "type": "error"
    },
    {
      "inputs": [
        {
          "internalType": "uint256",
          "name": "senderBalance",
          "type": "uint256"
        },
        {
          "internalType": "uint256",
          "name": "fee",
          "type": "uint256"
        },
        {
          "internalType": "uint256",
          "name": "amount",
          "type": "uint256"
        }
      ],
      "name": "TransferUnderflow",
      "type": "error"
    },
    {
      "anonymous": false,
      "inputs": [
        {
          "indexed": true,
          "internalType": "address",
          "name": "owner",
          "type": "address"
        },
        {
          "indexed": true,
          "internalType": "address",
          "name": "spender",
          "type": "address"
        },
        {
          "indexed": false,
          "internalType": "uint256",
          "name": "value",
          "type": "uint256"
        }
      ],
      "name": "Approval",
      "type": "event"
    },
    {
      "anonymous": false,
      "inputs": [
        {
          "indexed": true,
          "internalType": "address",
          "name": "previousOwner",
          "type": "address"
        },
        {
          "indexed": true,
          "internalType": "address",
          "name": "newOwner",
          "type": "address"
        }
      ],
      "name": "OwnershipTransferred",
      "type": "event"
    },
    {
      "anonymous": false,
      "inputs": [
        {
          "indexed": true,
          "internalType": "address",
          "name": "from",
          "type": "address"
        },
        {
          "indexed": true,
          "internalType": "address",
          "name": "to",
          "type": "address"
        },
        {
          "indexed": false,
          "internalType": "uint256",
          "name": "value",
          "type": "uint256"
        }
      ],
      "name": "Transfer",
      "type": "event"
    },
    {
      "inputs": [
        {
          "internalType": "address",
          "name": "owner",
          "type": "address"
        },
        {
          "internalType": "address",
          "name": "spender",
          "type": "address"
        }
      ],
      "name": "allowance",
      "outputs": [
        {
          "internalType": "uint256",
          "name": "",
          "type": "uint256"
        }
      ],
      "stateMutability": "view",
      "type": "function"
    },
    {
      "inputs": [
        {
          "internalType": "address",
          "name": "spender",
          "type": "address"
        },
        {
          "internalType": "uint256",
          "name": "amount",
          "type": "uint256"
        }
      ],
      "name": "approve",
      "outputs": [
        {
          "internalType": "bool",
          "name": "",
          "type": "bool"
        }
      ],
      "stateMutability": "nonpayable",
      "type": "function"
    },
    {
      "inputs": [
        {
          "internalType": "address",
          "name": "account",
          "type": "address"
        }
      ],
      "name": "balanceOf",
      "outputs": [
        {
          "internalType": "uint256",
          "name": "",
          "type": "uint256"
        }
      ],
      "stateMutability": "view",
      "type": "function"
    },
    {
      "inputs": [
        {
          "internalType": "uint256",
          "name": "amount",
          "type": "uint256"
        }
      ],
      "name": "burn",
      "outputs": [
        {
          "internalType": "bool",
          "name": "",
          "type": "bool"
        }
      ],
      "stateMutability": "nonpayable",
      "type": "function"
    },
    {
      "inputs": [
        {
          "internalType": "address",
          "name": "account",
          "type": "address"
        },
        {
          "internalType": "uint256",
          "name": "amount",
          "type": "uint256"
        }
      ],
      "name": "burnFrom",
      "outputs": [],
      "stateMutability": "nonpayable",
      "type": "function"
    },
    {
      "inputs": [],
      "name": "decimals",
      "outputs": [
        {
          "internalType": "uint8",
          "name": "",
          "type": "uint8"
        }
      ],
      "stateMutability": "view",
      "type": "function"
    },
    {
      "inputs": [
        {
          "internalType": "address",
          "name": "spender",
          "type": "address"
        },
        {
          "internalType": "uint256",
          "name": "subtractedValue",
          "type": "uint256"
        }
      ],
      "name": "decreaseAllowance",
      "outputs": [
        {
          "internalType": "bool",
          "name": "",
          "type": "bool"
        }
      ],
      "stateMutability": "nonpayable",
      "type": "function"
    },
    {
      "inputs": [
        {
          "internalType": "address",
          "name": "spender",
          "type": "address"
        },
        {
          "internalType": "uint256",
          "name": "addedValue",
          "type": "uint256"
        }
      ],
      "name": "increaseAllowance",
      "outputs": [
        {
          "internalType": "bool",
          "name": "",
          "type": "bool"
        }
      ],
      "stateMutability": "nonpayable",
      "type": "function"
    },
    {
      "inputs": [
        {
          "internalType": "uint256",
          "name": "amount",
          "type": "uint256"
        }
      ],
      "name": "mint",
      "outputs": [],
      "stateMutability": "nonpayable",
      "type": "function"
    },
    {
      "inputs": [],
      "name": "name",
      "outputs": [
        {
          "internalType": "string",
          "name": "",
          "type": "string"
        }
      ],
      "stateMutability": "view",
      "type": "function"
    },
    {
      "inputs": [],
      "name": "owner",
      "outputs": [
        {
          "internalType": "address",
          "name": "",
          "type": "address"
        }
      ],
      "stateMutability": "view",
      "type": "function"
    },
    {
      "inputs": [],
      "name": "symbol",
      "outputs": [
        {
          "internalType": "string",
          "name": "",
          "type": "string"
        }
      ],
      "stateMutability": "view",
      "type": "function"
    },
    {
      "inputs": [],
      "name": "totalSupply",
      "outputs": [
        {
          "internalType": "uint256",
          "name": "",
          "type": "uint256"
        }
      ],
      "stateMutability": "view",
      "type": "function"
    },
    {
      "inputs": [
        {
          "internalType": "address",
          "name": "recipient",
          "type": "address"
        },
        {
          "internalType": "uint256",
          "name": "amount",
          "type": "uint256"
        }
      ],
      "name": "transfer",
      "outputs": [
        {
          "internalType": "bool",
          "name": "",
          "type": "bool"
        }
      ],
      "stateMutability": "nonpayable",
      "type": "function"
    },
    {
      "inputs": [
        {
          "internalType": "address",
          "name": "_to",
          "type": "address"
        },
        {
          "internalType": "uint256",
          "name": "_value",
          "type": "uint256"
        },
        {
          "internalType": "bytes",
          "name": "_data",
          "type": "bytes"
        }
      ],
      "name": "transferAndCall",
      "outputs": [
        {
          "internalType": "bool",
          "name": "success",
          "type": "bool"
        }
      ],
      "stateMutability": "nonpayable",
      "type": "function"
    },
    {
      "inputs": [
        {
          "internalType": "address",
          "name": "sender",
          "type": "address"
        },
        {
          "internalType": "address",
          "name": "recipient",
          "type": "address"
        },
        {
          "internalType": "uint256",
          "name": "amount",
          "type": "uint256"
        }
      ],
      "name": "transferFrom",
      "outputs": [
        {
          "internalType": "bool",
          "name": "",
          "type": "bool"
        }
      ],
      "stateMutability": "nonpayable",
      "type": "function"
    },
    {
      "inputs": [
        {
          "internalType": "address",
          "name": "newOwner",
          "type": "address"
        }
      ],
      "name": "transferOwnership",
      "outputs": [],
      "stateMutability": "nonpayable",
      "type": "function"
    }
  ],
  "bytecode": "0x60806040523480156200001157600080fd5b5060405162001d7d38038062001d7d833981810160405281019062000037919062000497565b818181818160039080519060200190620000539291906200024a565b5080600490805190602001906200006c9291906200024a565b5050506200008033620000a660201b60201c565b50506200009e3369152d02c7e14af68000006200016c60201b60201c565b505062000644565b6000600560009054906101000a900473ffffffffffffffffffffffffffffffffffffffff16905081600560006101000a81548173ffffffffffffffffffffffffffffffffffffffff021916908373ffffffffffffffffffffffffffffffffffffffff1602179055508173ffffffffffffffffffffffffffffffffffffffff168173ffffffffffffffffffffffffffffffffffffffff167f8be0079c531659141344cd1fd0a4f28419497f9722a3daafe3b4186f6b6457e060405160405180910390a35050565b806002600082825462000180919062000555565b92505081905550806000808473ffffffffffffffffffffffffffffffffffffffff1673ffffffffffffffffffffffffffffffffffffffff1681526020019081526020016000206000828254620001d7919062000555565b925050819055508173ffffffffffffffffffffffffffffffffffffffff16600073ffffffffffffffffffffffffffffffffffffffff167fddf252ad1be2c89b69c2b068fc378daa952ba7f163c4a11628f55a4df523b3ef836040516200023e9190620005c3565b60405180910390a35050565b82805462000258906200060f565b90600052602060002090601f0160209004810192826200027c5760008555620002c8565b82601f106200029757805160ff1916838001178555620002c8565b82800160010185558215620002c8579182015b82811115620002c7578251825591602001919060010190620002aa565b5b509050620002d79190620002db565b5090565b5b80821115620002f6576000816000905550600101620002dc565b5090565b6000604051905090565b600080fd5b600080fd5b600080fd5b600080fd5b6000601f19601f8301169050919050565b7f4e487b7100000000000000000000000000000000000000000000000000000000600052604160045260246000fd5b620003638262000318565b810181811067ffffffffffffffff8211171562000385576200038462000329565b5b80604052505050565b60006200039a620002fa565b9050620003a8828262000358565b919050565b600067ffffffffffffffff821115620003cb57620003ca62000329565b5b620003d68262000318565b9050602081019050919050565b60005b8381101562000403578082015181840152602081019050620003e6565b8381111562000413576000848401525b50505050565b6000620004306200042a84620003ad565b6200038e565b9050828152602081018484840111156200044f576200044e62000313565b5b6200045c848285620003e3565b509392505050565b600082601f8301126200047c576200047b6200030e565b5b81516200048e84826020860162000419565b91505092915050565b60008060408385031215620004b157620004b062000304565b5b600083015167ffffffffffffffff811115620004d257620004d162000309565b5b620004e08582860162000464565b925050602083015167ffffffffffffffff81111562000504576200050362000309565b5b620005128582860162000464565b9150509250929050565b6000819050919050565b7f4e487b7100000000000000000000000000000000000000000000000000000000600052601160045260246000fd5b600062000562826200051c565b91506200056f836200051c565b9250827fffffffffffffffffffffffffffffffffffffffffffffffffffffffffffffffff03821115620005a757620005a662000526565b5b828201905092915050565b620005bd816200051c565b82525050565b6000602082019050620005da6000830184620005b2565b92915050565b7f4e487b7100000000000000000000000000000000000000000000000000000000600052602260045260246000fd5b600060028204905060018216806200062857607f821691505b6020821081036200063e576200063d620005e0565b5b50919050565b61172980620006546000396000f3fe608060405234801561001057600080fd5b506004361061010b5760003560e01c806370a08231116100a2578063a0712d6811610071578063a0712d68146102e2578063a457c2d7146102fe578063a9059cbb1461032e578063dd62ed3e1461035e578063f2fde38b1461038e5761010b565b806370a082311461025a57806379cc67901461028a5780638da5cb5b146102a657806395d89b41146102c45761010b565b8063313ce567116100de578063313ce567146101ac57806339509351146101ca5780634000aea0146101fa57806342966c681461022a5761010b565b806306fdde0314610110578063095ea7b31461012e57806318160ddd1461015e57806323b872dd1461017c575b600080fd5b6101186103aa565b604051610125919061101d565b60405180910390f35b610148600480360381019061014391906110e7565b61043c565b6040516101559190611142565b60405180910390f35b610166610453565b604051610173919061116c565b60405180910390f35b61019660048036038101906101919190611187565b61045d565b6040516101a39190611142565b60405180910390f35b6101b4610580565b6040516101c191906111f6565b60405180910390f35b6101e460048036038101906101df91906110e7565b610589565b6040516101f19190611142565b60405180910390f35b610214600480360381019061020f9190611346565b610627565b6040516102219190611142565b60405180910390f35b610244600480360381019061023f91906113b5565b610659565b6040516102519190611142565b60405180910390f35b610274600480360381019061026f91906113e2565b61066e565b604051610281919061116c565b60405180910390f35b6102a4600480360381019061029f91906110e7565b6106b6565b005b6102ae610730565b6040516102bb919061141e565b60405180910390f35b6102cc61075a565b6040516102d9919061101d565b60405180910390f35b6102fc60048036038101906102f791906113b5565b6107ec565b005b610318600480360381019061031391906110e7565b6107f9565b6040516103259190611142565b60405180910390f35b610348600480360381019061034391906110e7565b6108da565b6040516103559190611142565b60405180910390f35b61037860048036038101906103739190611439565b6108f1565b604051610385919061116c565b60405180910390f35b6103a860048036038101906103a391906113e2565b610978565b005b6060600380546103b9906114a8565b80601f01602080910402602001604051908101604052809291908181526020018280546103e5906114a8565b80156104325780601f1061040757610100808354040283529160200191610432565b820191906000526020600020905b81548152906001019060200180831161041557829003601f168201915b5050505050905090565b6000610449338484610a61565b6001905092915050565b6000600254905090565b600061046a848484610b4c565b6000600160008673ffffffffffffffffffffffffffffffffffffffff1673ffffffffffffffffffffffffffffffffffffffff16815260200190815260200160002060003373ffffffffffffffffffffffffffffffffffffffff1673ffffffffffffffffffffffffffffffffffffffff1681526020019081526020016000205490507fffffffffffffffffffffffffffffffffffffffffffffffffffffffffffffffff811415801561051a57508083115b1561055e5780836040517fa92482560000000000000000000000000000000000000000000000000000000081526004016105559291906114d9565b60405180910390fd5b6105748533858461056f9190611531565b610a61565b60019150509392505050565b60006012905090565b600061061d338484600160003373ffffffffffffffffffffffffffffffffffffffff1673ffffffffffffffffffffffffffffffffffffffff16815260200190815260200160002060008873ffffffffffffffffffffffffffffffffffffffff1673ffffffffffffffffffffffffffffffffffffffff168152602001908152602001600020546106189190611565565b610a61565b6001905092915050565b6000610634338585610b4c565b61063d84610cd5565b1561064e5761064d848484610ce8565b5b600190509392505050565b60006106653383610d62565b60019050919050565b60008060008373ffffffffffffffffffffffffffffffffffffffff1673ffffffffffffffffffffffffffffffffffffffff168152602001908152602001600020549050919050565b60006106c283336108f1565b90508181101561070b5780826040517fa92482560000000000000000000000000000000000000000000000000000000081526004016107029291906114d9565b60405180910390fd5b6107218333848461071c9190611531565b610a61565b61072b8383610d62565b505050565b6000600560009054906101000a900473ffffffffffffffffffffffffffffffffffffffff16905090565b606060048054610769906114a8565b80601f0160208091040260200160405190810160405280929190818152602001828054610795906114a8565b80156107e25780601f106107b7576101008083540402835291602001916107e2565b820191906000526020600020905b8154815290600101906020018083116107c557829003601f168201915b5050505050905090565b6107f63382610eac565b50565b600080600160003373ffffffffffffffffffffffffffffffffffffffff1673ffffffffffffffffffffffffffffffffffffffff16815260200190815260200160002060008573ffffffffffffffffffffffffffffffffffffffff1673ffffffffffffffffffffffffffffffffffffffff168152602001908152602001600020549050828110156108c25780836040517fda2d822c0000000000000000000000000000000000000000000000000000000081526004016108b99291906114d9565b60405180910390fd5b6108cf3385858403610a61565b600191505092915050565b60006108e7338484610b4c565b6001905092915050565b6000600160008473ffffffffffffffffffffffffffffffffffffffff1673ffffffffffffffffffffffffffffffffffffffff16815260200190815260200160002060008373ffffffffffffffffffffffffffffffffffffffff1673ffffffffffffffffffffffffffffffffffffffff16815260200190815260200160002054905092915050565b3373ffffffffffffffffffffffffffffffffffffffff16610997610730565b73ffffffffffffffffffffffffffffffffffffffff16146109f857336109bb610730565b6040517fa3ee740f0000000000000000000000000000000000000000000000000000000081526004016109ef9291906115bb565b60405180910390fd5b600073ffffffffffffffffffffffffffffffffffffffff168173ffffffffffffffffffffffffffffffffffffffff1603610a5e576040517fea553b3400000000000000000000000000000000000000000000000000000000815260040160405180910390fd5b50565b80600160008573ffffffffffffffffffffffffffffffffffffffff1673ffffffffffffffffffffffffffffffffffffffff16815260200190815260200160002060008473ffffffffffffffffffffffffffffffffffffffff1673ffffffffffffffffffffffffffffffffffffffff168152602001908152602001600020819055508173ffffffffffffffffffffffffffffffffffffffff168373ffffffffffffffffffffffffffffffffffffffff167f8c5be1e5ebec7d5bd14f71427d1e84f3dd0314c0f7b2291e5b200ac8c7c3b92583604051610b3f919061116c565b60405180910390a3505050565b60008060008573ffffffffffffffffffffffffffffffffffffffff1673ffffffffffffffffffffffffffffffffffffffff16815260200190815260200160002054905081811015610bd957806000836040517f57b9c4a4000000000000000000000000000000000000000000000000000000008152600401610bd093929190611629565b60405180910390fd5b8181036000808673ffffffffffffffffffffffffffffffffffffffff1673ffffffffffffffffffffffffffffffffffffffff16815260200190815260200160002081905550816000808573ffffffffffffffffffffffffffffffffffffffff1673ffffffffffffffffffffffffffffffffffffffff168152602001908152602001600020600082825401925050819055508273ffffffffffffffffffffffffffffffffffffffff168473ffffffffffffffffffffffffffffffffffffffff167fddf252ad1be2c89b69c2b068fc378daa952ba7f163c4a11628f55a4df523b3ef84604051610cc7919061116c565b60405180910390a350505050565b600080823b905060008111915050919050565b60008390508073ffffffffffffffffffffffffffffffffffffffff1663a4c0ed363385856040518463ffffffff1660e01b8152600401610d2a939291906116b5565b600060405180830381600087803b158015610d4457600080fd5b505af1158015610d58573d6000803e3d6000fd5b5050505050505050565b60008060008473ffffffffffffffffffffffffffffffffffffffff1673ffffffffffffffffffffffffffffffffffffffff16815260200190815260200160002054905081811015610dec5780826040517f0a37dd41000000000000000000000000000000000000000000000000000000008152600401610de39291906114d9565b60405180910390fd5b8181036000808573ffffffffffffffffffffffffffffffffffffffff1673ffffffffffffffffffffffffffffffffffffffff1681526020019081526020016000208190555081600260008282540392505081905550600073ffffffffffffffffffffffffffffffffffffffff168373ffffffffffffffffffffffffffffffffffffffff167fddf252ad1be2c89b69c2b068fc378daa952ba7f163c4a11628f55a4df523b3ef84604051610e9f919061116c565b60405180910390a3505050565b8060026000828254610ebe9190611565565b92505081905550806000808473ffffffffffffffffffffffffffffffffffffffff1673ffffffffffffffffffffffffffffffffffffffff1681526020019081526020016000206000828254610f139190611565565b925050819055508173ffffffffffffffffffffffffffffffffffffffff16600073ffffffffffffffffffffffffffffffffffffffff167fddf252ad1be2c89b69c2b068fc378daa952ba7f163c4a11628f55a4df523b3ef83604051610f78919061116c565b60405180910390a35050565b600081519050919050565b600082825260208201905092915050565b60005b83811015610fbe578082015181840152602081019050610fa3565b83811115610fcd576000848401525b50505050565b6000601f19601f8301169050919050565b6000610fef82610f84565b610ff98185610f8f565b9350611009818560208601610fa0565b61101281610fd3565b840191505092915050565b600060208201905081810360008301526110378184610fe4565b905092915050565b6000604051905090565b600080fd5b600080fd5b600073ffffffffffffffffffffffffffffffffffffffff82169050919050565b600061107e82611053565b9050919050565b61108e81611073565b811461109957600080fd5b50565b6000813590506110ab81611085565b92915050565b6000819050919050565b6110c4816110b1565b81146110cf57600080fd5b50565b6000813590506110e1816110bb565b92915050565b600080604083850312156110fe576110fd611049565b5b600061110c8582860161109c565b925050602061111d858286016110d2565b9150509250929050565b60008115159050919050565b61113c81611127565b82525050565b60006020820190506111576000830184611133565b92915050565b611166816110b1565b82525050565b6000602082019050611181600083018461115d565b92915050565b6000806000606084860312156111a05761119f611049565b5b60006111ae8682870161109c565b93505060206111bf8682870161109c565b92505060406111d0868287016110d2565b9150509250925092565b600060ff82169050919050565b6111f0816111da565b82525050565b600060208201905061120b60008301846111e7565b92915050565b600080fd5b600080fd5b7f4e487b7100000000000000000000000000000000000000000000000000000000600052604160045260246000fd5b61125382610fd3565b810181811067ffffffffffffffff821117156112725761127161121b565b5b80604052505050565b600061128561103f565b9050611291828261124a565b919050565b600067ffffffffffffffff8211156112b1576112b061121b565b5b6112ba82610fd3565b9050602081019050919050565b82818337600083830152505050565b60006112e96112e484611296565b61127b565b90508281526020810184848401111561130557611304611216565b5b6113108482856112c7565b509392505050565b600082601f83011261132d5761132c611211565b5b813561133d8482602086016112d6565b91505092915050565b60008060006060848603121561135f5761135e611049565b5b600061136d8682870161109c565b935050602061137e868287016110d2565b925050604084013567ffffffffffffffff81111561139f5761139e61104e565b5b6113ab86828701611318565b9150509250925092565b6000602082840312156113cb576113ca611049565b5b60006113d9848285016110d2565b91505092915050565b6000602082840312156113f8576113f7611049565b5b60006114068482850161109c565b91505092915050565b61141881611073565b82525050565b6000602082019050611433600083018461140f565b92915050565b600080604083850312156114505761144f611049565b5b600061145e8582860161109c565b925050602061146f8582860161109c565b9150509250929050565b7f4e487b7100000000000000000000000000000000000000000000000000000000600052602260045260246000fd5b600060028204905060018216806114c057607f821691505b6020821081036114d3576114d2611479565b5b50919050565b60006040820190506114ee600083018561115d565b6114fb602083018461115d565b9392505050565b7f4e487b7100000000000000000000000000000000000000000000000000000000600052601160045260246000fd5b600061153c826110b1565b9150611547836110b1565b92508282101561155a57611559611502565b5b828203905092915050565b6000611570826110b1565b915061157b836110b1565b9250827fffffffffffffffffffffffffffffffffffffffffffffffffffffffffffffffff038211156115b0576115af611502565b5b828201905092915050565b60006040820190506115d0600083018561140f565b6115dd602083018461140f565b9392505050565b6000819050919050565b6000819050919050565b600061161361160e611609846115e4565b6115ee565b6110b1565b9050919050565b611623816115f8565b82525050565b600060608201905061163e600083018661115d565b61164b602083018561161a565b611658604083018461115d565b949350505050565b600081519050919050565b600082825260208201905092915050565b600061168782611660565b611691818561166b565b93506116a1818560208601610fa0565b6116aa81610fd3565b840191505092915050565b60006060820190506116ca600083018661140f565b6116d7602083018561115d565b81810360408301526116e9818461167c565b905094935050505056fea26469706673582212203c054d4786b3df3e34b445a5e790fb0b684058e2dd7596a170568332bbb72bfb64736f6c634300080d0033",
  "linkReferences": {},
  "deployedLinkReferences": {}
}