{
  "_format": "hh-sol-artifact-1",
  "contractName": "BurnEYESnufferCap",
  "sourceName": "contracts/periphery/BehodlerLite/BurnEYESnufferCap.sol",
  "abi": [
    {
      "inputs": [
        {
          "internalType": "address",
          "name": "EYE",
          "type": "address"
        },
        {
          "internalType": "address",
          "name": "receiver",
          "type": "address"
        }
      ],
      "stateMutability": "nonpayable",
      "type": "constructor"
    },
    {
      "inputs": [],
      "name": "_liquidityReceiver",
      "outputs": [
        {
          "internalType": "contract LiquidityReceiverLike",
          "name": "",
          "type": "address"
        }
      ],
      "stateMutability": "view",
      "type": "function"
    },
    {
      "inputs": [
        {
          "internalType": "address",
          "name": "pyroToken",
          "type": "address"
        },
        {
          "internalType": "address",
          "name": "targetContract",
          "type": "address"
        },
        {
          "internalType": "enum FeeExemption",
          "name": "exempt",
          "type": "uint8"
        }
      ],
      "name": "snuff",
      "outputs": [
        {
          "internalType": "bool",
          "name": "",
          "type": "bool"
        }
      ],
      "stateMutability": "nonpayable",
      "type": "function"
    }
  ],
  "bytecode": "0x608060405234801561001057600080fd5b5060405161094d38038061094d8339818101604052810190610032919061011f565b80806000806101000a81548173ffffffffffffffffffffffffffffffffffffffff021916908373ffffffffffffffffffffffffffffffffffffffff1602179055505081600160006101000a81548173ffffffffffffffffffffffffffffffffffffffff021916908373ffffffffffffffffffffffffffffffffffffffff160217905550505061015f565b600080fd5b600073ffffffffffffffffffffffffffffffffffffffff82169050919050565b60006100ec826100c1565b9050919050565b6100fc816100e1565b811461010757600080fd5b50565b600081519050610119816100f3565b92915050565b60008060408385031215610136576101356100bc565b5b60006101448582860161010a565b92505060206101558582860161010a565b9150509250929050565b6107df8061016e6000396000f3fe608060405234801561001057600080fd5b50600436106100365760003560e01c8063b5f57c9a1461003b578063b768d6cd1461006b575b600080fd5b610055600480360381019061005091906103f9565b610089565b6040516100629190610467565b60405180910390f35b6100736102b9565b60405161008091906104e1565b60405180910390f35b6000600160009054906101000a900473ffffffffffffffffffffffffffffffffffffffff1673ffffffffffffffffffffffffffffffffffffffff166323b872dd3330683635c9adc5dea000006040518463ffffffff1660e01b81526004016100f393929190610550565b6020604051808303816000875af1158015610112573d6000803e3d6000fd5b505050506040513d601f19601f8201168201806040525081019061013691906105b3565b610175576040517f08c379a000000000000000000000000000000000000000000000000000000000815260040161016c9061063d565b60405180910390fd5b6000600160009054906101000a900473ffffffffffffffffffffffffffffffffffffffff1673ffffffffffffffffffffffffffffffffffffffff166370a08231306040518263ffffffff1660e01b81526004016101d2919061065d565b602060405180830381865afa1580156101ef573d6000803e3d6000fd5b505050506040513d601f19601f8201168201806040525081019061021391906106a4565b9050600160009054906101000a900473ffffffffffffffffffffffffffffffffffffffff1673ffffffffffffffffffffffffffffffffffffffff166342966c68826040518263ffffffff1660e01b815260040161027091906106e0565b600060405180830381600087803b15801561028a57600080fd5b505af115801561029e573d6000803e3d6000fd5b505050506102ad8585856102dd565b60019150509392505050565b60008054906101000a900473ffffffffffffffffffffffffffffffffffffffff1681565b60008054906101000a900473ffffffffffffffffffffffffffffffffffffffff1673ffffffffffffffffffffffffffffffffffffffff1663dd1fcc458484846040518463ffffffff1660e01b815260040161033a93929190610772565b600060405180830381600087803b15801561035457600080fd5b505af1158015610368573d6000803e3d6000fd5b50505050505050565b600080fd5b600073ffffffffffffffffffffffffffffffffffffffff82169050919050565b60006103a182610376565b9050919050565b6103b181610396565b81146103bc57600080fd5b50565b6000813590506103ce816103a8565b92915050565b600881106103e157600080fd5b50565b6000813590506103f3816103d4565b92915050565b60008060006060848603121561041257610411610371565b5b6000610420868287016103bf565b9350506020610431868287016103bf565b9250506040610442868287016103e4565b9150509250925092565b60008115159050919050565b6104618161044c565b82525050565b600060208201905061047c6000830184610458565b92915050565b6000819050919050565b60006104a76104a261049d84610376565b610482565b610376565b9050919050565b60006104b98261048c565b9050919050565b60006104cb826104ae565b9050919050565b6104db816104c0565b82525050565b60006020820190506104f660008301846104d2565b92915050565b61050581610396565b82525050565b6000819050919050565b6000819050919050565b600061053a6105356105308461050b565b610482565b610515565b9050919050565b61054a8161051f565b82525050565b600060608201905061056560008301866104fc565b61057260208301856104fc565b61057f6040830184610541565b949350505050565b6105908161044c565b811461059b57600080fd5b50565b6000815190506105ad81610587565b92915050565b6000602082840312156105c9576105c8610371565b5b60006105d78482850161059e565b91505092915050565b600082825260208201905092915050565b7f45524332303a207472616e73666572206661696c65642e000000000000000000600082015250565b60006106276017836105e0565b9150610632826105f1565b602082019050919050565b600060208201905081810360008301526106568161061a565b9050919050565b600060208201905061067260008301846104fc565b92915050565b61068181610515565b811461068c57600080fd5b50565b60008151905061069e81610678565b92915050565b6000602082840312156106ba576106b9610371565b5b60006106c88482850161068f565b91505092915050565b6106da81610515565b82525050565b60006020820190506106f560008301846106d1565b92915050565b7f4e487b7100000000000000000000000000000000000000000000000000000000600052602160045260246000fd5b6008811061073b5761073a6106fb565b5b50565b600081905061074c8261072a565b919050565b600061075c8261073e565b9050919050565b61076c81610751565b82525050565b600060608201905061078760008301866104fc565b61079460208301856104fc565b6107a16040830184610763565b94935050505056fea2646970667358221220c94058365212c7101252d236b90b2fc53e69aa9f1e66c9fdd18af6ccc68aaf8964736f6c634300080d0033",
  "linkReferences": {},
  "deployedLinkReferences": {}
}