{
  "_format": "hh-sol-artifact-1",
  "contractName": "Empowered",
  "sourceName": "contracts/periphery/BehodlerLite/LimboAddTokenToBehodler.sol",
  "abi": [
    {
      "anonymous": false,
      "inputs": [
        {
          "indexed": true,
          "internalType": "address",
          "name": "previousOwner",
          "type": "address"
        },
        {
          "indexed": true,
          "internalType": "address",
          "name": "newOwner",
          "type": "address"
        }
      ],
      "name": "OwnershipTransferred",
      "type": "event"
    },
    {
      "inputs": [
        {
          "internalType": "address",
          "name": "_powers",
          "type": "address"
        }
      ],
      "name": "changePower",
      "outputs": [],
      "stateMutability": "nonpayable",
      "type": "function"
    },
    {
      "inputs": [],
      "name": "owner",
      "outputs": [
        {
          "internalType": "address",
          "name": "",
          "type": "address"
        }
      ],
      "stateMutability": "view",
      "type": "function"
    },
    {
      "inputs": [],
      "name": "renounceOwnership",
      "outputs": [],
      "stateMutability": "nonpayable",
      "type": "function"
    },
    {
      "inputs": [
        {
          "internalType": "address",
          "name": "newOwner",
          "type": "address"
        }
      ],
      "name": "transferOwnership",
      "outputs": [],
      "stateMutability": "nonpayable",
      "type": "function"
    }
  ],
  "bytecode": "0x608060405234801561001057600080fd5b50336000806101000a81548173ffffffffffffffffffffffffffffffffffffffff021916908373ffffffffffffffffffffffffffffffffffffffff1602179055503373ffffffffffffffffffffffffffffffffffffffff16600073ffffffffffffffffffffffffffffffffffffffff167f8be0079c531659141344cd1fd0a4f28419497f9722a3daafe3b4186f6b6457e060405160405180910390a3610bf3806100bb6000396000f3fe608060405234801561001057600080fd5b506004361061004c5760003560e01c8063715018a6146100515780638da5cb5b1461005b578063f2fde38b14610079578063fb3773e214610095575b600080fd5b6100596100b1565b005b6100636101fd565b6040516100709190610837565b60405180910390f35b610093600480360381019061008e9190610883565b610226565b005b6100af60048036038101906100aa9190610883565b6103e0565b005b3373ffffffffffffffffffffffffffffffffffffffff1660008054906101000a900473ffffffffffffffffffffffffffffffffffffffff1673ffffffffffffffffffffffffffffffffffffffff161461013f576040517f08c379a00000000000000000000000000000000000000000000000000000000081526004016101369061090d565b60405180910390fd5b600073ffffffffffffffffffffffffffffffffffffffff1660008054906101000a900473ffffffffffffffffffffffffffffffffffffffff1673ffffffffffffffffffffffffffffffffffffffff167f8be0079c531659141344cd1fd0a4f28419497f9722a3daafe3b4186f6b6457e060405160405180910390a360008060006101000a81548173ffffffffffffffffffffffffffffffffffffffff021916908373ffffffffffffffffffffffffffffffffffffffff160217905550565b60008060009054906101000a900473ffffffffffffffffffffffffffffffffffffffff16905090565b3373ffffffffffffffffffffffffffffffffffffffff1660008054906101000a900473ffffffffffffffffffffffffffffffffffffffff1673ffffffffffffffffffffffffffffffffffffffff16146102b4576040517f08c379a00000000000000000000000000000000000000000000000000000000081526004016102ab9061090d565b60405180910390fd5b600073ffffffffffffffffffffffffffffffffffffffff168173ffffffffffffffffffffffffffffffffffffffff1603610323576040517f08c379a000000000000000000000000000000000000000000000000000000000815260040161031a9061099f565b60405180910390fd5b8073ffffffffffffffffffffffffffffffffffffffff1660008054906101000a900473ffffffffffffffffffffffffffffffffffffffff1673ffffffffffffffffffffffffffffffffffffffff167f8be0079c531659141344cd1fd0a4f28419497f9722a3daafe3b4186f6b6457e060405160405180910390a3806000806101000a81548173ffffffffffffffffffffffffffffffffffffffff021916908373ffffffffffffffffffffffffffffffffffffffff16021790555050565b600160009054906101000a900473ffffffffffffffffffffffffffffffffffffffff1673ffffffffffffffffffffffffffffffffffffffff16632140c9aa6040518163ffffffff1660e01b8152600401602060405180830381865afa15801561044d573d6000803e3d6000fd5b505050506040513d601f19601f8201168201806040525081019061047191906109f5565b600073ffffffffffffffffffffffffffffffffffffffff16600160009054906101000a900473ffffffffffffffffffffffffffffffffffffffff1673ffffffffffffffffffffffffffffffffffffffff1614600160149054906101000a900460ff16610512576040517f08c379a000000000000000000000000000000000000000000000000000000000815260040161050990610a94565b60405180910390fd5b80806105b85750600160009054906101000a900473ffffffffffffffffffffffffffffffffffffffff1673ffffffffffffffffffffffffffffffffffffffff1663250d4c6d83336040518363ffffffff1660e01b8152600401610576929190610ac3565b602060405180830381865afa158015610593573d6000803e3d6000fd5b505050506040513d601f19601f820116820180604052508101906105b79190610b24565b5b6105f7576040517f08c379a00000000000000000000000000000000000000000000000000000000081526004016105ee90610b9d565b60405180910390fd5b60008373ffffffffffffffffffffffffffffffffffffffff16632140c9aa6040518163ffffffff1660e01b8152600401602060405180830381865afa158015610644573d6000803e3d6000fd5b505050506040513d601f19601f8201168201806040525081019061066891906109f5565b905083600160006101000a81548173ffffffffffffffffffffffffffffffffffffffff021916908373ffffffffffffffffffffffffffffffffffffffff1602179055503073ffffffffffffffffffffffffffffffffffffffff163373ffffffffffffffffffffffffffffffffffffffff1614806106f25750600160149054906101000a900460ff16155b806107975750600160009054906101000a900473ffffffffffffffffffffffffffffffffffffffff1673ffffffffffffffffffffffffffffffffffffffff1663250d4c6d82336040518363ffffffff1660e01b8152600401610755929190610ac3565b602060405180830381865afa158015610772573d6000803e3d6000fd5b505050506040513d601f19601f820116820180604052508101906107969190610b24565b5b6107d6576040517f08c379a00000000000000000000000000000000000000000000000000000000081526004016107cd90610b9d565b60405180910390fd5b60018060146101000a81548160ff02191690831515021790555050505050565b600073ffffffffffffffffffffffffffffffffffffffff82169050919050565b6000610821826107f6565b9050919050565b61083181610816565b82525050565b600060208201905061084c6000830184610828565b92915050565b600080fd5b61086081610816565b811461086b57600080fd5b50565b60008135905061087d81610857565b92915050565b60006020828403121561089957610898610852565b5b60006108a78482850161086e565b91505092915050565b600082825260208201905092915050565b7f4f776e61626c653a2063616c6c6572206973206e6f7420746865206f776e6572600082015250565b60006108f76020836108b0565b9150610902826108c1565b602082019050919050565b60006020820190508181036000830152610926816108ea565b9050919050565b7f4f776e61626c653a206e6577206f776e657220697320746865207a65726f206160008201527f6464726573730000000000000000000000000000000000000000000000000000602082015250565b60006109896026836108b0565b91506109948261092d565b604082019050919050565b600060208201905081810360008301526109b88161097c565b9050919050565b6000819050919050565b6109d2816109bf565b81146109dd57600080fd5b50565b6000815190506109ef816109c9565b92915050565b600060208284031215610a0b57610a0a610852565b5b6000610a19848285016109e0565b91505092915050565b7f4d4f52474f54483a20706f776572735265676973747279206e6f7420616c6c6f60008201527f63617465642e0000000000000000000000000000000000000000000000000000602082015250565b6000610a7e6026836108b0565b9150610a8982610a22565b604082019050919050565b60006020820190508181036000830152610aad81610a71565b9050919050565b610abd816109bf565b82525050565b6000604082019050610ad86000830185610ab4565b610ae56020830184610828565b9392505050565b60008115159050919050565b610b0181610aec565b8114610b0c57600080fd5b50565b600081519050610b1e81610af8565b92915050565b600060208284031215610b3a57610b39610852565b5b6000610b4884828501610b0f565b91505092915050565b7f4d4f52474f54483a20666f7262696464656e20706f7765720000000000000000600082015250565b6000610b876018836108b0565b9150610b9282610b51565b602082019050919050565b60006020820190508181036000830152610bb681610b7a565b905091905056fea26469706673582212205e3500cf3f3e769132d6d8fe6114ad5a0140742e8ff21d1ca042197d35a8b78a64736f6c634300080d0033",
  "linkReferences": {},
  "deployedLinkReferences": {}
}