{
  "_format": "hh-sol-artifact-1",
  "contractName": "LimboAddTokenToBehodler",
  "sourceName": "contracts/periphery/BehodlerLite/LimboAddTokenToBehodler.sol",
  "abi": [
    {
      "inputs": [
        {
          "internalType": "address",
          "name": "_angband",
          "type": "address"
        },
        {
          "internalType": "address",
          "name": "limbo",
          "type": "address"
        },
        {
          "internalType": "address",
          "name": "proxyRegistry",
          "type": "address"
        },
        {
          "internalType": "address",
          "name": "_lachesis",
          "type": "address"
        },
        {
          "internalType": "address",
          "name": "scarcity",
          "type": "address"
        }
      ],
      "stateMutability": "nonpayable",
      "type": "constructor"
    },
    {
      "inputs": [
        {
          "internalType": "bytes32",
          "name": "minion",
          "type": "bytes32"
        },
        {
          "internalType": "address",
          "name": "sender",
          "type": "address"
        }
      ],
      "name": "invoke",
      "outputs": [],
      "stateMutability": "nonpayable",
      "type": "function"
    },
    {
      "inputs": [
        {
          "internalType": "address",
          "name": "soul",
          "type": "address"
        },
        {
          "internalType": "bool",
          "name": "burnable",
          "type": "bool"
        }
      ],
      "name": "parameterize",
      "outputs": [],
      "stateMutability": "nonpayable",
      "type": "function"
    },
    {
      "inputs": [],
      "name": "params",
      "outputs": [
        {
          "internalType": "address",
          "name": "soul",
          "type": "address"
        },
        {
          "internalType": "bool",
          "name": "burnable",
          "type": "bool"
        },
        {
          "internalType": "address",
          "name": "limbo",
          "type": "address"
        },
        {
          "internalType": "address",
          "name": "tokenProxyRegistry",
          "type": "address"
        }
      ],
      "stateMutability": "view",
      "type": "function"
    }
  ],
  "bytecode": "0x60806040523480156200001157600080fd5b506040516200137e3803806200137e8339818101604052810190620000379190620001f6565b83600360010160006101000a81548173ffffffffffffffffffffffffffffffffffffffff021916908373ffffffffffffffffffffffffffffffffffffffff16021790555082600360020160006101000a81548173ffffffffffffffffffffffffffffffffffffffff021916908373ffffffffffffffffffffffffffffffffffffffff160217905550846000806101000a81548173ffffffffffffffffffffffffffffffffffffffff021916908373ffffffffffffffffffffffffffffffffffffffff16021790555081600260006101000a81548173ffffffffffffffffffffffffffffffffffffffff021916908373ffffffffffffffffffffffffffffffffffffffff16021790555080600160006101000a81548173ffffffffffffffffffffffffffffffffffffffff021916908373ffffffffffffffffffffffffffffffffffffffff16021790555050505050506200027e565b600080fd5b600073ffffffffffffffffffffffffffffffffffffffff82169050919050565b6000620001be8262000191565b9050919050565b620001d081620001b1565b8114620001dc57600080fd5b50565b600081519050620001f081620001c5565b92915050565b600080600080600060a086880312156200021557620002146200018c565b5b60006200022588828901620001df565b95505060206200023888828901620001df565b94505060406200024b88828901620001df565b93505060606200025e88828901620001df565b92505060806200027188828901620001df565b9150509295509295909350565b6110f0806200028e6000396000f3fe608060405234801561001057600080fd5b50600436106100415760003560e01c806314c6fd2814610046578063c936c23314610062578063cff0ab961461007e575b600080fd5b610060600480360381019061005b9190610b7e565b61009f565b005b61007c60048036038101906100779190610bf4565b610197565b005b610086610270565b6040516100969493929190610c52565b60405180910390f35b600360010160009054906101000a900473ffffffffffffffffffffffffffffffffffffffff1673ffffffffffffffffffffffffffffffffffffffff163373ffffffffffffffffffffffffffffffffffffffff1614610132576040517f08c379a000000000000000000000000000000000000000000000000000000000815260040161012990610d1a565b60405180910390fd5b81600360000160006101000a81548173ffffffffffffffffffffffffffffffffffffffff021916908373ffffffffffffffffffffffffffffffffffffffff16021790555080600360000160146101000a81548160ff0219169083151502179055505050565b60008054906101000a900473ffffffffffffffffffffffffffffffffffffffff1673ffffffffffffffffffffffffffffffffffffffff163373ffffffffffffffffffffffffffffffffffffffff1614610225576040517f08c379a000000000000000000000000000000000000000000000000000000000815260040161021c90610d86565b60405180910390fd5b61022d6102fb565b61026c576040517f08c379a000000000000000000000000000000000000000000000000000000000815260040161026390610df2565b60405180910390fd5b5050565b60038060000160009054906101000a900473ffffffffffffffffffffffffffffffffffffffff16908060000160149054906101000a900460ff16908060010160009054906101000a900473ffffffffffffffffffffffffffffffffffffffff16908060020160009054906101000a900473ffffffffffffffffffffffffffffffffffffffff16905084565b60008060036040518060800160405290816000820160009054906101000a900473ffffffffffffffffffffffffffffffffffffffff1673ffffffffffffffffffffffffffffffffffffffff1673ffffffffffffffffffffffffffffffffffffffff1681526020016000820160149054906101000a900460ff161515151581526020016001820160009054906101000a900473ffffffffffffffffffffffffffffffffffffffff1673ffffffffffffffffffffffffffffffffffffffff1673ffffffffffffffffffffffffffffffffffffffff1681526020016002820160009054906101000a900473ffffffffffffffffffffffffffffffffffffffff1673ffffffffffffffffffffffffffffffffffffffff1673ffffffffffffffffffffffffffffffffffffffff16815250509050600073ffffffffffffffffffffffffffffffffffffffff16816000015173ffffffffffffffffffffffffffffffffffffffff160361049d576040517f08c379a000000000000000000000000000000000000000000000000000000000815260040161049490610e84565b60405180910390fd5b60008160600151905060008173ffffffffffffffffffffffffffffffffffffffff16637f1c59ae84600001516040518263ffffffff1660e01b81526004016104e59190610ea4565b60408051808303816000875af1158015610503573d6000803e3d6000fd5b505050506040513d601f19601f820116820180604052508101906105279190610ed4565b91505060008073ffffffffffffffffffffffffffffffffffffffff168273ffffffffffffffffffffffffffffffffffffffff1614610565578161056b565b83600001515b9050600260009054906101000a900473ffffffffffffffffffffffffffffffffffffffff1673ffffffffffffffffffffffffffffffffffffffff166366ce93ca82600187602001516040518463ffffffff1660e01b81526004016105d193929190610f14565b600060405180830381600087803b1580156105eb57600080fd5b505af11580156105ff573d6000803e3d6000fd5b50505050600260009054906101000a900473ffffffffffffffffffffffffffffffffffffffff1673ffffffffffffffffffffffffffffffffffffffff16637a29e022826040518263ffffffff1660e01b815260040161065e9190610ea4565b600060405180830381600087803b15801561067857600080fd5b505af115801561068c573d6000803e3d6000fd5b505050506000846000015173ffffffffffffffffffffffffffffffffffffffff166370a08231306040518263ffffffff1660e01b81526004016106cf9190610ea4565b602060405180830381865afa1580156106ec573d6000803e3d6000fd5b505050506040513d601f19601f820116820180604052508101906107109190610f81565b905060008111610755576040517f08c379a000000000000000000000000000000000000000000000000000000000815260040161074c90611020565b60405180910390fd5b846000015173ffffffffffffffffffffffffffffffffffffffff1663a9059cbb8660600151836040518363ffffffff1660e01b815260040161079892919061104f565b6020604051808303816000875af11580156107b7573d6000803e3d6000fd5b505050506040513d601f19601f820116820180604052508101906107db919061108d565b508373ffffffffffffffffffffffffffffffffffffffff1663196c715786600001516040518263ffffffff1660e01b81526004016108199190610ea4565b6020604051808303816000875af1158015610838573d6000803e3d6000fd5b505050506040513d601f19601f8201168201806040525081019061085c919061108d565b506000600160009054906101000a900473ffffffffffffffffffffffffffffffffffffffff1673ffffffffffffffffffffffffffffffffffffffff166370a08231306040518263ffffffff1660e01b81526004016108ba9190610ea4565b602060405180830381865afa1580156108d7573d6000803e3d6000fd5b505050506040513d601f19601f820116820180604052508101906108fb9190610f81565b9050600160009054906101000a900473ffffffffffffffffffffffffffffffffffffffff1673ffffffffffffffffffffffffffffffffffffffff1663a9059cbb8760400151836040518363ffffffff1660e01b815260040161095e92919061104f565b6020604051808303816000875af115801561097d573d6000803e3d6000fd5b505050506040513d601f19601f820116820180604052508101906109a1919061108d565b506000866000019073ffffffffffffffffffffffffffffffffffffffff16908173ffffffffffffffffffffffffffffffffffffffff168152505085600360008201518160000160006101000a81548173ffffffffffffffffffffffffffffffffffffffff021916908373ffffffffffffffffffffffffffffffffffffffff16021790555060208201518160000160146101000a81548160ff02191690831515021790555060408201518160010160006101000a81548173ffffffffffffffffffffffffffffffffffffffff021916908373ffffffffffffffffffffffffffffffffffffffff16021790555060608201518160020160006101000a81548173ffffffffffffffffffffffffffffffffffffffff021916908373ffffffffffffffffffffffffffffffffffffffff1602179055509050506001965050505050505090565b600080fd5b600073ffffffffffffffffffffffffffffffffffffffff82169050919050565b6000610b1382610ae8565b9050919050565b610b2381610b08565b8114610b2e57600080fd5b50565b600081359050610b4081610b1a565b92915050565b60008115159050919050565b610b5b81610b46565b8114610b6657600080fd5b50565b600081359050610b7881610b52565b92915050565b60008060408385031215610b9557610b94610ae3565b5b6000610ba385828601610b31565b9250506020610bb485828601610b69565b9150509250929050565b6000819050919050565b610bd181610bbe565b8114610bdc57600080fd5b50565b600081359050610bee81610bc8565b92915050565b60008060408385031215610c0b57610c0a610ae3565b5b6000610c1985828601610bdf565b9250506020610c2a85828601610b31565b9150509250929050565b610c3d81610b08565b82525050565b610c4c81610b46565b82525050565b6000608082019050610c676000830187610c34565b610c746020830186610c43565b610c816040830185610c34565b610c8e6060830184610c34565b95945050505050565b600082825260208201905092915050565b7f4d4f52474f54483a204f6e6c79204c696d626f2063616e206d6967726174652060008201527f746f6b656e732066726f6d204c696d626f2e0000000000000000000000000000602082015250565b6000610d04603283610c97565b9150610d0f82610ca8565b604082019050919050565b60006020820190508181036000830152610d3381610cf7565b9050919050565b7f4d4f52474f54483a20616e6762616e64206f6e6c790000000000000000000000600082015250565b6000610d70601583610c97565b9150610d7b82610d3a565b602082019050919050565b60006020820190508181036000830152610d9f81610d63565b9050919050565b7f4d4f52474f54483a20506f77657220696e766f636174696f6e00000000000000600082015250565b6000610ddc601983610c97565b9150610de782610da6565b602082019050919050565b60006020820190508181036000830152610e0b81610dcf565b9050919050565b7f4d4f52474f54483a20506f776572496e766f6b6572206e6f7420706172616d6560008201527f746572697a65642e000000000000000000000000000000000000000000000000602082015250565b6000610e6e602883610c97565b9150610e7982610e12565b604082019050919050565b60006020820190508181036000830152610e9d81610e61565b9050919050565b6000602082019050610eb96000830184610c34565b92915050565b600081519050610ece81610b1a565b92915050565b60008060408385031215610eeb57610eea610ae3565b5b6000610ef985828601610ebf565b9250506020610f0a85828601610ebf565b9150509250929050565b6000606082019050610f296000830186610c34565b610f366020830185610c43565b610f436040830184610c43565b949350505050565b6000819050919050565b610f5e81610f4b565b8114610f6957600080fd5b50565b600081519050610f7b81610f55565b92915050565b600060208284031215610f9757610f96610ae3565b5b6000610fa584828501610f6c565b91505092915050565b7f4d4f52474f54483a2072656d656d62657220746f207365656420636f6e74726160008201527f6374000000000000000000000000000000000000000000000000000000000000602082015250565b600061100a602283610c97565b915061101582610fae565b604082019050919050565b6000602082019050818103600083015261103981610ffd565b9050919050565b61104981610f4b565b82525050565b60006040820190506110646000830185610c34565b6110716020830184611040565b9392505050565b60008151905061108781610b52565b92915050565b6000602082840312156110a3576110a2610ae3565b5b60006110b184828501611078565b9150509291505056fea26469706673582212209dc7e71b405e83eccd357ac1dc68f8051b1cc05041b89b449ec7c519ce0a3f5a64736f6c634300080d0033",
  "linkReferences": {},
  "deployedLinkReferences": {}
}