{
  "_format": "hh-sol-artifact-1",
  "contractName": "LimboAddTokenToBehodler",
  "sourceName": "contracts/periphery/BehodlerLite/LimboAddTokenToBehodler.sol",
  "abi": [
    {
      "inputs": [
        {
          "internalType": "address",
          "name": "_angband",
          "type": "address"
        },
        {
          "internalType": "address",
          "name": "limbo",
          "type": "address"
        },
        {
          "internalType": "address",
          "name": "behodlerLite",
          "type": "address"
        },
        {
          "internalType": "address",
          "name": "_proxyregistry",
          "type": "address"
        }
      ],
      "stateMutability": "nonpayable",
      "type": "constructor"
    },
    {
      "inputs": [],
      "name": "angband",
      "outputs": [
        {
          "internalType": "contract AngbandLike",
          "name": "",
          "type": "address"
        }
      ],
      "stateMutability": "view",
      "type": "function"
    },
    {
      "inputs": [],
      "name": "invoke",
      "outputs": [],
      "stateMutability": "nonpayable",
      "type": "function"
    },
    {
      "inputs": [
        {
          "internalType": "address",
          "name": "soul",
          "type": "address"
        },
        {
          "internalType": "bool",
          "name": "burnable",
          "type": "bool"
        }
      ],
      "name": "parameterize",
      "outputs": [],
      "stateMutability": "nonpayable",
      "type": "function"
    },
    {
      "inputs": [],
      "name": "params",
      "outputs": [
        {
          "internalType": "address",
          "name": "soul",
          "type": "address"
        },
        {
          "internalType": "bool",
          "name": "burnable",
          "type": "bool"
        },
        {
          "internalType": "address",
          "name": "limbo",
          "type": "address"
        },
        {
          "internalType": "address",
          "name": "tokenProxyRegistry",
          "type": "address"
        }
      ],
      "stateMutability": "view",
      "type": "function"
    }
  ],
  "bytecode": "0x60806040523480156200001157600080fd5b50604051620012b5380380620012b58339818101604052810190620000379190620001b5565b83806000806101000a81548173ffffffffffffffffffffffffffffffffffffffff021916908373ffffffffffffffffffffffffffffffffffffffff16021790555050826001800160006101000a81548173ffffffffffffffffffffffffffffffffffffffff021916908373ffffffffffffffffffffffffffffffffffffffff16021790555081600460006101000a81548173ffffffffffffffffffffffffffffffffffffffff021916908373ffffffffffffffffffffffffffffffffffffffff16021790555080600160020160006101000a81548173ffffffffffffffffffffffffffffffffffffffff021916908373ffffffffffffffffffffffffffffffffffffffff1602179055505050505062000227565b600080fd5b600073ffffffffffffffffffffffffffffffffffffffff82169050919050565b60006200017d8262000150565b9050919050565b6200018f8162000170565b81146200019b57600080fd5b50565b600081519050620001af8162000184565b92915050565b60008060008060808587031215620001d257620001d16200014b565b5b6000620001e2878288016200019e565b9450506020620001f5878288016200019e565b935050604062000208878288016200019e565b92505060606200021b878288016200019e565b91505092959194509250565b61107e80620002376000396000f3fe608060405234801561001057600080fd5b506004361061004c5760003560e01c806314c6fd2814610051578063cab7f5211461006d578063cff0ab9614610077578063f77b09c214610098575b600080fd5b61006b60048036038101906100669190610adf565b6100b6565b005b6100756101ad565b005b61007f610284565b60405161008f9493929190610b3d565b60405180910390f35b6100a061030f565b6040516100ad9190610be1565b60405180910390f35b6001800160009054906101000a900473ffffffffffffffffffffffffffffffffffffffff1673ffffffffffffffffffffffffffffffffffffffff163373ffffffffffffffffffffffffffffffffffffffff1614610148576040517f08c379a000000000000000000000000000000000000000000000000000000000815260040161013f90610c7f565b60405180910390fd5b81600160000160006101000a81548173ffffffffffffffffffffffffffffffffffffffff021916908373ffffffffffffffffffffffffffffffffffffffff16021790555080600160000160146101000a81548160ff0219169083151502179055505050565b60008054906101000a900473ffffffffffffffffffffffffffffffffffffffff1673ffffffffffffffffffffffffffffffffffffffff163373ffffffffffffffffffffffffffffffffffffffff161461023b576040517f08c379a000000000000000000000000000000000000000000000000000000000815260040161023290610ceb565b60405180910390fd5b610243610333565b610282576040517f08c379a000000000000000000000000000000000000000000000000000000000815260040161027990610d57565b60405180910390fd5b565b60018060000160009054906101000a900473ffffffffffffffffffffffffffffffffffffffff16908060000160149054906101000a900460ff16908060010160009054906101000a900473ffffffffffffffffffffffffffffffffffffffff16908060020160009054906101000a900473ffffffffffffffffffffffffffffffffffffffff16905084565b60008054906101000a900473ffffffffffffffffffffffffffffffffffffffff1681565b60008073ffffffffffffffffffffffffffffffffffffffff16600160000160009054906101000a900473ffffffffffffffffffffffffffffffffffffffff1673ffffffffffffffffffffffffffffffffffffffff16036103c8576040517f08c379a00000000000000000000000000000000000000000000000000000000081526004016103bf90610de9565b60405180910390fd5b6000600160000160009054906101000a900473ffffffffffffffffffffffffffffffffffffffff1673ffffffffffffffffffffffffffffffffffffffff166370a08231306040518263ffffffff1660e01b81526004016104289190610e09565b602060405180830381865afa158015610445573d6000803e3d6000fd5b505050506040513d601f19601f820116820180604052508101906104699190610e5a565b9050600081116104ae576040517f08c379a00000000000000000000000000000000000000000000000000000000081526004016104a590610ef9565b60405180910390fd5b600080600160020160009054906101000a900473ffffffffffffffffffffffffffffffffffffffff1673ffffffffffffffffffffffffffffffffffffffff16637f1c59ae600160000160009054906101000a900473ffffffffffffffffffffffffffffffffffffffff166040518263ffffffff1660e01b81526004016105349190610e09565b6040805180830381865afa158015610550573d6000803e3d6000fd5b505050506040513d601f19601f820116820180604052508101906105749190610f43565b915091506000600160000160009054906101000a900473ffffffffffffffffffffffffffffffffffffffff1690508180156105dc5750600073ffffffffffffffffffffffffffffffffffffffff168373ffffffffffffffffffffffffffffffffffffffff1614155b1561068b57829050600160000160009054906101000a900473ffffffffffffffffffffffffffffffffffffffff1673ffffffffffffffffffffffffffffffffffffffff16630e6dfcd53030876040518463ffffffff1660e01b815260040161064693929190610f92565b6020604051808303816000875af1158015610665573d6000803e3d6000fd5b505050506040513d601f19601f820116820180604052508101906106899190610e5a565b505b8073ffffffffffffffffffffffffffffffffffffffff1663095ea7b3600460009054906101000a900473ffffffffffffffffffffffffffffffffffffffff167fffffffffffffffffffffffffffffffffffffffffffffffffffffffffffffffff6040518363ffffffff1660e01b8152600401610708929190610fc9565b6020604051808303816000875af1158015610727573d6000803e3d6000fd5b505050506040513d601f19601f8201168201806040525081019061074b9190610ff2565b50600460009054906101000a900473ffffffffffffffffffffffffffffffffffffffff1673ffffffffffffffffffffffffffffffffffffffff1663aa5caa5082600160000160149054906101000a900460ff166040518363ffffffff1660e01b81526004016107bb92919061101f565b600060405180830381600087803b1580156107d557600080fd5b505af11580156107e9573d6000803e3d6000fd5b50505050600460009054906101000a900473ffffffffffffffffffffffffffffffffffffffff1673ffffffffffffffffffffffffffffffffffffffff16635668870082866040518363ffffffff1660e01b815260040161084a929190610fc9565b6020604051808303816000875af1158015610869573d6000803e3d6000fd5b505050506040513d601f19601f8201168201806040525081019061088d9190610e5a565b506000600460009054906101000a900473ffffffffffffffffffffffffffffffffffffffff1673ffffffffffffffffffffffffffffffffffffffff166370a08231306040518263ffffffff1660e01b81526004016108eb9190610e09565b602060405180830381865afa158015610908573d6000803e3d6000fd5b505050506040513d601f19601f8201168201806040525081019061092c9190610e5a565b9050600460009054906101000a900473ffffffffffffffffffffffffffffffffffffffff1673ffffffffffffffffffffffffffffffffffffffff1663a9059cbb6001800160009054906101000a900473ffffffffffffffffffffffffffffffffffffffff16836040518363ffffffff1660e01b81526004016109af929190610fc9565b6020604051808303816000875af11580156109ce573d6000803e3d6000fd5b505050506040513d601f19601f820116820180604052508101906109f29190610ff2565b506000600160000160006101000a81548173ffffffffffffffffffffffffffffffffffffffff021916908373ffffffffffffffffffffffffffffffffffffffff16021790555060019550505050505090565b600080fd5b600073ffffffffffffffffffffffffffffffffffffffff82169050919050565b6000610a7482610a49565b9050919050565b610a8481610a69565b8114610a8f57600080fd5b50565b600081359050610aa181610a7b565b92915050565b60008115159050919050565b610abc81610aa7565b8114610ac757600080fd5b50565b600081359050610ad981610ab3565b92915050565b60008060408385031215610af657610af5610a44565b5b6000610b0485828601610a92565b9250506020610b1585828601610aca565b9150509250929050565b610b2881610a69565b82525050565b610b3781610aa7565b82525050565b6000608082019050610b526000830187610b1f565b610b5f6020830186610b2e565b610b6c6040830185610b1f565b610b796060830184610b1f565b95945050505050565b6000819050919050565b6000610ba7610ba2610b9d84610a49565b610b82565b610a49565b9050919050565b6000610bb982610b8c565b9050919050565b6000610bcb82610bae565b9050919050565b610bdb81610bc0565b82525050565b6000602082019050610bf66000830184610bd2565b92915050565b600082825260208201905092915050565b7f4d4f52474f54483a204f6e6c79204c696d626f2063616e206d6967726174652060008201527f746f6b656e732066726f6d204c696d626f2e0000000000000000000000000000602082015250565b6000610c69603283610bfc565b9150610c7482610c0d565b604082019050919050565b60006020820190508181036000830152610c9881610c5c565b9050919050565b7f4d4f52474f54483a20616e6762616e64206f6e6c790000000000000000000000600082015250565b6000610cd5601583610bfc565b9150610ce082610c9f565b602082019050919050565b60006020820190508181036000830152610d0481610cc8565b9050919050565b7f4d4f52474f54483a20506f77657220696e766f636174696f6e00000000000000600082015250565b6000610d41601983610bfc565b9150610d4c82610d0b565b602082019050919050565b60006020820190508181036000830152610d7081610d34565b9050919050565b7f4d4f52474f54483a20506f776572496e766f6b6572206e6f7420706172616d6560008201527f746572697a65642e000000000000000000000000000000000000000000000000602082015250565b6000610dd3602883610bfc565b9150610dde82610d77565b604082019050919050565b60006020820190508181036000830152610e0281610dc6565b9050919050565b6000602082019050610e1e6000830184610b1f565b92915050565b6000819050919050565b610e3781610e24565b8114610e4257600080fd5b50565b600081519050610e5481610e2e565b92915050565b600060208284031215610e7057610e6f610a44565b5b6000610e7e84828501610e45565b91505092915050565b7f4d4f52474f54483a2072656d656d62657220746f207365656420636f6e74726160008201527f6374000000000000000000000000000000000000000000000000000000000000602082015250565b6000610ee3602283610bfc565b9150610eee82610e87565b604082019050919050565b60006020820190508181036000830152610f1281610ed6565b9050919050565b600081519050610f2881610a7b565b92915050565b600081519050610f3d81610ab3565b92915050565b60008060408385031215610f5a57610f59610a44565b5b6000610f6885828601610f19565b9250506020610f7985828601610f2e565b9150509250929050565b610f8c81610e24565b82525050565b6000606082019050610fa76000830186610b1f565b610fb46020830185610b1f565b610fc16040830184610f83565b949350505050565b6000604082019050610fde6000830185610b1f565b610feb6020830184610f83565b9392505050565b60006020828403121561100857611007610a44565b5b600061101684828501610f2e565b91505092915050565b60006040820190506110346000830185610b1f565b6110416020830184610b2e565b939250505056fea26469706673582212205f8e996e06173c03b65b15fc6b82f8cfa62c444bf7c1d6a37d4bf2cd14e259b164736f6c634300080d0033",
  "linkReferences": {},
  "deployedLinkReferences": {}
}