{
  "_format": "hh-sol-artifact-1",
  "contractName": "LimboAddTokenToBehodler",
  "sourceName": "contracts/periphery/BehodlerLite/LimboAddTokenToBehodler.sol",
  "abi": [
    {
      "inputs": [
        {
          "internalType": "address",
          "name": "_angband",
          "type": "address"
        },
        {
          "internalType": "address",
          "name": "limbo",
          "type": "address"
        },
        {
          "internalType": "address",
          "name": "proxyRegistry",
          "type": "address"
        }
      ],
      "stateMutability": "nonpayable",
      "type": "constructor"
    },
    {
      "anonymous": false,
      "inputs": [
        {
          "indexed": false,
          "internalType": "address",
          "name": "user",
          "type": "address"
        },
        {
          "indexed": false,
          "internalType": "bytes32",
          "name": "minion",
          "type": "bytes32"
        },
        {
          "indexed": false,
          "internalType": "bytes32",
          "name": "domain",
          "type": "bytes32"
        }
      ],
      "name": "PowerInvoked",
      "type": "event"
    },
    {
      "inputs": [],
      "name": "angband",
      "outputs": [
        {
          "internalType": "contract AngbandLike",
          "name": "",
          "type": "address"
        }
      ],
      "stateMutability": "view",
      "type": "function"
    },
    {
      "inputs": [
        {
          "internalType": "bytes32",
          "name": "minion",
          "type": "bytes32"
        },
        {
          "internalType": "address",
          "name": "sender",
          "type": "address"
        }
      ],
      "name": "invoke",
      "outputs": [],
      "stateMutability": "nonpayable",
      "type": "function"
    },
    {
      "inputs": [
        {
          "internalType": "address",
          "name": "soul",
          "type": "address"
        },
        {
          "internalType": "bool",
          "name": "burnable",
          "type": "bool"
        }
      ],
      "name": "parameterize",
      "outputs": [],
      "stateMutability": "nonpayable",
      "type": "function"
    },
    {
      "inputs": [],
      "name": "params",
      "outputs": [
        {
          "internalType": "address",
          "name": "soul",
          "type": "address"
        },
        {
          "internalType": "bool",
          "name": "burnable",
          "type": "bool"
        },
        {
          "internalType": "address",
          "name": "limbo",
          "type": "address"
        },
        {
          "internalType": "address",
          "name": "tokenProxyRegistry",
          "type": "address"
        }
      ],
      "stateMutability": "view",
      "type": "function"
    },
    {
      "inputs": [],
      "name": "power",
      "outputs": [
        {
          "internalType": "bytes32",
          "name": "name",
          "type": "bytes32"
        },
        {
          "internalType": "bytes32",
          "name": "domain",
          "type": "bytes32"
        },
        {
          "internalType": "bool",
          "name": "transferrable",
          "type": "bool"
        },
        {
          "internalType": "bool",
          "name": "unique",
          "type": "bool"
        }
      ],
      "stateMutability": "view",
      "type": "function"
    },
    {
      "inputs": [],
      "name": "registry",
      "outputs": [
        {
          "internalType": "contract PowersRegistry",
          "name": "",
          "type": "address"
        }
      ],
      "stateMutability": "view",
      "type": "function"
    }
  ],
  "bytecode": "0x60806040523480156200001157600080fd5b5060405162001d5038038062001d50833981810160405281019062000037919062000441565b7f4144445f544f4b454e5f544f5f4245484f444c455200000000000000000000008380600460006101000a81548173ffffffffffffffffffffffffffffffffffffffff021916908373ffffffffffffffffffffffffffffffffffffffff1602179055506000600460009054906101000a900473ffffffffffffffffffffffffffffffffffffffff1673ffffffffffffffffffffffffffffffffffffffff166321f8a721600460009054906101000a900473ffffffffffffffffffffffffffffffffffffffff1673ffffffffffffffffffffffffffffffffffffffff1663796368a16040518163ffffffff1660e01b8152600401602060405180830381865afa15801562000148573d6000803e3d6000fd5b505050506040513d601f19601f820116820180604052508101906200016e9190620004d8565b6040518263ffffffff1660e01b81526004016200018c91906200051b565b602060405180830381865afa158015620001aa573d6000803e3d6000fd5b505050506040513d601f19601f82011682018060405250810190620001d0919062000538565b905080600360006101000a81548173ffffffffffffffffffffffffffffffffffffffff021916908373ffffffffffffffffffffffffffffffffffffffff160217905550600080600080600360009054906101000a900473ffffffffffffffffffffffffffffffffffffffff1673ffffffffffffffffffffffffffffffffffffffff1663b872c523886040518263ffffffff1660e01b81526004016200027691906200051b565b608060405180830381865afa15801562000294573d6000803e3d6000fd5b505050506040513d601f19601f82011682018060405250810190620002ba9190620005a7565b93509350935093506040518060800160405280858152602001848152602001831515815260200182151581525060008082015181600001556020820151816001015560408201518160020160006101000a81548160ff02191690831515021790555060608201518160020160016101000a81548160ff0219169083151502179055509050505050505050505081600560010160006101000a81548173ffffffffffffffffffffffffffffffffffffffff021916908373ffffffffffffffffffffffffffffffffffffffff16021790555080600560020160006101000a81548173ffffffffffffffffffffffffffffffffffffffff021916908373ffffffffffffffffffffffffffffffffffffffff16021790555050505062000619565b600080fd5b600073ffffffffffffffffffffffffffffffffffffffff82169050919050565b60006200040982620003dc565b9050919050565b6200041b81620003fc565b81146200042757600080fd5b50565b6000815190506200043b8162000410565b92915050565b6000806000606084860312156200045d576200045c620003d7565b5b60006200046d868287016200042a565b935050602062000480868287016200042a565b925050604062000493868287016200042a565b9150509250925092565b6000819050919050565b620004b2816200049d565b8114620004be57600080fd5b50565b600081519050620004d281620004a7565b92915050565b600060208284031215620004f157620004f0620003d7565b5b60006200050184828501620004c1565b91505092915050565b62000515816200049d565b82525050565b60006020820190506200053260008301846200050a565b92915050565b600060208284031215620005515762000550620003d7565b5b600062000561848285016200042a565b91505092915050565b60008115159050919050565b62000581816200056a565b81146200058d57600080fd5b50565b600081519050620005a18162000576565b92915050565b60008060008060808587031215620005c457620005c3620003d7565b5b6000620005d487828801620004c1565b9450506020620005e787828801620004c1565b9350506040620005fa8782880162000590565b92505060606200060d8782880162000590565b91505092959194509250565b61172780620006296000396000f3fe608060405234801561001057600080fd5b50600436106100625760003560e01c806314c6fd28146100675780634a4d59fa146100835780637b103999146100a4578063c936c233146100c2578063cff0ab96146100de578063f77b09c2146100ff575b600080fd5b610081600480360381019061007c9190610f32565b61011d565b005b61008b610215565b60405161009b9493929190610f9a565b60405180910390f35b6100ac61024d565b6040516100b9919061103e565b60405180910390f35b6100dc60048036038101906100d79190611085565b610273565b005b6100e66105f4565b6040516100f694939291906110d4565b60405180910390f35b61010761067f565b604051610114919061113a565b60405180910390f35b600560010160009054906101000a900473ffffffffffffffffffffffffffffffffffffffff1673ffffffffffffffffffffffffffffffffffffffff163373ffffffffffffffffffffffffffffffffffffffff16146101b0576040517f08c379a00000000000000000000000000000000000000000000000000000000081526004016101a7906111d8565b60405180910390fd5b81600560000160006101000a81548173ffffffffffffffffffffffffffffffffffffffff021916908373ffffffffffffffffffffffffffffffffffffffff16021790555080600560000160146101000a81548160ff0219169083151502179055505050565b60008060000154908060010154908060020160009054906101000a900460ff16908060020160019054906101000a900460ff16905084565b600360009054906101000a900473ffffffffffffffffffffffffffffffffffffffff1681565b600460009054906101000a900473ffffffffffffffffffffffffffffffffffffffff1673ffffffffffffffffffffffffffffffffffffffff163373ffffffffffffffffffffffffffffffffffffffff1614610303576040517f08c379a00000000000000000000000000000000000000000000000000000000081526004016102fa90611244565b60405180910390fd5b600360009054906101000a900473ffffffffffffffffffffffffffffffffffffffff1673ffffffffffffffffffffffffffffffffffffffff16636f9f071982846040518363ffffffff1660e01b8152600401610360929190611264565b602060405180830381865afa15801561037d573d6000803e3d6000fd5b505050506040513d601f19601f820116820180604052508101906103a191906112a2565b6103e0576040517f08c379a00000000000000000000000000000000000000000000000000000000081526004016103d790611341565b60405180910390fd5b6103e86106a5565b610427576040517f08c379a000000000000000000000000000000000000000000000000000000000815260040161041e906113ad565b60405180910390fd5b7fbf5b23777e352e9708c3b8c426082bfe210a51d7fa57e008add695df522b804c818360006001015460405161045f939291906113cd565b60405180910390a16000600460009054906101000a900473ffffffffffffffffffffffffffffffffffffffff1673ffffffffffffffffffffffffffffffffffffffff166321f8a7216000600101546040518263ffffffff1660e01b81526004016104c99190611404565b602060405180830381865afa1580156104e6573d6000803e3d6000fd5b505050506040513d601f19601f8201168201806040525081019061050a9190611434565b9050600460009054906101000a900473ffffffffffffffffffffffffffffffffffffffff1673ffffffffffffffffffffffffffffffffffffffff168173ffffffffffffffffffffffffffffffffffffffff16146105ef578073ffffffffffffffffffffffffffffffffffffffff1663f2fde38b600460009054906101000a900473ffffffffffffffffffffffffffffffffffffffff166040518263ffffffff1660e01b81526004016105bc9190611461565b600060405180830381600087803b1580156105d657600080fd5b505af11580156105ea573d6000803e3d6000fd5b505050505b505050565b60058060000160009054906101000a900473ffffffffffffffffffffffffffffffffffffffff16908060000160149054906101000a900460ff16908060010160009054906101000a900473ffffffffffffffffffffffffffffffffffffffff16908060020160009054906101000a900473ffffffffffffffffffffffffffffffffffffffff16905084565b600460009054906101000a900473ffffffffffffffffffffffffffffffffffffffff1681565b60006106af610e2b565b6000600460009054906101000a900473ffffffffffffffffffffffffffffffffffffffff1673ffffffffffffffffffffffffffffffffffffffff166321f8a7216000600101546040518263ffffffff1660e01b81526004016107119190611404565b602060405180830381865afa15801561072e573d6000803e3d6000fd5b505050506040513d601f19601f820116820180604052508101906107529190611434565b90506000600460009054906101000a900473ffffffffffffffffffffffffffffffffffffffff1673ffffffffffffffffffffffffffffffffffffffff166321f8a7216040518163ffffffff1660e01b81526004016107af906114a2565b602060405180830381865afa1580156107cc573d6000803e3d6000fd5b505050506040513d601f19601f820116820180604052508101906107f09190611434565b9050600073ffffffffffffffffffffffffffffffffffffffff16836000015173ffffffffffffffffffffffffffffffffffffffff1603610865576040517f08c379a000000000000000000000000000000000000000000000000000000000815260040161085c9061152d565b60405180910390fd5b60008360600151905060008173ffffffffffffffffffffffffffffffffffffffff16637f1c59ae86600001516040518263ffffffff1660e01b81526004016108ad9190611461565b60408051808303816000875af11580156108cb573d6000803e3d6000fd5b505050506040513d601f19601f820116820180604052508101906108ef919061154d565b91505060008073ffffffffffffffffffffffffffffffffffffffff168273ffffffffffffffffffffffffffffffffffffffff161461092d5781610933565b85600001515b905060008590508073ffffffffffffffffffffffffffffffffffffffff166366ce93ca8360018a602001516040518463ffffffff1660e01b815260040161097c9392919061158d565b600060405180830381600087803b15801561099657600080fd5b505af11580156109aa573d6000803e3d6000fd5b505050508073ffffffffffffffffffffffffffffffffffffffff16637a29e022836040518263ffffffff1660e01b81526004016109e79190611461565b600060405180830381600087803b158015610a0157600080fd5b505af1158015610a15573d6000803e3d6000fd5b505050506000876000015173ffffffffffffffffffffffffffffffffffffffff166370a08231306040518263ffffffff1660e01b8152600401610a589190611461565b602060405180830381865afa158015610a75573d6000803e3d6000fd5b505050506040513d601f19601f82011682018060405250810190610a9991906115fa565b905060008111610ade576040517f08c379a0000000000000000000000000000000000000000000000000000000008152600401610ad590611699565b60405180910390fd5b876000015173ffffffffffffffffffffffffffffffffffffffff1663a9059cbb8960600151836040518363ffffffff1660e01b8152600401610b219291906116c8565b6020604051808303816000875af1158015610b40573d6000803e3d6000fd5b505050506040513d601f19601f82011682018060405250810190610b6491906112a2565b508473ffffffffffffffffffffffffffffffffffffffff1663196c715789600001516040518263ffffffff1660e01b8152600401610ba29190611461565b6020604051808303816000875af1158015610bc1573d6000803e3d6000fd5b505050506040513d601f19601f82011682018060405250810190610be591906112a2565b5060008673ffffffffffffffffffffffffffffffffffffffff166370a08231306040518263ffffffff1660e01b8152600401610c219190611461565b602060405180830381865afa158015610c3e573d6000803e3d6000fd5b505050506040513d601f19601f82011682018060405250810190610c6291906115fa565b90508673ffffffffffffffffffffffffffffffffffffffff1663a9059cbb8a60400151836040518363ffffffff1660e01b8152600401610ca39291906116c8565b6020604051808303816000875af1158015610cc2573d6000803e3d6000fd5b505050506040513d601f19601f82011682018060405250810190610ce691906112a2565b506000896000019073ffffffffffffffffffffffffffffffffffffffff16908173ffffffffffffffffffffffffffffffffffffffff168152505088600560008201518160000160006101000a81548173ffffffffffffffffffffffffffffffffffffffff021916908373ffffffffffffffffffffffffffffffffffffffff16021790555060208201518160000160146101000a81548160ff02191690831515021790555060408201518160010160006101000a81548173ffffffffffffffffffffffffffffffffffffffff021916908373ffffffffffffffffffffffffffffffffffffffff16021790555060608201518160020160006101000a81548173ffffffffffffffffffffffffffffffffffffffff021916908373ffffffffffffffffffffffffffffffffffffffff1602179055509050506001995050505050505050505090565b6040518060800160405280600073ffffffffffffffffffffffffffffffffffffffff168152602001600015158152602001600073ffffffffffffffffffffffffffffffffffffffff168152602001600073ffffffffffffffffffffffffffffffffffffffff1681525090565b600080fd5b600073ffffffffffffffffffffffffffffffffffffffff82169050919050565b6000610ec782610e9c565b9050919050565b610ed781610ebc565b8114610ee257600080fd5b50565b600081359050610ef481610ece565b92915050565b60008115159050919050565b610f0f81610efa565b8114610f1a57600080fd5b50565b600081359050610f2c81610f06565b92915050565b60008060408385031215610f4957610f48610e97565b5b6000610f5785828601610ee5565b9250506020610f6885828601610f1d565b9150509250929050565b6000819050919050565b610f8581610f72565b82525050565b610f9481610efa565b82525050565b6000608082019050610faf6000830187610f7c565b610fbc6020830186610f7c565b610fc96040830185610f8b565b610fd66060830184610f8b565b95945050505050565b6000819050919050565b6000611004610fff610ffa84610e9c565b610fdf565b610e9c565b9050919050565b600061101682610fe9565b9050919050565b60006110288261100b565b9050919050565b6110388161101d565b82525050565b6000602082019050611053600083018461102f565b92915050565b61106281610f72565b811461106d57600080fd5b50565b60008135905061107f81611059565b92915050565b6000806040838503121561109c5761109b610e97565b5b60006110aa85828601611070565b92505060206110bb85828601610ee5565b9150509250929050565b6110ce81610ebc565b82525050565b60006080820190506110e960008301876110c5565b6110f66020830186610f8b565b61110360408301856110c5565b61111060608301846110c5565b95945050505050565b60006111248261100b565b9050919050565b61113481611119565b82525050565b600060208201905061114f600083018461112b565b92915050565b600082825260208201905092915050565b7f4d4f52474f54483a204f6e6c79204c696d626f2063616e206d6967726174652060008201527f746f6b656e732066726f6d204c696d626f2e0000000000000000000000000000602082015250565b60006111c2603283611155565b91506111cd82611166565b604082019050919050565b600060208201905081810360008301526111f1816111b5565b9050919050565b7f4d4f52474f54483a20616e6762616e64206f6e6c790000000000000000000000600082015250565b600061122e601583611155565b9150611239826111f8565b602082019050919050565b6000602082019050818103600083015261125d81611221565b9050919050565b600060408201905061127960008301856110c5565b6112866020830184610f7c565b9392505050565b60008151905061129c81610f06565b92915050565b6000602082840312156112b8576112b7610e97565b5b60006112c68482850161128d565b91505092915050565b7f4d4f52474f54483a20496e766f636174696f6e206279206d696e696f6e73206f60008201527f6e6c792e00000000000000000000000000000000000000000000000000000000602082015250565b600061132b602483611155565b9150611336826112cf565b604082019050919050565b6000602082019050818103600083015261135a8161131e565b9050919050565b7f4d4f52474f54483a20506f77657220696e766f636174696f6e00000000000000600082015250565b6000611397601983611155565b91506113a282611361565b602082019050919050565b600060208201905081810360008301526113c68161138a565b9050919050565b60006060820190506113e260008301866110c5565b6113ef6020830185610f7c565b6113fc6040830184610f7c565b949350505050565b60006020820190506114196000830184610f7c565b92915050565b60008151905061142e81610ece565b92915050565b60006020828403121561144a57611449610e97565b5b60006114588482850161141f565b91505092915050565b600060208201905061147660008301846110c5565b92915050565b7f4245484f444c4552000000000000000000000000000000000000000000000000815250565b60006020820190506114b66000830161147c565b919050565b7f4d4f52474f54483a20506f776572496e766f6b6572206e6f7420706172616d6560008201527f746572697a65642e000000000000000000000000000000000000000000000000602082015250565b6000611517602883611155565b9150611522826114bb565b604082019050919050565b600060208201905081810360008301526115468161150a565b9050919050565b6000806040838503121561156457611563610e97565b5b60006115728582860161141f565b92505060206115838582860161141f565b9150509250929050565b60006060820190506115a260008301866110c5565b6115af6020830185610f8b565b6115bc6040830184610f8b565b949350505050565b6000819050919050565b6115d7816115c4565b81146115e257600080fd5b50565b6000815190506115f4816115ce565b92915050565b6000602082840312156116105761160f610e97565b5b600061161e848285016115e5565b91505092915050565b7f4d4f52474f54483a2072656d656d62657220746f207365656420636f6e74726160008201527f6374000000000000000000000000000000000000000000000000000000000000602082015250565b6000611683602283611155565b915061168e82611627565b604082019050919050565b600060208201905081810360008301526116b281611676565b9050919050565b6116c2816115c4565b82525050565b60006040820190506116dd60008301856110c5565b6116ea60208301846116b9565b939250505056fea264697066735822122044abd6d0282857660050becab336206810416db2cb29274586a3c9ed4de8fb6864736f6c634300080d0033",
  "linkReferences": {},
  "deployedLinkReferences": {}
}