{
  "_format": "hh-sol-artifact-1",
  "contractName": "PowersRegistry",
  "sourceName": "contracts/periphery/BehodlerLite/LimboAddTokenToBehodler.sol",
  "abi": [
    {
      "inputs": [],
      "stateMutability": "nonpayable",
      "type": "constructor"
    },
    {
      "anonymous": false,
      "inputs": [
        {
          "indexed": true,
          "internalType": "address",
          "name": "previousOwner",
          "type": "address"
        },
        {
          "indexed": true,
          "internalType": "address",
          "name": "newOwner",
          "type": "address"
        }
      ],
      "name": "OwnershipTransferred",
      "type": "event"
    },
    {
      "inputs": [],
      "name": "ADD_TOKEN_TO_BEHODLER",
      "outputs": [
        {
          "internalType": "bytes32",
          "name": "",
          "type": "bytes32"
        }
      ],
      "stateMutability": "view",
      "type": "function"
    },
    {
      "inputs": [],
      "name": "AUTHORIZE_INVOKER",
      "outputs": [
        {
          "internalType": "bytes32",
          "name": "",
          "type": "bytes32"
        }
      ],
      "stateMutability": "view",
      "type": "function"
    },
    {
      "inputs": [],
      "name": "BOND_USER_TO_MINION",
      "outputs": [
        {
          "internalType": "bytes32",
          "name": "",
          "type": "bytes32"
        }
      ],
      "stateMutability": "view",
      "type": "function"
    },
    {
      "inputs": [],
      "name": "CHANGE_POWERS",
      "outputs": [
        {
          "internalType": "bytes32",
          "name": "",
          "type": "bytes32"
        }
      ],
      "stateMutability": "view",
      "type": "function"
    },
    {
      "inputs": [],
      "name": "CONFIGURE_SCARCITY",
      "outputs": [
        {
          "internalType": "bytes32",
          "name": "",
          "type": "bytes32"
        }
      ],
      "stateMutability": "view",
      "type": "function"
    },
    {
      "inputs": [],
      "name": "CONFIGURE_THANGORODRIM",
      "outputs": [
        {
          "internalType": "bytes32",
          "name": "",
          "type": "bytes32"
        }
      ],
      "stateMutability": "view",
      "type": "function"
    },
    {
      "inputs": [],
      "name": "CREATE_NEW_POWER",
      "outputs": [
        {
          "internalType": "bytes32",
          "name": "",
          "type": "bytes32"
        }
      ],
      "stateMutability": "view",
      "type": "function"
    },
    {
      "inputs": [],
      "name": "DISPUTE_DECISION",
      "outputs": [
        {
          "internalType": "bytes32",
          "name": "",
          "type": "bytes32"
        }
      ],
      "stateMutability": "view",
      "type": "function"
    },
    {
      "inputs": [],
      "name": "INSERT_SILMARIL",
      "outputs": [
        {
          "internalType": "bytes32",
          "name": "",
          "type": "bytes32"
        }
      ],
      "stateMutability": "view",
      "type": "function"
    },
    {
      "inputs": [],
      "name": "NULL",
      "outputs": [
        {
          "internalType": "bytes32",
          "name": "",
          "type": "bytes32"
        }
      ],
      "stateMutability": "view",
      "type": "function"
    },
    {
      "inputs": [],
      "name": "ORDER66",
      "outputs": [
        {
          "internalType": "bytes32",
          "name": "",
          "type": "bytes32"
        }
      ],
      "stateMutability": "view",
      "type": "function"
    },
    {
      "inputs": [],
      "name": "POINT_TO_BEHODLER",
      "outputs": [
        {
          "internalType": "bytes32",
          "name": "",
          "type": "bytes32"
        }
      ],
      "stateMutability": "view",
      "type": "function"
    },
    {
      "inputs": [],
      "name": "SEIZE_POWER",
      "outputs": [
        {
          "internalType": "bytes32",
          "name": "",
          "type": "bytes32"
        }
      ],
      "stateMutability": "view",
      "type": "function"
    },
    {
      "inputs": [],
      "name": "SET_DISPUTE_TIMEOUT",
      "outputs": [
        {
          "internalType": "bytes32",
          "name": "",
          "type": "bytes32"
        }
      ],
      "stateMutability": "view",
      "type": "function"
    },
    {
      "inputs": [],
      "name": "TREASURER",
      "outputs": [
        {
          "internalType": "bytes32",
          "name": "",
          "type": "bytes32"
        }
      ],
      "stateMutability": "view",
      "type": "function"
    },
    {
      "inputs": [],
      "name": "VETO_BAD_OUTCOME",
      "outputs": [
        {
          "internalType": "bytes32",
          "name": "",
          "type": "bytes32"
        }
      ],
      "stateMutability": "view",
      "type": "function"
    },
    {
      "inputs": [],
      "name": "WIRE_ANGBAND",
      "outputs": [
        {
          "internalType": "bytes32",
          "name": "",
          "type": "bytes32"
        }
      ],
      "stateMutability": "view",
      "type": "function"
    },
    {
      "inputs": [
        {
          "internalType": "address",
          "name": "user",
          "type": "address"
        },
        {
          "internalType": "bytes32",
          "name": "minion",
          "type": "bytes32"
        }
      ],
      "name": "bondUserToMinion",
      "outputs": [],
      "stateMutability": "nonpayable",
      "type": "function"
    },
    {
      "inputs": [
        {
          "internalType": "address",
          "name": "user",
          "type": "address"
        },
        {
          "internalType": "bytes32",
          "name": "minion",
          "type": "bytes32"
        }
      ],
      "name": "castIntoVoid",
      "outputs": [],
      "stateMutability": "nonpayable",
      "type": "function"
    },
    {
      "inputs": [
        {
          "internalType": "address",
          "name": "_powers",
          "type": "address"
        }
      ],
      "name": "changePower",
      "outputs": [],
      "stateMutability": "nonpayable",
      "type": "function"
    },
    {
      "inputs": [
        {
          "internalType": "bytes32",
          "name": "power",
          "type": "bytes32"
        },
        {
          "internalType": "bytes32",
          "name": "domain",
          "type": "bytes32"
        },
        {
          "internalType": "bool",
          "name": "transferrable",
          "type": "bool"
        },
        {
          "internalType": "bool",
          "name": "unique",
          "type": "bool"
        }
      ],
      "name": "create",
      "outputs": [],
      "stateMutability": "nonpayable",
      "type": "function"
    },
    {
      "inputs": [
        {
          "internalType": "bytes32",
          "name": "power",
          "type": "bytes32"
        }
      ],
      "name": "destroy",
      "outputs": [],
      "stateMutability": "nonpayable",
      "type": "function"
    },
    {
      "inputs": [
        {
          "internalType": "address",
          "name": "user",
          "type": "address"
        },
        {
          "internalType": "bytes32",
          "name": "minion",
          "type": "bytes32"
        }
      ],
      "name": "isUserMinion",
      "outputs": [
        {
          "internalType": "bool",
          "name": "",
          "type": "bool"
        }
      ],
      "stateMutability": "view",
      "type": "function"
    },
    {
      "inputs": [
        {
          "internalType": "bytes32",
          "name": "",
          "type": "bytes32"
        }
      ],
      "name": "minionUser",
      "outputs": [
        {
          "internalType": "address",
          "name": "",
          "type": "address"
        }
      ],
      "stateMutability": "view",
      "type": "function"
    },
    {
      "inputs": [],
      "name": "owner",
      "outputs": [
        {
          "internalType": "address",
          "name": "",
          "type": "address"
        }
      ],
      "stateMutability": "view",
      "type": "function"
    },
    {
      "inputs": [
        {
          "internalType": "bytes32",
          "name": "power",
          "type": "bytes32"
        },
        {
          "internalType": "bytes32",
          "name": "minion_to",
          "type": "bytes32"
        }
      ],
      "name": "pour",
      "outputs": [],
      "stateMutability": "nonpayable",
      "type": "function"
    },
    {
      "inputs": [
        {
          "internalType": "bytes32",
          "name": "",
          "type": "bytes32"
        }
      ],
      "name": "powers",
      "outputs": [
        {
          "internalType": "bytes32",
          "name": "name",
          "type": "bytes32"
        },
        {
          "internalType": "bytes32",
          "name": "domain",
          "type": "bytes32"
        },
        {
          "internalType": "bool",
          "name": "transferrable",
          "type": "bool"
        },
        {
          "internalType": "bool",
          "name": "unique",
          "type": "bool"
        }
      ],
      "stateMutability": "view",
      "type": "function"
    },
    {
      "inputs": [],
      "name": "renounceOwnership",
      "outputs": [],
      "stateMutability": "nonpayable",
      "type": "function"
    },
    {
      "inputs": [],
      "name": "seed",
      "outputs": [],
      "stateMutability": "nonpayable",
      "type": "function"
    },
    {
      "inputs": [
        {
          "internalType": "bytes32",
          "name": "power",
          "type": "bytes32"
        },
        {
          "internalType": "bytes32",
          "name": "minion_to",
          "type": "bytes32"
        }
      ],
      "name": "spread",
      "outputs": [],
      "stateMutability": "nonpayable",
      "type": "function"
    },
    {
      "inputs": [
        {
          "internalType": "address",
          "name": "newOwner",
          "type": "address"
        }
      ],
      "name": "transferOwnership",
      "outputs": [],
      "stateMutability": "nonpayable",
      "type": "function"
    },
    {
      "inputs": [
        {
          "internalType": "bytes32",
          "name": "power",
          "type": "bytes32"
        },
        {
          "internalType": "address",
          "name": "user",
          "type": "address"
        }
      ],
      "name": "userHasPower",
      "outputs": [
        {
          "internalType": "bool",
          "name": "",
          "type": "bool"
        }
      ],
      "stateMutability": "view",
      "type": "function"
    },
    {
      "inputs": [
        {
          "internalType": "address",
          "name": "",
          "type": "address"
        }
      ],
      "name": "userMinion",
      "outputs": [
        {
          "internalType": "bytes32",
          "name": "",
          "type": "bytes32"
        }
      ],
      "stateMutability": "view",
      "type": "function"
    }
  ],
  "bytecode": "0x608060405234801561001057600080fd5b50336000806101000a81548173ffffffffffffffffffffffffffffffffffffffff021916908373ffffffffffffffffffffffffffffffffffffffff1602179055503373ffffffffffffffffffffffffffffffffffffffff16600073ffffffffffffffffffffffffffffffffffffffff167f8be0079c531659141344cd1fd0a4f28419497f9722a3daafe3b4186f6b6457e060405160405180910390a3600880600181540180825580915050600190039060005260206000200160007f4d656c6b6f720000000000000000000000000000000000000000000000000000909190915055600880600181540180825580915050600190039060005260206000200160007f556e676f6c69616e740000000000000000000000000000000000000000000000909190915055600880600181540180825580915050600190039060005260206000200160007f536175726f6e0000000000000000000000000000000000000000000000000000909190915055600880600181540180825580915050600190039060005260206000200160007f536172756d616e00000000000000000000000000000000000000000000000000909190915055600880600181540180825580915050600190039060005260206000200160007f476c617572756e67000000000000000000000000000000000000000000000000909190915055600880600181540180825580915050600190039060005260206000200160007f476f74686d6f6700000000000000000000000000000000000000000000000000909190915055600880600181540180825580915050600190039060005260206000200160007f436172636861726f746800000000000000000000000000000000000000000000909190915055600880600181540180825580915050600190039060005260206000200160007f57697463686b696e670000000000000000000000000000000000000000000000909190915055600880600181540180825580915050600190039060005260206000200160007f536d617567000000000000000000000000000000000000000000000000000000909190915055600880600181540180825580915050600190039060005260206000200160007f647261676f6e0000000000000000000000000000000000000000000000000000909190915055600880600181540180825580915050600190039060005260206000200160007f62616c726f670000000000000000000000000000000000000000000000000000909190915055600880600181540180825580915050600190039060005260206000200160007f6f726300000000000000000000000000000000000000000000000000000000009091909150556001600360003373ffffffffffffffffffffffffffffffffffffffff1673ffffffffffffffffffffffffffffffffffffffff16815260200190815260200160002060007f4d656c6b6f720000000000000000000000000000000000000000000000000000815260200190815260200160002060006101000a81548160ff0219169083151502179055506001600460007f4352454154455f4e45575f504f57455200000000000000000000000000000000815260200190815260200160002060007f4d656c6b6f720000000000000000000000000000000000000000000000000000815260200190815260200160002060006101000a81548160ff0219169083151502179055506001600460007f5345495a455f504f574552000000000000000000000000000000000000000000815260200190815260200160002060007f4d656c6b6f720000000000000000000000000000000000000000000000000000815260200190815260200160002060006101000a81548160ff0219169083151502179055506001600460007f424f4e445f555345525f544f5f4d494e494f4e00000000000000000000000000815260200190815260200160002060007f4d656c6b6f720000000000000000000000000000000000000000000000000000815260200190815260200160002060006101000a81548160ff0219169083151502179055506001600560007f4d656c6b6f720000000000000000000000000000000000000000000000000000815260200190815260200160002060007f4352454154455f4e45575f504f57455200000000000000000000000000000000815260200190815260200160002060006101000a81548160ff0219169083151502179055506001600560007f4d656c6b6f720000000000000000000000000000000000000000000000000000815260200190815260200160002060007f5345495a455f504f574552000000000000000000000000000000000000000000815260200190815260200160002060006101000a81548160ff0219169083151502179055506001600560007f4d656c6b6f720000000000000000000000000000000000000000000000000000815260200190815260200160002060007f424f4e445f555345525f544f5f4d494e494f4e00000000000000000000000000815260200190815260200160002060006101000a81548160ff0219169083151502179055507f4d656c6b6f720000000000000000000000000000000000000000000000000000600660003373ffffffffffffffffffffffffffffffffffffffff1673ffffffffffffffffffffffffffffffffffffffff1681526020019081526020016000208190555033600760007f4d656c6b6f720000000000000000000000000000000000000000000000000000815260200190815260200160002060006101000a81548173ffffffffffffffffffffffffffffffffffffffff021916908373ffffffffffffffffffffffffffffffffffffffff16021790555060018060146101000a81548160ff021916908315150217905550612e678061086a6000396000f3fe608060405234801561001057600080fd5b50600436106101fb5760003560e01c80637d94792a1161011a578063d2f0bf5c116100ad578063f2fde38b1161007c578063f2fde38b14610571578063f5fd1feb1461058d578063f70b6fc5146105ab578063fb1849ee146105c9578063fb3773e2146105e7576101fb565b8063d2f0bf5c146104e7578063e1f34b3014610505578063eabe0a8314610535578063f26be3fc14610553576101fb565b8063a7352b61116100e9578063a7352b6114610448578063adffe2d314610478578063af122def14610496578063b872c523146104b4576101fb565b80637d94792a146103e65780637fe48f8e146103f05780638da5cb5b1461040e5780639509ff4f1461042c576101fb565b80635649cd63116101925780636f9f0719116101615780636f9f071914610370578063715018a6146103a057806373daf98c146103aa5780637cc2af3d146103c8576101fb565b80635649cd63146102fc57806369534425146103185780636be48259146103365780636e0bd28214610354576101fb565b8063250d4c6d116101ce578063250d4c6d1461027657806332b68b6d146102a65780633983d17a146102c457806343810901146102e0576101fb565b806301f6d8d714610200578063093ad4f51461021e5780631f299e7e1461023c5780632140c9aa14610258575b600080fd5b610208610603565b60405161021591906125f3565b60405180910390f35b610226610627565b60405161023391906125f3565b60405180910390f35b6102566004803603810190610251919061263f565b61064b565b005b61026061086f565b60405161026d91906125f3565b60405180910390f35b610290600480360381019061028b91906126dd565b610893565b60405161029d9190612738565b60405180910390f35b6102ae610913565b6040516102bb91906125f3565b60405180910390f35b6102de60048036038101906102d9919061263f565b610937565b005b6102fa60048036038101906102f59190612753565b610ce0565b005b61031660048036038101906103119190612753565b611005565b005b61032061123b565b60405161032d91906125f3565b60405180910390f35b61033e61125f565b60405161034b91906125f3565b60405180910390f35b61036e60048036038101906103699190612793565b611283565b005b61038a60048036038101906103859190612753565b6115a2565b6040516103979190612738565b60405180910390f35b6103a861160a565b005b6103b2611756565b6040516103bf91906125f3565b60405180910390f35b6103d061177a565b6040516103dd91906125f3565b60405180910390f35b6103ee61179e565b005b6103f8611b71565b60405161040591906125f3565b60405180910390f35b610416611b95565b60405161042391906127cf565b60405180910390f35b61044660048036038101906104419190612816565b611bbe565b005b610462600480360381019061045d919061287d565b611dd7565b60405161046f91906125f3565b60405180910390f35b610480611def565b60405161048d91906125f3565b60405180910390f35b61049e611e13565b6040516104ab91906125f3565b60405180910390f35b6104ce60048036038101906104c99190612793565b611e37565b6040516104de94939291906128aa565b60405180910390f35b6104ef611e81565b6040516104fc91906125f3565b60405180910390f35b61051f600480360381019061051a9190612793565b611ea5565b60405161052c91906127cf565b60405180910390f35b61053d611ed8565b60405161054a91906125f3565b60405180910390f35b61055b611efc565b60405161056891906125f3565b60405180910390f35b61058b6004803603810190610586919061287d565b611f20565b005b6105956120da565b6040516105a291906125f3565b60405180910390f35b6105b36120fe565b6040516105c091906125f3565b60405180910390f35b6105d1612122565b6040516105de91906125f3565b60405180910390f35b61060160048036038101906105fc919061287d565b612146565b005b7f574952455f414e4742414e44000000000000000000000000000000000000000081565b7f5345545f444953505554455f54494d454f55540000000000000000000000000081565b81600160149054906101000a900460ff1661069b576040517f08c379a00000000000000000000000000000000000000000000000000000000081526004016106929061294c565b60405180910390fd5b3073ffffffffffffffffffffffffffffffffffffffff163373ffffffffffffffffffffffffffffffffffffffff16148061076f5750600160009054906101000a900473ffffffffffffffffffffffffffffffffffffffff1673ffffffffffffffffffffffffffffffffffffffff1663250d4c6d82336040518363ffffffff1660e01b815260040161072d92919061296c565b602060405180830381865afa15801561074a573d6000803e3d6000fd5b505050506040513d601f19601f8201168201806040525081019061076e91906129aa565b5b6107ae576040517f08c379a00000000000000000000000000000000000000000000000000000000081526004016107a590612a23565b60405180910390fd5b60006002600085815260200190815260200160002060405180608001604052908160008201548152602001600182015481526020016002820160009054906101000a900460ff161515151581526020016002820160019054906101000a900460ff161515151581525050905080606001511561085f576040517f08c379a000000000000000000000000000000000000000000000000000000000815260040161085690612a8f565b60405180910390fd5b610869848461255c565b50505050565b7f4348414e47455f504f574552530000000000000000000000000000000000000081565b600080600660008473ffffffffffffffffffffffffffffffffffffffff1673ffffffffffffffffffffffffffffffffffffffff16815260200190815260200160002054905060056000828152602001908152602001600020600085815260200190815260200160002060009054906101000a900460ff1691505092915050565b7f444953505554455f4445434953494f4e0000000000000000000000000000000081565b817f5345495a455f504f574552000000000000000000000000000000000000000000600160149054906101000a900460ff166109a8576040517f08c379a000000000000000000000000000000000000000000000000000000000815260040161099f90612afb565b60405180910390fd5b3073ffffffffffffffffffffffffffffffffffffffff163373ffffffffffffffffffffffffffffffffffffffff161480610a7c5750600160009054906101000a900473ffffffffffffffffffffffffffffffffffffffff1673ffffffffffffffffffffffffffffffffffffffff1663250d4c6d83336040518363ffffffff1660e01b8152600401610a3a92919061296c565b602060405180830381865afa158015610a57573d6000803e3d6000fd5b505050506040513d601f19601f82011682018060405250810190610a7b91906129aa565b5b80610b215750600160009054906101000a900473ffffffffffffffffffffffffffffffffffffffff1673ffffffffffffffffffffffffffffffffffffffff1663250d4c6d82336040518363ffffffff1660e01b8152600401610adf92919061296c565b602060405180830381865afa158015610afc573d6000803e3d6000fd5b505050506040513d601f19601f82011682018060405250810190610b2091906129aa565b5b610b60576040517f08c379a0000000000000000000000000000000000000000000000000000000008152600401610b5790612b67565b60405180910390fd5b60006002600086815260200190815260200160002060405180608001604052908160008201548152602001600182015481526020016002820160009054906101000a900460ff161515151581526020016002820160019054906101000a900460ff16151515158152505090508060400151610c10576040517f08c379a0000000000000000000000000000000000000000000000000000000008152600401610c0790612bd3565b60405180910390fd5b6000600660003373ffffffffffffffffffffffffffffffffffffffff1673ffffffffffffffffffffffffffffffffffffffff168152602001908152602001600020549050600060046000888152602001908152602001600020600083815260200190815260200160002060006101000a81548160ff021916908315150217905550600060056000838152602001908152602001600020600088815260200190815260200160002060006101000a81548160ff021916908315150217905550610cd8868661255c565b505050505050565b7f424f4e445f555345525f544f5f4d494e494f4e00000000000000000000000000600160149054906101000a900460ff16610d50576040517f08c379a0000000000000000000000000000000000000000000000000000000008152600401610d479061294c565b60405180910390fd5b3073ffffffffffffffffffffffffffffffffffffffff163373ffffffffffffffffffffffffffffffffffffffff161480610e245750600160009054906101000a900473ffffffffffffffffffffffffffffffffffffffff1673ffffffffffffffffffffffffffffffffffffffff1663250d4c6d82336040518363ffffffff1660e01b8152600401610de292919061296c565b602060405180830381865afa158015610dff573d6000803e3d6000fd5b505050506040513d601f19601f82011682018060405250810190610e2391906129aa565b5b610e63576040517f08c379a0000000000000000000000000000000000000000000000000000000008152600401610e5a90612a23565b60405180910390fd5b600360008473ffffffffffffffffffffffffffffffffffffffff1673ffffffffffffffffffffffffffffffffffffffff168152602001908152602001600020600083815260200190815260200160002060009054906101000a900460ff1615610f01576040517f08c379a0000000000000000000000000000000000000000000000000000000008152600401610ef890612c3f565b60405180910390fd5b6001600360008573ffffffffffffffffffffffffffffffffffffffff1673ffffffffffffffffffffffffffffffffffffffff168152602001908152602001600020600084815260200190815260200160002060006101000a81548160ff02191690831515021790555081600660008573ffffffffffffffffffffffffffffffffffffffff1673ffffffffffffffffffffffffffffffffffffffff16815260200190815260200160002081905550826007600084815260200190815260200160002060006101000a81548173ffffffffffffffffffffffffffffffffffffffff021916908373ffffffffffffffffffffffffffffffffffffffff160217905550505050565b7f424f4e445f555345525f544f5f4d494e494f4e00000000000000000000000000600160149054906101000a900460ff16611075576040517f08c379a000000000000000000000000000000000000000000000000000000000815260040161106c9061294c565b60405180910390fd5b3073ffffffffffffffffffffffffffffffffffffffff163373ffffffffffffffffffffffffffffffffffffffff1614806111495750600160009054906101000a900473ffffffffffffffffffffffffffffffffffffffff1673ffffffffffffffffffffffffffffffffffffffff1663250d4c6d82336040518363ffffffff1660e01b815260040161110792919061296c565b602060405180830381865afa158015611124573d6000803e3d6000fd5b505050506040513d601f19601f8201168201806040525081019061114891906129aa565b5b611188576040517f08c379a000000000000000000000000000000000000000000000000000000000815260040161117f90612a23565b60405180910390fd5b6000600360008573ffffffffffffffffffffffffffffffffffffffff1673ffffffffffffffffffffffffffffffffffffffff168152602001908152602001600020600084815260200190815260200160002060006101000a81548160ff0219169083151502179055506000600660008573ffffffffffffffffffffffffffffffffffffffff1673ffffffffffffffffffffffffffffffffffffffff16815260200190815260200160002081905550505050565b7f4f5244455236360000000000000000000000000000000000000000000000000081565b7f434f4e4649475552455f5343415243495459000000000000000000000000000081565b7f4352454154455f4e45575f504f574552000000000000000000000000000000007f4348414e47455f504f5745525300000000000000000000000000000000000000600160149054906101000a900460ff16611314576040517f08c379a000000000000000000000000000000000000000000000000000000000815260040161130b90612afb565b60405180910390fd5b3073ffffffffffffffffffffffffffffffffffffffff163373ffffffffffffffffffffffffffffffffffffffff1614806113e85750600160009054906101000a900473ffffffffffffffffffffffffffffffffffffffff1673ffffffffffffffffffffffffffffffffffffffff1663250d4c6d83336040518363ffffffff1660e01b81526004016113a692919061296c565b602060405180830381865afa1580156113c3573d6000803e3d6000fd5b505050506040513d601f19601f820116820180604052508101906113e791906129aa565b5b8061148d5750600160009054906101000a900473ffffffffffffffffffffffffffffffffffffffff1673ffffffffffffffffffffffffffffffffffffffff1663250d4c6d82336040518363ffffffff1660e01b815260040161144b92919061296c565b602060405180830381865afa158015611468573d6000803e3d6000fd5b505050506040513d601f19601f8201168201806040525081019061148c91906129aa565b5b6114cc576040517f08c379a00000000000000000000000000000000000000000000000000000000081526004016114c390612b67565b60405180910390fd5b60405180608001604052807f4e554c4c0000000000000000000000000000000000000000000000000000000081526020017f4e554c4c0000000000000000000000000000000000000000000000000000000081526020016000151581526020016000151581525060026000858152602001908152602001600020600082015181600001556020820151816001015560408201518160020160006101000a81548160ff02191690831515021790555060608201518160020160016101000a81548160ff021916908315150217905550905050505050565b6000600360008473ffffffffffffffffffffffffffffffffffffffff1673ffffffffffffffffffffffffffffffffffffffff168152602001908152602001600020600083815260200190815260200160002060009054906101000a900460ff16905092915050565b3373ffffffffffffffffffffffffffffffffffffffff1660008054906101000a900473ffffffffffffffffffffffffffffffffffffffff1673ffffffffffffffffffffffffffffffffffffffff1614611698576040517f08c379a000000000000000000000000000000000000000000000000000000000815260040161168f90612cab565b60405180910390fd5b600073ffffffffffffffffffffffffffffffffffffffff1660008054906101000a900473ffffffffffffffffffffffffffffffffffffffff1673ffffffffffffffffffffffffffffffffffffffff167f8be0079c531659141344cd1fd0a4f28419497f9722a3daafe3b4186f6b6457e060405160405180910390a360008060006101000a81548173ffffffffffffffffffffffffffffffffffffffff021916908373ffffffffffffffffffffffffffffffffffffffff160217905550565b7f415554484f52495a455f494e564f4b455200000000000000000000000000000081565b7f434f4e4649475552455f5448414e474f524f4452494d0000000000000000000081565b30600160006101000a81548173ffffffffffffffffffffffffffffffffffffffff021916908373ffffffffffffffffffffffffffffffffffffffff16021790555061182d7f4144445f544f4b454e5f544f5f4245484f444c455200000000000000000000007f4c4143484553495300000000000000000000000000000000000000000000000060016000611bbe565b6118777f4144445f544f4b454e5f544f5f4245484f444c455200000000000000000000007f4d656c6b6f720000000000000000000000000000000000000000000000000000610937565b6118c57f574952455f414e4742414e4400000000000000000000000000000000000000007f414e4742414e440000000000000000000000000000000000000000000000000060016000611bbe565b61190f7f574952455f414e4742414e4400000000000000000000000000000000000000007f4d656c6b6f720000000000000000000000000000000000000000000000000000610937565b61195d7f504f494e545f544f5f4245484f444c45520000000000000000000000000000007f4c4143484553495300000000000000000000000000000000000000000000000060016000611bbe565b6119a77f504f494e545f544f5f4245484f444c45520000000000000000000000000000007f4d656c6b6f720000000000000000000000000000000000000000000000000000610937565b6119f57f494e534552545f53494c4d4152494c00000000000000000000000000000000007f49524f4e5f43524f574e0000000000000000000000000000000000000000000060016000611bbe565b611a3f7f494e534552545f53494c4d4152494c00000000000000000000000000000000007f4d656c6b6f720000000000000000000000000000000000000000000000000000610937565b611a8d7f415554484f52495a455f494e564f4b45520000000000000000000000000000007f414e4742414e440000000000000000000000000000000000000000000000000060016000611bbe565b611ad77f415554484f52495a455f494e564f4b45520000000000000000000000000000007f4d656c6b6f720000000000000000000000000000000000000000000000000000610937565b611b257f54524541535552455200000000000000000000000000000000000000000000007f414e4742414e440000000000000000000000000000000000000000000000000060016000611bbe565b611b6f7f54524541535552455200000000000000000000000000000000000000000000007f4d656c6b6f720000000000000000000000000000000000000000000000000000610937565b565b7f5645544f5f4241445f4f5554434f4d450000000000000000000000000000000081565b60008060009054906101000a900473ffffffffffffffffffffffffffffffffffffffff16905090565b7f4352454154455f4e45575f504f57455200000000000000000000000000000000600160149054906101000a900460ff16611c2e576040517f08c379a0000000000000000000000000000000000000000000000000000000008152600401611c259061294c565b60405180910390fd5b3073ffffffffffffffffffffffffffffffffffffffff163373ffffffffffffffffffffffffffffffffffffffff161480611d025750600160009054906101000a900473ffffffffffffffffffffffffffffffffffffffff1673ffffffffffffffffffffffffffffffffffffffff1663250d4c6d82336040518363ffffffff1660e01b8152600401611cc092919061296c565b602060405180830381865afa158015611cdd573d6000803e3d6000fd5b505050506040513d601f19601f82011682018060405250810190611d0191906129aa565b5b611d41576040517f08c379a0000000000000000000000000000000000000000000000000000000008152600401611d3890612a23565b60405180910390fd5b6040518060800160405280868152602001858152602001841515815260200183151581525060026000878152602001908152602001600020600082015181600001556020820151816001015560408201518160020160006101000a81548160ff02191690831515021790555060608201518160020160016101000a81548160ff0219169083151502179055509050505050505050565b60066020528060005260406000206000915090505481565b7f494e534552545f53494c4d4152494c000000000000000000000000000000000081565b7f504f494e545f544f5f4245484f444c455200000000000000000000000000000081565b60026020528060005260406000206000915090508060000154908060010154908060020160009054906101000a900460ff16908060020160019054906101000a900460ff16905084565b7f5345495a455f504f57455200000000000000000000000000000000000000000081565b60076020528060005260406000206000915054906101000a900473ffffffffffffffffffffffffffffffffffffffff1681565b7f424f4e445f555345525f544f5f4d494e494f4e0000000000000000000000000081565b7f4e554c4c0000000000000000000000000000000000000000000000000000000081565b3373ffffffffffffffffffffffffffffffffffffffff1660008054906101000a900473ffffffffffffffffffffffffffffffffffffffff1673ffffffffffffffffffffffffffffffffffffffff1614611fae576040517f08c379a0000000000000000000000000000000000000000000000000000000008152600401611fa590612cab565b60405180910390fd5b600073ffffffffffffffffffffffffffffffffffffffff168173ffffffffffffffffffffffffffffffffffffffff160361201d576040517f08c379a000000000000000000000000000000000000000000000000000000000815260040161201490612d3d565b60405180910390fd5b8073ffffffffffffffffffffffffffffffffffffffff1660008054906101000a900473ffffffffffffffffffffffffffffffffffffffff1673ffffffffffffffffffffffffffffffffffffffff167f8be0079c531659141344cd1fd0a4f28419497f9722a3daafe3b4186f6b6457e060405160405180910390a3806000806101000a81548173ffffffffffffffffffffffffffffffffffffffff021916908373ffffffffffffffffffffffffffffffffffffffff16021790555050565b7f4352454154455f4e45575f504f5745520000000000000000000000000000000081565b7f4144445f544f4b454e5f544f5f4245484f444c4552000000000000000000000081565b7f545245415355524552000000000000000000000000000000000000000000000081565b600160009054906101000a900473ffffffffffffffffffffffffffffffffffffffff1673ffffffffffffffffffffffffffffffffffffffff16632140c9aa6040518163ffffffff1660e01b8152600401602060405180830381865afa1580156121b3573d6000803e3d6000fd5b505050506040513d601f19601f820116820180604052508101906121d79190612d72565b600073ffffffffffffffffffffffffffffffffffffffff16600160009054906101000a900473ffffffffffffffffffffffffffffffffffffffff1673ffffffffffffffffffffffffffffffffffffffff1614600160149054906101000a900460ff16612278576040517f08c379a000000000000000000000000000000000000000000000000000000000815260040161226f90612e11565b60405180910390fd5b808061231e5750600160009054906101000a900473ffffffffffffffffffffffffffffffffffffffff1673ffffffffffffffffffffffffffffffffffffffff1663250d4c6d83336040518363ffffffff1660e01b81526004016122dc92919061296c565b602060405180830381865afa1580156122f9573d6000803e3d6000fd5b505050506040513d601f19601f8201168201806040525081019061231d91906129aa565b5b61235d576040517f08c379a000000000000000000000000000000000000000000000000000000000815260040161235490612a23565b60405180910390fd5b60008373ffffffffffffffffffffffffffffffffffffffff16632140c9aa6040518163ffffffff1660e01b8152600401602060405180830381865afa1580156123aa573d6000803e3d6000fd5b505050506040513d601f19601f820116820180604052508101906123ce9190612d72565b905083600160006101000a81548173ffffffffffffffffffffffffffffffffffffffff021916908373ffffffffffffffffffffffffffffffffffffffff1602179055503073ffffffffffffffffffffffffffffffffffffffff163373ffffffffffffffffffffffffffffffffffffffff1614806124585750600160149054906101000a900460ff16155b806124fd5750600160009054906101000a900473ffffffffffffffffffffffffffffffffffffffff1673ffffffffffffffffffffffffffffffffffffffff1663250d4c6d82336040518363ffffffff1660e01b81526004016124bb92919061296c565b602060405180830381865afa1580156124d8573d6000803e3d6000fd5b505050506040513d601f19601f820116820180604052508101906124fc91906129aa565b5b61253c576040517f08c379a000000000000000000000000000000000000000000000000000000000815260040161253390612a23565b60405180910390fd5b60018060146101000a81548160ff02191690831515021790555050505050565b600160046000848152602001908152602001600020600083815260200190815260200160002060006101000a81548160ff021916908315150217905550600160056000838152602001908152602001600020600084815260200190815260200160002060006101000a81548160ff0219169083151502179055505050565b6000819050919050565b6125ed816125da565b82525050565b600060208201905061260860008301846125e4565b92915050565b600080fd5b61261c816125da565b811461262757600080fd5b50565b60008135905061263981612613565b92915050565b600080604083850312156126565761265561260e565b5b60006126648582860161262a565b92505060206126758582860161262a565b9150509250929050565b600073ffffffffffffffffffffffffffffffffffffffff82169050919050565b60006126aa8261267f565b9050919050565b6126ba8161269f565b81146126c557600080fd5b50565b6000813590506126d7816126b1565b92915050565b600080604083850312156126f4576126f361260e565b5b60006127028582860161262a565b9250506020612713858286016126c8565b9150509250929050565b60008115159050919050565b6127328161271d565b82525050565b600060208201905061274d6000830184612729565b92915050565b6000806040838503121561276a5761276961260e565b5b6000612778858286016126c8565b92505060206127898582860161262a565b9150509250929050565b6000602082840312156127a9576127a861260e565b5b60006127b78482850161262a565b91505092915050565b6127c98161269f565b82525050565b60006020820190506127e460008301846127c0565b92915050565b6127f38161271d565b81146127fe57600080fd5b50565b600081359050612810816127ea565b92915050565b600080600080608085870312156128305761282f61260e565b5b600061283e8782880161262a565b945050602061284f8782880161262a565b935050604061286087828801612801565b925050606061287187828801612801565b91505092959194509250565b6000602082840312156128935761289261260e565b5b60006128a1848285016126c8565b91505092915050565b60006080820190506128bf60008301876125e4565b6128cc60208301866125e4565b6128d96040830185612729565b6128e66060830184612729565b95945050505050565b600082825260208201905092915050565b7f4d4f52474f54483a20706f77657273206e6f7420616c6c6f63617465642e0000600082015250565b6000612936601e836128ef565b915061294182612900565b602082019050919050565b6000602082019050818103600083015261296581612929565b9050919050565b600060408201905061298160008301856125e4565b61298e60208301846127c0565b9392505050565b6000815190506129a4816127ea565b92915050565b6000602082840312156129c0576129bf61260e565b5b60006129ce84828501612995565b91505092915050565b7f4d4f52474f54483a20666f7262696464656e20706f7765720000000000000000600082015250565b6000612a0d6018836128ef565b9150612a18826129d7565b602082019050919050565b60006020820190508181036000830152612a3c81612a00565b9050919050565b7f4d4f52474f54483a20706f776572206e6f7420646976697369626c652e000000600082015250565b6000612a79601d836128ef565b9150612a8482612a43565b602082019050919050565b60006020820190508181036000830152612aa881612a6c565b9050919050565b7f2e00000000000000000000000000000000000000000000000000000000000000600082015250565b6000612ae56001836128ef565b9150612af082612aaf565b602082019050919050565b60006020820190508181036000830152612b1481612ad8565b9050919050565b7f4d4f52474f54483a20666f7262696464656e20706f7765727300000000000000600082015250565b6000612b516019836128ef565b9150612b5c82612b1b565b602082019050919050565b60006020820190508181036000830152612b8081612b44565b9050919050565b7f4d4f52474f54483a20706f776572206e6f74207472616e736665727261626c65600082015250565b6000612bbd6020836128ef565b9150612bc882612b87565b602082019050919050565b60006020820190508181036000830152612bec81612bb0565b9050919050565b7f4d4f52474f54483a206d696e696f6e20616c72656164792061737369676e6564600082015250565b6000612c296020836128ef565b9150612c3482612bf3565b602082019050919050565b60006020820190508181036000830152612c5881612c1c565b9050919050565b7f4f776e61626c653a2063616c6c6572206973206e6f7420746865206f776e6572600082015250565b6000612c956020836128ef565b9150612ca082612c5f565b602082019050919050565b60006020820190508181036000830152612cc481612c88565b9050919050565b7f4f776e61626c653a206e6577206f776e657220697320746865207a65726f206160008201527f6464726573730000000000000000000000000000000000000000000000000000602082015250565b6000612d276026836128ef565b9150612d3282612ccb565b604082019050919050565b60006020820190508181036000830152612d5681612d1a565b9050919050565b600081519050612d6c81612613565b92915050565b600060208284031215612d8857612d8761260e565b5b6000612d9684828501612d5d565b91505092915050565b7f4d4f52474f54483a20706f776572735265676973747279206e6f7420616c6c6f60008201527f63617465642e0000000000000000000000000000000000000000000000000000602082015250565b6000612dfb6026836128ef565b9150612e0682612d9f565b604082019050919050565b60006020820190508181036000830152612e2a81612dee565b905091905056fea2646970667358221220d6ff28ea92dbdc3a952dc84d200dbe6b35e542842323abca930119269eb8149d64736f6c634300080d0033",
  "linkReferences": {},
  "deployedLinkReferences": {}
}