{
  "_format": "hh-sol-artifact-1",
  "contractName": "FlashGovernanceArbiter",
  "sourceName": "contracts/DAO/FlashGovernanceArbiter.sol",
  "abi": [
    {
      "inputs": [
        {
          "internalType": "address",
          "name": "dao",
          "type": "address"
        }
      ],
      "stateMutability": "nonpayable",
      "type": "constructor"
    },
    {
      "inputs": [
        {
          "internalType": "address",
          "name": "configurationLord",
          "type": "address"
        },
        {
          "internalType": "address",
          "name": "msg_sender",
          "type": "address"
        }
      ],
      "name": "AccessDenied",
      "type": "error"
    },
    {
      "inputs": [
        {
          "internalType": "uint256",
          "name": "arr1",
          "type": "uint256"
        },
        {
          "internalType": "uint256",
          "name": "arr2",
          "type": "uint256"
        }
      ],
      "name": "ArrayLengthMismatch",
      "type": "error"
    },
    {
      "inputs": [
        {
          "internalType": "address",
          "name": "expectedDAO",
          "type": "address"
        },
        {
          "internalType": "address",
          "name": "actualDAO",
          "type": "address"
        }
      ],
      "name": "BackrunDetected",
      "type": "error"
    },
    {
      "inputs": [
        {
          "internalType": "address",
          "name": "sender",
          "type": "address"
        },
        {
          "internalType": "address",
          "name": "target",
          "type": "address"
        }
      ],
      "name": "ExistingFlashGovernanceDecisionUnderReview",
      "type": "error"
    },
    {
      "inputs": [
        {
          "internalType": "address",
          "name": "target",
          "type": "address"
        },
        {
          "internalType": "address",
          "name": "msgSender",
          "type": "address"
        }
      ],
      "name": "FlashDecisionPending",
      "type": "error"
    },
    {
      "inputs": [
        {
          "internalType": "address",
          "name": "target",
          "type": "address"
        }
      ],
      "name": "FlashGovernanceDisabled",
      "type": "error"
    },
    {
      "inputs": [
        {
          "internalType": "uint256",
          "name": "epochSize",
          "type": "uint256"
        },
        {
          "internalType": "uint256",
          "name": "lastAct",
          "type": "uint256"
        }
      ],
      "name": "FlashGovernanceEpochFull",
      "type": "error"
    },
    {
      "inputs": [
        {
          "internalType": "uint256",
          "name": "v1",
          "type": "uint256"
        },
        {
          "internalType": "uint256",
          "name": "v2",
          "type": "uint256"
        }
      ],
      "name": "FlashToleranceViolated",
      "type": "error"
    },
    {
      "inputs": [
        {
          "internalType": "bool",
          "name": "configured",
          "type": "bool"
        },
        {
          "internalType": "address",
          "name": "proposal",
          "type": "address"
        }
      ],
      "name": "GovernanceActionFailed",
      "type": "error"
    },
    {
      "inputs": [
        {
          "internalType": "uint256",
          "name": "balance",
          "type": "uint256"
        },
        {
          "internalType": "uint256",
          "name": "value",
          "type": "uint256"
        }
      ],
      "name": "InsufficinetFunds",
      "type": "error"
    },
    {
      "inputs": [
        {
          "internalType": "uint8",
          "name": "tolerance",
          "type": "uint8"
        }
      ],
      "name": "InvalidChangeTolerance",
      "type": "error"
    },
    {
      "inputs": [
        {
          "internalType": "address",
          "name": "EOA",
          "type": "address"
        }
      ],
      "name": "NotAContract",
      "type": "error"
    },
    {
      "inputs": [],
      "name": "OperationFailure",
      "type": "error"
    },
    {
      "anonymous": false,
      "inputs": [
        {
          "indexed": true,
          "internalType": "address",
          "name": "actor",
          "type": "address"
        },
        {
          "indexed": true,
          "internalType": "address",
          "name": "deposit_asset",
          "type": "address"
        },
        {
          "indexed": false,
          "internalType": "uint256",
          "name": "amount",
          "type": "uint256"
        },
        {
          "indexed": true,
          "internalType": "address",
          "name": "target",
          "type": "address"
        }
      ],
      "name": "flashDecision",
      "type": "event"
    },
    {
      "inputs": [],
      "name": "DAO",
      "outputs": [
        {
          "internalType": "address",
          "name": "",
          "type": "address"
        }
      ],
      "stateMutability": "view",
      "type": "function"
    },
    {
      "inputs": [
        {
          "internalType": "address",
          "name": "sender",
          "type": "address"
        },
        {
          "internalType": "address",
          "name": "target",
          "type": "address"
        },
        {
          "internalType": "bool",
          "name": "emergency",
          "type": "bool"
        }
      ],
      "name": "assertGovernanceApproved",
      "outputs": [],
      "stateMutability": "nonpayable",
      "type": "function"
    },
    {
      "inputs": [
        {
          "internalType": "address",
          "name": "targetContract",
          "type": "address"
        },
        {
          "internalType": "address",
          "name": "user",
          "type": "address"
        },
        {
          "internalType": "address",
          "name": "asset",
          "type": "address"
        },
        {
          "internalType": "uint256",
          "name": "amount",
          "type": "uint256"
        }
      ],
      "name": "burnFlashGovernanceAsset",
      "outputs": [],
      "stateMutability": "nonpayable",
      "type": "function"
    },
    {
      "inputs": [
        {
          "internalType": "address",
          "name": "asset",
          "type": "address"
        },
        {
          "internalType": "uint256",
          "name": "amount",
          "type": "uint256"
        },
        {
          "internalType": "uint256",
          "name": "unlockTime",
          "type": "uint256"
        },
        {
          "internalType": "bool",
          "name": "assetBurnable",
          "type": "bool"
        }
      ],
      "name": "configureFlashGovernance",
      "outputs": [],
      "stateMutability": "nonpayable",
      "type": "function"
    },
    {
      "inputs": [
        {
          "internalType": "uint8",
          "name": "maxGovernanceChangePerEpoch",
          "type": "uint8"
        },
        {
          "internalType": "uint256",
          "name": "epochSize",
          "type": "uint256"
        },
        {
          "internalType": "uint8",
          "name": "changeTolerance",
          "type": "uint8"
        }
      ],
      "name": "configureSecurityParameters",
      "outputs": [],
      "stateMutability": "nonpayable",
      "type": "function"
    },
    {
      "inputs": [],
      "name": "configured",
      "outputs": [
        {
          "internalType": "bool",
          "name": "",
          "type": "bool"
        }
      ],
      "stateMutability": "view",
      "type": "function"
    },
    {
      "inputs": [
        {
          "internalType": "address",
          "name": "expectedDAO",
          "type": "address"
        }
      ],
      "name": "endConfiguration",
      "outputs": [],
      "stateMutability": "nonpayable",
      "type": "function"
    },
    {
      "inputs": [
        {
          "internalType": "uint256",
          "name": "v1",
          "type": "uint256"
        },
        {
          "internalType": "uint256",
          "name": "v2",
          "type": "uint256"
        }
      ],
      "name": "enforceTolerance",
      "outputs": [],
      "stateMutability": "view",
      "type": "function"
    },
    {
      "inputs": [
        {
          "internalType": "int256",
          "name": "v1",
          "type": "int256"
        },
        {
          "internalType": "int256",
          "name": "v2",
          "type": "int256"
        }
      ],
      "name": "enforceToleranceInt",
      "outputs": [],
      "stateMutability": "view",
      "type": "function"
    },
    {
      "inputs": [],
      "name": "flashGovernanceConfig",
      "outputs": [
        {
          "internalType": "uint256",
          "name": "amount",
          "type": "uint256"
        },
        {
          "internalType": "uint256",
          "name": "unlockTime",
          "type": "uint256"
        },
        {
          "internalType": "contract IERC20",
          "name": "asset",
          "type": "address"
        },
        {
          "internalType": "bool",
          "name": "assetBurnable",
          "type": "bool"
        }
      ],
      "stateMutability": "view",
      "type": "function"
    },
    {
      "inputs": [
        {
          "internalType": "address",
          "name": "",
          "type": "address"
        }
      ],
      "name": "governed",
      "outputs": [
        {
          "internalType": "bool",
          "name": "",
          "type": "bool"
        }
      ],
      "stateMutability": "view",
      "type": "function"
    },
    {
      "inputs": [],
      "name": "governer",
      "outputs": [
        {
          "internalType": "contract FlashGovernanceArbiterLike",
          "name": "",
          "type": "address"
        }
      ],
      "stateMutability": "view",
      "type": "function"
    },
    {
      "inputs": [
        {
          "internalType": "address",
          "name": "",
          "type": "address"
        },
        {
          "internalType": "address",
          "name": "",
          "type": "address"
        }
      ],
      "name": "pendingFlashDecision",
      "outputs": [
        {
          "internalType": "uint256",
          "name": "amount",
          "type": "uint256"
        },
        {
          "internalType": "uint256",
          "name": "unlockTime",
          "type": "uint256"
        },
        {
          "internalType": "contract IERC20",
          "name": "asset",
          "type": "address"
        },
        {
          "internalType": "bool",
          "name": "assetBurnable",
          "type": "bool"
        }
      ],
      "stateMutability": "view",
      "type": "function"
    },
    {
      "inputs": [],
      "name": "security",
      "outputs": [
        {
          "internalType": "uint256",
          "name": "epochSize",
          "type": "uint256"
        },
        {
          "internalType": "uint256",
          "name": "lastFlashGovernanceAct",
          "type": "uint256"
        },
        {
          "internalType": "uint8",
          "name": "maxGovernanceChangePerEpoch",
          "type": "uint8"
        },
        {
          "internalType": "uint8",
          "name": "changeTolerance",
          "type": "uint8"
        }
      ],
      "stateMutability": "view",
      "type": "function"
    },
    {
      "inputs": [
        {
          "internalType": "address",
          "name": "dao",
          "type": "address"
        }
      ],
      "name": "setDAO",
      "outputs": [],
      "stateMutability": "nonpayable",
      "type": "function"
    },
    {
      "inputs": [
        {
          "internalType": "bool",
          "name": "enforce",
          "type": "bool"
        }
      ],
      "name": "setEnforcement",
      "outputs": [],
      "stateMutability": "nonpayable",
      "type": "function"
    },
    {
      "inputs": [
        {
          "internalType": "address[]",
          "name": "governables",
          "type": "address[]"
        },
        {
          "internalType": "bool[]",
          "name": "isGoverned",
          "type": "bool[]"
        }
      ],
      "name": "setGoverned",
      "outputs": [],
      "stateMutability": "nonpayable",
      "type": "function"
    },
    {
      "inputs": [],
      "name": "temporaryConfigurationLord",
      "outputs": [
        {
          "internalType": "address",
          "name": "",
          "type": "address"
        }
      ],
      "stateMutability": "view",
      "type": "function"
    },
    {
      "inputs": [
        {
          "internalType": "address",
          "name": "targetContract",
          "type": "address"
        },
        {
          "internalType": "address",
          "name": "asset",
          "type": "address"
        }
      ],
      "name": "withdrawGovernanceAsset",
      "outputs": [],
      "stateMutability": "nonpayable",
      "type": "function"
    }
  ],
  "bytecode": "0x60806040523480156200001157600080fd5b50604051620030af380380620030af8339818101604052810190620000379190620002ec565b8062000049816200009260201b60201c565b33600160006101000a81548173ffffffffffffffffffffffffffffffffffffffff021916908373ffffffffffffffffffffffffffffffffffffffff16021790555050506200035c565b600073ffffffffffffffffffffffffffffffffffffffff16600260009054906101000a900473ffffffffffffffffffffffffffffffffffffffff1673ffffffffffffffffffffffffffffffffffffffff1614158015620001405750600260009054906101000a900473ffffffffffffffffffffffffffffffffffffffff1673ffffffffffffffffffffffffffffffffffffffff163373ffffffffffffffffffffffffffffffffffffffff1614155b8015620001595750620001586200022a60201b60201c565b5b15620001c257600160009054906101000a900473ffffffffffffffffffffffffffffffffffffffff16336040517fc21bbf9d000000000000000000000000000000000000000000000000000000008152600401620001b99291906200032f565b60405180910390fd5b80600260006101000a81548173ffffffffffffffffffffffffffffffffffffffff021916908373ffffffffffffffffffffffffffffffffffffffff1602179055506000806101000a81549073ffffffffffffffffffffffffffffffffffffffff021916905550565b60008073ffffffffffffffffffffffffffffffffffffffff16600160009054906101000a900473ffffffffffffffffffffffffffffffffffffffff1673ffffffffffffffffffffffffffffffffffffffff1614905090565b600080fd5b600073ffffffffffffffffffffffffffffffffffffffff82169050919050565b6000620002b48262000287565b9050919050565b620002c681620002a7565b8114620002d257600080fd5b50565b600081519050620002e681620002bb565b92915050565b60006020828403121562000305576200030462000282565b5b60006200031584828501620002d5565b91505092915050565b6200032981620002a7565b82525050565b60006040820190506200034660008301856200031e565b6200035560208301846200031e565b9392505050565b612d43806200036c6000396000f3fe608060405234801561001057600080fd5b50600436106101215760003560e01c80637d77bf43116100ad57806398fabd3a1161007157806398fabd3a146102e2578063ad64d6cb14610300578063b8b976541461031c578063dd77a4751461033d578063e73a914c1461035b57610121565b80637d77bf431461023d5780638772a23a146102595780638de51e8c14610277578063984905e41461029357806398f11241146102c657610121565b80633850ed1e116100f45780633850ed1e146101985780633cb4d06e146101b45780634739a2ba146101e45780634eaa7eb214610200578063548799181461021c57610121565b806301f68ce3146101265780630e2365f2146101425780631070c8241461015e5780633091dde11461017a575b600080fd5b610140600480360381019061013b919061212e565b610377565b005b61015c600480360381019061015791906121dc565b61080e565b005b61017860048036038101906101739190612243565b610892565b005b610182610a69565b60405161018f9190612309565b60405180910390f35b6101b260048036038101906101ad919061235a565b610a8d565b005b6101ce60048036038101906101c9919061239a565b610b27565b6040516101db91906123d6565b60405180910390f35b6101fe60048036038101906101f991906123f1565b610b47565b005b61021a6004803603810190610215919061239a565b610d4f565b005b610224610f00565b604051610234949392919061245c565b60405180910390f35b610257600480360381019061025291906124cd565b610f38565b005b610261610fd5565b60405161026e91906123d6565b60405180910390f35b610291600480360381019061028c91906125db565b61102d565b005b6102ad60048036038101906102a8919061212e565b611155565b6040516102bd949392919061267d565b60405180910390f35b6102e060048036038101906102db91906126c2565b6111bf565b005b6102ea611807565b6040516102f79190612724565b60405180910390f35b61031a6004803603810190610315919061273f565b61182d565b005b610324611887565b604051610334949392919061267d565b60405180910390f35b6103456118d2565b6040516103529190612724565b60405180910390f35b6103756004803603810190610370919061239a565b6118f8565b005b60008173ffffffffffffffffffffffffffffffffffffffff16600b60008573ffffffffffffffffffffffffffffffffffffffff1673ffffffffffffffffffffffffffffffffffffffff16815260200190815260200160002060003373ffffffffffffffffffffffffffffffffffffffff1673ffffffffffffffffffffffffffffffffffffffff16815260200190815260200160002060020160009054906101000a900473ffffffffffffffffffffffffffffffffffffffff1673ffffffffffffffffffffffffffffffffffffffff161480156104d257506000600b60008573ffffffffffffffffffffffffffffffffffffffff1673ffffffffffffffffffffffffffffffffffffffff16815260200190815260200160002060003373ffffffffffffffffffffffffffffffffffffffff1673ffffffffffffffffffffffffffffffffffffffff16815260200190815260200160002060000154115b801561055c575042600b60008573ffffffffffffffffffffffffffffffffffffffff1673ffffffffffffffffffffffffffffffffffffffff16815260200190815260200160002060003373ffffffffffffffffffffffffffffffffffffffff1673ffffffffffffffffffffffffffffffffffffffff16815260200190815260200160002060010154105b9050806105a25782336040517fe2ac6ae300000000000000000000000000000000000000000000000000000000815260040161059992919061276c565b60405180910390fd5b600b60008473ffffffffffffffffffffffffffffffffffffffff1673ffffffffffffffffffffffffffffffffffffffff16815260200190815260200160002060003373ffffffffffffffffffffffffffffffffffffffff1673ffffffffffffffffffffffffffffffffffffffff16815260200190815260200160002060020160009054906101000a900473ffffffffffffffffffffffffffffffffffffffff1673ffffffffffffffffffffffffffffffffffffffff1663a9059cbb33600b60008773ffffffffffffffffffffffffffffffffffffffff1673ffffffffffffffffffffffffffffffffffffffff16815260200190815260200160002060003373ffffffffffffffffffffffffffffffffffffffff1673ffffffffffffffffffffffffffffffffffffffff168152602001908152602001600020600001546040518363ffffffff1660e01b81526004016106fb929190612795565b6020604051808303816000875af115801561071a573d6000803e3d6000fd5b505050506040513d601f19601f8201168201806040525081019061073e91906127d3565b50600b60008473ffffffffffffffffffffffffffffffffffffffff1673ffffffffffffffffffffffffffffffffffffffff16815260200190815260200160002060003373ffffffffffffffffffffffffffffffffffffffff1673ffffffffffffffffffffffffffffffffffffffff16815260200190815260200160002060008082016000905560018201600090556002820160006101000a81549073ffffffffffffffffffffffffffffffffffffffff02191690556002820160146101000a81549060ff02191690555050505050565b61081733611a83565b83600460020160006101000a81548173ffffffffffffffffffffffffffffffffffffffff021916908373ffffffffffffffffffffffffffffffffffffffff160217905550826004600001819055508160046001018190555080600460020160146101000a81548160ff02191690831515021790555050505050565b61089b33611a83565b600b60008573ffffffffffffffffffffffffffffffffffffffff1673ffffffffffffffffffffffffffffffffffffffff16815260200190815260200160002060008473ffffffffffffffffffffffffffffffffffffffff1673ffffffffffffffffffffffffffffffffffffffff16815260200190815260200160002060020160149054906101000a900460ff1615610999578173ffffffffffffffffffffffffffffffffffffffff166342966c68826040518263ffffffff1660e01b81526004016109669190612800565b600060405180830381600087803b15801561098057600080fd5b505af1158015610994573d6000803e3d6000fd5b505050505b600b60008573ffffffffffffffffffffffffffffffffffffffff1673ffffffffffffffffffffffffffffffffffffffff16815260200190815260200160002060008473ffffffffffffffffffffffffffffffffffffffff1673ffffffffffffffffffffffffffffffffffffffff16815260200190815260200160002060008082016000905560018201600090556002820160006101000a81549073ffffffffffffffffffffffffffffffffffffffff02191690556002820160146101000a81549060ff0219169055505050505050565b60008054906101000a900473ffffffffffffffffffffffffffffffffffffffff1681565b610a95610fd5565b15610b23576000808313610ad457827fffffffffffffffffffffffffffffffffffffffffffffffffffffffffffffffff610acf919061284a565b610ad6565b825b90506000808313610b1257827fffffffffffffffffffffffffffffffffffffffffffffffffffffffffffffffff610b0d919061284a565b610b14565b825b9050610b208282610b47565b50505b5050565b600a6020528060005260406000206000915054906101000a900460ff1681565b600360003373ffffffffffffffffffffffffffffffffffffffff1673ffffffffffffffffffffffffffffffffffffffff16815260200190815260200160002060009054906101000a900460ff161580610c0c57503373ffffffffffffffffffffffffffffffffffffffff16638772a23a6040518163ffffffff1660e01b8152600401602060405180830381865afa158015610be6573d6000803e3d6000fd5b505050506040513d601f19601f82011682018060405250810190610c0a91906127d3565b155b610d4b5780821115610cb357600081148015610c285750600182115b80610c6a575081600760020160019054906101000a900460ff1660ff16610c4f9190612961565b60648284610c5d91906129bb565b610c679190612961565b10155b15610cae5781816040517fefcf67d9000000000000000000000000000000000000000000000000000000008152600401610ca59291906129ef565b60405180910390fd5b610d4a565b600082148015610cc35750600181115b80610d05575081600760020160019054906101000a900460ff1660ff16610cea9190612961565b60648383610cf891906129bb565b610d029190612961565b10155b15610d495781816040517fefcf67d9000000000000000000000000000000000000000000000000000000008152600401610d409291906129ef565b60405180910390fd5b5b5b5050565b600160009054906101000a900473ffffffffffffffffffffffffffffffffffffffff1673ffffffffffffffffffffffffffffffffffffffff163373ffffffffffffffffffffffffffffffffffffffff1614610e0557600160009054906101000a900473ffffffffffffffffffffffffffffffffffffffff16336040517fc21bbf9d000000000000000000000000000000000000000000000000000000008152600401610dfc92919061276c565b60405180910390fd5b600260009054906101000a900473ffffffffffffffffffffffffffffffffffffffff1673ffffffffffffffffffffffffffffffffffffffff168173ffffffffffffffffffffffffffffffffffffffff1614610ebb5780600260009054906101000a900473ffffffffffffffffffffffffffffffffffffffff166040517f3f0e2133000000000000000000000000000000000000000000000000000000008152600401610eb292919061276c565b60405180910390fd5b6000600160006101000a81548173ffffffffffffffffffffffffffffffffffffffff021916908373ffffffffffffffffffffffffffffffffffffffff16021790555050565b60078060000154908060010154908060020160009054906101000a900460ff16908060020160019054906101000a900460ff16905084565b610f4133611a83565b82600760020160006101000a81548160ff021916908360ff1602179055508160076000018190555060648160ff161115610fb257806040517f63a79260000000000000000000000000000000000000000000000000000000008152600401610fa99190612a18565b60405180910390fd5b80600760020160016101000a81548160ff021916908360ff160217905550505050565b60008073ffffffffffffffffffffffffffffffffffffffff16600160009054906101000a900473ffffffffffffffffffffffffffffffffffffffff1673ffffffffffffffffffffffffffffffffffffffff1614905090565b61103633611a83565b8181905084849050146110885783839050828290506040517ffa5dbe0800000000000000000000000000000000000000000000000000000000815260040161107f9291906129ef565b60405180910390fd5b60005b8484905081101561114e578282828181106110a9576110a8612a33565b5b90506020020160208101906110be919061273f565b600a60008787858181106110d5576110d4612a33565b5b90506020020160208101906110ea919061239a565b73ffffffffffffffffffffffffffffffffffffffff1673ffffffffffffffffffffffffffffffffffffffff16815260200190815260200160002060006101000a81548160ff021916908315150217905550808061114690612a62565b91505061108b565b5050505050565b600b602052816000526040600020602052806000526040600020600091509150508060000154908060010154908060020160009054906101000a900473ffffffffffffffffffffffffffffffffffffffff16908060020160149054906101000a900460ff16905084565b600260009054906101000a900473ffffffffffffffffffffffffffffffffffffffff1673ffffffffffffffffffffffffffffffffffffffff163373ffffffffffffffffffffffffffffffffffffffff16141580156112675750600a60003373ffffffffffffffffffffffffffffffffffffffff1673ffffffffffffffffffffffffffffffffffffffff16815260200190815260200160002060009054906101000a900460ff16155b156112a957336040517f8a35b0990000000000000000000000000000000000000000000000000000000081526004016112a09190612724565b60405180910390fd5b6000600b60008473ffffffffffffffffffffffffffffffffffffffff1673ffffffffffffffffffffffffffffffffffffffff16815260200190815260200160002060008573ffffffffffffffffffffffffffffffffffffffff1673ffffffffffffffffffffffffffffffffffffffff16815260200190815260200160002060405180608001604052908160008201548152602001600182015481526020016002820160009054906101000a900473ffffffffffffffffffffffffffffffffffffffff1673ffffffffffffffffffffffffffffffffffffffff1673ffffffffffffffffffffffffffffffffffffffff1681526020016002820160149054906101000a900460ff161515151581525050905042816020015110156117c257811580156113e75750600760000154600760010154426113e591906129bb565b105b15611435576007600001546007600101546040517f9d09767300000000000000000000000000000000000000000000000000000000815260040161142c9291906129ef565b60405180910390fd5b6000816000015160046000015461144c9190612aaa565b9050600460020160009054906101000a900473ffffffffffffffffffffffffffffffffffffffff1673ffffffffffffffffffffffffffffffffffffffff1663095ea7b3307fffffffffffffffffffffffffffffffffffffffffffffffffffffffffffffffff6040518363ffffffff1660e01b81526004016114ce929190612795565b6020604051808303816000875af11580156114ed573d6000803e3d6000fd5b505050506040513d601f19601f8201168201806040525081019061151191906127d3565b50611564853083600460020160009054906101000a900473ffffffffffffffffffffffffffffffffffffffff1673ffffffffffffffffffffffffffffffffffffffff16611b7e909392919063ffffffff16565b600460405180608001604052908160008201548152602001600182015481526020016002820160009054906101000a900473ffffffffffffffffffffffffffffffffffffffff1673ffffffffffffffffffffffffffffffffffffffff1673ffffffffffffffffffffffffffffffffffffffff1681526020016002820160149054906101000a900460ff1615151515815250509150428260200181815161160a9190612b3e565b9150818152505081600b60008673ffffffffffffffffffffffffffffffffffffffff1673ffffffffffffffffffffffffffffffffffffffff16815260200190815260200160002060008773ffffffffffffffffffffffffffffffffffffffff1673ffffffffffffffffffffffffffffffffffffffff168152602001908152602001600020600082015181600001556020820151816001015560408201518160020160006101000a81548173ffffffffffffffffffffffffffffffffffffffff021916908373ffffffffffffffffffffffffffffffffffffffff16021790555060608201518160020160146101000a81548160ff021916908315150217905550905050426007600101819055508373ffffffffffffffffffffffffffffffffffffffff16600460020160009054906101000a900473ffffffffffffffffffffffffffffffffffffffff1673ffffffffffffffffffffffffffffffffffffffff168673ffffffffffffffffffffffffffffffffffffffff167fd2ee22547ba3675fb74486298b9ad32c9bbc4d7f773a2b679d3e2c27dae30ee66004600001546040516117b49190612800565b60405180910390a450611801565b83836040517f5632c5fc0000000000000000000000000000000000000000000000000000000081526004016117f892919061276c565b60405180910390fd5b50505050565b600260009054906101000a900473ffffffffffffffffffffffffffffffffffffffff1681565b80600360003373ffffffffffffffffffffffffffffffffffffffff1673ffffffffffffffffffffffffffffffffffffffff16815260200190815260200160002060006101000a81548160ff02191690831515021790555050565b60048060000154908060010154908060020160009054906101000a900473ffffffffffffffffffffffffffffffffffffffff16908060020160149054906101000a900460ff16905084565b600160009054906101000a900473ffffffffffffffffffffffffffffffffffffffff1681565b600073ffffffffffffffffffffffffffffffffffffffff16600260009054906101000a900473ffffffffffffffffffffffffffffffffffffffff1673ffffffffffffffffffffffffffffffffffffffff16141580156119a55750600260009054906101000a900473ffffffffffffffffffffffffffffffffffffffff1673ffffffffffffffffffffffffffffffffffffffff163373ffffffffffffffffffffffffffffffffffffffff1614155b80156119b557506119b4610fd5565b5b15611a1b57600160009054906101000a900473ffffffffffffffffffffffffffffffffffffffff16336040517fc21bbf9d000000000000000000000000000000000000000000000000000000008152600401611a1292919061276c565b60405180910390fd5b80600260006101000a81548173ffffffffffffffffffffffffffffffffffffffff021916908373ffffffffffffffffffffffffffffffffffffffff1602179055506000806101000a81549073ffffffffffffffffffffffffffffffffffffffff021916905550565b611a8b610fd5565b8015611b305750600260009054906101000a900473ffffffffffffffffffffffffffffffffffffffff1673ffffffffffffffffffffffffffffffffffffffff1663b7ebc23b826040518263ffffffff1660e01b8152600401611aed9190612724565b602060405180830381865afa158015611b0a573d6000803e3d6000fd5b505050506040513d601f19601f82011682018060405250810190611b2e91906127d3565b155b15611b7b57611b3d610fd5565b816040517f64218e39000000000000000000000000000000000000000000000000000000008152600401611b72929190612b94565b60405180910390fd5b50565b6000808213611bf95760405180604001604052808473ffffffffffffffffffffffffffffffffffffffff1673ffffffffffffffffffffffffffffffffffffffff1681526020018573ffffffffffffffffffffffffffffffffffffffff1673ffffffffffffffffffffffffffffffffffffffff16815250611c67565b60405180604001604052808573ffffffffffffffffffffffffffffffffffffffff1673ffffffffffffffffffffffffffffffffffffffff1681526020018473ffffffffffffffffffffffffffffffffffffffff1673ffffffffffffffffffffffffffffffffffffffff168152505b90506000808313611ca3577fffffffffffffffffffffffffffffffffffffffffffffffffffffffffffffffff83611c9e919061284a565b611ca5565b825b90503073ffffffffffffffffffffffffffffffffffffffff1682600060028110611cd257611cd1612a33565b5b602002015173ffffffffffffffffffffffffffffffffffffffff1603611d9057611d8b8663a9059cbb60e01b84600160028110611d1257611d11612a33565b5b602002015184604051602401611d29929190612795565b604051602081830303815290604052907bffffffffffffffffffffffffffffffffffffffffffffffffffffffff19166020820180517bffffffffffffffffffffffffffffffffffffffffffffffffffffffff8381831617835250505050611e4c565b611e44565b611e43866323b872dd60e01b84600060028110611db057611daf612a33565b5b602002015185600160028110611dc957611dc8612a33565b5b602002015185604051602401611de193929190612bbd565b604051602081830303815290604052907bffffffffffffffffffffffffffffffffffffffffffffffffffffffff19166020820180517bffffffffffffffffffffffffffffffffffffffffffffffffffffffff8381831617835250505050611e4c565b5b505050505050565b6000611eae826040518060400160405280602081526020017f5361666545524332303a206c6f772d6c6576656c2063616c6c206661696c65648152508573ffffffffffffffffffffffffffffffffffffffff16611f0a9092919063ffffffff16565b9050600081511115611f055780806020019051810190611ece91906127d3565b611f04576040517fa479450200000000000000000000000000000000000000000000000000000000815260040160405180910390fd5b5b505050565b6060611f198484600085611f22565b90509392505050565b606082471015611f6b5747836040517f02de226f000000000000000000000000000000000000000000000000000000008152600401611f629291906129ef565b60405180910390fd5b611f748561203c565b611fb557846040517f8a8b41ec000000000000000000000000000000000000000000000000000000008152600401611fac9190612724565b60405180910390fd5b6000808673ffffffffffffffffffffffffffffffffffffffff168587604051611fde9190612c6e565b60006040518083038185875af1925050503d806000811461201b576040519150601f19603f3d011682016040523d82523d6000602084013e612020565b606091505b509150915061203082828661205f565b92505050949350505050565b6000808273ffffffffffffffffffffffffffffffffffffffff163b119050919050565b6060831561206f578290506120bf565b6000835111156120825782518084602001fd5b816040517f08c379a00000000000000000000000000000000000000000000000000000000081526004016120b69190612ceb565b60405180910390fd5b9392505050565b600080fd5b600080fd5b600073ffffffffffffffffffffffffffffffffffffffff82169050919050565b60006120fb826120d0565b9050919050565b61210b816120f0565b811461211657600080fd5b50565b60008135905061212881612102565b92915050565b60008060408385031215612145576121446120c6565b5b600061215385828601612119565b925050602061216485828601612119565b9150509250929050565b6000819050919050565b6121818161216e565b811461218c57600080fd5b50565b60008135905061219e81612178565b92915050565b60008115159050919050565b6121b9816121a4565b81146121c457600080fd5b50565b6000813590506121d6816121b0565b92915050565b600080600080608085870312156121f6576121f56120c6565b5b600061220487828801612119565b94505060206122158782880161218f565b93505060406122268782880161218f565b9250506060612237878288016121c7565b91505092959194509250565b6000806000806080858703121561225d5761225c6120c6565b5b600061226b87828801612119565b945050602061227c87828801612119565b935050604061228d87828801612119565b925050606061229e8782880161218f565b91505092959194509250565b6000819050919050565b60006122cf6122ca6122c5846120d0565b6122aa565b6120d0565b9050919050565b60006122e1826122b4565b9050919050565b60006122f3826122d6565b9050919050565b612303816122e8565b82525050565b600060208201905061231e60008301846122fa565b92915050565b6000819050919050565b61233781612324565b811461234257600080fd5b50565b6000813590506123548161232e565b92915050565b60008060408385031215612371576123706120c6565b5b600061237f85828601612345565b925050602061239085828601612345565b9150509250929050565b6000602082840312156123b0576123af6120c6565b5b60006123be84828501612119565b91505092915050565b6123d0816121a4565b82525050565b60006020820190506123eb60008301846123c7565b92915050565b60008060408385031215612408576124076120c6565b5b60006124168582860161218f565b92505060206124278582860161218f565b9150509250929050565b61243a8161216e565b82525050565b600060ff82169050919050565b61245681612440565b82525050565b60006080820190506124716000830187612431565b61247e6020830186612431565b61248b604083018561244d565b612498606083018461244d565b95945050505050565b6124aa81612440565b81146124b557600080fd5b50565b6000813590506124c7816124a1565b92915050565b6000806000606084860312156124e6576124e56120c6565b5b60006124f4868287016124b8565b93505060206125058682870161218f565b9250506040612516868287016124b8565b9150509250925092565b600080fd5b600080fd5b600080fd5b60008083601f84011261254557612544612520565b5b8235905067ffffffffffffffff81111561256257612561612525565b5b60208301915083602082028301111561257e5761257d61252a565b5b9250929050565b60008083601f84011261259b5761259a612520565b5b8235905067ffffffffffffffff8111156125b8576125b7612525565b5b6020830191508360208202830111156125d4576125d361252a565b5b9250929050565b600080600080604085870312156125f5576125f46120c6565b5b600085013567ffffffffffffffff811115612613576126126120cb565b5b61261f8782880161252f565b9450945050602085013567ffffffffffffffff811115612642576126416120cb565b5b61264e87828801612585565b925092505092959194509250565b6000612667826122d6565b9050919050565b6126778161265c565b82525050565b60006080820190506126926000830187612431565b61269f6020830186612431565b6126ac604083018561266e565b6126b960608301846123c7565b95945050505050565b6000806000606084860312156126db576126da6120c6565b5b60006126e986828701612119565b93505060206126fa86828701612119565b925050604061270b868287016121c7565b9150509250925092565b61271e816120f0565b82525050565b60006020820190506127396000830184612715565b92915050565b600060208284031215612755576127546120c6565b5b6000612763848285016121c7565b91505092915050565b60006040820190506127816000830185612715565b61278e6020830184612715565b9392505050565b60006040820190506127aa6000830185612715565b6127b76020830184612431565b9392505050565b6000815190506127cd816121b0565b92915050565b6000602082840312156127e9576127e86120c6565b5b60006127f7848285016127be565b91505092915050565b60006020820190506128156000830184612431565b92915050565b7f4e487b7100000000000000000000000000000000000000000000000000000000600052601160045260246000fd5b600061285582612324565b915061286083612324565b9250827f7fffffffffffffffffffffffffffffffffffffffffffffffffffffffffffffff048211600084136000841316161561289f5761289e61281b565b5b817f800000000000000000000000000000000000000000000000000000000000000005831260008412600084131616156128dc576128db61281b565b5b827f800000000000000000000000000000000000000000000000000000000000000005821260008413600084121616156129195761291861281b565b5b827f7fffffffffffffffffffffffffffffffffffffffffffffffffffffffffffffff05821260008412600084121616156129565761295561281b565b5b828202905092915050565b600061296c8261216e565b91506129778361216e565b9250817fffffffffffffffffffffffffffffffffffffffffffffffffffffffffffffffff04831182151516156129b0576129af61281b565b5b828202905092915050565b60006129c68261216e565b91506129d18361216e565b9250828210156129e4576129e361281b565b5b828203905092915050565b6000604082019050612a046000830185612431565b612a116020830184612431565b9392505050565b6000602082019050612a2d600083018461244d565b92915050565b7f4e487b7100000000000000000000000000000000000000000000000000000000600052603260045260246000fd5b6000612a6d8261216e565b91507fffffffffffffffffffffffffffffffffffffffffffffffffffffffffffffffff8203612a9f57612a9e61281b565b5b600182019050919050565b6000612ab582612324565b9150612ac083612324565b9250827f800000000000000000000000000000000000000000000000000000000000000001821260008412151615612afb57612afa61281b565b5b827f7fffffffffffffffffffffffffffffffffffffffffffffffffffffffffffffff018213600084121615612b3357612b3261281b565b5b828203905092915050565b6000612b498261216e565b9150612b548361216e565b9250827fffffffffffffffffffffffffffffffffffffffffffffffffffffffffffffffff03821115612b8957612b8861281b565b5b828201905092915050565b6000604082019050612ba960008301856123c7565b612bb66020830184612715565b9392505050565b6000606082019050612bd26000830186612715565b612bdf6020830185612715565b612bec6040830184612431565b949350505050565b600081519050919050565b600081905092915050565b60005b83811015612c28578082015181840152602081019050612c0d565b83811115612c37576000848401525b50505050565b6000612c4882612bf4565b612c528185612bff565b9350612c62818560208601612c0a565b80840191505092915050565b6000612c7a8284612c3d565b915081905092915050565b600081519050919050565b600082825260208201905092915050565b6000601f19601f8301169050919050565b6000612cbd82612c85565b612cc78185612c90565b9350612cd7818560208601612c0a565b612ce081612ca1565b840191505092915050565b60006020820190508181036000830152612d058184612cb2565b90509291505056fea2646970667358221220da03a5c639d781a0946966fe62f129ec912746b63e1aa17cf1001ea4fa0f47aa64736f6c634300080d0033",
  "linkReferences": {},
  "deployedLinkReferences": {}
}