{
  "_format": "hh-sol-artifact-1",
  "contractName": "FlashGovernanceArbiter",
  "sourceName": "contracts/DAO/FlashGovernanceArbiter.sol",
  "abi": [
    {
      "inputs": [
        {
          "internalType": "address",
          "name": "dao",
          "type": "address"
        }
      ],
      "stateMutability": "nonpayable",
      "type": "constructor"
    },
    {
      "inputs": [
        {
          "internalType": "address",
          "name": "configurationLord",
          "type": "address"
        },
        {
          "internalType": "address",
          "name": "msg_sender",
          "type": "address"
        }
      ],
      "name": "AccessDenied",
      "type": "error"
    },
    {
      "inputs": [
        {
          "internalType": "uint256",
          "name": "arr1",
          "type": "uint256"
        },
        {
          "internalType": "uint256",
          "name": "arr2",
          "type": "uint256"
        }
      ],
      "name": "ArrayLengthMismatch",
      "type": "error"
    },
    {
      "inputs": [
        {
          "internalType": "address",
          "name": "expectedDAO",
          "type": "address"
        },
        {
          "internalType": "address",
          "name": "actualDAO",
          "type": "address"
        }
      ],
      "name": "BackrunDetected",
      "type": "error"
    },
    {
      "inputs": [
        {
          "internalType": "address",
          "name": "sender",
          "type": "address"
        },
        {
          "internalType": "address",
          "name": "target",
          "type": "address"
        }
      ],
      "name": "ExistingFlashGovernanceDecisionUnderReview",
      "type": "error"
    },
    {
      "inputs": [
        {
          "internalType": "address",
          "name": "target",
          "type": "address"
        },
        {
          "internalType": "address",
          "name": "msgSender",
          "type": "address"
        }
      ],
      "name": "FlashDecisionPending",
      "type": "error"
    },
    {
      "inputs": [
        {
          "internalType": "address",
          "name": "target",
          "type": "address"
        }
      ],
      "name": "FlashGovernanceDisabled",
      "type": "error"
    },
    {
      "inputs": [
        {
          "internalType": "uint256",
          "name": "epochSize",
          "type": "uint256"
        },
        {
          "internalType": "uint256",
          "name": "lastAct",
          "type": "uint256"
        }
      ],
      "name": "FlashGovernanceEpochFull",
      "type": "error"
    },
    {
      "inputs": [
        {
          "internalType": "uint256",
          "name": "v1",
          "type": "uint256"
        },
        {
          "internalType": "uint256",
          "name": "v2",
          "type": "uint256"
        }
      ],
      "name": "FlashToleranceViolated",
      "type": "error"
    },
    {
      "inputs": [
        {
          "internalType": "bool",
          "name": "configured",
          "type": "bool"
        },
        {
          "internalType": "address",
          "name": "proposal",
          "type": "address"
        }
      ],
      "name": "GovernanceActionFailed",
      "type": "error"
    },
    {
      "inputs": [
        {
          "internalType": "uint256",
          "name": "balance",
          "type": "uint256"
        },
        {
          "internalType": "uint256",
          "name": "value",
          "type": "uint256"
        }
      ],
      "name": "InsufficinetFunds",
      "type": "error"
    },
    {
      "inputs": [
        {
          "internalType": "uint8",
          "name": "tolerance",
          "type": "uint8"
        }
      ],
      "name": "InvalidChangeTolerance",
      "type": "error"
    },
    {
      "inputs": [
        {
          "internalType": "address",
          "name": "EOA",
          "type": "address"
        }
      ],
      "name": "NotAContract",
      "type": "error"
    },
    {
      "inputs": [],
      "name": "OperationFailure",
      "type": "error"
    },
    {
      "anonymous": false,
      "inputs": [
        {
          "indexed": true,
          "internalType": "address",
          "name": "actor",
          "type": "address"
        },
        {
          "indexed": true,
          "internalType": "address",
          "name": "deposit_asset",
          "type": "address"
        },
        {
          "indexed": false,
          "internalType": "uint256",
          "name": "amount",
          "type": "uint256"
        },
        {
          "indexed": true,
          "internalType": "address",
          "name": "target",
          "type": "address"
        }
      ],
      "name": "flashDecision",
      "type": "event"
    },
    {
      "inputs": [],
      "name": "DAO",
      "outputs": [
        {
          "internalType": "address",
          "name": "",
          "type": "address"
        }
      ],
      "stateMutability": "view",
      "type": "function"
    },
    {
      "inputs": [
        {
          "internalType": "address",
          "name": "sender",
          "type": "address"
        },
        {
          "internalType": "address",
          "name": "target",
          "type": "address"
        },
        {
          "internalType": "bool",
          "name": "emergency",
          "type": "bool"
        }
      ],
      "name": "assertGovernanceApproved",
      "outputs": [],
      "stateMutability": "nonpayable",
      "type": "function"
    },
    {
      "inputs": [
        {
          "internalType": "address",
          "name": "targetContract",
          "type": "address"
        },
        {
          "internalType": "address",
          "name": "user",
          "type": "address"
        },
        {
          "internalType": "address",
          "name": "asset",
          "type": "address"
        },
        {
          "internalType": "uint256",
          "name": "amount",
          "type": "uint256"
        }
      ],
      "name": "burnFlashGovernanceAsset",
      "outputs": [],
      "stateMutability": "nonpayable",
      "type": "function"
    },
    {
      "inputs": [
        {
          "internalType": "address",
          "name": "asset",
          "type": "address"
        },
        {
          "internalType": "uint256",
          "name": "amount",
          "type": "uint256"
        },
        {
          "internalType": "uint256",
          "name": "unlockTime",
          "type": "uint256"
        },
        {
          "internalType": "bool",
          "name": "assetBurnable",
          "type": "bool"
        }
      ],
      "name": "configureFlashGovernance",
      "outputs": [],
      "stateMutability": "nonpayable",
      "type": "function"
    },
    {
      "inputs": [
        {
          "internalType": "uint8",
          "name": "maxGovernanceChangePerEpoch",
          "type": "uint8"
        },
        {
          "internalType": "uint256",
          "name": "epochSize",
          "type": "uint256"
        },
        {
          "internalType": "uint8",
          "name": "changeTolerance",
          "type": "uint8"
        }
      ],
      "name": "configureSecurityParameters",
      "outputs": [],
      "stateMutability": "nonpayable",
      "type": "function"
    },
    {
      "inputs": [],
      "name": "configured",
      "outputs": [
        {
          "internalType": "bool",
          "name": "",
          "type": "bool"
        }
      ],
      "stateMutability": "view",
      "type": "function"
    },
    {
      "inputs": [
        {
          "internalType": "address",
          "name": "expectedDAO",
          "type": "address"
        }
      ],
      "name": "endConfiguration",
      "outputs": [],
      "stateMutability": "nonpayable",
      "type": "function"
    },
    {
      "inputs": [
        {
          "internalType": "uint256",
          "name": "v1",
          "type": "uint256"
        },
        {
          "internalType": "uint256",
          "name": "v2",
          "type": "uint256"
        }
      ],
      "name": "enforceTolerance",
      "outputs": [],
      "stateMutability": "view",
      "type": "function"
    },
    {
      "inputs": [
        {
          "internalType": "int256",
          "name": "v1",
          "type": "int256"
        },
        {
          "internalType": "int256",
          "name": "v2",
          "type": "int256"
        }
      ],
      "name": "enforceToleranceInt",
      "outputs": [],
      "stateMutability": "view",
      "type": "function"
    },
    {
      "inputs": [],
      "name": "flashGovernanceConfig",
      "outputs": [
        {
          "internalType": "uint256",
          "name": "amount",
          "type": "uint256"
        },
        {
          "internalType": "uint256",
          "name": "unlockTime",
          "type": "uint256"
        },
        {
          "internalType": "contract IERC20",
          "name": "asset",
          "type": "address"
        },
        {
          "internalType": "bool",
          "name": "assetBurnable",
          "type": "bool"
        }
      ],
      "stateMutability": "view",
      "type": "function"
    },
    {
      "inputs": [
        {
          "internalType": "address",
          "name": "",
          "type": "address"
        }
      ],
      "name": "governed",
      "outputs": [
        {
          "internalType": "bool",
          "name": "",
          "type": "bool"
        }
      ],
      "stateMutability": "view",
      "type": "function"
    },
    {
      "inputs": [],
      "name": "governer",
      "outputs": [
        {
          "internalType": "contract FlashGovernanceArbiterLike",
          "name": "",
          "type": "address"
        }
      ],
      "stateMutability": "view",
      "type": "function"
    },
    {
      "inputs": [
        {
          "internalType": "address",
          "name": "",
          "type": "address"
        },
        {
          "internalType": "address",
          "name": "",
          "type": "address"
        }
      ],
      "name": "pendingFlashDecision",
      "outputs": [
        {
          "internalType": "uint256",
          "name": "amount",
          "type": "uint256"
        },
        {
          "internalType": "uint256",
          "name": "unlockTime",
          "type": "uint256"
        },
        {
          "internalType": "contract IERC20",
          "name": "asset",
          "type": "address"
        },
        {
          "internalType": "bool",
          "name": "assetBurnable",
          "type": "bool"
        }
      ],
      "stateMutability": "view",
      "type": "function"
    },
    {
      "inputs": [],
      "name": "security",
      "outputs": [
        {
          "internalType": "uint256",
          "name": "epochSize",
          "type": "uint256"
        },
        {
          "internalType": "uint256",
          "name": "lastFlashGovernanceAct",
          "type": "uint256"
        },
        {
          "internalType": "uint8",
          "name": "maxGovernanceChangePerEpoch",
          "type": "uint8"
        },
        {
          "internalType": "uint8",
          "name": "changeTolerance",
          "type": "uint8"
        }
      ],
      "stateMutability": "view",
      "type": "function"
    },
    {
      "inputs": [
        {
          "internalType": "address",
          "name": "dao",
          "type": "address"
        }
      ],
      "name": "setDAO",
      "outputs": [],
      "stateMutability": "nonpayable",
      "type": "function"
    },
    {
      "inputs": [
        {
          "internalType": "bool",
          "name": "enforce",
          "type": "bool"
        }
      ],
      "name": "setEnforcement",
      "outputs": [],
      "stateMutability": "nonpayable",
      "type": "function"
    },
    {
      "inputs": [
        {
          "internalType": "address[]",
          "name": "governables",
          "type": "address[]"
        },
        {
          "internalType": "bool[]",
          "name": "isGoverned",
          "type": "bool[]"
        }
      ],
      "name": "setGoverned",
      "outputs": [],
      "stateMutability": "nonpayable",
      "type": "function"
    },
    {
      "inputs": [],
      "name": "temporaryConfigurationLord",
      "outputs": [
        {
          "internalType": "address",
          "name": "",
          "type": "address"
        }
      ],
      "stateMutability": "view",
      "type": "function"
    },
    {
      "inputs": [
        {
          "internalType": "address",
          "name": "targetContract",
          "type": "address"
        },
        {
          "internalType": "address",
          "name": "asset",
          "type": "address"
        }
      ],
      "name": "withdrawGovernanceAsset",
      "outputs": [],
      "stateMutability": "nonpayable",
      "type": "function"
    }
  ],
  "bytecode": "0x60806040523480156200001157600080fd5b5060405162002f4338038062002f43833981810160405281019062000037919062000235565b8033600160006101000a81548173ffffffffffffffffffffffffffffffffffffffff021916908373ffffffffffffffffffffffffffffffffffffffff1602179055506200008a816200009260201b60201c565b5050620002a5565b620000a26200017360201b60201c565b156200010b57600160009054906101000a900473ffffffffffffffffffffffffffffffffffffffff16336040517fc21bbf9d0000000000000000000000000000000000000000000000000000000081526004016200010292919062000278565b60405180910390fd5b80600260006101000a81548173ffffffffffffffffffffffffffffffffffffffff021916908373ffffffffffffffffffffffffffffffffffffffff1602179055506000806101000a81549073ffffffffffffffffffffffffffffffffffffffff021916905550565b60008073ffffffffffffffffffffffffffffffffffffffff16600160009054906101000a900473ffffffffffffffffffffffffffffffffffffffff1673ffffffffffffffffffffffffffffffffffffffff1614905090565b600080fd5b600073ffffffffffffffffffffffffffffffffffffffff82169050919050565b6000620001fd82620001d0565b9050919050565b6200020f81620001f0565b81146200021b57600080fd5b50565b6000815190506200022f8162000204565b92915050565b6000602082840312156200024e576200024d620001cb565b5b60006200025e848285016200021e565b91505092915050565b6200027281620001f0565b82525050565b60006040820190506200028f600083018562000267565b6200029e602083018462000267565b9392505050565b612c8e80620002b56000396000f3fe608060405234801561001057600080fd5b50600436106101215760003560e01c80637d77bf43116100ad57806398fabd3a1161007157806398fabd3a146102e2578063ad64d6cb14610300578063b8b976541461031c578063dd77a4751461033d578063e73a914c1461035b57610121565b80637d77bf431461023d5780638772a23a146102595780638de51e8c14610277578063984905e41461029357806398f11241146102c657610121565b80633850ed1e116100f45780633850ed1e146101985780633cb4d06e146101b45780634739a2ba146101e45780634eaa7eb214610200578063548799181461021c57610121565b806301f68ce3146101265780630e2365f2146101425780631070c8241461015e5780633091dde11461017a575b600080fd5b610140600480360381019061013b9190612079565b610377565b005b61015c60048036038101906101579190612127565b61080e565b005b6101786004803603810190610173919061218e565b610892565b005b610182610a69565b60405161018f9190612254565b60405180910390f35b6101b260048036038101906101ad91906122a5565b610a8d565b005b6101ce60048036038101906101c991906122e5565b610b27565b6040516101db9190612321565b60405180910390f35b6101fe60048036038101906101f9919061233c565b610b47565b005b61021a600480360381019061021591906122e5565b610d4f565b005b610224610f00565b60405161023494939291906123a7565b60405180910390f35b61025760048036038101906102529190612418565b610f38565b005b610261610fd5565b60405161026e9190612321565b60405180910390f35b610291600480360381019061028c9190612526565b61102d565b005b6102ad60048036038101906102a89190612079565b611155565b6040516102bd94939291906125c8565b60405180910390f35b6102e060048036038101906102db919061260d565b6111bf565b005b6102ea611807565b6040516102f7919061266f565b60405180910390f35b61031a6004803603810190610315919061268a565b61182d565b005b610324611887565b60405161033494939291906125c8565b60405180910390f35b6103456118d2565b604051610352919061266f565b60405180910390f35b610375600480360381019061037091906122e5565b6118f8565b005b60008173ffffffffffffffffffffffffffffffffffffffff16600b60008573ffffffffffffffffffffffffffffffffffffffff1673ffffffffffffffffffffffffffffffffffffffff16815260200190815260200160002060003373ffffffffffffffffffffffffffffffffffffffff1673ffffffffffffffffffffffffffffffffffffffff16815260200190815260200160002060020160009054906101000a900473ffffffffffffffffffffffffffffffffffffffff1673ffffffffffffffffffffffffffffffffffffffff161480156104d257506000600b60008573ffffffffffffffffffffffffffffffffffffffff1673ffffffffffffffffffffffffffffffffffffffff16815260200190815260200160002060003373ffffffffffffffffffffffffffffffffffffffff1673ffffffffffffffffffffffffffffffffffffffff16815260200190815260200160002060000154115b801561055c575042600b60008573ffffffffffffffffffffffffffffffffffffffff1673ffffffffffffffffffffffffffffffffffffffff16815260200190815260200160002060003373ffffffffffffffffffffffffffffffffffffffff1673ffffffffffffffffffffffffffffffffffffffff16815260200190815260200160002060010154105b9050806105a25782336040517fe2ac6ae30000000000000000000000000000000000000000000000000000000081526004016105999291906126b7565b60405180910390fd5b600b60008473ffffffffffffffffffffffffffffffffffffffff1673ffffffffffffffffffffffffffffffffffffffff16815260200190815260200160002060003373ffffffffffffffffffffffffffffffffffffffff1673ffffffffffffffffffffffffffffffffffffffff16815260200190815260200160002060020160009054906101000a900473ffffffffffffffffffffffffffffffffffffffff1673ffffffffffffffffffffffffffffffffffffffff1663a9059cbb33600b60008773ffffffffffffffffffffffffffffffffffffffff1673ffffffffffffffffffffffffffffffffffffffff16815260200190815260200160002060003373ffffffffffffffffffffffffffffffffffffffff1673ffffffffffffffffffffffffffffffffffffffff168152602001908152602001600020600001546040518363ffffffff1660e01b81526004016106fb9291906126e0565b6020604051808303816000875af115801561071a573d6000803e3d6000fd5b505050506040513d601f19601f8201168201806040525081019061073e919061271e565b50600b60008473ffffffffffffffffffffffffffffffffffffffff1673ffffffffffffffffffffffffffffffffffffffff16815260200190815260200160002060003373ffffffffffffffffffffffffffffffffffffffff1673ffffffffffffffffffffffffffffffffffffffff16815260200190815260200160002060008082016000905560018201600090556002820160006101000a81549073ffffffffffffffffffffffffffffffffffffffff02191690556002820160146101000a81549060ff02191690555050505050565b610817336119ce565b83600460020160006101000a81548173ffffffffffffffffffffffffffffffffffffffff021916908373ffffffffffffffffffffffffffffffffffffffff160217905550826004600001819055508160046001018190555080600460020160146101000a81548160ff02191690831515021790555050505050565b61089b336119ce565b600b60008573ffffffffffffffffffffffffffffffffffffffff1673ffffffffffffffffffffffffffffffffffffffff16815260200190815260200160002060008473ffffffffffffffffffffffffffffffffffffffff1673ffffffffffffffffffffffffffffffffffffffff16815260200190815260200160002060020160149054906101000a900460ff1615610999578173ffffffffffffffffffffffffffffffffffffffff166342966c68826040518263ffffffff1660e01b8152600401610966919061274b565b600060405180830381600087803b15801561098057600080fd5b505af1158015610994573d6000803e3d6000fd5b505050505b600b60008573ffffffffffffffffffffffffffffffffffffffff1673ffffffffffffffffffffffffffffffffffffffff16815260200190815260200160002060008473ffffffffffffffffffffffffffffffffffffffff1673ffffffffffffffffffffffffffffffffffffffff16815260200190815260200160002060008082016000905560018201600090556002820160006101000a81549073ffffffffffffffffffffffffffffffffffffffff02191690556002820160146101000a81549060ff0219169055505050505050565b60008054906101000a900473ffffffffffffffffffffffffffffffffffffffff1681565b610a95610fd5565b15610b23576000808313610ad457827fffffffffffffffffffffffffffffffffffffffffffffffffffffffffffffffff610acf9190612795565b610ad6565b825b90506000808313610b1257827fffffffffffffffffffffffffffffffffffffffffffffffffffffffffffffffff610b0d9190612795565b610b14565b825b9050610b208282610b47565b50505b5050565b600a6020528060005260406000206000915054906101000a900460ff1681565b600360003373ffffffffffffffffffffffffffffffffffffffff1673ffffffffffffffffffffffffffffffffffffffff16815260200190815260200160002060009054906101000a900460ff161580610c0c57503373ffffffffffffffffffffffffffffffffffffffff16638772a23a6040518163ffffffff1660e01b8152600401602060405180830381865afa158015610be6573d6000803e3d6000fd5b505050506040513d601f19601f82011682018060405250810190610c0a919061271e565b155b610d4b5780821115610cb357600081148015610c285750600182115b80610c6a575081600760020160019054906101000a900460ff1660ff16610c4f91906128ac565b60648284610c5d9190612906565b610c6791906128ac565b10155b15610cae5781816040517fefcf67d9000000000000000000000000000000000000000000000000000000008152600401610ca592919061293a565b60405180910390fd5b610d4a565b600082148015610cc35750600181115b80610d05575081600760020160019054906101000a900460ff1660ff16610cea91906128ac565b60648383610cf89190612906565b610d0291906128ac565b10155b15610d495781816040517fefcf67d9000000000000000000000000000000000000000000000000000000008152600401610d4092919061293a565b60405180910390fd5b5b5b5050565b600160009054906101000a900473ffffffffffffffffffffffffffffffffffffffff1673ffffffffffffffffffffffffffffffffffffffff163373ffffffffffffffffffffffffffffffffffffffff1614610e0557600160009054906101000a900473ffffffffffffffffffffffffffffffffffffffff16336040517fc21bbf9d000000000000000000000000000000000000000000000000000000008152600401610dfc9291906126b7565b60405180910390fd5b600260009054906101000a900473ffffffffffffffffffffffffffffffffffffffff1673ffffffffffffffffffffffffffffffffffffffff168173ffffffffffffffffffffffffffffffffffffffff1614610ebb5780600260009054906101000a900473ffffffffffffffffffffffffffffffffffffffff166040517f3f0e2133000000000000000000000000000000000000000000000000000000008152600401610eb29291906126b7565b60405180910390fd5b6000600160006101000a81548173ffffffffffffffffffffffffffffffffffffffff021916908373ffffffffffffffffffffffffffffffffffffffff16021790555050565b60078060000154908060010154908060020160009054906101000a900460ff16908060020160019054906101000a900460ff16905084565b610f41336119ce565b82600760020160006101000a81548160ff021916908360ff1602179055508160076000018190555060648160ff161115610fb257806040517f63a79260000000000000000000000000000000000000000000000000000000008152600401610fa99190612963565b60405180910390fd5b80600760020160016101000a81548160ff021916908360ff160217905550505050565b60008073ffffffffffffffffffffffffffffffffffffffff16600160009054906101000a900473ffffffffffffffffffffffffffffffffffffffff1673ffffffffffffffffffffffffffffffffffffffff1614905090565b611036336119ce565b8181905084849050146110885783839050828290506040517ffa5dbe0800000000000000000000000000000000000000000000000000000000815260040161107f92919061293a565b60405180910390fd5b60005b8484905081101561114e578282828181106110a9576110a861297e565b5b90506020020160208101906110be919061268a565b600a60008787858181106110d5576110d461297e565b5b90506020020160208101906110ea91906122e5565b73ffffffffffffffffffffffffffffffffffffffff1673ffffffffffffffffffffffffffffffffffffffff16815260200190815260200160002060006101000a81548160ff0219169083151502179055508080611146906129ad565b91505061108b565b5050505050565b600b602052816000526040600020602052806000526040600020600091509150508060000154908060010154908060020160009054906101000a900473ffffffffffffffffffffffffffffffffffffffff16908060020160149054906101000a900460ff16905084565b600260009054906101000a900473ffffffffffffffffffffffffffffffffffffffff1673ffffffffffffffffffffffffffffffffffffffff163373ffffffffffffffffffffffffffffffffffffffff16141580156112675750600a60003373ffffffffffffffffffffffffffffffffffffffff1673ffffffffffffffffffffffffffffffffffffffff16815260200190815260200160002060009054906101000a900460ff16155b156112a957336040517f8a35b0990000000000000000000000000000000000000000000000000000000081526004016112a0919061266f565b60405180910390fd5b6000600b60008473ffffffffffffffffffffffffffffffffffffffff1673ffffffffffffffffffffffffffffffffffffffff16815260200190815260200160002060008573ffffffffffffffffffffffffffffffffffffffff1673ffffffffffffffffffffffffffffffffffffffff16815260200190815260200160002060405180608001604052908160008201548152602001600182015481526020016002820160009054906101000a900473ffffffffffffffffffffffffffffffffffffffff1673ffffffffffffffffffffffffffffffffffffffff1673ffffffffffffffffffffffffffffffffffffffff1681526020016002820160149054906101000a900460ff161515151581525050905042816020015110156117c257811580156113e75750600760000154600760010154426113e59190612906565b105b15611435576007600001546007600101546040517f9d09767300000000000000000000000000000000000000000000000000000000815260040161142c92919061293a565b60405180910390fd5b6000816000015160046000015461144c91906129f5565b9050600460020160009054906101000a900473ffffffffffffffffffffffffffffffffffffffff1673ffffffffffffffffffffffffffffffffffffffff1663095ea7b3307fffffffffffffffffffffffffffffffffffffffffffffffffffffffffffffffff6040518363ffffffff1660e01b81526004016114ce9291906126e0565b6020604051808303816000875af11580156114ed573d6000803e3d6000fd5b505050506040513d601f19601f82011682018060405250810190611511919061271e565b50611564853083600460020160009054906101000a900473ffffffffffffffffffffffffffffffffffffffff1673ffffffffffffffffffffffffffffffffffffffff16611ac9909392919063ffffffff16565b600460405180608001604052908160008201548152602001600182015481526020016002820160009054906101000a900473ffffffffffffffffffffffffffffffffffffffff1673ffffffffffffffffffffffffffffffffffffffff1673ffffffffffffffffffffffffffffffffffffffff1681526020016002820160149054906101000a900460ff1615151515815250509150428260200181815161160a9190612a89565b9150818152505081600b60008673ffffffffffffffffffffffffffffffffffffffff1673ffffffffffffffffffffffffffffffffffffffff16815260200190815260200160002060008773ffffffffffffffffffffffffffffffffffffffff1673ffffffffffffffffffffffffffffffffffffffff168152602001908152602001600020600082015181600001556020820151816001015560408201518160020160006101000a81548173ffffffffffffffffffffffffffffffffffffffff021916908373ffffffffffffffffffffffffffffffffffffffff16021790555060608201518160020160146101000a81548160ff021916908315150217905550905050426007600101819055508373ffffffffffffffffffffffffffffffffffffffff16600460020160009054906101000a900473ffffffffffffffffffffffffffffffffffffffff1673ffffffffffffffffffffffffffffffffffffffff168673ffffffffffffffffffffffffffffffffffffffff167fd2ee22547ba3675fb74486298b9ad32c9bbc4d7f773a2b679d3e2c27dae30ee66004600001546040516117b4919061274b565b60405180910390a450611801565b83836040517f5632c5fc0000000000000000000000000000000000000000000000000000000081526004016117f89291906126b7565b60405180910390fd5b50505050565b600260009054906101000a900473ffffffffffffffffffffffffffffffffffffffff1681565b80600360003373ffffffffffffffffffffffffffffffffffffffff1673ffffffffffffffffffffffffffffffffffffffff16815260200190815260200160002060006101000a81548160ff02191690831515021790555050565b60048060000154908060010154908060020160009054906101000a900473ffffffffffffffffffffffffffffffffffffffff16908060020160149054906101000a900460ff16905084565b600160009054906101000a900473ffffffffffffffffffffffffffffffffffffffff1681565b611900610fd5565b1561196657600160009054906101000a900473ffffffffffffffffffffffffffffffffffffffff16336040517fc21bbf9d00000000000000000000000000000000000000000000000000000000815260040161195d9291906126b7565b60405180910390fd5b80600260006101000a81548173ffffffffffffffffffffffffffffffffffffffff021916908373ffffffffffffffffffffffffffffffffffffffff1602179055506000806101000a81549073ffffffffffffffffffffffffffffffffffffffff021916905550565b6119d6610fd5565b8015611a7b5750600260009054906101000a900473ffffffffffffffffffffffffffffffffffffffff1673ffffffffffffffffffffffffffffffffffffffff1663b7ebc23b826040518263ffffffff1660e01b8152600401611a38919061266f565b602060405180830381865afa158015611a55573d6000803e3d6000fd5b505050506040513d601f19601f82011682018060405250810190611a79919061271e565b155b15611ac657611a88610fd5565b816040517f64218e39000000000000000000000000000000000000000000000000000000008152600401611abd929190612adf565b60405180910390fd5b50565b6000808213611b445760405180604001604052808473ffffffffffffffffffffffffffffffffffffffff1673ffffffffffffffffffffffffffffffffffffffff1681526020018573ffffffffffffffffffffffffffffffffffffffff1673ffffffffffffffffffffffffffffffffffffffff16815250611bb2565b60405180604001604052808573ffffffffffffffffffffffffffffffffffffffff1673ffffffffffffffffffffffffffffffffffffffff1681526020018473ffffffffffffffffffffffffffffffffffffffff1673ffffffffffffffffffffffffffffffffffffffff168152505b90506000808313611bee577fffffffffffffffffffffffffffffffffffffffffffffffffffffffffffffffff83611be99190612795565b611bf0565b825b90503073ffffffffffffffffffffffffffffffffffffffff1682600060028110611c1d57611c1c61297e565b5b602002015173ffffffffffffffffffffffffffffffffffffffff1603611cdb57611cd68663a9059cbb60e01b84600160028110611c5d57611c5c61297e565b5b602002015184604051602401611c749291906126e0565b604051602081830303815290604052907bffffffffffffffffffffffffffffffffffffffffffffffffffffffff19166020820180517bffffffffffffffffffffffffffffffffffffffffffffffffffffffff8381831617835250505050611d97565b611d8f565b611d8e866323b872dd60e01b84600060028110611cfb57611cfa61297e565b5b602002015185600160028110611d1457611d1361297e565b5b602002015185604051602401611d2c93929190612b08565b604051602081830303815290604052907bffffffffffffffffffffffffffffffffffffffffffffffffffffffff19166020820180517bffffffffffffffffffffffffffffffffffffffffffffffffffffffff8381831617835250505050611d97565b5b505050505050565b6000611df9826040518060400160405280602081526020017f5361666545524332303a206c6f772d6c6576656c2063616c6c206661696c65648152508573ffffffffffffffffffffffffffffffffffffffff16611e559092919063ffffffff16565b9050600081511115611e505780806020019051810190611e19919061271e565b611e4f576040517fa479450200000000000000000000000000000000000000000000000000000000815260040160405180910390fd5b5b505050565b6060611e648484600085611e6d565b90509392505050565b606082471015611eb65747836040517f02de226f000000000000000000000000000000000000000000000000000000008152600401611ead92919061293a565b60405180910390fd5b611ebf85611f87565b611f0057846040517f8a8b41ec000000000000000000000000000000000000000000000000000000008152600401611ef7919061266f565b60405180910390fd5b6000808673ffffffffffffffffffffffffffffffffffffffff168587604051611f299190612bb9565b60006040518083038185875af1925050503d8060008114611f66576040519150601f19603f3d011682016040523d82523d6000602084013e611f6b565b606091505b5091509150611f7b828286611faa565b92505050949350505050565b6000808273ffffffffffffffffffffffffffffffffffffffff163b119050919050565b60608315611fba5782905061200a565b600083511115611fcd5782518084602001fd5b816040517f08c379a00000000000000000000000000000000000000000000000000000000081526004016120019190612c36565b60405180910390fd5b9392505050565b600080fd5b600080fd5b600073ffffffffffffffffffffffffffffffffffffffff82169050919050565b60006120468261201b565b9050919050565b6120568161203b565b811461206157600080fd5b50565b6000813590506120738161204d565b92915050565b600080604083850312156120905761208f612011565b5b600061209e85828601612064565b92505060206120af85828601612064565b9150509250929050565b6000819050919050565b6120cc816120b9565b81146120d757600080fd5b50565b6000813590506120e9816120c3565b92915050565b60008115159050919050565b612104816120ef565b811461210f57600080fd5b50565b600081359050612121816120fb565b92915050565b6000806000806080858703121561214157612140612011565b5b600061214f87828801612064565b9450506020612160878288016120da565b9350506040612171878288016120da565b925050606061218287828801612112565b91505092959194509250565b600080600080608085870312156121a8576121a7612011565b5b60006121b687828801612064565b94505060206121c787828801612064565b93505060406121d887828801612064565b92505060606121e9878288016120da565b91505092959194509250565b6000819050919050565b600061221a6122156122108461201b565b6121f5565b61201b565b9050919050565b600061222c826121ff565b9050919050565b600061223e82612221565b9050919050565b61224e81612233565b82525050565b60006020820190506122696000830184612245565b92915050565b6000819050919050565b6122828161226f565b811461228d57600080fd5b50565b60008135905061229f81612279565b92915050565b600080604083850312156122bc576122bb612011565b5b60006122ca85828601612290565b92505060206122db85828601612290565b9150509250929050565b6000602082840312156122fb576122fa612011565b5b600061230984828501612064565b91505092915050565b61231b816120ef565b82525050565b60006020820190506123366000830184612312565b92915050565b6000806040838503121561235357612352612011565b5b6000612361858286016120da565b9250506020612372858286016120da565b9150509250929050565b612385816120b9565b82525050565b600060ff82169050919050565b6123a18161238b565b82525050565b60006080820190506123bc600083018761237c565b6123c9602083018661237c565b6123d66040830185612398565b6123e36060830184612398565b95945050505050565b6123f58161238b565b811461240057600080fd5b50565b600081359050612412816123ec565b92915050565b60008060006060848603121561243157612430612011565b5b600061243f86828701612403565b9350506020612450868287016120da565b925050604061246186828701612403565b9150509250925092565b600080fd5b600080fd5b600080fd5b60008083601f8401126124905761248f61246b565b5b8235905067ffffffffffffffff8111156124ad576124ac612470565b5b6020830191508360208202830111156124c9576124c8612475565b5b9250929050565b60008083601f8401126124e6576124e561246b565b5b8235905067ffffffffffffffff81111561250357612502612470565b5b60208301915083602082028301111561251f5761251e612475565b5b9250929050565b600080600080604085870312156125405761253f612011565b5b600085013567ffffffffffffffff81111561255e5761255d612016565b5b61256a8782880161247a565b9450945050602085013567ffffffffffffffff81111561258d5761258c612016565b5b612599878288016124d0565b925092505092959194509250565b60006125b282612221565b9050919050565b6125c2816125a7565b82525050565b60006080820190506125dd600083018761237c565b6125ea602083018661237c565b6125f760408301856125b9565b6126046060830184612312565b95945050505050565b60008060006060848603121561262657612625612011565b5b600061263486828701612064565b935050602061264586828701612064565b925050604061265686828701612112565b9150509250925092565b6126698161203b565b82525050565b60006020820190506126846000830184612660565b92915050565b6000602082840312156126a05761269f612011565b5b60006126ae84828501612112565b91505092915050565b60006040820190506126cc6000830185612660565b6126d96020830184612660565b9392505050565b60006040820190506126f56000830185612660565b612702602083018461237c565b9392505050565b600081519050612718816120fb565b92915050565b60006020828403121561273457612733612011565b5b600061274284828501612709565b91505092915050565b6000602082019050612760600083018461237c565b92915050565b7f4e487b7100000000000000000000000000000000000000000000000000000000600052601160045260246000fd5b60006127a08261226f565b91506127ab8361226f565b9250827f7fffffffffffffffffffffffffffffffffffffffffffffffffffffffffffffff04821160008413600084131616156127ea576127e9612766565b5b817f8000000000000000000000000000000000000000000000000000000000000000058312600084126000841316161561282757612826612766565b5b827f8000000000000000000000000000000000000000000000000000000000000000058212600084136000841216161561286457612863612766565b5b827f7fffffffffffffffffffffffffffffffffffffffffffffffffffffffffffffff05821260008412600084121616156128a1576128a0612766565b5b828202905092915050565b60006128b7826120b9565b91506128c2836120b9565b9250817fffffffffffffffffffffffffffffffffffffffffffffffffffffffffffffffff04831182151516156128fb576128fa612766565b5b828202905092915050565b6000612911826120b9565b915061291c836120b9565b92508282101561292f5761292e612766565b5b828203905092915050565b600060408201905061294f600083018561237c565b61295c602083018461237c565b9392505050565b60006020820190506129786000830184612398565b92915050565b7f4e487b7100000000000000000000000000000000000000000000000000000000600052603260045260246000fd5b60006129b8826120b9565b91507fffffffffffffffffffffffffffffffffffffffffffffffffffffffffffffffff82036129ea576129e9612766565b5b600182019050919050565b6000612a008261226f565b9150612a0b8361226f565b9250827f800000000000000000000000000000000000000000000000000000000000000001821260008412151615612a4657612a45612766565b5b827f7fffffffffffffffffffffffffffffffffffffffffffffffffffffffffffffff018213600084121615612a7e57612a7d612766565b5b828203905092915050565b6000612a94826120b9565b9150612a9f836120b9565b9250827fffffffffffffffffffffffffffffffffffffffffffffffffffffffffffffffff03821115612ad457612ad3612766565b5b828201905092915050565b6000604082019050612af46000830185612312565b612b016020830184612660565b9392505050565b6000606082019050612b1d6000830186612660565b612b2a6020830185612660565b612b37604083018461237c565b949350505050565b600081519050919050565b600081905092915050565b60005b83811015612b73578082015181840152602081019050612b58565b83811115612b82576000848401525b50505050565b6000612b9382612b3f565b612b9d8185612b4a565b9350612bad818560208601612b55565b80840191505092915050565b6000612bc58284612b88565b915081905092915050565b600081519050919050565b600082825260208201905092915050565b6000601f19601f8301169050919050565b6000612c0882612bd0565b612c128185612bdb565b9350612c22818560208601612b55565b612c2b81612bec565b840191505092915050565b60006020820190508181036000830152612c508184612bfd565b90509291505056fea2646970667358221220bcd7258471cecb1f023aee5b94dfc5dd6287ec656cb18476785b97629d1cf01c64736f6c634300080d0033",
  "linkReferences": {},
  "deployedLinkReferences": {}
}