{
  "_format": "hh-sol-artifact-1",
  "contractName": "TokenProxyRegistry",
  "sourceName": "contracts/TokenProxyRegistry.sol",
  "abi": [
    {
      "inputs": [
        {
          "internalType": "address",
          "name": "dao",
          "type": "address"
        },
        {
          "internalType": "address",
          "name": "power",
          "type": "address"
        },
        {
          "internalType": "address",
          "name": "_behodler",
          "type": "address"
        }
      ],
      "stateMutability": "nonpayable",
      "type": "constructor"
    },
    {
      "inputs": [
        {
          "internalType": "address",
          "name": "configurationLord",
          "type": "address"
        },
        {
          "internalType": "address",
          "name": "msg_sender",
          "type": "address"
        }
      ],
      "name": "AccessDenied",
      "type": "error"
    },
    {
      "inputs": [
        {
          "internalType": "address",
          "name": "token",
          "type": "address"
        },
        {
          "internalType": "address",
          "name": "spender",
          "type": "address"
        },
        {
          "internalType": "uint256",
          "name": "amount",
          "type": "uint256"
        }
      ],
      "name": "ApproveToNonZero",
      "type": "error"
    },
    {
      "inputs": [
        {
          "internalType": "address",
          "name": "expectedDAO",
          "type": "address"
        },
        {
          "internalType": "address",
          "name": "actualDAO",
          "type": "address"
        }
      ],
      "name": "BackrunDetected",
      "type": "error"
    },
    {
      "inputs": [
        {
          "internalType": "bool",
          "name": "configured",
          "type": "bool"
        },
        {
          "internalType": "address",
          "name": "proposal",
          "type": "address"
        }
      ],
      "name": "GovernanceActionFailed",
      "type": "error"
    },
    {
      "inputs": [
        {
          "internalType": "uint256",
          "name": "balance",
          "type": "uint256"
        },
        {
          "internalType": "uint256",
          "name": "value",
          "type": "uint256"
        }
      ],
      "name": "InsufficinetFunds",
      "type": "error"
    },
    {
      "inputs": [
        {
          "internalType": "address",
          "name": "EOA",
          "type": "address"
        }
      ],
      "name": "NotAContract",
      "type": "error"
    },
    {
      "inputs": [
        {
          "internalType": "address",
          "name": "sender",
          "type": "address"
        }
      ],
      "name": "NotMorgothPower",
      "type": "error"
    },
    {
      "inputs": [],
      "name": "OperationFailure",
      "type": "error"
    },
    {
      "inputs": [],
      "name": "DAO",
      "outputs": [
        {
          "internalType": "address",
          "name": "",
          "type": "address"
        }
      ],
      "stateMutability": "view",
      "type": "function"
    },
    {
      "inputs": [
        {
          "internalType": "address",
          "name": "token",
          "type": "address"
        }
      ],
      "name": "TransferFromLimboTokenToBehodlerToken",
      "outputs": [
        {
          "internalType": "bool",
          "name": "",
          "type": "bool"
        }
      ],
      "stateMutability": "nonpayable",
      "type": "function"
    },
    {
      "inputs": [],
      "name": "configured",
      "outputs": [
        {
          "internalType": "bool",
          "name": "",
          "type": "bool"
        }
      ],
      "stateMutability": "view",
      "type": "function"
    },
    {
      "inputs": [
        {
          "internalType": "address",
          "name": "expectedDAO",
          "type": "address"
        }
      ],
      "name": "endConfiguration",
      "outputs": [],
      "stateMutability": "nonpayable",
      "type": "function"
    },
    {
      "inputs": [],
      "name": "governer",
      "outputs": [
        {
          "internalType": "contract FlashGovernanceArbiterLike",
          "name": "",
          "type": "address"
        }
      ],
      "stateMutability": "view",
      "type": "function"
    },
    {
      "inputs": [
        {
          "internalType": "address",
          "name": "existingProxy",
          "type": "address"
        },
        {
          "internalType": "address",
          "name": "newProxyToken",
          "type": "address"
        }
      ],
      "name": "migrateProxyTokenToNewProxyWrapper",
      "outputs": [],
      "stateMutability": "nonpayable",
      "type": "function"
    },
    {
      "inputs": [
        {
          "internalType": "address",
          "name": "dao",
          "type": "address"
        }
      ],
      "name": "setDAO",
      "outputs": [],
      "stateMutability": "nonpayable",
      "type": "function"
    },
    {
      "inputs": [
        {
          "internalType": "address",
          "name": "baseToken",
          "type": "address"
        },
        {
          "internalType": "address",
          "name": "limboProxy",
          "type": "address"
        },
        {
          "internalType": "address",
          "name": "behodlerProxy",
          "type": "address"
        }
      ],
      "name": "setProxy",
      "outputs": [
        {
          "internalType": "bool",
          "name": "ownershipClaimed",
          "type": "bool"
        }
      ],
      "stateMutability": "nonpayable",
      "type": "function"
    },
    {
      "inputs": [],
      "name": "temporaryConfigurationLord",
      "outputs": [
        {
          "internalType": "address",
          "name": "",
          "type": "address"
        }
      ],
      "stateMutability": "view",
      "type": "function"
    },
    {
      "inputs": [
        {
          "internalType": "address",
          "name": "",
          "type": "address"
        }
      ],
      "name": "tokenProxy",
      "outputs": [
        {
          "internalType": "address",
          "name": "limboProxy",
          "type": "address"
        },
        {
          "internalType": "address",
          "name": "behodlerProxy",
          "type": "address"
        }
      ],
      "stateMutability": "view",
      "type": "function"
    }
  ],
  "bytecode": "0x60c06040523480156200001157600080fd5b506040516200212538038062002125833981810160405281019062000037919062000356565b826200004981620000fc60201b60201c565b33600160006101000a81548173ffffffffffffffffffffffffffffffffffffffff021916908373ffffffffffffffffffffffffffffffffffffffff160217905550508173ffffffffffffffffffffffffffffffffffffffff1660808173ffffffffffffffffffffffffffffffffffffffff16815250508073ffffffffffffffffffffffffffffffffffffffff1660a08173ffffffffffffffffffffffffffffffffffffffff1681525050505050620003f0565b600073ffffffffffffffffffffffffffffffffffffffff16600260009054906101000a900473ffffffffffffffffffffffffffffffffffffffff1673ffffffffffffffffffffffffffffffffffffffff1614158015620001aa5750600260009054906101000a900473ffffffffffffffffffffffffffffffffffffffff1673ffffffffffffffffffffffffffffffffffffffff163373ffffffffffffffffffffffffffffffffffffffff1614155b8015620001c35750620001c26200029460201b60201c565b5b156200022c57600160009054906101000a900473ffffffffffffffffffffffffffffffffffffffff16336040517fc21bbf9d00000000000000000000000000000000000000000000000000000000815260040162000223929190620003c3565b60405180910390fd5b80600260006101000a81548173ffffffffffffffffffffffffffffffffffffffff021916908373ffffffffffffffffffffffffffffffffffffffff1602179055506000806101000a81549073ffffffffffffffffffffffffffffffffffffffff021916905550565b60008073ffffffffffffffffffffffffffffffffffffffff16600160009054906101000a900473ffffffffffffffffffffffffffffffffffffffff1673ffffffffffffffffffffffffffffffffffffffff1614905090565b600080fd5b600073ffffffffffffffffffffffffffffffffffffffff82169050919050565b60006200031e82620002f1565b9050919050565b620003308162000311565b81146200033c57600080fd5b50565b600081519050620003508162000325565b92915050565b600080600060608486031215620003725762000371620002ec565b5b600062000382868287016200033f565b935050602062000395868287016200033f565b9250506040620003a8868287016200033f565b9150509250925092565b620003bd8162000311565b82525050565b6000604082019050620003da6000830185620003b2565b620003e96020830184620003b2565b9392505050565b60805160a051611d016200042460003960008181610794015281816107fe015261089e015260006102040152611d016000f3fe608060405234801561001057600080fd5b506004361061009e5760003560e01c80637f1c59ae116100665780637f1c59ae146101595780638772a23a1461018a57806398fabd3a146101a8578063dd77a475146101c6578063e73a914c146101e45761009e565b8063196c7157146100a35780633091dde1146100d35780634e390601146100f15780634eaa7eb21461010d5780636a37914514610129575b600080fd5b6100bd60048036038101906100b891906117a4565b610200565b6040516100ca91906117ec565b60405180910390f35b6100db610949565b6040516100e89190611866565b60405180910390f35b61010b60048036038101906101069190611881565b61096d565b005b610127600480360381019061012291906117a4565b610d0a565b005b610143600480360381019061013e91906118c1565b610ebb565b60405161015091906117ec565b60405180910390f35b610173600480360381019061016e91906117a4565b610fe2565b604051610181929190611923565b60405180910390f35b610192611046565b60405161019f91906117ec565b60405180910390f35b6101b061109e565b6040516101bd919061194c565b60405180910390f35b6101ce6110c4565b6040516101db919061194c565b60405180910390f35b6101fe60048036038101906101f991906117a4565b6110ea565b005b60007f000000000000000000000000000000000000000000000000000000000000000073ffffffffffffffffffffffffffffffffffffffff163373ffffffffffffffffffffffffffffffffffffffff161461029257336040517f98ce716e000000000000000000000000000000000000000000000000000000008152600401610289919061194c565b60405180910390fd5b60008290508273ffffffffffffffffffffffffffffffffffffffff1663fbed2d726040518163ffffffff1660e01b8152600401602060405180830381865afa9250505080156102ff57506040513d601f19601f820116820180604052508101906102fc9190611993565b60015b15610377578373ffffffffffffffffffffffffffffffffffffffff1663c55dae636040518163ffffffff1660e01b8152600401602060405180830381865afa15801561034f573d6000803e3d6000fd5b505050506040513d601f19601f8201168201806040525081019061037391906119d5565b9150505b6000600360008373ffffffffffffffffffffffffffffffffffffffff1673ffffffffffffffffffffffffffffffffffffffff1681526020019081526020016000206040518060400160405290816000820160009054906101000a900473ffffffffffffffffffffffffffffffffffffffff1673ffffffffffffffffffffffffffffffffffffffff1673ffffffffffffffffffffffffffffffffffffffff1681526020016001820160009054906101000a900473ffffffffffffffffffffffffffffffffffffffff1673ffffffffffffffffffffffffffffffffffffffff1673ffffffffffffffffffffffffffffffffffffffff1681525050905060008073ffffffffffffffffffffffffffffffffffffffff16826000015173ffffffffffffffffffffffffffffffffffffffff16146106155760008373ffffffffffffffffffffffffffffffffffffffff166370a08231306040518263ffffffff1660e01b81526004016104e5919061194c565b602060405180830381865afa158015610502573d6000803e3d6000fd5b505050506040513d601f19601f820116820180604052508101906105269190611a38565b90508573ffffffffffffffffffffffffffffffffffffffff1663ace1fab16040518163ffffffff1660e01b8152600401600060405180830381600087803b15801561057057600080fd5b505af1158015610584573d6000803e3d6000fd5b50505050808473ffffffffffffffffffffffffffffffffffffffff166370a08231306040518263ffffffff1660e01b81526004016105c2919061194c565b602060405180830381865afa1580156105df573d6000803e3d6000fd5b505050506040513d601f19601f820116820180604052508101906106039190611a38565b61060d9190611a94565b915050610692565b8473ffffffffffffffffffffffffffffffffffffffff166370a08231306040518263ffffffff1660e01b815260040161064e919061194c565b602060405180830381865afa15801561066b573d6000803e3d6000fd5b505050506040513d601f19601f8201168201806040525081019061068f9190611a38565b90505b600073ffffffffffffffffffffffffffffffffffffffff16826020015173ffffffffffffffffffffffffffffffffffffffff161461078f5761071982602001517fffffffffffffffffffffffffffffffffffffffffffffffffffffffffffffffff8773ffffffffffffffffffffffffffffffffffffffff166112759092919063ffffffff16565b816020015173ffffffffffffffffffffffffffffffffffffffff1663fc6a15f982336040518363ffffffff1660e01b8152600401610758929190611ad7565b600060405180830381600087803b15801561077257600080fd5b505af1158015610786573d6000803e3d6000fd5b5050505061093d565b6107fa7f00000000000000000000000000000000000000000000000000000000000000007fffffffffffffffffffffffffffffffffffffffffffffffffffffffffffffffff8773ffffffffffffffffffffffffffffffffffffffff166112759092919063ffffffff16565b60007f000000000000000000000000000000000000000000000000000000000000000073ffffffffffffffffffffffffffffffffffffffff16635668870087846040518363ffffffff1660e01b8152600401610857929190611b00565b6020604051808303816000875af1158015610876573d6000803e3d6000fd5b505050506040513d601f19601f8201168201806040525081019061089a9190611a38565b90507f000000000000000000000000000000000000000000000000000000000000000073ffffffffffffffffffffffffffffffffffffffff1663a9059cbb33836040518363ffffffff1660e01b81526004016108f7929190611b00565b6020604051808303816000875af1158015610916573d6000803e3d6000fd5b505050506040513d601f19601f8201168201806040525081019061093a9190611993565b50505b60019350505050919050565b60008054906101000a900473ffffffffffffffffffffffffffffffffffffffff1681565b610976336113cc565b8173ffffffffffffffffffffffffffffffffffffffff1663ed3b379b826040518263ffffffff1660e01b81526004016109af919061194c565b600060405180830381600087803b1580156109c957600080fd5b505af11580156109dd573d6000803e3d6000fd5b5050505060008273ffffffffffffffffffffffffffffffffffffffff1663c55dae636040518163ffffffff1660e01b8152600401602060405180830381865afa158015610a2e573d6000803e3d6000fd5b505050506040513d601f19601f82011682018060405250810190610a5291906119d5565b90506000600360008373ffffffffffffffffffffffffffffffffffffffff1673ffffffffffffffffffffffffffffffffffffffff1681526020019081526020016000206040518060400160405290816000820160009054906101000a900473ffffffffffffffffffffffffffffffffffffffff1673ffffffffffffffffffffffffffffffffffffffff1673ffffffffffffffffffffffffffffffffffffffff1681526020016001820160009054906101000a900473ffffffffffffffffffffffffffffffffffffffff1673ffffffffffffffffffffffffffffffffffffffff1673ffffffffffffffffffffffffffffffffffffffff168152505090508373ffffffffffffffffffffffffffffffffffffffff16816000015173ffffffffffffffffffffffffffffffffffffffff1603610bc25782816000019073ffffffffffffffffffffffffffffffffffffffff16908173ffffffffffffffffffffffffffffffffffffffff1681525050610c33565b8373ffffffffffffffffffffffffffffffffffffffff16816020015173ffffffffffffffffffffffffffffffffffffffff1603610c325782816020019073ffffffffffffffffffffffffffffffffffffffff16908173ffffffffffffffffffffffffffffffffffffffff16815250505b5b80600360008473ffffffffffffffffffffffffffffffffffffffff1673ffffffffffffffffffffffffffffffffffffffff16815260200190815260200160002060008201518160000160006101000a81548173ffffffffffffffffffffffffffffffffffffffff021916908373ffffffffffffffffffffffffffffffffffffffff16021790555060208201518160010160006101000a81548173ffffffffffffffffffffffffffffffffffffffff021916908373ffffffffffffffffffffffffffffffffffffffff16021790555090505050505050565b600160009054906101000a900473ffffffffffffffffffffffffffffffffffffffff1673ffffffffffffffffffffffffffffffffffffffff163373ffffffffffffffffffffffffffffffffffffffff1614610dc057600160009054906101000a900473ffffffffffffffffffffffffffffffffffffffff16336040517fc21bbf9d000000000000000000000000000000000000000000000000000000008152600401610db7929190611923565b60405180910390fd5b600260009054906101000a900473ffffffffffffffffffffffffffffffffffffffff1673ffffffffffffffffffffffffffffffffffffffff168173ffffffffffffffffffffffffffffffffffffffff1614610e765780600260009054906101000a900473ffffffffffffffffffffffffffffffffffffffff166040517f3f0e2133000000000000000000000000000000000000000000000000000000008152600401610e6d929190611923565b60405180910390fd5b6000600160006101000a81548173ffffffffffffffffffffffffffffffffffffffff021916908373ffffffffffffffffffffffffffffffffffffffff16021790555050565b6000610ec6336113cc565b60405180604001604052808473ffffffffffffffffffffffffffffffffffffffff1681526020018373ffffffffffffffffffffffffffffffffffffffff16815250600360008673ffffffffffffffffffffffffffffffffffffffff1673ffffffffffffffffffffffffffffffffffffffff16815260200190815260200160002060008201518160000160006101000a81548173ffffffffffffffffffffffffffffffffffffffff021916908373ffffffffffffffffffffffffffffffffffffffff16021790555060208201518160010160006101000a81548173ffffffffffffffffffffffffffffffffffffffff021916908373ffffffffffffffffffffffffffffffffffffffff160217905550905050600190509392505050565b60036020528060005260406000206000915090508060000160009054906101000a900473ffffffffffffffffffffffffffffffffffffffff16908060010160009054906101000a900473ffffffffffffffffffffffffffffffffffffffff16905082565b60008073ffffffffffffffffffffffffffffffffffffffff16600160009054906101000a900473ffffffffffffffffffffffffffffffffffffffff1673ffffffffffffffffffffffffffffffffffffffff1614905090565b600260009054906101000a900473ffffffffffffffffffffffffffffffffffffffff1681565b600160009054906101000a900473ffffffffffffffffffffffffffffffffffffffff1681565b600073ffffffffffffffffffffffffffffffffffffffff16600260009054906101000a900473ffffffffffffffffffffffffffffffffffffffff1673ffffffffffffffffffffffffffffffffffffffff16141580156111975750600260009054906101000a900473ffffffffffffffffffffffffffffffffffffffff1673ffffffffffffffffffffffffffffffffffffffff163373ffffffffffffffffffffffffffffffffffffffff1614155b80156111a757506111a6611046565b5b1561120d57600160009054906101000a900473ffffffffffffffffffffffffffffffffffffffff16336040517fc21bbf9d000000000000000000000000000000000000000000000000000000008152600401611204929190611923565b60405180910390fd5b80600260006101000a81548173ffffffffffffffffffffffffffffffffffffffff021916908373ffffffffffffffffffffffffffffffffffffffff1602179055506000806101000a81549073ffffffffffffffffffffffffffffffffffffffff021916905550565b600081118015611300575060008373ffffffffffffffffffffffffffffffffffffffff1663dd62ed3e30856040518363ffffffff1660e01b81526004016112bd929190611923565b602060405180830381865afa1580156112da573d6000803e3d6000fd5b505050506040513d601f19601f820116820180604052508101906112fe9190611a38565b115b15611346578282826040517fc1a76f6c00000000000000000000000000000000000000000000000000000000815260040161133d93929190611b29565b60405180910390fd5b6113c78363095ea7b360e01b8484604051602401611365929190611b00565b604051602081830303815290604052907bffffffffffffffffffffffffffffffffffffffffffffffffffffffff19166020820180517bffffffffffffffffffffffffffffffffffffffffffffffffffffffff83818316178352505050506114c7565b505050565b6113d4611046565b80156114795750600260009054906101000a900473ffffffffffffffffffffffffffffffffffffffff1673ffffffffffffffffffffffffffffffffffffffff1663b7ebc23b826040518263ffffffff1660e01b8152600401611436919061194c565b602060405180830381865afa158015611453573d6000803e3d6000fd5b505050506040513d601f19601f820116820180604052508101906114779190611993565b155b156114c457611486611046565b816040517f64218e390000000000000000000000000000000000000000000000000000000081526004016114bb929190611b60565b60405180910390fd5b50565b6000611529826040518060400160405280602081526020017f5361666545524332303a206c6f772d6c6576656c2063616c6c206661696c65648152508573ffffffffffffffffffffffffffffffffffffffff166115859092919063ffffffff16565b905060008151111561158057808060200190518101906115499190611993565b61157f576040517fa479450200000000000000000000000000000000000000000000000000000000815260040160405180910390fd5b5b505050565b6060611594848460008561159d565b90509392505050565b6060824710156115e65747836040517f02de226f0000000000000000000000000000000000000000000000000000000081526004016115dd929190611b89565b60405180910390fd5b6115ef856116b7565b61163057846040517f8a8b41ec000000000000000000000000000000000000000000000000000000008152600401611627919061194c565b60405180910390fd5b6000808673ffffffffffffffffffffffffffffffffffffffff1685876040516116599190611c2c565b60006040518083038185875af1925050503d8060008114611696576040519150601f19603f3d011682016040523d82523d6000602084013e61169b565b606091505b50915091506116ab8282866116da565b92505050949350505050565b6000808273ffffffffffffffffffffffffffffffffffffffff163b119050919050565b606083156116ea5782905061173a565b6000835111156116fd5782518084602001fd5b816040517f08c379a00000000000000000000000000000000000000000000000000000000081526004016117319190611ca9565b60405180910390fd5b9392505050565b600080fd5b600073ffffffffffffffffffffffffffffffffffffffff82169050919050565b600061177182611746565b9050919050565b61178181611766565b811461178c57600080fd5b50565b60008135905061179e81611778565b92915050565b6000602082840312156117ba576117b9611741565b5b60006117c88482850161178f565b91505092915050565b60008115159050919050565b6117e6816117d1565b82525050565b600060208201905061180160008301846117dd565b92915050565b6000819050919050565b600061182c61182761182284611746565b611807565b611746565b9050919050565b600061183e82611811565b9050919050565b600061185082611833565b9050919050565b61186081611845565b82525050565b600060208201905061187b6000830184611857565b92915050565b6000806040838503121561189857611897611741565b5b60006118a68582860161178f565b92505060206118b78582860161178f565b9150509250929050565b6000806000606084860312156118da576118d9611741565b5b60006118e88682870161178f565b93505060206118f98682870161178f565b925050604061190a8682870161178f565b9150509250925092565b61191d81611766565b82525050565b60006040820190506119386000830185611914565b6119456020830184611914565b9392505050565b60006020820190506119616000830184611914565b92915050565b611970816117d1565b811461197b57600080fd5b50565b60008151905061198d81611967565b92915050565b6000602082840312156119a9576119a8611741565b5b60006119b78482850161197e565b91505092915050565b6000815190506119cf81611778565b92915050565b6000602082840312156119eb576119ea611741565b5b60006119f9848285016119c0565b91505092915050565b6000819050919050565b611a1581611a02565b8114611a2057600080fd5b50565b600081519050611a3281611a0c565b92915050565b600060208284031215611a4e57611a4d611741565b5b6000611a5c84828501611a23565b91505092915050565b7f4e487b7100000000000000000000000000000000000000000000000000000000600052601160045260246000fd5b6000611a9f82611a02565b9150611aaa83611a02565b925082821015611abd57611abc611a65565b5b828203905092915050565b611ad181611a02565b82525050565b6000604082019050611aec6000830185611ac8565b611af96020830184611914565b9392505050565b6000604082019050611b156000830185611914565b611b226020830184611ac8565b9392505050565b6000606082019050611b3e6000830186611914565b611b4b6020830185611914565b611b586040830184611ac8565b949350505050565b6000604082019050611b7560008301856117dd565b611b826020830184611914565b9392505050565b6000604082019050611b9e6000830185611ac8565b611bab6020830184611ac8565b9392505050565b600081519050919050565b600081905092915050565b60005b83811015611be6578082015181840152602081019050611bcb565b83811115611bf5576000848401525b50505050565b6000611c0682611bb2565b611c108185611bbd565b9350611c20818560208601611bc8565b80840191505092915050565b6000611c388284611bfb565b915081905092915050565b600081519050919050565b600082825260208201905092915050565b6000601f19601f8301169050919050565b6000611c7b82611c43565b611c858185611c4e565b9350611c95818560208601611bc8565b611c9e81611c5f565b840191505092915050565b60006020820190508181036000830152611cc38184611c70565b90509291505056fea26469706673582212200057759d889be5f1cdf0dc8b7c8ddeb530ac1f16b24078c0f96069df92b02d8964736f6c634300080d0033",
  "linkReferences": {},
  "deployedLinkReferences": {}
}