{
  "_format": "hh-sol-artifact-1",
  "contractName": "TokenProxyRegistry",
  "sourceName": "contracts/TokenProxyRegistry.sol",
  "abi": [
    {
      "inputs": [
        {
          "internalType": "address",
          "name": "dao",
          "type": "address"
        }
      ],
      "stateMutability": "nonpayable",
      "type": "constructor"
    },
    {
      "inputs": [
        {
          "internalType": "address",
          "name": "configurationLord",
          "type": "address"
        },
        {
          "internalType": "address",
          "name": "msg_sender",
          "type": "address"
        }
      ],
      "name": "AccessDenied",
      "type": "error"
    },
    {
      "inputs": [
        {
          "internalType": "address",
          "name": "expectedDAO",
          "type": "address"
        },
        {
          "internalType": "address",
          "name": "actualDAO",
          "type": "address"
        }
      ],
      "name": "BackrunDetected",
      "type": "error"
    },
    {
      "inputs": [
        {
          "internalType": "bool",
          "name": "configured",
          "type": "bool"
        },
        {
          "internalType": "address",
          "name": "proposal",
          "type": "address"
        }
      ],
      "name": "GovernanceActionFailed",
      "type": "error"
    },
    {
      "inputs": [],
      "name": "DAO",
      "outputs": [
        {
          "internalType": "address",
          "name": "",
          "type": "address"
        }
      ],
      "stateMutability": "view",
      "type": "function"
    },
    {
      "inputs": [],
      "name": "configured",
      "outputs": [
        {
          "internalType": "bool",
          "name": "",
          "type": "bool"
        }
      ],
      "stateMutability": "view",
      "type": "function"
    },
    {
      "inputs": [
        {
          "internalType": "address",
          "name": "expectedDAO",
          "type": "address"
        }
      ],
      "name": "endConfiguration",
      "outputs": [],
      "stateMutability": "nonpayable",
      "type": "function"
    },
    {
      "inputs": [],
      "name": "governer",
      "outputs": [
        {
          "internalType": "contract FlashGovernanceArbiterLike",
          "name": "",
          "type": "address"
        }
      ],
      "stateMutability": "view",
      "type": "function"
    },
    {
      "inputs": [
        {
          "internalType": "address",
          "name": "existingProxy",
          "type": "address"
        },
        {
          "internalType": "address",
          "name": "newProxyToken",
          "type": "address"
        }
      ],
      "name": "migrateProxyTokenToNewProxyWrapper",
      "outputs": [],
      "stateMutability": "nonpayable",
      "type": "function"
    },
    {
      "inputs": [
        {
          "internalType": "address",
          "name": "dao",
          "type": "address"
        }
      ],
      "name": "setDAO",
      "outputs": [],
      "stateMutability": "nonpayable",
      "type": "function"
    },
    {
      "inputs": [
        {
          "internalType": "address",
          "name": "baseToken",
          "type": "address"
        },
        {
          "internalType": "address",
          "name": "proxy",
          "type": "address"
        },
        {
          "internalType": "bool",
          "name": "migrateBase",
          "type": "bool"
        }
      ],
      "name": "setProxy",
      "outputs": [
        {
          "internalType": "bool",
          "name": "ownershipClaimed",
          "type": "bool"
        }
      ],
      "stateMutability": "nonpayable",
      "type": "function"
    },
    {
      "inputs": [],
      "name": "temporaryConfigurationLord",
      "outputs": [
        {
          "internalType": "address",
          "name": "",
          "type": "address"
        }
      ],
      "stateMutability": "view",
      "type": "function"
    },
    {
      "inputs": [
        {
          "internalType": "address",
          "name": "",
          "type": "address"
        }
      ],
      "name": "tokenProxy",
      "outputs": [
        {
          "internalType": "address",
          "name": "baseToken",
          "type": "address"
        },
        {
          "internalType": "bool",
          "name": "migrateBaseToBehodler",
          "type": "bool"
        }
      ],
      "stateMutability": "view",
      "type": "function"
    }
  ],
  "bytecode": "0x60806040523480156200001157600080fd5b506040516200105c3803806200105c8339818101604052810190620000379190620002ec565b8062000049816200009260201b60201c565b33600160006101000a81548173ffffffffffffffffffffffffffffffffffffffff021916908373ffffffffffffffffffffffffffffffffffffffff16021790555050506200035c565b600073ffffffffffffffffffffffffffffffffffffffff16600260009054906101000a900473ffffffffffffffffffffffffffffffffffffffff1673ffffffffffffffffffffffffffffffffffffffff1614158015620001405750600260009054906101000a900473ffffffffffffffffffffffffffffffffffffffff1673ffffffffffffffffffffffffffffffffffffffff163373ffffffffffffffffffffffffffffffffffffffff1614155b8015620001595750620001586200022a60201b60201c565b5b15620001c257600160009054906101000a900473ffffffffffffffffffffffffffffffffffffffff16336040517fc21bbf9d000000000000000000000000000000000000000000000000000000008152600401620001b99291906200032f565b60405180910390fd5b80600260006101000a81548173ffffffffffffffffffffffffffffffffffffffff021916908373ffffffffffffffffffffffffffffffffffffffff1602179055506000806101000a81549073ffffffffffffffffffffffffffffffffffffffff021916905550565b60008073ffffffffffffffffffffffffffffffffffffffff16600160009054906101000a900473ffffffffffffffffffffffffffffffffffffffff1673ffffffffffffffffffffffffffffffffffffffff1614905090565b600080fd5b600073ffffffffffffffffffffffffffffffffffffffff82169050919050565b6000620002b48262000287565b9050919050565b620002c681620002a7565b8114620002d257600080fd5b50565b600081519050620002e681620002bb565b92915050565b60006020828403121562000305576200030462000282565b5b60006200031584828501620002d5565b91505092915050565b6200032981620002a7565b82525050565b60006040820190506200034660008301856200031e565b6200035560208301846200031e565b9392505050565b610cf0806200036c6000396000f3fe608060405234801561001057600080fd5b50600436106100935760003560e01c80637f1c59ae116100665780637f1c59ae1461011e5780638772a23a1461014f57806398fabd3a1461016d578063dd77a4751461018b578063e73a914c146101a957610093565b806307bc0e80146100985780633091dde1146100c85780634e390601146100e65780634eaa7eb214610102575b600080fd5b6100b260048036038101906100ad9190610a6f565b6101c5565b6040516100bf9190610ad1565b60405180910390f35b6100d06102ad565b6040516100dd9190610b4b565b60405180910390f35b61010060048036038101906100fb9190610b66565b6102d1565b005b61011c60048036038101906101179190610ba6565b6104a8565b005b61013860048036038101906101339190610ba6565b610659565b604051610146929190610be2565b60405180910390f35b6101576106aa565b6040516101649190610ad1565b60405180910390f35b610175610702565b6040516101829190610c0b565b60405180910390f35b610193610728565b6040516101a09190610c0b565b60405180910390f35b6101c360048036038101906101be9190610ba6565b61074e565b005b60006101d0336108d9565b60405180604001604052808573ffffffffffffffffffffffffffffffffffffffff168152602001831515815250600360008573ffffffffffffffffffffffffffffffffffffffff1673ffffffffffffffffffffffffffffffffffffffff16815260200190815260200160002060008201518160000160006101000a81548173ffffffffffffffffffffffffffffffffffffffff021916908373ffffffffffffffffffffffffffffffffffffffff16021790555060208201518160000160146101000a81548160ff0219169083151502179055509050509392505050565b60008054906101000a900473ffffffffffffffffffffffffffffffffffffffff1681565b6102da336108d9565b8173ffffffffffffffffffffffffffffffffffffffff1663ed3b379b826040518263ffffffff1660e01b81526004016103139190610c0b565b600060405180830381600087803b15801561032d57600080fd5b505af1158015610341573d6000803e3d6000fd5b505050506000600360008473ffffffffffffffffffffffffffffffffffffffff1673ffffffffffffffffffffffffffffffffffffffff168152602001908152602001600020905080600360008473ffffffffffffffffffffffffffffffffffffffff1673ffffffffffffffffffffffffffffffffffffffff1681526020019081526020016000206000820160009054906101000a900473ffffffffffffffffffffffffffffffffffffffff168160000160006101000a81548173ffffffffffffffffffffffffffffffffffffffff021916908373ffffffffffffffffffffffffffffffffffffffff1602179055506000820160149054906101000a900460ff168160000160146101000a81548160ff02191690831515021790555090505060008160000160006101000a81548173ffffffffffffffffffffffffffffffffffffffff021916908373ffffffffffffffffffffffffffffffffffffffff160217905550505050565b600160009054906101000a900473ffffffffffffffffffffffffffffffffffffffff1673ffffffffffffffffffffffffffffffffffffffff163373ffffffffffffffffffffffffffffffffffffffff161461055e57600160009054906101000a900473ffffffffffffffffffffffffffffffffffffffff16336040517fc21bbf9d000000000000000000000000000000000000000000000000000000008152600401610555929190610c26565b60405180910390fd5b600260009054906101000a900473ffffffffffffffffffffffffffffffffffffffff1673ffffffffffffffffffffffffffffffffffffffff168173ffffffffffffffffffffffffffffffffffffffff16146106145780600260009054906101000a900473ffffffffffffffffffffffffffffffffffffffff166040517f3f0e213300000000000000000000000000000000000000000000000000000000815260040161060b929190610c26565b60405180910390fd5b6000600160006101000a81548173ffffffffffffffffffffffffffffffffffffffff021916908373ffffffffffffffffffffffffffffffffffffffff16021790555050565b60036020528060005260406000206000915090508060000160009054906101000a900473ffffffffffffffffffffffffffffffffffffffff16908060000160149054906101000a900460ff16905082565b60008073ffffffffffffffffffffffffffffffffffffffff16600160009054906101000a900473ffffffffffffffffffffffffffffffffffffffff1673ffffffffffffffffffffffffffffffffffffffff1614905090565b600260009054906101000a900473ffffffffffffffffffffffffffffffffffffffff1681565b600160009054906101000a900473ffffffffffffffffffffffffffffffffffffffff1681565b600073ffffffffffffffffffffffffffffffffffffffff16600260009054906101000a900473ffffffffffffffffffffffffffffffffffffffff1673ffffffffffffffffffffffffffffffffffffffff16141580156107fb5750600260009054906101000a900473ffffffffffffffffffffffffffffffffffffffff1673ffffffffffffffffffffffffffffffffffffffff163373ffffffffffffffffffffffffffffffffffffffff1614155b801561080b575061080a6106aa565b5b1561087157600160009054906101000a900473ffffffffffffffffffffffffffffffffffffffff16336040517fc21bbf9d000000000000000000000000000000000000000000000000000000008152600401610868929190610c26565b60405180910390fd5b80600260006101000a81548173ffffffffffffffffffffffffffffffffffffffff021916908373ffffffffffffffffffffffffffffffffffffffff1602179055506000806101000a81549073ffffffffffffffffffffffffffffffffffffffff021916905550565b6108e16106aa565b80156109865750600260009054906101000a900473ffffffffffffffffffffffffffffffffffffffff1673ffffffffffffffffffffffffffffffffffffffff1663b7ebc23b826040518263ffffffff1660e01b81526004016109439190610c0b565b602060405180830381865afa158015610960573d6000803e3d6000fd5b505050506040513d601f19601f820116820180604052508101906109849190610c64565b155b156109d1576109936106aa565b816040517f64218e390000000000000000000000000000000000000000000000000000000081526004016109c8929190610c91565b60405180910390fd5b50565b600080fd5b600073ffffffffffffffffffffffffffffffffffffffff82169050919050565b6000610a04826109d9565b9050919050565b610a14816109f9565b8114610a1f57600080fd5b50565b600081359050610a3181610a0b565b92915050565b60008115159050919050565b610a4c81610a37565b8114610a5757600080fd5b50565b600081359050610a6981610a43565b92915050565b600080600060608486031215610a8857610a876109d4565b5b6000610a9686828701610a22565b9350506020610aa786828701610a22565b9250506040610ab886828701610a5a565b9150509250925092565b610acb81610a37565b82525050565b6000602082019050610ae66000830184610ac2565b92915050565b6000819050919050565b6000610b11610b0c610b07846109d9565b610aec565b6109d9565b9050919050565b6000610b2382610af6565b9050919050565b6000610b3582610b18565b9050919050565b610b4581610b2a565b82525050565b6000602082019050610b606000830184610b3c565b92915050565b60008060408385031215610b7d57610b7c6109d4565b5b6000610b8b85828601610a22565b9250506020610b9c85828601610a22565b9150509250929050565b600060208284031215610bbc57610bbb6109d4565b5b6000610bca84828501610a22565b91505092915050565b610bdc816109f9565b82525050565b6000604082019050610bf76000830185610bd3565b610c046020830184610ac2565b9392505050565b6000602082019050610c206000830184610bd3565b92915050565b6000604082019050610c3b6000830185610bd3565b610c486020830184610bd3565b9392505050565b600081519050610c5e81610a43565b92915050565b600060208284031215610c7a57610c796109d4565b5b6000610c8884828501610c4f565b91505092915050565b6000604082019050610ca66000830185610ac2565b610cb36020830184610bd3565b939250505056fea2646970667358221220bd6efdafbd1566780d69637948d16e467493fa44cda3fe41b76f0c5f29da030b64736f6c634300080d0033",
  "linkReferences": {},
  "deployedLinkReferences": {}
}