{
  "_format": "hh-sol-artifact-1",
  "contractName": "TokenProxyRegistry",
  "sourceName": "contracts/TokenProxyRegistry.sol",
  "abi": [
    {
      "inputs": [
        {
          "internalType": "address",
          "name": "dao",
          "type": "address"
        },
        {
          "internalType": "address",
          "name": "_behodler",
          "type": "address"
        }
      ],
      "stateMutability": "nonpayable",
      "type": "constructor"
    },
    {
      "inputs": [
        {
          "internalType": "address",
          "name": "configurationLord",
          "type": "address"
        },
        {
          "internalType": "address",
          "name": "msg_sender",
          "type": "address"
        }
      ],
      "name": "AccessDenied",
      "type": "error"
    },
    {
      "inputs": [
        {
          "internalType": "address",
          "name": "token",
          "type": "address"
        },
        {
          "internalType": "address",
          "name": "spender",
          "type": "address"
        },
        {
          "internalType": "uint256",
          "name": "amount",
          "type": "uint256"
        }
      ],
      "name": "ApproveToNonZero",
      "type": "error"
    },
    {
      "inputs": [
        {
          "internalType": "address",
          "name": "expectedDAO",
          "type": "address"
        },
        {
          "internalType": "address",
          "name": "actualDAO",
          "type": "address"
        }
      ],
      "name": "BackrunDetected",
      "type": "error"
    },
    {
      "inputs": [
        {
          "internalType": "bool",
          "name": "configured",
          "type": "bool"
        },
        {
          "internalType": "address",
          "name": "proposal",
          "type": "address"
        }
      ],
      "name": "GovernanceActionFailed",
      "type": "error"
    },
    {
      "inputs": [
        {
          "internalType": "uint256",
          "name": "balance",
          "type": "uint256"
        },
        {
          "internalType": "uint256",
          "name": "value",
          "type": "uint256"
        }
      ],
      "name": "InsufficinetFunds",
      "type": "error"
    },
    {
      "inputs": [
        {
          "internalType": "address",
          "name": "EOA",
          "type": "address"
        }
      ],
      "name": "NotAContract",
      "type": "error"
    },
    {
      "inputs": [
        {
          "internalType": "address",
          "name": "sender",
          "type": "address"
        },
        {
          "internalType": "address",
          "name": "power",
          "type": "address"
        }
      ],
      "name": "NotMorgothPower",
      "type": "error"
    },
    {
      "inputs": [],
      "name": "OperationFailure",
      "type": "error"
    },
    {
      "inputs": [],
      "name": "DAO",
      "outputs": [
        {
          "internalType": "address",
          "name": "",
          "type": "address"
        }
      ],
      "stateMutability": "view",
      "type": "function"
    },
    {
      "inputs": [
        {
          "internalType": "address",
          "name": "token",
          "type": "address"
        }
      ],
      "name": "TransferFromLimboTokenToBehodlerToken",
      "outputs": [
        {
          "internalType": "bool",
          "name": "",
          "type": "bool"
        }
      ],
      "stateMutability": "nonpayable",
      "type": "function"
    },
    {
      "inputs": [],
      "name": "configured",
      "outputs": [
        {
          "internalType": "bool",
          "name": "",
          "type": "bool"
        }
      ],
      "stateMutability": "view",
      "type": "function"
    },
    {
      "inputs": [
        {
          "internalType": "address",
          "name": "expectedDAO",
          "type": "address"
        }
      ],
      "name": "endConfiguration",
      "outputs": [],
      "stateMutability": "nonpayable",
      "type": "function"
    },
    {
      "inputs": [],
      "name": "governer",
      "outputs": [
        {
          "internalType": "contract FlashGovernanceArbiterLike",
          "name": "",
          "type": "address"
        }
      ],
      "stateMutability": "view",
      "type": "function"
    },
    {
      "inputs": [
        {
          "internalType": "address",
          "name": "existingProxy",
          "type": "address"
        },
        {
          "internalType": "address",
          "name": "newProxyToken",
          "type": "address"
        }
      ],
      "name": "migrateProxyTokenToNewProxyWrapper",
      "outputs": [],
      "stateMutability": "nonpayable",
      "type": "function"
    },
    {
      "inputs": [
        {
          "internalType": "address",
          "name": "dao",
          "type": "address"
        }
      ],
      "name": "setDAO",
      "outputs": [],
      "stateMutability": "nonpayable",
      "type": "function"
    },
    {
      "inputs": [
        {
          "internalType": "address",
          "name": "_power",
          "type": "address"
        }
      ],
      "name": "setPower",
      "outputs": [],
      "stateMutability": "nonpayable",
      "type": "function"
    },
    {
      "inputs": [
        {
          "internalType": "address",
          "name": "baseToken",
          "type": "address"
        },
        {
          "internalType": "address",
          "name": "limboProxy",
          "type": "address"
        },
        {
          "internalType": "address",
          "name": "behodlerProxy",
          "type": "address"
        }
      ],
      "name": "setProxy",
      "outputs": [
        {
          "internalType": "bool",
          "name": "ownershipClaimed",
          "type": "bool"
        }
      ],
      "stateMutability": "nonpayable",
      "type": "function"
    },
    {
      "inputs": [],
      "name": "temporaryConfigurationLord",
      "outputs": [
        {
          "internalType": "address",
          "name": "",
          "type": "address"
        }
      ],
      "stateMutability": "view",
      "type": "function"
    },
    {
      "inputs": [
        {
          "internalType": "address",
          "name": "",
          "type": "address"
        }
      ],
      "name": "tokenProxy",
      "outputs": [
        {
          "internalType": "address",
          "name": "limboProxy",
          "type": "address"
        },
        {
          "internalType": "address",
          "name": "behodlerProxy",
          "type": "address"
        }
      ],
      "stateMutability": "view",
      "type": "function"
    }
  ],
  "bytecode": "0x60a06040523480156200001157600080fd5b506040516200216b3803806200216b833981810160405281019062000037919062000321565b816200004981620000c760201b60201c565b33600160006101000a81548173ffffffffffffffffffffffffffffffffffffffff021916908373ffffffffffffffffffffffffffffffffffffffff160217905550508073ffffffffffffffffffffffffffffffffffffffff1660808173ffffffffffffffffffffffffffffffffffffffff16815250505050620003a6565b600073ffffffffffffffffffffffffffffffffffffffff16600260009054906101000a900473ffffffffffffffffffffffffffffffffffffffff1673ffffffffffffffffffffffffffffffffffffffff1614158015620001755750600260009054906101000a900473ffffffffffffffffffffffffffffffffffffffff1673ffffffffffffffffffffffffffffffffffffffff163373ffffffffffffffffffffffffffffffffffffffff1614155b80156200018e57506200018d6200025f60201b60201c565b5b15620001f757600160009054906101000a900473ffffffffffffffffffffffffffffffffffffffff16336040517fc21bbf9d000000000000000000000000000000000000000000000000000000008152600401620001ee92919062000379565b60405180910390fd5b80600260006101000a81548173ffffffffffffffffffffffffffffffffffffffff021916908373ffffffffffffffffffffffffffffffffffffffff1602179055506000806101000a81549073ffffffffffffffffffffffffffffffffffffffff021916905550565b60008073ffffffffffffffffffffffffffffffffffffffff16600160009054906101000a900473ffffffffffffffffffffffffffffffffffffffff1673ffffffffffffffffffffffffffffffffffffffff1614905090565b600080fd5b600073ffffffffffffffffffffffffffffffffffffffff82169050919050565b6000620002e982620002bc565b9050919050565b620002fb81620002dc565b81146200030757600080fd5b50565b6000815190506200031b81620002f0565b92915050565b600080604083850312156200033b576200033a620002b7565b5b60006200034b858286016200030a565b92505060206200035e858286016200030a565b9150509250929050565b6200037381620002dc565b82525050565b600060408201905062000390600083018562000368565b6200039f602083018462000368565b9392505050565b608051611d9b620003d0600039600081816107e10152818161084b01526108eb0152611d9b6000f3fe608060405234801561001057600080fd5b50600436106100a95760003560e01c80636a379145116100715780636a379145146101505780637f1c59ae146101805780638772a23a146101b157806398fabd3a146101cf578063dd77a475146101ed578063e73a914c1461020b576100a9565b8063196c7157146100ae5780633091dde1146100de57806333ad49f5146100fc5780634e390601146101185780634eaa7eb214610134575b600080fd5b6100c860048036038101906100c3919061183e565b610227565b6040516100d59190611886565b60405180910390f35b6100e6610996565b6040516100f39190611900565b60405180910390f35b6101166004803603810190610111919061183e565b6109ba565b005b610132600480360381019061012d919061191b565b610a07565b005b61014e6004803603810190610149919061183e565b610da4565b005b61016a6004803603810190610165919061195b565b610f55565b6040516101779190611886565b60405180910390f35b61019a6004803603810190610195919061183e565b61107c565b6040516101a89291906119bd565b60405180910390f35b6101b96110e0565b6040516101c69190611886565b60405180910390f35b6101d7611138565b6040516101e491906119e6565b60405180910390f35b6101f561115e565b60405161020291906119e6565b60405180910390f35b6102256004803603810190610220919061183e565b611184565b005b6000600360009054906101000a900473ffffffffffffffffffffffffffffffffffffffff1673ffffffffffffffffffffffffffffffffffffffff163373ffffffffffffffffffffffffffffffffffffffff16146102df5733600360009054906101000a900473ffffffffffffffffffffffffffffffffffffffff166040517f4f78c9a30000000000000000000000000000000000000000000000000000000081526004016102d69291906119bd565b60405180910390fd5b60008290508273ffffffffffffffffffffffffffffffffffffffff1663fbed2d726040518163ffffffff1660e01b8152600401602060405180830381865afa92505050801561034c57506040513d601f19601f820116820180604052508101906103499190611a2d565b60015b156103c4578373ffffffffffffffffffffffffffffffffffffffff1663c55dae636040518163ffffffff1660e01b8152600401602060405180830381865afa15801561039c573d6000803e3d6000fd5b505050506040513d601f19601f820116820180604052508101906103c09190611a6f565b9150505b6000600460008373ffffffffffffffffffffffffffffffffffffffff1673ffffffffffffffffffffffffffffffffffffffff1681526020019081526020016000206040518060400160405290816000820160009054906101000a900473ffffffffffffffffffffffffffffffffffffffff1673ffffffffffffffffffffffffffffffffffffffff1673ffffffffffffffffffffffffffffffffffffffff1681526020016001820160009054906101000a900473ffffffffffffffffffffffffffffffffffffffff1673ffffffffffffffffffffffffffffffffffffffff1673ffffffffffffffffffffffffffffffffffffffff1681525050905060008073ffffffffffffffffffffffffffffffffffffffff16826000015173ffffffffffffffffffffffffffffffffffffffff16146106625760008373ffffffffffffffffffffffffffffffffffffffff166370a08231306040518263ffffffff1660e01b815260040161053291906119e6565b602060405180830381865afa15801561054f573d6000803e3d6000fd5b505050506040513d601f19601f820116820180604052508101906105739190611ad2565b90508573ffffffffffffffffffffffffffffffffffffffff1663ace1fab16040518163ffffffff1660e01b8152600401600060405180830381600087803b1580156105bd57600080fd5b505af11580156105d1573d6000803e3d6000fd5b50505050808473ffffffffffffffffffffffffffffffffffffffff166370a08231306040518263ffffffff1660e01b815260040161060f91906119e6565b602060405180830381865afa15801561062c573d6000803e3d6000fd5b505050506040513d601f19601f820116820180604052508101906106509190611ad2565b61065a9190611b2e565b9150506106df565b8473ffffffffffffffffffffffffffffffffffffffff166370a08231306040518263ffffffff1660e01b815260040161069b91906119e6565b602060405180830381865afa1580156106b8573d6000803e3d6000fd5b505050506040513d601f19601f820116820180604052508101906106dc9190611ad2565b90505b600073ffffffffffffffffffffffffffffffffffffffff16826020015173ffffffffffffffffffffffffffffffffffffffff16146107dc5761076682602001517fffffffffffffffffffffffffffffffffffffffffffffffffffffffffffffffff8573ffffffffffffffffffffffffffffffffffffffff1661130f9092919063ffffffff16565b816020015173ffffffffffffffffffffffffffffffffffffffff1663fc6a15f982336040518363ffffffff1660e01b81526004016107a5929190611b71565b600060405180830381600087803b1580156107bf57600080fd5b505af11580156107d3573d6000803e3d6000fd5b5050505061098a565b6108477f00000000000000000000000000000000000000000000000000000000000000007fffffffffffffffffffffffffffffffffffffffffffffffffffffffffffffffff8573ffffffffffffffffffffffffffffffffffffffff1661130f9092919063ffffffff16565b60007f000000000000000000000000000000000000000000000000000000000000000073ffffffffffffffffffffffffffffffffffffffff16635668870085846040518363ffffffff1660e01b81526004016108a4929190611b9a565b6020604051808303816000875af11580156108c3573d6000803e3d6000fd5b505050506040513d601f19601f820116820180604052508101906108e79190611ad2565b90507f000000000000000000000000000000000000000000000000000000000000000073ffffffffffffffffffffffffffffffffffffffff1663a9059cbb33836040518363ffffffff1660e01b8152600401610944929190611b9a565b6020604051808303816000875af1158015610963573d6000803e3d6000fd5b505050506040513d601f19601f820116820180604052508101906109879190611a2d565b50505b60019350505050919050565b60008054906101000a900473ffffffffffffffffffffffffffffffffffffffff1681565b6109c333611466565b80600360006101000a81548173ffffffffffffffffffffffffffffffffffffffff021916908373ffffffffffffffffffffffffffffffffffffffff16021790555050565b610a1033611466565b8173ffffffffffffffffffffffffffffffffffffffff1663ed3b379b826040518263ffffffff1660e01b8152600401610a4991906119e6565b600060405180830381600087803b158015610a6357600080fd5b505af1158015610a77573d6000803e3d6000fd5b5050505060008273ffffffffffffffffffffffffffffffffffffffff1663c55dae636040518163ffffffff1660e01b8152600401602060405180830381865afa158015610ac8573d6000803e3d6000fd5b505050506040513d601f19601f82011682018060405250810190610aec9190611a6f565b90506000600460008373ffffffffffffffffffffffffffffffffffffffff1673ffffffffffffffffffffffffffffffffffffffff1681526020019081526020016000206040518060400160405290816000820160009054906101000a900473ffffffffffffffffffffffffffffffffffffffff1673ffffffffffffffffffffffffffffffffffffffff1673ffffffffffffffffffffffffffffffffffffffff1681526020016001820160009054906101000a900473ffffffffffffffffffffffffffffffffffffffff1673ffffffffffffffffffffffffffffffffffffffff1673ffffffffffffffffffffffffffffffffffffffff168152505090508373ffffffffffffffffffffffffffffffffffffffff16816000015173ffffffffffffffffffffffffffffffffffffffff1603610c5c5782816000019073ffffffffffffffffffffffffffffffffffffffff16908173ffffffffffffffffffffffffffffffffffffffff1681525050610ccd565b8373ffffffffffffffffffffffffffffffffffffffff16816020015173ffffffffffffffffffffffffffffffffffffffff1603610ccc5782816020019073ffffffffffffffffffffffffffffffffffffffff16908173ffffffffffffffffffffffffffffffffffffffff16815250505b5b80600460008473ffffffffffffffffffffffffffffffffffffffff1673ffffffffffffffffffffffffffffffffffffffff16815260200190815260200160002060008201518160000160006101000a81548173ffffffffffffffffffffffffffffffffffffffff021916908373ffffffffffffffffffffffffffffffffffffffff16021790555060208201518160010160006101000a81548173ffffffffffffffffffffffffffffffffffffffff021916908373ffffffffffffffffffffffffffffffffffffffff16021790555090505050505050565b600160009054906101000a900473ffffffffffffffffffffffffffffffffffffffff1673ffffffffffffffffffffffffffffffffffffffff163373ffffffffffffffffffffffffffffffffffffffff1614610e5a57600160009054906101000a900473ffffffffffffffffffffffffffffffffffffffff16336040517fc21bbf9d000000000000000000000000000000000000000000000000000000008152600401610e519291906119bd565b60405180910390fd5b600260009054906101000a900473ffffffffffffffffffffffffffffffffffffffff1673ffffffffffffffffffffffffffffffffffffffff168173ffffffffffffffffffffffffffffffffffffffff1614610f105780600260009054906101000a900473ffffffffffffffffffffffffffffffffffffffff166040517f3f0e2133000000000000000000000000000000000000000000000000000000008152600401610f079291906119bd565b60405180910390fd5b6000600160006101000a81548173ffffffffffffffffffffffffffffffffffffffff021916908373ffffffffffffffffffffffffffffffffffffffff16021790555050565b6000610f6033611466565b60405180604001604052808473ffffffffffffffffffffffffffffffffffffffff1681526020018373ffffffffffffffffffffffffffffffffffffffff16815250600460008673ffffffffffffffffffffffffffffffffffffffff1673ffffffffffffffffffffffffffffffffffffffff16815260200190815260200160002060008201518160000160006101000a81548173ffffffffffffffffffffffffffffffffffffffff021916908373ffffffffffffffffffffffffffffffffffffffff16021790555060208201518160010160006101000a81548173ffffffffffffffffffffffffffffffffffffffff021916908373ffffffffffffffffffffffffffffffffffffffff160217905550905050600190509392505050565b60046020528060005260406000206000915090508060000160009054906101000a900473ffffffffffffffffffffffffffffffffffffffff16908060010160009054906101000a900473ffffffffffffffffffffffffffffffffffffffff16905082565b60008073ffffffffffffffffffffffffffffffffffffffff16600160009054906101000a900473ffffffffffffffffffffffffffffffffffffffff1673ffffffffffffffffffffffffffffffffffffffff1614905090565b600260009054906101000a900473ffffffffffffffffffffffffffffffffffffffff1681565b600160009054906101000a900473ffffffffffffffffffffffffffffffffffffffff1681565b600073ffffffffffffffffffffffffffffffffffffffff16600260009054906101000a900473ffffffffffffffffffffffffffffffffffffffff1673ffffffffffffffffffffffffffffffffffffffff16141580156112315750600260009054906101000a900473ffffffffffffffffffffffffffffffffffffffff1673ffffffffffffffffffffffffffffffffffffffff163373ffffffffffffffffffffffffffffffffffffffff1614155b801561124157506112406110e0565b5b156112a757600160009054906101000a900473ffffffffffffffffffffffffffffffffffffffff16336040517fc21bbf9d00000000000000000000000000000000000000000000000000000000815260040161129e9291906119bd565b60405180910390fd5b80600260006101000a81548173ffffffffffffffffffffffffffffffffffffffff021916908373ffffffffffffffffffffffffffffffffffffffff1602179055506000806101000a81549073ffffffffffffffffffffffffffffffffffffffff021916905550565b60008111801561139a575060008373ffffffffffffffffffffffffffffffffffffffff1663dd62ed3e30856040518363ffffffff1660e01b81526004016113579291906119bd565b602060405180830381865afa158015611374573d6000803e3d6000fd5b505050506040513d601f19601f820116820180604052508101906113989190611ad2565b115b156113e0578282826040517fc1a76f6c0000000000000000000000000000000000000000000000000000000081526004016113d793929190611bc3565b60405180910390fd5b6114618363095ea7b360e01b84846040516024016113ff929190611b9a565b604051602081830303815290604052907bffffffffffffffffffffffffffffffffffffffffffffffffffffffff19166020820180517bffffffffffffffffffffffffffffffffffffffffffffffffffffffff8381831617835250505050611561565b505050565b61146e6110e0565b80156115135750600260009054906101000a900473ffffffffffffffffffffffffffffffffffffffff1673ffffffffffffffffffffffffffffffffffffffff1663b7ebc23b826040518263ffffffff1660e01b81526004016114d091906119e6565b602060405180830381865afa1580156114ed573d6000803e3d6000fd5b505050506040513d601f19601f820116820180604052508101906115119190611a2d565b155b1561155e576115206110e0565b816040517f64218e39000000000000000000000000000000000000000000000000000000008152600401611555929190611bfa565b60405180910390fd5b50565b60006115c3826040518060400160405280602081526020017f5361666545524332303a206c6f772d6c6576656c2063616c6c206661696c65648152508573ffffffffffffffffffffffffffffffffffffffff1661161f9092919063ffffffff16565b905060008151111561161a57808060200190518101906115e39190611a2d565b611619576040517fa479450200000000000000000000000000000000000000000000000000000000815260040160405180910390fd5b5b505050565b606061162e8484600085611637565b90509392505050565b6060824710156116805747836040517f02de226f000000000000000000000000000000000000000000000000000000008152600401611677929190611c23565b60405180910390fd5b61168985611751565b6116ca57846040517f8a8b41ec0000000000000000000000000000000000000000000000000000000081526004016116c191906119e6565b60405180910390fd5b6000808673ffffffffffffffffffffffffffffffffffffffff1685876040516116f39190611cc6565b60006040518083038185875af1925050503d8060008114611730576040519150601f19603f3d011682016040523d82523d6000602084013e611735565b606091505b5091509150611745828286611774565b92505050949350505050565b6000808273ffffffffffffffffffffffffffffffffffffffff163b119050919050565b60608315611784578290506117d4565b6000835111156117975782518084602001fd5b816040517f08c379a00000000000000000000000000000000000000000000000000000000081526004016117cb9190611d43565b60405180910390fd5b9392505050565b600080fd5b600073ffffffffffffffffffffffffffffffffffffffff82169050919050565b600061180b826117e0565b9050919050565b61181b81611800565b811461182657600080fd5b50565b60008135905061183881611812565b92915050565b600060208284031215611854576118536117db565b5b600061186284828501611829565b91505092915050565b60008115159050919050565b6118808161186b565b82525050565b600060208201905061189b6000830184611877565b92915050565b6000819050919050565b60006118c66118c16118bc846117e0565b6118a1565b6117e0565b9050919050565b60006118d8826118ab565b9050919050565b60006118ea826118cd565b9050919050565b6118fa816118df565b82525050565b600060208201905061191560008301846118f1565b92915050565b60008060408385031215611932576119316117db565b5b600061194085828601611829565b925050602061195185828601611829565b9150509250929050565b600080600060608486031215611974576119736117db565b5b600061198286828701611829565b935050602061199386828701611829565b92505060406119a486828701611829565b9150509250925092565b6119b781611800565b82525050565b60006040820190506119d260008301856119ae565b6119df60208301846119ae565b9392505050565b60006020820190506119fb60008301846119ae565b92915050565b611a0a8161186b565b8114611a1557600080fd5b50565b600081519050611a2781611a01565b92915050565b600060208284031215611a4357611a426117db565b5b6000611a5184828501611a18565b91505092915050565b600081519050611a6981611812565b92915050565b600060208284031215611a8557611a846117db565b5b6000611a9384828501611a5a565b91505092915050565b6000819050919050565b611aaf81611a9c565b8114611aba57600080fd5b50565b600081519050611acc81611aa6565b92915050565b600060208284031215611ae857611ae76117db565b5b6000611af684828501611abd565b91505092915050565b7f4e487b7100000000000000000000000000000000000000000000000000000000600052601160045260246000fd5b6000611b3982611a9c565b9150611b4483611a9c565b925082821015611b5757611b56611aff565b5b828203905092915050565b611b6b81611a9c565b82525050565b6000604082019050611b866000830185611b62565b611b9360208301846119ae565b9392505050565b6000604082019050611baf60008301856119ae565b611bbc6020830184611b62565b9392505050565b6000606082019050611bd860008301866119ae565b611be560208301856119ae565b611bf26040830184611b62565b949350505050565b6000604082019050611c0f6000830185611877565b611c1c60208301846119ae565b9392505050565b6000604082019050611c386000830185611b62565b611c456020830184611b62565b9392505050565b600081519050919050565b600081905092915050565b60005b83811015611c80578082015181840152602081019050611c65565b83811115611c8f576000848401525b50505050565b6000611ca082611c4c565b611caa8185611c57565b9350611cba818560208601611c62565b80840191505092915050565b6000611cd28284611c95565b915081905092915050565b600081519050919050565b600082825260208201905092915050565b6000601f19601f8301169050919050565b6000611d1582611cdd565b611d1f8185611ce8565b9350611d2f818560208601611c62565b611d3881611cf9565b840191505092915050565b60006020820190508181036000830152611d5d8184611d0a565b90509291505056fea2646970667358221220ac4c09581c1170fd0dbae2c7a39d9e3ce92ff624336e773961ee515324c09f4664736f6c634300080d0033",
  "linkReferences": {},
  "deployedLinkReferences": {}
}