{
  "_format": "hh-sol-artifact-1",
  "contractName": "TokenProxyRegistry",
  "sourceName": "contracts/TokenProxyRegistry.sol",
  "abi": [
    {
      "inputs": [
        {
          "internalType": "address",
          "name": "dao",
          "type": "address"
        },
        {
          "internalType": "address",
          "name": "_behodler",
          "type": "address"
        }
      ],
      "stateMutability": "nonpayable",
      "type": "constructor"
    },
    {
      "inputs": [
        {
          "internalType": "address",
          "name": "configurationLord",
          "type": "address"
        },
        {
          "internalType": "address",
          "name": "msg_sender",
          "type": "address"
        }
      ],
      "name": "AccessDenied",
      "type": "error"
    },
    {
      "inputs": [
        {
          "internalType": "address",
          "name": "token",
          "type": "address"
        },
        {
          "internalType": "address",
          "name": "spender",
          "type": "address"
        },
        {
          "internalType": "uint256",
          "name": "amount",
          "type": "uint256"
        }
      ],
      "name": "ApproveToNonZero",
      "type": "error"
    },
    {
      "inputs": [
        {
          "internalType": "address",
          "name": "expectedDAO",
          "type": "address"
        },
        {
          "internalType": "address",
          "name": "actualDAO",
          "type": "address"
        }
      ],
      "name": "BackrunDetected",
      "type": "error"
    },
    {
      "inputs": [
        {
          "internalType": "bool",
          "name": "configured",
          "type": "bool"
        },
        {
          "internalType": "address",
          "name": "proposal",
          "type": "address"
        }
      ],
      "name": "GovernanceActionFailed",
      "type": "error"
    },
    {
      "inputs": [
        {
          "internalType": "uint256",
          "name": "balance",
          "type": "uint256"
        },
        {
          "internalType": "uint256",
          "name": "value",
          "type": "uint256"
        }
      ],
      "name": "InsufficinetFunds",
      "type": "error"
    },
    {
      "inputs": [
        {
          "internalType": "address",
          "name": "EOA",
          "type": "address"
        }
      ],
      "name": "NotAContract",
      "type": "error"
    },
    {
      "inputs": [
        {
          "internalType": "address",
          "name": "sender",
          "type": "address"
        },
        {
          "internalType": "address",
          "name": "power",
          "type": "address"
        }
      ],
      "name": "NotMorgothPower",
      "type": "error"
    },
    {
      "inputs": [],
      "name": "OperationFailure",
      "type": "error"
    },
    {
      "inputs": [],
      "name": "DAO",
      "outputs": [
        {
          "internalType": "address",
          "name": "",
          "type": "address"
        }
      ],
      "stateMutability": "view",
      "type": "function"
    },
    {
      "inputs": [
        {
          "internalType": "address",
          "name": "token",
          "type": "address"
        }
      ],
      "name": "TransferFromLimboTokenToBehodlerToken",
      "outputs": [
        {
          "internalType": "bool",
          "name": "",
          "type": "bool"
        }
      ],
      "stateMutability": "nonpayable",
      "type": "function"
    },
    {
      "inputs": [],
      "name": "configured",
      "outputs": [
        {
          "internalType": "bool",
          "name": "",
          "type": "bool"
        }
      ],
      "stateMutability": "view",
      "type": "function"
    },
    {
      "inputs": [
        {
          "internalType": "address",
          "name": "expectedDAO",
          "type": "address"
        }
      ],
      "name": "endConfiguration",
      "outputs": [],
      "stateMutability": "nonpayable",
      "type": "function"
    },
    {
      "inputs": [],
      "name": "governer",
      "outputs": [
        {
          "internalType": "contract FlashGovernanceArbiterLike",
          "name": "",
          "type": "address"
        }
      ],
      "stateMutability": "view",
      "type": "function"
    },
    {
      "inputs": [
        {
          "internalType": "address",
          "name": "existingProxy",
          "type": "address"
        },
        {
          "internalType": "address",
          "name": "newProxyToken",
          "type": "address"
        }
      ],
      "name": "migrateProxyTokenToNewProxyWrapper",
      "outputs": [],
      "stateMutability": "nonpayable",
      "type": "function"
    },
    {
      "inputs": [
        {
          "internalType": "address",
          "name": "dao",
          "type": "address"
        }
      ],
      "name": "setDAO",
      "outputs": [],
      "stateMutability": "nonpayable",
      "type": "function"
    },
    {
      "inputs": [
        {
          "internalType": "address",
          "name": "_power",
          "type": "address"
        }
      ],
      "name": "setPower",
      "outputs": [],
      "stateMutability": "nonpayable",
      "type": "function"
    },
    {
      "inputs": [
        {
          "internalType": "address",
          "name": "baseToken",
          "type": "address"
        },
        {
          "internalType": "address",
          "name": "limboProxy",
          "type": "address"
        },
        {
          "internalType": "address",
          "name": "behodlerProxy",
          "type": "address"
        }
      ],
      "name": "setProxy",
      "outputs": [
        {
          "internalType": "bool",
          "name": "ownershipClaimed",
          "type": "bool"
        }
      ],
      "stateMutability": "nonpayable",
      "type": "function"
    },
    {
      "inputs": [],
      "name": "temporaryConfigurationLord",
      "outputs": [
        {
          "internalType": "address",
          "name": "",
          "type": "address"
        }
      ],
      "stateMutability": "view",
      "type": "function"
    },
    {
      "inputs": [
        {
          "internalType": "address",
          "name": "",
          "type": "address"
        }
      ],
      "name": "tokenProxy",
      "outputs": [
        {
          "internalType": "address",
          "name": "limboProxy",
          "type": "address"
        },
        {
          "internalType": "address",
          "name": "behodlerProxy",
          "type": "address"
        }
      ],
      "stateMutability": "view",
      "type": "function"
    }
  ],
  "bytecode": "0x60a06040523480156200001157600080fd5b506040516200207d3803806200207d833981810160405281019062000037919062000321565b816200004981620000c760201b60201c565b33600160006101000a81548173ffffffffffffffffffffffffffffffffffffffff021916908373ffffffffffffffffffffffffffffffffffffffff160217905550508073ffffffffffffffffffffffffffffffffffffffff1660808173ffffffffffffffffffffffffffffffffffffffff16815250505050620003a6565b600073ffffffffffffffffffffffffffffffffffffffff16600260009054906101000a900473ffffffffffffffffffffffffffffffffffffffff1673ffffffffffffffffffffffffffffffffffffffff1614158015620001755750600260009054906101000a900473ffffffffffffffffffffffffffffffffffffffff1673ffffffffffffffffffffffffffffffffffffffff163373ffffffffffffffffffffffffffffffffffffffff1614155b80156200018e57506200018d6200025f60201b60201c565b5b15620001f757600160009054906101000a900473ffffffffffffffffffffffffffffffffffffffff16336040517fc21bbf9d000000000000000000000000000000000000000000000000000000008152600401620001ee92919062000379565b60405180910390fd5b80600260006101000a81548173ffffffffffffffffffffffffffffffffffffffff021916908373ffffffffffffffffffffffffffffffffffffffff1602179055506000806101000a81549073ffffffffffffffffffffffffffffffffffffffff021916905550565b60008073ffffffffffffffffffffffffffffffffffffffff16600160009054906101000a900473ffffffffffffffffffffffffffffffffffffffff1673ffffffffffffffffffffffffffffffffffffffff1614905090565b600080fd5b600073ffffffffffffffffffffffffffffffffffffffff82169050919050565b6000620002e982620002bc565b9050919050565b620002fb81620002dc565b81146200030757600080fd5b50565b6000815190506200031b81620002f0565b92915050565b600080604083850312156200033b576200033a620002b7565b5b60006200034b858286016200030a565b92505060206200035e858286016200030a565b9150509250929050565b6200037381620002dc565b82525050565b600060408201905062000390600083018562000368565b6200039f602083018462000368565b9392505050565b608051611cad620003d06000396000818161071c0152818161078601526108260152611cad6000f3fe608060405234801561001057600080fd5b50600436106100a95760003560e01c80636a379145116100715780636a379145146101505780637f1c59ae146101805780638772a23a146101b157806398fabd3a146101cf578063dd77a475146101ed578063e73a914c1461020b576100a9565b8063196c7157146100ae5780633091dde1146100de57806333ad49f5146100fc5780634e390601146101185780634eaa7eb214610134575b600080fd5b6100c860048036038101906100c39190611779565b610227565b6040516100d591906117c1565b60405180910390f35b6100e66108d1565b6040516100f3919061183b565b60405180910390f35b61011660048036038101906101119190611779565b6108f5565b005b610132600480360381019061012d9190611856565b610942565b005b61014e60048036038101906101499190611779565b610cdf565b005b61016a60048036038101906101659190611896565b610e90565b60405161017791906117c1565b60405180910390f35b61019a60048036038101906101959190611779565b610fb7565b6040516101a89291906118f8565b60405180910390f35b6101b961101b565b6040516101c691906117c1565b60405180910390f35b6101d7611073565b6040516101e49190611921565b60405180910390f35b6101f5611099565b6040516102029190611921565b60405180910390f35b61022560048036038101906102209190611779565b6110bf565b005b6000600360009054906101000a900473ffffffffffffffffffffffffffffffffffffffff1673ffffffffffffffffffffffffffffffffffffffff163373ffffffffffffffffffffffffffffffffffffffff16146102df5733600360009054906101000a900473ffffffffffffffffffffffffffffffffffffffff166040517f4f78c9a30000000000000000000000000000000000000000000000000000000081526004016102d69291906118f8565b60405180910390fd5b60008290508273ffffffffffffffffffffffffffffffffffffffff1663fbed2d726040518163ffffffff1660e01b8152600401602060405180830381865afa92505050801561034c57506040513d601f19601f820116820180604052508101906103499190611968565b60015b156103c4578373ffffffffffffffffffffffffffffffffffffffff1663c55dae636040518163ffffffff1660e01b8152600401602060405180830381865afa15801561039c573d6000803e3d6000fd5b505050506040513d601f19601f820116820180604052508101906103c091906119aa565b9150505b6000600460008373ffffffffffffffffffffffffffffffffffffffff1673ffffffffffffffffffffffffffffffffffffffff1681526020019081526020016000206040518060400160405290816000820160009054906101000a900473ffffffffffffffffffffffffffffffffffffffff1673ffffffffffffffffffffffffffffffffffffffff1673ffffffffffffffffffffffffffffffffffffffff1681526020016001820160009054906101000a900473ffffffffffffffffffffffffffffffffffffffff1673ffffffffffffffffffffffffffffffffffffffff1673ffffffffffffffffffffffffffffffffffffffff1681525050905060008073ffffffffffffffffffffffffffffffffffffffff16826000015173ffffffffffffffffffffffffffffffffffffffff16146106625760008373ffffffffffffffffffffffffffffffffffffffff166370a08231306040518263ffffffff1660e01b81526004016105329190611921565b602060405180830381865afa15801561054f573d6000803e3d6000fd5b505050506040513d601f19601f820116820180604052508101906105739190611a0d565b90508573ffffffffffffffffffffffffffffffffffffffff1663ace1fab16040518163ffffffff1660e01b8152600401600060405180830381600087803b1580156105bd57600080fd5b505af11580156105d1573d6000803e3d6000fd5b50505050808473ffffffffffffffffffffffffffffffffffffffff166370a08231306040518263ffffffff1660e01b815260040161060f9190611921565b602060405180830381865afa15801561062c573d6000803e3d6000fd5b505050506040513d601f19601f820116820180604052508101906106509190611a0d565b61065a9190611a69565b9150506106df565b8473ffffffffffffffffffffffffffffffffffffffff166370a08231306040518263ffffffff1660e01b815260040161069b9190611921565b602060405180830381865afa1580156106b8573d6000803e3d6000fd5b505050506040513d601f19601f820116820180604052508101906106dc9190611a0d565b90505b600073ffffffffffffffffffffffffffffffffffffffff16826020015173ffffffffffffffffffffffffffffffffffffffff16036108c5576107827f00000000000000000000000000000000000000000000000000000000000000007fffffffffffffffffffffffffffffffffffffffffffffffffffffffffffffffff8773ffffffffffffffffffffffffffffffffffffffff1661124a9092919063ffffffff16565b60007f000000000000000000000000000000000000000000000000000000000000000073ffffffffffffffffffffffffffffffffffffffff16635668870087846040518363ffffffff1660e01b81526004016107df929190611aac565b6020604051808303816000875af11580156107fe573d6000803e3d6000fd5b505050506040513d601f19601f820116820180604052508101906108229190611a0d565b90507f000000000000000000000000000000000000000000000000000000000000000073ffffffffffffffffffffffffffffffffffffffff1663a9059cbb33836040518363ffffffff1660e01b815260040161087f929190611aac565b6020604051808303816000875af115801561089e573d6000803e3d6000fd5b505050506040513d601f19601f820116820180604052508101906108c29190611968565b50505b60019350505050919050565b60008054906101000a900473ffffffffffffffffffffffffffffffffffffffff1681565b6108fe336113a1565b80600360006101000a81548173ffffffffffffffffffffffffffffffffffffffff021916908373ffffffffffffffffffffffffffffffffffffffff16021790555050565b61094b336113a1565b8173ffffffffffffffffffffffffffffffffffffffff1663ed3b379b826040518263ffffffff1660e01b81526004016109849190611921565b600060405180830381600087803b15801561099e57600080fd5b505af11580156109b2573d6000803e3d6000fd5b5050505060008273ffffffffffffffffffffffffffffffffffffffff1663c55dae636040518163ffffffff1660e01b8152600401602060405180830381865afa158015610a03573d6000803e3d6000fd5b505050506040513d601f19601f82011682018060405250810190610a2791906119aa565b90506000600460008373ffffffffffffffffffffffffffffffffffffffff1673ffffffffffffffffffffffffffffffffffffffff1681526020019081526020016000206040518060400160405290816000820160009054906101000a900473ffffffffffffffffffffffffffffffffffffffff1673ffffffffffffffffffffffffffffffffffffffff1673ffffffffffffffffffffffffffffffffffffffff1681526020016001820160009054906101000a900473ffffffffffffffffffffffffffffffffffffffff1673ffffffffffffffffffffffffffffffffffffffff1673ffffffffffffffffffffffffffffffffffffffff168152505090508373ffffffffffffffffffffffffffffffffffffffff16816000015173ffffffffffffffffffffffffffffffffffffffff1603610b975782816000019073ffffffffffffffffffffffffffffffffffffffff16908173ffffffffffffffffffffffffffffffffffffffff1681525050610c08565b8373ffffffffffffffffffffffffffffffffffffffff16816020015173ffffffffffffffffffffffffffffffffffffffff1603610c075782816020019073ffffffffffffffffffffffffffffffffffffffff16908173ffffffffffffffffffffffffffffffffffffffff16815250505b5b80600460008473ffffffffffffffffffffffffffffffffffffffff1673ffffffffffffffffffffffffffffffffffffffff16815260200190815260200160002060008201518160000160006101000a81548173ffffffffffffffffffffffffffffffffffffffff021916908373ffffffffffffffffffffffffffffffffffffffff16021790555060208201518160010160006101000a81548173ffffffffffffffffffffffffffffffffffffffff021916908373ffffffffffffffffffffffffffffffffffffffff16021790555090505050505050565b600160009054906101000a900473ffffffffffffffffffffffffffffffffffffffff1673ffffffffffffffffffffffffffffffffffffffff163373ffffffffffffffffffffffffffffffffffffffff1614610d9557600160009054906101000a900473ffffffffffffffffffffffffffffffffffffffff16336040517fc21bbf9d000000000000000000000000000000000000000000000000000000008152600401610d8c9291906118f8565b60405180910390fd5b600260009054906101000a900473ffffffffffffffffffffffffffffffffffffffff1673ffffffffffffffffffffffffffffffffffffffff168173ffffffffffffffffffffffffffffffffffffffff1614610e4b5780600260009054906101000a900473ffffffffffffffffffffffffffffffffffffffff166040517f3f0e2133000000000000000000000000000000000000000000000000000000008152600401610e429291906118f8565b60405180910390fd5b6000600160006101000a81548173ffffffffffffffffffffffffffffffffffffffff021916908373ffffffffffffffffffffffffffffffffffffffff16021790555050565b6000610e9b336113a1565b60405180604001604052808473ffffffffffffffffffffffffffffffffffffffff1681526020018373ffffffffffffffffffffffffffffffffffffffff16815250600460008673ffffffffffffffffffffffffffffffffffffffff1673ffffffffffffffffffffffffffffffffffffffff16815260200190815260200160002060008201518160000160006101000a81548173ffffffffffffffffffffffffffffffffffffffff021916908373ffffffffffffffffffffffffffffffffffffffff16021790555060208201518160010160006101000a81548173ffffffffffffffffffffffffffffffffffffffff021916908373ffffffffffffffffffffffffffffffffffffffff160217905550905050600190509392505050565b60046020528060005260406000206000915090508060000160009054906101000a900473ffffffffffffffffffffffffffffffffffffffff16908060010160009054906101000a900473ffffffffffffffffffffffffffffffffffffffff16905082565b60008073ffffffffffffffffffffffffffffffffffffffff16600160009054906101000a900473ffffffffffffffffffffffffffffffffffffffff1673ffffffffffffffffffffffffffffffffffffffff1614905090565b600260009054906101000a900473ffffffffffffffffffffffffffffffffffffffff1681565b600160009054906101000a900473ffffffffffffffffffffffffffffffffffffffff1681565b600073ffffffffffffffffffffffffffffffffffffffff16600260009054906101000a900473ffffffffffffffffffffffffffffffffffffffff1673ffffffffffffffffffffffffffffffffffffffff161415801561116c5750600260009054906101000a900473ffffffffffffffffffffffffffffffffffffffff1673ffffffffffffffffffffffffffffffffffffffff163373ffffffffffffffffffffffffffffffffffffffff1614155b801561117c575061117b61101b565b5b156111e257600160009054906101000a900473ffffffffffffffffffffffffffffffffffffffff16336040517fc21bbf9d0000000000000000000000000000000000000000000000000000000081526004016111d99291906118f8565b60405180910390fd5b80600260006101000a81548173ffffffffffffffffffffffffffffffffffffffff021916908373ffffffffffffffffffffffffffffffffffffffff1602179055506000806101000a81549073ffffffffffffffffffffffffffffffffffffffff021916905550565b6000811180156112d5575060008373ffffffffffffffffffffffffffffffffffffffff1663dd62ed3e30856040518363ffffffff1660e01b81526004016112929291906118f8565b602060405180830381865afa1580156112af573d6000803e3d6000fd5b505050506040513d601f19601f820116820180604052508101906112d39190611a0d565b115b1561131b578282826040517fc1a76f6c00000000000000000000000000000000000000000000000000000000815260040161131293929190611ad5565b60405180910390fd5b61139c8363095ea7b360e01b848460405160240161133a929190611aac565b604051602081830303815290604052907bffffffffffffffffffffffffffffffffffffffffffffffffffffffff19166020820180517bffffffffffffffffffffffffffffffffffffffffffffffffffffffff838183161783525050505061149c565b505050565b6113a961101b565b801561144e5750600260009054906101000a900473ffffffffffffffffffffffffffffffffffffffff1673ffffffffffffffffffffffffffffffffffffffff1663b7ebc23b826040518263ffffffff1660e01b815260040161140b9190611921565b602060405180830381865afa158015611428573d6000803e3d6000fd5b505050506040513d601f19601f8201168201806040525081019061144c9190611968565b155b156114995761145b61101b565b816040517f64218e39000000000000000000000000000000000000000000000000000000008152600401611490929190611b0c565b60405180910390fd5b50565b60006114fe826040518060400160405280602081526020017f5361666545524332303a206c6f772d6c6576656c2063616c6c206661696c65648152508573ffffffffffffffffffffffffffffffffffffffff1661155a9092919063ffffffff16565b9050600081511115611555578080602001905181019061151e9190611968565b611554576040517fa479450200000000000000000000000000000000000000000000000000000000815260040160405180910390fd5b5b505050565b60606115698484600085611572565b90509392505050565b6060824710156115bb5747836040517f02de226f0000000000000000000000000000000000000000000000000000000081526004016115b2929190611b35565b60405180910390fd5b6115c48561168c565b61160557846040517f8a8b41ec0000000000000000000000000000000000000000000000000000000081526004016115fc9190611921565b60405180910390fd5b6000808673ffffffffffffffffffffffffffffffffffffffff16858760405161162e9190611bd8565b60006040518083038185875af1925050503d806000811461166b576040519150601f19603f3d011682016040523d82523d6000602084013e611670565b606091505b50915091506116808282866116af565b92505050949350505050565b6000808273ffffffffffffffffffffffffffffffffffffffff163b119050919050565b606083156116bf5782905061170f565b6000835111156116d25782518084602001fd5b816040517f08c379a00000000000000000000000000000000000000000000000000000000081526004016117069190611c55565b60405180910390fd5b9392505050565b600080fd5b600073ffffffffffffffffffffffffffffffffffffffff82169050919050565b60006117468261171b565b9050919050565b6117568161173b565b811461176157600080fd5b50565b6000813590506117738161174d565b92915050565b60006020828403121561178f5761178e611716565b5b600061179d84828501611764565b91505092915050565b60008115159050919050565b6117bb816117a6565b82525050565b60006020820190506117d660008301846117b2565b92915050565b6000819050919050565b60006118016117fc6117f78461171b565b6117dc565b61171b565b9050919050565b6000611813826117e6565b9050919050565b600061182582611808565b9050919050565b6118358161181a565b82525050565b6000602082019050611850600083018461182c565b92915050565b6000806040838503121561186d5761186c611716565b5b600061187b85828601611764565b925050602061188c85828601611764565b9150509250929050565b6000806000606084860312156118af576118ae611716565b5b60006118bd86828701611764565b93505060206118ce86828701611764565b92505060406118df86828701611764565b9150509250925092565b6118f28161173b565b82525050565b600060408201905061190d60008301856118e9565b61191a60208301846118e9565b9392505050565b600060208201905061193660008301846118e9565b92915050565b611945816117a6565b811461195057600080fd5b50565b6000815190506119628161193c565b92915050565b60006020828403121561197e5761197d611716565b5b600061198c84828501611953565b91505092915050565b6000815190506119a48161174d565b92915050565b6000602082840312156119c0576119bf611716565b5b60006119ce84828501611995565b91505092915050565b6000819050919050565b6119ea816119d7565b81146119f557600080fd5b50565b600081519050611a07816119e1565b92915050565b600060208284031215611a2357611a22611716565b5b6000611a31848285016119f8565b91505092915050565b7f4e487b7100000000000000000000000000000000000000000000000000000000600052601160045260246000fd5b6000611a74826119d7565b9150611a7f836119d7565b925082821015611a9257611a91611a3a565b5b828203905092915050565b611aa6816119d7565b82525050565b6000604082019050611ac160008301856118e9565b611ace6020830184611a9d565b9392505050565b6000606082019050611aea60008301866118e9565b611af760208301856118e9565b611b046040830184611a9d565b949350505050565b6000604082019050611b2160008301856117b2565b611b2e60208301846118e9565b9392505050565b6000604082019050611b4a6000830185611a9d565b611b576020830184611a9d565b9392505050565b600081519050919050565b600081905092915050565b60005b83811015611b92578082015181840152602081019050611b77565b83811115611ba1576000848401525b50505050565b6000611bb282611b5e565b611bbc8185611b69565b9350611bcc818560208601611b74565b80840191505092915050565b6000611be48284611ba7565b915081905092915050565b600081519050919050565b600082825260208201905092915050565b6000601f19601f8301169050919050565b6000611c2782611bef565b611c318185611bfa565b9350611c41818560208601611b74565b611c4a81611c0b565b840191505092915050565b60006020820190508181036000830152611c6f8184611c1c565b90509291505056fea2646970667358221220db9f51b8bffa71c17aaea6e07310e7c0c14359f957f705808612c06e67d99b4064736f6c634300080d0033",
  "linkReferences": {},
  "deployedLinkReferences": {}
}