{
  "_format": "hh-sol-artifact-1",
  "contractName": "LimboOracle",
  "sourceName": "contracts/periphery/LimboOracle.sol",
  "abi": [
    {
      "inputs": [
        {
          "internalType": "address",
          "name": "V2factory",
          "type": "address"
        },
        {
          "internalType": "address",
          "name": "limboDAO",
          "type": "address"
        }
      ],
      "stateMutability": "nonpayable",
      "type": "constructor"
    },
    {
      "inputs": [
        {
          "internalType": "address",
          "name": "configurationLord",
          "type": "address"
        },
        {
          "internalType": "address",
          "name": "msg_sender",
          "type": "address"
        }
      ],
      "name": "AccessDenied",
      "type": "error"
    },
    {
      "inputs": [
        {
          "internalType": "address",
          "name": "pair",
          "type": "address"
        }
      ],
      "name": "AssetNotRegistered",
      "type": "error"
    },
    {
      "inputs": [
        {
          "internalType": "address",
          "name": "expectedDAO",
          "type": "address"
        },
        {
          "internalType": "address",
          "name": "actualDAO",
          "type": "address"
        }
      ],
      "name": "BackrunDetected",
      "type": "error"
    },
    {
      "inputs": [
        {
          "internalType": "bool",
          "name": "configured",
          "type": "bool"
        },
        {
          "internalType": "address",
          "name": "proposal",
          "type": "address"
        }
      ],
      "name": "GovernanceActionFailed",
      "type": "error"
    },
    {
      "inputs": [
        {
          "internalType": "address",
          "name": "token0",
          "type": "address"
        },
        {
          "internalType": "address",
          "name": "token1",
          "type": "address"
        }
      ],
      "name": "InvalidPair",
      "type": "error"
    },
    {
      "inputs": [
        {
          "internalType": "address",
          "name": "pair",
          "type": "address"
        },
        {
          "internalType": "address",
          "name": "token",
          "type": "address"
        }
      ],
      "name": "InvalidToken",
      "type": "error"
    },
    {
      "inputs": [
        {
          "internalType": "address",
          "name": "pair",
          "type": "address"
        },
        {
          "internalType": "uint256",
          "name": "reserve1",
          "type": "uint256"
        },
        {
          "internalType": "uint256",
          "name": "reserve2",
          "type": "uint256"
        }
      ],
      "name": "ReservesEmpty",
      "type": "error"
    },
    {
      "inputs": [
        {
          "internalType": "address",
          "name": "tokenIn",
          "type": "address"
        },
        {
          "internalType": "address",
          "name": "tokenOut",
          "type": "address"
        },
        {
          "internalType": "uint256",
          "name": "amountIn",
          "type": "uint256"
        }
      ],
      "name": "UpdateOracle",
      "type": "error"
    },
    {
      "inputs": [
        {
          "internalType": "uint256",
          "name": "timeElapsed",
          "type": "uint256"
        },
        {
          "internalType": "uint256",
          "name": "period",
          "type": "uint256"
        }
      ],
      "name": "WaitPeriodTooSmall",
      "type": "error"
    },
    {
      "inputs": [],
      "name": "DAO",
      "outputs": [
        {
          "internalType": "address",
          "name": "",
          "type": "address"
        }
      ],
      "stateMutability": "view",
      "type": "function"
    },
    {
      "inputs": [
        {
          "internalType": "address",
          "name": "pairAddress",
          "type": "address"
        },
        {
          "internalType": "uint256",
          "name": "period",
          "type": "uint256"
        }
      ],
      "name": "RegisterPair",
      "outputs": [],
      "stateMutability": "nonpayable",
      "type": "function"
    },
    {
      "inputs": [],
      "name": "configured",
      "outputs": [
        {
          "internalType": "bool",
          "name": "",
          "type": "bool"
        }
      ],
      "stateMutability": "view",
      "type": "function"
    },
    {
      "inputs": [
        {
          "internalType": "address",
          "name": "tokenIn",
          "type": "address"
        },
        {
          "internalType": "address",
          "name": "tokenOut",
          "type": "address"
        },
        {
          "internalType": "uint256",
          "name": "amountIn",
          "type": "uint256"
        }
      ],
      "name": "consult",
      "outputs": [
        {
          "internalType": "uint256",
          "name": "amountOut",
          "type": "uint256"
        }
      ],
      "stateMutability": "view",
      "type": "function"
    },
    {
      "inputs": [
        {
          "internalType": "address",
          "name": "expectedDAO",
          "type": "address"
        }
      ],
      "name": "endConfiguration",
      "outputs": [],
      "stateMutability": "nonpayable",
      "type": "function"
    },
    {
      "inputs": [],
      "name": "factory",
      "outputs": [
        {
          "internalType": "contract IUniswapV2Factory",
          "name": "",
          "type": "address"
        }
      ],
      "stateMutability": "view",
      "type": "function"
    },
    {
      "inputs": [
        {
          "internalType": "address",
          "name": "token0",
          "type": "address"
        },
        {
          "internalType": "address",
          "name": "token1",
          "type": "address"
        }
      ],
      "name": "getLastUpdate",
      "outputs": [
        {
          "internalType": "uint32",
          "name": "",
          "type": "uint32"
        },
        {
          "internalType": "uint256",
          "name": "",
          "type": "uint256"
        }
      ],
      "stateMutability": "view",
      "type": "function"
    },
    {
      "inputs": [],
      "name": "governer",
      "outputs": [
        {
          "internalType": "contract FlashGovernanceArbiterLike",
          "name": "",
          "type": "address"
        }
      ],
      "stateMutability": "view",
      "type": "function"
    },
    {
      "inputs": [
        {
          "internalType": "address",
          "name": "",
          "type": "address"
        }
      ],
      "name": "pairMeasurements",
      "outputs": [
        {
          "internalType": "uint256",
          "name": "price0CumulativeLast",
          "type": "uint256"
        },
        {
          "internalType": "uint256",
          "name": "price1CumulativeLast",
          "type": "uint256"
        },
        {
          "internalType": "uint32",
          "name": "blockTimestampLast",
          "type": "uint32"
        },
        {
          "components": [
            {
              "internalType": "uint224",
              "name": "_x",
              "type": "uint224"
            }
          ],
          "internalType": "struct FixedPoint.uq112x112",
          "name": "price0Average",
          "type": "tuple"
        },
        {
          "components": [
            {
              "internalType": "uint224",
              "name": "_x",
              "type": "uint224"
            }
          ],
          "internalType": "struct FixedPoint.uq112x112",
          "name": "price1Average",
          "type": "tuple"
        },
        {
          "internalType": "uint256",
          "name": "period",
          "type": "uint256"
        }
      ],
      "stateMutability": "view",
      "type": "function"
    },
    {
      "inputs": [
        {
          "internalType": "address",
          "name": "dao",
          "type": "address"
        }
      ],
      "name": "setDAO",
      "outputs": [],
      "stateMutability": "nonpayable",
      "type": "function"
    },
    {
      "inputs": [],
      "name": "temporaryConfigurationLord",
      "outputs": [
        {
          "internalType": "address",
          "name": "",
          "type": "address"
        }
      ],
      "stateMutability": "view",
      "type": "function"
    },
    {
      "inputs": [
        {
          "internalType": "address",
          "name": "token0",
          "type": "address"
        },
        {
          "internalType": "address",
          "name": "token1",
          "type": "address"
        }
      ],
      "name": "update",
      "outputs": [],
      "stateMutability": "nonpayable",
      "type": "function"
    },
    {
      "inputs": [
        {
          "internalType": "address",
          "name": "pair",
          "type": "address"
        }
      ],
      "name": "updatePair",
      "outputs": [],
      "stateMutability": "nonpayable",
      "type": "function"
    }
  ],
  "bytecode": "0x60806040523480156200001157600080fd5b506040516200302a3803806200302a833981810160405281019062000037919062000277565b8033600160006101000a81548173ffffffffffffffffffffffffffffffffffffffff021916908373ffffffffffffffffffffffffffffffffffffffff1602179055506200008a81620000d460201b60201c565b5081600360006101000a81548173ffffffffffffffffffffffffffffffffffffffff021916908373ffffffffffffffffffffffffffffffffffffffff1602179055505050620002fc565b620000e4620001b560201b60201c565b156200014d57600160009054906101000a900473ffffffffffffffffffffffffffffffffffffffff16336040517fc21bbf9d00000000000000000000000000000000000000000000000000000000815260040162000144929190620002cf565b60405180910390fd5b80600260006101000a81548173ffffffffffffffffffffffffffffffffffffffff021916908373ffffffffffffffffffffffffffffffffffffffff1602179055506000806101000a81549073ffffffffffffffffffffffffffffffffffffffff021916905550565b60008073ffffffffffffffffffffffffffffffffffffffff16600160009054906101000a900473ffffffffffffffffffffffffffffffffffffffff1673ffffffffffffffffffffffffffffffffffffffff1614905090565b600080fd5b600073ffffffffffffffffffffffffffffffffffffffff82169050919050565b60006200023f8262000212565b9050919050565b620002518162000232565b81146200025d57600080fd5b50565b600081519050620002718162000246565b92915050565b600080604083850312156200029157620002906200020d565b5b6000620002a18582860162000260565b9250506020620002b48582860162000260565b9150509250929050565b620002c98162000232565b82525050565b6000604082019050620002e66000830185620002be565b620002f56020830184620002be565b9392505050565b612d1e806200030c6000396000f3fe608060405234801561001057600080fd5b50600436106100cf5760003560e01c806398fabd3a1161008c578063c45a015511610066578063c45a015514610218578063c640752d14610236578063dd77a47514610252578063e73a914c14610270576100cf565b806398fabd3a146101ad578063a4e27f54146101cb578063a655090a146101fc576100cf565b80631b56bbf9146100d45780633091dde1146100f057806332ee089f1461010e5780634eaa7eb214610143578063636cfa0c1461015f5780638772a23a1461018f575b600080fd5b6100ee60048036038101906100e991906122ca565b61028c565b005b6100f8610298565b6040516101059190612356565b60405180910390f35b610128600480360381019061012391906122ca565b6102bc565b60405161013a969594939291906123fc565b60405180910390f35b61015d600480360381019061015891906122ca565b6103f8565b005b61017960048036038101906101749190612489565b6105a9565b60405161018691906124dc565b60405180910390f35b610197610a77565b6040516101a49190612512565b60405180910390f35b6101b5610acf565b6040516101c2919061253c565b60405180910390f35b6101e560048036038101906101e09190612557565b610af5565b6040516101f3929190612597565b60405180910390f35b610216600480360381019061021191906125c0565b610d47565b005b61022061111f565b60405161022d9190612621565b60405180910390f35b610250600480360381019061024b9190612557565b611145565b005b61025a611246565b604051610267919061253c565b60405180910390f35b61028a600480360381019061028591906122ca565b61126c565b005b61029581611342565b50565b60008054906101000a900473ffffffffffffffffffffffffffffffffffffffff1681565b60046020528060005260406000206000915090508060000154908060010154908060020160009054906101000a900463ffffffff1690806003016040518060200160405290816000820160009054906101000a90047bffffffffffffffffffffffffffffffffffffffffffffffffffffffff167bffffffffffffffffffffffffffffffffffffffffffffffffffffffff167bffffffffffffffffffffffffffffffffffffffffffffffffffffffff168152505090806004016040518060200160405290816000820160009054906101000a90047bffffffffffffffffffffffffffffffffffffffffffffffffffffffff167bffffffffffffffffffffffffffffffffffffffffffffffffffffffff167bffffffffffffffffffffffffffffffffffffffffffffffffffffffff1681525050908060050154905086565b600160009054906101000a900473ffffffffffffffffffffffffffffffffffffffff1673ffffffffffffffffffffffffffffffffffffffff163373ffffffffffffffffffffffffffffffffffffffff16146104ae57600160009054906101000a900473ffffffffffffffffffffffffffffffffffffffff16336040517fc21bbf9d0000000000000000000000000000000000000000000000000000000081526004016104a592919061263c565b60405180910390fd5b600260009054906101000a900473ffffffffffffffffffffffffffffffffffffffff1673ffffffffffffffffffffffffffffffffffffffff168173ffffffffffffffffffffffffffffffffffffffff16146105645780600260009054906101000a900473ffffffffffffffffffffffffffffffffffffffff166040517f3f0e213300000000000000000000000000000000000000000000000000000000815260040161055b92919061263c565b60405180910390fd5b6000600160006101000a81548173ffffffffffffffffffffffffffffffffffffffff021916908373ffffffffffffffffffffffffffffffffffffffff16021790555050565b600083836105b782826117bf565b6105fa5781816040517fd9a764d90000000000000000000000000000000000000000000000000000000081526004016105f192919061263c565b60405180910390fd5b6000600360009054906101000a900473ffffffffffffffffffffffffffffffffffffffff1673ffffffffffffffffffffffffffffffffffffffff1663e6a4390588886040518363ffffffff1660e01b815260040161065992919061263c565b602060405180830381865afa158015610676573d6000803e3d6000fd5b505050506040513d601f19601f8201168201806040525081019061069a919061267a565b90506000600460008373ffffffffffffffffffffffffffffffffffffffff1673ffffffffffffffffffffffffffffffffffffffff1681526020019081526020016000206040518060c001604052908160008201548152602001600182015481526020016002820160009054906101000a900463ffffffff1663ffffffff1663ffffffff168152602001600382016040518060200160405290816000820160009054906101000a90047bffffffffffffffffffffffffffffffffffffffffffffffffffffffff167bffffffffffffffffffffffffffffffffffffffffffffffffffffffff167bffffffffffffffffffffffffffffffffffffffffffffffffffffffff16815250508152602001600482016040518060200160405290816000820160009054906101000a90047bffffffffffffffffffffffffffffffffffffffffffffffffffffffff167bffffffffffffffffffffffffffffffffffffffffffffffffffffffff167bffffffffffffffffffffffffffffffffffffffffffffffffffffffff1681525050815260200160058201548152505090508173ffffffffffffffffffffffffffffffffffffffff16630dfe16816040518163ffffffff1660e01b8152600401602060405180830381865afa15801561087d573d6000803e3d6000fd5b505050506040513d601f19601f820116820180604052508101906108a1919061267a565b73ffffffffffffffffffffffffffffffffffffffff168873ffffffffffffffffffffffffffffffffffffffff160361090d576108f26108ed87836060015161189690919063ffffffff16565b611961565b71ffffffffffffffffffffffffffffffffffff169450610a23565b8173ffffffffffffffffffffffffffffffffffffffff1663d21220a76040518163ffffffff1660e01b8152600401602060405180830381865afa158015610958573d6000803e3d6000fd5b505050506040513d601f19601f8201168201806040525081019061097c919061267a565b73ffffffffffffffffffffffffffffffffffffffff168873ffffffffffffffffffffffffffffffffffffffff16146109ed5781886040517f0fc746a10000000000000000000000000000000000000000000000000000000081526004016109e492919061263c565b60405180910390fd5b610a0c610a0787836080015161189690919063ffffffff16565b611961565b71ffffffffffffffffffffffffffffffffffff1694505b60008503610a6c578787876040517fc88686cf000000000000000000000000000000000000000000000000000000008152600401610a63939291906126a7565b60405180910390fd5b505050509392505050565b60008073ffffffffffffffffffffffffffffffffffffffff16600160009054906101000a900473ffffffffffffffffffffffffffffffffffffffff1673ffffffffffffffffffffffffffffffffffffffff1614905090565b600260009054906101000a900473ffffffffffffffffffffffffffffffffffffffff1681565b6000806000600360009054906101000a900473ffffffffffffffffffffffffffffffffffffffff1673ffffffffffffffffffffffffffffffffffffffff1663e6a4390586866040518363ffffffff1660e01b8152600401610b5792919061263c565b602060405180830381865afa158015610b74573d6000803e3d6000fd5b505050506040513d601f19601f82011682018060405250810190610b98919061267a565b90506000600460008373ffffffffffffffffffffffffffffffffffffffff1673ffffffffffffffffffffffffffffffffffffffff1681526020019081526020016000206040518060c001604052908160008201548152602001600182015481526020016002820160009054906101000a900463ffffffff1663ffffffff1663ffffffff168152602001600382016040518060200160405290816000820160009054906101000a90047bffffffffffffffffffffffffffffffffffffffffffffffffffffffff167bffffffffffffffffffffffffffffffffffffffffffffffffffffffff167bffffffffffffffffffffffffffffffffffffffffffffffffffffffff16815250508152602001600482016040518060200160405290816000820160009054906101000a90047bffffffffffffffffffffffffffffffffffffffffffffffffffffffff167bffffffffffffffffffffffffffffffffffffffffffffffffffffffff167bffffffffffffffffffffffffffffffffffffffffffffffffffffffff16815250508152602001600582015481525050905080604001518160a001519350935050509250929050565b610d5033611976565b600082905060008173ffffffffffffffffffffffffffffffffffffffff16635909c0d56040518163ffffffff1660e01b8152600401602060405180830381865afa158015610da2573d6000803e3d6000fd5b505050506040513d601f19601f82011682018060405250810190610dc691906126f3565b905060008273ffffffffffffffffffffffffffffffffffffffff16635a3d54936040518163ffffffff1660e01b8152600401602060405180830381865afa158015610e15573d6000803e3d6000fd5b505050506040513d601f19601f82011682018060405250810190610e3991906126f3565b905060008060008573ffffffffffffffffffffffffffffffffffffffff16630902f1ac6040518163ffffffff1660e01b8152600401606060405180830381865afa158015610e8b573d6000803e3d6000fd5b505050506040513d601f19601f82011682018060405250810190610eaf9190612792565b8093508194508295505050506000836dffffffffffffffffffffffffffff161480610eea57506000826dffffffffffffffffffffffffffff16145b15610f30578783836040517f325a40b7000000000000000000000000000000000000000000000000000000008152600401610f2793929190612816565b60405180910390fd5b6040518060c001604052808681526020018581526020018263ffffffff168152602001604051806020016040528060007bffffffffffffffffffffffffffffffffffffffffffffffffffffffff168152508152602001604051806020016040528060007bffffffffffffffffffffffffffffffffffffffffffffffffffffffff168152508152602001610e1089610fc7919061287c565b815250600460008a73ffffffffffffffffffffffffffffffffffffffff1673ffffffffffffffffffffffffffffffffffffffff168152602001908152602001600020600082015181600001556020820151816001015560408201518160020160006101000a81548163ffffffff021916908363ffffffff16021790555060608201518160030160008201518160000160006101000a8154817bffffffffffffffffffffffffffffffffffffffffffffffffffffffff02191690837bffffffffffffffffffffffffffffffffffffffffffffffffffffffff160217905550505060808201518160040160008201518160000160006101000a8154817bffffffffffffffffffffffffffffffffffffffffffffffffffffffff02191690837bffffffffffffffffffffffffffffffffffffffffffffffffffffffff160217905550505060a082015181600501559050505050505050505050565b600360009054906101000a900473ffffffffffffffffffffffffffffffffffffffff1681565b818161115182826117bf565b6111945781816040517fd9a764d900000000000000000000000000000000000000000000000000000000815260040161118b92919061263c565b60405180910390fd5b6000600360009054906101000a900473ffffffffffffffffffffffffffffffffffffffff1673ffffffffffffffffffffffffffffffffffffffff1663e6a4390586866040518363ffffffff1660e01b81526004016111f392919061263c565b602060405180830381865afa158015611210573d6000803e3d6000fd5b505050506040513d601f19601f82011682018060405250810190611234919061267a565b905061123f81611342565b5050505050565b600160009054906101000a900473ffffffffffffffffffffffffffffffffffffffff1681565b611274610a77565b156112da57600160009054906101000a900473ffffffffffffffffffffffffffffffffffffffff16336040517fc21bbf9d0000000000000000000000000000000000000000000000000000000081526004016112d192919061263c565b60405180910390fd5b80600260006101000a81548173ffffffffffffffffffffffffffffffffffffffff021916908373ffffffffffffffffffffffffffffffffffffffff1602179055506000806101000a81549073ffffffffffffffffffffffffffffffffffffffff021916905550565b600080600061135084611a71565b9250925092506000600460008673ffffffffffffffffffffffffffffffffffffffff1673ffffffffffffffffffffffffffffffffffffffff1681526020019081526020016000206040518060c001604052908160008201548152602001600182015481526020016002820160009054906101000a900463ffffffff1663ffffffff1663ffffffff168152602001600382016040518060200160405290816000820160009054906101000a90047bffffffffffffffffffffffffffffffffffffffffffffffffffffffff167bffffffffffffffffffffffffffffffffffffffffffffffffffffffff167bffffffffffffffffffffffffffffffffffffffffffffffffffffffff16815250508152602001600482016040518060200160405290816000820160009054906101000a90047bffffffffffffffffffffffffffffffffffffffffffffffffffffffff167bffffffffffffffffffffffffffffffffffffffffffffffffffffffff167bffffffffffffffffffffffffffffffffffffffffffffffffffffffff16815250508152602001600582015481525050905060008160a001510361153557846040517f1a2a9e8700000000000000000000000000000000000000000000000000000000815260040161152c919061253c565b60405180910390fd5b60008160400151830390508160a001518163ffffffff16101561159557808260a001516040517f7510c95f00000000000000000000000000000000000000000000000000000000815260040161158c929190612907565b60405180910390fd5b60405180602001604052808263ffffffff168460000151886115b79190612930565b6115c19190612993565b7bffffffffffffffffffffffffffffffffffffffffffffffffffffffff16815250826060018190525060405180602001604052808263ffffffff1684602001518761160c9190612930565b6116169190612993565b7bffffffffffffffffffffffffffffffffffffffffffffffffffffffff168152508260800181905250848260000181815250508382602001818152505082826040019063ffffffff16908163ffffffff168152505081600460008873ffffffffffffffffffffffffffffffffffffffff1673ffffffffffffffffffffffffffffffffffffffff168152602001908152602001600020600082015181600001556020820151816001015560408201518160020160006101000a81548163ffffffff021916908363ffffffff16021790555060608201518160030160008201518160000160006101000a8154817bffffffffffffffffffffffffffffffffffffffffffffffffffffffff02191690837bffffffffffffffffffffffffffffffffffffffffffffffffffffffff160217905550505060808201518160040160008201518160000160006101000a8154817bffffffffffffffffffffffffffffffffffffffffffffffffffffffff02191690837bffffffffffffffffffffffffffffffffffffffffffffffffffffffff160217905550505060a08201518160050155905050505050505050565b60008073ffffffffffffffffffffffffffffffffffffffff16600360009054906101000a900473ffffffffffffffffffffffffffffffffffffffff1673ffffffffffffffffffffffffffffffffffffffff1663e6a4390585856040518363ffffffff1660e01b815260040161183592919061263c565b602060405180830381865afa158015611852573d6000803e3d6000fd5b505050506040513d601f19601f82011682018060405250810190611876919061267a565b73ffffffffffffffffffffffffffffffffffffffff161415905092915050565b61189e612223565b60008083148061190a575083600001517bffffffffffffffffffffffffffffffffffffffffffffffffffffffff16838486600001517bffffffffffffffffffffffffffffffffffffffffffffffffffffffff166118fb919061287c565b9250826119089190612993565b145b611949576040517f08c379a000000000000000000000000000000000000000000000000000000000815260040161194090612a21565b60405180910390fd5b60405180602001604052808281525091505092915050565b6000607060ff168260000151901c9050919050565b61197e610a77565b8015611a235750600260009054906101000a900473ffffffffffffffffffffffffffffffffffffffff1673ffffffffffffffffffffffffffffffffffffffff1663b7ebc23b826040518263ffffffff1660e01b81526004016119e0919061253c565b602060405180830381865afa1580156119fd573d6000803e3d6000fd5b505050506040513d601f19601f82011682018060405250810190611a219190612a6d565b155b15611a6e57611a30610a77565b816040517f64218e39000000000000000000000000000000000000000000000000000000008152600401611a65929190612a9a565b60405180910390fd5b50565b6000806000611a7e611cdf565b90508373ffffffffffffffffffffffffffffffffffffffff16635909c0d56040518163ffffffff1660e01b8152600401602060405180830381865afa158015611acb573d6000803e3d6000fd5b505050506040513d601f19601f82011682018060405250810190611aef91906126f3565b92508373ffffffffffffffffffffffffffffffffffffffff16635a3d54936040518163ffffffff1660e01b8152600401602060405180830381865afa158015611b3c573d6000803e3d6000fd5b505050506040513d601f19601f82011682018060405250810190611b6091906126f3565b915060008060008673ffffffffffffffffffffffffffffffffffffffff16630902f1ac6040518163ffffffff1660e01b8152600401606060405180830381865afa158015611bb2573d6000803e3d6000fd5b505050506040513d601f19601f82011682018060405250810190611bd69190612792565b9250925092508363ffffffff168163ffffffff1614611cd55760008185611bfd9190612ac3565b90508063ffffffff16611c30846dffffffffffffffffffffffffffff16866dffffffffffffffffffffffffffff16611cf7565b600001517bffffffffffffffffffffffffffffffffffffffffffffffffffffffff16611c5c919061287c565b87611c679190612af7565b96508063ffffffff16611c9a856dffffffffffffffffffffffffffff16856dffffffffffffffffffffffffffff16611cf7565b600001517bffffffffffffffffffffffffffffffffffffffffffffffffffffffff16611cc6919061287c565b86611cd19190612af7565b9550505b5050509193909250565b600064010000000042611cf29190612b4d565b905090565b611cff612236565b60008211611d42576040517f08c379a0000000000000000000000000000000000000000000000000000000008152600401611d3990612bf0565b60405180910390fd5b60008303611d7f57604051806020016040528060007bffffffffffffffffffffffffffffffffffffffffffffffffffffffff168152509050611ef7565b71ffffffffffffffffffffffffffffffffffff80168311611e4757600082607060ff1685901b611daf9190612993565b90507bffffffffffffffffffffffffffffffffffffffffffffffffffffffff8016811115611e12576040517f08c379a0000000000000000000000000000000000000000000000000000000008152600401611e0990612c5c565b60405180910390fd5b6040518060200160405280827bffffffffffffffffffffffffffffffffffffffffffffffffffffffff16815250915050611ef7565b6000611e63846e01000000000000000000000000000085611efd565b90507bffffffffffffffffffffffffffffffffffffffffffffffffffffffff8016811115611ec6576040517f08c379a0000000000000000000000000000000000000000000000000000000008152600401611ebd90612c5c565b60405180910390fd5b6040518060200160405280827bffffffffffffffffffffffffffffffffffffffffffffffffffffffff168152509150505b92915050565b6000806000611f0c8686611fc4565b9150915060008480611f2157611f20612964565b5b868809905082811115611f3e57600182611f3b9190612930565b91505b8083611f4a9190612930565b925060008203611f6a578483611f609190612993565b9350505050611fbd565b848210611fac576040517f08c379a0000000000000000000000000000000000000000000000000000000008152600401611fa390612cc8565b60405180910390fd5b611fb7838387612039565b93505050505b9392505050565b60008060007fffffffffffffffffffffffffffffffffffffffffffffffffffffffffffffffff80611ff857611ff7612964565b5b84860990508385612009919061287c565b925082816120179190612930565b9150828110156120315760018261202e9190612930565b91505b509250929050565b600080612045836121e2565b8316905080836120559190612993565b925080856120639190612993565b9450600181612071836121e2565b61207b9190612993565b6120859190612af7565b84612090919061287c565b8561209b9190612af7565b945060006001905080846120af919061287c565b60026120bb9190612930565b816120c6919061287c565b905080846120d4919061287c565b60026120e09190612930565b816120eb919061287c565b905080846120f9919061287c565b60026121059190612930565b81612110919061287c565b9050808461211e919061287c565b600261212a9190612930565b81612135919061287c565b90508084612143919061287c565b600261214f9190612930565b8161215a919061287c565b90508084612168919061287c565b60026121749190612930565b8161217f919061287c565b9050808461218d919061287c565b60026121999190612930565b816121a4919061287c565b905080846121b2919061287c565b60026121be9190612930565b816121c9919061287c565b905080866121d7919061287c565b925050509392505050565b60006001827fffffffffffffffffffffffffffffffffffffffffffffffffffffffffffffffff6122129190612930565b61221c9190612af7565b9050919050565b6040518060200160405280600081525090565b604051806020016040528060007bffffffffffffffffffffffffffffffffffffffffffffffffffffffff1681525090565b600080fd5b600073ffffffffffffffffffffffffffffffffffffffff82169050919050565b60006122978261226c565b9050919050565b6122a78161228c565b81146122b257600080fd5b50565b6000813590506122c48161229e565b92915050565b6000602082840312156122e0576122df612267565b5b60006122ee848285016122b5565b91505092915050565b6000819050919050565b600061231c6123176123128461226c565b6122f7565b61226c565b9050919050565b600061232e82612301565b9050919050565b600061234082612323565b9050919050565b61235081612335565b82525050565b600060208201905061236b6000830184612347565b92915050565b6000819050919050565b61238481612371565b82525050565b600063ffffffff82169050919050565b6123a38161238a565b82525050565b60007bffffffffffffffffffffffffffffffffffffffffffffffffffffffff82169050919050565b6123da816123a9565b82525050565b6020820160008201516123f660008501826123d1565b50505050565b600060c082019050612411600083018961237b565b61241e602083018861237b565b61242b604083018761239a565b61243860608301866123e0565b61244560808301856123e0565b61245260a083018461237b565b979650505050505050565b61246681612371565b811461247157600080fd5b50565b6000813590506124838161245d565b92915050565b6000806000606084860312156124a2576124a1612267565b5b60006124b0868287016122b5565b93505060206124c1868287016122b5565b92505060406124d286828701612474565b9150509250925092565b60006020820190506124f1600083018461237b565b92915050565b60008115159050919050565b61250c816124f7565b82525050565b60006020820190506125276000830184612503565b92915050565b6125368161228c565b82525050565b6000602082019050612551600083018461252d565b92915050565b6000806040838503121561256e5761256d612267565b5b600061257c858286016122b5565b925050602061258d858286016122b5565b9150509250929050565b60006040820190506125ac600083018561239a565b6125b9602083018461237b565b9392505050565b600080604083850312156125d7576125d6612267565b5b60006125e5858286016122b5565b92505060206125f685828601612474565b9150509250929050565b600061260b82612323565b9050919050565b61261b81612600565b82525050565b60006020820190506126366000830184612612565b92915050565b6000604082019050612651600083018561252d565b61265e602083018461252d565b9392505050565b6000815190506126748161229e565b92915050565b6000602082840312156126905761268f612267565b5b600061269e84828501612665565b91505092915050565b60006060820190506126bc600083018661252d565b6126c9602083018561252d565b6126d6604083018461237b565b949350505050565b6000815190506126ed8161245d565b92915050565b60006020828403121561270957612708612267565b5b6000612717848285016126de565b91505092915050565b60006dffffffffffffffffffffffffffff82169050919050565b61274381612720565b811461274e57600080fd5b50565b6000815190506127608161273a565b92915050565b61276f8161238a565b811461277a57600080fd5b50565b60008151905061278c81612766565b92915050565b6000806000606084860312156127ab576127aa612267565b5b60006127b986828701612751565b93505060206127ca86828701612751565b92505060406127db8682870161277d565b9150509250925092565b60006128006127fb6127f684612720565b6122f7565b612371565b9050919050565b612810816127e5565b82525050565b600060608201905061282b600083018661252d565b6128386020830185612807565b6128456040830184612807565b949350505050565b7f4e487b7100000000000000000000000000000000000000000000000000000000600052601160045260246000fd5b600061288782612371565b915061289283612371565b9250817fffffffffffffffffffffffffffffffffffffffffffffffffffffffffffffffff04831182151516156128cb576128ca61284d565b5b828202905092915050565b60006128f16128ec6128e78461238a565b6122f7565b612371565b9050919050565b612901816128d6565b82525050565b600060408201905061291c60008301856128f8565b612929602083018461237b565b9392505050565b600061293b82612371565b915061294683612371565b9250828210156129595761295861284d565b5b828203905092915050565b7f4e487b7100000000000000000000000000000000000000000000000000000000600052601260045260246000fd5b600061299e82612371565b91506129a983612371565b9250826129b9576129b8612964565b5b828204905092915050565b600082825260208201905092915050565b7f4669786564506f696e743a3a6d756c3a206f766572666c6f7700000000000000600082015250565b6000612a0b6019836129c4565b9150612a16826129d5565b602082019050919050565b60006020820190508181036000830152612a3a816129fe565b9050919050565b612a4a816124f7565b8114612a5557600080fd5b50565b600081519050612a6781612a41565b92915050565b600060208284031215612a8357612a82612267565b5b6000612a9184828501612a58565b91505092915050565b6000604082019050612aaf6000830185612503565b612abc602083018461252d565b9392505050565b6000612ace8261238a565b9150612ad98361238a565b925082821015612aec57612aeb61284d565b5b828203905092915050565b6000612b0282612371565b9150612b0d83612371565b9250827fffffffffffffffffffffffffffffffffffffffffffffffffffffffffffffffff03821115612b4257612b4161284d565b5b828201905092915050565b6000612b5882612371565b9150612b6383612371565b925082612b7357612b72612964565b5b828206905092915050565b7f4669786564506f696e743a3a6672616374696f6e3a206469766973696f6e206260008201527f79207a65726f0000000000000000000000000000000000000000000000000000602082015250565b6000612bda6026836129c4565b9150612be582612b7e565b604082019050919050565b60006020820190508181036000830152612c0981612bcd565b9050919050565b7f4669786564506f696e743a3a6672616374696f6e3a206f766572666c6f770000600082015250565b6000612c46601e836129c4565b9150612c5182612c10565b602082019050919050565b60006020820190508181036000830152612c7581612c39565b9050919050565b7f46756c6c4d6174683a2046554c4c4449565f4f564552464c4f57000000000000600082015250565b6000612cb2601a836129c4565b9150612cbd82612c7c565b602082019050919050565b60006020820190508181036000830152612ce181612ca5565b905091905056fea2646970667358221220685b00cffccc05bd378018c2b0d26fd3cbee26ef89d6981847ca653e6677ed5364736f6c634300080d0033",
  "linkReferences": {},
  "deployedLinkReferences": {}
}