{
  "_format": "hh-sol-artifact-1",
  "contractName": "LimboOracle",
  "sourceName": "contracts/periphery/LimboOracle.sol",
  "abi": [
    {
      "inputs": [
        {
          "internalType": "address",
          "name": "V2factory",
          "type": "address"
        },
        {
          "internalType": "address",
          "name": "limboDAO",
          "type": "address"
        }
      ],
      "stateMutability": "nonpayable",
      "type": "constructor"
    },
    {
      "inputs": [
        {
          "internalType": "address",
          "name": "configurationLord",
          "type": "address"
        },
        {
          "internalType": "address",
          "name": "msg_sender",
          "type": "address"
        }
      ],
      "name": "AccessDenied",
      "type": "error"
    },
    {
      "inputs": [
        {
          "internalType": "address",
          "name": "pair",
          "type": "address"
        }
      ],
      "name": "AssetNotRegistered",
      "type": "error"
    },
    {
      "inputs": [
        {
          "internalType": "address",
          "name": "expectedDAO",
          "type": "address"
        },
        {
          "internalType": "address",
          "name": "actualDAO",
          "type": "address"
        }
      ],
      "name": "BackrunDetected",
      "type": "error"
    },
    {
      "inputs": [
        {
          "internalType": "bool",
          "name": "configured",
          "type": "bool"
        },
        {
          "internalType": "address",
          "name": "proposal",
          "type": "address"
        }
      ],
      "name": "GovernanceActionFailed",
      "type": "error"
    },
    {
      "inputs": [
        {
          "internalType": "address",
          "name": "token0",
          "type": "address"
        },
        {
          "internalType": "address",
          "name": "token1",
          "type": "address"
        }
      ],
      "name": "InvalidPair",
      "type": "error"
    },
    {
      "inputs": [
        {
          "internalType": "address",
          "name": "pair",
          "type": "address"
        },
        {
          "internalType": "address",
          "name": "token",
          "type": "address"
        }
      ],
      "name": "InvalidToken",
      "type": "error"
    },
    {
      "inputs": [
        {
          "internalType": "address",
          "name": "pair",
          "type": "address"
        },
        {
          "internalType": "uint256",
          "name": "reserve1",
          "type": "uint256"
        },
        {
          "internalType": "uint256",
          "name": "reserve2",
          "type": "uint256"
        }
      ],
      "name": "ReservesEmpty",
      "type": "error"
    },
    {
      "inputs": [
        {
          "internalType": "address",
          "name": "tokenIn",
          "type": "address"
        },
        {
          "internalType": "address",
          "name": "tokenOut",
          "type": "address"
        },
        {
          "internalType": "uint256",
          "name": "amountIn",
          "type": "uint256"
        }
      ],
      "name": "UpdateOracle",
      "type": "error"
    },
    {
      "inputs": [
        {
          "internalType": "uint256",
          "name": "timeElapsed",
          "type": "uint256"
        },
        {
          "internalType": "uint256",
          "name": "period",
          "type": "uint256"
        }
      ],
      "name": "WaitPeriodTooSmall",
      "type": "error"
    },
    {
      "inputs": [],
      "name": "DAO",
      "outputs": [
        {
          "internalType": "address",
          "name": "",
          "type": "address"
        }
      ],
      "stateMutability": "view",
      "type": "function"
    },
    {
      "inputs": [
        {
          "internalType": "address",
          "name": "pairAddress",
          "type": "address"
        },
        {
          "internalType": "uint256",
          "name": "period",
          "type": "uint256"
        }
      ],
      "name": "RegisterPair",
      "outputs": [],
      "stateMutability": "nonpayable",
      "type": "function"
    },
    {
      "inputs": [],
      "name": "configured",
      "outputs": [
        {
          "internalType": "bool",
          "name": "",
          "type": "bool"
        }
      ],
      "stateMutability": "view",
      "type": "function"
    },
    {
      "inputs": [
        {
          "internalType": "address",
          "name": "tokenIn",
          "type": "address"
        },
        {
          "internalType": "address",
          "name": "tokenOut",
          "type": "address"
        },
        {
          "internalType": "uint256",
          "name": "amountIn",
          "type": "uint256"
        }
      ],
      "name": "consult",
      "outputs": [
        {
          "internalType": "uint256",
          "name": "amountOut",
          "type": "uint256"
        }
      ],
      "stateMutability": "view",
      "type": "function"
    },
    {
      "inputs": [
        {
          "internalType": "address",
          "name": "expectedDAO",
          "type": "address"
        }
      ],
      "name": "endConfiguration",
      "outputs": [],
      "stateMutability": "nonpayable",
      "type": "function"
    },
    {
      "inputs": [],
      "name": "factory",
      "outputs": [
        {
          "internalType": "contract IUniswapV2Factory",
          "name": "",
          "type": "address"
        }
      ],
      "stateMutability": "view",
      "type": "function"
    },
    {
      "inputs": [
        {
          "internalType": "address",
          "name": "token0",
          "type": "address"
        },
        {
          "internalType": "address",
          "name": "token1",
          "type": "address"
        }
      ],
      "name": "getLastUpdate",
      "outputs": [
        {
          "internalType": "uint32",
          "name": "",
          "type": "uint32"
        },
        {
          "internalType": "uint256",
          "name": "",
          "type": "uint256"
        }
      ],
      "stateMutability": "view",
      "type": "function"
    },
    {
      "inputs": [],
      "name": "governer",
      "outputs": [
        {
          "internalType": "contract FlashGovernanceArbiterLike",
          "name": "",
          "type": "address"
        }
      ],
      "stateMutability": "view",
      "type": "function"
    },
    {
      "inputs": [
        {
          "internalType": "address",
          "name": "",
          "type": "address"
        }
      ],
      "name": "pairMeasurements",
      "outputs": [
        {
          "internalType": "uint256",
          "name": "price0CumulativeLast",
          "type": "uint256"
        },
        {
          "internalType": "uint256",
          "name": "price1CumulativeLast",
          "type": "uint256"
        },
        {
          "internalType": "uint32",
          "name": "blockTimestampLast",
          "type": "uint32"
        },
        {
          "components": [
            {
              "internalType": "uint224",
              "name": "_x",
              "type": "uint224"
            }
          ],
          "internalType": "struct FixedPoint.uq112x112",
          "name": "price0Average",
          "type": "tuple"
        },
        {
          "components": [
            {
              "internalType": "uint224",
              "name": "_x",
              "type": "uint224"
            }
          ],
          "internalType": "struct FixedPoint.uq112x112",
          "name": "price1Average",
          "type": "tuple"
        },
        {
          "internalType": "uint256",
          "name": "period",
          "type": "uint256"
        }
      ],
      "stateMutability": "view",
      "type": "function"
    },
    {
      "inputs": [
        {
          "internalType": "address",
          "name": "dao",
          "type": "address"
        }
      ],
      "name": "setDAO",
      "outputs": [],
      "stateMutability": "nonpayable",
      "type": "function"
    },
    {
      "inputs": [],
      "name": "temporaryConfigurationLord",
      "outputs": [
        {
          "internalType": "address",
          "name": "",
          "type": "address"
        }
      ],
      "stateMutability": "view",
      "type": "function"
    },
    {
      "inputs": [
        {
          "internalType": "address",
          "name": "token0",
          "type": "address"
        },
        {
          "internalType": "address",
          "name": "token1",
          "type": "address"
        }
      ],
      "name": "update",
      "outputs": [],
      "stateMutability": "nonpayable",
      "type": "function"
    },
    {
      "inputs": [
        {
          "internalType": "address",
          "name": "pair",
          "type": "address"
        }
      ],
      "name": "updatePair",
      "outputs": [],
      "stateMutability": "nonpayable",
      "type": "function"
    }
  ],
  "bytecode": "0x60806040523480156200001157600080fd5b50604051620031963803806200319683398181016040528101906200003791906200032e565b806200004981620000d460201b60201c565b33600160006101000a81548173ffffffffffffffffffffffffffffffffffffffff021916908373ffffffffffffffffffffffffffffffffffffffff1602179055505081600360006101000a81548173ffffffffffffffffffffffffffffffffffffffff021916908373ffffffffffffffffffffffffffffffffffffffff1602179055505050620003b3565b600073ffffffffffffffffffffffffffffffffffffffff16600260009054906101000a900473ffffffffffffffffffffffffffffffffffffffff1673ffffffffffffffffffffffffffffffffffffffff1614158015620001825750600260009054906101000a900473ffffffffffffffffffffffffffffffffffffffff1673ffffffffffffffffffffffffffffffffffffffff163373ffffffffffffffffffffffffffffffffffffffff1614155b80156200019b57506200019a6200026c60201b60201c565b5b156200020457600160009054906101000a900473ffffffffffffffffffffffffffffffffffffffff16336040517fc21bbf9d000000000000000000000000000000000000000000000000000000008152600401620001fb92919062000386565b60405180910390fd5b80600260006101000a81548173ffffffffffffffffffffffffffffffffffffffff021916908373ffffffffffffffffffffffffffffffffffffffff1602179055506000806101000a81549073ffffffffffffffffffffffffffffffffffffffff021916905550565b60008073ffffffffffffffffffffffffffffffffffffffff16600160009054906101000a900473ffffffffffffffffffffffffffffffffffffffff1673ffffffffffffffffffffffffffffffffffffffff1614905090565b600080fd5b600073ffffffffffffffffffffffffffffffffffffffff82169050919050565b6000620002f682620002c9565b9050919050565b6200030881620002e9565b81146200031457600080fd5b50565b6000815190506200032881620002fd565b92915050565b60008060408385031215620003485762000347620002c4565b5b6000620003588582860162000317565b92505060206200036b8582860162000317565b9150509250929050565b6200038081620002e9565b82525050565b60006040820190506200039d600083018562000375565b620003ac602083018462000375565b9392505050565b612dd380620003c36000396000f3fe608060405234801561001057600080fd5b50600436106100cf5760003560e01c806398fabd3a1161008c578063c45a015511610066578063c45a015514610218578063c640752d14610236578063dd77a47514610252578063e73a914c14610270576100cf565b806398fabd3a146101ad578063a4e27f54146101cb578063a655090a146101fc576100cf565b80631b56bbf9146100d45780633091dde1146100f057806332ee089f1461010e5780634eaa7eb214610143578063636cfa0c1461015f5780638772a23a1461018f575b600080fd5b6100ee60048036038101906100e9919061237f565b61028c565b005b6100f8610298565b604051610105919061240b565b60405180910390f35b6101286004803603810190610123919061237f565b6102bc565b60405161013a969594939291906124b1565b60405180910390f35b61015d6004803603810190610158919061237f565b6103f8565b005b6101796004803603810190610174919061253e565b6105a9565b6040516101869190612591565b60405180910390f35b610197610a77565b6040516101a491906125c7565b60405180910390f35b6101b5610acf565b6040516101c291906125f1565b60405180910390f35b6101e560048036038101906101e0919061260c565b610af5565b6040516101f392919061264c565b60405180910390f35b61021660048036038101906102119190612675565b610d47565b005b61022061111f565b60405161022d91906126d6565b60405180910390f35b610250600480360381019061024b919061260c565b611145565b005b61025a611246565b60405161026791906125f1565b60405180910390f35b61028a6004803603810190610285919061237f565b61126c565b005b610295816113f7565b50565b60008054906101000a900473ffffffffffffffffffffffffffffffffffffffff1681565b60046020528060005260406000206000915090508060000154908060010154908060020160009054906101000a900463ffffffff1690806003016040518060200160405290816000820160009054906101000a90047bffffffffffffffffffffffffffffffffffffffffffffffffffffffff167bffffffffffffffffffffffffffffffffffffffffffffffffffffffff167bffffffffffffffffffffffffffffffffffffffffffffffffffffffff168152505090806004016040518060200160405290816000820160009054906101000a90047bffffffffffffffffffffffffffffffffffffffffffffffffffffffff167bffffffffffffffffffffffffffffffffffffffffffffffffffffffff167bffffffffffffffffffffffffffffffffffffffffffffffffffffffff1681525050908060050154905086565b600160009054906101000a900473ffffffffffffffffffffffffffffffffffffffff1673ffffffffffffffffffffffffffffffffffffffff163373ffffffffffffffffffffffffffffffffffffffff16146104ae57600160009054906101000a900473ffffffffffffffffffffffffffffffffffffffff16336040517fc21bbf9d0000000000000000000000000000000000000000000000000000000081526004016104a59291906126f1565b60405180910390fd5b600260009054906101000a900473ffffffffffffffffffffffffffffffffffffffff1673ffffffffffffffffffffffffffffffffffffffff168173ffffffffffffffffffffffffffffffffffffffff16146105645780600260009054906101000a900473ffffffffffffffffffffffffffffffffffffffff166040517f3f0e213300000000000000000000000000000000000000000000000000000000815260040161055b9291906126f1565b60405180910390fd5b6000600160006101000a81548173ffffffffffffffffffffffffffffffffffffffff021916908373ffffffffffffffffffffffffffffffffffffffff16021790555050565b600083836105b78282611874565b6105fa5781816040517fd9a764d90000000000000000000000000000000000000000000000000000000081526004016105f19291906126f1565b60405180910390fd5b6000600360009054906101000a900473ffffffffffffffffffffffffffffffffffffffff1673ffffffffffffffffffffffffffffffffffffffff1663e6a4390588886040518363ffffffff1660e01b81526004016106599291906126f1565b602060405180830381865afa158015610676573d6000803e3d6000fd5b505050506040513d601f19601f8201168201806040525081019061069a919061272f565b90506000600460008373ffffffffffffffffffffffffffffffffffffffff1673ffffffffffffffffffffffffffffffffffffffff1681526020019081526020016000206040518060c001604052908160008201548152602001600182015481526020016002820160009054906101000a900463ffffffff1663ffffffff1663ffffffff168152602001600382016040518060200160405290816000820160009054906101000a90047bffffffffffffffffffffffffffffffffffffffffffffffffffffffff167bffffffffffffffffffffffffffffffffffffffffffffffffffffffff167bffffffffffffffffffffffffffffffffffffffffffffffffffffffff16815250508152602001600482016040518060200160405290816000820160009054906101000a90047bffffffffffffffffffffffffffffffffffffffffffffffffffffffff167bffffffffffffffffffffffffffffffffffffffffffffffffffffffff167bffffffffffffffffffffffffffffffffffffffffffffffffffffffff1681525050815260200160058201548152505090508173ffffffffffffffffffffffffffffffffffffffff16630dfe16816040518163ffffffff1660e01b8152600401602060405180830381865afa15801561087d573d6000803e3d6000fd5b505050506040513d601f19601f820116820180604052508101906108a1919061272f565b73ffffffffffffffffffffffffffffffffffffffff168873ffffffffffffffffffffffffffffffffffffffff160361090d576108f26108ed87836060015161194b90919063ffffffff16565b611a16565b71ffffffffffffffffffffffffffffffffffff169450610a23565b8173ffffffffffffffffffffffffffffffffffffffff1663d21220a76040518163ffffffff1660e01b8152600401602060405180830381865afa158015610958573d6000803e3d6000fd5b505050506040513d601f19601f8201168201806040525081019061097c919061272f565b73ffffffffffffffffffffffffffffffffffffffff168873ffffffffffffffffffffffffffffffffffffffff16146109ed5781886040517f0fc746a10000000000000000000000000000000000000000000000000000000081526004016109e49291906126f1565b60405180910390fd5b610a0c610a0787836080015161194b90919063ffffffff16565b611a16565b71ffffffffffffffffffffffffffffffffffff1694505b60008503610a6c578787876040517fc88686cf000000000000000000000000000000000000000000000000000000008152600401610a639392919061275c565b60405180910390fd5b505050509392505050565b60008073ffffffffffffffffffffffffffffffffffffffff16600160009054906101000a900473ffffffffffffffffffffffffffffffffffffffff1673ffffffffffffffffffffffffffffffffffffffff1614905090565b600260009054906101000a900473ffffffffffffffffffffffffffffffffffffffff1681565b6000806000600360009054906101000a900473ffffffffffffffffffffffffffffffffffffffff1673ffffffffffffffffffffffffffffffffffffffff1663e6a4390586866040518363ffffffff1660e01b8152600401610b579291906126f1565b602060405180830381865afa158015610b74573d6000803e3d6000fd5b505050506040513d601f19601f82011682018060405250810190610b98919061272f565b90506000600460008373ffffffffffffffffffffffffffffffffffffffff1673ffffffffffffffffffffffffffffffffffffffff1681526020019081526020016000206040518060c001604052908160008201548152602001600182015481526020016002820160009054906101000a900463ffffffff1663ffffffff1663ffffffff168152602001600382016040518060200160405290816000820160009054906101000a90047bffffffffffffffffffffffffffffffffffffffffffffffffffffffff167bffffffffffffffffffffffffffffffffffffffffffffffffffffffff167bffffffffffffffffffffffffffffffffffffffffffffffffffffffff16815250508152602001600482016040518060200160405290816000820160009054906101000a90047bffffffffffffffffffffffffffffffffffffffffffffffffffffffff167bffffffffffffffffffffffffffffffffffffffffffffffffffffffff167bffffffffffffffffffffffffffffffffffffffffffffffffffffffff16815250508152602001600582015481525050905080604001518160a001519350935050509250929050565b610d5033611a2b565b600082905060008173ffffffffffffffffffffffffffffffffffffffff16635909c0d56040518163ffffffff1660e01b8152600401602060405180830381865afa158015610da2573d6000803e3d6000fd5b505050506040513d601f19601f82011682018060405250810190610dc691906127a8565b905060008273ffffffffffffffffffffffffffffffffffffffff16635a3d54936040518163ffffffff1660e01b8152600401602060405180830381865afa158015610e15573d6000803e3d6000fd5b505050506040513d601f19601f82011682018060405250810190610e3991906127a8565b905060008060008573ffffffffffffffffffffffffffffffffffffffff16630902f1ac6040518163ffffffff1660e01b8152600401606060405180830381865afa158015610e8b573d6000803e3d6000fd5b505050506040513d601f19601f82011682018060405250810190610eaf9190612847565b8093508194508295505050506000836dffffffffffffffffffffffffffff161480610eea57506000826dffffffffffffffffffffffffffff16145b15610f30578783836040517f325a40b7000000000000000000000000000000000000000000000000000000008152600401610f27939291906128cb565b60405180910390fd5b6040518060c001604052808681526020018581526020018263ffffffff168152602001604051806020016040528060007bffffffffffffffffffffffffffffffffffffffffffffffffffffffff168152508152602001604051806020016040528060007bffffffffffffffffffffffffffffffffffffffffffffffffffffffff168152508152602001610e1089610fc79190612931565b815250600460008a73ffffffffffffffffffffffffffffffffffffffff1673ffffffffffffffffffffffffffffffffffffffff168152602001908152602001600020600082015181600001556020820151816001015560408201518160020160006101000a81548163ffffffff021916908363ffffffff16021790555060608201518160030160008201518160000160006101000a8154817bffffffffffffffffffffffffffffffffffffffffffffffffffffffff02191690837bffffffffffffffffffffffffffffffffffffffffffffffffffffffff160217905550505060808201518160040160008201518160000160006101000a8154817bffffffffffffffffffffffffffffffffffffffffffffffffffffffff02191690837bffffffffffffffffffffffffffffffffffffffffffffffffffffffff160217905550505060a082015181600501559050505050505050505050565b600360009054906101000a900473ffffffffffffffffffffffffffffffffffffffff1681565b81816111518282611874565b6111945781816040517fd9a764d900000000000000000000000000000000000000000000000000000000815260040161118b9291906126f1565b60405180910390fd5b6000600360009054906101000a900473ffffffffffffffffffffffffffffffffffffffff1673ffffffffffffffffffffffffffffffffffffffff1663e6a4390586866040518363ffffffff1660e01b81526004016111f39291906126f1565b602060405180830381865afa158015611210573d6000803e3d6000fd5b505050506040513d601f19601f82011682018060405250810190611234919061272f565b905061123f816113f7565b5050505050565b600160009054906101000a900473ffffffffffffffffffffffffffffffffffffffff1681565b600073ffffffffffffffffffffffffffffffffffffffff16600260009054906101000a900473ffffffffffffffffffffffffffffffffffffffff1673ffffffffffffffffffffffffffffffffffffffff16141580156113195750600260009054906101000a900473ffffffffffffffffffffffffffffffffffffffff1673ffffffffffffffffffffffffffffffffffffffff163373ffffffffffffffffffffffffffffffffffffffff1614155b80156113295750611328610a77565b5b1561138f57600160009054906101000a900473ffffffffffffffffffffffffffffffffffffffff16336040517fc21bbf9d0000000000000000000000000000000000000000000000000000000081526004016113869291906126f1565b60405180910390fd5b80600260006101000a81548173ffffffffffffffffffffffffffffffffffffffff021916908373ffffffffffffffffffffffffffffffffffffffff1602179055506000806101000a81549073ffffffffffffffffffffffffffffffffffffffff021916905550565b600080600061140584611b26565b9250925092506000600460008673ffffffffffffffffffffffffffffffffffffffff1673ffffffffffffffffffffffffffffffffffffffff1681526020019081526020016000206040518060c001604052908160008201548152602001600182015481526020016002820160009054906101000a900463ffffffff1663ffffffff1663ffffffff168152602001600382016040518060200160405290816000820160009054906101000a90047bffffffffffffffffffffffffffffffffffffffffffffffffffffffff167bffffffffffffffffffffffffffffffffffffffffffffffffffffffff167bffffffffffffffffffffffffffffffffffffffffffffffffffffffff16815250508152602001600482016040518060200160405290816000820160009054906101000a90047bffffffffffffffffffffffffffffffffffffffffffffffffffffffff167bffffffffffffffffffffffffffffffffffffffffffffffffffffffff167bffffffffffffffffffffffffffffffffffffffffffffffffffffffff16815250508152602001600582015481525050905060008160a00151036115ea57846040517f1a2a9e870000000000000000000000000000000000000000000000000000000081526004016115e191906125f1565b60405180910390fd5b60008160400151830390508160a001518163ffffffff16101561164a57808260a001516040517f7510c95f0000000000000000000000000000000000000000000000000000000081526004016116419291906129bc565b60405180910390fd5b60405180602001604052808263ffffffff1684600001518861166c91906129e5565b6116769190612a48565b7bffffffffffffffffffffffffffffffffffffffffffffffffffffffff16815250826060018190525060405180602001604052808263ffffffff168460200151876116c191906129e5565b6116cb9190612a48565b7bffffffffffffffffffffffffffffffffffffffffffffffffffffffff168152508260800181905250848260000181815250508382602001818152505082826040019063ffffffff16908163ffffffff168152505081600460008873ffffffffffffffffffffffffffffffffffffffff1673ffffffffffffffffffffffffffffffffffffffff168152602001908152602001600020600082015181600001556020820151816001015560408201518160020160006101000a81548163ffffffff021916908363ffffffff16021790555060608201518160030160008201518160000160006101000a8154817bffffffffffffffffffffffffffffffffffffffffffffffffffffffff02191690837bffffffffffffffffffffffffffffffffffffffffffffffffffffffff160217905550505060808201518160040160008201518160000160006101000a8154817bffffffffffffffffffffffffffffffffffffffffffffffffffffffff02191690837bffffffffffffffffffffffffffffffffffffffffffffffffffffffff160217905550505060a08201518160050155905050505050505050565b60008073ffffffffffffffffffffffffffffffffffffffff16600360009054906101000a900473ffffffffffffffffffffffffffffffffffffffff1673ffffffffffffffffffffffffffffffffffffffff1663e6a4390585856040518363ffffffff1660e01b81526004016118ea9291906126f1565b602060405180830381865afa158015611907573d6000803e3d6000fd5b505050506040513d601f19601f8201168201806040525081019061192b919061272f565b73ffffffffffffffffffffffffffffffffffffffff161415905092915050565b6119536122d8565b6000808314806119bf575083600001517bffffffffffffffffffffffffffffffffffffffffffffffffffffffff16838486600001517bffffffffffffffffffffffffffffffffffffffffffffffffffffffff166119b09190612931565b9250826119bd9190612a48565b145b6119fe576040517f08c379a00000000000000000000000000000000000000000000000000000000081526004016119f590612ad6565b60405180910390fd5b60405180602001604052808281525091505092915050565b6000607060ff168260000151901c9050919050565b611a33610a77565b8015611ad85750600260009054906101000a900473ffffffffffffffffffffffffffffffffffffffff1673ffffffffffffffffffffffffffffffffffffffff1663b7ebc23b826040518263ffffffff1660e01b8152600401611a9591906125f1565b602060405180830381865afa158015611ab2573d6000803e3d6000fd5b505050506040513d601f19601f82011682018060405250810190611ad69190612b22565b155b15611b2357611ae5610a77565b816040517f64218e39000000000000000000000000000000000000000000000000000000008152600401611b1a929190612b4f565b60405180910390fd5b50565b6000806000611b33611d94565b90508373ffffffffffffffffffffffffffffffffffffffff16635909c0d56040518163ffffffff1660e01b8152600401602060405180830381865afa158015611b80573d6000803e3d6000fd5b505050506040513d601f19601f82011682018060405250810190611ba491906127a8565b92508373ffffffffffffffffffffffffffffffffffffffff16635a3d54936040518163ffffffff1660e01b8152600401602060405180830381865afa158015611bf1573d6000803e3d6000fd5b505050506040513d601f19601f82011682018060405250810190611c1591906127a8565b915060008060008673ffffffffffffffffffffffffffffffffffffffff16630902f1ac6040518163ffffffff1660e01b8152600401606060405180830381865afa158015611c67573d6000803e3d6000fd5b505050506040513d601f19601f82011682018060405250810190611c8b9190612847565b9250925092508363ffffffff168163ffffffff1614611d8a5760008185611cb29190612b78565b90508063ffffffff16611ce5846dffffffffffffffffffffffffffff16866dffffffffffffffffffffffffffff16611dac565b600001517bffffffffffffffffffffffffffffffffffffffffffffffffffffffff16611d119190612931565b87611d1c9190612bac565b96508063ffffffff16611d4f856dffffffffffffffffffffffffffff16856dffffffffffffffffffffffffffff16611dac565b600001517bffffffffffffffffffffffffffffffffffffffffffffffffffffffff16611d7b9190612931565b86611d869190612bac565b9550505b5050509193909250565b600064010000000042611da79190612c02565b905090565b611db46122eb565b60008211611df7576040517f08c379a0000000000000000000000000000000000000000000000000000000008152600401611dee90612ca5565b60405180910390fd5b60008303611e3457604051806020016040528060007bffffffffffffffffffffffffffffffffffffffffffffffffffffffff168152509050611fac565b71ffffffffffffffffffffffffffffffffffff80168311611efc57600082607060ff1685901b611e649190612a48565b90507bffffffffffffffffffffffffffffffffffffffffffffffffffffffff8016811115611ec7576040517f08c379a0000000000000000000000000000000000000000000000000000000008152600401611ebe90612d11565b60405180910390fd5b6040518060200160405280827bffffffffffffffffffffffffffffffffffffffffffffffffffffffff16815250915050611fac565b6000611f18846e01000000000000000000000000000085611fb2565b90507bffffffffffffffffffffffffffffffffffffffffffffffffffffffff8016811115611f7b576040517f08c379a0000000000000000000000000000000000000000000000000000000008152600401611f7290612d11565b60405180910390fd5b6040518060200160405280827bffffffffffffffffffffffffffffffffffffffffffffffffffffffff168152509150505b92915050565b6000806000611fc18686612079565b9150915060008480611fd657611fd5612a19565b5b868809905082811115611ff357600182611ff091906129e5565b91505b8083611fff91906129e5565b92506000820361201f5784836120159190612a48565b9350505050612072565b848210612061576040517f08c379a000000000000000000000000000000000000000000000000000000000815260040161205890612d7d565b60405180910390fd5b61206c8383876120ee565b93505050505b9392505050565b60008060007fffffffffffffffffffffffffffffffffffffffffffffffffffffffffffffffff806120ad576120ac612a19565b5b848609905083856120be9190612931565b925082816120cc91906129e5565b9150828110156120e6576001826120e391906129e5565b91505b509250929050565b6000806120fa83612297565b83169050808361210a9190612a48565b925080856121189190612a48565b945060018161212683612297565b6121309190612a48565b61213a9190612bac565b846121459190612931565b856121509190612bac565b945060006001905080846121649190612931565b600261217091906129e5565b8161217b9190612931565b905080846121899190612931565b600261219591906129e5565b816121a09190612931565b905080846121ae9190612931565b60026121ba91906129e5565b816121c59190612931565b905080846121d39190612931565b60026121df91906129e5565b816121ea9190612931565b905080846121f89190612931565b600261220491906129e5565b8161220f9190612931565b9050808461221d9190612931565b600261222991906129e5565b816122349190612931565b905080846122429190612931565b600261224e91906129e5565b816122599190612931565b905080846122679190612931565b600261227391906129e5565b8161227e9190612931565b9050808661228c9190612931565b925050509392505050565b60006001827fffffffffffffffffffffffffffffffffffffffffffffffffffffffffffffffff6122c791906129e5565b6122d19190612bac565b9050919050565b6040518060200160405280600081525090565b604051806020016040528060007bffffffffffffffffffffffffffffffffffffffffffffffffffffffff1681525090565b600080fd5b600073ffffffffffffffffffffffffffffffffffffffff82169050919050565b600061234c82612321565b9050919050565b61235c81612341565b811461236757600080fd5b50565b60008135905061237981612353565b92915050565b6000602082840312156123955761239461231c565b5b60006123a38482850161236a565b91505092915050565b6000819050919050565b60006123d16123cc6123c784612321565b6123ac565b612321565b9050919050565b60006123e3826123b6565b9050919050565b60006123f5826123d8565b9050919050565b612405816123ea565b82525050565b600060208201905061242060008301846123fc565b92915050565b6000819050919050565b61243981612426565b82525050565b600063ffffffff82169050919050565b6124588161243f565b82525050565b60007bffffffffffffffffffffffffffffffffffffffffffffffffffffffff82169050919050565b61248f8161245e565b82525050565b6020820160008201516124ab6000850182612486565b50505050565b600060c0820190506124c66000830189612430565b6124d36020830188612430565b6124e0604083018761244f565b6124ed6060830186612495565b6124fa6080830185612495565b61250760a0830184612430565b979650505050505050565b61251b81612426565b811461252657600080fd5b50565b60008135905061253881612512565b92915050565b6000806000606084860312156125575761255661231c565b5b60006125658682870161236a565b93505060206125768682870161236a565b925050604061258786828701612529565b9150509250925092565b60006020820190506125a66000830184612430565b92915050565b60008115159050919050565b6125c1816125ac565b82525050565b60006020820190506125dc60008301846125b8565b92915050565b6125eb81612341565b82525050565b600060208201905061260660008301846125e2565b92915050565b600080604083850312156126235761262261231c565b5b60006126318582860161236a565b92505060206126428582860161236a565b9150509250929050565b6000604082019050612661600083018561244f565b61266e6020830184612430565b9392505050565b6000806040838503121561268c5761268b61231c565b5b600061269a8582860161236a565b92505060206126ab85828601612529565b9150509250929050565b60006126c0826123d8565b9050919050565b6126d0816126b5565b82525050565b60006020820190506126eb60008301846126c7565b92915050565b600060408201905061270660008301856125e2565b61271360208301846125e2565b9392505050565b60008151905061272981612353565b92915050565b6000602082840312156127455761274461231c565b5b60006127538482850161271a565b91505092915050565b600060608201905061277160008301866125e2565b61277e60208301856125e2565b61278b6040830184612430565b949350505050565b6000815190506127a281612512565b92915050565b6000602082840312156127be576127bd61231c565b5b60006127cc84828501612793565b91505092915050565b60006dffffffffffffffffffffffffffff82169050919050565b6127f8816127d5565b811461280357600080fd5b50565b600081519050612815816127ef565b92915050565b6128248161243f565b811461282f57600080fd5b50565b6000815190506128418161281b565b92915050565b6000806000606084860312156128605761285f61231c565b5b600061286e86828701612806565b935050602061287f86828701612806565b925050604061289086828701612832565b9150509250925092565b60006128b56128b06128ab846127d5565b6123ac565b612426565b9050919050565b6128c58161289a565b82525050565b60006060820190506128e060008301866125e2565b6128ed60208301856128bc565b6128fa60408301846128bc565b949350505050565b7f4e487b7100000000000000000000000000000000000000000000000000000000600052601160045260246000fd5b600061293c82612426565b915061294783612426565b9250817fffffffffffffffffffffffffffffffffffffffffffffffffffffffffffffffff04831182151516156129805761297f612902565b5b828202905092915050565b60006129a66129a161299c8461243f565b6123ac565b612426565b9050919050565b6129b68161298b565b82525050565b60006040820190506129d160008301856129ad565b6129de6020830184612430565b9392505050565b60006129f082612426565b91506129fb83612426565b925082821015612a0e57612a0d612902565b5b828203905092915050565b7f4e487b7100000000000000000000000000000000000000000000000000000000600052601260045260246000fd5b6000612a5382612426565b9150612a5e83612426565b925082612a6e57612a6d612a19565b5b828204905092915050565b600082825260208201905092915050565b7f4669786564506f696e743a3a6d756c3a206f766572666c6f7700000000000000600082015250565b6000612ac0601983612a79565b9150612acb82612a8a565b602082019050919050565b60006020820190508181036000830152612aef81612ab3565b9050919050565b612aff816125ac565b8114612b0a57600080fd5b50565b600081519050612b1c81612af6565b92915050565b600060208284031215612b3857612b3761231c565b5b6000612b4684828501612b0d565b91505092915050565b6000604082019050612b6460008301856125b8565b612b7160208301846125e2565b9392505050565b6000612b838261243f565b9150612b8e8361243f565b925082821015612ba157612ba0612902565b5b828203905092915050565b6000612bb782612426565b9150612bc283612426565b9250827fffffffffffffffffffffffffffffffffffffffffffffffffffffffffffffffff03821115612bf757612bf6612902565b5b828201905092915050565b6000612c0d82612426565b9150612c1883612426565b925082612c2857612c27612a19565b5b828206905092915050565b7f4669786564506f696e743a3a6672616374696f6e3a206469766973696f6e206260008201527f79207a65726f0000000000000000000000000000000000000000000000000000602082015250565b6000612c8f602683612a79565b9150612c9a82612c33565b604082019050919050565b60006020820190508181036000830152612cbe81612c82565b9050919050565b7f4669786564506f696e743a3a6672616374696f6e3a206f766572666c6f770000600082015250565b6000612cfb601e83612a79565b9150612d0682612cc5565b602082019050919050565b60006020820190508181036000830152612d2a81612cee565b9050919050565b7f46756c6c4d6174683a2046554c4c4449565f4f564552464c4f57000000000000600082015250565b6000612d67601a83612a79565b9150612d7282612d31565b602082019050919050565b60006020820190508181036000830152612d9681612d5a565b905091905056fea26469706673582212208007023fd025cfa40df285eac2e89812118ba7765cd80e9c3e0cc463205c79a964736f6c634300080d0033",
  "linkReferences": {},
  "deployedLinkReferences": {}
}