{
  "_format": "hh-sol-artifact-1",
  "contractName": "Flan",
  "sourceName": "contracts/Flan.sol",
  "abi": [
    {
      "inputs": [
        {
          "internalType": "address",
          "name": "dao",
          "type": "address"
        }
      ],
      "stateMutability": "nonpayable",
      "type": "constructor"
    },
    {
      "inputs": [
        {
          "internalType": "address",
          "name": "configurationLord",
          "type": "address"
        },
        {
          "internalType": "address",
          "name": "msg_sender",
          "type": "address"
        }
      ],
      "name": "AccessDenied",
      "type": "error"
    },
    {
      "inputs": [
        {
          "internalType": "uint256",
          "name": "allowance",
          "type": "uint256"
        },
        {
          "internalType": "uint256",
          "name": "amount",
          "type": "uint256"
        }
      ],
      "name": "AllowanceExceeded",
      "type": "error"
    },
    {
      "inputs": [
        {
          "internalType": "uint256",
          "name": "allowance",
          "type": "uint256"
        },
        {
          "internalType": "uint256",
          "name": "subtraction",
          "type": "uint256"
        }
      ],
      "name": "AllowanceUnderflow",
      "type": "error"
    },
    {
      "inputs": [
        {
          "internalType": "address",
          "name": "expectedDAO",
          "type": "address"
        },
        {
          "internalType": "address",
          "name": "actualDAO",
          "type": "address"
        }
      ],
      "name": "BackrunDetected",
      "type": "error"
    },
    {
      "inputs": [
        {
          "internalType": "uint256",
          "name": "accountBalance",
          "type": "uint256"
        },
        {
          "internalType": "uint256",
          "name": "amount",
          "type": "uint256"
        }
      ],
      "name": "BurnUnderflow",
      "type": "error"
    },
    {
      "inputs": [
        {
          "internalType": "bool",
          "name": "configured",
          "type": "bool"
        },
        {
          "internalType": "address",
          "name": "proposal",
          "type": "address"
        }
      ],
      "name": "GovernanceActionFailed",
      "type": "error"
    },
    {
      "inputs": [
        {
          "internalType": "uint256",
          "name": "max",
          "type": "uint256"
        },
        {
          "internalType": "uint256",
          "name": "aggregate",
          "type": "uint256"
        }
      ],
      "name": "MaxMintPerEpochExceeded",
      "type": "error"
    },
    {
      "inputs": [
        {
          "internalType": "address",
          "name": "msgSender",
          "type": "address"
        }
      ],
      "name": "MintingNotWhiteListed",
      "type": "error"
    },
    {
      "inputs": [
        {
          "internalType": "address",
          "name": "caller",
          "type": "address"
        },
        {
          "internalType": "address",
          "name": "owner",
          "type": "address"
        }
      ],
      "name": "OnlyOwner",
      "type": "error"
    },
    {
      "inputs": [],
      "name": "TransferToZeroAddress",
      "type": "error"
    },
    {
      "inputs": [
        {
          "internalType": "uint256",
          "name": "senderBalance",
          "type": "uint256"
        },
        {
          "internalType": "uint256",
          "name": "fee",
          "type": "uint256"
        },
        {
          "internalType": "uint256",
          "name": "amount",
          "type": "uint256"
        }
      ],
      "name": "TransferUnderflow",
      "type": "error"
    },
    {
      "anonymous": false,
      "inputs": [
        {
          "indexed": true,
          "internalType": "address",
          "name": "owner",
          "type": "address"
        },
        {
          "indexed": true,
          "internalType": "address",
          "name": "spender",
          "type": "address"
        },
        {
          "indexed": false,
          "internalType": "uint256",
          "name": "value",
          "type": "uint256"
        }
      ],
      "name": "Approval",
      "type": "event"
    },
    {
      "anonymous": false,
      "inputs": [
        {
          "indexed": true,
          "internalType": "address",
          "name": "previousOwner",
          "type": "address"
        },
        {
          "indexed": true,
          "internalType": "address",
          "name": "newOwner",
          "type": "address"
        }
      ],
      "name": "OwnershipTransferred",
      "type": "event"
    },
    {
      "anonymous": false,
      "inputs": [
        {
          "indexed": true,
          "internalType": "address",
          "name": "from",
          "type": "address"
        },
        {
          "indexed": true,
          "internalType": "address",
          "name": "to",
          "type": "address"
        },
        {
          "indexed": false,
          "internalType": "uint256",
          "name": "value",
          "type": "uint256"
        }
      ],
      "name": "Transfer",
      "type": "event"
    },
    {
      "inputs": [],
      "name": "DAO",
      "outputs": [
        {
          "internalType": "address",
          "name": "",
          "type": "address"
        }
      ],
      "stateMutability": "view",
      "type": "function"
    },
    {
      "inputs": [
        {
          "internalType": "address",
          "name": "owner",
          "type": "address"
        },
        {
          "internalType": "address",
          "name": "spender",
          "type": "address"
        }
      ],
      "name": "allowance",
      "outputs": [
        {
          "internalType": "uint256",
          "name": "",
          "type": "uint256"
        }
      ],
      "stateMutability": "view",
      "type": "function"
    },
    {
      "inputs": [
        {
          "internalType": "address",
          "name": "spender",
          "type": "address"
        },
        {
          "internalType": "uint256",
          "name": "amount",
          "type": "uint256"
        }
      ],
      "name": "approve",
      "outputs": [
        {
          "internalType": "bool",
          "name": "",
          "type": "bool"
        }
      ],
      "stateMutability": "nonpayable",
      "type": "function"
    },
    {
      "inputs": [
        {
          "internalType": "address",
          "name": "account",
          "type": "address"
        }
      ],
      "name": "balanceOf",
      "outputs": [
        {
          "internalType": "uint256",
          "name": "",
          "type": "uint256"
        }
      ],
      "stateMutability": "view",
      "type": "function"
    },
    {
      "inputs": [
        {
          "internalType": "uint256",
          "name": "amount",
          "type": "uint256"
        }
      ],
      "name": "burn",
      "outputs": [
        {
          "internalType": "bool",
          "name": "",
          "type": "bool"
        }
      ],
      "stateMutability": "nonpayable",
      "type": "function"
    },
    {
      "inputs": [
        {
          "internalType": "address",
          "name": "account",
          "type": "address"
        },
        {
          "internalType": "uint256",
          "name": "amount",
          "type": "uint256"
        }
      ],
      "name": "burnFrom",
      "outputs": [],
      "stateMutability": "nonpayable",
      "type": "function"
    },
    {
      "inputs": [],
      "name": "configured",
      "outputs": [
        {
          "internalType": "bool",
          "name": "",
          "type": "bool"
        }
      ],
      "stateMutability": "view",
      "type": "function"
    },
    {
      "inputs": [],
      "name": "decimals",
      "outputs": [
        {
          "internalType": "uint8",
          "name": "",
          "type": "uint8"
        }
      ],
      "stateMutability": "view",
      "type": "function"
    },
    {
      "inputs": [
        {
          "internalType": "address",
          "name": "spender",
          "type": "address"
        },
        {
          "internalType": "uint256",
          "name": "subtractedValue",
          "type": "uint256"
        }
      ],
      "name": "decreaseAllowance",
      "outputs": [
        {
          "internalType": "bool",
          "name": "",
          "type": "bool"
        }
      ],
      "stateMutability": "nonpayable",
      "type": "function"
    },
    {
      "inputs": [
        {
          "internalType": "address",
          "name": "expectedDAO",
          "type": "address"
        }
      ],
      "name": "endConfiguration",
      "outputs": [],
      "stateMutability": "nonpayable",
      "type": "function"
    },
    {
      "inputs": [],
      "name": "governer",
      "outputs": [
        {
          "internalType": "contract FlashGovernanceArbiterLike",
          "name": "",
          "type": "address"
        }
      ],
      "stateMutability": "view",
      "type": "function"
    },
    {
      "inputs": [
        {
          "internalType": "address",
          "name": "spender",
          "type": "address"
        },
        {
          "internalType": "uint256",
          "name": "addedValue",
          "type": "uint256"
        }
      ],
      "name": "increaseAllowance",
      "outputs": [
        {
          "internalType": "bool",
          "name": "",
          "type": "bool"
        }
      ],
      "stateMutability": "nonpayable",
      "type": "function"
    },
    {
      "inputs": [
        {
          "internalType": "address",
          "name": "recipient",
          "type": "address"
        },
        {
          "internalType": "uint256",
          "name": "amount",
          "type": "uint256"
        }
      ],
      "name": "mint",
      "outputs": [
        {
          "internalType": "bool",
          "name": "",
          "type": "bool"
        }
      ],
      "stateMutability": "nonpayable",
      "type": "function"
    },
    {
      "inputs": [
        {
          "internalType": "address",
          "name": "",
          "type": "address"
        }
      ],
      "name": "mintAllowance",
      "outputs": [
        {
          "internalType": "bool",
          "name": "",
          "type": "bool"
        }
      ],
      "stateMutability": "view",
      "type": "function"
    },
    {
      "inputs": [],
      "name": "mintConfig",
      "outputs": [
        {
          "internalType": "uint256",
          "name": "maxMintPerEpoch",
          "type": "uint256"
        },
        {
          "internalType": "uint256",
          "name": "aggregateMintingThisEpoch",
          "type": "uint256"
        },
        {
          "internalType": "uint128",
          "name": "lastEpochTimeStamp",
          "type": "uint128"
        },
        {
          "internalType": "uint128",
          "name": "EPOCH_SIZE",
          "type": "uint128"
        }
      ],
      "stateMutability": "view",
      "type": "function"
    },
    {
      "inputs": [],
      "name": "name",
      "outputs": [
        {
          "internalType": "string",
          "name": "",
          "type": "string"
        }
      ],
      "stateMutability": "view",
      "type": "function"
    },
    {
      "inputs": [],
      "name": "owner",
      "outputs": [
        {
          "internalType": "address",
          "name": "",
          "type": "address"
        }
      ],
      "stateMutability": "view",
      "type": "function"
    },
    {
      "inputs": [
        {
          "internalType": "address",
          "name": "dao",
          "type": "address"
        }
      ],
      "name": "setDAO",
      "outputs": [],
      "stateMutability": "nonpayable",
      "type": "function"
    },
    {
      "inputs": [
        {
          "internalType": "uint256",
          "name": "maxMintPerEpoch",
          "type": "uint256"
        },
        {
          "internalType": "uint128",
          "name": "epochSize",
          "type": "uint128"
        }
      ],
      "name": "setMintConfig",
      "outputs": [],
      "stateMutability": "nonpayable",
      "type": "function"
    },
    {
      "inputs": [],
      "name": "symbol",
      "outputs": [
        {
          "internalType": "string",
          "name": "",
          "type": "string"
        }
      ],
      "stateMutability": "view",
      "type": "function"
    },
    {
      "inputs": [],
      "name": "temporaryConfigurationLord",
      "outputs": [
        {
          "internalType": "address",
          "name": "",
          "type": "address"
        }
      ],
      "stateMutability": "view",
      "type": "function"
    },
    {
      "inputs": [],
      "name": "totalSupply",
      "outputs": [
        {
          "internalType": "uint256",
          "name": "",
          "type": "uint256"
        }
      ],
      "stateMutability": "view",
      "type": "function"
    },
    {
      "inputs": [
        {
          "internalType": "address",
          "name": "recipient",
          "type": "address"
        },
        {
          "internalType": "uint256",
          "name": "amount",
          "type": "uint256"
        }
      ],
      "name": "transfer",
      "outputs": [
        {
          "internalType": "bool",
          "name": "",
          "type": "bool"
        }
      ],
      "stateMutability": "nonpayable",
      "type": "function"
    },
    {
      "inputs": [
        {
          "internalType": "address",
          "name": "_to",
          "type": "address"
        },
        {
          "internalType": "uint256",
          "name": "_value",
          "type": "uint256"
        },
        {
          "internalType": "bytes",
          "name": "_data",
          "type": "bytes"
        }
      ],
      "name": "transferAndCall",
      "outputs": [
        {
          "internalType": "bool",
          "name": "success",
          "type": "bool"
        }
      ],
      "stateMutability": "nonpayable",
      "type": "function"
    },
    {
      "inputs": [
        {
          "internalType": "address",
          "name": "sender",
          "type": "address"
        },
        {
          "internalType": "address",
          "name": "recipient",
          "type": "address"
        },
        {
          "internalType": "uint256",
          "name": "amount",
          "type": "uint256"
        }
      ],
      "name": "transferFrom",
      "outputs": [
        {
          "internalType": "bool",
          "name": "",
          "type": "bool"
        }
      ],
      "stateMutability": "nonpayable",
      "type": "function"
    },
    {
      "inputs": [
        {
          "internalType": "address",
          "name": "newOwner",
          "type": "address"
        }
      ],
      "name": "transferOwnership",
      "outputs": [],
      "stateMutability": "nonpayable",
      "type": "function"
    },
    {
      "inputs": [
        {
          "internalType": "address",
          "name": "minter",
          "type": "address"
        },
        {
          "internalType": "bool",
          "name": "enabled",
          "type": "bool"
        }
      ],
      "name": "whiteListMinting",
      "outputs": [],
      "stateMutability": "nonpayable",
      "type": "function"
    }
  ],
  "bytecode": "0x60806040523480156200001157600080fd5b5060405162002b7e38038062002b7e833981810160405281019062000037919062000593565b806040518060400160405280600481526020017f466c616e000000000000000000000000000000000000000000000000000000008152506040518060400160405280600381526020017f464c4e000000000000000000000000000000000000000000000000000000000081525081818160039080519060200190620000be92919062000479565b508060049080519060200190620000d792919062000479565b505050620000eb33620001c260201b60201c565b5050620000fe816200028860201b60201c565b33600760006101000a81548173ffffffffffffffffffffffffffffffffffffffff021916908373ffffffffffffffffffffffffffffffffffffffff1602179055505042600a60020160006101000a8154816fffffffffffffffffffffffffffffffff02191690836fffffffffffffffffffffffffffffffff16021790555062015180600a60020160106101000a8154816fffffffffffffffffffffffffffffffff02191690836fffffffffffffffffffffffffffffffff1602179055505062000667565b6000600560009054906101000a900473ffffffffffffffffffffffffffffffffffffffff16905081600560006101000a81548173ffffffffffffffffffffffffffffffffffffffff021916908373ffffffffffffffffffffffffffffffffffffffff1602179055508173ffffffffffffffffffffffffffffffffffffffff168173ffffffffffffffffffffffffffffffffffffffff167f8be0079c531659141344cd1fd0a4f28419497f9722a3daafe3b4186f6b6457e060405160405180910390a35050565b600073ffffffffffffffffffffffffffffffffffffffff16600860009054906101000a900473ffffffffffffffffffffffffffffffffffffffff1673ffffffffffffffffffffffffffffffffffffffff1614158015620003365750600860009054906101000a900473ffffffffffffffffffffffffffffffffffffffff1673ffffffffffffffffffffffffffffffffffffffff163373ffffffffffffffffffffffffffffffffffffffff1614155b80156200034f57506200034e6200042160201b60201c565b5b15620003b857600760009054906101000a900473ffffffffffffffffffffffffffffffffffffffff16336040517fc21bbf9d000000000000000000000000000000000000000000000000000000008152600401620003af929190620005d6565b60405180910390fd5b80600860006101000a81548173ffffffffffffffffffffffffffffffffffffffff021916908373ffffffffffffffffffffffffffffffffffffffff160217905550600660006101000a81549073ffffffffffffffffffffffffffffffffffffffff021916905550565b60008073ffffffffffffffffffffffffffffffffffffffff16600760009054906101000a900473ffffffffffffffffffffffffffffffffffffffff1673ffffffffffffffffffffffffffffffffffffffff1614905090565b828054620004879062000632565b90600052602060002090601f016020900481019282620004ab5760008555620004f7565b82601f10620004c657805160ff1916838001178555620004f7565b82800160010185558215620004f7579182015b82811115620004f6578251825591602001919060010190620004d9565b5b5090506200050691906200050a565b5090565b5b80821115620005255760008160009055506001016200050b565b5090565b600080fd5b600073ffffffffffffffffffffffffffffffffffffffff82169050919050565b60006200055b826200052e565b9050919050565b6200056d816200054e565b81146200057957600080fd5b50565b6000815190506200058d8162000562565b92915050565b600060208284031215620005ac57620005ab62000529565b5b6000620005bc848285016200057c565b91505092915050565b620005d0816200054e565b82525050565b6000604082019050620005ed6000830185620005c5565b620005fc6020830184620005c5565b9392505050565b7f4e487b7100000000000000000000000000000000000000000000000000000000600052602260045260246000fd5b600060028204905060018216806200064b57607f821691505b60208210810362000661576200066062000603565b5b50919050565b61250780620006776000396000f3fe608060405234801561001057600080fd5b50600436106101a95760003560e01c80637a5b5eb5116100f9578063c5119ff811610097578063dd77a47511610071578063dd77a4751461051e578063e73a914c1461053c578063e7cc724414610558578063f2fde38b14610579576101a9565b8063c5119ff8146104a2578063d7a8ac0a146104d2578063dd62ed3e146104ee576101a9565b806395d89b41116100d357806395d89b411461040657806398fabd3a14610424578063a457c2d714610442578063a9059cbb14610472576101a9565b80637a5b5eb5146103ae5780638772a23a146103ca5780638da5cb5b146103e8576101a9565b8063395093511161016657806342966c681161014057806342966c68146103165780634eaa7eb21461034657806370a082311461036257806379cc679014610392576101a9565b806339509351146102865780634000aea0146102b657806340c10f19146102e6576101a9565b806306fdde03146101ae578063095ea7b3146101cc57806318160ddd146101fc57806323b872dd1461021a5780633091dde11461024a578063313ce56714610268575b600080fd5b6101b6610595565b6040516101c39190611bd8565b60405180910390f35b6101e660048036038101906101e19190611ca2565b610627565b6040516101f39190611cfd565b60405180910390f35b61020461063e565b6040516102119190611d27565b60405180910390f35b610234600480360381019061022f9190611d42565b610648565b6040516102419190611cfd565b60405180910390f35b61025261076b565b60405161025f9190611df4565b60405180910390f35b610270610791565b60405161027d9190611e2b565b60405180910390f35b6102a0600480360381019061029b9190611ca2565b61079a565b6040516102ad9190611cfd565b60405180910390f35b6102d060048036038101906102cb9190611f7b565b610838565b6040516102dd9190611cfd565b60405180910390f35b61030060048036038101906102fb9190611ca2565b61086a565b60405161030d9190611cfd565b60405180910390f35b610330600480360381019061032b9190611fea565b610be5565b60405161033d9190611cfd565b60405180910390f35b610360600480360381019061035b9190612017565b610bfa565b005b61037c60048036038101906103779190612017565b610dab565b6040516103899190611d27565b60405180910390f35b6103ac60048036038101906103a79190611ca2565b610df3565b005b6103c860048036038101906103c3919061208c565b610e6d565b005b6103d2610ee4565b6040516103df9190611cfd565b60405180910390f35b6103f0610f3c565b6040516103fd91906120db565b60405180910390f35b61040e610f66565b60405161041b9190611bd8565b60405180910390f35b61042c610ff8565b60405161043991906120db565b60405180910390f35b61045c60048036038101906104579190611ca2565b61101e565b6040516104699190611cfd565b60405180910390f35b61048c60048036038101906104879190611ca2565b6110ff565b6040516104999190611cfd565b60405180910390f35b6104bc60048036038101906104b79190612017565b611116565b6040516104c99190611cfd565b60405180910390f35b6104ec60048036038101906104e79190612122565b611136565b005b61050860048036038101906105039190612162565b61119a565b6040516105159190611d27565b60405180910390f35b610526611221565b60405161053391906120db565b60405180910390f35b61055660048036038101906105519190612017565b611247565b005b6105606113d3565b60405161057094939291906121b1565b60405180910390f35b610593600480360381019061058e9190612017565b611429565b005b6060600380546105a490612225565b80601f01602080910402602001604051908101604052809291908181526020018280546105d090612225565b801561061d5780601f106105f25761010080835404028352916020019161061d565b820191906000526020600020905b81548152906001019060200180831161060057829003601f168201915b5050505050905090565b6000610634338484611512565b6001905092915050565b6000600254905090565b60006106558484846115fd565b6000600160008673ffffffffffffffffffffffffffffffffffffffff1673ffffffffffffffffffffffffffffffffffffffff16815260200190815260200160002060003373ffffffffffffffffffffffffffffffffffffffff1673ffffffffffffffffffffffffffffffffffffffff1681526020019081526020016000205490507fffffffffffffffffffffffffffffffffffffffffffffffffffffffffffffffff811415801561070557508083115b156107495780836040517fa9248256000000000000000000000000000000000000000000000000000000008152600401610740929190612256565b60405180910390fd5b61075f8533858461075a91906122ae565b611512565b60019150509392505050565b600660009054906101000a900473ffffffffffffffffffffffffffffffffffffffff1681565b60006012905090565b600061082e338484600160003373ffffffffffffffffffffffffffffffffffffffff1673ffffffffffffffffffffffffffffffffffffffff16815260200190815260200160002060008873ffffffffffffffffffffffffffffffffffffffff1673ffffffffffffffffffffffffffffffffffffffff1681526020019081526020016000205461082991906122e2565b611512565b6001905092915050565b60006108453385856115fd565b61084e84611795565b1561085f5761085e8484846117a8565b5b600190509392505050565b600080610875610f3c565b73ffffffffffffffffffffffffffffffffffffffff163373ffffffffffffffffffffffffffffffffffffffff1614806108fb5750600860009054906101000a900473ffffffffffffffffffffffffffffffffffffffff1673ffffffffffffffffffffffffffffffffffffffff163373ffffffffffffffffffffffffffffffffffffffff16145b8061094f5750600960003373ffffffffffffffffffffffffffffffffffffffff1673ffffffffffffffffffffffffffffffffffffffff16815260200190815260200160002060009054906101000a900460ff165b90508061099357336040517f502ae98a00000000000000000000000000000000000000000000000000000000815260040161098a91906120db565b60405180910390fd5b6000600a60405180608001604052908160008201548152602001600182015481526020016002820160009054906101000a90046fffffffffffffffffffffffffffffffff166fffffffffffffffffffffffffffffffff166fffffffffffffffffffffffffffffffff1681526020016002820160109054906101000a90046fffffffffffffffffffffffffffffffff166fffffffffffffffffffffffffffffffff166fffffffffffffffffffffffffffffffff1681525050905080606001516fffffffffffffffffffffffffffffffff1681604001516fffffffffffffffffffffffffffffffff1642610a8591906122ae565b1115610ac7574281604001906fffffffffffffffffffffffffffffffff1690816fffffffffffffffffffffffffffffffff168152505060008160200181815250505b8381602001818151610ad991906122e2565b91508181525050806000015181602001511115610b3757806000015181602001516040517fd5db41ea000000000000000000000000000000000000000000000000000000008152600401610b2e929190612256565b60405180910390fd5b80600a600082015181600001556020820151816001015560408201518160020160006101000a8154816fffffffffffffffffffffffffffffffff02191690836fffffffffffffffffffffffffffffffff16021790555060608201518160020160106101000a8154816fffffffffffffffffffffffffffffffff02191690836fffffffffffffffffffffffffffffffff160217905550905050610bd98585611822565b60019250505092915050565b6000610bf133836118fa565b60019050919050565b600760009054906101000a900473ffffffffffffffffffffffffffffffffffffffff1673ffffffffffffffffffffffffffffffffffffffff163373ffffffffffffffffffffffffffffffffffffffff1614610cb057600760009054906101000a900473ffffffffffffffffffffffffffffffffffffffff16336040517fc21bbf9d000000000000000000000000000000000000000000000000000000008152600401610ca7929190612338565b60405180910390fd5b600860009054906101000a900473ffffffffffffffffffffffffffffffffffffffff1673ffffffffffffffffffffffffffffffffffffffff168173ffffffffffffffffffffffffffffffffffffffff1614610d665780600860009054906101000a900473ffffffffffffffffffffffffffffffffffffffff166040517f3f0e2133000000000000000000000000000000000000000000000000000000008152600401610d5d929190612338565b60405180910390fd5b6000600760006101000a81548173ffffffffffffffffffffffffffffffffffffffff021916908373ffffffffffffffffffffffffffffffffffffffff16021790555050565b60008060008373ffffffffffffffffffffffffffffffffffffffff1673ffffffffffffffffffffffffffffffffffffffff168152602001908152602001600020549050919050565b6000610dff833361119a565b905081811015610e485780826040517fa9248256000000000000000000000000000000000000000000000000000000008152600401610e3f929190612256565b60405180910390fd5b610e5e83338484610e5991906122ae565b611512565b610e6883836118fa565b505050565b610e7633611a44565b81600a600001819055506000816fffffffffffffffffffffffffffffffff1614610ea05780610ea5565b620151805b600a60020160106101000a8154816fffffffffffffffffffffffffffffffff02191690836fffffffffffffffffffffffffffffffff1602179055505050565b60008073ffffffffffffffffffffffffffffffffffffffff16600760009054906101000a900473ffffffffffffffffffffffffffffffffffffffff1673ffffffffffffffffffffffffffffffffffffffff1614905090565b6000600560009054906101000a900473ffffffffffffffffffffffffffffffffffffffff16905090565b606060048054610f7590612225565b80601f0160208091040260200160405190810160405280929190818152602001828054610fa190612225565b8015610fee5780601f10610fc357610100808354040283529160200191610fee565b820191906000526020600020905b815481529060010190602001808311610fd157829003601f168201915b5050505050905090565b600860009054906101000a900473ffffffffffffffffffffffffffffffffffffffff1681565b600080600160003373ffffffffffffffffffffffffffffffffffffffff1673ffffffffffffffffffffffffffffffffffffffff16815260200190815260200160002060008573ffffffffffffffffffffffffffffffffffffffff1673ffffffffffffffffffffffffffffffffffffffff168152602001908152602001600020549050828110156110e75780836040517fda2d822c0000000000000000000000000000000000000000000000000000000081526004016110de929190612256565b60405180910390fd5b6110f43385858403611512565b600191505092915050565b600061110c3384846115fd565b6001905092915050565b60096020528060005260406000206000915054906101000a900460ff1681565b61113f33611a44565b80600960008473ffffffffffffffffffffffffffffffffffffffff1673ffffffffffffffffffffffffffffffffffffffff16815260200190815260200160002060006101000a81548160ff0219169083151502179055505050565b6000600160008473ffffffffffffffffffffffffffffffffffffffff1673ffffffffffffffffffffffffffffffffffffffff16815260200190815260200160002060008373ffffffffffffffffffffffffffffffffffffffff1673ffffffffffffffffffffffffffffffffffffffff16815260200190815260200160002054905092915050565b600760009054906101000a900473ffffffffffffffffffffffffffffffffffffffff1681565b600073ffffffffffffffffffffffffffffffffffffffff16600860009054906101000a900473ffffffffffffffffffffffffffffffffffffffff1673ffffffffffffffffffffffffffffffffffffffff16141580156112f45750600860009054906101000a900473ffffffffffffffffffffffffffffffffffffffff1673ffffffffffffffffffffffffffffffffffffffff163373ffffffffffffffffffffffffffffffffffffffff1614155b80156113045750611303610ee4565b5b1561136a57600760009054906101000a900473ffffffffffffffffffffffffffffffffffffffff16336040517fc21bbf9d000000000000000000000000000000000000000000000000000000008152600401611361929190612338565b60405180910390fd5b80600860006101000a81548173ffffffffffffffffffffffffffffffffffffffff021916908373ffffffffffffffffffffffffffffffffffffffff160217905550600660006101000a81549073ffffffffffffffffffffffffffffffffffffffff021916905550565b600a8060000154908060010154908060020160009054906101000a90046fffffffffffffffffffffffffffffffff16908060020160109054906101000a90046fffffffffffffffffffffffffffffffff16905084565b3373ffffffffffffffffffffffffffffffffffffffff16611448610f3c565b73ffffffffffffffffffffffffffffffffffffffff16146114a9573361146c610f3c565b6040517fa3ee740f0000000000000000000000000000000000000000000000000000000081526004016114a0929190612338565b60405180910390fd5b600073ffffffffffffffffffffffffffffffffffffffff168173ffffffffffffffffffffffffffffffffffffffff160361150f576040517fea553b3400000000000000000000000000000000000000000000000000000000815260040160405180910390fd5b50565b80600160008573ffffffffffffffffffffffffffffffffffffffff1673ffffffffffffffffffffffffffffffffffffffff16815260200190815260200160002060008473ffffffffffffffffffffffffffffffffffffffff1673ffffffffffffffffffffffffffffffffffffffff168152602001908152602001600020819055508173ffffffffffffffffffffffffffffffffffffffff168373ffffffffffffffffffffffffffffffffffffffff167f8c5be1e5ebec7d5bd14f71427d1e84f3dd0314c0f7b2291e5b200ac8c7c3b925836040516115f09190611d27565b60405180910390a3505050565b60008060008573ffffffffffffffffffffffffffffffffffffffff1673ffffffffffffffffffffffffffffffffffffffff1681526020019081526020016000205490506000820361164e5750611790565b8181101561169857806000836040517f57b9c4a400000000000000000000000000000000000000000000000000000000815260040161168f9392919061239c565b60405180910390fd5b8181036000808673ffffffffffffffffffffffffffffffffffffffff1673ffffffffffffffffffffffffffffffffffffffff16815260200190815260200160002081905550816000808573ffffffffffffffffffffffffffffffffffffffff1673ffffffffffffffffffffffffffffffffffffffff168152602001908152602001600020600082825401925050819055508273ffffffffffffffffffffffffffffffffffffffff168473ffffffffffffffffffffffffffffffffffffffff167fddf252ad1be2c89b69c2b068fc378daa952ba7f163c4a11628f55a4df523b3ef846040516117869190611d27565b60405180910390a3505b505050565b600080823b905060008111915050919050565b60008390508073ffffffffffffffffffffffffffffffffffffffff1663a4c0ed363385856040518463ffffffff1660e01b81526004016117ea93929190612428565b600060405180830381600087803b15801561180457600080fd5b505af1158015611818573d6000803e3d6000fd5b5050505050505050565b806002600082825461183491906122e2565b92505081905550806000808473ffffffffffffffffffffffffffffffffffffffff1673ffffffffffffffffffffffffffffffffffffffff168152602001908152602001600020600082825461188991906122e2565b925050819055508173ffffffffffffffffffffffffffffffffffffffff16600073ffffffffffffffffffffffffffffffffffffffff167fddf252ad1be2c89b69c2b068fc378daa952ba7f163c4a11628f55a4df523b3ef836040516118ee9190611d27565b60405180910390a35050565b60008060008473ffffffffffffffffffffffffffffffffffffffff1673ffffffffffffffffffffffffffffffffffffffff168152602001908152602001600020549050818110156119845780826040517f0a37dd4100000000000000000000000000000000000000000000000000000000815260040161197b929190612256565b60405180910390fd5b8181036000808573ffffffffffffffffffffffffffffffffffffffff1673ffffffffffffffffffffffffffffffffffffffff1681526020019081526020016000208190555081600260008282540392505081905550600073ffffffffffffffffffffffffffffffffffffffff168373ffffffffffffffffffffffffffffffffffffffff167fddf252ad1be2c89b69c2b068fc378daa952ba7f163c4a11628f55a4df523b3ef84604051611a379190611d27565b60405180910390a3505050565b611a4c610ee4565b8015611af15750600860009054906101000a900473ffffffffffffffffffffffffffffffffffffffff1673ffffffffffffffffffffffffffffffffffffffff1663b7ebc23b826040518263ffffffff1660e01b8152600401611aae91906120db565b602060405180830381865afa158015611acb573d6000803e3d6000fd5b505050506040513d601f19601f82011682018060405250810190611aef919061247b565b155b15611b3c57611afe610ee4565b816040517f64218e39000000000000000000000000000000000000000000000000000000008152600401611b339291906124a8565b60405180910390fd5b50565b600081519050919050565b600082825260208201905092915050565b60005b83811015611b79578082015181840152602081019050611b5e565b83811115611b88576000848401525b50505050565b6000601f19601f8301169050919050565b6000611baa82611b3f565b611bb48185611b4a565b9350611bc4818560208601611b5b565b611bcd81611b8e565b840191505092915050565b60006020820190508181036000830152611bf28184611b9f565b905092915050565b6000604051905090565b600080fd5b600080fd5b600073ffffffffffffffffffffffffffffffffffffffff82169050919050565b6000611c3982611c0e565b9050919050565b611c4981611c2e565b8114611c5457600080fd5b50565b600081359050611c6681611c40565b92915050565b6000819050919050565b611c7f81611c6c565b8114611c8a57600080fd5b50565b600081359050611c9c81611c76565b92915050565b60008060408385031215611cb957611cb8611c04565b5b6000611cc785828601611c57565b9250506020611cd885828601611c8d565b9150509250929050565b60008115159050919050565b611cf781611ce2565b82525050565b6000602082019050611d126000830184611cee565b92915050565b611d2181611c6c565b82525050565b6000602082019050611d3c6000830184611d18565b92915050565b600080600060608486031215611d5b57611d5a611c04565b5b6000611d6986828701611c57565b9350506020611d7a86828701611c57565b9250506040611d8b86828701611c8d565b9150509250925092565b6000819050919050565b6000611dba611db5611db084611c0e565b611d95565b611c0e565b9050919050565b6000611dcc82611d9f565b9050919050565b6000611dde82611dc1565b9050919050565b611dee81611dd3565b82525050565b6000602082019050611e096000830184611de5565b92915050565b600060ff82169050919050565b611e2581611e0f565b82525050565b6000602082019050611e406000830184611e1c565b92915050565b600080fd5b600080fd5b7f4e487b7100000000000000000000000000000000000000000000000000000000600052604160045260246000fd5b611e8882611b8e565b810181811067ffffffffffffffff82111715611ea757611ea6611e50565b5b80604052505050565b6000611eba611bfa565b9050611ec68282611e7f565b919050565b600067ffffffffffffffff821115611ee657611ee5611e50565b5b611eef82611b8e565b9050602081019050919050565b82818337600083830152505050565b6000611f1e611f1984611ecb565b611eb0565b905082815260208101848484011115611f3a57611f39611e4b565b5b611f45848285611efc565b509392505050565b600082601f830112611f6257611f61611e46565b5b8135611f72848260208601611f0b565b91505092915050565b600080600060608486031215611f9457611f93611c04565b5b6000611fa286828701611c57565b9350506020611fb386828701611c8d565b925050604084013567ffffffffffffffff811115611fd457611fd3611c09565b5b611fe086828701611f4d565b9150509250925092565b60006020828403121561200057611fff611c04565b5b600061200e84828501611c8d565b91505092915050565b60006020828403121561202d5761202c611c04565b5b600061203b84828501611c57565b91505092915050565b60006fffffffffffffffffffffffffffffffff82169050919050565b61206981612044565b811461207457600080fd5b50565b60008135905061208681612060565b92915050565b600080604083850312156120a3576120a2611c04565b5b60006120b185828601611c8d565b92505060206120c285828601612077565b9150509250929050565b6120d581611c2e565b82525050565b60006020820190506120f060008301846120cc565b92915050565b6120ff81611ce2565b811461210a57600080fd5b50565b60008135905061211c816120f6565b92915050565b6000806040838503121561213957612138611c04565b5b600061214785828601611c57565b92505060206121588582860161210d565b9150509250929050565b6000806040838503121561217957612178611c04565b5b600061218785828601611c57565b925050602061219885828601611c57565b9150509250929050565b6121ab81612044565b82525050565b60006080820190506121c66000830187611d18565b6121d36020830186611d18565b6121e060408301856121a2565b6121ed60608301846121a2565b95945050505050565b7f4e487b7100000000000000000000000000000000000000000000000000000000600052602260045260246000fd5b6000600282049050600182168061223d57607f821691505b6020821081036122505761224f6121f6565b5b50919050565b600060408201905061226b6000830185611d18565b6122786020830184611d18565b9392505050565b7f4e487b7100000000000000000000000000000000000000000000000000000000600052601160045260246000fd5b60006122b982611c6c565b91506122c483611c6c565b9250828210156122d7576122d661227f565b5b828203905092915050565b60006122ed82611c6c565b91506122f883611c6c565b9250827fffffffffffffffffffffffffffffffffffffffffffffffffffffffffffffffff0382111561232d5761232c61227f565b5b828201905092915050565b600060408201905061234d60008301856120cc565b61235a60208301846120cc565b9392505050565b6000819050919050565b600061238661238161237c84612361565b611d95565b611c6c565b9050919050565b6123968161236b565b82525050565b60006060820190506123b16000830186611d18565b6123be602083018561238d565b6123cb6040830184611d18565b949350505050565b600081519050919050565b600082825260208201905092915050565b60006123fa826123d3565b61240481856123de565b9350612414818560208601611b5b565b61241d81611b8e565b840191505092915050565b600060608201905061243d60008301866120cc565b61244a6020830185611d18565b818103604083015261245c81846123ef565b9050949350505050565b600081519050612475816120f6565b92915050565b60006020828403121561249157612490611c04565b5b600061249f84828501612466565b91505092915050565b60006040820190506124bd6000830185611cee565b6124ca60208301846120cc565b939250505056fea2646970667358221220d61e3c9501d599329d891e9435202fe5749cfe04acd1cb856253b30b44ee105364736f6c634300080d0033",
  "linkReferences": {},
  "deployedLinkReferences": {}
}