{
  "_format": "hh-sol-artifact-1",
  "contractName": "SetAssetApprovalProposal",
  "sourceName": "contracts/DAO/Proposals/SetAssetApprovalProposal.sol",
  "abi": [
    {
      "inputs": [
        {
          "internalType": "address",
          "name": "dao",
          "type": "address"
        },
        {
          "internalType": "string",
          "name": "_description",
          "type": "string"
        }
      ],
      "stateMutability": "nonpayable",
      "type": "constructor"
    },
    {
      "inputs": [],
      "name": "ExecutionFailed",
      "type": "error"
    },
    {
      "inputs": [
        {
          "internalType": "address",
          "name": "dao",
          "type": "address"
        },
        {
          "internalType": "address",
          "name": "factory",
          "type": "address"
        }
      ],
      "name": "OnlyFactoryOrDAO",
      "type": "error"
    },
    {
      "inputs": [
        {
          "internalType": "address",
          "name": "proposal",
          "type": "address"
        }
      ],
      "name": "ProposalLocked",
      "type": "error"
    },
    {
      "inputs": [],
      "name": "description",
      "outputs": [
        {
          "internalType": "string",
          "name": "",
          "type": "string"
        }
      ],
      "stateMutability": "view",
      "type": "function"
    },
    {
      "inputs": [],
      "name": "locked",
      "outputs": [
        {
          "internalType": "bool",
          "name": "",
          "type": "bool"
        }
      ],
      "stateMutability": "view",
      "type": "function"
    },
    {
      "inputs": [],
      "name": "orchestrateExecute",
      "outputs": [],
      "stateMutability": "nonpayable",
      "type": "function"
    },
    {
      "inputs": [
        {
          "internalType": "address",
          "name": "asset",
          "type": "address"
        },
        {
          "internalType": "bool",
          "name": "approved",
          "type": "bool"
        },
        {
          "internalType": "bool",
          "name": "uniswap",
          "type": "bool"
        },
        {
          "internalType": "uint256",
          "name": "period",
          "type": "uint256"
        }
      ],
      "name": "parameterize",
      "outputs": [],
      "stateMutability": "nonpayable",
      "type": "function"
    },
    {
      "inputs": [],
      "name": "params",
      "outputs": [
        {
          "internalType": "address",
          "name": "asset",
          "type": "address"
        },
        {
          "internalType": "bool",
          "name": "approved",
          "type": "bool"
        },
        {
          "internalType": "bool",
          "name": "uniswap",
          "type": "bool"
        },
        {
          "internalType": "uint256",
          "name": "period",
          "type": "uint256"
        }
      ],
      "stateMutability": "view",
      "type": "function"
    },
    {
      "inputs": [
        {
          "internalType": "bool",
          "name": "_locked",
          "type": "bool"
        }
      ],
      "name": "setLocked",
      "outputs": [],
      "stateMutability": "nonpayable",
      "type": "function"
    }
  ],
  "bytecode": "0x60a06040523480156200001157600080fd5b5060405162000fe838038062000fe88339818101604052810190620000379190620003d4565b8160008054620000479062000469565b80601f0160208091040260200160405190810160405280929190818152602001828054620000759062000469565b8015620000c65780601f106200009a57610100808354040283529160200191620000c6565b820191906000526020600020905b815481529060010190602001808311620000a857829003601f168201915b50505050508173ffffffffffffffffffffffffffffffffffffffff1660808173ffffffffffffffffffffffffffffffffffffffff168152505080600090805190602001906200011792919062000122565b50505050506200049e565b828054620001309062000469565b90600052602060002090601f016020900481019282620001545760008555620001a0565b82601f106200016f57805160ff1916838001178555620001a0565b82800160010185558215620001a0579182015b828111156200019f57825182559160200191906001019062000182565b5b509050620001af9190620001b3565b5090565b5b80821115620001ce576000816000905550600101620001b4565b5090565b6000604051905090565b600080fd5b600080fd5b600073ffffffffffffffffffffffffffffffffffffffff82169050919050565b60006200021382620001e6565b9050919050565b620002258162000206565b81146200023157600080fd5b50565b60008151905062000245816200021a565b92915050565b600080fd5b600080fd5b6000601f19601f8301169050919050565b7f4e487b7100000000000000000000000000000000000000000000000000000000600052604160045260246000fd5b620002a08262000255565b810181811067ffffffffffffffff82111715620002c257620002c162000266565b5b80604052505050565b6000620002d7620001d2565b9050620002e5828262000295565b919050565b600067ffffffffffffffff82111562000308576200030762000266565b5b620003138262000255565b9050602081019050919050565b60005b838110156200034057808201518184015260208101905062000323565b8381111562000350576000848401525b50505050565b60006200036d6200036784620002ea565b620002cb565b9050828152602081018484840111156200038c576200038b62000250565b5b6200039984828562000320565b509392505050565b600082601f830112620003b957620003b86200024b565b5b8151620003cb84826020860162000356565b91505092915050565b60008060408385031215620003ee57620003ed620001dc565b5b6000620003fe8582860162000234565b925050602083015167ffffffffffffffff811115620004225762000421620001e1565b5b6200043085828601620003a1565b9150509250929050565b7f4e487b7100000000000000000000000000000000000000000000000000000000600052602260045260246000fd5b600060028204905060018216806200048257607f821691505b6020821081036200049857620004976200043a565b5b50919050565b608051610b12620004d66000396000818161010a0152818161012f0152818161028f015281816102b4015261062a0152610b126000f3fe608060405234801561001057600080fd5b50600436106100625760003560e01c8063211e28b6146100675780633e7f6c64146100835780634f46a7f71461008d5780637284e416146100a9578063cf309012146100c7578063cff0ab96146100e5575b600080fd5b610081600480360381019061007c919061074b565b610106565b005b61008b61028b565b005b6100a760048036038101906100a2919061080c565b610433565b005b6100b161052d565b6040516100be919061090c565b60405180910390f35b6100cf6105bb565b6040516100dc919061093d565b60405180910390f35b6100ed6105ce565b6040516100fd9493929190610976565b60405180910390f35b60007f0000000000000000000000000000000000000000000000000000000000000000905060007f000000000000000000000000000000000000000000000000000000000000000073ffffffffffffffffffffffffffffffffffffffff166301e179dc6040518163ffffffff1660e01b8152600401606060405180830381865afa158015610198573d6000803e3d6000fd5b505050506040513d601f19601f820116820180604052508101906101bc91906109e5565b925050508173ffffffffffffffffffffffffffffffffffffffff163373ffffffffffffffffffffffffffffffffffffffff161415801561022857508073ffffffffffffffffffffffffffffffffffffffff163373ffffffffffffffffffffffffffffffffffffffff1614155b1561026c5781816040517ff8b7c0c3000000000000000000000000000000000000000000000000000000008152600401610263929190610a38565b60405180910390fd5b82600160006101000a81548160ff021916908315150217905550505050565b60007f0000000000000000000000000000000000000000000000000000000000000000905060007f000000000000000000000000000000000000000000000000000000000000000073ffffffffffffffffffffffffffffffffffffffff166301e179dc6040518163ffffffff1660e01b8152600401606060405180830381865afa15801561031d573d6000803e3d6000fd5b505050506040513d601f19601f8201168201806040525081019061034191906109e5565b925050508173ffffffffffffffffffffffffffffffffffffffff163373ffffffffffffffffffffffffffffffffffffffff16141580156103ad57508073ffffffffffffffffffffffffffffffffffffffff163373ffffffffffffffffffffffffffffffffffffffff1614155b156103f15781816040517ff8b7c0c30000000000000000000000000000000000000000000000000000000081526004016103e8929190610a38565b60405180910390fd5b6103f9610626565b61042f576040517facfdb44400000000000000000000000000000000000000000000000000000000815260040160405180910390fd5b5050565b600160009054906101000a900460ff161561048557306040517fefaa447e00000000000000000000000000000000000000000000000000000000815260040161047c9190610a61565b60405180910390fd5b83600260000160006101000a81548173ffffffffffffffffffffffffffffffffffffffff021916908373ffffffffffffffffffffffffffffffffffffffff16021790555082600260000160146101000a81548160ff02191690831515021790555081600260000160156101000a81548160ff0219169083151502179055508060026001018190555060018060006101000a81548160ff02191690831515021790555050505050565b6000805461053a90610aab565b80601f016020809104026020016040519081016040528092919081815260200182805461056690610aab565b80156105b35780601f10610588576101008083540402835291602001916105b3565b820191906000526020600020905b81548152906001019060200180831161059657829003601f168201915b505050505081565b600160009054906101000a900460ff1681565b60028060000160009054906101000a900473ffffffffffffffffffffffffffffffffffffffff16908060000160149054906101000a900460ff16908060000160159054906101000a900460ff16908060010154905084565b60007f000000000000000000000000000000000000000000000000000000000000000073ffffffffffffffffffffffffffffffffffffffff1663626fae96600260000160009054906101000a900473ffffffffffffffffffffffffffffffffffffffff16600260000160149054906101000a900460ff16600260000160159054906101000a900460ff166002600101546040518563ffffffff1660e01b81526004016106d59493929190610976565b600060405180830381600087803b1580156106ef57600080fd5b505af1158015610703573d6000803e3d6000fd5b505050506001905090565b600080fd5b60008115159050919050565b61072881610713565b811461073357600080fd5b50565b6000813590506107458161071f565b92915050565b6000602082840312156107615761076061070e565b5b600061076f84828501610736565b91505092915050565b600073ffffffffffffffffffffffffffffffffffffffff82169050919050565b60006107a382610778565b9050919050565b6107b381610798565b81146107be57600080fd5b50565b6000813590506107d0816107aa565b92915050565b6000819050919050565b6107e9816107d6565b81146107f457600080fd5b50565b600081359050610806816107e0565b92915050565b600080600080608085870312156108265761082561070e565b5b6000610834878288016107c1565b945050602061084587828801610736565b935050604061085687828801610736565b9250506060610867878288016107f7565b91505092959194509250565b600081519050919050565b600082825260208201905092915050565b60005b838110156108ad578082015181840152602081019050610892565b838111156108bc576000848401525b50505050565b6000601f19601f8301169050919050565b60006108de82610873565b6108e8818561087e565b93506108f881856020860161088f565b610901816108c2565b840191505092915050565b6000602082019050818103600083015261092681846108d3565b905092915050565b61093781610713565b82525050565b6000602082019050610952600083018461092e565b92915050565b61096181610798565b82525050565b610970816107d6565b82525050565b600060808201905061098b6000830187610958565b610998602083018661092e565b6109a5604083018561092e565b6109b26060830184610967565b95945050505050565b6000815190506109ca816107e0565b92915050565b6000815190506109df816107aa565b92915050565b6000806000606084860312156109fe576109fd61070e565b5b6000610a0c868287016109bb565b9350506020610a1d868287016109bb565b9250506040610a2e868287016109d0565b9150509250925092565b6000604082019050610a4d6000830185610958565b610a5a6020830184610958565b9392505050565b6000602082019050610a766000830184610958565b92915050565b7f4e487b7100000000000000000000000000000000000000000000000000000000600052602260045260246000fd5b60006002820490506001821680610ac357607f821691505b602082108103610ad657610ad5610a7c565b5b5091905056fea26469706673582212201a935813029868688f704ee0d3b416f8956c80a2842b18d093e7d02c1ec7820164736f6c634300080d0033",
  "linkReferences": {},
  "deployedLinkReferences": {}
}