{
  "_format": "hh-sol-artifact-1",
  "contractName": "SimpleFateSpender",
  "sourceName": "contracts/testing/SimpleFateSpender.sol",
  "abi": [
    {
      "inputs": [
        {
          "internalType": "address",
          "name": "_dao",
          "type": "address"
        }
      ],
      "stateMutability": "nonpayable",
      "type": "constructor"
    },
    {
      "inputs": [
        {
          "internalType": "address",
          "name": "owner",
          "type": "address"
        }
      ],
      "name": "reduceBalance",
      "outputs": [],
      "stateMutability": "nonpayable",
      "type": "function"
    },
    {
      "inputs": [
        {
          "internalType": "address",
          "name": "owner",
          "type": "address"
        },
        {
          "internalType": "address",
          "name": "recipient",
          "type": "address"
        },
        {
          "internalType": "uint256",
          "name": "amount",
          "type": "uint256"
        }
      ],
      "name": "transfer",
      "outputs": [],
      "stateMutability": "nonpayable",
      "type": "function"
    }
  ],
  "bytecode": "0x608060405234801561001057600080fd5b506040516105ec3803806105ec833981810160405281019061003291906100db565b806000806101000a81548173ffffffffffffffffffffffffffffffffffffffff021916908373ffffffffffffffffffffffffffffffffffffffff16021790555050610108565b600080fd5b600073ffffffffffffffffffffffffffffffffffffffff82169050919050565b60006100a88261007d565b9050919050565b6100b88161009d565b81146100c357600080fd5b50565b6000815190506100d5816100af565b92915050565b6000602082840312156100f1576100f0610078565b5b60006100ff848285016100c6565b91505092915050565b6104d5806101176000396000f3fe608060405234801561001057600080fd5b50600436106100365760003560e01c80635673bf921461003b578063beabacc814610057575b600080fd5b610055600480360381019061005091906102b1565b610073565b005b610071600480360381019061006c9190610314565b6101ba565b005b60008060009054906101000a900473ffffffffffffffffffffffffffffffffffffffff1673ffffffffffffffffffffffffffffffffffffffff166339a8e3c2836040518263ffffffff1660e01b81526004016100cf9190610376565b606060405180830381865afa1580156100ec573d6000803e3d6000fd5b505050506040513d601f19601f8201168201806040525081019061011091906103a6565b5091505060006002826101239190610428565b905060008054906101000a900473ffffffffffffffffffffffffffffffffffffffff1673ffffffffffffffffffffffffffffffffffffffff166345af26d0846000846040518463ffffffff1660e01b815260040161018393929190610468565b600060405180830381600087803b15801561019d57600080fd5b505af11580156101b1573d6000803e3d6000fd5b50505050505050565b60008054906101000a900473ffffffffffffffffffffffffffffffffffffffff1673ffffffffffffffffffffffffffffffffffffffff166345af26d08484846040518463ffffffff1660e01b815260040161021793929190610468565b600060405180830381600087803b15801561023157600080fd5b505af1158015610245573d6000803e3d6000fd5b50505050505050565b600080fd5b600073ffffffffffffffffffffffffffffffffffffffff82169050919050565b600061027e82610253565b9050919050565b61028e81610273565b811461029957600080fd5b50565b6000813590506102ab81610285565b92915050565b6000602082840312156102c7576102c661024e565b5b60006102d58482850161029c565b91505092915050565b6000819050919050565b6102f1816102de565b81146102fc57600080fd5b50565b60008135905061030e816102e8565b92915050565b60008060006060848603121561032d5761032c61024e565b5b600061033b8682870161029c565b935050602061034c8682870161029c565b925050604061035d868287016102ff565b9150509250925092565b61037081610273565b82525050565b600060208201905061038b6000830184610367565b92915050565b6000815190506103a0816102e8565b92915050565b6000806000606084860312156103bf576103be61024e565b5b60006103cd86828701610391565b93505060206103de86828701610391565b92505060406103ef86828701610391565b9150509250925092565b7f4e487b7100000000000000000000000000000000000000000000000000000000600052601260045260246000fd5b6000610433826102de565b915061043e836102de565b92508261044e5761044d6103f9565b5b828204905092915050565b610462816102de565b82525050565b600060608201905061047d6000830186610367565b61048a6020830185610367565b6104976040830184610459565b94935050505056fea2646970667358221220fbe5b49feade463e617b3e1da53631dc5bdcee2b9f348bc5b44af7ba4535658664736f6c634300080d0033",
  "linkReferences": {},
  "deployedLinkReferences": {}
}