{
  "_format": "hh-sol-artifact-1",
  "contractName": "BogusProposal",
  "sourceName": "contracts/testing/BogusProposal.sol",
  "abi": [
    {
      "inputs": [
        {
          "internalType": "address",
          "name": "dao",
          "type": "address"
        },
        {
          "internalType": "string",
          "name": "_description",
          "type": "string"
        }
      ],
      "stateMutability": "nonpayable",
      "type": "constructor"
    },
    {
      "inputs": [],
      "name": "ExecutionFailed",
      "type": "error"
    },
    {
      "inputs": [
        {
          "internalType": "address",
          "name": "dao",
          "type": "address"
        },
        {
          "internalType": "address",
          "name": "factory",
          "type": "address"
        }
      ],
      "name": "OnlyFactoryOrDAO",
      "type": "error"
    },
    {
      "inputs": [
        {
          "internalType": "address",
          "name": "proposal",
          "type": "address"
        }
      ],
      "name": "ProposalLocked",
      "type": "error"
    },
    {
      "inputs": [],
      "name": "description",
      "outputs": [
        {
          "internalType": "string",
          "name": "",
          "type": "string"
        }
      ],
      "stateMutability": "view",
      "type": "function"
    },
    {
      "inputs": [],
      "name": "locked",
      "outputs": [
        {
          "internalType": "bool",
          "name": "",
          "type": "bool"
        }
      ],
      "stateMutability": "view",
      "type": "function"
    },
    {
      "inputs": [],
      "name": "orchestrateExecute",
      "outputs": [],
      "stateMutability": "nonpayable",
      "type": "function"
    },
    {
      "inputs": [
        {
          "internalType": "uint256",
          "name": "num",
          "type": "uint256"
        }
      ],
      "name": "parameterize",
      "outputs": [],
      "stateMutability": "nonpayable",
      "type": "function"
    },
    {
      "inputs": [
        {
          "internalType": "bool",
          "name": "_locked",
          "type": "bool"
        }
      ],
      "name": "setLocked",
      "outputs": [],
      "stateMutability": "nonpayable",
      "type": "function"
    }
  ],
  "bytecode": "0x60a06040523480156200001157600080fd5b5060405162000d6d38038062000d6d8339818101604052810190620000379190620003d4565b8160008054620000479062000469565b80601f0160208091040260200160405190810160405280929190818152602001828054620000759062000469565b8015620000c65780601f106200009a57610100808354040283529160200191620000c6565b820191906000526020600020905b815481529060010190602001808311620000a857829003601f168201915b50505050508173ffffffffffffffffffffffffffffffffffffffff1660808173ffffffffffffffffffffffffffffffffffffffff168152505080600090805190602001906200011792919062000122565b50505050506200049e565b828054620001309062000469565b90600052602060002090601f016020900481019282620001545760008555620001a0565b82601f106200016f57805160ff1916838001178555620001a0565b82800160010185558215620001a0579182015b828111156200019f57825182559160200191906001019062000182565b5b509050620001af9190620001b3565b5090565b5b80821115620001ce576000816000905550600101620001b4565b5090565b6000604051905090565b600080fd5b600080fd5b600073ffffffffffffffffffffffffffffffffffffffff82169050919050565b60006200021382620001e6565b9050919050565b620002258162000206565b81146200023157600080fd5b50565b60008151905062000245816200021a565b92915050565b600080fd5b600080fd5b6000601f19601f8301169050919050565b7f4e487b7100000000000000000000000000000000000000000000000000000000600052604160045260246000fd5b620002a08262000255565b810181811067ffffffffffffffff82111715620002c257620002c162000266565b5b80604052505050565b6000620002d7620001d2565b9050620002e5828262000295565b919050565b600067ffffffffffffffff82111562000308576200030762000266565b5b620003138262000255565b9050602081019050919050565b60005b838110156200034057808201518184015260208101905062000323565b8381111562000350576000848401525b50505050565b60006200036d6200036784620002ea565b620002cb565b9050828152602081018484840111156200038c576200038b62000250565b5b6200039984828562000320565b509392505050565b600082601f830112620003b957620003b86200024b565b5b8151620003cb84826020860162000356565b91505092915050565b60008060408385031215620003ee57620003ed620001dc565b5b6000620003fe8582860162000234565b925050602083015167ffffffffffffffff811115620004225762000421620001e1565b5b6200043085828601620003a1565b9150509250929050565b7f4e487b7100000000000000000000000000000000000000000000000000000000600052602260045260246000fd5b600060028204905060018216806200048257607f821691505b6020821081036200049857620004976200043a565b5b50919050565b60805161089f620004ce6000396000818160de01528181610103015281816102630152610288015261089f6000f3fe608060405234801561001057600080fd5b50600436106100575760003560e01c8063211e28b61461005c5780633e7f6c64146100785780637284e41614610082578063cf309012146100a0578063f17ad0bf146100be575b600080fd5b6100766004803603810190610071919061057b565b6100da565b005b61008061025f565b005b61008a610407565b6040516100979190610641565b60405180910390f35b6100a8610495565b6040516100b59190610672565b60405180910390f35b6100d860048036038101906100d391906106c3565b6104a8565b005b60007f0000000000000000000000000000000000000000000000000000000000000000905060007f000000000000000000000000000000000000000000000000000000000000000073ffffffffffffffffffffffffffffffffffffffff166301e179dc6040518163ffffffff1660e01b8152600401606060405180830381865afa15801561016c573d6000803e3d6000fd5b505050506040513d601f19601f820116820180604052508101906101909190610763565b925050508173ffffffffffffffffffffffffffffffffffffffff163373ffffffffffffffffffffffffffffffffffffffff16141580156101fc57508073ffffffffffffffffffffffffffffffffffffffff163373ffffffffffffffffffffffffffffffffffffffff1614155b156102405781816040517ff8b7c0c30000000000000000000000000000000000000000000000000000000081526004016102379291906107c5565b60405180910390fd5b82600160006101000a81548160ff021916908315150217905550505050565b60007f0000000000000000000000000000000000000000000000000000000000000000905060007f000000000000000000000000000000000000000000000000000000000000000073ffffffffffffffffffffffffffffffffffffffff166301e179dc6040518163ffffffff1660e01b8152600401606060405180830381865afa1580156102f1573d6000803e3d6000fd5b505050506040513d601f19601f820116820180604052508101906103159190610763565b925050508173ffffffffffffffffffffffffffffffffffffffff163373ffffffffffffffffffffffffffffffffffffffff161415801561038157508073ffffffffffffffffffffffffffffffffffffffff163373ffffffffffffffffffffffffffffffffffffffff1614155b156103c55781816040517ff8b7c0c30000000000000000000000000000000000000000000000000000000081526004016103bc9291906107c5565b60405180910390fd5b6103cd61051e565b610403576040517facfdb44400000000000000000000000000000000000000000000000000000000815260040160405180910390fd5b5050565b600080546104149061081d565b80601f01602080910402602001604051908101604052809291908181526020018280546104409061081d565b801561048d5780601f106104625761010080835404028352916020019161048d565b820191906000526020600020905b81548152906001019060200180831161047057829003601f168201915b505050505081565b600160009054906101000a900460ff1681565b600160009054906101000a900460ff16156104fa57306040517fefaa447e0000000000000000000000000000000000000000000000000000000081526004016104f1919061084e565b60405180910390fd5b8060028190555060018060006101000a81548160ff02191690831515021790555050565b60006127106002541161053057600080fd5b600280819055506001905090565b600080fd5b60008115159050919050565b61055881610543565b811461056357600080fd5b50565b6000813590506105758161054f565b92915050565b6000602082840312156105915761059061053e565b5b600061059f84828501610566565b91505092915050565b600081519050919050565b600082825260208201905092915050565b60005b838110156105e25780820151818401526020810190506105c7565b838111156105f1576000848401525b50505050565b6000601f19601f8301169050919050565b6000610613826105a8565b61061d81856105b3565b935061062d8185602086016105c4565b610636816105f7565b840191505092915050565b6000602082019050818103600083015261065b8184610608565b905092915050565b61066c81610543565b82525050565b60006020820190506106876000830184610663565b92915050565b6000819050919050565b6106a08161068d565b81146106ab57600080fd5b50565b6000813590506106bd81610697565b92915050565b6000602082840312156106d9576106d861053e565b5b60006106e7848285016106ae565b91505092915050565b6000815190506106ff81610697565b92915050565b600073ffffffffffffffffffffffffffffffffffffffff82169050919050565b600061073082610705565b9050919050565b61074081610725565b811461074b57600080fd5b50565b60008151905061075d81610737565b92915050565b60008060006060848603121561077c5761077b61053e565b5b600061078a868287016106f0565b935050602061079b868287016106f0565b92505060406107ac8682870161074e565b9150509250925092565b6107bf81610725565b82525050565b60006040820190506107da60008301856107b6565b6107e760208301846107b6565b9392505050565b7f4e487b7100000000000000000000000000000000000000000000000000000000600052602260045260246000fd5b6000600282049050600182168061083557607f821691505b602082108103610848576108476107ee565b5b50919050565b600060208201905061086360008301846107b6565b9291505056fea264697066735822122060c3a420668de59fd204b76d3d66aa7903456126a234e2b56e000fbb943348b464736f6c634300080d0033",
  "linkReferences": {},
  "deployedLinkReferences": {}
}