{
  "_format": "hh-sol-artifact-1",
  "contractName": "MockMorgothTokenApprover",
  "sourceName": "contracts/testing/MockMorgothTokenApprover.sol",
  "abi": [
    {
      "inputs": [
        {
          "internalType": "address",
          "name": "token",
          "type": "address"
        }
      ],
      "name": "addToken",
      "outputs": [],
      "stateMutability": "nonpayable",
      "type": "function"
    },
    {
      "inputs": [
        {
          "internalType": "address",
          "name": "token",
          "type": "address"
        }
      ],
      "name": "approved",
      "outputs": [
        {
          "internalType": "bool",
          "name": "",
          "type": "bool"
        }
      ],
      "stateMutability": "view",
      "type": "function"
    },
    {
      "inputs": [
        {
          "internalType": "address",
          "name": "",
          "type": "address"
        }
      ],
      "name": "approvedTokens",
      "outputs": [
        {
          "internalType": "bool",
          "name": "",
          "type": "bool"
        }
      ],
      "stateMutability": "view",
      "type": "function"
    },
    {
      "inputs": [
        {
          "internalType": "address",
          "name": "token",
          "type": "address"
        }
      ],
      "name": "removeToken",
      "outputs": [],
      "stateMutability": "nonpayable",
      "type": "function"
    },
    {
      "inputs": [
        {
          "internalType": "address[]",
          "name": "tokens",
          "type": "address[]"
        },
        {
          "internalType": "bool",
          "name": "value",
          "type": "bool"
        }
      ],
      "name": "toggleManyTokens",
      "outputs": [],
      "stateMutability": "nonpayable",
      "type": "function"
    }
  ],
  "bytecode": "0x608060405234801561001057600080fd5b50610669806100206000396000f3fe608060405234801561001057600080fd5b50600436106100575760003560e01c8063145371dc1461005c5780635fa7b584146100785780636d1ea3fa14610094578063d48bfca7146100c4578063d8b964e6146100e0575b600080fd5b610076600480360381019061007191906104d0565b610110565b005b610092600480360381019061008d919061052c565b6101a4565b005b6100ae60048036038101906100a9919061052c565b6101fe565b6040516100bb9190610568565b60405180910390f35b6100de60048036038101906100d9919061052c565b61021e565b005b6100fa60048036038101906100f5919061052c565b610278565b6040516101079190610568565b60405180910390f35b60005b825181101561019f578160008085848151811061013357610132610583565b5b602002602001015173ffffffffffffffffffffffffffffffffffffffff1673ffffffffffffffffffffffffffffffffffffffff16815260200190815260200160002060006101000a81548160ff0219169083151502179055508080610197906105eb565b915050610113565b505050565b60008060008373ffffffffffffffffffffffffffffffffffffffff1673ffffffffffffffffffffffffffffffffffffffff16815260200190815260200160002060006101000a81548160ff02191690831515021790555050565b60006020528060005260406000206000915054906101000a900460ff1681565b60016000808373ffffffffffffffffffffffffffffffffffffffff1673ffffffffffffffffffffffffffffffffffffffff16815260200190815260200160002060006101000a81548160ff02191690831515021790555050565b60008060008373ffffffffffffffffffffffffffffffffffffffff1673ffffffffffffffffffffffffffffffffffffffff16815260200190815260200160002060009054906101000a900460ff169050919050565b6000604051905090565b600080fd5b600080fd5b600080fd5b6000601f19601f8301169050919050565b7f4e487b7100000000000000000000000000000000000000000000000000000000600052604160045260246000fd5b61032f826102e6565b810181811067ffffffffffffffff8211171561034e5761034d6102f7565b5b80604052505050565b60006103616102cd565b905061036d8282610326565b919050565b600067ffffffffffffffff82111561038d5761038c6102f7565b5b602082029050602081019050919050565b600080fd5b600073ffffffffffffffffffffffffffffffffffffffff82169050919050565b60006103ce826103a3565b9050919050565b6103de816103c3565b81146103e957600080fd5b50565b6000813590506103fb816103d5565b92915050565b600061041461040f84610372565b610357565b905080838252602082019050602084028301858111156104375761043661039e565b5b835b81811015610460578061044c88826103ec565b845260208401935050602081019050610439565b5050509392505050565b600082601f83011261047f5761047e6102e1565b5b813561048f848260208601610401565b91505092915050565b60008115159050919050565b6104ad81610498565b81146104b857600080fd5b50565b6000813590506104ca816104a4565b92915050565b600080604083850312156104e7576104e66102d7565b5b600083013567ffffffffffffffff811115610505576105046102dc565b5b6105118582860161046a565b9250506020610522858286016104bb565b9150509250929050565b600060208284031215610542576105416102d7565b5b6000610550848285016103ec565b91505092915050565b61056281610498565b82525050565b600060208201905061057d6000830184610559565b92915050565b7f4e487b7100000000000000000000000000000000000000000000000000000000600052603260045260246000fd5b7f4e487b7100000000000000000000000000000000000000000000000000000000600052601160045260246000fd5b6000819050919050565b60006105f6826105e1565b91507fffffffffffffffffffffffffffffffffffffffffffffffffffffffffffffffff8203610628576106276105b2565b5b60018201905091905056fea2646970667358221220402b3231d19e618f516fc07e1896e1c60000ff54c849e6be7c2c3ed5042e536b64736f6c634300080d0033",
  "linkReferences": {},
  "deployedLinkReferences": {}
}