{
  "_format": "hh-sol-artifact-1",
  "contractName": "MockBehodler",
  "sourceName": "contracts/testing/MockBehodler.sol",
  "abi": [
    {
      "inputs": [
        {
          "internalType": "string",
          "name": "name",
          "type": "string"
        },
        {
          "internalType": "string",
          "name": "symbol",
          "type": "string"
        },
        {
          "internalType": "address",
          "name": "_addTokenPower",
          "type": "address"
        }
      ],
      "stateMutability": "nonpayable",
      "type": "constructor"
    },
    {
      "inputs": [
        {
          "internalType": "uint256",
          "name": "allowance",
          "type": "uint256"
        },
        {
          "internalType": "uint256",
          "name": "amount",
          "type": "uint256"
        }
      ],
      "name": "AllowanceExceeded",
      "type": "error"
    },
    {
      "inputs": [
        {
          "internalType": "uint256",
          "name": "allowance",
          "type": "uint256"
        },
        {
          "internalType": "uint256",
          "name": "subtraction",
          "type": "uint256"
        }
      ],
      "name": "AllowanceUnderflow",
      "type": "error"
    },
    {
      "inputs": [
        {
          "internalType": "uint256",
          "name": "accountBalance",
          "type": "uint256"
        },
        {
          "internalType": "uint256",
          "name": "amount",
          "type": "uint256"
        }
      ],
      "name": "BurnUnderflow",
      "type": "error"
    },
    {
      "inputs": [
        {
          "internalType": "address",
          "name": "caller",
          "type": "address"
        },
        {
          "internalType": "address",
          "name": "owner",
          "type": "address"
        }
      ],
      "name": "OnlyOwner",
      "type": "error"
    },
    {
      "inputs": [],
      "name": "TransferToZeroAddress",
      "type": "error"
    },
    {
      "anonymous": false,
      "inputs": [
        {
          "indexed": true,
          "internalType": "address",
          "name": "owner",
          "type": "address"
        },
        {
          "indexed": true,
          "internalType": "address",
          "name": "spender",
          "type": "address"
        },
        {
          "indexed": false,
          "internalType": "uint256",
          "name": "value",
          "type": "uint256"
        }
      ],
      "name": "Approval",
      "type": "event"
    },
    {
      "anonymous": false,
      "inputs": [
        {
          "indexed": true,
          "internalType": "address",
          "name": "previousOwner",
          "type": "address"
        },
        {
          "indexed": true,
          "internalType": "address",
          "name": "newOwner",
          "type": "address"
        }
      ],
      "name": "OwnershipTransferred",
      "type": "event"
    },
    {
      "anonymous": false,
      "inputs": [
        {
          "indexed": true,
          "internalType": "address",
          "name": "from",
          "type": "address"
        },
        {
          "indexed": true,
          "internalType": "address",
          "name": "to",
          "type": "address"
        },
        {
          "indexed": false,
          "internalType": "uint256",
          "name": "value",
          "type": "uint256"
        }
      ],
      "name": "Transfer",
      "type": "event"
    },
    {
      "inputs": [
        {
          "internalType": "address",
          "name": "owner",
          "type": "address"
        },
        {
          "internalType": "address",
          "name": "spender",
          "type": "address"
        }
      ],
      "name": "allowance",
      "outputs": [
        {
          "internalType": "uint256",
          "name": "",
          "type": "uint256"
        }
      ],
      "stateMutability": "view",
      "type": "function"
    },
    {
      "inputs": [
        {
          "internalType": "address",
          "name": "spender",
          "type": "address"
        },
        {
          "internalType": "uint256",
          "name": "amount",
          "type": "uint256"
        }
      ],
      "name": "approve",
      "outputs": [
        {
          "internalType": "bool",
          "name": "",
          "type": "bool"
        }
      ],
      "stateMutability": "nonpayable",
      "type": "function"
    },
    {
      "inputs": [
        {
          "internalType": "address",
          "name": "account",
          "type": "address"
        }
      ],
      "name": "balanceOf",
      "outputs": [
        {
          "internalType": "uint256",
          "name": "",
          "type": "uint256"
        }
      ],
      "stateMutability": "view",
      "type": "function"
    },
    {
      "inputs": [
        {
          "internalType": "uint256",
          "name": "amount",
          "type": "uint256"
        }
      ],
      "name": "burn",
      "outputs": [
        {
          "internalType": "bool",
          "name": "",
          "type": "bool"
        }
      ],
      "stateMutability": "nonpayable",
      "type": "function"
    },
    {
      "inputs": [
        {
          "internalType": "address",
          "name": "account",
          "type": "address"
        },
        {
          "internalType": "uint256",
          "name": "amount",
          "type": "uint256"
        }
      ],
      "name": "burnFrom",
      "outputs": [],
      "stateMutability": "nonpayable",
      "type": "function"
    },
    {
      "inputs": [],
      "name": "config",
      "outputs": [
        {
          "internalType": "uint256",
          "name": "transferFee",
          "type": "uint256"
        },
        {
          "internalType": "uint256",
          "name": "burnFee",
          "type": "uint256"
        },
        {
          "internalType": "address",
          "name": "feeDestination",
          "type": "address"
        }
      ],
      "stateMutability": "view",
      "type": "function"
    },
    {
      "inputs": [],
      "name": "decimals",
      "outputs": [
        {
          "internalType": "uint8",
          "name": "",
          "type": "uint8"
        }
      ],
      "stateMutability": "view",
      "type": "function"
    },
    {
      "inputs": [
        {
          "internalType": "address",
          "name": "spender",
          "type": "address"
        },
        {
          "internalType": "uint256",
          "name": "subtractedValue",
          "type": "uint256"
        }
      ],
      "name": "decreaseAllowance",
      "outputs": [
        {
          "internalType": "bool",
          "name": "",
          "type": "bool"
        }
      ],
      "stateMutability": "nonpayable",
      "type": "function"
    },
    {
      "inputs": [
        {
          "internalType": "address",
          "name": "spender",
          "type": "address"
        },
        {
          "internalType": "uint256",
          "name": "addedValue",
          "type": "uint256"
        }
      ],
      "name": "increaseAllowance",
      "outputs": [
        {
          "internalType": "bool",
          "name": "",
          "type": "bool"
        }
      ],
      "stateMutability": "nonpayable",
      "type": "function"
    },
    {
      "inputs": [
        {
          "internalType": "uint256",
          "name": "amount",
          "type": "uint256"
        }
      ],
      "name": "mint",
      "outputs": [],
      "stateMutability": "nonpayable",
      "type": "function"
    },
    {
      "inputs": [
        {
          "internalType": "address",
          "name": "recipient",
          "type": "address"
        },
        {
          "internalType": "uint256",
          "name": "amount",
          "type": "uint256"
        }
      ],
      "name": "mintTo",
      "outputs": [],
      "stateMutability": "nonpayable",
      "type": "function"
    },
    {
      "inputs": [],
      "name": "name",
      "outputs": [
        {
          "internalType": "string",
          "name": "",
          "type": "string"
        }
      ],
      "stateMutability": "view",
      "type": "function"
    },
    {
      "inputs": [],
      "name": "owner",
      "outputs": [
        {
          "internalType": "address",
          "name": "",
          "type": "address"
        }
      ],
      "stateMutability": "view",
      "type": "function"
    },
    {
      "inputs": [
        {
          "internalType": "uint256",
          "name": "_priceMultiplier",
          "type": "uint256"
        }
      ],
      "name": "setPriceMultiplier",
      "outputs": [],
      "stateMutability": "nonpayable",
      "type": "function"
    },
    {
      "inputs": [],
      "name": "symbol",
      "outputs": [
        {
          "internalType": "string",
          "name": "",
          "type": "string"
        }
      ],
      "stateMutability": "view",
      "type": "function"
    },
    {
      "inputs": [],
      "name": "totalSupply",
      "outputs": [
        {
          "internalType": "uint256",
          "name": "",
          "type": "uint256"
        }
      ],
      "stateMutability": "view",
      "type": "function"
    },
    {
      "inputs": [
        {
          "internalType": "address",
          "name": "recipient",
          "type": "address"
        },
        {
          "internalType": "uint256",
          "name": "amount",
          "type": "uint256"
        }
      ],
      "name": "transfer",
      "outputs": [
        {
          "internalType": "bool",
          "name": "",
          "type": "bool"
        }
      ],
      "stateMutability": "nonpayable",
      "type": "function"
    },
    {
      "inputs": [
        {
          "internalType": "address",
          "name": "_to",
          "type": "address"
        },
        {
          "internalType": "uint256",
          "name": "_value",
          "type": "uint256"
        },
        {
          "internalType": "bytes",
          "name": "_data",
          "type": "bytes"
        }
      ],
      "name": "transferAndCall",
      "outputs": [
        {
          "internalType": "bool",
          "name": "success",
          "type": "bool"
        }
      ],
      "stateMutability": "nonpayable",
      "type": "function"
    },
    {
      "inputs": [
        {
          "internalType": "address",
          "name": "sender",
          "type": "address"
        },
        {
          "internalType": "address",
          "name": "recipient",
          "type": "address"
        },
        {
          "internalType": "uint256",
          "name": "amount",
          "type": "uint256"
        }
      ],
      "name": "transferFrom",
      "outputs": [
        {
          "internalType": "bool",
          "name": "",
          "type": "bool"
        }
      ],
      "stateMutability": "nonpayable",
      "type": "function"
    },
    {
      "inputs": [
        {
          "internalType": "address",
          "name": "newOwner",
          "type": "address"
        }
      ],
      "name": "transferOwnership",
      "outputs": [],
      "stateMutability": "nonpayable",
      "type": "function"
    },
    {
      "inputs": [
        {
          "internalType": "address",
          "name": "outputToken",
          "type": "address"
        },
        {
          "internalType": "uint256",
          "name": "tokensToRelease",
          "type": "uint256"
        },
        {
          "internalType": "uint256",
          "name": "scx",
          "type": "uint256"
        },
        {
          "internalType": "uint256",
          "name": "passes",
          "type": "uint256"
        }
      ],
      "name": "withdrawLiquidityFindSCX",
      "outputs": [
        {
          "internalType": "uint256",
          "name": "",
          "type": "uint256"
        }
      ],
      "stateMutability": "view",
      "type": "function"
    }
  ],
  "bytecode": "0x608060405260c860075573aa645185f79506175917ae2fdd3128e4711d4065600860006101000a81548173ffffffffffffffffffffffffffffffffffffffff021916908373ffffffffffffffffffffffffffffffffffffffff1602179055503480156200006b57600080fd5b50604051620024b1380380620024b1833981810160405281019062000091919062000598565b828281818160039080519060200190620000ad929190620002e6565b508060049080519060200190620000c6929190620002e6565b505050620000da336200014260201b60201c565b5050620000f83369d3c21bcecceda10000006200020860201b60201c565b80600660006101000a81548173ffffffffffffffffffffffffffffffffffffffff021916908373ffffffffffffffffffffffffffffffffffffffff1602179055505050506200075a565b6000600560009054906101000a900473ffffffffffffffffffffffffffffffffffffffff16905081600560006101000a81548173ffffffffffffffffffffffffffffffffffffffff021916908373ffffffffffffffffffffffffffffffffffffffff1602179055508173ffffffffffffffffffffffffffffffffffffffff168173ffffffffffffffffffffffffffffffffffffffff167f8be0079c531659141344cd1fd0a4f28419497f9722a3daafe3b4186f6b6457e060405160405180910390a35050565b80600260008282546200021c91906200066b565b92505081905550806000808473ffffffffffffffffffffffffffffffffffffffff1673ffffffffffffffffffffffffffffffffffffffff16815260200190815260200160002060008282546200027391906200066b565b925050819055508173ffffffffffffffffffffffffffffffffffffffff16600073ffffffffffffffffffffffffffffffffffffffff167fddf252ad1be2c89b69c2b068fc378daa952ba7f163c4a11628f55a4df523b3ef83604051620002da9190620006d9565b60405180910390a35050565b828054620002f49062000725565b90600052602060002090601f01602090048101928262000318576000855562000364565b82601f106200033357805160ff191683800117855562000364565b8280016001018555821562000364579182015b828111156200036357825182559160200191906001019062000346565b5b50905062000373919062000377565b5090565b5b808211156200039257600081600090555060010162000378565b5090565b6000604051905090565b600080fd5b600080fd5b600080fd5b600080fd5b6000601f19601f8301169050919050565b7f4e487b7100000000000000000000000000000000000000000000000000000000600052604160045260246000fd5b620003ff82620003b4565b810181811067ffffffffffffffff82111715620004215762000420620003c5565b5b80604052505050565b60006200043662000396565b9050620004448282620003f4565b919050565b600067ffffffffffffffff821115620004675762000466620003c5565b5b6200047282620003b4565b9050602081019050919050565b60005b838110156200049f57808201518184015260208101905062000482565b83811115620004af576000848401525b50505050565b6000620004cc620004c68462000449565b6200042a565b905082815260208101848484011115620004eb57620004ea620003af565b5b620004f88482856200047f565b509392505050565b600082601f830112620005185762000517620003aa565b5b81516200052a848260208601620004b5565b91505092915050565b600073ffffffffffffffffffffffffffffffffffffffff82169050919050565b6000620005608262000533565b9050919050565b620005728162000553565b81146200057e57600080fd5b50565b600081519050620005928162000567565b92915050565b600080600060608486031215620005b457620005b3620003a0565b5b600084015167ffffffffffffffff811115620005d557620005d4620003a5565b5b620005e38682870162000500565b935050602084015167ffffffffffffffff811115620006075762000606620003a5565b5b620006158682870162000500565b9250506040620006288682870162000581565b9150509250925092565b6000819050919050565b7f4e487b7100000000000000000000000000000000000000000000000000000000600052601160045260246000fd5b6000620006788262000632565b9150620006858362000632565b9250827fffffffffffffffffffffffffffffffffffffffffffffffffffffffffffffffff03821115620006bd57620006bc6200063c565b5b828201905092915050565b620006d38162000632565b82525050565b6000602082019050620006f06000830184620006c8565b92915050565b7f4e487b7100000000000000000000000000000000000000000000000000000000600052602260045260246000fd5b600060028204905060018216806200073e57607f821691505b602082108103620007545762000753620006f6565b5b50919050565b611d47806200076a6000396000f3fe608060405234801561001057600080fd5b50600436106101375760003560e01c806370a08231116100b857806395d89b411161007c57806395d89b4114610378578063a0712d6814610396578063a457c2d7146103b2578063a9059cbb146103e2578063dd62ed3e14610412578063f2fde38b1461044257610137565b806370a08231146102be57806372c3fdd9146102ee57806379502c551461031e57806379cc67901461033e5780638da5cb5b1461035a57610137565b8063313ce567116100ff578063313ce567146101f457806339509351146102125780634000aea01461024257806342966c6814610272578063449a52f8146102a257610137565b806306fdde031461013c578063095ea7b31461015a57806318160ddd1461018a5780632081c4ea146101a857806323b872dd146101c4575b600080fd5b61014461045e565b60405161015191906113a9565b60405180910390f35b610174600480360381019061016f9190611473565b6104f0565b60405161018191906114ce565b60405180910390f35b610192610507565b60405161019f91906114f8565b60405180910390f35b6101c260048036038101906101bd9190611513565b610511565b005b6101de60048036038101906101d99190611540565b61051b565b6040516101eb91906114ce565b60405180910390f35b6101fc61063e565b60405161020991906115af565b60405180910390f35b61022c60048036038101906102279190611473565b610647565b60405161023991906114ce565b60405180910390f35b61025c600480360381019061025791906116ff565b6106e5565b60405161026991906114ce565b60405180910390f35b61028c60048036038101906102879190611513565b610717565b60405161029991906114ce565b60405180910390f35b6102bc60048036038101906102b79190611473565b61072c565b005b6102d860048036038101906102d3919061176e565b61073a565b6040516102e591906114f8565b60405180910390f35b6103086004803603810190610303919061179b565b610782565b60405161031591906114f8565b60405180910390f35b61032661079c565b60405161033593929190611811565b60405180910390f35b61035860048036038101906103539190611473565b6107d3565b005b61036261084d565b60405161036f9190611848565b60405180910390f35b610380610877565b60405161038d91906113a9565b60405180910390f35b6103b060048036038101906103ab9190611513565b610909565b005b6103cc60048036038101906103c79190611473565b6109a6565b6040516103d991906114ce565b60405180910390f35b6103fc60048036038101906103f79190611473565b610a87565b60405161040991906114ce565b60405180910390f35b61042c60048036038101906104279190611863565b610a9e565b60405161043991906114f8565b60405180910390f35b61045c6004803603810190610457919061176e565b610b25565b005b60606003805461046d906118d2565b80601f0160208091040260200160405190810160405280929190818152602001828054610499906118d2565b80156104e65780601f106104bb576101008083540402835291602001916104e6565b820191906000526020600020905b8154815290600101906020018083116104c957829003601f168201915b5050505050905090565b60006104fd338484610c0e565b6001905092915050565b6000600254905090565b8060078190555050565b6000610528848484610cf9565b6000600160008673ffffffffffffffffffffffffffffffffffffffff1673ffffffffffffffffffffffffffffffffffffffff16815260200190815260200160002060003373ffffffffffffffffffffffffffffffffffffffff1673ffffffffffffffffffffffffffffffffffffffff1681526020019081526020016000205490507fffffffffffffffffffffffffffffffffffffffffffffffffffffffffffffffff81141580156105d857508083115b1561061c5780836040517fa9248256000000000000000000000000000000000000000000000000000000008152600401610613929190611903565b60405180910390fd5b6106328533858461062d919061195b565b610c0e565b60019150509392505050565b60006012905090565b60006106db338484600160003373ffffffffffffffffffffffffffffffffffffffff1673ffffffffffffffffffffffffffffffffffffffff16815260200190815260200160002060008873ffffffffffffffffffffffffffffffffffffffff1673ffffffffffffffffffffffffffffffffffffffff168152602001908152602001600020546106d6919061198f565b610c0e565b6001905092915050565b60006106f2338585610cf9565b6106fb84611061565b1561070c5761070b848484611074565b5b600190509392505050565b600061072333836110ee565b60019050919050565b6107368282611238565b5050565b60008060008373ffffffffffffffffffffffffffffffffffffffff1673ffffffffffffffffffffffffffffffffffffffff168152602001908152602001600020549050919050565b60008260075461079291906119e5565b9050949350505050565b6000806000600f925060059150600860009054906101000a900473ffffffffffffffffffffffffffffffffffffffff169050909192565b60006107df8333610a9e565b9050818110156108285780826040517fa924825600000000000000000000000000000000000000000000000000000000815260040161081f929190611903565b60405180910390fd5b61083e83338484610839919061195b565b610c0e565b61084883836110ee565b505050565b6000600560009054906101000a900473ffffffffffffffffffffffffffffffffffffffff16905090565b606060048054610886906118d2565b80601f01602080910402602001604051908101604052809291908181526020018280546108b2906118d2565b80156108ff5780601f106108d4576101008083540402835291602001916108ff565b820191906000526020600020905b8154815290600101906020018083116108e257829003601f168201915b5050505050905090565b600660009054906101000a900473ffffffffffffffffffffffffffffffffffffffff1673ffffffffffffffffffffffffffffffffffffffff163373ffffffffffffffffffffffffffffffffffffffff1614610999576040517f08c379a000000000000000000000000000000000000000000000000000000000815260040161099090611ab1565b60405180910390fd5b6109a33382611238565b50565b600080600160003373ffffffffffffffffffffffffffffffffffffffff1673ffffffffffffffffffffffffffffffffffffffff16815260200190815260200160002060008573ffffffffffffffffffffffffffffffffffffffff1673ffffffffffffffffffffffffffffffffffffffff16815260200190815260200160002054905082811015610a6f5780836040517fda2d822c000000000000000000000000000000000000000000000000000000008152600401610a66929190611903565b60405180910390fd5b610a7c3385858403610c0e565b600191505092915050565b6000610a94338484610cf9565b6001905092915050565b6000600160008473ffffffffffffffffffffffffffffffffffffffff1673ffffffffffffffffffffffffffffffffffffffff16815260200190815260200160002060008373ffffffffffffffffffffffffffffffffffffffff1673ffffffffffffffffffffffffffffffffffffffff16815260200190815260200160002054905092915050565b3373ffffffffffffffffffffffffffffffffffffffff16610b4461084d565b73ffffffffffffffffffffffffffffffffffffffff1614610ba55733610b6861084d565b6040517fa3ee740f000000000000000000000000000000000000000000000000000000008152600401610b9c929190611ad1565b60405180910390fd5b600073ffffffffffffffffffffffffffffffffffffffff168173ffffffffffffffffffffffffffffffffffffffff1603610c0b576040517fea553b3400000000000000000000000000000000000000000000000000000000815260040160405180910390fd5b50565b80600160008573ffffffffffffffffffffffffffffffffffffffff1673ffffffffffffffffffffffffffffffffffffffff16815260200190815260200160002060008473ffffffffffffffffffffffffffffffffffffffff1673ffffffffffffffffffffffffffffffffffffffff168152602001908152602001600020819055508173ffffffffffffffffffffffffffffffffffffffff168373ffffffffffffffffffffffffffffffffffffffff167f8c5be1e5ebec7d5bd14f71427d1e84f3dd0314c0f7b2291e5b200ac8c7c3b92583604051610cec91906114f8565b60405180910390a3505050565b600073ffffffffffffffffffffffffffffffffffffffff168373ffffffffffffffffffffffffffffffffffffffff1603610d68576040517f08c379a0000000000000000000000000000000000000000000000000000000008152600401610d5f90611b6c565b60405180910390fd5b600073ffffffffffffffffffffffffffffffffffffffff168273ffffffffffffffffffffffffffffffffffffffff1603610dd7576040517f08c379a0000000000000000000000000000000000000000000000000000000008152600401610dce90611bfe565b60405180910390fd5b6000806000610de461079c565b92509250925060006103e88585610dfb91906119e5565b610e059190611c4d565b905060006103e88685610e1891906119e5565b610e229190611c4d565b905080600254610e32919061195b565b600281905550816000808573ffffffffffffffffffffffffffffffffffffffff1673ffffffffffffffffffffffffffffffffffffffff16815260200190815260200160002054610e82919061198f565b6000808573ffffffffffffffffffffffffffffffffffffffff1673ffffffffffffffffffffffffffffffffffffffff16815260200190815260200160002081905550856000808a73ffffffffffffffffffffffffffffffffffffffff1673ffffffffffffffffffffffffffffffffffffffff16815260200190815260200160002054610f0e919061195b565b6000808a73ffffffffffffffffffffffffffffffffffffffff1673ffffffffffffffffffffffffffffffffffffffff168152602001908152602001600020819055508082610f5c919061198f565b86610f67919061195b565b6000808973ffffffffffffffffffffffffffffffffffffffff1673ffffffffffffffffffffffffffffffffffffffff16815260200190815260200160002054610fb0919061198f565b6000808973ffffffffffffffffffffffffffffffffffffffff1673ffffffffffffffffffffffffffffffffffffffff168152602001908152602001600020819055508673ffffffffffffffffffffffffffffffffffffffff168873ffffffffffffffffffffffffffffffffffffffff167fddf252ad1be2c89b69c2b068fc378daa952ba7f163c4a11628f55a4df523b3ef8860405161104f91906114f8565b60405180910390a35050505050505050565b600080823b905060008111915050919050565b60008390508073ffffffffffffffffffffffffffffffffffffffff1663a4c0ed363385856040518463ffffffff1660e01b81526004016110b693929190611cd3565b600060405180830381600087803b1580156110d057600080fd5b505af11580156110e4573d6000803e3d6000fd5b5050505050505050565b60008060008473ffffffffffffffffffffffffffffffffffffffff1673ffffffffffffffffffffffffffffffffffffffff168152602001908152602001600020549050818110156111785780826040517f0a37dd4100000000000000000000000000000000000000000000000000000000815260040161116f929190611903565b60405180910390fd5b8181036000808573ffffffffffffffffffffffffffffffffffffffff1673ffffffffffffffffffffffffffffffffffffffff1681526020019081526020016000208190555081600260008282540392505081905550600073ffffffffffffffffffffffffffffffffffffffff168373ffffffffffffffffffffffffffffffffffffffff167fddf252ad1be2c89b69c2b068fc378daa952ba7f163c4a11628f55a4df523b3ef8460405161122b91906114f8565b60405180910390a3505050565b806002600082825461124a919061198f565b92505081905550806000808473ffffffffffffffffffffffffffffffffffffffff1673ffffffffffffffffffffffffffffffffffffffff168152602001908152602001600020600082825461129f919061198f565b925050819055508173ffffffffffffffffffffffffffffffffffffffff16600073ffffffffffffffffffffffffffffffffffffffff167fddf252ad1be2c89b69c2b068fc378daa952ba7f163c4a11628f55a4df523b3ef8360405161130491906114f8565b60405180910390a35050565b600081519050919050565b600082825260208201905092915050565b60005b8381101561134a57808201518184015260208101905061132f565b83811115611359576000848401525b50505050565b6000601f19601f8301169050919050565b600061137b82611310565b611385818561131b565b935061139581856020860161132c565b61139e8161135f565b840191505092915050565b600060208201905081810360008301526113c38184611370565b905092915050565b6000604051905090565b600080fd5b600080fd5b600073ffffffffffffffffffffffffffffffffffffffff82169050919050565b600061140a826113df565b9050919050565b61141a816113ff565b811461142557600080fd5b50565b60008135905061143781611411565b92915050565b6000819050919050565b6114508161143d565b811461145b57600080fd5b50565b60008135905061146d81611447565b92915050565b6000806040838503121561148a576114896113d5565b5b600061149885828601611428565b92505060206114a98582860161145e565b9150509250929050565b60008115159050919050565b6114c8816114b3565b82525050565b60006020820190506114e360008301846114bf565b92915050565b6114f28161143d565b82525050565b600060208201905061150d60008301846114e9565b92915050565b600060208284031215611529576115286113d5565b5b60006115378482850161145e565b91505092915050565b600080600060608486031215611559576115586113d5565b5b600061156786828701611428565b935050602061157886828701611428565b92505060406115898682870161145e565b9150509250925092565b600060ff82169050919050565b6115a981611593565b82525050565b60006020820190506115c460008301846115a0565b92915050565b600080fd5b600080fd5b7f4e487b7100000000000000000000000000000000000000000000000000000000600052604160045260246000fd5b61160c8261135f565b810181811067ffffffffffffffff8211171561162b5761162a6115d4565b5b80604052505050565b600061163e6113cb565b905061164a8282611603565b919050565b600067ffffffffffffffff82111561166a576116696115d4565b5b6116738261135f565b9050602081019050919050565b82818337600083830152505050565b60006116a261169d8461164f565b611634565b9050828152602081018484840111156116be576116bd6115cf565b5b6116c9848285611680565b509392505050565b600082601f8301126116e6576116e56115ca565b5b81356116f684826020860161168f565b91505092915050565b600080600060608486031215611718576117176113d5565b5b600061172686828701611428565b93505060206117378682870161145e565b925050604084013567ffffffffffffffff811115611758576117576113da565b5b611764868287016116d1565b9150509250925092565b600060208284031215611784576117836113d5565b5b600061179284828501611428565b91505092915050565b600080600080608085870312156117b5576117b46113d5565b5b60006117c387828801611428565b94505060206117d48782880161145e565b93505060406117e58782880161145e565b92505060606117f68782880161145e565b91505092959194509250565b61180b816113ff565b82525050565b600060608201905061182660008301866114e9565b61183360208301856114e9565b6118406040830184611802565b949350505050565b600060208201905061185d6000830184611802565b92915050565b6000806040838503121561187a576118796113d5565b5b600061188885828601611428565b925050602061189985828601611428565b9150509250929050565b7f4e487b7100000000000000000000000000000000000000000000000000000000600052602260045260246000fd5b600060028204905060018216806118ea57607f821691505b6020821081036118fd576118fc6118a3565b5b50919050565b600060408201905061191860008301856114e9565b61192560208301846114e9565b9392505050565b7f4e487b7100000000000000000000000000000000000000000000000000000000600052601160045260246000fd5b60006119668261143d565b91506119718361143d565b9250828210156119845761198361192c565b5b828203905092915050565b600061199a8261143d565b91506119a58361143d565b9250827fffffffffffffffffffffffffffffffffffffffffffffffffffffffffffffffff038211156119da576119d961192c565b5b828201905092915050565b60006119f08261143d565b91506119fb8361143d565b9250817fffffffffffffffffffffffffffffffffffffffffffffffffffffffffffffffff0483118215151615611a3457611a3361192c565b5b828202905092915050565b7f4f6e6c79204d6f636b20506f7765722063616e206d696e74206f6e204d6f636b60008201527f204265686f646c65722e00000000000000000000000000000000000000000000602082015250565b6000611a9b602a8361131b565b9150611aa682611a3f565b604082019050919050565b60006020820190508181036000830152611aca81611a8e565b9050919050565b6000604082019050611ae66000830185611802565b611af36020830184611802565b9392505050565b7f53636172636974793a207472616e736665722066726f6d20746865207a65726f60008201527f2061646472657373000000000000000000000000000000000000000000000000602082015250565b6000611b5660288361131b565b9150611b6182611afa565b604082019050919050565b60006020820190508181036000830152611b8581611b49565b9050919050565b7f53636172636974793a207472616e7366657220746f20746865207a65726f206160008201527f6464726573730000000000000000000000000000000000000000000000000000602082015250565b6000611be860268361131b565b9150611bf382611b8c565b604082019050919050565b60006020820190508181036000830152611c1781611bdb565b9050919050565b7f4e487b7100000000000000000000000000000000000000000000000000000000600052601260045260246000fd5b6000611c588261143d565b9150611c638361143d565b925082611c7357611c72611c1e565b5b828204905092915050565b600081519050919050565b600082825260208201905092915050565b6000611ca582611c7e565b611caf8185611c89565b9350611cbf81856020860161132c565b611cc88161135f565b840191505092915050565b6000606082019050611ce86000830186611802565b611cf560208301856114e9565b8181036040830152611d078184611c9a565b905094935050505056fea2646970667358221220a1fe2aeae6580bcd1faf697c9729afc65f604de28f824ef0bdcd3666a22ca70f64736f6c634300080d0033",
  "linkReferences": {},
  "deployedLinkReferences": {}
}