{
  "_format": "hh-sol-artifact-1",
  "contractName": "MockBehodler",
  "sourceName": "contracts/testing/MockBehodler.sol",
  "abi": [
    {
      "inputs": [
        {
          "internalType": "string",
          "name": "name",
          "type": "string"
        },
        {
          "internalType": "string",
          "name": "symbol",
          "type": "string"
        }
      ],
      "stateMutability": "nonpayable",
      "type": "constructor"
    },
    {
      "inputs": [
        {
          "internalType": "uint256",
          "name": "allowance",
          "type": "uint256"
        },
        {
          "internalType": "uint256",
          "name": "amount",
          "type": "uint256"
        }
      ],
      "name": "AllowanceExceeded",
      "type": "error"
    },
    {
      "inputs": [
        {
          "internalType": "uint256",
          "name": "allowance",
          "type": "uint256"
        },
        {
          "internalType": "uint256",
          "name": "subtraction",
          "type": "uint256"
        }
      ],
      "name": "AllowanceUnderflow",
      "type": "error"
    },
    {
      "inputs": [
        {
          "internalType": "uint256",
          "name": "accountBalance",
          "type": "uint256"
        },
        {
          "internalType": "uint256",
          "name": "amount",
          "type": "uint256"
        }
      ],
      "name": "BurnUnderflow",
      "type": "error"
    },
    {
      "inputs": [
        {
          "internalType": "address",
          "name": "caller",
          "type": "address"
        },
        {
          "internalType": "address",
          "name": "owner",
          "type": "address"
        }
      ],
      "name": "OnlyOwner",
      "type": "error"
    },
    {
      "inputs": [],
      "name": "TransferToZeroAddress",
      "type": "error"
    },
    {
      "anonymous": false,
      "inputs": [
        {
          "indexed": true,
          "internalType": "address",
          "name": "owner",
          "type": "address"
        },
        {
          "indexed": true,
          "internalType": "address",
          "name": "spender",
          "type": "address"
        },
        {
          "indexed": false,
          "internalType": "uint256",
          "name": "value",
          "type": "uint256"
        }
      ],
      "name": "Approval",
      "type": "event"
    },
    {
      "anonymous": false,
      "inputs": [
        {
          "indexed": true,
          "internalType": "address",
          "name": "previousOwner",
          "type": "address"
        },
        {
          "indexed": true,
          "internalType": "address",
          "name": "newOwner",
          "type": "address"
        }
      ],
      "name": "OwnershipTransferred",
      "type": "event"
    },
    {
      "anonymous": false,
      "inputs": [
        {
          "indexed": true,
          "internalType": "address",
          "name": "from",
          "type": "address"
        },
        {
          "indexed": true,
          "internalType": "address",
          "name": "to",
          "type": "address"
        },
        {
          "indexed": false,
          "internalType": "uint256",
          "name": "value",
          "type": "uint256"
        }
      ],
      "name": "Transfer",
      "type": "event"
    },
    {
      "inputs": [
        {
          "internalType": "address",
          "name": "owner",
          "type": "address"
        },
        {
          "internalType": "address",
          "name": "spender",
          "type": "address"
        }
      ],
      "name": "allowance",
      "outputs": [
        {
          "internalType": "uint256",
          "name": "",
          "type": "uint256"
        }
      ],
      "stateMutability": "view",
      "type": "function"
    },
    {
      "inputs": [
        {
          "internalType": "address",
          "name": "spender",
          "type": "address"
        },
        {
          "internalType": "uint256",
          "name": "amount",
          "type": "uint256"
        }
      ],
      "name": "approve",
      "outputs": [
        {
          "internalType": "bool",
          "name": "",
          "type": "bool"
        }
      ],
      "stateMutability": "nonpayable",
      "type": "function"
    },
    {
      "inputs": [
        {
          "internalType": "address",
          "name": "account",
          "type": "address"
        }
      ],
      "name": "balanceOf",
      "outputs": [
        {
          "internalType": "uint256",
          "name": "",
          "type": "uint256"
        }
      ],
      "stateMutability": "view",
      "type": "function"
    },
    {
      "inputs": [
        {
          "internalType": "uint256",
          "name": "amount",
          "type": "uint256"
        }
      ],
      "name": "burn",
      "outputs": [
        {
          "internalType": "bool",
          "name": "",
          "type": "bool"
        }
      ],
      "stateMutability": "nonpayable",
      "type": "function"
    },
    {
      "inputs": [
        {
          "internalType": "address",
          "name": "account",
          "type": "address"
        },
        {
          "internalType": "uint256",
          "name": "amount",
          "type": "uint256"
        }
      ],
      "name": "burnFrom",
      "outputs": [],
      "stateMutability": "nonpayable",
      "type": "function"
    },
    {
      "inputs": [],
      "name": "config",
      "outputs": [
        {
          "internalType": "uint256",
          "name": "transferFee",
          "type": "uint256"
        },
        {
          "internalType": "uint256",
          "name": "burnFee",
          "type": "uint256"
        },
        {
          "internalType": "address",
          "name": "feeDestination",
          "type": "address"
        }
      ],
      "stateMutability": "view",
      "type": "function"
    },
    {
      "inputs": [],
      "name": "decimals",
      "outputs": [
        {
          "internalType": "uint8",
          "name": "",
          "type": "uint8"
        }
      ],
      "stateMutability": "view",
      "type": "function"
    },
    {
      "inputs": [
        {
          "internalType": "address",
          "name": "spender",
          "type": "address"
        },
        {
          "internalType": "uint256",
          "name": "subtractedValue",
          "type": "uint256"
        }
      ],
      "name": "decreaseAllowance",
      "outputs": [
        {
          "internalType": "bool",
          "name": "",
          "type": "bool"
        }
      ],
      "stateMutability": "nonpayable",
      "type": "function"
    },
    {
      "inputs": [
        {
          "internalType": "address",
          "name": "spender",
          "type": "address"
        },
        {
          "internalType": "uint256",
          "name": "addedValue",
          "type": "uint256"
        }
      ],
      "name": "increaseAllowance",
      "outputs": [
        {
          "internalType": "bool",
          "name": "",
          "type": "bool"
        }
      ],
      "stateMutability": "nonpayable",
      "type": "function"
    },
    {
      "inputs": [
        {
          "internalType": "uint256",
          "name": "amount",
          "type": "uint256"
        }
      ],
      "name": "mint",
      "outputs": [],
      "stateMutability": "nonpayable",
      "type": "function"
    },
    {
      "inputs": [
        {
          "internalType": "address",
          "name": "recipient",
          "type": "address"
        },
        {
          "internalType": "uint256",
          "name": "amount",
          "type": "uint256"
        }
      ],
      "name": "mintTo",
      "outputs": [],
      "stateMutability": "nonpayable",
      "type": "function"
    },
    {
      "inputs": [],
      "name": "name",
      "outputs": [
        {
          "internalType": "string",
          "name": "",
          "type": "string"
        }
      ],
      "stateMutability": "view",
      "type": "function"
    },
    {
      "inputs": [],
      "name": "owner",
      "outputs": [
        {
          "internalType": "address",
          "name": "",
          "type": "address"
        }
      ],
      "stateMutability": "view",
      "type": "function"
    },
    {
      "inputs": [
        {
          "internalType": "uint256",
          "name": "_priceMultiplier",
          "type": "uint256"
        }
      ],
      "name": "setPriceMultiplier",
      "outputs": [],
      "stateMutability": "nonpayable",
      "type": "function"
    },
    {
      "inputs": [
        {
          "internalType": "address",
          "name": "power",
          "type": "address"
        }
      ],
      "name": "setTokenPower",
      "outputs": [],
      "stateMutability": "nonpayable",
      "type": "function"
    },
    {
      "inputs": [],
      "name": "symbol",
      "outputs": [
        {
          "internalType": "string",
          "name": "",
          "type": "string"
        }
      ],
      "stateMutability": "view",
      "type": "function"
    },
    {
      "inputs": [],
      "name": "totalSupply",
      "outputs": [
        {
          "internalType": "uint256",
          "name": "",
          "type": "uint256"
        }
      ],
      "stateMutability": "view",
      "type": "function"
    },
    {
      "inputs": [
        {
          "internalType": "address",
          "name": "recipient",
          "type": "address"
        },
        {
          "internalType": "uint256",
          "name": "amount",
          "type": "uint256"
        }
      ],
      "name": "transfer",
      "outputs": [
        {
          "internalType": "bool",
          "name": "",
          "type": "bool"
        }
      ],
      "stateMutability": "nonpayable",
      "type": "function"
    },
    {
      "inputs": [
        {
          "internalType": "address",
          "name": "_to",
          "type": "address"
        },
        {
          "internalType": "uint256",
          "name": "_value",
          "type": "uint256"
        },
        {
          "internalType": "bytes",
          "name": "_data",
          "type": "bytes"
        }
      ],
      "name": "transferAndCall",
      "outputs": [
        {
          "internalType": "bool",
          "name": "success",
          "type": "bool"
        }
      ],
      "stateMutability": "nonpayable",
      "type": "function"
    },
    {
      "inputs": [
        {
          "internalType": "address",
          "name": "sender",
          "type": "address"
        },
        {
          "internalType": "address",
          "name": "recipient",
          "type": "address"
        },
        {
          "internalType": "uint256",
          "name": "amount",
          "type": "uint256"
        }
      ],
      "name": "transferFrom",
      "outputs": [
        {
          "internalType": "bool",
          "name": "",
          "type": "bool"
        }
      ],
      "stateMutability": "nonpayable",
      "type": "function"
    },
    {
      "inputs": [
        {
          "internalType": "address",
          "name": "newOwner",
          "type": "address"
        }
      ],
      "name": "transferOwnership",
      "outputs": [],
      "stateMutability": "nonpayable",
      "type": "function"
    },
    {
      "inputs": [
        {
          "internalType": "address",
          "name": "outputToken",
          "type": "address"
        },
        {
          "internalType": "uint256",
          "name": "tokensToRelease",
          "type": "uint256"
        },
        {
          "internalType": "uint256",
          "name": "scx",
          "type": "uint256"
        },
        {
          "internalType": "uint256",
          "name": "passes",
          "type": "uint256"
        }
      ],
      "name": "withdrawLiquidityFindSCX",
      "outputs": [
        {
          "internalType": "uint256",
          "name": "",
          "type": "uint256"
        }
      ],
      "stateMutability": "view",
      "type": "function"
    }
  ],
  "bytecode": "0x608060405260c860075573aa645185f79506175917ae2fdd3128e4711d4065600860006101000a81548173ffffffffffffffffffffffffffffffffffffffff021916908373ffffffffffffffffffffffffffffffffffffffff1602179055503480156200006b57600080fd5b5060405162002460380380620024608339818101604052810190620000919190620004f1565b818181818160039080519060200190620000ad929190620002a4565b508060049080519060200190620000c6929190620002a4565b505050620000da336200010060201b60201c565b5050620000f83369d3c21bcecceda1000000620001c660201b60201c565b50506200069e565b6000600560009054906101000a900473ffffffffffffffffffffffffffffffffffffffff16905081600560006101000a81548173ffffffffffffffffffffffffffffffffffffffff021916908373ffffffffffffffffffffffffffffffffffffffff1602179055508173ffffffffffffffffffffffffffffffffffffffff168173ffffffffffffffffffffffffffffffffffffffff167f8be0079c531659141344cd1fd0a4f28419497f9722a3daafe3b4186f6b6457e060405160405180910390a35050565b8060026000828254620001da9190620005af565b92505081905550806000808473ffffffffffffffffffffffffffffffffffffffff1673ffffffffffffffffffffffffffffffffffffffff1681526020019081526020016000206000828254620002319190620005af565b925050819055508173ffffffffffffffffffffffffffffffffffffffff16600073ffffffffffffffffffffffffffffffffffffffff167fddf252ad1be2c89b69c2b068fc378daa952ba7f163c4a11628f55a4df523b3ef836040516200029891906200061d565b60405180910390a35050565b828054620002b29062000669565b90600052602060002090601f016020900481019282620002d6576000855562000322565b82601f10620002f157805160ff191683800117855562000322565b8280016001018555821562000322579182015b828111156200032157825182559160200191906001019062000304565b5b50905062000331919062000335565b5090565b5b808211156200035057600081600090555060010162000336565b5090565b6000604051905090565b600080fd5b600080fd5b600080fd5b600080fd5b6000601f19601f8301169050919050565b7f4e487b7100000000000000000000000000000000000000000000000000000000600052604160045260246000fd5b620003bd8262000372565b810181811067ffffffffffffffff82111715620003df57620003de62000383565b5b80604052505050565b6000620003f462000354565b9050620004028282620003b2565b919050565b600067ffffffffffffffff82111562000425576200042462000383565b5b620004308262000372565b9050602081019050919050565b60005b838110156200045d57808201518184015260208101905062000440565b838111156200046d576000848401525b50505050565b60006200048a620004848462000407565b620003e8565b905082815260208101848484011115620004a957620004a86200036d565b5b620004b68482856200043d565b509392505050565b600082601f830112620004d657620004d562000368565b5b8151620004e884826020860162000473565b91505092915050565b600080604083850312156200050b576200050a6200035e565b5b600083015167ffffffffffffffff8111156200052c576200052b62000363565b5b6200053a85828601620004be565b925050602083015167ffffffffffffffff8111156200055e576200055d62000363565b5b6200056c85828601620004be565b9150509250929050565b6000819050919050565b7f4e487b7100000000000000000000000000000000000000000000000000000000600052601160045260246000fd5b6000620005bc8262000576565b9150620005c98362000576565b9250827fffffffffffffffffffffffffffffffffffffffffffffffffffffffffffffffff0382111562000601576200060062000580565b5b828201905092915050565b620006178162000576565b82525050565b60006020820190506200063460008301846200060c565b92915050565b7f4e487b7100000000000000000000000000000000000000000000000000000000600052602260045260246000fd5b600060028204905060018216806200068257607f821691505b6020821081036200069857620006976200063a565b5b50919050565b611db280620006ae6000396000f3fe608060405234801561001057600080fd5b50600436106101425760003560e01c806372c3fdd9116100b8578063981bea781161007c578063981bea78146103a1578063a0712d68146103bd578063a457c2d7146103d9578063a9059cbb14610409578063dd62ed3e14610439578063f2fde38b1461046957610142565b806372c3fdd9146102f957806379502c551461032957806379cc6790146103495780638da5cb5b1461036557806395d89b411461038357610142565b8063313ce5671161010a578063313ce567146101ff578063395093511461021d5780634000aea01461024d57806342966c681461027d578063449a52f8146102ad57806370a08231146102c957610142565b806306fdde0314610147578063095ea7b31461016557806318160ddd146101955780632081c4ea146101b357806323b872dd146101cf575b600080fd5b61014f610485565b60405161015c9190611414565b60405180910390f35b61017f600480360381019061017a91906114de565b610517565b60405161018c9190611539565b60405180910390f35b61019d61052e565b6040516101aa9190611563565b60405180910390f35b6101cd60048036038101906101c8919061157e565b610538565b005b6101e960048036038101906101e491906115ab565b610542565b6040516101f69190611539565b60405180910390f35b610207610665565b604051610214919061161a565b60405180910390f35b610237600480360381019061023291906114de565b61066e565b6040516102449190611539565b60405180910390f35b6102676004803603810190610262919061176a565b61070c565b6040516102749190611539565b60405180910390f35b6102976004803603810190610292919061157e565b61073e565b6040516102a49190611539565b60405180910390f35b6102c760048036038101906102c291906114de565b610753565b005b6102e360048036038101906102de91906117d9565b610761565b6040516102f09190611563565b60405180910390f35b610313600480360381019061030e9190611806565b6107a9565b6040516103209190611563565b60405180910390f35b6103316107c3565b6040516103409392919061187c565b60405180910390f35b610363600480360381019061035e91906114de565b6107fa565b005b61036d610874565b60405161037a91906118b3565b60405180910390f35b61038b61089e565b6040516103989190611414565b60405180910390f35b6103bb60048036038101906103b691906117d9565b610930565b005b6103d760048036038101906103d2919061157e565b610974565b005b6103f360048036038101906103ee91906114de565b610a11565b6040516104009190611539565b60405180910390f35b610423600480360381019061041e91906114de565b610af2565b6040516104309190611539565b60405180910390f35b610453600480360381019061044e91906118ce565b610b09565b6040516104609190611563565b60405180910390f35b610483600480360381019061047e91906117d9565b610b90565b005b6060600380546104949061193d565b80601f01602080910402602001604051908101604052809291908181526020018280546104c09061193d565b801561050d5780601f106104e25761010080835404028352916020019161050d565b820191906000526020600020905b8154815290600101906020018083116104f057829003601f168201915b5050505050905090565b6000610524338484610c79565b6001905092915050565b6000600254905090565b8060078190555050565b600061054f848484610d64565b6000600160008673ffffffffffffffffffffffffffffffffffffffff1673ffffffffffffffffffffffffffffffffffffffff16815260200190815260200160002060003373ffffffffffffffffffffffffffffffffffffffff1673ffffffffffffffffffffffffffffffffffffffff1681526020019081526020016000205490507fffffffffffffffffffffffffffffffffffffffffffffffffffffffffffffffff81141580156105ff57508083115b156106435780836040517fa924825600000000000000000000000000000000000000000000000000000000815260040161063a92919061196e565b60405180910390fd5b6106598533858461065491906119c6565b610c79565b60019150509392505050565b60006012905090565b6000610702338484600160003373ffffffffffffffffffffffffffffffffffffffff1673ffffffffffffffffffffffffffffffffffffffff16815260200190815260200160002060008873ffffffffffffffffffffffffffffffffffffffff1673ffffffffffffffffffffffffffffffffffffffff168152602001908152602001600020546106fd91906119fa565b610c79565b6001905092915050565b6000610719338585610d64565b610722846110cc565b15610733576107328484846110df565b5b600190509392505050565b600061074a3383611159565b60019050919050565b61075d82826112a3565b5050565b60008060008373ffffffffffffffffffffffffffffffffffffffff1673ffffffffffffffffffffffffffffffffffffffff168152602001908152602001600020549050919050565b6000826007546107b99190611a50565b9050949350505050565b6000806000600f925060059150600860009054906101000a900473ffffffffffffffffffffffffffffffffffffffff169050909192565b60006108068333610b09565b90508181101561084f5780826040517fa924825600000000000000000000000000000000000000000000000000000000815260040161084692919061196e565b60405180910390fd5b6108658333848461086091906119c6565b610c79565b61086f8383611159565b505050565b6000600560009054906101000a900473ffffffffffffffffffffffffffffffffffffffff16905090565b6060600480546108ad9061193d565b80601f01602080910402602001604051908101604052809291908181526020018280546108d99061193d565b80156109265780601f106108fb57610100808354040283529160200191610926565b820191906000526020600020905b81548152906001019060200180831161090957829003601f168201915b5050505050905090565b80600660006101000a81548173ffffffffffffffffffffffffffffffffffffffff021916908373ffffffffffffffffffffffffffffffffffffffff16021790555050565b600660009054906101000a900473ffffffffffffffffffffffffffffffffffffffff1673ffffffffffffffffffffffffffffffffffffffff163373ffffffffffffffffffffffffffffffffffffffff1614610a04576040517f08c379a00000000000000000000000000000000000000000000000000000000081526004016109fb90611b1c565b60405180910390fd5b610a0e33826112a3565b50565b600080600160003373ffffffffffffffffffffffffffffffffffffffff1673ffffffffffffffffffffffffffffffffffffffff16815260200190815260200160002060008573ffffffffffffffffffffffffffffffffffffffff1673ffffffffffffffffffffffffffffffffffffffff16815260200190815260200160002054905082811015610ada5780836040517fda2d822c000000000000000000000000000000000000000000000000000000008152600401610ad192919061196e565b60405180910390fd5b610ae73385858403610c79565b600191505092915050565b6000610aff338484610d64565b6001905092915050565b6000600160008473ffffffffffffffffffffffffffffffffffffffff1673ffffffffffffffffffffffffffffffffffffffff16815260200190815260200160002060008373ffffffffffffffffffffffffffffffffffffffff1673ffffffffffffffffffffffffffffffffffffffff16815260200190815260200160002054905092915050565b3373ffffffffffffffffffffffffffffffffffffffff16610baf610874565b73ffffffffffffffffffffffffffffffffffffffff1614610c105733610bd3610874565b6040517fa3ee740f000000000000000000000000000000000000000000000000000000008152600401610c07929190611b3c565b60405180910390fd5b600073ffffffffffffffffffffffffffffffffffffffff168173ffffffffffffffffffffffffffffffffffffffff1603610c76576040517fea553b3400000000000000000000000000000000000000000000000000000000815260040160405180910390fd5b50565b80600160008573ffffffffffffffffffffffffffffffffffffffff1673ffffffffffffffffffffffffffffffffffffffff16815260200190815260200160002060008473ffffffffffffffffffffffffffffffffffffffff1673ffffffffffffffffffffffffffffffffffffffff168152602001908152602001600020819055508173ffffffffffffffffffffffffffffffffffffffff168373ffffffffffffffffffffffffffffffffffffffff167f8c5be1e5ebec7d5bd14f71427d1e84f3dd0314c0f7b2291e5b200ac8c7c3b92583604051610d579190611563565b60405180910390a3505050565b600073ffffffffffffffffffffffffffffffffffffffff168373ffffffffffffffffffffffffffffffffffffffff1603610dd3576040517f08c379a0000000000000000000000000000000000000000000000000000000008152600401610dca90611bd7565b60405180910390fd5b600073ffffffffffffffffffffffffffffffffffffffff168273ffffffffffffffffffffffffffffffffffffffff1603610e42576040517f08c379a0000000000000000000000000000000000000000000000000000000008152600401610e3990611c69565b60405180910390fd5b6000806000610e4f6107c3565b92509250925060006103e88585610e669190611a50565b610e709190611cb8565b905060006103e88685610e839190611a50565b610e8d9190611cb8565b905080600254610e9d91906119c6565b600281905550816000808573ffffffffffffffffffffffffffffffffffffffff1673ffffffffffffffffffffffffffffffffffffffff16815260200190815260200160002054610eed91906119fa565b6000808573ffffffffffffffffffffffffffffffffffffffff1673ffffffffffffffffffffffffffffffffffffffff16815260200190815260200160002081905550856000808a73ffffffffffffffffffffffffffffffffffffffff1673ffffffffffffffffffffffffffffffffffffffff16815260200190815260200160002054610f7991906119c6565b6000808a73ffffffffffffffffffffffffffffffffffffffff1673ffffffffffffffffffffffffffffffffffffffff168152602001908152602001600020819055508082610fc791906119fa565b86610fd291906119c6565b6000808973ffffffffffffffffffffffffffffffffffffffff1673ffffffffffffffffffffffffffffffffffffffff1681526020019081526020016000205461101b91906119fa565b6000808973ffffffffffffffffffffffffffffffffffffffff1673ffffffffffffffffffffffffffffffffffffffff168152602001908152602001600020819055508673ffffffffffffffffffffffffffffffffffffffff168873ffffffffffffffffffffffffffffffffffffffff167fddf252ad1be2c89b69c2b068fc378daa952ba7f163c4a11628f55a4df523b3ef886040516110ba9190611563565b60405180910390a35050505050505050565b600080823b905060008111915050919050565b60008390508073ffffffffffffffffffffffffffffffffffffffff1663a4c0ed363385856040518463ffffffff1660e01b815260040161112193929190611d3e565b600060405180830381600087803b15801561113b57600080fd5b505af115801561114f573d6000803e3d6000fd5b5050505050505050565b60008060008473ffffffffffffffffffffffffffffffffffffffff1673ffffffffffffffffffffffffffffffffffffffff168152602001908152602001600020549050818110156111e35780826040517f0a37dd410000000000000000000000000000000000000000000000000000000081526004016111da92919061196e565b60405180910390fd5b8181036000808573ffffffffffffffffffffffffffffffffffffffff1673ffffffffffffffffffffffffffffffffffffffff1681526020019081526020016000208190555081600260008282540392505081905550600073ffffffffffffffffffffffffffffffffffffffff168373ffffffffffffffffffffffffffffffffffffffff167fddf252ad1be2c89b69c2b068fc378daa952ba7f163c4a11628f55a4df523b3ef846040516112969190611563565b60405180910390a3505050565b80600260008282546112b591906119fa565b92505081905550806000808473ffffffffffffffffffffffffffffffffffffffff1673ffffffffffffffffffffffffffffffffffffffff168152602001908152602001600020600082825461130a91906119fa565b925050819055508173ffffffffffffffffffffffffffffffffffffffff16600073ffffffffffffffffffffffffffffffffffffffff167fddf252ad1be2c89b69c2b068fc378daa952ba7f163c4a11628f55a4df523b3ef8360405161136f9190611563565b60405180910390a35050565b600081519050919050565b600082825260208201905092915050565b60005b838110156113b557808201518184015260208101905061139a565b838111156113c4576000848401525b50505050565b6000601f19601f8301169050919050565b60006113e68261137b565b6113f08185611386565b9350611400818560208601611397565b611409816113ca565b840191505092915050565b6000602082019050818103600083015261142e81846113db565b905092915050565b6000604051905090565b600080fd5b600080fd5b600073ffffffffffffffffffffffffffffffffffffffff82169050919050565b60006114758261144a565b9050919050565b6114858161146a565b811461149057600080fd5b50565b6000813590506114a28161147c565b92915050565b6000819050919050565b6114bb816114a8565b81146114c657600080fd5b50565b6000813590506114d8816114b2565b92915050565b600080604083850312156114f5576114f4611440565b5b600061150385828601611493565b9250506020611514858286016114c9565b9150509250929050565b60008115159050919050565b6115338161151e565b82525050565b600060208201905061154e600083018461152a565b92915050565b61155d816114a8565b82525050565b60006020820190506115786000830184611554565b92915050565b60006020828403121561159457611593611440565b5b60006115a2848285016114c9565b91505092915050565b6000806000606084860312156115c4576115c3611440565b5b60006115d286828701611493565b93505060206115e386828701611493565b92505060406115f4868287016114c9565b9150509250925092565b600060ff82169050919050565b611614816115fe565b82525050565b600060208201905061162f600083018461160b565b92915050565b600080fd5b600080fd5b7f4e487b7100000000000000000000000000000000000000000000000000000000600052604160045260246000fd5b611677826113ca565b810181811067ffffffffffffffff821117156116965761169561163f565b5b80604052505050565b60006116a9611436565b90506116b5828261166e565b919050565b600067ffffffffffffffff8211156116d5576116d461163f565b5b6116de826113ca565b9050602081019050919050565b82818337600083830152505050565b600061170d611708846116ba565b61169f565b9050828152602081018484840111156117295761172861163a565b5b6117348482856116eb565b509392505050565b600082601f83011261175157611750611635565b5b81356117618482602086016116fa565b91505092915050565b60008060006060848603121561178357611782611440565b5b600061179186828701611493565b93505060206117a2868287016114c9565b925050604084013567ffffffffffffffff8111156117c3576117c2611445565b5b6117cf8682870161173c565b9150509250925092565b6000602082840312156117ef576117ee611440565b5b60006117fd84828501611493565b91505092915050565b600080600080608085870312156118205761181f611440565b5b600061182e87828801611493565b945050602061183f878288016114c9565b9350506040611850878288016114c9565b9250506060611861878288016114c9565b91505092959194509250565b6118768161146a565b82525050565b60006060820190506118916000830186611554565b61189e6020830185611554565b6118ab604083018461186d565b949350505050565b60006020820190506118c8600083018461186d565b92915050565b600080604083850312156118e5576118e4611440565b5b60006118f385828601611493565b925050602061190485828601611493565b9150509250929050565b7f4e487b7100000000000000000000000000000000000000000000000000000000600052602260045260246000fd5b6000600282049050600182168061195557607f821691505b6020821081036119685761196761190e565b5b50919050565b60006040820190506119836000830185611554565b6119906020830184611554565b9392505050565b7f4e487b7100000000000000000000000000000000000000000000000000000000600052601160045260246000fd5b60006119d1826114a8565b91506119dc836114a8565b9250828210156119ef576119ee611997565b5b828203905092915050565b6000611a05826114a8565b9150611a10836114a8565b9250827fffffffffffffffffffffffffffffffffffffffffffffffffffffffffffffffff03821115611a4557611a44611997565b5b828201905092915050565b6000611a5b826114a8565b9150611a66836114a8565b9250817fffffffffffffffffffffffffffffffffffffffffffffffffffffffffffffffff0483118215151615611a9f57611a9e611997565b5b828202905092915050565b7f4f6e6c79204d6f636b20506f7765722063616e206d696e74206f6e204d6f636b60008201527f204265686f646c65722e00000000000000000000000000000000000000000000602082015250565b6000611b06602a83611386565b9150611b1182611aaa565b604082019050919050565b60006020820190508181036000830152611b3581611af9565b9050919050565b6000604082019050611b51600083018561186d565b611b5e602083018461186d565b9392505050565b7f53636172636974793a207472616e736665722066726f6d20746865207a65726f60008201527f2061646472657373000000000000000000000000000000000000000000000000602082015250565b6000611bc1602883611386565b9150611bcc82611b65565b604082019050919050565b60006020820190508181036000830152611bf081611bb4565b9050919050565b7f53636172636974793a207472616e7366657220746f20746865207a65726f206160008201527f6464726573730000000000000000000000000000000000000000000000000000602082015250565b6000611c53602683611386565b9150611c5e82611bf7565b604082019050919050565b60006020820190508181036000830152611c8281611c46565b9050919050565b7f4e487b7100000000000000000000000000000000000000000000000000000000600052601260045260246000fd5b6000611cc3826114a8565b9150611cce836114a8565b925082611cde57611cdd611c89565b5b828204905092915050565b600081519050919050565b600082825260208201905092915050565b6000611d1082611ce9565b611d1a8185611cf4565b9350611d2a818560208601611397565b611d33816113ca565b840191505092915050565b6000606082019050611d53600083018661186d565b611d606020830185611554565b8181036040830152611d728184611d05565b905094935050505056fea26469706673582212209f1ac8d041e79bc160fb2a8a7b7f381c89e22cf7a2e6bcf3aab63f1acf7626a764736f6c634300080d0033",
  "linkReferences": {},
  "deployedLinkReferences": {}
}