{
  "_format": "hh-sol-artifact-1",
  "contractName": "AdjustFlanFeeOnTransferProposal",
  "sourceName": "contracts/DAO/Proposals/AdjustFlanFeeOnTransferProposal.sol",
  "abi": [
    {
      "inputs": [
        {
          "internalType": "address",
          "name": "dao",
          "type": "address"
        },
        {
          "internalType": "string",
          "name": "_description",
          "type": "string"
        }
      ],
      "stateMutability": "nonpayable",
      "type": "constructor"
    },
    {
      "inputs": [],
      "name": "ExecutionFailed",
      "type": "error"
    },
    {
      "inputs": [
        {
          "internalType": "address",
          "name": "dao",
          "type": "address"
        },
        {
          "internalType": "address",
          "name": "factory",
          "type": "address"
        }
      ],
      "name": "OnlyFactoryOrDAO",
      "type": "error"
    },
    {
      "inputs": [
        {
          "internalType": "address",
          "name": "proposal",
          "type": "address"
        }
      ],
      "name": "ProposalLocked",
      "type": "error"
    },
    {
      "inputs": [],
      "name": "description",
      "outputs": [
        {
          "internalType": "string",
          "name": "",
          "type": "string"
        }
      ],
      "stateMutability": "view",
      "type": "function"
    },
    {
      "inputs": [],
      "name": "locked",
      "outputs": [
        {
          "internalType": "bool",
          "name": "",
          "type": "bool"
        }
      ],
      "stateMutability": "view",
      "type": "function"
    },
    {
      "inputs": [],
      "name": "orchestrateExecute",
      "outputs": [],
      "stateMutability": "nonpayable",
      "type": "function"
    },
    {
      "inputs": [
        {
          "internalType": "address",
          "name": "flan",
          "type": "address"
        },
        {
          "internalType": "uint8",
          "name": "fee",
          "type": "uint8"
        }
      ],
      "name": "parameterize",
      "outputs": [],
      "stateMutability": "nonpayable",
      "type": "function"
    },
    {
      "inputs": [],
      "name": "params",
      "outputs": [
        {
          "internalType": "address",
          "name": "flan",
          "type": "address"
        },
        {
          "internalType": "uint8",
          "name": "fee",
          "type": "uint8"
        }
      ],
      "stateMutability": "view",
      "type": "function"
    },
    {
      "inputs": [
        {
          "internalType": "bool",
          "name": "_locked",
          "type": "bool"
        }
      ],
      "name": "setLocked",
      "outputs": [],
      "stateMutability": "nonpayable",
      "type": "function"
    }
  ],
  "bytecode": "0x60a06040523480156200001157600080fd5b5060405162000f5d38038062000f5d8339818101604052810190620000379190620003d4565b8160008054620000479062000469565b80601f0160208091040260200160405190810160405280929190818152602001828054620000759062000469565b8015620000c65780601f106200009a57610100808354040283529160200191620000c6565b820191906000526020600020905b815481529060010190602001808311620000a857829003601f168201915b50505050508173ffffffffffffffffffffffffffffffffffffffff1660808173ffffffffffffffffffffffffffffffffffffffff168152505080600090805190602001906200011792919062000122565b50505050506200049e565b828054620001309062000469565b90600052602060002090601f016020900481019282620001545760008555620001a0565b82601f106200016f57805160ff1916838001178555620001a0565b82800160010185558215620001a0579182015b828111156200019f57825182559160200191906001019062000182565b5b509050620001af9190620001b3565b5090565b5b80821115620001ce576000816000905550600101620001b4565b5090565b6000604051905090565b600080fd5b600080fd5b600073ffffffffffffffffffffffffffffffffffffffff82169050919050565b60006200021382620001e6565b9050919050565b620002258162000206565b81146200023157600080fd5b50565b60008151905062000245816200021a565b92915050565b600080fd5b600080fd5b6000601f19601f8301169050919050565b7f4e487b7100000000000000000000000000000000000000000000000000000000600052604160045260246000fd5b620002a08262000255565b810181811067ffffffffffffffff82111715620002c257620002c162000266565b5b80604052505050565b6000620002d7620001d2565b9050620002e5828262000295565b919050565b600067ffffffffffffffff82111562000308576200030762000266565b5b620003138262000255565b9050602081019050919050565b60005b838110156200034057808201518184015260208101905062000323565b8381111562000350576000848401525b50505050565b60006200036d6200036784620002ea565b620002cb565b9050828152602081018484840111156200038c576200038b62000250565b5b6200039984828562000320565b509392505050565b600082601f830112620003b957620003b86200024b565b5b8151620003cb84826020860162000356565b91505092915050565b60008060408385031215620003ee57620003ed620001dc565b5b6000620003fe8582860162000234565b925050602083015167ffffffffffffffff811115620004225762000421620001e1565b5b6200043085828601620003a1565b9150509250929050565b7f4e487b7100000000000000000000000000000000000000000000000000000000600052602260045260246000fd5b600060028204905060018216806200048257607f821691505b6020821081036200049857620004976200043a565b5b50919050565b608051610a8e620004cf600039600081816101080152818161012d0152818161028d01526102b20152610a8e6000f3fe608060405234801561001057600080fd5b50600436106100625760003560e01c8063211e28b6146100675780633e7f6c64146100835780635f674f4a1461008d5780637284e416146100a9578063cf309012146100c7578063cff0ab96146100e5575b600080fd5b610081600480360381019061007c91906106cb565b610104565b005b61008b610289565b005b6100a760048036038101906100a2919061078f565b610431565b005b6100b1610503565b6040516100be9190610868565b60405180910390f35b6100cf610591565b6040516100dc9190610899565b60405180910390f35b6100ed6105a4565b6040516100fb9291906108d2565b60405180910390f35b60007f0000000000000000000000000000000000000000000000000000000000000000905060007f000000000000000000000000000000000000000000000000000000000000000073ffffffffffffffffffffffffffffffffffffffff166301e179dc6040518163ffffffff1660e01b8152600401606060405180830381865afa158015610196573d6000803e3d6000fd5b505050506040513d601f19601f820116820180604052508101906101ba9190610946565b925050508173ffffffffffffffffffffffffffffffffffffffff163373ffffffffffffffffffffffffffffffffffffffff161415801561022657508073ffffffffffffffffffffffffffffffffffffffff163373ffffffffffffffffffffffffffffffffffffffff1614155b1561026a5781816040517ff8b7c0c3000000000000000000000000000000000000000000000000000000008152600401610261929190610999565b60405180910390fd5b82600160006101000a81548160ff021916908315150217905550505050565b60007f0000000000000000000000000000000000000000000000000000000000000000905060007f000000000000000000000000000000000000000000000000000000000000000073ffffffffffffffffffffffffffffffffffffffff166301e179dc6040518163ffffffff1660e01b8152600401606060405180830381865afa15801561031b573d6000803e3d6000fd5b505050506040513d601f19601f8201168201806040525081019061033f9190610946565b925050508173ffffffffffffffffffffffffffffffffffffffff163373ffffffffffffffffffffffffffffffffffffffff16141580156103ab57508073ffffffffffffffffffffffffffffffffffffffff163373ffffffffffffffffffffffffffffffffffffffff1614155b156103ef5781816040517ff8b7c0c30000000000000000000000000000000000000000000000000000000081526004016103e6929190610999565b60405180910390fd5b6103f76105e3565b61042d576040517facfdb44400000000000000000000000000000000000000000000000000000000815260040160405180910390fd5b5050565b600160009054906101000a900460ff161561048357306040517fefaa447e00000000000000000000000000000000000000000000000000000000815260040161047a91906109c2565b60405180910390fd5b81600260000160006101000a81548173ffffffffffffffffffffffffffffffffffffffff021916908373ffffffffffffffffffffffffffffffffffffffff16021790555080600260000160146101000a81548160ff021916908360ff16021790555060018060006101000a81548160ff0219169083151502179055505050565b6000805461051090610a0c565b80601f016020809104026020016040519081016040528092919081815260200182805461053c90610a0c565b80156105895780601f1061055e57610100808354040283529160200191610589565b820191906000526020600020905b81548152906001019060200180831161056c57829003601f168201915b505050505081565b600160009054906101000a900460ff1681565b60028060000160009054906101000a900473ffffffffffffffffffffffffffffffffffffffff16908060000160149054906101000a900460ff16905082565b6000600260000160009054906101000a900473ffffffffffffffffffffffffffffffffffffffff1673ffffffffffffffffffffffffffffffffffffffff166304a3692d600260000160149054906101000a900460ff166040518263ffffffff1660e01b81526004016106559190610a3d565b600060405180830381600087803b15801561066f57600080fd5b505af1158015610683573d6000803e3d6000fd5b505050506001905090565b600080fd5b60008115159050919050565b6106a881610693565b81146106b357600080fd5b50565b6000813590506106c58161069f565b92915050565b6000602082840312156106e1576106e061068e565b5b60006106ef848285016106b6565b91505092915050565b600073ffffffffffffffffffffffffffffffffffffffff82169050919050565b6000610723826106f8565b9050919050565b61073381610718565b811461073e57600080fd5b50565b6000813590506107508161072a565b92915050565b600060ff82169050919050565b61076c81610756565b811461077757600080fd5b50565b60008135905061078981610763565b92915050565b600080604083850312156107a6576107a561068e565b5b60006107b485828601610741565b92505060206107c58582860161077a565b9150509250929050565b600081519050919050565b600082825260208201905092915050565b60005b838110156108095780820151818401526020810190506107ee565b83811115610818576000848401525b50505050565b6000601f19601f8301169050919050565b600061083a826107cf565b61084481856107da565b93506108548185602086016107eb565b61085d8161081e565b840191505092915050565b60006020820190508181036000830152610882818461082f565b905092915050565b61089381610693565b82525050565b60006020820190506108ae600083018461088a565b92915050565b6108bd81610718565b82525050565b6108cc81610756565b82525050565b60006040820190506108e760008301856108b4565b6108f460208301846108c3565b9392505050565b6000819050919050565b61090e816108fb565b811461091957600080fd5b50565b60008151905061092b81610905565b92915050565b6000815190506109408161072a565b92915050565b60008060006060848603121561095f5761095e61068e565b5b600061096d8682870161091c565b935050602061097e8682870161091c565b925050604061098f86828701610931565b9150509250925092565b60006040820190506109ae60008301856108b4565b6109bb60208301846108b4565b9392505050565b60006020820190506109d760008301846108b4565b92915050565b7f4e487b7100000000000000000000000000000000000000000000000000000000600052602260045260246000fd5b60006002820490506001821680610a2457607f821691505b602082108103610a3757610a366109dd565b5b50919050565b6000602082019050610a5260008301846108c3565b9291505056fea26469706673582212205038f5dbc2dfacfdd919b51a48c10323fed386f754a7ccf26d0bee53b93fdd9164736f6c634300080d0033",
  "linkReferences": {},
  "deployedLinkReferences": {}
}