{
  "_format": "hh-sol-artifact-1",
  "contractName": "ConfigureFlashGovernanceProposal",
  "sourceName": "contracts/DAO/Proposals/ConfigureFlashGovernanceProposal.sol",
  "abi": [
    {
      "inputs": [
        {
          "internalType": "address",
          "name": "dao",
          "type": "address"
        },
        {
          "internalType": "string",
          "name": "_description",
          "type": "string"
        }
      ],
      "stateMutability": "nonpayable",
      "type": "constructor"
    },
    {
      "inputs": [],
      "name": "ExecutionFailed",
      "type": "error"
    },
    {
      "inputs": [
        {
          "internalType": "address",
          "name": "dao",
          "type": "address"
        },
        {
          "internalType": "address",
          "name": "factory",
          "type": "address"
        }
      ],
      "name": "OnlyFactoryOrDAO",
      "type": "error"
    },
    {
      "inputs": [
        {
          "internalType": "address",
          "name": "proposal",
          "type": "address"
        }
      ],
      "name": "ProposalLocked",
      "type": "error"
    },
    {
      "inputs": [],
      "name": "description",
      "outputs": [
        {
          "internalType": "string",
          "name": "",
          "type": "string"
        }
      ],
      "stateMutability": "view",
      "type": "function"
    },
    {
      "inputs": [],
      "name": "locked",
      "outputs": [
        {
          "internalType": "bool",
          "name": "",
          "type": "bool"
        }
      ],
      "stateMutability": "view",
      "type": "function"
    },
    {
      "inputs": [],
      "name": "orchestrateExecute",
      "outputs": [],
      "stateMutability": "nonpayable",
      "type": "function"
    },
    {
      "inputs": [
        {
          "internalType": "address",
          "name": "asset",
          "type": "address"
        },
        {
          "internalType": "uint256",
          "name": "amount",
          "type": "uint256"
        },
        {
          "internalType": "uint256",
          "name": "unlockTime",
          "type": "uint256"
        },
        {
          "internalType": "bool",
          "name": "assetBurnable",
          "type": "bool"
        }
      ],
      "name": "parameterize",
      "outputs": [],
      "stateMutability": "nonpayable",
      "type": "function"
    },
    {
      "inputs": [
        {
          "internalType": "bool",
          "name": "_locked",
          "type": "bool"
        }
      ],
      "name": "setLocked",
      "outputs": [],
      "stateMutability": "nonpayable",
      "type": "function"
    }
  ],
  "bytecode": "0x60a06040523480156200001157600080fd5b5060405162000fdc38038062000fdc8339818101604052810190620000379190620003d4565b8160008054620000479062000469565b80601f0160208091040260200160405190810160405280929190818152602001828054620000759062000469565b8015620000c65780601f106200009a57610100808354040283529160200191620000c6565b820191906000526020600020905b815481529060010190602001808311620000a857829003601f168201915b50505050508173ffffffffffffffffffffffffffffffffffffffff1660808173ffffffffffffffffffffffffffffffffffffffff168152505080600090805190602001906200011792919062000122565b50505050506200049e565b828054620001309062000469565b90600052602060002090601f016020900481019282620001545760008555620001a0565b82601f106200016f57805160ff1916838001178555620001a0565b82800160010185558215620001a0579182015b828111156200019f57825182559160200191906001019062000182565b5b509050620001af9190620001b3565b5090565b5b80821115620001ce576000816000905550600101620001b4565b5090565b6000604051905090565b600080fd5b600080fd5b600073ffffffffffffffffffffffffffffffffffffffff82169050919050565b60006200021382620001e6565b9050919050565b620002258162000206565b81146200023157600080fd5b50565b60008151905062000245816200021a565b92915050565b600080fd5b600080fd5b6000601f19601f8301169050919050565b7f4e487b7100000000000000000000000000000000000000000000000000000000600052604160045260246000fd5b620002a08262000255565b810181811067ffffffffffffffff82111715620002c257620002c162000266565b5b80604052505050565b6000620002d7620001d2565b9050620002e5828262000295565b919050565b600067ffffffffffffffff82111562000308576200030762000266565b5b620003138262000255565b9050602081019050919050565b60005b838110156200034057808201518184015260208101905062000323565b8381111562000350576000848401525b50505050565b60006200036d6200036784620002ea565b620002cb565b9050828152602081018484840111156200038c576200038b62000250565b5b6200039984828562000320565b509392505050565b600082601f830112620003b957620003b86200024b565b5b8151620003cb84826020860162000356565b91505092915050565b60008060408385031215620003ee57620003ed620001dc565b5b6000620003fe8582860162000234565b925050602083015167ffffffffffffffff811115620004225762000421620001e1565b5b6200043085828601620003a1565b9150509250929050565b7f4e487b7100000000000000000000000000000000000000000000000000000000600052602260045260246000fd5b600060028204905060018216806200048257607f821691505b6020821081036200049857620004976200043a565b5b50919050565b608051610b07620004d56000396000818160de01528181610103015281816102630152818161028801526105920152610b076000f3fe608060405234801561001057600080fd5b50600436106100575760003560e01c8063211e28b61461005c5780633e7f6c64146100785780634aa17307146100825780637284e4161461009e578063cf309012146100bc575b600080fd5b61007660048036038101906100719190610713565b6100da565b005b61008061025f565b005b61009c600480360381019061009791906107d4565b610407565b005b6100a66104ed565b6040516100b391906108d4565b60405180910390f35b6100c461057b565b6040516100d19190610905565b60405180910390f35b60007f0000000000000000000000000000000000000000000000000000000000000000905060007f000000000000000000000000000000000000000000000000000000000000000073ffffffffffffffffffffffffffffffffffffffff166301e179dc6040518163ffffffff1660e01b8152600401606060405180830381865afa15801561016c573d6000803e3d6000fd5b505050506040513d601f19601f82011682018060405250810190610190919061094a565b925050508173ffffffffffffffffffffffffffffffffffffffff163373ffffffffffffffffffffffffffffffffffffffff16141580156101fc57508073ffffffffffffffffffffffffffffffffffffffff163373ffffffffffffffffffffffffffffffffffffffff1614155b156102405781816040517ff8b7c0c30000000000000000000000000000000000000000000000000000000081526004016102379291906109ac565b60405180910390fd5b82600160006101000a81548160ff021916908315150217905550505050565b60007f0000000000000000000000000000000000000000000000000000000000000000905060007f000000000000000000000000000000000000000000000000000000000000000073ffffffffffffffffffffffffffffffffffffffff166301e179dc6040518163ffffffff1660e01b8152600401606060405180830381865afa1580156102f1573d6000803e3d6000fd5b505050506040513d601f19601f82011682018060405250810190610315919061094a565b925050508173ffffffffffffffffffffffffffffffffffffffff163373ffffffffffffffffffffffffffffffffffffffff161415801561038157508073ffffffffffffffffffffffffffffffffffffffff163373ffffffffffffffffffffffffffffffffffffffff1614155b156103c55781816040517ff8b7c0c30000000000000000000000000000000000000000000000000000000081526004016103bc9291906109ac565b60405180910390fd5b6103cd61058e565b610403576040517facfdb44400000000000000000000000000000000000000000000000000000000815260040160405180910390fd5b5050565b600160009054906101000a900460ff161561045957306040517fefaa447e00000000000000000000000000000000000000000000000000000000815260040161045091906109d5565b60405180910390fd5b83600260000160006101000a81548173ffffffffffffffffffffffffffffffffffffffff021916908373ffffffffffffffffffffffffffffffffffffffff1602179055508260026001018190555081600280018190555080600260030160006101000a81548160ff02191690831515021790555060018060006101000a81548160ff02191690831515021790555050505050565b600080546104fa90610a1f565b80601f016020809104026020016040519081016040528092919081815260200182805461052690610a1f565b80156105735780601f1061054857610100808354040283529160200191610573565b820191906000526020600020905b81548152906001019060200180831161055657829003601f168201915b505050505081565b600160009054906101000a900460ff1681565b60007f000000000000000000000000000000000000000000000000000000000000000073ffffffffffffffffffffffffffffffffffffffff16632317beae6040518163ffffffff1660e01b8152600401602060405180830381865afa1580156105fb573d6000803e3d6000fd5b505050506040513d601f19601f8201168201806040525081019061061f9190610a50565b73ffffffffffffffffffffffffffffffffffffffff16630e2365f2600260000160009054906101000a900473ffffffffffffffffffffffffffffffffffffffff166002600101546002800154600260030160009054906101000a900460ff166040518563ffffffff1660e01b815260040161069d9493929190610a8c565b600060405180830381600087803b1580156106b757600080fd5b505af11580156106cb573d6000803e3d6000fd5b505050506001905090565b600080fd5b60008115159050919050565b6106f0816106db565b81146106fb57600080fd5b50565b60008135905061070d816106e7565b92915050565b600060208284031215610729576107286106d6565b5b6000610737848285016106fe565b91505092915050565b600073ffffffffffffffffffffffffffffffffffffffff82169050919050565b600061076b82610740565b9050919050565b61077b81610760565b811461078657600080fd5b50565b60008135905061079881610772565b92915050565b6000819050919050565b6107b18161079e565b81146107bc57600080fd5b50565b6000813590506107ce816107a8565b92915050565b600080600080608085870312156107ee576107ed6106d6565b5b60006107fc87828801610789565b945050602061080d878288016107bf565b935050604061081e878288016107bf565b925050606061082f878288016106fe565b91505092959194509250565b600081519050919050565b600082825260208201905092915050565b60005b8381101561087557808201518184015260208101905061085a565b83811115610884576000848401525b50505050565b6000601f19601f8301169050919050565b60006108a68261083b565b6108b08185610846565b93506108c0818560208601610857565b6108c98161088a565b840191505092915050565b600060208201905081810360008301526108ee818461089b565b905092915050565b6108ff816106db565b82525050565b600060208201905061091a60008301846108f6565b92915050565b60008151905061092f816107a8565b92915050565b60008151905061094481610772565b92915050565b600080600060608486031215610963576109626106d6565b5b600061097186828701610920565b935050602061098286828701610920565b925050604061099386828701610935565b9150509250925092565b6109a681610760565b82525050565b60006040820190506109c1600083018561099d565b6109ce602083018461099d565b9392505050565b60006020820190506109ea600083018461099d565b92915050565b7f4e487b7100000000000000000000000000000000000000000000000000000000600052602260045260246000fd5b60006002820490506001821680610a3757607f821691505b602082108103610a4a57610a496109f0565b5b50919050565b600060208284031215610a6657610a656106d6565b5b6000610a7484828501610935565b91505092915050565b610a868161079e565b82525050565b6000608082019050610aa1600083018761099d565b610aae6020830186610a7d565b610abb6040830185610a7d565b610ac860608301846108f6565b9594505050505056fea264697066735822122015041053fa486fd3d52116d980f8f50f1fa8b1cb019f6588bd7d40faeb2a293d64736f6c634300080d0033",
  "linkReferences": {},
  "deployedLinkReferences": {}
}