{
  "_format": "hh-sol-artifact-1",
  "contractName": "UniswapV2Router02",
  "sourceName": "contracts/periphery/UniswapV2/UniswapV2Router02.sol",
  "abi": [
    {
      "inputs": [
        {
          "internalType": "address",
          "name": "_factory",
          "type": "address"
        },
        {
          "internalType": "address",
          "name": "_WETH",
          "type": "address"
        }
      ],
      "stateMutability": "nonpayable",
      "type": "constructor"
    },
    {
      "inputs": [
        {
          "internalType": "uint256",
          "name": "amountsZero",
          "type": "uint256"
        },
        {
          "internalType": "uint256",
          "name": "amountInMax",
          "type": "uint256"
        }
      ],
      "name": "ExcessiveInputAmount",
      "type": "error"
    },
    {
      "inputs": [],
      "name": "WETH",
      "outputs": [
        {
          "internalType": "address",
          "name": "",
          "type": "address"
        }
      ],
      "stateMutability": "view",
      "type": "function"
    },
    {
      "inputs": [],
      "name": "factory",
      "outputs": [
        {
          "internalType": "address",
          "name": "",
          "type": "address"
        }
      ],
      "stateMutability": "view",
      "type": "function"
    },
    {
      "inputs": [
        {
          "internalType": "uint256",
          "name": "amountOut",
          "type": "uint256"
        },
        {
          "internalType": "uint256",
          "name": "reserveIn",
          "type": "uint256"
        },
        {
          "internalType": "uint256",
          "name": "reserveOut",
          "type": "uint256"
        }
      ],
      "name": "getAmountIn",
      "outputs": [
        {
          "internalType": "uint256",
          "name": "amountIn",
          "type": "uint256"
        }
      ],
      "stateMutability": "pure",
      "type": "function"
    },
    {
      "inputs": [
        {
          "internalType": "uint256",
          "name": "amountIn",
          "type": "uint256"
        },
        {
          "internalType": "uint256",
          "name": "reserveIn",
          "type": "uint256"
        },
        {
          "internalType": "uint256",
          "name": "reserveOut",
          "type": "uint256"
        }
      ],
      "name": "getAmountOut",
      "outputs": [
        {
          "internalType": "uint256",
          "name": "amountOut",
          "type": "uint256"
        }
      ],
      "stateMutability": "pure",
      "type": "function"
    },
    {
      "inputs": [
        {
          "internalType": "uint256",
          "name": "amountOut",
          "type": "uint256"
        },
        {
          "internalType": "address[]",
          "name": "path",
          "type": "address[]"
        }
      ],
      "name": "getAmountsIn",
      "outputs": [
        {
          "internalType": "uint256[]",
          "name": "amounts",
          "type": "uint256[]"
        }
      ],
      "stateMutability": "view",
      "type": "function"
    },
    {
      "inputs": [
        {
          "internalType": "uint256",
          "name": "amountIn",
          "type": "uint256"
        },
        {
          "internalType": "address[]",
          "name": "path",
          "type": "address[]"
        }
      ],
      "name": "getAmountsOut",
      "outputs": [
        {
          "internalType": "uint256[]",
          "name": "amounts",
          "type": "uint256[]"
        }
      ],
      "stateMutability": "view",
      "type": "function"
    },
    {
      "inputs": [
        {
          "internalType": "uint256",
          "name": "amountA",
          "type": "uint256"
        },
        {
          "internalType": "uint256",
          "name": "reserveA",
          "type": "uint256"
        },
        {
          "internalType": "uint256",
          "name": "reserveB",
          "type": "uint256"
        }
      ],
      "name": "quote",
      "outputs": [
        {
          "internalType": "uint256",
          "name": "amountB",
          "type": "uint256"
        }
      ],
      "stateMutability": "pure",
      "type": "function"
    },
    {
      "inputs": [
        {
          "internalType": "uint256",
          "name": "amountOut",
          "type": "uint256"
        },
        {
          "internalType": "address[]",
          "name": "path",
          "type": "address[]"
        },
        {
          "internalType": "address",
          "name": "to",
          "type": "address"
        },
        {
          "internalType": "uint256",
          "name": "deadline",
          "type": "uint256"
        }
      ],
      "name": "swapETHForExactTokens",
      "outputs": [
        {
          "internalType": "uint256[]",
          "name": "amounts",
          "type": "uint256[]"
        }
      ],
      "stateMutability": "payable",
      "type": "function"
    },
    {
      "inputs": [
        {
          "internalType": "uint256",
          "name": "amountOutMin",
          "type": "uint256"
        },
        {
          "internalType": "address[]",
          "name": "path",
          "type": "address[]"
        },
        {
          "internalType": "address",
          "name": "to",
          "type": "address"
        },
        {
          "internalType": "uint256",
          "name": "deadline",
          "type": "uint256"
        }
      ],
      "name": "swapExactETHForTokens",
      "outputs": [
        {
          "internalType": "uint256[]",
          "name": "amounts",
          "type": "uint256[]"
        }
      ],
      "stateMutability": "payable",
      "type": "function"
    },
    {
      "inputs": [
        {
          "internalType": "uint256",
          "name": "amountOutMin",
          "type": "uint256"
        },
        {
          "internalType": "address[]",
          "name": "path",
          "type": "address[]"
        },
        {
          "internalType": "address",
          "name": "to",
          "type": "address"
        },
        {
          "internalType": "uint256",
          "name": "deadline",
          "type": "uint256"
        }
      ],
      "name": "swapExactETHForTokensSupportingFeeOnTransferTokens",
      "outputs": [],
      "stateMutability": "payable",
      "type": "function"
    },
    {
      "inputs": [
        {
          "internalType": "uint256",
          "name": "amountIn",
          "type": "uint256"
        },
        {
          "internalType": "uint256",
          "name": "amountOutMin",
          "type": "uint256"
        },
        {
          "internalType": "address[]",
          "name": "path",
          "type": "address[]"
        },
        {
          "internalType": "address",
          "name": "to",
          "type": "address"
        },
        {
          "internalType": "uint256",
          "name": "deadline",
          "type": "uint256"
        }
      ],
      "name": "swapExactTokensForETH",
      "outputs": [
        {
          "internalType": "uint256[]",
          "name": "amounts",
          "type": "uint256[]"
        }
      ],
      "stateMutability": "nonpayable",
      "type": "function"
    },
    {
      "inputs": [
        {
          "internalType": "uint256",
          "name": "amountIn",
          "type": "uint256"
        },
        {
          "internalType": "uint256",
          "name": "amountOutMin",
          "type": "uint256"
        },
        {
          "internalType": "address[]",
          "name": "path",
          "type": "address[]"
        },
        {
          "internalType": "address",
          "name": "to",
          "type": "address"
        },
        {
          "internalType": "uint256",
          "name": "deadline",
          "type": "uint256"
        }
      ],
      "name": "swapExactTokensForETHSupportingFeeOnTransferTokens",
      "outputs": [],
      "stateMutability": "nonpayable",
      "type": "function"
    },
    {
      "inputs": [
        {
          "internalType": "uint256",
          "name": "amountIn",
          "type": "uint256"
        },
        {
          "internalType": "uint256",
          "name": "amountOutMin",
          "type": "uint256"
        },
        {
          "internalType": "address[]",
          "name": "path",
          "type": "address[]"
        },
        {
          "internalType": "address",
          "name": "to",
          "type": "address"
        },
        {
          "internalType": "uint256",
          "name": "deadline",
          "type": "uint256"
        }
      ],
      "name": "swapExactTokensForTokens",
      "outputs": [
        {
          "internalType": "uint256[]",
          "name": "amounts",
          "type": "uint256[]"
        }
      ],
      "stateMutability": "nonpayable",
      "type": "function"
    },
    {
      "inputs": [
        {
          "internalType": "uint256",
          "name": "amountIn",
          "type": "uint256"
        },
        {
          "internalType": "uint256",
          "name": "amountOutMin",
          "type": "uint256"
        },
        {
          "internalType": "address[]",
          "name": "path",
          "type": "address[]"
        },
        {
          "internalType": "address",
          "name": "to",
          "type": "address"
        },
        {
          "internalType": "uint256",
          "name": "deadline",
          "type": "uint256"
        }
      ],
      "name": "swapExactTokensForTokensSupportingFeeOnTransferTokens",
      "outputs": [],
      "stateMutability": "nonpayable",
      "type": "function"
    },
    {
      "inputs": [
        {
          "internalType": "uint256",
          "name": "amountOut",
          "type": "uint256"
        },
        {
          "internalType": "uint256",
          "name": "amountInMax",
          "type": "uint256"
        },
        {
          "internalType": "address[]",
          "name": "path",
          "type": "address[]"
        },
        {
          "internalType": "address",
          "name": "to",
          "type": "address"
        },
        {
          "internalType": "uint256",
          "name": "deadline",
          "type": "uint256"
        }
      ],
      "name": "swapTokensForExactETH",
      "outputs": [
        {
          "internalType": "uint256[]",
          "name": "amounts",
          "type": "uint256[]"
        }
      ],
      "stateMutability": "nonpayable",
      "type": "function"
    },
    {
      "inputs": [
        {
          "internalType": "uint256",
          "name": "amountOut",
          "type": "uint256"
        },
        {
          "internalType": "uint256",
          "name": "amountInMax",
          "type": "uint256"
        },
        {
          "internalType": "address[]",
          "name": "path",
          "type": "address[]"
        },
        {
          "internalType": "address",
          "name": "to",
          "type": "address"
        },
        {
          "internalType": "uint256",
          "name": "deadline",
          "type": "uint256"
        }
      ],
      "name": "swapTokensForExactTokens",
      "outputs": [
        {
          "internalType": "uint256[]",
          "name": "amounts",
          "type": "uint256[]"
        }
      ],
      "stateMutability": "nonpayable",
      "type": "function"
    },
    {
      "stateMutability": "payable",
      "type": "receive"
    }
  ],
  "bytecode": "0x60806040523480156200001157600080fd5b5060405162004d9438038062004d9483398181016040528101906200003791906200012a565b816000806101000a81548173ffffffffffffffffffffffffffffffffffffffff021916908373ffffffffffffffffffffffffffffffffffffffff16021790555080600160006101000a81548173ffffffffffffffffffffffffffffffffffffffff021916908373ffffffffffffffffffffffffffffffffffffffff160217905550505062000171565b600080fd5b600073ffffffffffffffffffffffffffffffffffffffff82169050919050565b6000620000f282620000c5565b9050919050565b6200010481620000e5565b81146200011057600080fd5b50565b6000815190506200012481620000f9565b92915050565b60008060408385031215620001445762000143620000c0565b5b6000620001548582860162000113565b9250506020620001678582860162000113565b9150509250929050565b614c1380620001816000396000f3fe6080604052600436106100f75760003560e01c806385f8c2591161008a578063b6f9de9511610059578063b6f9de95146103f6578063c45a015514610412578063d06ca61f1461043d578063fb3bdb411461047a5761015c565b806385f8c259146103145780638803dbee14610351578063ad5c46481461038e578063ad615dec146103b95761015c565b80634a25d94a116100c65780634a25d94a146102555780635c11d79514610292578063791ac947146102bb5780637ff36ab5146102e45761015c565b8063054d50d41461016157806318cbafe51461019e5780631f00ca74146101db57806338ed1739146102185761015c565b3661015c57600160009054906101000a900473ffffffffffffffffffffffffffffffffffffffff1673ffffffffffffffffffffffffffffffffffffffff163373ffffffffffffffffffffffffffffffffffffffff161461015a576101596136d1565b5b005b600080fd5b34801561016d57600080fd5b506101886004803603810190610183919061374a565b6104aa565b60405161019591906137ac565b60405180910390f35b3480156101aa57600080fd5b506101c560048036038101906101c0919061388a565b6104c0565b6040516101d291906139e2565b60405180910390f35b3480156101e757600080fd5b5061020260048036038101906101fd9190613b53565b610866565b60405161020f91906139e2565b60405180910390f35b34801561022457600080fd5b5061023f600480360381019061023a919061388a565b61089b565b60405161024c91906139e2565b60405180910390f35b34801561026157600080fd5b5061027c6004803603810190610277919061388a565b610a96565b60405161028991906139e2565b60405180910390f35b34801561029e57600080fd5b506102b960048036038101906102b4919061388a565b610e30565b005b3480156102c757600080fd5b506102e260048036038101906102dd919061388a565b6110ec565b005b6102fe60048036038101906102f99190613baf565b611430565b60405161030b91906139e2565b60405180910390f35b34801561032057600080fd5b5061033b6004803603810190610336919061374a565b6117f9565b60405161034891906137ac565b60405180910390f35b34801561035d57600080fd5b506103786004803603810190610373919061388a565b61180f565b60405161038591906139e2565b60405180910390f35b34801561039a57600080fd5b506103a3611a1d565b6040516103b09190613c46565b60405180910390f35b3480156103c557600080fd5b506103e060048036038101906103db919061374a565b611a43565b6040516103ed91906137ac565b60405180910390f35b610410600480360381019061040b9190613baf565b611a59565b005b34801561041e57600080fd5b50610427611ece565b6040516104349190613c46565b60405180910390f35b34801561044957600080fd5b50610464600480360381019061045f9190613b53565b611ef2565b60405161047191906139e2565b60405180910390f35b610494600480360381019061048f9190613baf565b611f27565b6040516104a191906139e2565b60405180910390f35b60006104b7848484612338565b90509392505050565b606081600160009054906101000a900473ffffffffffffffffffffffffffffffffffffffff1673ffffffffffffffffffffffffffffffffffffffff16868660018989905061050e9190613c90565b81811061051e5761051d613cc4565b5b90506020020160208101906105339190613cf3565b73ffffffffffffffffffffffffffffffffffffffff1614610589576040517f08c379a000000000000000000000000000000000000000000000000000000000815260040161058090613d7d565b60405180910390fd5b6105f560008054906101000a900473ffffffffffffffffffffffffffffffffffffffff1689888880806020026020016040519081016040528093929190818152602001838360200280828437600081840152601f19601f8201169050808301925050505050505061243e565b91508682600184516106079190613c90565b8151811061061857610617613cc4565b5b60200260200101511015610661576040517f08c379a000000000000000000000000000000000000000000000000000000000815260040161065890613e0f565b60405180910390fd5b61072a8686600081811061067857610677613cc4565b5b905060200201602081019061068d9190613cf3565b3361070960008054906101000a900473ffffffffffffffffffffffffffffffffffffffff168a8a60008181106106c6576106c5613cc4565b5b90506020020160208101906106db9190613cf3565b8b8b60018181106106ef576106ee613cc4565b5b90506020020160208101906107049190613cf3565b6125c9565b8560008151811061071d5761071c613cc4565b5b602002602001015161263b565b61077682878780806020026020016040519081016040528093929190818152602001838360200280828437600081840152601f19601f8201169050808301925050505050505030612774565b600160009054906101000a900473ffffffffffffffffffffffffffffffffffffffff1673ffffffffffffffffffffffffffffffffffffffff16632e1a7d4d83600185516107c39190613c90565b815181106107d4576107d3613cc4565b5b60200260200101516040518263ffffffff1660e01b81526004016107f891906137ac565b600060405180830381600087803b15801561081257600080fd5b505af1158015610826573d6000803e3d6000fd5b5050505061085b84836001855161083d9190613c90565b8151811061084e5761084d613cc4565b5b6020026020010151612a4b565b509695505050505050565b606061089360008054906101000a900473ffffffffffffffffffffffffffffffffffffffff168484612b4b565b905092915050565b60608161090a60008054906101000a900473ffffffffffffffffffffffffffffffffffffffff1689888880806020026020016040519081016040528093929190818152602001838360200280828437600081840152601f19601f8201169050808301925050505050505061243e565b915086826001845161091c9190613c90565b8151811061092d5761092c613cc4565b5b60200260200101511015610976576040517f08c379a000000000000000000000000000000000000000000000000000000000815260040161096d90613e0f565b60405180910390fd5b610a3f8686600081811061098d5761098c613cc4565b5b90506020020160208101906109a29190613cf3565b33610a1e60008054906101000a900473ffffffffffffffffffffffffffffffffffffffff168a8a60008181106109db576109da613cc4565b5b90506020020160208101906109f09190613cf3565b8b8b6001818110610a0457610a03613cc4565b5b9050602002016020810190610a199190613cf3565b6125c9565b85600081518110610a3257610a31613cc4565b5b602002602001015161263b565b610a8b82878780806020026020016040519081016040528093929190818152602001838360200280828437600081840152601f19601f8201169050808301925050505050505086612774565b509695505050505050565b606081600160009054906101000a900473ffffffffffffffffffffffffffffffffffffffff1673ffffffffffffffffffffffffffffffffffffffff168686600189899050610ae49190613c90565b818110610af457610af3613cc4565b5b9050602002016020810190610b099190613cf3565b73ffffffffffffffffffffffffffffffffffffffff1614610b5f576040517f08c379a0000000000000000000000000000000000000000000000000000000008152600401610b5690613d7d565b60405180910390fd5b610bcb60008054906101000a900473ffffffffffffffffffffffffffffffffffffffff1689888880806020026020016040519081016040528093929190818152602001838360200280828437600081840152601f19601f82011690508083019250505050505050612b4b565b91508682600081518110610be257610be1613cc4565b5b60200260200101511115610c2b576040517f08c379a0000000000000000000000000000000000000000000000000000000008152600401610c2290613ea1565b60405180910390fd5b610cf486866000818110610c4257610c41613cc4565b5b9050602002016020810190610c579190613cf3565b33610cd360008054906101000a900473ffffffffffffffffffffffffffffffffffffffff168a8a6000818110610c9057610c8f613cc4565b5b9050602002016020810190610ca59190613cf3565b8b8b6001818110610cb957610cb8613cc4565b5b9050602002016020810190610cce9190613cf3565b6125c9565b85600081518110610ce757610ce6613cc4565b5b602002602001015161263b565b610d4082878780806020026020016040519081016040528093929190818152602001838360200280828437600081840152601f19601f8201169050808301925050505050505030612774565b600160009054906101000a900473ffffffffffffffffffffffffffffffffffffffff1673ffffffffffffffffffffffffffffffffffffffff16632e1a7d4d8360018551610d8d9190613c90565b81518110610d9e57610d9d613cc4565b5b60200260200101516040518263ffffffff1660e01b8152600401610dc291906137ac565b600060405180830381600087803b158015610ddc57600080fd5b505af1158015610df0573d6000803e3d6000fd5b50505050610e25848360018551610e079190613c90565b81518110610e1857610e17613cc4565b5b6020026020010151612a4b565b509695505050505050565b80610edf85856000818110610e4857610e47613cc4565b5b9050602002016020810190610e5d9190613cf3565b33610ed960008054906101000a900473ffffffffffffffffffffffffffffffffffffffff1689896000818110610e9657610e95613cc4565b5b9050602002016020810190610eab9190613cf3565b8a8a6001818110610ebf57610ebe613cc4565b5b9050602002016020810190610ed49190613cf3565b6125c9565b8a61263b565b60008585600188889050610ef39190613c90565b818110610f0357610f02613cc4565b5b9050602002016020810190610f189190613cf3565b73ffffffffffffffffffffffffffffffffffffffff166370a08231856040518263ffffffff1660e01b8152600401610f509190613c46565b602060405180830381865afa158015610f6d573d6000803e3d6000fd5b505050506040513d601f19601f82011682018060405250810190610f919190613ed6565b9050610fde868680806020026020016040519081016040528093929190818152602001838360200280828437600081840152601f19601f8201169050808301925050505050505085612ce6565b866110a182888860018b8b9050610ff59190613c90565b81811061100557611004613cc4565b5b905060200201602081019061101a9190613cf3565b73ffffffffffffffffffffffffffffffffffffffff166370a08231886040518263ffffffff1660e01b81526004016110529190613c46565b602060405180830381865afa15801561106f573d6000803e3d6000fd5b505050506040513d601f19601f820116820180604052508101906110939190613ed6565b61309790919063ffffffff16565b10156110e2576040517f08c379a00000000000000000000000000000000000000000000000000000000081526004016110d990613e0f565b60405180910390fd5b5050505050505050565b80600160009054906101000a900473ffffffffffffffffffffffffffffffffffffffff1673ffffffffffffffffffffffffffffffffffffffff1685856001888890506111389190613c90565b81811061114857611147613cc4565b5b905060200201602081019061115d9190613cf3565b73ffffffffffffffffffffffffffffffffffffffff16146111b3576040517f08c379a00000000000000000000000000000000000000000000000000000000081526004016111aa90613d7d565b60405180910390fd5b611261858560008181106111ca576111c9613cc4565b5b90506020020160208101906111df9190613cf3565b3361125b60008054906101000a900473ffffffffffffffffffffffffffffffffffffffff168989600081811061121857611217613cc4565b5b905060200201602081019061122d9190613cf3565b8a8a600181811061124157611240613cc4565b5b90506020020160208101906112569190613cf3565b6125c9565b8a61263b565b6112ac858580806020026020016040519081016040528093929190818152602001838360200280828437600081840152601f19601f8201169050808301925050505050505030612ce6565b6000600160009054906101000a900473ffffffffffffffffffffffffffffffffffffffff1673ffffffffffffffffffffffffffffffffffffffff166370a08231306040518263ffffffff1660e01b81526004016113099190613c46565b602060405180830381865afa158015611326573d6000803e3d6000fd5b505050506040513d601f19601f8201168201806040525081019061134a9190613ed6565b90508681101561138f576040517f08c379a000000000000000000000000000000000000000000000000000000000815260040161138690613e0f565b60405180910390fd5b600160009054906101000a900473ffffffffffffffffffffffffffffffffffffffff1673ffffffffffffffffffffffffffffffffffffffff16632e1a7d4d826040518263ffffffff1660e01b81526004016113ea91906137ac565b600060405180830381600087803b15801561140457600080fd5b505af1158015611418573d6000803e3d6000fd5b505050506114268482612a4b565b5050505050505050565b606081600160009054906101000a900473ffffffffffffffffffffffffffffffffffffffff1673ffffffffffffffffffffffffffffffffffffffff16868660008181106114805761147f613cc4565b5b90506020020160208101906114959190613cf3565b73ffffffffffffffffffffffffffffffffffffffff16146114eb576040517f08c379a00000000000000000000000000000000000000000000000000000000081526004016114e290613d7d565b60405180910390fd5b61155760008054906101000a900473ffffffffffffffffffffffffffffffffffffffff1634888880806020026020016040519081016040528093929190818152602001838360200280828437600081840152601f19601f8201169050808301925050505050505061243e565b91508682600184516115699190613c90565b8151811061157a57611579613cc4565b5b602002602001015110156115c3576040517f08c379a00000000000000000000000000000000000000000000000000000000081526004016115ba90613e0f565b60405180910390fd5b600160009054906101000a900473ffffffffffffffffffffffffffffffffffffffff1673ffffffffffffffffffffffffffffffffffffffff1663d0e30db08360008151811061161557611614613cc4565b5b60200260200101516040518263ffffffff1660e01b81526004016000604051808303818588803b15801561164857600080fd5b505af115801561165c573d6000803e3d6000fd5b5050505050600160009054906101000a900473ffffffffffffffffffffffffffffffffffffffff1673ffffffffffffffffffffffffffffffffffffffff1663a9059cbb61171a60008054906101000a900473ffffffffffffffffffffffffffffffffffffffff16898960008181106116d7576116d6613cc4565b5b90506020020160208101906116ec9190613cf3565b8a8a6001818110611700576116ff613cc4565b5b90506020020160208101906117159190613cf3565b6125c9565b8460008151811061172e5761172d613cc4565b5b60200260200101516040518363ffffffff1660e01b8152600401611753929190613f03565b6020604051808303816000875af1158015611772573d6000803e3d6000fd5b505050506040513d601f19601f820116820180604052508101906117969190613f64565b6117a3576117a26136d1565b5b6117ef82878780806020026020016040519081016040528093929190818152602001838360200280828437600081840152601f19601f8201169050808301925050505050505086612774565b5095945050505050565b60006118068484846130e1565b90509392505050565b60608161187e60008054906101000a900473ffffffffffffffffffffffffffffffffffffffff1689888880806020026020016040519081016040528093929190818152602001838360200280828437600081840152601f19601f82011690508083019250505050505050612b4b565b9150868260008151811061189557611894613cc4565b5b602002602001015111156118fd57816000815181106118b7576118b6613cc4565b5b6020026020010151876040517f4c67496b0000000000000000000000000000000000000000000000000000000081526004016118f4929190613f91565b60405180910390fd5b6119c68686600081811061191457611913613cc4565b5b90506020020160208101906119299190613cf3565b336119a560008054906101000a900473ffffffffffffffffffffffffffffffffffffffff168a8a600081811061196257611961613cc4565b5b90506020020160208101906119779190613cf3565b8b8b600181811061198b5761198a613cc4565b5b90506020020160208101906119a09190613cf3565b6125c9565b856000815181106119b9576119b8613cc4565b5b602002602001015161263b565b611a1282878780806020026020016040519081016040528093929190818152602001838360200280828437600081840152601f19601f8201169050808301925050505050505086612774565b509695505050505050565b600160009054906101000a900473ffffffffffffffffffffffffffffffffffffffff1681565b6000611a508484846131f4565b90509392505050565b80600160009054906101000a900473ffffffffffffffffffffffffffffffffffffffff1673ffffffffffffffffffffffffffffffffffffffff1685856000818110611aa757611aa6613cc4565b5b9050602002016020810190611abc9190613cf3565b73ffffffffffffffffffffffffffffffffffffffff1614611b12576040517f08c379a0000000000000000000000000000000000000000000000000000000008152600401611b0990613d7d565b60405180910390fd5b6000349050600160009054906101000a900473ffffffffffffffffffffffffffffffffffffffff1673ffffffffffffffffffffffffffffffffffffffff1663d0e30db0826040518263ffffffff1660e01b81526004016000604051808303818588803b158015611b8157600080fd5b505af1158015611b95573d6000803e3d6000fd5b5050505050600160009054906101000a900473ffffffffffffffffffffffffffffffffffffffff1673ffffffffffffffffffffffffffffffffffffffff1663a9059cbb611c5360008054906101000a900473ffffffffffffffffffffffffffffffffffffffff1689896000818110611c1057611c0f613cc4565b5b9050602002016020810190611c259190613cf3565b8a8a6001818110611c3957611c38613cc4565b5b9050602002016020810190611c4e9190613cf3565b6125c9565b836040518363ffffffff1660e01b8152600401611c71929190613f03565b6020604051808303816000875af1158015611c90573d6000803e3d6000fd5b505050506040513d601f19601f82011682018060405250810190611cb49190613f64565b611cc157611cc06136d1565b5b60008686600189899050611cd59190613c90565b818110611ce557611ce4613cc4565b5b9050602002016020810190611cfa9190613cf3565b73ffffffffffffffffffffffffffffffffffffffff166370a08231866040518263ffffffff1660e01b8152600401611d329190613c46565b602060405180830381865afa158015611d4f573d6000803e3d6000fd5b505050506040513d601f19601f82011682018060405250810190611d739190613ed6565b9050611dc0878780806020026020016040519081016040528093929190818152602001838360200280828437600081840152601f19601f8201169050808301925050505050505086612ce6565b87611e8382898960018c8c9050611dd79190613c90565b818110611de757611de6613cc4565b5b9050602002016020810190611dfc9190613cf3565b73ffffffffffffffffffffffffffffffffffffffff166370a08231896040518263ffffffff1660e01b8152600401611e349190613c46565b602060405180830381865afa158015611e51573d6000803e3d6000fd5b505050506040513d601f19601f82011682018060405250810190611e759190613ed6565b61309790919063ffffffff16565b1015611ec4576040517f08c379a0000000000000000000000000000000000000000000000000000000008152600401611ebb90613e0f565b60405180910390fd5b5050505050505050565b60008054906101000a900473ffffffffffffffffffffffffffffffffffffffff1681565b6060611f1f60008054906101000a900473ffffffffffffffffffffffffffffffffffffffff16848461243e565b905092915050565b606081600160009054906101000a900473ffffffffffffffffffffffffffffffffffffffff1673ffffffffffffffffffffffffffffffffffffffff1686866000818110611f7757611f76613cc4565b5b9050602002016020810190611f8c9190613cf3565b73ffffffffffffffffffffffffffffffffffffffff1614611fe2576040517f08c379a0000000000000000000000000000000000000000000000000000000008152600401611fd990613d7d565b60405180910390fd5b61204e60008054906101000a900473ffffffffffffffffffffffffffffffffffffffff1688888880806020026020016040519081016040528093929190818152602001838360200280828437600081840152601f19601f82011690508083019250505050505050612b4b565b9150348260008151811061206557612064613cc4565b5b602002602001015111156120ae576040517f08c379a00000000000000000000000000000000000000000000000000000000081526004016120a590613ea1565b60405180910390fd5b600160009054906101000a900473ffffffffffffffffffffffffffffffffffffffff1673ffffffffffffffffffffffffffffffffffffffff1663d0e30db083600081518110612100576120ff613cc4565b5b60200260200101516040518263ffffffff1660e01b81526004016000604051808303818588803b15801561213357600080fd5b505af1158015612147573d6000803e3d6000fd5b5050505050600160009054906101000a900473ffffffffffffffffffffffffffffffffffffffff1673ffffffffffffffffffffffffffffffffffffffff1663a9059cbb61220560008054906101000a900473ffffffffffffffffffffffffffffffffffffffff16898960008181106121c2576121c1613cc4565b5b90506020020160208101906121d79190613cf3565b8a8a60018181106121eb576121ea613cc4565b5b90506020020160208101906122009190613cf3565b6125c9565b8460008151811061221957612218613cc4565b5b60200260200101516040518363ffffffff1660e01b815260040161223e929190613f03565b6020604051808303816000875af115801561225d573d6000803e3d6000fd5b505050506040513d601f19601f820116820180604052508101906122819190613f64565b61228e5761228d6136d1565b5b6122da82878780806020026020016040519081016040528093929190818152602001838360200280828437600081840152601f19601f8201169050808301925050505050505086612774565b816000815181106122ee576122ed613cc4565b5b602002602001015134111561232e5761232d338360008151811061231557612314613cc4565b5b6020026020010151346123289190613c90565b612a4b565b5b5095945050505050565b600080841161237c576040517f08c379a00000000000000000000000000000000000000000000000000000000081526004016123739061402c565b60405180910390fd5b60008311801561238c5750600082115b6123cb576040517f08c379a00000000000000000000000000000000000000000000000000000000081526004016123c2906140be565b60405180910390fd5b60006123e26103e5866132ae90919063ffffffff16565b905060006123f984836132ae90919063ffffffff16565b90506000612424836124166103e8896132ae90919063ffffffff16565b61331b90919063ffffffff16565b90508082612432919061410d565b93505050509392505050565b6060600282511015612485576040517f08c379a000000000000000000000000000000000000000000000000000000000815260040161247c9061418a565b60405180910390fd5b815167ffffffffffffffff8111156124a05761249f613a15565b5b6040519080825280602002602001820160405280156124ce5781602001602082028036833780820191505090505b50905082816000815181106124e6576124e5613cc4565b5b60200260200101818152505060005b600183516125039190613c90565b8110156125c1576000806125588786858151811061252457612523613cc4565b5b60200260200101518760018761253a91906141aa565b8151811061254b5761254a613cc4565b5b6020026020010151613374565b9150915061258184848151811061257257612571613cc4565b5b60200260200101518383612338565b8460018561258f91906141aa565b815181106125a05761259f613cc4565b5b602002602001018181525050505080806125b990614200565b9150506124f5565b509392505050565b60008060006125d885856134e8565b915091508582826040516020016125f0929190614290565b6040516020818303038152906040528051906020012060405160200161261792919061438a565b6040516020818303038152906040528051906020012060001c925050509392505050565b6000808573ffffffffffffffffffffffffffffffffffffffff166323b872dd86868660405160240161266f939291906143cc565b6040516020818303038152906040529060e01b6020820180517bffffffffffffffffffffffffffffffffffffffffffffffffffffffff83818316178352505050506040516126bd919061447d565b6000604051808303816000865af19150503d80600081146126fa576040519150601f19603f3d011682016040523d82523d6000602084013e6126ff565b606091505b509150915081801561272d575060008151148061272c57508080602001905181019061272b9190613f64565b5b5b61276c576040517f08c379a000000000000000000000000000000000000000000000000000000000815260040161276390614506565b60405180910390fd5b505050505050565b60005b600183516127859190613c90565b811015612a45576000808483815181106127a2576127a1613cc4565b5b6020026020010151856001856127b891906141aa565b815181106127c9576127c8613cc4565b5b60200260200101519150915060006127e183836134e8565b5090506000876001866127f491906141aa565b8151811061280557612804613cc4565b5b602002602001015190506000808373ffffffffffffffffffffffffffffffffffffffff168673ffffffffffffffffffffffffffffffffffffffff161461284d57826000612851565b6000835b91509150600060028a516128659190613c90565b881061287157886128c3565b6128c260008054906101000a900473ffffffffffffffffffffffffffffffffffffffff16878c60028c6128a491906141aa565b815181106128b5576128b4613cc4565b5b60200260200101516125c9565b5b905060008060009054906101000a900473ffffffffffffffffffffffffffffffffffffffff1673ffffffffffffffffffffffffffffffffffffffff1663e6a4390589896040518363ffffffff1660e01b8152600401612923929190614526565b602060405180830381865afa158015612940573d6000803e3d6000fd5b505050506040513d601f19601f820116820180604052508101906129649190614564565b905060008190508073ffffffffffffffffffffffffffffffffffffffff1663022c0d9f868686600067ffffffffffffffff8111156129a5576129a4613a15565b5b6040519080825280601f01601f1916602001820160405280156129d75781602001600182028036833780820191505090505b506040518563ffffffff1660e01b81526004016129f794939291906145db565b600060405180830381600087803b158015612a1157600080fd5b505af1158015612a25573d6000803e3d6000fd5b505050505050505050505050508080612a3d90614200565b915050612777565b50505050565b60008273ffffffffffffffffffffffffffffffffffffffff1682600067ffffffffffffffff811115612a8057612a7f613a15565b5b6040519080825280601f01601f191660200182016040528015612ab25781602001600182028036833780820191505090505b50604051612ac0919061447d565b60006040518083038185875af1925050503d8060008114612afd576040519150601f19603f3d011682016040523d82523d6000602084013e612b02565b606091505b5050905080612b46576040517f08c379a0000000000000000000000000000000000000000000000000000000008152600401612b3d90614699565b60405180910390fd5b505050565b6060600282511015612b92576040517f08c379a0000000000000000000000000000000000000000000000000000000008152600401612b899061418a565b60405180910390fd5b815167ffffffffffffffff811115612bad57612bac613a15565b5b604051908082528060200260200182016040528015612bdb5781602001602082028036833780820191505090505b509050828160018351612bee9190613c90565b81518110612bff57612bfe613cc4565b5b602002602001018181525050600060018351612c1b9190613c90565b90505b6000811115612cde57600080612c758786600186612c3c9190613c90565b81518110612c4d57612c4c613cc4565b5b6020026020010151878681518110612c6857612c67613cc4565b5b6020026020010151613374565b91509150612c9e848481518110612c8f57612c8e613cc4565b5b602002602001015183836130e1565b84600185612cac9190613c90565b81518110612cbd57612cbc613cc4565b5b60200260200101818152505050508080612cd6906146b9565b915050612c1e565b509392505050565b60005b60018351612cf79190613c90565b81101561309257600080848381518110612d1457612d13613cc4565b5b602002602001015185600185612d2a91906141aa565b81518110612d3b57612d3a613cc4565b5b6020026020010151915091506000612d5383836134e8565b5090506000612d8360008054906101000a900473ffffffffffffffffffffffffffffffffffffffff1685856125c9565b90506000806000808473ffffffffffffffffffffffffffffffffffffffff16630902f1ac6040518163ffffffff1660e01b8152600401606060405180830381865afa158015612dd6573d6000803e3d6000fd5b505050506040513d601f19601f82011682018060405250810190612dfa9190614764565b506dffffffffffffffffffffffffffff1691506dffffffffffffffffffffffffffff1691506000808773ffffffffffffffffffffffffffffffffffffffff168a73ffffffffffffffffffffffffffffffffffffffff1614612e5c578284612e5f565b83835b91509150612eef828b73ffffffffffffffffffffffffffffffffffffffff166370a082318a6040518263ffffffff1660e01b8152600401612ea09190613c46565b602060405180830381865afa158015612ebd573d6000803e3d6000fd5b505050506040513d601f19601f82011682018060405250810190612ee19190613ed6565b61309790919063ffffffff16565b9550612efc868383612338565b9450505050506000808573ffffffffffffffffffffffffffffffffffffffff168873ffffffffffffffffffffffffffffffffffffffff1614612f4057826000612f44565b6000835b91509150600060028c51612f589190613c90565b8a10612f64578a612fb6565b612fb560008054906101000a900473ffffffffffffffffffffffffffffffffffffffff16898e60028e612f9791906141aa565b81518110612fa857612fa7613cc4565b5b60200260200101516125c9565b5b90508573ffffffffffffffffffffffffffffffffffffffff1663022c0d9f848484600067ffffffffffffffff811115612ff257612ff1613a15565b5b6040519080825280601f01601f1916602001820160405280156130245781602001600182028036833780820191505090505b506040518563ffffffff1660e01b815260040161304494939291906145db565b600060405180830381600087803b15801561305e57600080fd5b505af1158015613072573d6000803e3d6000fd5b50505050505050505050505050808061308a90614200565b915050612ce9565b505050565b60006130d983836040518060400160405280601e81526020017f536166654d6174683a207375627472616374696f6e206f766572666c6f770000815250613614565b905092915050565b6000808411613125576040517f08c379a000000000000000000000000000000000000000000000000000000000815260040161311c90614829565b60405180910390fd5b6000831180156131355750600082115b613174576040517f08c379a000000000000000000000000000000000000000000000000000000000815260040161316b906140be565b60405180910390fd5b600061319d6103e861318f87876132ae90919063ffffffff16565b6132ae90919063ffffffff16565b905060006131c86103e56131ba888761367890919063ffffffff16565b6132ae90919063ffffffff16565b90506131e9600182846131db919061410d565b61331b90919063ffffffff16565b925050509392505050565b6000808411613238576040517f08c379a000000000000000000000000000000000000000000000000000000000815260040161322f906148bb565b60405180910390fd5b6000831180156132485750600082115b613287576040517f08c379a000000000000000000000000000000000000000000000000000000000815260040161327e906140be565b60405180910390fd5b8261329b83866132ae90919063ffffffff16565b6132a5919061410d565b90509392505050565b6000808214806132d65750828283856132c791906148db565b9250826132d4919061410d565b145b613315576040517f08c379a000000000000000000000000000000000000000000000000000000000815260040161330c90614981565b60405180910390fd5b92915050565b600082828461332a91906141aa565b915081101561336e576040517f08c379a0000000000000000000000000000000000000000000000000000000008152600401613365906149ed565b60405180910390fd5b92915050565b600080600061338385856134e8565b5090506000808773ffffffffffffffffffffffffffffffffffffffff1663e6a4390588886040518363ffffffff1660e01b81526004016133c4929190614526565b602060405180830381865afa1580156133e1573d6000803e3d6000fd5b505050506040513d601f19601f820116820180604052508101906134059190614564565b73ffffffffffffffffffffffffffffffffffffffff16630902f1ac6040518163ffffffff1660e01b8152600401606060405180830381865afa15801561344f573d6000803e3d6000fd5b505050506040513d601f19601f820116820180604052508101906134739190614764565b506dffffffffffffffffffffffffffff1691506dffffffffffffffffffffffffffff1691508273ffffffffffffffffffffffffffffffffffffffff168773ffffffffffffffffffffffffffffffffffffffff16146134d25780826134d5565b81815b8095508196505050505050935093915050565b6000808273ffffffffffffffffffffffffffffffffffffffff168473ffffffffffffffffffffffffffffffffffffffff1603613559576040517f08c379a000000000000000000000000000000000000000000000000000000000815260040161355090614a7f565b60405180910390fd5b8273ffffffffffffffffffffffffffffffffffffffff168473ffffffffffffffffffffffffffffffffffffffff1610613593578284613596565b83835b8092508193505050600073ffffffffffffffffffffffffffffffffffffffff168273ffffffffffffffffffffffffffffffffffffffff160361360d576040517f08c379a000000000000000000000000000000000000000000000000000000000815260040161360490614aeb565b60405180910390fd5b9250929050565b600083831115829061365c576040517f08c379a00000000000000000000000000000000000000000000000000000000081526004016136539190614b4f565b60405180910390fd5b506000838561366b9190613c90565b9050809150509392505050565b60008282846136879190613c90565b91508111156136cb576040517f08c379a00000000000000000000000000000000000000000000000000000000081526004016136c290614bbd565b60405180910390fd5b92915050565b7f4e487b7100000000000000000000000000000000000000000000000000000000600052600160045260246000fd5b6000604051905090565b600080fd5b600080fd5b6000819050919050565b61372781613714565b811461373257600080fd5b50565b6000813590506137448161371e565b92915050565b6000806000606084860312156137635761376261370a565b5b600061377186828701613735565b935050602061378286828701613735565b925050604061379386828701613735565b9150509250925092565b6137a681613714565b82525050565b60006020820190506137c1600083018461379d565b92915050565b600080fd5b600080fd5b600080fd5b60008083601f8401126137ec576137eb6137c7565b5b8235905067ffffffffffffffff811115613809576138086137cc565b5b602083019150836020820283011115613825576138246137d1565b5b9250929050565b600073ffffffffffffffffffffffffffffffffffffffff82169050919050565b60006138578261382c565b9050919050565b6138678161384c565b811461387257600080fd5b50565b6000813590506138848161385e565b92915050565b60008060008060008060a087890312156138a7576138a661370a565b5b60006138b589828a01613735565b96505060206138c689828a01613735565b955050604087013567ffffffffffffffff8111156138e7576138e661370f565b5b6138f389828a016137d6565b9450945050606061390689828a01613875565b925050608061391789828a01613735565b9150509295509295509295565b600081519050919050565b600082825260208201905092915050565b6000819050602082019050919050565b61395981613714565b82525050565b600061396b8383613950565b60208301905092915050565b6000602082019050919050565b600061398f82613924565b613999818561392f565b93506139a483613940565b8060005b838110156139d55781516139bc888261395f565b97506139c783613977565b9250506001810190506139a8565b5085935050505092915050565b600060208201905081810360008301526139fc8184613984565b905092915050565b6000601f19601f8301169050919050565b7f4e487b7100000000000000000000000000000000000000000000000000000000600052604160045260246000fd5b613a4d82613a04565b810181811067ffffffffffffffff82111715613a6c57613a6b613a15565b5b80604052505050565b6000613a7f613700565b9050613a8b8282613a44565b919050565b600067ffffffffffffffff821115613aab57613aaa613a15565b5b602082029050602081019050919050565b6000613acf613aca84613a90565b613a75565b90508083825260208201905060208402830185811115613af257613af16137d1565b5b835b81811015613b1b5780613b078882613875565b845260208401935050602081019050613af4565b5050509392505050565b600082601f830112613b3a57613b396137c7565b5b8135613b4a848260208601613abc565b91505092915050565b60008060408385031215613b6a57613b6961370a565b5b6000613b7885828601613735565b925050602083013567ffffffffffffffff811115613b9957613b9861370f565b5b613ba585828601613b25565b9150509250929050565b600080600080600060808688031215613bcb57613bca61370a565b5b6000613bd988828901613735565b955050602086013567ffffffffffffffff811115613bfa57613bf961370f565b5b613c06888289016137d6565b94509450506040613c1988828901613875565b9250506060613c2a88828901613735565b9150509295509295909350565b613c408161384c565b82525050565b6000602082019050613c5b6000830184613c37565b92915050565b7f4e487b7100000000000000000000000000000000000000000000000000000000600052601160045260246000fd5b6000613c9b82613714565b9150613ca683613714565b925082821015613cb957613cb8613c61565b5b828203905092915050565b7f4e487b7100000000000000000000000000000000000000000000000000000000600052603260045260246000fd5b600060208284031215613d0957613d0861370a565b5b6000613d1784828501613875565b91505092915050565b600082825260208201905092915050565b7f556e69737761705632526f757465723a20494e56414c49445f50415448000000600082015250565b6000613d67601d83613d20565b9150613d7282613d31565b602082019050919050565b60006020820190508181036000830152613d9681613d5a565b9050919050565b7f556e69737761705632526f757465723a20494e53554646494349454e545f4f5560008201527f545055545f414d4f554e54000000000000000000000000000000000000000000602082015250565b6000613df9602b83613d20565b9150613e0482613d9d565b604082019050919050565b60006020820190508181036000830152613e2881613dec565b9050919050565b7f556e69737761705632526f757465723a204558434553534956455f494e50555460008201527f5f414d4f554e5400000000000000000000000000000000000000000000000000602082015250565b6000613e8b602783613d20565b9150613e9682613e2f565b604082019050919050565b60006020820190508181036000830152613eba81613e7e565b9050919050565b600081519050613ed08161371e565b92915050565b600060208284031215613eec57613eeb61370a565b5b6000613efa84828501613ec1565b91505092915050565b6000604082019050613f186000830185613c37565b613f25602083018461379d565b9392505050565b60008115159050919050565b613f4181613f2c565b8114613f4c57600080fd5b50565b600081519050613f5e81613f38565b92915050565b600060208284031215613f7a57613f7961370a565b5b6000613f8884828501613f4f565b91505092915050565b6000604082019050613fa6600083018561379d565b613fb3602083018461379d565b9392505050565b7f556e697377617056324c6962726172793a20494e53554646494349454e545f4960008201527f4e5055545f414d4f554e54000000000000000000000000000000000000000000602082015250565b6000614016602b83613d20565b915061402182613fba565b604082019050919050565b6000602082019050818103600083015261404581614009565b9050919050565b7f556e697377617056324c6962726172793a20494e53554646494349454e545f4c60008201527f4951554944495459000000000000000000000000000000000000000000000000602082015250565b60006140a8602883613d20565b91506140b38261404c565b604082019050919050565b600060208201905081810360008301526140d78161409b565b9050919050565b7f4e487b7100000000000000000000000000000000000000000000000000000000600052601260045260246000fd5b600061411882613714565b915061412383613714565b925082614133576141326140de565b5b828204905092915050565b7f556e697377617056324c6962726172793a20494e56414c49445f504154480000600082015250565b6000614174601e83613d20565b915061417f8261413e565b602082019050919050565b600060208201905081810360008301526141a381614167565b9050919050565b60006141b582613714565b91506141c083613714565b9250827fffffffffffffffffffffffffffffffffffffffffffffffffffffffffffffffff038211156141f5576141f4613c61565b5b828201905092915050565b600061420b82613714565b91507fffffffffffffffffffffffffffffffffffffffffffffffffffffffffffffffff820361423d5761423c613c61565b5b600182019050919050565b60008160601b9050919050565b600061426082614248565b9050919050565b600061427282614255565b9050919050565b61428a6142858261384c565b614267565b82525050565b600061429c8285614279565b6014820191506142ac8284614279565b6014820191508190509392505050565b600081905092915050565b7fff00000000000000000000000000000000000000000000000000000000000000600082015250565b60006142fd6001836142bc565b9150614308826142c7565b600182019050919050565b6000819050919050565b6000819050919050565b61433861433382614313565b61431d565b82525050565b7f96e8ac4277198ff8b6f785478aa9a39f403cb768dd02cbee326c3e7da348845f600082015250565b60006143746020836142bc565b915061437f8261433e565b602082019050919050565b6000614395826142f0565b91506143a18285614279565b6014820191506143b18284614327565b6020820191506143c082614367565b91508190509392505050565b60006060820190506143e16000830186613c37565b6143ee6020830185613c37565b6143fb604083018461379d565b949350505050565b600081519050919050565b600081905092915050565b60005b8381101561443757808201518184015260208101905061441c565b83811115614446576000848401525b50505050565b600061445782614403565b614461818561440e565b9350614471818560208601614419565b80840191505092915050565b6000614489828461444c565b915081905092915050565b7f5472616e7366657248656c7065723a205452414e534645525f46524f4d5f464160008201527f494c454400000000000000000000000000000000000000000000000000000000602082015250565b60006144f0602483613d20565b91506144fb82614494565b604082019050919050565b6000602082019050818103600083015261451f816144e3565b9050919050565b600060408201905061453b6000830185613c37565b6145486020830184613c37565b9392505050565b60008151905061455e8161385e565b92915050565b60006020828403121561457a5761457961370a565b5b60006145888482850161454f565b91505092915050565b600082825260208201905092915050565b60006145ad82614403565b6145b78185614591565b93506145c7818560208601614419565b6145d081613a04565b840191505092915050565b60006080820190506145f0600083018761379d565b6145fd602083018661379d565b61460a6040830185613c37565b818103606083015261461c81846145a2565b905095945050505050565b7f5472616e7366657248656c7065723a204554485f5452414e534645525f46414960008201527f4c45440000000000000000000000000000000000000000000000000000000000602082015250565b6000614683602383613d20565b915061468e82614627565b604082019050919050565b600060208201905081810360008301526146b281614676565b9050919050565b60006146c482613714565b9150600082036146d7576146d6613c61565b5b600182039050919050565b60006dffffffffffffffffffffffffffff82169050919050565b614705816146e2565b811461471057600080fd5b50565b600081519050614722816146fc565b92915050565b600063ffffffff82169050919050565b61474181614728565b811461474c57600080fd5b50565b60008151905061475e81614738565b92915050565b60008060006060848603121561477d5761477c61370a565b5b600061478b86828701614713565b935050602061479c86828701614713565b92505060406147ad8682870161474f565b9150509250925092565b7f556e697377617056324c6962726172793a20494e53554646494349454e545f4f60008201527f55545055545f414d4f554e540000000000000000000000000000000000000000602082015250565b6000614813602c83613d20565b915061481e826147b7565b604082019050919050565b6000602082019050818103600083015261484281614806565b9050919050565b7f556e697377617056324c6962726172793a20494e53554646494349454e545f4160008201527f4d4f554e54000000000000000000000000000000000000000000000000000000602082015250565b60006148a5602583613d20565b91506148b082614849565b604082019050919050565b600060208201905081810360008301526148d481614898565b9050919050565b60006148e682613714565b91506148f183613714565b9250817fffffffffffffffffffffffffffffffffffffffffffffffffffffffffffffffff048311821515161561492a57614929613c61565b5b828202905092915050565b7f64732d6d6174682d6d756c2d6f766572666c6f77000000000000000000000000600082015250565b600061496b601483613d20565b915061497682614935565b602082019050919050565b6000602082019050818103600083015261499a8161495e565b9050919050565b7f64732d6d6174682d6164642d6f766572666c6f77000000000000000000000000600082015250565b60006149d7601483613d20565b91506149e2826149a1565b602082019050919050565b60006020820190508181036000830152614a06816149ca565b9050919050565b7f556e697377617056324c6962726172793a204944454e544943414c5f4144445260008201527f4553534553000000000000000000000000000000000000000000000000000000602082015250565b6000614a69602583613d20565b9150614a7482614a0d565b604082019050919050565b60006020820190508181036000830152614a9881614a5c565b9050919050565b7f556e697377617056324c6962726172793a205a45524f5f414444524553530000600082015250565b6000614ad5601e83613d20565b9150614ae082614a9f565b602082019050919050565b60006020820190508181036000830152614b0481614ac8565b9050919050565b600081519050919050565b6000614b2182614b0b565b614b2b8185613d20565b9350614b3b818560208601614419565b614b4481613a04565b840191505092915050565b60006020820190508181036000830152614b698184614b16565b905092915050565b7f64732d6d6174682d7375622d756e646572666c6f770000000000000000000000600082015250565b6000614ba7601583613d20565b9150614bb282614b71565b602082019050919050565b60006020820190508181036000830152614bd681614b9a565b905091905056fea26469706673582212205098d42f72859f76ca0723fa77d09ebd1adf5c54e0cbf470ee8d96525606d28d64736f6c634300080d0033",
  "linkReferences": {},
  "deployedLinkReferences": {}
}