{
  "_format": "hh-sol-artifact-1",
  "contractName": "UniswapV2Router02",
  "sourceName": "contracts/periphery/UniswapV2/UniswapV2Router02.sol",
  "abi": [
    {
      "inputs": [
        {
          "internalType": "address",
          "name": "_factory",
          "type": "address"
        },
        {
          "internalType": "address",
          "name": "_WETH",
          "type": "address"
        }
      ],
      "stateMutability": "nonpayable",
      "type": "constructor"
    },
    {
      "inputs": [],
      "name": "WETH",
      "outputs": [
        {
          "internalType": "address",
          "name": "",
          "type": "address"
        }
      ],
      "stateMutability": "view",
      "type": "function"
    },
    {
      "inputs": [],
      "name": "factory",
      "outputs": [
        {
          "internalType": "address",
          "name": "",
          "type": "address"
        }
      ],
      "stateMutability": "view",
      "type": "function"
    },
    {
      "inputs": [
        {
          "internalType": "uint256",
          "name": "amountOut",
          "type": "uint256"
        },
        {
          "internalType": "uint256",
          "name": "reserveIn",
          "type": "uint256"
        },
        {
          "internalType": "uint256",
          "name": "reserveOut",
          "type": "uint256"
        }
      ],
      "name": "getAmountIn",
      "outputs": [
        {
          "internalType": "uint256",
          "name": "amountIn",
          "type": "uint256"
        }
      ],
      "stateMutability": "pure",
      "type": "function"
    },
    {
      "inputs": [
        {
          "internalType": "uint256",
          "name": "amountIn",
          "type": "uint256"
        },
        {
          "internalType": "uint256",
          "name": "reserveIn",
          "type": "uint256"
        },
        {
          "internalType": "uint256",
          "name": "reserveOut",
          "type": "uint256"
        }
      ],
      "name": "getAmountOut",
      "outputs": [
        {
          "internalType": "uint256",
          "name": "amountOut",
          "type": "uint256"
        }
      ],
      "stateMutability": "pure",
      "type": "function"
    },
    {
      "inputs": [
        {
          "internalType": "uint256",
          "name": "amountOut",
          "type": "uint256"
        },
        {
          "internalType": "address[]",
          "name": "path",
          "type": "address[]"
        }
      ],
      "name": "getAmountsIn",
      "outputs": [
        {
          "internalType": "uint256[]",
          "name": "amounts",
          "type": "uint256[]"
        }
      ],
      "stateMutability": "view",
      "type": "function"
    },
    {
      "inputs": [
        {
          "internalType": "uint256",
          "name": "amountIn",
          "type": "uint256"
        },
        {
          "internalType": "address[]",
          "name": "path",
          "type": "address[]"
        }
      ],
      "name": "getAmountsOut",
      "outputs": [
        {
          "internalType": "uint256[]",
          "name": "amounts",
          "type": "uint256[]"
        }
      ],
      "stateMutability": "view",
      "type": "function"
    },
    {
      "inputs": [
        {
          "internalType": "uint256",
          "name": "amountA",
          "type": "uint256"
        },
        {
          "internalType": "uint256",
          "name": "reserveA",
          "type": "uint256"
        },
        {
          "internalType": "uint256",
          "name": "reserveB",
          "type": "uint256"
        }
      ],
      "name": "quote",
      "outputs": [
        {
          "internalType": "uint256",
          "name": "amountB",
          "type": "uint256"
        }
      ],
      "stateMutability": "pure",
      "type": "function"
    },
    {
      "inputs": [
        {
          "internalType": "uint256",
          "name": "amountOut",
          "type": "uint256"
        },
        {
          "internalType": "address[]",
          "name": "path",
          "type": "address[]"
        },
        {
          "internalType": "address",
          "name": "to",
          "type": "address"
        },
        {
          "internalType": "uint256",
          "name": "deadline",
          "type": "uint256"
        }
      ],
      "name": "swapETHForExactTokens",
      "outputs": [
        {
          "internalType": "uint256[]",
          "name": "amounts",
          "type": "uint256[]"
        }
      ],
      "stateMutability": "payable",
      "type": "function"
    },
    {
      "inputs": [
        {
          "internalType": "uint256",
          "name": "amountOutMin",
          "type": "uint256"
        },
        {
          "internalType": "address[]",
          "name": "path",
          "type": "address[]"
        },
        {
          "internalType": "address",
          "name": "to",
          "type": "address"
        },
        {
          "internalType": "uint256",
          "name": "deadline",
          "type": "uint256"
        }
      ],
      "name": "swapExactETHForTokens",
      "outputs": [
        {
          "internalType": "uint256[]",
          "name": "amounts",
          "type": "uint256[]"
        }
      ],
      "stateMutability": "payable",
      "type": "function"
    },
    {
      "inputs": [
        {
          "internalType": "uint256",
          "name": "amountOutMin",
          "type": "uint256"
        },
        {
          "internalType": "address[]",
          "name": "path",
          "type": "address[]"
        },
        {
          "internalType": "address",
          "name": "to",
          "type": "address"
        },
        {
          "internalType": "uint256",
          "name": "deadline",
          "type": "uint256"
        }
      ],
      "name": "swapExactETHForTokensSupportingFeeOnTransferTokens",
      "outputs": [],
      "stateMutability": "payable",
      "type": "function"
    },
    {
      "inputs": [
        {
          "internalType": "uint256",
          "name": "amountIn",
          "type": "uint256"
        },
        {
          "internalType": "uint256",
          "name": "amountOutMin",
          "type": "uint256"
        },
        {
          "internalType": "address[]",
          "name": "path",
          "type": "address[]"
        },
        {
          "internalType": "address",
          "name": "to",
          "type": "address"
        },
        {
          "internalType": "uint256",
          "name": "deadline",
          "type": "uint256"
        }
      ],
      "name": "swapExactTokensForETH",
      "outputs": [
        {
          "internalType": "uint256[]",
          "name": "amounts",
          "type": "uint256[]"
        }
      ],
      "stateMutability": "nonpayable",
      "type": "function"
    },
    {
      "inputs": [
        {
          "internalType": "uint256",
          "name": "amountIn",
          "type": "uint256"
        },
        {
          "internalType": "uint256",
          "name": "amountOutMin",
          "type": "uint256"
        },
        {
          "internalType": "address[]",
          "name": "path",
          "type": "address[]"
        },
        {
          "internalType": "address",
          "name": "to",
          "type": "address"
        },
        {
          "internalType": "uint256",
          "name": "deadline",
          "type": "uint256"
        }
      ],
      "name": "swapExactTokensForETHSupportingFeeOnTransferTokens",
      "outputs": [],
      "stateMutability": "nonpayable",
      "type": "function"
    },
    {
      "inputs": [
        {
          "internalType": "uint256",
          "name": "amountIn",
          "type": "uint256"
        },
        {
          "internalType": "uint256",
          "name": "amountOutMin",
          "type": "uint256"
        },
        {
          "internalType": "address[]",
          "name": "path",
          "type": "address[]"
        },
        {
          "internalType": "address",
          "name": "to",
          "type": "address"
        },
        {
          "internalType": "uint256",
          "name": "deadline",
          "type": "uint256"
        }
      ],
      "name": "swapExactTokensForTokens",
      "outputs": [
        {
          "internalType": "uint256[]",
          "name": "amounts",
          "type": "uint256[]"
        }
      ],
      "stateMutability": "nonpayable",
      "type": "function"
    },
    {
      "inputs": [
        {
          "internalType": "uint256",
          "name": "amountIn",
          "type": "uint256"
        },
        {
          "internalType": "uint256",
          "name": "amountOutMin",
          "type": "uint256"
        },
        {
          "internalType": "address[]",
          "name": "path",
          "type": "address[]"
        },
        {
          "internalType": "address",
          "name": "to",
          "type": "address"
        },
        {
          "internalType": "uint256",
          "name": "deadline",
          "type": "uint256"
        }
      ],
      "name": "swapExactTokensForTokensSupportingFeeOnTransferTokens",
      "outputs": [],
      "stateMutability": "nonpayable",
      "type": "function"
    },
    {
      "inputs": [
        {
          "internalType": "uint256",
          "name": "amountOut",
          "type": "uint256"
        },
        {
          "internalType": "uint256",
          "name": "amountInMax",
          "type": "uint256"
        },
        {
          "internalType": "address[]",
          "name": "path",
          "type": "address[]"
        },
        {
          "internalType": "address",
          "name": "to",
          "type": "address"
        },
        {
          "internalType": "uint256",
          "name": "deadline",
          "type": "uint256"
        }
      ],
      "name": "swapTokensForExactETH",
      "outputs": [
        {
          "internalType": "uint256[]",
          "name": "amounts",
          "type": "uint256[]"
        }
      ],
      "stateMutability": "nonpayable",
      "type": "function"
    },
    {
      "inputs": [
        {
          "internalType": "uint256",
          "name": "amountOut",
          "type": "uint256"
        },
        {
          "internalType": "uint256",
          "name": "amountInMax",
          "type": "uint256"
        },
        {
          "internalType": "address[]",
          "name": "path",
          "type": "address[]"
        },
        {
          "internalType": "address",
          "name": "to",
          "type": "address"
        },
        {
          "internalType": "uint256",
          "name": "deadline",
          "type": "uint256"
        }
      ],
      "name": "swapTokensForExactTokens",
      "outputs": [
        {
          "internalType": "uint256[]",
          "name": "amounts",
          "type": "uint256[]"
        }
      ],
      "stateMutability": "nonpayable",
      "type": "function"
    },
    {
      "stateMutability": "payable",
      "type": "receive"
    }
  ],
  "bytecode": "0x60806040523480156200001157600080fd5b50604051620050133803806200501383398181016040528101906200003791906200012a565b816000806101000a81548173ffffffffffffffffffffffffffffffffffffffff021916908373ffffffffffffffffffffffffffffffffffffffff16021790555080600160006101000a81548173ffffffffffffffffffffffffffffffffffffffff021916908373ffffffffffffffffffffffffffffffffffffffff160217905550505062000171565b600080fd5b600073ffffffffffffffffffffffffffffffffffffffff82169050919050565b6000620000f282620000c5565b9050919050565b6200010481620000e5565b81146200011057600080fd5b50565b6000815190506200012481620000f9565b92915050565b60008060408385031215620001445762000143620000c0565b5b6000620001548582860162000113565b9250506020620001678582860162000113565b9150509250929050565b614e9280620001816000396000f3fe6080604052600436106100f75760003560e01c806385f8c2591161008a578063b6f9de9511610059578063b6f9de95146103f6578063c45a015514610412578063d06ca61f1461043d578063fb3bdb411461047a5761015c565b806385f8c259146103145780638803dbee14610351578063ad5c46481461038e578063ad615dec146103b95761015c565b80634a25d94a116100c65780634a25d94a146102555780635c11d79514610292578063791ac947146102bb5780637ff36ab5146102e45761015c565b8063054d50d41461016157806318cbafe51461019e5780631f00ca74146101db57806338ed1739146102185761015c565b3661015c57600160009054906101000a900473ffffffffffffffffffffffffffffffffffffffff1673ffffffffffffffffffffffffffffffffffffffff163373ffffffffffffffffffffffffffffffffffffffff161461015a5761015961390d565b5b005b600080fd5b34801561016d57600080fd5b5061018860048036038101906101839190613986565b6104aa565b60405161019591906139e8565b60405180910390f35b3480156101aa57600080fd5b506101c560048036038101906101c09190613ac6565b6104c0565b6040516101d29190613c1e565b60405180910390f35b3480156101e757600080fd5b5061020260048036038101906101fd9190613d8f565b6108a9565b60405161020f9190613c1e565b60405180910390f35b34801561022457600080fd5b5061023f600480360381019061023a9190613ac6565b6108de565b60405161024c9190613c1e565b60405180910390f35b34801561026157600080fd5b5061027c60048036038101906102779190613ac6565b610b1c565b6040516102899190613c1e565b60405180910390f35b34801561029e57600080fd5b506102b960048036038101906102b49190613ac6565b610ef9565b005b3480156102c757600080fd5b506102e260048036038101906102dd9190613ac6565b6111f8565b005b6102fe60048036038101906102f99190613deb565b61157f565b60405161030b9190613c1e565b60405180910390f35b34801561032057600080fd5b5061033b60048036038101906103369190613986565b61198b565b60405161034891906139e8565b60405180910390f35b34801561035d57600080fd5b5061037860048036038101906103739190613ac6565b6119a1565b6040516103859190613c1e565b60405180910390f35b34801561039a57600080fd5b506103a3611bd3565b6040516103b09190613e82565b60405180910390f35b3480156103c557600080fd5b506103e060048036038101906103db9190613986565b611bf9565b6040516103ed91906139e8565b60405180910390f35b610410600480360381019061040b9190613deb565b611c0f565b005b34801561041e57600080fd5b506104276120c7565b6040516104349190613e82565b60405180910390f35b34801561044957600080fd5b50610464600480360381019061045f9190613d8f565b6120eb565b6040516104719190613c1e565b60405180910390f35b610494600480360381019061048f9190613deb565b612120565b6040516104a19190613c1e565b60405180910390f35b60006104b7848484612574565b90509392505050565b60608142811015610506576040517f08c379a00000000000000000000000000000000000000000000000000000000081526004016104fd90613efa565b60405180910390fd5b600160009054906101000a900473ffffffffffffffffffffffffffffffffffffffff1673ffffffffffffffffffffffffffffffffffffffff1686866001898990506105519190613f49565b81811061056157610560613f7d565b5b90506020020160208101906105769190613fac565b73ffffffffffffffffffffffffffffffffffffffff16146105cc576040517f08c379a00000000000000000000000000000000000000000000000000000000081526004016105c390614025565b60405180910390fd5b61063860008054906101000a900473ffffffffffffffffffffffffffffffffffffffff1689888880806020026020016040519081016040528093929190818152602001838360200280828437600081840152601f19601f8201169050808301925050505050505061267a565b915086826001845161064a9190613f49565b8151811061065b5761065a613f7d565b5b602002602001015110156106a4576040517f08c379a000000000000000000000000000000000000000000000000000000000815260040161069b906140b7565b60405180910390fd5b61076d868660008181106106bb576106ba613f7d565b5b90506020020160208101906106d09190613fac565b3361074c60008054906101000a900473ffffffffffffffffffffffffffffffffffffffff168a8a600081811061070957610708613f7d565b5b905060200201602081019061071e9190613fac565b8b8b600181811061073257610731613f7d565b5b90506020020160208101906107479190613fac565b612805565b856000815181106107605761075f613f7d565b5b6020026020010151612877565b6107b982878780806020026020016040519081016040528093929190818152602001838360200280828437600081840152601f19601f82011690508083019250505050505050306129b0565b600160009054906101000a900473ffffffffffffffffffffffffffffffffffffffff1673ffffffffffffffffffffffffffffffffffffffff16632e1a7d4d83600185516108069190613f49565b8151811061081757610816613f7d565b5b60200260200101516040518263ffffffff1660e01b815260040161083b91906139e8565b600060405180830381600087803b15801561085557600080fd5b505af1158015610869573d6000803e3d6000fd5b5050505061089e8483600185516108809190613f49565b8151811061089157610890613f7d565b5b6020026020010151612c87565b509695505050505050565b60606108d660008054906101000a900473ffffffffffffffffffffffffffffffffffffffff168484612d87565b905092915050565b60608142811015610924576040517f08c379a000000000000000000000000000000000000000000000000000000000815260040161091b90613efa565b60405180910390fd5b61099060008054906101000a900473ffffffffffffffffffffffffffffffffffffffff1689888880806020026020016040519081016040528093929190818152602001838360200280828437600081840152601f19601f8201169050808301925050505050505061267a565b91508682600184516109a29190613f49565b815181106109b3576109b2613f7d565b5b602002602001015110156109fc576040517f08c379a00000000000000000000000000000000000000000000000000000000081526004016109f3906140b7565b60405180910390fd5b610ac586866000818110610a1357610a12613f7d565b5b9050602002016020810190610a289190613fac565b33610aa460008054906101000a900473ffffffffffffffffffffffffffffffffffffffff168a8a6000818110610a6157610a60613f7d565b5b9050602002016020810190610a769190613fac565b8b8b6001818110610a8a57610a89613f7d565b5b9050602002016020810190610a9f9190613fac565b612805565b85600081518110610ab857610ab7613f7d565b5b6020026020010151612877565b610b1182878780806020026020016040519081016040528093929190818152602001838360200280828437600081840152601f19601f82011690508083019250505050505050866129b0565b509695505050505050565b60608142811015610b62576040517f08c379a0000000000000000000000000000000000000000000000000000000008152600401610b5990613efa565b60405180910390fd5b600160009054906101000a900473ffffffffffffffffffffffffffffffffffffffff1673ffffffffffffffffffffffffffffffffffffffff168686600189899050610bad9190613f49565b818110610bbd57610bbc613f7d565b5b9050602002016020810190610bd29190613fac565b73ffffffffffffffffffffffffffffffffffffffff1614610c28576040517f08c379a0000000000000000000000000000000000000000000000000000000008152600401610c1f90614025565b60405180910390fd5b610c9460008054906101000a900473ffffffffffffffffffffffffffffffffffffffff1689888880806020026020016040519081016040528093929190818152602001838360200280828437600081840152601f19601f82011690508083019250505050505050612d87565b91508682600081518110610cab57610caa613f7d565b5b60200260200101511115610cf4576040517f08c379a0000000000000000000000000000000000000000000000000000000008152600401610ceb90614149565b60405180910390fd5b610dbd86866000818110610d0b57610d0a613f7d565b5b9050602002016020810190610d209190613fac565b33610d9c60008054906101000a900473ffffffffffffffffffffffffffffffffffffffff168a8a6000818110610d5957610d58613f7d565b5b9050602002016020810190610d6e9190613fac565b8b8b6001818110610d8257610d81613f7d565b5b9050602002016020810190610d979190613fac565b612805565b85600081518110610db057610daf613f7d565b5b6020026020010151612877565b610e0982878780806020026020016040519081016040528093929190818152602001838360200280828437600081840152601f19601f82011690508083019250505050505050306129b0565b600160009054906101000a900473ffffffffffffffffffffffffffffffffffffffff1673ffffffffffffffffffffffffffffffffffffffff16632e1a7d4d8360018551610e569190613f49565b81518110610e6757610e66613f7d565b5b60200260200101516040518263ffffffff1660e01b8152600401610e8b91906139e8565b600060405180830381600087803b158015610ea557600080fd5b505af1158015610eb9573d6000803e3d6000fd5b50505050610eee848360018551610ed09190613f49565b81518110610ee157610ee0613f7d565b5b6020026020010151612c87565b509695505050505050565b8042811015610f3d576040517f08c379a0000000000000000000000000000000000000000000000000000000008152600401610f3490613efa565b60405180910390fd5b610feb85856000818110610f5457610f53613f7d565b5b9050602002016020810190610f699190613fac565b33610fe560008054906101000a900473ffffffffffffffffffffffffffffffffffffffff1689896000818110610fa257610fa1613f7d565b5b9050602002016020810190610fb79190613fac565b8a8a6001818110610fcb57610fca613f7d565b5b9050602002016020810190610fe09190613fac565b612805565b8a612877565b60008585600188889050610fff9190613f49565b81811061100f5761100e613f7d565b5b90506020020160208101906110249190613fac565b73ffffffffffffffffffffffffffffffffffffffff166370a08231856040518263ffffffff1660e01b815260040161105c9190613e82565b602060405180830381865afa158015611079573d6000803e3d6000fd5b505050506040513d601f19601f8201168201806040525081019061109d919061417e565b90506110ea868680806020026020016040519081016040528093929190818152602001838360200280828437600081840152601f19601f8201169050808301925050505050505085612f22565b866111ad82888860018b8b90506111019190613f49565b81811061111157611110613f7d565b5b90506020020160208101906111269190613fac565b73ffffffffffffffffffffffffffffffffffffffff166370a08231886040518263ffffffff1660e01b815260040161115e9190613e82565b602060405180830381865afa15801561117b573d6000803e3d6000fd5b505050506040513d601f19601f8201168201806040525081019061119f919061417e565b6132d390919063ffffffff16565b10156111ee576040517f08c379a00000000000000000000000000000000000000000000000000000000081526004016111e5906140b7565b60405180910390fd5b5050505050505050565b804281101561123c576040517f08c379a000000000000000000000000000000000000000000000000000000000815260040161123390613efa565b60405180910390fd5b600160009054906101000a900473ffffffffffffffffffffffffffffffffffffffff1673ffffffffffffffffffffffffffffffffffffffff1685856001888890506112879190613f49565b81811061129757611296613f7d565b5b90506020020160208101906112ac9190613fac565b73ffffffffffffffffffffffffffffffffffffffff1614611302576040517f08c379a00000000000000000000000000000000000000000000000000000000081526004016112f990614025565b60405180910390fd5b6113b08585600081811061131957611318613f7d565b5b905060200201602081019061132e9190613fac565b336113aa60008054906101000a900473ffffffffffffffffffffffffffffffffffffffff168989600081811061136757611366613f7d565b5b905060200201602081019061137c9190613fac565b8a8a60018181106113905761138f613f7d565b5b90506020020160208101906113a59190613fac565b612805565b8a612877565b6113fb858580806020026020016040519081016040528093929190818152602001838360200280828437600081840152601f19601f8201169050808301925050505050505030612f22565b6000600160009054906101000a900473ffffffffffffffffffffffffffffffffffffffff1673ffffffffffffffffffffffffffffffffffffffff166370a08231306040518263ffffffff1660e01b81526004016114589190613e82565b602060405180830381865afa158015611475573d6000803e3d6000fd5b505050506040513d601f19601f82011682018060405250810190611499919061417e565b9050868110156114de576040517f08c379a00000000000000000000000000000000000000000000000000000000081526004016114d5906140b7565b60405180910390fd5b600160009054906101000a900473ffffffffffffffffffffffffffffffffffffffff1673ffffffffffffffffffffffffffffffffffffffff16632e1a7d4d826040518263ffffffff1660e01b815260040161153991906139e8565b600060405180830381600087803b15801561155357600080fd5b505af1158015611567573d6000803e3d6000fd5b505050506115758482612c87565b5050505050505050565b606081428110156115c5576040517f08c379a00000000000000000000000000000000000000000000000000000000081526004016115bc90613efa565b60405180910390fd5b600160009054906101000a900473ffffffffffffffffffffffffffffffffffffffff1673ffffffffffffffffffffffffffffffffffffffff168686600081811061161257611611613f7d565b5b90506020020160208101906116279190613fac565b73ffffffffffffffffffffffffffffffffffffffff161461167d576040517f08c379a000000000000000000000000000000000000000000000000000000000815260040161167490614025565b60405180910390fd5b6116e960008054906101000a900473ffffffffffffffffffffffffffffffffffffffff1634888880806020026020016040519081016040528093929190818152602001838360200280828437600081840152601f19601f8201169050808301925050505050505061267a565b91508682600184516116fb9190613f49565b8151811061170c5761170b613f7d565b5b60200260200101511015611755576040517f08c379a000000000000000000000000000000000000000000000000000000000815260040161174c906140b7565b60405180910390fd5b600160009054906101000a900473ffffffffffffffffffffffffffffffffffffffff1673ffffffffffffffffffffffffffffffffffffffff1663d0e30db0836000815181106117a7576117a6613f7d565b5b60200260200101516040518263ffffffff1660e01b81526004016000604051808303818588803b1580156117da57600080fd5b505af11580156117ee573d6000803e3d6000fd5b5050505050600160009054906101000a900473ffffffffffffffffffffffffffffffffffffffff1673ffffffffffffffffffffffffffffffffffffffff1663a9059cbb6118ac60008054906101000a900473ffffffffffffffffffffffffffffffffffffffff168989600081811061186957611868613f7d565b5b905060200201602081019061187e9190613fac565b8a8a600181811061189257611891613f7d565b5b90506020020160208101906118a79190613fac565b612805565b846000815181106118c0576118bf613f7d565b5b60200260200101516040518363ffffffff1660e01b81526004016118e59291906141ab565b6020604051808303816000875af1158015611904573d6000803e3d6000fd5b505050506040513d601f19601f82011682018060405250810190611928919061420c565b6119355761193461390d565b5b61198182878780806020026020016040519081016040528093929190818152602001838360200280828437600081840152601f19601f82011690508083019250505050505050866129b0565b5095945050505050565b600061199884848461331d565b90509392505050565b606081428110156119e7576040517f08c379a00000000000000000000000000000000000000000000000000000000081526004016119de90613efa565b60405180910390fd5b611a5360008054906101000a900473ffffffffffffffffffffffffffffffffffffffff1689888880806020026020016040519081016040528093929190818152602001838360200280828437600081840152601f19601f82011690508083019250505050505050612d87565b91508682600081518110611a6a57611a69613f7d565b5b60200260200101511115611ab3576040517f08c379a0000000000000000000000000000000000000000000000000000000008152600401611aaa90614149565b60405180910390fd5b611b7c86866000818110611aca57611ac9613f7d565b5b9050602002016020810190611adf9190613fac565b33611b5b60008054906101000a900473ffffffffffffffffffffffffffffffffffffffff168a8a6000818110611b1857611b17613f7d565b5b9050602002016020810190611b2d9190613fac565b8b8b6001818110611b4157611b40613f7d565b5b9050602002016020810190611b569190613fac565b612805565b85600081518110611b6f57611b6e613f7d565b5b6020026020010151612877565b611bc882878780806020026020016040519081016040528093929190818152602001838360200280828437600081840152601f19601f82011690508083019250505050505050866129b0565b509695505050505050565b600160009054906101000a900473ffffffffffffffffffffffffffffffffffffffff1681565b6000611c06848484613430565b90509392505050565b8042811015611c53576040517f08c379a0000000000000000000000000000000000000000000000000000000008152600401611c4a90613efa565b60405180910390fd5b600160009054906101000a900473ffffffffffffffffffffffffffffffffffffffff1673ffffffffffffffffffffffffffffffffffffffff1685856000818110611ca057611c9f613f7d565b5b9050602002016020810190611cb59190613fac565b73ffffffffffffffffffffffffffffffffffffffff1614611d0b576040517f08c379a0000000000000000000000000000000000000000000000000000000008152600401611d0290614025565b60405180910390fd5b6000349050600160009054906101000a900473ffffffffffffffffffffffffffffffffffffffff1673ffffffffffffffffffffffffffffffffffffffff1663d0e30db0826040518263ffffffff1660e01b81526004016000604051808303818588803b158015611d7a57600080fd5b505af1158015611d8e573d6000803e3d6000fd5b5050505050600160009054906101000a900473ffffffffffffffffffffffffffffffffffffffff1673ffffffffffffffffffffffffffffffffffffffff1663a9059cbb611e4c60008054906101000a900473ffffffffffffffffffffffffffffffffffffffff1689896000818110611e0957611e08613f7d565b5b9050602002016020810190611e1e9190613fac565b8a8a6001818110611e3257611e31613f7d565b5b9050602002016020810190611e479190613fac565b612805565b836040518363ffffffff1660e01b8152600401611e6a9291906141ab565b6020604051808303816000875af1158015611e89573d6000803e3d6000fd5b505050506040513d601f19601f82011682018060405250810190611ead919061420c565b611eba57611eb961390d565b5b60008686600189899050611ece9190613f49565b818110611ede57611edd613f7d565b5b9050602002016020810190611ef39190613fac565b73ffffffffffffffffffffffffffffffffffffffff166370a08231866040518263ffffffff1660e01b8152600401611f2b9190613e82565b602060405180830381865afa158015611f48573d6000803e3d6000fd5b505050506040513d601f19601f82011682018060405250810190611f6c919061417e565b9050611fb9878780806020026020016040519081016040528093929190818152602001838360200280828437600081840152601f19601f8201169050808301925050505050505086612f22565b8761207c82898960018c8c9050611fd09190613f49565b818110611fe057611fdf613f7d565b5b9050602002016020810190611ff59190613fac565b73ffffffffffffffffffffffffffffffffffffffff166370a08231896040518263ffffffff1660e01b815260040161202d9190613e82565b602060405180830381865afa15801561204a573d6000803e3d6000fd5b505050506040513d601f19601f8201168201806040525081019061206e919061417e565b6132d390919063ffffffff16565b10156120bd576040517f08c379a00000000000000000000000000000000000000000000000000000000081526004016120b4906140b7565b60405180910390fd5b5050505050505050565b60008054906101000a900473ffffffffffffffffffffffffffffffffffffffff1681565b606061211860008054906101000a900473ffffffffffffffffffffffffffffffffffffffff16848461267a565b905092915050565b60608142811015612166576040517f08c379a000000000000000000000000000000000000000000000000000000000815260040161215d90613efa565b60405180910390fd5b600160009054906101000a900473ffffffffffffffffffffffffffffffffffffffff1673ffffffffffffffffffffffffffffffffffffffff16868660008181106121b3576121b2613f7d565b5b90506020020160208101906121c89190613fac565b73ffffffffffffffffffffffffffffffffffffffff161461221e576040517f08c379a000000000000000000000000000000000000000000000000000000000815260040161221590614025565b60405180910390fd5b61228a60008054906101000a900473ffffffffffffffffffffffffffffffffffffffff1688888880806020026020016040519081016040528093929190818152602001838360200280828437600081840152601f19601f82011690508083019250505050505050612d87565b915034826000815181106122a1576122a0613f7d565b5b602002602001015111156122ea576040517f08c379a00000000000000000000000000000000000000000000000000000000081526004016122e190614149565b60405180910390fd5b600160009054906101000a900473ffffffffffffffffffffffffffffffffffffffff1673ffffffffffffffffffffffffffffffffffffffff1663d0e30db08360008151811061233c5761233b613f7d565b5b60200260200101516040518263ffffffff1660e01b81526004016000604051808303818588803b15801561236f57600080fd5b505af1158015612383573d6000803e3d6000fd5b5050505050600160009054906101000a900473ffffffffffffffffffffffffffffffffffffffff1673ffffffffffffffffffffffffffffffffffffffff1663a9059cbb61244160008054906101000a900473ffffffffffffffffffffffffffffffffffffffff16898960008181106123fe576123fd613f7d565b5b90506020020160208101906124139190613fac565b8a8a600181811061242757612426613f7d565b5b905060200201602081019061243c9190613fac565b612805565b8460008151811061245557612454613f7d565b5b60200260200101516040518363ffffffff1660e01b815260040161247a9291906141ab565b6020604051808303816000875af1158015612499573d6000803e3d6000fd5b505050506040513d601f19601f820116820180604052508101906124bd919061420c565b6124ca576124c961390d565b5b61251682878780806020026020016040519081016040528093929190818152602001838360200280828437600081840152601f19601f82011690508083019250505050505050866129b0565b8160008151811061252a57612529613f7d565b5b602002602001015134111561256a57612569338360008151811061255157612550613f7d565b5b6020026020010151346125649190613f49565b612c87565b5b5095945050505050565b60008084116125b8576040517f08c379a00000000000000000000000000000000000000000000000000000000081526004016125af906142ab565b60405180910390fd5b6000831180156125c85750600082115b612607576040517f08c379a00000000000000000000000000000000000000000000000000000000081526004016125fe9061433d565b60405180910390fd5b600061261e6103e5866134ea90919063ffffffff16565b9050600061263584836134ea90919063ffffffff16565b90506000612660836126526103e8896134ea90919063ffffffff16565b61355790919063ffffffff16565b9050808261266e919061438c565b93505050509392505050565b60606002825110156126c1576040517f08c379a00000000000000000000000000000000000000000000000000000000081526004016126b890614409565b60405180910390fd5b815167ffffffffffffffff8111156126dc576126db613c51565b5b60405190808252806020026020018201604052801561270a5781602001602082028036833780820191505090505b509050828160008151811061272257612721613f7d565b5b60200260200101818152505060005b6001835161273f9190613f49565b8110156127fd57600080612794878685815181106127605761275f613f7d565b5b6020026020010151876001876127769190614429565b8151811061278757612786613f7d565b5b60200260200101516135b0565b915091506127bd8484815181106127ae576127ad613f7d565b5b60200260200101518383612574565b846001856127cb9190614429565b815181106127dc576127db613f7d565b5b602002602001018181525050505080806127f59061447f565b915050612731565b509392505050565b60008060006128148585613724565b9150915085828260405160200161282c92919061450f565b60405160208183030381529060405280519060200120604051602001612853929190614609565b6040516020818303038152906040528051906020012060001c925050509392505050565b6000808573ffffffffffffffffffffffffffffffffffffffff166323b872dd8686866040516024016128ab9392919061464b565b6040516020818303038152906040529060e01b6020820180517bffffffffffffffffffffffffffffffffffffffffffffffffffffffff83818316178352505050506040516128f991906146fc565b6000604051808303816000865af19150503d8060008114612936576040519150601f19603f3d011682016040523d82523d6000602084013e61293b565b606091505b50915091508180156129695750600081511480612968575080806020019051810190612967919061420c565b5b5b6129a8576040517f08c379a000000000000000000000000000000000000000000000000000000000815260040161299f90614785565b60405180910390fd5b505050505050565b60005b600183516129c19190613f49565b811015612c81576000808483815181106129de576129dd613f7d565b5b6020026020010151856001856129f49190614429565b81518110612a0557612a04613f7d565b5b6020026020010151915091506000612a1d8383613724565b509050600087600186612a309190614429565b81518110612a4157612a40613f7d565b5b602002602001015190506000808373ffffffffffffffffffffffffffffffffffffffff168673ffffffffffffffffffffffffffffffffffffffff1614612a8957826000612a8d565b6000835b91509150600060028a51612aa19190613f49565b8810612aad5788612aff565b612afe60008054906101000a900473ffffffffffffffffffffffffffffffffffffffff16878c60028c612ae09190614429565b81518110612af157612af0613f7d565b5b6020026020010151612805565b5b905060008060009054906101000a900473ffffffffffffffffffffffffffffffffffffffff1673ffffffffffffffffffffffffffffffffffffffff1663e6a4390589896040518363ffffffff1660e01b8152600401612b5f9291906147a5565b602060405180830381865afa158015612b7c573d6000803e3d6000fd5b505050506040513d601f19601f82011682018060405250810190612ba091906147e3565b905060008190508073ffffffffffffffffffffffffffffffffffffffff1663022c0d9f868686600067ffffffffffffffff811115612be157612be0613c51565b5b6040519080825280601f01601f191660200182016040528015612c135781602001600182028036833780820191505090505b506040518563ffffffff1660e01b8152600401612c33949392919061485a565b600060405180830381600087803b158015612c4d57600080fd5b505af1158015612c61573d6000803e3d6000fd5b505050505050505050505050508080612c799061447f565b9150506129b3565b50505050565b60008273ffffffffffffffffffffffffffffffffffffffff1682600067ffffffffffffffff811115612cbc57612cbb613c51565b5b6040519080825280601f01601f191660200182016040528015612cee5781602001600182028036833780820191505090505b50604051612cfc91906146fc565b60006040518083038185875af1925050503d8060008114612d39576040519150601f19603f3d011682016040523d82523d6000602084013e612d3e565b606091505b5050905080612d82576040517f08c379a0000000000000000000000000000000000000000000000000000000008152600401612d7990614918565b60405180910390fd5b505050565b6060600282511015612dce576040517f08c379a0000000000000000000000000000000000000000000000000000000008152600401612dc590614409565b60405180910390fd5b815167ffffffffffffffff811115612de957612de8613c51565b5b604051908082528060200260200182016040528015612e175781602001602082028036833780820191505090505b509050828160018351612e2a9190613f49565b81518110612e3b57612e3a613f7d565b5b602002602001018181525050600060018351612e579190613f49565b90505b6000811115612f1a57600080612eb18786600186612e789190613f49565b81518110612e8957612e88613f7d565b5b6020026020010151878681518110612ea457612ea3613f7d565b5b60200260200101516135b0565b91509150612eda848481518110612ecb57612eca613f7d565b5b6020026020010151838361331d565b84600185612ee89190613f49565b81518110612ef957612ef8613f7d565b5b60200260200101818152505050508080612f1290614938565b915050612e5a565b509392505050565b60005b60018351612f339190613f49565b8110156132ce57600080848381518110612f5057612f4f613f7d565b5b602002602001015185600185612f669190614429565b81518110612f7757612f76613f7d565b5b6020026020010151915091506000612f8f8383613724565b5090506000612fbf60008054906101000a900473ffffffffffffffffffffffffffffffffffffffff168585612805565b90506000806000808473ffffffffffffffffffffffffffffffffffffffff16630902f1ac6040518163ffffffff1660e01b8152600401606060405180830381865afa158015613012573d6000803e3d6000fd5b505050506040513d601f19601f8201168201806040525081019061303691906149e3565b506dffffffffffffffffffffffffffff1691506dffffffffffffffffffffffffffff1691506000808773ffffffffffffffffffffffffffffffffffffffff168a73ffffffffffffffffffffffffffffffffffffffff161461309857828461309b565b83835b9150915061312b828b73ffffffffffffffffffffffffffffffffffffffff166370a082318a6040518263ffffffff1660e01b81526004016130dc9190613e82565b602060405180830381865afa1580156130f9573d6000803e3d6000fd5b505050506040513d601f19601f8201168201806040525081019061311d919061417e565b6132d390919063ffffffff16565b9550613138868383612574565b9450505050506000808573ffffffffffffffffffffffffffffffffffffffff168873ffffffffffffffffffffffffffffffffffffffff161461317c57826000613180565b6000835b91509150600060028c516131949190613f49565b8a106131a0578a6131f2565b6131f160008054906101000a900473ffffffffffffffffffffffffffffffffffffffff16898e60028e6131d39190614429565b815181106131e4576131e3613f7d565b5b6020026020010151612805565b5b90508573ffffffffffffffffffffffffffffffffffffffff1663022c0d9f848484600067ffffffffffffffff81111561322e5761322d613c51565b5b6040519080825280601f01601f1916602001820160405280156132605781602001600182028036833780820191505090505b506040518563ffffffff1660e01b8152600401613280949392919061485a565b600060405180830381600087803b15801561329a57600080fd5b505af11580156132ae573d6000803e3d6000fd5b5050505050505050505050505080806132c69061447f565b915050612f25565b505050565b600061331583836040518060400160405280601e81526020017f536166654d6174683a207375627472616374696f6e206f766572666c6f770000815250613850565b905092915050565b6000808411613361576040517f08c379a000000000000000000000000000000000000000000000000000000000815260040161335890614aa8565b60405180910390fd5b6000831180156133715750600082115b6133b0576040517f08c379a00000000000000000000000000000000000000000000000000000000081526004016133a79061433d565b60405180910390fd5b60006133d96103e86133cb87876134ea90919063ffffffff16565b6134ea90919063ffffffff16565b905060006134046103e56133f688876138b490919063ffffffff16565b6134ea90919063ffffffff16565b905061342560018284613417919061438c565b61355790919063ffffffff16565b925050509392505050565b6000808411613474576040517f08c379a000000000000000000000000000000000000000000000000000000000815260040161346b90614b3a565b60405180910390fd5b6000831180156134845750600082115b6134c3576040517f08c379a00000000000000000000000000000000000000000000000000000000081526004016134ba9061433d565b60405180910390fd5b826134d783866134ea90919063ffffffff16565b6134e1919061438c565b90509392505050565b6000808214806135125750828283856135039190614b5a565b925082613510919061438c565b145b613551576040517f08c379a000000000000000000000000000000000000000000000000000000000815260040161354890614c00565b60405180910390fd5b92915050565b60008282846135669190614429565b91508110156135aa576040517f08c379a00000000000000000000000000000000000000000000000000000000081526004016135a190614c6c565b60405180910390fd5b92915050565b60008060006135bf8585613724565b5090506000808773ffffffffffffffffffffffffffffffffffffffff1663e6a4390588886040518363ffffffff1660e01b81526004016136009291906147a5565b602060405180830381865afa15801561361d573d6000803e3d6000fd5b505050506040513d601f19601f8201168201806040525081019061364191906147e3565b73ffffffffffffffffffffffffffffffffffffffff16630902f1ac6040518163ffffffff1660e01b8152600401606060405180830381865afa15801561368b573d6000803e3d6000fd5b505050506040513d601f19601f820116820180604052508101906136af91906149e3565b506dffffffffffffffffffffffffffff1691506dffffffffffffffffffffffffffff1691508273ffffffffffffffffffffffffffffffffffffffff168773ffffffffffffffffffffffffffffffffffffffff161461370e578082613711565b81815b8095508196505050505050935093915050565b6000808273ffffffffffffffffffffffffffffffffffffffff168473ffffffffffffffffffffffffffffffffffffffff1603613795576040517f08c379a000000000000000000000000000000000000000000000000000000000815260040161378c90614cfe565b60405180910390fd5b8273ffffffffffffffffffffffffffffffffffffffff168473ffffffffffffffffffffffffffffffffffffffff16106137cf5782846137d2565b83835b8092508193505050600073ffffffffffffffffffffffffffffffffffffffff168273ffffffffffffffffffffffffffffffffffffffff1603613849576040517f08c379a000000000000000000000000000000000000000000000000000000000815260040161384090614d6a565b60405180910390fd5b9250929050565b6000838311158290613898576040517f08c379a000000000000000000000000000000000000000000000000000000000815260040161388f9190614dce565b60405180910390fd5b50600083856138a79190613f49565b9050809150509392505050565b60008282846138c39190613f49565b9150811115613907576040517f08c379a00000000000000000000000000000000000000000000000000000000081526004016138fe90614e3c565b60405180910390fd5b92915050565b7f4e487b7100000000000000000000000000000000000000000000000000000000600052600160045260246000fd5b6000604051905090565b600080fd5b600080fd5b6000819050919050565b61396381613950565b811461396e57600080fd5b50565b6000813590506139808161395a565b92915050565b60008060006060848603121561399f5761399e613946565b5b60006139ad86828701613971565b93505060206139be86828701613971565b92505060406139cf86828701613971565b9150509250925092565b6139e281613950565b82525050565b60006020820190506139fd60008301846139d9565b92915050565b600080fd5b600080fd5b600080fd5b60008083601f840112613a2857613a27613a03565b5b8235905067ffffffffffffffff811115613a4557613a44613a08565b5b602083019150836020820283011115613a6157613a60613a0d565b5b9250929050565b600073ffffffffffffffffffffffffffffffffffffffff82169050919050565b6000613a9382613a68565b9050919050565b613aa381613a88565b8114613aae57600080fd5b50565b600081359050613ac081613a9a565b92915050565b60008060008060008060a08789031215613ae357613ae2613946565b5b6000613af189828a01613971565b9650506020613b0289828a01613971565b955050604087013567ffffffffffffffff811115613b2357613b2261394b565b5b613b2f89828a01613a12565b94509450506060613b4289828a01613ab1565b9250506080613b5389828a01613971565b9150509295509295509295565b600081519050919050565b600082825260208201905092915050565b6000819050602082019050919050565b613b9581613950565b82525050565b6000613ba78383613b8c565b60208301905092915050565b6000602082019050919050565b6000613bcb82613b60565b613bd58185613b6b565b9350613be083613b7c565b8060005b83811015613c11578151613bf88882613b9b565b9750613c0383613bb3565b925050600181019050613be4565b5085935050505092915050565b60006020820190508181036000830152613c388184613bc0565b905092915050565b6000601f19601f8301169050919050565b7f4e487b7100000000000000000000000000000000000000000000000000000000600052604160045260246000fd5b613c8982613c40565b810181811067ffffffffffffffff82111715613ca857613ca7613c51565b5b80604052505050565b6000613cbb61393c565b9050613cc78282613c80565b919050565b600067ffffffffffffffff821115613ce757613ce6613c51565b5b602082029050602081019050919050565b6000613d0b613d0684613ccc565b613cb1565b90508083825260208201905060208402830185811115613d2e57613d2d613a0d565b5b835b81811015613d575780613d438882613ab1565b845260208401935050602081019050613d30565b5050509392505050565b600082601f830112613d7657613d75613a03565b5b8135613d86848260208601613cf8565b91505092915050565b60008060408385031215613da657613da5613946565b5b6000613db485828601613971565b925050602083013567ffffffffffffffff811115613dd557613dd461394b565b5b613de185828601613d61565b9150509250929050565b600080600080600060808688031215613e0757613e06613946565b5b6000613e1588828901613971565b955050602086013567ffffffffffffffff811115613e3657613e3561394b565b5b613e4288828901613a12565b94509450506040613e5588828901613ab1565b9250506060613e6688828901613971565b9150509295509295909350565b613e7c81613a88565b82525050565b6000602082019050613e976000830184613e73565b92915050565b600082825260208201905092915050565b7f556e69737761705632526f757465723a20455850495245440000000000000000600082015250565b6000613ee4601883613e9d565b9150613eef82613eae565b602082019050919050565b60006020820190508181036000830152613f1381613ed7565b9050919050565b7f4e487b7100000000000000000000000000000000000000000000000000000000600052601160045260246000fd5b6000613f5482613950565b9150613f5f83613950565b925082821015613f7257613f71613f1a565b5b828203905092915050565b7f4e487b7100000000000000000000000000000000000000000000000000000000600052603260045260246000fd5b600060208284031215613fc257613fc1613946565b5b6000613fd084828501613ab1565b91505092915050565b7f556e69737761705632526f757465723a20494e56414c49445f50415448000000600082015250565b600061400f601d83613e9d565b915061401a82613fd9565b602082019050919050565b6000602082019050818103600083015261403e81614002565b9050919050565b7f556e69737761705632526f757465723a20494e53554646494349454e545f4f5560008201527f545055545f414d4f554e54000000000000000000000000000000000000000000602082015250565b60006140a1602b83613e9d565b91506140ac82614045565b604082019050919050565b600060208201905081810360008301526140d081614094565b9050919050565b7f556e69737761705632526f757465723a204558434553534956455f494e50555460008201527f5f414d4f554e5400000000000000000000000000000000000000000000000000602082015250565b6000614133602783613e9d565b915061413e826140d7565b604082019050919050565b6000602082019050818103600083015261416281614126565b9050919050565b6000815190506141788161395a565b92915050565b60006020828403121561419457614193613946565b5b60006141a284828501614169565b91505092915050565b60006040820190506141c06000830185613e73565b6141cd60208301846139d9565b9392505050565b60008115159050919050565b6141e9816141d4565b81146141f457600080fd5b50565b600081519050614206816141e0565b92915050565b60006020828403121561422257614221613946565b5b6000614230848285016141f7565b91505092915050565b7f556e697377617056324c6962726172793a20494e53554646494349454e545f4960008201527f4e5055545f414d4f554e54000000000000000000000000000000000000000000602082015250565b6000614295602b83613e9d565b91506142a082614239565b604082019050919050565b600060208201905081810360008301526142c481614288565b9050919050565b7f556e697377617056324c6962726172793a20494e53554646494349454e545f4c60008201527f4951554944495459000000000000000000000000000000000000000000000000602082015250565b6000614327602883613e9d565b9150614332826142cb565b604082019050919050565b600060208201905081810360008301526143568161431a565b9050919050565b7f4e487b7100000000000000000000000000000000000000000000000000000000600052601260045260246000fd5b600061439782613950565b91506143a283613950565b9250826143b2576143b161435d565b5b828204905092915050565b7f556e697377617056324c6962726172793a20494e56414c49445f504154480000600082015250565b60006143f3601e83613e9d565b91506143fe826143bd565b602082019050919050565b60006020820190508181036000830152614422816143e6565b9050919050565b600061443482613950565b915061443f83613950565b9250827fffffffffffffffffffffffffffffffffffffffffffffffffffffffffffffffff0382111561447457614473613f1a565b5b828201905092915050565b600061448a82613950565b91507fffffffffffffffffffffffffffffffffffffffffffffffffffffffffffffffff82036144bc576144bb613f1a565b5b600182019050919050565b60008160601b9050919050565b60006144df826144c7565b9050919050565b60006144f1826144d4565b9050919050565b61450961450482613a88565b6144e6565b82525050565b600061451b82856144f8565b60148201915061452b82846144f8565b6014820191508190509392505050565b600081905092915050565b7fff00000000000000000000000000000000000000000000000000000000000000600082015250565b600061457c60018361453b565b915061458782614546565b600182019050919050565b6000819050919050565b6000819050919050565b6145b76145b282614592565b61459c565b82525050565b7f96e8ac4277198ff8b6f785478aa9a39f403cb768dd02cbee326c3e7da348845f600082015250565b60006145f360208361453b565b91506145fe826145bd565b602082019050919050565b60006146148261456f565b915061462082856144f8565b60148201915061463082846145a6565b60208201915061463f826145e6565b91508190509392505050565b60006060820190506146606000830186613e73565b61466d6020830185613e73565b61467a60408301846139d9565b949350505050565b600081519050919050565b600081905092915050565b60005b838110156146b657808201518184015260208101905061469b565b838111156146c5576000848401525b50505050565b60006146d682614682565b6146e0818561468d565b93506146f0818560208601614698565b80840191505092915050565b600061470882846146cb565b915081905092915050565b7f5472616e7366657248656c7065723a205452414e534645525f46524f4d5f464160008201527f494c454400000000000000000000000000000000000000000000000000000000602082015250565b600061476f602483613e9d565b915061477a82614713565b604082019050919050565b6000602082019050818103600083015261479e81614762565b9050919050565b60006040820190506147ba6000830185613e73565b6147c76020830184613e73565b9392505050565b6000815190506147dd81613a9a565b92915050565b6000602082840312156147f9576147f8613946565b5b6000614807848285016147ce565b91505092915050565b600082825260208201905092915050565b600061482c82614682565b6148368185614810565b9350614846818560208601614698565b61484f81613c40565b840191505092915050565b600060808201905061486f60008301876139d9565b61487c60208301866139d9565b6148896040830185613e73565b818103606083015261489b8184614821565b905095945050505050565b7f5472616e7366657248656c7065723a204554485f5452414e534645525f46414960008201527f4c45440000000000000000000000000000000000000000000000000000000000602082015250565b6000614902602383613e9d565b915061490d826148a6565b604082019050919050565b60006020820190508181036000830152614931816148f5565b9050919050565b600061494382613950565b91506000820361495657614955613f1a565b5b600182039050919050565b60006dffffffffffffffffffffffffffff82169050919050565b61498481614961565b811461498f57600080fd5b50565b6000815190506149a18161497b565b92915050565b600063ffffffff82169050919050565b6149c0816149a7565b81146149cb57600080fd5b50565b6000815190506149dd816149b7565b92915050565b6000806000606084860312156149fc576149fb613946565b5b6000614a0a86828701614992565b9350506020614a1b86828701614992565b9250506040614a2c868287016149ce565b9150509250925092565b7f556e697377617056324c6962726172793a20494e53554646494349454e545f4f60008201527f55545055545f414d4f554e540000000000000000000000000000000000000000602082015250565b6000614a92602c83613e9d565b9150614a9d82614a36565b604082019050919050565b60006020820190508181036000830152614ac181614a85565b9050919050565b7f556e697377617056324c6962726172793a20494e53554646494349454e545f4160008201527f4d4f554e54000000000000000000000000000000000000000000000000000000602082015250565b6000614b24602583613e9d565b9150614b2f82614ac8565b604082019050919050565b60006020820190508181036000830152614b5381614b17565b9050919050565b6000614b6582613950565b9150614b7083613950565b9250817fffffffffffffffffffffffffffffffffffffffffffffffffffffffffffffffff0483118215151615614ba957614ba8613f1a565b5b828202905092915050565b7f64732d6d6174682d6d756c2d6f766572666c6f77000000000000000000000000600082015250565b6000614bea601483613e9d565b9150614bf582614bb4565b602082019050919050565b60006020820190508181036000830152614c1981614bdd565b9050919050565b7f64732d6d6174682d6164642d6f766572666c6f77000000000000000000000000600082015250565b6000614c56601483613e9d565b9150614c6182614c20565b602082019050919050565b60006020820190508181036000830152614c8581614c49565b9050919050565b7f556e697377617056324c6962726172793a204944454e544943414c5f4144445260008201527f4553534553000000000000000000000000000000000000000000000000000000602082015250565b6000614ce8602583613e9d565b9150614cf382614c8c565b604082019050919050565b60006020820190508181036000830152614d1781614cdb565b9050919050565b7f556e697377617056324c6962726172793a205a45524f5f414444524553530000600082015250565b6000614d54601e83613e9d565b9150614d5f82614d1e565b602082019050919050565b60006020820190508181036000830152614d8381614d47565b9050919050565b600081519050919050565b6000614da082614d8a565b614daa8185613e9d565b9350614dba818560208601614698565b614dc381613c40565b840191505092915050565b60006020820190508181036000830152614de88184614d95565b905092915050565b7f64732d6d6174682d7375622d756e646572666c6f770000000000000000000000600082015250565b6000614e26601583613e9d565b9150614e3182614df0565b602082019050919050565b60006020820190508181036000830152614e5581614e19565b905091905056fea2646970667358221220b6783d69be7793946c296559dd4dd2561e5f6e75538136f39dac2ffa3e5639ec64736f6c634300080d0033",
  "linkReferences": {},
  "deployedLinkReferences": {}
}