{
  "_format": "hh-sol-artifact-1",
  "contractName": "TwoCliffFaceCalls",
  "sourceName": "contracts/testing/TwoCliffFaceCalls.sol",
  "abi": [
    {
      "inputs": [
        {
          "internalType": "address",
          "name": "_cliffFace",
          "type": "address"
        }
      ],
      "stateMutability": "nonpayable",
      "type": "constructor"
    },
    {
      "inputs": [
        {
          "internalType": "address",
          "name": "behodlerToken",
          "type": "address"
        },
        {
          "internalType": "uint256",
          "name": "outputAmount",
          "type": "uint256"
        }
      ],
      "name": "doubleSwapIn",
      "outputs": [],
      "stateMutability": "nonpayable",
      "type": "function"
    }
  ],
  "bytecode": "0x60a060405234801561001057600080fd5b506040516105ca3803806105ca833981810160405281019061003291906100cf565b8073ffffffffffffffffffffffffffffffffffffffff1660808173ffffffffffffffffffffffffffffffffffffffff1681525050506100fc565b600080fd5b600073ffffffffffffffffffffffffffffffffffffffff82169050919050565b600061009c82610071565b9050919050565b6100ac81610091565b81146100b757600080fd5b50565b6000815190506100c9816100a3565b92915050565b6000602082840312156100e5576100e461006c565b5b60006100f3848285016100ba565b91505092915050565b6080516104ad61011d60003960008181604e015261017201526104ad6000f3fe608060405234801561001057600080fd5b506004361061002b5760003560e01c806367714f0214610030575b600080fd5b61004a600480360381019061004591906102b1565b61004c565b005b7f000000000000000000000000000000000000000000000000000000000000000073ffffffffffffffffffffffffffffffffffffffff1663c55dae636040518163ffffffff1660e01b8152600401602060405180830381865afa1580156100b7573d6000803e3d6000fd5b505050506040513d601f19601f820116820180604052508101906100db9190610306565b73ffffffffffffffffffffffffffffffffffffffff166323b872dd3330670de0b6b3a76400006040518463ffffffff1660e01b815260040161011f93929190610387565b6020604051808303816000875af115801561013e573d6000803e3d6000fd5b505050506040513d601f19601f8201168201806040525081019061016291906103f6565b50600067016345785d8a000090507f000000000000000000000000000000000000000000000000000000000000000073ffffffffffffffffffffffffffffffffffffffff1663ca409f4d308585856040518563ffffffff1660e01b81526004016101cf9493929190610432565b6020604051808303816000875af11580156101ee573d6000803e3d6000fd5b505050506040513d601f19601f8201168201806040525081019061021291906103f6565b50505050565b600080fd5b600073ffffffffffffffffffffffffffffffffffffffff82169050919050565b60006102488261021d565b9050919050565b6102588161023d565b811461026357600080fd5b50565b6000813590506102758161024f565b92915050565b6000819050919050565b61028e8161027b565b811461029957600080fd5b50565b6000813590506102ab81610285565b92915050565b600080604083850312156102c8576102c7610218565b5b60006102d685828601610266565b92505060206102e78582860161029c565b9150509250929050565b6000815190506103008161024f565b92915050565b60006020828403121561031c5761031b610218565b5b600061032a848285016102f1565b91505092915050565b61033c8161023d565b82525050565b6000819050919050565b6000819050919050565b600061037161036c61036784610342565b61034c565b61027b565b9050919050565b61038181610356565b82525050565b600060608201905061039c6000830186610333565b6103a96020830185610333565b6103b66040830184610378565b949350505050565b60008115159050919050565b6103d3816103be565b81146103de57600080fd5b50565b6000815190506103f0816103ca565b92915050565b60006020828403121561040c5761040b610218565b5b600061041a848285016103e1565b91505092915050565b61042c8161027b565b82525050565b60006080820190506104476000830187610333565b6104546020830186610333565b6104616040830185610423565b61046e6060830184610423565b9594505050505056fea264697066735822122013ce3f7388a14fddb403f7483f5e188ccb9293f57e15334672b3a7b61e41d0b564736f6c634300080d0033",
  "linkReferences": {},
  "deployedLinkReferences": {}
}