{
  "_format": "hh-sol-artifact-1",
  "contractName": "ProxyDAO",
  "sourceName": "contracts/testing/ProxyDAO.sol",
  "abi": [
    {
      "inputs": [
        {
          "internalType": "address",
          "name": "proposal",
          "type": "address"
        },
        {
          "internalType": "address",
          "name": "proposer",
          "type": "address"
        }
      ],
      "name": "makeProposal",
      "outputs": [],
      "stateMutability": "nonpayable",
      "type": "function"
    },
    {
      "inputs": [
        {
          "internalType": "address",
          "name": "proposal",
          "type": "address"
        }
      ],
      "name": "successfulProposal",
      "outputs": [
        {
          "internalType": "bool",
          "name": "",
          "type": "bool"
        }
      ],
      "stateMutability": "view",
      "type": "function"
    }
  ],
  "bytecode": "0x608060405234801561001057600080fd5b506101d2806100206000396000f3fe608060405234801561001057600080fd5b50600436106100365760003560e01c8063b7ebc23b1461003b578063bc7e7d511461006b575b600080fd5b610055600480360381019061005091906100f9565b610087565b6040516100629190610141565b60405180910390f35b6100856004803603810190610080919061015c565b610092565b005b600060019050919050565b5050565b600080fd5b600073ffffffffffffffffffffffffffffffffffffffff82169050919050565b60006100c68261009b565b9050919050565b6100d6816100bb565b81146100e157600080fd5b50565b6000813590506100f3816100cd565b92915050565b60006020828403121561010f5761010e610096565b5b600061011d848285016100e4565b91505092915050565b60008115159050919050565b61013b81610126565b82525050565b60006020820190506101566000830184610132565b92915050565b6000806040838503121561017357610172610096565b5b6000610181858286016100e4565b9250506020610192858286016100e4565b915050925092905056fea264697066735822122097ea24aa348209cdbdb6fca23b4f167b6fbb82c3b61cab7ac30fb7d1135960fb64736f6c634300080d0033",
  "linkReferences": {},
  "deployedLinkReferences": {}
}