{
  "_format": "hh-sol-artifact-1",
  "contractName": "ToggleWhitelistProposalProposal",
  "sourceName": "contracts/DAO/Proposals/ToggleWhitelistProposalProposal.sol",
  "abi": [
    {
      "inputs": [
        {
          "internalType": "address",
          "name": "dao",
          "type": "address"
        },
        {
          "internalType": "string",
          "name": "_description",
          "type": "string"
        }
      ],
      "stateMutability": "nonpayable",
      "type": "constructor"
    },
    {
      "inputs": [],
      "name": "ExecutionFailed",
      "type": "error"
    },
    {
      "inputs": [
        {
          "internalType": "address",
          "name": "dao",
          "type": "address"
        },
        {
          "internalType": "address",
          "name": "factory",
          "type": "address"
        }
      ],
      "name": "OnlyFactoryOrDAO",
      "type": "error"
    },
    {
      "inputs": [
        {
          "internalType": "address",
          "name": "proposal",
          "type": "address"
        }
      ],
      "name": "ProposalLocked",
      "type": "error"
    },
    {
      "inputs": [],
      "name": "description",
      "outputs": [
        {
          "internalType": "string",
          "name": "",
          "type": "string"
        }
      ],
      "stateMutability": "view",
      "type": "function"
    },
    {
      "inputs": [],
      "name": "locked",
      "outputs": [
        {
          "internalType": "bool",
          "name": "",
          "type": "bool"
        }
      ],
      "stateMutability": "view",
      "type": "function"
    },
    {
      "inputs": [],
      "name": "orchestrateExecute",
      "outputs": [],
      "stateMutability": "nonpayable",
      "type": "function"
    },
    {
      "inputs": [
        {
          "internalType": "address",
          "name": "proposalFactory",
          "type": "address"
        },
        {
          "internalType": "address",
          "name": "toggleContract",
          "type": "address"
        }
      ],
      "name": "parameterize",
      "outputs": [],
      "stateMutability": "nonpayable",
      "type": "function"
    },
    {
      "inputs": [
        {
          "internalType": "bool",
          "name": "_locked",
          "type": "bool"
        }
      ],
      "name": "setLocked",
      "outputs": [],
      "stateMutability": "nonpayable",
      "type": "function"
    }
  ],
  "bytecode": "0x60a06040523480156200001157600080fd5b5060405162000ea038038062000ea08339818101604052810190620000379190620003d4565b8160008054620000479062000469565b80601f0160208091040260200160405190810160405280929190818152602001828054620000759062000469565b8015620000c65780601f106200009a57610100808354040283529160200191620000c6565b820191906000526020600020905b815481529060010190602001808311620000a857829003601f168201915b50505050508173ffffffffffffffffffffffffffffffffffffffff1660808173ffffffffffffffffffffffffffffffffffffffff168152505080600090805190602001906200011792919062000122565b50505050506200049e565b828054620001309062000469565b90600052602060002090601f016020900481019282620001545760008555620001a0565b82601f106200016f57805160ff1916838001178555620001a0565b82800160010185558215620001a0579182015b828111156200019f57825182559160200191906001019062000182565b5b509050620001af9190620001b3565b5090565b5b80821115620001ce576000816000905550600101620001b4565b5090565b6000604051905090565b600080fd5b600080fd5b600073ffffffffffffffffffffffffffffffffffffffff82169050919050565b60006200021382620001e6565b9050919050565b620002258162000206565b81146200023157600080fd5b50565b60008151905062000245816200021a565b92915050565b600080fd5b600080fd5b6000601f19601f8301169050919050565b7f4e487b7100000000000000000000000000000000000000000000000000000000600052604160045260246000fd5b620002a08262000255565b810181811067ffffffffffffffff82111715620002c257620002c162000266565b5b80604052505050565b6000620002d7620001d2565b9050620002e5828262000295565b919050565b600067ffffffffffffffff82111562000308576200030762000266565b5b620003138262000255565b9050602081019050919050565b60005b838110156200034057808201518184015260208101905062000323565b8381111562000350576000848401525b50505050565b60006200036d6200036784620002ea565b620002cb565b9050828152602081018484840111156200038c576200038b62000250565b5b6200039984828562000320565b509392505050565b600082601f830112620003b957620003b86200024b565b5b8151620003cb84826020860162000356565b91505092915050565b60008060408385031215620003ee57620003ed620001dc565b5b6000620003fe8582860162000234565b925050602083015167ffffffffffffffff811115620004225762000421620001e1565b5b6200043085828601620003a1565b9150509250929050565b7f4e487b7100000000000000000000000000000000000000000000000000000000600052602260045260246000fd5b600060028204905060018216806200048257607f821691505b6020821081036200049857620004976200043a565b5b50919050565b6080516109d2620004ce6000396000818160de0152818161010301528181610263015261028801526109d26000f3fe608060405234801561001057600080fd5b50600436106100575760003560e01c8063211e28b61461005c5780633e7f6c64146100785780637284e41614610082578063cf309012146100a0578063ef99fc0e146100be575b600080fd5b6100766004803603810190610071919061069b565b6100da565b005b61008061025f565b005b61008a610407565b6040516100979190610761565b60405180910390f35b6100a8610495565b6040516100b59190610792565b60405180910390f35b6100d860048036038101906100d3919061080b565b6104a8565b005b60007f0000000000000000000000000000000000000000000000000000000000000000905060007f000000000000000000000000000000000000000000000000000000000000000073ffffffffffffffffffffffffffffffffffffffff166301e179dc6040518163ffffffff1660e01b8152600401606060405180830381865afa15801561016c573d6000803e3d6000fd5b505050506040513d601f19601f820116820180604052508101906101909190610896565b925050508173ffffffffffffffffffffffffffffffffffffffff163373ffffffffffffffffffffffffffffffffffffffff16141580156101fc57508073ffffffffffffffffffffffffffffffffffffffff163373ffffffffffffffffffffffffffffffffffffffff1614155b156102405781816040517ff8b7c0c30000000000000000000000000000000000000000000000000000000081526004016102379291906108f8565b60405180910390fd5b82600160006101000a81548160ff021916908315150217905550505050565b60007f0000000000000000000000000000000000000000000000000000000000000000905060007f000000000000000000000000000000000000000000000000000000000000000073ffffffffffffffffffffffffffffffffffffffff166301e179dc6040518163ffffffff1660e01b8152600401606060405180830381865afa1580156102f1573d6000803e3d6000fd5b505050506040513d601f19601f820116820180604052508101906103159190610896565b925050508173ffffffffffffffffffffffffffffffffffffffff163373ffffffffffffffffffffffffffffffffffffffff161415801561038157508073ffffffffffffffffffffffffffffffffffffffff163373ffffffffffffffffffffffffffffffffffffffff1614155b156103c55781816040517ff8b7c0c30000000000000000000000000000000000000000000000000000000081526004016103bc9291906108f8565b60405180910390fd5b6103cd6105a0565b610403576040517facfdb44400000000000000000000000000000000000000000000000000000000815260040160405180910390fd5b5050565b6000805461041490610950565b80601f016020809104026020016040519081016040528092919081815260200182805461044090610950565b801561048d5780601f106104625761010080835404028352916020019161048d565b820191906000526020600020905b81548152906001019060200180831161047057829003601f168201915b505050505081565b600160009054906101000a900460ff1681565b600160009054906101000a900460ff16156104fa57306040517fefaa447e0000000000000000000000000000000000000000000000000000000081526004016104f19190610981565b60405180910390fd5b81600260000160006101000a81548173ffffffffffffffffffffffffffffffffffffffff021916908373ffffffffffffffffffffffffffffffffffffffff16021790555080600260010160006101000a81548173ffffffffffffffffffffffffffffffffffffffff021916908373ffffffffffffffffffffffffffffffffffffffff16021790555060018060006101000a81548160ff0219169083151502179055505050565b6000600260000160009054906101000a900473ffffffffffffffffffffffffffffffffffffffff1673ffffffffffffffffffffffffffffffffffffffff1663e5f6f7fd600260010160009054906101000a900473ffffffffffffffffffffffffffffffffffffffff166040518263ffffffff1660e01b81526004016106259190610981565b600060405180830381600087803b15801561063f57600080fd5b505af1158015610653573d6000803e3d6000fd5b505050506001905090565b600080fd5b60008115159050919050565b61067881610663565b811461068357600080fd5b50565b6000813590506106958161066f565b92915050565b6000602082840312156106b1576106b061065e565b5b60006106bf84828501610686565b91505092915050565b600081519050919050565b600082825260208201905092915050565b60005b838110156107025780820151818401526020810190506106e7565b83811115610711576000848401525b50505050565b6000601f19601f8301169050919050565b6000610733826106c8565b61073d81856106d3565b935061074d8185602086016106e4565b61075681610717565b840191505092915050565b6000602082019050818103600083015261077b8184610728565b905092915050565b61078c81610663565b82525050565b60006020820190506107a76000830184610783565b92915050565b600073ffffffffffffffffffffffffffffffffffffffff82169050919050565b60006107d8826107ad565b9050919050565b6107e8816107cd565b81146107f357600080fd5b50565b600081359050610805816107df565b92915050565b600080604083850312156108225761082161065e565b5b6000610830858286016107f6565b9250506020610841858286016107f6565b9150509250929050565b6000819050919050565b61085e8161084b565b811461086957600080fd5b50565b60008151905061087b81610855565b92915050565b600081519050610890816107df565b92915050565b6000806000606084860312156108af576108ae61065e565b5b60006108bd8682870161086c565b93505060206108ce8682870161086c565b92505060406108df86828701610881565b9150509250925092565b6108f2816107cd565b82525050565b600060408201905061090d60008301856108e9565b61091a60208301846108e9565b9392505050565b7f4e487b7100000000000000000000000000000000000000000000000000000000600052602260045260246000fd5b6000600282049050600182168061096857607f821691505b60208210810361097b5761097a610921565b5b50919050565b600060208201905061099660008301846108e9565b9291505056fea2646970667358221220ceda4bc2d19671e1f681a9bd7a1e767ecf43020d26d70c8615f87f79ba009a4c64736f6c634300080d0033",
  "linkReferences": {},
  "deployedLinkReferences": {}
}